{
  "_format": "hh-sol-artifact-1",
  "contractName": "ExchangeFacet",
  "sourceName": "contracts/facets/ExchangeFacet.sol",
  "abi": [
    {
      "anonymous": false,
      "inputs": [
        {
          "indexed": true,
          "internalType": "address",
          "name": "owner",
          "type": "address"
        },
        {
          "indexed": true,
          "internalType": "address",
          "name": "approved",
          "type": "address"
        },
        {
          "indexed": true,
          "internalType": "uint256",
          "name": "tokenId",
          "type": "uint256"
        }
      ],
      "name": "Approval",
      "type": "event"
    },
    {
      "anonymous": false,
      "inputs": [
        {
          "indexed": true,
          "internalType": "address",
          "name": "owner",
          "type": "address"
        },
        {
          "indexed": true,
          "internalType": "address",
          "name": "operator",
          "type": "address"
        },
        {
          "indexed": false,
          "internalType": "bool",
          "name": "approved",
          "type": "bool"
        }
      ],
      "name": "ApprovalForAll",
      "type": "event"
    },
    {
      "anonymous": false,
      "inputs": [
        {
          "indexed": true,
          "internalType": "address",
          "name": "_from",
          "type": "address"
        },
        {
          "indexed": true,
          "internalType": "uint256",
          "name": "_playerId",
          "type": "uint256"
        },
        {
          "indexed": false,
          "internalType": "uint256",
          "name": "_price",
          "type": "uint256"
        }
      ],
      "name": "CreateEquipmentListing",
      "type": "event"
    },
    {
      "anonymous": false,
      "inputs": [
        {
          "indexed": true,
          "internalType": "address",
          "name": "_from",
          "type": "address"
        },
        {
          "indexed": true,
          "internalType": "uint256",
          "name": "_playerId",
          "type": "uint256"
        },
        {
          "indexed": false,
          "internalType": "uint256",
          "name": "_price",
          "type": "uint256"
        }
      ],
      "name": "CreatePlayerListing",
      "type": "event"
    },
    {
      "anonymous": false,
      "inputs": [
        {
          "indexed": true,
          "internalType": "address",
          "name": "_from",
          "type": "address"
        },
        {
          "indexed": true,
          "internalType": "uint256",
          "name": "_playerId",
          "type": "uint256"
        }
      ],
      "name": "DelistPlayer",
      "type": "event"
    },
    {
      "anonymous": false,
      "inputs": [
        {
          "indexed": true,
          "internalType": "address",
          "name": "_to",
          "type": "address"
        },
        {
          "indexed": false,
          "internalType": "uint256",
          "name": "_id",
          "type": "uint256"
        }
      ],
      "name": "PurchaseEquipmentLisitng",
      "type": "event"
    },
    {
      "anonymous": false,
      "inputs": [
        {
          "indexed": true,
          "internalType": "address",
          "name": "_to",
          "type": "address"
        },
        {
          "indexed": false,
          "internalType": "uint256",
          "name": "_id",
          "type": "uint256"
        }
      ],
      "name": "PurchasePlayerListing",
      "type": "event"
    },
    {
      "anonymous": false,
      "inputs": [
        {
          "indexed": true,
          "internalType": "address",
          "name": "from",
          "type": "address"
        },
        {
          "indexed": true,
          "internalType": "address",
          "name": "to",
          "type": "address"
        },
        {
          "indexed": true,
          "internalType": "uint256",
          "name": "tokenId",
          "type": "uint256"
        }
      ],
      "name": "Transfer",
      "type": "event"
    },
    {
      "inputs": [
        {
          "internalType": "uint256",
          "name": "_playerId",
          "type": "uint256"
        },
        {
          "internalType": "uint256",
          "name": "_price",
          "type": "uint256"
        }
      ],
      "name": "createPlayerListing",
      "outputs": [],
      "stateMutability": "nonpayable",
      "type": "function"
    },
    {
      "inputs": [
        {
          "internalType": "uint256",
          "name": "_playerId",
          "type": "uint256"
        }
      ],
      "name": "deListPlayer",
      "outputs": [],
      "stateMutability": "nonpayable",
      "type": "function"
    },
    {
      "inputs": [],
      "name": "getAllPlayerListings",
      "outputs": [
        {
          "internalType": "uint256[]",
          "name": "",
          "type": "uint256[]"
        }
      ],
      "stateMutability": "view",
      "type": "function"
    },
    {
      "inputs": [
        {
          "internalType": "uint256",
          "name": "_playerId",
          "type": "uint256"
        }
      ],
      "name": "getPlayerListing",
      "outputs": [
        {
          "components": [
            {
              "internalType": "address payable",
              "name": "seller",
              "type": "address"
            },
            {
              "internalType": "uint256",
              "name": "playerId",
              "type": "uint256"
            },
            {
              "internalType": "uint256",
              "name": "price",
              "type": "uint256"
            },
            {
              "internalType": "uint256",
              "name": "pointer",
              "type": "uint256"
            },
            {
              "internalType": "uint256",
              "name": "addressPointer",
              "type": "uint256"
            }
          ],
          "internalType": "struct PlayerListing",
          "name": "",
          "type": "tuple"
        }
      ],
      "stateMutability": "view",
      "type": "function"
    },
    {
      "inputs": [
        {
          "internalType": "address",
          "name": "_address",
          "type": "address"
        }
      ],
      "name": "getPlayerListingsByAddress",
      "outputs": [
        {
          "internalType": "uint256[]",
          "name": "",
          "type": "uint256[]"
        }
      ],
      "stateMutability": "view",
      "type": "function"
    },
    {
      "inputs": [
        {
          "internalType": "uint256",
          "name": "_playerId",
          "type": "uint256"
        }
      ],
      "name": "owners",
      "outputs": [
        {
          "internalType": "address",
          "name": "",
          "type": "address"
        }
      ],
      "stateMutability": "view",
      "type": "function"
    },
    {
      "inputs": [
        {
          "internalType": "uint256",
          "name": "_playerId",
          "type": "uint256"
        }
      ],
      "name": "purchasePlayer",
      "outputs": [],
      "stateMutability": "payable",
      "type": "function"
    }
  ],
  "bytecode": "0x608060405234801561001057600080fd5b50612247806100206000396000f3fe6080604052600436106100705760003560e01c806352605d411161004e57806352605d411461010b57806352d2872a1461013657806374e55f321461015f578063a61896e61461019c57610070565b8063025e7c2714610075578063075881d6146100b25780634ae8e577146100ce575b600080fd5b34801561008157600080fd5b5061009c6004803603810190610097919061186b565b6101c5565b6040516100a991906118d9565b60405180910390f35b6100cc60048036038101906100c7919061186b565b6101d7565b005b3480156100da57600080fd5b506100f560048036038101906100f09190611920565b6104aa565b6040516101029190611a0b565b60405180910390f35b34801561011757600080fd5b506101206104bc565b60405161012d9190611a0b565b60405180910390f35b34801561014257600080fd5b5061015d60048036038101906101589190611a2d565b6104cb565b005b34801561016b57600080fd5b506101866004803603810190610181919061186b565b610528565b6040516101939190611af6565b60405180910390f35b3480156101a857600080fd5b506101c360048036038101906101be919061186b565b610540565b005b60006101d082610590565b9050919050565b60007308d8e680a2d295af8cbcd8b8e07f900275bc6b8d905060006101fb836105db565b905080604001513414610243576040517f08c379a000000000000000000000000000000000000000000000000000000000815260040161023a90611b6e565b60405180910390fd5b61024c83610695565b61025a816000015184610ac2565b610299576040517f08c379a000000000000000000000000000000000000000000000000000000000815260040161029090611c00565b60405180910390fd5b6102a881600001513385610c14565b3373ffffffffffffffffffffffffffffffffffffffff167f225283508a8ce3b05daa68183df02a29ea48aeaa415ac67113c50dea09c1b697846040516102ee9190611c2f565b60405180910390a26000606480836040015161030a9190611c79565b6069846040015161031b9190611c79565b6103259190611cbb565b61032f9190611d1e565b905060008183604001516103439190611cbb565b90506000836000015173ffffffffffffffffffffffffffffffffffffffff168260405161036f90611d80565b60006040518083038185875af1925050503d80600081146103ac576040519150601f19603f3d011682016040523d82523d6000602084013e6103b1565b606091505b50509050806103f5576040517f08c379a00000000000000000000000000000000000000000000000000000000081526004016103ec90611e07565b60405180910390fd5b60008573ffffffffffffffffffffffffffffffffffffffff168460405161041b90611d80565b60006040518083038185875af1925050503d8060008114610458576040519150601f19603f3d011682016040523d82523d6000602084013e61045d565b606091505b50509050806104a1576040517f08c379a000000000000000000000000000000000000000000000000000000000815260040161049890611e99565b60405180910390fd5b50505050505050565b60606104b582610f31565b9050919050565b60606104c6610fd7565b905090565b6104d5828261103e565b813373ffffffffffffffffffffffffffffffffffffffff167fbf8edb16a3925949bda35d6c527b8f53ff37a989912808fac0a134935dcf50518360405161051c9190611c2f565b60405180910390a35050565b6105306117eb565b610539826105db565b9050919050565b6105498161131a565b803373ffffffffffffffffffffffffffffffffffffffff167f1d7264ed0fc0f609bb4cb82e2664c9cd699ae2dc128e0228df77e1abec16d25a60405160405180910390a350565b60008061059b611712565b905080600201600084815260200190815260200160002060009054906101000a900473ffffffffffffffffffffffffffffffffffffffff16915050919050565b6105e36117eb565b60006105ed61173f565b90508060000160008481526020019081526020016000206040518060a00160405290816000820160009054906101000a900473ffffffffffffffffffffffffffffffffffffffff1673ffffffffffffffffffffffffffffffffffffffff1673ffffffffffffffffffffffffffffffffffffffff168152602001600182015481526020016002820154815260200160038201548152602001600482015481525050915050919050565b600061069f611712565b905060006106ab61173f565b9050600081600001600085815260200190815260200160002060000160009054906101000a900473ffffffffffffffffffffffffffffffffffffffff16905081600001600085815260200190815260200160002060000160009054906101000a900473ffffffffffffffffffffffffffffffffffffffff1673ffffffffffffffffffffffffffffffffffffffff1683600201600086815260200190815260200160002060009054906101000a900473ffffffffffffffffffffffffffffffffffffffff1673ffffffffffffffffffffffffffffffffffffffff16146107c5576040517f08c379a00000000000000000000000000000000000000000000000000000000081526004016107bc90611f05565b60405180910390fd5b6000826000016000868152602001908152602001600020600301549050600083600201600185600201805490506107fc9190611cbb565b8154811061080d5761080c611f25565b5b906000526020600020015490508084600201838154811061083157610830611f25565b5b90600052602060002001819055508184600001600083815260200190815260200160002060030181905550836002018054806108705761086f611f54565b5b60019003818190600052602060002001600090559055600084600001600088815260200190815260200160002060040154905060008560010160008673ffffffffffffffffffffffffffffffffffffffff1673ffffffffffffffffffffffffffffffffffffffff16815260200190815260200160002060018760010160008873ffffffffffffffffffffffffffffffffffffffff1673ffffffffffffffffffffffffffffffffffffffff168152602001908152602001600020805490506109379190611cbb565b8154811061094857610947611f25565b5b90600052602060002001549050808660010160008773ffffffffffffffffffffffffffffffffffffffff1673ffffffffffffffffffffffffffffffffffffffff16815260200190815260200160002083815481106109a9576109a8611f25565b5b906000526020600020018190555081866000016000838152602001908152602001600020600401819055508560010160008673ffffffffffffffffffffffffffffffffffffffff1673ffffffffffffffffffffffffffffffffffffffff168152602001908152602001600020805480610a2557610a24611f54565b5b6001900381819060005260206000200160009055905560008760030160008a815260200190815260200160002060020181905550856000016000898152602001908152602001600020600080820160006101000a81549073ffffffffffffffffffffffffffffffffffffffff0219169055600182016000905560028201600090556003820160009055600482016000905550505050505050505050565b600080610ace8361176c565b90508073ffffffffffffffffffffffffffffffffffffffff168473ffffffffffffffffffffffffffffffffffffffff161480610b995750610b0d6117b2565b60080160008273ffffffffffffffffffffffffffffffffffffffff1673ffffffffffffffffffffffffffffffffffffffff16815260200190815260200160002060008573ffffffffffffffffffffffffffffffffffffffff1673ffffffffffffffffffffffffffffffffffffffff16815260200190815260200160002060009054906101000a900460ff165b80610c0b57508373ffffffffffffffffffffffffffffffffffffffff16610bbe6117b2565b600b01600085815260200190815260200160002060009054906101000a900473ffffffffffffffffffffffffffffffffffffffff1673ffffffffffffffffffffffffffffffffffffffff16145b91505092915050565b8273ffffffffffffffffffffffffffffffffffffffff16610c348261176c565b73ffffffffffffffffffffffffffffffffffffffff1614610c8a576040517f08c379a0000000000000000000000000000000000000000000000000000000008152600401610c8190611ff5565b60405180910390fd5b600073ffffffffffffffffffffffffffffffffffffffff168273ffffffffffffffffffffffffffffffffffffffff1603610cf9576040517f08c379a0000000000000000000000000000000000000000000000000000000008152600401610cf090612087565b60405180910390fd5b610d0683838360016117df565b8273ffffffffffffffffffffffffffffffffffffffff16610d268261176c565b73ffffffffffffffffffffffffffffffffffffffff1614610d7c576040517f08c379a0000000000000000000000000000000000000000000000000000000008152600401610d7390611ff5565b60405180910390fd5b610d846117b2565b600b01600082815260200190815260200160002060006101000a81549073ffffffffffffffffffffffffffffffffffffffff02191690556001610dc56117b2565b600a0160008573ffffffffffffffffffffffffffffffffffffffff1673ffffffffffffffffffffffffffffffffffffffff168152602001908152602001600020600082825403925050819055506001610e1c6117b2565b600a0160008473ffffffffffffffffffffffffffffffffffffffff1673ffffffffffffffffffffffffffffffffffffffff1681526020019081526020016000206000828254019250508190555081610e726117b2565b600901600083815260200190815260200160002060006101000a81548173ffffffffffffffffffffffffffffffffffffffff021916908373ffffffffffffffffffffffffffffffffffffffff160217905550808273ffffffffffffffffffffffffffffffffffffffff168473ffffffffffffffffffffffffffffffffffffffff167fddf252ad1be2c89b69c2b068fc378daa952ba7f163c4a11628f55a4df523b3ef60405160405180910390a4610f2c83838360016117e5565b505050565b60606000610f3d61173f565b90508060010160008473ffffffffffffffffffffffffffffffffffffffff1673ffffffffffffffffffffffffffffffffffffffff168152602001908152602001600020805480602002602001604051908101604052809291908181526020018280548015610fca57602002820191906000526020600020905b815481526020019060010190808311610fb6575b5050505050915050919050565b60606000610fe361173f565b90508060020180548060200260200160405190810160405280929190818152602001828054801561103357602002820191906000526020600020905b81548152602001906001019080831161101f575b505050505091505090565b6000611048611712565b9050600061105461173f565b90503373ffffffffffffffffffffffffffffffffffffffff1682600201600086815260200190815260200160002060009054906101000a900473ffffffffffffffffffffffffffffffffffffffff1673ffffffffffffffffffffffffffffffffffffffff16146110f9576040517f08c379a00000000000000000000000000000000000000000000000000000000081526004016110f0906120f3565b60405180910390fd5b60008260030160008681526020019081526020016000206002015414611154576040517f08c379a000000000000000000000000000000000000000000000000000000000815260040161114b9061215f565b60405180910390fd5b6063826003016000868152602001908152602001600020600201819055506040518060a001604052803373ffffffffffffffffffffffffffffffffffffffff168152602001858152602001848152602001826002018054905081526020018260010160003373ffffffffffffffffffffffffffffffffffffffff1673ffffffffffffffffffffffffffffffffffffffff1681526020019081526020016000208054905081525081600001600086815260200190815260200160002060008201518160000160006101000a81548173ffffffffffffffffffffffffffffffffffffffff021916908373ffffffffffffffffffffffffffffffffffffffff16021790555060208201518160010155604082015181600201556060820151816003015560808201518160040155905050806002018490806001815401808255809150506001900390600052602060002001600090919091909150558060010160003373ffffffffffffffffffffffffffffffffffffffff1673ffffffffffffffffffffffffffffffffffffffff16815260200190815260200160002084908060018154018082558091505060019003906000526020600020016000909190919091505550505050565b6000611324611712565b9050600061133061173f565b90503373ffffffffffffffffffffffffffffffffffffffff1681600001600085815260200190815260200160002060000160009054906101000a900473ffffffffffffffffffffffffffffffffffffffff1673ffffffffffffffffffffffffffffffffffffffff16146113d8576040517f08c379a00000000000000000000000000000000000000000000000000000000081526004016113cf906121f1565b60405180910390fd5b600081600001600085815260200190815260200160002060000160009054906101000a900473ffffffffffffffffffffffffffffffffffffffff16905060008260000160008681526020019081526020016000206003015490506000836002016001856002018054905061144c9190611cbb565b8154811061145d5761145c611f25565b5b906000526020600020015490508084600201838154811061148157611480611f25565b5b90600052602060002001819055508184600001600083815260200190815260200160002060030181905550836002018054806114c0576114bf611f54565b5b60019003818190600052602060002001600090559055600084600001600088815260200190815260200160002060040154905060008560010160008673ffffffffffffffffffffffffffffffffffffffff1673ffffffffffffffffffffffffffffffffffffffff16815260200190815260200160002060018760010160008873ffffffffffffffffffffffffffffffffffffffff1673ffffffffffffffffffffffffffffffffffffffff168152602001908152602001600020805490506115879190611cbb565b8154811061159857611597611f25565b5b90600052602060002001549050808660010160008773ffffffffffffffffffffffffffffffffffffffff1673ffffffffffffffffffffffffffffffffffffffff16815260200190815260200160002083815481106115f9576115f8611f25565b5b906000526020600020018190555081866000016000838152602001908152602001600020600401819055508560010160008673ffffffffffffffffffffffffffffffffffffffff1673ffffffffffffffffffffffffffffffffffffffff16815260200190815260200160002080548061167557611674611f54565b5b6001900381819060005260206000200160009055905560008760030160008a815260200190815260200160002060020181905550856000016000898152602001908152602001600020600080820160006101000a81549073ffffffffffffffffffffffffffffffffffffffff0219169055600182016000905560028201600090556003820160009055600482016000905550505050505050505050565b6000807f3cab9a070a0c61cd0ae9d9e9e2c0781e5ca8691bec4087e5a4701d5ac018dd4e90508091505090565b6000807f0e933a40bc736a597dbcd3653baab40cf09a5c2453d7c0d87eeb7ea00af356fb90508091505090565b60006117766117b2565b600901600083815260200190815260200160002060009054906101000a900473ffffffffffffffffffffffffffffffffffffffff169050919050565b6000807f2569078dfb4b0305704d3008e7403993ae9601b85f7ae5e742de3de8f8011c4090508091505090565b50505050565b50505050565b6040518060a00160405280600073ffffffffffffffffffffffffffffffffffffffff168152602001600081526020016000815260200160008152602001600081525090565b600080fd5b6000819050919050565b61184881611835565b811461185357600080fd5b50565b6000813590506118658161183f565b92915050565b60006020828403121561188157611880611830565b5b600061188f84828501611856565b91505092915050565b600073ffffffffffffffffffffffffffffffffffffffff82169050919050565b60006118c382611898565b9050919050565b6118d3816118b8565b82525050565b60006020820190506118ee60008301846118ca565b92915050565b6118fd816118b8565b811461190857600080fd5b50565b60008135905061191a816118f4565b92915050565b60006020828403121561193657611935611830565b5b60006119448482850161190b565b91505092915050565b600081519050919050565b600082825260208201905092915050565b6000819050602082019050919050565b61198281611835565b82525050565b60006119948383611979565b60208301905092915050565b6000602082019050919050565b60006119b88261194d565b6119c28185611958565b93506119cd83611969565b8060005b838110156119fe5781516119e58882611988565b97506119f0836119a0565b9250506001810190506119d1565b5085935050505092915050565b60006020820190508181036000830152611a2581846119ad565b905092915050565b60008060408385031215611a4457611a43611830565b5b6000611a5285828601611856565b9250506020611a6385828601611856565b9150509250929050565b6000611a7882611898565b9050919050565b611a8881611a6d565b82525050565b60a082016000820151611aa46000850182611a7f565b506020820151611ab76020850182611979565b506040820151611aca6040850182611979565b506060820151611add6060850182611979565b506080820151611af06080850182611979565b50505050565b600060a082019050611b0b6000830184611a8e565b92915050565b600082825260208201905092915050565b7f53656e642074686520657861637420616d6f756e740000000000000000000000600082015250565b6000611b58601583611b11565b9150611b6382611b22565b602082019050919050565b60006020820190508181036000830152611b8781611b4b565b9050919050565b7f4552433732313a2073656c6c6572206973206e6f7420746f6b656e206f776e6560008201527f72206f7220617070726f76656400000000000000000000000000000000000000602082015250565b6000611bea602d83611b11565b9150611bf582611b8e565b604082019050919050565b60006020820190508181036000830152611c1981611bdd565b9050919050565b611c2981611835565b82525050565b6000602082019050611c446000830184611c20565b92915050565b7f4e487b7100000000000000000000000000000000000000000000000000000000600052601160045260246000fd5b6000611c8482611835565b9150611c8f83611835565b9250828202611c9d81611835565b91508282048414831517611cb457611cb3611c4a565b5b5092915050565b6000611cc682611835565b9150611cd183611835565b9250828203905081811115611ce957611ce8611c4a565b5b92915050565b7f4e487b7100000000000000000000000000000000000000000000000000000000600052601260045260246000fd5b6000611d2982611835565b9150611d3483611835565b925082611d4457611d43611cef565b5b828204905092915050565b600081905092915050565b50565b6000611d6a600083611d4f565b9150611d7582611d5a565b600082019050919050565b6000611d8b82611d5d565b9150819050919050565b7f4661696c656420746f2073656e6420457468657220746f207468652073656c6c60008201527f6572000000000000000000000000000000000000000000000000000000000000602082015250565b6000611df1602283611b11565b9150611dfc82611d95565b604082019050919050565b60006020820190508181036000830152611e2081611de4565b9050919050565b7f4661696c656420746f2073656e6420457468657220746f20746865206665652060008201527f6163636f756e7400000000000000000000000000000000000000000000000000602082015250565b6000611e83602783611b11565b9150611e8e82611e27565b604082019050919050565b60006020820190508181036000830152611eb281611e76565b9050919050565b7f74686973206974656d20617320736f6c6420656c736577686572650000000000600082015250565b6000611eef601b83611b11565b9150611efa82611eb9565b602082019050919050565b60006020820190508181036000830152611f1e81611ee2565b9050919050565b7f4e487b7100000000000000000000000000000000000000000000000000000000600052603260045260246000fd5b7f4e487b7100000000000000000000000000000000000000000000000000000000600052603160045260246000fd5b7f4552433732313a207472616e736665722066726f6d20696e636f72726563742060008201527f6f776e6572000000000000000000000000000000000000000000000000000000602082015250565b6000611fdf602583611b11565b9150611fea82611f83565b604082019050919050565b6000602082019050818103600083015261200e81611fd2565b9050919050565b7f4552433732313a207472616e7366657220746f20746865207a65726f2061646460008201527f7265737300000000000000000000000000000000000000000000000000000000602082015250565b6000612071602483611b11565b915061207c82612015565b604082019050919050565b600060208201905081810360008301526120a081612064565b9050919050565b7f596f7520646f206e6f74206f776e207468697320706c61796572000000000000600082015250565b60006120dd601a83611b11565b91506120e8826120a7565b602082019050919050565b6000602082019050818103600083015261210c816120d0565b9050919050565b7f506c617965722073746175732069732069646c65000000000000000000000000600082015250565b6000612149601483611b11565b915061215482612113565b602082019050919050565b600060208201905081810360008301526121788161213c565b9050919050565b7f63616c6c6572206d75737420626520746865206f776e6572206f66207468652060008201527f6c697374696e6700000000000000000000000000000000000000000000000000602082015250565b60006121db602783611b11565b91506121e68261217f565b604082019050919050565b6000602082019050818103600083015261220a816121ce565b905091905056fea2646970667358221220b031e1687136b3ffb020972a552a1ad3a17d6751cb5d361bc39cec98dfcaa47264736f6c63430008110033",
  "linkReferences": {},
  "deployedLinkReferences": {}
}