{
  "_format": "hh-sol-artifact-1",
  "contractName": "ExchangeFacet",
  "sourceName": "contracts/facets/ExchangeFacet.sol",
  "abi": [
    {
      "anonymous": false,
      "inputs": [
        {
          "indexed": true,
          "internalType": "address",
          "name": "_from",
          "type": "address"
        },
        {
          "indexed": true,
          "internalType": "uint256",
          "name": "_playerId",
          "type": "uint256"
        },
        {
          "indexed": false,
          "internalType": "uint256",
          "name": "_price",
          "type": "uint256"
        }
      ],
      "name": "List",
      "type": "event"
    },
    {
      "anonymous": false,
      "inputs": [
        {
          "indexed": true,
          "internalType": "address",
          "name": "_to",
          "type": "address"
        },
        {
          "indexed": false,
          "internalType": "uint256",
          "name": "_id",
          "type": "uint256"
        }
      ],
      "name": "Purchase",
      "type": "event"
    },
    {
      "inputs": [
        {
          "internalType": "uint256",
          "name": "_id",
          "type": "uint256"
        },
        {
          "internalType": "uint256",
          "name": "_price",
          "type": "uint256"
        }
      ],
      "name": "crateListing",
      "outputs": [],
      "stateMutability": "nonpayable",
      "type": "function"
    },
    {
      "inputs": [],
      "name": "getAllListings",
      "outputs": [
        {
          "internalType": "uint256[]",
          "name": "",
          "type": "uint256[]"
        }
      ],
      "stateMutability": "view",
      "type": "function"
    },
    {
      "inputs": [
        {
          "internalType": "uint256",
          "name": "_listingId",
          "type": "uint256"
        }
      ],
      "name": "getLisitng",
      "outputs": [
        {
          "internalType": "address payable",
          "name": "seller",
          "type": "address"
        },
        {
          "internalType": "uint256",
          "name": "playerId",
          "type": "uint256"
        },
        {
          "internalType": "uint256",
          "name": "price",
          "type": "uint256"
        }
      ],
      "stateMutability": "view",
      "type": "function"
    },
    {
      "inputs": [
        {
          "internalType": "address",
          "name": "_address",
          "type": "address"
        }
      ],
      "name": "getListings",
      "outputs": [
        {
          "internalType": "uint256[]",
          "name": "",
          "type": "uint256[]"
        }
      ],
      "stateMutability": "view",
      "type": "function"
    },
    {
      "inputs": [
        {
          "internalType": "uint256",
          "name": "_listingId",
          "type": "uint256"
        }
      ],
      "name": "purchasePlayer",
      "outputs": [],
      "stateMutability": "nonpayable",
      "type": "function"
    }
  ],
  "bytecode": "0x608060405234801561001057600080fd5b506112da806100206000396000f3fe608060405234801561001057600080fd5b50600436106100575760003560e01c8063075881d61461005c5780638cd7f4c414610078578063ae73ccec14610094578063cde8cd6e146100b2578063d9824ccd146100e2575b600080fd5b61007660048036038101906100719190610d8f565b610114565b005b610092600480360381019061008d9190610dbc565b61016e565b005b61009c6101cb565b6040516100a99190610eba565b60405180910390f35b6100cc60048036038101906100c79190610f3a565b6101da565b6040516100d99190610eba565b60405180910390f35b6100fc60048036038101906100f79190610d8f565b6101ec565b60405161010b93929190610f97565b60405180910390f35b61011d81610207565b3373ffffffffffffffffffffffffffffffffffffffff167f2499a5330ab0979cc612135e7883ebc3cd5c9f7a8508f042540c34723348f632826040516101639190610fce565b60405180910390a250565b6101788282610624565b813373ffffffffffffffffffffffffffffffffffffffff167f1518ffac149698f404e82117efa8b67d99c365490eefe4e0f91856a93ca8d9c1836040516101bf9190610fce565b60405180910390a35050565b60606101d5610afa565b905090565b60606101e582610b61565b9050919050565b60008060006101fa84610c07565b9250925092509193909250565b6000610211610ccd565b9050600061021d610cfa565b90506000610229610d27565b90506000826000016000868152602001908152602001600020600201549050808260000160003373ffffffffffffffffffffffffffffffffffffffff1673ffffffffffffffffffffffffffffffffffffffff1681526020019081526020016000205410156102cc576040517f08c379a00000000000000000000000000000000000000000000000000000000081526004016102c390611046565b60405180910390fd5b60008360000160008781526020019081526020016000206001015490503385600201600083815260200190815260200160002060006101000a81548173ffffffffffffffffffffffffffffffffffffffff021916908373ffffffffffffffffffffffffffffffffffffffff1602179055508460070160003373ffffffffffffffffffffffffffffffffffffffff1673ffffffffffffffffffffffffffffffffffffffff168152602001908152602001600020846000016000888152602001908152602001600020600101549080600181540180825580915050600190039060005260206000200160009091909190915055600084600001600088815260200190815260200160002060000160009054906101000a900473ffffffffffffffffffffffffffffffffffffffff169050828460000160003373ffffffffffffffffffffffffffffffffffffffff1673ffffffffffffffffffffffffffffffffffffffff168152602001908152602001600020600082825461044b9190611095565b92505081905550828460000160008373ffffffffffffffffffffffffffffffffffffffff1673ffffffffffffffffffffffffffffffffffffffff16815260200190815260200160002060008282546104a391906110c9565b925050819055506000856000016000898152602001908152602001600020600301549050600086600201600188600201805490506104e19190611095565b815481106104f2576104f16110fd565b5b9060005260206000200154905080876002018381548110610516576105156110fd565b5b90600052602060002001819055508187600001600083815260200190815260200160002060030181905550866002018054806105555761055461112c565b5b600190038181906000526020600020016000905590558660000160008a8152602001908152602001600020600080820160006101000a81549073ffffffffffffffffffffffffffffffffffffffff021916905560018201600090556002820160009055600382016000905550508760040160003373ffffffffffffffffffffffffffffffffffffffff1673ffffffffffffffffffffffffffffffffffffffff16815260200190815260200160002060008154809291906106149061115b565b9190505550505050505050505050565b600061062e610ccd565b9050600061063a610cfa565b90503373ffffffffffffffffffffffffffffffffffffffff1682600201600086815260200190815260200160002060009054906101000a900473ffffffffffffffffffffffffffffffffffffffff1673ffffffffffffffffffffffffffffffffffffffff16146106df576040517f08c379a00000000000000000000000000000000000000000000000000000000081526004016106d6906111ef565b60405180910390fd5b6000826003016000868152602001908152602001600020600201541461073a576040517f08c379a00000000000000000000000000000000000000000000000000000000081526004016107319061125b565b60405180910390fd5b60405180608001604052803373ffffffffffffffffffffffffffffffffffffffff168152602001858152602001848152602001826002018054905081525081600001600086815260200190815260200160002060008201518160000160006101000a81548173ffffffffffffffffffffffffffffffffffffffff021916908373ffffffffffffffffffffffffffffffffffffffff1602179055506020820151816001015560408201518160020155606082015181600301559050508060020184908060018154018082558091505060019003906000526020600020016000909190919091505560008260040160003373ffffffffffffffffffffffffffffffffffffffff1673ffffffffffffffffffffffffffffffffffffffff16815260200190815260200160002054905060005b81811015610a9b57858460070160003373ffffffffffffffffffffffffffffffffffffffff1673ffffffffffffffffffffffffffffffffffffffff16815260200190815260200160002082815481106108c5576108c46110fd565b5b906000526020600020015403610a885783600201600087815260200190815260200160002060006101000a81549073ffffffffffffffffffffffffffffffffffffffff02191690558360070160003373ffffffffffffffffffffffffffffffffffffffff1673ffffffffffffffffffffffffffffffffffffffff16815260200190815260200160002060018560070160003373ffffffffffffffffffffffffffffffffffffffff1673ffffffffffffffffffffffffffffffffffffffff1681526020019081526020016000208054905061099f9190611095565b815481106109b0576109af6110fd565b5b90600052602060002001548460070160003373ffffffffffffffffffffffffffffffffffffffff1673ffffffffffffffffffffffffffffffffffffffff1681526020019081526020016000208281548110610a0e57610a0d6110fd565b5b90600052602060002001819055508360070160003373ffffffffffffffffffffffffffffffffffffffff1673ffffffffffffffffffffffffffffffffffffffff168152602001908152602001600020805480610a6d57610a6c61112c565b5b60019003818190600052602060002001600090559055610a9b565b8080610a939061115b565b915050610869565b508260040160003373ffffffffffffffffffffffffffffffffffffffff1673ffffffffffffffffffffffffffffffffffffffff1681526020019081526020016000206000815480929190610aee9061127b565b91905055505050505050565b60606000610b06610cfa565b905080600201805480602002602001604051908101604052809291908181526020018280548015610b5657602002820191906000526020600020905b815481526020019060010190808311610b42575b505050505091505090565b60606000610b6d610cfa565b90508060010160008473ffffffffffffffffffffffffffffffffffffffff1673ffffffffffffffffffffffffffffffffffffffff168152602001908152602001600020805480602002602001604051908101604052809291908181526020018280548015610bfa57602002820191906000526020600020905b815481526020019060010190808311610be6575b5050505050915050919050565b600080600080610c15610cfa565b905060008160000160008781526020019081526020016000206040518060800160405290816000820160009054906101000a900473ffffffffffffffffffffffffffffffffffffffff1673ffffffffffffffffffffffffffffffffffffffff1673ffffffffffffffffffffffffffffffffffffffff1681526020016001820154815260200160028201548152602001600382015481525050905080600001518160200151826040015194509450945050509193909250565b6000807f3cab9a070a0c61cd0ae9d9e9e2c0781e5ca8691bec4087e5a4701d5ac018dd4e90508091505090565b6000807f2eb8ba5728fd803ebdfe8040b9777003aec1ebcf751c83be5e7b1ed4e9824e6890508091505090565b6000807f2c89d74504b6ad8d4fbde22bc3474166bac5452a11195897f239d8bebe02d70790508091505090565b600080fd5b6000819050919050565b610d6c81610d59565b8114610d7757600080fd5b50565b600081359050610d8981610d63565b92915050565b600060208284031215610da557610da4610d54565b5b6000610db384828501610d7a565b91505092915050565b60008060408385031215610dd357610dd2610d54565b5b6000610de185828601610d7a565b9250506020610df285828601610d7a565b9150509250929050565b600081519050919050565b600082825260208201905092915050565b6000819050602082019050919050565b610e3181610d59565b82525050565b6000610e438383610e28565b60208301905092915050565b6000602082019050919050565b6000610e6782610dfc565b610e718185610e07565b9350610e7c83610e18565b8060005b83811015610ead578151610e948882610e37565b9750610e9f83610e4f565b925050600181019050610e80565b5085935050505092915050565b60006020820190508181036000830152610ed48184610e5c565b905092915050565b600073ffffffffffffffffffffffffffffffffffffffff82169050919050565b6000610f0782610edc565b9050919050565b610f1781610efc565b8114610f2257600080fd5b50565b600081359050610f3481610f0e565b92915050565b600060208284031215610f5057610f4f610d54565b5b6000610f5e84828501610f25565b91505092915050565b6000610f7282610edc565b9050919050565b610f8281610f67565b82525050565b610f9181610d59565b82525050565b6000606082019050610fac6000830186610f79565b610fb96020830185610f88565b610fc66040830184610f88565b949350505050565b6000602082019050610fe36000830184610f88565b92915050565b600082825260208201905092915050565b7f496e73756666696369656e742066756e64730000000000000000000000000000600082015250565b6000611030601283610fe9565b915061103b82610ffa565b602082019050919050565b6000602082019050818103600083015261105f81611023565b9050919050565b7f4e487b7100000000000000000000000000000000000000000000000000000000600052601160045260246000fd5b60006110a082610d59565b91506110ab83610d59565b92508282039050818111156110c3576110c2611066565b5b92915050565b60006110d482610d59565b91506110df83610d59565b92508282019050808211156110f7576110f6611066565b5b92915050565b7f4e487b7100000000000000000000000000000000000000000000000000000000600052603260045260246000fd5b7f4e487b7100000000000000000000000000000000000000000000000000000000600052603160045260246000fd5b600061116682610d59565b91507fffffffffffffffffffffffffffffffffffffffffffffffffffffffffffffffff820361119857611197611066565b5b600182019050919050565b7f4e6f74206f776e6572206f6620706c6179657200000000000000000000000000600082015250565b60006111d9601383610fe9565b91506111e4826111a3565b602082019050919050565b60006020820190508181036000830152611208816111cc565b9050919050565b7f506c61796572536c6f744c69622e506c61796572206973206e6f742069646c65600082015250565b6000611245602083610fe9565b91506112508261120f565b602082019050919050565b6000602082019050818103600083015261127481611238565b9050919050565b600061128682610d59565b91506000820361129957611298611066565b5b60018203905091905056fea2646970667358221220e9ff9d973cf6b695a8f1c2dcf4eef8e48ca875c4dbcee857bb3161fc055cf03664736f6c63430008110033",
  "linkReferences": {},
  "deployedLinkReferences": {}
}