{
  "_format": "hh-sol-artifact-1",
  "contractName": "ExchangeFacet",
  "sourceName": "contracts/facets/ExchangeFacet.sol",
  "abi": [
    {
      "anonymous": false,
      "inputs": [
        {
          "indexed": true,
          "internalType": "address",
          "name": "owner",
          "type": "address"
        },
        {
          "indexed": true,
          "internalType": "address",
          "name": "approved",
          "type": "address"
        },
        {
          "indexed": true,
          "internalType": "uint256",
          "name": "tokenId",
          "type": "uint256"
        }
      ],
      "name": "Approval",
      "type": "event"
    },
    {
      "anonymous": false,
      "inputs": [
        {
          "indexed": true,
          "internalType": "address",
          "name": "owner",
          "type": "address"
        },
        {
          "indexed": true,
          "internalType": "address",
          "name": "operator",
          "type": "address"
        },
        {
          "indexed": false,
          "internalType": "bool",
          "name": "approved",
          "type": "bool"
        }
      ],
      "name": "ApprovalForAll",
      "type": "event"
    },
    {
      "anonymous": false,
      "inputs": [
        {
          "indexed": true,
          "internalType": "address",
          "name": "_from",
          "type": "address"
        },
        {
          "indexed": true,
          "internalType": "uint256",
          "name": "_playerId",
          "type": "uint256"
        },
        {
          "indexed": false,
          "internalType": "uint256",
          "name": "_price",
          "type": "uint256"
        }
      ],
      "name": "CreateEquipmentListing",
      "type": "event"
    },
    {
      "anonymous": false,
      "inputs": [
        {
          "indexed": true,
          "internalType": "address",
          "name": "_from",
          "type": "address"
        },
        {
          "indexed": true,
          "internalType": "uint256",
          "name": "_playerId",
          "type": "uint256"
        },
        {
          "indexed": false,
          "internalType": "uint256",
          "name": "_price",
          "type": "uint256"
        }
      ],
      "name": "CreatePlayerListing",
      "type": "event"
    },
    {
      "anonymous": false,
      "inputs": [
        {
          "indexed": true,
          "internalType": "address",
          "name": "_from",
          "type": "address"
        },
        {
          "indexed": true,
          "internalType": "uint256",
          "name": "_playerId",
          "type": "uint256"
        }
      ],
      "name": "DelistPlayer",
      "type": "event"
    },
    {
      "anonymous": false,
      "inputs": [
        {
          "indexed": true,
          "internalType": "address",
          "name": "_to",
          "type": "address"
        },
        {
          "indexed": false,
          "internalType": "uint256",
          "name": "_id",
          "type": "uint256"
        }
      ],
      "name": "PurchaseEquipmentLisitng",
      "type": "event"
    },
    {
      "anonymous": false,
      "inputs": [
        {
          "indexed": true,
          "internalType": "address",
          "name": "_to",
          "type": "address"
        },
        {
          "indexed": false,
          "internalType": "uint256",
          "name": "_id",
          "type": "uint256"
        }
      ],
      "name": "PurchasePlayerListing",
      "type": "event"
    },
    {
      "anonymous": false,
      "inputs": [
        {
          "indexed": true,
          "internalType": "address",
          "name": "from",
          "type": "address"
        },
        {
          "indexed": true,
          "internalType": "address",
          "name": "to",
          "type": "address"
        },
        {
          "indexed": true,
          "internalType": "uint256",
          "name": "tokenId",
          "type": "uint256"
        }
      ],
      "name": "Transfer",
      "type": "event"
    },
    {
      "inputs": [
        {
          "internalType": "address",
          "name": "_facetAddress",
          "type": "address"
        },
        {
          "internalType": "uint256",
          "name": "_amount",
          "type": "uint256"
        }
      ],
      "name": "claimGoldfromERC20",
      "outputs": [],
      "stateMutability": "nonpayable",
      "type": "function"
    },
    {
      "inputs": [
        {
          "internalType": "uint256",
          "name": "_playerId",
          "type": "uint256"
        },
        {
          "internalType": "uint256",
          "name": "_price",
          "type": "uint256"
        }
      ],
      "name": "createPlayerListing",
      "outputs": [],
      "stateMutability": "nonpayable",
      "type": "function"
    },
    {
      "inputs": [
        {
          "internalType": "uint256",
          "name": "_playerId",
          "type": "uint256"
        }
      ],
      "name": "deListPlayer",
      "outputs": [],
      "stateMutability": "nonpayable",
      "type": "function"
    },
    {
      "inputs": [],
      "name": "getAllPlayerListings",
      "outputs": [
        {
          "internalType": "uint256[]",
          "name": "",
          "type": "uint256[]"
        }
      ],
      "stateMutability": "view",
      "type": "function"
    },
    {
      "inputs": [
        {
          "internalType": "uint256",
          "name": "_playerId",
          "type": "uint256"
        }
      ],
      "name": "getPlayerListing",
      "outputs": [
        {
          "components": [
            {
              "internalType": "address payable",
              "name": "seller",
              "type": "address"
            },
            {
              "internalType": "uint256",
              "name": "playerId",
              "type": "uint256"
            },
            {
              "internalType": "uint256",
              "name": "price",
              "type": "uint256"
            },
            {
              "internalType": "uint256",
              "name": "pointer",
              "type": "uint256"
            },
            {
              "internalType": "uint256",
              "name": "addressPointer",
              "type": "uint256"
            }
          ],
          "internalType": "struct PlayerListing",
          "name": "",
          "type": "tuple"
        }
      ],
      "stateMutability": "view",
      "type": "function"
    },
    {
      "inputs": [
        {
          "internalType": "address",
          "name": "_address",
          "type": "address"
        }
      ],
      "name": "getPlayerListingsByAddress",
      "outputs": [
        {
          "internalType": "uint256[]",
          "name": "",
          "type": "uint256[]"
        }
      ],
      "stateMutability": "view",
      "type": "function"
    },
    {
      "inputs": [
        {
          "internalType": "address",
          "name": "_facetAddress",
          "type": "address"
        },
        {
          "internalType": "uint256",
          "name": "_amount",
          "type": "uint256"
        }
      ],
      "name": "mintGoldERC20",
      "outputs": [],
      "stateMutability": "nonpayable",
      "type": "function"
    },
    {
      "inputs": [
        {
          "internalType": "uint256",
          "name": "_playerId",
          "type": "uint256"
        }
      ],
      "name": "owners",
      "outputs": [
        {
          "internalType": "address",
          "name": "",
          "type": "address"
        }
      ],
      "stateMutability": "view",
      "type": "function"
    },
    {
      "inputs": [
        {
          "internalType": "uint256",
          "name": "_playerId",
          "type": "uint256"
        }
      ],
      "name": "purchasePlayer",
      "outputs": [],
      "stateMutability": "payable",
      "type": "function"
    },
    {
      "inputs": [
        {
          "internalType": "address",
          "name": "_to",
          "type": "address"
        },
        {
          "internalType": "uint256",
          "name": "_playerId",
          "type": "uint256"
        }
      ],
      "name": "transferPlayer",
      "outputs": [],
      "stateMutability": "nonpayable",
      "type": "function"
    }
  ],
  "bytecode": "0x608060405234801561001057600080fd5b506001600081905550613290806100286000396000f3fe6080604052600436106100915760003560e01c806352d2872a1161005957806352d2872a1461018057806374c57c30146101a957806374e55f32146101d257806396b9aa431461020f578063a61896e61461023857610091565b8063025e7c2714610096578063075881d6146100d35780634ae8e577146100ef57806351ec1e231461012c57806352605d4114610155575b600080fd5b3480156100a257600080fd5b506100bd60048036038101906100b891906124cc565b610261565b6040516100ca919061253a565b60405180910390f35b6100ed60048036038101906100e891906124cc565b610273565b005b3480156100fb57600080fd5b5061011660048036038101906101119190612581565b610556565b604051610123919061266c565b60405180910390f35b34801561013857600080fd5b50610153600480360381019061014e919061268e565b610568565b005b34801561016157600080fd5b5061016a610586565b604051610177919061266c565b60405180910390f35b34801561018c57600080fd5b506101a760048036038101906101a291906126ce565b610595565b005b3480156101b557600080fd5b506101d060048036038101906101cb919061268e565b610602565b005b3480156101de57600080fd5b506101f960048036038101906101f491906124cc565b610621565b6040516102069190612797565b60405180910390f35b34801561021b57600080fd5b506102366004803603810190610231919061268e565b610639565b005b34801561024457600080fd5b5061025f600480360381019061025a91906124cc565b610657565b005b600061026c826106a7565b9050919050565b61027b6106f2565b60007308d8e680a2d295af8cbcd8b8e07f900275bc6b8d9050600061029f83610741565b9050806040015134146102e7576040517f08c379a00000000000000000000000000000000000000000000000000000000081526004016102de9061280f565b60405180910390fd5b6102f0836107fb565b6102fe816000015184610c28565b61033d576040517f08c379a0000000000000000000000000000000000000000000000000000000008152600401610334906128a1565b60405180910390fd5b61034c81600001513385610d7a565b6000606480836040015161036091906128f0565b6069846040015161037191906128f0565b61037b9190612932565b6103859190612995565b905060008183604001516103999190612932565b90506000836000015173ffffffffffffffffffffffffffffffffffffffff16826040516103c5906129f7565b60006040518083038185875af1925050503d8060008114610402576040519150601f19603f3d011682016040523d82523d6000602084013e610407565b606091505b505090508061044b576040517f08c379a000000000000000000000000000000000000000000000000000000000815260040161044290612a7e565b60405180910390fd5b60008573ffffffffffffffffffffffffffffffffffffffff1684604051610471906129f7565b60006040518083038185875af1925050503d80600081146104ae576040519150601f19603f3d011682016040523d82523d6000602084013e6104b3565b606091505b50509050806104f7576040517f08c379a00000000000000000000000000000000000000000000000000000000081526004016104ee90612b10565b60405180910390fd5b3373ffffffffffffffffffffffffffffffffffffffff167f225283508a8ce3b05daa68183df02a29ea48aeaa415ac67113c50dea09c1b6978860405161053d9190612b3f565b60405180910390a25050505050506105536110a2565b50565b6060610561826110ac565b9050919050565b6105706106f2565b61057a8282611152565b6105826110a2565b5050565b606061059061138b565b905090565b61059d6106f2565b6105a782826113f2565b813373ffffffffffffffffffffffffffffffffffffffff167fbf8edb16a3925949bda35d6c527b8f53ff37a989912808fac0a134935dcf5051836040516105ee9190612b3f565b60405180910390a36105fe6110a2565b5050565b61060a6106f2565b610615338383610d7a565b61061d6110a2565b5050565b6106296123e2565b61063282610741565b9050919050565b6106416106f2565b61064b82826116ce565b6106536110a2565b5050565b6106608161196c565b803373ffffffffffffffffffffffffffffffffffffffff167f1d7264ed0fc0f609bb4cb82e2664c9cd699ae2dc128e0228df77e1abec16d25a60405160405180910390a350565b6000806106b2611d64565b905080600201600084815260200190815260200160002060009054906101000a900473ffffffffffffffffffffffffffffffffffffffff16915050919050565b600260005403610737576040517f08c379a000000000000000000000000000000000000000000000000000000000815260040161072e90612ba6565b60405180910390fd5b6002600081905550565b6107496123e2565b6000610753611d91565b90508060000160008481526020019081526020016000206040518060a00160405290816000820160009054906101000a900473ffffffffffffffffffffffffffffffffffffffff1673ffffffffffffffffffffffffffffffffffffffff1673ffffffffffffffffffffffffffffffffffffffff168152602001600182015481526020016002820154815260200160038201548152602001600482015481525050915050919050565b6000610805611d64565b90506000610811611d91565b9050600081600001600085815260200190815260200160002060000160009054906101000a900473ffffffffffffffffffffffffffffffffffffffff16905081600001600085815260200190815260200160002060000160009054906101000a900473ffffffffffffffffffffffffffffffffffffffff1673ffffffffffffffffffffffffffffffffffffffff1683600201600086815260200190815260200160002060009054906101000a900473ffffffffffffffffffffffffffffffffffffffff1673ffffffffffffffffffffffffffffffffffffffff161461092b576040517f08c379a000000000000000000000000000000000000000000000000000000000815260040161092290612c12565b60405180910390fd5b6000826000016000868152602001908152602001600020600301549050600083600201600185600201805490506109629190612932565b8154811061097357610972612c32565b5b906000526020600020015490508084600201838154811061099757610996612c32565b5b90600052602060002001819055508184600001600083815260200190815260200160002060030181905550836002018054806109d6576109d5612c61565b5b60019003818190600052602060002001600090559055600084600001600088815260200190815260200160002060040154905060008560010160008673ffffffffffffffffffffffffffffffffffffffff1673ffffffffffffffffffffffffffffffffffffffff16815260200190815260200160002060018760010160008873ffffffffffffffffffffffffffffffffffffffff1673ffffffffffffffffffffffffffffffffffffffff16815260200190815260200160002080549050610a9d9190612932565b81548110610aae57610aad612c32565b5b90600052602060002001549050808660010160008773ffffffffffffffffffffffffffffffffffffffff1673ffffffffffffffffffffffffffffffffffffffff1681526020019081526020016000208381548110610b0f57610b0e612c32565b5b906000526020600020018190555081866000016000838152602001908152602001600020600401819055508560010160008673ffffffffffffffffffffffffffffffffffffffff1673ffffffffffffffffffffffffffffffffffffffff168152602001908152602001600020805480610b8b57610b8a612c61565b5b6001900381819060005260206000200160009055905560008760030160008a815260200190815260200160002060020181905550856000016000898152602001908152602001600020600080820160006101000a81549073ffffffffffffffffffffffffffffffffffffffff0219169055600182016000905560028201600090556003820160009055600482016000905550505050505050505050565b600080610c3483611dbe565b90508073ffffffffffffffffffffffffffffffffffffffff168473ffffffffffffffffffffffffffffffffffffffff161480610cff5750610c73611e04565b60080160008273ffffffffffffffffffffffffffffffffffffffff1673ffffffffffffffffffffffffffffffffffffffff16815260200190815260200160002060008573ffffffffffffffffffffffffffffffffffffffff1673ffffffffffffffffffffffffffffffffffffffff16815260200190815260200160002060009054906101000a900460ff165b80610d7157508373ffffffffffffffffffffffffffffffffffffffff16610d24611e04565b600b01600085815260200190815260200160002060009054906101000a900473ffffffffffffffffffffffffffffffffffffffff1673ffffffffffffffffffffffffffffffffffffffff16145b91505092915050565b8273ffffffffffffffffffffffffffffffffffffffff16610d9a82611dbe565b73ffffffffffffffffffffffffffffffffffffffff1614610df0576040517f08c379a0000000000000000000000000000000000000000000000000000000008152600401610de790612d02565b60405180910390fd5b600073ffffffffffffffffffffffffffffffffffffffff168273ffffffffffffffffffffffffffffffffffffffff1603610e5f576040517f08c379a0000000000000000000000000000000000000000000000000000000008152600401610e5690612d94565b60405180910390fd5b610e6c8383836001611e31565b8273ffffffffffffffffffffffffffffffffffffffff16610e8c82611dbe565b73ffffffffffffffffffffffffffffffffffffffff1614610ee2576040517f08c379a0000000000000000000000000000000000000000000000000000000008152600401610ed990612d02565b60405180910390fd5b610eea611e04565b600b01600082815260200190815260200160002060006101000a81549073ffffffffffffffffffffffffffffffffffffffff02191690556001610f2b611e04565b600a0160008573ffffffffffffffffffffffffffffffffffffffff1673ffffffffffffffffffffffffffffffffffffffff168152602001908152602001600020600082825403925050819055506001610f82611e04565b600a0160008473ffffffffffffffffffffffffffffffffffffffff1673ffffffffffffffffffffffffffffffffffffffff1681526020019081526020016000206000828254019250508190555081610fd8611e04565b600901600083815260200190815260200160002060006101000a81548173ffffffffffffffffffffffffffffffffffffffff021916908373ffffffffffffffffffffffffffffffffffffffff160217905550611035838383611e37565b808273ffffffffffffffffffffffffffffffffffffffff168473ffffffffffffffffffffffffffffffffffffffff167fddf252ad1be2c89b69c2b068fc378daa952ba7f163c4a11628f55a4df523b3ef60405160405180910390a461109d8383836001612382565b505050565b6001600081905550565b606060006110b8611d91565b90508060010160008473ffffffffffffffffffffffffffffffffffffffff1673ffffffffffffffffffffffffffffffffffffffff16815260200190815260200160002080548060200260200160405190810160405280929190818152602001828054801561114557602002820191906000526020600020905b815481526020019060010190808311611131575b5050505050915050919050565b600061115c612388565b90508060000160003373ffffffffffffffffffffffffffffffffffffffff1673ffffffffffffffffffffffffffffffffffffffff168152602001908152602001600020548211156111e2576040517f08c379a00000000000000000000000000000000000000000000000000000000081526004016111d990612e26565b60405180910390fd5b60007308d8e680a2d295af8cbcd8b8e07f900275bc6b8d905060008490506000841115611384576000670de0b6b3a76400008561121f91906128f0565b90506000606460018361123291906128f0565b61123c9190612995565b90506000818361124c9190612932565b90508373ffffffffffffffffffffffffffffffffffffffff166340c10f1933836040518363ffffffff1660e01b8152600401611289929190612e46565b600060405180830381600087803b1580156112a357600080fd5b505af11580156112b7573d6000803e3d6000fd5b505050508373ffffffffffffffffffffffffffffffffffffffff166340c10f1986846040518363ffffffff1660e01b81526004016112f6929190612e46565b600060405180830381600087803b15801561131057600080fd5b505af1158015611324573d6000803e3d6000fd5b50505050868660000160003373ffffffffffffffffffffffffffffffffffffffff1673ffffffffffffffffffffffffffffffffffffffff16815260200190815260200160002060008282546113799190612932565b925050819055505050505b5050505050565b60606000611397611d91565b9050806002018054806020026020016040519081016040528092919081815260200182805480156113e757602002820191906000526020600020905b8154815260200190600101908083116113d3575b505050505091505090565b60006113fc611d64565b90506000611408611d91565b90503373ffffffffffffffffffffffffffffffffffffffff1682600201600086815260200190815260200160002060009054906101000a900473ffffffffffffffffffffffffffffffffffffffff1673ffffffffffffffffffffffffffffffffffffffff16146114ad576040517f08c379a00000000000000000000000000000000000000000000000000000000081526004016114a490612ebb565b60405180910390fd5b60008260030160008681526020019081526020016000206002015414611508576040517f08c379a00000000000000000000000000000000000000000000000000000000081526004016114ff90612f27565b60405180910390fd5b6063826003016000868152602001908152602001600020600201819055506040518060a001604052803373ffffffffffffffffffffffffffffffffffffffff168152602001858152602001848152602001826002018054905081526020018260010160003373ffffffffffffffffffffffffffffffffffffffff1673ffffffffffffffffffffffffffffffffffffffff1681526020019081526020016000208054905081525081600001600086815260200190815260200160002060008201518160000160006101000a81548173ffffffffffffffffffffffffffffffffffffffff021916908373ffffffffffffffffffffffffffffffffffffffff16021790555060208201518160010155604082015181600201556060820151816003015560808201518160040155905050806002018490806001815401808255809150506001900390600052602060002001600090919091909150558060010160003373ffffffffffffffffffffffffffffffffffffffff1673ffffffffffffffffffffffffffffffffffffffff16815260200190815260200160002084908060018154018082558091505060019003906000526020600020016000909190919091505550505050565b60006116d8612388565b9050600083905060008173ffffffffffffffffffffffffffffffffffffffff166370a08231336040518263ffffffff1660e01b815260040161171a919061253a565b602060405180830381865afa158015611737573d6000803e3d6000fd5b505050506040513d601f19601f8201168201806040525081019061175b9190612f5c565b905083670de0b6b3a7640000826117729190612995565b10156117b3576040517f08c379a00000000000000000000000000000000000000000000000000000000081526004016117aa90612ffb565b60405180910390fd5b60007308d8e680a2d295af8cbcd8b8e07f900275bc6b8d90506000851115611964576000670de0b6b3a7640000866117eb91906128f0565b9050600060646001836117fe91906128f0565b6118089190612995565b9050600081836118189190612932565b90508573ffffffffffffffffffffffffffffffffffffffff16639dc29fac33836040518363ffffffff1660e01b8152600401611855929190612e46565b600060405180830381600087803b15801561186f57600080fd5b505af1158015611883573d6000803e3d6000fd5b505050508573ffffffffffffffffffffffffffffffffffffffff166323b872dd3386856040518463ffffffff1660e01b81526004016118c49392919061301b565b6020604051808303816000875af11580156118e3573d6000803e3d6000fd5b505050506040513d601f19601f82011682018060405250810190611907919061308a565b50878760000160003373ffffffffffffffffffffffffffffffffffffffff1673ffffffffffffffffffffffffffffffffffffffff168152602001908152602001600020600082825461195991906130b7565b925050819055505050505b505050505050565b6000611976611d64565b90506000611982611d91565b90503373ffffffffffffffffffffffffffffffffffffffff1681600001600085815260200190815260200160002060000160009054906101000a900473ffffffffffffffffffffffffffffffffffffffff1673ffffffffffffffffffffffffffffffffffffffff1614611a2a576040517f08c379a0000000000000000000000000000000000000000000000000000000008152600401611a219061315d565b60405180910390fd5b600081600001600085815260200190815260200160002060000160009054906101000a900473ffffffffffffffffffffffffffffffffffffffff169050600082600001600086815260200190815260200160002060030154905060008360020160018560020180549050611a9e9190612932565b81548110611aaf57611aae612c32565b5b9060005260206000200154905080846002018381548110611ad357611ad2612c32565b5b9060005260206000200181905550818460000160008381526020019081526020016000206003018190555083600201805480611b1257611b11612c61565b5b60019003818190600052602060002001600090559055600084600001600088815260200190815260200160002060040154905060008560010160008673ffffffffffffffffffffffffffffffffffffffff1673ffffffffffffffffffffffffffffffffffffffff16815260200190815260200160002060018760010160008873ffffffffffffffffffffffffffffffffffffffff1673ffffffffffffffffffffffffffffffffffffffff16815260200190815260200160002080549050611bd99190612932565b81548110611bea57611be9612c32565b5b90600052602060002001549050808660010160008773ffffffffffffffffffffffffffffffffffffffff1673ffffffffffffffffffffffffffffffffffffffff1681526020019081526020016000208381548110611c4b57611c4a612c32565b5b906000526020600020018190555081866000016000838152602001908152602001600020600401819055508560010160008673ffffffffffffffffffffffffffffffffffffffff1673ffffffffffffffffffffffffffffffffffffffff168152602001908152602001600020805480611cc757611cc6612c61565b5b6001900381819060005260206000200160009055905560008760030160008a815260200190815260200160002060020181905550856000016000898152602001908152602001600020600080820160006101000a81549073ffffffffffffffffffffffffffffffffffffffff0219169055600182016000905560028201600090556003820160009055600482016000905550505050505050505050565b6000807f3cab9a070a0c61cd0ae9d9e9e2c0781e5ca8691bec4087e5a4701d5ac018dd4e90508091505090565b6000807f0e933a40bc736a597dbcd3653baab40cf09a5c2453d7c0d87eeb7ea00af356fb90508091505090565b6000611dc8611e04565b600901600083815260200190815260200160002060009054906101000a900473ffffffffffffffffffffffffffffffffffffffff169050919050565b6000807f2569078dfb4b0305704d3008e7403993ae9601b85f7ae5e742de3de8f8011c4090508091505090565b50505050565b6000611e416123b5565b90508373ffffffffffffffffffffffffffffffffffffffff1681600201600084815260200190815260200160002060009054906101000a900473ffffffffffffffffffffffffffffffffffffffff1673ffffffffffffffffffffffffffffffffffffffff1614611eb057600080fd5b600073ffffffffffffffffffffffffffffffffffffffff168373ffffffffffffffffffffffffffffffffffffffff1603611f1f576040517f08c379a0000000000000000000000000000000000000000000000000000000008152600401611f16906131c9565b60405180910390fd5b8281600201600084815260200190815260200160002060006101000a81548173ffffffffffffffffffffffffffffffffffffffff021916908373ffffffffffffffffffffffffffffffffffffffff16021790555060008160070160008673ffffffffffffffffffffffffffffffffffffffff1673ffffffffffffffffffffffffffffffffffffffff16815260200190815260200160002080549050905060005b8181101561226457838360070160008873ffffffffffffffffffffffffffffffffffffffff1673ffffffffffffffffffffffffffffffffffffffff168152602001908152602001600020828154811061201b5761201a612c32565b5b9060005260206000200154036122515760018360070160008873ffffffffffffffffffffffffffffffffffffffff1673ffffffffffffffffffffffffffffffffffffffff16815260200190815260200160002080549050036120d5576060808460070160008973ffffffffffffffffffffffffffffffffffffffff1673ffffffffffffffffffffffffffffffffffffffff16815260200190815260200160002090805190602001906120ce929190612427565b505061224c565b8260070160008773ffffffffffffffffffffffffffffffffffffffff1673ffffffffffffffffffffffffffffffffffffffff16815260200190815260200160002060018460070160008973ffffffffffffffffffffffffffffffffffffffff1673ffffffffffffffffffffffffffffffffffffffff168152602001908152602001600020805490506121679190612932565b8154811061217857612177612c32565b5b90600052602060002001548360070160008873ffffffffffffffffffffffffffffffffffffffff1673ffffffffffffffffffffffffffffffffffffffff16815260200190815260200160002082815481106121d6576121d5612c32565b5b90600052602060002001819055508260070160008773ffffffffffffffffffffffffffffffffffffffff1673ffffffffffffffffffffffffffffffffffffffff16815260200190815260200160002080548061223557612234612c61565b5b600190038181906000526020600020016000905590555b612264565b808061225c906131e9565b915050611fbf565b508160070160008573ffffffffffffffffffffffffffffffffffffffff1673ffffffffffffffffffffffffffffffffffffffff1681526020019081526020016000208390806001815401808255809150506001900390600052602060002001600090919091909150558160040160008673ffffffffffffffffffffffffffffffffffffffff1673ffffffffffffffffffffffffffffffffffffffff168152602001908152602001600020600081548092919061231f90613231565b91905055508160040160008573ffffffffffffffffffffffffffffffffffffffff1673ffffffffffffffffffffffffffffffffffffffff1681526020019081526020016000206000815480929190612376906131e9565b91905055505050505050565b50505050565b6000807f2c89d74504b6ad8d4fbde22bc3474166bac5452a11195897f239d8bebe02d70790508091505090565b6000807f3cab9a070a0c61cd0ae9d9e9e2c0781e5ca8691bec4087e5a4701d5ac018dd4e90508091505090565b6040518060a00160405280600073ffffffffffffffffffffffffffffffffffffffff168152602001600081526020016000815260200160008152602001600081525090565b828054828255906000526020600020908101928215612463579160200282015b82811115612462578251825591602001919060010190612447565b5b5090506124709190612474565b5090565b5b8082111561248d576000816000905550600101612475565b5090565b600080fd5b6000819050919050565b6124a981612496565b81146124b457600080fd5b50565b6000813590506124c6816124a0565b92915050565b6000602082840312156124e2576124e1612491565b5b60006124f0848285016124b7565b91505092915050565b600073ffffffffffffffffffffffffffffffffffffffff82169050919050565b6000612524826124f9565b9050919050565b61253481612519565b82525050565b600060208201905061254f600083018461252b565b92915050565b61255e81612519565b811461256957600080fd5b50565b60008135905061257b81612555565b92915050565b60006020828403121561259757612596612491565b5b60006125a58482850161256c565b91505092915050565b600081519050919050565b600082825260208201905092915050565b6000819050602082019050919050565b6125e381612496565b82525050565b60006125f583836125da565b60208301905092915050565b6000602082019050919050565b6000612619826125ae565b61262381856125b9565b935061262e836125ca565b8060005b8381101561265f57815161264688826125e9565b975061265183612601565b925050600181019050612632565b5085935050505092915050565b60006020820190508181036000830152612686818461260e565b905092915050565b600080604083850312156126a5576126a4612491565b5b60006126b38582860161256c565b92505060206126c4858286016124b7565b9150509250929050565b600080604083850312156126e5576126e4612491565b5b60006126f3858286016124b7565b9250506020612704858286016124b7565b9150509250929050565b6000612719826124f9565b9050919050565b6127298161270e565b82525050565b60a0820160008201516127456000850182612720565b50602082015161275860208501826125da565b50604082015161276b60408501826125da565b50606082015161277e60608501826125da565b50608082015161279160808501826125da565b50505050565b600060a0820190506127ac600083018461272f565b92915050565b600082825260208201905092915050565b7f53656e642074686520657861637420616d6f756e740000000000000000000000600082015250565b60006127f96015836127b2565b9150612804826127c3565b602082019050919050565b60006020820190508181036000830152612828816127ec565b9050919050565b7f4552433732313a2073656c6c6572206973206e6f7420746f6b656e206f776e6560008201527f72206f7220617070726f76656400000000000000000000000000000000000000602082015250565b600061288b602d836127b2565b91506128968261282f565b604082019050919050565b600060208201905081810360008301526128ba8161287e565b9050919050565b7f4e487b7100000000000000000000000000000000000000000000000000000000600052601160045260246000fd5b60006128fb82612496565b915061290683612496565b925082820261291481612496565b9150828204841483151761292b5761292a6128c1565b5b5092915050565b600061293d82612496565b915061294883612496565b92508282039050818111156129605761295f6128c1565b5b92915050565b7f4e487b7100000000000000000000000000000000000000000000000000000000600052601260045260246000fd5b60006129a082612496565b91506129ab83612496565b9250826129bb576129ba612966565b5b828204905092915050565b600081905092915050565b50565b60006129e16000836129c6565b91506129ec826129d1565b600082019050919050565b6000612a02826129d4565b9150819050919050565b7f4661696c656420746f2073656e6420457468657220746f207468652073656c6c60008201527f6572000000000000000000000000000000000000000000000000000000000000602082015250565b6000612a686022836127b2565b9150612a7382612a0c565b604082019050919050565b60006020820190508181036000830152612a9781612a5b565b9050919050565b7f4661696c656420746f2073656e6420457468657220746f20746865206665652060008201527f6163636f756e7400000000000000000000000000000000000000000000000000602082015250565b6000612afa6027836127b2565b9150612b0582612a9e565b604082019050919050565b60006020820190508181036000830152612b2981612aed565b9050919050565b612b3981612496565b82525050565b6000602082019050612b546000830184612b30565b92915050565b7f5265656e7472616e637947756172643a207265656e7472616e742063616c6c00600082015250565b6000612b90601f836127b2565b9150612b9b82612b5a565b602082019050919050565b60006020820190508181036000830152612bbf81612b83565b9050919050565b7f74686973206974656d20617320736f6c6420656c736577686572650000000000600082015250565b6000612bfc601b836127b2565b9150612c0782612bc6565b602082019050919050565b60006020820190508181036000830152612c2b81612bef565b9050919050565b7f4e487b7100000000000000000000000000000000000000000000000000000000600052603260045260246000fd5b7f4e487b7100000000000000000000000000000000000000000000000000000000600052603160045260246000fd5b7f4552433732313a207472616e736665722066726f6d20696e636f72726563742060008201527f6f776e6572000000000000000000000000000000000000000000000000000000602082015250565b6000612cec6025836127b2565b9150612cf782612c90565b604082019050919050565b60006020820190508181036000830152612d1b81612cdf565b9050919050565b7f4552433732313a207472616e7366657220746f20746865207a65726f2061646460008201527f7265737300000000000000000000000000000000000000000000000000000000602082015250565b6000612d7e6024836127b2565b9150612d8982612d22565b604082019050919050565b60006020820190508181036000830152612dad81612d71565b9050919050565b7f45786368616e676546616365743a20596f7520646f206e6f742068617665206560008201527f6e6f75676820676f6c6420746f206d696e740000000000000000000000000000602082015250565b6000612e106032836127b2565b9150612e1b82612db4565b604082019050919050565b60006020820190508181036000830152612e3f81612e03565b9050919050565b6000604082019050612e5b600083018561252b565b612e686020830184612b30565b9392505050565b7f596f7520646f206e6f74206f776e207468697320706c61796572000000000000600082015250565b6000612ea5601a836127b2565b9150612eb082612e6f565b602082019050919050565b60006020820190508181036000830152612ed481612e98565b9050919050565b7f506c617965722073746175732069732069646c65000000000000000000000000600082015250565b6000612f116014836127b2565b9150612f1c82612edb565b602082019050919050565b60006020820190508181036000830152612f4081612f04565b9050919050565b600081519050612f56816124a0565b92915050565b600060208284031215612f7257612f71612491565b5b6000612f8084828501612f47565b91505092915050565b7f45786368616e676546616365743a20596f7520646f206e6f742068617665206560008201527f6e6f75676820746f6b656e7320746f20636c61696d0000000000000000000000602082015250565b6000612fe56035836127b2565b9150612ff082612f89565b604082019050919050565b6000602082019050818103600083015261301481612fd8565b9050919050565b6000606082019050613030600083018661252b565b61303d602083018561252b565b61304a6040830184612b30565b949350505050565b60008115159050919050565b61306781613052565b811461307257600080fd5b50565b6000815190506130848161305e565b92915050565b6000602082840312156130a05761309f612491565b5b60006130ae84828501613075565b91505092915050565b60006130c282612496565b91506130cd83612496565b92508282019050808211156130e5576130e46128c1565b5b92915050565b7f63616c6c6572206d75737420626520746865206f776e6572206f66207468652060008201527f6c697374696e6700000000000000000000000000000000000000000000000000602082015250565b60006131476027836127b2565b9150613152826130eb565b604082019050919050565b600060208201905081810360008301526131768161313a565b9050919050565b7f5f746f2063616e6e6f74206265207a65726f2061646472657373000000000000600082015250565b60006131b3601a836127b2565b91506131be8261317d565b602082019050919050565b600060208201905081810360008301526131e2816131a6565b9050919050565b60006131f482612496565b91507fffffffffffffffffffffffffffffffffffffffffffffffffffffffffffffffff8203613226576132256128c1565b5b600182019050919050565b600061323c82612496565b91506000820361324f5761324e6128c1565b5b60018203905091905056fea2646970667358221220b4677389283abdaafc932f6d9e8e5993b2d85ae5c51b7adc3b1b5ac69df85c4264736f6c63430008120033",
  "linkReferences": {},
  "deployedLinkReferences": {}
}