{
  "_format": "hh-sol-artifact-1",
  "contractName": "ExchangeFacet",
  "sourceName": "contracts/facets/ExchangeFacet.sol",
  "abi": [
    {
      "anonymous": false,
      "inputs": [
        {
          "indexed": true,
          "internalType": "address",
          "name": "owner",
          "type": "address"
        },
        {
          "indexed": true,
          "internalType": "address",
          "name": "approved",
          "type": "address"
        },
        {
          "indexed": true,
          "internalType": "uint256",
          "name": "tokenId",
          "type": "uint256"
        }
      ],
      "name": "Approval",
      "type": "event"
    },
    {
      "anonymous": false,
      "inputs": [
        {
          "indexed": true,
          "internalType": "address",
          "name": "owner",
          "type": "address"
        },
        {
          "indexed": true,
          "internalType": "address",
          "name": "operator",
          "type": "address"
        },
        {
          "indexed": false,
          "internalType": "bool",
          "name": "approved",
          "type": "bool"
        }
      ],
      "name": "ApprovalForAll",
      "type": "event"
    },
    {
      "anonymous": false,
      "inputs": [
        {
          "indexed": true,
          "internalType": "address",
          "name": "_from",
          "type": "address"
        },
        {
          "indexed": true,
          "internalType": "uint256",
          "name": "_playerId",
          "type": "uint256"
        },
        {
          "indexed": false,
          "internalType": "uint256",
          "name": "_price",
          "type": "uint256"
        }
      ],
      "name": "CreateEquipmentListing",
      "type": "event"
    },
    {
      "anonymous": false,
      "inputs": [
        {
          "indexed": true,
          "internalType": "address",
          "name": "_from",
          "type": "address"
        },
        {
          "indexed": true,
          "internalType": "uint256",
          "name": "_playerId",
          "type": "uint256"
        },
        {
          "indexed": false,
          "internalType": "uint256",
          "name": "_price",
          "type": "uint256"
        }
      ],
      "name": "CreatePlayerListing",
      "type": "event"
    },
    {
      "anonymous": false,
      "inputs": [
        {
          "indexed": true,
          "internalType": "address",
          "name": "_from",
          "type": "address"
        },
        {
          "indexed": true,
          "internalType": "uint256",
          "name": "_playerId",
          "type": "uint256"
        }
      ],
      "name": "DelistPlayer",
      "type": "event"
    },
    {
      "anonymous": false,
      "inputs": [
        {
          "indexed": true,
          "internalType": "address",
          "name": "_to",
          "type": "address"
        },
        {
          "indexed": false,
          "internalType": "uint256",
          "name": "_id",
          "type": "uint256"
        }
      ],
      "name": "PurchaseEquipmentLisitng",
      "type": "event"
    },
    {
      "anonymous": false,
      "inputs": [
        {
          "indexed": true,
          "internalType": "address",
          "name": "_to",
          "type": "address"
        },
        {
          "indexed": false,
          "internalType": "uint256",
          "name": "_id",
          "type": "uint256"
        }
      ],
      "name": "PurchasePlayerListing",
      "type": "event"
    },
    {
      "anonymous": false,
      "inputs": [
        {
          "indexed": true,
          "internalType": "address",
          "name": "from",
          "type": "address"
        },
        {
          "indexed": true,
          "internalType": "address",
          "name": "to",
          "type": "address"
        },
        {
          "indexed": true,
          "internalType": "uint256",
          "name": "tokenId",
          "type": "uint256"
        }
      ],
      "name": "Transfer",
      "type": "event"
    },
    {
      "inputs": [
        {
          "internalType": "uint256",
          "name": "_playerId",
          "type": "uint256"
        },
        {
          "internalType": "uint256",
          "name": "_price",
          "type": "uint256"
        }
      ],
      "name": "createPlayerListing",
      "outputs": [],
      "stateMutability": "nonpayable",
      "type": "function"
    },
    {
      "inputs": [
        {
          "internalType": "uint256",
          "name": "_playerId",
          "type": "uint256"
        }
      ],
      "name": "deListPlayer",
      "outputs": [],
      "stateMutability": "nonpayable",
      "type": "function"
    },
    {
      "inputs": [],
      "name": "getAllPlayerListings",
      "outputs": [
        {
          "internalType": "uint256[]",
          "name": "",
          "type": "uint256[]"
        }
      ],
      "stateMutability": "view",
      "type": "function"
    },
    {
      "inputs": [
        {
          "internalType": "uint256",
          "name": "_playerId",
          "type": "uint256"
        }
      ],
      "name": "getPlayerListing",
      "outputs": [
        {
          "components": [
            {
              "internalType": "address payable",
              "name": "seller",
              "type": "address"
            },
            {
              "internalType": "uint256",
              "name": "playerId",
              "type": "uint256"
            },
            {
              "internalType": "uint256",
              "name": "price",
              "type": "uint256"
            },
            {
              "internalType": "uint256",
              "name": "pointer",
              "type": "uint256"
            },
            {
              "internalType": "uint256",
              "name": "addressPointer",
              "type": "uint256"
            }
          ],
          "internalType": "struct PlayerListing",
          "name": "",
          "type": "tuple"
        }
      ],
      "stateMutability": "view",
      "type": "function"
    },
    {
      "inputs": [
        {
          "internalType": "address",
          "name": "_address",
          "type": "address"
        }
      ],
      "name": "getPlayerListingsByAddress",
      "outputs": [
        {
          "internalType": "uint256[]",
          "name": "",
          "type": "uint256[]"
        }
      ],
      "stateMutability": "view",
      "type": "function"
    },
    {
      "inputs": [
        {
          "internalType": "uint256",
          "name": "_playerId",
          "type": "uint256"
        }
      ],
      "name": "owners",
      "outputs": [
        {
          "internalType": "address",
          "name": "",
          "type": "address"
        }
      ],
      "stateMutability": "view",
      "type": "function"
    },
    {
      "inputs": [
        {
          "internalType": "uint256",
          "name": "_playerId",
          "type": "uint256"
        }
      ],
      "name": "purchasePlayer",
      "outputs": [],
      "stateMutability": "payable",
      "type": "function"
    },
    {
      "inputs": [
        {
          "internalType": "address",
          "name": "_to",
          "type": "address"
        },
        {
          "internalType": "uint256",
          "name": "_playerId",
          "type": "uint256"
        }
      ],
      "name": "transferPlayer",
      "outputs": [],
      "stateMutability": "nonpayable",
      "type": "function"
    }
  ],
  "bytecode": "0x608060405234801561001057600080fd5b506001600081905550612a89806100286000396000f3fe60806040526004361061007b5760003560e01c806352d2872a1161004e57806352d2872a1461014157806374c57c301461016a57806374e55f3214610193578063a61896e6146101d05761007b565b8063025e7c2714610080578063075881d6146100bd5780634ae8e577146100d957806352605d4114610116575b600080fd5b34801561008c57600080fd5b506100a760048036038101906100a29190611f24565b6101f9565b6040516100b49190611f92565b60405180910390f35b6100d760048036038101906100d29190611f24565b61020b565b005b3480156100e557600080fd5b5061010060048036038101906100fb9190611fd9565b6104ee565b60405161010d91906120c4565b60405180910390f35b34801561012257600080fd5b5061012b610500565b60405161013891906120c4565b60405180910390f35b34801561014d57600080fd5b50610168600480360381019061016391906120e6565b61050f565b005b34801561017657600080fd5b50610191600480360381019061018c9190612126565b61057c565b005b34801561019f57600080fd5b506101ba60048036038101906101b59190611f24565b61059b565b6040516101c791906121ef565b60405180910390f35b3480156101dc57600080fd5b506101f760048036038101906101f29190611f24565b6105b3565b005b600061020482610603565b9050919050565b61021361064e565b60007308d8e680a2d295af8cbcd8b8e07f900275bc6b8d905060006102378361069d565b90508060400151341461027f576040517f08c379a000000000000000000000000000000000000000000000000000000000815260040161027690612267565b60405180910390fd5b61028883610757565b610296816000015184610b84565b6102d5576040517f08c379a00000000000000000000000000000000000000000000000000000000081526004016102cc906122f9565b60405180910390fd5b6102e481600001513385610cd6565b600060648083604001516102f89190612348565b606984604001516103099190612348565b610313919061238a565b61031d91906123ed565b90506000818360400151610331919061238a565b90506000836000015173ffffffffffffffffffffffffffffffffffffffff168260405161035d9061244f565b60006040518083038185875af1925050503d806000811461039a576040519150601f19603f3d011682016040523d82523d6000602084013e61039f565b606091505b50509050806103e3576040517f08c379a00000000000000000000000000000000000000000000000000000000081526004016103da906124d6565b60405180910390fd5b60008573ffffffffffffffffffffffffffffffffffffffff16846040516104099061244f565b60006040518083038185875af1925050503d8060008114610446576040519150601f19603f3d011682016040523d82523d6000602084013e61044b565b606091505b505090508061048f576040517f08c379a000000000000000000000000000000000000000000000000000000000815260040161048690612568565b60405180910390fd5b3373ffffffffffffffffffffffffffffffffffffffff167f225283508a8ce3b05daa68183df02a29ea48aeaa415ac67113c50dea09c1b697886040516104d59190612597565b60405180910390a25050505050506104eb610ffe565b50565b60606104f982611008565b9050919050565b606061050a6110ae565b905090565b61051761064e565b6105218282611115565b813373ffffffffffffffffffffffffffffffffffffffff167fbf8edb16a3925949bda35d6c527b8f53ff37a989912808fac0a134935dcf5051836040516105689190612597565b60405180910390a3610578610ffe565b5050565b61058461064e565b61058f338383610cd6565b610597610ffe565b5050565b6105a3611e3a565b6105ac8261069d565b9050919050565b6105bc816113f1565b803373ffffffffffffffffffffffffffffffffffffffff167f1d7264ed0fc0f609bb4cb82e2664c9cd699ae2dc128e0228df77e1abec16d25a60405160405180910390a350565b60008061060e6117e9565b905080600201600084815260200190815260200160002060009054906101000a900473ffffffffffffffffffffffffffffffffffffffff16915050919050565b600260005403610693576040517f08c379a000000000000000000000000000000000000000000000000000000000815260040161068a906125fe565b60405180910390fd5b6002600081905550565b6106a5611e3a565b60006106af611816565b90508060000160008481526020019081526020016000206040518060a00160405290816000820160009054906101000a900473ffffffffffffffffffffffffffffffffffffffff1673ffffffffffffffffffffffffffffffffffffffff1673ffffffffffffffffffffffffffffffffffffffff168152602001600182015481526020016002820154815260200160038201548152602001600482015481525050915050919050565b60006107616117e9565b9050600061076d611816565b9050600081600001600085815260200190815260200160002060000160009054906101000a900473ffffffffffffffffffffffffffffffffffffffff16905081600001600085815260200190815260200160002060000160009054906101000a900473ffffffffffffffffffffffffffffffffffffffff1673ffffffffffffffffffffffffffffffffffffffff1683600201600086815260200190815260200160002060009054906101000a900473ffffffffffffffffffffffffffffffffffffffff1673ffffffffffffffffffffffffffffffffffffffff1614610887576040517f08c379a000000000000000000000000000000000000000000000000000000000815260040161087e9061266a565b60405180910390fd5b6000826000016000868152602001908152602001600020600301549050600083600201600185600201805490506108be919061238a565b815481106108cf576108ce61268a565b5b90600052602060002001549050808460020183815481106108f3576108f261268a565b5b9060005260206000200181905550818460000160008381526020019081526020016000206003018190555083600201805480610932576109316126b9565b5b60019003818190600052602060002001600090559055600084600001600088815260200190815260200160002060040154905060008560010160008673ffffffffffffffffffffffffffffffffffffffff1673ffffffffffffffffffffffffffffffffffffffff16815260200190815260200160002060018760010160008873ffffffffffffffffffffffffffffffffffffffff1673ffffffffffffffffffffffffffffffffffffffff168152602001908152602001600020805490506109f9919061238a565b81548110610a0a57610a0961268a565b5b90600052602060002001549050808660010160008773ffffffffffffffffffffffffffffffffffffffff1673ffffffffffffffffffffffffffffffffffffffff1681526020019081526020016000208381548110610a6b57610a6a61268a565b5b906000526020600020018190555081866000016000838152602001908152602001600020600401819055508560010160008673ffffffffffffffffffffffffffffffffffffffff1673ffffffffffffffffffffffffffffffffffffffff168152602001908152602001600020805480610ae757610ae66126b9565b5b6001900381819060005260206000200160009055905560008760030160008a815260200190815260200160002060020181905550856000016000898152602001908152602001600020600080820160006101000a81549073ffffffffffffffffffffffffffffffffffffffff0219169055600182016000905560028201600090556003820160009055600482016000905550505050505050505050565b600080610b9083611843565b90508073ffffffffffffffffffffffffffffffffffffffff168473ffffffffffffffffffffffffffffffffffffffff161480610c5b5750610bcf611889565b60080160008273ffffffffffffffffffffffffffffffffffffffff1673ffffffffffffffffffffffffffffffffffffffff16815260200190815260200160002060008573ffffffffffffffffffffffffffffffffffffffff1673ffffffffffffffffffffffffffffffffffffffff16815260200190815260200160002060009054906101000a900460ff165b80610ccd57508373ffffffffffffffffffffffffffffffffffffffff16610c80611889565b600b01600085815260200190815260200160002060009054906101000a900473ffffffffffffffffffffffffffffffffffffffff1673ffffffffffffffffffffffffffffffffffffffff16145b91505092915050565b8273ffffffffffffffffffffffffffffffffffffffff16610cf682611843565b73ffffffffffffffffffffffffffffffffffffffff1614610d4c576040517f08c379a0000000000000000000000000000000000000000000000000000000008152600401610d439061275a565b60405180910390fd5b600073ffffffffffffffffffffffffffffffffffffffff168273ffffffffffffffffffffffffffffffffffffffff1603610dbb576040517f08c379a0000000000000000000000000000000000000000000000000000000008152600401610db2906127ec565b60405180910390fd5b610dc883838360016118b6565b8273ffffffffffffffffffffffffffffffffffffffff16610de882611843565b73ffffffffffffffffffffffffffffffffffffffff1614610e3e576040517f08c379a0000000000000000000000000000000000000000000000000000000008152600401610e359061275a565b60405180910390fd5b610e46611889565b600b01600082815260200190815260200160002060006101000a81549073ffffffffffffffffffffffffffffffffffffffff02191690556001610e87611889565b600a0160008573ffffffffffffffffffffffffffffffffffffffff1673ffffffffffffffffffffffffffffffffffffffff168152602001908152602001600020600082825403925050819055506001610ede611889565b600a0160008473ffffffffffffffffffffffffffffffffffffffff1673ffffffffffffffffffffffffffffffffffffffff1681526020019081526020016000206000828254019250508190555081610f34611889565b600901600083815260200190815260200160002060006101000a81548173ffffffffffffffffffffffffffffffffffffffff021916908373ffffffffffffffffffffffffffffffffffffffff160217905550610f918383836118bc565b808273ffffffffffffffffffffffffffffffffffffffff168473ffffffffffffffffffffffffffffffffffffffff167fddf252ad1be2c89b69c2b068fc378daa952ba7f163c4a11628f55a4df523b3ef60405160405180910390a4610ff98383836001611e07565b505050565b6001600081905550565b60606000611014611816565b90508060010160008473ffffffffffffffffffffffffffffffffffffffff1673ffffffffffffffffffffffffffffffffffffffff1681526020019081526020016000208054806020026020016040519081016040528092919081815260200182805480156110a157602002820191906000526020600020905b81548152602001906001019080831161108d575b5050505050915050919050565b606060006110ba611816565b90508060020180548060200260200160405190810160405280929190818152602001828054801561110a57602002820191906000526020600020905b8154815260200190600101908083116110f6575b505050505091505090565b600061111f6117e9565b9050600061112b611816565b90503373ffffffffffffffffffffffffffffffffffffffff1682600201600086815260200190815260200160002060009054906101000a900473ffffffffffffffffffffffffffffffffffffffff1673ffffffffffffffffffffffffffffffffffffffff16146111d0576040517f08c379a00000000000000000000000000000000000000000000000000000000081526004016111c790612858565b60405180910390fd5b6000826003016000868152602001908152602001600020600201541461122b576040517f08c379a0000000000000000000000000000000000000000000000000000000008152600401611222906128c4565b60405180910390fd5b6063826003016000868152602001908152602001600020600201819055506040518060a001604052803373ffffffffffffffffffffffffffffffffffffffff168152602001858152602001848152602001826002018054905081526020018260010160003373ffffffffffffffffffffffffffffffffffffffff1673ffffffffffffffffffffffffffffffffffffffff1681526020019081526020016000208054905081525081600001600086815260200190815260200160002060008201518160000160006101000a81548173ffffffffffffffffffffffffffffffffffffffff021916908373ffffffffffffffffffffffffffffffffffffffff16021790555060208201518160010155604082015181600201556060820151816003015560808201518160040155905050806002018490806001815401808255809150506001900390600052602060002001600090919091909150558060010160003373ffffffffffffffffffffffffffffffffffffffff1673ffffffffffffffffffffffffffffffffffffffff16815260200190815260200160002084908060018154018082558091505060019003906000526020600020016000909190919091505550505050565b60006113fb6117e9565b90506000611407611816565b90503373ffffffffffffffffffffffffffffffffffffffff1681600001600085815260200190815260200160002060000160009054906101000a900473ffffffffffffffffffffffffffffffffffffffff1673ffffffffffffffffffffffffffffffffffffffff16146114af576040517f08c379a00000000000000000000000000000000000000000000000000000000081526004016114a690612956565b60405180910390fd5b600081600001600085815260200190815260200160002060000160009054906101000a900473ffffffffffffffffffffffffffffffffffffffff169050600082600001600086815260200190815260200160002060030154905060008360020160018560020180549050611523919061238a565b815481106115345761153361268a565b5b90600052602060002001549050808460020183815481106115585761155761268a565b5b9060005260206000200181905550818460000160008381526020019081526020016000206003018190555083600201805480611597576115966126b9565b5b60019003818190600052602060002001600090559055600084600001600088815260200190815260200160002060040154905060008560010160008673ffffffffffffffffffffffffffffffffffffffff1673ffffffffffffffffffffffffffffffffffffffff16815260200190815260200160002060018760010160008873ffffffffffffffffffffffffffffffffffffffff1673ffffffffffffffffffffffffffffffffffffffff1681526020019081526020016000208054905061165e919061238a565b8154811061166f5761166e61268a565b5b90600052602060002001549050808660010160008773ffffffffffffffffffffffffffffffffffffffff1673ffffffffffffffffffffffffffffffffffffffff16815260200190815260200160002083815481106116d0576116cf61268a565b5b906000526020600020018190555081866000016000838152602001908152602001600020600401819055508560010160008673ffffffffffffffffffffffffffffffffffffffff1673ffffffffffffffffffffffffffffffffffffffff16815260200190815260200160002080548061174c5761174b6126b9565b5b6001900381819060005260206000200160009055905560008760030160008a815260200190815260200160002060020181905550856000016000898152602001908152602001600020600080820160006101000a81549073ffffffffffffffffffffffffffffffffffffffff0219169055600182016000905560028201600090556003820160009055600482016000905550505050505050505050565b6000807f3cab9a070a0c61cd0ae9d9e9e2c0781e5ca8691bec4087e5a4701d5ac018dd4e90508091505090565b6000807f0e933a40bc736a597dbcd3653baab40cf09a5c2453d7c0d87eeb7ea00af356fb90508091505090565b600061184d611889565b600901600083815260200190815260200160002060009054906101000a900473ffffffffffffffffffffffffffffffffffffffff169050919050565b6000807f2569078dfb4b0305704d3008e7403993ae9601b85f7ae5e742de3de8f8011c4090508091505090565b50505050565b60006118c6611e0d565b90508373ffffffffffffffffffffffffffffffffffffffff1681600201600084815260200190815260200160002060009054906101000a900473ffffffffffffffffffffffffffffffffffffffff1673ffffffffffffffffffffffffffffffffffffffff161461193557600080fd5b600073ffffffffffffffffffffffffffffffffffffffff168373ffffffffffffffffffffffffffffffffffffffff16036119a4576040517f08c379a000000000000000000000000000000000000000000000000000000000815260040161199b906129c2565b60405180910390fd5b8281600201600084815260200190815260200160002060006101000a81548173ffffffffffffffffffffffffffffffffffffffff021916908373ffffffffffffffffffffffffffffffffffffffff16021790555060008160070160008673ffffffffffffffffffffffffffffffffffffffff1673ffffffffffffffffffffffffffffffffffffffff16815260200190815260200160002080549050905060005b81811015611ce957838360070160008873ffffffffffffffffffffffffffffffffffffffff1673ffffffffffffffffffffffffffffffffffffffff1681526020019081526020016000208281548110611aa057611a9f61268a565b5b906000526020600020015403611cd65760018360070160008873ffffffffffffffffffffffffffffffffffffffff1673ffffffffffffffffffffffffffffffffffffffff1681526020019081526020016000208054905003611b5a576060808460070160008973ffffffffffffffffffffffffffffffffffffffff1673ffffffffffffffffffffffffffffffffffffffff1681526020019081526020016000209080519060200190611b53929190611e7f565b5050611cd1565b8260070160008773ffffffffffffffffffffffffffffffffffffffff1673ffffffffffffffffffffffffffffffffffffffff16815260200190815260200160002060018460070160008973ffffffffffffffffffffffffffffffffffffffff1673ffffffffffffffffffffffffffffffffffffffff16815260200190815260200160002080549050611bec919061238a565b81548110611bfd57611bfc61268a565b5b90600052602060002001548360070160008873ffffffffffffffffffffffffffffffffffffffff1673ffffffffffffffffffffffffffffffffffffffff1681526020019081526020016000208281548110611c5b57611c5a61268a565b5b90600052602060002001819055508260070160008773ffffffffffffffffffffffffffffffffffffffff1673ffffffffffffffffffffffffffffffffffffffff168152602001908152602001600020805480611cba57611cb96126b9565b5b600190038181906000526020600020016000905590555b611ce9565b8080611ce1906129e2565b915050611a44565b508160070160008573ffffffffffffffffffffffffffffffffffffffff1673ffffffffffffffffffffffffffffffffffffffff1681526020019081526020016000208390806001815401808255809150506001900390600052602060002001600090919091909150558160040160008673ffffffffffffffffffffffffffffffffffffffff1673ffffffffffffffffffffffffffffffffffffffff1681526020019081526020016000206000815480929190611da490612a2a565b91905055508160040160008573ffffffffffffffffffffffffffffffffffffffff1673ffffffffffffffffffffffffffffffffffffffff1681526020019081526020016000206000815480929190611dfb906129e2565b91905055505050505050565b50505050565b6000807f3cab9a070a0c61cd0ae9d9e9e2c0781e5ca8691bec4087e5a4701d5ac018dd4e90508091505090565b6040518060a00160405280600073ffffffffffffffffffffffffffffffffffffffff168152602001600081526020016000815260200160008152602001600081525090565b828054828255906000526020600020908101928215611ebb579160200282015b82811115611eba578251825591602001919060010190611e9f565b5b509050611ec89190611ecc565b5090565b5b80821115611ee5576000816000905550600101611ecd565b5090565b600080fd5b6000819050919050565b611f0181611eee565b8114611f0c57600080fd5b50565b600081359050611f1e81611ef8565b92915050565b600060208284031215611f3a57611f39611ee9565b5b6000611f4884828501611f0f565b91505092915050565b600073ffffffffffffffffffffffffffffffffffffffff82169050919050565b6000611f7c82611f51565b9050919050565b611f8c81611f71565b82525050565b6000602082019050611fa76000830184611f83565b92915050565b611fb681611f71565b8114611fc157600080fd5b50565b600081359050611fd381611fad565b92915050565b600060208284031215611fef57611fee611ee9565b5b6000611ffd84828501611fc4565b91505092915050565b600081519050919050565b600082825260208201905092915050565b6000819050602082019050919050565b61203b81611eee565b82525050565b600061204d8383612032565b60208301905092915050565b6000602082019050919050565b600061207182612006565b61207b8185612011565b935061208683612022565b8060005b838110156120b757815161209e8882612041565b97506120a983612059565b92505060018101905061208a565b5085935050505092915050565b600060208201905081810360008301526120de8184612066565b905092915050565b600080604083850312156120fd576120fc611ee9565b5b600061210b85828601611f0f565b925050602061211c85828601611f0f565b9150509250929050565b6000806040838503121561213d5761213c611ee9565b5b600061214b85828601611fc4565b925050602061215c85828601611f0f565b9150509250929050565b600061217182611f51565b9050919050565b61218181612166565b82525050565b60a08201600082015161219d6000850182612178565b5060208201516121b06020850182612032565b5060408201516121c36040850182612032565b5060608201516121d66060850182612032565b5060808201516121e96080850182612032565b50505050565b600060a0820190506122046000830184612187565b92915050565b600082825260208201905092915050565b7f53656e642074686520657861637420616d6f756e740000000000000000000000600082015250565b600061225160158361220a565b915061225c8261221b565b602082019050919050565b6000602082019050818103600083015261228081612244565b9050919050565b7f4552433732313a2073656c6c6572206973206e6f7420746f6b656e206f776e6560008201527f72206f7220617070726f76656400000000000000000000000000000000000000602082015250565b60006122e3602d8361220a565b91506122ee82612287565b604082019050919050565b60006020820190508181036000830152612312816122d6565b9050919050565b7f4e487b7100000000000000000000000000000000000000000000000000000000600052601160045260246000fd5b600061235382611eee565b915061235e83611eee565b925082820261236c81611eee565b9150828204841483151761238357612382612319565b5b5092915050565b600061239582611eee565b91506123a083611eee565b92508282039050818111156123b8576123b7612319565b5b92915050565b7f4e487b7100000000000000000000000000000000000000000000000000000000600052601260045260246000fd5b60006123f882611eee565b915061240383611eee565b925082612413576124126123be565b5b828204905092915050565b600081905092915050565b50565b600061243960008361241e565b915061244482612429565b600082019050919050565b600061245a8261242c565b9150819050919050565b7f4661696c656420746f2073656e6420457468657220746f207468652073656c6c60008201527f6572000000000000000000000000000000000000000000000000000000000000602082015250565b60006124c060228361220a565b91506124cb82612464565b604082019050919050565b600060208201905081810360008301526124ef816124b3565b9050919050565b7f4661696c656420746f2073656e6420457468657220746f20746865206665652060008201527f6163636f756e7400000000000000000000000000000000000000000000000000602082015250565b600061255260278361220a565b915061255d826124f6565b604082019050919050565b6000602082019050818103600083015261258181612545565b9050919050565b61259181611eee565b82525050565b60006020820190506125ac6000830184612588565b92915050565b7f5265656e7472616e637947756172643a207265656e7472616e742063616c6c00600082015250565b60006125e8601f8361220a565b91506125f3826125b2565b602082019050919050565b60006020820190508181036000830152612617816125db565b9050919050565b7f74686973206974656d20617320736f6c6420656c736577686572650000000000600082015250565b6000612654601b8361220a565b915061265f8261261e565b602082019050919050565b6000602082019050818103600083015261268381612647565b9050919050565b7f4e487b7100000000000000000000000000000000000000000000000000000000600052603260045260246000fd5b7f4e487b7100000000000000000000000000000000000000000000000000000000600052603160045260246000fd5b7f4552433732313a207472616e736665722066726f6d20696e636f72726563742060008201527f6f776e6572000000000000000000000000000000000000000000000000000000602082015250565b600061274460258361220a565b915061274f826126e8565b604082019050919050565b6000602082019050818103600083015261277381612737565b9050919050565b7f4552433732313a207472616e7366657220746f20746865207a65726f2061646460008201527f7265737300000000000000000000000000000000000000000000000000000000602082015250565b60006127d660248361220a565b91506127e18261277a565b604082019050919050565b60006020820190508181036000830152612805816127c9565b9050919050565b7f596f7520646f206e6f74206f776e207468697320706c61796572000000000000600082015250565b6000612842601a8361220a565b915061284d8261280c565b602082019050919050565b6000602082019050818103600083015261287181612835565b9050919050565b7f506c617965722073746175732069732069646c65000000000000000000000000600082015250565b60006128ae60148361220a565b91506128b982612878565b602082019050919050565b600060208201905081810360008301526128dd816128a1565b9050919050565b7f63616c6c6572206d75737420626520746865206f776e6572206f66207468652060008201527f6c697374696e6700000000000000000000000000000000000000000000000000602082015250565b600061294060278361220a565b915061294b826128e4565b604082019050919050565b6000602082019050818103600083015261296f81612933565b9050919050565b7f5f746f2063616e6e6f74206265207a65726f2061646472657373000000000000600082015250565b60006129ac601a8361220a565b91506129b782612976565b602082019050919050565b600060208201905081810360008301526129db8161299f565b9050919050565b60006129ed82611eee565b91507fffffffffffffffffffffffffffffffffffffffffffffffffffffffffffffffff8203612a1f57612a1e612319565b5b600182019050919050565b6000612a3582611eee565b915060008203612a4857612a47612319565b5b60018203905091905056fea26469706673582212203dee04085ea21e496896ec40c9bfeecb420c32141efaadc7396043b91dcc676b64736f6c63430008110033",
  "linkReferences": {},
  "deployedLinkReferences": {}
}