{
  "_format": "hh-sol-artifact-1",
  "contractName": "ShopFacet",
  "sourceName": "contracts/facets/ShopFacet.sol",
  "abi": [
    {
      "anonymous": false,
      "inputs": [
        {
          "indexed": false,
          "internalType": "uint256",
          "name": "_playerId",
          "type": "uint256"
        },
        {
          "indexed": true,
          "internalType": "uint256",
          "name": "_basicPotionSchemaId",
          "type": "uint256"
        }
      ],
      "name": "ConsumeBasicPotion",
      "type": "event"
    },
    {
      "anonymous": false,
      "inputs": [
        {
          "indexed": true,
          "internalType": "uint256",
          "name": "_basicPotionSchemaId",
          "type": "uint256"
        },
        {
          "components": [
            {
              "internalType": "uint256",
              "name": "basicHealthPotionSchemaId",
              "type": "uint256"
            },
            {
              "internalType": "uint256",
              "name": "value",
              "type": "uint256"
            },
            {
              "internalType": "uint256",
              "name": "cost",
              "type": "uint256"
            },
            {
              "internalType": "bool",
              "name": "isHealth",
              "type": "bool"
            },
            {
              "internalType": "string",
              "name": "name",
              "type": "string"
            },
            {
              "internalType": "string",
              "name": "uri",
              "type": "string"
            }
          ],
          "indexed": false,
          "internalType": "struct BasicPotionSchema",
          "name": "potionSchema",
          "type": "tuple"
        }
      ],
      "name": "CreateBasicPotion",
      "type": "event"
    },
    {
      "anonymous": false,
      "inputs": [
        {
          "indexed": false,
          "internalType": "uint256",
          "name": "_playerId",
          "type": "uint256"
        },
        {
          "indexed": true,
          "internalType": "uint256",
          "name": "_basicPotionSchemaId",
          "type": "uint256"
        }
      ],
      "name": "PurchaseBasicPotion",
      "type": "event"
    },
    {
      "inputs": [
        {
          "internalType": "uint256",
          "name": "_playerId",
          "type": "uint256"
        },
        {
          "internalType": "uint256",
          "name": "_basicPotionSchemaId",
          "type": "uint256"
        }
      ],
      "name": "consumeBasicHealthPotion",
      "outputs": [],
      "stateMutability": "nonpayable",
      "type": "function"
    },
    {
      "inputs": [
        {
          "internalType": "uint256",
          "name": "_value",
          "type": "uint256"
        },
        {
          "internalType": "uint256",
          "name": "_cost",
          "type": "uint256"
        },
        {
          "internalType": "bool",
          "name": "_isHealth",
          "type": "bool"
        },
        {
          "internalType": "string",
          "name": "_name",
          "type": "string"
        },
        {
          "internalType": "string",
          "name": "_uri",
          "type": "string"
        }
      ],
      "name": "createBasicPotion",
      "outputs": [],
      "stateMutability": "nonpayable",
      "type": "function"
    },
    {
      "inputs": [
        {
          "internalType": "uint256",
          "name": "_playerId",
          "type": "uint256"
        },
        {
          "internalType": "uint256",
          "name": "_basicPotionSchemaId",
          "type": "uint256"
        }
      ],
      "name": "getBaiscPotionCount",
      "outputs": [
        {
          "internalType": "uint256",
          "name": "",
          "type": "uint256"
        }
      ],
      "stateMutability": "view",
      "type": "function"
    },
    {
      "inputs": [
        {
          "internalType": "uint256",
          "name": "_basicPotionSchemaId",
          "type": "uint256"
        }
      ],
      "name": "getBasicPotion",
      "outputs": [
        {
          "components": [
            {
              "internalType": "uint256",
              "name": "basicHealthPotionSchemaId",
              "type": "uint256"
            },
            {
              "internalType": "uint256",
              "name": "value",
              "type": "uint256"
            },
            {
              "internalType": "uint256",
              "name": "cost",
              "type": "uint256"
            },
            {
              "internalType": "bool",
              "name": "isHealth",
              "type": "bool"
            },
            {
              "internalType": "string",
              "name": "name",
              "type": "string"
            },
            {
              "internalType": "string",
              "name": "uri",
              "type": "string"
            }
          ],
          "internalType": "struct BasicPotionSchema",
          "name": "",
          "type": "tuple"
        }
      ],
      "stateMutability": "view",
      "type": "function"
    },
    {
      "inputs": [],
      "name": "getBasicPotionSchemaCount",
      "outputs": [
        {
          "internalType": "uint256",
          "name": "",
          "type": "uint256"
        }
      ],
      "stateMutability": "view",
      "type": "function"
    },
    {
      "inputs": [
        {
          "internalType": "uint256",
          "name": "_playerId",
          "type": "uint256"
        },
        {
          "internalType": "uint256",
          "name": "_basicPotionSchemaId",
          "type": "uint256"
        }
      ],
      "name": "purchaseBasicPotion",
      "outputs": [],
      "stateMutability": "nonpayable",
      "type": "function"
    }
  ],
  "bytecode": "0x608060405234801561001057600080fd5b5061155f806100206000396000f3fe608060405234801561001057600080fd5b50600436106100625760003560e01c806306b058bf1461006757806365aa28fc14610085578063af596732146100a1578063af9c0c70146100bd578063ca87f93d146100ed578063e645797214610109575b600080fd5b61006f610139565b60405161007c9190610ba6565b60405180910390f35b61009f600480360381019061009a9190610c01565b610148565b005b6100bb60048036038101906100b69190610c01565b61018e565b005b6100d760048036038101906100d29190610c41565b6101d4565b6040516100e49190610db8565b60405180910390f35b61010760048036038101906101029190610f3b565b6101ec565b005b610123600480360381019061011e9190610c01565b61024d565b6040516101309190610ba6565b60405180910390f35b6000610143610261565b905090565b6101528282610279565b807f3c9b4ad9fedd1fd84bdad054ad17078ec330b6c4e54fa02e8230800e5e71fd1d836040516101829190610ba6565b60405180910390a25050565b61019882826105e2565b807f48d1fa7160e4eb75d7daaf2d48e8202072e6edf2a5cacc8593a52aa0625150c9836040516101c89190610ba6565b60405180910390a25050565b6101dc610b55565b6101e582610811565b9050919050565b6101f985858585856109aa565b6000610203610261565b9050807f341b6ec561d4be169da39751bf0c94cdecea82d34567729a920f8a0976477540610230836101d4565b60405161023d9190610db8565b60405180910390a2505050505050565b60006102598383610a91565b905092915050565b60008061026c610ace565b9050806000015491505090565b6000610283610ace565b9050600061028f610afb565b9050600081600301600086815260200190815260200160002060020154146102ec576040517f08c379a00000000000000000000000000000000000000000000000000000000081526004016102e39061104b565b60405180910390fd5b3373ffffffffffffffffffffffffffffffffffffffff1681600201600086815260200190815260200160002060009054906101000a900473ffffffffffffffffffffffffffffffffffffffff1673ffffffffffffffffffffffffffffffffffffffff161461038f576040517f08c379a0000000000000000000000000000000000000000000000000000000008152600401610386906110b7565b60405180910390fd5b600182600201600085815260200190815260200160002060008681526020019081526020016000205410156103f9576040517f08c379a00000000000000000000000000000000000000000000000000000000081526004016103f090611123565b60405180910390fd5b600082600101600085815260200190815260200160002060010154905082600101600085815260200190815260200160002060030160009054906101000a900460ff16156104f257816003016000868152602001908152602001600020600501548260030160008781526020019081526020016000206004015461047d9190611172565b8110156104b7578082600301600087815260200190815260200160002060050160008282546104ac91906111a6565b9250508190556104ec565b816003016000868152602001908152602001600020600401548260030160008781526020019081526020016000206005018190555b5061059f565b816003016000868152602001908152602001600020600701548260030160008781526020019081526020016000206008015461052e9190611172565b8110156105685780826003016000878152602001908152602001600020600701600082825461055d91906111a6565b92505081905561059d565b816003016000868152602001908152602001600020600801548260030160008781526020019081526020016000206007018190555b505b826002016000858152602001908152602001600020600086815260200190815260200160002060008154809291906105d6906111da565b91905055505050505050565b60006105ec610ace565b905060006105f8610afb565b90506000610604610b28565b90506000826003016000878152602001908152602001600020600201541461062b57600080fd5b3373ffffffffffffffffffffffffffffffffffffffff1682600201600087815260200190815260200160002060009054906101000a900473ffffffffffffffffffffffffffffffffffffffff1673ffffffffffffffffffffffffffffffffffffffff161461069857600080fd5b6000836001016000868152602001908152602001600020600201549050808260010160003373ffffffffffffffffffffffffffffffffffffffff1673ffffffffffffffffffffffffffffffffffffffff16815260200190815260200160002054101561070357600080fd5b8360020160008681526020019081526020016000206000878152602001908152602001600020600081548092919061073a90611203565b9190505550808260010160003373ffffffffffffffffffffffffffffffffffffffff1673ffffffffffffffffffffffffffffffffffffffff16815260200190815260200160002060008282546107909190611172565b9250508190555060007308d8e680a2d295af8cbcd8b8e07f900275bc6b8d9050818360010160008373ffffffffffffffffffffffffffffffffffffffff1673ffffffffffffffffffffffffffffffffffffffff168152602001908152602001600020600082825461080191906111a6565b9250508190555050505050505050565b610819610b55565b6000610823610ace565b90508060010160008481526020019081526020016000206040518060c00160405290816000820154815260200160018201548152602001600282015481526020016003820160009054906101000a900460ff1615151515815260200160048201805461088e9061127a565b80601f01602080910402602001604051908101604052809291908181526020018280546108ba9061127a565b80156109075780601f106108dc57610100808354040283529160200191610907565b820191906000526020600020905b8154815290600101906020018083116108ea57829003601f168201915b505050505081526020016005820180546109209061127a565b80601f016020809104026020016040519081016040528092919081815260200182805461094c9061127a565b80156109995780601f1061096e57610100808354040283529160200191610999565b820191906000526020600020905b81548152906001019060200180831161097c57829003601f168201915b505050505081525050915050919050565b60006109b4610ace565b90508060000160008154809291906109cb90611203565b91905055506040518060c00160405280826000015481526020018781526020018681526020018515158152602001848152602001838152508160010160008360000154815260200190815260200160002060008201518160000155602082015181600101556040820151816002015560608201518160030160006101000a81548160ff0219169083151502179055506080820151816004019081610a6f9190611457565b5060a0820151816005019081610a859190611457565b50905050505050505050565b600080610a9c610ace565b905080600201600084815260200190815260200160002060008581526020019081526020016000205491505092915050565b6000807fa5351287be8afdfce4134deb8a6bad99fc2c84075e67cad166df8b2eacf273f290508091505090565b6000807f3cab9a070a0c61cd0ae9d9e9e2c0781e5ca8691bec4087e5a4701d5ac018dd4e90508091505090565b6000807f2c89d74504b6ad8d4fbde22bc3474166bac5452a11195897f239d8bebe02d70790508091505090565b6040518060c0016040528060008152602001600081526020016000815260200160001515815260200160608152602001606081525090565b6000819050919050565b610ba081610b8d565b82525050565b6000602082019050610bbb6000830184610b97565b92915050565b6000604051905090565b600080fd5b600080fd5b610bde81610b8d565b8114610be957600080fd5b50565b600081359050610bfb81610bd5565b92915050565b60008060408385031215610c1857610c17610bcb565b5b6000610c2685828601610bec565b9250506020610c3785828601610bec565b9150509250929050565b600060208284031215610c5757610c56610bcb565b5b6000610c6584828501610bec565b91505092915050565b610c7781610b8d565b82525050565b60008115159050919050565b610c9281610c7d565b82525050565b600081519050919050565b600082825260208201905092915050565b60005b83811015610cd2578082015181840152602081019050610cb7565b60008484015250505050565b6000601f19601f8301169050919050565b6000610cfa82610c98565b610d048185610ca3565b9350610d14818560208601610cb4565b610d1d81610cde565b840191505092915050565b600060c083016000830151610d406000860182610c6e565b506020830151610d536020860182610c6e565b506040830151610d666040860182610c6e565b506060830151610d796060860182610c89565b5060808301518482036080860152610d918282610cef565b91505060a083015184820360a0860152610dab8282610cef565b9150508091505092915050565b60006020820190508181036000830152610dd28184610d28565b905092915050565b610de381610c7d565b8114610dee57600080fd5b50565b600081359050610e0081610dda565b92915050565b600080fd5b600080fd5b7f4e487b7100000000000000000000000000000000000000000000000000000000600052604160045260246000fd5b610e4882610cde565b810181811067ffffffffffffffff82111715610e6757610e66610e10565b5b80604052505050565b6000610e7a610bc1565b9050610e868282610e3f565b919050565b600067ffffffffffffffff821115610ea657610ea5610e10565b5b610eaf82610cde565b9050602081019050919050565b82818337600083830152505050565b6000610ede610ed984610e8b565b610e70565b905082815260208101848484011115610efa57610ef9610e0b565b5b610f05848285610ebc565b509392505050565b600082601f830112610f2257610f21610e06565b5b8135610f32848260208601610ecb565b91505092915050565b600080600080600060a08688031215610f5757610f56610bcb565b5b6000610f6588828901610bec565b9550506020610f7688828901610bec565b9450506040610f8788828901610df1565b935050606086013567ffffffffffffffff811115610fa857610fa7610bd0565b5b610fb488828901610f0d565b925050608086013567ffffffffffffffff811115610fd557610fd4610bd0565b5b610fe188828901610f0d565b9150509295509295909350565b600082825260208201905092915050565b7f796f7520617265206e6f742069646c6500000000000000000000000000000000600082015250565b6000611035601083610fee565b915061104082610fff565b602082019050919050565b6000602082019050818103600083015261106481611028565b9050919050565b7f796f7520617265206e6f7420746865206f776e65720000000000000000000000600082015250565b60006110a1601583610fee565b91506110ac8261106b565b602082019050919050565b600060208201905081810360008301526110d081611094565b9050919050565b7f6e6f20706f7420666f6f6c000000000000000000000000000000000000000000600082015250565b600061110d600b83610fee565b9150611118826110d7565b602082019050919050565b6000602082019050818103600083015261113c81611100565b9050919050565b7f4e487b7100000000000000000000000000000000000000000000000000000000600052601160045260246000fd5b600061117d82610b8d565b915061118883610b8d565b92508282039050818111156111a05761119f611143565b5b92915050565b60006111b182610b8d565b91506111bc83610b8d565b92508282019050808211156111d4576111d3611143565b5b92915050565b60006111e582610b8d565b9150600082036111f8576111f7611143565b5b600182039050919050565b600061120e82610b8d565b91507fffffffffffffffffffffffffffffffffffffffffffffffffffffffffffffffff82036112405761123f611143565b5b600182019050919050565b7f4e487b7100000000000000000000000000000000000000000000000000000000600052602260045260246000fd5b6000600282049050600182168061129257607f821691505b6020821081036112a5576112a461124b565b5b50919050565b60008190508160005260206000209050919050565b60006020601f8301049050919050565b600082821b905092915050565b60006008830261130d7fffffffffffffffffffffffffffffffffffffffffffffffffffffffffffffffff826112d0565b61131786836112d0565b95508019841693508086168417925050509392505050565b6000819050919050565b600061135461134f61134a84610b8d565b61132f565b610b8d565b9050919050565b6000819050919050565b61136e83611339565b61138261137a8261135b565b8484546112dd565b825550505050565b600090565b61139761138a565b6113a2818484611365565b505050565b5b818110156113c6576113bb60008261138f565b6001810190506113a8565b5050565b601f82111561140b576113dc816112ab565b6113e5846112c0565b810160208510156113f4578190505b611408611400856112c0565b8301826113a7565b50505b505050565b600082821c905092915050565b600061142e60001984600802611410565b1980831691505092915050565b6000611447838361141d565b9150826002028217905092915050565b61146082610c98565b67ffffffffffffffff81111561147957611478610e10565b5b611483825461127a565b61148e8282856113ca565b600060209050601f8311600181146114c157600084156114af578287015190505b6114b9858261143b565b865550611521565b601f1984166114cf866112ab565b60005b828110156114f7578489015182556001820191506020850194506020810190506114d2565b868310156115145784890151611510601f89168261141d565b8355505b6001600288020188555050505b50505050505056fea2646970667358221220505a1b500a2dacbd7b830068e263c679a473603c6ddbd3acff029e3050bbad6d64736f6c63430008120033",
  "linkReferences": {},
  "deployedLinkReferences": {}
}