{
  "_format": "hh-sol-artifact-1",
  "contractName": "ShopFacet",
  "sourceName": "contracts/facets/ShopFacet.sol",
  "abi": [
    {
      "anonymous": false,
      "inputs": [
        {
          "indexed": false,
          "internalType": "uint256",
          "name": "_playerId",
          "type": "uint256"
        },
        {
          "indexed": true,
          "internalType": "uint256",
          "name": "_basicPotionSchemaId",
          "type": "uint256"
        }
      ],
      "name": "ConsumeBasicPotion",
      "type": "event"
    },
    {
      "anonymous": false,
      "inputs": [
        {
          "indexed": true,
          "internalType": "uint256",
          "name": "_basicPotionSchemaId",
          "type": "uint256"
        },
        {
          "indexed": true,
          "internalType": "uint256",
          "name": "_value",
          "type": "uint256"
        },
        {
          "indexed": true,
          "internalType": "uint256",
          "name": "_cost",
          "type": "uint256"
        }
      ],
      "name": "CreateBasicPotion",
      "type": "event"
    },
    {
      "anonymous": false,
      "inputs": [
        {
          "indexed": false,
          "internalType": "uint256",
          "name": "_playerId",
          "type": "uint256"
        },
        {
          "indexed": true,
          "internalType": "uint256",
          "name": "_basicPotionSchemaId",
          "type": "uint256"
        }
      ],
      "name": "PurchaseBasicPotion",
      "type": "event"
    },
    {
      "inputs": [
        {
          "internalType": "uint256",
          "name": "_playerId",
          "type": "uint256"
        },
        {
          "internalType": "uint256",
          "name": "_basicPotionSchemaId",
          "type": "uint256"
        }
      ],
      "name": "consumeBasicHealthPotion",
      "outputs": [],
      "stateMutability": "nonpayable",
      "type": "function"
    },
    {
      "inputs": [
        {
          "internalType": "uint256",
          "name": "_value",
          "type": "uint256"
        },
        {
          "internalType": "uint256",
          "name": "_cost",
          "type": "uint256"
        },
        {
          "internalType": "bool",
          "name": "_isHealth",
          "type": "bool"
        },
        {
          "internalType": "string",
          "name": "_name",
          "type": "string"
        },
        {
          "internalType": "string",
          "name": "_uri",
          "type": "string"
        }
      ],
      "name": "createBasicPotion",
      "outputs": [],
      "stateMutability": "nonpayable",
      "type": "function"
    },
    {
      "inputs": [
        {
          "internalType": "uint256",
          "name": "_playerId",
          "type": "uint256"
        },
        {
          "internalType": "uint256",
          "name": "_basicPotionSchemaId",
          "type": "uint256"
        }
      ],
      "name": "getBaiscPotionCount",
      "outputs": [
        {
          "internalType": "uint256",
          "name": "",
          "type": "uint256"
        }
      ],
      "stateMutability": "view",
      "type": "function"
    },
    {
      "inputs": [
        {
          "internalType": "uint256",
          "name": "_basicPotionSchemaId",
          "type": "uint256"
        }
      ],
      "name": "getBasicPotion",
      "outputs": [
        {
          "components": [
            {
              "internalType": "uint256",
              "name": "basicHealthPotionSchemaId",
              "type": "uint256"
            },
            {
              "internalType": "uint256",
              "name": "value",
              "type": "uint256"
            },
            {
              "internalType": "uint256",
              "name": "cost",
              "type": "uint256"
            },
            {
              "internalType": "bool",
              "name": "isHealth",
              "type": "bool"
            },
            {
              "internalType": "string",
              "name": "name",
              "type": "string"
            },
            {
              "internalType": "string",
              "name": "uri",
              "type": "string"
            }
          ],
          "internalType": "struct BasicPotionSchema",
          "name": "",
          "type": "tuple"
        }
      ],
      "stateMutability": "view",
      "type": "function"
    },
    {
      "inputs": [],
      "name": "getBasicPotionSchemaCount",
      "outputs": [
        {
          "internalType": "uint256",
          "name": "",
          "type": "uint256"
        }
      ],
      "stateMutability": "view",
      "type": "function"
    },
    {
      "inputs": [
        {
          "internalType": "uint256",
          "name": "_playerId",
          "type": "uint256"
        },
        {
          "internalType": "uint256",
          "name": "_basicPotionSchemaId",
          "type": "uint256"
        }
      ],
      "name": "purchaseBasicPotion",
      "outputs": [],
      "stateMutability": "nonpayable",
      "type": "function"
    }
  ],
  "bytecode": "0x608060405234801561001057600080fd5b506114d6806100206000396000f3fe608060405234801561001057600080fd5b50600436106100625760003560e01c806306b058bf1461006757806365aa28fc14610085578063af596732146100a1578063af9c0c70146100bd578063ca87f93d146100ed578063e645797214610109575b600080fd5b61006f610139565b60405161007c9190610b1d565b60405180910390f35b61009f600480360381019061009a9190610b78565b610148565b005b6100bb60048036038101906100b69190610b78565b61018e565b005b6100d760048036038101906100d29190610bb8565b6101d4565b6040516100e49190610d2f565b60405180910390f35b61010760048036038101906101029190610eb2565b6101ec565b005b610123600480360381019061011e9190610b78565b610236565b6040516101309190610b1d565b60405180910390f35b600061014361024a565b905090565b6101528282610262565b807f3c9b4ad9fedd1fd84bdad054ad17078ec330b6c4e54fa02e8230800e5e71fd1d836040516101829190610b1d565b60405180910390a25050565b61019882826105cb565b807f48d1fa7160e4eb75d7daaf2d48e8202072e6edf2a5cacc8593a52aa0625150c9836040516101c89190610b1d565b60405180910390a25050565b6101dc610acc565b6101e582610788565b9050919050565b6101f98585858585610921565b838561020361024a565b7f06e7198c0f89caac73387b58178787203e89909c2acf02f1675a767976ad21aa60405160405180910390a45050505050565b60006102428383610a08565b905092915050565b600080610255610a45565b9050806000015491505090565b600061026c610a45565b90506000610278610a72565b9050600081600301600086815260200190815260200160002060020154146102d5576040517f08c379a00000000000000000000000000000000000000000000000000000000081526004016102cc90610fc2565b60405180910390fd5b3373ffffffffffffffffffffffffffffffffffffffff1681600201600086815260200190815260200160002060009054906101000a900473ffffffffffffffffffffffffffffffffffffffff1673ffffffffffffffffffffffffffffffffffffffff1614610378576040517f08c379a000000000000000000000000000000000000000000000000000000000815260040161036f9061102e565b60405180910390fd5b600182600201600085815260200190815260200160002060008681526020019081526020016000205410156103e2576040517f08c379a00000000000000000000000000000000000000000000000000000000081526004016103d99061109a565b60405180910390fd5b600082600101600085815260200190815260200160002060010154905082600101600085815260200190815260200160002060030160009054906101000a900460ff16156104db57816003016000868152602001908152602001600020600501548260030160008781526020019081526020016000206004015461046691906110e9565b8110156104a057808260030160008781526020019081526020016000206005016000828254610495919061111d565b9250508190556104d5565b816003016000868152602001908152602001600020600401548260030160008781526020019081526020016000206005018190555b50610588565b816003016000868152602001908152602001600020600701548260030160008781526020019081526020016000206008015461051791906110e9565b81101561055157808260030160008781526020019081526020016000206007016000828254610546919061111d565b925050819055610586565b816003016000868152602001908152602001600020600801548260030160008781526020019081526020016000206007018190555b505b826002016000858152602001908152602001600020600086815260200190815260200160002060008154809291906105bf90611151565b91905055505050505050565b60006105d5610a45565b905060006105e1610a72565b905060006105ed610a9f565b90506000826003016000878152602001908152602001600020600201541461061457600080fd5b3373ffffffffffffffffffffffffffffffffffffffff1682600201600087815260200190815260200160002060009054906101000a900473ffffffffffffffffffffffffffffffffffffffff1673ffffffffffffffffffffffffffffffffffffffff161461068157600080fd5b6000836001016000868152602001908152602001600020600201549050808260000160003373ffffffffffffffffffffffffffffffffffffffff1673ffffffffffffffffffffffffffffffffffffffff1681526020019081526020016000205410156106ec57600080fd5b836002016000868152602001908152602001600020600087815260200190815260200160002060008154809291906107239061117a565b9190505550808260000160003373ffffffffffffffffffffffffffffffffffffffff1673ffffffffffffffffffffffffffffffffffffffff168152602001908152602001600020600082825461077991906110e9565b92505081905550505050505050565b610790610acc565b600061079a610a45565b90508060010160008481526020019081526020016000206040518060c00160405290816000820154815260200160018201548152602001600282015481526020016003820160009054906101000a900460ff16151515158152602001600482018054610805906111f1565b80601f0160208091040260200160405190810160405280929190818152602001828054610831906111f1565b801561087e5780601f106108535761010080835404028352916020019161087e565b820191906000526020600020905b81548152906001019060200180831161086157829003601f168201915b50505050508152602001600582018054610897906111f1565b80601f01602080910402602001604051908101604052809291908181526020018280546108c3906111f1565b80156109105780601f106108e557610100808354040283529160200191610910565b820191906000526020600020905b8154815290600101906020018083116108f357829003601f168201915b505050505081525050915050919050565b600061092b610a45565b90508060000160008154809291906109429061117a565b91905055506040518060c00160405280826000015481526020018781526020018681526020018515158152602001848152602001838152508160010160008360000154815260200190815260200160002060008201518160000155602082015181600101556040820151816002015560608201518160030160006101000a81548160ff02191690831515021790555060808201518160040190816109e691906113ce565b5060a08201518160050190816109fc91906113ce565b50905050505050505050565b600080610a13610a45565b905080600201600084815260200190815260200160002060008581526020019081526020016000205491505092915050565b6000807fa5351287be8afdfce4134deb8a6bad99fc2c84075e67cad166df8b2eacf273f290508091505090565b6000807f3cab9a070a0c61cd0ae9d9e9e2c0781e5ca8691bec4087e5a4701d5ac018dd4e90508091505090565b6000807f2c89d74504b6ad8d4fbde22bc3474166bac5452a11195897f239d8bebe02d70790508091505090565b6040518060c0016040528060008152602001600081526020016000815260200160001515815260200160608152602001606081525090565b6000819050919050565b610b1781610b04565b82525050565b6000602082019050610b326000830184610b0e565b92915050565b6000604051905090565b600080fd5b600080fd5b610b5581610b04565b8114610b6057600080fd5b50565b600081359050610b7281610b4c565b92915050565b60008060408385031215610b8f57610b8e610b42565b5b6000610b9d85828601610b63565b9250506020610bae85828601610b63565b9150509250929050565b600060208284031215610bce57610bcd610b42565b5b6000610bdc84828501610b63565b91505092915050565b610bee81610b04565b82525050565b60008115159050919050565b610c0981610bf4565b82525050565b600081519050919050565b600082825260208201905092915050565b60005b83811015610c49578082015181840152602081019050610c2e565b60008484015250505050565b6000601f19601f8301169050919050565b6000610c7182610c0f565b610c7b8185610c1a565b9350610c8b818560208601610c2b565b610c9481610c55565b840191505092915050565b600060c083016000830151610cb76000860182610be5565b506020830151610cca6020860182610be5565b506040830151610cdd6040860182610be5565b506060830151610cf06060860182610c00565b5060808301518482036080860152610d088282610c66565b91505060a083015184820360a0860152610d228282610c66565b9150508091505092915050565b60006020820190508181036000830152610d498184610c9f565b905092915050565b610d5a81610bf4565b8114610d6557600080fd5b50565b600081359050610d7781610d51565b92915050565b600080fd5b600080fd5b7f4e487b7100000000000000000000000000000000000000000000000000000000600052604160045260246000fd5b610dbf82610c55565b810181811067ffffffffffffffff82111715610dde57610ddd610d87565b5b80604052505050565b6000610df1610b38565b9050610dfd8282610db6565b919050565b600067ffffffffffffffff821115610e1d57610e1c610d87565b5b610e2682610c55565b9050602081019050919050565b82818337600083830152505050565b6000610e55610e5084610e02565b610de7565b905082815260208101848484011115610e7157610e70610d82565b5b610e7c848285610e33565b509392505050565b600082601f830112610e9957610e98610d7d565b5b8135610ea9848260208601610e42565b91505092915050565b600080600080600060a08688031215610ece57610ecd610b42565b5b6000610edc88828901610b63565b9550506020610eed88828901610b63565b9450506040610efe88828901610d68565b935050606086013567ffffffffffffffff811115610f1f57610f1e610b47565b5b610f2b88828901610e84565b925050608086013567ffffffffffffffff811115610f4c57610f4b610b47565b5b610f5888828901610e84565b9150509295509295909350565b600082825260208201905092915050565b7f796f7520617265206e6f742069646c6500000000000000000000000000000000600082015250565b6000610fac601083610f65565b9150610fb782610f76565b602082019050919050565b60006020820190508181036000830152610fdb81610f9f565b9050919050565b7f796f7520617265206e6f7420746865206f776e65720000000000000000000000600082015250565b6000611018601583610f65565b915061102382610fe2565b602082019050919050565b600060208201905081810360008301526110478161100b565b9050919050565b7f6e6f20706f7420666f6f6c000000000000000000000000000000000000000000600082015250565b6000611084600b83610f65565b915061108f8261104e565b602082019050919050565b600060208201905081810360008301526110b381611077565b9050919050565b7f4e487b7100000000000000000000000000000000000000000000000000000000600052601160045260246000fd5b60006110f482610b04565b91506110ff83610b04565b9250828203905081811115611117576111166110ba565b5b92915050565b600061112882610b04565b915061113383610b04565b925082820190508082111561114b5761114a6110ba565b5b92915050565b600061115c82610b04565b91506000820361116f5761116e6110ba565b5b600182039050919050565b600061118582610b04565b91507fffffffffffffffffffffffffffffffffffffffffffffffffffffffffffffffff82036111b7576111b66110ba565b5b600182019050919050565b7f4e487b7100000000000000000000000000000000000000000000000000000000600052602260045260246000fd5b6000600282049050600182168061120957607f821691505b60208210810361121c5761121b6111c2565b5b50919050565b60008190508160005260206000209050919050565b60006020601f8301049050919050565b600082821b905092915050565b6000600883026112847fffffffffffffffffffffffffffffffffffffffffffffffffffffffffffffffff82611247565b61128e8683611247565b95508019841693508086168417925050509392505050565b6000819050919050565b60006112cb6112c66112c184610b04565b6112a6565b610b04565b9050919050565b6000819050919050565b6112e5836112b0565b6112f96112f1826112d2565b848454611254565b825550505050565b600090565b61130e611301565b6113198184846112dc565b505050565b5b8181101561133d57611332600082611306565b60018101905061131f565b5050565b601f8211156113825761135381611222565b61135c84611237565b8101602085101561136b578190505b61137f61137785611237565b83018261131e565b50505b505050565b600082821c905092915050565b60006113a560001984600802611387565b1980831691505092915050565b60006113be8383611394565b9150826002028217905092915050565b6113d782610c0f565b67ffffffffffffffff8111156113f0576113ef610d87565b5b6113fa82546111f1565b611405828285611341565b600060209050601f8311600181146114385760008415611426578287015190505b61143085826113b2565b865550611498565b601f19841661144686611222565b60005b8281101561146e57848901518255600182019150602085019450602081019050611449565b8683101561148b5784890151611487601f891682611394565b8355505b6001600288020188555050505b50505050505056fea2646970667358221220d3b6084c4971bab98e4f75b66c43640676bfed4b9886c9d062d5f6d7e2186b2364736f6c63430008120033",
  "linkReferences": {},
  "deployedLinkReferences": {}
}