{
  "_format": "hh-sol-artifact-1",
  "contractName": "ShopFacet",
  "sourceName": "contracts/facets/ShopFacet.sol",
  "abi": [
    {
      "anonymous": false,
      "inputs": [
        {
          "indexed": false,
          "internalType": "uint256",
          "name": "_playerId",
          "type": "uint256"
        },
        {
          "indexed": true,
          "internalType": "uint256",
          "name": "_basicPotionSchemaId",
          "type": "uint256"
        }
      ],
      "name": "ConsumeBasicPotion",
      "type": "event"
    },
    {
      "anonymous": false,
      "inputs": [
        {
          "indexed": true,
          "internalType": "uint256",
          "name": "_basicPotionSchemaId",
          "type": "uint256"
        },
        {
          "components": [
            {
              "internalType": "uint256",
              "name": "basicHealthPotionSchemaId",
              "type": "uint256"
            },
            {
              "internalType": "uint256",
              "name": "value",
              "type": "uint256"
            },
            {
              "internalType": "uint256",
              "name": "cost",
              "type": "uint256"
            },
            {
              "internalType": "bool",
              "name": "isHealth",
              "type": "bool"
            },
            {
              "internalType": "string",
              "name": "name",
              "type": "string"
            },
            {
              "internalType": "string",
              "name": "uri",
              "type": "string"
            }
          ],
          "indexed": false,
          "internalType": "struct BasicPotionSchema",
          "name": "potionSchema",
          "type": "tuple"
        }
      ],
      "name": "CreateBasicPotion",
      "type": "event"
    },
    {
      "anonymous": false,
      "inputs": [
        {
          "indexed": false,
          "internalType": "uint256",
          "name": "_playerId",
          "type": "uint256"
        },
        {
          "indexed": true,
          "internalType": "uint256",
          "name": "_basicPotionSchemaId",
          "type": "uint256"
        }
      ],
      "name": "PurchaseBasicPotion",
      "type": "event"
    },
    {
      "inputs": [
        {
          "internalType": "uint256",
          "name": "_playerId",
          "type": "uint256"
        },
        {
          "internalType": "uint256",
          "name": "_basicPotionSchemaId",
          "type": "uint256"
        }
      ],
      "name": "consumeBasicHealthPotion",
      "outputs": [],
      "stateMutability": "nonpayable",
      "type": "function"
    },
    {
      "inputs": [
        {
          "internalType": "uint256",
          "name": "_value",
          "type": "uint256"
        },
        {
          "internalType": "uint256",
          "name": "_cost",
          "type": "uint256"
        },
        {
          "internalType": "bool",
          "name": "_isHealth",
          "type": "bool"
        },
        {
          "internalType": "string",
          "name": "_name",
          "type": "string"
        },
        {
          "internalType": "string",
          "name": "_uri",
          "type": "string"
        }
      ],
      "name": "createBasicPotion",
      "outputs": [],
      "stateMutability": "nonpayable",
      "type": "function"
    },
    {
      "inputs": [
        {
          "internalType": "uint256",
          "name": "_playerId",
          "type": "uint256"
        },
        {
          "internalType": "uint256",
          "name": "_basicPotionSchemaId",
          "type": "uint256"
        }
      ],
      "name": "getBaiscPotionCount",
      "outputs": [
        {
          "internalType": "uint256",
          "name": "",
          "type": "uint256"
        }
      ],
      "stateMutability": "view",
      "type": "function"
    },
    {
      "inputs": [
        {
          "internalType": "uint256",
          "name": "_basicPotionSchemaId",
          "type": "uint256"
        }
      ],
      "name": "getBasicPotion",
      "outputs": [
        {
          "components": [
            {
              "internalType": "uint256",
              "name": "basicHealthPotionSchemaId",
              "type": "uint256"
            },
            {
              "internalType": "uint256",
              "name": "value",
              "type": "uint256"
            },
            {
              "internalType": "uint256",
              "name": "cost",
              "type": "uint256"
            },
            {
              "internalType": "bool",
              "name": "isHealth",
              "type": "bool"
            },
            {
              "internalType": "string",
              "name": "name",
              "type": "string"
            },
            {
              "internalType": "string",
              "name": "uri",
              "type": "string"
            }
          ],
          "internalType": "struct BasicPotionSchema",
          "name": "",
          "type": "tuple"
        }
      ],
      "stateMutability": "view",
      "type": "function"
    },
    {
      "inputs": [],
      "name": "getBasicPotionSchemaCount",
      "outputs": [
        {
          "internalType": "uint256",
          "name": "",
          "type": "uint256"
        }
      ],
      "stateMutability": "view",
      "type": "function"
    },
    {
      "inputs": [
        {
          "internalType": "uint256",
          "name": "_playerId",
          "type": "uint256"
        },
        {
          "internalType": "uint256",
          "name": "_basicPotionSchemaId",
          "type": "uint256"
        }
      ],
      "name": "purchaseBasicPotion",
      "outputs": [],
      "stateMutability": "nonpayable",
      "type": "function"
    }
  ],
  "bytecode": "0x608060405234801561001057600080fd5b506114ed806100206000396000f3fe608060405234801561001057600080fd5b50600436106100625760003560e01c806306b058bf1461006757806365aa28fc14610085578063af596732146100a1578063af9c0c70146100bd578063ca87f93d146100ed578063e645797214610109575b600080fd5b61006f610139565b60405161007c9190610b34565b60405180910390f35b61009f600480360381019061009a9190610b8f565b610148565b005b6100bb60048036038101906100b69190610b8f565b61018e565b005b6100d760048036038101906100d29190610bcf565b6101d4565b6040516100e49190610d46565b60405180910390f35b61010760048036038101906101029190610ec9565b6101ec565b005b610123600480360381019061011e9190610b8f565b61024d565b6040516101309190610b34565b60405180910390f35b6000610143610261565b905090565b6101528282610279565b807f3c9b4ad9fedd1fd84bdad054ad17078ec330b6c4e54fa02e8230800e5e71fd1d836040516101829190610b34565b60405180910390a25050565b61019882826105e2565b807f48d1fa7160e4eb75d7daaf2d48e8202072e6edf2a5cacc8593a52aa0625150c9836040516101c89190610b34565b60405180910390a25050565b6101dc610ae3565b6101e58261079f565b9050919050565b6101f98585858585610938565b6000610203610261565b9050807f341b6ec561d4be169da39751bf0c94cdecea82d34567729a920f8a0976477540610230836101d4565b60405161023d9190610d46565b60405180910390a2505050505050565b60006102598383610a1f565b905092915050565b60008061026c610a5c565b9050806000015491505090565b6000610283610a5c565b9050600061028f610a89565b9050600081600301600086815260200190815260200160002060020154146102ec576040517f08c379a00000000000000000000000000000000000000000000000000000000081526004016102e390610fd9565b60405180910390fd5b3373ffffffffffffffffffffffffffffffffffffffff1681600201600086815260200190815260200160002060009054906101000a900473ffffffffffffffffffffffffffffffffffffffff1673ffffffffffffffffffffffffffffffffffffffff161461038f576040517f08c379a000000000000000000000000000000000000000000000000000000000815260040161038690611045565b60405180910390fd5b600182600201600085815260200190815260200160002060008681526020019081526020016000205410156103f9576040517f08c379a00000000000000000000000000000000000000000000000000000000081526004016103f0906110b1565b60405180910390fd5b600082600101600085815260200190815260200160002060010154905082600101600085815260200190815260200160002060030160009054906101000a900460ff16156104f257816003016000868152602001908152602001600020600501548260030160008781526020019081526020016000206004015461047d9190611100565b8110156104b7578082600301600087815260200190815260200160002060050160008282546104ac9190611134565b9250508190556104ec565b816003016000868152602001908152602001600020600401548260030160008781526020019081526020016000206005018190555b5061059f565b816003016000868152602001908152602001600020600701548260030160008781526020019081526020016000206008015461052e9190611100565b8110156105685780826003016000878152602001908152602001600020600701600082825461055d9190611134565b92505081905561059d565b816003016000868152602001908152602001600020600801548260030160008781526020019081526020016000206007018190555b505b826002016000858152602001908152602001600020600086815260200190815260200160002060008154809291906105d690611168565b91905055505050505050565b60006105ec610a5c565b905060006105f8610a89565b90506000610604610ab6565b90506000826003016000878152602001908152602001600020600201541461062b57600080fd5b3373ffffffffffffffffffffffffffffffffffffffff1682600201600087815260200190815260200160002060009054906101000a900473ffffffffffffffffffffffffffffffffffffffff1673ffffffffffffffffffffffffffffffffffffffff161461069857600080fd5b6000836001016000868152602001908152602001600020600201549050808260000160003373ffffffffffffffffffffffffffffffffffffffff1673ffffffffffffffffffffffffffffffffffffffff16815260200190815260200160002054101561070357600080fd5b8360020160008681526020019081526020016000206000878152602001908152602001600020600081548092919061073a90611191565b9190505550808260000160003373ffffffffffffffffffffffffffffffffffffffff1673ffffffffffffffffffffffffffffffffffffffff16815260200190815260200160002060008282546107909190611100565b92505081905550505050505050565b6107a7610ae3565b60006107b1610a5c565b90508060010160008481526020019081526020016000206040518060c00160405290816000820154815260200160018201548152602001600282015481526020016003820160009054906101000a900460ff1615151515815260200160048201805461081c90611208565b80601f016020809104026020016040519081016040528092919081815260200182805461084890611208565b80156108955780601f1061086a57610100808354040283529160200191610895565b820191906000526020600020905b81548152906001019060200180831161087857829003601f168201915b505050505081526020016005820180546108ae90611208565b80601f01602080910402602001604051908101604052809291908181526020018280546108da90611208565b80156109275780601f106108fc57610100808354040283529160200191610927565b820191906000526020600020905b81548152906001019060200180831161090a57829003601f168201915b505050505081525050915050919050565b6000610942610a5c565b905080600001600081548092919061095990611191565b91905055506040518060c00160405280826000015481526020018781526020018681526020018515158152602001848152602001838152508160010160008360000154815260200190815260200160002060008201518160000155602082015181600101556040820151816002015560608201518160030160006101000a81548160ff02191690831515021790555060808201518160040190816109fd91906113e5565b5060a0820151816005019081610a1391906113e5565b50905050505050505050565b600080610a2a610a5c565b905080600201600084815260200190815260200160002060008581526020019081526020016000205491505092915050565b6000807fa5351287be8afdfce4134deb8a6bad99fc2c84075e67cad166df8b2eacf273f290508091505090565b6000807f3cab9a070a0c61cd0ae9d9e9e2c0781e5ca8691bec4087e5a4701d5ac018dd4e90508091505090565b6000807f2c89d74504b6ad8d4fbde22bc3474166bac5452a11195897f239d8bebe02d70790508091505090565b6040518060c0016040528060008152602001600081526020016000815260200160001515815260200160608152602001606081525090565b6000819050919050565b610b2e81610b1b565b82525050565b6000602082019050610b496000830184610b25565b92915050565b6000604051905090565b600080fd5b600080fd5b610b6c81610b1b565b8114610b7757600080fd5b50565b600081359050610b8981610b63565b92915050565b60008060408385031215610ba657610ba5610b59565b5b6000610bb485828601610b7a565b9250506020610bc585828601610b7a565b9150509250929050565b600060208284031215610be557610be4610b59565b5b6000610bf384828501610b7a565b91505092915050565b610c0581610b1b565b82525050565b60008115159050919050565b610c2081610c0b565b82525050565b600081519050919050565b600082825260208201905092915050565b60005b83811015610c60578082015181840152602081019050610c45565b60008484015250505050565b6000601f19601f8301169050919050565b6000610c8882610c26565b610c928185610c31565b9350610ca2818560208601610c42565b610cab81610c6c565b840191505092915050565b600060c083016000830151610cce6000860182610bfc565b506020830151610ce16020860182610bfc565b506040830151610cf46040860182610bfc565b506060830151610d076060860182610c17565b5060808301518482036080860152610d1f8282610c7d565b91505060a083015184820360a0860152610d398282610c7d565b9150508091505092915050565b60006020820190508181036000830152610d608184610cb6565b905092915050565b610d7181610c0b565b8114610d7c57600080fd5b50565b600081359050610d8e81610d68565b92915050565b600080fd5b600080fd5b7f4e487b7100000000000000000000000000000000000000000000000000000000600052604160045260246000fd5b610dd682610c6c565b810181811067ffffffffffffffff82111715610df557610df4610d9e565b5b80604052505050565b6000610e08610b4f565b9050610e148282610dcd565b919050565b600067ffffffffffffffff821115610e3457610e33610d9e565b5b610e3d82610c6c565b9050602081019050919050565b82818337600083830152505050565b6000610e6c610e6784610e19565b610dfe565b905082815260208101848484011115610e8857610e87610d99565b5b610e93848285610e4a565b509392505050565b600082601f830112610eb057610eaf610d94565b5b8135610ec0848260208601610e59565b91505092915050565b600080600080600060a08688031215610ee557610ee4610b59565b5b6000610ef388828901610b7a565b9550506020610f0488828901610b7a565b9450506040610f1588828901610d7f565b935050606086013567ffffffffffffffff811115610f3657610f35610b5e565b5b610f4288828901610e9b565b925050608086013567ffffffffffffffff811115610f6357610f62610b5e565b5b610f6f88828901610e9b565b9150509295509295909350565b600082825260208201905092915050565b7f796f7520617265206e6f742069646c6500000000000000000000000000000000600082015250565b6000610fc3601083610f7c565b9150610fce82610f8d565b602082019050919050565b60006020820190508181036000830152610ff281610fb6565b9050919050565b7f796f7520617265206e6f7420746865206f776e65720000000000000000000000600082015250565b600061102f601583610f7c565b915061103a82610ff9565b602082019050919050565b6000602082019050818103600083015261105e81611022565b9050919050565b7f6e6f20706f7420666f6f6c000000000000000000000000000000000000000000600082015250565b600061109b600b83610f7c565b91506110a682611065565b602082019050919050565b600060208201905081810360008301526110ca8161108e565b9050919050565b7f4e487b7100000000000000000000000000000000000000000000000000000000600052601160045260246000fd5b600061110b82610b1b565b915061111683610b1b565b925082820390508181111561112e5761112d6110d1565b5b92915050565b600061113f82610b1b565b915061114a83610b1b565b9250828201905080821115611162576111616110d1565b5b92915050565b600061117382610b1b565b915060008203611186576111856110d1565b5b600182039050919050565b600061119c82610b1b565b91507fffffffffffffffffffffffffffffffffffffffffffffffffffffffffffffffff82036111ce576111cd6110d1565b5b600182019050919050565b7f4e487b7100000000000000000000000000000000000000000000000000000000600052602260045260246000fd5b6000600282049050600182168061122057607f821691505b602082108103611233576112326111d9565b5b50919050565b60008190508160005260206000209050919050565b60006020601f8301049050919050565b600082821b905092915050565b60006008830261129b7fffffffffffffffffffffffffffffffffffffffffffffffffffffffffffffffff8261125e565b6112a5868361125e565b95508019841693508086168417925050509392505050565b6000819050919050565b60006112e26112dd6112d884610b1b565b6112bd565b610b1b565b9050919050565b6000819050919050565b6112fc836112c7565b611310611308826112e9565b84845461126b565b825550505050565b600090565b611325611318565b6113308184846112f3565b505050565b5b818110156113545761134960008261131d565b600181019050611336565b5050565b601f8211156113995761136a81611239565b6113738461124e565b81016020851015611382578190505b61139661138e8561124e565b830182611335565b50505b505050565b600082821c905092915050565b60006113bc6000198460080261139e565b1980831691505092915050565b60006113d583836113ab565b9150826002028217905092915050565b6113ee82610c26565b67ffffffffffffffff81111561140757611406610d9e565b5b6114118254611208565b61141c828285611358565b600060209050601f83116001811461144f576000841561143d578287015190505b61144785826113c9565b8655506114af565b601f19841661145d86611239565b60005b8281101561148557848901518255600182019150602085019450602081019050611460565b868310156114a2578489015161149e601f8916826113ab565b8355505b6001600288020188555050505b50505050505056fea26469706673582212201da0f95a30b923cbeec59ed3cba50cd3bc9cc447354ad3dea979bd2ede575b1264736f6c63430008120033",
  "linkReferences": {},
  "deployedLinkReferences": {}
}