{
  "_format": "hh-sol-artifact-1",
  "contractName": "TreasureDropFacet",
  "sourceName": "contracts/facets/TreasureDropFacet.sol",
  "abi": [
    {
      "anonymous": false,
      "inputs": [
        {
          "indexed": true,
          "internalType": "uint256",
          "name": "_playerId",
          "type": "uint256"
        },
        {
          "indexed": true,
          "internalType": "uint256",
          "name": "_treasureDropId",
          "type": "uint256"
        }
      ],
      "name": "ClaimTreasure",
      "type": "event"
    },
    {
      "inputs": [
        {
          "internalType": "uint256",
          "name": "_treasureDropId",
          "type": "uint256"
        },
        {
          "internalType": "bytes32[]",
          "name": "_proof",
          "type": "bytes32[]"
        },
        {
          "internalType": "uint256",
          "name": "_playerId",
          "type": "uint256"
        }
      ],
      "name": "claimTreasureDropGravityOrb",
      "outputs": [],
      "stateMutability": "nonpayable",
      "type": "function"
    },
    {
      "inputs": [
        {
          "internalType": "uint256",
          "name": "_treasureDropId",
          "type": "uint256"
        },
        {
          "internalType": "bytes32[]",
          "name": "_proof",
          "type": "bytes32[]"
        },
        {
          "internalType": "uint256",
          "name": "_playerId",
          "type": "uint256"
        }
      ],
      "name": "claimTreasureDropKyberShard",
      "outputs": [],
      "stateMutability": "nonpayable",
      "type": "function"
    },
    {
      "inputs": [
        {
          "internalType": "uint256",
          "name": "_treasureDropId",
          "type": "uint256"
        },
        {
          "internalType": "address",
          "name": "_address",
          "type": "address"
        }
      ],
      "name": "claimedStatus",
      "outputs": [
        {
          "internalType": "bool",
          "name": "",
          "type": "bool"
        }
      ],
      "stateMutability": "view",
      "type": "function"
    },
    {
      "inputs": [
        {
          "internalType": "bytes32",
          "name": "_merkleRoot",
          "type": "bytes32"
        },
        {
          "internalType": "string",
          "name": "_name",
          "type": "string"
        }
      ],
      "name": "createTreasureDrop",
      "outputs": [],
      "stateMutability": "nonpayable",
      "type": "function"
    },
    {
      "inputs": [
        {
          "internalType": "uint256",
          "name": "_treasureDropId",
          "type": "uint256"
        }
      ],
      "name": "getTreasureDropMerkleRoot",
      "outputs": [
        {
          "internalType": "bytes32",
          "name": "",
          "type": "bytes32"
        }
      ],
      "stateMutability": "view",
      "type": "function"
    },
    {
      "inputs": [
        {
          "internalType": "bytes32[]",
          "name": "_proof",
          "type": "bytes32[]"
        },
        {
          "internalType": "uint256",
          "name": "_treasureDropId",
          "type": "uint256"
        },
        {
          "internalType": "address",
          "name": "_address",
          "type": "address"
        }
      ],
      "name": "verifyTreasureDropWhitelist",
      "outputs": [
        {
          "internalType": "bool",
          "name": "",
          "type": "bool"
        }
      ],
      "stateMutability": "view",
      "type": "function"
    }
  ],
  "bytecode": "0x608060405234801561001057600080fd5b506116bb806100206000396000f3fe608060405234801561001057600080fd5b50600436106100625760003560e01c80632dfc7abe146100675780636ab1a7c81461009757806387dfb1c4146100c7578063a9a6c582146100f7578063eb5454d214610113578063ee50fa2b1461012f575b600080fd5b610081600480360381019061007c9190610d97565b61014b565b60405161008e9190610df2565b60405180910390f35b6100b160048036038101906100ac9190610e0d565b61015f565b6040516100be9190610e53565b60405180910390f35b6100e160048036038101906100dc9190610ed3565b610171565b6040516100ee9190610df2565b60405180910390f35b610111600480360381019061010c91906110b4565b610189565b005b61012d60048036038101906101289190611110565b610197565b005b61014960048036038101906101449190611110565b6101d7565b005b60006101578383610217565b905092915050565b600061016a8261028d565b9050919050565b600061017f858585856102bb565b9050949350505050565b6101938282610363565b5050565b6101a3848484846103f3565b83817fc25dedf3116a51a3291cf9dd17f0b19191fe21e170fda69010dcb916cccb6b3360405160405180910390a350505050565b6101e3848484846107d6565b83817fc25dedf3116a51a3291cf9dd17f0b19191fe21e170fda69010dcb916cccb6b3360405160405180910390a350505050565b600080610222610bb9565b905080600201600085815260200190815260200160002060008473ffffffffffffffffffffffffffffffffffffffff1673ffffffffffffffffffffffffffffffffffffffff16815260200190815260200160002060009054906101000a900460ff1691505092915050565b600080610298610bb9565b905080600101600084815260200190815260200160002060010154915050919050565b6000806102c6610bb9565b90506000836040516020016102db91906111cc565b604051602081830303815290604052805190602001209050610357878780806020026020016040519081016040528093929190818152602001838360200280828437600081840152601f19601f820116905080830192505050505050508360010160008881526020019081526020016000206001015483610be6565b92505050949350505050565b600061036d610bb9565b905080600001600081548092919061038490611216565b91905055506040518060600160405280826000015481526020018481526020018381525081600101600083600001548152602001908152602001600020600082015181600001556020820151816001015560408201518160020190816103ea9190611475565b50905050505050565b60006103fd610bb9565b90506000610409610bfd565b90506000610415610c2a565b905082600201600088815260200190815260200160002060003373ffffffffffffffffffffffffffffffffffffffff1673ffffffffffffffffffffffffffffffffffffffff16815260200190815260200160002060009054906101000a900460ff16156104b7576040517f08c379a00000000000000000000000000000000000000000000000000000000081526004016104ae906115ca565b60405180910390fd5b610541868680806020026020016040519081016040528093929190818152602001838360200280828437600081840152601f19601f820116905080830192505050505050508460010160008a8152602001908152602001600020600101543360405160200161052691906111cc565b60405160208183030381529060405280519060200120610be6565b610580576040517f08c379a000000000000000000000000000000000000000000000000000000000815260040161057790611636565b60405180910390fd5b3373ffffffffffffffffffffffffffffffffffffffff1681600201600086815260200190815260200160002060009054906101000a900473ffffffffffffffffffffffffffffffffffffffff1673ffffffffffffffffffffffffffffffffffffffff16146105ed57600080fd5b600183600201600089815260200190815260200160002060003373ffffffffffffffffffffffffffffffffffffffff1673ffffffffffffffffffffffffffffffffffffffff16815260200190815260200160002060006101000a81548160ff02191690831515021790555081600001600081548092919061066d90611216565b9190505550604051806080016040528083600001548152602001600281526020018360030160008781526020019081526020016000208054905081526020016040518060400160405280600481526020017f474f7262000000000000000000000000000000000000000000000000000000008152508152508260020160008460000154815260200190815260200160002060008201518160000155602082015181600101556040820151816002015560608201518160030190816107319190611475565b5090505081600301600085815260200190815260200160002082600001549080600181540180825580915050600190039060005260206000200160009091909190915055338260010160008460000154815260200190815260200160002060006101000a81548173ffffffffffffffffffffffffffffffffffffffff021916908373ffffffffffffffffffffffffffffffffffffffff16021790555050505050505050565b60006107e0610bb9565b905060006107ec610bfd565b905060006107f8610c2a565b905082600201600088815260200190815260200160002060003373ffffffffffffffffffffffffffffffffffffffff1673ffffffffffffffffffffffffffffffffffffffff16815260200190815260200160002060009054906101000a900460ff161561089a576040517f08c379a0000000000000000000000000000000000000000000000000000000008152600401610891906115ca565b60405180910390fd5b610924868680806020026020016040519081016040528093929190818152602001838360200280828437600081840152601f19601f820116905080830192505050505050508460010160008a8152602001908152602001600020600101543360405160200161090991906111cc565b60405160208183030381529060405280519060200120610be6565b610963576040517f08c379a000000000000000000000000000000000000000000000000000000000815260040161095a90611636565b60405180910390fd5b3373ffffffffffffffffffffffffffffffffffffffff1681600201600086815260200190815260200160002060009054906101000a900473ffffffffffffffffffffffffffffffffffffffff1673ffffffffffffffffffffffffffffffffffffffff16146109d057600080fd5b600183600201600089815260200190815260200160002060003373ffffffffffffffffffffffffffffffffffffffff1673ffffffffffffffffffffffffffffffffffffffff16815260200190815260200160002060006101000a81548160ff021916908315150217905550816000016000815480929190610a5090611216565b9190505550604051806080016040528083600001548152602001600181526020018360030160008781526020019081526020016000208054905081526020016040518060400160405280600a81526020017f4b79626572536861726400000000000000000000000000000000000000000000815250815250826002016000846000015481526020019081526020016000206000820151816000015560208201518160010155604082015181600201556060820151816003019081610b149190611475565b5090505081600301600085815260200190815260200160002082600001549080600181540180825580915050600190039060005260206000200160009091909190915055338260010160008460000154815260200190815260200160002060006101000a81548173ffffffffffffffffffffffffffffffffffffffff021916908373ffffffffffffffffffffffffffffffffffffffff16021790555050505050505050565b6000807f491cff3d9ac7610c4deabead8d76991d01fc0f9041f7e18a79ed287097dfe5e690508091505090565b600082610bf38584610c57565b1490509392505050565b6000807fb5dbbc334907f600e1151190a68c4043043163a23a907389a2c6f6231ed4318b90508091505090565b6000807f3cab9a070a0c61cd0ae9d9e9e2c0781e5ca8691bec4087e5a4701d5ac018dd4e90508091505090565b60008082905060005b8451811015610ca257610c8d82868381518110610c8057610c7f611656565b5b6020026020010151610cad565b91508080610c9a90611216565b915050610c60565b508091505092915050565b6000818310610cc557610cc08284610cd8565b610cd0565b610ccf8383610cd8565b5b905092915050565b600082600052816020526040600020905092915050565b6000604051905090565b600080fd5b600080fd5b6000819050919050565b610d1681610d03565b8114610d2157600080fd5b50565b600081359050610d3381610d0d565b92915050565b600073ffffffffffffffffffffffffffffffffffffffff82169050919050565b6000610d6482610d39565b9050919050565b610d7481610d59565b8114610d7f57600080fd5b50565b600081359050610d9181610d6b565b92915050565b60008060408385031215610dae57610dad610cf9565b5b6000610dbc85828601610d24565b9250506020610dcd85828601610d82565b9150509250929050565b60008115159050919050565b610dec81610dd7565b82525050565b6000602082019050610e076000830184610de3565b92915050565b600060208284031215610e2357610e22610cf9565b5b6000610e3184828501610d24565b91505092915050565b6000819050919050565b610e4d81610e3a565b82525050565b6000602082019050610e686000830184610e44565b92915050565b600080fd5b600080fd5b600080fd5b60008083601f840112610e9357610e92610e6e565b5b8235905067ffffffffffffffff811115610eb057610eaf610e73565b5b602083019150836020820283011115610ecc57610ecb610e78565b5b9250929050565b60008060008060608587031215610eed57610eec610cf9565b5b600085013567ffffffffffffffff811115610f0b57610f0a610cfe565b5b610f1787828801610e7d565b94509450506020610f2a87828801610d24565b9250506040610f3b87828801610d82565b91505092959194509250565b610f5081610e3a565b8114610f5b57600080fd5b50565b600081359050610f6d81610f47565b92915050565b600080fd5b6000601f19601f8301169050919050565b7f4e487b7100000000000000000000000000000000000000000000000000000000600052604160045260246000fd5b610fc182610f78565b810181811067ffffffffffffffff82111715610fe057610fdf610f89565b5b80604052505050565b6000610ff3610cef565b9050610fff8282610fb8565b919050565b600067ffffffffffffffff82111561101f5761101e610f89565b5b61102882610f78565b9050602081019050919050565b82818337600083830152505050565b600061105761105284611004565b610fe9565b90508281526020810184848401111561107357611072610f73565b5b61107e848285611035565b509392505050565b600082601f83011261109b5761109a610e6e565b5b81356110ab848260208601611044565b91505092915050565b600080604083850312156110cb576110ca610cf9565b5b60006110d985828601610f5e565b925050602083013567ffffffffffffffff8111156110fa576110f9610cfe565b5b61110685828601611086565b9150509250929050565b6000806000806060858703121561112a57611129610cf9565b5b600061113887828801610d24565b945050602085013567ffffffffffffffff81111561115957611158610cfe565b5b61116587828801610e7d565b9350935050604061117887828801610d24565b91505092959194509250565b60008160601b9050919050565b600061119c82611184565b9050919050565b60006111ae82611191565b9050919050565b6111c66111c182610d59565b6111a3565b82525050565b60006111d882846111b5565b60148201915081905092915050565b7f4e487b7100000000000000000000000000000000000000000000000000000000600052601160045260246000fd5b600061122182610d03565b91507fffffffffffffffffffffffffffffffffffffffffffffffffffffffffffffffff8203611253576112526111e7565b5b600182019050919050565b600081519050919050565b7f4e487b7100000000000000000000000000000000000000000000000000000000600052602260045260246000fd5b600060028204905060018216806112b057607f821691505b6020821081036112c3576112c2611269565b5b50919050565b60008190508160005260206000209050919050565b60006020601f8301049050919050565b600082821b905092915050565b60006008830261132b7fffffffffffffffffffffffffffffffffffffffffffffffffffffffffffffffff826112ee565b61133586836112ee565b95508019841693508086168417925050509392505050565b6000819050919050565b600061137261136d61136884610d03565b61134d565b610d03565b9050919050565b6000819050919050565b61138c83611357565b6113a061139882611379565b8484546112fb565b825550505050565b600090565b6113b56113a8565b6113c0818484611383565b505050565b5b818110156113e4576113d96000826113ad565b6001810190506113c6565b5050565b601f821115611429576113fa816112c9565b611403846112de565b81016020851015611412578190505b61142661141e856112de565b8301826113c5565b50505b505050565b600082821c905092915050565b600061144c6000198460080261142e565b1980831691505092915050565b6000611465838361143b565b9150826002028217905092915050565b61147e8261125e565b67ffffffffffffffff81111561149757611496610f89565b5b6114a18254611298565b6114ac8282856113e8565b600060209050601f8311600181146114df57600084156114cd578287015190505b6114d78582611459565b86555061153f565b601f1984166114ed866112c9565b60005b82811015611515578489015182556001820191506020850194506020810190506114f0565b86831015611532578489015161152e601f89168261143b565b8355505b6001600288020188555050505b505050505050565b600082825260208201905092915050565b7f416464726573732068617320616c726561647920636c61696d6564207468652060008201527f64726f7000000000000000000000000000000000000000000000000000000000602082015250565b60006115b4602483611547565b91506115bf82611558565b604082019050919050565b600060208201905081810360008301526115e3816115a7565b9050919050565b7f496e76616c6964204d65726b6c652070726f6f66000000000000000000000000600082015250565b6000611620601483611547565b915061162b826115ea565b602082019050919050565b6000602082019050818103600083015261164f81611613565b9050919050565b7f4e487b7100000000000000000000000000000000000000000000000000000000600052603260045260246000fdfea26469706673582212201993db504ddf65ecb22519bf90a02710be58fdc594874c65f1b3f0b2ccecaf6564736f6c63430008120033",
  "linkReferences": {},
  "deployedLinkReferences": {}
}