{"contracts/facets/ScriptFacet.sol":{"ScriptFacet":{"abi":[{"inputs":[{"internalType":"uint256","name":"_playerId","type":"uint256"}],"name":"activeScript","outputs":[],"stateMutability":"nonpayable","type":"function"},{"inputs":[],"name":"openArena","outputs":[],"stateMutability":"nonpayable","type":"function"},{"inputs":[],"name":"udpateDefese","outputs":[],"stateMutability":"nonpayable","type":"function"}],"evm":{"bytecode":{"linkReferences":{},"object":"608060405234801561001057600080fd5b50610416806100206000396000f3fe608060405234801561001057600080fd5b50600436106100415760003560e01c806378aafea2146100465780639b25b84214610050578063d91708b51461006c575b600080fd5b61004e610076565b005b61006a60048036038101906100659190610308565b610080565b005b61007461008c565b005b61007e610096565b565b610089816100c5565b50565b6100946101c5565b565b60006100a0610246565b905060018160020160000160006101000a81548160ff02191690831515021790555050565b60006100cf610273565b905060006100db6102a0565b9050603282600301600085815260200190815260200160002060070160008282546101069190610364565b9250508190555060328160010160003373ffffffffffffffffffffffffffffffffffffffff1673ffffffffffffffffffffffffffffffffffffffff168152602001908152602001600020600082825461015f9190610364565b925050819055506101f48160000160003373ffffffffffffffffffffffffffffffffffffffff1673ffffffffffffffffffffffffffffffffffffffff16815260200190815260200160002060008282546101b99190610364565b92505081905550505050565b60006101cf610273565b905060005b8160010154811015610242576000826003016000838152602001908152602001600020601901540361022f57816003016000828152602001908152602001600020600e01600081548092919061022990610398565b91905055505b808061023a90610398565b9150506101d4565b5050565b6000807f1b1c2350f60dba32e7a2436167ce3f8399cd1c51a95c8577f1448f53846d4cda90508091505090565b6000807f3cab9a070a0c61cd0ae9d9e9e2c0781e5ca8691bec4087e5a4701d5ac018dd4e90508091505090565b6000807f2c89d74504b6ad8d4fbde22bc3474166bac5452a11195897f239d8bebe02d70790508091505090565b600080fd5b6000819050919050565b6102e5816102d2565b81146102f057600080fd5b50565b600081359050610302816102dc565b92915050565b60006020828403121561031e5761031d6102cd565b5b600061032c848285016102f3565b91505092915050565b7f4e487b7100000000000000000000000000000000000000000000000000000000600052601160045260246000fd5b600061036f826102d2565b915061037a836102d2565b925082820190508082111561039257610391610335565b5b92915050565b60006103a3826102d2565b91507fffffffffffffffffffffffffffffffffffffffffffffffffffffffffffffffff82036103d5576103d4610335565b5b60018201905091905056fea26469706673582212203502bcb9dc563c1fdeee734119050d646ec83d5a236e1906b2e186834ed2172a64736f6c63430008110033","opcodes":"PUSH1 0x80 PUSH1 0x40 MSTORE CALLVALUE DUP1 ISZERO PUSH2 0x10 JUMPI PUSH1 0x0 DUP1 REVERT JUMPDEST POP PUSH2 0x416 DUP1 PUSH2 0x20 PUSH1 0x0 CODECOPY PUSH1 0x0 RETURN INVALID PUSH1 0x80 PUSH1 0x40 MSTORE CALLVALUE DUP1 ISZERO PUSH2 0x10 JUMPI PUSH1 0x0 DUP1 REVERT JUMPDEST POP PUSH1 0x4 CALLDATASIZE LT PUSH2 0x41 JUMPI PUSH1 0x0 CALLDATALOAD PUSH1 0xE0 SHR DUP1 PUSH4 0x78AAFEA2 EQ PUSH2 0x46 JUMPI DUP1 PUSH4 0x9B25B842 EQ PUSH2 0x50 JUMPI DUP1 PUSH4 0xD91708B5 EQ PUSH2 0x6C JUMPI JUMPDEST PUSH1 0x0 DUP1 REVERT JUMPDEST PUSH2 0x4E PUSH2 0x76 JUMP JUMPDEST STOP JUMPDEST PUSH2 0x6A PUSH1 0x4 DUP1 CALLDATASIZE SUB DUP2 ADD SWAP1 PUSH2 0x65 SWAP2 SWAP1 PUSH2 0x308 JUMP JUMPDEST PUSH2 0x80 JUMP JUMPDEST STOP JUMPDEST PUSH2 0x74 PUSH2 0x8C JUMP JUMPDEST STOP JUMPDEST PUSH2 0x7E PUSH2 0x96 JUMP JUMPDEST JUMP JUMPDEST PUSH2 0x89 DUP2 PUSH2 0xC5 JUMP JUMPDEST POP JUMP JUMPDEST PUSH2 0x94 PUSH2 0x1C5 JUMP JUMPDEST JUMP JUMPDEST PUSH1 0x0 PUSH2 0xA0 PUSH2 0x246 JUMP JUMPDEST SWAP1 POP PUSH1 0x1 DUP2 PUSH1 0x2 ADD PUSH1 0x0 ADD PUSH1 0x0 PUSH2 0x100 EXP DUP2 SLOAD DUP2 PUSH1 0xFF MUL NOT AND SWAP1 DUP4 ISZERO ISZERO MUL OR SWAP1 SSTORE POP POP JUMP JUMPDEST PUSH1 0x0 PUSH2 0xCF PUSH2 0x273 JUMP JUMPDEST SWAP1 POP PUSH1 0x0 PUSH2 0xDB PUSH2 0x2A0 JUMP JUMPDEST SWAP1 POP PUSH1 0x32 DUP3 PUSH1 0x3 ADD PUSH1 0x0 DUP6 DUP2 MSTORE PUSH1 0x20 ADD SWAP1 DUP2 MSTORE PUSH1 0x20 ADD PUSH1 0x0 KECCAK256 PUSH1 0x7 ADD PUSH1 0x0 DUP3 DUP3 SLOAD PUSH2 0x106 SWAP2 SWAP1 PUSH2 0x364 JUMP JUMPDEST SWAP3 POP POP DUP2 SWAP1 SSTORE POP PUSH1 0x32 DUP2 PUSH1 0x1 ADD PUSH1 0x0 CALLER PUSH20 0xFFFFFFFFFFFFFFFFFFFFFFFFFFFFFFFFFFFFFFFF AND PUSH20 0xFFFFFFFFFFFFFFFFFFFFFFFFFFFFFFFFFFFFFFFF AND DUP2 MSTORE PUSH1 0x20 ADD SWAP1 DUP2 MSTORE PUSH1 0x20 ADD PUSH1 0x0 KECCAK256 PUSH1 0x0 DUP3 DUP3 SLOAD PUSH2 0x15F SWAP2 SWAP1 PUSH2 0x364 JUMP JUMPDEST SWAP3 POP POP DUP2 SWAP1 SSTORE POP PUSH2 0x1F4 DUP2 PUSH1 0x0 ADD PUSH1 0x0 CALLER PUSH20 0xFFFFFFFFFFFFFFFFFFFFFFFFFFFFFFFFFFFFFFFF AND PUSH20 0xFFFFFFFFFFFFFFFFFFFFFFFFFFFFFFFFFFFFFFFF AND DUP2 MSTORE PUSH1 0x20 ADD SWAP1 DUP2 MSTORE PUSH1 0x20 ADD PUSH1 0x0 KECCAK256 PUSH1 0x0 DUP3 DUP3 SLOAD PUSH2 0x1B9 SWAP2 SWAP1 PUSH2 0x364 JUMP JUMPDEST SWAP3 POP POP DUP2 SWAP1 SSTORE POP POP POP POP JUMP JUMPDEST PUSH1 0x0 PUSH2 0x1CF PUSH2 0x273 JUMP JUMPDEST SWAP1 POP PUSH1 0x0 JUMPDEST DUP2 PUSH1 0x1 ADD SLOAD DUP2 LT ISZERO PUSH2 0x242 JUMPI PUSH1 0x0 DUP3 PUSH1 0x3 ADD PUSH1 0x0 DUP4 DUP2 MSTORE PUSH1 0x20 ADD SWAP1 DUP2 MSTORE PUSH1 0x20 ADD PUSH1 0x0 KECCAK256 PUSH1 0x19 ADD SLOAD SUB PUSH2 0x22F JUMPI DUP2 PUSH1 0x3 ADD PUSH1 0x0 DUP3 DUP2 MSTORE PUSH1 0x20 ADD SWAP1 DUP2 MSTORE PUSH1 0x20 ADD PUSH1 0x0 KECCAK256 PUSH1 0xE ADD PUSH1 0x0 DUP2 SLOAD DUP1 SWAP3 SWAP2 SWAP1 PUSH2 0x229 SWAP1 PUSH2 0x398 JUMP JUMPDEST SWAP2 SWAP1 POP SSTORE POP JUMPDEST DUP1 DUP1 PUSH2 0x23A SWAP1 PUSH2 0x398 JUMP JUMPDEST SWAP2 POP POP PUSH2 0x1D4 JUMP JUMPDEST POP POP JUMP JUMPDEST PUSH1 0x0 DUP1 PUSH32 0x1B1C2350F60DBA32E7A2436167CE3F8399CD1C51A95C8577F1448F53846D4CDA SWAP1 POP DUP1 SWAP2 POP POP SWAP1 JUMP JUMPDEST PUSH1 0x0 DUP1 PUSH32 0x3CAB9A070A0C61CD0AE9D9E9E2C0781E5CA8691BEC4087E5A4701D5AC018DD4E SWAP1 POP DUP1 SWAP2 POP POP SWAP1 JUMP JUMPDEST PUSH1 0x0 DUP1 PUSH32 0x2C89D74504B6AD8D4FBDE22BC3474166BAC5452A11195897F239D8BEBE02D707 SWAP1 POP DUP1 SWAP2 POP POP SWAP1 JUMP JUMPDEST PUSH1 0x0 DUP1 REVERT JUMPDEST PUSH1 0x0 DUP2 SWAP1 POP SWAP2 SWAP1 POP JUMP JUMPDEST PUSH2 0x2E5 DUP2 PUSH2 0x2D2 JUMP JUMPDEST DUP2 EQ PUSH2 0x2F0 JUMPI PUSH1 0x0 DUP1 REVERT JUMPDEST POP JUMP JUMPDEST PUSH1 0x0 DUP2 CALLDATALOAD SWAP1 POP PUSH2 0x302 DUP2 PUSH2 0x2DC JUMP JUMPDEST SWAP3 SWAP2 POP POP JUMP JUMPDEST PUSH1 0x0 PUSH1 0x20 DUP3 DUP5 SUB SLT ISZERO PUSH2 0x31E JUMPI PUSH2 0x31D PUSH2 0x2CD JUMP JUMPDEST JUMPDEST PUSH1 0x0 PUSH2 0x32C DUP5 DUP3 DUP6 ADD PUSH2 0x2F3 JUMP JUMPDEST SWAP2 POP POP SWAP3 SWAP2 POP POP JUMP JUMPDEST PUSH32 0x4E487B7100000000000000000000000000000000000000000000000000000000 PUSH1 0x0 MSTORE PUSH1 0x11 PUSH1 0x4 MSTORE PUSH1 0x24 PUSH1 0x0 REVERT JUMPDEST PUSH1 0x0 PUSH2 0x36F DUP3 PUSH2 0x2D2 JUMP JUMPDEST SWAP2 POP PUSH2 0x37A DUP4 PUSH2 0x2D2 JUMP JUMPDEST SWAP3 POP DUP3 DUP3 ADD SWAP1 POP DUP1 DUP3 GT ISZERO PUSH2 0x392 JUMPI PUSH2 0x391 PUSH2 0x335 JUMP JUMPDEST JUMPDEST SWAP3 SWAP2 POP POP JUMP JUMPDEST PUSH1 0x0 PUSH2 0x3A3 DUP3 PUSH2 0x2D2 JUMP JUMPDEST SWAP2 POP PUSH32 0xFFFFFFFFFFFFFFFFFFFFFFFFFFFFFFFFFFFFFFFFFFFFFFFFFFFFFFFFFFFFFFFF DUP3 SUB PUSH2 0x3D5 JUMPI PUSH2 0x3D4 PUSH2 0x335 JUMP JUMPDEST JUMPDEST PUSH1 0x1 DUP3 ADD SWAP1 POP SWAP2 SWAP1 POP JUMP INVALID LOG2 PUSH5 0x6970667358 0x22 SLT KECCAK256 CALLDATALOAD MUL 0xBC 0xB9 0xDC JUMP EXTCODECOPY 0x1F 0xDE 0xEE PUSH20 0x4119050D646EC83D5A236E1906B2E186834ED217 0x2A PUSH5 0x736F6C6343 STOP ADDMOD GT STOP CALLER "},"methodIdentifiers":{"activeScript(uint256)":"9b25b842","openArena()":"78aafea2","udpateDefese()":"d91708b5"}}}}}