{"contracts/facets/ExchangeFacet.sol":{"ExchangeFacet":{"abi":[{"anonymous":false,"inputs":[{"indexed":true,"internalType":"address","name":"owner","type":"address"},{"indexed":true,"internalType":"address","name":"approved","type":"address"},{"indexed":true,"internalType":"uint256","name":"tokenId","type":"uint256"}],"name":"Approval","type":"event"},{"anonymous":false,"inputs":[{"indexed":true,"internalType":"address","name":"owner","type":"address"},{"indexed":true,"internalType":"address","name":"operator","type":"address"},{"indexed":false,"internalType":"bool","name":"approved","type":"bool"}],"name":"ApprovalForAll","type":"event"},{"anonymous":false,"inputs":[{"indexed":true,"internalType":"address","name":"_from","type":"address"},{"indexed":true,"internalType":"uint256","name":"_playerId","type":"uint256"},{"indexed":false,"internalType":"uint256","name":"_price","type":"uint256"}],"name":"CreateEquipmentListing","type":"event"},{"anonymous":false,"inputs":[{"indexed":true,"internalType":"address","name":"_from","type":"address"},{"indexed":true,"internalType":"uint256","name":"_playerId","type":"uint256"},{"indexed":false,"internalType":"uint256","name":"_price","type":"uint256"}],"name":"CreatePlayerListing","type":"event"},{"anonymous":false,"inputs":[{"indexed":true,"internalType":"address","name":"_from","type":"address"},{"indexed":true,"internalType":"uint256","name":"_playerId","type":"uint256"}],"name":"DelistPlayer","type":"event"},{"anonymous":false,"inputs":[{"indexed":true,"internalType":"address","name":"_to","type":"address"},{"indexed":false,"internalType":"uint256","name":"_id","type":"uint256"}],"name":"PurchaseEquipmentLisitng","type":"event"},{"anonymous":false,"inputs":[{"indexed":true,"internalType":"address","name":"_to","type":"address"},{"indexed":false,"internalType":"uint256","name":"_id","type":"uint256"}],"name":"PurchasePlayerListing","type":"event"},{"anonymous":false,"inputs":[{"indexed":true,"internalType":"address","name":"from","type":"address"},{"indexed":true,"internalType":"address","name":"to","type":"address"},{"indexed":true,"internalType":"uint256","name":"tokenId","type":"uint256"}],"name":"Transfer","type":"event"},{"inputs":[{"internalType":"uint256","name":"_playerId","type":"uint256"},{"internalType":"uint256","name":"_price","type":"uint256"}],"name":"createPlayerListing","outputs":[],"stateMutability":"nonpayable","type":"function"},{"inputs":[{"internalType":"uint256","name":"_playerId","type":"uint256"}],"name":"deListPlayer","outputs":[],"stateMutability":"nonpayable","type":"function"},{"inputs":[],"name":"feeAccount","outputs":[{"internalType":"address payable","name":"","type":"address"}],"stateMutability":"view","type":"function"},{"inputs":[],"name":"getAllPlayerListings","outputs":[{"internalType":"uint256[]","name":"","type":"uint256[]"}],"stateMutability":"view","type":"function"},{"inputs":[{"internalType":"uint256","name":"_playerId","type":"uint256"}],"name":"getPlayerListing","outputs":[{"components":[{"internalType":"address payable","name":"seller","type":"address"},{"internalType":"uint256","name":"playerId","type":"uint256"},{"internalType":"uint256","name":"price","type":"uint256"},{"internalType":"uint256","name":"pointer","type":"uint256"},{"internalType":"uint256","name":"addressPointer","type":"uint256"}],"internalType":"struct PlayerListing","name":"","type":"tuple"}],"stateMutability":"view","type":"function"},{"inputs":[{"internalType":"address","name":"_address","type":"address"}],"name":"getPlayerListingsByAddress","outputs":[{"internalType":"uint256[]","name":"","type":"uint256[]"}],"stateMutability":"view","type":"function"},{"inputs":[{"internalType":"uint256","name":"_playerId","type":"uint256"}],"name":"owners","outputs":[{"internalType":"address","name":"","type":"address"}],"stateMutability":"view","type":"function"},{"inputs":[{"internalType":"uint256","name":"_playerId","type":"uint256"}],"name":"purchasePlayer","outputs":[],"stateMutability":"payable","type":"function"},{"inputs":[{"internalType":"address","name":"from","type":"address"},{"internalType":"address","name":"to","type":"address"},{"internalType":"uint256","name":"tokenId","type":"uint256"}],"name":"transferFrom","outputs":[],"stateMutability":"nonpayable","type":"function"}],"evm":{"bytecode":{"linkReferences":{},"object":"60806040527308d8e680a2d295af8cbcd8b8e07f900275bc6b8d6000806101000a81548173ffffffffffffffffffffffffffffffffffffffff021916908373ffffffffffffffffffffffffffffffffffffffff16021790555034801561006457600080fd5b50611ed8806100746000396000f3fe6080604052600436106100865760003560e01c806352605d411161005957806352605d411461014a57806352d2872a1461017557806365e17c9d1461019e57806374e55f32146101c9578063a61896e61461020657610086565b8063025e7c271461008b578063075881d6146100c857806323b872dd146100e45780634ae8e5771461010d575b600080fd5b34801561009757600080fd5b506100b260048036038101906100ad9190611686565b61022f565b6040516100bf91906116f4565b60405180910390f35b6100e260048036038101906100dd9190611686565b610241565b005b3480156100f057600080fd5b5061010b6004803603810190610106919061173b565b61029d565b005b34801561011957600080fd5b50610134600480360381019061012f919061178e565b6102fd565b6040516101419190611879565b60405180910390f35b34801561015657600080fd5b5061015f61030f565b60405161016c9190611879565b60405180910390f35b34801561018157600080fd5b5061019c6004803603810190610197919061189b565b61031e565b005b3480156101aa57600080fd5b506101b3610386565b6040516101c091906118fc565b60405180910390f35b3480156101d557600080fd5b506101f060048036038101906101eb9190611686565b6103aa565b6040516101fd919061198e565b60405180910390f35b34801561021257600080fd5b5061022d60048036038101906102289190611686565b6103c2565b005b600061023a82610412565b9050919050565b61024c30338361045d565b3373ffffffffffffffffffffffffffffffffffffffff167f225283508a8ce3b05daa68183df02a29ea48aeaa415ac67113c50dea09c1b6978260405161029291906119b8565b60405180910390a250565b6102ae6102a8610784565b8261078c565b6102ed576040517f08c379a00000000000000000000000000000000000000000000000000000000081526004016102e490611a56565b60405180910390fd5b6102f883838361045d565b505050565b6060610308826108de565b9050919050565b6060610319610984565b905090565b61032882826109eb565b61033333308461045d565b813373ffffffffffffffffffffffffffffffffffffffff167fbf8edb16a3925949bda35d6c527b8f53ff37a989912808fac0a134935dcf50518360405161037a91906119b8565b60405180910390a35050565b60008054906101000a900473ffffffffffffffffffffffffffffffffffffffff1681565b6103b2611606565b6103bb82610cc7565b9050919050565b6103cb81610d81565b803373ffffffffffffffffffffffffffffffffffffffff167f1d7264ed0fc0f609bb4cb82e2664c9cd699ae2dc128e0228df77e1abec16d25a60405160405180910390a350565b60008061041d611179565b905080600201600084815260200190815260200160002060009054906101000a900473ffffffffffffffffffffffffffffffffffffffff16915050919050565b8273ffffffffffffffffffffffffffffffffffffffff1661047d826111a6565b73ffffffffffffffffffffffffffffffffffffffff16146104d3576040517f08c379a00000000000000000000000000000000000000000000000000000000081526004016104ca90611ae8565b60405180910390fd5b600073ffffffffffffffffffffffffffffffffffffffff168273ffffffffffffffffffffffffffffffffffffffff1603610542576040517f08c379a000000000000000000000000000000000000000000000000000000000815260040161053990611b7a565b60405180910390fd5b61054f83838360016111ec565b8273ffffffffffffffffffffffffffffffffffffffff1661056f826111a6565b73ffffffffffffffffffffffffffffffffffffffff16146105c5576040517f08c379a00000000000000000000000000000000000000000000000000000000081526004016105bc90611ae8565b60405180910390fd5b6105cd6111f2565b600b01600082815260200190815260200160002060006101000a81549073ffffffffffffffffffffffffffffffffffffffff0219169055600161060e6111f2565b600a0160008573ffffffffffffffffffffffffffffffffffffffff1673ffffffffffffffffffffffffffffffffffffffff1681526020019081526020016000206000828254039250508190555060016106656111f2565b600a0160008473ffffffffffffffffffffffffffffffffffffffff1673ffffffffffffffffffffffffffffffffffffffff16815260200190815260200160002060008282540192505081905550816106bb6111f2565b600901600083815260200190815260200160002060006101000a81548173ffffffffffffffffffffffffffffffffffffffff021916908373ffffffffffffffffffffffffffffffffffffffff160217905550610717828261121f565b808273ffffffffffffffffffffffffffffffffffffffff168473ffffffffffffffffffffffffffffffffffffffff167fddf252ad1be2c89b69c2b068fc378daa952ba7f163c4a11628f55a4df523b3ef60405160405180910390a461077f83838360016115a6565b505050565b600033905090565b600080610798836111a6565b90508073ffffffffffffffffffffffffffffffffffffffff168473ffffffffffffffffffffffffffffffffffffffff16148061086357506107d76111f2565b60080160008273ffffffffffffffffffffffffffffffffffffffff1673ffffffffffffffffffffffffffffffffffffffff16815260200190815260200160002060008573ffffffffffffffffffffffffffffffffffffffff1673ffffffffffffffffffffffffffffffffffffffff16815260200190815260200160002060009054906101000a900460ff165b806108d557508373ffffffffffffffffffffffffffffffffffffffff166108886111f2565b600b01600085815260200190815260200160002060009054906101000a900473ffffffffffffffffffffffffffffffffffffffff1673ffffffffffffffffffffffffffffffffffffffff16145b91505092915050565b606060006108ea6115ac565b90508060010160008473ffffffffffffffffffffffffffffffffffffffff1673ffffffffffffffffffffffffffffffffffffffff16815260200190815260200160002080548060200260200160405190810160405280929190818152602001828054801561097757602002820191906000526020600020905b815481526020019060010190808311610963575b5050505050915050919050565b606060006109906115ac565b9050806002018054806020026020016040519081016040528092919081815260200182805480156109e057602002820191906000526020600020905b8154815260200190600101908083116109cc575b505050505091505090565b60006109f5611179565b90506000610a016115ac565b90503373ffffffffffffffffffffffffffffffffffffffff1682600201600086815260200190815260200160002060009054906101000a900473ffffffffffffffffffffffffffffffffffffffff1673ffffffffffffffffffffffffffffffffffffffff1614610aa6576040517f08c379a0000000000000000000000000000000000000000000000000000000008152600401610a9d90611be6565b60405180910390fd5b60008260030160008681526020019081526020016000206002015414610b01576040517f08c379a0000000000000000000000000000000000000000000000000000000008152600401610af890611c52565b60405180910390fd5b6063826003016000868152602001908152602001600020600201819055506040518060a001604052803373ffffffffffffffffffffffffffffffffffffffff168152602001858152602001848152602001826002018054905081526020018260010160003373ffffffffffffffffffffffffffffffffffffffff1673ffffffffffffffffffffffffffffffffffffffff1681526020019081526020016000208054905081525081600001600086815260200190815260200160002060008201518160000160006101000a81548173ffffffffffffffffffffffffffffffffffffffff021916908373ffffffffffffffffffffffffffffffffffffffff16021790555060208201518160010155604082015181600201556060820151816003015560808201518160040155905050806002018490806001815401808255809150506001900390600052602060002001600090919091909150558060010160003373ffffffffffffffffffffffffffffffffffffffff1673ffffffffffffffffffffffffffffffffffffffff16815260200190815260200160002084908060018154018082558091505060019003906000526020600020016000909190919091505550505050565b610ccf611606565b6000610cd96115ac565b90508060000160008481526020019081526020016000206040518060a00160405290816000820160009054906101000a900473ffffffffffffffffffffffffffffffffffffffff1673ffffffffffffffffffffffffffffffffffffffff1673ffffffffffffffffffffffffffffffffffffffff168152602001600182015481526020016002820154815260200160038201548152602001600482015481525050915050919050565b6000610d8b611179565b90506000610d976115ac565b90503373ffffffffffffffffffffffffffffffffffffffff1681600001600085815260200190815260200160002060000160009054906101000a900473ffffffffffffffffffffffffffffffffffffffff1673ffffffffffffffffffffffffffffffffffffffff1614610e3f576040517f08c379a0000000000000000000000000000000000000000000000000000000008152600401610e3690611ce4565b60405180910390fd5b600081600001600085815260200190815260200160002060000160009054906101000a900473ffffffffffffffffffffffffffffffffffffffff169050600082600001600086815260200190815260200160002060030154905060008360020160018560020180549050610eb39190611d33565b81548110610ec457610ec3611d67565b5b9060005260206000200154905080846002018381548110610ee857610ee7611d67565b5b9060005260206000200181905550818460000160008381526020019081526020016000206003018190555083600201805480610f2757610f26611d96565b5b60019003818190600052602060002001600090559055600084600001600088815260200190815260200160002060040154905060008560010160008673ffffffffffffffffffffffffffffffffffffffff1673ffffffffffffffffffffffffffffffffffffffff16815260200190815260200160002060018760010160008873ffffffffffffffffffffffffffffffffffffffff1673ffffffffffffffffffffffffffffffffffffffff16815260200190815260200160002080549050610fee9190611d33565b81548110610fff57610ffe611d67565b5b90600052602060002001549050808660010160008773ffffffffffffffffffffffffffffffffffffffff1673ffffffffffffffffffffffffffffffffffffffff16815260200190815260200160002083815481106110605761105f611d67565b5b906000526020600020018190555081866000016000838152602001908152602001600020600401819055508560010160008673ffffffffffffffffffffffffffffffffffffffff1673ffffffffffffffffffffffffffffffffffffffff1681526020019081526020016000208054806110dc576110db611d96565b5b6001900381819060005260206000200160009055905560008760030160008a815260200190815260200160002060020181905550856000016000898152602001908152602001600020600080820160006101000a81549073ffffffffffffffffffffffffffffffffffffffff0219169055600182016000905560028201600090556003820160009055600482016000905550505050505050505050565b6000807f3cab9a070a0c61cd0ae9d9e9e2c0781e5ca8691bec4087e5a4701d5ac018dd4e90508091505090565b60006111b06111f2565b600901600083815260200190815260200160002060009054906101000a900473ffffffffffffffffffffffffffffffffffffffff169050919050565b50505050565b6000807f2569078dfb4b0305704d3008e7403993ae9601b85f7ae5e742de3de8f8011c4090508091505090565b60006112296115d9565b90503373ffffffffffffffffffffffffffffffffffffffff1681600201600084815260200190815260200160002060009054906101000a900473ffffffffffffffffffffffffffffffffffffffff1673ffffffffffffffffffffffffffffffffffffffff161461129857600080fd5b600073ffffffffffffffffffffffffffffffffffffffff168373ffffffffffffffffffffffffffffffffffffffff1603611307576040517f08c379a00000000000000000000000000000000000000000000000000000000081526004016112fe90611e11565b60405180910390fd5b8281600201600084815260200190815260200160002060006101000a81548173ffffffffffffffffffffffffffffffffffffffff021916908373ffffffffffffffffffffffffffffffffffffffff16021790555060008160040160003373ffffffffffffffffffffffffffffffffffffffff1673ffffffffffffffffffffffffffffffffffffffff16815260200190815260200160002054905060005b8181101561148957838360070160003373ffffffffffffffffffffffffffffffffffffffff1673ffffffffffffffffffffffffffffffffffffffff1681526020019081526020016000208281548110611400576113ff611d67565b5b906000526020600020015403611476578260070160003373ffffffffffffffffffffffffffffffffffffffff1673ffffffffffffffffffffffffffffffffffffffff168152602001908152602001600020818154811061146357611462611d67565b5b9060005260206000200160009055611489565b808061148190611e31565b9150506113a4565b508160070160008573ffffffffffffffffffffffffffffffffffffffff1673ffffffffffffffffffffffffffffffffffffffff1681526020019081526020016000208390806001815401808255809150506001900390600052602060002001600090919091909150558160040160003373ffffffffffffffffffffffffffffffffffffffff1673ffffffffffffffffffffffffffffffffffffffff168152602001908152602001600020600081548092919061154490611e79565b91905055508160040160008573ffffffffffffffffffffffffffffffffffffffff1673ffffffffffffffffffffffffffffffffffffffff168152602001908152602001600020600081548092919061159b90611e31565b919050555050505050565b50505050565b6000807f0e933a40bc736a597dbcd3653baab40cf09a5c2453d7c0d87eeb7ea00af356fb90508091505090565b6000807f3cab9a070a0c61cd0ae9d9e9e2c0781e5ca8691bec4087e5a4701d5ac018dd4e90508091505090565b6040518060a00160405280600073ffffffffffffffffffffffffffffffffffffffff168152602001600081526020016000815260200160008152602001600081525090565b600080fd5b6000819050919050565b61166381611650565b811461166e57600080fd5b50565b6000813590506116808161165a565b92915050565b60006020828403121561169c5761169b61164b565b5b60006116aa84828501611671565b91505092915050565b600073ffffffffffffffffffffffffffffffffffffffff82169050919050565b60006116de826116b3565b9050919050565b6116ee816116d3565b82525050565b600060208201905061170960008301846116e5565b92915050565b611718816116d3565b811461172357600080fd5b50565b6000813590506117358161170f565b92915050565b6000806000606084860312156117545761175361164b565b5b600061176286828701611726565b935050602061177386828701611726565b925050604061178486828701611671565b9150509250925092565b6000602082840312156117a4576117a361164b565b5b60006117b284828501611726565b91505092915050565b600081519050919050565b600082825260208201905092915050565b6000819050602082019050919050565b6117f081611650565b82525050565b600061180283836117e7565b60208301905092915050565b6000602082019050919050565b6000611826826117bb565b61183081856117c6565b935061183b836117d7565b8060005b8381101561186c57815161185388826117f6565b975061185e8361180e565b92505060018101905061183f565b5085935050505092915050565b60006020820190508181036000830152611893818461181b565b905092915050565b600080604083850312156118b2576118b161164b565b5b60006118c085828601611671565b92505060206118d185828601611671565b9150509250929050565b60006118e6826116b3565b9050919050565b6118f6816118db565b82525050565b600060208201905061191160008301846118ed565b92915050565b611920816118db565b82525050565b60a08201600082015161193c6000850182611917565b50602082015161194f60208501826117e7565b50604082015161196260408501826117e7565b50606082015161197560608501826117e7565b50608082015161198860808501826117e7565b50505050565b600060a0820190506119a36000830184611926565b92915050565b6119b281611650565b82525050565b60006020820190506119cd60008301846119a9565b92915050565b600082825260208201905092915050565b7f4552433732313a2063616c6c6572206973206e6f7420746f6b656e206f776e6560008201527f72206f7220617070726f76656400000000000000000000000000000000000000602082015250565b6000611a40602d836119d3565b9150611a4b826119e4565b604082019050919050565b60006020820190508181036000830152611a6f81611a33565b9050919050565b7f4552433732313a207472616e736665722066726f6d20696e636f72726563742060008201527f6f776e6572000000000000000000000000000000000000000000000000000000602082015250565b6000611ad26025836119d3565b9150611add82611a76565b604082019050919050565b60006020820190508181036000830152611b0181611ac5565b9050919050565b7f4552433732313a207472616e7366657220746f20746865207a65726f2061646460008201527f7265737300000000000000000000000000000000000000000000000000000000602082015250565b6000611b646024836119d3565b9150611b6f82611b08565b604082019050919050565b60006020820190508181036000830152611b9381611b57565b9050919050565b7f596f7520646f206e6f74206f776e207468697320706c61796572000000000000600082015250565b6000611bd0601a836119d3565b9150611bdb82611b9a565b602082019050919050565b60006020820190508181036000830152611bff81611bc3565b9050919050565b7f506c617965722073746175732069732069646c65000000000000000000000000600082015250565b6000611c3c6014836119d3565b9150611c4782611c06565b602082019050919050565b60006020820190508181036000830152611c6b81611c2f565b9050919050565b7f63616c6c6572206d75737420626520746865206f776e6572206f66207468652060008201527f6c697374696e6700000000000000000000000000000000000000000000000000602082015250565b6000611cce6027836119d3565b9150611cd982611c72565b604082019050919050565b60006020820190508181036000830152611cfd81611cc1565b9050919050565b7f4e487b7100000000000000000000000000000000000000000000000000000000600052601160045260246000fd5b6000611d3e82611650565b9150611d4983611650565b9250828203905081811115611d6157611d60611d04565b5b92915050565b7f4e487b7100000000000000000000000000000000000000000000000000000000600052603260045260246000fd5b7f4e487b7100000000000000000000000000000000000000000000000000000000600052603160045260246000fd5b7f5f746f2063616e6e6f74206265207a65726f2061646472657373000000000000600082015250565b6000611dfb601a836119d3565b9150611e0682611dc5565b602082019050919050565b60006020820190508181036000830152611e2a81611dee565b9050919050565b6000611e3c82611650565b91507fffffffffffffffffffffffffffffffffffffffffffffffffffffffffffffffff8203611e6e57611e6d611d04565b5b600182019050919050565b6000611e8482611650565b915060008203611e9757611e96611d04565b5b60018203905091905056fea2646970667358221220f2963c940db945bd595f45133a20c2b5bdfb64f4f137a58b2aeea658dd53ad7e64736f6c63430008110033","opcodes":"PUSH1 0x80 PUSH1 0x40 MSTORE PUSH20 0x8D8E680A2D295AF8CBCD8B8E07F900275BC6B8D PUSH1 0x0 DUP1 PUSH2 0x100 EXP DUP2 SLOAD DUP2 PUSH20 0xFFFFFFFFFFFFFFFFFFFFFFFFFFFFFFFFFFFFFFFF MUL NOT AND SWAP1 DUP4 PUSH20 0xFFFFFFFFFFFFFFFFFFFFFFFFFFFFFFFFFFFFFFFF AND MUL OR SWAP1 SSTORE POP CALLVALUE DUP1 ISZERO PUSH2 0x64 JUMPI PUSH1 0x0 DUP1 REVERT JUMPDEST POP PUSH2 0x1ED8 DUP1 PUSH2 0x74 PUSH1 0x0 CODECOPY PUSH1 0x0 RETURN INVALID PUSH1 0x80 PUSH1 0x40 MSTORE PUSH1 0x4 CALLDATASIZE LT PUSH2 0x86 JUMPI PUSH1 0x0 CALLDATALOAD PUSH1 0xE0 SHR DUP1 PUSH4 0x52605D41 GT PUSH2 0x59 JUMPI DUP1 PUSH4 0x52605D41 EQ PUSH2 0x14A JUMPI DUP1 PUSH4 0x52D2872A EQ PUSH2 0x175 JUMPI DUP1 PUSH4 0x65E17C9D EQ PUSH2 0x19E JUMPI DUP1 PUSH4 0x74E55F32 EQ PUSH2 0x1C9 JUMPI DUP1 PUSH4 0xA61896E6 EQ PUSH2 0x206 JUMPI PUSH2 0x86 JUMP JUMPDEST DUP1 PUSH4 0x25E7C27 EQ PUSH2 0x8B JUMPI DUP1 PUSH4 0x75881D6 EQ PUSH2 0xC8 JUMPI DUP1 PUSH4 0x23B872DD EQ PUSH2 0xE4 JUMPI DUP1 PUSH4 0x4AE8E577 EQ PUSH2 0x10D JUMPI JUMPDEST PUSH1 0x0 DUP1 REVERT JUMPDEST CALLVALUE DUP1 ISZERO PUSH2 0x97 JUMPI PUSH1 0x0 DUP1 REVERT JUMPDEST POP PUSH2 0xB2 PUSH1 0x4 DUP1 CALLDATASIZE SUB DUP2 ADD SWAP1 PUSH2 0xAD SWAP2 SWAP1 PUSH2 0x1686 JUMP JUMPDEST PUSH2 0x22F JUMP JUMPDEST PUSH1 0x40 MLOAD PUSH2 0xBF SWAP2 SWAP1 PUSH2 0x16F4 JUMP JUMPDEST PUSH1 0x40 MLOAD DUP1 SWAP2 SUB SWAP1 RETURN JUMPDEST PUSH2 0xE2 PUSH1 0x4 DUP1 CALLDATASIZE SUB DUP2 ADD SWAP1 PUSH2 0xDD SWAP2 SWAP1 PUSH2 0x1686 JUMP JUMPDEST PUSH2 0x241 JUMP JUMPDEST STOP JUMPDEST CALLVALUE DUP1 ISZERO PUSH2 0xF0 JUMPI PUSH1 0x0 DUP1 REVERT JUMPDEST POP PUSH2 0x10B PUSH1 0x4 DUP1 CALLDATASIZE SUB DUP2 ADD SWAP1 PUSH2 0x106 SWAP2 SWAP1 PUSH2 0x173B JUMP JUMPDEST PUSH2 0x29D JUMP JUMPDEST STOP JUMPDEST CALLVALUE DUP1 ISZERO PUSH2 0x119 JUMPI PUSH1 0x0 DUP1 REVERT JUMPDEST POP PUSH2 0x134 PUSH1 0x4 DUP1 CALLDATASIZE SUB DUP2 ADD SWAP1 PUSH2 0x12F SWAP2 SWAP1 PUSH2 0x178E JUMP JUMPDEST PUSH2 0x2FD JUMP JUMPDEST PUSH1 0x40 MLOAD PUSH2 0x141 SWAP2 SWAP1 PUSH2 0x1879 JUMP JUMPDEST PUSH1 0x40 MLOAD DUP1 SWAP2 SUB SWAP1 RETURN JUMPDEST CALLVALUE DUP1 ISZERO PUSH2 0x156 JUMPI PUSH1 0x0 DUP1 REVERT JUMPDEST POP PUSH2 0x15F PUSH2 0x30F JUMP JUMPDEST PUSH1 0x40 MLOAD PUSH2 0x16C SWAP2 SWAP1 PUSH2 0x1879 JUMP JUMPDEST PUSH1 0x40 MLOAD DUP1 SWAP2 SUB SWAP1 RETURN JUMPDEST CALLVALUE DUP1 ISZERO PUSH2 0x181 JUMPI PUSH1 0x0 DUP1 REVERT JUMPDEST POP PUSH2 0x19C PUSH1 0x4 DUP1 CALLDATASIZE SUB DUP2 ADD SWAP1 PUSH2 0x197 SWAP2 SWAP1 PUSH2 0x189B JUMP JUMPDEST PUSH2 0x31E JUMP JUMPDEST STOP JUMPDEST CALLVALUE DUP1 ISZERO PUSH2 0x1AA JUMPI PUSH1 0x0 DUP1 REVERT JUMPDEST POP PUSH2 0x1B3 PUSH2 0x386 JUMP JUMPDEST PUSH1 0x40 MLOAD PUSH2 0x1C0 SWAP2 SWAP1 PUSH2 0x18FC JUMP JUMPDEST PUSH1 0x40 MLOAD DUP1 SWAP2 SUB SWAP1 RETURN JUMPDEST CALLVALUE DUP1 ISZERO PUSH2 0x1D5 JUMPI PUSH1 0x0 DUP1 REVERT JUMPDEST POP PUSH2 0x1F0 PUSH1 0x4 DUP1 CALLDATASIZE SUB DUP2 ADD SWAP1 PUSH2 0x1EB SWAP2 SWAP1 PUSH2 0x1686 JUMP JUMPDEST PUSH2 0x3AA JUMP JUMPDEST PUSH1 0x40 MLOAD PUSH2 0x1FD SWAP2 SWAP1 PUSH2 0x198E JUMP JUMPDEST PUSH1 0x40 MLOAD DUP1 SWAP2 SUB SWAP1 RETURN JUMPDEST CALLVALUE DUP1 ISZERO PUSH2 0x212 JUMPI PUSH1 0x0 DUP1 REVERT JUMPDEST POP PUSH2 0x22D PUSH1 0x4 DUP1 CALLDATASIZE SUB DUP2 ADD SWAP1 PUSH2 0x228 SWAP2 SWAP1 PUSH2 0x1686 JUMP JUMPDEST PUSH2 0x3C2 JUMP JUMPDEST STOP JUMPDEST PUSH1 0x0 PUSH2 0x23A DUP3 PUSH2 0x412 JUMP JUMPDEST SWAP1 POP SWAP2 SWAP1 POP JUMP JUMPDEST PUSH2 0x24C ADDRESS CALLER DUP4 PUSH2 0x45D JUMP JUMPDEST CALLER PUSH20 0xFFFFFFFFFFFFFFFFFFFFFFFFFFFFFFFFFFFFFFFF AND PUSH32 0x225283508A8CE3B05DAA68183DF02A29EA48AEAA415AC67113C50DEA09C1B697 DUP3 PUSH1 0x40 MLOAD PUSH2 0x292 SWAP2 SWAP1 PUSH2 0x19B8 JUMP JUMPDEST PUSH1 0x40 MLOAD DUP1 SWAP2 SUB SWAP1 LOG2 POP JUMP JUMPDEST PUSH2 0x2AE PUSH2 0x2A8 PUSH2 0x784 JUMP JUMPDEST DUP3 PUSH2 0x78C JUMP JUMPDEST PUSH2 0x2ED JUMPI PUSH1 0x40 MLOAD PUSH32 0x8C379A000000000000000000000000000000000000000000000000000000000 DUP2 MSTORE PUSH1 0x4 ADD PUSH2 0x2E4 SWAP1 PUSH2 0x1A56 JUMP JUMPDEST PUSH1 0x40 MLOAD DUP1 SWAP2 SUB SWAP1 REVERT JUMPDEST PUSH2 0x2F8 DUP4 DUP4 DUP4 PUSH2 0x45D JUMP JUMPDEST POP POP POP JUMP JUMPDEST PUSH1 0x60 PUSH2 0x308 DUP3 PUSH2 0x8DE JUMP JUMPDEST SWAP1 POP SWAP2 SWAP1 POP JUMP JUMPDEST PUSH1 0x60 PUSH2 0x319 PUSH2 0x984 JUMP JUMPDEST SWAP1 POP SWAP1 JUMP JUMPDEST PUSH2 0x328 DUP3 DUP3 PUSH2 0x9EB JUMP JUMPDEST PUSH2 0x333 CALLER ADDRESS DUP5 PUSH2 0x45D JUMP JUMPDEST DUP2 CALLER PUSH20 0xFFFFFFFFFFFFFFFFFFFFFFFFFFFFFFFFFFFFFFFF AND PUSH32 0xBF8EDB16A3925949BDA35D6C527B8F53FF37A989912808FAC0A134935DCF5051 DUP4 PUSH1 0x40 MLOAD PUSH2 0x37A SWAP2 SWAP1 PUSH2 0x19B8 JUMP JUMPDEST PUSH1 0x40 MLOAD DUP1 SWAP2 SUB SWAP1 LOG3 POP POP JUMP JUMPDEST PUSH1 0x0 DUP1 SLOAD SWAP1 PUSH2 0x100 EXP SWAP1 DIV PUSH20 0xFFFFFFFFFFFFFFFFFFFFFFFFFFFFFFFFFFFFFFFF AND DUP2 JUMP JUMPDEST PUSH2 0x3B2 PUSH2 0x1606 JUMP JUMPDEST PUSH2 0x3BB DUP3 PUSH2 0xCC7 JUMP JUMPDEST SWAP1 POP SWAP2 SWAP1 POP JUMP JUMPDEST PUSH2 0x3CB DUP2 PUSH2 0xD81 JUMP JUMPDEST DUP1 CALLER PUSH20 0xFFFFFFFFFFFFFFFFFFFFFFFFFFFFFFFFFFFFFFFF AND PUSH32 0x1D7264ED0FC0F609BB4CB82E2664C9CD699AE2DC128E0228DF77E1ABEC16D25A PUSH1 0x40 MLOAD PUSH1 0x40 MLOAD DUP1 SWAP2 SUB SWAP1 LOG3 POP JUMP JUMPDEST PUSH1 0x0 DUP1 PUSH2 0x41D PUSH2 0x1179 JUMP JUMPDEST SWAP1 POP DUP1 PUSH1 0x2 ADD PUSH1 0x0 DUP5 DUP2 MSTORE PUSH1 0x20 ADD SWAP1 DUP2 MSTORE PUSH1 0x20 ADD PUSH1 0x0 KECCAK256 PUSH1 0x0 SWAP1 SLOAD SWAP1 PUSH2 0x100 EXP SWAP1 DIV PUSH20 0xFFFFFFFFFFFFFFFFFFFFFFFFFFFFFFFFFFFFFFFF AND SWAP2 POP POP SWAP2 SWAP1 POP JUMP JUMPDEST DUP3 PUSH20 0xFFFFFFFFFFFFFFFFFFFFFFFFFFFFFFFFFFFFFFFF AND PUSH2 0x47D DUP3 PUSH2 0x11A6 JUMP JUMPDEST PUSH20 0xFFFFFFFFFFFFFFFFFFFFFFFFFFFFFFFFFFFFFFFF AND EQ PUSH2 0x4D3 JUMPI PUSH1 0x40 MLOAD PUSH32 0x8C379A000000000000000000000000000000000000000000000000000000000 DUP2 MSTORE PUSH1 0x4 ADD PUSH2 0x4CA SWAP1 PUSH2 0x1AE8 JUMP JUMPDEST PUSH1 0x40 MLOAD DUP1 SWAP2 SUB SWAP1 REVERT JUMPDEST PUSH1 0x0 PUSH20 0xFFFFFFFFFFFFFFFFFFFFFFFFFFFFFFFFFFFFFFFF AND DUP3 PUSH20 0xFFFFFFFFFFFFFFFFFFFFFFFFFFFFFFFFFFFFFFFF AND SUB PUSH2 0x542 JUMPI PUSH1 0x40 MLOAD PUSH32 0x8C379A000000000000000000000000000000000000000000000000000000000 DUP2 MSTORE PUSH1 0x4 ADD PUSH2 0x539 SWAP1 PUSH2 0x1B7A JUMP JUMPDEST PUSH1 0x40 MLOAD DUP1 SWAP2 SUB SWAP1 REVERT JUMPDEST PUSH2 0x54F DUP4 DUP4 DUP4 PUSH1 0x1 PUSH2 0x11EC JUMP JUMPDEST DUP3 PUSH20 0xFFFFFFFFFFFFFFFFFFFFFFFFFFFFFFFFFFFFFFFF AND PUSH2 0x56F DUP3 PUSH2 0x11A6 JUMP JUMPDEST PUSH20 0xFFFFFFFFFFFFFFFFFFFFFFFFFFFFFFFFFFFFFFFF AND EQ PUSH2 0x5C5 JUMPI PUSH1 0x40 MLOAD PUSH32 0x8C379A000000000000000000000000000000000000000000000000000000000 DUP2 MSTORE PUSH1 0x4 ADD PUSH2 0x5BC SWAP1 PUSH2 0x1AE8 JUMP JUMPDEST PUSH1 0x40 MLOAD DUP1 SWAP2 SUB SWAP1 REVERT JUMPDEST PUSH2 0x5CD PUSH2 0x11F2 JUMP JUMPDEST PUSH1 0xB ADD PUSH1 0x0 DUP3 DUP2 MSTORE PUSH1 0x20 ADD SWAP1 DUP2 MSTORE PUSH1 0x20 ADD PUSH1 0x0 KECCAK256 PUSH1 0x0 PUSH2 0x100 EXP DUP2 SLOAD SWAP1 PUSH20 0xFFFFFFFFFFFFFFFFFFFFFFFFFFFFFFFFFFFFFFFF MUL NOT AND SWAP1 SSTORE PUSH1 0x1 PUSH2 0x60E PUSH2 0x11F2 JUMP JUMPDEST PUSH1 0xA ADD PUSH1 0x0 DUP6 PUSH20 0xFFFFFFFFFFFFFFFFFFFFFFFFFFFFFFFFFFFFFFFF AND PUSH20 0xFFFFFFFFFFFFFFFFFFFFFFFFFFFFFFFFFFFFFFFF AND DUP2 MSTORE PUSH1 0x20 ADD SWAP1 DUP2 MSTORE PUSH1 0x20 ADD PUSH1 0x0 KECCAK256 PUSH1 0x0 DUP3 DUP3 SLOAD SUB SWAP3 POP POP DUP2 SWAP1 SSTORE POP PUSH1 0x1 PUSH2 0x665 PUSH2 0x11F2 JUMP JUMPDEST PUSH1 0xA ADD PUSH1 0x0 DUP5 PUSH20 0xFFFFFFFFFFFFFFFFFFFFFFFFFFFFFFFFFFFFFFFF AND PUSH20 0xFFFFFFFFFFFFFFFFFFFFFFFFFFFFFFFFFFFFFFFF AND DUP2 MSTORE PUSH1 0x20 ADD SWAP1 DUP2 MSTORE PUSH1 0x20 ADD PUSH1 0x0 KECCAK256 PUSH1 0x0 DUP3 DUP3 SLOAD ADD SWAP3 POP POP DUP2 SWAP1 SSTORE POP DUP2 PUSH2 0x6BB PUSH2 0x11F2 JUMP JUMPDEST PUSH1 0x9 ADD PUSH1 0x0 DUP4 DUP2 MSTORE PUSH1 0x20 ADD SWAP1 DUP2 MSTORE PUSH1 0x20 ADD PUSH1 0x0 KECCAK256 PUSH1 0x0 PUSH2 0x100 EXP DUP2 SLOAD DUP2 PUSH20 0xFFFFFFFFFFFFFFFFFFFFFFFFFFFFFFFFFFFFFFFF MUL NOT AND SWAP1 DUP4 PUSH20 0xFFFFFFFFFFFFFFFFFFFFFFFFFFFFFFFFFFFFFFFF AND MUL OR SWAP1 SSTORE POP PUSH2 0x717 DUP3 DUP3 PUSH2 0x121F JUMP JUMPDEST DUP1 DUP3 PUSH20 0xFFFFFFFFFFFFFFFFFFFFFFFFFFFFFFFFFFFFFFFF AND DUP5 PUSH20 0xFFFFFFFFFFFFFFFFFFFFFFFFFFFFFFFFFFFFFFFF AND PUSH32 0xDDF252AD1BE2C89B69C2B068FC378DAA952BA7F163C4A11628F55A4DF523B3EF PUSH1 0x40 MLOAD PUSH1 0x40 MLOAD DUP1 SWAP2 SUB SWAP1 LOG4 PUSH2 0x77F DUP4 DUP4 DUP4 PUSH1 0x1 PUSH2 0x15A6 JUMP JUMPDEST POP POP POP JUMP JUMPDEST PUSH1 0x0 CALLER SWAP1 POP SWAP1 JUMP JUMPDEST PUSH1 0x0 DUP1 PUSH2 0x798 DUP4 PUSH2 0x11A6 JUMP JUMPDEST SWAP1 POP DUP1 PUSH20 0xFFFFFFFFFFFFFFFFFFFFFFFFFFFFFFFFFFFFFFFF AND DUP5 PUSH20 0xFFFFFFFFFFFFFFFFFFFFFFFFFFFFFFFFFFFFFFFF AND EQ DUP1 PUSH2 0x863 JUMPI POP PUSH2 0x7D7 PUSH2 0x11F2 JUMP JUMPDEST PUSH1 0x8 ADD PUSH1 0x0 DUP3 PUSH20 0xFFFFFFFFFFFFFFFFFFFFFFFFFFFFFFFFFFFFFFFF AND PUSH20 0xFFFFFFFFFFFFFFFFFFFFFFFFFFFFFFFFFFFFFFFF AND DUP2 MSTORE PUSH1 0x20 ADD SWAP1 DUP2 MSTORE PUSH1 0x20 ADD PUSH1 0x0 KECCAK256 PUSH1 0x0 DUP6 PUSH20 0xFFFFFFFFFFFFFFFFFFFFFFFFFFFFFFFFFFFFFFFF AND PUSH20 0xFFFFFFFFFFFFFFFFFFFFFFFFFFFFFFFFFFFFFFFF AND DUP2 MSTORE PUSH1 0x20 ADD SWAP1 DUP2 MSTORE PUSH1 0x20 ADD PUSH1 0x0 KECCAK256 PUSH1 0x0 SWAP1 SLOAD SWAP1 PUSH2 0x100 EXP SWAP1 DIV PUSH1 0xFF AND JUMPDEST DUP1 PUSH2 0x8D5 JUMPI POP DUP4 PUSH20 0xFFFFFFFFFFFFFFFFFFFFFFFFFFFFFFFFFFFFFFFF AND PUSH2 0x888 PUSH2 0x11F2 JUMP JUMPDEST PUSH1 0xB ADD PUSH1 0x0 DUP6 DUP2 MSTORE PUSH1 0x20 ADD SWAP1 DUP2 MSTORE PUSH1 0x20 ADD PUSH1 0x0 KECCAK256 PUSH1 0x0 SWAP1 SLOAD SWAP1 PUSH2 0x100 EXP SWAP1 DIV PUSH20 0xFFFFFFFFFFFFFFFFFFFFFFFFFFFFFFFFFFFFFFFF AND PUSH20 0xFFFFFFFFFFFFFFFFFFFFFFFFFFFFFFFFFFFFFFFF AND EQ JUMPDEST SWAP2 POP POP SWAP3 SWAP2 POP POP JUMP JUMPDEST PUSH1 0x60 PUSH1 0x0 PUSH2 0x8EA PUSH2 0x15AC JUMP JUMPDEST SWAP1 POP DUP1 PUSH1 0x1 ADD PUSH1 0x0 DUP5 PUSH20 0xFFFFFFFFFFFFFFFFFFFFFFFFFFFFFFFFFFFFFFFF AND PUSH20 0xFFFFFFFFFFFFFFFFFFFFFFFFFFFFFFFFFFFFFFFF AND DUP2 MSTORE PUSH1 0x20 ADD SWAP1 DUP2 MSTORE PUSH1 0x20 ADD PUSH1 0x0 KECCAK256 DUP1 SLOAD DUP1 PUSH1 0x20 MUL PUSH1 0x20 ADD PUSH1 0x40 MLOAD SWAP1 DUP2 ADD PUSH1 0x40 MSTORE DUP1 SWAP3 SWAP2 SWAP1 DUP2 DUP2 MSTORE PUSH1 0x20 ADD DUP3 DUP1 SLOAD DUP1 ISZERO PUSH2 0x977 JUMPI PUSH1 0x20 MUL DUP3 ADD SWAP2 SWAP1 PUSH1 0x0 MSTORE PUSH1 0x20 PUSH1 0x0 KECCAK256 SWAP1 JUMPDEST DUP2 SLOAD DUP2 MSTORE PUSH1 0x20 ADD SWAP1 PUSH1 0x1 ADD SWAP1 DUP1 DUP4 GT PUSH2 0x963 JUMPI JUMPDEST POP POP POP POP POP SWAP2 POP POP SWAP2 SWAP1 POP JUMP JUMPDEST PUSH1 0x60 PUSH1 0x0 PUSH2 0x990 PUSH2 0x15AC JUMP JUMPDEST SWAP1 POP DUP1 PUSH1 0x2 ADD DUP1 SLOAD DUP1 PUSH1 0x20 MUL PUSH1 0x20 ADD PUSH1 0x40 MLOAD SWAP1 DUP2 ADD PUSH1 0x40 MSTORE DUP1 SWAP3 SWAP2 SWAP1 DUP2 DUP2 MSTORE PUSH1 0x20 ADD DUP3 DUP1 SLOAD DUP1 ISZERO PUSH2 0x9E0 JUMPI PUSH1 0x20 MUL DUP3 ADD SWAP2 SWAP1 PUSH1 0x0 MSTORE PUSH1 0x20 PUSH1 0x0 KECCAK256 SWAP1 JUMPDEST DUP2 SLOAD DUP2 MSTORE PUSH1 0x20 ADD SWAP1 PUSH1 0x1 ADD SWAP1 DUP1 DUP4 GT PUSH2 0x9CC JUMPI JUMPDEST POP POP POP POP POP SWAP2 POP POP SWAP1 JUMP JUMPDEST PUSH1 0x0 PUSH2 0x9F5 PUSH2 0x1179 JUMP JUMPDEST SWAP1 POP PUSH1 0x0 PUSH2 0xA01 PUSH2 0x15AC JUMP JUMPDEST SWAP1 POP CALLER PUSH20 0xFFFFFFFFFFFFFFFFFFFFFFFFFFFFFFFFFFFFFFFF AND DUP3 PUSH1 0x2 ADD PUSH1 0x0 DUP7 DUP2 MSTORE PUSH1 0x20 ADD SWAP1 DUP2 MSTORE PUSH1 0x20 ADD PUSH1 0x0 KECCAK256 PUSH1 0x0 SWAP1 SLOAD SWAP1 PUSH2 0x100 EXP SWAP1 DIV PUSH20 0xFFFFFFFFFFFFFFFFFFFFFFFFFFFFFFFFFFFFFFFF AND PUSH20 0xFFFFFFFFFFFFFFFFFFFFFFFFFFFFFFFFFFFFFFFF AND EQ PUSH2 0xAA6 JUMPI PUSH1 0x40 MLOAD PUSH32 0x8C379A000000000000000000000000000000000000000000000000000000000 DUP2 MSTORE PUSH1 0x4 ADD PUSH2 0xA9D SWAP1 PUSH2 0x1BE6 JUMP JUMPDEST PUSH1 0x40 MLOAD DUP1 SWAP2 SUB SWAP1 REVERT JUMPDEST PUSH1 0x0 DUP3 PUSH1 0x3 ADD PUSH1 0x0 DUP7 DUP2 MSTORE PUSH1 0x20 ADD SWAP1 DUP2 MSTORE PUSH1 0x20 ADD PUSH1 0x0 KECCAK256 PUSH1 0x2 ADD SLOAD EQ PUSH2 0xB01 JUMPI PUSH1 0x40 MLOAD PUSH32 0x8C379A000000000000000000000000000000000000000000000000000000000 DUP2 MSTORE PUSH1 0x4 ADD PUSH2 0xAF8 SWAP1 PUSH2 0x1C52 JUMP JUMPDEST PUSH1 0x40 MLOAD DUP1 SWAP2 SUB SWAP1 REVERT JUMPDEST PUSH1 0x63 DUP3 PUSH1 0x3 ADD PUSH1 0x0 DUP7 DUP2 MSTORE PUSH1 0x20 ADD SWAP1 DUP2 MSTORE PUSH1 0x20 ADD PUSH1 0x0 KECCAK256 PUSH1 0x2 ADD DUP2 SWAP1 SSTORE POP PUSH1 0x40 MLOAD DUP1 PUSH1 0xA0 ADD PUSH1 0x40 MSTORE DUP1 CALLER PUSH20 0xFFFFFFFFFFFFFFFFFFFFFFFFFFFFFFFFFFFFFFFF AND DUP2 MSTORE PUSH1 0x20 ADD DUP6 DUP2 MSTORE PUSH1 0x20 ADD DUP5 DUP2 MSTORE PUSH1 0x20 ADD DUP3 PUSH1 0x2 ADD DUP1 SLOAD SWAP1 POP DUP2 MSTORE PUSH1 0x20 ADD DUP3 PUSH1 0x1 ADD PUSH1 0x0 CALLER PUSH20 0xFFFFFFFFFFFFFFFFFFFFFFFFFFFFFFFFFFFFFFFF AND PUSH20 0xFFFFFFFFFFFFFFFFFFFFFFFFFFFFFFFFFFFFFFFF AND DUP2 MSTORE PUSH1 0x20 ADD SWAP1 DUP2 MSTORE PUSH1 0x20 ADD PUSH1 0x0 KECCAK256 DUP1 SLOAD SWAP1 POP DUP2 MSTORE POP DUP2 PUSH1 0x0 ADD PUSH1 0x0 DUP7 DUP2 MSTORE PUSH1 0x20 ADD SWAP1 DUP2 MSTORE PUSH1 0x20 ADD PUSH1 0x0 KECCAK256 PUSH1 0x0 DUP3 ADD MLOAD DUP2 PUSH1 0x0 ADD PUSH1 0x0 PUSH2 0x100 EXP DUP2 SLOAD DUP2 PUSH20 0xFFFFFFFFFFFFFFFFFFFFFFFFFFFFFFFFFFFFFFFF MUL NOT AND SWAP1 DUP4 PUSH20 0xFFFFFFFFFFFFFFFFFFFFFFFFFFFFFFFFFFFFFFFF AND MUL OR SWAP1 SSTORE POP PUSH1 0x20 DUP3 ADD MLOAD DUP2 PUSH1 0x1 ADD SSTORE PUSH1 0x40 DUP3 ADD MLOAD DUP2 PUSH1 0x2 ADD SSTORE PUSH1 0x60 DUP3 ADD MLOAD DUP2 PUSH1 0x3 ADD SSTORE PUSH1 0x80 DUP3 ADD MLOAD DUP2 PUSH1 0x4 ADD SSTORE SWAP1 POP POP DUP1 PUSH1 0x2 ADD DUP5 SWAP1 DUP1 PUSH1 0x1 DUP2 SLOAD ADD DUP1 DUP3 SSTORE DUP1 SWAP2 POP POP PUSH1 0x1 SWAP1 SUB SWAP1 PUSH1 0x0 MSTORE PUSH1 0x20 PUSH1 0x0 KECCAK256 ADD PUSH1 0x0 SWAP1 SWAP2 SWAP1 SWAP2 SWAP1 SWAP2 POP SSTORE DUP1 PUSH1 0x1 ADD PUSH1 0x0 CALLER PUSH20 0xFFFFFFFFFFFFFFFFFFFFFFFFFFFFFFFFFFFFFFFF AND PUSH20 0xFFFFFFFFFFFFFFFFFFFFFFFFFFFFFFFFFFFFFFFF AND DUP2 MSTORE PUSH1 0x20 ADD SWAP1 DUP2 MSTORE PUSH1 0x20 ADD PUSH1 0x0 KECCAK256 DUP5 SWAP1 DUP1 PUSH1 0x1 DUP2 SLOAD ADD DUP1 DUP3 SSTORE DUP1 SWAP2 POP POP PUSH1 0x1 SWAP1 SUB SWAP1 PUSH1 0x0 MSTORE PUSH1 0x20 PUSH1 0x0 KECCAK256 ADD PUSH1 0x0 SWAP1 SWAP2 SWAP1 SWAP2 SWAP1 SWAP2 POP SSTORE POP POP POP POP JUMP JUMPDEST PUSH2 0xCCF PUSH2 0x1606 JUMP JUMPDEST PUSH1 0x0 PUSH2 0xCD9 PUSH2 0x15AC JUMP JUMPDEST SWAP1 POP DUP1 PUSH1 0x0 ADD PUSH1 0x0 DUP5 DUP2 MSTORE PUSH1 0x20 ADD SWAP1 DUP2 MSTORE PUSH1 0x20 ADD PUSH1 0x0 KECCAK256 PUSH1 0x40 MLOAD DUP1 PUSH1 0xA0 ADD PUSH1 0x40 MSTORE SWAP1 DUP2 PUSH1 0x0 DUP3 ADD PUSH1 0x0 SWAP1 SLOAD SWAP1 PUSH2 0x100 EXP SWAP1 DIV PUSH20 0xFFFFFFFFFFFFFFFFFFFFFFFFFFFFFFFFFFFFFFFF AND PUSH20 0xFFFFFFFFFFFFFFFFFFFFFFFFFFFFFFFFFFFFFFFF AND PUSH20 0xFFFFFFFFFFFFFFFFFFFFFFFFFFFFFFFFFFFFFFFF AND DUP2 MSTORE PUSH1 0x20 ADD PUSH1 0x1 DUP3 ADD SLOAD DUP2 MSTORE PUSH1 0x20 ADD PUSH1 0x2 DUP3 ADD SLOAD DUP2 MSTORE PUSH1 0x20 ADD PUSH1 0x3 DUP3 ADD SLOAD DUP2 MSTORE PUSH1 0x20 ADD PUSH1 0x4 DUP3 ADD SLOAD DUP2 MSTORE POP POP SWAP2 POP POP SWAP2 SWAP1 POP JUMP JUMPDEST PUSH1 0x0 PUSH2 0xD8B PUSH2 0x1179 JUMP JUMPDEST SWAP1 POP PUSH1 0x0 PUSH2 0xD97 PUSH2 0x15AC JUMP JUMPDEST SWAP1 POP CALLER PUSH20 0xFFFFFFFFFFFFFFFFFFFFFFFFFFFFFFFFFFFFFFFF AND DUP2 PUSH1 0x0 ADD PUSH1 0x0 DUP6 DUP2 MSTORE PUSH1 0x20 ADD SWAP1 DUP2 MSTORE PUSH1 0x20 ADD PUSH1 0x0 KECCAK256 PUSH1 0x0 ADD PUSH1 0x0 SWAP1 SLOAD SWAP1 PUSH2 0x100 EXP SWAP1 DIV PUSH20 0xFFFFFFFFFFFFFFFFFFFFFFFFFFFFFFFFFFFFFFFF AND PUSH20 0xFFFFFFFFFFFFFFFFFFFFFFFFFFFFFFFFFFFFFFFF AND EQ PUSH2 0xE3F JUMPI PUSH1 0x40 MLOAD PUSH32 0x8C379A000000000000000000000000000000000000000000000000000000000 DUP2 MSTORE PUSH1 0x4 ADD PUSH2 0xE36 SWAP1 PUSH2 0x1CE4 JUMP JUMPDEST PUSH1 0x40 MLOAD DUP1 SWAP2 SUB SWAP1 REVERT JUMPDEST PUSH1 0x0 DUP2 PUSH1 0x0 ADD PUSH1 0x0 DUP6 DUP2 MSTORE PUSH1 0x20 ADD SWAP1 DUP2 MSTORE PUSH1 0x20 ADD PUSH1 0x0 KECCAK256 PUSH1 0x0 ADD PUSH1 0x0 SWAP1 SLOAD SWAP1 PUSH2 0x100 EXP SWAP1 DIV PUSH20 0xFFFFFFFFFFFFFFFFFFFFFFFFFFFFFFFFFFFFFFFF AND SWAP1 POP PUSH1 0x0 DUP3 PUSH1 0x0 ADD PUSH1 0x0 DUP7 DUP2 MSTORE PUSH1 0x20 ADD SWAP1 DUP2 MSTORE PUSH1 0x20 ADD PUSH1 0x0 KECCAK256 PUSH1 0x3 ADD SLOAD SWAP1 POP PUSH1 0x0 DUP4 PUSH1 0x2 ADD PUSH1 0x1 DUP6 PUSH1 0x2 ADD DUP1 SLOAD SWAP1 POP PUSH2 0xEB3 SWAP2 SWAP1 PUSH2 0x1D33 JUMP JUMPDEST DUP2 SLOAD DUP2 LT PUSH2 0xEC4 JUMPI PUSH2 0xEC3 PUSH2 0x1D67 JUMP JUMPDEST JUMPDEST SWAP1 PUSH1 0x0 MSTORE PUSH1 0x20 PUSH1 0x0 KECCAK256 ADD SLOAD SWAP1 POP DUP1 DUP5 PUSH1 0x2 ADD DUP4 DUP2 SLOAD DUP2 LT PUSH2 0xEE8 JUMPI PUSH2 0xEE7 PUSH2 0x1D67 JUMP JUMPDEST JUMPDEST SWAP1 PUSH1 0x0 MSTORE PUSH1 0x20 PUSH1 0x0 KECCAK256 ADD DUP2 SWAP1 SSTORE POP DUP2 DUP5 PUSH1 0x0 ADD PUSH1 0x0 DUP4 DUP2 MSTORE PUSH1 0x20 ADD SWAP1 DUP2 MSTORE PUSH1 0x20 ADD PUSH1 0x0 KECCAK256 PUSH1 0x3 ADD DUP2 SWAP1 SSTORE POP DUP4 PUSH1 0x2 ADD DUP1 SLOAD DUP1 PUSH2 0xF27 JUMPI PUSH2 0xF26 PUSH2 0x1D96 JUMP JUMPDEST JUMPDEST PUSH1 0x1 SWAP1 SUB DUP2 DUP2 SWAP1 PUSH1 0x0 MSTORE PUSH1 0x20 PUSH1 0x0 KECCAK256 ADD PUSH1 0x0 SWAP1 SSTORE SWAP1 SSTORE PUSH1 0x0 DUP5 PUSH1 0x0 ADD PUSH1 0x0 DUP9 DUP2 MSTORE PUSH1 0x20 ADD SWAP1 DUP2 MSTORE PUSH1 0x20 ADD PUSH1 0x0 KECCAK256 PUSH1 0x4 ADD SLOAD SWAP1 POP PUSH1 0x0 DUP6 PUSH1 0x1 ADD PUSH1 0x0 DUP7 PUSH20 0xFFFFFFFFFFFFFFFFFFFFFFFFFFFFFFFFFFFFFFFF AND PUSH20 0xFFFFFFFFFFFFFFFFFFFFFFFFFFFFFFFFFFFFFFFF AND DUP2 MSTORE PUSH1 0x20 ADD SWAP1 DUP2 MSTORE PUSH1 0x20 ADD PUSH1 0x0 KECCAK256 PUSH1 0x1 DUP8 PUSH1 0x1 ADD PUSH1 0x0 DUP9 PUSH20 0xFFFFFFFFFFFFFFFFFFFFFFFFFFFFFFFFFFFFFFFF AND PUSH20 0xFFFFFFFFFFFFFFFFFFFFFFFFFFFFFFFFFFFFFFFF AND DUP2 MSTORE PUSH1 0x20 ADD SWAP1 DUP2 MSTORE PUSH1 0x20 ADD PUSH1 0x0 KECCAK256 DUP1 SLOAD SWAP1 POP PUSH2 0xFEE SWAP2 SWAP1 PUSH2 0x1D33 JUMP JUMPDEST DUP2 SLOAD DUP2 LT PUSH2 0xFFF JUMPI PUSH2 0xFFE PUSH2 0x1D67 JUMP JUMPDEST JUMPDEST SWAP1 PUSH1 0x0 MSTORE PUSH1 0x20 PUSH1 0x0 KECCAK256 ADD SLOAD SWAP1 POP DUP1 DUP7 PUSH1 0x1 ADD PUSH1 0x0 DUP8 PUSH20 0xFFFFFFFFFFFFFFFFFFFFFFFFFFFFFFFFFFFFFFFF AND PUSH20 0xFFFFFFFFFFFFFFFFFFFFFFFFFFFFFFFFFFFFFFFF AND DUP2 MSTORE PUSH1 0x20 ADD SWAP1 DUP2 MSTORE PUSH1 0x20 ADD PUSH1 0x0 KECCAK256 DUP4 DUP2 SLOAD DUP2 LT PUSH2 0x1060 JUMPI PUSH2 0x105F PUSH2 0x1D67 JUMP JUMPDEST JUMPDEST SWAP1 PUSH1 0x0 MSTORE PUSH1 0x20 PUSH1 0x0 KECCAK256 ADD DUP2 SWAP1 SSTORE POP DUP2 DUP7 PUSH1 0x0 ADD PUSH1 0x0 DUP4 DUP2 MSTORE PUSH1 0x20 ADD SWAP1 DUP2 MSTORE PUSH1 0x20 ADD PUSH1 0x0 KECCAK256 PUSH1 0x4 ADD DUP2 SWAP1 SSTORE POP DUP6 PUSH1 0x1 ADD PUSH1 0x0 DUP7 PUSH20 0xFFFFFFFFFFFFFFFFFFFFFFFFFFFFFFFFFFFFFFFF AND PUSH20 0xFFFFFFFFFFFFFFFFFFFFFFFFFFFFFFFFFFFFFFFF AND DUP2 MSTORE PUSH1 0x20 ADD SWAP1 DUP2 MSTORE PUSH1 0x20 ADD PUSH1 0x0 KECCAK256 DUP1 SLOAD DUP1 PUSH2 0x10DC JUMPI PUSH2 0x10DB PUSH2 0x1D96 JUMP JUMPDEST JUMPDEST PUSH1 0x1 SWAP1 SUB DUP2 DUP2 SWAP1 PUSH1 0x0 MSTORE PUSH1 0x20 PUSH1 0x0 KECCAK256 ADD PUSH1 0x0 SWAP1 SSTORE SWAP1 SSTORE PUSH1 0x0 DUP8 PUSH1 0x3 ADD PUSH1 0x0 DUP11 DUP2 MSTORE PUSH1 0x20 ADD SWAP1 DUP2 MSTORE PUSH1 0x20 ADD PUSH1 0x0 KECCAK256 PUSH1 0x2 ADD DUP2 SWAP1 SSTORE POP DUP6 PUSH1 0x0 ADD PUSH1 0x0 DUP10 DUP2 MSTORE PUSH1 0x20 ADD SWAP1 DUP2 MSTORE PUSH1 0x20 ADD PUSH1 0x0 KECCAK256 PUSH1 0x0 DUP1 DUP3 ADD PUSH1 0x0 PUSH2 0x100 EXP DUP2 SLOAD SWAP1 PUSH20 0xFFFFFFFFFFFFFFFFFFFFFFFFFFFFFFFFFFFFFFFF MUL NOT AND SWAP1 SSTORE PUSH1 0x1 DUP3 ADD PUSH1 0x0 SWAP1 SSTORE PUSH1 0x2 DUP3 ADD PUSH1 0x0 SWAP1 SSTORE PUSH1 0x3 DUP3 ADD PUSH1 0x0 SWAP1 SSTORE PUSH1 0x4 DUP3 ADD PUSH1 0x0 SWAP1 SSTORE POP POP POP POP POP POP POP POP POP POP JUMP JUMPDEST PUSH1 0x0 DUP1 PUSH32 0x3CAB9A070A0C61CD0AE9D9E9E2C0781E5CA8691BEC4087E5A4701D5AC018DD4E SWAP1 POP DUP1 SWAP2 POP POP SWAP1 JUMP JUMPDEST PUSH1 0x0 PUSH2 0x11B0 PUSH2 0x11F2 JUMP JUMPDEST PUSH1 0x9 ADD PUSH1 0x0 DUP4 DUP2 MSTORE PUSH1 0x20 ADD SWAP1 DUP2 MSTORE PUSH1 0x20 ADD PUSH1 0x0 KECCAK256 PUSH1 0x0 SWAP1 SLOAD SWAP1 PUSH2 0x100 EXP SWAP1 DIV PUSH20 0xFFFFFFFFFFFFFFFFFFFFFFFFFFFFFFFFFFFFFFFF AND SWAP1 POP SWAP2 SWAP1 POP JUMP JUMPDEST POP POP POP POP JUMP JUMPDEST PUSH1 0x0 DUP1 PUSH32 0x2569078DFB4B0305704D3008E7403993AE9601B85F7AE5E742DE3DE8F8011C40 SWAP1 POP DUP1 SWAP2 POP POP SWAP1 JUMP JUMPDEST PUSH1 0x0 PUSH2 0x1229 PUSH2 0x15D9 JUMP JUMPDEST SWAP1 POP CALLER PUSH20 0xFFFFFFFFFFFFFFFFFFFFFFFFFFFFFFFFFFFFFFFF AND DUP2 PUSH1 0x2 ADD PUSH1 0x0 DUP5 DUP2 MSTORE PUSH1 0x20 ADD SWAP1 DUP2 MSTORE PUSH1 0x20 ADD PUSH1 0x0 KECCAK256 PUSH1 0x0 SWAP1 SLOAD SWAP1 PUSH2 0x100 EXP SWAP1 DIV PUSH20 0xFFFFFFFFFFFFFFFFFFFFFFFFFFFFFFFFFFFFFFFF AND PUSH20 0xFFFFFFFFFFFFFFFFFFFFFFFFFFFFFFFFFFFFFFFF AND EQ PUSH2 0x1298 JUMPI PUSH1 0x0 DUP1 REVERT JUMPDEST PUSH1 0x0 PUSH20 0xFFFFFFFFFFFFFFFFFFFFFFFFFFFFFFFFFFFFFFFF AND DUP4 PUSH20 0xFFFFFFFFFFFFFFFFFFFFFFFFFFFFFFFFFFFFFFFF AND SUB PUSH2 0x1307 JUMPI PUSH1 0x40 MLOAD PUSH32 0x8C379A000000000000000000000000000000000000000000000000000000000 DUP2 MSTORE PUSH1 0x4 ADD PUSH2 0x12FE SWAP1 PUSH2 0x1E11 JUMP JUMPDEST PUSH1 0x40 MLOAD DUP1 SWAP2 SUB SWAP1 REVERT JUMPDEST DUP3 DUP2 PUSH1 0x2 ADD PUSH1 0x0 DUP5 DUP2 MSTORE PUSH1 0x20 ADD SWAP1 DUP2 MSTORE PUSH1 0x20 ADD PUSH1 0x0 KECCAK256 PUSH1 0x0 PUSH2 0x100 EXP DUP2 SLOAD DUP2 PUSH20 0xFFFFFFFFFFFFFFFFFFFFFFFFFFFFFFFFFFFFFFFF MUL NOT AND SWAP1 DUP4 PUSH20 0xFFFFFFFFFFFFFFFFFFFFFFFFFFFFFFFFFFFFFFFF AND MUL OR SWAP1 SSTORE POP PUSH1 0x0 DUP2 PUSH1 0x4 ADD PUSH1 0x0 CALLER PUSH20 0xFFFFFFFFFFFFFFFFFFFFFFFFFFFFFFFFFFFFFFFF AND PUSH20 0xFFFFFFFFFFFFFFFFFFFFFFFFFFFFFFFFFFFFFFFF AND DUP2 MSTORE PUSH1 0x20 ADD SWAP1 DUP2 MSTORE PUSH1 0x20 ADD PUSH1 0x0 KECCAK256 SLOAD SWAP1 POP PUSH1 0x0 JUMPDEST DUP2 DUP2 LT ISZERO PUSH2 0x1489 JUMPI DUP4 DUP4 PUSH1 0x7 ADD PUSH1 0x0 CALLER PUSH20 0xFFFFFFFFFFFFFFFFFFFFFFFFFFFFFFFFFFFFFFFF AND PUSH20 0xFFFFFFFFFFFFFFFFFFFFFFFFFFFFFFFFFFFFFFFF AND DUP2 MSTORE PUSH1 0x20 ADD SWAP1 DUP2 MSTORE PUSH1 0x20 ADD PUSH1 0x0 KECCAK256 DUP3 DUP2 SLOAD DUP2 LT PUSH2 0x1400 JUMPI PUSH2 0x13FF PUSH2 0x1D67 JUMP JUMPDEST JUMPDEST SWAP1 PUSH1 0x0 MSTORE PUSH1 0x20 PUSH1 0x0 KECCAK256 ADD SLOAD SUB PUSH2 0x1476 JUMPI DUP3 PUSH1 0x7 ADD PUSH1 0x0 CALLER PUSH20 0xFFFFFFFFFFFFFFFFFFFFFFFFFFFFFFFFFFFFFFFF AND PUSH20 0xFFFFFFFFFFFFFFFFFFFFFFFFFFFFFFFFFFFFFFFF AND DUP2 MSTORE PUSH1 0x20 ADD SWAP1 DUP2 MSTORE PUSH1 0x20 ADD PUSH1 0x0 KECCAK256 DUP2 DUP2 SLOAD DUP2 LT PUSH2 0x1463 JUMPI PUSH2 0x1462 PUSH2 0x1D67 JUMP JUMPDEST JUMPDEST SWAP1 PUSH1 0x0 MSTORE PUSH1 0x20 PUSH1 0x0 KECCAK256 ADD PUSH1 0x0 SWAP1 SSTORE PUSH2 0x1489 JUMP JUMPDEST DUP1 DUP1 PUSH2 0x1481 SWAP1 PUSH2 0x1E31 JUMP JUMPDEST SWAP2 POP POP PUSH2 0x13A4 JUMP JUMPDEST POP DUP2 PUSH1 0x7 ADD PUSH1 0x0 DUP6 PUSH20 0xFFFFFFFFFFFFFFFFFFFFFFFFFFFFFFFFFFFFFFFF AND PUSH20 0xFFFFFFFFFFFFFFFFFFFFFFFFFFFFFFFFFFFFFFFF AND DUP2 MSTORE PUSH1 0x20 ADD SWAP1 DUP2 MSTORE PUSH1 0x20 ADD PUSH1 0x0 KECCAK256 DUP4 SWAP1 DUP1 PUSH1 0x1 DUP2 SLOAD ADD DUP1 DUP3 SSTORE DUP1 SWAP2 POP POP PUSH1 0x1 SWAP1 SUB SWAP1 PUSH1 0x0 MSTORE PUSH1 0x20 PUSH1 0x0 KECCAK256 ADD PUSH1 0x0 SWAP1 SWAP2 SWAP1 SWAP2 SWAP1 SWAP2 POP SSTORE DUP2 PUSH1 0x4 ADD PUSH1 0x0 CALLER PUSH20 0xFFFFFFFFFFFFFFFFFFFFFFFFFFFFFFFFFFFFFFFF AND PUSH20 0xFFFFFFFFFFFFFFFFFFFFFFFFFFFFFFFFFFFFFFFF AND DUP2 MSTORE PUSH1 0x20 ADD SWAP1 DUP2 MSTORE PUSH1 0x20 ADD PUSH1 0x0 KECCAK256 PUSH1 0x0 DUP2 SLOAD DUP1 SWAP3 SWAP2 SWAP1 PUSH2 0x1544 SWAP1 PUSH2 0x1E79 JUMP JUMPDEST SWAP2 SWAP1 POP SSTORE POP DUP2 PUSH1 0x4 ADD PUSH1 0x0 DUP6 PUSH20 0xFFFFFFFFFFFFFFFFFFFFFFFFFFFFFFFFFFFFFFFF AND PUSH20 0xFFFFFFFFFFFFFFFFFFFFFFFFFFFFFFFFFFFFFFFF AND DUP2 MSTORE PUSH1 0x20 ADD SWAP1 DUP2 MSTORE PUSH1 0x20 ADD PUSH1 0x0 KECCAK256 PUSH1 0x0 DUP2 SLOAD DUP1 SWAP3 SWAP2 SWAP1 PUSH2 0x159B SWAP1 PUSH2 0x1E31 JUMP JUMPDEST SWAP2 SWAP1 POP SSTORE POP POP POP POP POP JUMP JUMPDEST POP POP POP POP JUMP JUMPDEST PUSH1 0x0 DUP1 PUSH32 0xE933A40BC736A597DBCD3653BAAB40CF09A5C2453D7C0D87EEB7EA00AF356FB SWAP1 POP DUP1 SWAP2 POP POP SWAP1 JUMP JUMPDEST PUSH1 0x0 DUP1 PUSH32 0x3CAB9A070A0C61CD0AE9D9E9E2C0781E5CA8691BEC4087E5A4701D5AC018DD4E SWAP1 POP DUP1 SWAP2 POP POP SWAP1 JUMP JUMPDEST PUSH1 0x40 MLOAD DUP1 PUSH1 0xA0 ADD PUSH1 0x40 MSTORE DUP1 PUSH1 0x0 PUSH20 0xFFFFFFFFFFFFFFFFFFFFFFFFFFFFFFFFFFFFFFFF AND DUP2 MSTORE PUSH1 0x20 ADD PUSH1 0x0 DUP2 MSTORE PUSH1 0x20 ADD PUSH1 0x0 DUP2 MSTORE PUSH1 0x20 ADD PUSH1 0x0 DUP2 MSTORE PUSH1 0x20 ADD PUSH1 0x0 DUP2 MSTORE POP SWAP1 JUMP JUMPDEST PUSH1 0x0 DUP1 REVERT JUMPDEST PUSH1 0x0 DUP2 SWAP1 POP SWAP2 SWAP1 POP JUMP JUMPDEST PUSH2 0x1663 DUP2 PUSH2 0x1650 JUMP JUMPDEST DUP2 EQ PUSH2 0x166E JUMPI PUSH1 0x0 DUP1 REVERT JUMPDEST POP JUMP JUMPDEST PUSH1 0x0 DUP2 CALLDATALOAD SWAP1 POP PUSH2 0x1680 DUP2 PUSH2 0x165A JUMP JUMPDEST SWAP3 SWAP2 POP POP JUMP JUMPDEST PUSH1 0x0 PUSH1 0x20 DUP3 DUP5 SUB SLT ISZERO PUSH2 0x169C JUMPI PUSH2 0x169B PUSH2 0x164B JUMP JUMPDEST JUMPDEST PUSH1 0x0 PUSH2 0x16AA DUP5 DUP3 DUP6 ADD PUSH2 0x1671 JUMP JUMPDEST SWAP2 POP POP SWAP3 SWAP2 POP POP JUMP JUMPDEST PUSH1 0x0 PUSH20 0xFFFFFFFFFFFFFFFFFFFFFFFFFFFFFFFFFFFFFFFF DUP3 AND SWAP1 POP SWAP2 SWAP1 POP JUMP JUMPDEST PUSH1 0x0 PUSH2 0x16DE DUP3 PUSH2 0x16B3 JUMP JUMPDEST SWAP1 POP SWAP2 SWAP1 POP JUMP JUMPDEST PUSH2 0x16EE DUP2 PUSH2 0x16D3 JUMP JUMPDEST DUP3 MSTORE POP POP JUMP JUMPDEST PUSH1 0x0 PUSH1 0x20 DUP3 ADD SWAP1 POP PUSH2 0x1709 PUSH1 0x0 DUP4 ADD DUP5 PUSH2 0x16E5 JUMP JUMPDEST SWAP3 SWAP2 POP POP JUMP JUMPDEST PUSH2 0x1718 DUP2 PUSH2 0x16D3 JUMP JUMPDEST DUP2 EQ PUSH2 0x1723 JUMPI PUSH1 0x0 DUP1 REVERT JUMPDEST POP JUMP JUMPDEST PUSH1 0x0 DUP2 CALLDATALOAD SWAP1 POP PUSH2 0x1735 DUP2 PUSH2 0x170F JUMP JUMPDEST SWAP3 SWAP2 POP POP JUMP JUMPDEST PUSH1 0x0 DUP1 PUSH1 0x0 PUSH1 0x60 DUP5 DUP7 SUB SLT ISZERO PUSH2 0x1754 JUMPI PUSH2 0x1753 PUSH2 0x164B JUMP JUMPDEST JUMPDEST PUSH1 0x0 PUSH2 0x1762 DUP7 DUP3 DUP8 ADD PUSH2 0x1726 JUMP JUMPDEST SWAP4 POP POP PUSH1 0x20 PUSH2 0x1773 DUP7 DUP3 DUP8 ADD PUSH2 0x1726 JUMP JUMPDEST SWAP3 POP POP PUSH1 0x40 PUSH2 0x1784 DUP7 DUP3 DUP8 ADD PUSH2 0x1671 JUMP JUMPDEST SWAP2 POP POP SWAP3 POP SWAP3 POP SWAP3 JUMP JUMPDEST PUSH1 0x0 PUSH1 0x20 DUP3 DUP5 SUB SLT ISZERO PUSH2 0x17A4 JUMPI PUSH2 0x17A3 PUSH2 0x164B JUMP JUMPDEST JUMPDEST PUSH1 0x0 PUSH2 0x17B2 DUP5 DUP3 DUP6 ADD PUSH2 0x1726 JUMP JUMPDEST SWAP2 POP POP SWAP3 SWAP2 POP POP JUMP JUMPDEST PUSH1 0x0 DUP2 MLOAD SWAP1 POP SWAP2 SWAP1 POP JUMP JUMPDEST PUSH1 0x0 DUP3 DUP3 MSTORE PUSH1 0x20 DUP3 ADD SWAP1 POP SWAP3 SWAP2 POP POP JUMP JUMPDEST PUSH1 0x0 DUP2 SWAP1 POP PUSH1 0x20 DUP3 ADD SWAP1 POP SWAP2 SWAP1 POP JUMP JUMPDEST PUSH2 0x17F0 DUP2 PUSH2 0x1650 JUMP JUMPDEST DUP3 MSTORE POP POP JUMP JUMPDEST PUSH1 0x0 PUSH2 0x1802 DUP4 DUP4 PUSH2 0x17E7 JUMP JUMPDEST PUSH1 0x20 DUP4 ADD SWAP1 POP SWAP3 SWAP2 POP POP JUMP JUMPDEST PUSH1 0x0 PUSH1 0x20 DUP3 ADD SWAP1 POP SWAP2 SWAP1 POP JUMP JUMPDEST PUSH1 0x0 PUSH2 0x1826 DUP3 PUSH2 0x17BB JUMP JUMPDEST PUSH2 0x1830 DUP2 DUP6 PUSH2 0x17C6 JUMP JUMPDEST SWAP4 POP PUSH2 0x183B DUP4 PUSH2 0x17D7 JUMP JUMPDEST DUP1 PUSH1 0x0 JUMPDEST DUP4 DUP2 LT ISZERO PUSH2 0x186C JUMPI DUP2 MLOAD PUSH2 0x1853 DUP9 DUP3 PUSH2 0x17F6 JUMP JUMPDEST SWAP8 POP PUSH2 0x185E DUP4 PUSH2 0x180E JUMP JUMPDEST SWAP3 POP POP PUSH1 0x1 DUP2 ADD SWAP1 POP PUSH2 0x183F JUMP JUMPDEST POP DUP6 SWAP4 POP POP POP POP SWAP3 SWAP2 POP POP JUMP JUMPDEST PUSH1 0x0 PUSH1 0x20 DUP3 ADD SWAP1 POP DUP2 DUP2 SUB PUSH1 0x0 DUP4 ADD MSTORE PUSH2 0x1893 DUP2 DUP5 PUSH2 0x181B JUMP JUMPDEST SWAP1 POP SWAP3 SWAP2 POP POP JUMP JUMPDEST PUSH1 0x0 DUP1 PUSH1 0x40 DUP4 DUP6 SUB SLT ISZERO PUSH2 0x18B2 JUMPI PUSH2 0x18B1 PUSH2 0x164B JUMP JUMPDEST JUMPDEST PUSH1 0x0 PUSH2 0x18C0 DUP6 DUP3 DUP7 ADD PUSH2 0x1671 JUMP JUMPDEST SWAP3 POP POP PUSH1 0x20 PUSH2 0x18D1 DUP6 DUP3 DUP7 ADD PUSH2 0x1671 JUMP JUMPDEST SWAP2 POP POP SWAP3 POP SWAP3 SWAP1 POP JUMP JUMPDEST PUSH1 0x0 PUSH2 0x18E6 DUP3 PUSH2 0x16B3 JUMP JUMPDEST SWAP1 POP SWAP2 SWAP1 POP JUMP JUMPDEST PUSH2 0x18F6 DUP2 PUSH2 0x18DB JUMP JUMPDEST DUP3 MSTORE POP POP JUMP JUMPDEST PUSH1 0x0 PUSH1 0x20 DUP3 ADD SWAP1 POP PUSH2 0x1911 PUSH1 0x0 DUP4 ADD DUP5 PUSH2 0x18ED JUMP JUMPDEST SWAP3 SWAP2 POP POP JUMP JUMPDEST PUSH2 0x1920 DUP2 PUSH2 0x18DB JUMP JUMPDEST DUP3 MSTORE POP POP JUMP JUMPDEST PUSH1 0xA0 DUP3 ADD PUSH1 0x0 DUP3 ADD MLOAD PUSH2 0x193C PUSH1 0x0 DUP6 ADD DUP3 PUSH2 0x1917 JUMP JUMPDEST POP PUSH1 0x20 DUP3 ADD MLOAD PUSH2 0x194F PUSH1 0x20 DUP6 ADD DUP3 PUSH2 0x17E7 JUMP JUMPDEST POP PUSH1 0x40 DUP3 ADD MLOAD PUSH2 0x1962 PUSH1 0x40 DUP6 ADD DUP3 PUSH2 0x17E7 JUMP JUMPDEST POP PUSH1 0x60 DUP3 ADD MLOAD PUSH2 0x1975 PUSH1 0x60 DUP6 ADD DUP3 PUSH2 0x17E7 JUMP JUMPDEST POP PUSH1 0x80 DUP3 ADD MLOAD PUSH2 0x1988 PUSH1 0x80 DUP6 ADD DUP3 PUSH2 0x17E7 JUMP JUMPDEST POP POP POP POP JUMP JUMPDEST PUSH1 0x0 PUSH1 0xA0 DUP3 ADD SWAP1 POP PUSH2 0x19A3 PUSH1 0x0 DUP4 ADD DUP5 PUSH2 0x1926 JUMP JUMPDEST SWAP3 SWAP2 POP POP JUMP JUMPDEST PUSH2 0x19B2 DUP2 PUSH2 0x1650 JUMP JUMPDEST DUP3 MSTORE POP POP JUMP JUMPDEST PUSH1 0x0 PUSH1 0x20 DUP3 ADD SWAP1 POP PUSH2 0x19CD PUSH1 0x0 DUP4 ADD DUP5 PUSH2 0x19A9 JUMP JUMPDEST SWAP3 SWAP2 POP POP JUMP JUMPDEST PUSH1 0x0 DUP3 DUP3 MSTORE PUSH1 0x20 DUP3 ADD SWAP1 POP SWAP3 SWAP2 POP POP JUMP JUMPDEST PUSH32 0x4552433732313A2063616C6C6572206973206E6F7420746F6B656E206F776E65 PUSH1 0x0 DUP3 ADD MSTORE PUSH32 0x72206F7220617070726F76656400000000000000000000000000000000000000 PUSH1 0x20 DUP3 ADD MSTORE POP JUMP JUMPDEST PUSH1 0x0 PUSH2 0x1A40 PUSH1 0x2D DUP4 PUSH2 0x19D3 JUMP JUMPDEST SWAP2 POP PUSH2 0x1A4B DUP3 PUSH2 0x19E4 JUMP JUMPDEST PUSH1 0x40 DUP3 ADD SWAP1 POP SWAP2 SWAP1 POP JUMP JUMPDEST PUSH1 0x0 PUSH1 0x20 DUP3 ADD SWAP1 POP DUP2 DUP2 SUB PUSH1 0x0 DUP4 ADD MSTORE PUSH2 0x1A6F DUP2 PUSH2 0x1A33 JUMP JUMPDEST SWAP1 POP SWAP2 SWAP1 POP JUMP JUMPDEST PUSH32 0x4552433732313A207472616E736665722066726F6D20696E636F727265637420 PUSH1 0x0 DUP3 ADD MSTORE PUSH32 0x6F776E6572000000000000000000000000000000000000000000000000000000 PUSH1 0x20 DUP3 ADD MSTORE POP JUMP JUMPDEST PUSH1 0x0 PUSH2 0x1AD2 PUSH1 0x25 DUP4 PUSH2 0x19D3 JUMP JUMPDEST SWAP2 POP PUSH2 0x1ADD DUP3 PUSH2 0x1A76 JUMP JUMPDEST PUSH1 0x40 DUP3 ADD SWAP1 POP SWAP2 SWAP1 POP JUMP JUMPDEST PUSH1 0x0 PUSH1 0x20 DUP3 ADD SWAP1 POP DUP2 DUP2 SUB PUSH1 0x0 DUP4 ADD MSTORE PUSH2 0x1B01 DUP2 PUSH2 0x1AC5 JUMP JUMPDEST SWAP1 POP SWAP2 SWAP1 POP JUMP JUMPDEST PUSH32 0x4552433732313A207472616E7366657220746F20746865207A65726F20616464 PUSH1 0x0 DUP3 ADD MSTORE PUSH32 0x7265737300000000000000000000000000000000000000000000000000000000 PUSH1 0x20 DUP3 ADD MSTORE POP JUMP JUMPDEST PUSH1 0x0 PUSH2 0x1B64 PUSH1 0x24 DUP4 PUSH2 0x19D3 JUMP JUMPDEST SWAP2 POP PUSH2 0x1B6F DUP3 PUSH2 0x1B08 JUMP JUMPDEST PUSH1 0x40 DUP3 ADD SWAP1 POP SWAP2 SWAP1 POP JUMP JUMPDEST PUSH1 0x0 PUSH1 0x20 DUP3 ADD SWAP1 POP DUP2 DUP2 SUB PUSH1 0x0 DUP4 ADD MSTORE PUSH2 0x1B93 DUP2 PUSH2 0x1B57 JUMP JUMPDEST SWAP1 POP SWAP2 SWAP1 POP JUMP JUMPDEST PUSH32 0x596F7520646F206E6F74206F776E207468697320706C61796572000000000000 PUSH1 0x0 DUP3 ADD MSTORE POP JUMP JUMPDEST PUSH1 0x0 PUSH2 0x1BD0 PUSH1 0x1A DUP4 PUSH2 0x19D3 JUMP JUMPDEST SWAP2 POP PUSH2 0x1BDB DUP3 PUSH2 0x1B9A JUMP JUMPDEST PUSH1 0x20 DUP3 ADD SWAP1 POP SWAP2 SWAP1 POP JUMP JUMPDEST PUSH1 0x0 PUSH1 0x20 DUP3 ADD SWAP1 POP DUP2 DUP2 SUB PUSH1 0x0 DUP4 ADD MSTORE PUSH2 0x1BFF DUP2 PUSH2 0x1BC3 JUMP JUMPDEST SWAP1 POP SWAP2 SWAP1 POP JUMP JUMPDEST PUSH32 0x506C617965722073746175732069732069646C65000000000000000000000000 PUSH1 0x0 DUP3 ADD MSTORE POP JUMP JUMPDEST PUSH1 0x0 PUSH2 0x1C3C PUSH1 0x14 DUP4 PUSH2 0x19D3 JUMP JUMPDEST SWAP2 POP PUSH2 0x1C47 DUP3 PUSH2 0x1C06 JUMP JUMPDEST PUSH1 0x20 DUP3 ADD SWAP1 POP SWAP2 SWAP1 POP JUMP JUMPDEST PUSH1 0x0 PUSH1 0x20 DUP3 ADD SWAP1 POP DUP2 DUP2 SUB PUSH1 0x0 DUP4 ADD MSTORE PUSH2 0x1C6B DUP2 PUSH2 0x1C2F JUMP JUMPDEST SWAP1 POP SWAP2 SWAP1 POP JUMP JUMPDEST PUSH32 0x63616C6C6572206D75737420626520746865206F776E6572206F662074686520 PUSH1 0x0 DUP3 ADD MSTORE PUSH32 0x6C697374696E6700000000000000000000000000000000000000000000000000 PUSH1 0x20 DUP3 ADD MSTORE POP JUMP JUMPDEST PUSH1 0x0 PUSH2 0x1CCE PUSH1 0x27 DUP4 PUSH2 0x19D3 JUMP JUMPDEST SWAP2 POP PUSH2 0x1CD9 DUP3 PUSH2 0x1C72 JUMP JUMPDEST PUSH1 0x40 DUP3 ADD SWAP1 POP SWAP2 SWAP1 POP JUMP JUMPDEST PUSH1 0x0 PUSH1 0x20 DUP3 ADD SWAP1 POP DUP2 DUP2 SUB PUSH1 0x0 DUP4 ADD MSTORE PUSH2 0x1CFD DUP2 PUSH2 0x1CC1 JUMP JUMPDEST SWAP1 POP SWAP2 SWAP1 POP JUMP JUMPDEST PUSH32 0x4E487B7100000000000000000000000000000000000000000000000000000000 PUSH1 0x0 MSTORE PUSH1 0x11 PUSH1 0x4 MSTORE PUSH1 0x24 PUSH1 0x0 REVERT JUMPDEST PUSH1 0x0 PUSH2 0x1D3E DUP3 PUSH2 0x1650 JUMP JUMPDEST SWAP2 POP PUSH2 0x1D49 DUP4 PUSH2 0x1650 JUMP JUMPDEST SWAP3 POP DUP3 DUP3 SUB SWAP1 POP DUP2 DUP2 GT ISZERO PUSH2 0x1D61 JUMPI PUSH2 0x1D60 PUSH2 0x1D04 JUMP JUMPDEST JUMPDEST SWAP3 SWAP2 POP POP JUMP JUMPDEST PUSH32 0x4E487B7100000000000000000000000000000000000000000000000000000000 PUSH1 0x0 MSTORE PUSH1 0x32 PUSH1 0x4 MSTORE PUSH1 0x24 PUSH1 0x0 REVERT JUMPDEST PUSH32 0x4E487B7100000000000000000000000000000000000000000000000000000000 PUSH1 0x0 MSTORE PUSH1 0x31 PUSH1 0x4 MSTORE PUSH1 0x24 PUSH1 0x0 REVERT JUMPDEST PUSH32 0x5F746F2063616E6E6F74206265207A65726F2061646472657373000000000000 PUSH1 0x0 DUP3 ADD MSTORE POP JUMP JUMPDEST PUSH1 0x0 PUSH2 0x1DFB PUSH1 0x1A DUP4 PUSH2 0x19D3 JUMP JUMPDEST SWAP2 POP PUSH2 0x1E06 DUP3 PUSH2 0x1DC5 JUMP JUMPDEST PUSH1 0x20 DUP3 ADD SWAP1 POP SWAP2 SWAP1 POP JUMP JUMPDEST PUSH1 0x0 PUSH1 0x20 DUP3 ADD SWAP1 POP DUP2 DUP2 SUB PUSH1 0x0 DUP4 ADD MSTORE PUSH2 0x1E2A DUP2 PUSH2 0x1DEE JUMP JUMPDEST SWAP1 POP SWAP2 SWAP1 POP JUMP JUMPDEST PUSH1 0x0 PUSH2 0x1E3C DUP3 PUSH2 0x1650 JUMP JUMPDEST SWAP2 POP PUSH32 0xFFFFFFFFFFFFFFFFFFFFFFFFFFFFFFFFFFFFFFFFFFFFFFFFFFFFFFFFFFFFFFFF DUP3 SUB PUSH2 0x1E6E JUMPI PUSH2 0x1E6D PUSH2 0x1D04 JUMP JUMPDEST JUMPDEST PUSH1 0x1 DUP3 ADD SWAP1 POP SWAP2 SWAP1 POP JUMP JUMPDEST PUSH1 0x0 PUSH2 0x1E84 DUP3 PUSH2 0x1650 JUMP JUMPDEST SWAP2 POP PUSH1 0x0 DUP3 SUB PUSH2 0x1E97 JUMPI PUSH2 0x1E96 PUSH2 0x1D04 JUMP JUMPDEST JUMPDEST PUSH1 0x1 DUP3 SUB SWAP1 POP SWAP2 SWAP1 POP JUMP INVALID LOG2 PUSH5 0x6970667358 0x22 SLT KECCAK256 CALLCODE SWAP7 EXTCODECOPY SWAP5 0xD 0xB9 GASLIMIT 0xBD MSIZE 0x5F GASLIMIT SGT GASPRICE KECCAK256 0xC2 0xB5 0xBD 0xFB PUSH5 0xF4F137A58B 0x2A 0xEE 0xA6 PC 0xDD MSTORE8 0xAD PUSH31 0x64736F6C634300081100330000000000000000000000000000000000000000 "},"methodIdentifiers":{"createPlayerListing(uint256,uint256)":"52d2872a","deListPlayer(uint256)":"a61896e6","feeAccount()":"65e17c9d","getAllPlayerListings()":"52605d41","getPlayerListing(uint256)":"74e55f32","getPlayerListingsByAddress(address)":"4ae8e577","owners(uint256)":"025e7c27","purchasePlayer(uint256)":"075881d6","transferFrom(address,address,uint256)":"23b872dd"}}}}}