{"contracts/facets/MonsterFacet.sol":{"MonsterFacet":{"abi":[{"anonymous":false,"inputs":[{"indexed":true,"internalType":"uint256","name":"_monsterId","type":"uint256"}],"name":"CreateBasicMonster","type":"event"},{"anonymous":false,"inputs":[{"indexed":true,"internalType":"uint256","name":"_playerId","type":"uint256"}],"name":"DragonQuest","type":"event"},{"anonymous":false,"inputs":[{"indexed":true,"internalType":"uint256","name":"_monsterId","type":"uint256"},{"indexed":false,"internalType":"uint256","name":"_playerId","type":"uint256"}],"name":"FightBasicMonster","type":"event"},{"inputs":[{"internalType":"uint256","name":"_xpReward","type":"uint256"},{"internalType":"uint256","name":"_damage","type":"uint256"},{"internalType":"uint256","name":"_hp","type":"uint256"},{"internalType":"uint256","name":"_cooldown","type":"uint256"},{"internalType":"string","name":"_name","type":"string"},{"internalType":"string","name":"_uri","type":"string"}],"name":"createBasicMonster","outputs":[],"stateMutability":"nonpayable","type":"function"},{"inputs":[{"internalType":"uint256","name":"_playerId","type":"uint256"}],"name":"dragonQuest","outputs":[{"internalType":"bool","name":"result","type":"bool"}],"stateMutability":"nonpayable","type":"function"},{"inputs":[{"internalType":"uint256","name":"_playerId","type":"uint256"},{"internalType":"uint256","name":"_monsterId","type":"uint256"}],"name":"fightBasicMonster","outputs":[],"stateMutability":"nonpayable","type":"function"},{"inputs":[{"internalType":"uint256","name":"_monsterId","type":"uint256"}],"name":"getBasicMonster","outputs":[{"components":[{"internalType":"uint256","name":"monsterId","type":"uint256"},{"internalType":"uint256","name":"xpReward","type":"uint256"},{"internalType":"uint256","name":"damage","type":"uint256"},{"internalType":"uint256","name":"hp","type":"uint256"},{"internalType":"uint256","name":"cooldown","type":"uint256"},{"internalType":"string","name":"name","type":"string"},{"internalType":"string","name":"uri","type":"string"}],"internalType":"struct BasicMonster","name":"","type":"tuple"}],"stateMutability":"view","type":"function"},{"inputs":[{"internalType":"uint256","name":"_playerId","type":"uint256"},{"internalType":"uint256","name":"_monsterId","type":"uint256"}],"name":"getBasicMonsterCooldown","outputs":[{"internalType":"uint256","name":"","type":"uint256"}],"stateMutability":"view","type":"function"},{"inputs":[],"name":"getMonsterCounter","outputs":[{"internalType":"uint256","name":"","type":"uint256"}],"stateMutability":"view","type":"function"}],"evm":{"bytecode":{"linkReferences":{},"object":"608060405234801561001057600080fd5b506118ae806100206000396000f3fe608060405234801561001057600080fd5b50600436106100625760003560e01c80630207f11f1461006757806315e840d7146100975780634b3564c8146100c7578063874e59a8146100e3578063fc2875d414610113578063fda30d4c1461012f575b600080fd5b610081600480360381019061007c9190610da1565b61014d565b60405161008e9190610de9565b60405180910390f35b6100b160048036038101906100ac9190610e04565b610193565b6040516100be9190610e53565b60405180910390f35b6100e160048036038101906100dc9190610fb4565b6101a7565b005b6100fd60048036038101906100f89190610da1565b6101f1565b60405161010a91906111aa565b60405180910390f35b61012d60048036038101906101289190610e04565b610209565b005b61013761024f565b6040516101449190610e53565b60405180910390f35b60006101588261025e565b9050801561018e57817f897b5c7abcb9d1af199c95f7485f50c3e0dbed9b05f3068b69fd66613c34c38660405160405180910390a25b919050565b600061019f8383610602565b905092915050565b6101b586868686868661063f565b6101bd61071f565b7f856d040967b09806c1357161c96c37bd00e1ddf47865abb6b6bc96b15edc1e3960405160405180910390a2505050505050565b6101f9610d1a565b61020282610737565b9050919050565b61021382826108c9565b807fac9c0073f52a3b08821048912ffb937aaac393618f0474f2ef7960ed035c3d30836040516102439190610e53565b60405180910390a25050565b600061025961071f565b905090565b600080610269610bd6565b90506000610275610c03565b90506000610281610c30565b9050600061028d610c5d565b9050600084600301600088815260200190815260200160002060020154146102b457600080fd5b3373ffffffffffffffffffffffffffffffffffffffff1684600201600088815260200190815260200160002060009054906101000a900473ffffffffffffffffffffffffffffffffffffffff1673ffffffffffffffffffffffffffffffffffffffff161461032157600080fd5b61a8c08360040160008881526020019081526020016000205461034491906111fb565b42101561035057600080fd5b60405160200161035f90611286565b604051602081830303815290604052805190602001208260020160008660030160008a81526020019081526020016000206012016000015481526020019081526020016000206007016040516020016103b89190611393565b604051602081830303815290604052805190602001201461040e576040517f08c379a000000000000000000000000000000000000000000000000000000000815260040161040590611407565b60405180910390fd5b42836004016000888152602001908152602001600020819055506013601461043588610c8a565b61043f9190611456565b106105f45780600001600081548092919061045990611487565b9190505550604051806080016040528082600001548152602001600281526020018260030160008981526020019081526020016000208054905081526020016040518060400160405280600681526020017f447363616c65000000000000000000000000000000000000000000000000000081525081525081600201600083600001548152602001908152602001600020600082015181600001556020820151816001015560408201518160020155606082015181600301908161051d9190611666565b5090505080600301600087815260200190815260200160002081600001549080600181540180825580915050600190039060005260206000200160009091909190915055338160010160008360000154815260200190815260200160002060006101000a81548173ffffffffffffffffffffffffffffffffffffffff021916908373ffffffffffffffffffffffffffffffffffffffff16021790555083600301600087815260200190815260200160002060010160008154809291906105e290611487565b919050555060019450505050506105fd565b60009450505050505b919050565b60008061060d610c03565b905080600201600084815260200190815260200160002060008581526020019081526020016000205491505092915050565b6000610649610c03565b905080600001600081548092919061066090611487565b91905055506040518060e00160405280826000015481526020018881526020018781526020018681526020018581526020018481526020018381525081600301600083600001548152602001908152602001600020600082015181600001556020820151816001015560408201518160020155606082015181600301556080820151816004015560a08201518160050190816106fc9190611666565b5060c08201518160060190816107129190611666565b5090505050505050505050565b60008061072a610c03565b9050806000015491505090565b61073f610d1a565b6000610749610c03565b90508060030160008481526020019081526020016000206040518060e001604052908160008201548152602001600182015481526020016002820154815260200160038201548152602001600482015481526020016005820180546107ad906112ca565b80601f01602080910402602001604051908101604052809291908181526020018280546107d9906112ca565b80156108265780601f106107fb57610100808354040283529160200191610826565b820191906000526020600020905b81548152906001019060200180831161080957829003601f168201915b5050505050815260200160068201805461083f906112ca565b80601f016020809104026020016040519081016040528092919081815260200182805461086b906112ca565b80156108b85780601f1061088d576101008083540402835291602001916108b8565b820191906000526020600020905b81548152906001019060200180831161089b57829003601f168201915b505050505081525050915050919050565b60006108d3610c03565b905060006108df610bd6565b90506000816003016000868152602001908152602001600020600201541461090657600080fd5b3373ffffffffffffffffffffffffffffffffffffffff1681600201600086815260200190815260200160002060009054906101000a900473ffffffffffffffffffffffffffffffffffffffff1673ffffffffffffffffffffffffffffffffffffffff161461097357600080fd5b600082600301600085815260200190815260200160002060020154826003016000878152602001908152602001600020600e015410156109fd576001826003016000878152602001908152602001600020600e0154846003016000878152602001908152602001600020600201546109eb9190611738565b6109f591906111fb565b905080610a03565b60019050805b50808260030160008781526020019081526020016000206005015411610a5e576040517f08c379a0000000000000000000000000000000000000000000000000000000008152600401610a55906117b8565b60405180910390fd5b6000600284600301600087815260200190815260200160002060040154610a8591906117d8565b836003016000888152602001908152602001600020600901541015610af457600a8360030160008881526020019081526020016000206009015485600301600088815260200190815260200160002060040154610ae29190611738565b610aec91906111fb565b905080610b1d565b600284600301600087815260200190815260200160002060040154610b1991906117d8565b9050805b5080846002016000878152602001908152602001600020600088815260200190815260200160002054610b5091906111fb565b421015610b5c57600080fd5b836003016000868152602001908152602001600020600101548360030160008881526020019081526020016000206001016000828254610b9c91906111fb565b9250508190555042846002016000878152602001908152602001600020600088815260200190815260200160002081905550505050505050565b6000807f3cab9a070a0c61cd0ae9d9e9e2c0781e5ca8691bec4087e5a4701d5ac018dd4e90508091505090565b6000807f32545638e04f9bb0e18c6b7b873428ebfe8afc357b1d991bfe15d0950d92384590508091505090565b6000807faad0511195ddfb575f5187a7172ca6fc330f129a86291f15eaa5f7537ab038dc90508091505090565b6000807fb5dbbc334907f600e1151190a68c4043043163a23a907389a2c6f6231ed4318b90508091505090565b600080610c95610ced565b9050806000016000815480929190610cac90611487565b91905055504244848360000154604051602001610ccc949392919061182a565b6040516020818303038152906040528051906020012060001c915050919050565b6000807ff76a8e66124dac83b46aecd7c4256d5158e69f6adf88592fd8146c79e007626e90508091505090565b6040518060e00160405280600081526020016000815260200160008152602001600081526020016000815260200160608152602001606081525090565b6000604051905090565b600080fd5b600080fd5b6000819050919050565b610d7e81610d6b565b8114610d8957600080fd5b50565b600081359050610d9b81610d75565b92915050565b600060208284031215610db757610db6610d61565b5b6000610dc584828501610d8c565b91505092915050565b60008115159050919050565b610de381610dce565b82525050565b6000602082019050610dfe6000830184610dda565b92915050565b60008060408385031215610e1b57610e1a610d61565b5b6000610e2985828601610d8c565b9250506020610e3a85828601610d8c565b9150509250929050565b610e4d81610d6b565b82525050565b6000602082019050610e686000830184610e44565b92915050565b600080fd5b600080fd5b6000601f19601f8301169050919050565b7f4e487b7100000000000000000000000000000000000000000000000000000000600052604160045260246000fd5b610ec182610e78565b810181811067ffffffffffffffff82111715610ee057610edf610e89565b5b80604052505050565b6000610ef3610d57565b9050610eff8282610eb8565b919050565b600067ffffffffffffffff821115610f1f57610f1e610e89565b5b610f2882610e78565b9050602081019050919050565b82818337600083830152505050565b6000610f57610f5284610f04565b610ee9565b905082815260208101848484011115610f7357610f72610e73565b5b610f7e848285610f35565b509392505050565b600082601f830112610f9b57610f9a610e6e565b5b8135610fab848260208601610f44565b91505092915050565b60008060008060008060c08789031215610fd157610fd0610d61565b5b6000610fdf89828a01610d8c565b9650506020610ff089828a01610d8c565b955050604061100189828a01610d8c565b945050606061101289828a01610d8c565b935050608087013567ffffffffffffffff81111561103357611032610d66565b5b61103f89828a01610f86565b92505060a087013567ffffffffffffffff8111156110605761105f610d66565b5b61106c89828a01610f86565b9150509295509295509295565b61108281610d6b565b82525050565b600081519050919050565b600082825260208201905092915050565b60005b838110156110c25780820151818401526020810190506110a7565b60008484015250505050565b60006110d982611088565b6110e38185611093565b93506110f38185602086016110a4565b6110fc81610e78565b840191505092915050565b600060e08301600083015161111f6000860182611079565b5060208301516111326020860182611079565b5060408301516111456040860182611079565b5060608301516111586060860182611079565b50608083015161116b6080860182611079565b5060a083015184820360a086015261118382826110ce565b91505060c083015184820360c086015261119d82826110ce565b9150508091505092915050565b600060208201905081810360008301526111c48184611107565b905092915050565b7f4e487b7100000000000000000000000000000000000000000000000000000000600052601160045260246000fd5b600061120682610d6b565b915061121183610d6b565b9250828201905080821115611229576112286111cc565b5b92915050565b600081905092915050565b7f57697a4861740000000000000000000000000000000000000000000000000000600082015250565b600061127060068361122f565b915061127b8261123a565b600682019050919050565b600061129182611263565b9150819050919050565b7f4e487b7100000000000000000000000000000000000000000000000000000000600052602260045260246000fd5b600060028204905060018216806112e257607f821691505b6020821081036112f5576112f461129b565b5b50919050565b60008190508160005260206000209050919050565b6000815461131d816112ca565b611327818661122f565b9450600182166000811461134257600181146113575761138a565b60ff198316865281151582028601935061138a565b611360856112fb565b60005b8381101561138257815481890152600182019150602081019050611363565b838801955050505b50505092915050565b600061139f8284611310565b915081905092915050565b600082825260208201905092915050565b7f6e6f742077656172696e67206861740000000000000000000000000000000000600082015250565b60006113f1600f836113aa565b91506113fc826113bb565b602082019050919050565b60006020820190508181036000830152611420816113e4565b9050919050565b7f4e487b7100000000000000000000000000000000000000000000000000000000600052601260045260246000fd5b600061146182610d6b565b915061146c83610d6b565b92508261147c5761147b611427565b5b828206905092915050565b600061149282610d6b565b91507fffffffffffffffffffffffffffffffffffffffffffffffffffffffffffffffff82036114c4576114c36111cc565b5b600182019050919050565b60006020601f8301049050919050565b600082821b905092915050565b60006008830261151c7fffffffffffffffffffffffffffffffffffffffffffffffffffffffffffffffff826114df565b61152686836114df565b95508019841693508086168417925050509392505050565b6000819050919050565b600061156361155e61155984610d6b565b61153e565b610d6b565b9050919050565b6000819050919050565b61157d83611548565b6115916115898261156a565b8484546114ec565b825550505050565b600090565b6115a6611599565b6115b1818484611574565b505050565b5b818110156115d5576115ca60008261159e565b6001810190506115b7565b5050565b601f82111561161a576115eb816112fb565b6115f4846114cf565b81016020851015611603578190505b61161761160f856114cf565b8301826115b6565b50505b505050565b600082821c905092915050565b600061163d6000198460080261161f565b1980831691505092915050565b6000611656838361162c565b9150826002028217905092915050565b61166f82611088565b67ffffffffffffffff81111561168857611687610e89565b5b61169282546112ca565b61169d8282856115d9565b600060209050601f8311600181146116d057600084156116be578287015190505b6116c8858261164a565b865550611730565b601f1984166116de866112fb565b60005b82811015611706578489015182556001820191506020850194506020810190506116e1565b86831015611723578489015161171f601f89168261162c565b8355505b6001600288020188555050505b505050505050565b600061174382610d6b565b915061174e83610d6b565b9250828203905081811115611766576117656111cc565b5b92915050565b7f6e6f7420656e6f75676820687000000000000000000000000000000000000000600082015250565b60006117a2600d836113aa565b91506117ad8261176c565b602082019050919050565b600060208201905081810360008301526117d181611795565b9050919050565b60006117e382610d6b565b91506117ee83610d6b565b9250826117fe576117fd611427565b5b828204905092915050565b6000819050919050565b61182461181f82610d6b565b611809565b82525050565b60006118368287611813565b6020820191506118468286611813565b6020820191506118568285611813565b6020820191506118668284611813565b6020820191508190509594505050505056fea2646970667358221220a2251fa575c475a98b92ff7dd1374c8f302a3487e827cfd71d82c10075939dc864736f6c63430008110033","opcodes":"PUSH1 0x80 PUSH1 0x40 MSTORE CALLVALUE DUP1 ISZERO PUSH2 0x10 JUMPI PUSH1 0x0 DUP1 REVERT JUMPDEST POP PUSH2 0x18AE DUP1 PUSH2 0x20 PUSH1 0x0 CODECOPY PUSH1 0x0 RETURN INVALID PUSH1 0x80 PUSH1 0x40 MSTORE CALLVALUE DUP1 ISZERO PUSH2 0x10 JUMPI PUSH1 0x0 DUP1 REVERT JUMPDEST POP PUSH1 0x4 CALLDATASIZE LT PUSH2 0x62 JUMPI PUSH1 0x0 CALLDATALOAD PUSH1 0xE0 SHR DUP1 PUSH4 0x207F11F EQ PUSH2 0x67 JUMPI DUP1 PUSH4 0x15E840D7 EQ PUSH2 0x97 JUMPI DUP1 PUSH4 0x4B3564C8 EQ PUSH2 0xC7 JUMPI DUP1 PUSH4 0x874E59A8 EQ PUSH2 0xE3 JUMPI DUP1 PUSH4 0xFC2875D4 EQ PUSH2 0x113 JUMPI DUP1 PUSH4 0xFDA30D4C EQ PUSH2 0x12F JUMPI JUMPDEST PUSH1 0x0 DUP1 REVERT JUMPDEST PUSH2 0x81 PUSH1 0x4 DUP1 CALLDATASIZE SUB DUP2 ADD SWAP1 PUSH2 0x7C SWAP2 SWAP1 PUSH2 0xDA1 JUMP JUMPDEST PUSH2 0x14D JUMP JUMPDEST PUSH1 0x40 MLOAD PUSH2 0x8E SWAP2 SWAP1 PUSH2 0xDE9 JUMP JUMPDEST PUSH1 0x40 MLOAD DUP1 SWAP2 SUB SWAP1 RETURN JUMPDEST PUSH2 0xB1 PUSH1 0x4 DUP1 CALLDATASIZE SUB DUP2 ADD SWAP1 PUSH2 0xAC SWAP2 SWAP1 PUSH2 0xE04 JUMP JUMPDEST PUSH2 0x193 JUMP JUMPDEST PUSH1 0x40 MLOAD PUSH2 0xBE SWAP2 SWAP1 PUSH2 0xE53 JUMP JUMPDEST PUSH1 0x40 MLOAD DUP1 SWAP2 SUB SWAP1 RETURN JUMPDEST PUSH2 0xE1 PUSH1 0x4 DUP1 CALLDATASIZE SUB DUP2 ADD SWAP1 PUSH2 0xDC SWAP2 SWAP1 PUSH2 0xFB4 JUMP JUMPDEST PUSH2 0x1A7 JUMP JUMPDEST STOP JUMPDEST PUSH2 0xFD PUSH1 0x4 DUP1 CALLDATASIZE SUB DUP2 ADD SWAP1 PUSH2 0xF8 SWAP2 SWAP1 PUSH2 0xDA1 JUMP JUMPDEST PUSH2 0x1F1 JUMP JUMPDEST PUSH1 0x40 MLOAD PUSH2 0x10A SWAP2 SWAP1 PUSH2 0x11AA JUMP JUMPDEST PUSH1 0x40 MLOAD DUP1 SWAP2 SUB SWAP1 RETURN JUMPDEST PUSH2 0x12D PUSH1 0x4 DUP1 CALLDATASIZE SUB DUP2 ADD SWAP1 PUSH2 0x128 SWAP2 SWAP1 PUSH2 0xE04 JUMP JUMPDEST PUSH2 0x209 JUMP JUMPDEST STOP JUMPDEST PUSH2 0x137 PUSH2 0x24F JUMP JUMPDEST PUSH1 0x40 MLOAD PUSH2 0x144 SWAP2 SWAP1 PUSH2 0xE53 JUMP JUMPDEST PUSH1 0x40 MLOAD DUP1 SWAP2 SUB SWAP1 RETURN JUMPDEST PUSH1 0x0 PUSH2 0x158 DUP3 PUSH2 0x25E JUMP JUMPDEST SWAP1 POP DUP1 ISZERO PUSH2 0x18E JUMPI DUP2 PUSH32 0x897B5C7ABCB9D1AF199C95F7485F50C3E0DBED9B05F3068B69FD66613C34C386 PUSH1 0x40 MLOAD PUSH1 0x40 MLOAD DUP1 SWAP2 SUB SWAP1 LOG2 JUMPDEST SWAP2 SWAP1 POP JUMP JUMPDEST PUSH1 0x0 PUSH2 0x19F DUP4 DUP4 PUSH2 0x602 JUMP JUMPDEST SWAP1 POP SWAP3 SWAP2 POP POP JUMP JUMPDEST PUSH2 0x1B5 DUP7 DUP7 DUP7 DUP7 DUP7 DUP7 PUSH2 0x63F JUMP JUMPDEST PUSH2 0x1BD PUSH2 0x71F JUMP JUMPDEST PUSH32 0x856D040967B09806C1357161C96C37BD00E1DDF47865ABB6B6BC96B15EDC1E39 PUSH1 0x40 MLOAD PUSH1 0x40 MLOAD DUP1 SWAP2 SUB SWAP1 LOG2 POP POP POP POP POP POP JUMP JUMPDEST PUSH2 0x1F9 PUSH2 0xD1A JUMP JUMPDEST PUSH2 0x202 DUP3 PUSH2 0x737 JUMP JUMPDEST SWAP1 POP SWAP2 SWAP1 POP JUMP JUMPDEST PUSH2 0x213 DUP3 DUP3 PUSH2 0x8C9 JUMP JUMPDEST DUP1 PUSH32 0xAC9C0073F52A3B08821048912FFB937AAAC393618F0474F2EF7960ED035C3D30 DUP4 PUSH1 0x40 MLOAD PUSH2 0x243 SWAP2 SWAP1 PUSH2 0xE53 JUMP JUMPDEST PUSH1 0x40 MLOAD DUP1 SWAP2 SUB SWAP1 LOG2 POP POP JUMP JUMPDEST PUSH1 0x0 PUSH2 0x259 PUSH2 0x71F JUMP JUMPDEST SWAP1 POP SWAP1 JUMP JUMPDEST PUSH1 0x0 DUP1 PUSH2 0x269 PUSH2 0xBD6 JUMP JUMPDEST SWAP1 POP PUSH1 0x0 PUSH2 0x275 PUSH2 0xC03 JUMP JUMPDEST SWAP1 POP PUSH1 0x0 PUSH2 0x281 PUSH2 0xC30 JUMP JUMPDEST SWAP1 POP PUSH1 0x0 PUSH2 0x28D PUSH2 0xC5D JUMP JUMPDEST SWAP1 POP PUSH1 0x0 DUP5 PUSH1 0x3 ADD PUSH1 0x0 DUP9 DUP2 MSTORE PUSH1 0x20 ADD SWAP1 DUP2 MSTORE PUSH1 0x20 ADD PUSH1 0x0 KECCAK256 PUSH1 0x2 ADD SLOAD EQ PUSH2 0x2B4 JUMPI PUSH1 0x0 DUP1 REVERT JUMPDEST CALLER PUSH20 0xFFFFFFFFFFFFFFFFFFFFFFFFFFFFFFFFFFFFFFFF AND DUP5 PUSH1 0x2 ADD PUSH1 0x0 DUP9 DUP2 MSTORE PUSH1 0x20 ADD SWAP1 DUP2 MSTORE PUSH1 0x20 ADD PUSH1 0x0 KECCAK256 PUSH1 0x0 SWAP1 SLOAD SWAP1 PUSH2 0x100 EXP SWAP1 DIV PUSH20 0xFFFFFFFFFFFFFFFFFFFFFFFFFFFFFFFFFFFFFFFF AND PUSH20 0xFFFFFFFFFFFFFFFFFFFFFFFFFFFFFFFFFFFFFFFF AND EQ PUSH2 0x321 JUMPI PUSH1 0x0 DUP1 REVERT JUMPDEST PUSH2 0xA8C0 DUP4 PUSH1 0x4 ADD PUSH1 0x0 DUP9 DUP2 MSTORE PUSH1 0x20 ADD SWAP1 DUP2 MSTORE PUSH1 0x20 ADD PUSH1 0x0 KECCAK256 SLOAD PUSH2 0x344 SWAP2 SWAP1 PUSH2 0x11FB JUMP JUMPDEST TIMESTAMP LT ISZERO PUSH2 0x350 JUMPI PUSH1 0x0 DUP1 REVERT JUMPDEST PUSH1 0x40 MLOAD PUSH1 0x20 ADD PUSH2 0x35F SWAP1 PUSH2 0x1286 JUMP JUMPDEST PUSH1 0x40 MLOAD PUSH1 0x20 DUP2 DUP4 SUB SUB DUP2 MSTORE SWAP1 PUSH1 0x40 MSTORE DUP1 MLOAD SWAP1 PUSH1 0x20 ADD KECCAK256 DUP3 PUSH1 0x2 ADD PUSH1 0x0 DUP7 PUSH1 0x3 ADD PUSH1 0x0 DUP11 DUP2 MSTORE PUSH1 0x20 ADD SWAP1 DUP2 MSTORE PUSH1 0x20 ADD PUSH1 0x0 KECCAK256 PUSH1 0x12 ADD PUSH1 0x0 ADD SLOAD DUP2 MSTORE PUSH1 0x20 ADD SWAP1 DUP2 MSTORE PUSH1 0x20 ADD PUSH1 0x0 KECCAK256 PUSH1 0x7 ADD PUSH1 0x40 MLOAD PUSH1 0x20 ADD PUSH2 0x3B8 SWAP2 SWAP1 PUSH2 0x1393 JUMP JUMPDEST PUSH1 0x40 MLOAD PUSH1 0x20 DUP2 DUP4 SUB SUB DUP2 MSTORE SWAP1 PUSH1 0x40 MSTORE DUP1 MLOAD SWAP1 PUSH1 0x20 ADD KECCAK256 EQ PUSH2 0x40E JUMPI PUSH1 0x40 MLOAD PUSH32 0x8C379A000000000000000000000000000000000000000000000000000000000 DUP2 MSTORE PUSH1 0x4 ADD PUSH2 0x405 SWAP1 PUSH2 0x1407 JUMP JUMPDEST PUSH1 0x40 MLOAD DUP1 SWAP2 SUB SWAP1 REVERT JUMPDEST TIMESTAMP DUP4 PUSH1 0x4 ADD PUSH1 0x0 DUP9 DUP2 MSTORE PUSH1 0x20 ADD SWAP1 DUP2 MSTORE PUSH1 0x20 ADD PUSH1 0x0 KECCAK256 DUP2 SWAP1 SSTORE POP PUSH1 0x13 PUSH1 0x14 PUSH2 0x435 DUP9 PUSH2 0xC8A JUMP JUMPDEST PUSH2 0x43F SWAP2 SWAP1 PUSH2 0x1456 JUMP JUMPDEST LT PUSH2 0x5F4 JUMPI DUP1 PUSH1 0x0 ADD PUSH1 0x0 DUP2 SLOAD DUP1 SWAP3 SWAP2 SWAP1 PUSH2 0x459 SWAP1 PUSH2 0x1487 JUMP JUMPDEST SWAP2 SWAP1 POP SSTORE POP PUSH1 0x40 MLOAD DUP1 PUSH1 0x80 ADD PUSH1 0x40 MSTORE DUP1 DUP3 PUSH1 0x0 ADD SLOAD DUP2 MSTORE PUSH1 0x20 ADD PUSH1 0x2 DUP2 MSTORE PUSH1 0x20 ADD DUP3 PUSH1 0x3 ADD PUSH1 0x0 DUP10 DUP2 MSTORE PUSH1 0x20 ADD SWAP1 DUP2 MSTORE PUSH1 0x20 ADD PUSH1 0x0 KECCAK256 DUP1 SLOAD SWAP1 POP DUP2 MSTORE PUSH1 0x20 ADD PUSH1 0x40 MLOAD DUP1 PUSH1 0x40 ADD PUSH1 0x40 MSTORE DUP1 PUSH1 0x6 DUP2 MSTORE PUSH1 0x20 ADD PUSH32 0x447363616C650000000000000000000000000000000000000000000000000000 DUP2 MSTORE POP DUP2 MSTORE POP DUP2 PUSH1 0x2 ADD PUSH1 0x0 DUP4 PUSH1 0x0 ADD SLOAD DUP2 MSTORE PUSH1 0x20 ADD SWAP1 DUP2 MSTORE PUSH1 0x20 ADD PUSH1 0x0 KECCAK256 PUSH1 0x0 DUP3 ADD MLOAD DUP2 PUSH1 0x0 ADD SSTORE PUSH1 0x20 DUP3 ADD MLOAD DUP2 PUSH1 0x1 ADD SSTORE PUSH1 0x40 DUP3 ADD MLOAD DUP2 PUSH1 0x2 ADD SSTORE PUSH1 0x60 DUP3 ADD MLOAD DUP2 PUSH1 0x3 ADD SWAP1 DUP2 PUSH2 0x51D SWAP2 SWAP1 PUSH2 0x1666 JUMP JUMPDEST POP SWAP1 POP POP DUP1 PUSH1 0x3 ADD PUSH1 0x0 DUP8 DUP2 MSTORE PUSH1 0x20 ADD SWAP1 DUP2 MSTORE PUSH1 0x20 ADD PUSH1 0x0 KECCAK256 DUP2 PUSH1 0x0 ADD SLOAD SWAP1 DUP1 PUSH1 0x1 DUP2 SLOAD ADD DUP1 DUP3 SSTORE DUP1 SWAP2 POP POP PUSH1 0x1 SWAP1 SUB SWAP1 PUSH1 0x0 MSTORE PUSH1 0x20 PUSH1 0x0 KECCAK256 ADD PUSH1 0x0 SWAP1 SWAP2 SWAP1 SWAP2 SWAP1 SWAP2 POP SSTORE CALLER DUP2 PUSH1 0x1 ADD PUSH1 0x0 DUP4 PUSH1 0x0 ADD SLOAD DUP2 MSTORE PUSH1 0x20 ADD SWAP1 DUP2 MSTORE PUSH1 0x20 ADD PUSH1 0x0 KECCAK256 PUSH1 0x0 PUSH2 0x100 EXP DUP2 SLOAD DUP2 PUSH20 0xFFFFFFFFFFFFFFFFFFFFFFFFFFFFFFFFFFFFFFFF MUL NOT AND SWAP1 DUP4 PUSH20 0xFFFFFFFFFFFFFFFFFFFFFFFFFFFFFFFFFFFFFFFF AND MUL OR SWAP1 SSTORE POP DUP4 PUSH1 0x3 ADD PUSH1 0x0 DUP8 DUP2 MSTORE PUSH1 0x20 ADD SWAP1 DUP2 MSTORE PUSH1 0x20 ADD PUSH1 0x0 KECCAK256 PUSH1 0x1 ADD PUSH1 0x0 DUP2 SLOAD DUP1 SWAP3 SWAP2 SWAP1 PUSH2 0x5E2 SWAP1 PUSH2 0x1487 JUMP JUMPDEST SWAP2 SWAP1 POP SSTORE POP PUSH1 0x1 SWAP5 POP POP POP POP POP PUSH2 0x5FD JUMP JUMPDEST PUSH1 0x0 SWAP5 POP POP POP POP POP JUMPDEST SWAP2 SWAP1 POP JUMP JUMPDEST PUSH1 0x0 DUP1 PUSH2 0x60D PUSH2 0xC03 JUMP JUMPDEST SWAP1 POP DUP1 PUSH1 0x2 ADD PUSH1 0x0 DUP5 DUP2 MSTORE PUSH1 0x20 ADD SWAP1 DUP2 MSTORE PUSH1 0x20 ADD PUSH1 0x0 KECCAK256 PUSH1 0x0 DUP6 DUP2 MSTORE PUSH1 0x20 ADD SWAP1 DUP2 MSTORE PUSH1 0x20 ADD PUSH1 0x0 KECCAK256 SLOAD SWAP2 POP POP SWAP3 SWAP2 POP POP JUMP JUMPDEST PUSH1 0x0 PUSH2 0x649 PUSH2 0xC03 JUMP JUMPDEST SWAP1 POP DUP1 PUSH1 0x0 ADD PUSH1 0x0 DUP2 SLOAD DUP1 SWAP3 SWAP2 SWAP1 PUSH2 0x660 SWAP1 PUSH2 0x1487 JUMP JUMPDEST SWAP2 SWAP1 POP SSTORE POP PUSH1 0x40 MLOAD DUP1 PUSH1 0xE0 ADD PUSH1 0x40 MSTORE DUP1 DUP3 PUSH1 0x0 ADD SLOAD DUP2 MSTORE PUSH1 0x20 ADD DUP9 DUP2 MSTORE PUSH1 0x20 ADD DUP8 DUP2 MSTORE PUSH1 0x20 ADD DUP7 DUP2 MSTORE PUSH1 0x20 ADD DUP6 DUP2 MSTORE PUSH1 0x20 ADD DUP5 DUP2 MSTORE PUSH1 0x20 ADD DUP4 DUP2 MSTORE POP DUP2 PUSH1 0x3 ADD PUSH1 0x0 DUP4 PUSH1 0x0 ADD SLOAD DUP2 MSTORE PUSH1 0x20 ADD SWAP1 DUP2 MSTORE PUSH1 0x20 ADD PUSH1 0x0 KECCAK256 PUSH1 0x0 DUP3 ADD MLOAD DUP2 PUSH1 0x0 ADD SSTORE PUSH1 0x20 DUP3 ADD MLOAD DUP2 PUSH1 0x1 ADD SSTORE PUSH1 0x40 DUP3 ADD MLOAD DUP2 PUSH1 0x2 ADD SSTORE PUSH1 0x60 DUP3 ADD MLOAD DUP2 PUSH1 0x3 ADD SSTORE PUSH1 0x80 DUP3 ADD MLOAD DUP2 PUSH1 0x4 ADD SSTORE PUSH1 0xA0 DUP3 ADD MLOAD DUP2 PUSH1 0x5 ADD SWAP1 DUP2 PUSH2 0x6FC SWAP2 SWAP1 PUSH2 0x1666 JUMP JUMPDEST POP PUSH1 0xC0 DUP3 ADD MLOAD DUP2 PUSH1 0x6 ADD SWAP1 DUP2 PUSH2 0x712 SWAP2 SWAP1 PUSH2 0x1666 JUMP JUMPDEST POP SWAP1 POP POP POP POP POP POP POP POP POP JUMP JUMPDEST PUSH1 0x0 DUP1 PUSH2 0x72A PUSH2 0xC03 JUMP JUMPDEST SWAP1 POP DUP1 PUSH1 0x0 ADD SLOAD SWAP2 POP POP SWAP1 JUMP JUMPDEST PUSH2 0x73F PUSH2 0xD1A JUMP JUMPDEST PUSH1 0x0 PUSH2 0x749 PUSH2 0xC03 JUMP JUMPDEST SWAP1 POP DUP1 PUSH1 0x3 ADD PUSH1 0x0 DUP5 DUP2 MSTORE PUSH1 0x20 ADD SWAP1 DUP2 MSTORE PUSH1 0x20 ADD PUSH1 0x0 KECCAK256 PUSH1 0x40 MLOAD DUP1 PUSH1 0xE0 ADD PUSH1 0x40 MSTORE SWAP1 DUP2 PUSH1 0x0 DUP3 ADD SLOAD DUP2 MSTORE PUSH1 0x20 ADD PUSH1 0x1 DUP3 ADD SLOAD DUP2 MSTORE PUSH1 0x20 ADD PUSH1 0x2 DUP3 ADD SLOAD DUP2 MSTORE PUSH1 0x20 ADD PUSH1 0x3 DUP3 ADD SLOAD DUP2 MSTORE PUSH1 0x20 ADD PUSH1 0x4 DUP3 ADD SLOAD DUP2 MSTORE PUSH1 0x20 ADD PUSH1 0x5 DUP3 ADD DUP1 SLOAD PUSH2 0x7AD SWAP1 PUSH2 0x12CA JUMP JUMPDEST DUP1 PUSH1 0x1F ADD PUSH1 0x20 DUP1 SWAP2 DIV MUL PUSH1 0x20 ADD PUSH1 0x40 MLOAD SWAP1 DUP2 ADD PUSH1 0x40 MSTORE DUP1 SWAP3 SWAP2 SWAP1 DUP2 DUP2 MSTORE PUSH1 0x20 ADD DUP3 DUP1 SLOAD PUSH2 0x7D9 SWAP1 PUSH2 0x12CA JUMP JUMPDEST DUP1 ISZERO PUSH2 0x826 JUMPI DUP1 PUSH1 0x1F LT PUSH2 0x7FB JUMPI PUSH2 0x100 DUP1 DUP4 SLOAD DIV MUL DUP4 MSTORE SWAP2 PUSH1 0x20 ADD SWAP2 PUSH2 0x826 JUMP JUMPDEST DUP3 ADD SWAP2 SWAP1 PUSH1 0x0 MSTORE PUSH1 0x20 PUSH1 0x0 KECCAK256 SWAP1 JUMPDEST DUP2 SLOAD DUP2 MSTORE SWAP1 PUSH1 0x1 ADD SWAP1 PUSH1 0x20 ADD DUP1 DUP4 GT PUSH2 0x809 JUMPI DUP3 SWAP1 SUB PUSH1 0x1F AND DUP3 ADD SWAP2 JUMPDEST POP POP POP POP POP DUP2 MSTORE PUSH1 0x20 ADD PUSH1 0x6 DUP3 ADD DUP1 SLOAD PUSH2 0x83F SWAP1 PUSH2 0x12CA JUMP JUMPDEST DUP1 PUSH1 0x1F ADD PUSH1 0x20 DUP1 SWAP2 DIV MUL PUSH1 0x20 ADD PUSH1 0x40 MLOAD SWAP1 DUP2 ADD PUSH1 0x40 MSTORE DUP1 SWAP3 SWAP2 SWAP1 DUP2 DUP2 MSTORE PUSH1 0x20 ADD DUP3 DUP1 SLOAD PUSH2 0x86B SWAP1 PUSH2 0x12CA JUMP JUMPDEST DUP1 ISZERO PUSH2 0x8B8 JUMPI DUP1 PUSH1 0x1F LT PUSH2 0x88D JUMPI PUSH2 0x100 DUP1 DUP4 SLOAD DIV MUL DUP4 MSTORE SWAP2 PUSH1 0x20 ADD SWAP2 PUSH2 0x8B8 JUMP JUMPDEST DUP3 ADD SWAP2 SWAP1 PUSH1 0x0 MSTORE PUSH1 0x20 PUSH1 0x0 KECCAK256 SWAP1 JUMPDEST DUP2 SLOAD DUP2 MSTORE SWAP1 PUSH1 0x1 ADD SWAP1 PUSH1 0x20 ADD DUP1 DUP4 GT PUSH2 0x89B JUMPI DUP3 SWAP1 SUB PUSH1 0x1F AND DUP3 ADD SWAP2 JUMPDEST POP POP POP POP POP DUP2 MSTORE POP POP SWAP2 POP POP SWAP2 SWAP1 POP JUMP JUMPDEST PUSH1 0x0 PUSH2 0x8D3 PUSH2 0xC03 JUMP JUMPDEST SWAP1 POP PUSH1 0x0 PUSH2 0x8DF PUSH2 0xBD6 JUMP JUMPDEST SWAP1 POP PUSH1 0x0 DUP2 PUSH1 0x3 ADD PUSH1 0x0 DUP7 DUP2 MSTORE PUSH1 0x20 ADD SWAP1 DUP2 MSTORE PUSH1 0x20 ADD PUSH1 0x0 KECCAK256 PUSH1 0x2 ADD SLOAD EQ PUSH2 0x906 JUMPI PUSH1 0x0 DUP1 REVERT JUMPDEST CALLER PUSH20 0xFFFFFFFFFFFFFFFFFFFFFFFFFFFFFFFFFFFFFFFF AND DUP2 PUSH1 0x2 ADD PUSH1 0x0 DUP7 DUP2 MSTORE PUSH1 0x20 ADD SWAP1 DUP2 MSTORE PUSH1 0x20 ADD PUSH1 0x0 KECCAK256 PUSH1 0x0 SWAP1 SLOAD SWAP1 PUSH2 0x100 EXP SWAP1 DIV PUSH20 0xFFFFFFFFFFFFFFFFFFFFFFFFFFFFFFFFFFFFFFFF AND PUSH20 0xFFFFFFFFFFFFFFFFFFFFFFFFFFFFFFFFFFFFFFFF AND EQ PUSH2 0x973 JUMPI PUSH1 0x0 DUP1 REVERT JUMPDEST PUSH1 0x0 DUP3 PUSH1 0x3 ADD PUSH1 0x0 DUP6 DUP2 MSTORE PUSH1 0x20 ADD SWAP1 DUP2 MSTORE PUSH1 0x20 ADD PUSH1 0x0 KECCAK256 PUSH1 0x2 ADD SLOAD DUP3 PUSH1 0x3 ADD PUSH1 0x0 DUP8 DUP2 MSTORE PUSH1 0x20 ADD SWAP1 DUP2 MSTORE PUSH1 0x20 ADD PUSH1 0x0 KECCAK256 PUSH1 0xE ADD SLOAD LT ISZERO PUSH2 0x9FD JUMPI PUSH1 0x1 DUP3 PUSH1 0x3 ADD PUSH1 0x0 DUP8 DUP2 MSTORE PUSH1 0x20 ADD SWAP1 DUP2 MSTORE PUSH1 0x20 ADD PUSH1 0x0 KECCAK256 PUSH1 0xE ADD SLOAD DUP5 PUSH1 0x3 ADD PUSH1 0x0 DUP8 DUP2 MSTORE PUSH1 0x20 ADD SWAP1 DUP2 MSTORE PUSH1 0x20 ADD PUSH1 0x0 KECCAK256 PUSH1 0x2 ADD SLOAD PUSH2 0x9EB SWAP2 SWAP1 PUSH2 0x1738 JUMP JUMPDEST PUSH2 0x9F5 SWAP2 SWAP1 PUSH2 0x11FB JUMP JUMPDEST SWAP1 POP DUP1 PUSH2 0xA03 JUMP JUMPDEST PUSH1 0x1 SWAP1 POP DUP1 JUMPDEST POP DUP1 DUP3 PUSH1 0x3 ADD PUSH1 0x0 DUP8 DUP2 MSTORE PUSH1 0x20 ADD SWAP1 DUP2 MSTORE PUSH1 0x20 ADD PUSH1 0x0 KECCAK256 PUSH1 0x5 ADD SLOAD GT PUSH2 0xA5E JUMPI PUSH1 0x40 MLOAD PUSH32 0x8C379A000000000000000000000000000000000000000000000000000000000 DUP2 MSTORE PUSH1 0x4 ADD PUSH2 0xA55 SWAP1 PUSH2 0x17B8 JUMP JUMPDEST PUSH1 0x40 MLOAD DUP1 SWAP2 SUB SWAP1 REVERT JUMPDEST PUSH1 0x0 PUSH1 0x2 DUP5 PUSH1 0x3 ADD PUSH1 0x0 DUP8 DUP2 MSTORE PUSH1 0x20 ADD SWAP1 DUP2 MSTORE PUSH1 0x20 ADD PUSH1 0x0 KECCAK256 PUSH1 0x4 ADD SLOAD PUSH2 0xA85 SWAP2 SWAP1 PUSH2 0x17D8 JUMP JUMPDEST DUP4 PUSH1 0x3 ADD PUSH1 0x0 DUP9 DUP2 MSTORE PUSH1 0x20 ADD SWAP1 DUP2 MSTORE PUSH1 0x20 ADD PUSH1 0x0 KECCAK256 PUSH1 0x9 ADD SLOAD LT ISZERO PUSH2 0xAF4 JUMPI PUSH1 0xA DUP4 PUSH1 0x3 ADD PUSH1 0x0 DUP9 DUP2 MSTORE PUSH1 0x20 ADD SWAP1 DUP2 MSTORE PUSH1 0x20 ADD PUSH1 0x0 KECCAK256 PUSH1 0x9 ADD SLOAD DUP6 PUSH1 0x3 ADD PUSH1 0x0 DUP9 DUP2 MSTORE PUSH1 0x20 ADD SWAP1 DUP2 MSTORE PUSH1 0x20 ADD PUSH1 0x0 KECCAK256 PUSH1 0x4 ADD SLOAD PUSH2 0xAE2 SWAP2 SWAP1 PUSH2 0x1738 JUMP JUMPDEST PUSH2 0xAEC SWAP2 SWAP1 PUSH2 0x11FB JUMP JUMPDEST SWAP1 POP DUP1 PUSH2 0xB1D JUMP JUMPDEST PUSH1 0x2 DUP5 PUSH1 0x3 ADD PUSH1 0x0 DUP8 DUP2 MSTORE PUSH1 0x20 ADD SWAP1 DUP2 MSTORE PUSH1 0x20 ADD PUSH1 0x0 KECCAK256 PUSH1 0x4 ADD SLOAD PUSH2 0xB19 SWAP2 SWAP1 PUSH2 0x17D8 JUMP JUMPDEST SWAP1 POP DUP1 JUMPDEST POP DUP1 DUP5 PUSH1 0x2 ADD PUSH1 0x0 DUP8 DUP2 MSTORE PUSH1 0x20 ADD SWAP1 DUP2 MSTORE PUSH1 0x20 ADD PUSH1 0x0 KECCAK256 PUSH1 0x0 DUP9 DUP2 MSTORE PUSH1 0x20 ADD SWAP1 DUP2 MSTORE PUSH1 0x20 ADD PUSH1 0x0 KECCAK256 SLOAD PUSH2 0xB50 SWAP2 SWAP1 PUSH2 0x11FB JUMP JUMPDEST TIMESTAMP LT ISZERO PUSH2 0xB5C JUMPI PUSH1 0x0 DUP1 REVERT JUMPDEST DUP4 PUSH1 0x3 ADD PUSH1 0x0 DUP7 DUP2 MSTORE PUSH1 0x20 ADD SWAP1 DUP2 MSTORE PUSH1 0x20 ADD PUSH1 0x0 KECCAK256 PUSH1 0x1 ADD SLOAD DUP4 PUSH1 0x3 ADD PUSH1 0x0 DUP9 DUP2 MSTORE PUSH1 0x20 ADD SWAP1 DUP2 MSTORE PUSH1 0x20 ADD PUSH1 0x0 KECCAK256 PUSH1 0x1 ADD PUSH1 0x0 DUP3 DUP3 SLOAD PUSH2 0xB9C SWAP2 SWAP1 PUSH2 0x11FB JUMP JUMPDEST SWAP3 POP POP DUP2 SWAP1 SSTORE POP TIMESTAMP DUP5 PUSH1 0x2 ADD PUSH1 0x0 DUP8 DUP2 MSTORE PUSH1 0x20 ADD SWAP1 DUP2 MSTORE PUSH1 0x20 ADD PUSH1 0x0 KECCAK256 PUSH1 0x0 DUP9 DUP2 MSTORE PUSH1 0x20 ADD SWAP1 DUP2 MSTORE PUSH1 0x20 ADD PUSH1 0x0 KECCAK256 DUP2 SWAP1 SSTORE POP POP POP POP POP POP POP JUMP JUMPDEST PUSH1 0x0 DUP1 PUSH32 0x3CAB9A070A0C61CD0AE9D9E9E2C0781E5CA8691BEC4087E5A4701D5AC018DD4E SWAP1 POP DUP1 SWAP2 POP POP SWAP1 JUMP JUMPDEST PUSH1 0x0 DUP1 PUSH32 0x32545638E04F9BB0E18C6B7B873428EBFE8AFC357B1D991BFE15D0950D923845 SWAP1 POP DUP1 SWAP2 POP POP SWAP1 JUMP JUMPDEST PUSH1 0x0 DUP1 PUSH32 0xAAD0511195DDFB575F5187A7172CA6FC330F129A86291F15EAA5F7537AB038DC SWAP1 POP DUP1 SWAP2 POP POP SWAP1 JUMP JUMPDEST PUSH1 0x0 DUP1 PUSH32 0xB5DBBC334907F600E1151190A68C4043043163A23A907389A2C6F6231ED4318B SWAP1 POP DUP1 SWAP2 POP POP SWAP1 JUMP JUMPDEST PUSH1 0x0 DUP1 PUSH2 0xC95 PUSH2 0xCED JUMP JUMPDEST SWAP1 POP DUP1 PUSH1 0x0 ADD PUSH1 0x0 DUP2 SLOAD DUP1 SWAP3 SWAP2 SWAP1 PUSH2 0xCAC SWAP1 PUSH2 0x1487 JUMP JUMPDEST SWAP2 SWAP1 POP SSTORE POP TIMESTAMP DIFFICULTY DUP5 DUP4 PUSH1 0x0 ADD SLOAD PUSH1 0x40 MLOAD PUSH1 0x20 ADD PUSH2 0xCCC SWAP5 SWAP4 SWAP3 SWAP2 SWAP1 PUSH2 0x182A JUMP JUMPDEST PUSH1 0x40 MLOAD PUSH1 0x20 DUP2 DUP4 SUB SUB DUP2 MSTORE SWAP1 PUSH1 0x40 MSTORE DUP1 MLOAD SWAP1 PUSH1 0x20 ADD KECCAK256 PUSH1 0x0 SHR SWAP2 POP POP SWAP2 SWAP1 POP JUMP JUMPDEST PUSH1 0x0 DUP1 PUSH32 0xF76A8E66124DAC83B46AECD7C4256D5158E69F6ADF88592FD8146C79E007626E SWAP1 POP DUP1 SWAP2 POP POP SWAP1 JUMP JUMPDEST PUSH1 0x40 MLOAD DUP1 PUSH1 0xE0 ADD PUSH1 0x40 MSTORE DUP1 PUSH1 0x0 DUP2 MSTORE PUSH1 0x20 ADD PUSH1 0x0 DUP2 MSTORE PUSH1 0x20 ADD PUSH1 0x0 DUP2 MSTORE PUSH1 0x20 ADD PUSH1 0x0 DUP2 MSTORE PUSH1 0x20 ADD PUSH1 0x0 DUP2 MSTORE PUSH1 0x20 ADD PUSH1 0x60 DUP2 MSTORE PUSH1 0x20 ADD PUSH1 0x60 DUP2 MSTORE POP SWAP1 JUMP JUMPDEST PUSH1 0x0 PUSH1 0x40 MLOAD SWAP1 POP SWAP1 JUMP JUMPDEST PUSH1 0x0 DUP1 REVERT JUMPDEST PUSH1 0x0 DUP1 REVERT JUMPDEST PUSH1 0x0 DUP2 SWAP1 POP SWAP2 SWAP1 POP JUMP JUMPDEST PUSH2 0xD7E DUP2 PUSH2 0xD6B JUMP JUMPDEST DUP2 EQ PUSH2 0xD89 JUMPI PUSH1 0x0 DUP1 REVERT JUMPDEST POP JUMP JUMPDEST PUSH1 0x0 DUP2 CALLDATALOAD SWAP1 POP PUSH2 0xD9B DUP2 PUSH2 0xD75 JUMP JUMPDEST SWAP3 SWAP2 POP POP JUMP JUMPDEST PUSH1 0x0 PUSH1 0x20 DUP3 DUP5 SUB SLT ISZERO PUSH2 0xDB7 JUMPI PUSH2 0xDB6 PUSH2 0xD61 JUMP JUMPDEST JUMPDEST PUSH1 0x0 PUSH2 0xDC5 DUP5 DUP3 DUP6 ADD PUSH2 0xD8C JUMP JUMPDEST SWAP2 POP POP SWAP3 SWAP2 POP POP JUMP JUMPDEST PUSH1 0x0 DUP2 ISZERO ISZERO SWAP1 POP SWAP2 SWAP1 POP JUMP JUMPDEST PUSH2 0xDE3 DUP2 PUSH2 0xDCE JUMP JUMPDEST DUP3 MSTORE POP POP JUMP JUMPDEST PUSH1 0x0 PUSH1 0x20 DUP3 ADD SWAP1 POP PUSH2 0xDFE PUSH1 0x0 DUP4 ADD DUP5 PUSH2 0xDDA JUMP JUMPDEST SWAP3 SWAP2 POP POP JUMP JUMPDEST PUSH1 0x0 DUP1 PUSH1 0x40 DUP4 DUP6 SUB SLT ISZERO PUSH2 0xE1B JUMPI PUSH2 0xE1A PUSH2 0xD61 JUMP JUMPDEST JUMPDEST PUSH1 0x0 PUSH2 0xE29 DUP6 DUP3 DUP7 ADD PUSH2 0xD8C JUMP JUMPDEST SWAP3 POP POP PUSH1 0x20 PUSH2 0xE3A DUP6 DUP3 DUP7 ADD PUSH2 0xD8C JUMP JUMPDEST SWAP2 POP POP SWAP3 POP SWAP3 SWAP1 POP JUMP JUMPDEST PUSH2 0xE4D DUP2 PUSH2 0xD6B JUMP JUMPDEST DUP3 MSTORE POP POP JUMP JUMPDEST PUSH1 0x0 PUSH1 0x20 DUP3 ADD SWAP1 POP PUSH2 0xE68 PUSH1 0x0 DUP4 ADD DUP5 PUSH2 0xE44 JUMP JUMPDEST SWAP3 SWAP2 POP POP JUMP JUMPDEST PUSH1 0x0 DUP1 REVERT JUMPDEST PUSH1 0x0 DUP1 REVERT JUMPDEST PUSH1 0x0 PUSH1 0x1F NOT PUSH1 0x1F DUP4 ADD AND SWAP1 POP SWAP2 SWAP1 POP JUMP JUMPDEST PUSH32 0x4E487B7100000000000000000000000000000000000000000000000000000000 PUSH1 0x0 MSTORE PUSH1 0x41 PUSH1 0x4 MSTORE PUSH1 0x24 PUSH1 0x0 REVERT JUMPDEST PUSH2 0xEC1 DUP3 PUSH2 0xE78 JUMP JUMPDEST DUP2 ADD DUP2 DUP2 LT PUSH8 0xFFFFFFFFFFFFFFFF DUP3 GT OR ISZERO PUSH2 0xEE0 JUMPI PUSH2 0xEDF PUSH2 0xE89 JUMP JUMPDEST JUMPDEST DUP1 PUSH1 0x40 MSTORE POP POP POP JUMP JUMPDEST PUSH1 0x0 PUSH2 0xEF3 PUSH2 0xD57 JUMP JUMPDEST SWAP1 POP PUSH2 0xEFF DUP3 DUP3 PUSH2 0xEB8 JUMP JUMPDEST SWAP2 SWAP1 POP JUMP JUMPDEST PUSH1 0x0 PUSH8 0xFFFFFFFFFFFFFFFF DUP3 GT ISZERO PUSH2 0xF1F JUMPI PUSH2 0xF1E PUSH2 0xE89 JUMP JUMPDEST JUMPDEST PUSH2 0xF28 DUP3 PUSH2 0xE78 JUMP JUMPDEST SWAP1 POP PUSH1 0x20 DUP2 ADD SWAP1 POP SWAP2 SWAP1 POP JUMP JUMPDEST DUP3 DUP2 DUP4 CALLDATACOPY PUSH1 0x0 DUP4 DUP4 ADD MSTORE POP POP POP JUMP JUMPDEST PUSH1 0x0 PUSH2 0xF57 PUSH2 0xF52 DUP5 PUSH2 0xF04 JUMP JUMPDEST PUSH2 0xEE9 JUMP JUMPDEST SWAP1 POP DUP3 DUP2 MSTORE PUSH1 0x20 DUP2 ADD DUP5 DUP5 DUP5 ADD GT ISZERO PUSH2 0xF73 JUMPI PUSH2 0xF72 PUSH2 0xE73 JUMP JUMPDEST JUMPDEST PUSH2 0xF7E DUP5 DUP3 DUP6 PUSH2 0xF35 JUMP JUMPDEST POP SWAP4 SWAP3 POP POP POP JUMP JUMPDEST PUSH1 0x0 DUP3 PUSH1 0x1F DUP4 ADD SLT PUSH2 0xF9B JUMPI PUSH2 0xF9A PUSH2 0xE6E JUMP JUMPDEST JUMPDEST DUP2 CALLDATALOAD PUSH2 0xFAB DUP5 DUP3 PUSH1 0x20 DUP7 ADD PUSH2 0xF44 JUMP JUMPDEST SWAP2 POP POP SWAP3 SWAP2 POP POP JUMP JUMPDEST PUSH1 0x0 DUP1 PUSH1 0x0 DUP1 PUSH1 0x0 DUP1 PUSH1 0xC0 DUP8 DUP10 SUB SLT ISZERO PUSH2 0xFD1 JUMPI PUSH2 0xFD0 PUSH2 0xD61 JUMP JUMPDEST JUMPDEST PUSH1 0x0 PUSH2 0xFDF DUP10 DUP3 DUP11 ADD PUSH2 0xD8C JUMP JUMPDEST SWAP7 POP POP PUSH1 0x20 PUSH2 0xFF0 DUP10 DUP3 DUP11 ADD PUSH2 0xD8C JUMP JUMPDEST SWAP6 POP POP PUSH1 0x40 PUSH2 0x1001 DUP10 DUP3 DUP11 ADD PUSH2 0xD8C JUMP JUMPDEST SWAP5 POP POP PUSH1 0x60 PUSH2 0x1012 DUP10 DUP3 DUP11 ADD PUSH2 0xD8C JUMP JUMPDEST SWAP4 POP POP PUSH1 0x80 DUP8 ADD CALLDATALOAD PUSH8 0xFFFFFFFFFFFFFFFF DUP2 GT ISZERO PUSH2 0x1033 JUMPI PUSH2 0x1032 PUSH2 0xD66 JUMP JUMPDEST JUMPDEST PUSH2 0x103F DUP10 DUP3 DUP11 ADD PUSH2 0xF86 JUMP JUMPDEST SWAP3 POP POP PUSH1 0xA0 DUP8 ADD CALLDATALOAD PUSH8 0xFFFFFFFFFFFFFFFF DUP2 GT ISZERO PUSH2 0x1060 JUMPI PUSH2 0x105F PUSH2 0xD66 JUMP JUMPDEST JUMPDEST PUSH2 0x106C DUP10 DUP3 DUP11 ADD PUSH2 0xF86 JUMP JUMPDEST SWAP2 POP POP SWAP3 SWAP6 POP SWAP3 SWAP6 POP SWAP3 SWAP6 JUMP JUMPDEST PUSH2 0x1082 DUP2 PUSH2 0xD6B JUMP JUMPDEST DUP3 MSTORE POP POP JUMP JUMPDEST PUSH1 0x0 DUP2 MLOAD SWAP1 POP SWAP2 SWAP1 POP JUMP JUMPDEST PUSH1 0x0 DUP3 DUP3 MSTORE PUSH1 0x20 DUP3 ADD SWAP1 POP SWAP3 SWAP2 POP POP JUMP JUMPDEST PUSH1 0x0 JUMPDEST DUP4 DUP2 LT ISZERO PUSH2 0x10C2 JUMPI DUP1 DUP3 ADD MLOAD DUP2 DUP5 ADD MSTORE PUSH1 0x20 DUP2 ADD SWAP1 POP PUSH2 0x10A7 JUMP JUMPDEST PUSH1 0x0 DUP5 DUP5 ADD MSTORE POP POP POP POP JUMP JUMPDEST PUSH1 0x0 PUSH2 0x10D9 DUP3 PUSH2 0x1088 JUMP JUMPDEST PUSH2 0x10E3 DUP2 DUP6 PUSH2 0x1093 JUMP JUMPDEST SWAP4 POP PUSH2 0x10F3 DUP2 DUP6 PUSH1 0x20 DUP7 ADD PUSH2 0x10A4 JUMP JUMPDEST PUSH2 0x10FC DUP2 PUSH2 0xE78 JUMP JUMPDEST DUP5 ADD SWAP2 POP POP SWAP3 SWAP2 POP POP JUMP JUMPDEST PUSH1 0x0 PUSH1 0xE0 DUP4 ADD PUSH1 0x0 DUP4 ADD MLOAD PUSH2 0x111F PUSH1 0x0 DUP7 ADD DUP3 PUSH2 0x1079 JUMP JUMPDEST POP PUSH1 0x20 DUP4 ADD MLOAD PUSH2 0x1132 PUSH1 0x20 DUP7 ADD DUP3 PUSH2 0x1079 JUMP JUMPDEST POP PUSH1 0x40 DUP4 ADD MLOAD PUSH2 0x1145 PUSH1 0x40 DUP7 ADD DUP3 PUSH2 0x1079 JUMP JUMPDEST POP PUSH1 0x60 DUP4 ADD MLOAD PUSH2 0x1158 PUSH1 0x60 DUP7 ADD DUP3 PUSH2 0x1079 JUMP JUMPDEST POP PUSH1 0x80 DUP4 ADD MLOAD PUSH2 0x116B PUSH1 0x80 DUP7 ADD DUP3 PUSH2 0x1079 JUMP JUMPDEST POP PUSH1 0xA0 DUP4 ADD MLOAD DUP5 DUP3 SUB PUSH1 0xA0 DUP7 ADD MSTORE PUSH2 0x1183 DUP3 DUP3 PUSH2 0x10CE JUMP JUMPDEST SWAP2 POP POP PUSH1 0xC0 DUP4 ADD MLOAD DUP5 DUP3 SUB PUSH1 0xC0 DUP7 ADD MSTORE PUSH2 0x119D DUP3 DUP3 PUSH2 0x10CE JUMP JUMPDEST SWAP2 POP POP DUP1 SWAP2 POP POP SWAP3 SWAP2 POP POP JUMP JUMPDEST PUSH1 0x0 PUSH1 0x20 DUP3 ADD SWAP1 POP DUP2 DUP2 SUB PUSH1 0x0 DUP4 ADD MSTORE PUSH2 0x11C4 DUP2 DUP5 PUSH2 0x1107 JUMP JUMPDEST SWAP1 POP SWAP3 SWAP2 POP POP JUMP JUMPDEST PUSH32 0x4E487B7100000000000000000000000000000000000000000000000000000000 PUSH1 0x0 MSTORE PUSH1 0x11 PUSH1 0x4 MSTORE PUSH1 0x24 PUSH1 0x0 REVERT JUMPDEST PUSH1 0x0 PUSH2 0x1206 DUP3 PUSH2 0xD6B JUMP JUMPDEST SWAP2 POP PUSH2 0x1211 DUP4 PUSH2 0xD6B JUMP JUMPDEST SWAP3 POP DUP3 DUP3 ADD SWAP1 POP DUP1 DUP3 GT ISZERO PUSH2 0x1229 JUMPI PUSH2 0x1228 PUSH2 0x11CC JUMP JUMPDEST JUMPDEST SWAP3 SWAP2 POP POP JUMP JUMPDEST PUSH1 0x0 DUP2 SWAP1 POP SWAP3 SWAP2 POP POP JUMP JUMPDEST PUSH32 0x57697A4861740000000000000000000000000000000000000000000000000000 PUSH1 0x0 DUP3 ADD MSTORE POP JUMP JUMPDEST PUSH1 0x0 PUSH2 0x1270 PUSH1 0x6 DUP4 PUSH2 0x122F JUMP JUMPDEST SWAP2 POP PUSH2 0x127B DUP3 PUSH2 0x123A JUMP JUMPDEST PUSH1 0x6 DUP3 ADD SWAP1 POP SWAP2 SWAP1 POP JUMP JUMPDEST PUSH1 0x0 PUSH2 0x1291 DUP3 PUSH2 0x1263 JUMP JUMPDEST SWAP2 POP DUP2 SWAP1 POP SWAP2 SWAP1 POP JUMP JUMPDEST PUSH32 0x4E487B7100000000000000000000000000000000000000000000000000000000 PUSH1 0x0 MSTORE PUSH1 0x22 PUSH1 0x4 MSTORE PUSH1 0x24 PUSH1 0x0 REVERT JUMPDEST PUSH1 0x0 PUSH1 0x2 DUP3 DIV SWAP1 POP PUSH1 0x1 DUP3 AND DUP1 PUSH2 0x12E2 JUMPI PUSH1 0x7F DUP3 AND SWAP2 POP JUMPDEST PUSH1 0x20 DUP3 LT DUP2 SUB PUSH2 0x12F5 JUMPI PUSH2 0x12F4 PUSH2 0x129B JUMP JUMPDEST JUMPDEST POP SWAP2 SWAP1 POP JUMP JUMPDEST PUSH1 0x0 DUP2 SWAP1 POP DUP2 PUSH1 0x0 MSTORE PUSH1 0x20 PUSH1 0x0 KECCAK256 SWAP1 POP SWAP2 SWAP1 POP JUMP JUMPDEST PUSH1 0x0 DUP2 SLOAD PUSH2 0x131D DUP2 PUSH2 0x12CA JUMP JUMPDEST PUSH2 0x1327 DUP2 DUP7 PUSH2 0x122F JUMP JUMPDEST SWAP5 POP PUSH1 0x1 DUP3 AND PUSH1 0x0 DUP2 EQ PUSH2 0x1342 JUMPI PUSH1 0x1 DUP2 EQ PUSH2 0x1357 JUMPI PUSH2 0x138A JUMP JUMPDEST PUSH1 0xFF NOT DUP4 AND DUP7 MSTORE DUP2 ISZERO ISZERO DUP3 MUL DUP7 ADD SWAP4 POP PUSH2 0x138A JUMP JUMPDEST PUSH2 0x1360 DUP6 PUSH2 0x12FB JUMP JUMPDEST PUSH1 0x0 JUMPDEST DUP4 DUP2 LT ISZERO PUSH2 0x1382 JUMPI DUP2 SLOAD DUP2 DUP10 ADD MSTORE PUSH1 0x1 DUP3 ADD SWAP2 POP PUSH1 0x20 DUP2 ADD SWAP1 POP PUSH2 0x1363 JUMP JUMPDEST DUP4 DUP9 ADD SWAP6 POP POP POP JUMPDEST POP POP POP SWAP3 SWAP2 POP POP JUMP JUMPDEST PUSH1 0x0 PUSH2 0x139F DUP3 DUP5 PUSH2 0x1310 JUMP JUMPDEST SWAP2 POP DUP2 SWAP1 POP SWAP3 SWAP2 POP POP JUMP JUMPDEST PUSH1 0x0 DUP3 DUP3 MSTORE PUSH1 0x20 DUP3 ADD SWAP1 POP SWAP3 SWAP2 POP POP JUMP JUMPDEST PUSH32 0x6E6F742077656172696E67206861740000000000000000000000000000000000 PUSH1 0x0 DUP3 ADD MSTORE POP JUMP JUMPDEST PUSH1 0x0 PUSH2 0x13F1 PUSH1 0xF DUP4 PUSH2 0x13AA JUMP JUMPDEST SWAP2 POP PUSH2 0x13FC DUP3 PUSH2 0x13BB JUMP JUMPDEST PUSH1 0x20 DUP3 ADD SWAP1 POP SWAP2 SWAP1 POP JUMP JUMPDEST PUSH1 0x0 PUSH1 0x20 DUP3 ADD SWAP1 POP DUP2 DUP2 SUB PUSH1 0x0 DUP4 ADD MSTORE PUSH2 0x1420 DUP2 PUSH2 0x13E4 JUMP JUMPDEST SWAP1 POP SWAP2 SWAP1 POP JUMP JUMPDEST PUSH32 0x4E487B7100000000000000000000000000000000000000000000000000000000 PUSH1 0x0 MSTORE PUSH1 0x12 PUSH1 0x4 MSTORE PUSH1 0x24 PUSH1 0x0 REVERT JUMPDEST PUSH1 0x0 PUSH2 0x1461 DUP3 PUSH2 0xD6B JUMP JUMPDEST SWAP2 POP PUSH2 0x146C DUP4 PUSH2 0xD6B JUMP JUMPDEST SWAP3 POP DUP3 PUSH2 0x147C JUMPI PUSH2 0x147B PUSH2 0x1427 JUMP JUMPDEST JUMPDEST DUP3 DUP3 MOD SWAP1 POP SWAP3 SWAP2 POP POP JUMP JUMPDEST PUSH1 0x0 PUSH2 0x1492 DUP3 PUSH2 0xD6B JUMP JUMPDEST SWAP2 POP PUSH32 0xFFFFFFFFFFFFFFFFFFFFFFFFFFFFFFFFFFFFFFFFFFFFFFFFFFFFFFFFFFFFFFFF DUP3 SUB PUSH2 0x14C4 JUMPI PUSH2 0x14C3 PUSH2 0x11CC JUMP JUMPDEST JUMPDEST PUSH1 0x1 DUP3 ADD SWAP1 POP SWAP2 SWAP1 POP JUMP JUMPDEST PUSH1 0x0 PUSH1 0x20 PUSH1 0x1F DUP4 ADD DIV SWAP1 POP SWAP2 SWAP1 POP JUMP JUMPDEST PUSH1 0x0 DUP3 DUP3 SHL SWAP1 POP SWAP3 SWAP2 POP POP JUMP JUMPDEST PUSH1 0x0 PUSH1 0x8 DUP4 MUL PUSH2 0x151C PUSH32 0xFFFFFFFFFFFFFFFFFFFFFFFFFFFFFFFFFFFFFFFFFFFFFFFFFFFFFFFFFFFFFFFF DUP3 PUSH2 0x14DF JUMP JUMPDEST PUSH2 0x1526 DUP7 DUP4 PUSH2 0x14DF JUMP JUMPDEST SWAP6 POP DUP1 NOT DUP5 AND SWAP4 POP DUP1 DUP7 AND DUP5 OR SWAP3 POP POP POP SWAP4 SWAP3 POP POP POP JUMP JUMPDEST PUSH1 0x0 DUP2 SWAP1 POP SWAP2 SWAP1 POP JUMP JUMPDEST PUSH1 0x0 PUSH2 0x1563 PUSH2 0x155E PUSH2 0x1559 DUP5 PUSH2 0xD6B JUMP JUMPDEST PUSH2 0x153E JUMP JUMPDEST PUSH2 0xD6B JUMP JUMPDEST SWAP1 POP SWAP2 SWAP1 POP JUMP JUMPDEST PUSH1 0x0 DUP2 SWAP1 POP SWAP2 SWAP1 POP JUMP JUMPDEST PUSH2 0x157D DUP4 PUSH2 0x1548 JUMP JUMPDEST PUSH2 0x1591 PUSH2 0x1589 DUP3 PUSH2 0x156A JUMP JUMPDEST DUP5 DUP5 SLOAD PUSH2 0x14EC JUMP JUMPDEST DUP3 SSTORE POP POP POP POP JUMP JUMPDEST PUSH1 0x0 SWAP1 JUMP JUMPDEST PUSH2 0x15A6 PUSH2 0x1599 JUMP JUMPDEST PUSH2 0x15B1 DUP2 DUP5 DUP5 PUSH2 0x1574 JUMP JUMPDEST POP POP POP JUMP JUMPDEST JUMPDEST DUP2 DUP2 LT ISZERO PUSH2 0x15D5 JUMPI PUSH2 0x15CA PUSH1 0x0 DUP3 PUSH2 0x159E JUMP JUMPDEST PUSH1 0x1 DUP2 ADD SWAP1 POP PUSH2 0x15B7 JUMP JUMPDEST POP POP JUMP JUMPDEST PUSH1 0x1F DUP3 GT ISZERO PUSH2 0x161A JUMPI PUSH2 0x15EB DUP2 PUSH2 0x12FB JUMP JUMPDEST PUSH2 0x15F4 DUP5 PUSH2 0x14CF JUMP JUMPDEST DUP2 ADD PUSH1 0x20 DUP6 LT ISZERO PUSH2 0x1603 JUMPI DUP2 SWAP1 POP JUMPDEST PUSH2 0x1617 PUSH2 0x160F DUP6 PUSH2 0x14CF JUMP JUMPDEST DUP4 ADD DUP3 PUSH2 0x15B6 JUMP JUMPDEST POP POP JUMPDEST POP POP POP JUMP JUMPDEST PUSH1 0x0 DUP3 DUP3 SHR SWAP1 POP SWAP3 SWAP2 POP POP JUMP JUMPDEST PUSH1 0x0 PUSH2 0x163D PUSH1 0x0 NOT DUP5 PUSH1 0x8 MUL PUSH2 0x161F JUMP JUMPDEST NOT DUP1 DUP4 AND SWAP2 POP POP SWAP3 SWAP2 POP POP JUMP JUMPDEST PUSH1 0x0 PUSH2 0x1656 DUP4 DUP4 PUSH2 0x162C JUMP JUMPDEST SWAP2 POP DUP3 PUSH1 0x2 MUL DUP3 OR SWAP1 POP SWAP3 SWAP2 POP POP JUMP JUMPDEST PUSH2 0x166F DUP3 PUSH2 0x1088 JUMP JUMPDEST PUSH8 0xFFFFFFFFFFFFFFFF DUP2 GT ISZERO PUSH2 0x1688 JUMPI PUSH2 0x1687 PUSH2 0xE89 JUMP JUMPDEST JUMPDEST PUSH2 0x1692 DUP3 SLOAD PUSH2 0x12CA JUMP JUMPDEST PUSH2 0x169D DUP3 DUP3 DUP6 PUSH2 0x15D9 JUMP JUMPDEST PUSH1 0x0 PUSH1 0x20 SWAP1 POP PUSH1 0x1F DUP4 GT PUSH1 0x1 DUP2 EQ PUSH2 0x16D0 JUMPI PUSH1 0x0 DUP5 ISZERO PUSH2 0x16BE JUMPI DUP3 DUP8 ADD MLOAD SWAP1 POP JUMPDEST PUSH2 0x16C8 DUP6 DUP3 PUSH2 0x164A JUMP JUMPDEST DUP7 SSTORE POP PUSH2 0x1730 JUMP JUMPDEST PUSH1 0x1F NOT DUP5 AND PUSH2 0x16DE DUP7 PUSH2 0x12FB JUMP JUMPDEST PUSH1 0x0 JUMPDEST DUP3 DUP2 LT ISZERO PUSH2 0x1706 JUMPI DUP5 DUP10 ADD MLOAD DUP3 SSTORE PUSH1 0x1 DUP3 ADD SWAP2 POP PUSH1 0x20 DUP6 ADD SWAP5 POP PUSH1 0x20 DUP2 ADD SWAP1 POP PUSH2 0x16E1 JUMP JUMPDEST DUP7 DUP4 LT ISZERO PUSH2 0x1723 JUMPI DUP5 DUP10 ADD MLOAD PUSH2 0x171F PUSH1 0x1F DUP10 AND DUP3 PUSH2 0x162C JUMP JUMPDEST DUP4 SSTORE POP JUMPDEST PUSH1 0x1 PUSH1 0x2 DUP9 MUL ADD DUP9 SSTORE POP POP POP JUMPDEST POP POP POP POP POP POP JUMP JUMPDEST PUSH1 0x0 PUSH2 0x1743 DUP3 PUSH2 0xD6B JUMP JUMPDEST SWAP2 POP PUSH2 0x174E DUP4 PUSH2 0xD6B JUMP JUMPDEST SWAP3 POP DUP3 DUP3 SUB SWAP1 POP DUP2 DUP2 GT ISZERO PUSH2 0x1766 JUMPI PUSH2 0x1765 PUSH2 0x11CC JUMP JUMPDEST JUMPDEST SWAP3 SWAP2 POP POP JUMP JUMPDEST PUSH32 0x6E6F7420656E6F75676820687000000000000000000000000000000000000000 PUSH1 0x0 DUP3 ADD MSTORE POP JUMP JUMPDEST PUSH1 0x0 PUSH2 0x17A2 PUSH1 0xD DUP4 PUSH2 0x13AA JUMP JUMPDEST SWAP2 POP PUSH2 0x17AD DUP3 PUSH2 0x176C JUMP JUMPDEST PUSH1 0x20 DUP3 ADD SWAP1 POP SWAP2 SWAP1 POP JUMP JUMPDEST PUSH1 0x0 PUSH1 0x20 DUP3 ADD SWAP1 POP DUP2 DUP2 SUB PUSH1 0x0 DUP4 ADD MSTORE PUSH2 0x17D1 DUP2 PUSH2 0x1795 JUMP JUMPDEST SWAP1 POP SWAP2 SWAP1 POP JUMP JUMPDEST PUSH1 0x0 PUSH2 0x17E3 DUP3 PUSH2 0xD6B JUMP JUMPDEST SWAP2 POP PUSH2 0x17EE DUP4 PUSH2 0xD6B JUMP JUMPDEST SWAP3 POP DUP3 PUSH2 0x17FE JUMPI PUSH2 0x17FD PUSH2 0x1427 JUMP JUMPDEST JUMPDEST DUP3 DUP3 DIV SWAP1 POP SWAP3 SWAP2 POP POP JUMP JUMPDEST PUSH1 0x0 DUP2 SWAP1 POP SWAP2 SWAP1 POP JUMP JUMPDEST PUSH2 0x1824 PUSH2 0x181F DUP3 PUSH2 0xD6B JUMP JUMPDEST PUSH2 0x1809 JUMP JUMPDEST DUP3 MSTORE POP POP JUMP JUMPDEST PUSH1 0x0 PUSH2 0x1836 DUP3 DUP8 PUSH2 0x1813 JUMP JUMPDEST PUSH1 0x20 DUP3 ADD SWAP2 POP PUSH2 0x1846 DUP3 DUP7 PUSH2 0x1813 JUMP JUMPDEST PUSH1 0x20 DUP3 ADD SWAP2 POP PUSH2 0x1856 DUP3 DUP6 PUSH2 0x1813 JUMP JUMPDEST PUSH1 0x20 DUP3 ADD SWAP2 POP PUSH2 0x1866 DUP3 DUP5 PUSH2 0x1813 JUMP JUMPDEST PUSH1 0x20 DUP3 ADD SWAP2 POP DUP2 SWAP1 POP SWAP6 SWAP5 POP POP POP POP POP JUMP INVALID LOG2 PUSH5 0x6970667358 0x22 SLT KECCAK256 LOG2 0x25 0x1F 0xA5 PUSH22 0xC475A98B92FF7DD1374C8F302A3487E827CFD71D82C1 STOP PUSH22 0x939DC864736F6C634300081100330000000000000000 "},"methodIdentifiers":{"createBasicMonster(uint256,uint256,uint256,uint256,string,string)":"4b3564c8","dragonQuest(uint256)":"0207f11f","fightBasicMonster(uint256,uint256)":"fc2875d4","getBasicMonster(uint256)":"874e59a8","getBasicMonsterCooldown(uint256,uint256)":"15e840d7","getMonsterCounter()":"fda30d4c"}}}}}