{"contracts/facets/QuestFacet.sol":{"QuestFacet":{"abi":[{"anonymous":false,"inputs":[{"indexed":true,"internalType":"address","name":"_playerAddress","type":"address"},{"indexed":false,"internalType":"uint256","name":"_id","type":"uint256"}],"name":"BeginQuesting","type":"event"},{"anonymous":false,"inputs":[{"indexed":true,"internalType":"address","name":"_playerAddress","type":"address"},{"indexed":false,"internalType":"uint256","name":"_id","type":"uint256"}],"name":"EndQuesting","type":"event"},{"inputs":[{"internalType":"uint256","name":"_tokenId","type":"uint256"}],"name":"endQuestGem","outputs":[],"stateMutability":"nonpayable","type":"function"},{"inputs":[{"internalType":"uint256","name":"_tokenId","type":"uint256"}],"name":"endQuestGold","outputs":[],"stateMutability":"nonpayable","type":"function"},{"inputs":[{"internalType":"uint256","name":"_playerId","type":"uint256"}],"name":"getCooldown","outputs":[{"internalType":"uint256","name":"","type":"uint256"}],"stateMutability":"view","type":"function"},{"inputs":[{"internalType":"address","name":"_address","type":"address"}],"name":"getGemBalance","outputs":[{"internalType":"uint256","name":"","type":"uint256"}],"stateMutability":"view","type":"function"},{"inputs":[{"internalType":"uint256","name":"_playerId","type":"uint256"}],"name":"getGemStart","outputs":[{"internalType":"uint256","name":"","type":"uint256"}],"stateMutability":"view","type":"function"},{"inputs":[{"internalType":"address","name":"_address","type":"address"}],"name":"getGoldBalance","outputs":[{"internalType":"uint256","name":"","type":"uint256"}],"stateMutability":"view","type":"function"},{"inputs":[{"internalType":"uint256","name":"_playerId","type":"uint256"}],"name":"getGoldStart","outputs":[{"internalType":"uint256","name":"","type":"uint256"}],"stateMutability":"view","type":"function"},{"inputs":[{"internalType":"uint256","name":"_treasureId","type":"uint256"}],"name":"getTreasure","outputs":[{"components":[{"internalType":"uint256","name":"id","type":"uint256"},{"internalType":"uint256","name":"rank","type":"uint256"},{"internalType":"uint256","name":"pointer","type":"uint256"},{"internalType":"string","name":"name","type":"string"},{"internalType":"string","name":"uri","type":"string"}],"internalType":"struct Treasure","name":"","type":"tuple"}],"stateMutability":"view","type":"function"},{"inputs":[{"internalType":"uint256","name":"_playerId","type":"uint256"}],"name":"getTreasures","outputs":[{"internalType":"uint256[]","name":"","type":"uint256[]"}],"stateMutability":"view","type":"function"},{"inputs":[{"internalType":"uint256","name":"_tokenId","type":"uint256"}],"name":"startQuestGem","outputs":[],"stateMutability":"nonpayable","type":"function"},{"inputs":[{"internalType":"uint256","name":"_tokenId","type":"uint256"}],"name":"startQuestGold","outputs":[],"stateMutability":"nonpayable","type":"function"}],"evm":{"bytecode":{"linkReferences":{},"object":"608060405234801561001057600080fd5b50611543806100206000396000f3fe608060405234801561001057600080fd5b50600436106100a95760003560e01c80639208008011610071578063920800801461018a578063929c2cc0146101ba578063a174d3c2146101ea578063cdf0641514610206578063e42ce3cf14610236578063e6be6c6614610252576100a9565b806329e203ab146100ae5780633707caf2146100de5780633fc0287f1461010e57806368a067471461012a578063777504941461015a575b600080fd5b6100c860048036038101906100c39190610f88565b61026e565b6040516100d59190610fc4565b60405180910390f35b6100f860048036038101906100f3919061103d565b610280565b6040516101059190610fc4565b60405180910390f35b61012860048036038101906101239190610f88565b610292565b005b610144600480360381019061013f9190610f88565b6102ec565b6040516101519190610fc4565b60405180910390f35b610174600480360381019061016f9190610f88565b6102fe565b6040516101819190611128565b60405180910390f35b6101a4600480360381019061019f9190610f88565b610310565b6040516101b19190610fc4565b60405180910390f35b6101d460048036038101906101cf919061103d565b610322565b6040516101e19190610fc4565b60405180910390f35b61020460048036038101906101ff9190610f88565b610334565b005b610220600480360381019061021b9190610f88565b61038e565b60405161022d9190611257565b60405180910390f35b610250600480360381019061024b9190610f88565b6103a6565b005b61026c60048036038101906102679190610f88565b610400565b005b60006102798261045a565b9050919050565b600061028b82610485565b9050919050565b61029b816104dc565b3373ffffffffffffffffffffffffffffffffffffffff167fcae7c1c63e65edc05144a6b48d8cb6d31d4f693030fd9aeb70a966faaad0f262826040516102e19190610fc4565b60405180910390a250565b60006102f78261074d565b9050919050565b606061030982610778565b9050919050565b600061031b826107f2565b9050919050565b600061032d8261081d565b9050919050565b61033d81610874565b3373ffffffffffffffffffffffffffffffffffffffff167f754ac03968a16df89a46742386b9770f63220c3d6eb2838f03971e18a1dba22a826040516103839190610fc4565b60405180910390a250565b610396610f1e565b61039f826109e3565b9050919050565b6103af81610b61565b3373ffffffffffffffffffffffffffffffffffffffff167fcae7c1c63e65edc05144a6b48d8cb6d31d4f693030fd9aeb70a966faaad0f262826040516103f59190610fc4565b60405180910390a250565b61040981610d83565b3373ffffffffffffffffffffffffffffffffffffffff167f754ac03968a16df89a46742386b9770f63220c3d6eb2838f03971e18a1dba22a8260405161044f9190610fc4565b60405180910390a250565b600080610465610e6a565b905080600501600084815260200190815260200160002054915050919050565b600080610490610e97565b90508060000160008473ffffffffffffffffffffffffffffffffffffffff1673ffffffffffffffffffffffffffffffffffffffff16815260200190815260200160002054915050919050565b60006104e6610ec4565b905060006104f2610e97565b905060006104fe610e6a565b90503373ffffffffffffffffffffffffffffffffffffffff1683600201600086815260200190815260200160002060009054906101000a900473ffffffffffffffffffffffffffffffffffffffff1673ffffffffffffffffffffffffffffffffffffffff16146105a3576040517f08c379a000000000000000000000000000000000000000000000000000000000815260040161059a906112d6565b60405180910390fd5b600283600301600086815260200190815260200160002060020154146105fe576040517f08c379a00000000000000000000000000000000000000000000000000000000081526004016105f590611342565b60405180910390fd5b6000603c84600301600087815260200190815260200160002060090154101561064e578360030160008681526020019081526020016000206009015460826106469190611391565b905080610654565b603c9050805b50808260010160008781526020019081526020016000205461067691906113c5565b4210156106b8576040517f08c379a00000000000000000000000000000000000000000000000000000000081526004016106af90611445565b60405180910390fd5b600084600301600087815260200190815260200160002060020181905550816001016000868152602001908152602001600020600090558260000160003373ffffffffffffffffffffffffffffffffffffffff1673ffffffffffffffffffffffffffffffffffffffff168152602001908152602001600020600081548092919061074190611465565b91905055505050505050565b600080610758610e6a565b905080600201600084815260200190815260200160002054915050919050565b60606000610784610ef1565b90508060030160008481526020019081526020016000208054806020026020016040519081016040528092919081815260200182805480156107e557602002820191906000526020600020905b8154815260200190600101908083116107d1575b5050505050915050919050565b6000806107fd610e6a565b905080600101600084815260200190815260200160002054915050919050565b600080610828610e97565b90508060010160008473ffffffffffffffffffffffffffffffffffffffff1673ffffffffffffffffffffffffffffffffffffffff16815260200190815260200160002054915050919050565b600061087e610ec4565b9050600061088a610e6a565b9050600082600301600085815260200190815260200160002060020154146108b157600080fd5b3373ffffffffffffffffffffffffffffffffffffffff1682600201600085815260200190815260200160002060009054906101000a900473ffffffffffffffffffffffffffffffffffffffff1673ffffffffffffffffffffffffffffffffffffffff161461091e57600080fd5b600061012c83600301600086815260200190815260200160002060090154101561097057826003016000858152602001908152602001600020600901546102626109689190611391565b905080610977565b61012c9050805b50808260050160008681526020019081526020016000205461099991906113c5565b4210156109a557600080fd5b600583600301600086815260200190815260200160002060020181905550428260020160008681526020019081526020016000208190555050505050565b6109eb610f1e565b60006109f5610ef1565b90508060020160008481526020019081526020016000206040518060a0016040529081600082015481526020016001820154815260200160028201548152602001600382018054610a45906114dc565b80601f0160208091040260200160405190810160405280929190818152602001828054610a71906114dc565b8015610abe5780601f10610a9357610100808354040283529160200191610abe565b820191906000526020600020905b815481529060010190602001808311610aa157829003601f168201915b50505050508152602001600482018054610ad7906114dc565b80601f0160208091040260200160405190810160405280929190818152602001828054610b03906114dc565b8015610b505780601f10610b2557610100808354040283529160200191610b50565b820191906000526020600020905b815481529060010190602001808311610b3357829003601f168201915b505050505081525050915050919050565b6000610b6b610ec4565b90506000610b77610e97565b90506000610b83610e6a565b90503373ffffffffffffffffffffffffffffffffffffffff1683600201600086815260200190815260200160002060009054906101000a900473ffffffffffffffffffffffffffffffffffffffff1673ffffffffffffffffffffffffffffffffffffffff1614610bf257600080fd5b60058360030160008681526020019081526020016000206002015414610c1757600080fd5b600061012c846003016000878152602001908152602001600020600901541015610c695783600301600086815260200190815260200160002060090154610262610c619190611391565b905080610c70565b61012c9050805b508082600201600087815260200190815260200160002054610c9291906113c5565b421015610cd4576040517f08c379a0000000000000000000000000000000000000000000000000000000008152600401610ccb90611445565b60405180910390fd5b600084600301600087815260200190815260200160002060020181905550816002016000868152602001908152602001600020600090558260010160003373ffffffffffffffffffffffffffffffffffffffff1673ffffffffffffffffffffffffffffffffffffffff1681526020019081526020016000206000815480929190610d5d90611465565b919050555042826005016000878152602001908152602001600020819055505050505050565b6000610d8d610ec4565b90506000610d99610e6a565b905060008260030160008581526020019081526020016000206002015414610dc057600080fd5b3373ffffffffffffffffffffffffffffffffffffffff1682600201600085815260200190815260200160002060009054906101000a900473ffffffffffffffffffffffffffffffffffffffff1673ffffffffffffffffffffffffffffffffffffffff1614610e2d57600080fd5b6002826003016000858152602001908152602001600020600201819055504281600101600085815260200190815260200160002081905550505050565b6000807ff76a8e66124dac83b46aecd7c4256d5158e69f6adf88592fd8146c79e007626e90508091505090565b6000807f2c89d74504b6ad8d4fbde22bc3474166bac5452a11195897f239d8bebe02d70790508091505090565b6000807f3cab9a070a0c61cd0ae9d9e9e2c0781e5ca8691bec4087e5a4701d5ac018dd4e90508091505090565b6000807fb5dbbc334907f600e1151190a68c4043043163a23a907389a2c6f6231ed4318b90508091505090565b6040518060a0016040528060008152602001600081526020016000815260200160608152602001606081525090565b600080fd5b6000819050919050565b610f6581610f52565b8114610f7057600080fd5b50565b600081359050610f8281610f5c565b92915050565b600060208284031215610f9e57610f9d610f4d565b5b6000610fac84828501610f73565b91505092915050565b610fbe81610f52565b82525050565b6000602082019050610fd96000830184610fb5565b92915050565b600073ffffffffffffffffffffffffffffffffffffffff82169050919050565b600061100a82610fdf565b9050919050565b61101a81610fff565b811461102557600080fd5b50565b60008135905061103781611011565b92915050565b60006020828403121561105357611052610f4d565b5b600061106184828501611028565b91505092915050565b600081519050919050565b600082825260208201905092915050565b6000819050602082019050919050565b61109f81610f52565b82525050565b60006110b18383611096565b60208301905092915050565b6000602082019050919050565b60006110d58261106a565b6110df8185611075565b93506110ea83611086565b8060005b8381101561111b57815161110288826110a5565b975061110d836110bd565b9250506001810190506110ee565b5085935050505092915050565b6000602082019050818103600083015261114281846110ca565b905092915050565b600081519050919050565b600082825260208201905092915050565b60005b83811015611184578082015181840152602081019050611169565b60008484015250505050565b6000601f19601f8301169050919050565b60006111ac8261114a565b6111b68185611155565b93506111c6818560208601611166565b6111cf81611190565b840191505092915050565b600060a0830160008301516111f26000860182611096565b5060208301516112056020860182611096565b5060408301516112186040860182611096565b506060830151848203606086015261123082826111a1565b9150506080830151848203608086015261124a82826111a1565b9150508091505092915050565b6000602082019050818103600083015261127181846111da565b905092915050565b600082825260208201905092915050565b7f796f7520617265206e6f7420746865206f776e65720000000000000000000000600082015250565b60006112c0601583611279565b91506112cb8261128a565b602082019050919050565b600060208201905081810360008301526112ef816112b3565b9050919050565b7f446f672c20796f7520617265206e6f7420676f6c64207175657374696e670000600082015250565b600061132c601e83611279565b9150611337826112f6565b602082019050919050565b6000602082019050818103600083015261135b8161131f565b9050919050565b7f4e487b7100000000000000000000000000000000000000000000000000000000600052601160045260246000fd5b600061139c82610f52565b91506113a783610f52565b92508282039050818111156113bf576113be611362565b5b92915050565b60006113d082610f52565b91506113db83610f52565b92508282019050808211156113f3576113f2611362565b5b92915050565b7f6974277320746f6f206561726c7920746f2070756c6c206f7574000000000000600082015250565b600061142f601a83611279565b915061143a826113f9565b602082019050919050565b6000602082019050818103600083015261145e81611422565b9050919050565b600061147082610f52565b91507fffffffffffffffffffffffffffffffffffffffffffffffffffffffffffffffff82036114a2576114a1611362565b5b600182019050919050565b7f4e487b7100000000000000000000000000000000000000000000000000000000600052602260045260246000fd5b600060028204905060018216806114f457607f821691505b602082108103611507576115066114ad565b5b5091905056fea2646970667358221220d5ec998a3b73975f0ba35a53c8ee2125574e41d83f1bb9ebb278f0719c7d064764736f6c63430008110033","opcodes":"PUSH1 0x80 PUSH1 0x40 MSTORE CALLVALUE DUP1 ISZERO PUSH2 0x10 JUMPI PUSH1 0x0 DUP1 REVERT JUMPDEST POP PUSH2 0x1543 DUP1 PUSH2 0x20 PUSH1 0x0 CODECOPY PUSH1 0x0 RETURN INVALID PUSH1 0x80 PUSH1 0x40 MSTORE CALLVALUE DUP1 ISZERO PUSH2 0x10 JUMPI PUSH1 0x0 DUP1 REVERT JUMPDEST POP PUSH1 0x4 CALLDATASIZE LT PUSH2 0xA9 JUMPI PUSH1 0x0 CALLDATALOAD PUSH1 0xE0 SHR DUP1 PUSH4 0x92080080 GT PUSH2 0x71 JUMPI DUP1 PUSH4 0x92080080 EQ PUSH2 0x18A JUMPI DUP1 PUSH4 0x929C2CC0 EQ PUSH2 0x1BA JUMPI DUP1 PUSH4 0xA174D3C2 EQ PUSH2 0x1EA JUMPI DUP1 PUSH4 0xCDF06415 EQ PUSH2 0x206 JUMPI DUP1 PUSH4 0xE42CE3CF EQ PUSH2 0x236 JUMPI DUP1 PUSH4 0xE6BE6C66 EQ PUSH2 0x252 JUMPI PUSH2 0xA9 JUMP JUMPDEST DUP1 PUSH4 0x29E203AB EQ PUSH2 0xAE JUMPI DUP1 PUSH4 0x3707CAF2 EQ PUSH2 0xDE JUMPI DUP1 PUSH4 0x3FC0287F EQ PUSH2 0x10E JUMPI DUP1 PUSH4 0x68A06747 EQ PUSH2 0x12A JUMPI DUP1 PUSH4 0x77750494 EQ PUSH2 0x15A JUMPI JUMPDEST PUSH1 0x0 DUP1 REVERT JUMPDEST PUSH2 0xC8 PUSH1 0x4 DUP1 CALLDATASIZE SUB DUP2 ADD SWAP1 PUSH2 0xC3 SWAP2 SWAP1 PUSH2 0xF88 JUMP JUMPDEST PUSH2 0x26E JUMP JUMPDEST PUSH1 0x40 MLOAD PUSH2 0xD5 SWAP2 SWAP1 PUSH2 0xFC4 JUMP JUMPDEST PUSH1 0x40 MLOAD DUP1 SWAP2 SUB SWAP1 RETURN JUMPDEST PUSH2 0xF8 PUSH1 0x4 DUP1 CALLDATASIZE SUB DUP2 ADD SWAP1 PUSH2 0xF3 SWAP2 SWAP1 PUSH2 0x103D JUMP JUMPDEST PUSH2 0x280 JUMP JUMPDEST PUSH1 0x40 MLOAD PUSH2 0x105 SWAP2 SWAP1 PUSH2 0xFC4 JUMP JUMPDEST PUSH1 0x40 MLOAD DUP1 SWAP2 SUB SWAP1 RETURN JUMPDEST PUSH2 0x128 PUSH1 0x4 DUP1 CALLDATASIZE SUB DUP2 ADD SWAP1 PUSH2 0x123 SWAP2 SWAP1 PUSH2 0xF88 JUMP JUMPDEST PUSH2 0x292 JUMP JUMPDEST STOP JUMPDEST PUSH2 0x144 PUSH1 0x4 DUP1 CALLDATASIZE SUB DUP2 ADD SWAP1 PUSH2 0x13F SWAP2 SWAP1 PUSH2 0xF88 JUMP JUMPDEST PUSH2 0x2EC JUMP JUMPDEST PUSH1 0x40 MLOAD PUSH2 0x151 SWAP2 SWAP1 PUSH2 0xFC4 JUMP JUMPDEST PUSH1 0x40 MLOAD DUP1 SWAP2 SUB SWAP1 RETURN JUMPDEST PUSH2 0x174 PUSH1 0x4 DUP1 CALLDATASIZE SUB DUP2 ADD SWAP1 PUSH2 0x16F SWAP2 SWAP1 PUSH2 0xF88 JUMP JUMPDEST PUSH2 0x2FE JUMP JUMPDEST PUSH1 0x40 MLOAD PUSH2 0x181 SWAP2 SWAP1 PUSH2 0x1128 JUMP JUMPDEST PUSH1 0x40 MLOAD DUP1 SWAP2 SUB SWAP1 RETURN JUMPDEST PUSH2 0x1A4 PUSH1 0x4 DUP1 CALLDATASIZE SUB DUP2 ADD SWAP1 PUSH2 0x19F SWAP2 SWAP1 PUSH2 0xF88 JUMP JUMPDEST PUSH2 0x310 JUMP JUMPDEST PUSH1 0x40 MLOAD PUSH2 0x1B1 SWAP2 SWAP1 PUSH2 0xFC4 JUMP JUMPDEST PUSH1 0x40 MLOAD DUP1 SWAP2 SUB SWAP1 RETURN JUMPDEST PUSH2 0x1D4 PUSH1 0x4 DUP1 CALLDATASIZE SUB DUP2 ADD SWAP1 PUSH2 0x1CF SWAP2 SWAP1 PUSH2 0x103D JUMP JUMPDEST PUSH2 0x322 JUMP JUMPDEST PUSH1 0x40 MLOAD PUSH2 0x1E1 SWAP2 SWAP1 PUSH2 0xFC4 JUMP JUMPDEST PUSH1 0x40 MLOAD DUP1 SWAP2 SUB SWAP1 RETURN JUMPDEST PUSH2 0x204 PUSH1 0x4 DUP1 CALLDATASIZE SUB DUP2 ADD SWAP1 PUSH2 0x1FF SWAP2 SWAP1 PUSH2 0xF88 JUMP JUMPDEST PUSH2 0x334 JUMP JUMPDEST STOP JUMPDEST PUSH2 0x220 PUSH1 0x4 DUP1 CALLDATASIZE SUB DUP2 ADD SWAP1 PUSH2 0x21B SWAP2 SWAP1 PUSH2 0xF88 JUMP JUMPDEST PUSH2 0x38E JUMP JUMPDEST PUSH1 0x40 MLOAD PUSH2 0x22D SWAP2 SWAP1 PUSH2 0x1257 JUMP JUMPDEST PUSH1 0x40 MLOAD DUP1 SWAP2 SUB SWAP1 RETURN JUMPDEST PUSH2 0x250 PUSH1 0x4 DUP1 CALLDATASIZE SUB DUP2 ADD SWAP1 PUSH2 0x24B SWAP2 SWAP1 PUSH2 0xF88 JUMP JUMPDEST PUSH2 0x3A6 JUMP JUMPDEST STOP JUMPDEST PUSH2 0x26C PUSH1 0x4 DUP1 CALLDATASIZE SUB DUP2 ADD SWAP1 PUSH2 0x267 SWAP2 SWAP1 PUSH2 0xF88 JUMP JUMPDEST PUSH2 0x400 JUMP JUMPDEST STOP JUMPDEST PUSH1 0x0 PUSH2 0x279 DUP3 PUSH2 0x45A JUMP JUMPDEST SWAP1 POP SWAP2 SWAP1 POP JUMP JUMPDEST PUSH1 0x0 PUSH2 0x28B DUP3 PUSH2 0x485 JUMP JUMPDEST SWAP1 POP SWAP2 SWAP1 POP JUMP JUMPDEST PUSH2 0x29B DUP2 PUSH2 0x4DC JUMP JUMPDEST CALLER PUSH20 0xFFFFFFFFFFFFFFFFFFFFFFFFFFFFFFFFFFFFFFFF AND PUSH32 0xCAE7C1C63E65EDC05144A6B48D8CB6D31D4F693030FD9AEB70A966FAAAD0F262 DUP3 PUSH1 0x40 MLOAD PUSH2 0x2E1 SWAP2 SWAP1 PUSH2 0xFC4 JUMP JUMPDEST PUSH1 0x40 MLOAD DUP1 SWAP2 SUB SWAP1 LOG2 POP JUMP JUMPDEST PUSH1 0x0 PUSH2 0x2F7 DUP3 PUSH2 0x74D JUMP JUMPDEST SWAP1 POP SWAP2 SWAP1 POP JUMP JUMPDEST PUSH1 0x60 PUSH2 0x309 DUP3 PUSH2 0x778 JUMP JUMPDEST SWAP1 POP SWAP2 SWAP1 POP JUMP JUMPDEST PUSH1 0x0 PUSH2 0x31B DUP3 PUSH2 0x7F2 JUMP JUMPDEST SWAP1 POP SWAP2 SWAP1 POP JUMP JUMPDEST PUSH1 0x0 PUSH2 0x32D DUP3 PUSH2 0x81D JUMP JUMPDEST SWAP1 POP SWAP2 SWAP1 POP JUMP JUMPDEST PUSH2 0x33D DUP2 PUSH2 0x874 JUMP JUMPDEST CALLER PUSH20 0xFFFFFFFFFFFFFFFFFFFFFFFFFFFFFFFFFFFFFFFF AND PUSH32 0x754AC03968A16DF89A46742386B9770F63220C3D6EB2838F03971E18A1DBA22A DUP3 PUSH1 0x40 MLOAD PUSH2 0x383 SWAP2 SWAP1 PUSH2 0xFC4 JUMP JUMPDEST PUSH1 0x40 MLOAD DUP1 SWAP2 SUB SWAP1 LOG2 POP JUMP JUMPDEST PUSH2 0x396 PUSH2 0xF1E JUMP JUMPDEST PUSH2 0x39F DUP3 PUSH2 0x9E3 JUMP JUMPDEST SWAP1 POP SWAP2 SWAP1 POP JUMP JUMPDEST PUSH2 0x3AF DUP2 PUSH2 0xB61 JUMP JUMPDEST CALLER PUSH20 0xFFFFFFFFFFFFFFFFFFFFFFFFFFFFFFFFFFFFFFFF AND PUSH32 0xCAE7C1C63E65EDC05144A6B48D8CB6D31D4F693030FD9AEB70A966FAAAD0F262 DUP3 PUSH1 0x40 MLOAD PUSH2 0x3F5 SWAP2 SWAP1 PUSH2 0xFC4 JUMP JUMPDEST PUSH1 0x40 MLOAD DUP1 SWAP2 SUB SWAP1 LOG2 POP JUMP JUMPDEST PUSH2 0x409 DUP2 PUSH2 0xD83 JUMP JUMPDEST CALLER PUSH20 0xFFFFFFFFFFFFFFFFFFFFFFFFFFFFFFFFFFFFFFFF AND PUSH32 0x754AC03968A16DF89A46742386B9770F63220C3D6EB2838F03971E18A1DBA22A DUP3 PUSH1 0x40 MLOAD PUSH2 0x44F SWAP2 SWAP1 PUSH2 0xFC4 JUMP JUMPDEST PUSH1 0x40 MLOAD DUP1 SWAP2 SUB SWAP1 LOG2 POP JUMP JUMPDEST PUSH1 0x0 DUP1 PUSH2 0x465 PUSH2 0xE6A JUMP JUMPDEST SWAP1 POP DUP1 PUSH1 0x5 ADD PUSH1 0x0 DUP5 DUP2 MSTORE PUSH1 0x20 ADD SWAP1 DUP2 MSTORE PUSH1 0x20 ADD PUSH1 0x0 KECCAK256 SLOAD SWAP2 POP POP SWAP2 SWAP1 POP JUMP JUMPDEST PUSH1 0x0 DUP1 PUSH2 0x490 PUSH2 0xE97 JUMP JUMPDEST SWAP1 POP DUP1 PUSH1 0x0 ADD PUSH1 0x0 DUP5 PUSH20 0xFFFFFFFFFFFFFFFFFFFFFFFFFFFFFFFFFFFFFFFF AND PUSH20 0xFFFFFFFFFFFFFFFFFFFFFFFFFFFFFFFFFFFFFFFF AND DUP2 MSTORE PUSH1 0x20 ADD SWAP1 DUP2 MSTORE PUSH1 0x20 ADD PUSH1 0x0 KECCAK256 SLOAD SWAP2 POP POP SWAP2 SWAP1 POP JUMP JUMPDEST PUSH1 0x0 PUSH2 0x4E6 PUSH2 0xEC4 JUMP JUMPDEST SWAP1 POP PUSH1 0x0 PUSH2 0x4F2 PUSH2 0xE97 JUMP JUMPDEST SWAP1 POP PUSH1 0x0 PUSH2 0x4FE PUSH2 0xE6A JUMP JUMPDEST SWAP1 POP CALLER PUSH20 0xFFFFFFFFFFFFFFFFFFFFFFFFFFFFFFFFFFFFFFFF AND DUP4 PUSH1 0x2 ADD PUSH1 0x0 DUP7 DUP2 MSTORE PUSH1 0x20 ADD SWAP1 DUP2 MSTORE PUSH1 0x20 ADD PUSH1 0x0 KECCAK256 PUSH1 0x0 SWAP1 SLOAD SWAP1 PUSH2 0x100 EXP SWAP1 DIV PUSH20 0xFFFFFFFFFFFFFFFFFFFFFFFFFFFFFFFFFFFFFFFF AND PUSH20 0xFFFFFFFFFFFFFFFFFFFFFFFFFFFFFFFFFFFFFFFF AND EQ PUSH2 0x5A3 JUMPI PUSH1 0x40 MLOAD PUSH32 0x8C379A000000000000000000000000000000000000000000000000000000000 DUP2 MSTORE PUSH1 0x4 ADD PUSH2 0x59A SWAP1 PUSH2 0x12D6 JUMP JUMPDEST PUSH1 0x40 MLOAD DUP1 SWAP2 SUB SWAP1 REVERT JUMPDEST PUSH1 0x2 DUP4 PUSH1 0x3 ADD PUSH1 0x0 DUP7 DUP2 MSTORE PUSH1 0x20 ADD SWAP1 DUP2 MSTORE PUSH1 0x20 ADD PUSH1 0x0 KECCAK256 PUSH1 0x2 ADD SLOAD EQ PUSH2 0x5FE JUMPI PUSH1 0x40 MLOAD PUSH32 0x8C379A000000000000000000000000000000000000000000000000000000000 DUP2 MSTORE PUSH1 0x4 ADD PUSH2 0x5F5 SWAP1 PUSH2 0x1342 JUMP JUMPDEST PUSH1 0x40 MLOAD DUP1 SWAP2 SUB SWAP1 REVERT JUMPDEST PUSH1 0x0 PUSH1 0x3C DUP5 PUSH1 0x3 ADD PUSH1 0x0 DUP8 DUP2 MSTORE PUSH1 0x20 ADD SWAP1 DUP2 MSTORE PUSH1 0x20 ADD PUSH1 0x0 KECCAK256 PUSH1 0x9 ADD SLOAD LT ISZERO PUSH2 0x64E JUMPI DUP4 PUSH1 0x3 ADD PUSH1 0x0 DUP7 DUP2 MSTORE PUSH1 0x20 ADD SWAP1 DUP2 MSTORE PUSH1 0x20 ADD PUSH1 0x0 KECCAK256 PUSH1 0x9 ADD SLOAD PUSH1 0x82 PUSH2 0x646 SWAP2 SWAP1 PUSH2 0x1391 JUMP JUMPDEST SWAP1 POP DUP1 PUSH2 0x654 JUMP JUMPDEST PUSH1 0x3C SWAP1 POP DUP1 JUMPDEST POP DUP1 DUP3 PUSH1 0x1 ADD PUSH1 0x0 DUP8 DUP2 MSTORE PUSH1 0x20 ADD SWAP1 DUP2 MSTORE PUSH1 0x20 ADD PUSH1 0x0 KECCAK256 SLOAD PUSH2 0x676 SWAP2 SWAP1 PUSH2 0x13C5 JUMP JUMPDEST TIMESTAMP LT ISZERO PUSH2 0x6B8 JUMPI PUSH1 0x40 MLOAD PUSH32 0x8C379A000000000000000000000000000000000000000000000000000000000 DUP2 MSTORE PUSH1 0x4 ADD PUSH2 0x6AF SWAP1 PUSH2 0x1445 JUMP JUMPDEST PUSH1 0x40 MLOAD DUP1 SWAP2 SUB SWAP1 REVERT JUMPDEST PUSH1 0x0 DUP5 PUSH1 0x3 ADD PUSH1 0x0 DUP8 DUP2 MSTORE PUSH1 0x20 ADD SWAP1 DUP2 MSTORE PUSH1 0x20 ADD PUSH1 0x0 KECCAK256 PUSH1 0x2 ADD DUP2 SWAP1 SSTORE POP DUP2 PUSH1 0x1 ADD PUSH1 0x0 DUP7 DUP2 MSTORE PUSH1 0x20 ADD SWAP1 DUP2 MSTORE PUSH1 0x20 ADD PUSH1 0x0 KECCAK256 PUSH1 0x0 SWAP1 SSTORE DUP3 PUSH1 0x0 ADD PUSH1 0x0 CALLER PUSH20 0xFFFFFFFFFFFFFFFFFFFFFFFFFFFFFFFFFFFFFFFF AND PUSH20 0xFFFFFFFFFFFFFFFFFFFFFFFFFFFFFFFFFFFFFFFF AND DUP2 MSTORE PUSH1 0x20 ADD SWAP1 DUP2 MSTORE PUSH1 0x20 ADD PUSH1 0x0 KECCAK256 PUSH1 0x0 DUP2 SLOAD DUP1 SWAP3 SWAP2 SWAP1 PUSH2 0x741 SWAP1 PUSH2 0x1465 JUMP JUMPDEST SWAP2 SWAP1 POP SSTORE POP POP POP POP POP POP JUMP JUMPDEST PUSH1 0x0 DUP1 PUSH2 0x758 PUSH2 0xE6A JUMP JUMPDEST SWAP1 POP DUP1 PUSH1 0x2 ADD PUSH1 0x0 DUP5 DUP2 MSTORE PUSH1 0x20 ADD SWAP1 DUP2 MSTORE PUSH1 0x20 ADD PUSH1 0x0 KECCAK256 SLOAD SWAP2 POP POP SWAP2 SWAP1 POP JUMP JUMPDEST PUSH1 0x60 PUSH1 0x0 PUSH2 0x784 PUSH2 0xEF1 JUMP JUMPDEST SWAP1 POP DUP1 PUSH1 0x3 ADD PUSH1 0x0 DUP5 DUP2 MSTORE PUSH1 0x20 ADD SWAP1 DUP2 MSTORE PUSH1 0x20 ADD PUSH1 0x0 KECCAK256 DUP1 SLOAD DUP1 PUSH1 0x20 MUL PUSH1 0x20 ADD PUSH1 0x40 MLOAD SWAP1 DUP2 ADD PUSH1 0x40 MSTORE DUP1 SWAP3 SWAP2 SWAP1 DUP2 DUP2 MSTORE PUSH1 0x20 ADD DUP3 DUP1 SLOAD DUP1 ISZERO PUSH2 0x7E5 JUMPI PUSH1 0x20 MUL DUP3 ADD SWAP2 SWAP1 PUSH1 0x0 MSTORE PUSH1 0x20 PUSH1 0x0 KECCAK256 SWAP1 JUMPDEST DUP2 SLOAD DUP2 MSTORE PUSH1 0x20 ADD SWAP1 PUSH1 0x1 ADD SWAP1 DUP1 DUP4 GT PUSH2 0x7D1 JUMPI JUMPDEST POP POP POP POP POP SWAP2 POP POP SWAP2 SWAP1 POP JUMP JUMPDEST PUSH1 0x0 DUP1 PUSH2 0x7FD PUSH2 0xE6A JUMP JUMPDEST SWAP1 POP DUP1 PUSH1 0x1 ADD PUSH1 0x0 DUP5 DUP2 MSTORE PUSH1 0x20 ADD SWAP1 DUP2 MSTORE PUSH1 0x20 ADD PUSH1 0x0 KECCAK256 SLOAD SWAP2 POP POP SWAP2 SWAP1 POP JUMP JUMPDEST PUSH1 0x0 DUP1 PUSH2 0x828 PUSH2 0xE97 JUMP JUMPDEST SWAP1 POP DUP1 PUSH1 0x1 ADD PUSH1 0x0 DUP5 PUSH20 0xFFFFFFFFFFFFFFFFFFFFFFFFFFFFFFFFFFFFFFFF AND PUSH20 0xFFFFFFFFFFFFFFFFFFFFFFFFFFFFFFFFFFFFFFFF AND DUP2 MSTORE PUSH1 0x20 ADD SWAP1 DUP2 MSTORE PUSH1 0x20 ADD PUSH1 0x0 KECCAK256 SLOAD SWAP2 POP POP SWAP2 SWAP1 POP JUMP JUMPDEST PUSH1 0x0 PUSH2 0x87E PUSH2 0xEC4 JUMP JUMPDEST SWAP1 POP PUSH1 0x0 PUSH2 0x88A PUSH2 0xE6A JUMP JUMPDEST SWAP1 POP PUSH1 0x0 DUP3 PUSH1 0x3 ADD PUSH1 0x0 DUP6 DUP2 MSTORE PUSH1 0x20 ADD SWAP1 DUP2 MSTORE PUSH1 0x20 ADD PUSH1 0x0 KECCAK256 PUSH1 0x2 ADD SLOAD EQ PUSH2 0x8B1 JUMPI PUSH1 0x0 DUP1 REVERT JUMPDEST CALLER PUSH20 0xFFFFFFFFFFFFFFFFFFFFFFFFFFFFFFFFFFFFFFFF AND DUP3 PUSH1 0x2 ADD PUSH1 0x0 DUP6 DUP2 MSTORE PUSH1 0x20 ADD SWAP1 DUP2 MSTORE PUSH1 0x20 ADD PUSH1 0x0 KECCAK256 PUSH1 0x0 SWAP1 SLOAD SWAP1 PUSH2 0x100 EXP SWAP1 DIV PUSH20 0xFFFFFFFFFFFFFFFFFFFFFFFFFFFFFFFFFFFFFFFF AND PUSH20 0xFFFFFFFFFFFFFFFFFFFFFFFFFFFFFFFFFFFFFFFF AND EQ PUSH2 0x91E JUMPI PUSH1 0x0 DUP1 REVERT JUMPDEST PUSH1 0x0 PUSH2 0x12C DUP4 PUSH1 0x3 ADD PUSH1 0x0 DUP7 DUP2 MSTORE PUSH1 0x20 ADD SWAP1 DUP2 MSTORE PUSH1 0x20 ADD PUSH1 0x0 KECCAK256 PUSH1 0x9 ADD SLOAD LT ISZERO PUSH2 0x970 JUMPI DUP3 PUSH1 0x3 ADD PUSH1 0x0 DUP6 DUP2 MSTORE PUSH1 0x20 ADD SWAP1 DUP2 MSTORE PUSH1 0x20 ADD PUSH1 0x0 KECCAK256 PUSH1 0x9 ADD SLOAD PUSH2 0x262 PUSH2 0x968 SWAP2 SWAP1 PUSH2 0x1391 JUMP JUMPDEST SWAP1 POP DUP1 PUSH2 0x977 JUMP JUMPDEST PUSH2 0x12C SWAP1 POP DUP1 JUMPDEST POP DUP1 DUP3 PUSH1 0x5 ADD PUSH1 0x0 DUP7 DUP2 MSTORE PUSH1 0x20 ADD SWAP1 DUP2 MSTORE PUSH1 0x20 ADD PUSH1 0x0 KECCAK256 SLOAD PUSH2 0x999 SWAP2 SWAP1 PUSH2 0x13C5 JUMP JUMPDEST TIMESTAMP LT ISZERO PUSH2 0x9A5 JUMPI PUSH1 0x0 DUP1 REVERT JUMPDEST PUSH1 0x5 DUP4 PUSH1 0x3 ADD PUSH1 0x0 DUP7 DUP2 MSTORE PUSH1 0x20 ADD SWAP1 DUP2 MSTORE PUSH1 0x20 ADD PUSH1 0x0 KECCAK256 PUSH1 0x2 ADD DUP2 SWAP1 SSTORE POP TIMESTAMP DUP3 PUSH1 0x2 ADD PUSH1 0x0 DUP7 DUP2 MSTORE PUSH1 0x20 ADD SWAP1 DUP2 MSTORE PUSH1 0x20 ADD PUSH1 0x0 KECCAK256 DUP2 SWAP1 SSTORE POP POP POP POP POP JUMP JUMPDEST PUSH2 0x9EB PUSH2 0xF1E JUMP JUMPDEST PUSH1 0x0 PUSH2 0x9F5 PUSH2 0xEF1 JUMP JUMPDEST SWAP1 POP DUP1 PUSH1 0x2 ADD PUSH1 0x0 DUP5 DUP2 MSTORE PUSH1 0x20 ADD SWAP1 DUP2 MSTORE PUSH1 0x20 ADD PUSH1 0x0 KECCAK256 PUSH1 0x40 MLOAD DUP1 PUSH1 0xA0 ADD PUSH1 0x40 MSTORE SWAP1 DUP2 PUSH1 0x0 DUP3 ADD SLOAD DUP2 MSTORE PUSH1 0x20 ADD PUSH1 0x1 DUP3 ADD SLOAD DUP2 MSTORE PUSH1 0x20 ADD PUSH1 0x2 DUP3 ADD SLOAD DUP2 MSTORE PUSH1 0x20 ADD PUSH1 0x3 DUP3 ADD DUP1 SLOAD PUSH2 0xA45 SWAP1 PUSH2 0x14DC JUMP JUMPDEST DUP1 PUSH1 0x1F ADD PUSH1 0x20 DUP1 SWAP2 DIV MUL PUSH1 0x20 ADD PUSH1 0x40 MLOAD SWAP1 DUP2 ADD PUSH1 0x40 MSTORE DUP1 SWAP3 SWAP2 SWAP1 DUP2 DUP2 MSTORE PUSH1 0x20 ADD DUP3 DUP1 SLOAD PUSH2 0xA71 SWAP1 PUSH2 0x14DC JUMP JUMPDEST DUP1 ISZERO PUSH2 0xABE JUMPI DUP1 PUSH1 0x1F LT PUSH2 0xA93 JUMPI PUSH2 0x100 DUP1 DUP4 SLOAD DIV MUL DUP4 MSTORE SWAP2 PUSH1 0x20 ADD SWAP2 PUSH2 0xABE JUMP JUMPDEST DUP3 ADD SWAP2 SWAP1 PUSH1 0x0 MSTORE PUSH1 0x20 PUSH1 0x0 KECCAK256 SWAP1 JUMPDEST DUP2 SLOAD DUP2 MSTORE SWAP1 PUSH1 0x1 ADD SWAP1 PUSH1 0x20 ADD DUP1 DUP4 GT PUSH2 0xAA1 JUMPI DUP3 SWAP1 SUB PUSH1 0x1F AND DUP3 ADD SWAP2 JUMPDEST POP POP POP POP POP DUP2 MSTORE PUSH1 0x20 ADD PUSH1 0x4 DUP3 ADD DUP1 SLOAD PUSH2 0xAD7 SWAP1 PUSH2 0x14DC JUMP JUMPDEST DUP1 PUSH1 0x1F ADD PUSH1 0x20 DUP1 SWAP2 DIV MUL PUSH1 0x20 ADD PUSH1 0x40 MLOAD SWAP1 DUP2 ADD PUSH1 0x40 MSTORE DUP1 SWAP3 SWAP2 SWAP1 DUP2 DUP2 MSTORE PUSH1 0x20 ADD DUP3 DUP1 SLOAD PUSH2 0xB03 SWAP1 PUSH2 0x14DC JUMP JUMPDEST DUP1 ISZERO PUSH2 0xB50 JUMPI DUP1 PUSH1 0x1F LT PUSH2 0xB25 JUMPI PUSH2 0x100 DUP1 DUP4 SLOAD DIV MUL DUP4 MSTORE SWAP2 PUSH1 0x20 ADD SWAP2 PUSH2 0xB50 JUMP JUMPDEST DUP3 ADD SWAP2 SWAP1 PUSH1 0x0 MSTORE PUSH1 0x20 PUSH1 0x0 KECCAK256 SWAP1 JUMPDEST DUP2 SLOAD DUP2 MSTORE SWAP1 PUSH1 0x1 ADD SWAP1 PUSH1 0x20 ADD DUP1 DUP4 GT PUSH2 0xB33 JUMPI DUP3 SWAP1 SUB PUSH1 0x1F AND DUP3 ADD SWAP2 JUMPDEST POP POP POP POP POP DUP2 MSTORE POP POP SWAP2 POP POP SWAP2 SWAP1 POP JUMP JUMPDEST PUSH1 0x0 PUSH2 0xB6B PUSH2 0xEC4 JUMP JUMPDEST SWAP1 POP PUSH1 0x0 PUSH2 0xB77 PUSH2 0xE97 JUMP JUMPDEST SWAP1 POP PUSH1 0x0 PUSH2 0xB83 PUSH2 0xE6A JUMP JUMPDEST SWAP1 POP CALLER PUSH20 0xFFFFFFFFFFFFFFFFFFFFFFFFFFFFFFFFFFFFFFFF AND DUP4 PUSH1 0x2 ADD PUSH1 0x0 DUP7 DUP2 MSTORE PUSH1 0x20 ADD SWAP1 DUP2 MSTORE PUSH1 0x20 ADD PUSH1 0x0 KECCAK256 PUSH1 0x0 SWAP1 SLOAD SWAP1 PUSH2 0x100 EXP SWAP1 DIV PUSH20 0xFFFFFFFFFFFFFFFFFFFFFFFFFFFFFFFFFFFFFFFF AND PUSH20 0xFFFFFFFFFFFFFFFFFFFFFFFFFFFFFFFFFFFFFFFF AND EQ PUSH2 0xBF2 JUMPI PUSH1 0x0 DUP1 REVERT JUMPDEST PUSH1 0x5 DUP4 PUSH1 0x3 ADD PUSH1 0x0 DUP7 DUP2 MSTORE PUSH1 0x20 ADD SWAP1 DUP2 MSTORE PUSH1 0x20 ADD PUSH1 0x0 KECCAK256 PUSH1 0x2 ADD SLOAD EQ PUSH2 0xC17 JUMPI PUSH1 0x0 DUP1 REVERT JUMPDEST PUSH1 0x0 PUSH2 0x12C DUP5 PUSH1 0x3 ADD PUSH1 0x0 DUP8 DUP2 MSTORE PUSH1 0x20 ADD SWAP1 DUP2 MSTORE PUSH1 0x20 ADD PUSH1 0x0 KECCAK256 PUSH1 0x9 ADD SLOAD LT ISZERO PUSH2 0xC69 JUMPI DUP4 PUSH1 0x3 ADD PUSH1 0x0 DUP7 DUP2 MSTORE PUSH1 0x20 ADD SWAP1 DUP2 MSTORE PUSH1 0x20 ADD PUSH1 0x0 KECCAK256 PUSH1 0x9 ADD SLOAD PUSH2 0x262 PUSH2 0xC61 SWAP2 SWAP1 PUSH2 0x1391 JUMP JUMPDEST SWAP1 POP DUP1 PUSH2 0xC70 JUMP JUMPDEST PUSH2 0x12C SWAP1 POP DUP1 JUMPDEST POP DUP1 DUP3 PUSH1 0x2 ADD PUSH1 0x0 DUP8 DUP2 MSTORE PUSH1 0x20 ADD SWAP1 DUP2 MSTORE PUSH1 0x20 ADD PUSH1 0x0 KECCAK256 SLOAD PUSH2 0xC92 SWAP2 SWAP1 PUSH2 0x13C5 JUMP JUMPDEST TIMESTAMP LT ISZERO PUSH2 0xCD4 JUMPI PUSH1 0x40 MLOAD PUSH32 0x8C379A000000000000000000000000000000000000000000000000000000000 DUP2 MSTORE PUSH1 0x4 ADD PUSH2 0xCCB SWAP1 PUSH2 0x1445 JUMP JUMPDEST PUSH1 0x40 MLOAD DUP1 SWAP2 SUB SWAP1 REVERT JUMPDEST PUSH1 0x0 DUP5 PUSH1 0x3 ADD PUSH1 0x0 DUP8 DUP2 MSTORE PUSH1 0x20 ADD SWAP1 DUP2 MSTORE PUSH1 0x20 ADD PUSH1 0x0 KECCAK256 PUSH1 0x2 ADD DUP2 SWAP1 SSTORE POP DUP2 PUSH1 0x2 ADD PUSH1 0x0 DUP7 DUP2 MSTORE PUSH1 0x20 ADD SWAP1 DUP2 MSTORE PUSH1 0x20 ADD PUSH1 0x0 KECCAK256 PUSH1 0x0 SWAP1 SSTORE DUP3 PUSH1 0x1 ADD PUSH1 0x0 CALLER PUSH20 0xFFFFFFFFFFFFFFFFFFFFFFFFFFFFFFFFFFFFFFFF AND PUSH20 0xFFFFFFFFFFFFFFFFFFFFFFFFFFFFFFFFFFFFFFFF AND DUP2 MSTORE PUSH1 0x20 ADD SWAP1 DUP2 MSTORE PUSH1 0x20 ADD PUSH1 0x0 KECCAK256 PUSH1 0x0 DUP2 SLOAD DUP1 SWAP3 SWAP2 SWAP1 PUSH2 0xD5D SWAP1 PUSH2 0x1465 JUMP JUMPDEST SWAP2 SWAP1 POP SSTORE POP TIMESTAMP DUP3 PUSH1 0x5 ADD PUSH1 0x0 DUP8 DUP2 MSTORE PUSH1 0x20 ADD SWAP1 DUP2 MSTORE PUSH1 0x20 ADD PUSH1 0x0 KECCAK256 DUP2 SWAP1 SSTORE POP POP POP POP POP POP JUMP JUMPDEST PUSH1 0x0 PUSH2 0xD8D PUSH2 0xEC4 JUMP JUMPDEST SWAP1 POP PUSH1 0x0 PUSH2 0xD99 PUSH2 0xE6A JUMP JUMPDEST SWAP1 POP PUSH1 0x0 DUP3 PUSH1 0x3 ADD PUSH1 0x0 DUP6 DUP2 MSTORE PUSH1 0x20 ADD SWAP1 DUP2 MSTORE PUSH1 0x20 ADD PUSH1 0x0 KECCAK256 PUSH1 0x2 ADD SLOAD EQ PUSH2 0xDC0 JUMPI PUSH1 0x0 DUP1 REVERT JUMPDEST CALLER PUSH20 0xFFFFFFFFFFFFFFFFFFFFFFFFFFFFFFFFFFFFFFFF AND DUP3 PUSH1 0x2 ADD PUSH1 0x0 DUP6 DUP2 MSTORE PUSH1 0x20 ADD SWAP1 DUP2 MSTORE PUSH1 0x20 ADD PUSH1 0x0 KECCAK256 PUSH1 0x0 SWAP1 SLOAD SWAP1 PUSH2 0x100 EXP SWAP1 DIV PUSH20 0xFFFFFFFFFFFFFFFFFFFFFFFFFFFFFFFFFFFFFFFF AND PUSH20 0xFFFFFFFFFFFFFFFFFFFFFFFFFFFFFFFFFFFFFFFF AND EQ PUSH2 0xE2D JUMPI PUSH1 0x0 DUP1 REVERT JUMPDEST PUSH1 0x2 DUP3 PUSH1 0x3 ADD PUSH1 0x0 DUP6 DUP2 MSTORE PUSH1 0x20 ADD SWAP1 DUP2 MSTORE PUSH1 0x20 ADD PUSH1 0x0 KECCAK256 PUSH1 0x2 ADD DUP2 SWAP1 SSTORE POP TIMESTAMP DUP2 PUSH1 0x1 ADD PUSH1 0x0 DUP6 DUP2 MSTORE PUSH1 0x20 ADD SWAP1 DUP2 MSTORE PUSH1 0x20 ADD PUSH1 0x0 KECCAK256 DUP2 SWAP1 SSTORE POP POP POP POP JUMP JUMPDEST PUSH1 0x0 DUP1 PUSH32 0xF76A8E66124DAC83B46AECD7C4256D5158E69F6ADF88592FD8146C79E007626E SWAP1 POP DUP1 SWAP2 POP POP SWAP1 JUMP JUMPDEST PUSH1 0x0 DUP1 PUSH32 0x2C89D74504B6AD8D4FBDE22BC3474166BAC5452A11195897F239D8BEBE02D707 SWAP1 POP DUP1 SWAP2 POP POP SWAP1 JUMP JUMPDEST PUSH1 0x0 DUP1 PUSH32 0x3CAB9A070A0C61CD0AE9D9E9E2C0781E5CA8691BEC4087E5A4701D5AC018DD4E SWAP1 POP DUP1 SWAP2 POP POP SWAP1 JUMP JUMPDEST PUSH1 0x0 DUP1 PUSH32 0xB5DBBC334907F600E1151190A68C4043043163A23A907389A2C6F6231ED4318B SWAP1 POP DUP1 SWAP2 POP POP SWAP1 JUMP JUMPDEST PUSH1 0x40 MLOAD DUP1 PUSH1 0xA0 ADD PUSH1 0x40 MSTORE DUP1 PUSH1 0x0 DUP2 MSTORE PUSH1 0x20 ADD PUSH1 0x0 DUP2 MSTORE PUSH1 0x20 ADD PUSH1 0x0 DUP2 MSTORE PUSH1 0x20 ADD PUSH1 0x60 DUP2 MSTORE PUSH1 0x20 ADD PUSH1 0x60 DUP2 MSTORE POP SWAP1 JUMP JUMPDEST PUSH1 0x0 DUP1 REVERT JUMPDEST PUSH1 0x0 DUP2 SWAP1 POP SWAP2 SWAP1 POP JUMP JUMPDEST PUSH2 0xF65 DUP2 PUSH2 0xF52 JUMP JUMPDEST DUP2 EQ PUSH2 0xF70 JUMPI PUSH1 0x0 DUP1 REVERT JUMPDEST POP JUMP JUMPDEST PUSH1 0x0 DUP2 CALLDATALOAD SWAP1 POP PUSH2 0xF82 DUP2 PUSH2 0xF5C JUMP JUMPDEST SWAP3 SWAP2 POP POP JUMP JUMPDEST PUSH1 0x0 PUSH1 0x20 DUP3 DUP5 SUB SLT ISZERO PUSH2 0xF9E JUMPI PUSH2 0xF9D PUSH2 0xF4D JUMP JUMPDEST JUMPDEST PUSH1 0x0 PUSH2 0xFAC DUP5 DUP3 DUP6 ADD PUSH2 0xF73 JUMP JUMPDEST SWAP2 POP POP SWAP3 SWAP2 POP POP JUMP JUMPDEST PUSH2 0xFBE DUP2 PUSH2 0xF52 JUMP JUMPDEST DUP3 MSTORE POP POP JUMP JUMPDEST PUSH1 0x0 PUSH1 0x20 DUP3 ADD SWAP1 POP PUSH2 0xFD9 PUSH1 0x0 DUP4 ADD DUP5 PUSH2 0xFB5 JUMP JUMPDEST SWAP3 SWAP2 POP POP JUMP JUMPDEST PUSH1 0x0 PUSH20 0xFFFFFFFFFFFFFFFFFFFFFFFFFFFFFFFFFFFFFFFF DUP3 AND SWAP1 POP SWAP2 SWAP1 POP JUMP JUMPDEST PUSH1 0x0 PUSH2 0x100A DUP3 PUSH2 0xFDF JUMP JUMPDEST SWAP1 POP SWAP2 SWAP1 POP JUMP JUMPDEST PUSH2 0x101A DUP2 PUSH2 0xFFF JUMP JUMPDEST DUP2 EQ PUSH2 0x1025 JUMPI PUSH1 0x0 DUP1 REVERT JUMPDEST POP JUMP JUMPDEST PUSH1 0x0 DUP2 CALLDATALOAD SWAP1 POP PUSH2 0x1037 DUP2 PUSH2 0x1011 JUMP JUMPDEST SWAP3 SWAP2 POP POP JUMP JUMPDEST PUSH1 0x0 PUSH1 0x20 DUP3 DUP5 SUB SLT ISZERO PUSH2 0x1053 JUMPI PUSH2 0x1052 PUSH2 0xF4D JUMP JUMPDEST JUMPDEST PUSH1 0x0 PUSH2 0x1061 DUP5 DUP3 DUP6 ADD PUSH2 0x1028 JUMP JUMPDEST SWAP2 POP POP SWAP3 SWAP2 POP POP JUMP JUMPDEST PUSH1 0x0 DUP2 MLOAD SWAP1 POP SWAP2 SWAP1 POP JUMP JUMPDEST PUSH1 0x0 DUP3 DUP3 MSTORE PUSH1 0x20 DUP3 ADD SWAP1 POP SWAP3 SWAP2 POP POP JUMP JUMPDEST PUSH1 0x0 DUP2 SWAP1 POP PUSH1 0x20 DUP3 ADD SWAP1 POP SWAP2 SWAP1 POP JUMP JUMPDEST PUSH2 0x109F DUP2 PUSH2 0xF52 JUMP JUMPDEST DUP3 MSTORE POP POP JUMP JUMPDEST PUSH1 0x0 PUSH2 0x10B1 DUP4 DUP4 PUSH2 0x1096 JUMP JUMPDEST PUSH1 0x20 DUP4 ADD SWAP1 POP SWAP3 SWAP2 POP POP JUMP JUMPDEST PUSH1 0x0 PUSH1 0x20 DUP3 ADD SWAP1 POP SWAP2 SWAP1 POP JUMP JUMPDEST PUSH1 0x0 PUSH2 0x10D5 DUP3 PUSH2 0x106A JUMP JUMPDEST PUSH2 0x10DF DUP2 DUP6 PUSH2 0x1075 JUMP JUMPDEST SWAP4 POP PUSH2 0x10EA DUP4 PUSH2 0x1086 JUMP JUMPDEST DUP1 PUSH1 0x0 JUMPDEST DUP4 DUP2 LT ISZERO PUSH2 0x111B JUMPI DUP2 MLOAD PUSH2 0x1102 DUP9 DUP3 PUSH2 0x10A5 JUMP JUMPDEST SWAP8 POP PUSH2 0x110D DUP4 PUSH2 0x10BD JUMP JUMPDEST SWAP3 POP POP PUSH1 0x1 DUP2 ADD SWAP1 POP PUSH2 0x10EE JUMP JUMPDEST POP DUP6 SWAP4 POP POP POP POP SWAP3 SWAP2 POP POP JUMP JUMPDEST PUSH1 0x0 PUSH1 0x20 DUP3 ADD SWAP1 POP DUP2 DUP2 SUB PUSH1 0x0 DUP4 ADD MSTORE PUSH2 0x1142 DUP2 DUP5 PUSH2 0x10CA JUMP JUMPDEST SWAP1 POP SWAP3 SWAP2 POP POP JUMP JUMPDEST PUSH1 0x0 DUP2 MLOAD SWAP1 POP SWAP2 SWAP1 POP JUMP JUMPDEST PUSH1 0x0 DUP3 DUP3 MSTORE PUSH1 0x20 DUP3 ADD SWAP1 POP SWAP3 SWAP2 POP POP JUMP JUMPDEST PUSH1 0x0 JUMPDEST DUP4 DUP2 LT ISZERO PUSH2 0x1184 JUMPI DUP1 DUP3 ADD MLOAD DUP2 DUP5 ADD MSTORE PUSH1 0x20 DUP2 ADD SWAP1 POP PUSH2 0x1169 JUMP JUMPDEST PUSH1 0x0 DUP5 DUP5 ADD MSTORE POP POP POP POP JUMP JUMPDEST PUSH1 0x0 PUSH1 0x1F NOT PUSH1 0x1F DUP4 ADD AND SWAP1 POP SWAP2 SWAP1 POP JUMP JUMPDEST PUSH1 0x0 PUSH2 0x11AC DUP3 PUSH2 0x114A JUMP JUMPDEST PUSH2 0x11B6 DUP2 DUP6 PUSH2 0x1155 JUMP JUMPDEST SWAP4 POP PUSH2 0x11C6 DUP2 DUP6 PUSH1 0x20 DUP7 ADD PUSH2 0x1166 JUMP JUMPDEST PUSH2 0x11CF DUP2 PUSH2 0x1190 JUMP JUMPDEST DUP5 ADD SWAP2 POP POP SWAP3 SWAP2 POP POP JUMP JUMPDEST PUSH1 0x0 PUSH1 0xA0 DUP4 ADD PUSH1 0x0 DUP4 ADD MLOAD PUSH2 0x11F2 PUSH1 0x0 DUP7 ADD DUP3 PUSH2 0x1096 JUMP JUMPDEST POP PUSH1 0x20 DUP4 ADD MLOAD PUSH2 0x1205 PUSH1 0x20 DUP7 ADD DUP3 PUSH2 0x1096 JUMP JUMPDEST POP PUSH1 0x40 DUP4 ADD MLOAD PUSH2 0x1218 PUSH1 0x40 DUP7 ADD DUP3 PUSH2 0x1096 JUMP JUMPDEST POP PUSH1 0x60 DUP4 ADD MLOAD DUP5 DUP3 SUB PUSH1 0x60 DUP7 ADD MSTORE PUSH2 0x1230 DUP3 DUP3 PUSH2 0x11A1 JUMP JUMPDEST SWAP2 POP POP PUSH1 0x80 DUP4 ADD MLOAD DUP5 DUP3 SUB PUSH1 0x80 DUP7 ADD MSTORE PUSH2 0x124A DUP3 DUP3 PUSH2 0x11A1 JUMP JUMPDEST SWAP2 POP POP DUP1 SWAP2 POP POP SWAP3 SWAP2 POP POP JUMP JUMPDEST PUSH1 0x0 PUSH1 0x20 DUP3 ADD SWAP1 POP DUP2 DUP2 SUB PUSH1 0x0 DUP4 ADD MSTORE PUSH2 0x1271 DUP2 DUP5 PUSH2 0x11DA JUMP JUMPDEST SWAP1 POP SWAP3 SWAP2 POP POP JUMP JUMPDEST PUSH1 0x0 DUP3 DUP3 MSTORE PUSH1 0x20 DUP3 ADD SWAP1 POP SWAP3 SWAP2 POP POP JUMP JUMPDEST PUSH32 0x796F7520617265206E6F7420746865206F776E65720000000000000000000000 PUSH1 0x0 DUP3 ADD MSTORE POP JUMP JUMPDEST PUSH1 0x0 PUSH2 0x12C0 PUSH1 0x15 DUP4 PUSH2 0x1279 JUMP JUMPDEST SWAP2 POP PUSH2 0x12CB DUP3 PUSH2 0x128A JUMP JUMPDEST PUSH1 0x20 DUP3 ADD SWAP1 POP SWAP2 SWAP1 POP JUMP JUMPDEST PUSH1 0x0 PUSH1 0x20 DUP3 ADD SWAP1 POP DUP2 DUP2 SUB PUSH1 0x0 DUP4 ADD MSTORE PUSH2 0x12EF DUP2 PUSH2 0x12B3 JUMP JUMPDEST SWAP1 POP SWAP2 SWAP1 POP JUMP JUMPDEST PUSH32 0x446F672C20796F7520617265206E6F7420676F6C64207175657374696E670000 PUSH1 0x0 DUP3 ADD MSTORE POP JUMP JUMPDEST PUSH1 0x0 PUSH2 0x132C PUSH1 0x1E DUP4 PUSH2 0x1279 JUMP JUMPDEST SWAP2 POP PUSH2 0x1337 DUP3 PUSH2 0x12F6 JUMP JUMPDEST PUSH1 0x20 DUP3 ADD SWAP1 POP SWAP2 SWAP1 POP JUMP JUMPDEST PUSH1 0x0 PUSH1 0x20 DUP3 ADD SWAP1 POP DUP2 DUP2 SUB PUSH1 0x0 DUP4 ADD MSTORE PUSH2 0x135B DUP2 PUSH2 0x131F JUMP JUMPDEST SWAP1 POP SWAP2 SWAP1 POP JUMP JUMPDEST PUSH32 0x4E487B7100000000000000000000000000000000000000000000000000000000 PUSH1 0x0 MSTORE PUSH1 0x11 PUSH1 0x4 MSTORE PUSH1 0x24 PUSH1 0x0 REVERT JUMPDEST PUSH1 0x0 PUSH2 0x139C DUP3 PUSH2 0xF52 JUMP JUMPDEST SWAP2 POP PUSH2 0x13A7 DUP4 PUSH2 0xF52 JUMP JUMPDEST SWAP3 POP DUP3 DUP3 SUB SWAP1 POP DUP2 DUP2 GT ISZERO PUSH2 0x13BF JUMPI PUSH2 0x13BE PUSH2 0x1362 JUMP JUMPDEST JUMPDEST SWAP3 SWAP2 POP POP JUMP JUMPDEST PUSH1 0x0 PUSH2 0x13D0 DUP3 PUSH2 0xF52 JUMP JUMPDEST SWAP2 POP PUSH2 0x13DB DUP4 PUSH2 0xF52 JUMP JUMPDEST SWAP3 POP DUP3 DUP3 ADD SWAP1 POP DUP1 DUP3 GT ISZERO PUSH2 0x13F3 JUMPI PUSH2 0x13F2 PUSH2 0x1362 JUMP JUMPDEST JUMPDEST SWAP3 SWAP2 POP POP JUMP JUMPDEST PUSH32 0x6974277320746F6F206561726C7920746F2070756C6C206F7574000000000000 PUSH1 0x0 DUP3 ADD MSTORE POP JUMP JUMPDEST PUSH1 0x0 PUSH2 0x142F PUSH1 0x1A DUP4 PUSH2 0x1279 JUMP JUMPDEST SWAP2 POP PUSH2 0x143A DUP3 PUSH2 0x13F9 JUMP JUMPDEST PUSH1 0x20 DUP3 ADD SWAP1 POP SWAP2 SWAP1 POP JUMP JUMPDEST PUSH1 0x0 PUSH1 0x20 DUP3 ADD SWAP1 POP DUP2 DUP2 SUB PUSH1 0x0 DUP4 ADD MSTORE PUSH2 0x145E DUP2 PUSH2 0x1422 JUMP JUMPDEST SWAP1 POP SWAP2 SWAP1 POP JUMP JUMPDEST PUSH1 0x0 PUSH2 0x1470 DUP3 PUSH2 0xF52 JUMP JUMPDEST SWAP2 POP PUSH32 0xFFFFFFFFFFFFFFFFFFFFFFFFFFFFFFFFFFFFFFFFFFFFFFFFFFFFFFFFFFFFFFFF DUP3 SUB PUSH2 0x14A2 JUMPI PUSH2 0x14A1 PUSH2 0x1362 JUMP JUMPDEST JUMPDEST PUSH1 0x1 DUP3 ADD SWAP1 POP SWAP2 SWAP1 POP JUMP JUMPDEST PUSH32 0x4E487B7100000000000000000000000000000000000000000000000000000000 PUSH1 0x0 MSTORE PUSH1 0x22 PUSH1 0x4 MSTORE PUSH1 0x24 PUSH1 0x0 REVERT JUMPDEST PUSH1 0x0 PUSH1 0x2 DUP3 DIV SWAP1 POP PUSH1 0x1 DUP3 AND DUP1 PUSH2 0x14F4 JUMPI PUSH1 0x7F DUP3 AND SWAP2 POP JUMPDEST PUSH1 0x20 DUP3 LT DUP2 SUB PUSH2 0x1507 JUMPI PUSH2 0x1506 PUSH2 0x14AD JUMP JUMPDEST JUMPDEST POP SWAP2 SWAP1 POP JUMP INVALID LOG2 PUSH5 0x6970667358 0x22 SLT KECCAK256 0xD5 0xEC SWAP10 DUP11 EXTCODESIZE PUSH20 0x975F0BA35A53C8EE2125574E41D83F1BB9EBB278 CREATE PUSH18 0x9C7D064764736F6C63430008110033000000 "},"methodIdentifiers":{"endQuestGem(uint256)":"e42ce3cf","endQuestGold(uint256)":"3fc0287f","getCooldown(uint256)":"29e203ab","getGemBalance(address)":"929c2cc0","getGemStart(uint256)":"68a06747","getGoldBalance(address)":"3707caf2","getGoldStart(uint256)":"92080080","getTreasure(uint256)":"cdf06415","getTreasures(uint256)":"77750494","startQuestGem(uint256)":"a174d3c2","startQuestGold(uint256)":"e6be6c66"}}}}}