{"contracts/facets/MonsterFacet.sol":{"MonsterFacet":{"abi":[{"anonymous":false,"inputs":[{"indexed":true,"internalType":"uint256","name":"_monsterId","type":"uint256"}],"name":"CreateBasicMonster","type":"event"},{"anonymous":false,"inputs":[{"indexed":true,"internalType":"uint256","name":"_playerId","type":"uint256"}],"name":"DragonQuest","type":"event"},{"inputs":[{"internalType":"uint256","name":"_xpReward","type":"uint256"},{"internalType":"uint256","name":"_damage","type":"uint256"},{"internalType":"uint256","name":"_hp","type":"uint256"},{"internalType":"uint256","name":"_cooldown","type":"uint256"},{"internalType":"string","name":"_name","type":"string"},{"internalType":"string","name":"_uri","type":"string"}],"name":"createBasicMonster","outputs":[],"stateMutability":"nonpayable","type":"function"},{"inputs":[{"internalType":"uint256","name":"_playerId","type":"uint256"}],"name":"dragonQuest","outputs":[{"internalType":"bool","name":"result","type":"bool"}],"stateMutability":"nonpayable","type":"function"},{"inputs":[{"internalType":"uint256","name":"_monsterId","type":"uint256"}],"name":"getBasicMonster","outputs":[{"components":[{"internalType":"uint256","name":"monsterId","type":"uint256"},{"internalType":"uint256","name":"xpReward","type":"uint256"},{"internalType":"uint256","name":"damage","type":"uint256"},{"internalType":"uint256","name":"hp","type":"uint256"},{"internalType":"uint256","name":"cooldown","type":"uint256"},{"internalType":"string","name":"name","type":"string"},{"internalType":"string","name":"uri","type":"string"}],"internalType":"struct BasicMonster","name":"","type":"tuple"}],"stateMutability":"view","type":"function"},{"inputs":[{"internalType":"uint256","name":"_playerId","type":"uint256"},{"internalType":"uint256","name":"_monsterId","type":"uint256"}],"name":"getBasicMonsterCooldown","outputs":[{"internalType":"uint256","name":"","type":"uint256"}],"stateMutability":"view","type":"function"},{"inputs":[],"name":"getMonsterCounter","outputs":[{"internalType":"uint256","name":"","type":"uint256"}],"stateMutability":"view","type":"function"}],"evm":{"bytecode":{"linkReferences":{},"object":"608060405234801561001057600080fd5b506114b5806100206000396000f3fe608060405234801561001057600080fd5b50600436106100575760003560e01c80630207f11f1461005c57806315e840d71461008c5780634b3564c8146100bc578063874e59a8146100d8578063fda30d4c14610108575b600080fd5b61007660048036038101906100719190610a79565b610126565b6040516100839190610ac1565b60405180910390f35b6100a660048036038101906100a19190610adc565b61016c565b6040516100b39190610b2b565b60405180910390f35b6100d660048036038101906100d19190610c8c565b610180565b005b6100f260048036038101906100ed9190610a79565b61021c565b6040516100ff9190610e82565b60405180910390f35b610110610234565b60405161011d9190610b2b565b60405180910390f35b600061013182610243565b9050801561016757817f897b5c7abcb9d1af199c95f7485f50c3e0dbed9b05f3068b69fd66613c34c38660405160405180910390a25b919050565b600061017883836105e7565b905092915050565b60007308d8e680a2d295af8cbcd8b8e07f900275bc6b8d90508073ffffffffffffffffffffffffffffffffffffffff163373ffffffffffffffffffffffffffffffffffffffff16146101d157600080fd5b6101df878787878787610624565b6101e7610704565b7f856d040967b09806c1357161c96c37bd00e1ddf47865abb6b6bc96b15edc1e3960405160405180910390a250505050505050565b6102246109f2565b61022d8261071c565b9050919050565b600061023e610704565b905090565b60008061024e6108ae565b9050600061025a6108db565b90506000610266610908565b90506000610272610935565b90506000846003016000888152602001908152602001600020600201541461029957600080fd5b3373ffffffffffffffffffffffffffffffffffffffff1684600201600088815260200190815260200160002060009054906101000a900473ffffffffffffffffffffffffffffffffffffffff1673ffffffffffffffffffffffffffffffffffffffff161461030657600080fd5b61a8c0836005016000888152602001908152602001600020546103299190610ed3565b42101561033557600080fd5b60405160200161034490610f5e565b604051602081830303815290604052805190602001208260020160008660030160008a815260200190815260200160002060120160000154815260200190815260200160002060070160405160200161039d919061106b565b60405160208183030381529060405280519060200120146103f3576040517f08c379a00000000000000000000000000000000000000000000000000000000081526004016103ea906110df565b60405180910390fd5b42836005016000888152602001908152602001600020819055506013601461041a88610962565b610424919061112e565b106105d95780600001600081548092919061043e9061115f565b9190505550604051806080016040528082600001548152602001600281526020018260030160008981526020019081526020016000208054905081526020016040518060400160405280600681526020017f447363616c650000000000000000000000000000000000000000000000000000815250815250816002016000836000015481526020019081526020016000206000820151816000015560208201518160010155604082015181600201556060820151816003019081610502919061133e565b5090505080600301600087815260200190815260200160002081600001549080600181540180825580915050600190039060005260206000200160009091909190915055338160010160008360000154815260200190815260200160002060006101000a81548173ffffffffffffffffffffffffffffffffffffffff021916908373ffffffffffffffffffffffffffffffffffffffff16021790555083600301600087815260200190815260200160002060010160008154809291906105c79061115f565b919050555060019450505050506105e2565b60009450505050505b919050565b6000806105f26108db565b905080600201600084815260200190815260200160002060008581526020019081526020016000205491505092915050565b600061062e6108db565b90508060000160008154809291906106459061115f565b91905055506040518060e00160405280826000015481526020018881526020018781526020018681526020018581526020018481526020018381525081600301600083600001548152602001908152602001600020600082015181600001556020820151816001015560408201518160020155606082015181600301556080820151816004015560a08201518160050190816106e1919061133e565b5060c08201518160060190816106f7919061133e565b5090505050505050505050565b60008061070f6108db565b9050806000015491505090565b6107246109f2565b600061072e6108db565b90508060030160008481526020019081526020016000206040518060e0016040529081600082015481526020016001820154815260200160028201548152602001600382015481526020016004820154815260200160058201805461079290610fa2565b80601f01602080910402602001604051908101604052809291908181526020018280546107be90610fa2565b801561080b5780601f106107e05761010080835404028352916020019161080b565b820191906000526020600020905b8154815290600101906020018083116107ee57829003601f168201915b5050505050815260200160068201805461082490610fa2565b80601f016020809104026020016040519081016040528092919081815260200182805461085090610fa2565b801561089d5780601f106108725761010080835404028352916020019161089d565b820191906000526020600020905b81548152906001019060200180831161088057829003601f168201915b505050505081525050915050919050565b6000807f3cab9a070a0c61cd0ae9d9e9e2c0781e5ca8691bec4087e5a4701d5ac018dd4e90508091505090565b6000807f32545638e04f9bb0e18c6b7b873428ebfe8afc357b1d991bfe15d0950d92384590508091505090565b6000807faad0511195ddfb575f5187a7172ca6fc330f129a86291f15eaa5f7537ab038dc90508091505090565b6000807fb5dbbc334907f600e1151190a68c4043043163a23a907389a2c6f6231ed4318b90508091505090565b60008061096d6109c5565b90508060000160008154809291906109849061115f565b919050555042448483600001546040516020016109a49493929190611431565b6040516020818303038152906040528051906020012060001c915050919050565b6000807ff76a8e66124dac83b46aecd7c4256d5158e69f6adf88592fd8146c79e007626e90508091505090565b6040518060e00160405280600081526020016000815260200160008152602001600081526020016000815260200160608152602001606081525090565b6000604051905090565b600080fd5b600080fd5b6000819050919050565b610a5681610a43565b8114610a6157600080fd5b50565b600081359050610a7381610a4d565b92915050565b600060208284031215610a8f57610a8e610a39565b5b6000610a9d84828501610a64565b91505092915050565b60008115159050919050565b610abb81610aa6565b82525050565b6000602082019050610ad66000830184610ab2565b92915050565b60008060408385031215610af357610af2610a39565b5b6000610b0185828601610a64565b9250506020610b1285828601610a64565b9150509250929050565b610b2581610a43565b82525050565b6000602082019050610b406000830184610b1c565b92915050565b600080fd5b600080fd5b6000601f19601f8301169050919050565b7f4e487b7100000000000000000000000000000000000000000000000000000000600052604160045260246000fd5b610b9982610b50565b810181811067ffffffffffffffff82111715610bb857610bb7610b61565b5b80604052505050565b6000610bcb610a2f565b9050610bd78282610b90565b919050565b600067ffffffffffffffff821115610bf757610bf6610b61565b5b610c0082610b50565b9050602081019050919050565b82818337600083830152505050565b6000610c2f610c2a84610bdc565b610bc1565b905082815260208101848484011115610c4b57610c4a610b4b565b5b610c56848285610c0d565b509392505050565b600082601f830112610c7357610c72610b46565b5b8135610c83848260208601610c1c565b91505092915050565b60008060008060008060c08789031215610ca957610ca8610a39565b5b6000610cb789828a01610a64565b9650506020610cc889828a01610a64565b9550506040610cd989828a01610a64565b9450506060610cea89828a01610a64565b935050608087013567ffffffffffffffff811115610d0b57610d0a610a3e565b5b610d1789828a01610c5e565b92505060a087013567ffffffffffffffff811115610d3857610d37610a3e565b5b610d4489828a01610c5e565b9150509295509295509295565b610d5a81610a43565b82525050565b600081519050919050565b600082825260208201905092915050565b60005b83811015610d9a578082015181840152602081019050610d7f565b60008484015250505050565b6000610db182610d60565b610dbb8185610d6b565b9350610dcb818560208601610d7c565b610dd481610b50565b840191505092915050565b600060e083016000830151610df76000860182610d51565b506020830151610e0a6020860182610d51565b506040830151610e1d6040860182610d51565b506060830151610e306060860182610d51565b506080830151610e436080860182610d51565b5060a083015184820360a0860152610e5b8282610da6565b91505060c083015184820360c0860152610e758282610da6565b9150508091505092915050565b60006020820190508181036000830152610e9c8184610ddf565b905092915050565b7f4e487b7100000000000000000000000000000000000000000000000000000000600052601160045260246000fd5b6000610ede82610a43565b9150610ee983610a43565b9250828201905080821115610f0157610f00610ea4565b5b92915050565b600081905092915050565b7f57697a4861740000000000000000000000000000000000000000000000000000600082015250565b6000610f48600683610f07565b9150610f5382610f12565b600682019050919050565b6000610f6982610f3b565b9150819050919050565b7f4e487b7100000000000000000000000000000000000000000000000000000000600052602260045260246000fd5b60006002820490506001821680610fba57607f821691505b602082108103610fcd57610fcc610f73565b5b50919050565b60008190508160005260206000209050919050565b60008154610ff581610fa2565b610fff8186610f07565b9450600182166000811461101a576001811461102f57611062565b60ff1983168652811515820286019350611062565b61103885610fd3565b60005b8381101561105a5781548189015260018201915060208101905061103b565b838801955050505b50505092915050565b60006110778284610fe8565b915081905092915050565b600082825260208201905092915050565b7f6e6f742077656172696e67206861740000000000000000000000000000000000600082015250565b60006110c9600f83611082565b91506110d482611093565b602082019050919050565b600060208201905081810360008301526110f8816110bc565b9050919050565b7f4e487b7100000000000000000000000000000000000000000000000000000000600052601260045260246000fd5b600061113982610a43565b915061114483610a43565b925082611154576111536110ff565b5b828206905092915050565b600061116a82610a43565b91507fffffffffffffffffffffffffffffffffffffffffffffffffffffffffffffffff820361119c5761119b610ea4565b5b600182019050919050565b60006020601f8301049050919050565b600082821b905092915050565b6000600883026111f47fffffffffffffffffffffffffffffffffffffffffffffffffffffffffffffffff826111b7565b6111fe86836111b7565b95508019841693508086168417925050509392505050565b6000819050919050565b600061123b61123661123184610a43565b611216565b610a43565b9050919050565b6000819050919050565b61125583611220565b61126961126182611242565b8484546111c4565b825550505050565b600090565b61127e611271565b61128981848461124c565b505050565b5b818110156112ad576112a2600082611276565b60018101905061128f565b5050565b601f8211156112f2576112c381610fd3565b6112cc846111a7565b810160208510156112db578190505b6112ef6112e7856111a7565b83018261128e565b50505b505050565b600082821c905092915050565b6000611315600019846008026112f7565b1980831691505092915050565b600061132e8383611304565b9150826002028217905092915050565b61134782610d60565b67ffffffffffffffff8111156113605761135f610b61565b5b61136a8254610fa2565b6113758282856112b1565b600060209050601f8311600181146113a85760008415611396578287015190505b6113a08582611322565b865550611408565b601f1984166113b686610fd3565b60005b828110156113de578489015182556001820191506020850194506020810190506113b9565b868310156113fb57848901516113f7601f891682611304565b8355505b6001600288020188555050505b505050505050565b6000819050919050565b61142b61142682610a43565b611410565b82525050565b600061143d828761141a565b60208201915061144d828661141a565b60208201915061145d828561141a565b60208201915061146d828461141a565b6020820191508190509594505050505056fea264697066735822122077893fc8a45d5a3a5627d0ad37cd563e46459bb89a71e428779f235eafe9060c64736f6c63430008110033","opcodes":"PUSH1 0x80 PUSH1 0x40 MSTORE CALLVALUE DUP1 ISZERO PUSH2 0x10 JUMPI PUSH1 0x0 DUP1 REVERT JUMPDEST POP PUSH2 0x14B5 DUP1 PUSH2 0x20 PUSH1 0x0 CODECOPY PUSH1 0x0 RETURN INVALID PUSH1 0x80 PUSH1 0x40 MSTORE CALLVALUE DUP1 ISZERO PUSH2 0x10 JUMPI PUSH1 0x0 DUP1 REVERT JUMPDEST POP PUSH1 0x4 CALLDATASIZE LT PUSH2 0x57 JUMPI PUSH1 0x0 CALLDATALOAD PUSH1 0xE0 SHR DUP1 PUSH4 0x207F11F EQ PUSH2 0x5C JUMPI DUP1 PUSH4 0x15E840D7 EQ PUSH2 0x8C JUMPI DUP1 PUSH4 0x4B3564C8 EQ PUSH2 0xBC JUMPI DUP1 PUSH4 0x874E59A8 EQ PUSH2 0xD8 JUMPI DUP1 PUSH4 0xFDA30D4C EQ PUSH2 0x108 JUMPI JUMPDEST PUSH1 0x0 DUP1 REVERT JUMPDEST PUSH2 0x76 PUSH1 0x4 DUP1 CALLDATASIZE SUB DUP2 ADD SWAP1 PUSH2 0x71 SWAP2 SWAP1 PUSH2 0xA79 JUMP JUMPDEST PUSH2 0x126 JUMP JUMPDEST PUSH1 0x40 MLOAD PUSH2 0x83 SWAP2 SWAP1 PUSH2 0xAC1 JUMP JUMPDEST PUSH1 0x40 MLOAD DUP1 SWAP2 SUB SWAP1 RETURN JUMPDEST PUSH2 0xA6 PUSH1 0x4 DUP1 CALLDATASIZE SUB DUP2 ADD SWAP1 PUSH2 0xA1 SWAP2 SWAP1 PUSH2 0xADC JUMP JUMPDEST PUSH2 0x16C JUMP JUMPDEST PUSH1 0x40 MLOAD PUSH2 0xB3 SWAP2 SWAP1 PUSH2 0xB2B JUMP JUMPDEST PUSH1 0x40 MLOAD DUP1 SWAP2 SUB SWAP1 RETURN JUMPDEST PUSH2 0xD6 PUSH1 0x4 DUP1 CALLDATASIZE SUB DUP2 ADD SWAP1 PUSH2 0xD1 SWAP2 SWAP1 PUSH2 0xC8C JUMP JUMPDEST PUSH2 0x180 JUMP JUMPDEST STOP JUMPDEST PUSH2 0xF2 PUSH1 0x4 DUP1 CALLDATASIZE SUB DUP2 ADD SWAP1 PUSH2 0xED SWAP2 SWAP1 PUSH2 0xA79 JUMP JUMPDEST PUSH2 0x21C JUMP JUMPDEST PUSH1 0x40 MLOAD PUSH2 0xFF SWAP2 SWAP1 PUSH2 0xE82 JUMP JUMPDEST PUSH1 0x40 MLOAD DUP1 SWAP2 SUB SWAP1 RETURN JUMPDEST PUSH2 0x110 PUSH2 0x234 JUMP JUMPDEST PUSH1 0x40 MLOAD PUSH2 0x11D SWAP2 SWAP1 PUSH2 0xB2B JUMP JUMPDEST PUSH1 0x40 MLOAD DUP1 SWAP2 SUB SWAP1 RETURN JUMPDEST PUSH1 0x0 PUSH2 0x131 DUP3 PUSH2 0x243 JUMP JUMPDEST SWAP1 POP DUP1 ISZERO PUSH2 0x167 JUMPI DUP2 PUSH32 0x897B5C7ABCB9D1AF199C95F7485F50C3E0DBED9B05F3068B69FD66613C34C386 PUSH1 0x40 MLOAD PUSH1 0x40 MLOAD DUP1 SWAP2 SUB SWAP1 LOG2 JUMPDEST SWAP2 SWAP1 POP JUMP JUMPDEST PUSH1 0x0 PUSH2 0x178 DUP4 DUP4 PUSH2 0x5E7 JUMP JUMPDEST SWAP1 POP SWAP3 SWAP2 POP POP JUMP JUMPDEST PUSH1 0x0 PUSH20 0x8D8E680A2D295AF8CBCD8B8E07F900275BC6B8D SWAP1 POP DUP1 PUSH20 0xFFFFFFFFFFFFFFFFFFFFFFFFFFFFFFFFFFFFFFFF AND CALLER PUSH20 0xFFFFFFFFFFFFFFFFFFFFFFFFFFFFFFFFFFFFFFFF AND EQ PUSH2 0x1D1 JUMPI PUSH1 0x0 DUP1 REVERT JUMPDEST PUSH2 0x1DF DUP8 DUP8 DUP8 DUP8 DUP8 DUP8 PUSH2 0x624 JUMP JUMPDEST PUSH2 0x1E7 PUSH2 0x704 JUMP JUMPDEST PUSH32 0x856D040967B09806C1357161C96C37BD00E1DDF47865ABB6B6BC96B15EDC1E39 PUSH1 0x40 MLOAD PUSH1 0x40 MLOAD DUP1 SWAP2 SUB SWAP1 LOG2 POP POP POP POP POP POP POP JUMP JUMPDEST PUSH2 0x224 PUSH2 0x9F2 JUMP JUMPDEST PUSH2 0x22D DUP3 PUSH2 0x71C JUMP JUMPDEST SWAP1 POP SWAP2 SWAP1 POP JUMP JUMPDEST PUSH1 0x0 PUSH2 0x23E PUSH2 0x704 JUMP JUMPDEST SWAP1 POP SWAP1 JUMP JUMPDEST PUSH1 0x0 DUP1 PUSH2 0x24E PUSH2 0x8AE JUMP JUMPDEST SWAP1 POP PUSH1 0x0 PUSH2 0x25A PUSH2 0x8DB JUMP JUMPDEST SWAP1 POP PUSH1 0x0 PUSH2 0x266 PUSH2 0x908 JUMP JUMPDEST SWAP1 POP PUSH1 0x0 PUSH2 0x272 PUSH2 0x935 JUMP JUMPDEST SWAP1 POP PUSH1 0x0 DUP5 PUSH1 0x3 ADD PUSH1 0x0 DUP9 DUP2 MSTORE PUSH1 0x20 ADD SWAP1 DUP2 MSTORE PUSH1 0x20 ADD PUSH1 0x0 KECCAK256 PUSH1 0x2 ADD SLOAD EQ PUSH2 0x299 JUMPI PUSH1 0x0 DUP1 REVERT JUMPDEST CALLER PUSH20 0xFFFFFFFFFFFFFFFFFFFFFFFFFFFFFFFFFFFFFFFF AND DUP5 PUSH1 0x2 ADD PUSH1 0x0 DUP9 DUP2 MSTORE PUSH1 0x20 ADD SWAP1 DUP2 MSTORE PUSH1 0x20 ADD PUSH1 0x0 KECCAK256 PUSH1 0x0 SWAP1 SLOAD SWAP1 PUSH2 0x100 EXP SWAP1 DIV PUSH20 0xFFFFFFFFFFFFFFFFFFFFFFFFFFFFFFFFFFFFFFFF AND PUSH20 0xFFFFFFFFFFFFFFFFFFFFFFFFFFFFFFFFFFFFFFFF AND EQ PUSH2 0x306 JUMPI PUSH1 0x0 DUP1 REVERT JUMPDEST PUSH2 0xA8C0 DUP4 PUSH1 0x5 ADD PUSH1 0x0 DUP9 DUP2 MSTORE PUSH1 0x20 ADD SWAP1 DUP2 MSTORE PUSH1 0x20 ADD PUSH1 0x0 KECCAK256 SLOAD PUSH2 0x329 SWAP2 SWAP1 PUSH2 0xED3 JUMP JUMPDEST TIMESTAMP LT ISZERO PUSH2 0x335 JUMPI PUSH1 0x0 DUP1 REVERT JUMPDEST PUSH1 0x40 MLOAD PUSH1 0x20 ADD PUSH2 0x344 SWAP1 PUSH2 0xF5E JUMP JUMPDEST PUSH1 0x40 MLOAD PUSH1 0x20 DUP2 DUP4 SUB SUB DUP2 MSTORE SWAP1 PUSH1 0x40 MSTORE DUP1 MLOAD SWAP1 PUSH1 0x20 ADD KECCAK256 DUP3 PUSH1 0x2 ADD PUSH1 0x0 DUP7 PUSH1 0x3 ADD PUSH1 0x0 DUP11 DUP2 MSTORE PUSH1 0x20 ADD SWAP1 DUP2 MSTORE PUSH1 0x20 ADD PUSH1 0x0 KECCAK256 PUSH1 0x12 ADD PUSH1 0x0 ADD SLOAD DUP2 MSTORE PUSH1 0x20 ADD SWAP1 DUP2 MSTORE PUSH1 0x20 ADD PUSH1 0x0 KECCAK256 PUSH1 0x7 ADD PUSH1 0x40 MLOAD PUSH1 0x20 ADD PUSH2 0x39D SWAP2 SWAP1 PUSH2 0x106B JUMP JUMPDEST PUSH1 0x40 MLOAD PUSH1 0x20 DUP2 DUP4 SUB SUB DUP2 MSTORE SWAP1 PUSH1 0x40 MSTORE DUP1 MLOAD SWAP1 PUSH1 0x20 ADD KECCAK256 EQ PUSH2 0x3F3 JUMPI PUSH1 0x40 MLOAD PUSH32 0x8C379A000000000000000000000000000000000000000000000000000000000 DUP2 MSTORE PUSH1 0x4 ADD PUSH2 0x3EA SWAP1 PUSH2 0x10DF JUMP JUMPDEST PUSH1 0x40 MLOAD DUP1 SWAP2 SUB SWAP1 REVERT JUMPDEST TIMESTAMP DUP4 PUSH1 0x5 ADD PUSH1 0x0 DUP9 DUP2 MSTORE PUSH1 0x20 ADD SWAP1 DUP2 MSTORE PUSH1 0x20 ADD PUSH1 0x0 KECCAK256 DUP2 SWAP1 SSTORE POP PUSH1 0x13 PUSH1 0x14 PUSH2 0x41A DUP9 PUSH2 0x962 JUMP JUMPDEST PUSH2 0x424 SWAP2 SWAP1 PUSH2 0x112E JUMP JUMPDEST LT PUSH2 0x5D9 JUMPI DUP1 PUSH1 0x0 ADD PUSH1 0x0 DUP2 SLOAD DUP1 SWAP3 SWAP2 SWAP1 PUSH2 0x43E SWAP1 PUSH2 0x115F JUMP JUMPDEST SWAP2 SWAP1 POP SSTORE POP PUSH1 0x40 MLOAD DUP1 PUSH1 0x80 ADD PUSH1 0x40 MSTORE DUP1 DUP3 PUSH1 0x0 ADD SLOAD DUP2 MSTORE PUSH1 0x20 ADD PUSH1 0x2 DUP2 MSTORE PUSH1 0x20 ADD DUP3 PUSH1 0x3 ADD PUSH1 0x0 DUP10 DUP2 MSTORE PUSH1 0x20 ADD SWAP1 DUP2 MSTORE PUSH1 0x20 ADD PUSH1 0x0 KECCAK256 DUP1 SLOAD SWAP1 POP DUP2 MSTORE PUSH1 0x20 ADD PUSH1 0x40 MLOAD DUP1 PUSH1 0x40 ADD PUSH1 0x40 MSTORE DUP1 PUSH1 0x6 DUP2 MSTORE PUSH1 0x20 ADD PUSH32 0x447363616C650000000000000000000000000000000000000000000000000000 DUP2 MSTORE POP DUP2 MSTORE POP DUP2 PUSH1 0x2 ADD PUSH1 0x0 DUP4 PUSH1 0x0 ADD SLOAD DUP2 MSTORE PUSH1 0x20 ADD SWAP1 DUP2 MSTORE PUSH1 0x20 ADD PUSH1 0x0 KECCAK256 PUSH1 0x0 DUP3 ADD MLOAD DUP2 PUSH1 0x0 ADD SSTORE PUSH1 0x20 DUP3 ADD MLOAD DUP2 PUSH1 0x1 ADD SSTORE PUSH1 0x40 DUP3 ADD MLOAD DUP2 PUSH1 0x2 ADD SSTORE PUSH1 0x60 DUP3 ADD MLOAD DUP2 PUSH1 0x3 ADD SWAP1 DUP2 PUSH2 0x502 SWAP2 SWAP1 PUSH2 0x133E JUMP JUMPDEST POP SWAP1 POP POP DUP1 PUSH1 0x3 ADD PUSH1 0x0 DUP8 DUP2 MSTORE PUSH1 0x20 ADD SWAP1 DUP2 MSTORE PUSH1 0x20 ADD PUSH1 0x0 KECCAK256 DUP2 PUSH1 0x0 ADD SLOAD SWAP1 DUP1 PUSH1 0x1 DUP2 SLOAD ADD DUP1 DUP3 SSTORE DUP1 SWAP2 POP POP PUSH1 0x1 SWAP1 SUB SWAP1 PUSH1 0x0 MSTORE PUSH1 0x20 PUSH1 0x0 KECCAK256 ADD PUSH1 0x0 SWAP1 SWAP2 SWAP1 SWAP2 SWAP1 SWAP2 POP SSTORE CALLER DUP2 PUSH1 0x1 ADD PUSH1 0x0 DUP4 PUSH1 0x0 ADD SLOAD DUP2 MSTORE PUSH1 0x20 ADD SWAP1 DUP2 MSTORE PUSH1 0x20 ADD PUSH1 0x0 KECCAK256 PUSH1 0x0 PUSH2 0x100 EXP DUP2 SLOAD DUP2 PUSH20 0xFFFFFFFFFFFFFFFFFFFFFFFFFFFFFFFFFFFFFFFF MUL NOT AND SWAP1 DUP4 PUSH20 0xFFFFFFFFFFFFFFFFFFFFFFFFFFFFFFFFFFFFFFFF AND MUL OR SWAP1 SSTORE POP DUP4 PUSH1 0x3 ADD PUSH1 0x0 DUP8 DUP2 MSTORE PUSH1 0x20 ADD SWAP1 DUP2 MSTORE PUSH1 0x20 ADD PUSH1 0x0 KECCAK256 PUSH1 0x1 ADD PUSH1 0x0 DUP2 SLOAD DUP1 SWAP3 SWAP2 SWAP1 PUSH2 0x5C7 SWAP1 PUSH2 0x115F JUMP JUMPDEST SWAP2 SWAP1 POP SSTORE POP PUSH1 0x1 SWAP5 POP POP POP POP POP PUSH2 0x5E2 JUMP JUMPDEST PUSH1 0x0 SWAP5 POP POP POP POP POP JUMPDEST SWAP2 SWAP1 POP JUMP JUMPDEST PUSH1 0x0 DUP1 PUSH2 0x5F2 PUSH2 0x8DB JUMP JUMPDEST SWAP1 POP DUP1 PUSH1 0x2 ADD PUSH1 0x0 DUP5 DUP2 MSTORE PUSH1 0x20 ADD SWAP1 DUP2 MSTORE PUSH1 0x20 ADD PUSH1 0x0 KECCAK256 PUSH1 0x0 DUP6 DUP2 MSTORE PUSH1 0x20 ADD SWAP1 DUP2 MSTORE PUSH1 0x20 ADD PUSH1 0x0 KECCAK256 SLOAD SWAP2 POP POP SWAP3 SWAP2 POP POP JUMP JUMPDEST PUSH1 0x0 PUSH2 0x62E PUSH2 0x8DB JUMP JUMPDEST SWAP1 POP DUP1 PUSH1 0x0 ADD PUSH1 0x0 DUP2 SLOAD DUP1 SWAP3 SWAP2 SWAP1 PUSH2 0x645 SWAP1 PUSH2 0x115F JUMP JUMPDEST SWAP2 SWAP1 POP SSTORE POP PUSH1 0x40 MLOAD DUP1 PUSH1 0xE0 ADD PUSH1 0x40 MSTORE DUP1 DUP3 PUSH1 0x0 ADD SLOAD DUP2 MSTORE PUSH1 0x20 ADD DUP9 DUP2 MSTORE PUSH1 0x20 ADD DUP8 DUP2 MSTORE PUSH1 0x20 ADD DUP7 DUP2 MSTORE PUSH1 0x20 ADD DUP6 DUP2 MSTORE PUSH1 0x20 ADD DUP5 DUP2 MSTORE PUSH1 0x20 ADD DUP4 DUP2 MSTORE POP DUP2 PUSH1 0x3 ADD PUSH1 0x0 DUP4 PUSH1 0x0 ADD SLOAD DUP2 MSTORE PUSH1 0x20 ADD SWAP1 DUP2 MSTORE PUSH1 0x20 ADD PUSH1 0x0 KECCAK256 PUSH1 0x0 DUP3 ADD MLOAD DUP2 PUSH1 0x0 ADD SSTORE PUSH1 0x20 DUP3 ADD MLOAD DUP2 PUSH1 0x1 ADD SSTORE PUSH1 0x40 DUP3 ADD MLOAD DUP2 PUSH1 0x2 ADD SSTORE PUSH1 0x60 DUP3 ADD MLOAD DUP2 PUSH1 0x3 ADD SSTORE PUSH1 0x80 DUP3 ADD MLOAD DUP2 PUSH1 0x4 ADD SSTORE PUSH1 0xA0 DUP3 ADD MLOAD DUP2 PUSH1 0x5 ADD SWAP1 DUP2 PUSH2 0x6E1 SWAP2 SWAP1 PUSH2 0x133E JUMP JUMPDEST POP PUSH1 0xC0 DUP3 ADD MLOAD DUP2 PUSH1 0x6 ADD SWAP1 DUP2 PUSH2 0x6F7 SWAP2 SWAP1 PUSH2 0x133E JUMP JUMPDEST POP SWAP1 POP POP POP POP POP POP POP POP POP JUMP JUMPDEST PUSH1 0x0 DUP1 PUSH2 0x70F PUSH2 0x8DB JUMP JUMPDEST SWAP1 POP DUP1 PUSH1 0x0 ADD SLOAD SWAP2 POP POP SWAP1 JUMP JUMPDEST PUSH2 0x724 PUSH2 0x9F2 JUMP JUMPDEST PUSH1 0x0 PUSH2 0x72E PUSH2 0x8DB JUMP JUMPDEST SWAP1 POP DUP1 PUSH1 0x3 ADD PUSH1 0x0 DUP5 DUP2 MSTORE PUSH1 0x20 ADD SWAP1 DUP2 MSTORE PUSH1 0x20 ADD PUSH1 0x0 KECCAK256 PUSH1 0x40 MLOAD DUP1 PUSH1 0xE0 ADD PUSH1 0x40 MSTORE SWAP1 DUP2 PUSH1 0x0 DUP3 ADD SLOAD DUP2 MSTORE PUSH1 0x20 ADD PUSH1 0x1 DUP3 ADD SLOAD DUP2 MSTORE PUSH1 0x20 ADD PUSH1 0x2 DUP3 ADD SLOAD DUP2 MSTORE PUSH1 0x20 ADD PUSH1 0x3 DUP3 ADD SLOAD DUP2 MSTORE PUSH1 0x20 ADD PUSH1 0x4 DUP3 ADD SLOAD DUP2 MSTORE PUSH1 0x20 ADD PUSH1 0x5 DUP3 ADD DUP1 SLOAD PUSH2 0x792 SWAP1 PUSH2 0xFA2 JUMP JUMPDEST DUP1 PUSH1 0x1F ADD PUSH1 0x20 DUP1 SWAP2 DIV MUL PUSH1 0x20 ADD PUSH1 0x40 MLOAD SWAP1 DUP2 ADD PUSH1 0x40 MSTORE DUP1 SWAP3 SWAP2 SWAP1 DUP2 DUP2 MSTORE PUSH1 0x20 ADD DUP3 DUP1 SLOAD PUSH2 0x7BE SWAP1 PUSH2 0xFA2 JUMP JUMPDEST DUP1 ISZERO PUSH2 0x80B JUMPI DUP1 PUSH1 0x1F LT PUSH2 0x7E0 JUMPI PUSH2 0x100 DUP1 DUP4 SLOAD DIV MUL DUP4 MSTORE SWAP2 PUSH1 0x20 ADD SWAP2 PUSH2 0x80B JUMP JUMPDEST DUP3 ADD SWAP2 SWAP1 PUSH1 0x0 MSTORE PUSH1 0x20 PUSH1 0x0 KECCAK256 SWAP1 JUMPDEST DUP2 SLOAD DUP2 MSTORE SWAP1 PUSH1 0x1 ADD SWAP1 PUSH1 0x20 ADD DUP1 DUP4 GT PUSH2 0x7EE JUMPI DUP3 SWAP1 SUB PUSH1 0x1F AND DUP3 ADD SWAP2 JUMPDEST POP POP POP POP POP DUP2 MSTORE PUSH1 0x20 ADD PUSH1 0x6 DUP3 ADD DUP1 SLOAD PUSH2 0x824 SWAP1 PUSH2 0xFA2 JUMP JUMPDEST DUP1 PUSH1 0x1F ADD PUSH1 0x20 DUP1 SWAP2 DIV MUL PUSH1 0x20 ADD PUSH1 0x40 MLOAD SWAP1 DUP2 ADD PUSH1 0x40 MSTORE DUP1 SWAP3 SWAP2 SWAP1 DUP2 DUP2 MSTORE PUSH1 0x20 ADD DUP3 DUP1 SLOAD PUSH2 0x850 SWAP1 PUSH2 0xFA2 JUMP JUMPDEST DUP1 ISZERO PUSH2 0x89D JUMPI DUP1 PUSH1 0x1F LT PUSH2 0x872 JUMPI PUSH2 0x100 DUP1 DUP4 SLOAD DIV MUL DUP4 MSTORE SWAP2 PUSH1 0x20 ADD SWAP2 PUSH2 0x89D JUMP JUMPDEST DUP3 ADD SWAP2 SWAP1 PUSH1 0x0 MSTORE PUSH1 0x20 PUSH1 0x0 KECCAK256 SWAP1 JUMPDEST DUP2 SLOAD DUP2 MSTORE SWAP1 PUSH1 0x1 ADD SWAP1 PUSH1 0x20 ADD DUP1 DUP4 GT PUSH2 0x880 JUMPI DUP3 SWAP1 SUB PUSH1 0x1F AND DUP3 ADD SWAP2 JUMPDEST POP POP POP POP POP DUP2 MSTORE POP POP SWAP2 POP POP SWAP2 SWAP1 POP JUMP JUMPDEST PUSH1 0x0 DUP1 PUSH32 0x3CAB9A070A0C61CD0AE9D9E9E2C0781E5CA8691BEC4087E5A4701D5AC018DD4E SWAP1 POP DUP1 SWAP2 POP POP SWAP1 JUMP JUMPDEST PUSH1 0x0 DUP1 PUSH32 0x32545638E04F9BB0E18C6B7B873428EBFE8AFC357B1D991BFE15D0950D923845 SWAP1 POP DUP1 SWAP2 POP POP SWAP1 JUMP JUMPDEST PUSH1 0x0 DUP1 PUSH32 0xAAD0511195DDFB575F5187A7172CA6FC330F129A86291F15EAA5F7537AB038DC SWAP1 POP DUP1 SWAP2 POP POP SWAP1 JUMP JUMPDEST PUSH1 0x0 DUP1 PUSH32 0xB5DBBC334907F600E1151190A68C4043043163A23A907389A2C6F6231ED4318B SWAP1 POP DUP1 SWAP2 POP POP SWAP1 JUMP JUMPDEST PUSH1 0x0 DUP1 PUSH2 0x96D PUSH2 0x9C5 JUMP JUMPDEST SWAP1 POP DUP1 PUSH1 0x0 ADD PUSH1 0x0 DUP2 SLOAD DUP1 SWAP3 SWAP2 SWAP1 PUSH2 0x984 SWAP1 PUSH2 0x115F JUMP JUMPDEST SWAP2 SWAP1 POP SSTORE POP TIMESTAMP DIFFICULTY DUP5 DUP4 PUSH1 0x0 ADD SLOAD PUSH1 0x40 MLOAD PUSH1 0x20 ADD PUSH2 0x9A4 SWAP5 SWAP4 SWAP3 SWAP2 SWAP1 PUSH2 0x1431 JUMP JUMPDEST PUSH1 0x40 MLOAD PUSH1 0x20 DUP2 DUP4 SUB SUB DUP2 MSTORE SWAP1 PUSH1 0x40 MSTORE DUP1 MLOAD SWAP1 PUSH1 0x20 ADD KECCAK256 PUSH1 0x0 SHR SWAP2 POP POP SWAP2 SWAP1 POP JUMP JUMPDEST PUSH1 0x0 DUP1 PUSH32 0xF76A8E66124DAC83B46AECD7C4256D5158E69F6ADF88592FD8146C79E007626E SWAP1 POP DUP1 SWAP2 POP POP SWAP1 JUMP JUMPDEST PUSH1 0x40 MLOAD DUP1 PUSH1 0xE0 ADD PUSH1 0x40 MSTORE DUP1 PUSH1 0x0 DUP2 MSTORE PUSH1 0x20 ADD PUSH1 0x0 DUP2 MSTORE PUSH1 0x20 ADD PUSH1 0x0 DUP2 MSTORE PUSH1 0x20 ADD PUSH1 0x0 DUP2 MSTORE PUSH1 0x20 ADD PUSH1 0x0 DUP2 MSTORE PUSH1 0x20 ADD PUSH1 0x60 DUP2 MSTORE PUSH1 0x20 ADD PUSH1 0x60 DUP2 MSTORE POP SWAP1 JUMP JUMPDEST PUSH1 0x0 PUSH1 0x40 MLOAD SWAP1 POP SWAP1 JUMP JUMPDEST PUSH1 0x0 DUP1 REVERT JUMPDEST PUSH1 0x0 DUP1 REVERT JUMPDEST PUSH1 0x0 DUP2 SWAP1 POP SWAP2 SWAP1 POP JUMP JUMPDEST PUSH2 0xA56 DUP2 PUSH2 0xA43 JUMP JUMPDEST DUP2 EQ PUSH2 0xA61 JUMPI PUSH1 0x0 DUP1 REVERT JUMPDEST POP JUMP JUMPDEST PUSH1 0x0 DUP2 CALLDATALOAD SWAP1 POP PUSH2 0xA73 DUP2 PUSH2 0xA4D JUMP JUMPDEST SWAP3 SWAP2 POP POP JUMP JUMPDEST PUSH1 0x0 PUSH1 0x20 DUP3 DUP5 SUB SLT ISZERO PUSH2 0xA8F JUMPI PUSH2 0xA8E PUSH2 0xA39 JUMP JUMPDEST JUMPDEST PUSH1 0x0 PUSH2 0xA9D DUP5 DUP3 DUP6 ADD PUSH2 0xA64 JUMP JUMPDEST SWAP2 POP POP SWAP3 SWAP2 POP POP JUMP JUMPDEST PUSH1 0x0 DUP2 ISZERO ISZERO SWAP1 POP SWAP2 SWAP1 POP JUMP JUMPDEST PUSH2 0xABB DUP2 PUSH2 0xAA6 JUMP JUMPDEST DUP3 MSTORE POP POP JUMP JUMPDEST PUSH1 0x0 PUSH1 0x20 DUP3 ADD SWAP1 POP PUSH2 0xAD6 PUSH1 0x0 DUP4 ADD DUP5 PUSH2 0xAB2 JUMP JUMPDEST SWAP3 SWAP2 POP POP JUMP JUMPDEST PUSH1 0x0 DUP1 PUSH1 0x40 DUP4 DUP6 SUB SLT ISZERO PUSH2 0xAF3 JUMPI PUSH2 0xAF2 PUSH2 0xA39 JUMP JUMPDEST JUMPDEST PUSH1 0x0 PUSH2 0xB01 DUP6 DUP3 DUP7 ADD PUSH2 0xA64 JUMP JUMPDEST SWAP3 POP POP PUSH1 0x20 PUSH2 0xB12 DUP6 DUP3 DUP7 ADD PUSH2 0xA64 JUMP JUMPDEST SWAP2 POP POP SWAP3 POP SWAP3 SWAP1 POP JUMP JUMPDEST PUSH2 0xB25 DUP2 PUSH2 0xA43 JUMP JUMPDEST DUP3 MSTORE POP POP JUMP JUMPDEST PUSH1 0x0 PUSH1 0x20 DUP3 ADD SWAP1 POP PUSH2 0xB40 PUSH1 0x0 DUP4 ADD DUP5 PUSH2 0xB1C JUMP JUMPDEST SWAP3 SWAP2 POP POP JUMP JUMPDEST PUSH1 0x0 DUP1 REVERT JUMPDEST PUSH1 0x0 DUP1 REVERT JUMPDEST PUSH1 0x0 PUSH1 0x1F NOT PUSH1 0x1F DUP4 ADD AND SWAP1 POP SWAP2 SWAP1 POP JUMP JUMPDEST PUSH32 0x4E487B7100000000000000000000000000000000000000000000000000000000 PUSH1 0x0 MSTORE PUSH1 0x41 PUSH1 0x4 MSTORE PUSH1 0x24 PUSH1 0x0 REVERT JUMPDEST PUSH2 0xB99 DUP3 PUSH2 0xB50 JUMP JUMPDEST DUP2 ADD DUP2 DUP2 LT PUSH8 0xFFFFFFFFFFFFFFFF DUP3 GT OR ISZERO PUSH2 0xBB8 JUMPI PUSH2 0xBB7 PUSH2 0xB61 JUMP JUMPDEST JUMPDEST DUP1 PUSH1 0x40 MSTORE POP POP POP JUMP JUMPDEST PUSH1 0x0 PUSH2 0xBCB PUSH2 0xA2F JUMP JUMPDEST SWAP1 POP PUSH2 0xBD7 DUP3 DUP3 PUSH2 0xB90 JUMP JUMPDEST SWAP2 SWAP1 POP JUMP JUMPDEST PUSH1 0x0 PUSH8 0xFFFFFFFFFFFFFFFF DUP3 GT ISZERO PUSH2 0xBF7 JUMPI PUSH2 0xBF6 PUSH2 0xB61 JUMP JUMPDEST JUMPDEST PUSH2 0xC00 DUP3 PUSH2 0xB50 JUMP JUMPDEST SWAP1 POP PUSH1 0x20 DUP2 ADD SWAP1 POP SWAP2 SWAP1 POP JUMP JUMPDEST DUP3 DUP2 DUP4 CALLDATACOPY PUSH1 0x0 DUP4 DUP4 ADD MSTORE POP POP POP JUMP JUMPDEST PUSH1 0x0 PUSH2 0xC2F PUSH2 0xC2A DUP5 PUSH2 0xBDC JUMP JUMPDEST PUSH2 0xBC1 JUMP JUMPDEST SWAP1 POP DUP3 DUP2 MSTORE PUSH1 0x20 DUP2 ADD DUP5 DUP5 DUP5 ADD GT ISZERO PUSH2 0xC4B JUMPI PUSH2 0xC4A PUSH2 0xB4B JUMP JUMPDEST JUMPDEST PUSH2 0xC56 DUP5 DUP3 DUP6 PUSH2 0xC0D JUMP JUMPDEST POP SWAP4 SWAP3 POP POP POP JUMP JUMPDEST PUSH1 0x0 DUP3 PUSH1 0x1F DUP4 ADD SLT PUSH2 0xC73 JUMPI PUSH2 0xC72 PUSH2 0xB46 JUMP JUMPDEST JUMPDEST DUP2 CALLDATALOAD PUSH2 0xC83 DUP5 DUP3 PUSH1 0x20 DUP7 ADD PUSH2 0xC1C JUMP JUMPDEST SWAP2 POP POP SWAP3 SWAP2 POP POP JUMP JUMPDEST PUSH1 0x0 DUP1 PUSH1 0x0 DUP1 PUSH1 0x0 DUP1 PUSH1 0xC0 DUP8 DUP10 SUB SLT ISZERO PUSH2 0xCA9 JUMPI PUSH2 0xCA8 PUSH2 0xA39 JUMP JUMPDEST JUMPDEST PUSH1 0x0 PUSH2 0xCB7 DUP10 DUP3 DUP11 ADD PUSH2 0xA64 JUMP JUMPDEST SWAP7 POP POP PUSH1 0x20 PUSH2 0xCC8 DUP10 DUP3 DUP11 ADD PUSH2 0xA64 JUMP JUMPDEST SWAP6 POP POP PUSH1 0x40 PUSH2 0xCD9 DUP10 DUP3 DUP11 ADD PUSH2 0xA64 JUMP JUMPDEST SWAP5 POP POP PUSH1 0x60 PUSH2 0xCEA DUP10 DUP3 DUP11 ADD PUSH2 0xA64 JUMP JUMPDEST SWAP4 POP POP PUSH1 0x80 DUP8 ADD CALLDATALOAD PUSH8 0xFFFFFFFFFFFFFFFF DUP2 GT ISZERO PUSH2 0xD0B JUMPI PUSH2 0xD0A PUSH2 0xA3E JUMP JUMPDEST JUMPDEST PUSH2 0xD17 DUP10 DUP3 DUP11 ADD PUSH2 0xC5E JUMP JUMPDEST SWAP3 POP POP PUSH1 0xA0 DUP8 ADD CALLDATALOAD PUSH8 0xFFFFFFFFFFFFFFFF DUP2 GT ISZERO PUSH2 0xD38 JUMPI PUSH2 0xD37 PUSH2 0xA3E JUMP JUMPDEST JUMPDEST PUSH2 0xD44 DUP10 DUP3 DUP11 ADD PUSH2 0xC5E JUMP JUMPDEST SWAP2 POP POP SWAP3 SWAP6 POP SWAP3 SWAP6 POP SWAP3 SWAP6 JUMP JUMPDEST PUSH2 0xD5A DUP2 PUSH2 0xA43 JUMP JUMPDEST DUP3 MSTORE POP POP JUMP JUMPDEST PUSH1 0x0 DUP2 MLOAD SWAP1 POP SWAP2 SWAP1 POP JUMP JUMPDEST PUSH1 0x0 DUP3 DUP3 MSTORE PUSH1 0x20 DUP3 ADD SWAP1 POP SWAP3 SWAP2 POP POP JUMP JUMPDEST PUSH1 0x0 JUMPDEST DUP4 DUP2 LT ISZERO PUSH2 0xD9A JUMPI DUP1 DUP3 ADD MLOAD DUP2 DUP5 ADD MSTORE PUSH1 0x20 DUP2 ADD SWAP1 POP PUSH2 0xD7F JUMP JUMPDEST PUSH1 0x0 DUP5 DUP5 ADD MSTORE POP POP POP POP JUMP JUMPDEST PUSH1 0x0 PUSH2 0xDB1 DUP3 PUSH2 0xD60 JUMP JUMPDEST PUSH2 0xDBB DUP2 DUP6 PUSH2 0xD6B JUMP JUMPDEST SWAP4 POP PUSH2 0xDCB DUP2 DUP6 PUSH1 0x20 DUP7 ADD PUSH2 0xD7C JUMP JUMPDEST PUSH2 0xDD4 DUP2 PUSH2 0xB50 JUMP JUMPDEST DUP5 ADD SWAP2 POP POP SWAP3 SWAP2 POP POP JUMP JUMPDEST PUSH1 0x0 PUSH1 0xE0 DUP4 ADD PUSH1 0x0 DUP4 ADD MLOAD PUSH2 0xDF7 PUSH1 0x0 DUP7 ADD DUP3 PUSH2 0xD51 JUMP JUMPDEST POP PUSH1 0x20 DUP4 ADD MLOAD PUSH2 0xE0A PUSH1 0x20 DUP7 ADD DUP3 PUSH2 0xD51 JUMP JUMPDEST POP PUSH1 0x40 DUP4 ADD MLOAD PUSH2 0xE1D PUSH1 0x40 DUP7 ADD DUP3 PUSH2 0xD51 JUMP JUMPDEST POP PUSH1 0x60 DUP4 ADD MLOAD PUSH2 0xE30 PUSH1 0x60 DUP7 ADD DUP3 PUSH2 0xD51 JUMP JUMPDEST POP PUSH1 0x80 DUP4 ADD MLOAD PUSH2 0xE43 PUSH1 0x80 DUP7 ADD DUP3 PUSH2 0xD51 JUMP JUMPDEST POP PUSH1 0xA0 DUP4 ADD MLOAD DUP5 DUP3 SUB PUSH1 0xA0 DUP7 ADD MSTORE PUSH2 0xE5B DUP3 DUP3 PUSH2 0xDA6 JUMP JUMPDEST SWAP2 POP POP PUSH1 0xC0 DUP4 ADD MLOAD DUP5 DUP3 SUB PUSH1 0xC0 DUP7 ADD MSTORE PUSH2 0xE75 DUP3 DUP3 PUSH2 0xDA6 JUMP JUMPDEST SWAP2 POP POP DUP1 SWAP2 POP POP SWAP3 SWAP2 POP POP JUMP JUMPDEST PUSH1 0x0 PUSH1 0x20 DUP3 ADD SWAP1 POP DUP2 DUP2 SUB PUSH1 0x0 DUP4 ADD MSTORE PUSH2 0xE9C DUP2 DUP5 PUSH2 0xDDF JUMP JUMPDEST SWAP1 POP SWAP3 SWAP2 POP POP JUMP JUMPDEST PUSH32 0x4E487B7100000000000000000000000000000000000000000000000000000000 PUSH1 0x0 MSTORE PUSH1 0x11 PUSH1 0x4 MSTORE PUSH1 0x24 PUSH1 0x0 REVERT JUMPDEST PUSH1 0x0 PUSH2 0xEDE DUP3 PUSH2 0xA43 JUMP JUMPDEST SWAP2 POP PUSH2 0xEE9 DUP4 PUSH2 0xA43 JUMP JUMPDEST SWAP3 POP DUP3 DUP3 ADD SWAP1 POP DUP1 DUP3 GT ISZERO PUSH2 0xF01 JUMPI PUSH2 0xF00 PUSH2 0xEA4 JUMP JUMPDEST JUMPDEST SWAP3 SWAP2 POP POP JUMP JUMPDEST PUSH1 0x0 DUP2 SWAP1 POP SWAP3 SWAP2 POP POP JUMP JUMPDEST PUSH32 0x57697A4861740000000000000000000000000000000000000000000000000000 PUSH1 0x0 DUP3 ADD MSTORE POP JUMP JUMPDEST PUSH1 0x0 PUSH2 0xF48 PUSH1 0x6 DUP4 PUSH2 0xF07 JUMP JUMPDEST SWAP2 POP PUSH2 0xF53 DUP3 PUSH2 0xF12 JUMP JUMPDEST PUSH1 0x6 DUP3 ADD SWAP1 POP SWAP2 SWAP1 POP JUMP JUMPDEST PUSH1 0x0 PUSH2 0xF69 DUP3 PUSH2 0xF3B JUMP JUMPDEST SWAP2 POP DUP2 SWAP1 POP SWAP2 SWAP1 POP JUMP JUMPDEST PUSH32 0x4E487B7100000000000000000000000000000000000000000000000000000000 PUSH1 0x0 MSTORE PUSH1 0x22 PUSH1 0x4 MSTORE PUSH1 0x24 PUSH1 0x0 REVERT JUMPDEST PUSH1 0x0 PUSH1 0x2 DUP3 DIV SWAP1 POP PUSH1 0x1 DUP3 AND DUP1 PUSH2 0xFBA JUMPI PUSH1 0x7F DUP3 AND SWAP2 POP JUMPDEST PUSH1 0x20 DUP3 LT DUP2 SUB PUSH2 0xFCD JUMPI PUSH2 0xFCC PUSH2 0xF73 JUMP JUMPDEST JUMPDEST POP SWAP2 SWAP1 POP JUMP JUMPDEST PUSH1 0x0 DUP2 SWAP1 POP DUP2 PUSH1 0x0 MSTORE PUSH1 0x20 PUSH1 0x0 KECCAK256 SWAP1 POP SWAP2 SWAP1 POP JUMP JUMPDEST PUSH1 0x0 DUP2 SLOAD PUSH2 0xFF5 DUP2 PUSH2 0xFA2 JUMP JUMPDEST PUSH2 0xFFF DUP2 DUP7 PUSH2 0xF07 JUMP JUMPDEST SWAP5 POP PUSH1 0x1 DUP3 AND PUSH1 0x0 DUP2 EQ PUSH2 0x101A JUMPI PUSH1 0x1 DUP2 EQ PUSH2 0x102F JUMPI PUSH2 0x1062 JUMP JUMPDEST PUSH1 0xFF NOT DUP4 AND DUP7 MSTORE DUP2 ISZERO ISZERO DUP3 MUL DUP7 ADD SWAP4 POP PUSH2 0x1062 JUMP JUMPDEST PUSH2 0x1038 DUP6 PUSH2 0xFD3 JUMP JUMPDEST PUSH1 0x0 JUMPDEST DUP4 DUP2 LT ISZERO PUSH2 0x105A JUMPI DUP2 SLOAD DUP2 DUP10 ADD MSTORE PUSH1 0x1 DUP3 ADD SWAP2 POP PUSH1 0x20 DUP2 ADD SWAP1 POP PUSH2 0x103B JUMP JUMPDEST DUP4 DUP9 ADD SWAP6 POP POP POP JUMPDEST POP POP POP SWAP3 SWAP2 POP POP JUMP JUMPDEST PUSH1 0x0 PUSH2 0x1077 DUP3 DUP5 PUSH2 0xFE8 JUMP JUMPDEST SWAP2 POP DUP2 SWAP1 POP SWAP3 SWAP2 POP POP JUMP JUMPDEST PUSH1 0x0 DUP3 DUP3 MSTORE PUSH1 0x20 DUP3 ADD SWAP1 POP SWAP3 SWAP2 POP POP JUMP JUMPDEST PUSH32 0x6E6F742077656172696E67206861740000000000000000000000000000000000 PUSH1 0x0 DUP3 ADD MSTORE POP JUMP JUMPDEST PUSH1 0x0 PUSH2 0x10C9 PUSH1 0xF DUP4 PUSH2 0x1082 JUMP JUMPDEST SWAP2 POP PUSH2 0x10D4 DUP3 PUSH2 0x1093 JUMP JUMPDEST PUSH1 0x20 DUP3 ADD SWAP1 POP SWAP2 SWAP1 POP JUMP JUMPDEST PUSH1 0x0 PUSH1 0x20 DUP3 ADD SWAP1 POP DUP2 DUP2 SUB PUSH1 0x0 DUP4 ADD MSTORE PUSH2 0x10F8 DUP2 PUSH2 0x10BC JUMP JUMPDEST SWAP1 POP SWAP2 SWAP1 POP JUMP JUMPDEST PUSH32 0x4E487B7100000000000000000000000000000000000000000000000000000000 PUSH1 0x0 MSTORE PUSH1 0x12 PUSH1 0x4 MSTORE PUSH1 0x24 PUSH1 0x0 REVERT JUMPDEST PUSH1 0x0 PUSH2 0x1139 DUP3 PUSH2 0xA43 JUMP JUMPDEST SWAP2 POP PUSH2 0x1144 DUP4 PUSH2 0xA43 JUMP JUMPDEST SWAP3 POP DUP3 PUSH2 0x1154 JUMPI PUSH2 0x1153 PUSH2 0x10FF JUMP JUMPDEST JUMPDEST DUP3 DUP3 MOD SWAP1 POP SWAP3 SWAP2 POP POP JUMP JUMPDEST PUSH1 0x0 PUSH2 0x116A DUP3 PUSH2 0xA43 JUMP JUMPDEST SWAP2 POP PUSH32 0xFFFFFFFFFFFFFFFFFFFFFFFFFFFFFFFFFFFFFFFFFFFFFFFFFFFFFFFFFFFFFFFF DUP3 SUB PUSH2 0x119C JUMPI PUSH2 0x119B PUSH2 0xEA4 JUMP JUMPDEST JUMPDEST PUSH1 0x1 DUP3 ADD SWAP1 POP SWAP2 SWAP1 POP JUMP JUMPDEST PUSH1 0x0 PUSH1 0x20 PUSH1 0x1F DUP4 ADD DIV SWAP1 POP SWAP2 SWAP1 POP JUMP JUMPDEST PUSH1 0x0 DUP3 DUP3 SHL SWAP1 POP SWAP3 SWAP2 POP POP JUMP JUMPDEST PUSH1 0x0 PUSH1 0x8 DUP4 MUL PUSH2 0x11F4 PUSH32 0xFFFFFFFFFFFFFFFFFFFFFFFFFFFFFFFFFFFFFFFFFFFFFFFFFFFFFFFFFFFFFFFF DUP3 PUSH2 0x11B7 JUMP JUMPDEST PUSH2 0x11FE DUP7 DUP4 PUSH2 0x11B7 JUMP JUMPDEST SWAP6 POP DUP1 NOT DUP5 AND SWAP4 POP DUP1 DUP7 AND DUP5 OR SWAP3 POP POP POP SWAP4 SWAP3 POP POP POP JUMP JUMPDEST PUSH1 0x0 DUP2 SWAP1 POP SWAP2 SWAP1 POP JUMP JUMPDEST PUSH1 0x0 PUSH2 0x123B PUSH2 0x1236 PUSH2 0x1231 DUP5 PUSH2 0xA43 JUMP JUMPDEST PUSH2 0x1216 JUMP JUMPDEST PUSH2 0xA43 JUMP JUMPDEST SWAP1 POP SWAP2 SWAP1 POP JUMP JUMPDEST PUSH1 0x0 DUP2 SWAP1 POP SWAP2 SWAP1 POP JUMP JUMPDEST PUSH2 0x1255 DUP4 PUSH2 0x1220 JUMP JUMPDEST PUSH2 0x1269 PUSH2 0x1261 DUP3 PUSH2 0x1242 JUMP JUMPDEST DUP5 DUP5 SLOAD PUSH2 0x11C4 JUMP JUMPDEST DUP3 SSTORE POP POP POP POP JUMP JUMPDEST PUSH1 0x0 SWAP1 JUMP JUMPDEST PUSH2 0x127E PUSH2 0x1271 JUMP JUMPDEST PUSH2 0x1289 DUP2 DUP5 DUP5 PUSH2 0x124C JUMP JUMPDEST POP POP POP JUMP JUMPDEST JUMPDEST DUP2 DUP2 LT ISZERO PUSH2 0x12AD JUMPI PUSH2 0x12A2 PUSH1 0x0 DUP3 PUSH2 0x1276 JUMP JUMPDEST PUSH1 0x1 DUP2 ADD SWAP1 POP PUSH2 0x128F JUMP JUMPDEST POP POP JUMP JUMPDEST PUSH1 0x1F DUP3 GT ISZERO PUSH2 0x12F2 JUMPI PUSH2 0x12C3 DUP2 PUSH2 0xFD3 JUMP JUMPDEST PUSH2 0x12CC DUP5 PUSH2 0x11A7 JUMP JUMPDEST DUP2 ADD PUSH1 0x20 DUP6 LT ISZERO PUSH2 0x12DB JUMPI DUP2 SWAP1 POP JUMPDEST PUSH2 0x12EF PUSH2 0x12E7 DUP6 PUSH2 0x11A7 JUMP JUMPDEST DUP4 ADD DUP3 PUSH2 0x128E JUMP JUMPDEST POP POP JUMPDEST POP POP POP JUMP JUMPDEST PUSH1 0x0 DUP3 DUP3 SHR SWAP1 POP SWAP3 SWAP2 POP POP JUMP JUMPDEST PUSH1 0x0 PUSH2 0x1315 PUSH1 0x0 NOT DUP5 PUSH1 0x8 MUL PUSH2 0x12F7 JUMP JUMPDEST NOT DUP1 DUP4 AND SWAP2 POP POP SWAP3 SWAP2 POP POP JUMP JUMPDEST PUSH1 0x0 PUSH2 0x132E DUP4 DUP4 PUSH2 0x1304 JUMP JUMPDEST SWAP2 POP DUP3 PUSH1 0x2 MUL DUP3 OR SWAP1 POP SWAP3 SWAP2 POP POP JUMP JUMPDEST PUSH2 0x1347 DUP3 PUSH2 0xD60 JUMP JUMPDEST PUSH8 0xFFFFFFFFFFFFFFFF DUP2 GT ISZERO PUSH2 0x1360 JUMPI PUSH2 0x135F PUSH2 0xB61 JUMP JUMPDEST JUMPDEST PUSH2 0x136A DUP3 SLOAD PUSH2 0xFA2 JUMP JUMPDEST PUSH2 0x1375 DUP3 DUP3 DUP6 PUSH2 0x12B1 JUMP JUMPDEST PUSH1 0x0 PUSH1 0x20 SWAP1 POP PUSH1 0x1F DUP4 GT PUSH1 0x1 DUP2 EQ PUSH2 0x13A8 JUMPI PUSH1 0x0 DUP5 ISZERO PUSH2 0x1396 JUMPI DUP3 DUP8 ADD MLOAD SWAP1 POP JUMPDEST PUSH2 0x13A0 DUP6 DUP3 PUSH2 0x1322 JUMP JUMPDEST DUP7 SSTORE POP PUSH2 0x1408 JUMP JUMPDEST PUSH1 0x1F NOT DUP5 AND PUSH2 0x13B6 DUP7 PUSH2 0xFD3 JUMP JUMPDEST PUSH1 0x0 JUMPDEST DUP3 DUP2 LT ISZERO PUSH2 0x13DE JUMPI DUP5 DUP10 ADD MLOAD DUP3 SSTORE PUSH1 0x1 DUP3 ADD SWAP2 POP PUSH1 0x20 DUP6 ADD SWAP5 POP PUSH1 0x20 DUP2 ADD SWAP1 POP PUSH2 0x13B9 JUMP JUMPDEST DUP7 DUP4 LT ISZERO PUSH2 0x13FB JUMPI DUP5 DUP10 ADD MLOAD PUSH2 0x13F7 PUSH1 0x1F DUP10 AND DUP3 PUSH2 0x1304 JUMP JUMPDEST DUP4 SSTORE POP JUMPDEST PUSH1 0x1 PUSH1 0x2 DUP9 MUL ADD DUP9 SSTORE POP POP POP JUMPDEST POP POP POP POP POP POP JUMP JUMPDEST PUSH1 0x0 DUP2 SWAP1 POP SWAP2 SWAP1 POP JUMP JUMPDEST PUSH2 0x142B PUSH2 0x1426 DUP3 PUSH2 0xA43 JUMP JUMPDEST PUSH2 0x1410 JUMP JUMPDEST DUP3 MSTORE POP POP JUMP JUMPDEST PUSH1 0x0 PUSH2 0x143D DUP3 DUP8 PUSH2 0x141A JUMP JUMPDEST PUSH1 0x20 DUP3 ADD SWAP2 POP PUSH2 0x144D DUP3 DUP7 PUSH2 0x141A JUMP JUMPDEST PUSH1 0x20 DUP3 ADD SWAP2 POP PUSH2 0x145D DUP3 DUP6 PUSH2 0x141A JUMP JUMPDEST PUSH1 0x20 DUP3 ADD SWAP2 POP PUSH2 0x146D DUP3 DUP5 PUSH2 0x141A JUMP JUMPDEST PUSH1 0x20 DUP3 ADD SWAP2 POP DUP2 SWAP1 POP SWAP6 SWAP5 POP POP POP POP POP JUMP INVALID LOG2 PUSH5 0x6970667358 0x22 SLT KECCAK256 PUSH24 0x893FC8A45D5A3A5627D0AD37CD563E46459BB89A71E42877 SWAP16 0x23 0x5E 0xAF 0xE9 MOD 0xC PUSH5 0x736F6C6343 STOP ADDMOD GT STOP CALLER "},"methodIdentifiers":{"createBasicMonster(uint256,uint256,uint256,uint256,string,string)":"4b3564c8","dragonQuest(uint256)":"0207f11f","getBasicMonster(uint256)":"874e59a8","getBasicMonsterCooldown(uint256,uint256)":"15e840d7","getMonsterCounter()":"fda30d4c"}}}}}