{"@redstone-finance/evm-connector/contracts/core/CalldataExtractor.sol":{"CalldataExtractor":{"abi":[{"inputs":[],"name":"CalldataMustHaveValidPayload","type":"error"},{"inputs":[],"name":"CalldataOverOrUnderFlow","type":"error"},{"inputs":[],"name":"DataPackageTimestampMustNotBeZero","type":"error"},{"inputs":[],"name":"DataPackageTimestampsMustBeEqual","type":"error"},{"inputs":[],"name":"EachSignerMustProvideTheSameValue","type":"error"},{"inputs":[],"name":"EmptyCalldataPointersArr","type":"error"},{"inputs":[],"name":"IncorrectUnsignedMetadataSize","type":"error"},{"inputs":[{"internalType":"uint256","name":"receivedSignersCount","type":"uint256"},{"internalType":"uint256","name":"requiredSignersCount","type":"uint256"}],"name":"InsufficientNumberOfUniqueSigners","type":"error"},{"inputs":[],"name":"InvalidCalldataPointer","type":"error"},{"inputs":[],"name":"RedstonePayloadMustHaveAtLeastOneDataPackage","type":"error"},{"inputs":[{"internalType":"address","name":"receivedSigner","type":"address"}],"name":"SignerNotAuthorised","type":"error"},{"inputs":[],"name":"extractTimestampsAndAssertAllAreEqual","outputs":[{"internalType":"uint256","name":"extractedTimestamp","type":"uint256"}],"stateMutability":"pure","type":"function"}],"evm":{"bytecode":{"linkReferences":{},"object":"608060405234801561001057600080fd5b50610581806100206000396000f3fe608060405234801561001057600080fd5b506004361061002b5760003560e01c806355a547d514610030575b600080fd5b61003861004e565b604051610045919061040f565b60405180910390f35b6000806100596101be565b90506000610066826102cf565b61ffff169050600081036100a6576040517f8552ff3c00000000000000000000000000000000000000000000000000000000815260040160405180910390fd5b6002826100b39190610459565b915060005b818110156101b85760006100cb8461032b565b90506000806068866100dd9190610459565b905060008160003690506100f1919061048d565b90508035925060008365ffffffffffff1603610139576040517f336dc9d000000000000000000000000000000000000000000000000000000000815260040160405180910390fd5b60008803610151578265ffffffffffff169750610193565b878365ffffffffffff1614610192576040517fd9d1f46500000000000000000000000000000000000000000000000000000000815260040160405180910390fd5b5b838761019f9190610459565b96505050505080806101b0906104c1565b9150506100b8565b50505090565b60008060203603356602ed57011e000081166602ed57011e00001491505080610213576040517fe7764c9e00000000000000000000000000000000000000000000000000000000815260040160405180910390fd5b60008036905060291115610253576040517f5796f78a00000000000000000000000000000000000000000000000000000000815260040160405180910390fd5b602936033590506000600960038362ffffff166102709190610459565b61027a9190610459565b9050600036905060028261028e9190610459565b11156102c6576040517fc30a7bd700000000000000000000000000000000000000000000000000000000815260040160405180910390fd5b80935050505090565b6000806020836102df9190610459565b9050600036905081111561031f576040517f5796f78a00000000000000000000000000000000000000000000000000000000815260040160405180910390fd5b80360335915050919050565b60008060006103398461036a565b91509150604e81602061034c9190610459565b836103579190610509565b6103619190610459565b92505050919050565b600080600080600060418661037f9190610459565b905060006103a66020836103939190610459565b60003690506103e090919063ffffffff16565b9050803593506103c06003826103e090919063ffffffff16565b9050803592508362ffffff1695508263ffffffff16945050505050915091565b600081836103ee919061048d565b905092915050565b6000819050919050565b610409816103f6565b82525050565b60006020820190506104246000830184610400565b92915050565b7f4e487b7100000000000000000000000000000000000000000000000000000000600052601160045260246000fd5b6000610464826103f6565b915061046f836103f6565b92508282019050808211156104875761048661042a565b5b92915050565b6000610498826103f6565b91506104a3836103f6565b92508282039050818111156104bb576104ba61042a565b5b92915050565b60006104cc826103f6565b91507fffffffffffffffffffffffffffffffffffffffffffffffffffffffffffffffff82036104fe576104fd61042a565b5b600182019050919050565b6000610514826103f6565b915061051f836103f6565b925082820261052d816103f6565b915082820484148315176105445761054361042a565b5b509291505056fea2646970667358221220f07e6fa389602429c4ee2215bb89d2037843867ef9d6a9e3e81a6b2fc60713b564736f6c63430008120033","opcodes":"PUSH1 0x80 PUSH1 0x40 MSTORE CALLVALUE DUP1 ISZERO PUSH2 0x10 JUMPI PUSH1 0x0 DUP1 REVERT JUMPDEST POP PUSH2 0x581 DUP1 PUSH2 0x20 PUSH1 0x0 CODECOPY PUSH1 0x0 RETURN INVALID PUSH1 0x80 PUSH1 0x40 MSTORE CALLVALUE DUP1 ISZERO PUSH2 0x10 JUMPI PUSH1 0x0 DUP1 REVERT JUMPDEST POP PUSH1 0x4 CALLDATASIZE LT PUSH2 0x2B JUMPI PUSH1 0x0 CALLDATALOAD PUSH1 0xE0 SHR DUP1 PUSH4 0x55A547D5 EQ PUSH2 0x30 JUMPI JUMPDEST PUSH1 0x0 DUP1 REVERT JUMPDEST PUSH2 0x38 PUSH2 0x4E JUMP JUMPDEST PUSH1 0x40 MLOAD PUSH2 0x45 SWAP2 SWAP1 PUSH2 0x40F JUMP JUMPDEST PUSH1 0x40 MLOAD DUP1 SWAP2 SUB SWAP1 RETURN JUMPDEST PUSH1 0x0 DUP1 PUSH2 0x59 PUSH2 0x1BE JUMP JUMPDEST SWAP1 POP PUSH1 0x0 PUSH2 0x66 DUP3 PUSH2 0x2CF JUMP JUMPDEST PUSH2 0xFFFF AND SWAP1 POP PUSH1 0x0 DUP2 SUB PUSH2 0xA6 JUMPI PUSH1 0x40 MLOAD PUSH32 0x8552FF3C00000000000000000000000000000000000000000000000000000000 DUP2 MSTORE PUSH1 0x4 ADD PUSH1 0x40 MLOAD DUP1 SWAP2 SUB SWAP1 REVERT JUMPDEST PUSH1 0x2 DUP3 PUSH2 0xB3 SWAP2 SWAP1 PUSH2 0x459 JUMP JUMPDEST SWAP2 POP PUSH1 0x0 JUMPDEST DUP2 DUP2 LT ISZERO PUSH2 0x1B8 JUMPI PUSH1 0x0 PUSH2 0xCB DUP5 PUSH2 0x32B JUMP JUMPDEST SWAP1 POP PUSH1 0x0 DUP1 PUSH1 0x68 DUP7 PUSH2 0xDD SWAP2 SWAP1 PUSH2 0x459 JUMP JUMPDEST SWAP1 POP PUSH1 0x0 DUP2 PUSH1 0x0 CALLDATASIZE SWAP1 POP PUSH2 0xF1 SWAP2 SWAP1 PUSH2 0x48D JUMP JUMPDEST SWAP1 POP DUP1 CALLDATALOAD SWAP3 POP PUSH1 0x0 DUP4 PUSH6 0xFFFFFFFFFFFF AND SUB PUSH2 0x139 JUMPI PUSH1 0x40 MLOAD PUSH32 0x336DC9D000000000000000000000000000000000000000000000000000000000 DUP2 MSTORE PUSH1 0x4 ADD PUSH1 0x40 MLOAD DUP1 SWAP2 SUB SWAP1 REVERT JUMPDEST PUSH1 0x0 DUP9 SUB PUSH2 0x151 JUMPI DUP3 PUSH6 0xFFFFFFFFFFFF AND SWAP8 POP PUSH2 0x193 JUMP JUMPDEST DUP8 DUP4 PUSH6 0xFFFFFFFFFFFF AND EQ PUSH2 0x192 JUMPI PUSH1 0x40 MLOAD PUSH32 0xD9D1F46500000000000000000000000000000000000000000000000000000000 DUP2 MSTORE PUSH1 0x4 ADD PUSH1 0x40 MLOAD DUP1 SWAP2 SUB SWAP1 REVERT JUMPDEST JUMPDEST DUP4 DUP8 PUSH2 0x19F SWAP2 SWAP1 PUSH2 0x459 JUMP JUMPDEST SWAP7 POP POP POP POP POP DUP1 DUP1 PUSH2 0x1B0 SWAP1 PUSH2 0x4C1 JUMP JUMPDEST SWAP2 POP POP PUSH2 0xB8 JUMP JUMPDEST POP POP POP SWAP1 JUMP JUMPDEST PUSH1 0x0 DUP1 PUSH1 0x20 CALLDATASIZE SUB CALLDATALOAD PUSH7 0x2ED57011E0000 DUP2 AND PUSH7 0x2ED57011E0000 EQ SWAP2 POP POP DUP1 PUSH2 0x213 JUMPI PUSH1 0x40 MLOAD PUSH32 0xE7764C9E00000000000000000000000000000000000000000000000000000000 DUP2 MSTORE PUSH1 0x4 ADD PUSH1 0x40 MLOAD DUP1 SWAP2 SUB SWAP1 REVERT JUMPDEST PUSH1 0x0 DUP1 CALLDATASIZE SWAP1 POP PUSH1 0x29 GT ISZERO PUSH2 0x253 JUMPI PUSH1 0x40 MLOAD PUSH32 0x5796F78A00000000000000000000000000000000000000000000000000000000 DUP2 MSTORE PUSH1 0x4 ADD PUSH1 0x40 MLOAD DUP1 SWAP2 SUB SWAP1 REVERT JUMPDEST PUSH1 0x29 CALLDATASIZE SUB CALLDATALOAD SWAP1 POP PUSH1 0x0 PUSH1 0x9 PUSH1 0x3 DUP4 PUSH3 0xFFFFFF AND PUSH2 0x270 SWAP2 SWAP1 PUSH2 0x459 JUMP JUMPDEST PUSH2 0x27A SWAP2 SWAP1 PUSH2 0x459 JUMP JUMPDEST SWAP1 POP PUSH1 0x0 CALLDATASIZE SWAP1 POP PUSH1 0x2 DUP3 PUSH2 0x28E SWAP2 SWAP1 PUSH2 0x459 JUMP JUMPDEST GT ISZERO PUSH2 0x2C6 JUMPI PUSH1 0x40 MLOAD PUSH32 0xC30A7BD700000000000000000000000000000000000000000000000000000000 DUP2 MSTORE PUSH1 0x4 ADD PUSH1 0x40 MLOAD DUP1 SWAP2 SUB SWAP1 REVERT JUMPDEST DUP1 SWAP4 POP POP POP POP SWAP1 JUMP JUMPDEST PUSH1 0x0 DUP1 PUSH1 0x20 DUP4 PUSH2 0x2DF SWAP2 SWAP1 PUSH2 0x459 JUMP JUMPDEST SWAP1 POP PUSH1 0x0 CALLDATASIZE SWAP1 POP DUP2 GT ISZERO PUSH2 0x31F JUMPI PUSH1 0x40 MLOAD PUSH32 0x5796F78A00000000000000000000000000000000000000000000000000000000 DUP2 MSTORE PUSH1 0x4 ADD PUSH1 0x40 MLOAD DUP1 SWAP2 SUB SWAP1 REVERT JUMPDEST DUP1 CALLDATASIZE SUB CALLDATALOAD SWAP2 POP POP SWAP2 SWAP1 POP JUMP JUMPDEST PUSH1 0x0 DUP1 PUSH1 0x0 PUSH2 0x339 DUP5 PUSH2 0x36A JUMP JUMPDEST SWAP2 POP SWAP2 POP PUSH1 0x4E DUP2 PUSH1 0x20 PUSH2 0x34C SWAP2 SWAP1 PUSH2 0x459 JUMP JUMPDEST DUP4 PUSH2 0x357 SWAP2 SWAP1 PUSH2 0x509 JUMP JUMPDEST PUSH2 0x361 SWAP2 SWAP1 PUSH2 0x459 JUMP JUMPDEST SWAP3 POP POP POP SWAP2 SWAP1 POP JUMP JUMPDEST PUSH1 0x0 DUP1 PUSH1 0x0 DUP1 PUSH1 0x0 PUSH1 0x41 DUP7 PUSH2 0x37F SWAP2 SWAP1 PUSH2 0x459 JUMP JUMPDEST SWAP1 POP PUSH1 0x0 PUSH2 0x3A6 PUSH1 0x20 DUP4 PUSH2 0x393 SWAP2 SWAP1 PUSH2 0x459 JUMP JUMPDEST PUSH1 0x0 CALLDATASIZE SWAP1 POP PUSH2 0x3E0 SWAP1 SWAP2 SWAP1 PUSH4 0xFFFFFFFF AND JUMP JUMPDEST SWAP1 POP DUP1 CALLDATALOAD SWAP4 POP PUSH2 0x3C0 PUSH1 0x3 DUP3 PUSH2 0x3E0 SWAP1 SWAP2 SWAP1 PUSH4 0xFFFFFFFF AND JUMP JUMPDEST SWAP1 POP DUP1 CALLDATALOAD SWAP3 POP DUP4 PUSH3 0xFFFFFF AND SWAP6 POP DUP3 PUSH4 0xFFFFFFFF AND SWAP5 POP POP POP POP POP SWAP2 POP SWAP2 JUMP JUMPDEST PUSH1 0x0 DUP2 DUP4 PUSH2 0x3EE SWAP2 SWAP1 PUSH2 0x48D JUMP JUMPDEST SWAP1 POP SWAP3 SWAP2 POP POP JUMP JUMPDEST PUSH1 0x0 DUP2 SWAP1 POP SWAP2 SWAP1 POP JUMP JUMPDEST PUSH2 0x409 DUP2 PUSH2 0x3F6 JUMP JUMPDEST DUP3 MSTORE POP POP JUMP JUMPDEST PUSH1 0x0 PUSH1 0x20 DUP3 ADD SWAP1 POP PUSH2 0x424 PUSH1 0x0 DUP4 ADD DUP5 PUSH2 0x400 JUMP JUMPDEST SWAP3 SWAP2 POP POP JUMP JUMPDEST PUSH32 0x4E487B7100000000000000000000000000000000000000000000000000000000 PUSH1 0x0 MSTORE PUSH1 0x11 PUSH1 0x4 MSTORE PUSH1 0x24 PUSH1 0x0 REVERT JUMPDEST PUSH1 0x0 PUSH2 0x464 DUP3 PUSH2 0x3F6 JUMP JUMPDEST SWAP2 POP PUSH2 0x46F DUP4 PUSH2 0x3F6 JUMP JUMPDEST SWAP3 POP DUP3 DUP3 ADD SWAP1 POP DUP1 DUP3 GT ISZERO PUSH2 0x487 JUMPI PUSH2 0x486 PUSH2 0x42A JUMP JUMPDEST JUMPDEST SWAP3 SWAP2 POP POP JUMP JUMPDEST PUSH1 0x0 PUSH2 0x498 DUP3 PUSH2 0x3F6 JUMP JUMPDEST SWAP2 POP PUSH2 0x4A3 DUP4 PUSH2 0x3F6 JUMP JUMPDEST SWAP3 POP DUP3 DUP3 SUB SWAP1 POP DUP2 DUP2 GT ISZERO PUSH2 0x4BB JUMPI PUSH2 0x4BA PUSH2 0x42A JUMP JUMPDEST JUMPDEST SWAP3 SWAP2 POP POP JUMP JUMPDEST PUSH1 0x0 PUSH2 0x4CC DUP3 PUSH2 0x3F6 JUMP JUMPDEST SWAP2 POP PUSH32 0xFFFFFFFFFFFFFFFFFFFFFFFFFFFFFFFFFFFFFFFFFFFFFFFFFFFFFFFFFFFFFFFF DUP3 SUB PUSH2 0x4FE JUMPI PUSH2 0x4FD PUSH2 0x42A JUMP JUMPDEST JUMPDEST PUSH1 0x1 DUP3 ADD SWAP1 POP SWAP2 SWAP1 POP JUMP JUMPDEST PUSH1 0x0 PUSH2 0x514 DUP3 PUSH2 0x3F6 JUMP JUMPDEST SWAP2 POP PUSH2 0x51F DUP4 PUSH2 0x3F6 JUMP JUMPDEST SWAP3 POP DUP3 DUP3 MUL PUSH2 0x52D DUP2 PUSH2 0x3F6 JUMP JUMPDEST SWAP2 POP DUP3 DUP3 DIV DUP5 EQ DUP4 ISZERO OR PUSH2 0x544 JUMPI PUSH2 0x543 PUSH2 0x42A JUMP JUMPDEST JUMPDEST POP SWAP3 SWAP2 POP POP JUMP INVALID LOG2 PUSH5 0x6970667358 0x22 SLT KECCAK256 CREATE PUSH31 0x6FA389602429C4EE2215BB89D2037843867EF9D6A9E3E81A6B2FC60713B564 PUSH20 0x6F6C634300081200330000000000000000000000 "},"methodIdentifiers":{"extractTimestampsAndAssertAllAreEqual()":"55a547d5"}}}}}