{"contracts/facets/ArenaFacet.sol":{"ArenaFacet":{"abi":[{"anonymous":false,"inputs":[{"indexed":true,"internalType":"uint256","name":"_playerId","type":"uint256"},{"indexed":true,"internalType":"uint256","name":"_basicArenaId","type":"uint256"}],"name":"BasicArenaLoss","type":"event"},{"anonymous":false,"inputs":[{"indexed":true,"internalType":"uint256","name":"_playerId","type":"uint256"},{"indexed":true,"internalType":"uint256","name":"_basicArenaId","type":"uint256"}],"name":"BasicArenaWin","type":"event"},{"anonymous":false,"inputs":[{"indexed":false,"internalType":"uint256","name":"_basicArenaId","type":"uint256"},{"components":[{"internalType":"uint256","name":"basicArenaId","type":"uint256"},{"internalType":"uint256","name":"cost","type":"uint256"},{"internalType":"uint256","name":"cooldown","type":"uint256"},{"internalType":"uint256","name":"hostId","type":"uint256"},{"internalType":"bool","name":"open","type":"bool"},{"internalType":"address payable","name":"hostAddress","type":"address"},{"internalType":"string","name":"name","type":"string"},{"internalType":"string","name":"url","type":"string"}],"indexed":false,"internalType":"struct BasicArena","name":"_basicArena","type":"tuple"}],"name":"CreateBasicArena","type":"event"},{"anonymous":false,"inputs":[{"indexed":false,"internalType":"uint256","name":"_hillArenaId","type":"uint256"},{"components":[{"internalType":"uint256","name":"hillArenaId","type":"uint256"},{"internalType":"uint256","name":"cost","type":"uint256"},{"internalType":"uint256","name":"cooldown","type":"uint256"},{"internalType":"uint256","name":"hostId","type":"uint256"},{"internalType":"uint256","name":"wins","type":"uint256"},{"internalType":"bool","name":"open","type":"bool"},{"internalType":"address payable","name":"hostAddress","type":"address"},{"internalType":"string","name":"name","type":"string"},{"internalType":"string","name":"url","type":"string"}],"indexed":false,"internalType":"struct HillArena","name":"_hillArena","type":"tuple"}],"name":"CreateHillArena","type":"event"},{"anonymous":false,"inputs":[{"indexed":true,"internalType":"uint256","name":"_playerId","type":"uint256"},{"indexed":true,"internalType":"uint256","name":"_basicArenaId","type":"uint256"}],"name":"EnterBasicArena","type":"event"},{"anonymous":false,"inputs":[{"indexed":true,"internalType":"uint256","name":"_playerId","type":"uint256"},{"indexed":true,"internalType":"uint256","name":"_basicArenaId","type":"uint256"}],"name":"LeaveBasicArena","type":"event"},{"inputs":[{"internalType":"uint256","name":"_cost","type":"uint256"},{"internalType":"uint256","name":"_cooldown","type":"uint256"},{"internalType":"string","name":"_name","type":"string"},{"internalType":"string","name":"_uri","type":"string"}],"name":"creatBasicArena","outputs":[],"stateMutability":"nonpayable","type":"function"},{"inputs":[{"internalType":"uint256","name":"_cost","type":"uint256"},{"internalType":"uint256","name":"_cooldown","type":"uint256"},{"internalType":"string","name":"_name","type":"string"},{"internalType":"string","name":"_uri","type":"string"}],"name":"creatHillArena","outputs":[],"stateMutability":"nonpayable","type":"function"},{"inputs":[{"internalType":"uint256","name":"_playerId","type":"uint256"},{"internalType":"uint256","name":"_basicArenaId","type":"uint256"}],"name":"enterBasicArena","outputs":[],"stateMutability":"nonpayable","type":"function"},{"inputs":[{"internalType":"uint256","name":"_playerId","type":"uint256"},{"internalType":"uint256","name":"_basicArenaId","type":"uint256"}],"name":"fightBaiscArena","outputs":[],"stateMutability":"nonpayable","type":"function"},{"inputs":[],"name":"freeGold","outputs":[],"stateMutability":"nonpayable","type":"function"},{"inputs":[{"internalType":"uint256","name":"_basicArenaId","type":"uint256"}],"name":"getBasicArena","outputs":[{"components":[{"internalType":"uint256","name":"basicArenaId","type":"uint256"},{"internalType":"uint256","name":"cost","type":"uint256"},{"internalType":"uint256","name":"cooldown","type":"uint256"},{"internalType":"uint256","name":"hostId","type":"uint256"},{"internalType":"bool","name":"open","type":"bool"},{"internalType":"address payable","name":"hostAddress","type":"address"},{"internalType":"string","name":"name","type":"string"},{"internalType":"string","name":"url","type":"string"}],"internalType":"struct BasicArena","name":"","type":"tuple"}],"stateMutability":"view","type":"function"},{"inputs":[{"internalType":"uint256","name":"_playerId","type":"uint256"},{"internalType":"uint256","name":"_basicArenaId","type":"uint256"}],"name":"getBasicArenaCooldowns","outputs":[{"internalType":"uint256","name":"","type":"uint256"}],"stateMutability":"view","type":"function"},{"inputs":[],"name":"getBasicArenaCount","outputs":[{"internalType":"uint256","name":"","type":"uint256"}],"stateMutability":"view","type":"function"},{"inputs":[{"internalType":"address","name":"_address","type":"address"}],"name":"getGoldBalance","outputs":[{"internalType":"uint256","name":"","type":"uint256"}],"stateMutability":"view","type":"function"},{"inputs":[{"internalType":"uint256","name":"_playerId","type":"uint256"}],"name":"getTotalLosses","outputs":[{"internalType":"uint256","name":"","type":"uint256"}],"stateMutability":"view","type":"function"},{"inputs":[{"internalType":"uint256","name":"_playerId","type":"uint256"}],"name":"getTotalWins","outputs":[{"internalType":"uint256","name":"","type":"uint256"}],"stateMutability":"view","type":"function"},{"inputs":[{"internalType":"uint256","name":"_playerId","type":"uint256"},{"internalType":"uint256","name":"_basicArenaId","type":"uint256"}],"name":"leaveBasicArena","outputs":[],"stateMutability":"nonpayable","type":"function"}],"evm":{"bytecode":{"linkReferences":{},"object":"608060405234801561001057600080fd5b50612464806100206000396000f3fe608060405234801561001057600080fd5b50600436106100b45760003560e01c806359735adc1161007157806359735adc1461018d578063c7f3ade5146101a9578063c8fe5c47146101c5578063cc8d469d146101e1578063f248251314610211578063fb944ffc1461022d576100b4565b80630b93942a146100b95780632d2c17be146100d557806333f453af146100f35780633707caf2146100fd5780634f7d08e51461012d57806354e8a31a1461015d575b600080fd5b6100d360048036038101906100ce9190611894565b61025d565b005b6100dd610299565b6040516100ea91906118e3565b60405180910390f35b6100fb6102a8565b005b6101176004803603810190610112919061195c565b6102b2565b60405161012491906118e3565b60405180910390f35b61014760048036038101906101429190611989565b6102c4565b60405161015491906118e3565b60405180910390f35b61017760048036038101906101729190611989565b6102d6565b6040516101849190611b48565b60405180910390f35b6101a760048036038101906101a29190611c9f565b6102ee565b005b6101c360048036038101906101be9190611894565b6103a0565b005b6101df60048036038101906101da9190611894565b610417565b005b6101fb60048036038101906101f69190611894565b610453565b60405161020891906118e3565b60405180910390f35b61022b60048036038101906102269190611c9f565b610467565b005b61024760048036038101906102429190611989565b610519565b60405161025491906118e3565b60405180910390f35b610267828261052b565b80827f429a014671400a39eaa0b16744a56044df14e9b9124a3919f8425a0b471e25e960405160405180910390a35050565b60006102a36108c9565b905090565b6102b06108e1565b565b60006102bd82610949565b9050919050565b60006102cf826109a0565b9050919050565b6102de6117ed565b6102e7826109cb565b9050919050565b600073434d36f32abed3f7937fe0be88dc1b0eb938124490508073ffffffffffffffffffffffffffffffffffffffff163373ffffffffffffffffffffffffffffffffffffffff161461033f57600080fd5b61034b85858585610bc5565b60006103556108c9565b90507fa8944f13c384569cd759dea69a02c83263e937c72f585de37fa46b4bb55b6b0881610382836102d6565b604051610390929190611d3e565b60405180910390a1505050505050565b6000806103ad8484610d21565b809250819350505082827fe5783c40c14d69971fbf9d435486b3a0469a026e4cacbd5e543c18ddd293eca560405160405180910390a382817ff07fe1bc469a482805ec42d00e7477d9bacbd901aedac046ea74d6a10ce2b04a60405160405180910390a350505050565b610421828261128b565b80827ff4debd39acd9b010e1276185a3f67b145758748b94e0145ce176c42ae6d27a4f60405160405180910390a35050565b600061045f83836114b5565b905092915050565b600073434d36f32abed3f7937fe0be88dc1b0eb938124490508073ffffffffffffffffffffffffffffffffffffffff163373ffffffffffffffffffffffffffffffffffffffff16146104b857600080fd5b6104c485858585610bc5565b60006104ce6108c9565b90507fa8944f13c384569cd759dea69a02c83263e937c72f585de37fa46b4bb55b6b08816104fb836102d6565b604051610509929190611d3e565b60405180910390a1505050505050565b6000610524826114f2565b9050919050565b600061053561151d565b9050600061054161154a565b9050600061054d611577565b90506000836003016000878152602001908152602001600020600201541461057457600080fd5b3373ffffffffffffffffffffffffffffffffffffffff1683600201600087815260200190815260200160002060009054906101000a900473ffffffffffffffffffffffffffffffffffffffff1673ffffffffffffffffffffffffffffffffffffffff16146105e157600080fd5b600081600101600086815260200190815260200160002090508060040160009054906101000a900460ff1661064b576040517f08c379a000000000000000000000000000000000000000000000000000000000815260040161064290611dcb565b60405180910390fd5b60006002826002015461065e9190611e49565b8560030160008981526020019081526020016000206009015410156106c557600a85600301600089815260200190815260200160002060090154600284600201546106a99190611e49565b6106b39190611e7a565b6106bd9190611eae565b9050806106da565b600282600201546106d69190611e49565b9050805b508083600201600088815260200190815260200160002060008981526020019081526020016000205461070d9190611eae565b42101561071957600080fd5b81600101548460010160003373ffffffffffffffffffffffffffffffffffffffff1673ffffffffffffffffffffffffffffffffffffffff1681526020019081526020016000205410156107a1576040517f08c379a000000000000000000000000000000000000000000000000000000000815260040161079890611f2e565b60405180910390fd5b81600101548460010160003373ffffffffffffffffffffffffffffffffffffffff1673ffffffffffffffffffffffffffffffffffffffff16815260200190815260200160002060008282546107f69190611e7a565b92505081905550600485600301600089815260200190815260200160002060020181905550600083600101600088815260200190815260200160002060040160006101000a81548160ff02191690831515021790555086836001016000888152602001908152602001600020600301819055503383600101600088815260200190815260200160002060040160016101000a81548173ffffffffffffffffffffffffffffffffffffffff021916908373ffffffffffffffffffffffffffffffffffffffff16021790555050505050505050565b6000806108d4611577565b9050806000015491505090565b60006108eb61154a565b905060648160010160003373ffffffffffffffffffffffffffffffffffffffff1673ffffffffffffffffffffffffffffffffffffffff168152602001908152602001600020600082825461093f9190611eae565b9250508190555050565b60008061095461154a565b90508060010160008473ffffffffffffffffffffffffffffffffffffffff1673ffffffffffffffffffffffffffffffffffffffff16815260200190815260200160002054915050919050565b6000806109ab611577565b905080600a01600084815260200190815260200160002054915050919050565b6109d36117ed565b60006109dd611577565b905080600101600084815260200190815260200160002060405180610100016040529081600082015481526020016001820154815260200160028201548152602001600382015481526020016004820160009054906101000a900460ff161515151581526020016004820160019054906101000a900473ffffffffffffffffffffffffffffffffffffffff1673ffffffffffffffffffffffffffffffffffffffff1673ffffffffffffffffffffffffffffffffffffffff168152602001600582018054610aa990611f7d565b80601f0160208091040260200160405190810160405280929190818152602001828054610ad590611f7d565b8015610b225780601f10610af757610100808354040283529160200191610b22565b820191906000526020600020905b815481529060010190602001808311610b0557829003601f168201915b50505050508152602001600682018054610b3b90611f7d565b80601f0160208091040260200160405190810160405280929190818152602001828054610b6790611f7d565b8015610bb45780601f10610b8957610100808354040283529160200191610bb4565b820191906000526020600020905b815481529060010190602001808311610b9757829003601f168201915b505050505081525050915050919050565b6000610bcf611577565b9050806000016000815480929190610be690611fae565b919050555060405180610100016040528082600001548152602001868152602001858152602001600081526020016001151581526020013373ffffffffffffffffffffffffffffffffffffffff16815260200184815260200183815250816001016000836000015481526020019081526020016000206000820151816000015560208201518160010155604082015181600201556060820151816003015560808201518160040160006101000a81548160ff02191690831515021790555060a08201518160040160016101000a81548173ffffffffffffffffffffffffffffffffffffffff021916908373ffffffffffffffffffffffffffffffffffffffff16021790555060c0820151816005019081610d0091906121a2565b5060e0820151816006019081610d1691906121a2565b509050505050505050565b6000806000610d2e61151d565b90506000610d3a61154a565b90506000610d46611577565b905060008360030160008981526020019081526020016000206002015414610d6d57600080fd5b3373ffffffffffffffffffffffffffffffffffffffff1683600201600089815260200190815260200160002060009054906101000a900473ffffffffffffffffffffffffffffffffffffffff1673ffffffffffffffffffffffffffffffffffffffff1614610dda57600080fd5b600081600101600088815260200190815260200160002090508060040160009054906101000a900460ff1615610e45576040517f08c379a0000000000000000000000000000000000000000000000000000000008152600401610e3c90611dcb565b60405180910390fd5b600060028260020154610e589190611e49565b8560030160008b8152602001908152602001600020600901541015610ebf57600a8560030160008b81526020019081526020016000206009015460028460020154610ea39190611e49565b610ead9190611e7a565b610eb79190611eae565b905080610ed4565b60028260020154610ed09190611e49565b9050805b50808360020160008a815260200190815260200160002060008b815260200190815260200160002054610f079190611eae565b421015610f1357600080fd5b81600101548460010160003373ffffffffffffffffffffffffffffffffffffffff1673ffffffffffffffffffffffffffffffffffffffff168152602001908152602001600020541015610f9b576040517f08c379a0000000000000000000000000000000000000000000000000000000008152600401610f9290611f2e565b60405180910390fd5b6000610fab83600301548b6115a4565b90506000808b830361107c578b91508460030154905085600a0160008d81526020019081526020016000206000815480929190610fe790611fae565b919050555085600b01600086600301548152602001908152602001600020600081548092919061101690611fae565b919050555084600101548760010160003373ffffffffffffffffffffffffffffffffffffffff1673ffffffffffffffffffffffffffffffffffffffff16815260200190815260200160002060008282546110709190611eae565b925050819055506111c9565b846003015491508b905085600a0160008660030154815260200190815260200160002060008154809291906110b090611fae565b919050555085600b0160008d815260200190815260200160002060008154809291906110db90611fae565b9190505550600285600101546110f19190612274565b8760010160008760040160019054906101000a900473ffffffffffffffffffffffffffffffffffffffff1673ffffffffffffffffffffffffffffffffffffffff1673ffffffffffffffffffffffffffffffffffffffff16815260200190815260200160002060008282546111659190611eae565b9250508190555084600101548760010160003373ffffffffffffffffffffffffffffffffffffffff1673ffffffffffffffffffffffffffffffffffffffff16815260200190815260200160002060008282546111c19190611e7a565b925050819055505b428660020160008d815260200190815260200160002060008e815260200190815260200160002081905550428660020160008d81526020019081526020016000206000876003015481526020019081526020016000208190555060018660010160008d815260200190815260200160002060040160006101000a81548160ff0219169083151502179055506000886003016000876003015481526020019081526020016000206002018190555081819950995050505050505050509250929050565b6000611295611577565b905060006112a161151d565b905060006112ad61154a565b9050848360010160008681526020019081526020016000206003015414611309576040517f08c379a000000000000000000000000000000000000000000000000000000000815260040161130090612302565b60405180910390fd5b60048260030160008781526020019081526020016000206002015414611364576040517f08c379a000000000000000000000000000000000000000000000000000000000815260040161135b9061236e565b60405180910390fd5b3373ffffffffffffffffffffffffffffffffffffffff1682600201600087815260200190815260200160002060009054906101000a900473ffffffffffffffffffffffffffffffffffffffff1673ffffffffffffffffffffffffffffffffffffffff16146113d157600080fd5b600083600101600086815260200190815260200160002060030181905550600183600101600086815260200190815260200160002060040160006101000a81548160ff021916908315150217905550600082600301600087815260200190815260200160002060020181905550826001016000858152602001908152602001600020600101548160010160003373ffffffffffffffffffffffffffffffffffffffff1673ffffffffffffffffffffffffffffffffffffffff16815260200190815260200160002060008282546114a79190611eae565b925050819055505050505050565b6000806114c0611577565b905080600201600084815260200190815260200160002060008581526020019081526020016000205491505092915050565b6000806114fd611577565b905080600b01600084815260200190815260200160002054915050919050565b6000807f3cab9a070a0c61cd0ae9d9e9e2c0781e5ca8691bec4087e5a4701d5ac018dd4e90508091505090565b6000807f2c89d74504b6ad8d4fbde22bc3474166bac5452a11195897f239d8bebe02d70790508091505090565b6000807f1b1c2350f60dba32e7a2436167ce3f8399cd1c51a95c8577f1448f53846d4cda90508091505090565b6000806115af61151d565b9050600081600301600086815260200190815260200160002090506000826003016000868152602001908152602001600020905060006115f386836003015461176b565b9050600061160588856003015461176b565b905083600e0154846005015461161b9190611eae565b82106116445760008560030160008a81526020019081526020016000206005018190555061168f565b83600e0154821061168e5783600e01548261165f9190611e7a565b8560030160008a815260200190815260200160002060050160008282546116869190611e7a565b925050819055505b5b82600e015483600501546116a39190611eae565b81106116cc57600085600301600089815260200190815260200160002060050181905550611717565b82600e015481106117165782600e0154816116e79190611e7a565b856003016000898152602001908152602001600020600501600082825461170e9190611e7a565b925050819055505b5b8460030160008981526020019081526020016000206005015485600301600089815260200190815260200160002060050154111561175c578695505050505050611765565b87955050505050505b92915050565b6000806064600961177c86866117b3565b611786919061238e565b6117909190611eae565b9050606481846117a09190612274565b6117aa9190611e49565b91505092915050565b6000424484846040516020016117cc94939291906123e0565b6040516020818303038152906040528051906020012060001c905092915050565b60405180610100016040528060008152602001600081526020016000815260200160008152602001600015158152602001600073ffffffffffffffffffffffffffffffffffffffff16815260200160608152602001606081525090565b6000604051905090565b600080fd5b600080fd5b6000819050919050565b6118718161185e565b811461187c57600080fd5b50565b60008135905061188e81611868565b92915050565b600080604083850312156118ab576118aa611854565b5b60006118b98582860161187f565b92505060206118ca8582860161187f565b9150509250929050565b6118dd8161185e565b82525050565b60006020820190506118f860008301846118d4565b92915050565b600073ffffffffffffffffffffffffffffffffffffffff82169050919050565b6000611929826118fe565b9050919050565b6119398161191e565b811461194457600080fd5b50565b60008135905061195681611930565b92915050565b60006020828403121561197257611971611854565b5b600061198084828501611947565b91505092915050565b60006020828403121561199f5761199e611854565b5b60006119ad8482850161187f565b91505092915050565b6119bf8161185e565b82525050565b60008115159050919050565b6119da816119c5565b82525050565b60006119eb826118fe565b9050919050565b6119fb816119e0565b82525050565b600081519050919050565b600082825260208201905092915050565b60005b83811015611a3b578082015181840152602081019050611a20565b60008484015250505050565b6000601f19601f8301169050919050565b6000611a6382611a01565b611a6d8185611a0c565b9350611a7d818560208601611a1d565b611a8681611a47565b840191505092915050565b600061010083016000830151611aaa60008601826119b6565b506020830151611abd60208601826119b6565b506040830151611ad060408601826119b6565b506060830151611ae360608601826119b6565b506080830151611af660808601826119d1565b5060a0830151611b0960a08601826119f2565b5060c083015184820360c0860152611b218282611a58565b91505060e083015184820360e0860152611b3b8282611a58565b9150508091505092915050565b60006020820190508181036000830152611b628184611a91565b905092915050565b600080fd5b600080fd5b7f4e487b7100000000000000000000000000000000000000000000000000000000600052604160045260246000fd5b611bac82611a47565b810181811067ffffffffffffffff82111715611bcb57611bca611b74565b5b80604052505050565b6000611bde61184a565b9050611bea8282611ba3565b919050565b600067ffffffffffffffff821115611c0a57611c09611b74565b5b611c1382611a47565b9050602081019050919050565b82818337600083830152505050565b6000611c42611c3d84611bef565b611bd4565b905082815260208101848484011115611c5e57611c5d611b6f565b5b611c69848285611c20565b509392505050565b600082601f830112611c8657611c85611b6a565b5b8135611c96848260208601611c2f565b91505092915050565b60008060008060808587031215611cb957611cb8611854565b5b6000611cc78782880161187f565b9450506020611cd88782880161187f565b935050604085013567ffffffffffffffff811115611cf957611cf8611859565b5b611d0587828801611c71565b925050606085013567ffffffffffffffff811115611d2657611d25611859565b5b611d3287828801611c71565b91505092959194509250565b6000604082019050611d5360008301856118d4565b8181036020830152611d658184611a91565b90509392505050565b600082825260208201905092915050565b7f6172656e61206973206e6f74206f70656e000000000000000000000000000000600082015250565b6000611db5601183611d6e565b9150611dc082611d7f565b602082019050919050565b60006020820190508181036000830152611de481611da8565b9050919050565b7f4e487b7100000000000000000000000000000000000000000000000000000000600052601260045260246000fd5b7f4e487b7100000000000000000000000000000000000000000000000000000000600052601160045260246000fd5b6000611e548261185e565b9150611e5f8361185e565b925082611e6f57611e6e611deb565b5b828204905092915050565b6000611e858261185e565b9150611e908361185e565b9250828203905081811115611ea857611ea7611e1a565b5b92915050565b6000611eb98261185e565b9150611ec48361185e565b9250828201905080821115611edc57611edb611e1a565b5b92915050565b7f62726f6b652061737320676f74206e6f206d6f6e657900000000000000000000600082015250565b6000611f18601683611d6e565b9150611f2382611ee2565b602082019050919050565b60006020820190508181036000830152611f4781611f0b565b9050919050565b7f4e487b7100000000000000000000000000000000000000000000000000000000600052602260045260246000fd5b60006002820490506001821680611f9557607f821691505b602082108103611fa857611fa7611f4e565b5b50919050565b6000611fb98261185e565b91507fffffffffffffffffffffffffffffffffffffffffffffffffffffffffffffffff8203611feb57611fea611e1a565b5b600182019050919050565b60008190508160005260206000209050919050565b60006020601f8301049050919050565b600082821b905092915050565b6000600883026120587fffffffffffffffffffffffffffffffffffffffffffffffffffffffffffffffff8261201b565b612062868361201b565b95508019841693508086168417925050509392505050565b6000819050919050565b600061209f61209a6120958461185e565b61207a565b61185e565b9050919050565b6000819050919050565b6120b983612084565b6120cd6120c5826120a6565b848454612028565b825550505050565b600090565b6120e26120d5565b6120ed8184846120b0565b505050565b5b81811015612111576121066000826120da565b6001810190506120f3565b5050565b601f8211156121565761212781611ff6565b6121308461200b565b8101602085101561213f578190505b61215361214b8561200b565b8301826120f2565b50505b505050565b600082821c905092915050565b60006121796000198460080261215b565b1980831691505092915050565b60006121928383612168565b9150826002028217905092915050565b6121ab82611a01565b67ffffffffffffffff8111156121c4576121c3611b74565b5b6121ce8254611f7d565b6121d9828285612115565b600060209050601f83116001811461220c57600084156121fa578287015190505b6122048582612186565b86555061226c565b601f19841661221a86611ff6565b60005b828110156122425784890151825560018201915060208501945060208101905061221d565b8683101561225f578489015161225b601f891682612168565b8355505b6001600288020188555050505b505050505050565b600061227f8261185e565b915061228a8361185e565b92508282026122988161185e565b915082820484148315176122af576122ae611e1a565b5b5092915050565b7f796f7520617265206e6f742074686520686f7374000000000000000000000000600082015250565b60006122ec601483611d6e565b91506122f7826122b6565b602082019050919050565b6000602082019050818103600083015261231b816122df565b9050919050565b7f796f7520617265206e6f7420696e20746865206172656e610000000000000000600082015250565b6000612358601883611d6e565b915061236382612322565b602082019050919050565b600060208201905081810360008301526123878161234b565b9050919050565b60006123998261185e565b91506123a48361185e565b9250826123b4576123b3611deb565b5b828206905092915050565b6000819050919050565b6123da6123d58261185e565b6123bf565b82525050565b60006123ec82876123c9565b6020820191506123fc82866123c9565b60208201915061240c82856123c9565b60208201915061241c82846123c9565b6020820191508190509594505050505056fea264697066735822122037ef668a9382cd94a28c048d760fd3cbcf3820f2f1680a80e5f1105493d5ecf164736f6c63430008120033","opcodes":"PUSH1 0x80 PUSH1 0x40 MSTORE CALLVALUE DUP1 ISZERO PUSH2 0x10 JUMPI PUSH1 0x0 DUP1 REVERT JUMPDEST POP PUSH2 0x2464 DUP1 PUSH2 0x20 PUSH1 0x0 CODECOPY PUSH1 0x0 RETURN INVALID PUSH1 0x80 PUSH1 0x40 MSTORE CALLVALUE DUP1 ISZERO PUSH2 0x10 JUMPI PUSH1 0x0 DUP1 REVERT JUMPDEST POP PUSH1 0x4 CALLDATASIZE LT PUSH2 0xB4 JUMPI PUSH1 0x0 CALLDATALOAD PUSH1 0xE0 SHR DUP1 PUSH4 0x59735ADC GT PUSH2 0x71 JUMPI DUP1 PUSH4 0x59735ADC EQ PUSH2 0x18D JUMPI DUP1 PUSH4 0xC7F3ADE5 EQ PUSH2 0x1A9 JUMPI DUP1 PUSH4 0xC8FE5C47 EQ PUSH2 0x1C5 JUMPI DUP1 PUSH4 0xCC8D469D EQ PUSH2 0x1E1 JUMPI DUP1 PUSH4 0xF2482513 EQ PUSH2 0x211 JUMPI DUP1 PUSH4 0xFB944FFC EQ PUSH2 0x22D JUMPI PUSH2 0xB4 JUMP JUMPDEST DUP1 PUSH4 0xB93942A EQ PUSH2 0xB9 JUMPI DUP1 PUSH4 0x2D2C17BE EQ PUSH2 0xD5 JUMPI DUP1 PUSH4 0x33F453AF EQ PUSH2 0xF3 JUMPI DUP1 PUSH4 0x3707CAF2 EQ PUSH2 0xFD JUMPI DUP1 PUSH4 0x4F7D08E5 EQ PUSH2 0x12D JUMPI DUP1 PUSH4 0x54E8A31A EQ PUSH2 0x15D JUMPI JUMPDEST PUSH1 0x0 DUP1 REVERT JUMPDEST PUSH2 0xD3 PUSH1 0x4 DUP1 CALLDATASIZE SUB DUP2 ADD SWAP1 PUSH2 0xCE SWAP2 SWAP1 PUSH2 0x1894 JUMP JUMPDEST PUSH2 0x25D JUMP JUMPDEST STOP JUMPDEST PUSH2 0xDD PUSH2 0x299 JUMP JUMPDEST PUSH1 0x40 MLOAD PUSH2 0xEA SWAP2 SWAP1 PUSH2 0x18E3 JUMP JUMPDEST PUSH1 0x40 MLOAD DUP1 SWAP2 SUB SWAP1 RETURN JUMPDEST PUSH2 0xFB PUSH2 0x2A8 JUMP JUMPDEST STOP JUMPDEST PUSH2 0x117 PUSH1 0x4 DUP1 CALLDATASIZE SUB DUP2 ADD SWAP1 PUSH2 0x112 SWAP2 SWAP1 PUSH2 0x195C JUMP JUMPDEST PUSH2 0x2B2 JUMP JUMPDEST PUSH1 0x40 MLOAD PUSH2 0x124 SWAP2 SWAP1 PUSH2 0x18E3 JUMP JUMPDEST PUSH1 0x40 MLOAD DUP1 SWAP2 SUB SWAP1 RETURN JUMPDEST PUSH2 0x147 PUSH1 0x4 DUP1 CALLDATASIZE SUB DUP2 ADD SWAP1 PUSH2 0x142 SWAP2 SWAP1 PUSH2 0x1989 JUMP JUMPDEST PUSH2 0x2C4 JUMP JUMPDEST PUSH1 0x40 MLOAD PUSH2 0x154 SWAP2 SWAP1 PUSH2 0x18E3 JUMP JUMPDEST PUSH1 0x40 MLOAD DUP1 SWAP2 SUB SWAP1 RETURN JUMPDEST PUSH2 0x177 PUSH1 0x4 DUP1 CALLDATASIZE SUB DUP2 ADD SWAP1 PUSH2 0x172 SWAP2 SWAP1 PUSH2 0x1989 JUMP JUMPDEST PUSH2 0x2D6 JUMP JUMPDEST PUSH1 0x40 MLOAD PUSH2 0x184 SWAP2 SWAP1 PUSH2 0x1B48 JUMP JUMPDEST PUSH1 0x40 MLOAD DUP1 SWAP2 SUB SWAP1 RETURN JUMPDEST PUSH2 0x1A7 PUSH1 0x4 DUP1 CALLDATASIZE SUB DUP2 ADD SWAP1 PUSH2 0x1A2 SWAP2 SWAP1 PUSH2 0x1C9F JUMP JUMPDEST PUSH2 0x2EE JUMP JUMPDEST STOP JUMPDEST PUSH2 0x1C3 PUSH1 0x4 DUP1 CALLDATASIZE SUB DUP2 ADD SWAP1 PUSH2 0x1BE SWAP2 SWAP1 PUSH2 0x1894 JUMP JUMPDEST PUSH2 0x3A0 JUMP JUMPDEST STOP JUMPDEST PUSH2 0x1DF PUSH1 0x4 DUP1 CALLDATASIZE SUB DUP2 ADD SWAP1 PUSH2 0x1DA SWAP2 SWAP1 PUSH2 0x1894 JUMP JUMPDEST PUSH2 0x417 JUMP JUMPDEST STOP JUMPDEST PUSH2 0x1FB PUSH1 0x4 DUP1 CALLDATASIZE SUB DUP2 ADD SWAP1 PUSH2 0x1F6 SWAP2 SWAP1 PUSH2 0x1894 JUMP JUMPDEST PUSH2 0x453 JUMP JUMPDEST PUSH1 0x40 MLOAD PUSH2 0x208 SWAP2 SWAP1 PUSH2 0x18E3 JUMP JUMPDEST PUSH1 0x40 MLOAD DUP1 SWAP2 SUB SWAP1 RETURN JUMPDEST PUSH2 0x22B PUSH1 0x4 DUP1 CALLDATASIZE SUB DUP2 ADD SWAP1 PUSH2 0x226 SWAP2 SWAP1 PUSH2 0x1C9F JUMP JUMPDEST PUSH2 0x467 JUMP JUMPDEST STOP JUMPDEST PUSH2 0x247 PUSH1 0x4 DUP1 CALLDATASIZE SUB DUP2 ADD SWAP1 PUSH2 0x242 SWAP2 SWAP1 PUSH2 0x1989 JUMP JUMPDEST PUSH2 0x519 JUMP JUMPDEST PUSH1 0x40 MLOAD PUSH2 0x254 SWAP2 SWAP1 PUSH2 0x18E3 JUMP JUMPDEST PUSH1 0x40 MLOAD DUP1 SWAP2 SUB SWAP1 RETURN JUMPDEST PUSH2 0x267 DUP3 DUP3 PUSH2 0x52B JUMP JUMPDEST DUP1 DUP3 PUSH32 0x429A014671400A39EAA0B16744A56044DF14E9B9124A3919F8425A0B471E25E9 PUSH1 0x40 MLOAD PUSH1 0x40 MLOAD DUP1 SWAP2 SUB SWAP1 LOG3 POP POP JUMP JUMPDEST PUSH1 0x0 PUSH2 0x2A3 PUSH2 0x8C9 JUMP JUMPDEST SWAP1 POP SWAP1 JUMP JUMPDEST PUSH2 0x2B0 PUSH2 0x8E1 JUMP JUMPDEST JUMP JUMPDEST PUSH1 0x0 PUSH2 0x2BD DUP3 PUSH2 0x949 JUMP JUMPDEST SWAP1 POP SWAP2 SWAP1 POP JUMP JUMPDEST PUSH1 0x0 PUSH2 0x2CF DUP3 PUSH2 0x9A0 JUMP JUMPDEST SWAP1 POP SWAP2 SWAP1 POP JUMP JUMPDEST PUSH2 0x2DE PUSH2 0x17ED JUMP JUMPDEST PUSH2 0x2E7 DUP3 PUSH2 0x9CB JUMP JUMPDEST SWAP1 POP SWAP2 SWAP1 POP JUMP JUMPDEST PUSH1 0x0 PUSH20 0x434D36F32ABED3F7937FE0BE88DC1B0EB9381244 SWAP1 POP DUP1 PUSH20 0xFFFFFFFFFFFFFFFFFFFFFFFFFFFFFFFFFFFFFFFF AND CALLER PUSH20 0xFFFFFFFFFFFFFFFFFFFFFFFFFFFFFFFFFFFFFFFF AND EQ PUSH2 0x33F JUMPI PUSH1 0x0 DUP1 REVERT JUMPDEST PUSH2 0x34B DUP6 DUP6 DUP6 DUP6 PUSH2 0xBC5 JUMP JUMPDEST PUSH1 0x0 PUSH2 0x355 PUSH2 0x8C9 JUMP JUMPDEST SWAP1 POP PUSH32 0xA8944F13C384569CD759DEA69A02C83263E937C72F585DE37FA46B4BB55B6B08 DUP2 PUSH2 0x382 DUP4 PUSH2 0x2D6 JUMP JUMPDEST PUSH1 0x40 MLOAD PUSH2 0x390 SWAP3 SWAP2 SWAP1 PUSH2 0x1D3E JUMP JUMPDEST PUSH1 0x40 MLOAD DUP1 SWAP2 SUB SWAP1 LOG1 POP POP POP POP POP POP JUMP JUMPDEST PUSH1 0x0 DUP1 PUSH2 0x3AD DUP5 DUP5 PUSH2 0xD21 JUMP JUMPDEST DUP1 SWAP3 POP DUP2 SWAP4 POP POP POP DUP3 DUP3 PUSH32 0xE5783C40C14D69971FBF9D435486B3A0469A026E4CACBD5E543C18DDD293ECA5 PUSH1 0x40 MLOAD PUSH1 0x40 MLOAD DUP1 SWAP2 SUB SWAP1 LOG3 DUP3 DUP2 PUSH32 0xF07FE1BC469A482805EC42D00E7477D9BACBD901AEDAC046EA74D6A10CE2B04A PUSH1 0x40 MLOAD PUSH1 0x40 MLOAD DUP1 SWAP2 SUB SWAP1 LOG3 POP POP POP POP JUMP JUMPDEST PUSH2 0x421 DUP3 DUP3 PUSH2 0x128B JUMP JUMPDEST DUP1 DUP3 PUSH32 0xF4DEBD39ACD9B010E1276185A3F67B145758748B94E0145CE176C42AE6D27A4F PUSH1 0x40 MLOAD PUSH1 0x40 MLOAD DUP1 SWAP2 SUB SWAP1 LOG3 POP POP JUMP JUMPDEST PUSH1 0x0 PUSH2 0x45F DUP4 DUP4 PUSH2 0x14B5 JUMP JUMPDEST SWAP1 POP SWAP3 SWAP2 POP POP JUMP JUMPDEST PUSH1 0x0 PUSH20 0x434D36F32ABED3F7937FE0BE88DC1B0EB9381244 SWAP1 POP DUP1 PUSH20 0xFFFFFFFFFFFFFFFFFFFFFFFFFFFFFFFFFFFFFFFF AND CALLER PUSH20 0xFFFFFFFFFFFFFFFFFFFFFFFFFFFFFFFFFFFFFFFF AND EQ PUSH2 0x4B8 JUMPI PUSH1 0x0 DUP1 REVERT JUMPDEST PUSH2 0x4C4 DUP6 DUP6 DUP6 DUP6 PUSH2 0xBC5 JUMP JUMPDEST PUSH1 0x0 PUSH2 0x4CE PUSH2 0x8C9 JUMP JUMPDEST SWAP1 POP PUSH32 0xA8944F13C384569CD759DEA69A02C83263E937C72F585DE37FA46B4BB55B6B08 DUP2 PUSH2 0x4FB DUP4 PUSH2 0x2D6 JUMP JUMPDEST PUSH1 0x40 MLOAD PUSH2 0x509 SWAP3 SWAP2 SWAP1 PUSH2 0x1D3E JUMP JUMPDEST PUSH1 0x40 MLOAD DUP1 SWAP2 SUB SWAP1 LOG1 POP POP POP POP POP POP JUMP JUMPDEST PUSH1 0x0 PUSH2 0x524 DUP3 PUSH2 0x14F2 JUMP JUMPDEST SWAP1 POP SWAP2 SWAP1 POP JUMP JUMPDEST PUSH1 0x0 PUSH2 0x535 PUSH2 0x151D JUMP JUMPDEST SWAP1 POP PUSH1 0x0 PUSH2 0x541 PUSH2 0x154A JUMP JUMPDEST SWAP1 POP PUSH1 0x0 PUSH2 0x54D PUSH2 0x1577 JUMP JUMPDEST SWAP1 POP PUSH1 0x0 DUP4 PUSH1 0x3 ADD PUSH1 0x0 DUP8 DUP2 MSTORE PUSH1 0x20 ADD SWAP1 DUP2 MSTORE PUSH1 0x20 ADD PUSH1 0x0 KECCAK256 PUSH1 0x2 ADD SLOAD EQ PUSH2 0x574 JUMPI PUSH1 0x0 DUP1 REVERT JUMPDEST CALLER PUSH20 0xFFFFFFFFFFFFFFFFFFFFFFFFFFFFFFFFFFFFFFFF AND DUP4 PUSH1 0x2 ADD PUSH1 0x0 DUP8 DUP2 MSTORE PUSH1 0x20 ADD SWAP1 DUP2 MSTORE PUSH1 0x20 ADD PUSH1 0x0 KECCAK256 PUSH1 0x0 SWAP1 SLOAD SWAP1 PUSH2 0x100 EXP SWAP1 DIV PUSH20 0xFFFFFFFFFFFFFFFFFFFFFFFFFFFFFFFFFFFFFFFF AND PUSH20 0xFFFFFFFFFFFFFFFFFFFFFFFFFFFFFFFFFFFFFFFF AND EQ PUSH2 0x5E1 JUMPI PUSH1 0x0 DUP1 REVERT JUMPDEST PUSH1 0x0 DUP2 PUSH1 0x1 ADD PUSH1 0x0 DUP7 DUP2 MSTORE PUSH1 0x20 ADD SWAP1 DUP2 MSTORE PUSH1 0x20 ADD PUSH1 0x0 KECCAK256 SWAP1 POP DUP1 PUSH1 0x4 ADD PUSH1 0x0 SWAP1 SLOAD SWAP1 PUSH2 0x100 EXP SWAP1 DIV PUSH1 0xFF AND PUSH2 0x64B JUMPI PUSH1 0x40 MLOAD PUSH32 0x8C379A000000000000000000000000000000000000000000000000000000000 DUP2 MSTORE PUSH1 0x4 ADD PUSH2 0x642 SWAP1 PUSH2 0x1DCB JUMP JUMPDEST PUSH1 0x40 MLOAD DUP1 SWAP2 SUB SWAP1 REVERT JUMPDEST PUSH1 0x0 PUSH1 0x2 DUP3 PUSH1 0x2 ADD SLOAD PUSH2 0x65E SWAP2 SWAP1 PUSH2 0x1E49 JUMP JUMPDEST DUP6 PUSH1 0x3 ADD PUSH1 0x0 DUP10 DUP2 MSTORE PUSH1 0x20 ADD SWAP1 DUP2 MSTORE PUSH1 0x20 ADD PUSH1 0x0 KECCAK256 PUSH1 0x9 ADD SLOAD LT ISZERO PUSH2 0x6C5 JUMPI PUSH1 0xA DUP6 PUSH1 0x3 ADD PUSH1 0x0 DUP10 DUP2 MSTORE PUSH1 0x20 ADD SWAP1 DUP2 MSTORE PUSH1 0x20 ADD PUSH1 0x0 KECCAK256 PUSH1 0x9 ADD SLOAD PUSH1 0x2 DUP5 PUSH1 0x2 ADD SLOAD PUSH2 0x6A9 SWAP2 SWAP1 PUSH2 0x1E49 JUMP JUMPDEST PUSH2 0x6B3 SWAP2 SWAP1 PUSH2 0x1E7A JUMP JUMPDEST PUSH2 0x6BD SWAP2 SWAP1 PUSH2 0x1EAE JUMP JUMPDEST SWAP1 POP DUP1 PUSH2 0x6DA JUMP JUMPDEST PUSH1 0x2 DUP3 PUSH1 0x2 ADD SLOAD PUSH2 0x6D6 SWAP2 SWAP1 PUSH2 0x1E49 JUMP JUMPDEST SWAP1 POP DUP1 JUMPDEST POP DUP1 DUP4 PUSH1 0x2 ADD PUSH1 0x0 DUP9 DUP2 MSTORE PUSH1 0x20 ADD SWAP1 DUP2 MSTORE PUSH1 0x20 ADD PUSH1 0x0 KECCAK256 PUSH1 0x0 DUP10 DUP2 MSTORE PUSH1 0x20 ADD SWAP1 DUP2 MSTORE PUSH1 0x20 ADD PUSH1 0x0 KECCAK256 SLOAD PUSH2 0x70D SWAP2 SWAP1 PUSH2 0x1EAE JUMP JUMPDEST TIMESTAMP LT ISZERO PUSH2 0x719 JUMPI PUSH1 0x0 DUP1 REVERT JUMPDEST DUP2 PUSH1 0x1 ADD SLOAD DUP5 PUSH1 0x1 ADD PUSH1 0x0 CALLER PUSH20 0xFFFFFFFFFFFFFFFFFFFFFFFFFFFFFFFFFFFFFFFF AND PUSH20 0xFFFFFFFFFFFFFFFFFFFFFFFFFFFFFFFFFFFFFFFF AND DUP2 MSTORE PUSH1 0x20 ADD SWAP1 DUP2 MSTORE PUSH1 0x20 ADD PUSH1 0x0 KECCAK256 SLOAD LT ISZERO PUSH2 0x7A1 JUMPI PUSH1 0x40 MLOAD PUSH32 0x8C379A000000000000000000000000000000000000000000000000000000000 DUP2 MSTORE PUSH1 0x4 ADD PUSH2 0x798 SWAP1 PUSH2 0x1F2E JUMP JUMPDEST PUSH1 0x40 MLOAD DUP1 SWAP2 SUB SWAP1 REVERT JUMPDEST DUP2 PUSH1 0x1 ADD SLOAD DUP5 PUSH1 0x1 ADD PUSH1 0x0 CALLER PUSH20 0xFFFFFFFFFFFFFFFFFFFFFFFFFFFFFFFFFFFFFFFF AND PUSH20 0xFFFFFFFFFFFFFFFFFFFFFFFFFFFFFFFFFFFFFFFF AND DUP2 MSTORE PUSH1 0x20 ADD SWAP1 DUP2 MSTORE PUSH1 0x20 ADD PUSH1 0x0 KECCAK256 PUSH1 0x0 DUP3 DUP3 SLOAD PUSH2 0x7F6 SWAP2 SWAP1 PUSH2 0x1E7A JUMP JUMPDEST SWAP3 POP POP DUP2 SWAP1 SSTORE POP PUSH1 0x4 DUP6 PUSH1 0x3 ADD PUSH1 0x0 DUP10 DUP2 MSTORE PUSH1 0x20 ADD SWAP1 DUP2 MSTORE PUSH1 0x20 ADD PUSH1 0x0 KECCAK256 PUSH1 0x2 ADD DUP2 SWAP1 SSTORE POP PUSH1 0x0 DUP4 PUSH1 0x1 ADD PUSH1 0x0 DUP9 DUP2 MSTORE PUSH1 0x20 ADD SWAP1 DUP2 MSTORE PUSH1 0x20 ADD PUSH1 0x0 KECCAK256 PUSH1 0x4 ADD PUSH1 0x0 PUSH2 0x100 EXP DUP2 SLOAD DUP2 PUSH1 0xFF MUL NOT AND SWAP1 DUP4 ISZERO ISZERO MUL OR SWAP1 SSTORE POP DUP7 DUP4 PUSH1 0x1 ADD PUSH1 0x0 DUP9 DUP2 MSTORE PUSH1 0x20 ADD SWAP1 DUP2 MSTORE PUSH1 0x20 ADD PUSH1 0x0 KECCAK256 PUSH1 0x3 ADD DUP2 SWAP1 SSTORE POP CALLER DUP4 PUSH1 0x1 ADD PUSH1 0x0 DUP9 DUP2 MSTORE PUSH1 0x20 ADD SWAP1 DUP2 MSTORE PUSH1 0x20 ADD PUSH1 0x0 KECCAK256 PUSH1 0x4 ADD PUSH1 0x1 PUSH2 0x100 EXP DUP2 SLOAD DUP2 PUSH20 0xFFFFFFFFFFFFFFFFFFFFFFFFFFFFFFFFFFFFFFFF MUL NOT AND SWAP1 DUP4 PUSH20 0xFFFFFFFFFFFFFFFFFFFFFFFFFFFFFFFFFFFFFFFF AND MUL OR SWAP1 SSTORE POP POP POP POP POP POP POP POP JUMP JUMPDEST PUSH1 0x0 DUP1 PUSH2 0x8D4 PUSH2 0x1577 JUMP JUMPDEST SWAP1 POP DUP1 PUSH1 0x0 ADD SLOAD SWAP2 POP POP SWAP1 JUMP JUMPDEST PUSH1 0x0 PUSH2 0x8EB PUSH2 0x154A JUMP JUMPDEST SWAP1 POP PUSH1 0x64 DUP2 PUSH1 0x1 ADD PUSH1 0x0 CALLER PUSH20 0xFFFFFFFFFFFFFFFFFFFFFFFFFFFFFFFFFFFFFFFF AND PUSH20 0xFFFFFFFFFFFFFFFFFFFFFFFFFFFFFFFFFFFFFFFF AND DUP2 MSTORE PUSH1 0x20 ADD SWAP1 DUP2 MSTORE PUSH1 0x20 ADD PUSH1 0x0 KECCAK256 PUSH1 0x0 DUP3 DUP3 SLOAD PUSH2 0x93F SWAP2 SWAP1 PUSH2 0x1EAE JUMP JUMPDEST SWAP3 POP POP DUP2 SWAP1 SSTORE POP POP JUMP JUMPDEST PUSH1 0x0 DUP1 PUSH2 0x954 PUSH2 0x154A JUMP JUMPDEST SWAP1 POP DUP1 PUSH1 0x1 ADD PUSH1 0x0 DUP5 PUSH20 0xFFFFFFFFFFFFFFFFFFFFFFFFFFFFFFFFFFFFFFFF AND PUSH20 0xFFFFFFFFFFFFFFFFFFFFFFFFFFFFFFFFFFFFFFFF AND DUP2 MSTORE PUSH1 0x20 ADD SWAP1 DUP2 MSTORE PUSH1 0x20 ADD PUSH1 0x0 KECCAK256 SLOAD SWAP2 POP POP SWAP2 SWAP1 POP JUMP JUMPDEST PUSH1 0x0 DUP1 PUSH2 0x9AB PUSH2 0x1577 JUMP JUMPDEST SWAP1 POP DUP1 PUSH1 0xA ADD PUSH1 0x0 DUP5 DUP2 MSTORE PUSH1 0x20 ADD SWAP1 DUP2 MSTORE PUSH1 0x20 ADD PUSH1 0x0 KECCAK256 SLOAD SWAP2 POP POP SWAP2 SWAP1 POP JUMP JUMPDEST PUSH2 0x9D3 PUSH2 0x17ED JUMP JUMPDEST PUSH1 0x0 PUSH2 0x9DD PUSH2 0x1577 JUMP JUMPDEST SWAP1 POP DUP1 PUSH1 0x1 ADD PUSH1 0x0 DUP5 DUP2 MSTORE PUSH1 0x20 ADD SWAP1 DUP2 MSTORE PUSH1 0x20 ADD PUSH1 0x0 KECCAK256 PUSH1 0x40 MLOAD DUP1 PUSH2 0x100 ADD PUSH1 0x40 MSTORE SWAP1 DUP2 PUSH1 0x0 DUP3 ADD SLOAD DUP2 MSTORE PUSH1 0x20 ADD PUSH1 0x1 DUP3 ADD SLOAD DUP2 MSTORE PUSH1 0x20 ADD PUSH1 0x2 DUP3 ADD SLOAD DUP2 MSTORE PUSH1 0x20 ADD PUSH1 0x3 DUP3 ADD SLOAD DUP2 MSTORE PUSH1 0x20 ADD PUSH1 0x4 DUP3 ADD PUSH1 0x0 SWAP1 SLOAD SWAP1 PUSH2 0x100 EXP SWAP1 DIV PUSH1 0xFF AND ISZERO ISZERO ISZERO ISZERO DUP2 MSTORE PUSH1 0x20 ADD PUSH1 0x4 DUP3 ADD PUSH1 0x1 SWAP1 SLOAD SWAP1 PUSH2 0x100 EXP SWAP1 DIV PUSH20 0xFFFFFFFFFFFFFFFFFFFFFFFFFFFFFFFFFFFFFFFF AND PUSH20 0xFFFFFFFFFFFFFFFFFFFFFFFFFFFFFFFFFFFFFFFF AND PUSH20 0xFFFFFFFFFFFFFFFFFFFFFFFFFFFFFFFFFFFFFFFF AND DUP2 MSTORE PUSH1 0x20 ADD PUSH1 0x5 DUP3 ADD DUP1 SLOAD PUSH2 0xAA9 SWAP1 PUSH2 0x1F7D JUMP JUMPDEST DUP1 PUSH1 0x1F ADD PUSH1 0x20 DUP1 SWAP2 DIV MUL PUSH1 0x20 ADD PUSH1 0x40 MLOAD SWAP1 DUP2 ADD PUSH1 0x40 MSTORE DUP1 SWAP3 SWAP2 SWAP1 DUP2 DUP2 MSTORE PUSH1 0x20 ADD DUP3 DUP1 SLOAD PUSH2 0xAD5 SWAP1 PUSH2 0x1F7D JUMP JUMPDEST DUP1 ISZERO PUSH2 0xB22 JUMPI DUP1 PUSH1 0x1F LT PUSH2 0xAF7 JUMPI PUSH2 0x100 DUP1 DUP4 SLOAD DIV MUL DUP4 MSTORE SWAP2 PUSH1 0x20 ADD SWAP2 PUSH2 0xB22 JUMP JUMPDEST DUP3 ADD SWAP2 SWAP1 PUSH1 0x0 MSTORE PUSH1 0x20 PUSH1 0x0 KECCAK256 SWAP1 JUMPDEST DUP2 SLOAD DUP2 MSTORE SWAP1 PUSH1 0x1 ADD SWAP1 PUSH1 0x20 ADD DUP1 DUP4 GT PUSH2 0xB05 JUMPI DUP3 SWAP1 SUB PUSH1 0x1F AND DUP3 ADD SWAP2 JUMPDEST POP POP POP POP POP DUP2 MSTORE PUSH1 0x20 ADD PUSH1 0x6 DUP3 ADD DUP1 SLOAD PUSH2 0xB3B SWAP1 PUSH2 0x1F7D JUMP JUMPDEST DUP1 PUSH1 0x1F ADD PUSH1 0x20 DUP1 SWAP2 DIV MUL PUSH1 0x20 ADD PUSH1 0x40 MLOAD SWAP1 DUP2 ADD PUSH1 0x40 MSTORE DUP1 SWAP3 SWAP2 SWAP1 DUP2 DUP2 MSTORE PUSH1 0x20 ADD DUP3 DUP1 SLOAD PUSH2 0xB67 SWAP1 PUSH2 0x1F7D JUMP JUMPDEST DUP1 ISZERO PUSH2 0xBB4 JUMPI DUP1 PUSH1 0x1F LT PUSH2 0xB89 JUMPI PUSH2 0x100 DUP1 DUP4 SLOAD DIV MUL DUP4 MSTORE SWAP2 PUSH1 0x20 ADD SWAP2 PUSH2 0xBB4 JUMP JUMPDEST DUP3 ADD SWAP2 SWAP1 PUSH1 0x0 MSTORE PUSH1 0x20 PUSH1 0x0 KECCAK256 SWAP1 JUMPDEST DUP2 SLOAD DUP2 MSTORE SWAP1 PUSH1 0x1 ADD SWAP1 PUSH1 0x20 ADD DUP1 DUP4 GT PUSH2 0xB97 JUMPI DUP3 SWAP1 SUB PUSH1 0x1F AND DUP3 ADD SWAP2 JUMPDEST POP POP POP POP POP DUP2 MSTORE POP POP SWAP2 POP POP SWAP2 SWAP1 POP JUMP JUMPDEST PUSH1 0x0 PUSH2 0xBCF PUSH2 0x1577 JUMP JUMPDEST SWAP1 POP DUP1 PUSH1 0x0 ADD PUSH1 0x0 DUP2 SLOAD DUP1 SWAP3 SWAP2 SWAP1 PUSH2 0xBE6 SWAP1 PUSH2 0x1FAE JUMP JUMPDEST SWAP2 SWAP1 POP SSTORE POP PUSH1 0x40 MLOAD DUP1 PUSH2 0x100 ADD PUSH1 0x40 MSTORE DUP1 DUP3 PUSH1 0x0 ADD SLOAD DUP2 MSTORE PUSH1 0x20 ADD DUP7 DUP2 MSTORE PUSH1 0x20 ADD DUP6 DUP2 MSTORE PUSH1 0x20 ADD PUSH1 0x0 DUP2 MSTORE PUSH1 0x20 ADD PUSH1 0x1 ISZERO ISZERO DUP2 MSTORE PUSH1 0x20 ADD CALLER PUSH20 0xFFFFFFFFFFFFFFFFFFFFFFFFFFFFFFFFFFFFFFFF AND DUP2 MSTORE PUSH1 0x20 ADD DUP5 DUP2 MSTORE PUSH1 0x20 ADD DUP4 DUP2 MSTORE POP DUP2 PUSH1 0x1 ADD PUSH1 0x0 DUP4 PUSH1 0x0 ADD SLOAD DUP2 MSTORE PUSH1 0x20 ADD SWAP1 DUP2 MSTORE PUSH1 0x20 ADD PUSH1 0x0 KECCAK256 PUSH1 0x0 DUP3 ADD MLOAD DUP2 PUSH1 0x0 ADD SSTORE PUSH1 0x20 DUP3 ADD MLOAD DUP2 PUSH1 0x1 ADD SSTORE PUSH1 0x40 DUP3 ADD MLOAD DUP2 PUSH1 0x2 ADD SSTORE PUSH1 0x60 DUP3 ADD MLOAD DUP2 PUSH1 0x3 ADD SSTORE PUSH1 0x80 DUP3 ADD MLOAD DUP2 PUSH1 0x4 ADD PUSH1 0x0 PUSH2 0x100 EXP DUP2 SLOAD DUP2 PUSH1 0xFF MUL NOT AND SWAP1 DUP4 ISZERO ISZERO MUL OR SWAP1 SSTORE POP PUSH1 0xA0 DUP3 ADD MLOAD DUP2 PUSH1 0x4 ADD PUSH1 0x1 PUSH2 0x100 EXP DUP2 SLOAD DUP2 PUSH20 0xFFFFFFFFFFFFFFFFFFFFFFFFFFFFFFFFFFFFFFFF MUL NOT AND SWAP1 DUP4 PUSH20 0xFFFFFFFFFFFFFFFFFFFFFFFFFFFFFFFFFFFFFFFF AND MUL OR SWAP1 SSTORE POP PUSH1 0xC0 DUP3 ADD MLOAD DUP2 PUSH1 0x5 ADD SWAP1 DUP2 PUSH2 0xD00 SWAP2 SWAP1 PUSH2 0x21A2 JUMP JUMPDEST POP PUSH1 0xE0 DUP3 ADD MLOAD DUP2 PUSH1 0x6 ADD SWAP1 DUP2 PUSH2 0xD16 SWAP2 SWAP1 PUSH2 0x21A2 JUMP JUMPDEST POP SWAP1 POP POP POP POP POP POP POP JUMP JUMPDEST PUSH1 0x0 DUP1 PUSH1 0x0 PUSH2 0xD2E PUSH2 0x151D JUMP JUMPDEST SWAP1 POP PUSH1 0x0 PUSH2 0xD3A PUSH2 0x154A JUMP JUMPDEST SWAP1 POP PUSH1 0x0 PUSH2 0xD46 PUSH2 0x1577 JUMP JUMPDEST SWAP1 POP PUSH1 0x0 DUP4 PUSH1 0x3 ADD PUSH1 0x0 DUP10 DUP2 MSTORE PUSH1 0x20 ADD SWAP1 DUP2 MSTORE PUSH1 0x20 ADD PUSH1 0x0 KECCAK256 PUSH1 0x2 ADD SLOAD EQ PUSH2 0xD6D JUMPI PUSH1 0x0 DUP1 REVERT JUMPDEST CALLER PUSH20 0xFFFFFFFFFFFFFFFFFFFFFFFFFFFFFFFFFFFFFFFF AND DUP4 PUSH1 0x2 ADD PUSH1 0x0 DUP10 DUP2 MSTORE PUSH1 0x20 ADD SWAP1 DUP2 MSTORE PUSH1 0x20 ADD PUSH1 0x0 KECCAK256 PUSH1 0x0 SWAP1 SLOAD SWAP1 PUSH2 0x100 EXP SWAP1 DIV PUSH20 0xFFFFFFFFFFFFFFFFFFFFFFFFFFFFFFFFFFFFFFFF AND PUSH20 0xFFFFFFFFFFFFFFFFFFFFFFFFFFFFFFFFFFFFFFFF AND EQ PUSH2 0xDDA JUMPI PUSH1 0x0 DUP1 REVERT JUMPDEST PUSH1 0x0 DUP2 PUSH1 0x1 ADD PUSH1 0x0 DUP9 DUP2 MSTORE PUSH1 0x20 ADD SWAP1 DUP2 MSTORE PUSH1 0x20 ADD PUSH1 0x0 KECCAK256 SWAP1 POP DUP1 PUSH1 0x4 ADD PUSH1 0x0 SWAP1 SLOAD SWAP1 PUSH2 0x100 EXP SWAP1 DIV PUSH1 0xFF AND ISZERO PUSH2 0xE45 JUMPI PUSH1 0x40 MLOAD PUSH32 0x8C379A000000000000000000000000000000000000000000000000000000000 DUP2 MSTORE PUSH1 0x4 ADD PUSH2 0xE3C SWAP1 PUSH2 0x1DCB JUMP JUMPDEST PUSH1 0x40 MLOAD DUP1 SWAP2 SUB SWAP1 REVERT JUMPDEST PUSH1 0x0 PUSH1 0x2 DUP3 PUSH1 0x2 ADD SLOAD PUSH2 0xE58 SWAP2 SWAP1 PUSH2 0x1E49 JUMP JUMPDEST DUP6 PUSH1 0x3 ADD PUSH1 0x0 DUP12 DUP2 MSTORE PUSH1 0x20 ADD SWAP1 DUP2 MSTORE PUSH1 0x20 ADD PUSH1 0x0 KECCAK256 PUSH1 0x9 ADD SLOAD LT ISZERO PUSH2 0xEBF JUMPI PUSH1 0xA DUP6 PUSH1 0x3 ADD PUSH1 0x0 DUP12 DUP2 MSTORE PUSH1 0x20 ADD SWAP1 DUP2 MSTORE PUSH1 0x20 ADD PUSH1 0x0 KECCAK256 PUSH1 0x9 ADD SLOAD PUSH1 0x2 DUP5 PUSH1 0x2 ADD SLOAD PUSH2 0xEA3 SWAP2 SWAP1 PUSH2 0x1E49 JUMP JUMPDEST PUSH2 0xEAD SWAP2 SWAP1 PUSH2 0x1E7A JUMP JUMPDEST PUSH2 0xEB7 SWAP2 SWAP1 PUSH2 0x1EAE JUMP JUMPDEST SWAP1 POP DUP1 PUSH2 0xED4 JUMP JUMPDEST PUSH1 0x2 DUP3 PUSH1 0x2 ADD SLOAD PUSH2 0xED0 SWAP2 SWAP1 PUSH2 0x1E49 JUMP JUMPDEST SWAP1 POP DUP1 JUMPDEST POP DUP1 DUP4 PUSH1 0x2 ADD PUSH1 0x0 DUP11 DUP2 MSTORE PUSH1 0x20 ADD SWAP1 DUP2 MSTORE PUSH1 0x20 ADD PUSH1 0x0 KECCAK256 PUSH1 0x0 DUP12 DUP2 MSTORE PUSH1 0x20 ADD SWAP1 DUP2 MSTORE PUSH1 0x20 ADD PUSH1 0x0 KECCAK256 SLOAD PUSH2 0xF07 SWAP2 SWAP1 PUSH2 0x1EAE JUMP JUMPDEST TIMESTAMP LT ISZERO PUSH2 0xF13 JUMPI PUSH1 0x0 DUP1 REVERT JUMPDEST DUP2 PUSH1 0x1 ADD SLOAD DUP5 PUSH1 0x1 ADD PUSH1 0x0 CALLER PUSH20 0xFFFFFFFFFFFFFFFFFFFFFFFFFFFFFFFFFFFFFFFF AND PUSH20 0xFFFFFFFFFFFFFFFFFFFFFFFFFFFFFFFFFFFFFFFF AND DUP2 MSTORE PUSH1 0x20 ADD SWAP1 DUP2 MSTORE PUSH1 0x20 ADD PUSH1 0x0 KECCAK256 SLOAD LT ISZERO PUSH2 0xF9B JUMPI PUSH1 0x40 MLOAD PUSH32 0x8C379A000000000000000000000000000000000000000000000000000000000 DUP2 MSTORE PUSH1 0x4 ADD PUSH2 0xF92 SWAP1 PUSH2 0x1F2E JUMP JUMPDEST PUSH1 0x40 MLOAD DUP1 SWAP2 SUB SWAP1 REVERT JUMPDEST PUSH1 0x0 PUSH2 0xFAB DUP4 PUSH1 0x3 ADD SLOAD DUP12 PUSH2 0x15A4 JUMP JUMPDEST SWAP1 POP PUSH1 0x0 DUP1 DUP12 DUP4 SUB PUSH2 0x107C JUMPI DUP12 SWAP2 POP DUP5 PUSH1 0x3 ADD SLOAD SWAP1 POP DUP6 PUSH1 0xA ADD PUSH1 0x0 DUP14 DUP2 MSTORE PUSH1 0x20 ADD SWAP1 DUP2 MSTORE PUSH1 0x20 ADD PUSH1 0x0 KECCAK256 PUSH1 0x0 DUP2 SLOAD DUP1 SWAP3 SWAP2 SWAP1 PUSH2 0xFE7 SWAP1 PUSH2 0x1FAE JUMP JUMPDEST SWAP2 SWAP1 POP SSTORE POP DUP6 PUSH1 0xB ADD PUSH1 0x0 DUP7 PUSH1 0x3 ADD SLOAD DUP2 MSTORE PUSH1 0x20 ADD SWAP1 DUP2 MSTORE PUSH1 0x20 ADD PUSH1 0x0 KECCAK256 PUSH1 0x0 DUP2 SLOAD DUP1 SWAP3 SWAP2 SWAP1 PUSH2 0x1016 SWAP1 PUSH2 0x1FAE JUMP JUMPDEST SWAP2 SWAP1 POP SSTORE POP DUP5 PUSH1 0x1 ADD SLOAD DUP8 PUSH1 0x1 ADD PUSH1 0x0 CALLER PUSH20 0xFFFFFFFFFFFFFFFFFFFFFFFFFFFFFFFFFFFFFFFF AND PUSH20 0xFFFFFFFFFFFFFFFFFFFFFFFFFFFFFFFFFFFFFFFF AND DUP2 MSTORE PUSH1 0x20 ADD SWAP1 DUP2 MSTORE PUSH1 0x20 ADD PUSH1 0x0 KECCAK256 PUSH1 0x0 DUP3 DUP3 SLOAD PUSH2 0x1070 SWAP2 SWAP1 PUSH2 0x1EAE JUMP JUMPDEST SWAP3 POP POP DUP2 SWAP1 SSTORE POP PUSH2 0x11C9 JUMP JUMPDEST DUP5 PUSH1 0x3 ADD SLOAD SWAP2 POP DUP12 SWAP1 POP DUP6 PUSH1 0xA ADD PUSH1 0x0 DUP7 PUSH1 0x3 ADD SLOAD DUP2 MSTORE PUSH1 0x20 ADD SWAP1 DUP2 MSTORE PUSH1 0x20 ADD PUSH1 0x0 KECCAK256 PUSH1 0x0 DUP2 SLOAD DUP1 SWAP3 SWAP2 SWAP1 PUSH2 0x10B0 SWAP1 PUSH2 0x1FAE JUMP JUMPDEST SWAP2 SWAP1 POP SSTORE POP DUP6 PUSH1 0xB ADD PUSH1 0x0 DUP14 DUP2 MSTORE PUSH1 0x20 ADD SWAP1 DUP2 MSTORE PUSH1 0x20 ADD PUSH1 0x0 KECCAK256 PUSH1 0x0 DUP2 SLOAD DUP1 SWAP3 SWAP2 SWAP1 PUSH2 0x10DB SWAP1 PUSH2 0x1FAE JUMP JUMPDEST SWAP2 SWAP1 POP SSTORE POP PUSH1 0x2 DUP6 PUSH1 0x1 ADD SLOAD PUSH2 0x10F1 SWAP2 SWAP1 PUSH2 0x2274 JUMP JUMPDEST DUP8 PUSH1 0x1 ADD PUSH1 0x0 DUP8 PUSH1 0x4 ADD PUSH1 0x1 SWAP1 SLOAD SWAP1 PUSH2 0x100 EXP SWAP1 DIV PUSH20 0xFFFFFFFFFFFFFFFFFFFFFFFFFFFFFFFFFFFFFFFF AND PUSH20 0xFFFFFFFFFFFFFFFFFFFFFFFFFFFFFFFFFFFFFFFF AND PUSH20 0xFFFFFFFFFFFFFFFFFFFFFFFFFFFFFFFFFFFFFFFF AND DUP2 MSTORE PUSH1 0x20 ADD SWAP1 DUP2 MSTORE PUSH1 0x20 ADD PUSH1 0x0 KECCAK256 PUSH1 0x0 DUP3 DUP3 SLOAD PUSH2 0x1165 SWAP2 SWAP1 PUSH2 0x1EAE JUMP JUMPDEST SWAP3 POP POP DUP2 SWAP1 SSTORE POP DUP5 PUSH1 0x1 ADD SLOAD DUP8 PUSH1 0x1 ADD PUSH1 0x0 CALLER PUSH20 0xFFFFFFFFFFFFFFFFFFFFFFFFFFFFFFFFFFFFFFFF AND PUSH20 0xFFFFFFFFFFFFFFFFFFFFFFFFFFFFFFFFFFFFFFFF AND DUP2 MSTORE PUSH1 0x20 ADD SWAP1 DUP2 MSTORE PUSH1 0x20 ADD PUSH1 0x0 KECCAK256 PUSH1 0x0 DUP3 DUP3 SLOAD PUSH2 0x11C1 SWAP2 SWAP1 PUSH2 0x1E7A JUMP JUMPDEST SWAP3 POP POP DUP2 SWAP1 SSTORE POP JUMPDEST TIMESTAMP DUP7 PUSH1 0x2 ADD PUSH1 0x0 DUP14 DUP2 MSTORE PUSH1 0x20 ADD SWAP1 DUP2 MSTORE PUSH1 0x20 ADD PUSH1 0x0 KECCAK256 PUSH1 0x0 DUP15 DUP2 MSTORE PUSH1 0x20 ADD SWAP1 DUP2 MSTORE PUSH1 0x20 ADD PUSH1 0x0 KECCAK256 DUP2 SWAP1 SSTORE POP TIMESTAMP DUP7 PUSH1 0x2 ADD PUSH1 0x0 DUP14 DUP2 MSTORE PUSH1 0x20 ADD SWAP1 DUP2 MSTORE PUSH1 0x20 ADD PUSH1 0x0 KECCAK256 PUSH1 0x0 DUP8 PUSH1 0x3 ADD SLOAD DUP2 MSTORE PUSH1 0x20 ADD SWAP1 DUP2 MSTORE PUSH1 0x20 ADD PUSH1 0x0 KECCAK256 DUP2 SWAP1 SSTORE POP PUSH1 0x1 DUP7 PUSH1 0x1 ADD PUSH1 0x0 DUP14 DUP2 MSTORE PUSH1 0x20 ADD SWAP1 DUP2 MSTORE PUSH1 0x20 ADD PUSH1 0x0 KECCAK256 PUSH1 0x4 ADD PUSH1 0x0 PUSH2 0x100 EXP DUP2 SLOAD DUP2 PUSH1 0xFF MUL NOT AND SWAP1 DUP4 ISZERO ISZERO MUL OR SWAP1 SSTORE POP PUSH1 0x0 DUP9 PUSH1 0x3 ADD PUSH1 0x0 DUP8 PUSH1 0x3 ADD SLOAD DUP2 MSTORE PUSH1 0x20 ADD SWAP1 DUP2 MSTORE PUSH1 0x20 ADD PUSH1 0x0 KECCAK256 PUSH1 0x2 ADD DUP2 SWAP1 SSTORE POP DUP2 DUP2 SWAP10 POP SWAP10 POP POP POP POP POP POP POP POP POP SWAP3 POP SWAP3 SWAP1 POP JUMP JUMPDEST PUSH1 0x0 PUSH2 0x1295 PUSH2 0x1577 JUMP JUMPDEST SWAP1 POP PUSH1 0x0 PUSH2 0x12A1 PUSH2 0x151D JUMP JUMPDEST SWAP1 POP PUSH1 0x0 PUSH2 0x12AD PUSH2 0x154A JUMP JUMPDEST SWAP1 POP DUP5 DUP4 PUSH1 0x1 ADD PUSH1 0x0 DUP7 DUP2 MSTORE PUSH1 0x20 ADD SWAP1 DUP2 MSTORE PUSH1 0x20 ADD PUSH1 0x0 KECCAK256 PUSH1 0x3 ADD SLOAD EQ PUSH2 0x1309 JUMPI PUSH1 0x40 MLOAD PUSH32 0x8C379A000000000000000000000000000000000000000000000000000000000 DUP2 MSTORE PUSH1 0x4 ADD PUSH2 0x1300 SWAP1 PUSH2 0x2302 JUMP JUMPDEST PUSH1 0x40 MLOAD DUP1 SWAP2 SUB SWAP1 REVERT JUMPDEST PUSH1 0x4 DUP3 PUSH1 0x3 ADD PUSH1 0x0 DUP8 DUP2 MSTORE PUSH1 0x20 ADD SWAP1 DUP2 MSTORE PUSH1 0x20 ADD PUSH1 0x0 KECCAK256 PUSH1 0x2 ADD SLOAD EQ PUSH2 0x1364 JUMPI PUSH1 0x40 MLOAD PUSH32 0x8C379A000000000000000000000000000000000000000000000000000000000 DUP2 MSTORE PUSH1 0x4 ADD PUSH2 0x135B SWAP1 PUSH2 0x236E JUMP JUMPDEST PUSH1 0x40 MLOAD DUP1 SWAP2 SUB SWAP1 REVERT JUMPDEST CALLER PUSH20 0xFFFFFFFFFFFFFFFFFFFFFFFFFFFFFFFFFFFFFFFF AND DUP3 PUSH1 0x2 ADD PUSH1 0x0 DUP8 DUP2 MSTORE PUSH1 0x20 ADD SWAP1 DUP2 MSTORE PUSH1 0x20 ADD PUSH1 0x0 KECCAK256 PUSH1 0x0 SWAP1 SLOAD SWAP1 PUSH2 0x100 EXP SWAP1 DIV PUSH20 0xFFFFFFFFFFFFFFFFFFFFFFFFFFFFFFFFFFFFFFFF AND PUSH20 0xFFFFFFFFFFFFFFFFFFFFFFFFFFFFFFFFFFFFFFFF AND EQ PUSH2 0x13D1 JUMPI PUSH1 0x0 DUP1 REVERT JUMPDEST PUSH1 0x0 DUP4 PUSH1 0x1 ADD PUSH1 0x0 DUP7 DUP2 MSTORE PUSH1 0x20 ADD SWAP1 DUP2 MSTORE PUSH1 0x20 ADD PUSH1 0x0 KECCAK256 PUSH1 0x3 ADD DUP2 SWAP1 SSTORE POP PUSH1 0x1 DUP4 PUSH1 0x1 ADD PUSH1 0x0 DUP7 DUP2 MSTORE PUSH1 0x20 ADD SWAP1 DUP2 MSTORE PUSH1 0x20 ADD PUSH1 0x0 KECCAK256 PUSH1 0x4 ADD PUSH1 0x0 PUSH2 0x100 EXP DUP2 SLOAD DUP2 PUSH1 0xFF MUL NOT AND SWAP1 DUP4 ISZERO ISZERO MUL OR SWAP1 SSTORE POP PUSH1 0x0 DUP3 PUSH1 0x3 ADD PUSH1 0x0 DUP8 DUP2 MSTORE PUSH1 0x20 ADD SWAP1 DUP2 MSTORE PUSH1 0x20 ADD PUSH1 0x0 KECCAK256 PUSH1 0x2 ADD DUP2 SWAP1 SSTORE POP DUP3 PUSH1 0x1 ADD PUSH1 0x0 DUP6 DUP2 MSTORE PUSH1 0x20 ADD SWAP1 DUP2 MSTORE PUSH1 0x20 ADD PUSH1 0x0 KECCAK256 PUSH1 0x1 ADD SLOAD DUP2 PUSH1 0x1 ADD PUSH1 0x0 CALLER PUSH20 0xFFFFFFFFFFFFFFFFFFFFFFFFFFFFFFFFFFFFFFFF AND PUSH20 0xFFFFFFFFFFFFFFFFFFFFFFFFFFFFFFFFFFFFFFFF AND DUP2 MSTORE PUSH1 0x20 ADD SWAP1 DUP2 MSTORE PUSH1 0x20 ADD PUSH1 0x0 KECCAK256 PUSH1 0x0 DUP3 DUP3 SLOAD PUSH2 0x14A7 SWAP2 SWAP1 PUSH2 0x1EAE JUMP JUMPDEST SWAP3 POP POP DUP2 SWAP1 SSTORE POP POP POP POP POP POP JUMP JUMPDEST PUSH1 0x0 DUP1 PUSH2 0x14C0 PUSH2 0x1577 JUMP JUMPDEST SWAP1 POP DUP1 PUSH1 0x2 ADD PUSH1 0x0 DUP5 DUP2 MSTORE PUSH1 0x20 ADD SWAP1 DUP2 MSTORE PUSH1 0x20 ADD PUSH1 0x0 KECCAK256 PUSH1 0x0 DUP6 DUP2 MSTORE PUSH1 0x20 ADD SWAP1 DUP2 MSTORE PUSH1 0x20 ADD PUSH1 0x0 KECCAK256 SLOAD SWAP2 POP POP SWAP3 SWAP2 POP POP JUMP JUMPDEST PUSH1 0x0 DUP1 PUSH2 0x14FD PUSH2 0x1577 JUMP JUMPDEST SWAP1 POP DUP1 PUSH1 0xB ADD PUSH1 0x0 DUP5 DUP2 MSTORE PUSH1 0x20 ADD SWAP1 DUP2 MSTORE PUSH1 0x20 ADD PUSH1 0x0 KECCAK256 SLOAD SWAP2 POP POP SWAP2 SWAP1 POP JUMP JUMPDEST PUSH1 0x0 DUP1 PUSH32 0x3CAB9A070A0C61CD0AE9D9E9E2C0781E5CA8691BEC4087E5A4701D5AC018DD4E SWAP1 POP DUP1 SWAP2 POP POP SWAP1 JUMP JUMPDEST PUSH1 0x0 DUP1 PUSH32 0x2C89D74504B6AD8D4FBDE22BC3474166BAC5452A11195897F239D8BEBE02D707 SWAP1 POP DUP1 SWAP2 POP POP SWAP1 JUMP JUMPDEST PUSH1 0x0 DUP1 PUSH32 0x1B1C2350F60DBA32E7A2436167CE3F8399CD1C51A95C8577F1448F53846D4CDA SWAP1 POP DUP1 SWAP2 POP POP SWAP1 JUMP JUMPDEST PUSH1 0x0 DUP1 PUSH2 0x15AF PUSH2 0x151D JUMP JUMPDEST SWAP1 POP PUSH1 0x0 DUP2 PUSH1 0x3 ADD PUSH1 0x0 DUP7 DUP2 MSTORE PUSH1 0x20 ADD SWAP1 DUP2 MSTORE PUSH1 0x20 ADD PUSH1 0x0 KECCAK256 SWAP1 POP PUSH1 0x0 DUP3 PUSH1 0x3 ADD PUSH1 0x0 DUP7 DUP2 MSTORE PUSH1 0x20 ADD SWAP1 DUP2 MSTORE PUSH1 0x20 ADD PUSH1 0x0 KECCAK256 SWAP1 POP PUSH1 0x0 PUSH2 0x15F3 DUP7 DUP4 PUSH1 0x3 ADD SLOAD PUSH2 0x176B JUMP JUMPDEST SWAP1 POP PUSH1 0x0 PUSH2 0x1605 DUP9 DUP6 PUSH1 0x3 ADD SLOAD PUSH2 0x176B JUMP JUMPDEST SWAP1 POP DUP4 PUSH1 0xE ADD SLOAD DUP5 PUSH1 0x5 ADD SLOAD PUSH2 0x161B SWAP2 SWAP1 PUSH2 0x1EAE JUMP JUMPDEST DUP3 LT PUSH2 0x1644 JUMPI PUSH1 0x0 DUP6 PUSH1 0x3 ADD PUSH1 0x0 DUP11 DUP2 MSTORE PUSH1 0x20 ADD SWAP1 DUP2 MSTORE PUSH1 0x20 ADD PUSH1 0x0 KECCAK256 PUSH1 0x5 ADD DUP2 SWAP1 SSTORE POP PUSH2 0x168F JUMP JUMPDEST DUP4 PUSH1 0xE ADD SLOAD DUP3 LT PUSH2 0x168E JUMPI DUP4 PUSH1 0xE ADD SLOAD DUP3 PUSH2 0x165F SWAP2 SWAP1 PUSH2 0x1E7A JUMP JUMPDEST DUP6 PUSH1 0x3 ADD PUSH1 0x0 DUP11 DUP2 MSTORE PUSH1 0x20 ADD SWAP1 DUP2 MSTORE PUSH1 0x20 ADD PUSH1 0x0 KECCAK256 PUSH1 0x5 ADD PUSH1 0x0 DUP3 DUP3 SLOAD PUSH2 0x1686 SWAP2 SWAP1 PUSH2 0x1E7A JUMP JUMPDEST SWAP3 POP POP DUP2 SWAP1 SSTORE POP JUMPDEST JUMPDEST DUP3 PUSH1 0xE ADD SLOAD DUP4 PUSH1 0x5 ADD SLOAD PUSH2 0x16A3 SWAP2 SWAP1 PUSH2 0x1EAE JUMP JUMPDEST DUP2 LT PUSH2 0x16CC JUMPI PUSH1 0x0 DUP6 PUSH1 0x3 ADD PUSH1 0x0 DUP10 DUP2 MSTORE PUSH1 0x20 ADD SWAP1 DUP2 MSTORE PUSH1 0x20 ADD PUSH1 0x0 KECCAK256 PUSH1 0x5 ADD DUP2 SWAP1 SSTORE POP PUSH2 0x1717 JUMP JUMPDEST DUP3 PUSH1 0xE ADD SLOAD DUP2 LT PUSH2 0x1716 JUMPI DUP3 PUSH1 0xE ADD SLOAD DUP2 PUSH2 0x16E7 SWAP2 SWAP1 PUSH2 0x1E7A JUMP JUMPDEST DUP6 PUSH1 0x3 ADD PUSH1 0x0 DUP10 DUP2 MSTORE PUSH1 0x20 ADD SWAP1 DUP2 MSTORE PUSH1 0x20 ADD PUSH1 0x0 KECCAK256 PUSH1 0x5 ADD PUSH1 0x0 DUP3 DUP3 SLOAD PUSH2 0x170E SWAP2 SWAP1 PUSH2 0x1E7A JUMP JUMPDEST SWAP3 POP POP DUP2 SWAP1 SSTORE POP JUMPDEST JUMPDEST DUP5 PUSH1 0x3 ADD PUSH1 0x0 DUP10 DUP2 MSTORE PUSH1 0x20 ADD SWAP1 DUP2 MSTORE PUSH1 0x20 ADD PUSH1 0x0 KECCAK256 PUSH1 0x5 ADD SLOAD DUP6 PUSH1 0x3 ADD PUSH1 0x0 DUP10 DUP2 MSTORE PUSH1 0x20 ADD SWAP1 DUP2 MSTORE PUSH1 0x20 ADD PUSH1 0x0 KECCAK256 PUSH1 0x5 ADD SLOAD GT ISZERO PUSH2 0x175C JUMPI DUP7 SWAP6 POP POP POP POP POP POP PUSH2 0x1765 JUMP JUMPDEST DUP8 SWAP6 POP POP POP POP POP POP JUMPDEST SWAP3 SWAP2 POP POP JUMP JUMPDEST PUSH1 0x0 DUP1 PUSH1 0x64 PUSH1 0x9 PUSH2 0x177C DUP7 DUP7 PUSH2 0x17B3 JUMP JUMPDEST PUSH2 0x1786 SWAP2 SWAP1 PUSH2 0x238E JUMP JUMPDEST PUSH2 0x1790 SWAP2 SWAP1 PUSH2 0x1EAE JUMP JUMPDEST SWAP1 POP PUSH1 0x64 DUP2 DUP5 PUSH2 0x17A0 SWAP2 SWAP1 PUSH2 0x2274 JUMP JUMPDEST PUSH2 0x17AA SWAP2 SWAP1 PUSH2 0x1E49 JUMP JUMPDEST SWAP2 POP POP SWAP3 SWAP2 POP POP JUMP JUMPDEST PUSH1 0x0 TIMESTAMP PREVRANDAO DUP5 DUP5 PUSH1 0x40 MLOAD PUSH1 0x20 ADD PUSH2 0x17CC SWAP5 SWAP4 SWAP3 SWAP2 SWAP1 PUSH2 0x23E0 JUMP JUMPDEST PUSH1 0x40 MLOAD PUSH1 0x20 DUP2 DUP4 SUB SUB DUP2 MSTORE SWAP1 PUSH1 0x40 MSTORE DUP1 MLOAD SWAP1 PUSH1 0x20 ADD KECCAK256 PUSH1 0x0 SHR SWAP1 POP SWAP3 SWAP2 POP POP JUMP JUMPDEST PUSH1 0x40 MLOAD DUP1 PUSH2 0x100 ADD PUSH1 0x40 MSTORE DUP1 PUSH1 0x0 DUP2 MSTORE PUSH1 0x20 ADD PUSH1 0x0 DUP2 MSTORE PUSH1 0x20 ADD PUSH1 0x0 DUP2 MSTORE PUSH1 0x20 ADD PUSH1 0x0 DUP2 MSTORE PUSH1 0x20 ADD PUSH1 0x0 ISZERO ISZERO DUP2 MSTORE PUSH1 0x20 ADD PUSH1 0x0 PUSH20 0xFFFFFFFFFFFFFFFFFFFFFFFFFFFFFFFFFFFFFFFF AND DUP2 MSTORE PUSH1 0x20 ADD PUSH1 0x60 DUP2 MSTORE PUSH1 0x20 ADD PUSH1 0x60 DUP2 MSTORE POP SWAP1 JUMP JUMPDEST PUSH1 0x0 PUSH1 0x40 MLOAD SWAP1 POP SWAP1 JUMP JUMPDEST PUSH1 0x0 DUP1 REVERT JUMPDEST PUSH1 0x0 DUP1 REVERT JUMPDEST PUSH1 0x0 DUP2 SWAP1 POP SWAP2 SWAP1 POP JUMP JUMPDEST PUSH2 0x1871 DUP2 PUSH2 0x185E JUMP JUMPDEST DUP2 EQ PUSH2 0x187C JUMPI PUSH1 0x0 DUP1 REVERT JUMPDEST POP JUMP JUMPDEST PUSH1 0x0 DUP2 CALLDATALOAD SWAP1 POP PUSH2 0x188E DUP2 PUSH2 0x1868 JUMP JUMPDEST SWAP3 SWAP2 POP POP JUMP JUMPDEST PUSH1 0x0 DUP1 PUSH1 0x40 DUP4 DUP6 SUB SLT ISZERO PUSH2 0x18AB JUMPI PUSH2 0x18AA PUSH2 0x1854 JUMP JUMPDEST JUMPDEST PUSH1 0x0 PUSH2 0x18B9 DUP6 DUP3 DUP7 ADD PUSH2 0x187F JUMP JUMPDEST SWAP3 POP POP PUSH1 0x20 PUSH2 0x18CA DUP6 DUP3 DUP7 ADD PUSH2 0x187F JUMP JUMPDEST SWAP2 POP POP SWAP3 POP SWAP3 SWAP1 POP JUMP JUMPDEST PUSH2 0x18DD DUP2 PUSH2 0x185E JUMP JUMPDEST DUP3 MSTORE POP POP JUMP JUMPDEST PUSH1 0x0 PUSH1 0x20 DUP3 ADD SWAP1 POP PUSH2 0x18F8 PUSH1 0x0 DUP4 ADD DUP5 PUSH2 0x18D4 JUMP JUMPDEST SWAP3 SWAP2 POP POP JUMP JUMPDEST PUSH1 0x0 PUSH20 0xFFFFFFFFFFFFFFFFFFFFFFFFFFFFFFFFFFFFFFFF DUP3 AND SWAP1 POP SWAP2 SWAP1 POP JUMP JUMPDEST PUSH1 0x0 PUSH2 0x1929 DUP3 PUSH2 0x18FE JUMP JUMPDEST SWAP1 POP SWAP2 SWAP1 POP JUMP JUMPDEST PUSH2 0x1939 DUP2 PUSH2 0x191E JUMP JUMPDEST DUP2 EQ PUSH2 0x1944 JUMPI PUSH1 0x0 DUP1 REVERT JUMPDEST POP JUMP JUMPDEST PUSH1 0x0 DUP2 CALLDATALOAD SWAP1 POP PUSH2 0x1956 DUP2 PUSH2 0x1930 JUMP JUMPDEST SWAP3 SWAP2 POP POP JUMP JUMPDEST PUSH1 0x0 PUSH1 0x20 DUP3 DUP5 SUB SLT ISZERO PUSH2 0x1972 JUMPI PUSH2 0x1971 PUSH2 0x1854 JUMP JUMPDEST JUMPDEST PUSH1 0x0 PUSH2 0x1980 DUP5 DUP3 DUP6 ADD PUSH2 0x1947 JUMP JUMPDEST SWAP2 POP POP SWAP3 SWAP2 POP POP JUMP JUMPDEST PUSH1 0x0 PUSH1 0x20 DUP3 DUP5 SUB SLT ISZERO PUSH2 0x199F JUMPI PUSH2 0x199E PUSH2 0x1854 JUMP JUMPDEST JUMPDEST PUSH1 0x0 PUSH2 0x19AD DUP5 DUP3 DUP6 ADD PUSH2 0x187F JUMP JUMPDEST SWAP2 POP POP SWAP3 SWAP2 POP POP JUMP JUMPDEST PUSH2 0x19BF DUP2 PUSH2 0x185E JUMP JUMPDEST DUP3 MSTORE POP POP JUMP JUMPDEST PUSH1 0x0 DUP2 ISZERO ISZERO SWAP1 POP SWAP2 SWAP1 POP JUMP JUMPDEST PUSH2 0x19DA DUP2 PUSH2 0x19C5 JUMP JUMPDEST DUP3 MSTORE POP POP JUMP JUMPDEST PUSH1 0x0 PUSH2 0x19EB DUP3 PUSH2 0x18FE JUMP JUMPDEST SWAP1 POP SWAP2 SWAP1 POP JUMP JUMPDEST PUSH2 0x19FB DUP2 PUSH2 0x19E0 JUMP JUMPDEST DUP3 MSTORE POP POP JUMP JUMPDEST PUSH1 0x0 DUP2 MLOAD SWAP1 POP SWAP2 SWAP1 POP JUMP JUMPDEST PUSH1 0x0 DUP3 DUP3 MSTORE PUSH1 0x20 DUP3 ADD SWAP1 POP SWAP3 SWAP2 POP POP JUMP JUMPDEST PUSH1 0x0 JUMPDEST DUP4 DUP2 LT ISZERO PUSH2 0x1A3B JUMPI DUP1 DUP3 ADD MLOAD DUP2 DUP5 ADD MSTORE PUSH1 0x20 DUP2 ADD SWAP1 POP PUSH2 0x1A20 JUMP JUMPDEST PUSH1 0x0 DUP5 DUP5 ADD MSTORE POP POP POP POP JUMP JUMPDEST PUSH1 0x0 PUSH1 0x1F NOT PUSH1 0x1F DUP4 ADD AND SWAP1 POP SWAP2 SWAP1 POP JUMP JUMPDEST PUSH1 0x0 PUSH2 0x1A63 DUP3 PUSH2 0x1A01 JUMP JUMPDEST PUSH2 0x1A6D DUP2 DUP6 PUSH2 0x1A0C JUMP JUMPDEST SWAP4 POP PUSH2 0x1A7D DUP2 DUP6 PUSH1 0x20 DUP7 ADD PUSH2 0x1A1D JUMP JUMPDEST PUSH2 0x1A86 DUP2 PUSH2 0x1A47 JUMP JUMPDEST DUP5 ADD SWAP2 POP POP SWAP3 SWAP2 POP POP JUMP JUMPDEST PUSH1 0x0 PUSH2 0x100 DUP4 ADD PUSH1 0x0 DUP4 ADD MLOAD PUSH2 0x1AAA PUSH1 0x0 DUP7 ADD DUP3 PUSH2 0x19B6 JUMP JUMPDEST POP PUSH1 0x20 DUP4 ADD MLOAD PUSH2 0x1ABD PUSH1 0x20 DUP7 ADD DUP3 PUSH2 0x19B6 JUMP JUMPDEST POP PUSH1 0x40 DUP4 ADD MLOAD PUSH2 0x1AD0 PUSH1 0x40 DUP7 ADD DUP3 PUSH2 0x19B6 JUMP JUMPDEST POP PUSH1 0x60 DUP4 ADD MLOAD PUSH2 0x1AE3 PUSH1 0x60 DUP7 ADD DUP3 PUSH2 0x19B6 JUMP JUMPDEST POP PUSH1 0x80 DUP4 ADD MLOAD PUSH2 0x1AF6 PUSH1 0x80 DUP7 ADD DUP3 PUSH2 0x19D1 JUMP JUMPDEST POP PUSH1 0xA0 DUP4 ADD MLOAD PUSH2 0x1B09 PUSH1 0xA0 DUP7 ADD DUP3 PUSH2 0x19F2 JUMP JUMPDEST POP PUSH1 0xC0 DUP4 ADD MLOAD DUP5 DUP3 SUB PUSH1 0xC0 DUP7 ADD MSTORE PUSH2 0x1B21 DUP3 DUP3 PUSH2 0x1A58 JUMP JUMPDEST SWAP2 POP POP PUSH1 0xE0 DUP4 ADD MLOAD DUP5 DUP3 SUB PUSH1 0xE0 DUP7 ADD MSTORE PUSH2 0x1B3B DUP3 DUP3 PUSH2 0x1A58 JUMP JUMPDEST SWAP2 POP POP DUP1 SWAP2 POP POP SWAP3 SWAP2 POP POP JUMP JUMPDEST PUSH1 0x0 PUSH1 0x20 DUP3 ADD SWAP1 POP DUP2 DUP2 SUB PUSH1 0x0 DUP4 ADD MSTORE PUSH2 0x1B62 DUP2 DUP5 PUSH2 0x1A91 JUMP JUMPDEST SWAP1 POP SWAP3 SWAP2 POP POP JUMP JUMPDEST PUSH1 0x0 DUP1 REVERT JUMPDEST PUSH1 0x0 DUP1 REVERT JUMPDEST PUSH32 0x4E487B7100000000000000000000000000000000000000000000000000000000 PUSH1 0x0 MSTORE PUSH1 0x41 PUSH1 0x4 MSTORE PUSH1 0x24 PUSH1 0x0 REVERT JUMPDEST PUSH2 0x1BAC DUP3 PUSH2 0x1A47 JUMP JUMPDEST DUP2 ADD DUP2 DUP2 LT PUSH8 0xFFFFFFFFFFFFFFFF DUP3 GT OR ISZERO PUSH2 0x1BCB JUMPI PUSH2 0x1BCA PUSH2 0x1B74 JUMP JUMPDEST JUMPDEST DUP1 PUSH1 0x40 MSTORE POP POP POP JUMP JUMPDEST PUSH1 0x0 PUSH2 0x1BDE PUSH2 0x184A JUMP JUMPDEST SWAP1 POP PUSH2 0x1BEA DUP3 DUP3 PUSH2 0x1BA3 JUMP JUMPDEST SWAP2 SWAP1 POP JUMP JUMPDEST PUSH1 0x0 PUSH8 0xFFFFFFFFFFFFFFFF DUP3 GT ISZERO PUSH2 0x1C0A JUMPI PUSH2 0x1C09 PUSH2 0x1B74 JUMP JUMPDEST JUMPDEST PUSH2 0x1C13 DUP3 PUSH2 0x1A47 JUMP JUMPDEST SWAP1 POP PUSH1 0x20 DUP2 ADD SWAP1 POP SWAP2 SWAP1 POP JUMP JUMPDEST DUP3 DUP2 DUP4 CALLDATACOPY PUSH1 0x0 DUP4 DUP4 ADD MSTORE POP POP POP JUMP JUMPDEST PUSH1 0x0 PUSH2 0x1C42 PUSH2 0x1C3D DUP5 PUSH2 0x1BEF JUMP JUMPDEST PUSH2 0x1BD4 JUMP JUMPDEST SWAP1 POP DUP3 DUP2 MSTORE PUSH1 0x20 DUP2 ADD DUP5 DUP5 DUP5 ADD GT ISZERO PUSH2 0x1C5E JUMPI PUSH2 0x1C5D PUSH2 0x1B6F JUMP JUMPDEST JUMPDEST PUSH2 0x1C69 DUP5 DUP3 DUP6 PUSH2 0x1C20 JUMP JUMPDEST POP SWAP4 SWAP3 POP POP POP JUMP JUMPDEST PUSH1 0x0 DUP3 PUSH1 0x1F DUP4 ADD SLT PUSH2 0x1C86 JUMPI PUSH2 0x1C85 PUSH2 0x1B6A JUMP JUMPDEST JUMPDEST DUP2 CALLDATALOAD PUSH2 0x1C96 DUP5 DUP3 PUSH1 0x20 DUP7 ADD PUSH2 0x1C2F JUMP JUMPDEST SWAP2 POP POP SWAP3 SWAP2 POP POP JUMP JUMPDEST PUSH1 0x0 DUP1 PUSH1 0x0 DUP1 PUSH1 0x80 DUP6 DUP8 SUB SLT ISZERO PUSH2 0x1CB9 JUMPI PUSH2 0x1CB8 PUSH2 0x1854 JUMP JUMPDEST JUMPDEST PUSH1 0x0 PUSH2 0x1CC7 DUP8 DUP3 DUP9 ADD PUSH2 0x187F JUMP JUMPDEST SWAP5 POP POP PUSH1 0x20 PUSH2 0x1CD8 DUP8 DUP3 DUP9 ADD PUSH2 0x187F JUMP JUMPDEST SWAP4 POP POP PUSH1 0x40 DUP6 ADD CALLDATALOAD PUSH8 0xFFFFFFFFFFFFFFFF DUP2 GT ISZERO PUSH2 0x1CF9 JUMPI PUSH2 0x1CF8 PUSH2 0x1859 JUMP JUMPDEST JUMPDEST PUSH2 0x1D05 DUP8 DUP3 DUP9 ADD PUSH2 0x1C71 JUMP JUMPDEST SWAP3 POP POP PUSH1 0x60 DUP6 ADD CALLDATALOAD PUSH8 0xFFFFFFFFFFFFFFFF DUP2 GT ISZERO PUSH2 0x1D26 JUMPI PUSH2 0x1D25 PUSH2 0x1859 JUMP JUMPDEST JUMPDEST PUSH2 0x1D32 DUP8 DUP3 DUP9 ADD PUSH2 0x1C71 JUMP JUMPDEST SWAP2 POP POP SWAP3 SWAP6 SWAP2 SWAP5 POP SWAP3 POP JUMP JUMPDEST PUSH1 0x0 PUSH1 0x40 DUP3 ADD SWAP1 POP PUSH2 0x1D53 PUSH1 0x0 DUP4 ADD DUP6 PUSH2 0x18D4 JUMP JUMPDEST DUP2 DUP2 SUB PUSH1 0x20 DUP4 ADD MSTORE PUSH2 0x1D65 DUP2 DUP5 PUSH2 0x1A91 JUMP JUMPDEST SWAP1 POP SWAP4 SWAP3 POP POP POP JUMP JUMPDEST PUSH1 0x0 DUP3 DUP3 MSTORE PUSH1 0x20 DUP3 ADD SWAP1 POP SWAP3 SWAP2 POP POP JUMP JUMPDEST PUSH32 0x6172656E61206973206E6F74206F70656E000000000000000000000000000000 PUSH1 0x0 DUP3 ADD MSTORE POP JUMP JUMPDEST PUSH1 0x0 PUSH2 0x1DB5 PUSH1 0x11 DUP4 PUSH2 0x1D6E JUMP JUMPDEST SWAP2 POP PUSH2 0x1DC0 DUP3 PUSH2 0x1D7F JUMP JUMPDEST PUSH1 0x20 DUP3 ADD SWAP1 POP SWAP2 SWAP1 POP JUMP JUMPDEST PUSH1 0x0 PUSH1 0x20 DUP3 ADD SWAP1 POP DUP2 DUP2 SUB PUSH1 0x0 DUP4 ADD MSTORE PUSH2 0x1DE4 DUP2 PUSH2 0x1DA8 JUMP JUMPDEST SWAP1 POP SWAP2 SWAP1 POP JUMP JUMPDEST PUSH32 0x4E487B7100000000000000000000000000000000000000000000000000000000 PUSH1 0x0 MSTORE PUSH1 0x12 PUSH1 0x4 MSTORE PUSH1 0x24 PUSH1 0x0 REVERT JUMPDEST PUSH32 0x4E487B7100000000000000000000000000000000000000000000000000000000 PUSH1 0x0 MSTORE PUSH1 0x11 PUSH1 0x4 MSTORE PUSH1 0x24 PUSH1 0x0 REVERT JUMPDEST PUSH1 0x0 PUSH2 0x1E54 DUP3 PUSH2 0x185E JUMP JUMPDEST SWAP2 POP PUSH2 0x1E5F DUP4 PUSH2 0x185E JUMP JUMPDEST SWAP3 POP DUP3 PUSH2 0x1E6F JUMPI PUSH2 0x1E6E PUSH2 0x1DEB JUMP JUMPDEST JUMPDEST DUP3 DUP3 DIV SWAP1 POP SWAP3 SWAP2 POP POP JUMP JUMPDEST PUSH1 0x0 PUSH2 0x1E85 DUP3 PUSH2 0x185E JUMP JUMPDEST SWAP2 POP PUSH2 0x1E90 DUP4 PUSH2 0x185E JUMP JUMPDEST SWAP3 POP DUP3 DUP3 SUB SWAP1 POP DUP2 DUP2 GT ISZERO PUSH2 0x1EA8 JUMPI PUSH2 0x1EA7 PUSH2 0x1E1A JUMP JUMPDEST JUMPDEST SWAP3 SWAP2 POP POP JUMP JUMPDEST PUSH1 0x0 PUSH2 0x1EB9 DUP3 PUSH2 0x185E JUMP JUMPDEST SWAP2 POP PUSH2 0x1EC4 DUP4 PUSH2 0x185E JUMP JUMPDEST SWAP3 POP DUP3 DUP3 ADD SWAP1 POP DUP1 DUP3 GT ISZERO PUSH2 0x1EDC JUMPI PUSH2 0x1EDB PUSH2 0x1E1A JUMP JUMPDEST JUMPDEST SWAP3 SWAP2 POP POP JUMP JUMPDEST PUSH32 0x62726F6B652061737320676F74206E6F206D6F6E657900000000000000000000 PUSH1 0x0 DUP3 ADD MSTORE POP JUMP JUMPDEST PUSH1 0x0 PUSH2 0x1F18 PUSH1 0x16 DUP4 PUSH2 0x1D6E JUMP JUMPDEST SWAP2 POP PUSH2 0x1F23 DUP3 PUSH2 0x1EE2 JUMP JUMPDEST PUSH1 0x20 DUP3 ADD SWAP1 POP SWAP2 SWAP1 POP JUMP JUMPDEST PUSH1 0x0 PUSH1 0x20 DUP3 ADD SWAP1 POP DUP2 DUP2 SUB PUSH1 0x0 DUP4 ADD MSTORE PUSH2 0x1F47 DUP2 PUSH2 0x1F0B JUMP JUMPDEST SWAP1 POP SWAP2 SWAP1 POP JUMP JUMPDEST PUSH32 0x4E487B7100000000000000000000000000000000000000000000000000000000 PUSH1 0x0 MSTORE PUSH1 0x22 PUSH1 0x4 MSTORE PUSH1 0x24 PUSH1 0x0 REVERT JUMPDEST PUSH1 0x0 PUSH1 0x2 DUP3 DIV SWAP1 POP PUSH1 0x1 DUP3 AND DUP1 PUSH2 0x1F95 JUMPI PUSH1 0x7F DUP3 AND SWAP2 POP JUMPDEST PUSH1 0x20 DUP3 LT DUP2 SUB PUSH2 0x1FA8 JUMPI PUSH2 0x1FA7 PUSH2 0x1F4E JUMP JUMPDEST JUMPDEST POP SWAP2 SWAP1 POP JUMP JUMPDEST PUSH1 0x0 PUSH2 0x1FB9 DUP3 PUSH2 0x185E JUMP JUMPDEST SWAP2 POP PUSH32 0xFFFFFFFFFFFFFFFFFFFFFFFFFFFFFFFFFFFFFFFFFFFFFFFFFFFFFFFFFFFFFFFF DUP3 SUB PUSH2 0x1FEB JUMPI PUSH2 0x1FEA PUSH2 0x1E1A JUMP JUMPDEST JUMPDEST PUSH1 0x1 DUP3 ADD SWAP1 POP SWAP2 SWAP1 POP JUMP JUMPDEST PUSH1 0x0 DUP2 SWAP1 POP DUP2 PUSH1 0x0 MSTORE PUSH1 0x20 PUSH1 0x0 KECCAK256 SWAP1 POP SWAP2 SWAP1 POP JUMP JUMPDEST PUSH1 0x0 PUSH1 0x20 PUSH1 0x1F DUP4 ADD DIV SWAP1 POP SWAP2 SWAP1 POP JUMP JUMPDEST PUSH1 0x0 DUP3 DUP3 SHL SWAP1 POP SWAP3 SWAP2 POP POP JUMP JUMPDEST PUSH1 0x0 PUSH1 0x8 DUP4 MUL PUSH2 0x2058 PUSH32 0xFFFFFFFFFFFFFFFFFFFFFFFFFFFFFFFFFFFFFFFFFFFFFFFFFFFFFFFFFFFFFFFF DUP3 PUSH2 0x201B JUMP JUMPDEST PUSH2 0x2062 DUP7 DUP4 PUSH2 0x201B JUMP JUMPDEST SWAP6 POP DUP1 NOT DUP5 AND SWAP4 POP DUP1 DUP7 AND DUP5 OR SWAP3 POP POP POP SWAP4 SWAP3 POP POP POP JUMP JUMPDEST PUSH1 0x0 DUP2 SWAP1 POP SWAP2 SWAP1 POP JUMP JUMPDEST PUSH1 0x0 PUSH2 0x209F PUSH2 0x209A PUSH2 0x2095 DUP5 PUSH2 0x185E JUMP JUMPDEST PUSH2 0x207A JUMP JUMPDEST PUSH2 0x185E JUMP JUMPDEST SWAP1 POP SWAP2 SWAP1 POP JUMP JUMPDEST PUSH1 0x0 DUP2 SWAP1 POP SWAP2 SWAP1 POP JUMP JUMPDEST PUSH2 0x20B9 DUP4 PUSH2 0x2084 JUMP JUMPDEST PUSH2 0x20CD PUSH2 0x20C5 DUP3 PUSH2 0x20A6 JUMP JUMPDEST DUP5 DUP5 SLOAD PUSH2 0x2028 JUMP JUMPDEST DUP3 SSTORE POP POP POP POP JUMP JUMPDEST PUSH1 0x0 SWAP1 JUMP JUMPDEST PUSH2 0x20E2 PUSH2 0x20D5 JUMP JUMPDEST PUSH2 0x20ED DUP2 DUP5 DUP5 PUSH2 0x20B0 JUMP JUMPDEST POP POP POP JUMP JUMPDEST JUMPDEST DUP2 DUP2 LT ISZERO PUSH2 0x2111 JUMPI PUSH2 0x2106 PUSH1 0x0 DUP3 PUSH2 0x20DA JUMP JUMPDEST PUSH1 0x1 DUP2 ADD SWAP1 POP PUSH2 0x20F3 JUMP JUMPDEST POP POP JUMP JUMPDEST PUSH1 0x1F DUP3 GT ISZERO PUSH2 0x2156 JUMPI PUSH2 0x2127 DUP2 PUSH2 0x1FF6 JUMP JUMPDEST PUSH2 0x2130 DUP5 PUSH2 0x200B JUMP JUMPDEST DUP2 ADD PUSH1 0x20 DUP6 LT ISZERO PUSH2 0x213F JUMPI DUP2 SWAP1 POP JUMPDEST PUSH2 0x2153 PUSH2 0x214B DUP6 PUSH2 0x200B JUMP JUMPDEST DUP4 ADD DUP3 PUSH2 0x20F2 JUMP JUMPDEST POP POP JUMPDEST POP POP POP JUMP JUMPDEST PUSH1 0x0 DUP3 DUP3 SHR SWAP1 POP SWAP3 SWAP2 POP POP JUMP JUMPDEST PUSH1 0x0 PUSH2 0x2179 PUSH1 0x0 NOT DUP5 PUSH1 0x8 MUL PUSH2 0x215B JUMP JUMPDEST NOT DUP1 DUP4 AND SWAP2 POP POP SWAP3 SWAP2 POP POP JUMP JUMPDEST PUSH1 0x0 PUSH2 0x2192 DUP4 DUP4 PUSH2 0x2168 JUMP JUMPDEST SWAP2 POP DUP3 PUSH1 0x2 MUL DUP3 OR SWAP1 POP SWAP3 SWAP2 POP POP JUMP JUMPDEST PUSH2 0x21AB DUP3 PUSH2 0x1A01 JUMP JUMPDEST PUSH8 0xFFFFFFFFFFFFFFFF DUP2 GT ISZERO PUSH2 0x21C4 JUMPI PUSH2 0x21C3 PUSH2 0x1B74 JUMP JUMPDEST JUMPDEST PUSH2 0x21CE DUP3 SLOAD PUSH2 0x1F7D JUMP JUMPDEST PUSH2 0x21D9 DUP3 DUP3 DUP6 PUSH2 0x2115 JUMP JUMPDEST PUSH1 0x0 PUSH1 0x20 SWAP1 POP PUSH1 0x1F DUP4 GT PUSH1 0x1 DUP2 EQ PUSH2 0x220C JUMPI PUSH1 0x0 DUP5 ISZERO PUSH2 0x21FA JUMPI DUP3 DUP8 ADD MLOAD SWAP1 POP JUMPDEST PUSH2 0x2204 DUP6 DUP3 PUSH2 0x2186 JUMP JUMPDEST DUP7 SSTORE POP PUSH2 0x226C JUMP JUMPDEST PUSH1 0x1F NOT DUP5 AND PUSH2 0x221A DUP7 PUSH2 0x1FF6 JUMP JUMPDEST PUSH1 0x0 JUMPDEST DUP3 DUP2 LT ISZERO PUSH2 0x2242 JUMPI DUP5 DUP10 ADD MLOAD DUP3 SSTORE PUSH1 0x1 DUP3 ADD SWAP2 POP PUSH1 0x20 DUP6 ADD SWAP5 POP PUSH1 0x20 DUP2 ADD SWAP1 POP PUSH2 0x221D JUMP JUMPDEST DUP7 DUP4 LT ISZERO PUSH2 0x225F JUMPI DUP5 DUP10 ADD MLOAD PUSH2 0x225B PUSH1 0x1F DUP10 AND DUP3 PUSH2 0x2168 JUMP JUMPDEST DUP4 SSTORE POP JUMPDEST PUSH1 0x1 PUSH1 0x2 DUP9 MUL ADD DUP9 SSTORE POP POP POP JUMPDEST POP POP POP POP POP POP JUMP JUMPDEST PUSH1 0x0 PUSH2 0x227F DUP3 PUSH2 0x185E JUMP JUMPDEST SWAP2 POP PUSH2 0x228A DUP4 PUSH2 0x185E JUMP JUMPDEST SWAP3 POP DUP3 DUP3 MUL PUSH2 0x2298 DUP2 PUSH2 0x185E JUMP JUMPDEST SWAP2 POP DUP3 DUP3 DIV DUP5 EQ DUP4 ISZERO OR PUSH2 0x22AF JUMPI PUSH2 0x22AE PUSH2 0x1E1A JUMP JUMPDEST JUMPDEST POP SWAP3 SWAP2 POP POP JUMP JUMPDEST PUSH32 0x796F7520617265206E6F742074686520686F7374000000000000000000000000 PUSH1 0x0 DUP3 ADD MSTORE POP JUMP JUMPDEST PUSH1 0x0 PUSH2 0x22EC PUSH1 0x14 DUP4 PUSH2 0x1D6E JUMP JUMPDEST SWAP2 POP PUSH2 0x22F7 DUP3 PUSH2 0x22B6 JUMP JUMPDEST PUSH1 0x20 DUP3 ADD SWAP1 POP SWAP2 SWAP1 POP JUMP JUMPDEST PUSH1 0x0 PUSH1 0x20 DUP3 ADD SWAP1 POP DUP2 DUP2 SUB PUSH1 0x0 DUP4 ADD MSTORE PUSH2 0x231B DUP2 PUSH2 0x22DF JUMP JUMPDEST SWAP1 POP SWAP2 SWAP1 POP JUMP JUMPDEST PUSH32 0x796F7520617265206E6F7420696E20746865206172656E610000000000000000 PUSH1 0x0 DUP3 ADD MSTORE POP JUMP JUMPDEST PUSH1 0x0 PUSH2 0x2358 PUSH1 0x18 DUP4 PUSH2 0x1D6E JUMP JUMPDEST SWAP2 POP PUSH2 0x2363 DUP3 PUSH2 0x2322 JUMP JUMPDEST PUSH1 0x20 DUP3 ADD SWAP1 POP SWAP2 SWAP1 POP JUMP JUMPDEST PUSH1 0x0 PUSH1 0x20 DUP3 ADD SWAP1 POP DUP2 DUP2 SUB PUSH1 0x0 DUP4 ADD MSTORE PUSH2 0x2387 DUP2 PUSH2 0x234B JUMP JUMPDEST SWAP1 POP SWAP2 SWAP1 POP JUMP JUMPDEST PUSH1 0x0 PUSH2 0x2399 DUP3 PUSH2 0x185E JUMP JUMPDEST SWAP2 POP PUSH2 0x23A4 DUP4 PUSH2 0x185E JUMP JUMPDEST SWAP3 POP DUP3 PUSH2 0x23B4 JUMPI PUSH2 0x23B3 PUSH2 0x1DEB JUMP JUMPDEST JUMPDEST DUP3 DUP3 MOD SWAP1 POP SWAP3 SWAP2 POP POP JUMP JUMPDEST PUSH1 0x0 DUP2 SWAP1 POP SWAP2 SWAP1 POP JUMP JUMPDEST PUSH2 0x23DA PUSH2 0x23D5 DUP3 PUSH2 0x185E JUMP JUMPDEST PUSH2 0x23BF JUMP JUMPDEST DUP3 MSTORE POP POP JUMP JUMPDEST PUSH1 0x0 PUSH2 0x23EC DUP3 DUP8 PUSH2 0x23C9 JUMP JUMPDEST PUSH1 0x20 DUP3 ADD SWAP2 POP PUSH2 0x23FC DUP3 DUP7 PUSH2 0x23C9 JUMP JUMPDEST PUSH1 0x20 DUP3 ADD SWAP2 POP PUSH2 0x240C DUP3 DUP6 PUSH2 0x23C9 JUMP JUMPDEST PUSH1 0x20 DUP3 ADD SWAP2 POP PUSH2 0x241C DUP3 DUP5 PUSH2 0x23C9 JUMP JUMPDEST PUSH1 0x20 DUP3 ADD SWAP2 POP DUP2 SWAP1 POP SWAP6 SWAP5 POP POP POP POP POP JUMP INVALID LOG2 PUSH5 0x6970667358 0x22 SLT KECCAK256 CALLDATACOPY 0xEF PUSH7 0x8A9382CD94A28C DIV DUP14 PUSH23 0xFD3CBCF3820F2F1680A80E5F1105493D5ECF164736F6C PUSH4 0x43000812 STOP CALLER "},"methodIdentifiers":{"creatBasicArena(uint256,uint256,string,string)":"59735adc","creatHillArena(uint256,uint256,string,string)":"f2482513","enterBasicArena(uint256,uint256)":"0b93942a","fightBaiscArena(uint256,uint256)":"c7f3ade5","freeGold()":"33f453af","getBasicArena(uint256)":"54e8a31a","getBasicArenaCooldowns(uint256,uint256)":"cc8d469d","getBasicArenaCount()":"2d2c17be","getGoldBalance(address)":"3707caf2","getTotalLosses(uint256)":"fb944ffc","getTotalWins(uint256)":"4f7d08e5","leaveBasicArena(uint256,uint256)":"c8fe5c47"}}}}}