{
  "_format": "hh-sol-artifact-1",
  "contractName": "OmniScient",
  "sourceName": "@omni/contracts/contracts/OmniScient.sol",
  "abi": [
    {
      "inputs": [
        {
          "components": [
            {
              "internalType": "bytes32",
              "name": "sourceTxHash",
              "type": "bytes32"
            },
            {
              "internalType": "string",
              "name": "sourceChain",
              "type": "string"
            },
            {
              "internalType": "string",
              "name": "destChain",
              "type": "string"
            },
            {
              "internalType": "uint64",
              "name": "nonce",
              "type": "uint64"
            },
            {
              "internalType": "address",
              "name": "from",
              "type": "address"
            },
            {
              "internalType": "address",
              "name": "to",
              "type": "address"
            },
            {
              "internalType": "uint256",
              "name": "value",
              "type": "uint256"
            },
            {
              "internalType": "uint256",
              "name": "paid",
              "type": "uint256"
            },
            {
              "internalType": "uint64",
              "name": "gasLimit",
              "type": "uint64"
            },
            {
              "internalType": "bytes",
              "name": "data",
              "type": "bytes"
            }
          ],
          "internalType": "struct OmniCodec.Tx",
          "name": "_xtx",
          "type": "tuple"
        },
        {
          "internalType": "address",
          "name": "_sender",
          "type": "address"
        },
        {
          "internalType": "uint256",
          "name": "_gasSpent",
          "type": "uint256"
        }
      ],
      "name": "onXChainTxReverted",
      "outputs": [],
      "stateMutability": "nonpayable",
      "type": "function"
    },
    {
      "inputs": [
        {
          "components": [
            {
              "internalType": "bytes32",
              "name": "sourceTxHash",
              "type": "bytes32"
            },
            {
              "internalType": "string",
              "name": "sourceChain",
              "type": "string"
            },
            {
              "internalType": "string",
              "name": "destChain",
              "type": "string"
            },
            {
              "internalType": "uint64",
              "name": "nonce",
              "type": "uint64"
            },
            {
              "internalType": "address",
              "name": "from",
              "type": "address"
            },
            {
              "internalType": "address",
              "name": "to",
              "type": "address"
            },
            {
              "internalType": "uint256",
              "name": "value",
              "type": "uint256"
            },
            {
              "internalType": "uint256",
              "name": "paid",
              "type": "uint256"
            },
            {
              "internalType": "uint64",
              "name": "gasLimit",
              "type": "uint64"
            },
            {
              "internalType": "bytes",
              "name": "data",
              "type": "bytes"
            }
          ],
          "internalType": "struct OmniCodec.Tx",
          "name": "_xtx",
          "type": "tuple"
        },
        {
          "internalType": "address",
          "name": "_sender",
          "type": "address"
        },
        {
          "internalType": "bytes",
          "name": "_returnValue",
          "type": "bytes"
        },
        {
          "internalType": "uint256",
          "name": "_gasSpent",
          "type": "uint256"
        }
      ],
      "name": "onXChainTxSuccess",
      "outputs": [],
      "stateMutability": "nonpayable",
      "type": "function"
    }
  ],
  "bytecode": "0x608060405234801561001057600080fd5b506106b3806100206000396000f3fe608060405234801561001057600080fd5b50600436106100365760003560e01c80632140f89f1461003b5780639e0552aa14610057575b600080fd5b6100556004803603810190610050919061056f565b610073565b005b610071600480360381019061006c919061060e565b6100c5565b005b73121240000000000000000000000000000000000173ffffffffffffffffffffffffffffffffffffffff163373ffffffffffffffffffffffffffffffffffffffff16146100bf57600080fd5b50505050565b73121240000000000000000000000000000000000173ffffffffffffffffffffffffffffffffffffffff163373ffffffffffffffffffffffffffffffffffffffff161461011157600080fd5b505050565b6000604051905090565b600080fd5b600080fd5b600080fd5b6000601f19601f8301169050919050565b7f4e487b7100000000000000000000000000000000000000000000000000000000600052604160045260246000fd5b6101788261012f565b810181811067ffffffffffffffff8211171561019757610196610140565b5b80604052505050565b60006101aa610116565b90506101b6828261016f565b919050565b600080fd5b6000819050919050565b6101d3816101c0565b81146101de57600080fd5b50565b6000813590506101f0816101ca565b92915050565b600080fd5b600080fd5b600067ffffffffffffffff82111561021b5761021a610140565b5b6102248261012f565b9050602081019050919050565b82818337600083830152505050565b600061025361024e84610200565b6101a0565b90508281526020810184848401111561026f5761026e6101fb565b5b61027a848285610231565b509392505050565b600082601f830112610297576102966101f6565b5b81356102a7848260208601610240565b91505092915050565b600067ffffffffffffffff82169050919050565b6102cd816102b0565b81146102d857600080fd5b50565b6000813590506102ea816102c4565b92915050565b600073ffffffffffffffffffffffffffffffffffffffff82169050919050565b600061031b826102f0565b9050919050565b61032b81610310565b811461033657600080fd5b50565b60008135905061034881610322565b92915050565b6000819050919050565b6103618161034e565b811461036c57600080fd5b50565b60008135905061037e81610358565b92915050565b600067ffffffffffffffff82111561039f5761039e610140565b5b6103a88261012f565b9050602081019050919050565b60006103c86103c384610384565b6101a0565b9050828152602081018484840111156103e4576103e36101fb565b5b6103ef848285610231565b509392505050565b600082601f83011261040c5761040b6101f6565b5b813561041c8482602086016103b5565b91505092915050565b6000610140828403121561043c5761043b61012a565b5b6104476101406101a0565b90506000610457848285016101e1565b600083015250602082013567ffffffffffffffff81111561047b5761047a6101bb565b5b61048784828501610282565b602083015250604082013567ffffffffffffffff8111156104ab576104aa6101bb565b5b6104b784828501610282565b60408301525060606104cb848285016102db565b60608301525060806104df84828501610339565b60808301525060a06104f384828501610339565b60a08301525060c06105078482850161036f565b60c08301525060e061051b8482850161036f565b60e083015250610100610530848285016102db565b6101008301525061012082013567ffffffffffffffff811115610556576105556101bb565b5b610562848285016103f7565b6101208301525092915050565b6000806000806080858703121561058957610588610120565b5b600085013567ffffffffffffffff8111156105a7576105a6610125565b5b6105b387828801610425565b94505060206105c487828801610339565b935050604085013567ffffffffffffffff8111156105e5576105e4610125565b5b6105f1878288016103f7565b92505060606106028782880161036f565b91505092959194509250565b60008060006060848603121561062757610626610120565b5b600084013567ffffffffffffffff81111561064557610644610125565b5b61065186828701610425565b935050602061066286828701610339565b92505060406106738682870161036f565b915050925092509256fea26469706673582212202c5f8d3254c5428eaedaf14fea3469ea8bf33c077b837de638617d11d3e1867064736f6c63430008120033",
  "linkReferences": {},
  "deployedLinkReferences": {}
}