{
  "_format": "hh-sol-artifact-1",
  "contractName": "MainDemoConsumerBase",
  "sourceName": "@redstone-finance/evm-connector/contracts/data-services/MainDemoConsumerBase.sol",
  "abi": [
    {
      "inputs": [],
      "name": "CalldataMustHaveValidPayload",
      "type": "error"
    },
    {
      "inputs": [],
      "name": "CalldataOverOrUnderFlow",
      "type": "error"
    },
    {
      "inputs": [],
      "name": "CanNotPickMedianOfEmptyArray",
      "type": "error"
    },
    {
      "inputs": [],
      "name": "DataPackageTimestampMustNotBeZero",
      "type": "error"
    },
    {
      "inputs": [],
      "name": "DataPackageTimestampsMustBeEqual",
      "type": "error"
    },
    {
      "inputs": [],
      "name": "EachSignerMustProvideTheSameValue",
      "type": "error"
    },
    {
      "inputs": [],
      "name": "EmptyCalldataPointersArr",
      "type": "error"
    },
    {
      "inputs": [],
      "name": "GetDataServiceIdNotImplemented",
      "type": "error"
    },
    {
      "inputs": [],
      "name": "IncorrectUnsignedMetadataSize",
      "type": "error"
    },
    {
      "inputs": [
        {
          "internalType": "uint256",
          "name": "receivedSignersCount",
          "type": "uint256"
        },
        {
          "internalType": "uint256",
          "name": "requiredSignersCount",
          "type": "uint256"
        }
      ],
      "name": "InsufficientNumberOfUniqueSigners",
      "type": "error"
    },
    {
      "inputs": [],
      "name": "InvalidCalldataPointer",
      "type": "error"
    },
    {
      "inputs": [],
      "name": "RedstonePayloadMustHaveAtLeastOneDataPackage",
      "type": "error"
    },
    {
      "inputs": [
        {
          "internalType": "address",
          "name": "receivedSigner",
          "type": "address"
        }
      ],
      "name": "SignerNotAuthorised",
      "type": "error"
    },
    {
      "inputs": [
        {
          "internalType": "uint256",
          "name": "receivedTimestampSeconds",
          "type": "uint256"
        },
        {
          "internalType": "uint256",
          "name": "blockTimestamp",
          "type": "uint256"
        }
      ],
      "name": "TimestampFromTooLongFuture",
      "type": "error"
    },
    {
      "inputs": [
        {
          "internalType": "uint256",
          "name": "receivedTimestampSeconds",
          "type": "uint256"
        },
        {
          "internalType": "uint256",
          "name": "blockTimestamp",
          "type": "uint256"
        }
      ],
      "name": "TimestampIsTooOld",
      "type": "error"
    },
    {
      "inputs": [
        {
          "internalType": "uint256[]",
          "name": "values",
          "type": "uint256[]"
        }
      ],
      "name": "aggregateValues",
      "outputs": [
        {
          "internalType": "uint256",
          "name": "",
          "type": "uint256"
        }
      ],
      "stateMutability": "view",
      "type": "function"
    },
    {
      "inputs": [],
      "name": "extractTimestampsAndAssertAllAreEqual",
      "outputs": [
        {
          "internalType": "uint256",
          "name": "extractedTimestamp",
          "type": "uint256"
        }
      ],
      "stateMutability": "pure",
      "type": "function"
    },
    {
      "inputs": [
        {
          "internalType": "address",
          "name": "signerAddress",
          "type": "address"
        }
      ],
      "name": "getAuthorisedSignerIndex",
      "outputs": [
        {
          "internalType": "uint8",
          "name": "",
          "type": "uint8"
        }
      ],
      "stateMutability": "view",
      "type": "function"
    },
    {
      "inputs": [],
      "name": "getDataServiceId",
      "outputs": [
        {
          "internalType": "string",
          "name": "",
          "type": "string"
        }
      ],
      "stateMutability": "view",
      "type": "function"
    },
    {
      "inputs": [],
      "name": "getUniqueSignersThreshold",
      "outputs": [
        {
          "internalType": "uint8",
          "name": "",
          "type": "uint8"
        }
      ],
      "stateMutability": "view",
      "type": "function"
    },
    {
      "inputs": [
        {
          "internalType": "uint256",
          "name": "receivedTimestampMilliseconds",
          "type": "uint256"
        }
      ],
      "name": "validateTimestamp",
      "outputs": [],
      "stateMutability": "view",
      "type": "function"
    }
  ],
  "bytecode": "0x608060405234801561001057600080fd5b50610e26806100206000396000f3fe608060405234801561001057600080fd5b50600436106100625760003560e01c80633ce142f51461006757806355a547d514610097578063b24ebfcc146100b5578063c274583a146100e5578063f50b2efe14610103578063f90c49241461011f575b600080fd5b610081600480360381019061007c9190610888565b61013d565b60405161008e91906108d1565b60405180910390f35b61009f6101d1565b6040516100ac9190610905565b60405180910390f35b6100cf60048036038101906100ca9190610aa5565b610341565b6040516100dc9190610905565b60405180910390f35b6100ed610353565b6040516100fa9190610b6d565b60405180910390f35b61011d60048036038101906101189190610b8f565b610390565b005b61012761039c565b60405161013491906108d1565b60405180910390f35b6000730c39486f770b26f5527bbbf942726537986cd7eb73ffffffffffffffffffffffffffffffffffffffff168273ffffffffffffffffffffffffffffffffffffffff160361018f57600090506101cc565b816040517fec459bc00000000000000000000000000000000000000000000000000000000081526004016101c39190610bcb565b60405180910390fd5b919050565b6000806101dc6103a5565b905060006101e9826104b6565b61ffff16905060008103610229576040517f8552ff3c00000000000000000000000000000000000000000000000000000000815260040160405180910390fd5b6002826102369190610c15565b915060005b8181101561033b57600061024e84610512565b90506000806068866102609190610c15565b905060008160003690506102749190610c49565b90508035925060008365ffffffffffff16036102bc576040517f336dc9d000000000000000000000000000000000000000000000000000000000815260040160405180910390fd5b600088036102d4578265ffffffffffff169750610316565b878365ffffffffffff1614610315576040517fd9d1f46500000000000000000000000000000000000000000000000000000000815260040160405180910390fd5b5b83876103229190610c15565b965050505050808061033390610c7d565b91505061023b565b50505090565b600061034c82610551565b9050919050565b60606040518060400160405280601281526020017f72656473746f6e652d6d61696e2d64656d6f0000000000000000000000000000815250905090565b61039981610563565b50565b60006001905090565b60008060203603356602ed57011e000081166602ed57011e000014915050806103fa576040517fe7764c9e00000000000000000000000000000000000000000000000000000000815260040160405180910390fd5b6000803690506029111561043a576040517f5796f78a00000000000000000000000000000000000000000000000000000000815260040160405180910390fd5b602936033590506000600960038362ffffff166104579190610c15565b6104619190610c15565b905060003690506002826104759190610c15565b11156104ad576040517fc30a7bd700000000000000000000000000000000000000000000000000000000815260040160405180910390fd5b80935050505090565b6000806020836104c69190610c15565b90506000369050811115610506576040517f5796f78a00000000000000000000000000000000000000000000000000000000815260040160405180910390fd5b80360335915050919050565b60008060006105208461062d565b91509150604e8160206105339190610c15565b8361053e9190610cc5565b6105489190610c15565b92505050919050565b600061055c826106a3565b9050919050565b60006103e8826105739190610d36565b9050804210156105d557603c428261058b9190610c49565b11156105d05780426040517fb6b0916d0000000000000000000000000000000000000000000000000000000081526004016105c7929190610d67565b60405180910390fd5b610629565b60b481426105e39190610c49565b11156106285780426040517f0321d0b500000000000000000000000000000000000000000000000000000000815260040161061f929190610d67565b60405180910390fd5b5b5050565b60008060008060006041866106429190610c15565b905060006106696020836106569190610c15565b600036905061079790919063ffffffff16565b90508035935061068360038261079790919063ffffffff16565b9050803592508362ffffff1695508263ffffffff16945050505050915091565b6000808251036106df576040517f9e198af900000000000000000000000000000000000000000000000000000000815260040160405180910390fd5b6106e8826107ad565b6000600283516106f89190610d36565b905060006002845161070a9190610d90565b0361077357600061075b846001846107229190610c49565b8151811061073357610732610dc1565b5b602002602001015185848151811061074e5761074d610dc1565b5b6020026020010151610800565b905060028161076a9190610d36565b92505050610792565b82818151811061078657610785610dc1565b5b60200260200101519150505b919050565b600081836107a59190610c49565b905092915050565b805160208201602082028101815b818110156107f957825b818110156107ed5781518151808210156107e0578084528183525b50506020810190506107c5565b506020810190506107bb565b5050505050565b6000818361080e9190610c15565b905092915050565b6000604051905090565b600080fd5b600080fd5b600073ffffffffffffffffffffffffffffffffffffffff82169050919050565b60006108558261082a565b9050919050565b6108658161084a565b811461087057600080fd5b50565b6000813590506108828161085c565b92915050565b60006020828403121561089e5761089d610820565b5b60006108ac84828501610873565b91505092915050565b600060ff82169050919050565b6108cb816108b5565b82525050565b60006020820190506108e660008301846108c2565b92915050565b6000819050919050565b6108ff816108ec565b82525050565b600060208201905061091a60008301846108f6565b92915050565b600080fd5b6000601f19601f8301169050919050565b7f4e487b7100000000000000000000000000000000000000000000000000000000600052604160045260246000fd5b61096e82610925565b810181811067ffffffffffffffff8211171561098d5761098c610936565b5b80604052505050565b60006109a0610816565b90506109ac8282610965565b919050565b600067ffffffffffffffff8211156109cc576109cb610936565b5b602082029050602081019050919050565b600080fd5b6109eb816108ec565b81146109f657600080fd5b50565b600081359050610a08816109e2565b92915050565b6000610a21610a1c846109b1565b610996565b90508083825260208201905060208402830185811115610a4457610a436109dd565b5b835b81811015610a6d5780610a5988826109f9565b845260208401935050602081019050610a46565b5050509392505050565b600082601f830112610a8c57610a8b610920565b5b8135610a9c848260208601610a0e565b91505092915050565b600060208284031215610abb57610aba610820565b5b600082013567ffffffffffffffff811115610ad957610ad8610825565b5b610ae584828501610a77565b91505092915050565b600081519050919050565b600082825260208201905092915050565b60005b83811015610b28578082015181840152602081019050610b0d565b60008484015250505050565b6000610b3f82610aee565b610b498185610af9565b9350610b59818560208601610b0a565b610b6281610925565b840191505092915050565b60006020820190508181036000830152610b878184610b34565b905092915050565b600060208284031215610ba557610ba4610820565b5b6000610bb3848285016109f9565b91505092915050565b610bc58161084a565b82525050565b6000602082019050610be06000830184610bbc565b92915050565b7f4e487b7100000000000000000000000000000000000000000000000000000000600052601160045260246000fd5b6000610c20826108ec565b9150610c2b836108ec565b9250828201905080821115610c4357610c42610be6565b5b92915050565b6000610c54826108ec565b9150610c5f836108ec565b9250828203905081811115610c7757610c76610be6565b5b92915050565b6000610c88826108ec565b91507fffffffffffffffffffffffffffffffffffffffffffffffffffffffffffffffff8203610cba57610cb9610be6565b5b600182019050919050565b6000610cd0826108ec565b9150610cdb836108ec565b9250828202610ce9816108ec565b91508282048414831517610d0057610cff610be6565b5b5092915050565b7f4e487b7100000000000000000000000000000000000000000000000000000000600052601260045260246000fd5b6000610d41826108ec565b9150610d4c836108ec565b925082610d5c57610d5b610d07565b5b828204905092915050565b6000604082019050610d7c60008301856108f6565b610d8960208301846108f6565b9392505050565b6000610d9b826108ec565b9150610da6836108ec565b925082610db657610db5610d07565b5b828206905092915050565b7f4e487b7100000000000000000000000000000000000000000000000000000000600052603260045260246000fdfea26469706673582212202e6e9b9ceeccfcaf275ee1454751d50530aed5b36f14039fd9ac2dc4ddeba72264736f6c63430008120033",
  "linkReferences": {},
  "deployedLinkReferences": {}
}