{
  "_format": "hh-sol-artifact-1",
  "contractName": "EquipFacet",
  "sourceName": "contracts/facets/EquipFacet.sol",
  "abi": [
    {
      "anonymous": false,
      "inputs": [
        {
          "indexed": true,
          "internalType": "address",
          "name": "_owner",
          "type": "address"
        },
        {
          "indexed": true,
          "internalType": "uint256",
          "name": "_playerId",
          "type": "uint256"
        },
        {
          "indexed": true,
          "internalType": "uint256",
          "name": "_itemId",
          "type": "uint256"
        }
      ],
      "name": "ItemEquiped",
      "type": "event"
    },
    {
      "anonymous": false,
      "inputs": [
        {
          "indexed": true,
          "internalType": "address",
          "name": "_owner",
          "type": "address"
        },
        {
          "indexed": true,
          "internalType": "uint256",
          "name": "_playerId",
          "type": "uint256"
        },
        {
          "indexed": true,
          "internalType": "uint256",
          "name": "_itemId",
          "type": "uint256"
        }
      ],
      "name": "ItemUnequiped",
      "type": "event"
    },
    {
      "inputs": [
        {
          "internalType": "uint256",
          "name": "_playerId",
          "type": "uint256"
        },
        {
          "internalType": "uint256",
          "name": "_itemId",
          "type": "uint256"
        }
      ],
      "name": "equipBody",
      "outputs": [],
      "stateMutability": "nonpayable",
      "type": "function"
    },
    {
      "inputs": [
        {
          "internalType": "uint256",
          "name": "_playerId",
          "type": "uint256"
        },
        {
          "internalType": "uint256",
          "name": "_itemId",
          "type": "uint256"
        }
      ],
      "name": "equipHead",
      "outputs": [],
      "stateMutability": "nonpayable",
      "type": "function"
    },
    {
      "inputs": [
        {
          "internalType": "uint256",
          "name": "_playerId",
          "type": "uint256"
        },
        {
          "internalType": "uint256",
          "name": "_itemId",
          "type": "uint256"
        }
      ],
      "name": "equipRightHand",
      "outputs": [],
      "stateMutability": "nonpayable",
      "type": "function"
    },
    {
      "inputs": [
        {
          "internalType": "uint256",
          "name": "_playerId",
          "type": "uint256"
        },
        {
          "internalType": "uint256",
          "name": "_itemId",
          "type": "uint256"
        }
      ],
      "name": "unequipBody",
      "outputs": [],
      "stateMutability": "nonpayable",
      "type": "function"
    },
    {
      "inputs": [
        {
          "internalType": "uint256",
          "name": "_playerId",
          "type": "uint256"
        },
        {
          "internalType": "uint256",
          "name": "_itemId",
          "type": "uint256"
        }
      ],
      "name": "unequipHead",
      "outputs": [],
      "stateMutability": "nonpayable",
      "type": "function"
    },
    {
      "inputs": [
        {
          "internalType": "uint256",
          "name": "_playerId",
          "type": "uint256"
        },
        {
          "internalType": "uint256",
          "name": "_itemId",
          "type": "uint256"
        }
      ],
      "name": "unequipRightHand",
      "outputs": [],
      "stateMutability": "nonpayable",
      "type": "function"
    }
  ],
  "bytecode": "0x608060405234801561001057600080fd5b5061168f806100206000396000f3fe608060405234801561001057600080fd5b50600436106100625760003560e01c80631e162a33146100675780633770f474146100835780634b391aff1461009f5780636d7c392e146100bb578063c4056b9b146100d7578063d6291341146100f3575b600080fd5b610081600480360381019061007c9190611582565b61010f565b005b61009d60048036038101906100989190611582565b610162565b005b6100b960048036038101906100b49190611582565b6101b5565b005b6100d560048036038101906100d09190611582565b610208565b005b6100f160048036038101906100ec9190611582565b61025b565b005b61010d60048036038101906101089190611582565b6102ae565b005b6101198282610301565b80823373ffffffffffffffffffffffffffffffffffffffff167f89e9fbe565d1c678f969ecb9932f195972391e7b5505a916bafebabcc98baecd60405160405180910390a45050565b61016c82826104f6565b80823373ffffffffffffffffffffffffffffffffffffffff167fcfa498c412ad33353e9cfe1838419596b8e55fab09d787fcf95baadebb07a5a860405160405180910390a45050565b6101bf82826106ea565b80823373ffffffffffffffffffffffffffffffffffffffff167fcfa498c412ad33353e9cfe1838419596b8e55fab09d787fcf95baadebb07a5a860405160405180910390a45050565b6102128282610901565b80823373ffffffffffffffffffffffffffffffffffffffff167fcfa498c412ad33353e9cfe1838419596b8e55fab09d787fcf95baadebb07a5a860405160405180910390a45050565b6102658282610af5565b80823373ffffffffffffffffffffffffffffffffffffffff167f89e9fbe565d1c678f969ecb9932f195972391e7b5505a916bafebabcc98baecd60405160405180910390a45050565b6102b88282610cea565b80823373ffffffffffffffffffffffffffffffffffffffff167f89e9fbe565d1c678f969ecb9932f195972391e7b5505a916bafebabcc98baecd60405160405180910390a45050565b600061030b610f02565b90506000610317610f2f565b90503373ffffffffffffffffffffffffffffffffffffffff1682600101600085815260200190815260200160002060009054906101000a900473ffffffffffffffffffffffffffffffffffffffff1673ffffffffffffffffffffffffffffffffffffffff161461038657600080fd5b600081600301600086815260200190815260200160002060020154146103ab57600080fd5b3373ffffffffffffffffffffffffffffffffffffffff1681600201600086815260200190815260200160002060009054906101000a900473ffffffffffffffffffffffffffffffffffffffff1673ffffffffffffffffffffffffffffffffffffffff161461041857600080fd5b6000826002016000858152602001908152602001600020600001541461043d57600080fd5b81600201600084815260200190815260200160002060050160149054906101000a900460ff161561046d57600080fd5b6000816003016000868152602001908152602001600020601201600001541461049557600080fd5b600182600201600085815260200190815260200160002060050160146101000a81548160ff02191690831515021790555082816003016000868152602001908152602001600020601201600001819055506104f08484610f5c565b50505050565b6000610500610f02565b9050600061050c610f2f565b90503373ffffffffffffffffffffffffffffffffffffffff1682600101600085815260200190815260200160002060009054906101000a900473ffffffffffffffffffffffffffffffffffffffff1673ffffffffffffffffffffffffffffffffffffffff161461057b57600080fd5b600081600301600086815260200190815260200160002060020154146105a057600080fd5b3373ffffffffffffffffffffffffffffffffffffffff1681600201600086815260200190815260200160002060009054906101000a900473ffffffffffffffffffffffffffffffffffffffff1673ffffffffffffffffffffffffffffffffffffffff161461060d57600080fd5b6000826002016000858152602001908152602001600020600001541461063257600080fd5b81600201600084815260200190815260200160002060050160149054906101000a900460ff1661066157600080fd5b82816003016000868152602001908152602001600020601201600001541461068857600080fd5b600082600201600085815260200190815260200160002060050160146101000a81548160ff0219169083151502179055506000816003016000868152602001908152602001600020601201600001819055506106e48484611224565b50505050565b60006106f4610f02565b90506000610700610f2f565b90503373ffffffffffffffffffffffffffffffffffffffff1682600101600085815260200190815260200160002060009054906101000a900473ffffffffffffffffffffffffffffffffffffffff1673ffffffffffffffffffffffffffffffffffffffff161461076f57600080fd5b6000816003016000868152602001908152602001600020600201541461079457600080fd5b3373ffffffffffffffffffffffffffffffffffffffff1681600201600086815260200190815260200160002060009054906101000a900473ffffffffffffffffffffffffffffffffffffffff1673ffffffffffffffffffffffffffffffffffffffff161461080157600080fd5b60038260020160008581526020019081526020016000206000015414806108405750600282600201600085815260200190815260200160002060000154145b61084957600080fd5b81600201600084815260200190815260200160002060050160149054906101000a900460ff1661087857600080fd5b82816003016000868152602001908152602001600020601201600301541461089f57600080fd5b600082600201600085815260200190815260200160002060050160146101000a81548160ff0219169083151502179055506000816003016000868152602001908152602001600020601201600301819055506108fb8484611224565b50505050565b600061090b610f02565b90506000610917610f2f565b90503373ffffffffffffffffffffffffffffffffffffffff1682600101600085815260200190815260200160002060009054906101000a900473ffffffffffffffffffffffffffffffffffffffff1673ffffffffffffffffffffffffffffffffffffffff161461098657600080fd5b600081600301600086815260200190815260200160002060020154146109ab57600080fd5b3373ffffffffffffffffffffffffffffffffffffffff1681600201600086815260200190815260200160002060009054906101000a900473ffffffffffffffffffffffffffffffffffffffff1673ffffffffffffffffffffffffffffffffffffffff1614610a1857600080fd5b60018260020160008581526020019081526020016000206000015414610a3d57600080fd5b81600201600084815260200190815260200160002060050160149054906101000a900460ff16610a6c57600080fd5b828160030160008681526020019081526020016000206012016001015414610a9357600080fd5b600082600201600085815260200190815260200160002060050160146101000a81548160ff021916908315150217905550600081600301600086815260200190815260200160002060120160010181905550610aef8484611224565b50505050565b6000610aff610f02565b90506000610b0b610f2f565b90503373ffffffffffffffffffffffffffffffffffffffff1682600101600085815260200190815260200160002060009054906101000a900473ffffffffffffffffffffffffffffffffffffffff1673ffffffffffffffffffffffffffffffffffffffff1614610b7a57600080fd5b60008160030160008681526020019081526020016000206002015414610b9f57600080fd5b3373ffffffffffffffffffffffffffffffffffffffff1681600201600086815260200190815260200160002060009054906101000a900473ffffffffffffffffffffffffffffffffffffffff1673ffffffffffffffffffffffffffffffffffffffff1614610c0c57600080fd5b60018260020160008581526020019081526020016000206000015414610c3157600080fd5b81600201600084815260200190815260200160002060050160149054906101000a900460ff1615610c6157600080fd5b60008160030160008681526020019081526020016000206012016001015414610c8957600080fd5b600182600201600085815260200190815260200160002060050160146101000a81548160ff0219169083151502179055508281600301600086815260200190815260200160002060120160010181905550610ce48484610f5c565b50505050565b6000610cf4610f02565b90506000610d00610f2f565b90503373ffffffffffffffffffffffffffffffffffffffff1682600101600085815260200190815260200160002060009054906101000a900473ffffffffffffffffffffffffffffffffffffffff1673ffffffffffffffffffffffffffffffffffffffff1614610d6f57600080fd5b60008160030160008681526020019081526020016000206002015414610d9457600080fd5b3373ffffffffffffffffffffffffffffffffffffffff1681600201600086815260200190815260200160002060009054906101000a900473ffffffffffffffffffffffffffffffffffffffff1673ffffffffffffffffffffffffffffffffffffffff1614610e0157600080fd5b6003826002016000858152602001908152602001600020600001541480610e405750600282600201600085815260200190815260200160002060000154145b610e4957600080fd5b81600201600084815260200190815260200160002060050160149054906101000a900460ff1615610e7957600080fd5b60008160030160008681526020019081526020016000206012016003015414610ea157600080fd5b600182600201600085815260200190815260200160002060050160146101000a81548160ff0219169083151502179055508281600301600086815260200190815260200160002060120160030181905550610efc8484610f5c565b50505050565b6000807f04526f5583fe9d24ceb7f2a6da4ee61654b9eae62f9918e0e123f84a139b105890508091505090565b6000807f3cab9a070a0c61cd0ae9d9e9e2c0781e5ca8691bec4087e5a4701d5ac018dd4e90508091505090565b6000610f66610f02565b90506000610f72610f2f565b9050600082600201600085815260200190815260200160002060030154905060008103610fe557826002016000858152602001908152602001600020600201548260030160008781526020019081526020016000206003016000828254610fd991906115f1565b9250508190555061121d565b600181036110395782600201600085815260200190815260200160002060020154826003016000878152602001908152602001600020600401600082825461102d91906115f1565b9250508190555061121c565b6002810361108d5782600201600085815260200190815260200160002060020154826003016000878152602001908152602001600020600901600082825461108191906115f1565b9250508190555061121b565b600381036110e1578260020160008581526020019081526020016000206002015482600301600087815260200190815260200160002060060160008282546110d591906115f1565b9250508190555061121a565b600481036111355782600201600085815260200190815260200160002060020154826003016000878152602001908152602001600020600e01600082825461112991906115f1565b92505081905550611219565b600581036111d05782600201600085815260200190815260200160002060020154826003016000878152602001908152602001600020600801600082825461117d91906115f1565b925050819055508260020160008581526020019081526020016000206002015482600301600087815260200190815260200160002060070160008282546111c491906115f1565b92505081905550611218565b82600201600085815260200190815260200160002060020154826003016000878152602001908152602001600020600a01600082825461121091906115f1565b925050819055505b5b5b5b5b5b5050505050565b600061122e610f02565b9050600061123a610f2f565b90506000826002016000858152602001908152602001600020600301549050600081036112ad578260020160008581526020019081526020016000206002015482600301600087815260200190815260200160002060030160008282546112a19190611625565b92505081905550611540565b60018103611301578260020160008581526020019081526020016000206002015482600301600087815260200190815260200160002060040160008282546112f59190611625565b9250508190555061153f565b60028103611355578260020160008581526020019081526020016000206002015482600301600087815260200190815260200160002060090160008282546113499190611625565b9250508190555061153e565b600381036113a95782600201600085815260200190815260200160002060020154826003016000878152602001908152602001600020600601600082825461139d9190611625565b9250508190555061153d565b600481036113fd5782600201600085815260200190815260200160002060020154826003016000878152602001908152602001600020600e0160008282546113f19190611625565b9250508190555061153c565b600581036114f3578260020160008581526020019081526020016000206002015482600301600087815260200190815260200160002060080160008282546114459190611625565b925050819055508260020160008581526020019081526020016000206002015482600301600087815260200190815260200160002060070154116114a6576000826003016000878152602001908152602001600020600701819055506114ee565b8260020160008581526020019081526020016000206002015482600301600087815260200190815260200160002060070160008282546114e69190611625565b925050819055505b61153b565b82600201600085815260200190815260200160002060020154826003016000878152602001908152602001600020600a0160008282546115339190611625565b925050819055505b5b5b5b5b5b5050505050565b600080fd5b6000819050919050565b61155f8161154c565b811461156a57600080fd5b50565b60008135905061157c81611556565b92915050565b6000806040838503121561159957611598611547565b5b60006115a78582860161156d565b92505060206115b88582860161156d565b9150509250929050565b7f4e487b7100000000000000000000000000000000000000000000000000000000600052601160045260246000fd5b60006115fc8261154c565b91506116078361154c565b925082820190508082111561161f5761161e6115c2565b5b92915050565b60006116308261154c565b915061163b8361154c565b9250828203905081811115611653576116526115c2565b5b9291505056fea26469706673582212207b3de5c5c7cc83a16948713ff12cce83e28b7c4b123d951eb39c21914d7fec5364736f6c63430008110033",
  "linkReferences": {},
  "deployedLinkReferences": {}
}