{
  "_format": "hh-sol-artifact-1",
  "contractName": "EquipFacet",
  "sourceName": "contracts/facets/EquipFacet.sol",
  "abi": [
    {
      "anonymous": false,
      "inputs": [
        {
          "indexed": true,
          "internalType": "address",
          "name": "_owner",
          "type": "address"
        },
        {
          "indexed": true,
          "internalType": "uint256",
          "name": "_playerId",
          "type": "uint256"
        },
        {
          "indexed": true,
          "internalType": "uint256",
          "name": "_equipmentId",
          "type": "uint256"
        }
      ],
      "name": "ItemEquiped",
      "type": "event"
    },
    {
      "anonymous": false,
      "inputs": [
        {
          "indexed": true,
          "internalType": "address",
          "name": "_owner",
          "type": "address"
        },
        {
          "indexed": true,
          "internalType": "uint256",
          "name": "_playerId",
          "type": "uint256"
        },
        {
          "indexed": true,
          "internalType": "uint256",
          "name": "_equipmentId",
          "type": "uint256"
        }
      ],
      "name": "ItemUnequiped",
      "type": "event"
    },
    {
      "inputs": [
        {
          "internalType": "uint256",
          "name": "_playerId",
          "type": "uint256"
        },
        {
          "internalType": "uint256",
          "name": "_equipmentId",
          "type": "uint256"
        }
      ],
      "name": "equip",
      "outputs": [],
      "stateMutability": "nonpayable",
      "type": "function"
    },
    {
      "inputs": [
        {
          "internalType": "uint256",
          "name": "_playerId",
          "type": "uint256"
        },
        {
          "internalType": "uint256",
          "name": "_equipmentId",
          "type": "uint256"
        }
      ],
      "name": "unequip",
      "outputs": [],
      "stateMutability": "nonpayable",
      "type": "function"
    }
  ],
  "bytecode": "0x608060405234801561001057600080fd5b50611f96806100206000396000f3fe608060405234801561001057600080fd5b50600436106100365760003560e01c8063282575321461003b578063b512cffe14610057575b600080fd5b61005560048036038101906100509190611e89565b610073565b005b610071600480360381019061006c9190611e89565b6100c6565b005b61007d8282610119565b80823373ffffffffffffffffffffffffffffffffffffffff167f89e9fbe565d1c678f969ecb9932f195972391e7b5505a916bafebabcc98baecd60405160405180910390a45050565b6100d082826101e2565b80823373ffffffffffffffffffffffffffffffffffffffff167fcfa498c412ad33353e9cfe1838419596b8e55fab09d787fcf95baadebb07a5a860405160405180910390a45050565b60006101236102ab565b90506000816003016000848152602001908152602001600020600201549050600081036101595761015484846102d8565b6101dc565b600181036101705761016b848461047a565b6101db565b6002810361018757610182848461061c565b6101da565b6003810361019e5761019984846107cd565b6101d9565b600481036101b5576101b0848461097e565b6101d8565b600581036101cc576101c78484610b20565b6101d7565b6101d68484610cc2565b5b5b5b5b5b5b50505050565b60006101ec6102ab565b90506000816003016000848152602001908152602001600020600201549050600081036102225761021d8484610e64565b6102a5565b60018103610239576102348484610fdd565b6102a4565b600281036102505761024b8484611156565b6102a3565b600381036102675761026284846112de565b6102a2565b6004810361027e576102798484611466565b6102a1565b600581036102955761029084846115df565b6102a0565b61029f8484611758565b5b5b5b5b5b5b50505050565b6000807faad0511195ddfb575f5187a7172ca6fc330f129a86291f15eaa5f7537ab038dc90508091505090565b60006102e26102ab565b905060006102ee6118d1565b90506000816003016000868152602001908152602001600020600201541461031557600080fd5b3373ffffffffffffffffffffffffffffffffffffffff1681600201600086815260200190815260200160002060009054906101000a900473ffffffffffffffffffffffffffffffffffffffff1673ffffffffffffffffffffffffffffffffffffffff161461038257600080fd5b600082600301600085815260200190815260200160002090508483600301600086815260200190815260200160002060060154146103bf57600080fd5b60008160020154146103d057600080fd5b8060090160009054906101000a900460ff16156103ec57600080fd5b6000826003016000878152602001908152602001600020601201600001541461041457600080fd5b600183600301600086815260200190815260200160002060090160006101000a81548160ff02191690831515021790555080600001548260030160008781526020019081526020016000206012016000018190555061047385856118fe565b5050505050565b60006104846102ab565b905060006104906118d1565b9050600081600301600086815260200190815260200160002060020154146104b757600080fd5b3373ffffffffffffffffffffffffffffffffffffffff1681600201600086815260200190815260200160002060009054906101000a900473ffffffffffffffffffffffffffffffffffffffff1673ffffffffffffffffffffffffffffffffffffffff161461052457600080fd5b6000826003016000858152602001908152602001600020905084836003016000868152602001908152602001600020600601541461056157600080fd5b600181600201541461057257600080fd5b8060090160009054906101000a900460ff161561058e57600080fd5b600082600301600087815260200190815260200160002060120160010154146105b657600080fd5b600183600301600086815260200190815260200160002060090160006101000a81548160ff02191690831515021790555080600001548260030160008781526020019081526020016000206012016001018190555061061585856118fe565b5050505050565b60006106266102ab565b905060006106326118d1565b90506000816003016000868152602001908152602001600020600201541461065957600080fd5b3373ffffffffffffffffffffffffffffffffffffffff1681600201600086815260200190815260200160002060009054906101000a900473ffffffffffffffffffffffffffffffffffffffff1673ffffffffffffffffffffffffffffffffffffffff16146106c657600080fd5b6000826003016000858152602001908152602001600020905084836003016000868152602001908152602001600020600601541461070357600080fd5b60028160020154148061071a575060038160020154145b61072357600080fd5b8060090160009054906101000a900460ff161561073f57600080fd5b6000826003016000878152602001908152602001600020601201600201541461076757600080fd5b600183600301600086815260200190815260200160002060090160006101000a81548160ff0219169083151502179055508060000154826003016000878152602001908152602001600020601201600201819055506107c685856118fe565b5050505050565b60006107d76102ab565b905060006107e36118d1565b90506000816003016000868152602001908152602001600020600201541461080a57600080fd5b3373ffffffffffffffffffffffffffffffffffffffff1681600201600086815260200190815260200160002060009054906101000a900473ffffffffffffffffffffffffffffffffffffffff1673ffffffffffffffffffffffffffffffffffffffff161461087757600080fd5b600082600301600085815260200190815260200160002090508483600301600086815260200190815260200160002060060154146108b457600080fd5b6003816002015414806108cb575060028160020154145b6108d457600080fd5b8060090160009054906101000a900460ff16156108f057600080fd5b6000826003016000878152602001908152602001600020601201600301541461091857600080fd5b600183600301600086815260200190815260200160002060090160006101000a81548160ff02191690831515021790555080600001548260030160008781526020019081526020016000206012016003018190555061097785856118fe565b5050505050565b60006109886102ab565b905060006109946118d1565b9050600081600301600086815260200190815260200160002060020154146109bb57600080fd5b3373ffffffffffffffffffffffffffffffffffffffff1681600201600086815260200190815260200160002060009054906101000a900473ffffffffffffffffffffffffffffffffffffffff1673ffffffffffffffffffffffffffffffffffffffff1614610a2857600080fd5b60008260030160008581526020019081526020016000209050848360030160008681526020019081526020016000206006015414610a6557600080fd5b6004816002015414610a7657600080fd5b8060090160009054906101000a900460ff1615610a9257600080fd5b60008260030160008781526020019081526020016000206012016004015414610aba57600080fd5b600183600301600086815260200190815260200160002060090160006101000a81548160ff021916908315150217905550806000015482600301600087815260200190815260200160002060120160040181905550610b1985856118fe565b5050505050565b6000610b2a6102ab565b90506000610b366118d1565b905060008160030160008681526020019081526020016000206002015414610b5d57600080fd5b3373ffffffffffffffffffffffffffffffffffffffff1681600201600086815260200190815260200160002060009054906101000a900473ffffffffffffffffffffffffffffffffffffffff1673ffffffffffffffffffffffffffffffffffffffff1614610bca57600080fd5b60008260030160008581526020019081526020016000209050848360030160008681526020019081526020016000206006015414610c0757600080fd5b6005816002015414610c1857600080fd5b8060090160009054906101000a900460ff1615610c3457600080fd5b60008260030160008781526020019081526020016000206012016005015414610c5c57600080fd5b600183600301600086815260200190815260200160002060090160006101000a81548160ff021916908315150217905550806000015482600301600087815260200190815260200160002060120160050181905550610cbb85856118fe565b5050505050565b6000610ccc6102ab565b90506000610cd86118d1565b905060008160030160008681526020019081526020016000206002015414610cff57600080fd5b3373ffffffffffffffffffffffffffffffffffffffff1681600201600086815260200190815260200160002060009054906101000a900473ffffffffffffffffffffffffffffffffffffffff1673ffffffffffffffffffffffffffffffffffffffff1614610d6c57600080fd5b60008260030160008581526020019081526020016000209050848360030160008681526020019081526020016000206006015414610da957600080fd5b6006816002015414610dba57600080fd5b8060090160009054906101000a900460ff1615610dd657600080fd5b60008260030160008781526020019081526020016000206012016006015414610dfe57600080fd5b600183600301600086815260200190815260200160002060090160006101000a81548160ff021916908315150217905550806000015482600301600087815260200190815260200160002060120160060181905550610e5d85856118fe565b5050505050565b6000610e6e6102ab565b90506000610e7a6118d1565b905060008160030160008681526020019081526020016000206002015414610ea157600080fd5b3373ffffffffffffffffffffffffffffffffffffffff1681600201600086815260200190815260200160002060009054906101000a900473ffffffffffffffffffffffffffffffffffffffff1673ffffffffffffffffffffffffffffffffffffffff1614610f0e57600080fd5b600082600301600085815260200190815260200160002090506000816002015414610f3857600080fd5b8060090160009054906101000a900460ff16610f5357600080fd5b838260030160008781526020019081526020016000206012016000015414610f7a57600080fd5b600083600301600086815260200190815260200160002060090160006101000a81548160ff021916908315150217905550600082600301600087815260200190815260200160002060120160000181905550610fd68585611b5f565b5050505050565b6000610fe76102ab565b90506000610ff36118d1565b90506000816003016000868152602001908152602001600020600201541461101a57600080fd5b3373ffffffffffffffffffffffffffffffffffffffff1681600201600086815260200190815260200160002060009054906101000a900473ffffffffffffffffffffffffffffffffffffffff1673ffffffffffffffffffffffffffffffffffffffff161461108757600080fd5b6000826003016000858152602001908152602001600020905060018160020154146110b157600080fd5b8060090160009054906101000a900460ff166110cc57600080fd5b8382600301600087815260200190815260200160002060120160010154146110f357600080fd5b600083600301600086815260200190815260200160002060090160006101000a81548160ff02191690831515021790555060008260030160008781526020019081526020016000206012016001018190555061114f8585611b5f565b5050505050565b60006111606102ab565b9050600061116c6118d1565b90506000816003016000868152602001908152602001600020600201541461119357600080fd5b3373ffffffffffffffffffffffffffffffffffffffff1681600201600086815260200190815260200160002060009054906101000a900473ffffffffffffffffffffffffffffffffffffffff1673ffffffffffffffffffffffffffffffffffffffff161461120057600080fd5b60008260030160008581526020019081526020016000209050600281600201541480611230575060038160020154145b61123957600080fd5b8060090160009054906101000a900460ff1661125457600080fd5b83826003016000878152602001908152602001600020601201600201541461127b57600080fd5b600083600301600086815260200190815260200160002060090160006101000a81548160ff0219169083151502179055506000826003016000878152602001908152602001600020601201600201819055506112d78585611b5f565b5050505050565b60006112e86102ab565b905060006112f46118d1565b90506000816003016000868152602001908152602001600020600201541461131b57600080fd5b3373ffffffffffffffffffffffffffffffffffffffff1681600201600086815260200190815260200160002060009054906101000a900473ffffffffffffffffffffffffffffffffffffffff1673ffffffffffffffffffffffffffffffffffffffff161461138857600080fd5b600082600301600085815260200190815260200160002090506003816002015414806113b8575060028160020154145b6113c157600080fd5b8060090160009054906101000a900460ff166113dc57600080fd5b83826003016000878152602001908152602001600020601201600301541461140357600080fd5b600083600301600086815260200190815260200160002060090160006101000a81548160ff02191690831515021790555060008260030160008781526020019081526020016000206012016003018190555061145f8585611b5f565b5050505050565b60006114706102ab565b9050600061147c6118d1565b9050600081600301600086815260200190815260200160002060020154146114a357600080fd5b3373ffffffffffffffffffffffffffffffffffffffff1681600201600086815260200190815260200160002060009054906101000a900473ffffffffffffffffffffffffffffffffffffffff1673ffffffffffffffffffffffffffffffffffffffff161461151057600080fd5b60008260030160008581526020019081526020016000209050600481600201541461153a57600080fd5b8060090160009054906101000a900460ff1661155557600080fd5b83826003016000878152602001908152602001600020601201600401541461157c57600080fd5b600083600301600086815260200190815260200160002060090160006101000a81548160ff0219169083151502179055506000826003016000878152602001908152602001600020601201600401819055506115d88585611b5f565b5050505050565b60006115e96102ab565b905060006115f56118d1565b90506000816003016000868152602001908152602001600020600201541461161c57600080fd5b3373ffffffffffffffffffffffffffffffffffffffff1681600201600086815260200190815260200160002060009054906101000a900473ffffffffffffffffffffffffffffffffffffffff1673ffffffffffffffffffffffffffffffffffffffff161461168957600080fd5b6000826003016000858152602001908152602001600020905060058160020154146116b357600080fd5b8060090160009054906101000a900460ff166116ce57600080fd5b8382600301600087815260200190815260200160002060120160050154146116f557600080fd5b600083600301600086815260200190815260200160002060090160006101000a81548160ff0219169083151502179055506000826003016000878152602001908152602001600020601201600501819055506117518585611b5f565b5050505050565b60006117626102ab565b9050600061176e6118d1565b90506000816003016000868152602001908152602001600020600201541461179557600080fd5b3373ffffffffffffffffffffffffffffffffffffffff1681600201600086815260200190815260200160002060009054906101000a900473ffffffffffffffffffffffffffffffffffffffff1673ffffffffffffffffffffffffffffffffffffffff161461180257600080fd5b60008260030160008581526020019081526020016000209050600681600201541461182c57600080fd5b8060090160009054906101000a900460ff1661184757600080fd5b83826003016000878152602001908152602001600020601201600601541461186e57600080fd5b600083600301600086815260200190815260200160002060090160006101000a81548160ff0219169083151502179055506000826003016000878152602001908152602001600020601201600601819055506118ca8585611b5f565b5050505050565b6000807f3cab9a070a0c61cd0ae9d9e9e2c0781e5ca8691bec4087e5a4701d5ac018dd4e90508091505090565b60006119086102ab565b905060006119146118d1565b90506000826003016000858152602001908152602001600020905060008160050154905060008103611978578160040154836003016000888152602001908152602001600020600301600082825461196c9190611ef8565b92505081905550611b57565b600181036119eb57816004015483600301600088815260200190815260200160002060040160008282546119ac9190611ef8565b92505081905550816004015483600301600088815260200190815260200160002060050160008282546119df9190611ef8565b92505081905550611b56565b60028103611a2b5781600401548360030160008881526020019081526020016000206009016000828254611a1f9190611ef8565b92505081905550611b55565b60038103611a6b5781600401548360030160008881526020019081526020016000206006016000828254611a5f9190611ef8565b92505081905550611b54565b60048103611aab578160040154836003016000888152602001908152602001600020600e016000828254611a9f9190611ef8565b92505081905550611b53565b60058103611b1e5781600401548360030160008881526020019081526020016000206008016000828254611adf9190611ef8565b9250508190555081600401548360030160008881526020019081526020016000206007016000828254611b129190611ef8565b92505081905550611b52565b8160040154836003016000888152602001908152602001600020600a016000828254611b4a9190611ef8565b925050819055505b5b5b5b5b5b505050505050565b6000611b696102ab565b90506000611b756118d1565b90506000826003016000858152602001908152602001600020905060008160050154905060008103611bd95781600401548360030160008881526020019081526020016000206003016000828254611bcd9190611f2c565b92505081905550611e46565b60018103611c935781600401548360030160008881526020019081526020016000206004016000828254611c0d9190611f2c565b9250508190555081600401548360030160008881526020019081526020016000206005015411611c5a57600083600301600088815260200190815260200160002060050181905550611c8e565b81600401548360030160008881526020019081526020016000206005016000828254611c869190611f2c565b925050819055505b611e45565b60028103611cd35781600401548360030160008881526020019081526020016000206009016000828254611cc79190611f2c565b92505081905550611e44565b60038103611d135781600401548360030160008881526020019081526020016000206006016000828254611d079190611f2c565b92505081905550611e43565b60048103611d53578160040154836003016000888152602001908152602001600020600e016000828254611d479190611f2c565b92505081905550611e42565b60058103611e0d5781600401548360030160008881526020019081526020016000206008016000828254611d879190611f2c565b9250508190555081600401548360030160008881526020019081526020016000206007015411611dd457600083600301600088815260200190815260200160002060070181905550611e08565b81600401548360030160008881526020019081526020016000206007016000828254611e009190611f2c565b925050819055505b611e41565b8160040154836003016000888152602001908152602001600020600a016000828254611e399190611f2c565b925050819055505b5b5b5b5b5b505050505050565b600080fd5b6000819050919050565b611e6681611e53565b8114611e7157600080fd5b50565b600081359050611e8381611e5d565b92915050565b60008060408385031215611ea057611e9f611e4e565b5b6000611eae85828601611e74565b9250506020611ebf85828601611e74565b9150509250929050565b7f4e487b7100000000000000000000000000000000000000000000000000000000600052601160045260246000fd5b6000611f0382611e53565b9150611f0e83611e53565b9250828201905080821115611f2657611f25611ec9565b5b92915050565b6000611f3782611e53565b9150611f4283611e53565b9250828203905081811115611f5a57611f59611ec9565b5b9291505056fea26469706673582212207dc95a7db93fe80797be371b98121699b94b24e4d382d6681c459e91370331c064736f6c63430008120033",
  "linkReferences": {},
  "deployedLinkReferences": {}
}