{
  "_format": "hh-sol-artifact-1",
  "contractName": "EquipFacet",
  "sourceName": "contracts/facets/EquipFacet.sol",
  "abi": [
    {
      "anonymous": false,
      "inputs": [
        {
          "indexed": true,
          "internalType": "address",
          "name": "_owner",
          "type": "address"
        },
        {
          "indexed": true,
          "internalType": "uint256",
          "name": "_playerId",
          "type": "uint256"
        },
        {
          "indexed": true,
          "internalType": "uint256",
          "name": "_equipmentId",
          "type": "uint256"
        }
      ],
      "name": "ItemEquiped",
      "type": "event"
    },
    {
      "anonymous": false,
      "inputs": [
        {
          "indexed": true,
          "internalType": "address",
          "name": "_owner",
          "type": "address"
        },
        {
          "indexed": true,
          "internalType": "uint256",
          "name": "_playerId",
          "type": "uint256"
        },
        {
          "indexed": true,
          "internalType": "uint256",
          "name": "_equipmentId",
          "type": "uint256"
        }
      ],
      "name": "ItemUnequiped",
      "type": "event"
    },
    {
      "inputs": [
        {
          "internalType": "uint256",
          "name": "_playerId",
          "type": "uint256"
        },
        {
          "internalType": "uint256",
          "name": "_equipmentId",
          "type": "uint256"
        }
      ],
      "name": "equip",
      "outputs": [],
      "stateMutability": "nonpayable",
      "type": "function"
    },
    {
      "inputs": [
        {
          "internalType": "uint256",
          "name": "_playerId",
          "type": "uint256"
        },
        {
          "internalType": "uint256",
          "name": "_equipmentId",
          "type": "uint256"
        }
      ],
      "name": "unequip",
      "outputs": [],
      "stateMutability": "nonpayable",
      "type": "function"
    }
  ],
  "bytecode": "0x608060405234801561001057600080fd5b50611f5a806100206000396000f3fe608060405234801561001057600080fd5b50600436106100365760003560e01c8063282575321461003b578063b512cffe14610057575b600080fd5b61005560048036038101906100509190611e4d565b610073565b005b610071600480360381019061006c9190611e4d565b6100c6565b005b61007d8282610119565b80823373ffffffffffffffffffffffffffffffffffffffff167f89e9fbe565d1c678f969ecb9932f195972391e7b5505a916bafebabcc98baecd60405160405180910390a45050565b6100d082826101e2565b80823373ffffffffffffffffffffffffffffffffffffffff167fcfa498c412ad33353e9cfe1838419596b8e55fab09d787fcf95baadebb07a5a860405160405180910390a45050565b60006101236102ab565b90506000816003016000848152602001908152602001600020600201549050600081036101595761015484846102d8565b6101dc565b600181036101705761016b848461047a565b6101db565b6002810361018757610182848461061c565b6101da565b6003810361019e5761019984846107be565b6101d9565b600481036101b5576101b08484610960565b6101d8565b600581036101cc576101c78484610b02565b6101d7565b6101d68484610ca4565b5b5b5b5b5b5b50505050565b60006101ec6102ab565b90506000816003016000848152602001908152602001600020600201549050600081036102225761021d8484610e46565b6102a5565b60018103610239576102348484610fbf565b6102a4565b600281036102505761024b8484611138565b6102a3565b600381036102675761026284846112b1565b6102a2565b6004810361027e57610279848461142a565b6102a1565b600581036102955761029084846115a3565b6102a0565b61029f848461171c565b5b5b5b5b5b5b50505050565b6000807faad0511195ddfb575f5187a7172ca6fc330f129a86291f15eaa5f7537ab038dc90508091505090565b60006102e26102ab565b905060006102ee611895565b90506000816003016000868152602001908152602001600020600201541461031557600080fd5b3373ffffffffffffffffffffffffffffffffffffffff1681600201600086815260200190815260200160002060009054906101000a900473ffffffffffffffffffffffffffffffffffffffff1673ffffffffffffffffffffffffffffffffffffffff161461038257600080fd5b600082600301600085815260200190815260200160002090508483600301600086815260200190815260200160002060060154146103bf57600080fd5b60008160020154146103d057600080fd5b8060090160009054906101000a900460ff16156103ec57600080fd5b6000826003016000878152602001908152602001600020601201600001541461041457600080fd5b600183600301600086815260200190815260200160002060090160006101000a81548160ff02191690831515021790555080600001548260030160008781526020019081526020016000206012016000018190555061047385856118c2565b5050505050565b60006104846102ab565b90506000610490611895565b9050600081600301600086815260200190815260200160002060020154146104b757600080fd5b3373ffffffffffffffffffffffffffffffffffffffff1681600201600086815260200190815260200160002060009054906101000a900473ffffffffffffffffffffffffffffffffffffffff1673ffffffffffffffffffffffffffffffffffffffff161461052457600080fd5b6000826003016000858152602001908152602001600020905084836003016000868152602001908152602001600020600601541461056157600080fd5b600181600201541461057257600080fd5b8060090160009054906101000a900460ff161561058e57600080fd5b600082600301600087815260200190815260200160002060120160010154146105b657600080fd5b600183600301600086815260200190815260200160002060090160006101000a81548160ff02191690831515021790555080600001548260030160008781526020019081526020016000206012016001018190555061061585856118c2565b5050505050565b60006106266102ab565b90506000610632611895565b90506000816003016000868152602001908152602001600020600201541461065957600080fd5b3373ffffffffffffffffffffffffffffffffffffffff1681600201600086815260200190815260200160002060009054906101000a900473ffffffffffffffffffffffffffffffffffffffff1673ffffffffffffffffffffffffffffffffffffffff16146106c657600080fd5b6000826003016000858152602001908152602001600020905084836003016000868152602001908152602001600020600601541461070357600080fd5b600281600201541461071457600080fd5b8060090160009054906101000a900460ff161561073057600080fd5b6000826003016000878152602001908152602001600020601201600201541461075857600080fd5b600183600301600086815260200190815260200160002060090160006101000a81548160ff0219169083151502179055508060000154826003016000878152602001908152602001600020601201600201819055506107b785856118c2565b5050505050565b60006107c86102ab565b905060006107d4611895565b9050600081600301600086815260200190815260200160002060020154146107fb57600080fd5b3373ffffffffffffffffffffffffffffffffffffffff1681600201600086815260200190815260200160002060009054906101000a900473ffffffffffffffffffffffffffffffffffffffff1673ffffffffffffffffffffffffffffffffffffffff161461086857600080fd5b600082600301600085815260200190815260200160002090508483600301600086815260200190815260200160002060060154146108a557600080fd5b60038160020154146108b657600080fd5b8060090160009054906101000a900460ff16156108d257600080fd5b600082600301600087815260200190815260200160002060120160030154146108fa57600080fd5b600183600301600086815260200190815260200160002060090160006101000a81548160ff02191690831515021790555080600001548260030160008781526020019081526020016000206012016003018190555061095985856118c2565b5050505050565b600061096a6102ab565b90506000610976611895565b90506000816003016000868152602001908152602001600020600201541461099d57600080fd5b3373ffffffffffffffffffffffffffffffffffffffff1681600201600086815260200190815260200160002060009054906101000a900473ffffffffffffffffffffffffffffffffffffffff1673ffffffffffffffffffffffffffffffffffffffff1614610a0a57600080fd5b60008260030160008581526020019081526020016000209050848360030160008681526020019081526020016000206006015414610a4757600080fd5b6004816002015414610a5857600080fd5b8060090160009054906101000a900460ff1615610a7457600080fd5b60008260030160008781526020019081526020016000206012016004015414610a9c57600080fd5b600183600301600086815260200190815260200160002060090160006101000a81548160ff021916908315150217905550806000015482600301600087815260200190815260200160002060120160040181905550610afb85856118c2565b5050505050565b6000610b0c6102ab565b90506000610b18611895565b905060008160030160008681526020019081526020016000206002015414610b3f57600080fd5b3373ffffffffffffffffffffffffffffffffffffffff1681600201600086815260200190815260200160002060009054906101000a900473ffffffffffffffffffffffffffffffffffffffff1673ffffffffffffffffffffffffffffffffffffffff1614610bac57600080fd5b60008260030160008581526020019081526020016000209050848360030160008681526020019081526020016000206006015414610be957600080fd5b6005816002015414610bfa57600080fd5b8060090160009054906101000a900460ff1615610c1657600080fd5b60008260030160008781526020019081526020016000206012016005015414610c3e57600080fd5b600183600301600086815260200190815260200160002060090160006101000a81548160ff021916908315150217905550806000015482600301600087815260200190815260200160002060120160050181905550610c9d85856118c2565b5050505050565b6000610cae6102ab565b90506000610cba611895565b905060008160030160008681526020019081526020016000206002015414610ce157600080fd5b3373ffffffffffffffffffffffffffffffffffffffff1681600201600086815260200190815260200160002060009054906101000a900473ffffffffffffffffffffffffffffffffffffffff1673ffffffffffffffffffffffffffffffffffffffff1614610d4e57600080fd5b60008260030160008581526020019081526020016000209050848360030160008681526020019081526020016000206006015414610d8b57600080fd5b6006816002015414610d9c57600080fd5b8060090160009054906101000a900460ff1615610db857600080fd5b60008260030160008781526020019081526020016000206012016006015414610de057600080fd5b600183600301600086815260200190815260200160002060090160006101000a81548160ff021916908315150217905550806000015482600301600087815260200190815260200160002060120160060181905550610e3f85856118c2565b5050505050565b6000610e506102ab565b90506000610e5c611895565b905060008160030160008681526020019081526020016000206002015414610e8357600080fd5b3373ffffffffffffffffffffffffffffffffffffffff1681600201600086815260200190815260200160002060009054906101000a900473ffffffffffffffffffffffffffffffffffffffff1673ffffffffffffffffffffffffffffffffffffffff1614610ef057600080fd5b600082600301600085815260200190815260200160002090506000816002015414610f1a57600080fd5b8060090160009054906101000a900460ff16610f3557600080fd5b838260030160008781526020019081526020016000206012016000015414610f5c57600080fd5b600083600301600086815260200190815260200160002060090160006101000a81548160ff021916908315150217905550600082600301600087815260200190815260200160002060120160000181905550610fb88585611b23565b5050505050565b6000610fc96102ab565b90506000610fd5611895565b905060008160030160008681526020019081526020016000206002015414610ffc57600080fd5b3373ffffffffffffffffffffffffffffffffffffffff1681600201600086815260200190815260200160002060009054906101000a900473ffffffffffffffffffffffffffffffffffffffff1673ffffffffffffffffffffffffffffffffffffffff161461106957600080fd5b60008260030160008581526020019081526020016000209050600181600201541461109357600080fd5b8060090160009054906101000a900460ff166110ae57600080fd5b8382600301600087815260200190815260200160002060120160010154146110d557600080fd5b600083600301600086815260200190815260200160002060090160006101000a81548160ff0219169083151502179055506000826003016000878152602001908152602001600020601201600101819055506111318585611b23565b5050505050565b60006111426102ab565b9050600061114e611895565b90506000816003016000868152602001908152602001600020600201541461117557600080fd5b3373ffffffffffffffffffffffffffffffffffffffff1681600201600086815260200190815260200160002060009054906101000a900473ffffffffffffffffffffffffffffffffffffffff1673ffffffffffffffffffffffffffffffffffffffff16146111e257600080fd5b60008260030160008581526020019081526020016000209050600281600201541461120c57600080fd5b8060090160009054906101000a900460ff1661122757600080fd5b83826003016000878152602001908152602001600020601201600201541461124e57600080fd5b600083600301600086815260200190815260200160002060090160006101000a81548160ff0219169083151502179055506000826003016000878152602001908152602001600020601201600201819055506112aa8585611b23565b5050505050565b60006112bb6102ab565b905060006112c7611895565b9050600081600301600086815260200190815260200160002060020154146112ee57600080fd5b3373ffffffffffffffffffffffffffffffffffffffff1681600201600086815260200190815260200160002060009054906101000a900473ffffffffffffffffffffffffffffffffffffffff1673ffffffffffffffffffffffffffffffffffffffff161461135b57600080fd5b60008260030160008581526020019081526020016000209050600381600201541461138557600080fd5b8060090160009054906101000a900460ff166113a057600080fd5b8382600301600087815260200190815260200160002060120160030154146113c757600080fd5b600083600301600086815260200190815260200160002060090160006101000a81548160ff0219169083151502179055506000826003016000878152602001908152602001600020601201600301819055506114238585611b23565b5050505050565b60006114346102ab565b90506000611440611895565b90506000816003016000868152602001908152602001600020600201541461146757600080fd5b3373ffffffffffffffffffffffffffffffffffffffff1681600201600086815260200190815260200160002060009054906101000a900473ffffffffffffffffffffffffffffffffffffffff1673ffffffffffffffffffffffffffffffffffffffff16146114d457600080fd5b6000826003016000858152602001908152602001600020905060048160020154146114fe57600080fd5b8060090160009054906101000a900460ff1661151957600080fd5b83826003016000878152602001908152602001600020601201600401541461154057600080fd5b600083600301600086815260200190815260200160002060090160006101000a81548160ff02191690831515021790555060008260030160008781526020019081526020016000206012016004018190555061159c8585611b23565b5050505050565b60006115ad6102ab565b905060006115b9611895565b9050600081600301600086815260200190815260200160002060020154146115e057600080fd5b3373ffffffffffffffffffffffffffffffffffffffff1681600201600086815260200190815260200160002060009054906101000a900473ffffffffffffffffffffffffffffffffffffffff1673ffffffffffffffffffffffffffffffffffffffff161461164d57600080fd5b60008260030160008581526020019081526020016000209050600581600201541461167757600080fd5b8060090160009054906101000a900460ff1661169257600080fd5b8382600301600087815260200190815260200160002060120160050154146116b957600080fd5b600083600301600086815260200190815260200160002060090160006101000a81548160ff0219169083151502179055506000826003016000878152602001908152602001600020601201600501819055506117158585611b23565b5050505050565b60006117266102ab565b90506000611732611895565b90506000816003016000868152602001908152602001600020600201541461175957600080fd5b3373ffffffffffffffffffffffffffffffffffffffff1681600201600086815260200190815260200160002060009054906101000a900473ffffffffffffffffffffffffffffffffffffffff1673ffffffffffffffffffffffffffffffffffffffff16146117c657600080fd5b6000826003016000858152602001908152602001600020905060068160020154146117f057600080fd5b8060090160009054906101000a900460ff1661180b57600080fd5b83826003016000878152602001908152602001600020601201600601541461183257600080fd5b600083600301600086815260200190815260200160002060090160006101000a81548160ff02191690831515021790555060008260030160008781526020019081526020016000206012016006018190555061188e8585611b23565b5050505050565b6000807f3cab9a070a0c61cd0ae9d9e9e2c0781e5ca8691bec4087e5a4701d5ac018dd4e90508091505090565b60006118cc6102ab565b905060006118d8611895565b9050600082600301600085815260200190815260200160002090506000816005015490506000810361193c57816004015483600301600088815260200190815260200160002060030160008282546119309190611ebc565b92505081905550611b1b565b600181036119af57816004015483600301600088815260200190815260200160002060040160008282546119709190611ebc565b92505081905550816004015483600301600088815260200190815260200160002060050160008282546119a39190611ebc565b92505081905550611b1a565b600281036119ef57816004015483600301600088815260200190815260200160002060090160008282546119e39190611ebc565b92505081905550611b19565b60038103611a2f5781600401548360030160008881526020019081526020016000206006016000828254611a239190611ebc565b92505081905550611b18565b60048103611a6f578160040154836003016000888152602001908152602001600020600e016000828254611a639190611ebc565b92505081905550611b17565b60058103611ae25781600401548360030160008881526020019081526020016000206008016000828254611aa39190611ebc565b9250508190555081600401548360030160008881526020019081526020016000206007016000828254611ad69190611ebc565b92505081905550611b16565b8160040154836003016000888152602001908152602001600020600a016000828254611b0e9190611ebc565b925050819055505b5b5b5b5b5b505050505050565b6000611b2d6102ab565b90506000611b39611895565b90506000826003016000858152602001908152602001600020905060008160050154905060008103611b9d5781600401548360030160008881526020019081526020016000206003016000828254611b919190611ef0565b92505081905550611e0a565b60018103611c575781600401548360030160008881526020019081526020016000206004016000828254611bd19190611ef0565b9250508190555081600401548360030160008881526020019081526020016000206005015411611c1e57600083600301600088815260200190815260200160002060050181905550611c52565b81600401548360030160008881526020019081526020016000206005016000828254611c4a9190611ef0565b925050819055505b611e09565b60028103611c975781600401548360030160008881526020019081526020016000206009016000828254611c8b9190611ef0565b92505081905550611e08565b60038103611cd75781600401548360030160008881526020019081526020016000206006016000828254611ccb9190611ef0565b92505081905550611e07565b60048103611d17578160040154836003016000888152602001908152602001600020600e016000828254611d0b9190611ef0565b92505081905550611e06565b60058103611dd15781600401548360030160008881526020019081526020016000206008016000828254611d4b9190611ef0565b9250508190555081600401548360030160008881526020019081526020016000206007015411611d9857600083600301600088815260200190815260200160002060070181905550611dcc565b81600401548360030160008881526020019081526020016000206007016000828254611dc49190611ef0565b925050819055505b611e05565b8160040154836003016000888152602001908152602001600020600a016000828254611dfd9190611ef0565b925050819055505b5b5b5b5b5b505050505050565b600080fd5b6000819050919050565b611e2a81611e17565b8114611e3557600080fd5b50565b600081359050611e4781611e21565b92915050565b60008060408385031215611e6457611e63611e12565b5b6000611e7285828601611e38565b9250506020611e8385828601611e38565b9150509250929050565b7f4e487b7100000000000000000000000000000000000000000000000000000000600052601160045260246000fd5b6000611ec782611e17565b9150611ed283611e17565b9250828201905080821115611eea57611ee9611e8d565b5b92915050565b6000611efb82611e17565b9150611f0683611e17565b9250828203905081811115611f1e57611f1d611e8d565b5b9291505056fea2646970667358221220db315fff82e0f97aec222683c6136ce9b3f34cb8795c7d0eecf542194c28b9db64736f6c63430008120033",
  "linkReferences": {},
  "deployedLinkReferences": {}
}