{
  "_format": "hh-sol-artifact-1",
  "contractName": "DiamondInit",
  "sourceName": "contracts/upgradeInitializers/DiamondInit.sol",
  "abi": [
    {
      "inputs": [],
      "name": "init",
      "outputs": [],
      "stateMutability": "nonpayable",
      "type": "function"
    }
  ],
  "bytecode": "0x608060405234801561001057600080fd5b506109a9806100206000396000f3fe608060405234801561001057600080fd5b506004361061002b5760003560e01c8063e1c7392a14610030575b600080fd5b61003861003a565b005b6040518060400160405280601481526020017f4f6d6e694b696e67646f6d7320506c617965727300000000000000000000000081525061007861043b565b600601908161008791906106e5565b506040518060400160405280600381526020017f4f4b5000000000000000000000000000000000000000000000000000000000008152506100c661043b565b60070190816100d591906106e5565b506040518060800160405280604a81526020016107b8604a91396100f761043b565b600c01908161010691906106e5565b506040518060800160405280604a815260200161084c604a913961012861043b565b600d01908161013791906106e5565b506040518060800160405280604a81526020016108e0604a913961015961043b565b600e01908161016891906106e5565b506040518060800160405280604a8152602001610896604a913961018a61043b565b600f01908161019991906106e5565b506040518060800160405280604a815260200161092a604a91396101bb61043b565b60100190816101ca91906106e5565b506040518060800160405280604a8152602001610802604a91396101ec61043b565b60110190816101fb91906106e5565b506000610206610468565b905060018160020160007f01ffc9a7000000000000000000000000000000000000000000000000000000007bffffffffffffffffffffffffffffffffffffffffffffffffffffffff19167bffffffffffffffffffffffffffffffffffffffffffffffffffffffff1916815260200190815260200160002060006101000a81548160ff02191690831515021790555060018160020160007f1f931c1c000000000000000000000000000000000000000000000000000000007bffffffffffffffffffffffffffffffffffffffffffffffffffffffff19167bffffffffffffffffffffffffffffffffffffffffffffffffffffffff1916815260200190815260200160002060006101000a81548160ff02191690831515021790555060018160020160007f48e2b093000000000000000000000000000000000000000000000000000000007bffffffffffffffffffffffffffffffffffffffffffffffffffffffff19167bffffffffffffffffffffffffffffffffffffffffffffffffffffffff1916815260200190815260200160002060006101000a81548160ff02191690831515021790555060018160020160007f7f5828d0000000000000000000000000000000000000000000000000000000007bffffffffffffffffffffffffffffffffffffffffffffffffffffffff19167bffffffffffffffffffffffffffffffffffffffffffffffffffffffff1916815260200190815260200160002060006101000a81548160ff02191690831515021790555050565b6000807f2569078dfb4b0305704d3008e7403993ae9601b85f7ae5e742de3de8f8011c4090508091505090565b6000807fc8fcad8db84d3cc18b4c41d551ea0ee66dd599cde068d998e57d5e09332c131c90508091505090565b600081519050919050565b7f4e487b7100000000000000000000000000000000000000000000000000000000600052604160045260246000fd5b7f4e487b7100000000000000000000000000000000000000000000000000000000600052602260045260246000fd5b6000600282049050600182168061051657607f821691505b602082108103610529576105286104cf565b5b50919050565b60008190508160005260206000209050919050565b60006020601f8301049050919050565b600082821b905092915050565b6000600883026105917fffffffffffffffffffffffffffffffffffffffffffffffffffffffffffffffff82610554565b61059b8683610554565b95508019841693508086168417925050509392505050565b6000819050919050565b6000819050919050565b60006105e26105dd6105d8846105b3565b6105bd565b6105b3565b9050919050565b6000819050919050565b6105fc836105c7565b610610610608826105e9565b848454610561565b825550505050565b600090565b610625610618565b6106308184846105f3565b505050565b5b818110156106545761064960008261061d565b600181019050610636565b5050565b601f8211156106995761066a8161052f565b61067384610544565b81016020851015610682578190505b61069661068e85610544565b830182610635565b50505b505050565b600082821c905092915050565b60006106bc6000198460080261069e565b1980831691505092915050565b60006106d583836106ab565b9150826002028217905092915050565b6106ee82610495565b67ffffffffffffffff811115610707576107066104a0565b5b61071182546104fe565b61071c828285610658565b600060209050601f83116001811461074f576000841561073d578287015190505b61074785826106c9565b8655506107af565b601f19841661075d8661052f565b60005b8281101561078557848901518255600182019150602085019450602081019050610760565b868310156107a2578489015161079e601f8916826106ab565b8355505b6001600288020188555050505b50505050505056fe68747470733a2f2f696e667572612d697066732e696f2f697066732f516d56357053734d47474d4c5733593979513871534c534d4451616b646e6a686a53346b356865366d4a7950654868747470733a2f2f696e667572612d697066732e696f2f697066732f516d625641427439734b704e55613844674d4a64653344424351796f72534354395631447a6436634a385a556d5068747470733a2f2f696e667572612d697066732e696f2f697066732f516d66424e4870787077554e67747736695842784b584c6256786f6d386d7064427367715a5a79353970524d354368747470733a2f2f696e667572612d697066732e696f2f697066732f516d55715a4b5275646e616e673147586244326e4848776d4a664e4e42465156646d6f483857416e65616969356868747470733a2f2f696e667572612d697066732e696f2f697066732f516d5158655965397278526b6b716645423744725a52534732533179724e676a363456386d3676374b65747a516468747470733a2f2f696e667572612d697066732e696f2f697066732f516d556257785564387358344d5a6f6a4b455255506d507539597441596659726f425334546531484a454b756379a264697066735822122024c9fbd2e0c908fbe2a2b96f04e0c86ecadc5acef01f25a015da7767bbd6f14c64736f6c63430008110033",
  "linkReferences": {},
  "deployedLinkReferences": {}
}