{
  "_format": "hh-sol-artifact-1",
  "contractName": "MonsterFacet",
  "sourceName": "contracts/facets/MonsterFacet.sol",
  "abi": [
    {
      "anonymous": false,
      "inputs": [
        {
          "indexed": true,
          "internalType": "uint256",
          "name": "_monsterId",
          "type": "uint256"
        }
      ],
      "name": "CreateBasicMonster",
      "type": "event"
    },
    {
      "anonymous": false,
      "inputs": [
        {
          "indexed": true,
          "internalType": "uint256",
          "name": "_playerId",
          "type": "uint256"
        }
      ],
      "name": "DragonQuest",
      "type": "event"
    },
    {
      "anonymous": false,
      "inputs": [
        {
          "indexed": true,
          "internalType": "uint256",
          "name": "_monsterId",
          "type": "uint256"
        },
        {
          "indexed": false,
          "internalType": "uint256",
          "name": "_playerId",
          "type": "uint256"
        }
      ],
      "name": "FightBasicMonster",
      "type": "event"
    },
    {
      "inputs": [
        {
          "internalType": "uint256",
          "name": "_xpReward",
          "type": "uint256"
        },
        {
          "internalType": "uint256",
          "name": "_damage",
          "type": "uint256"
        },
        {
          "internalType": "uint256",
          "name": "_hp",
          "type": "uint256"
        },
        {
          "internalType": "uint256",
          "name": "_cooldown",
          "type": "uint256"
        },
        {
          "internalType": "string",
          "name": "_name",
          "type": "string"
        },
        {
          "internalType": "string",
          "name": "_uri",
          "type": "string"
        }
      ],
      "name": "createBasicMonster",
      "outputs": [],
      "stateMutability": "nonpayable",
      "type": "function"
    },
    {
      "inputs": [
        {
          "internalType": "uint256",
          "name": "_playerId",
          "type": "uint256"
        },
        {
          "internalType": "uint256",
          "name": "_monsterId",
          "type": "uint256"
        }
      ],
      "name": "fightBasicMonster",
      "outputs": [],
      "stateMutability": "nonpayable",
      "type": "function"
    },
    {
      "inputs": [
        {
          "internalType": "uint256",
          "name": "_monsterId",
          "type": "uint256"
        }
      ],
      "name": "getBasicMonster",
      "outputs": [
        {
          "components": [
            {
              "internalType": "uint256",
              "name": "basicMonsterId",
              "type": "uint256"
            },
            {
              "internalType": "uint256",
              "name": "xpReward",
              "type": "uint256"
            },
            {
              "internalType": "uint256",
              "name": "damage",
              "type": "uint256"
            },
            {
              "internalType": "uint256",
              "name": "hp",
              "type": "uint256"
            },
            {
              "internalType": "uint256",
              "name": "cooldown",
              "type": "uint256"
            },
            {
              "internalType": "string",
              "name": "name",
              "type": "string"
            },
            {
              "internalType": "string",
              "name": "uri",
              "type": "string"
            }
          ],
          "internalType": "struct BasicMonster",
          "name": "",
          "type": "tuple"
        }
      ],
      "stateMutability": "view",
      "type": "function"
    },
    {
      "inputs": [
        {
          "internalType": "uint256",
          "name": "_playerId",
          "type": "uint256"
        },
        {
          "internalType": "uint256",
          "name": "_monsterId",
          "type": "uint256"
        }
      ],
      "name": "getBasicMonsterCooldown",
      "outputs": [
        {
          "internalType": "uint256",
          "name": "",
          "type": "uint256"
        }
      ],
      "stateMutability": "view",
      "type": "function"
    },
    {
      "inputs": [],
      "name": "getMonsterCounter",
      "outputs": [
        {
          "internalType": "uint256",
          "name": "",
          "type": "uint256"
        }
      ],
      "stateMutability": "view",
      "type": "function"
    }
  ],
  "bytecode": "0x608060405234801561001057600080fd5b50611265806100206000396000f3fe608060405234801561001057600080fd5b50600436106100575760003560e01c806315e840d71461005c5780634b3564c81461008c578063874e59a8146100a8578063fc2875d4146100d8578063fda30d4c146100f4575b600080fd5b61007660048036038101906100719190610934565b610112565b6040516100839190610983565b60405180910390f35b6100a660048036038101906100a19190610ae4565b610126565b005b6100c260048036038101906100bd9190610ba9565b610170565b6040516100cf9190610d07565b60405180910390f35b6100f260048036038101906100ed9190610934565b610188565b005b6100fc6101ce565b6040516101099190610983565b60405180910390f35b600061011e83836101dd565b905092915050565b61013486868686868661021a565b61013c6102fa565b7f856d040967b09806c1357161c96c37bd00e1ddf47865abb6b6bc96b15edc1e3960405160405180910390a2505050505050565b6101786108ad565b61018182610312565b9050919050565b61019282826104a4565b807fac9c0073f52a3b08821048912ffb937aaac393618f0474f2ef7960ed035c3d30836040516101c29190610983565b60405180910390a25050565b60006101d86102fa565b905090565b6000806101e8610853565b905080600201600084815260200190815260200160002060008581526020019081526020016000205491505092915050565b6000610224610853565b905080600001600081548092919061023b90610d58565b91905055506040518060e00160405280826000015481526020018881526020018781526020018681526020018581526020018481526020018381525081600301600083600001548152602001908152602001600020600082015181600001556020820151816001015560408201518160020155606082015181600301556080820151816004015560a08201518160050190816102d79190610fac565b5060c08201518160060190816102ed9190610fac565b5090505050505050505050565b600080610305610853565b9050806000015491505090565b61031a6108ad565b6000610324610853565b90508060030160008481526020019081526020016000206040518060e0016040529081600082015481526020016001820154815260200160028201548152602001600382015481526020016004820154815260200160058201805461038890610dcf565b80601f01602080910402602001604051908101604052809291908181526020018280546103b490610dcf565b80156104015780601f106103d657610100808354040283529160200191610401565b820191906000526020600020905b8154815290600101906020018083116103e457829003601f168201915b5050505050815260200160068201805461041a90610dcf565b80601f016020809104026020016040519081016040528092919081815260200182805461044690610dcf565b80156104935780601f1061046857610100808354040283529160200191610493565b820191906000526020600020905b81548152906001019060200180831161047657829003601f168201915b505050505081525050915050919050565b60006104ae610853565b905060006104ba610880565b9050600081600301600086815260200190815260200160002060020154146104e157600080fd5b3373ffffffffffffffffffffffffffffffffffffffff1681600201600086815260200190815260200160002060009054906101000a900473ffffffffffffffffffffffffffffffffffffffff1673ffffffffffffffffffffffffffffffffffffffff161461054e57600080fd5b600082600301600085815260200190815260200160002060020154826003016000878152602001908152602001600020600e015410156105d8576001826003016000878152602001908152602001600020600e0154846003016000878152602001908152602001600020600201546105c6919061107e565b6105d091906110b2565b9050806105de565b60019050805b50808260030160008781526020019081526020016000206005015411610639576040517f08c379a000000000000000000000000000000000000000000000000000000000815260040161063090611143565b60405180910390fd5b60006002846003016000878152602001908152602001600020600401546106609190611192565b8360030160008881526020019081526020016000206009015410156106cf57600a83600301600088815260200190815260200160002060090154856003016000888152602001908152602001600020600401546106bd919061107e565b6106c791906110b2565b9050806106f8565b6002846003016000878152602001908152602001600020600401546106f49190611192565b9050805b508084600201600087815260200190815260200160002060008881526020019081526020016000205461072b91906110b2565b42101561073757600080fd5b836003016000868152602001908152602001600020600301548360030160008881526020019081526020016000206003015410156107aa576040517f08c379a00000000000000000000000000000000000000000000000000000000081526004016107a19061120f565b60405180910390fd5b8360030160008681526020019081526020016000206001015483600301600088815260200190815260200160002060010160008282546107ea91906110b2565b92505081905550818360030160008881526020019081526020016000206005016000828254610819919061107e565b9250508190555042846002016000878152602001908152602001600020600088815260200190815260200160002081905550505050505050565b6000807f32545638e04f9bb0e18c6b7b873428ebfe8afc357b1d991bfe15d0950d92384590508091505090565b6000807f3cab9a070a0c61cd0ae9d9e9e2c0781e5ca8691bec4087e5a4701d5ac018dd4e90508091505090565b6040518060e00160405280600081526020016000815260200160008152602001600081526020016000815260200160608152602001606081525090565b6000604051905090565b600080fd5b600080fd5b6000819050919050565b610911816108fe565b811461091c57600080fd5b50565b60008135905061092e81610908565b92915050565b6000806040838503121561094b5761094a6108f4565b5b60006109598582860161091f565b925050602061096a8582860161091f565b9150509250929050565b61097d816108fe565b82525050565b60006020820190506109986000830184610974565b92915050565b600080fd5b600080fd5b6000601f19601f8301169050919050565b7f4e487b7100000000000000000000000000000000000000000000000000000000600052604160045260246000fd5b6109f1826109a8565b810181811067ffffffffffffffff82111715610a1057610a0f6109b9565b5b80604052505050565b6000610a236108ea565b9050610a2f82826109e8565b919050565b600067ffffffffffffffff821115610a4f57610a4e6109b9565b5b610a58826109a8565b9050602081019050919050565b82818337600083830152505050565b6000610a87610a8284610a34565b610a19565b905082815260208101848484011115610aa357610aa26109a3565b5b610aae848285610a65565b509392505050565b600082601f830112610acb57610aca61099e565b5b8135610adb848260208601610a74565b91505092915050565b60008060008060008060c08789031215610b0157610b006108f4565b5b6000610b0f89828a0161091f565b9650506020610b2089828a0161091f565b9550506040610b3189828a0161091f565b9450506060610b4289828a0161091f565b935050608087013567ffffffffffffffff811115610b6357610b626108f9565b5b610b6f89828a01610ab6565b92505060a087013567ffffffffffffffff811115610b9057610b8f6108f9565b5b610b9c89828a01610ab6565b9150509295509295509295565b600060208284031215610bbf57610bbe6108f4565b5b6000610bcd8482850161091f565b91505092915050565b610bdf816108fe565b82525050565b600081519050919050565b600082825260208201905092915050565b60005b83811015610c1f578082015181840152602081019050610c04565b60008484015250505050565b6000610c3682610be5565b610c408185610bf0565b9350610c50818560208601610c01565b610c59816109a8565b840191505092915050565b600060e083016000830151610c7c6000860182610bd6565b506020830151610c8f6020860182610bd6565b506040830151610ca26040860182610bd6565b506060830151610cb56060860182610bd6565b506080830151610cc86080860182610bd6565b5060a083015184820360a0860152610ce08282610c2b565b91505060c083015184820360c0860152610cfa8282610c2b565b9150508091505092915050565b60006020820190508181036000830152610d218184610c64565b905092915050565b7f4e487b7100000000000000000000000000000000000000000000000000000000600052601160045260246000fd5b6000610d63826108fe565b91507fffffffffffffffffffffffffffffffffffffffffffffffffffffffffffffffff8203610d9557610d94610d29565b5b600182019050919050565b7f4e487b7100000000000000000000000000000000000000000000000000000000600052602260045260246000fd5b60006002820490506001821680610de757607f821691505b602082108103610dfa57610df9610da0565b5b50919050565b60008190508160005260206000209050919050565b60006020601f8301049050919050565b600082821b905092915050565b600060088302610e627fffffffffffffffffffffffffffffffffffffffffffffffffffffffffffffffff82610e25565b610e6c8683610e25565b95508019841693508086168417925050509392505050565b6000819050919050565b6000610ea9610ea4610e9f846108fe565b610e84565b6108fe565b9050919050565b6000819050919050565b610ec383610e8e565b610ed7610ecf82610eb0565b848454610e32565b825550505050565b600090565b610eec610edf565b610ef7818484610eba565b505050565b5b81811015610f1b57610f10600082610ee4565b600181019050610efd565b5050565b601f821115610f6057610f3181610e00565b610f3a84610e15565b81016020851015610f49578190505b610f5d610f5585610e15565b830182610efc565b50505b505050565b600082821c905092915050565b6000610f8360001984600802610f65565b1980831691505092915050565b6000610f9c8383610f72565b9150826002028217905092915050565b610fb582610be5565b67ffffffffffffffff811115610fce57610fcd6109b9565b5b610fd88254610dcf565b610fe3828285610f1f565b600060209050601f8311600181146110165760008415611004578287015190505b61100e8582610f90565b865550611076565b601f19841661102486610e00565b60005b8281101561104c57848901518255600182019150602085019450602081019050611027565b868310156110695784890151611065601f891682610f72565b8355505b6001600288020188555050505b505050505050565b6000611089826108fe565b9150611094836108fe565b92508282039050818111156110ac576110ab610d29565b5b92915050565b60006110bd826108fe565b91506110c8836108fe565b92508282019050808211156110e0576110df610d29565b5b92915050565b600082825260208201905092915050565b7f6e6f7420656e6f75676820687000000000000000000000000000000000000000600082015250565b600061112d600d836110e6565b9150611138826110f7565b602082019050919050565b6000602082019050818103600083015261115c81611120565b9050919050565b7f4e487b7100000000000000000000000000000000000000000000000000000000600052601260045260246000fd5b600061119d826108fe565b91506111a8836108fe565b9250826111b8576111b7611163565b5b828204905092915050565b7f6e6f74207374726f6e6720656e6f756768000000000000000000000000000000600082015250565b60006111f96011836110e6565b9150611204826111c3565b602082019050919050565b60006020820190508181036000830152611228816111ec565b905091905056fea26469706673582212209f0382411b514d4885067b17db628237d7837393fd8263867f47677ec5e4e78c64736f6c63430008120033",
  "linkReferences": {},
  "deployedLinkReferences": {}
}