{
  "_format": "hh-sol-artifact-1",
  "contractName": "MonsterFacet",
  "sourceName": "contracts/facets/MonsterFacet.sol",
  "abi": [
    {
      "anonymous": false,
      "inputs": [
        {
          "indexed": true,
          "internalType": "uint256",
          "name": "_monsterId",
          "type": "uint256"
        }
      ],
      "name": "CreateBasicMonster",
      "type": "event"
    },
    {
      "anonymous": false,
      "inputs": [
        {
          "indexed": true,
          "internalType": "uint256",
          "name": "_playerId",
          "type": "uint256"
        }
      ],
      "name": "DragonQuest",
      "type": "event"
    },
    {
      "inputs": [
        {
          "internalType": "uint256",
          "name": "_xpReward",
          "type": "uint256"
        },
        {
          "internalType": "uint256",
          "name": "_damage",
          "type": "uint256"
        },
        {
          "internalType": "uint256",
          "name": "_hp",
          "type": "uint256"
        },
        {
          "internalType": "uint256",
          "name": "_cooldown",
          "type": "uint256"
        },
        {
          "internalType": "string",
          "name": "_name",
          "type": "string"
        },
        {
          "internalType": "string",
          "name": "_uri",
          "type": "string"
        }
      ],
      "name": "createBasicMonster",
      "outputs": [],
      "stateMutability": "nonpayable",
      "type": "function"
    },
    {
      "inputs": [
        {
          "internalType": "uint256",
          "name": "_playerId",
          "type": "uint256"
        }
      ],
      "name": "dragonQuest",
      "outputs": [
        {
          "internalType": "bool",
          "name": "result",
          "type": "bool"
        }
      ],
      "stateMutability": "nonpayable",
      "type": "function"
    },
    {
      "inputs": [
        {
          "internalType": "uint256",
          "name": "_monsterId",
          "type": "uint256"
        }
      ],
      "name": "getBasicMonster",
      "outputs": [
        {
          "components": [
            {
              "internalType": "uint256",
              "name": "monsterId",
              "type": "uint256"
            },
            {
              "internalType": "uint256",
              "name": "xpReward",
              "type": "uint256"
            },
            {
              "internalType": "uint256",
              "name": "damage",
              "type": "uint256"
            },
            {
              "internalType": "uint256",
              "name": "hp",
              "type": "uint256"
            },
            {
              "internalType": "uint256",
              "name": "cooldown",
              "type": "uint256"
            },
            {
              "internalType": "string",
              "name": "name",
              "type": "string"
            },
            {
              "internalType": "string",
              "name": "uri",
              "type": "string"
            }
          ],
          "internalType": "struct BasicMonster",
          "name": "",
          "type": "tuple"
        }
      ],
      "stateMutability": "view",
      "type": "function"
    },
    {
      "inputs": [
        {
          "internalType": "uint256",
          "name": "_playerId",
          "type": "uint256"
        },
        {
          "internalType": "uint256",
          "name": "_monsterId",
          "type": "uint256"
        }
      ],
      "name": "getBasicMonsterCooldown",
      "outputs": [
        {
          "internalType": "uint256",
          "name": "",
          "type": "uint256"
        }
      ],
      "stateMutability": "view",
      "type": "function"
    },
    {
      "inputs": [],
      "name": "getMonsterCounter",
      "outputs": [
        {
          "internalType": "uint256",
          "name": "",
          "type": "uint256"
        }
      ],
      "stateMutability": "view",
      "type": "function"
    }
  ],
  "bytecode": "0x608060405234801561001057600080fd5b506114b5806100206000396000f3fe608060405234801561001057600080fd5b50600436106100575760003560e01c80630207f11f1461005c57806315e840d71461008c5780634b3564c8146100bc578063874e59a8146100d8578063fda30d4c14610108575b600080fd5b61007660048036038101906100719190610a79565b610126565b6040516100839190610ac1565b60405180910390f35b6100a660048036038101906100a19190610adc565b61016c565b6040516100b39190610b2b565b60405180910390f35b6100d660048036038101906100d19190610c8c565b610180565b005b6100f260048036038101906100ed9190610a79565b61021c565b6040516100ff9190610e82565b60405180910390f35b610110610234565b60405161011d9190610b2b565b60405180910390f35b600061013182610243565b9050801561016757817f897b5c7abcb9d1af199c95f7485f50c3e0dbed9b05f3068b69fd66613c34c38660405160405180910390a25b919050565b600061017883836105e7565b905092915050565b60007308d8e680a2d295af8cbcd8b8e07f900275bc6b8d90508073ffffffffffffffffffffffffffffffffffffffff163373ffffffffffffffffffffffffffffffffffffffff16146101d157600080fd5b6101df878787878787610624565b6101e7610704565b7f856d040967b09806c1357161c96c37bd00e1ddf47865abb6b6bc96b15edc1e3960405160405180910390a250505050505050565b6102246109f2565b61022d8261071c565b9050919050565b600061023e610704565b905090565b60008061024e6108ae565b9050600061025a6108db565b90506000610266610908565b90506000610272610935565b90506000846003016000888152602001908152602001600020600201541461029957600080fd5b3373ffffffffffffffffffffffffffffffffffffffff1684600201600088815260200190815260200160002060009054906101000a900473ffffffffffffffffffffffffffffffffffffffff1673ffffffffffffffffffffffffffffffffffffffff161461030657600080fd5b61a8c0836005016000888152602001908152602001600020546103299190610ed3565b42101561033557600080fd5b60405160200161034490610f5e565b604051602081830303815290604052805190602001208260020160008660030160008a815260200190815260200160002060120160000154815260200190815260200160002060070160405160200161039d919061106b565b60405160208183030381529060405280519060200120146103f3576040517f08c379a00000000000000000000000000000000000000000000000000000000081526004016103ea906110df565b60405180910390fd5b42836005016000888152602001908152602001600020819055506013601461041a88610962565b610424919061112e565b106105d95780600001600081548092919061043e9061115f565b9190505550604051806080016040528082600001548152602001600281526020018260030160008981526020019081526020016000208054905081526020016040518060400160405280600681526020017f447363616c650000000000000000000000000000000000000000000000000000815250815250816002016000836000015481526020019081526020016000206000820151816000015560208201518160010155604082015181600201556060820151816003019081610502919061133e565b5090505080600301600087815260200190815260200160002081600001549080600181540180825580915050600190039060005260206000200160009091909190915055338160010160008360000154815260200190815260200160002060006101000a81548173ffffffffffffffffffffffffffffffffffffffff021916908373ffffffffffffffffffffffffffffffffffffffff16021790555083600301600087815260200190815260200160002060010160008154809291906105c79061115f565b919050555060019450505050506105e2565b60009450505050505b919050565b6000806105f26108db565b905080600201600084815260200190815260200160002060008581526020019081526020016000205491505092915050565b600061062e6108db565b90508060000160008154809291906106459061115f565b91905055506040518060e00160405280826000015481526020018881526020018781526020018681526020018581526020018481526020018381525081600301600083600001548152602001908152602001600020600082015181600001556020820151816001015560408201518160020155606082015181600301556080820151816004015560a08201518160050190816106e1919061133e565b5060c08201518160060190816106f7919061133e565b5090505050505050505050565b60008061070f6108db565b9050806000015491505090565b6107246109f2565b600061072e6108db565b90508060030160008481526020019081526020016000206040518060e0016040529081600082015481526020016001820154815260200160028201548152602001600382015481526020016004820154815260200160058201805461079290610fa2565b80601f01602080910402602001604051908101604052809291908181526020018280546107be90610fa2565b801561080b5780601f106107e05761010080835404028352916020019161080b565b820191906000526020600020905b8154815290600101906020018083116107ee57829003601f168201915b5050505050815260200160068201805461082490610fa2565b80601f016020809104026020016040519081016040528092919081815260200182805461085090610fa2565b801561089d5780601f106108725761010080835404028352916020019161089d565b820191906000526020600020905b81548152906001019060200180831161088057829003601f168201915b505050505081525050915050919050565b6000807f3cab9a070a0c61cd0ae9d9e9e2c0781e5ca8691bec4087e5a4701d5ac018dd4e90508091505090565b6000807f32545638e04f9bb0e18c6b7b873428ebfe8afc357b1d991bfe15d0950d92384590508091505090565b6000807faad0511195ddfb575f5187a7172ca6fc330f129a86291f15eaa5f7537ab038dc90508091505090565b6000807fb5dbbc334907f600e1151190a68c4043043163a23a907389a2c6f6231ed4318b90508091505090565b60008061096d6109c5565b90508060000160008154809291906109849061115f565b919050555042448483600001546040516020016109a49493929190611431565b6040516020818303038152906040528051906020012060001c915050919050565b6000807ff76a8e66124dac83b46aecd7c4256d5158e69f6adf88592fd8146c79e007626e90508091505090565b6040518060e00160405280600081526020016000815260200160008152602001600081526020016000815260200160608152602001606081525090565b6000604051905090565b600080fd5b600080fd5b6000819050919050565b610a5681610a43565b8114610a6157600080fd5b50565b600081359050610a7381610a4d565b92915050565b600060208284031215610a8f57610a8e610a39565b5b6000610a9d84828501610a64565b91505092915050565b60008115159050919050565b610abb81610aa6565b82525050565b6000602082019050610ad66000830184610ab2565b92915050565b60008060408385031215610af357610af2610a39565b5b6000610b0185828601610a64565b9250506020610b1285828601610a64565b9150509250929050565b610b2581610a43565b82525050565b6000602082019050610b406000830184610b1c565b92915050565b600080fd5b600080fd5b6000601f19601f8301169050919050565b7f4e487b7100000000000000000000000000000000000000000000000000000000600052604160045260246000fd5b610b9982610b50565b810181811067ffffffffffffffff82111715610bb857610bb7610b61565b5b80604052505050565b6000610bcb610a2f565b9050610bd78282610b90565b919050565b600067ffffffffffffffff821115610bf757610bf6610b61565b5b610c0082610b50565b9050602081019050919050565b82818337600083830152505050565b6000610c2f610c2a84610bdc565b610bc1565b905082815260208101848484011115610c4b57610c4a610b4b565b5b610c56848285610c0d565b509392505050565b600082601f830112610c7357610c72610b46565b5b8135610c83848260208601610c1c565b91505092915050565b60008060008060008060c08789031215610ca957610ca8610a39565b5b6000610cb789828a01610a64565b9650506020610cc889828a01610a64565b9550506040610cd989828a01610a64565b9450506060610cea89828a01610a64565b935050608087013567ffffffffffffffff811115610d0b57610d0a610a3e565b5b610d1789828a01610c5e565b92505060a087013567ffffffffffffffff811115610d3857610d37610a3e565b5b610d4489828a01610c5e565b9150509295509295509295565b610d5a81610a43565b82525050565b600081519050919050565b600082825260208201905092915050565b60005b83811015610d9a578082015181840152602081019050610d7f565b60008484015250505050565b6000610db182610d60565b610dbb8185610d6b565b9350610dcb818560208601610d7c565b610dd481610b50565b840191505092915050565b600060e083016000830151610df76000860182610d51565b506020830151610e0a6020860182610d51565b506040830151610e1d6040860182610d51565b506060830151610e306060860182610d51565b506080830151610e436080860182610d51565b5060a083015184820360a0860152610e5b8282610da6565b91505060c083015184820360c0860152610e758282610da6565b9150508091505092915050565b60006020820190508181036000830152610e9c8184610ddf565b905092915050565b7f4e487b7100000000000000000000000000000000000000000000000000000000600052601160045260246000fd5b6000610ede82610a43565b9150610ee983610a43565b9250828201905080821115610f0157610f00610ea4565b5b92915050565b600081905092915050565b7f57697a4861740000000000000000000000000000000000000000000000000000600082015250565b6000610f48600683610f07565b9150610f5382610f12565b600682019050919050565b6000610f6982610f3b565b9150819050919050565b7f4e487b7100000000000000000000000000000000000000000000000000000000600052602260045260246000fd5b60006002820490506001821680610fba57607f821691505b602082108103610fcd57610fcc610f73565b5b50919050565b60008190508160005260206000209050919050565b60008154610ff581610fa2565b610fff8186610f07565b9450600182166000811461101a576001811461102f57611062565b60ff1983168652811515820286019350611062565b61103885610fd3565b60005b8381101561105a5781548189015260018201915060208101905061103b565b838801955050505b50505092915050565b60006110778284610fe8565b915081905092915050565b600082825260208201905092915050565b7f6e6f742077656172696e67206861740000000000000000000000000000000000600082015250565b60006110c9600f83611082565b91506110d482611093565b602082019050919050565b600060208201905081810360008301526110f8816110bc565b9050919050565b7f4e487b7100000000000000000000000000000000000000000000000000000000600052601260045260246000fd5b600061113982610a43565b915061114483610a43565b925082611154576111536110ff565b5b828206905092915050565b600061116a82610a43565b91507fffffffffffffffffffffffffffffffffffffffffffffffffffffffffffffffff820361119c5761119b610ea4565b5b600182019050919050565b60006020601f8301049050919050565b600082821b905092915050565b6000600883026111f47fffffffffffffffffffffffffffffffffffffffffffffffffffffffffffffffff826111b7565b6111fe86836111b7565b95508019841693508086168417925050509392505050565b6000819050919050565b600061123b61123661123184610a43565b611216565b610a43565b9050919050565b6000819050919050565b61125583611220565b61126961126182611242565b8484546111c4565b825550505050565b600090565b61127e611271565b61128981848461124c565b505050565b5b818110156112ad576112a2600082611276565b60018101905061128f565b5050565b601f8211156112f2576112c381610fd3565b6112cc846111a7565b810160208510156112db578190505b6112ef6112e7856111a7565b83018261128e565b50505b505050565b600082821c905092915050565b6000611315600019846008026112f7565b1980831691505092915050565b600061132e8383611304565b9150826002028217905092915050565b61134782610d60565b67ffffffffffffffff8111156113605761135f610b61565b5b61136a8254610fa2565b6113758282856112b1565b600060209050601f8311600181146113a85760008415611396578287015190505b6113a08582611322565b865550611408565b601f1984166113b686610fd3565b60005b828110156113de578489015182556001820191506020850194506020810190506113b9565b868310156113fb57848901516113f7601f891682611304565b8355505b6001600288020188555050505b505050505050565b6000819050919050565b61142b61142682610a43565b611410565b82525050565b600061143d828761141a565b60208201915061144d828661141a565b60208201915061145d828561141a565b60208201915061146d828461141a565b6020820191508190509594505050505056fea264697066735822122077893fc8a45d5a3a5627d0ad37cd563e46459bb89a71e428779f235eafe9060c64736f6c63430008110033",
  "linkReferences": {},
  "deployedLinkReferences": {}
}