{
  "_format": "hh-sol-artifact-1",
  "contractName": "MonsterFacet",
  "sourceName": "contracts/facets/MonsterFacet.sol",
  "abi": [
    {
      "anonymous": false,
      "inputs": [
        {
          "indexed": true,
          "internalType": "uint256",
          "name": "_monsterId",
          "type": "uint256"
        }
      ],
      "name": "CreateBasicMonster",
      "type": "event"
    },
    {
      "anonymous": false,
      "inputs": [
        {
          "indexed": true,
          "internalType": "uint256",
          "name": "_playerId",
          "type": "uint256"
        }
      ],
      "name": "DragonQuest",
      "type": "event"
    },
    {
      "anonymous": false,
      "inputs": [
        {
          "indexed": true,
          "internalType": "uint256",
          "name": "_monsterId",
          "type": "uint256"
        },
        {
          "indexed": false,
          "internalType": "uint256",
          "name": "_playerId",
          "type": "uint256"
        }
      ],
      "name": "FightBasicMonster",
      "type": "event"
    },
    {
      "inputs": [
        {
          "internalType": "uint256",
          "name": "_xpReward",
          "type": "uint256"
        },
        {
          "internalType": "uint256",
          "name": "_damage",
          "type": "uint256"
        },
        {
          "internalType": "uint256",
          "name": "_hp",
          "type": "uint256"
        },
        {
          "internalType": "uint256",
          "name": "_cooldown",
          "type": "uint256"
        },
        {
          "internalType": "string",
          "name": "_name",
          "type": "string"
        },
        {
          "internalType": "string",
          "name": "_uri",
          "type": "string"
        }
      ],
      "name": "createBasicMonster",
      "outputs": [],
      "stateMutability": "nonpayable",
      "type": "function"
    },
    {
      "inputs": [
        {
          "internalType": "uint256",
          "name": "_playerId",
          "type": "uint256"
        },
        {
          "internalType": "uint256",
          "name": "_monsterId",
          "type": "uint256"
        }
      ],
      "name": "fightBasicMonster",
      "outputs": [],
      "stateMutability": "nonpayable",
      "type": "function"
    },
    {
      "inputs": [
        {
          "internalType": "uint256",
          "name": "_monsterId",
          "type": "uint256"
        }
      ],
      "name": "getBasicMonster",
      "outputs": [
        {
          "components": [
            {
              "internalType": "uint256",
              "name": "basicMonsterId",
              "type": "uint256"
            },
            {
              "internalType": "uint256",
              "name": "xpReward",
              "type": "uint256"
            },
            {
              "internalType": "uint256",
              "name": "damage",
              "type": "uint256"
            },
            {
              "internalType": "uint256",
              "name": "hp",
              "type": "uint256"
            },
            {
              "internalType": "uint256",
              "name": "cooldown",
              "type": "uint256"
            },
            {
              "internalType": "string",
              "name": "name",
              "type": "string"
            },
            {
              "internalType": "string",
              "name": "uri",
              "type": "string"
            }
          ],
          "internalType": "struct BasicMonster",
          "name": "",
          "type": "tuple"
        }
      ],
      "stateMutability": "view",
      "type": "function"
    },
    {
      "inputs": [
        {
          "internalType": "uint256",
          "name": "_playerId",
          "type": "uint256"
        },
        {
          "internalType": "uint256",
          "name": "_monsterId",
          "type": "uint256"
        }
      ],
      "name": "getBasicMonsterCooldown",
      "outputs": [
        {
          "internalType": "uint256",
          "name": "",
          "type": "uint256"
        }
      ],
      "stateMutability": "view",
      "type": "function"
    },
    {
      "inputs": [],
      "name": "getMonsterCounter",
      "outputs": [
        {
          "internalType": "uint256",
          "name": "",
          "type": "uint256"
        }
      ],
      "stateMutability": "view",
      "type": "function"
    }
  ],
  "bytecode": "0x608060405234801561001057600080fd5b506112b7806100206000396000f3fe608060405234801561001057600080fd5b50600436106100575760003560e01c806315e840d71461005c5780634b3564c81461008c578063874e59a8146100a8578063fc2875d4146100d8578063fda30d4c146100f4575b600080fd5b61007660048036038101906100719190610986565b610112565b60405161008391906109d5565b60405180910390f35b6100a660048036038101906100a19190610b36565b610126565b005b6100c260048036038101906100bd9190610bfb565b6101c2565b6040516100cf9190610d59565b60405180910390f35b6100f260048036038101906100ed9190610986565b6101da565b005b6100fc610220565b60405161010991906109d5565b60405180910390f35b600061011e838361022f565b905092915050565b600073434d36f32abed3f7937fe0be88dc1b0eb938124490508073ffffffffffffffffffffffffffffffffffffffff163373ffffffffffffffffffffffffffffffffffffffff161461017757600080fd5b61018587878787878761026c565b61018d61034c565b7f856d040967b09806c1357161c96c37bd00e1ddf47865abb6b6bc96b15edc1e3960405160405180910390a250505050505050565b6101ca6108ff565b6101d382610364565b9050919050565b6101e482826104f6565b807fac9c0073f52a3b08821048912ffb937aaac393618f0474f2ef7960ed035c3d308360405161021491906109d5565b60405180910390a25050565b600061022a61034c565b905090565b60008061023a6108a5565b905080600201600084815260200190815260200160002060008581526020019081526020016000205491505092915050565b60006102766108a5565b905080600001600081548092919061028d90610daa565b91905055506040518060e00160405280826000015481526020018881526020018781526020018681526020018581526020018481526020018381525081600301600083600001548152602001908152602001600020600082015181600001556020820151816001015560408201518160020155606082015181600301556080820151816004015560a08201518160050190816103299190610ffe565b5060c082015181600601908161033f9190610ffe565b5090505050505050505050565b6000806103576108a5565b9050806000015491505090565b61036c6108ff565b60006103766108a5565b90508060030160008481526020019081526020016000206040518060e001604052908160008201548152602001600182015481526020016002820154815260200160038201548152602001600482015481526020016005820180546103da90610e21565b80601f016020809104026020016040519081016040528092919081815260200182805461040690610e21565b80156104535780601f1061042857610100808354040283529160200191610453565b820191906000526020600020905b81548152906001019060200180831161043657829003601f168201915b5050505050815260200160068201805461046c90610e21565b80601f016020809104026020016040519081016040528092919081815260200182805461049890610e21565b80156104e55780601f106104ba576101008083540402835291602001916104e5565b820191906000526020600020905b8154815290600101906020018083116104c857829003601f168201915b505050505081525050915050919050565b60006105006108a5565b9050600061050c6108d2565b90506000816003016000868152602001908152602001600020600201541461053357600080fd5b3373ffffffffffffffffffffffffffffffffffffffff1681600201600086815260200190815260200160002060009054906101000a900473ffffffffffffffffffffffffffffffffffffffff1673ffffffffffffffffffffffffffffffffffffffff16146105a057600080fd5b600082600301600085815260200190815260200160002060020154826003016000878152602001908152602001600020600e0154101561062a576001826003016000878152602001908152602001600020600e01548460030160008781526020019081526020016000206002015461061891906110d0565b6106229190611104565b905080610630565b60019050805b5080826003016000878152602001908152602001600020600501541161068b576040517f08c379a000000000000000000000000000000000000000000000000000000000815260040161068290611195565b60405180910390fd5b60006002846003016000878152602001908152602001600020600401546106b291906111e4565b83600301600088815260200190815260200160002060090154101561072157600a836003016000888152602001908152602001600020600901548560030160008881526020019081526020016000206004015461070f91906110d0565b6107199190611104565b90508061074a565b60028460030160008781526020019081526020016000206004015461074691906111e4565b9050805b508084600201600087815260200190815260200160002060008881526020019081526020016000205461077d9190611104565b42101561078957600080fd5b836003016000868152602001908152602001600020600301548360030160008881526020019081526020016000206003015410156107fc576040517f08c379a00000000000000000000000000000000000000000000000000000000081526004016107f390611261565b60405180910390fd5b83600301600086815260200190815260200160002060010154836003016000888152602001908152602001600020600101600082825461083c9190611104565b9250508190555081836003016000888152602001908152602001600020600501600082825461086b91906110d0565b9250508190555042846002016000878152602001908152602001600020600088815260200190815260200160002081905550505050505050565b6000807f32545638e04f9bb0e18c6b7b873428ebfe8afc357b1d991bfe15d0950d92384590508091505090565b6000807f3cab9a070a0c61cd0ae9d9e9e2c0781e5ca8691bec4087e5a4701d5ac018dd4e90508091505090565b6040518060e00160405280600081526020016000815260200160008152602001600081526020016000815260200160608152602001606081525090565b6000604051905090565b600080fd5b600080fd5b6000819050919050565b61096381610950565b811461096e57600080fd5b50565b6000813590506109808161095a565b92915050565b6000806040838503121561099d5761099c610946565b5b60006109ab85828601610971565b92505060206109bc85828601610971565b9150509250929050565b6109cf81610950565b82525050565b60006020820190506109ea60008301846109c6565b92915050565b600080fd5b600080fd5b6000601f19601f8301169050919050565b7f4e487b7100000000000000000000000000000000000000000000000000000000600052604160045260246000fd5b610a43826109fa565b810181811067ffffffffffffffff82111715610a6257610a61610a0b565b5b80604052505050565b6000610a7561093c565b9050610a818282610a3a565b919050565b600067ffffffffffffffff821115610aa157610aa0610a0b565b5b610aaa826109fa565b9050602081019050919050565b82818337600083830152505050565b6000610ad9610ad484610a86565b610a6b565b905082815260208101848484011115610af557610af46109f5565b5b610b00848285610ab7565b509392505050565b600082601f830112610b1d57610b1c6109f0565b5b8135610b2d848260208601610ac6565b91505092915050565b60008060008060008060c08789031215610b5357610b52610946565b5b6000610b6189828a01610971565b9650506020610b7289828a01610971565b9550506040610b8389828a01610971565b9450506060610b9489828a01610971565b935050608087013567ffffffffffffffff811115610bb557610bb461094b565b5b610bc189828a01610b08565b92505060a087013567ffffffffffffffff811115610be257610be161094b565b5b610bee89828a01610b08565b9150509295509295509295565b600060208284031215610c1157610c10610946565b5b6000610c1f84828501610971565b91505092915050565b610c3181610950565b82525050565b600081519050919050565b600082825260208201905092915050565b60005b83811015610c71578082015181840152602081019050610c56565b60008484015250505050565b6000610c8882610c37565b610c928185610c42565b9350610ca2818560208601610c53565b610cab816109fa565b840191505092915050565b600060e083016000830151610cce6000860182610c28565b506020830151610ce16020860182610c28565b506040830151610cf46040860182610c28565b506060830151610d076060860182610c28565b506080830151610d1a6080860182610c28565b5060a083015184820360a0860152610d328282610c7d565b91505060c083015184820360c0860152610d4c8282610c7d565b9150508091505092915050565b60006020820190508181036000830152610d738184610cb6565b905092915050565b7f4e487b7100000000000000000000000000000000000000000000000000000000600052601160045260246000fd5b6000610db582610950565b91507fffffffffffffffffffffffffffffffffffffffffffffffffffffffffffffffff8203610de757610de6610d7b565b5b600182019050919050565b7f4e487b7100000000000000000000000000000000000000000000000000000000600052602260045260246000fd5b60006002820490506001821680610e3957607f821691505b602082108103610e4c57610e4b610df2565b5b50919050565b60008190508160005260206000209050919050565b60006020601f8301049050919050565b600082821b905092915050565b600060088302610eb47fffffffffffffffffffffffffffffffffffffffffffffffffffffffffffffffff82610e77565b610ebe8683610e77565b95508019841693508086168417925050509392505050565b6000819050919050565b6000610efb610ef6610ef184610950565b610ed6565b610950565b9050919050565b6000819050919050565b610f1583610ee0565b610f29610f2182610f02565b848454610e84565b825550505050565b600090565b610f3e610f31565b610f49818484610f0c565b505050565b5b81811015610f6d57610f62600082610f36565b600181019050610f4f565b5050565b601f821115610fb257610f8381610e52565b610f8c84610e67565b81016020851015610f9b578190505b610faf610fa785610e67565b830182610f4e565b50505b505050565b600082821c905092915050565b6000610fd560001984600802610fb7565b1980831691505092915050565b6000610fee8383610fc4565b9150826002028217905092915050565b61100782610c37565b67ffffffffffffffff8111156110205761101f610a0b565b5b61102a8254610e21565b611035828285610f71565b600060209050601f8311600181146110685760008415611056578287015190505b6110608582610fe2565b8655506110c8565b601f19841661107686610e52565b60005b8281101561109e57848901518255600182019150602085019450602081019050611079565b868310156110bb57848901516110b7601f891682610fc4565b8355505b6001600288020188555050505b505050505050565b60006110db82610950565b91506110e683610950565b92508282039050818111156110fe576110fd610d7b565b5b92915050565b600061110f82610950565b915061111a83610950565b925082820190508082111561113257611131610d7b565b5b92915050565b600082825260208201905092915050565b7f6e6f7420656e6f75676820687000000000000000000000000000000000000000600082015250565b600061117f600d83611138565b915061118a82611149565b602082019050919050565b600060208201905081810360008301526111ae81611172565b9050919050565b7f4e487b7100000000000000000000000000000000000000000000000000000000600052601260045260246000fd5b60006111ef82610950565b91506111fa83610950565b92508261120a576112096111b5565b5b828204905092915050565b7f6e6f74207374726f6e6720656e6f756768000000000000000000000000000000600082015250565b600061124b601183611138565b915061125682611215565b602082019050919050565b6000602082019050818103600083015261127a8161123e565b905091905056fea264697066735822122099571c54af893f5c1b7d42d8664a1d76e024476fdd3c840e08d59f1d33e79c4c64736f6c63430008120033",
  "linkReferences": {},
  "deployedLinkReferences": {}
}