{
  "_format": "hh-sol-artifact-1",
  "contractName": "MonsterFacet",
  "sourceName": "contracts/facets/MonsterFacet.sol",
  "abi": [
    {
      "anonymous": false,
      "inputs": [
        {
          "indexed": true,
          "internalType": "uint256",
          "name": "_monsterId",
          "type": "uint256"
        }
      ],
      "name": "CreateBasicMonster",
      "type": "event"
    },
    {
      "anonymous": false,
      "inputs": [
        {
          "indexed": true,
          "internalType": "uint256",
          "name": "_playerId",
          "type": "uint256"
        }
      ],
      "name": "DragonQuest",
      "type": "event"
    },
    {
      "anonymous": false,
      "inputs": [
        {
          "indexed": true,
          "internalType": "uint256",
          "name": "_monsterId",
          "type": "uint256"
        },
        {
          "indexed": false,
          "internalType": "uint256",
          "name": "_playerId",
          "type": "uint256"
        }
      ],
      "name": "FightBasicMonster",
      "type": "event"
    },
    {
      "inputs": [
        {
          "internalType": "uint256",
          "name": "_xpReward",
          "type": "uint256"
        },
        {
          "internalType": "uint256",
          "name": "_damage",
          "type": "uint256"
        },
        {
          "internalType": "uint256",
          "name": "_hp",
          "type": "uint256"
        },
        {
          "internalType": "uint256",
          "name": "_cooldown",
          "type": "uint256"
        },
        {
          "internalType": "string",
          "name": "_name",
          "type": "string"
        },
        {
          "internalType": "string",
          "name": "_uri",
          "type": "string"
        }
      ],
      "name": "createBasicMonster",
      "outputs": [],
      "stateMutability": "nonpayable",
      "type": "function"
    },
    {
      "inputs": [
        {
          "internalType": "uint256",
          "name": "_playerId",
          "type": "uint256"
        }
      ],
      "name": "dragonQuest",
      "outputs": [
        {
          "internalType": "bool",
          "name": "result",
          "type": "bool"
        }
      ],
      "stateMutability": "nonpayable",
      "type": "function"
    },
    {
      "inputs": [
        {
          "internalType": "uint256",
          "name": "_playerId",
          "type": "uint256"
        },
        {
          "internalType": "uint256",
          "name": "_monsterId",
          "type": "uint256"
        }
      ],
      "name": "fightBasicMonster",
      "outputs": [],
      "stateMutability": "nonpayable",
      "type": "function"
    },
    {
      "inputs": [
        {
          "internalType": "uint256",
          "name": "_monsterId",
          "type": "uint256"
        }
      ],
      "name": "getBasicMonster",
      "outputs": [
        {
          "components": [
            {
              "internalType": "uint256",
              "name": "monsterId",
              "type": "uint256"
            },
            {
              "internalType": "uint256",
              "name": "xpReward",
              "type": "uint256"
            },
            {
              "internalType": "uint256",
              "name": "damage",
              "type": "uint256"
            },
            {
              "internalType": "uint256",
              "name": "hp",
              "type": "uint256"
            },
            {
              "internalType": "uint256",
              "name": "cooldown",
              "type": "uint256"
            },
            {
              "internalType": "string",
              "name": "name",
              "type": "string"
            },
            {
              "internalType": "string",
              "name": "uri",
              "type": "string"
            }
          ],
          "internalType": "struct BasicMonster",
          "name": "",
          "type": "tuple"
        }
      ],
      "stateMutability": "view",
      "type": "function"
    },
    {
      "inputs": [
        {
          "internalType": "uint256",
          "name": "_playerId",
          "type": "uint256"
        },
        {
          "internalType": "uint256",
          "name": "_monsterId",
          "type": "uint256"
        }
      ],
      "name": "getBasicMonsterCooldown",
      "outputs": [
        {
          "internalType": "uint256",
          "name": "",
          "type": "uint256"
        }
      ],
      "stateMutability": "view",
      "type": "function"
    },
    {
      "inputs": [],
      "name": "getMonsterCounter",
      "outputs": [
        {
          "internalType": "uint256",
          "name": "",
          "type": "uint256"
        }
      ],
      "stateMutability": "view",
      "type": "function"
    }
  ],
  "bytecode": "0x608060405234801561001057600080fd5b506118dd806100206000396000f3fe608060405234801561001057600080fd5b50600436106100625760003560e01c80630207f11f1461006757806315e840d7146100975780634b3564c8146100c7578063874e59a8146100e3578063fc2875d414610113578063fda30d4c1461012f575b600080fd5b610081600480360381019061007c9190610dd0565b61014d565b60405161008e9190610e18565b60405180910390f35b6100b160048036038101906100ac9190610e33565b610193565b6040516100be9190610e82565b60405180910390f35b6100e160048036038101906100dc9190610fe3565b6101a7565b005b6100fd60048036038101906100f89190610dd0565b6101f1565b60405161010a91906111d9565b60405180910390f35b61012d60048036038101906101289190610e33565b610209565b005b61013761024f565b6040516101449190610e82565b60405180910390f35b60006101588261025e565b9050801561018e57817f897b5c7abcb9d1af199c95f7485f50c3e0dbed9b05f3068b69fd66613c34c38660405160405180910390a25b919050565b600061019f8383610602565b905092915050565b6101b586868686868661063f565b6101bd61071f565b7f856d040967b09806c1357161c96c37bd00e1ddf47865abb6b6bc96b15edc1e3960405160405180910390a2505050505050565b6101f9610d49565b61020282610737565b9050919050565b61021382826108c9565b807fac9c0073f52a3b08821048912ffb937aaac393618f0474f2ef7960ed035c3d30836040516102439190610e82565b60405180910390a25050565b600061025961071f565b905090565b600080610269610c05565b90506000610275610c32565b90506000610281610c5f565b9050600061028d610c8c565b9050600084600301600088815260200190815260200160002060020154146102b457600080fd5b3373ffffffffffffffffffffffffffffffffffffffff1684600201600088815260200190815260200160002060009054906101000a900473ffffffffffffffffffffffffffffffffffffffff1673ffffffffffffffffffffffffffffffffffffffff161461032157600080fd5b61a8c083600401600088815260200190815260200160002054610344919061122a565b42101561035057600080fd5b60405160200161035f906112b5565b604051602081830303815290604052805190602001208260020160008660030160008a81526020019081526020016000206012016000015481526020019081526020016000206007016040516020016103b891906113c2565b604051602081830303815290604052805190602001201461040e576040517f08c379a000000000000000000000000000000000000000000000000000000000815260040161040590611436565b60405180910390fd5b42836004016000888152602001908152602001600020819055506013601461043588610cb9565b61043f9190611485565b106105f457806000016000815480929190610459906114b6565b9190505550604051806080016040528082600001548152602001600281526020018260030160008981526020019081526020016000208054905081526020016040518060400160405280600681526020017f447363616c65000000000000000000000000000000000000000000000000000081525081525081600201600083600001548152602001908152602001600020600082015181600001556020820151816001015560408201518160020155606082015181600301908161051d9190611695565b5090505080600301600087815260200190815260200160002081600001549080600181540180825580915050600190039060005260206000200160009091909190915055338160010160008360000154815260200190815260200160002060006101000a81548173ffffffffffffffffffffffffffffffffffffffff021916908373ffffffffffffffffffffffffffffffffffffffff16021790555083600301600087815260200190815260200160002060010160008154809291906105e2906114b6565b919050555060019450505050506105fd565b60009450505050505b919050565b60008061060d610c32565b905080600201600084815260200190815260200160002060008581526020019081526020016000205491505092915050565b6000610649610c32565b9050806000016000815480929190610660906114b6565b91905055506040518060e00160405280826000015481526020018881526020018781526020018681526020018581526020018481526020018381525081600301600083600001548152602001908152602001600020600082015181600001556020820151816001015560408201518160020155606082015181600301556080820151816004015560a08201518160050190816106fc9190611695565b5060c08201518160060190816107129190611695565b5090505050505050505050565b60008061072a610c32565b9050806000015491505090565b61073f610d49565b6000610749610c32565b90508060030160008481526020019081526020016000206040518060e001604052908160008201548152602001600182015481526020016002820154815260200160038201548152602001600482015481526020016005820180546107ad906112f9565b80601f01602080910402602001604051908101604052809291908181526020018280546107d9906112f9565b80156108265780601f106107fb57610100808354040283529160200191610826565b820191906000526020600020905b81548152906001019060200180831161080957829003601f168201915b5050505050815260200160068201805461083f906112f9565b80601f016020809104026020016040519081016040528092919081815260200182805461086b906112f9565b80156108b85780601f1061088d576101008083540402835291602001916108b8565b820191906000526020600020905b81548152906001019060200180831161089b57829003601f168201915b505050505081525050915050919050565b60006108d3610c32565b905060006108df610c05565b90506000816003016000868152602001908152602001600020600201541461090657600080fd5b3373ffffffffffffffffffffffffffffffffffffffff1681600201600086815260200190815260200160002060009054906101000a900473ffffffffffffffffffffffffffffffffffffffff1673ffffffffffffffffffffffffffffffffffffffff161461097357600080fd5b600082600301600085815260200190815260200160002060020154826003016000878152602001908152602001600020600e015410156109fd576001826003016000878152602001908152602001600020600e0154846003016000878152602001908152602001600020600201546109eb9190611767565b6109f5919061122a565b905080610a03565b60019050805b50808260030160008781526020019081526020016000206005015411610a5e576040517f08c379a0000000000000000000000000000000000000000000000000000000008152600401610a55906117e7565b60405180910390fd5b6000600284600301600087815260200190815260200160002060040154610a859190611807565b836003016000888152602001908152602001600020600901541015610af457600a8360030160008881526020019081526020016000206009015485600301600088815260200190815260200160002060040154610ae29190611767565b610aec919061122a565b905080610b1d565b600284600301600087815260200190815260200160002060040154610b199190611807565b9050805b5080846002016000878152602001908152602001600020600088815260200190815260200160002054610b50919061122a565b421015610b5c57600080fd5b836003016000868152602001908152602001600020600101548360030160008881526020019081526020016000206001016000828254610b9c919061122a565b92505081905550818360030160008881526020019081526020016000206005016000828254610bcb9190611767565b9250508190555042846002016000878152602001908152602001600020600088815260200190815260200160002081905550505050505050565b6000807f3cab9a070a0c61cd0ae9d9e9e2c0781e5ca8691bec4087e5a4701d5ac018dd4e90508091505090565b6000807f32545638e04f9bb0e18c6b7b873428ebfe8afc357b1d991bfe15d0950d92384590508091505090565b6000807faad0511195ddfb575f5187a7172ca6fc330f129a86291f15eaa5f7537ab038dc90508091505090565b6000807fb5dbbc334907f600e1151190a68c4043043163a23a907389a2c6f6231ed4318b90508091505090565b600080610cc4610d1c565b9050806000016000815480929190610cdb906114b6565b91905055504244848360000154604051602001610cfb9493929190611859565b6040516020818303038152906040528051906020012060001c915050919050565b6000807ff76a8e66124dac83b46aecd7c4256d5158e69f6adf88592fd8146c79e007626e90508091505090565b6040518060e00160405280600081526020016000815260200160008152602001600081526020016000815260200160608152602001606081525090565b6000604051905090565b600080fd5b600080fd5b6000819050919050565b610dad81610d9a565b8114610db857600080fd5b50565b600081359050610dca81610da4565b92915050565b600060208284031215610de657610de5610d90565b5b6000610df484828501610dbb565b91505092915050565b60008115159050919050565b610e1281610dfd565b82525050565b6000602082019050610e2d6000830184610e09565b92915050565b60008060408385031215610e4a57610e49610d90565b5b6000610e5885828601610dbb565b9250506020610e6985828601610dbb565b9150509250929050565b610e7c81610d9a565b82525050565b6000602082019050610e976000830184610e73565b92915050565b600080fd5b600080fd5b6000601f19601f8301169050919050565b7f4e487b7100000000000000000000000000000000000000000000000000000000600052604160045260246000fd5b610ef082610ea7565b810181811067ffffffffffffffff82111715610f0f57610f0e610eb8565b5b80604052505050565b6000610f22610d86565b9050610f2e8282610ee7565b919050565b600067ffffffffffffffff821115610f4e57610f4d610eb8565b5b610f5782610ea7565b9050602081019050919050565b82818337600083830152505050565b6000610f86610f8184610f33565b610f18565b905082815260208101848484011115610fa257610fa1610ea2565b5b610fad848285610f64565b509392505050565b600082601f830112610fca57610fc9610e9d565b5b8135610fda848260208601610f73565b91505092915050565b60008060008060008060c0878903121561100057610fff610d90565b5b600061100e89828a01610dbb565b965050602061101f89828a01610dbb565b955050604061103089828a01610dbb565b945050606061104189828a01610dbb565b935050608087013567ffffffffffffffff81111561106257611061610d95565b5b61106e89828a01610fb5565b92505060a087013567ffffffffffffffff81111561108f5761108e610d95565b5b61109b89828a01610fb5565b9150509295509295509295565b6110b181610d9a565b82525050565b600081519050919050565b600082825260208201905092915050565b60005b838110156110f15780820151818401526020810190506110d6565b60008484015250505050565b6000611108826110b7565b61111281856110c2565b93506111228185602086016110d3565b61112b81610ea7565b840191505092915050565b600060e08301600083015161114e60008601826110a8565b50602083015161116160208601826110a8565b50604083015161117460408601826110a8565b50606083015161118760608601826110a8565b50608083015161119a60808601826110a8565b5060a083015184820360a08601526111b282826110fd565b91505060c083015184820360c08601526111cc82826110fd565b9150508091505092915050565b600060208201905081810360008301526111f38184611136565b905092915050565b7f4e487b7100000000000000000000000000000000000000000000000000000000600052601160045260246000fd5b600061123582610d9a565b915061124083610d9a565b9250828201905080821115611258576112576111fb565b5b92915050565b600081905092915050565b7f57697a4861740000000000000000000000000000000000000000000000000000600082015250565b600061129f60068361125e565b91506112aa82611269565b600682019050919050565b60006112c082611292565b9150819050919050565b7f4e487b7100000000000000000000000000000000000000000000000000000000600052602260045260246000fd5b6000600282049050600182168061131157607f821691505b602082108103611324576113236112ca565b5b50919050565b60008190508160005260206000209050919050565b6000815461134c816112f9565b611356818661125e565b945060018216600081146113715760018114611386576113b9565b60ff19831686528115158202860193506113b9565b61138f8561132a565b60005b838110156113b157815481890152600182019150602081019050611392565b838801955050505b50505092915050565b60006113ce828461133f565b915081905092915050565b600082825260208201905092915050565b7f6e6f742077656172696e67206861740000000000000000000000000000000000600082015250565b6000611420600f836113d9565b915061142b826113ea565b602082019050919050565b6000602082019050818103600083015261144f81611413565b9050919050565b7f4e487b7100000000000000000000000000000000000000000000000000000000600052601260045260246000fd5b600061149082610d9a565b915061149b83610d9a565b9250826114ab576114aa611456565b5b828206905092915050565b60006114c182610d9a565b91507fffffffffffffffffffffffffffffffffffffffffffffffffffffffffffffffff82036114f3576114f26111fb565b5b600182019050919050565b60006020601f8301049050919050565b600082821b905092915050565b60006008830261154b7fffffffffffffffffffffffffffffffffffffffffffffffffffffffffffffffff8261150e565b611555868361150e565b95508019841693508086168417925050509392505050565b6000819050919050565b600061159261158d61158884610d9a565b61156d565b610d9a565b9050919050565b6000819050919050565b6115ac83611577565b6115c06115b882611599565b84845461151b565b825550505050565b600090565b6115d56115c8565b6115e08184846115a3565b505050565b5b81811015611604576115f96000826115cd565b6001810190506115e6565b5050565b601f8211156116495761161a8161132a565b611623846114fe565b81016020851015611632578190505b61164661163e856114fe565b8301826115e5565b50505b505050565b600082821c905092915050565b600061166c6000198460080261164e565b1980831691505092915050565b6000611685838361165b565b9150826002028217905092915050565b61169e826110b7565b67ffffffffffffffff8111156116b7576116b6610eb8565b5b6116c182546112f9565b6116cc828285611608565b600060209050601f8311600181146116ff57600084156116ed578287015190505b6116f78582611679565b86555061175f565b601f19841661170d8661132a565b60005b8281101561173557848901518255600182019150602085019450602081019050611710565b86831015611752578489015161174e601f89168261165b565b8355505b6001600288020188555050505b505050505050565b600061177282610d9a565b915061177d83610d9a565b9250828203905081811115611795576117946111fb565b5b92915050565b7f6e6f7420656e6f75676820687000000000000000000000000000000000000000600082015250565b60006117d1600d836113d9565b91506117dc8261179b565b602082019050919050565b60006020820190508181036000830152611800816117c4565b9050919050565b600061181282610d9a565b915061181d83610d9a565b92508261182d5761182c611456565b5b828204905092915050565b6000819050919050565b61185361184e82610d9a565b611838565b82525050565b60006118658287611842565b6020820191506118758286611842565b6020820191506118858285611842565b6020820191506118958284611842565b6020820191508190509594505050505056fea2646970667358221220d3e9167afec20a27a85f1c5b6ac0c91460d79c52e602358a7eb30de89ee0f88864736f6c63430008110033",
  "linkReferences": {},
  "deployedLinkReferences": {}
}