{
  "_format": "hh-sol-artifact-1",
  "contractName": "MonsterFacet",
  "sourceName": "contracts/facets/MonsterFacet.sol",
  "abi": [
    {
      "anonymous": false,
      "inputs": [
        {
          "indexed": true,
          "internalType": "uint256",
          "name": "_monsterId",
          "type": "uint256"
        }
      ],
      "name": "CreateBasicMonster",
      "type": "event"
    },
    {
      "anonymous": false,
      "inputs": [
        {
          "indexed": true,
          "internalType": "uint256",
          "name": "_playerId",
          "type": "uint256"
        }
      ],
      "name": "DragonQuest",
      "type": "event"
    },
    {
      "inputs": [
        {
          "internalType": "uint256",
          "name": "_xpReward",
          "type": "uint256"
        },
        {
          "internalType": "uint256",
          "name": "_damage",
          "type": "uint256"
        },
        {
          "internalType": "uint256",
          "name": "_hp",
          "type": "uint256"
        },
        {
          "internalType": "uint256",
          "name": "_cooldown",
          "type": "uint256"
        },
        {
          "internalType": "string",
          "name": "_name",
          "type": "string"
        },
        {
          "internalType": "string",
          "name": "_uri",
          "type": "string"
        }
      ],
      "name": "createBasicMonster",
      "outputs": [],
      "stateMutability": "nonpayable",
      "type": "function"
    },
    {
      "inputs": [
        {
          "internalType": "uint256",
          "name": "_playerId",
          "type": "uint256"
        }
      ],
      "name": "dragonQuest",
      "outputs": [
        {
          "internalType": "bool",
          "name": "result",
          "type": "bool"
        }
      ],
      "stateMutability": "nonpayable",
      "type": "function"
    },
    {
      "inputs": [
        {
          "internalType": "uint256",
          "name": "_monsterId",
          "type": "uint256"
        }
      ],
      "name": "getBasicMonster",
      "outputs": [
        {
          "components": [
            {
              "internalType": "uint256",
              "name": "monsterId",
              "type": "uint256"
            },
            {
              "internalType": "uint256",
              "name": "xpReward",
              "type": "uint256"
            },
            {
              "internalType": "uint256",
              "name": "damage",
              "type": "uint256"
            },
            {
              "internalType": "uint256",
              "name": "hp",
              "type": "uint256"
            },
            {
              "internalType": "uint256",
              "name": "cooldown",
              "type": "uint256"
            },
            {
              "internalType": "string",
              "name": "name",
              "type": "string"
            },
            {
              "internalType": "string",
              "name": "uri",
              "type": "string"
            }
          ],
          "internalType": "struct BasicMonster",
          "name": "",
          "type": "tuple"
        }
      ],
      "stateMutability": "view",
      "type": "function"
    },
    {
      "inputs": [
        {
          "internalType": "uint256",
          "name": "_playerId",
          "type": "uint256"
        },
        {
          "internalType": "uint256",
          "name": "_monsterId",
          "type": "uint256"
        }
      ],
      "name": "getBasicMonsterCooldown",
      "outputs": [
        {
          "internalType": "uint256",
          "name": "",
          "type": "uint256"
        }
      ],
      "stateMutability": "view",
      "type": "function"
    },
    {
      "inputs": [],
      "name": "getMonsterCounter",
      "outputs": [
        {
          "internalType": "uint256",
          "name": "",
          "type": "uint256"
        }
      ],
      "stateMutability": "view",
      "type": "function"
    }
  ],
  "bytecode": "0x608060405234801561001057600080fd5b50611463806100206000396000f3fe608060405234801561001057600080fd5b50600436106100575760003560e01c80630207f11f1461005c57806315e840d71461008c5780634b3564c8146100bc578063874e59a8146100d8578063fda30d4c14610108575b600080fd5b61007660048036038101906100719190610a27565b610126565b6040516100839190610a6f565b60405180910390f35b6100a660048036038101906100a19190610a8a565b61016c565b6040516100b39190610ad9565b60405180910390f35b6100d660048036038101906100d19190610c3a565b610180565b005b6100f260048036038101906100ed9190610a27565b6101ca565b6040516100ff9190610e30565b60405180910390f35b6101106101e2565b60405161011d9190610ad9565b60405180910390f35b6000610131826101f1565b9050801561016757817f897b5c7abcb9d1af199c95f7485f50c3e0dbed9b05f3068b69fd66613c34c38660405160405180910390a25b919050565b60006101788383610595565b905092915050565b61018e8686868686866105d2565b6101966106b2565b7f856d040967b09806c1357161c96c37bd00e1ddf47865abb6b6bc96b15edc1e3960405160405180910390a2505050505050565b6101d26109a0565b6101db826106ca565b9050919050565b60006101ec6106b2565b905090565b6000806101fc61085c565b90506000610208610889565b905060006102146108b6565b905060006102206108e3565b90506000846003016000888152602001908152602001600020600201541461024757600080fd5b3373ffffffffffffffffffffffffffffffffffffffff1684600201600088815260200190815260200160002060009054906101000a900473ffffffffffffffffffffffffffffffffffffffff1673ffffffffffffffffffffffffffffffffffffffff16146102b457600080fd5b61a8c0836004016000888152602001908152602001600020546102d79190610e81565b4210156102e357600080fd5b6040516020016102f290610f0c565b604051602081830303815290604052805190602001208260020160008660030160008a815260200190815260200160002060120160000154815260200190815260200160002060070160405160200161034b9190611019565b60405160208183030381529060405280519060200120146103a1576040517f08c379a00000000000000000000000000000000000000000000000000000000081526004016103989061108d565b60405180910390fd5b4283600401600088815260200190815260200160002081905550601360146103c888610910565b6103d291906110dc565b10610587578060000160008154809291906103ec9061110d565b9190505550604051806080016040528082600001548152602001600281526020018260030160008981526020019081526020016000208054905081526020016040518060400160405280600681526020017f447363616c6500000000000000000000000000000000000000000000000000008152508152508160020160008360000154815260200190815260200160002060008201518160000155602082015181600101556040820151816002015560608201518160030190816104b091906112ec565b5090505080600301600087815260200190815260200160002081600001549080600181540180825580915050600190039060005260206000200160009091909190915055338160010160008360000154815260200190815260200160002060006101000a81548173ffffffffffffffffffffffffffffffffffffffff021916908373ffffffffffffffffffffffffffffffffffffffff16021790555083600301600087815260200190815260200160002060010160008154809291906105759061110d565b91905055506001945050505050610590565b60009450505050505b919050565b6000806105a0610889565b905080600201600084815260200190815260200160002060008581526020019081526020016000205491505092915050565b60006105dc610889565b90508060000160008154809291906105f39061110d565b91905055506040518060e00160405280826000015481526020018881526020018781526020018681526020018581526020018481526020018381525081600301600083600001548152602001908152602001600020600082015181600001556020820151816001015560408201518160020155606082015181600301556080820151816004015560a082015181600501908161068f91906112ec565b5060c08201518160060190816106a591906112ec565b5090505050505050505050565b6000806106bd610889565b9050806000015491505090565b6106d26109a0565b60006106dc610889565b90508060030160008481526020019081526020016000206040518060e0016040529081600082015481526020016001820154815260200160028201548152602001600382015481526020016004820154815260200160058201805461074090610f50565b80601f016020809104026020016040519081016040528092919081815260200182805461076c90610f50565b80156107b95780601f1061078e576101008083540402835291602001916107b9565b820191906000526020600020905b81548152906001019060200180831161079c57829003601f168201915b505050505081526020016006820180546107d290610f50565b80601f01602080910402602001604051908101604052809291908181526020018280546107fe90610f50565b801561084b5780601f106108205761010080835404028352916020019161084b565b820191906000526020600020905b81548152906001019060200180831161082e57829003601f168201915b505050505081525050915050919050565b6000807f3cab9a070a0c61cd0ae9d9e9e2c0781e5ca8691bec4087e5a4701d5ac018dd4e90508091505090565b6000807f32545638e04f9bb0e18c6b7b873428ebfe8afc357b1d991bfe15d0950d92384590508091505090565b6000807faad0511195ddfb575f5187a7172ca6fc330f129a86291f15eaa5f7537ab038dc90508091505090565b6000807fb5dbbc334907f600e1151190a68c4043043163a23a907389a2c6f6231ed4318b90508091505090565b60008061091b610973565b90508060000160008154809291906109329061110d565b9190505550424484836000015460405160200161095294939291906113df565b6040516020818303038152906040528051906020012060001c915050919050565b6000807ff76a8e66124dac83b46aecd7c4256d5158e69f6adf88592fd8146c79e007626e90508091505090565b6040518060e00160405280600081526020016000815260200160008152602001600081526020016000815260200160608152602001606081525090565b6000604051905090565b600080fd5b600080fd5b6000819050919050565b610a04816109f1565b8114610a0f57600080fd5b50565b600081359050610a21816109fb565b92915050565b600060208284031215610a3d57610a3c6109e7565b5b6000610a4b84828501610a12565b91505092915050565b60008115159050919050565b610a6981610a54565b82525050565b6000602082019050610a846000830184610a60565b92915050565b60008060408385031215610aa157610aa06109e7565b5b6000610aaf85828601610a12565b9250506020610ac085828601610a12565b9150509250929050565b610ad3816109f1565b82525050565b6000602082019050610aee6000830184610aca565b92915050565b600080fd5b600080fd5b6000601f19601f8301169050919050565b7f4e487b7100000000000000000000000000000000000000000000000000000000600052604160045260246000fd5b610b4782610afe565b810181811067ffffffffffffffff82111715610b6657610b65610b0f565b5b80604052505050565b6000610b796109dd565b9050610b858282610b3e565b919050565b600067ffffffffffffffff821115610ba557610ba4610b0f565b5b610bae82610afe565b9050602081019050919050565b82818337600083830152505050565b6000610bdd610bd884610b8a565b610b6f565b905082815260208101848484011115610bf957610bf8610af9565b5b610c04848285610bbb565b509392505050565b600082601f830112610c2157610c20610af4565b5b8135610c31848260208601610bca565b91505092915050565b60008060008060008060c08789031215610c5757610c566109e7565b5b6000610c6589828a01610a12565b9650506020610c7689828a01610a12565b9550506040610c8789828a01610a12565b9450506060610c9889828a01610a12565b935050608087013567ffffffffffffffff811115610cb957610cb86109ec565b5b610cc589828a01610c0c565b92505060a087013567ffffffffffffffff811115610ce657610ce56109ec565b5b610cf289828a01610c0c565b9150509295509295509295565b610d08816109f1565b82525050565b600081519050919050565b600082825260208201905092915050565b60005b83811015610d48578082015181840152602081019050610d2d565b60008484015250505050565b6000610d5f82610d0e565b610d698185610d19565b9350610d79818560208601610d2a565b610d8281610afe565b840191505092915050565b600060e083016000830151610da56000860182610cff565b506020830151610db86020860182610cff565b506040830151610dcb6040860182610cff565b506060830151610dde6060860182610cff565b506080830151610df16080860182610cff565b5060a083015184820360a0860152610e098282610d54565b91505060c083015184820360c0860152610e238282610d54565b9150508091505092915050565b60006020820190508181036000830152610e4a8184610d8d565b905092915050565b7f4e487b7100000000000000000000000000000000000000000000000000000000600052601160045260246000fd5b6000610e8c826109f1565b9150610e97836109f1565b9250828201905080821115610eaf57610eae610e52565b5b92915050565b600081905092915050565b7f57697a4861740000000000000000000000000000000000000000000000000000600082015250565b6000610ef6600683610eb5565b9150610f0182610ec0565b600682019050919050565b6000610f1782610ee9565b9150819050919050565b7f4e487b7100000000000000000000000000000000000000000000000000000000600052602260045260246000fd5b60006002820490506001821680610f6857607f821691505b602082108103610f7b57610f7a610f21565b5b50919050565b60008190508160005260206000209050919050565b60008154610fa381610f50565b610fad8186610eb5565b94506001821660008114610fc85760018114610fdd57611010565b60ff1983168652811515820286019350611010565b610fe685610f81565b60005b8381101561100857815481890152600182019150602081019050610fe9565b838801955050505b50505092915050565b60006110258284610f96565b915081905092915050565b600082825260208201905092915050565b7f6e6f742077656172696e67206861740000000000000000000000000000000000600082015250565b6000611077600f83611030565b915061108282611041565b602082019050919050565b600060208201905081810360008301526110a68161106a565b9050919050565b7f4e487b7100000000000000000000000000000000000000000000000000000000600052601260045260246000fd5b60006110e7826109f1565b91506110f2836109f1565b925082611102576111016110ad565b5b828206905092915050565b6000611118826109f1565b91507fffffffffffffffffffffffffffffffffffffffffffffffffffffffffffffffff820361114a57611149610e52565b5b600182019050919050565b60006020601f8301049050919050565b600082821b905092915050565b6000600883026111a27fffffffffffffffffffffffffffffffffffffffffffffffffffffffffffffffff82611165565b6111ac8683611165565b95508019841693508086168417925050509392505050565b6000819050919050565b60006111e96111e46111df846109f1565b6111c4565b6109f1565b9050919050565b6000819050919050565b611203836111ce565b61121761120f826111f0565b848454611172565b825550505050565b600090565b61122c61121f565b6112378184846111fa565b505050565b5b8181101561125b57611250600082611224565b60018101905061123d565b5050565b601f8211156112a05761127181610f81565b61127a84611155565b81016020851015611289578190505b61129d61129585611155565b83018261123c565b50505b505050565b600082821c905092915050565b60006112c3600019846008026112a5565b1980831691505092915050565b60006112dc83836112b2565b9150826002028217905092915050565b6112f582610d0e565b67ffffffffffffffff81111561130e5761130d610b0f565b5b6113188254610f50565b61132382828561125f565b600060209050601f8311600181146113565760008415611344578287015190505b61134e85826112d0565b8655506113b6565b601f19841661136486610f81565b60005b8281101561138c57848901518255600182019150602085019450602081019050611367565b868310156113a957848901516113a5601f8916826112b2565b8355505b6001600288020188555050505b505050505050565b6000819050919050565b6113d96113d4826109f1565b6113be565b82525050565b60006113eb82876113c8565b6020820191506113fb82866113c8565b60208201915061140b82856113c8565b60208201915061141b82846113c8565b6020820191508190509594505050505056fea26469706673582212205781ec3f0d2ea3dc7adc2d7913c4fb3e160cdbb972e8604d487dc4f64037aabd64736f6c63430008110033",
  "linkReferences": {},
  "deployedLinkReferences": {}
}