{
  "_format": "hh-sol-artifact-1",
  "contractName": "MonsterFacet",
  "sourceName": "contracts/facets/MonsterFacet.sol",
  "abi": [
    {
      "anonymous": false,
      "inputs": [
        {
          "indexed": true,
          "internalType": "address",
          "name": "_address",
          "type": "address"
        }
      ],
      "name": "AddMonsterAdmin",
      "type": "event"
    },
    {
      "anonymous": false,
      "inputs": [
        {
          "indexed": true,
          "internalType": "uint256",
          "name": "_monsterId",
          "type": "uint256"
        },
        {
          "components": [
            {
              "internalType": "uint256",
              "name": "basicMonsterId",
              "type": "uint256"
            },
            {
              "internalType": "uint256",
              "name": "xpReward",
              "type": "uint256"
            },
            {
              "internalType": "uint256",
              "name": "damage",
              "type": "uint256"
            },
            {
              "internalType": "uint256",
              "name": "hp",
              "type": "uint256"
            },
            {
              "internalType": "uint256",
              "name": "cooldown",
              "type": "uint256"
            },
            {
              "internalType": "string",
              "name": "name",
              "type": "string"
            },
            {
              "internalType": "string",
              "name": "uri",
              "type": "string"
            }
          ],
          "indexed": false,
          "internalType": "struct BasicMonster",
          "name": "_basicMonster",
          "type": "tuple"
        }
      ],
      "name": "CreateBasicMonster",
      "type": "event"
    },
    {
      "anonymous": false,
      "inputs": [
        {
          "indexed": true,
          "internalType": "uint256",
          "name": "_monsterId",
          "type": "uint256"
        },
        {
          "components": [
            {
              "internalType": "uint256",
              "name": "basicMonsterId",
              "type": "uint256"
            },
            {
              "internalType": "uint256",
              "name": "xpReward",
              "type": "uint256"
            },
            {
              "internalType": "uint256",
              "name": "damage",
              "type": "uint256"
            },
            {
              "internalType": "uint256",
              "name": "hp",
              "type": "uint256"
            },
            {
              "internalType": "uint256",
              "name": "cooldown",
              "type": "uint256"
            },
            {
              "internalType": "uint256",
              "name": "cost",
              "type": "uint256"
            },
            {
              "internalType": "string",
              "name": "name",
              "type": "string"
            },
            {
              "internalType": "string",
              "name": "uri",
              "type": "string"
            }
          ],
          "indexed": false,
          "internalType": "struct MagicMonster",
          "name": "_magicMonster",
          "type": "tuple"
        }
      ],
      "name": "CreateMagicMonster",
      "type": "event"
    },
    {
      "anonymous": false,
      "inputs": [
        {
          "indexed": true,
          "internalType": "uint256",
          "name": "_playerId",
          "type": "uint256"
        }
      ],
      "name": "DragonQuest",
      "type": "event"
    },
    {
      "anonymous": false,
      "inputs": [
        {
          "indexed": true,
          "internalType": "uint256",
          "name": "_monsterId",
          "type": "uint256"
        }
      ],
      "name": "EditBasicMonster",
      "type": "event"
    },
    {
      "anonymous": false,
      "inputs": [
        {
          "indexed": true,
          "internalType": "uint256",
          "name": "_monsterId",
          "type": "uint256"
        },
        {
          "indexed": false,
          "internalType": "uint256",
          "name": "_playerId",
          "type": "uint256"
        }
      ],
      "name": "FightBasicMonster",
      "type": "event"
    },
    {
      "anonymous": false,
      "inputs": [
        {
          "indexed": true,
          "internalType": "uint256",
          "name": "_monsterId",
          "type": "uint256"
        },
        {
          "indexed": false,
          "internalType": "uint256",
          "name": "_playerId",
          "type": "uint256"
        }
      ],
      "name": "FightMagicMonster",
      "type": "event"
    },
    {
      "inputs": [
        {
          "internalType": "address",
          "name": "_address",
          "type": "address"
        }
      ],
      "name": "addMonsterAdmin",
      "outputs": [],
      "stateMutability": "nonpayable",
      "type": "function"
    },
    {
      "inputs": [
        {
          "internalType": "uint256",
          "name": "_xpReward",
          "type": "uint256"
        },
        {
          "internalType": "uint256",
          "name": "_damage",
          "type": "uint256"
        },
        {
          "internalType": "uint256",
          "name": "_hp",
          "type": "uint256"
        },
        {
          "internalType": "uint256",
          "name": "_cooldown",
          "type": "uint256"
        },
        {
          "internalType": "string",
          "name": "_name",
          "type": "string"
        },
        {
          "internalType": "string",
          "name": "_uri",
          "type": "string"
        }
      ],
      "name": "createBasicMonster",
      "outputs": [],
      "stateMutability": "nonpayable",
      "type": "function"
    },
    {
      "inputs": [
        {
          "internalType": "uint256",
          "name": "_xpReward",
          "type": "uint256"
        },
        {
          "internalType": "uint256",
          "name": "_damage",
          "type": "uint256"
        },
        {
          "internalType": "uint256",
          "name": "_hp",
          "type": "uint256"
        },
        {
          "internalType": "uint256",
          "name": "_cooldown",
          "type": "uint256"
        },
        {
          "internalType": "uint256",
          "name": "_cost",
          "type": "uint256"
        },
        {
          "internalType": "string",
          "name": "_name",
          "type": "string"
        },
        {
          "internalType": "string",
          "name": "_uri",
          "type": "string"
        }
      ],
      "name": "createMagicMonster",
      "outputs": [],
      "stateMutability": "nonpayable",
      "type": "function"
    },
    {
      "inputs": [
        {
          "internalType": "uint256",
          "name": "_basicMonsterId",
          "type": "uint256"
        },
        {
          "internalType": "uint256",
          "name": "_xpReward",
          "type": "uint256"
        },
        {
          "internalType": "uint256",
          "name": "_damage",
          "type": "uint256"
        },
        {
          "internalType": "uint256",
          "name": "_hp",
          "type": "uint256"
        },
        {
          "internalType": "uint256",
          "name": "_cooldown",
          "type": "uint256"
        },
        {
          "internalType": "string",
          "name": "_name",
          "type": "string"
        },
        {
          "internalType": "string",
          "name": "_uri",
          "type": "string"
        }
      ],
      "name": "editBasicMonster",
      "outputs": [],
      "stateMutability": "nonpayable",
      "type": "function"
    },
    {
      "inputs": [
        {
          "internalType": "uint256",
          "name": "_playerId",
          "type": "uint256"
        },
        {
          "internalType": "uint256",
          "name": "_monsterId",
          "type": "uint256"
        }
      ],
      "name": "fightBasicMonster",
      "outputs": [],
      "stateMutability": "nonpayable",
      "type": "function"
    },
    {
      "inputs": [
        {
          "internalType": "uint256",
          "name": "_playerId",
          "type": "uint256"
        },
        {
          "internalType": "uint256",
          "name": "_monsterId",
          "type": "uint256"
        }
      ],
      "name": "fightMagicMonster",
      "outputs": [],
      "stateMutability": "nonpayable",
      "type": "function"
    },
    {
      "inputs": [
        {
          "internalType": "uint256",
          "name": "_monsterId",
          "type": "uint256"
        }
      ],
      "name": "getBasicMonster",
      "outputs": [
        {
          "components": [
            {
              "internalType": "uint256",
              "name": "basicMonsterId",
              "type": "uint256"
            },
            {
              "internalType": "uint256",
              "name": "xpReward",
              "type": "uint256"
            },
            {
              "internalType": "uint256",
              "name": "damage",
              "type": "uint256"
            },
            {
              "internalType": "uint256",
              "name": "hp",
              "type": "uint256"
            },
            {
              "internalType": "uint256",
              "name": "cooldown",
              "type": "uint256"
            },
            {
              "internalType": "string",
              "name": "name",
              "type": "string"
            },
            {
              "internalType": "string",
              "name": "uri",
              "type": "string"
            }
          ],
          "internalType": "struct BasicMonster",
          "name": "",
          "type": "tuple"
        }
      ],
      "stateMutability": "view",
      "type": "function"
    },
    {
      "inputs": [
        {
          "internalType": "uint256",
          "name": "_playerId",
          "type": "uint256"
        },
        {
          "internalType": "uint256",
          "name": "_monsterId",
          "type": "uint256"
        }
      ],
      "name": "getBasicMonsterCooldown",
      "outputs": [
        {
          "internalType": "uint256",
          "name": "",
          "type": "uint256"
        }
      ],
      "stateMutability": "view",
      "type": "function"
    },
    {
      "inputs": [],
      "name": "getBasicMonsterCounter",
      "outputs": [
        {
          "internalType": "uint256",
          "name": "",
          "type": "uint256"
        }
      ],
      "stateMutability": "view",
      "type": "function"
    },
    {
      "inputs": [
        {
          "internalType": "uint256",
          "name": "_monsterId",
          "type": "uint256"
        }
      ],
      "name": "getMagicMonster",
      "outputs": [
        {
          "components": [
            {
              "internalType": "uint256",
              "name": "basicMonsterId",
              "type": "uint256"
            },
            {
              "internalType": "uint256",
              "name": "xpReward",
              "type": "uint256"
            },
            {
              "internalType": "uint256",
              "name": "damage",
              "type": "uint256"
            },
            {
              "internalType": "uint256",
              "name": "hp",
              "type": "uint256"
            },
            {
              "internalType": "uint256",
              "name": "cooldown",
              "type": "uint256"
            },
            {
              "internalType": "uint256",
              "name": "cost",
              "type": "uint256"
            },
            {
              "internalType": "string",
              "name": "name",
              "type": "string"
            },
            {
              "internalType": "string",
              "name": "uri",
              "type": "string"
            }
          ],
          "internalType": "struct MagicMonster",
          "name": "",
          "type": "tuple"
        }
      ],
      "stateMutability": "view",
      "type": "function"
    },
    {
      "inputs": [
        {
          "internalType": "uint256",
          "name": "_playerId",
          "type": "uint256"
        },
        {
          "internalType": "uint256",
          "name": "_monsterId",
          "type": "uint256"
        }
      ],
      "name": "getMagicMonsterCooldown",
      "outputs": [
        {
          "internalType": "uint256",
          "name": "",
          "type": "uint256"
        }
      ],
      "stateMutability": "view",
      "type": "function"
    },
    {
      "inputs": [],
      "name": "getMagicMonsterCounter",
      "outputs": [
        {
          "internalType": "uint256",
          "name": "",
          "type": "uint256"
        }
      ],
      "stateMutability": "view",
      "type": "function"
    },
    {
      "inputs": [
        {
          "internalType": "uint256",
          "name": "_playerId",
          "type": "uint256"
        }
      ],
      "name": "stakeMonsterGoldBasic",
      "outputs": [],
      "stateMutability": "nonpayable",
      "type": "function"
    },
    {
      "inputs": [
        {
          "internalType": "uint256",
          "name": "_playerId",
          "type": "uint256"
        }
      ],
      "name": "unstakeMonsterGoldBasic",
      "outputs": [],
      "stateMutability": "nonpayable",
      "type": "function"
    }
  ],
  "bytecode": "0x608060405234801561001057600080fd5b50612477806100206000396000f3fe608060405234801561001057600080fd5b50600436106100ea5760003560e01c806372eba48f1161008c578063d6eb094211610066578063d6eb094214610259578063dbab7a7514610275578063ed068a1214610293578063fc2875d4146102af576100ea565b806372eba48f146101f15780638565cd481461020d578063874e59a814610229576100ea565b806346a61f0b116100c857806346a61f0b146101595780634996d948146101895780634b3564c8146101a55780635f0b8b8a146101c1576100ea565b806315e840d7146100ef5780632642c3f21461011f5780632c566bf41461013d575b600080fd5b610109600480360381019061010491906118df565b6102cb565b604051610116919061192e565b60405180910390f35b6101276102df565b604051610134919061192e565b60405180910390f35b61015760048036038101906101529190611949565b6102ee565b005b610173600480360381019061016e91906118df565b6102fa565b604051610180919061192e565b60405180910390f35b6101a3600480360381019061019e9190611abc565b61030e565b005b6101bf60048036038101906101ba9190611b96565b610385565b005b6101db60048036038101906101d69190611949565b6103fa565b6040516101e89190611da0565b60405180910390f35b61020b600480360381019061020691906118df565b610412565b005b61022760048036038101906102229190611949565b610458565b005b610243600480360381019061023e9190611949565b610464565b6040516102509190611e65565b60405180910390f35b610273600480360381019061026e9190611ee5565b61047c565b005b61027d61051d565b60405161028a919061192e565b60405180910390f35b6102ad60048036038101906102a89190611abc565b61052c565b005b6102c960048036038101906102c491906118df565b610583565b005b60006102d783836105c9565b905092915050565b60006102e9610606565b905090565b6102f78161061e565b50565b60006103068383610732565b905092915050565b6103173361076f565b61032057600080fd5b61032f878787878787876107e4565b6000610339610606565b9050807f76dfc9f297d03846d3214cedc28494b8f939ce3ddf944933e3eecbfd5ac626e1610366836103fa565b6040516103739190611da0565b60405180910390a25050505050505050565b61038e3361076f565b61039757600080fd5b6103a58686868686866108d6565b60006103af6109b6565b9050807f6ce630d16f61e286c5181100c5d4beae97eef06462b9788c40aaf180813877f86103dc836109ce565b6040516103e99190611e65565b60405180910390a250505050505050565b610402611813565b61040b82610b60565b9050919050565b61041c8282610cfd565b807f965610a8ff8ff82f321c7b88c47381f3bd47756fba31ffa181b65fa2c6acb1c18360405161044c919061192e565b60405180910390a25050565b61046181611144565b50565b61046c611858565b610475826109ce565b9050919050565b600073434d36f32abed3f7937fe0be88dc1b0eb938124490508073ffffffffffffffffffffffffffffffffffffffff163373ffffffffffffffffffffffffffffffffffffffff16146104cd57600080fd5b6104d682611236565b8173ffffffffffffffffffffffffffffffffffffffff167fcbfb7a579bf487d6f714679200797a2c7cd2a501be72c8a0b7827b474e6359a760405160405180910390a25050565b60006105276109b6565b905090565b6105353361076f565b61053e57600080fd5b61054d878787878787876112b1565b867fa5d4155cd62c6eda8f9aa81200beec89353e740751684cc81e1aa1a7e65ede6d60405160405180910390a250505050505050565b61058d8282611387565b807fac9c0073f52a3b08821048912ffb937aaac393618f0474f2ef7960ed035c3d30836040516105bd919061192e565b60405180910390a25050565b6000806105d461178c565b905080600501600084815260200190815260200160002060008581526020019081526020016000205491505092915050565b60008061061161178c565b9050806001015491505090565b600061062861178c565b905060006106346117b9565b90506103e88160000160003373ffffffffffffffffffffffffffffffffffffffff1673ffffffffffffffffffffffffffffffffffffffff16815260200190815260200160002054101561068657600080fd5b600082600301600085815260200190815260200160002054116106a857600080fd5b6103e88160000160003373ffffffffffffffffffffffffffffffffffffffff1673ffffffffffffffffffffffffffffffffffffffff16815260200190815260200160002060008282546106fb9190611f41565b92505081905550816003016000848152602001908152602001600020600081548092919061072890611f75565b9190505550505050565b60008061073d61178c565b905080600701600084815260200190815260200160002060008581526020019081526020016000205491505092915050565b60008061077a61178c565b905080600401600046815260200190815260200160002060008473ffffffffffffffffffffffffffffffffffffffff1673ffffffffffffffffffffffffffffffffffffffff16815260200190815260200160002060009054906101000a900460ff16915050919050565b60006107ee61178c565b905080600101600081548092919061080590611f9e565b9190505550604051806101000160405280826000015481526020018981526020018881526020018781526020018681526020018581526020018481526020018381525081600801600083600101548152602001908152602001600020600082015181600001556020820151816001015560408201518160020155606082015181600301556080820151816004015560a0820151816005015560c08201518160060190816108b291906121f2565b5060e08201518160070190816108c891906121f2565b509050505050505050505050565b60006108e061178c565b90508060000160008154809291906108f790611f9e565b91905055506040518060e00160405280826000015481526020018881526020018781526020018681526020018581526020018481526020018381525081600601600083600001548152602001908152602001600020600082015181600001556020820151816001015560408201518160020155606082015181600301556080820151816004015560a082015181600501908161099391906121f2565b5060c08201518160060190816109a991906121f2565b5090505050505050505050565b6000806109c161178c565b9050806000015491505090565b6109d6611858565b60006109e061178c565b90508060060160008481526020019081526020016000206040518060e00160405290816000820154815260200160018201548152602001600282015481526020016003820154815260200160048201548152602001600582018054610a4490612015565b80601f0160208091040260200160405190810160405280929190818152602001828054610a7090612015565b8015610abd5780601f10610a9257610100808354040283529160200191610abd565b820191906000526020600020905b815481529060010190602001808311610aa057829003601f168201915b50505050508152602001600682018054610ad690612015565b80601f0160208091040260200160405190810160405280929190818152602001828054610b0290612015565b8015610b4f5780601f10610b2457610100808354040283529160200191610b4f565b820191906000526020600020905b815481529060010190602001808311610b3257829003601f168201915b505050505081525050915050919050565b610b68611813565b6000610b7261178c565b905080600801600084815260200190815260200160002060405180610100016040529081600082015481526020016001820154815260200160028201548152602001600382015481526020016004820154815260200160058201548152602001600682018054610be190612015565b80601f0160208091040260200160405190810160405280929190818152602001828054610c0d90612015565b8015610c5a5780601f10610c2f57610100808354040283529160200191610c5a565b820191906000526020600020905b815481529060010190602001808311610c3d57829003601f168201915b50505050508152602001600782018054610c7390612015565b80601f0160208091040260200160405190810160405280929190818152602001828054610c9f90612015565b8015610cec5780601f10610cc157610100808354040283529160200191610cec565b820191906000526020600020905b815481529060010190602001808311610ccf57829003601f168201915b505050505081525050915050919050565b6000610d0761178c565b90506000610d136117e6565b905060008160030160008681526020019081526020016000206002015414610d3a57600080fd5b3373ffffffffffffffffffffffffffffffffffffffff1681600201600086815260200190815260200160002060009054906101000a900473ffffffffffffffffffffffffffffffffffffffff1673ffffffffffffffffffffffffffffffffffffffff1614610da757600080fd5b81600801600084815260200190815260200160002060050154816003016000868152602001908152602001600020600701541015610de457600080fd5b600082600801600085815260200190815260200160002060020154826003016000878152602001908152602001600020600e01541015610e6257816003016000868152602001908152602001600020600e015483600801600086815260200190815260200160002060020154610e5a9190611f41565b905080610e68565b60019050805b50808260030160008781526020019081526020016000206005015411610ec3576040517f08c379a0000000000000000000000000000000000000000000000000000000008152600401610eba90612321565b60405180910390fd5b6000600284600801600087815260200190815260200160002060040154610eea9190612370565b836003016000888152602001908152602001600020600901541015610f5957600a8360030160008881526020019081526020016000206009015485600801600088815260200190815260200160002060040154610f479190611f41565b610f5191906123a1565b905080610f82565b600284600801600087815260200190815260200160002060040154610f7e9190612370565b9050805b5080846007016000878152602001908152602001600020600088815260200190815260200160002054610fb591906123a1565b421015610fc157600080fd5b83600801600086815260200190815260200160002060030154836003016000888152602001908152602001600020600601541015611034576040517f08c379a000000000000000000000000000000000000000000000000000000000815260040161102b90612421565b60405180910390fd5b836003016000878152602001908152602001600020548460080160008781526020019081526020016000206001015461106d91906123a1565b836003016000888152602001908152602001600020600101600082825461109491906123a1565b925050819055508183600301600088815260200190815260200160002060050160008282546110c39190611f41565b9250508190555083600801600086815260200190815260200160002060050154836003016000888152602001908152602001600020600701600082825461110a9190611f41565b9250508190555042846005016000878152602001908152602001600020600088815260200190815260200160002081905550505050505050565b600061114e61178c565b9050600061115a6117b9565b90506103e88160000160003373ffffffffffffffffffffffffffffffffffffffff1673ffffffffffffffffffffffffffffffffffffffff1681526020019081526020016000205410156111ac57600080fd5b6103e88160000160003373ffffffffffffffffffffffffffffffffffffffff1673ffffffffffffffffffffffffffffffffffffffff16815260200190815260200160002060008282546111ff9190611f41565b92505081905550816003016000848152602001908152602001600020600081548092919061122c90611f9e565b9190505550505050565b600061124061178c565b9050600181600401600046815260200190815260200160002060008473ffffffffffffffffffffffffffffffffffffffff1673ffffffffffffffffffffffffffffffffffffffff16815260200190815260200160002060006101000a81548160ff0219169083151502179055505050565b60006112bb61178c565b9050868160060160008a815260200190815260200160002060010181905550858160060160008a815260200190815260200160002060020181905550848160060160008a815260200190815260200160002060030181905550838160060160008a815260200190815260200160002060040181905550828160060160008a8152602001908152602001600020600501908161135691906121f2565b50818160060160008a8152602001908152602001600020600601908161137c91906121f2565b505050505050505050565b600061139161178c565b9050600061139d6117e6565b9050600081600301600086815260200190815260200160002060020154146113c457600080fd5b3373ffffffffffffffffffffffffffffffffffffffff1681600201600086815260200190815260200160002060009054906101000a900473ffffffffffffffffffffffffffffffffffffffff1673ffffffffffffffffffffffffffffffffffffffff161461143157600080fd5b60008160030160008681526020019081526020016000206006015482600301600087815260200190815260200160002060030154101561148c57816003016000868152602001908152602001600020600601549050806114a9565b816003016000868152602001908152602001600020600301549050805b50600083600601600086815260200190815260200160002060020154836003016000888152602001908152602001600020600e0154101561152857826003016000878152602001908152602001600020600e0154846006016000878152602001908152602001600020600201546115209190611f41565b90508061152e565b60019050805b50808360030160008881526020019081526020016000206005015411611589576040517f08c379a000000000000000000000000000000000000000000000000000000000815260040161158090612321565b60405180910390fd5b60006002856006016000888152602001908152602001600020600401546115b09190612370565b84600301600089815260200190815260200160002060090154101561161f57600a846003016000898152602001908152602001600020600901548660060160008981526020019081526020016000206004015461160d9190611f41565b61161791906123a1565b905080611648565b6002856006016000888152602001908152602001600020600401546116449190612370565b9050805b508085600501600088815260200190815260200160002060008981526020019081526020016000205461167b91906123a1565b42101561168757600080fd5b846006016000878152602001908152602001600020600301548310156116e2576040517f08c379a00000000000000000000000000000000000000000000000000000000081526004016116d990612421565b60405180910390fd5b84600601600087815260200190815260200160002060010154846003016000898152602001908152602001600020600101600082825461172291906123a1565b925050819055508184600301600089815260200190815260200160002060050160008282546117519190611f41565b925050819055504285600501600088815260200190815260200160002060008981526020019081526020016000208190555050505050505050565b6000807f32545638e04f9bb0e18c6b7b873428ebfe8afc357b1d991bfe15d0950d92384590508091505090565b6000807f2c89d74504b6ad8d4fbde22bc3474166bac5452a11195897f239d8bebe02d70790508091505090565b6000807f3cab9a070a0c61cd0ae9d9e9e2c0781e5ca8691bec4087e5a4701d5ac018dd4e90508091505090565b60405180610100016040528060008152602001600081526020016000815260200160008152602001600081526020016000815260200160608152602001606081525090565b6040518060e00160405280600081526020016000815260200160008152602001600081526020016000815260200160608152602001606081525090565b6000604051905090565b600080fd5b600080fd5b6000819050919050565b6118bc816118a9565b81146118c757600080fd5b50565b6000813590506118d9816118b3565b92915050565b600080604083850312156118f6576118f561189f565b5b6000611904858286016118ca565b9250506020611915858286016118ca565b9150509250929050565b611928816118a9565b82525050565b6000602082019050611943600083018461191f565b92915050565b60006020828403121561195f5761195e61189f565b5b600061196d848285016118ca565b91505092915050565b600080fd5b600080fd5b6000601f19601f8301169050919050565b7f4e487b7100000000000000000000000000000000000000000000000000000000600052604160045260246000fd5b6119c982611980565b810181811067ffffffffffffffff821117156119e8576119e7611991565b5b80604052505050565b60006119fb611895565b9050611a0782826119c0565b919050565b600067ffffffffffffffff821115611a2757611a26611991565b5b611a3082611980565b9050602081019050919050565b82818337600083830152505050565b6000611a5f611a5a84611a0c565b6119f1565b905082815260208101848484011115611a7b57611a7a61197b565b5b611a86848285611a3d565b509392505050565b600082601f830112611aa357611aa2611976565b5b8135611ab3848260208601611a4c565b91505092915050565b600080600080600080600060e0888a031215611adb57611ada61189f565b5b6000611ae98a828b016118ca565b9750506020611afa8a828b016118ca565b9650506040611b0b8a828b016118ca565b9550506060611b1c8a828b016118ca565b9450506080611b2d8a828b016118ca565b93505060a088013567ffffffffffffffff811115611b4e57611b4d6118a4565b5b611b5a8a828b01611a8e565b92505060c088013567ffffffffffffffff811115611b7b57611b7a6118a4565b5b611b878a828b01611a8e565b91505092959891949750929550565b60008060008060008060c08789031215611bb357611bb261189f565b5b6000611bc189828a016118ca565b9650506020611bd289828a016118ca565b9550506040611be389828a016118ca565b9450506060611bf489828a016118ca565b935050608087013567ffffffffffffffff811115611c1557611c146118a4565b5b611c2189828a01611a8e565b92505060a087013567ffffffffffffffff811115611c4257611c416118a4565b5b611c4e89828a01611a8e565b9150509295509295509295565b611c64816118a9565b82525050565b600081519050919050565b600082825260208201905092915050565b60005b83811015611ca4578082015181840152602081019050611c89565b60008484015250505050565b6000611cbb82611c6a565b611cc58185611c75565b9350611cd5818560208601611c86565b611cde81611980565b840191505092915050565b600061010083016000830151611d026000860182611c5b565b506020830151611d156020860182611c5b565b506040830151611d286040860182611c5b565b506060830151611d3b6060860182611c5b565b506080830151611d4e6080860182611c5b565b5060a0830151611d6160a0860182611c5b565b5060c083015184820360c0860152611d798282611cb0565b91505060e083015184820360e0860152611d938282611cb0565b9150508091505092915050565b60006020820190508181036000830152611dba8184611ce9565b905092915050565b600060e083016000830151611dda6000860182611c5b565b506020830151611ded6020860182611c5b565b506040830151611e006040860182611c5b565b506060830151611e136060860182611c5b565b506080830151611e266080860182611c5b565b5060a083015184820360a0860152611e3e8282611cb0565b91505060c083015184820360c0860152611e588282611cb0565b9150508091505092915050565b60006020820190508181036000830152611e7f8184611dc2565b905092915050565b600073ffffffffffffffffffffffffffffffffffffffff82169050919050565b6000611eb282611e87565b9050919050565b611ec281611ea7565b8114611ecd57600080fd5b50565b600081359050611edf81611eb9565b92915050565b600060208284031215611efb57611efa61189f565b5b6000611f0984828501611ed0565b91505092915050565b7f4e487b7100000000000000000000000000000000000000000000000000000000600052601160045260246000fd5b6000611f4c826118a9565b9150611f57836118a9565b9250828203905081811115611f6f57611f6e611f12565b5b92915050565b6000611f80826118a9565b915060008203611f9357611f92611f12565b5b600182039050919050565b6000611fa9826118a9565b91507fffffffffffffffffffffffffffffffffffffffffffffffffffffffffffffffff8203611fdb57611fda611f12565b5b600182019050919050565b7f4e487b7100000000000000000000000000000000000000000000000000000000600052602260045260246000fd5b6000600282049050600182168061202d57607f821691505b6020821081036120405761203f611fe6565b5b50919050565b60008190508160005260206000209050919050565b60006020601f8301049050919050565b600082821b905092915050565b6000600883026120a87fffffffffffffffffffffffffffffffffffffffffffffffffffffffffffffffff8261206b565b6120b2868361206b565b95508019841693508086168417925050509392505050565b6000819050919050565b60006120ef6120ea6120e5846118a9565b6120ca565b6118a9565b9050919050565b6000819050919050565b612109836120d4565b61211d612115826120f6565b848454612078565b825550505050565b600090565b612132612125565b61213d818484612100565b505050565b5b818110156121615761215660008261212a565b600181019050612143565b5050565b601f8211156121a65761217781612046565b6121808461205b565b8101602085101561218f578190505b6121a361219b8561205b565b830182612142565b50505b505050565b600082821c905092915050565b60006121c9600019846008026121ab565b1980831691505092915050565b60006121e283836121b8565b9150826002028217905092915050565b6121fb82611c6a565b67ffffffffffffffff81111561221457612213611991565b5b61221e8254612015565b612229828285612165565b600060209050601f83116001811461225c576000841561224a578287015190505b61225485826121d6565b8655506122bc565b601f19841661226a86612046565b60005b828110156122925784890151825560018201915060208501945060208101905061226d565b868310156122af57848901516122ab601f8916826121b8565b8355505b6001600288020188555050505b505050505050565b600082825260208201905092915050565b7f6e6f7420656e6f75676820687000000000000000000000000000000000000000600082015250565b600061230b600d836122c4565b9150612316826122d5565b602082019050919050565b6000602082019050818103600083015261233a816122fe565b9050919050565b7f4e487b7100000000000000000000000000000000000000000000000000000000600052601260045260246000fd5b600061237b826118a9565b9150612386836118a9565b92508261239657612395612341565b5b828204905092915050565b60006123ac826118a9565b91506123b7836118a9565b92508282019050808211156123cf576123ce611f12565b5b92915050565b7f6e6f74207374726f6e6720656e6f756768000000000000000000000000000000600082015250565b600061240b6011836122c4565b9150612416826123d5565b602082019050919050565b6000602082019050818103600083015261243a816123fe565b905091905056fea2646970667358221220f18b8204c51c714b71d015c799d17345b74977d4f3bb7b418a9a350a15babceb64736f6c63430008120033",
  "linkReferences": {},
  "deployedLinkReferences": {}
}