{
  "_format": "hh-sol-artifact-1",
  "contractName": "MonsterFacet",
  "sourceName": "contracts/facets/MonsterFacet.sol",
  "abi": [
    {
      "anonymous": false,
      "inputs": [
        {
          "indexed": true,
          "internalType": "uint256",
          "name": "_monsterId",
          "type": "uint256"
        },
        {
          "components": [
            {
              "internalType": "uint256",
              "name": "basicMonsterId",
              "type": "uint256"
            },
            {
              "internalType": "uint256",
              "name": "xpReward",
              "type": "uint256"
            },
            {
              "internalType": "uint256",
              "name": "damage",
              "type": "uint256"
            },
            {
              "internalType": "uint256",
              "name": "hp",
              "type": "uint256"
            },
            {
              "internalType": "uint256",
              "name": "cooldown",
              "type": "uint256"
            },
            {
              "internalType": "string",
              "name": "name",
              "type": "string"
            },
            {
              "internalType": "string",
              "name": "uri",
              "type": "string"
            }
          ],
          "indexed": false,
          "internalType": "struct BasicMonster",
          "name": "_basicMonster",
          "type": "tuple"
        }
      ],
      "name": "CreateBasicMonster",
      "type": "event"
    },
    {
      "anonymous": false,
      "inputs": [
        {
          "indexed": true,
          "internalType": "uint256",
          "name": "_monsterId",
          "type": "uint256"
        },
        {
          "components": [
            {
              "internalType": "uint256",
              "name": "basicMonsterId",
              "type": "uint256"
            },
            {
              "internalType": "uint256",
              "name": "xpReward",
              "type": "uint256"
            },
            {
              "internalType": "uint256",
              "name": "damage",
              "type": "uint256"
            },
            {
              "internalType": "uint256",
              "name": "hp",
              "type": "uint256"
            },
            {
              "internalType": "uint256",
              "name": "cooldown",
              "type": "uint256"
            },
            {
              "internalType": "uint256",
              "name": "cost",
              "type": "uint256"
            },
            {
              "internalType": "string",
              "name": "name",
              "type": "string"
            },
            {
              "internalType": "string",
              "name": "uri",
              "type": "string"
            }
          ],
          "indexed": false,
          "internalType": "struct MagicMonster",
          "name": "_magicMonster",
          "type": "tuple"
        }
      ],
      "name": "CreateMagicMonster",
      "type": "event"
    },
    {
      "anonymous": false,
      "inputs": [
        {
          "indexed": true,
          "internalType": "uint256",
          "name": "_playerId",
          "type": "uint256"
        }
      ],
      "name": "DragonQuest",
      "type": "event"
    },
    {
      "anonymous": false,
      "inputs": [
        {
          "indexed": true,
          "internalType": "uint256",
          "name": "_monsterId",
          "type": "uint256"
        }
      ],
      "name": "EditBasicMonster",
      "type": "event"
    },
    {
      "anonymous": false,
      "inputs": [
        {
          "indexed": true,
          "internalType": "uint256",
          "name": "_monsterId",
          "type": "uint256"
        },
        {
          "indexed": false,
          "internalType": "uint256",
          "name": "_playerId",
          "type": "uint256"
        }
      ],
      "name": "FightBasicMonster",
      "type": "event"
    },
    {
      "anonymous": false,
      "inputs": [
        {
          "indexed": true,
          "internalType": "uint256",
          "name": "_monsterId",
          "type": "uint256"
        },
        {
          "indexed": false,
          "internalType": "uint256",
          "name": "_playerId",
          "type": "uint256"
        }
      ],
      "name": "FightMagicMonster",
      "type": "event"
    },
    {
      "inputs": [
        {
          "internalType": "uint256",
          "name": "_xpReward",
          "type": "uint256"
        },
        {
          "internalType": "uint256",
          "name": "_damage",
          "type": "uint256"
        },
        {
          "internalType": "uint256",
          "name": "_hp",
          "type": "uint256"
        },
        {
          "internalType": "uint256",
          "name": "_cooldown",
          "type": "uint256"
        },
        {
          "internalType": "string",
          "name": "_name",
          "type": "string"
        },
        {
          "internalType": "string",
          "name": "_uri",
          "type": "string"
        }
      ],
      "name": "createBasicMonster",
      "outputs": [],
      "stateMutability": "nonpayable",
      "type": "function"
    },
    {
      "inputs": [
        {
          "internalType": "uint256",
          "name": "_xpReward",
          "type": "uint256"
        },
        {
          "internalType": "uint256",
          "name": "_damage",
          "type": "uint256"
        },
        {
          "internalType": "uint256",
          "name": "_hp",
          "type": "uint256"
        },
        {
          "internalType": "uint256",
          "name": "_cooldown",
          "type": "uint256"
        },
        {
          "internalType": "uint256",
          "name": "_cost",
          "type": "uint256"
        },
        {
          "internalType": "string",
          "name": "_name",
          "type": "string"
        },
        {
          "internalType": "string",
          "name": "_uri",
          "type": "string"
        }
      ],
      "name": "createMagicMonster",
      "outputs": [],
      "stateMutability": "nonpayable",
      "type": "function"
    },
    {
      "inputs": [
        {
          "internalType": "uint256",
          "name": "_basicMonsterId",
          "type": "uint256"
        },
        {
          "internalType": "uint256",
          "name": "_xpReward",
          "type": "uint256"
        },
        {
          "internalType": "uint256",
          "name": "_damage",
          "type": "uint256"
        },
        {
          "internalType": "uint256",
          "name": "_hp",
          "type": "uint256"
        },
        {
          "internalType": "uint256",
          "name": "_cooldown",
          "type": "uint256"
        },
        {
          "internalType": "string",
          "name": "_name",
          "type": "string"
        },
        {
          "internalType": "string",
          "name": "_uri",
          "type": "string"
        }
      ],
      "name": "editBasicMonster",
      "outputs": [],
      "stateMutability": "nonpayable",
      "type": "function"
    },
    {
      "inputs": [
        {
          "internalType": "uint256",
          "name": "_playerId",
          "type": "uint256"
        },
        {
          "internalType": "uint256",
          "name": "_monsterId",
          "type": "uint256"
        }
      ],
      "name": "fightBasicMonster",
      "outputs": [],
      "stateMutability": "nonpayable",
      "type": "function"
    },
    {
      "inputs": [
        {
          "internalType": "uint256",
          "name": "_playerId",
          "type": "uint256"
        },
        {
          "internalType": "uint256",
          "name": "_monsterId",
          "type": "uint256"
        }
      ],
      "name": "fightMagicMonster",
      "outputs": [],
      "stateMutability": "nonpayable",
      "type": "function"
    },
    {
      "inputs": [
        {
          "internalType": "uint256",
          "name": "_monsterId",
          "type": "uint256"
        }
      ],
      "name": "getBasicMonster",
      "outputs": [
        {
          "components": [
            {
              "internalType": "uint256",
              "name": "basicMonsterId",
              "type": "uint256"
            },
            {
              "internalType": "uint256",
              "name": "xpReward",
              "type": "uint256"
            },
            {
              "internalType": "uint256",
              "name": "damage",
              "type": "uint256"
            },
            {
              "internalType": "uint256",
              "name": "hp",
              "type": "uint256"
            },
            {
              "internalType": "uint256",
              "name": "cooldown",
              "type": "uint256"
            },
            {
              "internalType": "string",
              "name": "name",
              "type": "string"
            },
            {
              "internalType": "string",
              "name": "uri",
              "type": "string"
            }
          ],
          "internalType": "struct BasicMonster",
          "name": "",
          "type": "tuple"
        }
      ],
      "stateMutability": "view",
      "type": "function"
    },
    {
      "inputs": [
        {
          "internalType": "uint256",
          "name": "_playerId",
          "type": "uint256"
        },
        {
          "internalType": "uint256",
          "name": "_monsterId",
          "type": "uint256"
        }
      ],
      "name": "getBasicMonsterCooldown",
      "outputs": [
        {
          "internalType": "uint256",
          "name": "",
          "type": "uint256"
        }
      ],
      "stateMutability": "view",
      "type": "function"
    },
    {
      "inputs": [],
      "name": "getBasicMonsterCounter",
      "outputs": [
        {
          "internalType": "uint256",
          "name": "",
          "type": "uint256"
        }
      ],
      "stateMutability": "view",
      "type": "function"
    },
    {
      "inputs": [
        {
          "internalType": "uint256",
          "name": "_monsterId",
          "type": "uint256"
        }
      ],
      "name": "getMagicMonster",
      "outputs": [
        {
          "components": [
            {
              "internalType": "uint256",
              "name": "basicMonsterId",
              "type": "uint256"
            },
            {
              "internalType": "uint256",
              "name": "xpReward",
              "type": "uint256"
            },
            {
              "internalType": "uint256",
              "name": "damage",
              "type": "uint256"
            },
            {
              "internalType": "uint256",
              "name": "hp",
              "type": "uint256"
            },
            {
              "internalType": "uint256",
              "name": "cooldown",
              "type": "uint256"
            },
            {
              "internalType": "uint256",
              "name": "cost",
              "type": "uint256"
            },
            {
              "internalType": "string",
              "name": "name",
              "type": "string"
            },
            {
              "internalType": "string",
              "name": "uri",
              "type": "string"
            }
          ],
          "internalType": "struct MagicMonster",
          "name": "",
          "type": "tuple"
        }
      ],
      "stateMutability": "view",
      "type": "function"
    },
    {
      "inputs": [
        {
          "internalType": "uint256",
          "name": "_playerId",
          "type": "uint256"
        },
        {
          "internalType": "uint256",
          "name": "_monsterId",
          "type": "uint256"
        }
      ],
      "name": "getMagicMonsterCooldown",
      "outputs": [
        {
          "internalType": "uint256",
          "name": "",
          "type": "uint256"
        }
      ],
      "stateMutability": "view",
      "type": "function"
    },
    {
      "inputs": [],
      "name": "getMagicMonsterCounter",
      "outputs": [
        {
          "internalType": "uint256",
          "name": "",
          "type": "uint256"
        }
      ],
      "stateMutability": "view",
      "type": "function"
    }
  ],
  "bytecode": "0x608060405234801561001057600080fd5b50611ff2806100206000396000f3fe608060405234801561001057600080fd5b50600436106100a95760003560e01c80635f0b8b8a116100715780635f0b8b8a1461016457806372eba48f14610194578063874e59a8146101b0578063dbab7a75146101e0578063ed068a12146101fe578063fc2875d41461021a576100a9565b806315e840d7146100ae5780632642c3f2146100de57806346a61f0b146100fc5780634996d9481461012c5780634b3564c814610148575b600080fd5b6100c860048036038101906100c3919061150e565b610236565b6040516100d5919061155d565b60405180910390f35b6100e661024a565b6040516100f3919061155d565b60405180910390f35b6101166004803603810190610111919061150e565b610259565b604051610123919061155d565b60405180910390f35b610146600480360381019061014191906116be565b61026d565b005b610162600480360381019061015d9190611798565b610324565b005b61017e6004803603810190610179919061185d565b6103d9565b60405161018b91906119cf565b60405180910390f35b6101ae60048036038101906101a9919061150e565b6103f1565b005b6101ca60048036038101906101c5919061185d565b610437565b6040516101d79190611a94565b60405180910390f35b6101e861044f565b6040516101f5919061155d565b60405180910390f35b610218600480360381019061021391906116be565b61045e565b005b610234600480360381019061022f919061150e565b6104f5565b005b6000610242838361053b565b905092915050565b6000610254610578565b905090565b60006102658383610590565b905092915050565b600073434d36f32abed3f7937fe0be88dc1b0eb938124490508073ffffffffffffffffffffffffffffffffffffffff163373ffffffffffffffffffffffffffffffffffffffff16146102be57600080fd5b6102cd888888888888886105cd565b60006102d7610578565b9050807f76dfc9f297d03846d3214cedc28494b8f939ce3ddf944933e3eecbfd5ac626e1610304836103d9565b60405161031191906119cf565b60405180910390a2505050505050505050565b600073434d36f32abed3f7937fe0be88dc1b0eb938124490508073ffffffffffffffffffffffffffffffffffffffff163373ffffffffffffffffffffffffffffffffffffffff161461037557600080fd5b6103838787878787876106bf565b600061038d61079f565b9050807f6ce630d16f61e286c5181100c5d4beae97eef06462b9788c40aaf180813877f86103ba836107b7565b6040516103c79190611a94565b60405180910390a25050505050505050565b6103e1611442565b6103ea82610949565b9050919050565b6103fb8282610ae6565b807f965610a8ff8ff82f321c7b88c47381f3bd47756fba31ffa181b65fa2c6acb1c18360405161042b919061155d565b60405180910390a25050565b61043f611487565b610448826107b7565b9050919050565b600061045961079f565b905090565b600073434d36f32abed3f7937fe0be88dc1b0eb938124490508073ffffffffffffffffffffffffffffffffffffffff163373ffffffffffffffffffffffffffffffffffffffff16146104af57600080fd5b6104be88888888888888610f0d565b877fa5d4155cd62c6eda8f9aa81200beec89353e740751684cc81e1aa1a7e65ede6d60405160405180910390a25050505050505050565b6104ff8282610fe3565b807fac9c0073f52a3b08821048912ffb937aaac393618f0474f2ef7960ed035c3d308360405161052f919061155d565b60405180910390a25050565b6000806105466113e8565b905080600301600084815260200190815260200160002060008581526020019081526020016000205491505092915050565b6000806105836113e8565b9050806001015491505090565b60008061059b6113e8565b905080600501600084815260200190815260200160002060008581526020019081526020016000205491505092915050565b60006105d76113e8565b90508060010160008154809291906105ee90611ae5565b9190505550604051806101000160405280826000015481526020018981526020018881526020018781526020018681526020018581526020018481526020018381525081600601600083600101548152602001908152602001600020600082015181600001556020820151816001015560408201518160020155606082015181600301556080820151816004015560a0820151816005015560c082015181600601908161069b9190611d39565b5060e08201518160070190816106b19190611d39565b509050505050505050505050565b60006106c96113e8565b90508060000160008154809291906106e090611ae5565b91905055506040518060e00160405280826000015481526020018881526020018781526020018681526020018581526020018481526020018381525081600401600083600001548152602001908152602001600020600082015181600001556020820151816001015560408201518160020155606082015181600301556080820151816004015560a082015181600501908161077c9190611d39565b5060c08201518160060190816107929190611d39565b5090505050505050505050565b6000806107aa6113e8565b9050806000015491505090565b6107bf611487565b60006107c96113e8565b90508060040160008481526020019081526020016000206040518060e0016040529081600082015481526020016001820154815260200160028201548152602001600382015481526020016004820154815260200160058201805461082d90611b5c565b80601f016020809104026020016040519081016040528092919081815260200182805461085990611b5c565b80156108a65780601f1061087b576101008083540402835291602001916108a6565b820191906000526020600020905b81548152906001019060200180831161088957829003601f168201915b505050505081526020016006820180546108bf90611b5c565b80601f01602080910402602001604051908101604052809291908181526020018280546108eb90611b5c565b80156109385780601f1061090d57610100808354040283529160200191610938565b820191906000526020600020905b81548152906001019060200180831161091b57829003601f168201915b505050505081525050915050919050565b610951611442565b600061095b6113e8565b9050806006016000848152602001908152602001600020604051806101000160405290816000820154815260200160018201548152602001600282015481526020016003820154815260200160048201548152602001600582015481526020016006820180546109ca90611b5c565b80601f01602080910402602001604051908101604052809291908181526020018280546109f690611b5c565b8015610a435780601f10610a1857610100808354040283529160200191610a43565b820191906000526020600020905b815481529060010190602001808311610a2657829003601f168201915b50505050508152602001600782018054610a5c90611b5c565b80601f0160208091040260200160405190810160405280929190818152602001828054610a8890611b5c565b8015610ad55780601f10610aaa57610100808354040283529160200191610ad5565b820191906000526020600020905b815481529060010190602001808311610ab857829003601f168201915b505050505081525050915050919050565b6000610af06113e8565b90506000610afc611415565b905060008160030160008681526020019081526020016000206002015414610b2357600080fd5b3373ffffffffffffffffffffffffffffffffffffffff1681600201600086815260200190815260200160002060009054906101000a900473ffffffffffffffffffffffffffffffffffffffff1673ffffffffffffffffffffffffffffffffffffffff1614610b9057600080fd5b81600601600084815260200190815260200160002060050154816003016000868152602001908152602001600020600701541015610bcd57600080fd5b600082600401600085815260200190815260200160002060020154826003016000878152602001908152602001600020600e01541015610c4b57816003016000868152602001908152602001600020600e015483600401600086815260200190815260200160002060020154610c439190611e0b565b905080610c51565b60019050805b50808260030160008781526020019081526020016000206005015411610cac576040517f08c379a0000000000000000000000000000000000000000000000000000000008152600401610ca390611e9c565b60405180910390fd5b6000600284600401600087815260200190815260200160002060040154610cd39190611eeb565b836003016000888152602001908152602001600020600901541015610d4257600a8360030160008881526020019081526020016000206009015485600401600088815260200190815260200160002060040154610d309190611e0b565b610d3a9190611f1c565b905080610d6b565b600284600401600087815260200190815260200160002060040154610d679190611eeb565b9050805b5080846003016000878152602001908152602001600020600088815260200190815260200160002054610d9e9190611f1c565b421015610daa57600080fd5b83600401600086815260200190815260200160002060030154836003016000888152602001908152602001600020600601541015610e1d576040517f08c379a0000000000000000000000000000000000000000000000000000000008152600401610e1490611f9c565b60405180910390fd5b836004016000868152602001908152602001600020600101548360030160008881526020019081526020016000206001016000828254610e5d9190611f1c565b92505081905550818360030160008881526020019081526020016000206005016000828254610e8c9190611e0b565b92505081905550836006016000868152602001908152602001600020600501548360030160008881526020019081526020016000206007016000828254610ed39190611e0b565b9250508190555042846003016000878152602001908152602001600020600088815260200190815260200160002081905550505050505050565b6000610f176113e8565b9050868160040160008a815260200190815260200160002060010181905550858160040160008a815260200190815260200160002060020181905550848160040160008a815260200190815260200160002060030181905550838160040160008a815260200190815260200160002060040181905550828160040160008a81526020019081526020016000206005019081610fb29190611d39565b50818160040160008a81526020019081526020016000206006019081610fd89190611d39565b505050505050505050565b6000610fed6113e8565b90506000610ff9611415565b90506000816003016000868152602001908152602001600020600201541461102057600080fd5b3373ffffffffffffffffffffffffffffffffffffffff1681600201600086815260200190815260200160002060009054906101000a900473ffffffffffffffffffffffffffffffffffffffff1673ffffffffffffffffffffffffffffffffffffffff161461108d57600080fd5b6000816003016000868152602001908152602001600020600601548260030160008781526020019081526020016000206003015410156110e85781600301600086815260200190815260200160002060060154905080611105565b816003016000868152602001908152602001600020600301549050805b50600083600401600086815260200190815260200160002060020154836003016000888152602001908152602001600020600e0154101561118457826003016000878152602001908152602001600020600e01548460040160008781526020019081526020016000206002015461117c9190611e0b565b90508061118a565b60019050805b508083600301600088815260200190815260200160002060050154116111e5576040517f08c379a00000000000000000000000000000000000000000000000000000000081526004016111dc90611e9c565b60405180910390fd5b600060028560040160008881526020019081526020016000206004015461120c9190611eeb565b84600301600089815260200190815260200160002060090154101561127b57600a84600301600089815260200190815260200160002060090154866004016000898152602001908152602001600020600401546112699190611e0b565b6112739190611f1c565b9050806112a4565b6002856004016000888152602001908152602001600020600401546112a09190611eeb565b9050805b50808560030160008881526020019081526020016000206000898152602001908152602001600020546112d79190611f1c565b4210156112e357600080fd5b8460040160008781526020019081526020016000206003015483101561133e576040517f08c379a000000000000000000000000000000000000000000000000000000000815260040161133590611f9c565b60405180910390fd5b84600401600087815260200190815260200160002060010154846003016000898152602001908152602001600020600101600082825461137e9190611f1c565b925050819055508184600301600089815260200190815260200160002060050160008282546113ad9190611e0b565b925050819055504285600301600088815260200190815260200160002060008981526020019081526020016000208190555050505050505050565b6000807f32545638e04f9bb0e18c6b7b873428ebfe8afc357b1d991bfe15d0950d92384590508091505090565b6000807f3cab9a070a0c61cd0ae9d9e9e2c0781e5ca8691bec4087e5a4701d5ac018dd4e90508091505090565b60405180610100016040528060008152602001600081526020016000815260200160008152602001600081526020016000815260200160608152602001606081525090565b6040518060e00160405280600081526020016000815260200160008152602001600081526020016000815260200160608152602001606081525090565b6000604051905090565b600080fd5b600080fd5b6000819050919050565b6114eb816114d8565b81146114f657600080fd5b50565b600081359050611508816114e2565b92915050565b60008060408385031215611525576115246114ce565b5b6000611533858286016114f9565b9250506020611544858286016114f9565b9150509250929050565b611557816114d8565b82525050565b6000602082019050611572600083018461154e565b92915050565b600080fd5b600080fd5b6000601f19601f8301169050919050565b7f4e487b7100000000000000000000000000000000000000000000000000000000600052604160045260246000fd5b6115cb82611582565b810181811067ffffffffffffffff821117156115ea576115e9611593565b5b80604052505050565b60006115fd6114c4565b905061160982826115c2565b919050565b600067ffffffffffffffff82111561162957611628611593565b5b61163282611582565b9050602081019050919050565b82818337600083830152505050565b600061166161165c8461160e565b6115f3565b90508281526020810184848401111561167d5761167c61157d565b5b61168884828561163f565b509392505050565b600082601f8301126116a5576116a4611578565b5b81356116b584826020860161164e565b91505092915050565b600080600080600080600060e0888a0312156116dd576116dc6114ce565b5b60006116eb8a828b016114f9565b97505060206116fc8a828b016114f9565b965050604061170d8a828b016114f9565b955050606061171e8a828b016114f9565b945050608061172f8a828b016114f9565b93505060a088013567ffffffffffffffff8111156117505761174f6114d3565b5b61175c8a828b01611690565b92505060c088013567ffffffffffffffff81111561177d5761177c6114d3565b5b6117898a828b01611690565b91505092959891949750929550565b60008060008060008060c087890312156117b5576117b46114ce565b5b60006117c389828a016114f9565b96505060206117d489828a016114f9565b95505060406117e589828a016114f9565b94505060606117f689828a016114f9565b935050608087013567ffffffffffffffff811115611817576118166114d3565b5b61182389828a01611690565b92505060a087013567ffffffffffffffff811115611844576118436114d3565b5b61185089828a01611690565b9150509295509295509295565b600060208284031215611873576118726114ce565b5b6000611881848285016114f9565b91505092915050565b611893816114d8565b82525050565b600081519050919050565b600082825260208201905092915050565b60005b838110156118d35780820151818401526020810190506118b8565b60008484015250505050565b60006118ea82611899565b6118f481856118a4565b93506119048185602086016118b5565b61190d81611582565b840191505092915050565b600061010083016000830151611931600086018261188a565b506020830151611944602086018261188a565b506040830151611957604086018261188a565b50606083015161196a606086018261188a565b50608083015161197d608086018261188a565b5060a083015161199060a086018261188a565b5060c083015184820360c08601526119a882826118df565b91505060e083015184820360e08601526119c282826118df565b9150508091505092915050565b600060208201905081810360008301526119e98184611918565b905092915050565b600060e083016000830151611a09600086018261188a565b506020830151611a1c602086018261188a565b506040830151611a2f604086018261188a565b506060830151611a42606086018261188a565b506080830151611a55608086018261188a565b5060a083015184820360a0860152611a6d82826118df565b91505060c083015184820360c0860152611a8782826118df565b9150508091505092915050565b60006020820190508181036000830152611aae81846119f1565b905092915050565b7f4e487b7100000000000000000000000000000000000000000000000000000000600052601160045260246000fd5b6000611af0826114d8565b91507fffffffffffffffffffffffffffffffffffffffffffffffffffffffffffffffff8203611b2257611b21611ab6565b5b600182019050919050565b7f4e487b7100000000000000000000000000000000000000000000000000000000600052602260045260246000fd5b60006002820490506001821680611b7457607f821691505b602082108103611b8757611b86611b2d565b5b50919050565b60008190508160005260206000209050919050565b60006020601f8301049050919050565b600082821b905092915050565b600060088302611bef7fffffffffffffffffffffffffffffffffffffffffffffffffffffffffffffffff82611bb2565b611bf98683611bb2565b95508019841693508086168417925050509392505050565b6000819050919050565b6000611c36611c31611c2c846114d8565b611c11565b6114d8565b9050919050565b6000819050919050565b611c5083611c1b565b611c64611c5c82611c3d565b848454611bbf565b825550505050565b600090565b611c79611c6c565b611c84818484611c47565b505050565b5b81811015611ca857611c9d600082611c71565b600181019050611c8a565b5050565b601f821115611ced57611cbe81611b8d565b611cc784611ba2565b81016020851015611cd6578190505b611cea611ce285611ba2565b830182611c89565b50505b505050565b600082821c905092915050565b6000611d1060001984600802611cf2565b1980831691505092915050565b6000611d298383611cff565b9150826002028217905092915050565b611d4282611899565b67ffffffffffffffff811115611d5b57611d5a611593565b5b611d658254611b5c565b611d70828285611cac565b600060209050601f831160018114611da35760008415611d91578287015190505b611d9b8582611d1d565b865550611e03565b601f198416611db186611b8d565b60005b82811015611dd957848901518255600182019150602085019450602081019050611db4565b86831015611df65784890151611df2601f891682611cff565b8355505b6001600288020188555050505b505050505050565b6000611e16826114d8565b9150611e21836114d8565b9250828203905081811115611e3957611e38611ab6565b5b92915050565b600082825260208201905092915050565b7f6e6f7420656e6f75676820687000000000000000000000000000000000000000600082015250565b6000611e86600d83611e3f565b9150611e9182611e50565b602082019050919050565b60006020820190508181036000830152611eb581611e79565b9050919050565b7f4e487b7100000000000000000000000000000000000000000000000000000000600052601260045260246000fd5b6000611ef6826114d8565b9150611f01836114d8565b925082611f1157611f10611ebc565b5b828204905092915050565b6000611f27826114d8565b9150611f32836114d8565b9250828201905080821115611f4a57611f49611ab6565b5b92915050565b7f6e6f74207374726f6e6720656e6f756768000000000000000000000000000000600082015250565b6000611f86601183611e3f565b9150611f9182611f50565b602082019050919050565b60006020820190508181036000830152611fb581611f79565b905091905056fea264697066735822122036dce46b50823b7ed4978dd09c1bd24f99efc9122c3df7ab54ae832deb42573764736f6c63430008120033",
  "linkReferences": {},
  "deployedLinkReferences": {}
}