{
  "_format": "hh-sol-artifact-1",
  "contractName": "MonsterFacet",
  "sourceName": "contracts/facets/MonsterFacet.sol",
  "abi": [
    {
      "anonymous": false,
      "inputs": [
        {
          "indexed": true,
          "internalType": "uint256",
          "name": "_monsterId",
          "type": "uint256"
        }
      ],
      "name": "CreateBasicMonster",
      "type": "event"
    },
    {
      "anonymous": false,
      "inputs": [
        {
          "indexed": true,
          "internalType": "uint256",
          "name": "_playerId",
          "type": "uint256"
        }
      ],
      "name": "DragonQuest",
      "type": "event"
    },
    {
      "anonymous": false,
      "inputs": [
        {
          "indexed": true,
          "internalType": "uint256",
          "name": "_monsterId",
          "type": "uint256"
        },
        {
          "indexed": false,
          "internalType": "uint256",
          "name": "_playerId",
          "type": "uint256"
        }
      ],
      "name": "FightBasicMonster",
      "type": "event"
    },
    {
      "inputs": [
        {
          "internalType": "uint256",
          "name": "_xpReward",
          "type": "uint256"
        },
        {
          "internalType": "uint256",
          "name": "_damage",
          "type": "uint256"
        },
        {
          "internalType": "uint256",
          "name": "_hp",
          "type": "uint256"
        },
        {
          "internalType": "uint256",
          "name": "_cooldown",
          "type": "uint256"
        },
        {
          "internalType": "string",
          "name": "_name",
          "type": "string"
        },
        {
          "internalType": "string",
          "name": "_uri",
          "type": "string"
        }
      ],
      "name": "createBasicMonster",
      "outputs": [],
      "stateMutability": "nonpayable",
      "type": "function"
    },
    {
      "inputs": [
        {
          "internalType": "uint256",
          "name": "_playerId",
          "type": "uint256"
        }
      ],
      "name": "dragonQuest",
      "outputs": [
        {
          "internalType": "bool",
          "name": "result",
          "type": "bool"
        }
      ],
      "stateMutability": "nonpayable",
      "type": "function"
    },
    {
      "inputs": [
        {
          "internalType": "uint256",
          "name": "_playerId",
          "type": "uint256"
        },
        {
          "internalType": "uint256",
          "name": "_monsterId",
          "type": "uint256"
        }
      ],
      "name": "fightBasicMonster",
      "outputs": [],
      "stateMutability": "nonpayable",
      "type": "function"
    },
    {
      "inputs": [
        {
          "internalType": "uint256",
          "name": "_monsterId",
          "type": "uint256"
        }
      ],
      "name": "getBasicMonster",
      "outputs": [
        {
          "components": [
            {
              "internalType": "uint256",
              "name": "monsterId",
              "type": "uint256"
            },
            {
              "internalType": "uint256",
              "name": "xpReward",
              "type": "uint256"
            },
            {
              "internalType": "uint256",
              "name": "damage",
              "type": "uint256"
            },
            {
              "internalType": "uint256",
              "name": "hp",
              "type": "uint256"
            },
            {
              "internalType": "uint256",
              "name": "cooldown",
              "type": "uint256"
            },
            {
              "internalType": "string",
              "name": "name",
              "type": "string"
            },
            {
              "internalType": "string",
              "name": "uri",
              "type": "string"
            }
          ],
          "internalType": "struct BasicMonster",
          "name": "",
          "type": "tuple"
        }
      ],
      "stateMutability": "view",
      "type": "function"
    },
    {
      "inputs": [
        {
          "internalType": "uint256",
          "name": "_playerId",
          "type": "uint256"
        },
        {
          "internalType": "uint256",
          "name": "_monsterId",
          "type": "uint256"
        }
      ],
      "name": "getBasicMonsterCooldown",
      "outputs": [
        {
          "internalType": "uint256",
          "name": "",
          "type": "uint256"
        }
      ],
      "stateMutability": "view",
      "type": "function"
    },
    {
      "inputs": [],
      "name": "getMonsterCounter",
      "outputs": [
        {
          "internalType": "uint256",
          "name": "",
          "type": "uint256"
        }
      ],
      "stateMutability": "view",
      "type": "function"
    }
  ],
  "bytecode": "0x608060405234801561001057600080fd5b506118ae806100206000396000f3fe608060405234801561001057600080fd5b50600436106100625760003560e01c80630207f11f1461006757806315e840d7146100975780634b3564c8146100c7578063874e59a8146100e3578063fc2875d414610113578063fda30d4c1461012f575b600080fd5b610081600480360381019061007c9190610da1565b61014d565b60405161008e9190610de9565b60405180910390f35b6100b160048036038101906100ac9190610e04565b610193565b6040516100be9190610e53565b60405180910390f35b6100e160048036038101906100dc9190610fb4565b6101a7565b005b6100fd60048036038101906100f89190610da1565b6101f1565b60405161010a91906111aa565b60405180910390f35b61012d60048036038101906101289190610e04565b610209565b005b61013761024f565b6040516101449190610e53565b60405180910390f35b60006101588261025e565b9050801561018e57817f897b5c7abcb9d1af199c95f7485f50c3e0dbed9b05f3068b69fd66613c34c38660405160405180910390a25b919050565b600061019f8383610602565b905092915050565b6101b586868686868661063f565b6101bd61071f565b7f856d040967b09806c1357161c96c37bd00e1ddf47865abb6b6bc96b15edc1e3960405160405180910390a2505050505050565b6101f9610d1a565b61020282610737565b9050919050565b61021382826108c9565b807fac9c0073f52a3b08821048912ffb937aaac393618f0474f2ef7960ed035c3d30836040516102439190610e53565b60405180910390a25050565b600061025961071f565b905090565b600080610269610bd6565b90506000610275610c03565b90506000610281610c30565b9050600061028d610c5d565b9050600084600301600088815260200190815260200160002060020154146102b457600080fd5b3373ffffffffffffffffffffffffffffffffffffffff1684600201600088815260200190815260200160002060009054906101000a900473ffffffffffffffffffffffffffffffffffffffff1673ffffffffffffffffffffffffffffffffffffffff161461032157600080fd5b61a8c08360040160008881526020019081526020016000205461034491906111fb565b42101561035057600080fd5b60405160200161035f90611286565b604051602081830303815290604052805190602001208260020160008660030160008a81526020019081526020016000206012016000015481526020019081526020016000206007016040516020016103b89190611393565b604051602081830303815290604052805190602001201461040e576040517f08c379a000000000000000000000000000000000000000000000000000000000815260040161040590611407565b60405180910390fd5b42836004016000888152602001908152602001600020819055506013601461043588610c8a565b61043f9190611456565b106105f45780600001600081548092919061045990611487565b9190505550604051806080016040528082600001548152602001600281526020018260030160008981526020019081526020016000208054905081526020016040518060400160405280600681526020017f447363616c65000000000000000000000000000000000000000000000000000081525081525081600201600083600001548152602001908152602001600020600082015181600001556020820151816001015560408201518160020155606082015181600301908161051d9190611666565b5090505080600301600087815260200190815260200160002081600001549080600181540180825580915050600190039060005260206000200160009091909190915055338160010160008360000154815260200190815260200160002060006101000a81548173ffffffffffffffffffffffffffffffffffffffff021916908373ffffffffffffffffffffffffffffffffffffffff16021790555083600301600087815260200190815260200160002060010160008154809291906105e290611487565b919050555060019450505050506105fd565b60009450505050505b919050565b60008061060d610c03565b905080600201600084815260200190815260200160002060008581526020019081526020016000205491505092915050565b6000610649610c03565b905080600001600081548092919061066090611487565b91905055506040518060e00160405280826000015481526020018881526020018781526020018681526020018581526020018481526020018381525081600301600083600001548152602001908152602001600020600082015181600001556020820151816001015560408201518160020155606082015181600301556080820151816004015560a08201518160050190816106fc9190611666565b5060c08201518160060190816107129190611666565b5090505050505050505050565b60008061072a610c03565b9050806000015491505090565b61073f610d1a565b6000610749610c03565b90508060030160008481526020019081526020016000206040518060e001604052908160008201548152602001600182015481526020016002820154815260200160038201548152602001600482015481526020016005820180546107ad906112ca565b80601f01602080910402602001604051908101604052809291908181526020018280546107d9906112ca565b80156108265780601f106107fb57610100808354040283529160200191610826565b820191906000526020600020905b81548152906001019060200180831161080957829003601f168201915b5050505050815260200160068201805461083f906112ca565b80601f016020809104026020016040519081016040528092919081815260200182805461086b906112ca565b80156108b85780601f1061088d576101008083540402835291602001916108b8565b820191906000526020600020905b81548152906001019060200180831161089b57829003601f168201915b505050505081525050915050919050565b60006108d3610c03565b905060006108df610bd6565b90506000816003016000868152602001908152602001600020600201541461090657600080fd5b3373ffffffffffffffffffffffffffffffffffffffff1681600201600086815260200190815260200160002060009054906101000a900473ffffffffffffffffffffffffffffffffffffffff1673ffffffffffffffffffffffffffffffffffffffff161461097357600080fd5b600082600301600085815260200190815260200160002060020154826003016000878152602001908152602001600020600e015410156109fd576001826003016000878152602001908152602001600020600e0154846003016000878152602001908152602001600020600201546109eb9190611738565b6109f591906111fb565b905080610a03565b60019050805b50808260030160008781526020019081526020016000206005015411610a5e576040517f08c379a0000000000000000000000000000000000000000000000000000000008152600401610a55906117b8565b60405180910390fd5b6000600284600301600087815260200190815260200160002060040154610a8591906117d8565b836003016000888152602001908152602001600020600901541015610af457600a8360030160008881526020019081526020016000206009015485600301600088815260200190815260200160002060040154610ae29190611738565b610aec91906111fb565b905080610b1d565b600284600301600087815260200190815260200160002060040154610b1991906117d8565b9050805b5080846002016000878152602001908152602001600020600088815260200190815260200160002054610b5091906111fb565b421015610b5c57600080fd5b836003016000868152602001908152602001600020600101548360030160008881526020019081526020016000206001016000828254610b9c91906111fb565b9250508190555042846002016000878152602001908152602001600020600088815260200190815260200160002081905550505050505050565b6000807f3cab9a070a0c61cd0ae9d9e9e2c0781e5ca8691bec4087e5a4701d5ac018dd4e90508091505090565b6000807f32545638e04f9bb0e18c6b7b873428ebfe8afc357b1d991bfe15d0950d92384590508091505090565b6000807faad0511195ddfb575f5187a7172ca6fc330f129a86291f15eaa5f7537ab038dc90508091505090565b6000807fb5dbbc334907f600e1151190a68c4043043163a23a907389a2c6f6231ed4318b90508091505090565b600080610c95610ced565b9050806000016000815480929190610cac90611487565b91905055504244848360000154604051602001610ccc949392919061182a565b6040516020818303038152906040528051906020012060001c915050919050565b6000807ff76a8e66124dac83b46aecd7c4256d5158e69f6adf88592fd8146c79e007626e90508091505090565b6040518060e00160405280600081526020016000815260200160008152602001600081526020016000815260200160608152602001606081525090565b6000604051905090565b600080fd5b600080fd5b6000819050919050565b610d7e81610d6b565b8114610d8957600080fd5b50565b600081359050610d9b81610d75565b92915050565b600060208284031215610db757610db6610d61565b5b6000610dc584828501610d8c565b91505092915050565b60008115159050919050565b610de381610dce565b82525050565b6000602082019050610dfe6000830184610dda565b92915050565b60008060408385031215610e1b57610e1a610d61565b5b6000610e2985828601610d8c565b9250506020610e3a85828601610d8c565b9150509250929050565b610e4d81610d6b565b82525050565b6000602082019050610e686000830184610e44565b92915050565b600080fd5b600080fd5b6000601f19601f8301169050919050565b7f4e487b7100000000000000000000000000000000000000000000000000000000600052604160045260246000fd5b610ec182610e78565b810181811067ffffffffffffffff82111715610ee057610edf610e89565b5b80604052505050565b6000610ef3610d57565b9050610eff8282610eb8565b919050565b600067ffffffffffffffff821115610f1f57610f1e610e89565b5b610f2882610e78565b9050602081019050919050565b82818337600083830152505050565b6000610f57610f5284610f04565b610ee9565b905082815260208101848484011115610f7357610f72610e73565b5b610f7e848285610f35565b509392505050565b600082601f830112610f9b57610f9a610e6e565b5b8135610fab848260208601610f44565b91505092915050565b60008060008060008060c08789031215610fd157610fd0610d61565b5b6000610fdf89828a01610d8c565b9650506020610ff089828a01610d8c565b955050604061100189828a01610d8c565b945050606061101289828a01610d8c565b935050608087013567ffffffffffffffff81111561103357611032610d66565b5b61103f89828a01610f86565b92505060a087013567ffffffffffffffff8111156110605761105f610d66565b5b61106c89828a01610f86565b9150509295509295509295565b61108281610d6b565b82525050565b600081519050919050565b600082825260208201905092915050565b60005b838110156110c25780820151818401526020810190506110a7565b60008484015250505050565b60006110d982611088565b6110e38185611093565b93506110f38185602086016110a4565b6110fc81610e78565b840191505092915050565b600060e08301600083015161111f6000860182611079565b5060208301516111326020860182611079565b5060408301516111456040860182611079565b5060608301516111586060860182611079565b50608083015161116b6080860182611079565b5060a083015184820360a086015261118382826110ce565b91505060c083015184820360c086015261119d82826110ce565b9150508091505092915050565b600060208201905081810360008301526111c48184611107565b905092915050565b7f4e487b7100000000000000000000000000000000000000000000000000000000600052601160045260246000fd5b600061120682610d6b565b915061121183610d6b565b9250828201905080821115611229576112286111cc565b5b92915050565b600081905092915050565b7f57697a4861740000000000000000000000000000000000000000000000000000600082015250565b600061127060068361122f565b915061127b8261123a565b600682019050919050565b600061129182611263565b9150819050919050565b7f4e487b7100000000000000000000000000000000000000000000000000000000600052602260045260246000fd5b600060028204905060018216806112e257607f821691505b6020821081036112f5576112f461129b565b5b50919050565b60008190508160005260206000209050919050565b6000815461131d816112ca565b611327818661122f565b9450600182166000811461134257600181146113575761138a565b60ff198316865281151582028601935061138a565b611360856112fb565b60005b8381101561138257815481890152600182019150602081019050611363565b838801955050505b50505092915050565b600061139f8284611310565b915081905092915050565b600082825260208201905092915050565b7f6e6f742077656172696e67206861740000000000000000000000000000000000600082015250565b60006113f1600f836113aa565b91506113fc826113bb565b602082019050919050565b60006020820190508181036000830152611420816113e4565b9050919050565b7f4e487b7100000000000000000000000000000000000000000000000000000000600052601260045260246000fd5b600061146182610d6b565b915061146c83610d6b565b92508261147c5761147b611427565b5b828206905092915050565b600061149282610d6b565b91507fffffffffffffffffffffffffffffffffffffffffffffffffffffffffffffffff82036114c4576114c36111cc565b5b600182019050919050565b60006020601f8301049050919050565b600082821b905092915050565b60006008830261151c7fffffffffffffffffffffffffffffffffffffffffffffffffffffffffffffffff826114df565b61152686836114df565b95508019841693508086168417925050509392505050565b6000819050919050565b600061156361155e61155984610d6b565b61153e565b610d6b565b9050919050565b6000819050919050565b61157d83611548565b6115916115898261156a565b8484546114ec565b825550505050565b600090565b6115a6611599565b6115b1818484611574565b505050565b5b818110156115d5576115ca60008261159e565b6001810190506115b7565b5050565b601f82111561161a576115eb816112fb565b6115f4846114cf565b81016020851015611603578190505b61161761160f856114cf565b8301826115b6565b50505b505050565b600082821c905092915050565b600061163d6000198460080261161f565b1980831691505092915050565b6000611656838361162c565b9150826002028217905092915050565b61166f82611088565b67ffffffffffffffff81111561168857611687610e89565b5b61169282546112ca565b61169d8282856115d9565b600060209050601f8311600181146116d057600084156116be578287015190505b6116c8858261164a565b865550611730565b601f1984166116de866112fb565b60005b82811015611706578489015182556001820191506020850194506020810190506116e1565b86831015611723578489015161171f601f89168261162c565b8355505b6001600288020188555050505b505050505050565b600061174382610d6b565b915061174e83610d6b565b9250828203905081811115611766576117656111cc565b5b92915050565b7f6e6f7420656e6f75676820687000000000000000000000000000000000000000600082015250565b60006117a2600d836113aa565b91506117ad8261176c565b602082019050919050565b600060208201905081810360008301526117d181611795565b9050919050565b60006117e382610d6b565b91506117ee83610d6b565b9250826117fe576117fd611427565b5b828204905092915050565b6000819050919050565b61182461181f82610d6b565b611809565b82525050565b60006118368287611813565b6020820191506118468286611813565b6020820191506118568285611813565b6020820191506118668284611813565b6020820191508190509594505050505056fea2646970667358221220a2251fa575c475a98b92ff7dd1374c8f302a3487e827cfd71d82c10075939dc864736f6c63430008110033",
  "linkReferences": {},
  "deployedLinkReferences": {}
}