{
  "_format": "hh-sol-artifact-1",
  "contractName": "MonsterFacet",
  "sourceName": "contracts/facets/MonsterFacet.sol",
  "abi": [
    {
      "anonymous": false,
      "inputs": [
        {
          "indexed": true,
          "internalType": "address",
          "name": "_address",
          "type": "address"
        }
      ],
      "name": "AddMonsterAdmin",
      "type": "event"
    },
    {
      "anonymous": false,
      "inputs": [
        {
          "indexed": true,
          "internalType": "uint256",
          "name": "_monsterId",
          "type": "uint256"
        },
        {
          "components": [
            {
              "internalType": "uint256",
              "name": "basicMonsterId",
              "type": "uint256"
            },
            {
              "internalType": "uint256",
              "name": "xpReward",
              "type": "uint256"
            },
            {
              "internalType": "uint256",
              "name": "damage",
              "type": "uint256"
            },
            {
              "internalType": "uint256",
              "name": "hp",
              "type": "uint256"
            },
            {
              "internalType": "uint256",
              "name": "cooldown",
              "type": "uint256"
            },
            {
              "internalType": "string",
              "name": "name",
              "type": "string"
            },
            {
              "internalType": "string",
              "name": "uri",
              "type": "string"
            }
          ],
          "indexed": false,
          "internalType": "struct BasicMonster",
          "name": "_basicMonster",
          "type": "tuple"
        }
      ],
      "name": "CreateBasicMonster",
      "type": "event"
    },
    {
      "anonymous": false,
      "inputs": [
        {
          "indexed": true,
          "internalType": "uint256",
          "name": "_monsterId",
          "type": "uint256"
        },
        {
          "components": [
            {
              "internalType": "uint256",
              "name": "basicMonsterId",
              "type": "uint256"
            },
            {
              "internalType": "uint256",
              "name": "xpReward",
              "type": "uint256"
            },
            {
              "internalType": "uint256",
              "name": "damage",
              "type": "uint256"
            },
            {
              "internalType": "uint256",
              "name": "hp",
              "type": "uint256"
            },
            {
              "internalType": "uint256",
              "name": "cooldown",
              "type": "uint256"
            },
            {
              "internalType": "uint256",
              "name": "cost",
              "type": "uint256"
            },
            {
              "internalType": "string",
              "name": "name",
              "type": "string"
            },
            {
              "internalType": "string",
              "name": "uri",
              "type": "string"
            }
          ],
          "indexed": false,
          "internalType": "struct MagicMonster",
          "name": "_magicMonster",
          "type": "tuple"
        }
      ],
      "name": "CreateMagicMonster",
      "type": "event"
    },
    {
      "anonymous": false,
      "inputs": [
        {
          "indexed": true,
          "internalType": "uint256",
          "name": "_playerId",
          "type": "uint256"
        }
      ],
      "name": "DragonQuest",
      "type": "event"
    },
    {
      "anonymous": false,
      "inputs": [
        {
          "indexed": true,
          "internalType": "uint256",
          "name": "_monsterId",
          "type": "uint256"
        }
      ],
      "name": "EditBasicMonster",
      "type": "event"
    },
    {
      "anonymous": false,
      "inputs": [
        {
          "indexed": true,
          "internalType": "uint256",
          "name": "_monsterId",
          "type": "uint256"
        },
        {
          "indexed": false,
          "internalType": "uint256",
          "name": "_playerId",
          "type": "uint256"
        }
      ],
      "name": "FightBasicMonster",
      "type": "event"
    },
    {
      "anonymous": false,
      "inputs": [
        {
          "indexed": true,
          "internalType": "uint256",
          "name": "_monsterId",
          "type": "uint256"
        },
        {
          "indexed": false,
          "internalType": "uint256",
          "name": "_playerId",
          "type": "uint256"
        }
      ],
      "name": "FightMagicMonster",
      "type": "event"
    },
    {
      "inputs": [
        {
          "internalType": "address",
          "name": "_address",
          "type": "address"
        }
      ],
      "name": "addMonsterAdmin",
      "outputs": [],
      "stateMutability": "nonpayable",
      "type": "function"
    },
    {
      "inputs": [
        {
          "internalType": "uint256",
          "name": "_xpReward",
          "type": "uint256"
        },
        {
          "internalType": "uint256",
          "name": "_damage",
          "type": "uint256"
        },
        {
          "internalType": "uint256",
          "name": "_hp",
          "type": "uint256"
        },
        {
          "internalType": "uint256",
          "name": "_cooldown",
          "type": "uint256"
        },
        {
          "internalType": "string",
          "name": "_name",
          "type": "string"
        },
        {
          "internalType": "string",
          "name": "_uri",
          "type": "string"
        }
      ],
      "name": "createBasicMonster",
      "outputs": [],
      "stateMutability": "nonpayable",
      "type": "function"
    },
    {
      "inputs": [
        {
          "internalType": "uint256",
          "name": "_xpReward",
          "type": "uint256"
        },
        {
          "internalType": "uint256",
          "name": "_damage",
          "type": "uint256"
        },
        {
          "internalType": "uint256",
          "name": "_hp",
          "type": "uint256"
        },
        {
          "internalType": "uint256",
          "name": "_cooldown",
          "type": "uint256"
        },
        {
          "internalType": "uint256",
          "name": "_cost",
          "type": "uint256"
        },
        {
          "internalType": "string",
          "name": "_name",
          "type": "string"
        },
        {
          "internalType": "string",
          "name": "_uri",
          "type": "string"
        }
      ],
      "name": "createMagicMonster",
      "outputs": [],
      "stateMutability": "nonpayable",
      "type": "function"
    },
    {
      "inputs": [
        {
          "internalType": "uint256",
          "name": "_basicMonsterId",
          "type": "uint256"
        },
        {
          "internalType": "uint256",
          "name": "_xpReward",
          "type": "uint256"
        },
        {
          "internalType": "uint256",
          "name": "_damage",
          "type": "uint256"
        },
        {
          "internalType": "uint256",
          "name": "_hp",
          "type": "uint256"
        },
        {
          "internalType": "uint256",
          "name": "_cooldown",
          "type": "uint256"
        },
        {
          "internalType": "string",
          "name": "_name",
          "type": "string"
        },
        {
          "internalType": "string",
          "name": "_uri",
          "type": "string"
        }
      ],
      "name": "editBasicMonster",
      "outputs": [],
      "stateMutability": "nonpayable",
      "type": "function"
    },
    {
      "inputs": [
        {
          "internalType": "uint256",
          "name": "_playerId",
          "type": "uint256"
        },
        {
          "internalType": "uint256",
          "name": "_monsterId",
          "type": "uint256"
        }
      ],
      "name": "fightBasicMonster",
      "outputs": [],
      "stateMutability": "nonpayable",
      "type": "function"
    },
    {
      "inputs": [
        {
          "internalType": "uint256",
          "name": "_playerId",
          "type": "uint256"
        },
        {
          "internalType": "uint256",
          "name": "_monsterId",
          "type": "uint256"
        }
      ],
      "name": "fightMagicMonster",
      "outputs": [],
      "stateMutability": "nonpayable",
      "type": "function"
    },
    {
      "inputs": [
        {
          "internalType": "uint256",
          "name": "_monsterId",
          "type": "uint256"
        }
      ],
      "name": "getBasicMonster",
      "outputs": [
        {
          "components": [
            {
              "internalType": "uint256",
              "name": "basicMonsterId",
              "type": "uint256"
            },
            {
              "internalType": "uint256",
              "name": "xpReward",
              "type": "uint256"
            },
            {
              "internalType": "uint256",
              "name": "damage",
              "type": "uint256"
            },
            {
              "internalType": "uint256",
              "name": "hp",
              "type": "uint256"
            },
            {
              "internalType": "uint256",
              "name": "cooldown",
              "type": "uint256"
            },
            {
              "internalType": "string",
              "name": "name",
              "type": "string"
            },
            {
              "internalType": "string",
              "name": "uri",
              "type": "string"
            }
          ],
          "internalType": "struct BasicMonster",
          "name": "",
          "type": "tuple"
        }
      ],
      "stateMutability": "view",
      "type": "function"
    },
    {
      "inputs": [
        {
          "internalType": "uint256",
          "name": "_playerId",
          "type": "uint256"
        },
        {
          "internalType": "uint256",
          "name": "_monsterId",
          "type": "uint256"
        }
      ],
      "name": "getBasicMonsterCooldown",
      "outputs": [
        {
          "internalType": "uint256",
          "name": "",
          "type": "uint256"
        }
      ],
      "stateMutability": "view",
      "type": "function"
    },
    {
      "inputs": [],
      "name": "getBasicMonsterCounter",
      "outputs": [
        {
          "internalType": "uint256",
          "name": "",
          "type": "uint256"
        }
      ],
      "stateMutability": "view",
      "type": "function"
    },
    {
      "inputs": [
        {
          "internalType": "uint256",
          "name": "_monsterId",
          "type": "uint256"
        }
      ],
      "name": "getMagicMonster",
      "outputs": [
        {
          "components": [
            {
              "internalType": "uint256",
              "name": "basicMonsterId",
              "type": "uint256"
            },
            {
              "internalType": "uint256",
              "name": "xpReward",
              "type": "uint256"
            },
            {
              "internalType": "uint256",
              "name": "damage",
              "type": "uint256"
            },
            {
              "internalType": "uint256",
              "name": "hp",
              "type": "uint256"
            },
            {
              "internalType": "uint256",
              "name": "cooldown",
              "type": "uint256"
            },
            {
              "internalType": "uint256",
              "name": "cost",
              "type": "uint256"
            },
            {
              "internalType": "string",
              "name": "name",
              "type": "string"
            },
            {
              "internalType": "string",
              "name": "uri",
              "type": "string"
            }
          ],
          "internalType": "struct MagicMonster",
          "name": "",
          "type": "tuple"
        }
      ],
      "stateMutability": "view",
      "type": "function"
    },
    {
      "inputs": [
        {
          "internalType": "uint256",
          "name": "_playerId",
          "type": "uint256"
        },
        {
          "internalType": "uint256",
          "name": "_monsterId",
          "type": "uint256"
        }
      ],
      "name": "getMagicMonsterCooldown",
      "outputs": [
        {
          "internalType": "uint256",
          "name": "",
          "type": "uint256"
        }
      ],
      "stateMutability": "view",
      "type": "function"
    },
    {
      "inputs": [],
      "name": "getMagicMonsterCounter",
      "outputs": [
        {
          "internalType": "uint256",
          "name": "",
          "type": "uint256"
        }
      ],
      "stateMutability": "view",
      "type": "function"
    }
  ],
  "bytecode": "0x608060405234801561001057600080fd5b50612175806100206000396000f3fe608060405234801561001057600080fd5b50600436106100b45760003560e01c806372eba48f1161007157806372eba48f1461019f578063874e59a8146101bb578063d6eb0942146101eb578063dbab7a7514610207578063ed068a1214610225578063fc2875d414610241576100b4565b806315e840d7146100b95780632642c3f2146100e957806346a61f0b146101075780634996d948146101375780634b3564c8146101535780635f0b8b8a1461016f575b600080fd5b6100d360048036038101906100ce9190611606565b61025d565b6040516100e09190611655565b60405180910390f35b6100f1610271565b6040516100fe9190611655565b60405180910390f35b610121600480360381019061011c9190611606565b610280565b60405161012e9190611655565b60405180910390f35b610151600480360381019061014c91906117b6565b610294565b005b61016d60048036038101906101689190611890565b61030b565b005b61018960048036038101906101849190611955565b610380565b6040516101969190611ac7565b60405180910390f35b6101b960048036038101906101b49190611606565b610398565b005b6101d560048036038101906101d09190611955565b6103de565b6040516101e29190611b8c565b60405180910390f35b61020560048036038101906102009190611c0c565b6103f6565b005b61020f610497565b60405161021c9190611655565b60405180910390f35b61023f600480360381019061023a91906117b6565b6104a6565b005b61025b60048036038101906102569190611606565b6104fd565b005b60006102698383610543565b905092915050565b600061027b610580565b905090565b600061028c8383610598565b905092915050565b61029d336105d5565b6102a657600080fd5b6102b58787878787878761064a565b60006102bf610580565b9050807f76dfc9f297d03846d3214cedc28494b8f939ce3ddf944933e3eecbfd5ac626e16102ec83610380565b6040516102f99190611ac7565b60405180910390a25050505050505050565b610314336105d5565b61031d57600080fd5b61032b86868686868661073c565b600061033561081c565b9050807f6ce630d16f61e286c5181100c5d4beae97eef06462b9788c40aaf180813877f861036283610834565b60405161036f9190611b8c565b60405180910390a250505050505050565b61038861153a565b610391826109c6565b9050919050565b6103a28282610b63565b807f965610a8ff8ff82f321c7b88c47381f3bd47756fba31ffa181b65fa2c6acb1c1836040516103d29190611655565b60405180910390a25050565b6103e661157f565b6103ef82610834565b9050919050565b600073434d36f32abed3f7937fe0be88dc1b0eb938124490508073ffffffffffffffffffffffffffffffffffffffff163373ffffffffffffffffffffffffffffffffffffffff161461044757600080fd5b61045082610f8a565b8173ffffffffffffffffffffffffffffffffffffffff167fcbfb7a579bf487d6f714679200797a2c7cd2a501be72c8a0b7827b474e6359a760405160405180910390a25050565b60006104a161081c565b905090565b6104af336105d5565b6104b857600080fd5b6104c787878787878787611005565b867fa5d4155cd62c6eda8f9aa81200beec89353e740751684cc81e1aa1a7e65ede6d60405160405180910390a250505050505050565b61050782826110db565b807fac9c0073f52a3b08821048912ffb937aaac393618f0474f2ef7960ed035c3d30836040516105379190611655565b60405180910390a25050565b60008061054e6114e0565b905080600401600084815260200190815260200160002060008581526020019081526020016000205491505092915050565b60008061058b6114e0565b9050806001015491505090565b6000806105a36114e0565b905080600601600084815260200190815260200160002060008581526020019081526020016000205491505092915050565b6000806105e06114e0565b905080600301600046815260200190815260200160002060008473ffffffffffffffffffffffffffffffffffffffff1673ffffffffffffffffffffffffffffffffffffffff16815260200190815260200160002060009054906101000a900460ff16915050919050565b60006106546114e0565b905080600101600081548092919061066b90611c68565b9190505550604051806101000160405280826000015481526020018981526020018881526020018781526020018681526020018581526020018481526020018381525081600701600083600101548152602001908152602001600020600082015181600001556020820151816001015560408201518160020155606082015181600301556080820151816004015560a0820151816005015560c08201518160060190816107189190611ebc565b5060e082015181600701908161072e9190611ebc565b509050505050505050505050565b60006107466114e0565b905080600001600081548092919061075d90611c68565b91905055506040518060e00160405280826000015481526020018881526020018781526020018681526020018581526020018481526020018381525081600501600083600001548152602001908152602001600020600082015181600001556020820151816001015560408201518160020155606082015181600301556080820151816004015560a08201518160050190816107f99190611ebc565b5060c082015181600601908161080f9190611ebc565b5090505050505050505050565b6000806108276114e0565b9050806000015491505090565b61083c61157f565b60006108466114e0565b90508060050160008481526020019081526020016000206040518060e001604052908160008201548152602001600182015481526020016002820154815260200160038201548152602001600482015481526020016005820180546108aa90611cdf565b80601f01602080910402602001604051908101604052809291908181526020018280546108d690611cdf565b80156109235780601f106108f857610100808354040283529160200191610923565b820191906000526020600020905b81548152906001019060200180831161090657829003601f168201915b5050505050815260200160068201805461093c90611cdf565b80601f016020809104026020016040519081016040528092919081815260200182805461096890611cdf565b80156109b55780601f1061098a576101008083540402835291602001916109b5565b820191906000526020600020905b81548152906001019060200180831161099857829003601f168201915b505050505081525050915050919050565b6109ce61153a565b60006109d86114e0565b905080600701600084815260200190815260200160002060405180610100016040529081600082015481526020016001820154815260200160028201548152602001600382015481526020016004820154815260200160058201548152602001600682018054610a4790611cdf565b80601f0160208091040260200160405190810160405280929190818152602001828054610a7390611cdf565b8015610ac05780601f10610a9557610100808354040283529160200191610ac0565b820191906000526020600020905b815481529060010190602001808311610aa357829003601f168201915b50505050508152602001600782018054610ad990611cdf565b80601f0160208091040260200160405190810160405280929190818152602001828054610b0590611cdf565b8015610b525780601f10610b2757610100808354040283529160200191610b52565b820191906000526020600020905b815481529060010190602001808311610b3557829003601f168201915b505050505081525050915050919050565b6000610b6d6114e0565b90506000610b7961150d565b905060008160030160008681526020019081526020016000206002015414610ba057600080fd5b3373ffffffffffffffffffffffffffffffffffffffff1681600201600086815260200190815260200160002060009054906101000a900473ffffffffffffffffffffffffffffffffffffffff1673ffffffffffffffffffffffffffffffffffffffff1614610c0d57600080fd5b81600701600084815260200190815260200160002060050154816003016000868152602001908152602001600020600701541015610c4a57600080fd5b600082600501600085815260200190815260200160002060020154826003016000878152602001908152602001600020600e01541015610cc857816003016000868152602001908152602001600020600e015483600501600086815260200190815260200160002060020154610cc09190611f8e565b905080610cce565b60019050805b50808260030160008781526020019081526020016000206005015411610d29576040517f08c379a0000000000000000000000000000000000000000000000000000000008152600401610d209061201f565b60405180910390fd5b6000600284600501600087815260200190815260200160002060040154610d50919061206e565b836003016000888152602001908152602001600020600901541015610dbf57600a8360030160008881526020019081526020016000206009015485600501600088815260200190815260200160002060040154610dad9190611f8e565b610db7919061209f565b905080610de8565b600284600501600087815260200190815260200160002060040154610de4919061206e565b9050805b5080846004016000878152602001908152602001600020600088815260200190815260200160002054610e1b919061209f565b421015610e2757600080fd5b83600501600086815260200190815260200160002060030154836003016000888152602001908152602001600020600601541015610e9a576040517f08c379a0000000000000000000000000000000000000000000000000000000008152600401610e919061211f565b60405180910390fd5b836005016000868152602001908152602001600020600101548360030160008881526020019081526020016000206001016000828254610eda919061209f565b92505081905550818360030160008881526020019081526020016000206005016000828254610f099190611f8e565b92505081905550836007016000868152602001908152602001600020600501548360030160008881526020019081526020016000206007016000828254610f509190611f8e565b9250508190555042846004016000878152602001908152602001600020600088815260200190815260200160002081905550505050505050565b6000610f946114e0565b9050600181600301600046815260200190815260200160002060008473ffffffffffffffffffffffffffffffffffffffff1673ffffffffffffffffffffffffffffffffffffffff16815260200190815260200160002060006101000a81548160ff0219169083151502179055505050565b600061100f6114e0565b9050868160050160008a815260200190815260200160002060010181905550858160050160008a815260200190815260200160002060020181905550848160050160008a815260200190815260200160002060030181905550838160050160008a815260200190815260200160002060040181905550828160050160008a815260200190815260200160002060050190816110aa9190611ebc565b50818160050160008a815260200190815260200160002060060190816110d09190611ebc565b505050505050505050565b60006110e56114e0565b905060006110f161150d565b90506000816003016000868152602001908152602001600020600201541461111857600080fd5b3373ffffffffffffffffffffffffffffffffffffffff1681600201600086815260200190815260200160002060009054906101000a900473ffffffffffffffffffffffffffffffffffffffff1673ffffffffffffffffffffffffffffffffffffffff161461118557600080fd5b6000816003016000868152602001908152602001600020600601548260030160008781526020019081526020016000206003015410156111e057816003016000868152602001908152602001600020600601549050806111fd565b816003016000868152602001908152602001600020600301549050805b50600083600501600086815260200190815260200160002060020154836003016000888152602001908152602001600020600e0154101561127c57826003016000878152602001908152602001600020600e0154846005016000878152602001908152602001600020600201546112749190611f8e565b905080611282565b60019050805b508083600301600088815260200190815260200160002060050154116112dd576040517f08c379a00000000000000000000000000000000000000000000000000000000081526004016112d49061201f565b60405180910390fd5b6000600285600501600088815260200190815260200160002060040154611304919061206e565b84600301600089815260200190815260200160002060090154101561137357600a84600301600089815260200190815260200160002060090154866005016000898152602001908152602001600020600401546113619190611f8e565b61136b919061209f565b90508061139c565b600285600501600088815260200190815260200160002060040154611398919061206e565b9050805b50808560040160008881526020019081526020016000206000898152602001908152602001600020546113cf919061209f565b4210156113db57600080fd5b84600501600087815260200190815260200160002060030154831015611436576040517f08c379a000000000000000000000000000000000000000000000000000000000815260040161142d9061211f565b60405180910390fd5b846005016000878152602001908152602001600020600101548460030160008981526020019081526020016000206001016000828254611476919061209f565b925050819055508184600301600089815260200190815260200160002060050160008282546114a59190611f8e565b925050819055504285600401600088815260200190815260200160002060008981526020019081526020016000208190555050505050505050565b6000807f32545638e04f9bb0e18c6b7b873428ebfe8afc357b1d991bfe15d0950d92384590508091505090565b6000807f3cab9a070a0c61cd0ae9d9e9e2c0781e5ca8691bec4087e5a4701d5ac018dd4e90508091505090565b60405180610100016040528060008152602001600081526020016000815260200160008152602001600081526020016000815260200160608152602001606081525090565b6040518060e00160405280600081526020016000815260200160008152602001600081526020016000815260200160608152602001606081525090565b6000604051905090565b600080fd5b600080fd5b6000819050919050565b6115e3816115d0565b81146115ee57600080fd5b50565b600081359050611600816115da565b92915050565b6000806040838503121561161d5761161c6115c6565b5b600061162b858286016115f1565b925050602061163c858286016115f1565b9150509250929050565b61164f816115d0565b82525050565b600060208201905061166a6000830184611646565b92915050565b600080fd5b600080fd5b6000601f19601f8301169050919050565b7f4e487b7100000000000000000000000000000000000000000000000000000000600052604160045260246000fd5b6116c38261167a565b810181811067ffffffffffffffff821117156116e2576116e161168b565b5b80604052505050565b60006116f56115bc565b905061170182826116ba565b919050565b600067ffffffffffffffff8211156117215761172061168b565b5b61172a8261167a565b9050602081019050919050565b82818337600083830152505050565b600061175961175484611706565b6116eb565b90508281526020810184848401111561177557611774611675565b5b611780848285611737565b509392505050565b600082601f83011261179d5761179c611670565b5b81356117ad848260208601611746565b91505092915050565b600080600080600080600060e0888a0312156117d5576117d46115c6565b5b60006117e38a828b016115f1565b97505060206117f48a828b016115f1565b96505060406118058a828b016115f1565b95505060606118168a828b016115f1565b94505060806118278a828b016115f1565b93505060a088013567ffffffffffffffff811115611848576118476115cb565b5b6118548a828b01611788565b92505060c088013567ffffffffffffffff811115611875576118746115cb565b5b6118818a828b01611788565b91505092959891949750929550565b60008060008060008060c087890312156118ad576118ac6115c6565b5b60006118bb89828a016115f1565b96505060206118cc89828a016115f1565b95505060406118dd89828a016115f1565b94505060606118ee89828a016115f1565b935050608087013567ffffffffffffffff81111561190f5761190e6115cb565b5b61191b89828a01611788565b92505060a087013567ffffffffffffffff81111561193c5761193b6115cb565b5b61194889828a01611788565b9150509295509295509295565b60006020828403121561196b5761196a6115c6565b5b6000611979848285016115f1565b91505092915050565b61198b816115d0565b82525050565b600081519050919050565b600082825260208201905092915050565b60005b838110156119cb5780820151818401526020810190506119b0565b60008484015250505050565b60006119e282611991565b6119ec818561199c565b93506119fc8185602086016119ad565b611a058161167a565b840191505092915050565b600061010083016000830151611a296000860182611982565b506020830151611a3c6020860182611982565b506040830151611a4f6040860182611982565b506060830151611a626060860182611982565b506080830151611a756080860182611982565b5060a0830151611a8860a0860182611982565b5060c083015184820360c0860152611aa082826119d7565b91505060e083015184820360e0860152611aba82826119d7565b9150508091505092915050565b60006020820190508181036000830152611ae18184611a10565b905092915050565b600060e083016000830151611b016000860182611982565b506020830151611b146020860182611982565b506040830151611b276040860182611982565b506060830151611b3a6060860182611982565b506080830151611b4d6080860182611982565b5060a083015184820360a0860152611b6582826119d7565b91505060c083015184820360c0860152611b7f82826119d7565b9150508091505092915050565b60006020820190508181036000830152611ba68184611ae9565b905092915050565b600073ffffffffffffffffffffffffffffffffffffffff82169050919050565b6000611bd982611bae565b9050919050565b611be981611bce565b8114611bf457600080fd5b50565b600081359050611c0681611be0565b92915050565b600060208284031215611c2257611c216115c6565b5b6000611c3084828501611bf7565b91505092915050565b7f4e487b7100000000000000000000000000000000000000000000000000000000600052601160045260246000fd5b6000611c73826115d0565b91507fffffffffffffffffffffffffffffffffffffffffffffffffffffffffffffffff8203611ca557611ca4611c39565b5b600182019050919050565b7f4e487b7100000000000000000000000000000000000000000000000000000000600052602260045260246000fd5b60006002820490506001821680611cf757607f821691505b602082108103611d0a57611d09611cb0565b5b50919050565b60008190508160005260206000209050919050565b60006020601f8301049050919050565b600082821b905092915050565b600060088302611d727fffffffffffffffffffffffffffffffffffffffffffffffffffffffffffffffff82611d35565b611d7c8683611d35565b95508019841693508086168417925050509392505050565b6000819050919050565b6000611db9611db4611daf846115d0565b611d94565b6115d0565b9050919050565b6000819050919050565b611dd383611d9e565b611de7611ddf82611dc0565b848454611d42565b825550505050565b600090565b611dfc611def565b611e07818484611dca565b505050565b5b81811015611e2b57611e20600082611df4565b600181019050611e0d565b5050565b601f821115611e7057611e4181611d10565b611e4a84611d25565b81016020851015611e59578190505b611e6d611e6585611d25565b830182611e0c565b50505b505050565b600082821c905092915050565b6000611e9360001984600802611e75565b1980831691505092915050565b6000611eac8383611e82565b9150826002028217905092915050565b611ec582611991565b67ffffffffffffffff811115611ede57611edd61168b565b5b611ee88254611cdf565b611ef3828285611e2f565b600060209050601f831160018114611f265760008415611f14578287015190505b611f1e8582611ea0565b865550611f86565b601f198416611f3486611d10565b60005b82811015611f5c57848901518255600182019150602085019450602081019050611f37565b86831015611f795784890151611f75601f891682611e82565b8355505b6001600288020188555050505b505050505050565b6000611f99826115d0565b9150611fa4836115d0565b9250828203905081811115611fbc57611fbb611c39565b5b92915050565b600082825260208201905092915050565b7f6e6f7420656e6f75676820687000000000000000000000000000000000000000600082015250565b6000612009600d83611fc2565b915061201482611fd3565b602082019050919050565b6000602082019050818103600083015261203881611ffc565b9050919050565b7f4e487b7100000000000000000000000000000000000000000000000000000000600052601260045260246000fd5b6000612079826115d0565b9150612084836115d0565b9250826120945761209361203f565b5b828204905092915050565b60006120aa826115d0565b91506120b5836115d0565b92508282019050808211156120cd576120cc611c39565b5b92915050565b7f6e6f74207374726f6e6720656e6f756768000000000000000000000000000000600082015250565b6000612109601183611fc2565b9150612114826120d3565b602082019050919050565b60006020820190508181036000830152612138816120fc565b905091905056fea2646970667358221220192eff28ca4e62b4a95805e2e6ee40317a37b288561b746b5e4f04b39ca75d5964736f6c63430008120033",
  "linkReferences": {},
  "deployedLinkReferences": {}
}