{
  "_format": "hh-sol-artifact-1",
  "contractName": "MonsterFacet",
  "sourceName": "contracts/facets/MonsterFacet.sol",
  "abi": [
    {
      "anonymous": false,
      "inputs": [
        {
          "indexed": true,
          "internalType": "uint256",
          "name": "_monsterId",
          "type": "uint256"
        },
        {
          "components": [
            {
              "internalType": "uint256",
              "name": "basicMonsterId",
              "type": "uint256"
            },
            {
              "internalType": "uint256",
              "name": "xpReward",
              "type": "uint256"
            },
            {
              "internalType": "uint256",
              "name": "damage",
              "type": "uint256"
            },
            {
              "internalType": "uint256",
              "name": "hp",
              "type": "uint256"
            },
            {
              "internalType": "uint256",
              "name": "cooldown",
              "type": "uint256"
            },
            {
              "internalType": "string",
              "name": "name",
              "type": "string"
            },
            {
              "internalType": "string",
              "name": "uri",
              "type": "string"
            }
          ],
          "indexed": false,
          "internalType": "struct BasicMonster",
          "name": "_basicMonster",
          "type": "tuple"
        }
      ],
      "name": "CreateBasicMonster",
      "type": "event"
    },
    {
      "anonymous": false,
      "inputs": [
        {
          "indexed": true,
          "internalType": "uint256",
          "name": "_monsterId",
          "type": "uint256"
        }
      ],
      "name": "CreateMagicMonster",
      "type": "event"
    },
    {
      "anonymous": false,
      "inputs": [
        {
          "indexed": true,
          "internalType": "uint256",
          "name": "_playerId",
          "type": "uint256"
        }
      ],
      "name": "DragonQuest",
      "type": "event"
    },
    {
      "anonymous": false,
      "inputs": [
        {
          "indexed": true,
          "internalType": "uint256",
          "name": "_monsterId",
          "type": "uint256"
        }
      ],
      "name": "EditBasicMonster",
      "type": "event"
    },
    {
      "anonymous": false,
      "inputs": [
        {
          "indexed": true,
          "internalType": "uint256",
          "name": "_monsterId",
          "type": "uint256"
        },
        {
          "indexed": false,
          "internalType": "uint256",
          "name": "_playerId",
          "type": "uint256"
        }
      ],
      "name": "FightBasicMonster",
      "type": "event"
    },
    {
      "anonymous": false,
      "inputs": [
        {
          "indexed": true,
          "internalType": "uint256",
          "name": "_monsterId",
          "type": "uint256"
        },
        {
          "indexed": false,
          "internalType": "uint256",
          "name": "_playerId",
          "type": "uint256"
        }
      ],
      "name": "FightMagicMonster",
      "type": "event"
    },
    {
      "inputs": [
        {
          "internalType": "uint256",
          "name": "_xpReward",
          "type": "uint256"
        },
        {
          "internalType": "uint256",
          "name": "_damage",
          "type": "uint256"
        },
        {
          "internalType": "uint256",
          "name": "_hp",
          "type": "uint256"
        },
        {
          "internalType": "uint256",
          "name": "_cooldown",
          "type": "uint256"
        },
        {
          "internalType": "string",
          "name": "_name",
          "type": "string"
        },
        {
          "internalType": "string",
          "name": "_uri",
          "type": "string"
        }
      ],
      "name": "createBasicMonster",
      "outputs": [],
      "stateMutability": "nonpayable",
      "type": "function"
    },
    {
      "inputs": [
        {
          "internalType": "uint256",
          "name": "_basicMonsterId",
          "type": "uint256"
        },
        {
          "internalType": "uint256",
          "name": "_xpReward",
          "type": "uint256"
        },
        {
          "internalType": "uint256",
          "name": "_damage",
          "type": "uint256"
        },
        {
          "internalType": "uint256",
          "name": "_hp",
          "type": "uint256"
        },
        {
          "internalType": "uint256",
          "name": "_cooldown",
          "type": "uint256"
        },
        {
          "internalType": "string",
          "name": "_name",
          "type": "string"
        },
        {
          "internalType": "string",
          "name": "_uri",
          "type": "string"
        }
      ],
      "name": "editBasicMonster",
      "outputs": [],
      "stateMutability": "nonpayable",
      "type": "function"
    },
    {
      "inputs": [
        {
          "internalType": "uint256",
          "name": "_playerId",
          "type": "uint256"
        },
        {
          "internalType": "uint256",
          "name": "_monsterId",
          "type": "uint256"
        }
      ],
      "name": "fightBasicMonster",
      "outputs": [],
      "stateMutability": "nonpayable",
      "type": "function"
    },
    {
      "inputs": [
        {
          "internalType": "uint256",
          "name": "_playerId",
          "type": "uint256"
        },
        {
          "internalType": "uint256",
          "name": "_monsterId",
          "type": "uint256"
        }
      ],
      "name": "fightMagicMonster",
      "outputs": [],
      "stateMutability": "nonpayable",
      "type": "function"
    },
    {
      "inputs": [
        {
          "internalType": "uint256",
          "name": "_monsterId",
          "type": "uint256"
        }
      ],
      "name": "getBasicMonster",
      "outputs": [
        {
          "components": [
            {
              "internalType": "uint256",
              "name": "basicMonsterId",
              "type": "uint256"
            },
            {
              "internalType": "uint256",
              "name": "xpReward",
              "type": "uint256"
            },
            {
              "internalType": "uint256",
              "name": "damage",
              "type": "uint256"
            },
            {
              "internalType": "uint256",
              "name": "hp",
              "type": "uint256"
            },
            {
              "internalType": "uint256",
              "name": "cooldown",
              "type": "uint256"
            },
            {
              "internalType": "string",
              "name": "name",
              "type": "string"
            },
            {
              "internalType": "string",
              "name": "uri",
              "type": "string"
            }
          ],
          "internalType": "struct BasicMonster",
          "name": "",
          "type": "tuple"
        }
      ],
      "stateMutability": "view",
      "type": "function"
    },
    {
      "inputs": [
        {
          "internalType": "uint256",
          "name": "_playerId",
          "type": "uint256"
        },
        {
          "internalType": "uint256",
          "name": "_monsterId",
          "type": "uint256"
        }
      ],
      "name": "getBasicMonsterCooldown",
      "outputs": [
        {
          "internalType": "uint256",
          "name": "",
          "type": "uint256"
        }
      ],
      "stateMutability": "view",
      "type": "function"
    },
    {
      "inputs": [],
      "name": "getBasicMonsterCounter",
      "outputs": [
        {
          "internalType": "uint256",
          "name": "",
          "type": "uint256"
        }
      ],
      "stateMutability": "view",
      "type": "function"
    },
    {
      "inputs": [
        {
          "internalType": "uint256",
          "name": "_monsterId",
          "type": "uint256"
        }
      ],
      "name": "getMagicMonster",
      "outputs": [
        {
          "components": [
            {
              "internalType": "uint256",
              "name": "basicMonsterId",
              "type": "uint256"
            },
            {
              "internalType": "uint256",
              "name": "xpReward",
              "type": "uint256"
            },
            {
              "internalType": "uint256",
              "name": "damage",
              "type": "uint256"
            },
            {
              "internalType": "uint256",
              "name": "hp",
              "type": "uint256"
            },
            {
              "internalType": "uint256",
              "name": "cooldown",
              "type": "uint256"
            },
            {
              "internalType": "uint256",
              "name": "cost",
              "type": "uint256"
            },
            {
              "internalType": "string",
              "name": "name",
              "type": "string"
            },
            {
              "internalType": "string",
              "name": "uri",
              "type": "string"
            }
          ],
          "internalType": "struct MagicMonster",
          "name": "",
          "type": "tuple"
        }
      ],
      "stateMutability": "view",
      "type": "function"
    },
    {
      "inputs": [
        {
          "internalType": "uint256",
          "name": "_playerId",
          "type": "uint256"
        },
        {
          "internalType": "uint256",
          "name": "_monsterId",
          "type": "uint256"
        }
      ],
      "name": "getMagicMonsterCooldown",
      "outputs": [
        {
          "internalType": "uint256",
          "name": "",
          "type": "uint256"
        }
      ],
      "stateMutability": "view",
      "type": "function"
    },
    {
      "inputs": [],
      "name": "getMagicMonsterCounter",
      "outputs": [
        {
          "internalType": "uint256",
          "name": "",
          "type": "uint256"
        }
      ],
      "stateMutability": "view",
      "type": "function"
    }
  ],
  "bytecode": "0x608060405234801561001057600080fd5b50611e22806100206000396000f3fe608060405234801561001057600080fd5b506004361061009e5760003560e01c806372eba48f1161006657806372eba48f1461016d578063874e59a814610189578063dbab7a75146101b9578063ed068a12146101d7578063fc2875d4146101f35761009e565b806315e840d7146100a35780632642c3f2146100d357806346a61f0b146100f15780634b3564c8146101215780635f0b8b8a1461013d575b600080fd5b6100bd60048036038101906100b8919061133e565b61020f565b6040516100ca919061138d565b60405180910390f35b6100db610223565b6040516100e8919061138d565b60405180910390f35b61010b6004803603810190610106919061133e565b610232565b604051610118919061138d565b60405180910390f35b61013b600480360381019061013691906114ee565b610246565b005b610157600480360381019061015291906115b3565b6102fb565b6040516101649190611725565b60405180910390f35b6101876004803603810190610182919061133e565b610313565b005b6101a3600480360381019061019e91906115b3565b610359565b6040516101b091906117ea565b60405180910390f35b6101c1610371565b6040516101ce919061138d565b60405180910390f35b6101f160048036038101906101ec919061180c565b610380565b005b61020d6004803603810190610208919061133e565b610417565b005b600061021b838361045d565b905092915050565b600061022d61049a565b905090565b600061023e83836104b2565b905092915050565b600073434d36f32abed3f7937fe0be88dc1b0eb938124490508073ffffffffffffffffffffffffffffffffffffffff163373ffffffffffffffffffffffffffffffffffffffff161461029757600080fd5b6102a58787878787876104ef565b60006102af6105cf565b9050807f6ce630d16f61e286c5181100c5d4beae97eef06462b9788c40aaf180813877f86102dc836105e7565b6040516102e991906117ea565b60405180910390a25050505050505050565b610303611272565b61030c82610779565b9050919050565b61031d8282610916565b807f965610a8ff8ff82f321c7b88c47381f3bd47756fba31ffa181b65fa2c6acb1c18360405161034d919061138d565b60405180910390a25050565b6103616112b7565b61036a826105e7565b9050919050565b600061037b6105cf565b905090565b600073434d36f32abed3f7937fe0be88dc1b0eb938124490508073ffffffffffffffffffffffffffffffffffffffff163373ffffffffffffffffffffffffffffffffffffffff16146103d157600080fd5b6103e088888888888888610d3d565b877fa5d4155cd62c6eda8f9aa81200beec89353e740751684cc81e1aa1a7e65ede6d60405160405180910390a25050505050505050565b6104218282610e13565b807fac9c0073f52a3b08821048912ffb937aaac393618f0474f2ef7960ed035c3d3083604051610451919061138d565b60405180910390a25050565b600080610468611218565b905080600301600084815260200190815260200160002060008581526020019081526020016000205491505092915050565b6000806104a5611218565b9050806001015491505090565b6000806104bd611218565b905080600501600084815260200190815260200160002060008581526020019081526020016000205491505092915050565b60006104f9611218565b905080600001600081548092919061051090611915565b91905055506040518060e00160405280826000015481526020018881526020018781526020018681526020018581526020018481526020018381525081600401600083600001548152602001908152602001600020600082015181600001556020820151816001015560408201518160020155606082015181600301556080820151816004015560a08201518160050190816105ac9190611b69565b5060c08201518160060190816105c29190611b69565b5090505050505050505050565b6000806105da611218565b9050806000015491505090565b6105ef6112b7565b60006105f9611218565b90508060040160008481526020019081526020016000206040518060e0016040529081600082015481526020016001820154815260200160028201548152602001600382015481526020016004820154815260200160058201805461065d9061198c565b80601f01602080910402602001604051908101604052809291908181526020018280546106899061198c565b80156106d65780601f106106ab576101008083540402835291602001916106d6565b820191906000526020600020905b8154815290600101906020018083116106b957829003601f168201915b505050505081526020016006820180546106ef9061198c565b80601f016020809104026020016040519081016040528092919081815260200182805461071b9061198c565b80156107685780601f1061073d57610100808354040283529160200191610768565b820191906000526020600020905b81548152906001019060200180831161074b57829003601f168201915b505050505081525050915050919050565b610781611272565b600061078b611218565b9050806006016000848152602001908152602001600020604051806101000160405290816000820154815260200160018201548152602001600282015481526020016003820154815260200160048201548152602001600582015481526020016006820180546107fa9061198c565b80601f01602080910402602001604051908101604052809291908181526020018280546108269061198c565b80156108735780601f1061084857610100808354040283529160200191610873565b820191906000526020600020905b81548152906001019060200180831161085657829003601f168201915b5050505050815260200160078201805461088c9061198c565b80601f01602080910402602001604051908101604052809291908181526020018280546108b89061198c565b80156109055780601f106108da57610100808354040283529160200191610905565b820191906000526020600020905b8154815290600101906020018083116108e857829003601f168201915b505050505081525050915050919050565b6000610920611218565b9050600061092c611245565b90506000816003016000868152602001908152602001600020600201541461095357600080fd5b3373ffffffffffffffffffffffffffffffffffffffff1681600201600086815260200190815260200160002060009054906101000a900473ffffffffffffffffffffffffffffffffffffffff1673ffffffffffffffffffffffffffffffffffffffff16146109c057600080fd5b816006016000848152602001908152602001600020600501548160030160008681526020019081526020016000206007015410156109fd57600080fd5b600082600401600085815260200190815260200160002060020154826003016000878152602001908152602001600020600e01541015610a7b57816003016000868152602001908152602001600020600e015483600401600086815260200190815260200160002060020154610a739190611c3b565b905080610a81565b60019050805b50808260030160008781526020019081526020016000206005015411610adc576040517f08c379a0000000000000000000000000000000000000000000000000000000008152600401610ad390611ccc565b60405180910390fd5b6000600284600401600087815260200190815260200160002060040154610b039190611d1b565b836003016000888152602001908152602001600020600901541015610b7257600a8360030160008881526020019081526020016000206009015485600401600088815260200190815260200160002060040154610b609190611c3b565b610b6a9190611d4c565b905080610b9b565b600284600401600087815260200190815260200160002060040154610b979190611d1b565b9050805b5080846003016000878152602001908152602001600020600088815260200190815260200160002054610bce9190611d4c565b421015610bda57600080fd5b83600401600086815260200190815260200160002060030154836003016000888152602001908152602001600020600601541015610c4d576040517f08c379a0000000000000000000000000000000000000000000000000000000008152600401610c4490611dcc565b60405180910390fd5b836004016000868152602001908152602001600020600101548360030160008881526020019081526020016000206001016000828254610c8d9190611d4c565b92505081905550818360030160008881526020019081526020016000206005016000828254610cbc9190611c3b565b92505081905550836006016000868152602001908152602001600020600501548360030160008881526020019081526020016000206007016000828254610d039190611c3b565b9250508190555042846003016000878152602001908152602001600020600088815260200190815260200160002081905550505050505050565b6000610d47611218565b9050868160040160008a815260200190815260200160002060010181905550858160040160008a815260200190815260200160002060020181905550848160040160008a815260200190815260200160002060030181905550838160040160008a815260200190815260200160002060040181905550828160040160008a81526020019081526020016000206005019081610de29190611b69565b50818160040160008a81526020019081526020016000206006019081610e089190611b69565b505050505050505050565b6000610e1d611218565b90506000610e29611245565b905060008160030160008681526020019081526020016000206002015414610e5057600080fd5b3373ffffffffffffffffffffffffffffffffffffffff1681600201600086815260200190815260200160002060009054906101000a900473ffffffffffffffffffffffffffffffffffffffff1673ffffffffffffffffffffffffffffffffffffffff1614610ebd57600080fd5b600081600301600086815260200190815260200160002060060154826003016000878152602001908152602001600020600301541015610f185781600301600086815260200190815260200160002060060154905080610f35565b816003016000868152602001908152602001600020600301549050805b50600083600401600086815260200190815260200160002060020154836003016000888152602001908152602001600020600e01541015610fb457826003016000878152602001908152602001600020600e015484600401600087815260200190815260200160002060020154610fac9190611c3b565b905080610fba565b60019050805b50808360030160008881526020019081526020016000206005015411611015576040517f08c379a000000000000000000000000000000000000000000000000000000000815260040161100c90611ccc565b60405180910390fd5b600060028560040160008881526020019081526020016000206004015461103c9190611d1b565b8460030160008981526020019081526020016000206009015410156110ab57600a84600301600089815260200190815260200160002060090154866004016000898152602001908152602001600020600401546110999190611c3b565b6110a39190611d4c565b9050806110d4565b6002856004016000888152602001908152602001600020600401546110d09190611d1b565b9050805b50808560030160008881526020019081526020016000206000898152602001908152602001600020546111079190611d4c565b42101561111357600080fd5b8460040160008781526020019081526020016000206003015483101561116e576040517f08c379a000000000000000000000000000000000000000000000000000000000815260040161116590611dcc565b60405180910390fd5b8460040160008781526020019081526020016000206001015484600301600089815260200190815260200160002060010160008282546111ae9190611d4c565b925050819055508184600301600089815260200190815260200160002060050160008282546111dd9190611c3b565b925050819055504285600301600088815260200190815260200160002060008981526020019081526020016000208190555050505050505050565b6000807f32545638e04f9bb0e18c6b7b873428ebfe8afc357b1d991bfe15d0950d92384590508091505090565b6000807f3cab9a070a0c61cd0ae9d9e9e2c0781e5ca8691bec4087e5a4701d5ac018dd4e90508091505090565b60405180610100016040528060008152602001600081526020016000815260200160008152602001600081526020016000815260200160608152602001606081525090565b6040518060e00160405280600081526020016000815260200160008152602001600081526020016000815260200160608152602001606081525090565b6000604051905090565b600080fd5b600080fd5b6000819050919050565b61131b81611308565b811461132657600080fd5b50565b60008135905061133881611312565b92915050565b60008060408385031215611355576113546112fe565b5b600061136385828601611329565b925050602061137485828601611329565b9150509250929050565b61138781611308565b82525050565b60006020820190506113a2600083018461137e565b92915050565b600080fd5b600080fd5b6000601f19601f8301169050919050565b7f4e487b7100000000000000000000000000000000000000000000000000000000600052604160045260246000fd5b6113fb826113b2565b810181811067ffffffffffffffff8211171561141a576114196113c3565b5b80604052505050565b600061142d6112f4565b905061143982826113f2565b919050565b600067ffffffffffffffff821115611459576114586113c3565b5b611462826113b2565b9050602081019050919050565b82818337600083830152505050565b600061149161148c8461143e565b611423565b9050828152602081018484840111156114ad576114ac6113ad565b5b6114b884828561146f565b509392505050565b600082601f8301126114d5576114d46113a8565b5b81356114e584826020860161147e565b91505092915050565b60008060008060008060c0878903121561150b5761150a6112fe565b5b600061151989828a01611329565b965050602061152a89828a01611329565b955050604061153b89828a01611329565b945050606061154c89828a01611329565b935050608087013567ffffffffffffffff81111561156d5761156c611303565b5b61157989828a016114c0565b92505060a087013567ffffffffffffffff81111561159a57611599611303565b5b6115a689828a016114c0565b9150509295509295509295565b6000602082840312156115c9576115c86112fe565b5b60006115d784828501611329565b91505092915050565b6115e981611308565b82525050565b600081519050919050565b600082825260208201905092915050565b60005b8381101561162957808201518184015260208101905061160e565b60008484015250505050565b6000611640826115ef565b61164a81856115fa565b935061165a81856020860161160b565b611663816113b2565b840191505092915050565b60006101008301600083015161168760008601826115e0565b50602083015161169a60208601826115e0565b5060408301516116ad60408601826115e0565b5060608301516116c060608601826115e0565b5060808301516116d360808601826115e0565b5060a08301516116e660a08601826115e0565b5060c083015184820360c08601526116fe8282611635565b91505060e083015184820360e08601526117188282611635565b9150508091505092915050565b6000602082019050818103600083015261173f818461166e565b905092915050565b600060e08301600083015161175f60008601826115e0565b50602083015161177260208601826115e0565b50604083015161178560408601826115e0565b50606083015161179860608601826115e0565b5060808301516117ab60808601826115e0565b5060a083015184820360a08601526117c38282611635565b91505060c083015184820360c08601526117dd8282611635565b9150508091505092915050565b600060208201905081810360008301526118048184611747565b905092915050565b600080600080600080600060e0888a03121561182b5761182a6112fe565b5b60006118398a828b01611329565b975050602061184a8a828b01611329565b965050604061185b8a828b01611329565b955050606061186c8a828b01611329565b945050608061187d8a828b01611329565b93505060a088013567ffffffffffffffff81111561189e5761189d611303565b5b6118aa8a828b016114c0565b92505060c088013567ffffffffffffffff8111156118cb576118ca611303565b5b6118d78a828b016114c0565b91505092959891949750929550565b7f4e487b7100000000000000000000000000000000000000000000000000000000600052601160045260246000fd5b600061192082611308565b91507fffffffffffffffffffffffffffffffffffffffffffffffffffffffffffffffff8203611952576119516118e6565b5b600182019050919050565b7f4e487b7100000000000000000000000000000000000000000000000000000000600052602260045260246000fd5b600060028204905060018216806119a457607f821691505b6020821081036119b7576119b661195d565b5b50919050565b60008190508160005260206000209050919050565b60006020601f8301049050919050565b600082821b905092915050565b600060088302611a1f7fffffffffffffffffffffffffffffffffffffffffffffffffffffffffffffffff826119e2565b611a2986836119e2565b95508019841693508086168417925050509392505050565b6000819050919050565b6000611a66611a61611a5c84611308565b611a41565b611308565b9050919050565b6000819050919050565b611a8083611a4b565b611a94611a8c82611a6d565b8484546119ef565b825550505050565b600090565b611aa9611a9c565b611ab4818484611a77565b505050565b5b81811015611ad857611acd600082611aa1565b600181019050611aba565b5050565b601f821115611b1d57611aee816119bd565b611af7846119d2565b81016020851015611b06578190505b611b1a611b12856119d2565b830182611ab9565b50505b505050565b600082821c905092915050565b6000611b4060001984600802611b22565b1980831691505092915050565b6000611b598383611b2f565b9150826002028217905092915050565b611b72826115ef565b67ffffffffffffffff811115611b8b57611b8a6113c3565b5b611b95825461198c565b611ba0828285611adc565b600060209050601f831160018114611bd35760008415611bc1578287015190505b611bcb8582611b4d565b865550611c33565b601f198416611be1866119bd565b60005b82811015611c0957848901518255600182019150602085019450602081019050611be4565b86831015611c265784890151611c22601f891682611b2f565b8355505b6001600288020188555050505b505050505050565b6000611c4682611308565b9150611c5183611308565b9250828203905081811115611c6957611c686118e6565b5b92915050565b600082825260208201905092915050565b7f6e6f7420656e6f75676820687000000000000000000000000000000000000000600082015250565b6000611cb6600d83611c6f565b9150611cc182611c80565b602082019050919050565b60006020820190508181036000830152611ce581611ca9565b9050919050565b7f4e487b7100000000000000000000000000000000000000000000000000000000600052601260045260246000fd5b6000611d2682611308565b9150611d3183611308565b925082611d4157611d40611cec565b5b828204905092915050565b6000611d5782611308565b9150611d6283611308565b9250828201905080821115611d7a57611d796118e6565b5b92915050565b7f6e6f74207374726f6e6720656e6f756768000000000000000000000000000000600082015250565b6000611db6601183611c6f565b9150611dc182611d80565b602082019050919050565b60006020820190508181036000830152611de581611da9565b905091905056fea2646970667358221220663fa98e374162fdda6efcd6cd7c959504a69c435f6e80091e458eb38f21a82664736f6c63430008120033",
  "linkReferences": {},
  "deployedLinkReferences": {}
}