{
  "_format": "hh-sol-artifact-1",
  "contractName": "MonsterFacet",
  "sourceName": "contracts/facets/MonsterFacet.sol",
  "abi": [
    {
      "anonymous": false,
      "inputs": [
        {
          "indexed": true,
          "internalType": "uint256",
          "name": "_monsterId",
          "type": "uint256"
        }
      ],
      "name": "CreateBasicMonster",
      "type": "event"
    },
    {
      "anonymous": false,
      "inputs": [
        {
          "indexed": true,
          "internalType": "uint256",
          "name": "_playerId",
          "type": "uint256"
        }
      ],
      "name": "DragonQuest",
      "type": "event"
    },
    {
      "anonymous": false,
      "inputs": [
        {
          "indexed": true,
          "internalType": "uint256",
          "name": "_monsterId",
          "type": "uint256"
        }
      ],
      "name": "EditBasicMonster",
      "type": "event"
    },
    {
      "anonymous": false,
      "inputs": [
        {
          "indexed": true,
          "internalType": "uint256",
          "name": "_monsterId",
          "type": "uint256"
        },
        {
          "indexed": false,
          "internalType": "uint256",
          "name": "_playerId",
          "type": "uint256"
        }
      ],
      "name": "FightBasicMonster",
      "type": "event"
    },
    {
      "inputs": [
        {
          "internalType": "uint256",
          "name": "_xpReward",
          "type": "uint256"
        },
        {
          "internalType": "uint256",
          "name": "_damage",
          "type": "uint256"
        },
        {
          "internalType": "uint256",
          "name": "_hp",
          "type": "uint256"
        },
        {
          "internalType": "uint256",
          "name": "_cooldown",
          "type": "uint256"
        },
        {
          "internalType": "string",
          "name": "_name",
          "type": "string"
        },
        {
          "internalType": "string",
          "name": "_uri",
          "type": "string"
        }
      ],
      "name": "createBasicMonster",
      "outputs": [],
      "stateMutability": "nonpayable",
      "type": "function"
    },
    {
      "inputs": [
        {
          "internalType": "uint256",
          "name": "_basicMonsterId",
          "type": "uint256"
        },
        {
          "internalType": "uint256",
          "name": "_xpReward",
          "type": "uint256"
        },
        {
          "internalType": "uint256",
          "name": "_damage",
          "type": "uint256"
        },
        {
          "internalType": "uint256",
          "name": "_hp",
          "type": "uint256"
        },
        {
          "internalType": "uint256",
          "name": "_cooldown",
          "type": "uint256"
        },
        {
          "internalType": "string",
          "name": "_name",
          "type": "string"
        },
        {
          "internalType": "string",
          "name": "_uri",
          "type": "string"
        }
      ],
      "name": "editBasicMonster",
      "outputs": [],
      "stateMutability": "nonpayable",
      "type": "function"
    },
    {
      "inputs": [
        {
          "internalType": "uint256",
          "name": "_playerId",
          "type": "uint256"
        },
        {
          "internalType": "uint256",
          "name": "_monsterId",
          "type": "uint256"
        }
      ],
      "name": "fightBasicMonster",
      "outputs": [],
      "stateMutability": "nonpayable",
      "type": "function"
    },
    {
      "inputs": [
        {
          "internalType": "uint256",
          "name": "_monsterId",
          "type": "uint256"
        }
      ],
      "name": "getBasicMonster",
      "outputs": [
        {
          "components": [
            {
              "internalType": "uint256",
              "name": "basicMonsterId",
              "type": "uint256"
            },
            {
              "internalType": "uint256",
              "name": "xpReward",
              "type": "uint256"
            },
            {
              "internalType": "uint256",
              "name": "damage",
              "type": "uint256"
            },
            {
              "internalType": "uint256",
              "name": "hp",
              "type": "uint256"
            },
            {
              "internalType": "uint256",
              "name": "cooldown",
              "type": "uint256"
            },
            {
              "internalType": "string",
              "name": "name",
              "type": "string"
            },
            {
              "internalType": "string",
              "name": "uri",
              "type": "string"
            }
          ],
          "internalType": "struct BasicMonster",
          "name": "",
          "type": "tuple"
        }
      ],
      "stateMutability": "view",
      "type": "function"
    },
    {
      "inputs": [
        {
          "internalType": "uint256",
          "name": "_playerId",
          "type": "uint256"
        },
        {
          "internalType": "uint256",
          "name": "_monsterId",
          "type": "uint256"
        }
      ],
      "name": "getBasicMonsterCooldown",
      "outputs": [
        {
          "internalType": "uint256",
          "name": "",
          "type": "uint256"
        }
      ],
      "stateMutability": "view",
      "type": "function"
    },
    {
      "inputs": [],
      "name": "getMonsterCounter",
      "outputs": [
        {
          "internalType": "uint256",
          "name": "",
          "type": "uint256"
        }
      ],
      "stateMutability": "view",
      "type": "function"
    }
  ],
  "bytecode": "0x608060405234801561001057600080fd5b50611587806100206000396000f3fe608060405234801561001057600080fd5b50600436106100625760003560e01c806315e840d7146100675780634b3564c814610097578063874e59a8146100b3578063ed068a12146100e3578063fc2875d4146100ff578063fda30d4c1461011b575b600080fd5b610081600480360381019061007c9190610b7c565b610139565b60405161008e9190610bcb565b60405180910390f35b6100b160048036038101906100ac9190610d2c565b61014d565b005b6100cd60048036038101906100c89190610df1565b6101e9565b6040516100da9190610f4f565b60405180910390f35b6100fd60048036038101906100f89190610f71565b610201565b005b61011960048036038101906101149190610b7c565b610298565b005b6101236102de565b6040516101309190610bcb565b60405180910390f35b600061014583836102ed565b905092915050565b600073434d36f32abed3f7937fe0be88dc1b0eb938124490508073ffffffffffffffffffffffffffffffffffffffff163373ffffffffffffffffffffffffffffffffffffffff161461019e57600080fd5b6101ac87878787878761032a565b6101b461040a565b7f856d040967b09806c1357161c96c37bd00e1ddf47865abb6b6bc96b15edc1e3960405160405180910390a250505050505050565b6101f1610af5565b6101fa82610422565b9050919050565b600073434d36f32abed3f7937fe0be88dc1b0eb938124490508073ffffffffffffffffffffffffffffffffffffffff163373ffffffffffffffffffffffffffffffffffffffff161461025257600080fd5b610261888888888888886105b4565b877fa5d4155cd62c6eda8f9aa81200beec89353e740751684cc81e1aa1a7e65ede6d60405160405180910390a25050505050505050565b6102a2828261068a565b807fac9c0073f52a3b08821048912ffb937aaac393618f0474f2ef7960ed035c3d30836040516102d29190610bcb565b60405180910390a25050565b60006102e861040a565b905090565b6000806102f8610a9b565b905080600201600084815260200190815260200160002060008581526020019081526020016000205491505092915050565b6000610334610a9b565b905080600001600081548092919061034b9061107a565b91905055506040518060e00160405280826000015481526020018881526020018781526020018681526020018581526020018481526020018381525081600301600083600001548152602001908152602001600020600082015181600001556020820151816001015560408201518160020155606082015181600301556080820151816004015560a08201518160050190816103e791906112ce565b5060c08201518160060190816103fd91906112ce565b5090505050505050505050565b600080610415610a9b565b9050806000015491505090565b61042a610af5565b6000610434610a9b565b90508060030160008481526020019081526020016000206040518060e00160405290816000820154815260200160018201548152602001600282015481526020016003820154815260200160048201548152602001600582018054610498906110f1565b80601f01602080910402602001604051908101604052809291908181526020018280546104c4906110f1565b80156105115780601f106104e657610100808354040283529160200191610511565b820191906000526020600020905b8154815290600101906020018083116104f457829003601f168201915b5050505050815260200160068201805461052a906110f1565b80601f0160208091040260200160405190810160405280929190818152602001828054610556906110f1565b80156105a35780601f10610578576101008083540402835291602001916105a3565b820191906000526020600020905b81548152906001019060200180831161058657829003601f168201915b505050505081525050915050919050565b60006105be610a9b565b9050868160030160008a815260200190815260200160002060010181905550858160030160008a815260200190815260200160002060020181905550848160030160008a815260200190815260200160002060030181905550838160030160008a815260200190815260200160002060040181905550828160030160008a8152602001908152602001600020600501908161065991906112ce565b50818160030160008a8152602001908152602001600020600601908161067f91906112ce565b505050505050505050565b6000610694610a9b565b905060006106a0610ac8565b9050600081600301600086815260200190815260200160002060020154146106c757600080fd5b3373ffffffffffffffffffffffffffffffffffffffff1681600201600086815260200190815260200160002060009054906101000a900473ffffffffffffffffffffffffffffffffffffffff1673ffffffffffffffffffffffffffffffffffffffff161461073457600080fd5b60008160030160008681526020019081526020016000206006015482600301600087815260200190815260200160002060030154101561078f57816003016000868152602001908152602001600020600601549050806107ac565b816003016000868152602001908152602001600020600301549050805b50600083600301600086815260200190815260200160002060020154836003016000888152602001908152602001600020600e01541015610837576001836003016000888152602001908152602001600020600e01548560030160008881526020019081526020016000206002015461082591906113a0565b61082f91906113d4565b90508061083d565b60019050805b50808360030160008881526020019081526020016000206005015411610898576040517f08c379a000000000000000000000000000000000000000000000000000000000815260040161088f90611465565b60405180910390fd5b60006002856003016000888152602001908152602001600020600401546108bf91906114b4565b84600301600089815260200190815260200160002060090154101561092e57600a846003016000898152602001908152602001600020600901548660030160008981526020019081526020016000206004015461091c91906113a0565b61092691906113d4565b905080610957565b60028560030160008881526020019081526020016000206004015461095391906114b4565b9050805b508085600201600088815260200190815260200160002060008981526020019081526020016000205461098a91906113d4565b42101561099657600080fd5b846003016000878152602001908152602001600020600301548310156109f1576040517f08c379a00000000000000000000000000000000000000000000000000000000081526004016109e890611531565b60405180910390fd5b846003016000878152602001908152602001600020600101548460030160008981526020019081526020016000206001016000828254610a3191906113d4565b92505081905550818460030160008981526020019081526020016000206005016000828254610a6091906113a0565b925050819055504285600201600088815260200190815260200160002060008981526020019081526020016000208190555050505050505050565b6000807f32545638e04f9bb0e18c6b7b873428ebfe8afc357b1d991bfe15d0950d92384590508091505090565b6000807f3cab9a070a0c61cd0ae9d9e9e2c0781e5ca8691bec4087e5a4701d5ac018dd4e90508091505090565b6040518060e00160405280600081526020016000815260200160008152602001600081526020016000815260200160608152602001606081525090565b6000604051905090565b600080fd5b600080fd5b6000819050919050565b610b5981610b46565b8114610b6457600080fd5b50565b600081359050610b7681610b50565b92915050565b60008060408385031215610b9357610b92610b3c565b5b6000610ba185828601610b67565b9250506020610bb285828601610b67565b9150509250929050565b610bc581610b46565b82525050565b6000602082019050610be06000830184610bbc565b92915050565b600080fd5b600080fd5b6000601f19601f8301169050919050565b7f4e487b7100000000000000000000000000000000000000000000000000000000600052604160045260246000fd5b610c3982610bf0565b810181811067ffffffffffffffff82111715610c5857610c57610c01565b5b80604052505050565b6000610c6b610b32565b9050610c778282610c30565b919050565b600067ffffffffffffffff821115610c9757610c96610c01565b5b610ca082610bf0565b9050602081019050919050565b82818337600083830152505050565b6000610ccf610cca84610c7c565b610c61565b905082815260208101848484011115610ceb57610cea610beb565b5b610cf6848285610cad565b509392505050565b600082601f830112610d1357610d12610be6565b5b8135610d23848260208601610cbc565b91505092915050565b60008060008060008060c08789031215610d4957610d48610b3c565b5b6000610d5789828a01610b67565b9650506020610d6889828a01610b67565b9550506040610d7989828a01610b67565b9450506060610d8a89828a01610b67565b935050608087013567ffffffffffffffff811115610dab57610daa610b41565b5b610db789828a01610cfe565b92505060a087013567ffffffffffffffff811115610dd857610dd7610b41565b5b610de489828a01610cfe565b9150509295509295509295565b600060208284031215610e0757610e06610b3c565b5b6000610e1584828501610b67565b91505092915050565b610e2781610b46565b82525050565b600081519050919050565b600082825260208201905092915050565b60005b83811015610e67578082015181840152602081019050610e4c565b60008484015250505050565b6000610e7e82610e2d565b610e888185610e38565b9350610e98818560208601610e49565b610ea181610bf0565b840191505092915050565b600060e083016000830151610ec46000860182610e1e565b506020830151610ed76020860182610e1e565b506040830151610eea6040860182610e1e565b506060830151610efd6060860182610e1e565b506080830151610f106080860182610e1e565b5060a083015184820360a0860152610f288282610e73565b91505060c083015184820360c0860152610f428282610e73565b9150508091505092915050565b60006020820190508181036000830152610f698184610eac565b905092915050565b600080600080600080600060e0888a031215610f9057610f8f610b3c565b5b6000610f9e8a828b01610b67565b9750506020610faf8a828b01610b67565b9650506040610fc08a828b01610b67565b9550506060610fd18a828b01610b67565b9450506080610fe28a828b01610b67565b93505060a088013567ffffffffffffffff81111561100357611002610b41565b5b61100f8a828b01610cfe565b92505060c088013567ffffffffffffffff8111156110305761102f610b41565b5b61103c8a828b01610cfe565b91505092959891949750929550565b7f4e487b7100000000000000000000000000000000000000000000000000000000600052601160045260246000fd5b600061108582610b46565b91507fffffffffffffffffffffffffffffffffffffffffffffffffffffffffffffffff82036110b7576110b661104b565b5b600182019050919050565b7f4e487b7100000000000000000000000000000000000000000000000000000000600052602260045260246000fd5b6000600282049050600182168061110957607f821691505b60208210810361111c5761111b6110c2565b5b50919050565b60008190508160005260206000209050919050565b60006020601f8301049050919050565b600082821b905092915050565b6000600883026111847fffffffffffffffffffffffffffffffffffffffffffffffffffffffffffffffff82611147565b61118e8683611147565b95508019841693508086168417925050509392505050565b6000819050919050565b60006111cb6111c66111c184610b46565b6111a6565b610b46565b9050919050565b6000819050919050565b6111e5836111b0565b6111f96111f1826111d2565b848454611154565b825550505050565b600090565b61120e611201565b6112198184846111dc565b505050565b5b8181101561123d57611232600082611206565b60018101905061121f565b5050565b601f8211156112825761125381611122565b61125c84611137565b8101602085101561126b578190505b61127f61127785611137565b83018261121e565b50505b505050565b600082821c905092915050565b60006112a560001984600802611287565b1980831691505092915050565b60006112be8383611294565b9150826002028217905092915050565b6112d782610e2d565b67ffffffffffffffff8111156112f0576112ef610c01565b5b6112fa82546110f1565b611305828285611241565b600060209050601f8311600181146113385760008415611326578287015190505b61133085826112b2565b865550611398565b601f19841661134686611122565b60005b8281101561136e57848901518255600182019150602085019450602081019050611349565b8683101561138b5784890151611387601f891682611294565b8355505b6001600288020188555050505b505050505050565b60006113ab82610b46565b91506113b683610b46565b92508282039050818111156113ce576113cd61104b565b5b92915050565b60006113df82610b46565b91506113ea83610b46565b92508282019050808211156114025761140161104b565b5b92915050565b600082825260208201905092915050565b7f6e6f7420656e6f75676820687000000000000000000000000000000000000000600082015250565b600061144f600d83611408565b915061145a82611419565b602082019050919050565b6000602082019050818103600083015261147e81611442565b9050919050565b7f4e487b7100000000000000000000000000000000000000000000000000000000600052601260045260246000fd5b60006114bf82610b46565b91506114ca83610b46565b9250826114da576114d9611485565b5b828204905092915050565b7f6e6f74207374726f6e6720656e6f756768000000000000000000000000000000600082015250565b600061151b601183611408565b9150611526826114e5565b602082019050919050565b6000602082019050818103600083015261154a8161150e565b905091905056fea2646970667358221220b32e7fef2e47cfdf0a2a2c73a739d381c2a8d23c784eefd1173d673f093ecb8f64736f6c63430008120033",
  "linkReferences": {},
  "deployedLinkReferences": {}
}