{
  "_format": "hh-sol-artifact-1",
  "contractName": "MonsterFacet",
  "sourceName": "contracts/facets/MonsterFacet.sol",
  "abi": [
    {
      "anonymous": false,
      "inputs": [
        {
          "indexed": true,
          "internalType": "uint256",
          "name": "_monsterId",
          "type": "uint256"
        }
      ],
      "name": "CreateBasicMonster",
      "type": "event"
    },
    {
      "anonymous": false,
      "inputs": [
        {
          "indexed": true,
          "internalType": "uint256",
          "name": "_playerId",
          "type": "uint256"
        }
      ],
      "name": "DragonQuest",
      "type": "event"
    },
    {
      "anonymous": false,
      "inputs": [
        {
          "indexed": true,
          "internalType": "uint256",
          "name": "_monsterId",
          "type": "uint256"
        }
      ],
      "name": "EditBasicMonster",
      "type": "event"
    },
    {
      "anonymous": false,
      "inputs": [
        {
          "indexed": true,
          "internalType": "uint256",
          "name": "_monsterId",
          "type": "uint256"
        },
        {
          "indexed": false,
          "internalType": "uint256",
          "name": "_playerId",
          "type": "uint256"
        }
      ],
      "name": "FightBasicMonster",
      "type": "event"
    },
    {
      "inputs": [
        {
          "internalType": "uint256",
          "name": "_xpReward",
          "type": "uint256"
        },
        {
          "internalType": "uint256",
          "name": "_damage",
          "type": "uint256"
        },
        {
          "internalType": "uint256",
          "name": "_hp",
          "type": "uint256"
        },
        {
          "internalType": "uint256",
          "name": "_cooldown",
          "type": "uint256"
        },
        {
          "internalType": "string",
          "name": "_name",
          "type": "string"
        },
        {
          "internalType": "string",
          "name": "_uri",
          "type": "string"
        }
      ],
      "name": "createBasicMonster",
      "outputs": [],
      "stateMutability": "nonpayable",
      "type": "function"
    },
    {
      "inputs": [
        {
          "internalType": "uint256",
          "name": "_basicMonsterId",
          "type": "uint256"
        },
        {
          "internalType": "uint256",
          "name": "_xpReward",
          "type": "uint256"
        },
        {
          "internalType": "uint256",
          "name": "_damage",
          "type": "uint256"
        },
        {
          "internalType": "uint256",
          "name": "_hp",
          "type": "uint256"
        },
        {
          "internalType": "uint256",
          "name": "_cooldown",
          "type": "uint256"
        },
        {
          "internalType": "string",
          "name": "_name",
          "type": "string"
        },
        {
          "internalType": "string",
          "name": "_uri",
          "type": "string"
        }
      ],
      "name": "editBasicMonster",
      "outputs": [],
      "stateMutability": "nonpayable",
      "type": "function"
    },
    {
      "inputs": [
        {
          "internalType": "uint256",
          "name": "_playerId",
          "type": "uint256"
        },
        {
          "internalType": "uint256",
          "name": "_monsterId",
          "type": "uint256"
        }
      ],
      "name": "fightBasicMonster",
      "outputs": [],
      "stateMutability": "nonpayable",
      "type": "function"
    },
    {
      "inputs": [
        {
          "internalType": "uint256",
          "name": "_monsterId",
          "type": "uint256"
        }
      ],
      "name": "getBasicMonster",
      "outputs": [
        {
          "components": [
            {
              "internalType": "uint256",
              "name": "basicMonsterId",
              "type": "uint256"
            },
            {
              "internalType": "uint256",
              "name": "xpReward",
              "type": "uint256"
            },
            {
              "internalType": "uint256",
              "name": "damage",
              "type": "uint256"
            },
            {
              "internalType": "uint256",
              "name": "hp",
              "type": "uint256"
            },
            {
              "internalType": "uint256",
              "name": "cooldown",
              "type": "uint256"
            },
            {
              "internalType": "string",
              "name": "name",
              "type": "string"
            },
            {
              "internalType": "string",
              "name": "uri",
              "type": "string"
            }
          ],
          "internalType": "struct BasicMonster",
          "name": "",
          "type": "tuple"
        }
      ],
      "stateMutability": "view",
      "type": "function"
    },
    {
      "inputs": [
        {
          "internalType": "uint256",
          "name": "_playerId",
          "type": "uint256"
        },
        {
          "internalType": "uint256",
          "name": "_monsterId",
          "type": "uint256"
        }
      ],
      "name": "getBasicMonsterCooldown",
      "outputs": [
        {
          "internalType": "uint256",
          "name": "",
          "type": "uint256"
        }
      ],
      "stateMutability": "view",
      "type": "function"
    },
    {
      "inputs": [],
      "name": "getMonsterCounter",
      "outputs": [
        {
          "internalType": "uint256",
          "name": "",
          "type": "uint256"
        }
      ],
      "stateMutability": "view",
      "type": "function"
    }
  ],
  "bytecode": "0x608060405234801561001057600080fd5b50611525806100206000396000f3fe608060405234801561001057600080fd5b50600436106100625760003560e01c806315e840d7146100675780634b3564c814610097578063874e59a8146100b3578063ed068a12146100e3578063fc2875d4146100ff578063fda30d4c1461011b575b600080fd5b610081600480360381019061007c9190610b1a565b610139565b60405161008e9190610b69565b60405180910390f35b6100b160048036038101906100ac9190610cca565b61014d565b005b6100cd60048036038101906100c89190610d8f565b6101e9565b6040516100da9190610eed565b60405180910390f35b6100fd60048036038101906100f89190610f0f565b610201565b005b61011960048036038101906101149190610b1a565b610298565b005b6101236102de565b6040516101309190610b69565b60405180910390f35b600061014583836102ed565b905092915050565b600073434d36f32abed3f7937fe0be88dc1b0eb938124490508073ffffffffffffffffffffffffffffffffffffffff163373ffffffffffffffffffffffffffffffffffffffff161461019e57600080fd5b6101ac87878787878761032a565b6101b461040a565b7f856d040967b09806c1357161c96c37bd00e1ddf47865abb6b6bc96b15edc1e3960405160405180910390a250505050505050565b6101f1610a93565b6101fa82610422565b9050919050565b600073434d36f32abed3f7937fe0be88dc1b0eb938124490508073ffffffffffffffffffffffffffffffffffffffff163373ffffffffffffffffffffffffffffffffffffffff161461025257600080fd5b610261888888888888886105b4565b877fa5d4155cd62c6eda8f9aa81200beec89353e740751684cc81e1aa1a7e65ede6d60405160405180910390a25050505050505050565b6102a2828261068a565b807fac9c0073f52a3b08821048912ffb937aaac393618f0474f2ef7960ed035c3d30836040516102d29190610b69565b60405180910390a25050565b60006102e861040a565b905090565b6000806102f8610a39565b905080600201600084815260200190815260200160002060008581526020019081526020016000205491505092915050565b6000610334610a39565b905080600001600081548092919061034b90611018565b91905055506040518060e00160405280826000015481526020018881526020018781526020018681526020018581526020018481526020018381525081600301600083600001548152602001908152602001600020600082015181600001556020820151816001015560408201518160020155606082015181600301556080820151816004015560a08201518160050190816103e7919061126c565b5060c08201518160060190816103fd919061126c565b5090505050505050505050565b600080610415610a39565b9050806000015491505090565b61042a610a93565b6000610434610a39565b90508060030160008481526020019081526020016000206040518060e001604052908160008201548152602001600182015481526020016002820154815260200160038201548152602001600482015481526020016005820180546104989061108f565b80601f01602080910402602001604051908101604052809291908181526020018280546104c49061108f565b80156105115780601f106104e657610100808354040283529160200191610511565b820191906000526020600020905b8154815290600101906020018083116104f457829003601f168201915b5050505050815260200160068201805461052a9061108f565b80601f01602080910402602001604051908101604052809291908181526020018280546105569061108f565b80156105a35780601f10610578576101008083540402835291602001916105a3565b820191906000526020600020905b81548152906001019060200180831161058657829003601f168201915b505050505081525050915050919050565b60006105be610a39565b9050868160030160008a815260200190815260200160002060010181905550858160030160008a815260200190815260200160002060020181905550848160030160008a815260200190815260200160002060030181905550838160030160008a815260200190815260200160002060040181905550828160030160008a81526020019081526020016000206005019081610659919061126c565b50818160030160008a8152602001908152602001600020600601908161067f919061126c565b505050505050505050565b6000610694610a39565b905060006106a0610a66565b9050600081600301600086815260200190815260200160002060020154146106c757600080fd5b3373ffffffffffffffffffffffffffffffffffffffff1681600201600086815260200190815260200160002060009054906101000a900473ffffffffffffffffffffffffffffffffffffffff1673ffffffffffffffffffffffffffffffffffffffff161461073457600080fd5b600082600301600085815260200190815260200160002060020154826003016000878152602001908152602001600020600e015410156107be576001826003016000878152602001908152602001600020600e0154846003016000878152602001908152602001600020600201546107ac919061133e565b6107b69190611372565b9050806107c4565b60019050805b5080826003016000878152602001908152602001600020600501541161081f576040517f08c379a000000000000000000000000000000000000000000000000000000000815260040161081690611403565b60405180910390fd5b60006002846003016000878152602001908152602001600020600401546108469190611452565b8360030160008881526020019081526020016000206009015410156108b557600a83600301600088815260200190815260200160002060090154856003016000888152602001908152602001600020600401546108a3919061133e565b6108ad9190611372565b9050806108de565b6002846003016000878152602001908152602001600020600401546108da9190611452565b9050805b50808460020160008781526020019081526020016000206000888152602001908152602001600020546109119190611372565b42101561091d57600080fd5b83600301600086815260200190815260200160002060030154836003016000888152602001908152602001600020600301541015610990576040517f08c379a0000000000000000000000000000000000000000000000000000000008152600401610987906114cf565b60405180910390fd5b8360030160008681526020019081526020016000206001015483600301600088815260200190815260200160002060010160008282546109d09190611372565b925050819055508183600301600088815260200190815260200160002060050160008282546109ff919061133e565b9250508190555042846002016000878152602001908152602001600020600088815260200190815260200160002081905550505050505050565b6000807f32545638e04f9bb0e18c6b7b873428ebfe8afc357b1d991bfe15d0950d92384590508091505090565b6000807f3cab9a070a0c61cd0ae9d9e9e2c0781e5ca8691bec4087e5a4701d5ac018dd4e90508091505090565b6040518060e00160405280600081526020016000815260200160008152602001600081526020016000815260200160608152602001606081525090565b6000604051905090565b600080fd5b600080fd5b6000819050919050565b610af781610ae4565b8114610b0257600080fd5b50565b600081359050610b1481610aee565b92915050565b60008060408385031215610b3157610b30610ada565b5b6000610b3f85828601610b05565b9250506020610b5085828601610b05565b9150509250929050565b610b6381610ae4565b82525050565b6000602082019050610b7e6000830184610b5a565b92915050565b600080fd5b600080fd5b6000601f19601f8301169050919050565b7f4e487b7100000000000000000000000000000000000000000000000000000000600052604160045260246000fd5b610bd782610b8e565b810181811067ffffffffffffffff82111715610bf657610bf5610b9f565b5b80604052505050565b6000610c09610ad0565b9050610c158282610bce565b919050565b600067ffffffffffffffff821115610c3557610c34610b9f565b5b610c3e82610b8e565b9050602081019050919050565b82818337600083830152505050565b6000610c6d610c6884610c1a565b610bff565b905082815260208101848484011115610c8957610c88610b89565b5b610c94848285610c4b565b509392505050565b600082601f830112610cb157610cb0610b84565b5b8135610cc1848260208601610c5a565b91505092915050565b60008060008060008060c08789031215610ce757610ce6610ada565b5b6000610cf589828a01610b05565b9650506020610d0689828a01610b05565b9550506040610d1789828a01610b05565b9450506060610d2889828a01610b05565b935050608087013567ffffffffffffffff811115610d4957610d48610adf565b5b610d5589828a01610c9c565b92505060a087013567ffffffffffffffff811115610d7657610d75610adf565b5b610d8289828a01610c9c565b9150509295509295509295565b600060208284031215610da557610da4610ada565b5b6000610db384828501610b05565b91505092915050565b610dc581610ae4565b82525050565b600081519050919050565b600082825260208201905092915050565b60005b83811015610e05578082015181840152602081019050610dea565b60008484015250505050565b6000610e1c82610dcb565b610e268185610dd6565b9350610e36818560208601610de7565b610e3f81610b8e565b840191505092915050565b600060e083016000830151610e626000860182610dbc565b506020830151610e756020860182610dbc565b506040830151610e886040860182610dbc565b506060830151610e9b6060860182610dbc565b506080830151610eae6080860182610dbc565b5060a083015184820360a0860152610ec68282610e11565b91505060c083015184820360c0860152610ee08282610e11565b9150508091505092915050565b60006020820190508181036000830152610f078184610e4a565b905092915050565b600080600080600080600060e0888a031215610f2e57610f2d610ada565b5b6000610f3c8a828b01610b05565b9750506020610f4d8a828b01610b05565b9650506040610f5e8a828b01610b05565b9550506060610f6f8a828b01610b05565b9450506080610f808a828b01610b05565b93505060a088013567ffffffffffffffff811115610fa157610fa0610adf565b5b610fad8a828b01610c9c565b92505060c088013567ffffffffffffffff811115610fce57610fcd610adf565b5b610fda8a828b01610c9c565b91505092959891949750929550565b7f4e487b7100000000000000000000000000000000000000000000000000000000600052601160045260246000fd5b600061102382610ae4565b91507fffffffffffffffffffffffffffffffffffffffffffffffffffffffffffffffff820361105557611054610fe9565b5b600182019050919050565b7f4e487b7100000000000000000000000000000000000000000000000000000000600052602260045260246000fd5b600060028204905060018216806110a757607f821691505b6020821081036110ba576110b9611060565b5b50919050565b60008190508160005260206000209050919050565b60006020601f8301049050919050565b600082821b905092915050565b6000600883026111227fffffffffffffffffffffffffffffffffffffffffffffffffffffffffffffffff826110e5565b61112c86836110e5565b95508019841693508086168417925050509392505050565b6000819050919050565b600061116961116461115f84610ae4565b611144565b610ae4565b9050919050565b6000819050919050565b6111838361114e565b61119761118f82611170565b8484546110f2565b825550505050565b600090565b6111ac61119f565b6111b781848461117a565b505050565b5b818110156111db576111d06000826111a4565b6001810190506111bd565b5050565b601f821115611220576111f1816110c0565b6111fa846110d5565b81016020851015611209578190505b61121d611215856110d5565b8301826111bc565b50505b505050565b600082821c905092915050565b600061124360001984600802611225565b1980831691505092915050565b600061125c8383611232565b9150826002028217905092915050565b61127582610dcb565b67ffffffffffffffff81111561128e5761128d610b9f565b5b611298825461108f565b6112a38282856111df565b600060209050601f8311600181146112d657600084156112c4578287015190505b6112ce8582611250565b865550611336565b601f1984166112e4866110c0565b60005b8281101561130c578489015182556001820191506020850194506020810190506112e7565b868310156113295784890151611325601f891682611232565b8355505b6001600288020188555050505b505050505050565b600061134982610ae4565b915061135483610ae4565b925082820390508181111561136c5761136b610fe9565b5b92915050565b600061137d82610ae4565b915061138883610ae4565b92508282019050808211156113a05761139f610fe9565b5b92915050565b600082825260208201905092915050565b7f6e6f7420656e6f75676820687000000000000000000000000000000000000000600082015250565b60006113ed600d836113a6565b91506113f8826113b7565b602082019050919050565b6000602082019050818103600083015261141c816113e0565b9050919050565b7f4e487b7100000000000000000000000000000000000000000000000000000000600052601260045260246000fd5b600061145d82610ae4565b915061146883610ae4565b92508261147857611477611423565b5b828204905092915050565b7f6e6f74207374726f6e6720656e6f756768000000000000000000000000000000600082015250565b60006114b96011836113a6565b91506114c482611483565b602082019050919050565b600060208201905081810360008301526114e8816114ac565b905091905056fea264697066735822122021e12ab6013a9a2963828daac13dcb546ae053bb1e457c0500c3d0a6788c54e764736f6c63430008120033",
  "linkReferences": {},
  "deployedLinkReferences": {}
}