{
  "_format": "hh-sol-artifact-1",
  "contractName": "MonsterFacet",
  "sourceName": "contracts/facets/MonsterFacet.sol",
  "abi": [
    {
      "anonymous": false,
      "inputs": [
        {
          "indexed": true,
          "internalType": "uint256",
          "name": "_playerId",
          "type": "uint256"
        }
      ],
      "name": "DragonQuest",
      "type": "event"
    },
    {
      "inputs": [
        {
          "internalType": "uint256",
          "name": "_playerId",
          "type": "uint256"
        }
      ],
      "name": "dragonQuest",
      "outputs": [
        {
          "internalType": "bool",
          "name": "result",
          "type": "bool"
        }
      ],
      "stateMutability": "nonpayable",
      "type": "function"
    }
  ],
  "bytecode": "0x608060405234801561001057600080fd5b50610c77806100206000396000f3fe608060405234801561001057600080fd5b506004361061002b5760003560e01c80630207f11f14610030575b600080fd5b61004a600480360381019061004591906105c9565b610060565b6040516100579190610611565b60405180910390f35b600061006b826100a6565b905080156100a157817f897b5c7abcb9d1af199c95f7485f50c3e0dbed9b05f3068b69fd66613c34c38660405160405180910390a25b919050565b6000806100b161044a565b905060006100bd610477565b905060006100c96104a4565b905060006100d56104d1565b9050600084600301600088815260200190815260200160002060020154146100fc57600080fd5b3373ffffffffffffffffffffffffffffffffffffffff1684600201600088815260200190815260200160002060009054906101000a900473ffffffffffffffffffffffffffffffffffffffff1673ffffffffffffffffffffffffffffffffffffffff161461016957600080fd5b61a8c08360020160008881526020019081526020016000205461018c919061065b565b42101561019857600080fd5b6040516020016101a7906106e6565b604051602081830303815290604052805190602001208260020160008660030160008a815260200190815260200160002060120160000154815260200190815260200160002060070160405160200161020091906107f3565b6040516020818303038152906040528051906020012014610256576040517f08c379a000000000000000000000000000000000000000000000000000000000815260040161024d90610867565b60405180910390fd5b42836002016000888152602001908152602001600020819055506013601461027d886104fe565b61028791906108b6565b1061043c578060000160008154809291906102a1906108e7565b9190505550604051806080016040528082600001548152602001600281526020018260030160008981526020019081526020016000208054905081526020016040518060400160405280600681526020017f447363616c6500000000000000000000000000000000000000000000000000008152508152508160020160008360000154815260200190815260200160002060008201518160000155602082015181600101556040820151816002015560608201518160030190816103659190610b00565b5090505080600301600087815260200190815260200160002081600001549080600181540180825580915050600190039060005260206000200160009091909190915055338160010160008360000154815260200190815260200160002060006101000a81548173ffffffffffffffffffffffffffffffffffffffff021916908373ffffffffffffffffffffffffffffffffffffffff160217905550836003016000878152602001908152602001600020600101600081548092919061042a906108e7565b91905055506001945050505050610445565b60009450505050505b919050565b6000807f3cab9a070a0c61cd0ae9d9e9e2c0781e5ca8691bec4087e5a4701d5ac018dd4e90508091505090565b6000807f32545638e04f9bb0e18c6b7b873428ebfe8afc357b1d991bfe15d0950d92384590508091505090565b6000807faad0511195ddfb575f5187a7172ca6fc330f129a86291f15eaa5f7537ab038dc90508091505090565b6000807fb5dbbc334907f600e1151190a68c4043043163a23a907389a2c6f6231ed4318b90508091505090565b600080610509610561565b9050806000016000815480929190610520906108e7565b919050555042448483600001546040516020016105409493929190610bf3565b6040516020818303038152906040528051906020012060001c915050919050565b6000807ff76a8e66124dac83b46aecd7c4256d5158e69f6adf88592fd8146c79e007626e90508091505090565b600080fd5b6000819050919050565b6105a681610593565b81146105b157600080fd5b50565b6000813590506105c38161059d565b92915050565b6000602082840312156105df576105de61058e565b5b60006105ed848285016105b4565b91505092915050565b60008115159050919050565b61060b816105f6565b82525050565b60006020820190506106266000830184610602565b92915050565b7f4e487b7100000000000000000000000000000000000000000000000000000000600052601160045260246000fd5b600061066682610593565b915061067183610593565b92508282019050808211156106895761068861062c565b5b92915050565b600081905092915050565b7f57697a4861740000000000000000000000000000000000000000000000000000600082015250565b60006106d060068361068f565b91506106db8261069a565b600682019050919050565b60006106f1826106c3565b9150819050919050565b7f4e487b7100000000000000000000000000000000000000000000000000000000600052602260045260246000fd5b6000600282049050600182168061074257607f821691505b602082108103610755576107546106fb565b5b50919050565b60008190508160005260206000209050919050565b6000815461077d8161072a565b610787818661068f565b945060018216600081146107a257600181146107b7576107ea565b60ff19831686528115158202860193506107ea565b6107c08561075b565b60005b838110156107e2578154818901526001820191506020810190506107c3565b838801955050505b50505092915050565b60006107ff8284610770565b915081905092915050565b600082825260208201905092915050565b7f6e6f742077656172696e67206861740000000000000000000000000000000000600082015250565b6000610851600f8361080a565b915061085c8261081b565b602082019050919050565b6000602082019050818103600083015261088081610844565b9050919050565b7f4e487b7100000000000000000000000000000000000000000000000000000000600052601260045260246000fd5b60006108c182610593565b91506108cc83610593565b9250826108dc576108db610887565b5b828206905092915050565b60006108f282610593565b91507fffffffffffffffffffffffffffffffffffffffffffffffffffffffffffffffff82036109245761092361062c565b5b600182019050919050565b600081519050919050565b7f4e487b7100000000000000000000000000000000000000000000000000000000600052604160045260246000fd5b60006020601f8301049050919050565b600082821b905092915050565b6000600883026109b67fffffffffffffffffffffffffffffffffffffffffffffffffffffffffffffffff82610979565b6109c08683610979565b95508019841693508086168417925050509392505050565b6000819050919050565b60006109fd6109f86109f384610593565b6109d8565b610593565b9050919050565b6000819050919050565b610a17836109e2565b610a2b610a2382610a04565b848454610986565b825550505050565b600090565b610a40610a33565b610a4b818484610a0e565b505050565b5b81811015610a6f57610a64600082610a38565b600181019050610a51565b5050565b601f821115610ab457610a858161075b565b610a8e84610969565b81016020851015610a9d578190505b610ab1610aa985610969565b830182610a50565b50505b505050565b600082821c905092915050565b6000610ad760001984600802610ab9565b1980831691505092915050565b6000610af08383610ac6565b9150826002028217905092915050565b610b098261092f565b67ffffffffffffffff811115610b2257610b2161093a565b5b610b2c825461072a565b610b37828285610a73565b600060209050601f831160018114610b6a5760008415610b58578287015190505b610b628582610ae4565b865550610bca565b601f198416610b788661075b565b60005b82811015610ba057848901518255600182019150602085019450602081019050610b7b565b86831015610bbd5784890151610bb9601f891682610ac6565b8355505b6001600288020188555050505b505050505050565b6000819050919050565b610bed610be882610593565b610bd2565b82525050565b6000610bff8287610bdc565b602082019150610c0f8286610bdc565b602082019150610c1f8285610bdc565b602082019150610c2f8284610bdc565b6020820191508190509594505050505056fea264697066735822122066fa40c373566815dd86e3e5f1592d413673777cb1e8a7a1a7a8b71f1c93fef064736f6c63430008110033",
  "linkReferences": {},
  "deployedLinkReferences": {}
}