{
  "_format": "hh-sol-artifact-1",
  "contractName": "MonsterFacet",
  "sourceName": "contracts/facets/MonsterFacet.sol",
  "abi": [
    {
      "anonymous": false,
      "inputs": [
        {
          "indexed": true,
          "internalType": "uint256",
          "name": "_monsterId",
          "type": "uint256"
        }
      ],
      "name": "CreateBasicMonster",
      "type": "event"
    },
    {
      "anonymous": false,
      "inputs": [
        {
          "indexed": true,
          "internalType": "uint256",
          "name": "_monsterId",
          "type": "uint256"
        }
      ],
      "name": "CreateMagicMonster",
      "type": "event"
    },
    {
      "anonymous": false,
      "inputs": [
        {
          "indexed": true,
          "internalType": "uint256",
          "name": "_playerId",
          "type": "uint256"
        }
      ],
      "name": "DragonQuest",
      "type": "event"
    },
    {
      "anonymous": false,
      "inputs": [
        {
          "indexed": true,
          "internalType": "uint256",
          "name": "_monsterId",
          "type": "uint256"
        }
      ],
      "name": "EditBasicMonster",
      "type": "event"
    },
    {
      "anonymous": false,
      "inputs": [
        {
          "indexed": true,
          "internalType": "uint256",
          "name": "_monsterId",
          "type": "uint256"
        },
        {
          "indexed": false,
          "internalType": "uint256",
          "name": "_playerId",
          "type": "uint256"
        }
      ],
      "name": "FightBasicMonster",
      "type": "event"
    },
    {
      "anonymous": false,
      "inputs": [
        {
          "indexed": true,
          "internalType": "uint256",
          "name": "_monsterId",
          "type": "uint256"
        },
        {
          "indexed": false,
          "internalType": "uint256",
          "name": "_playerId",
          "type": "uint256"
        }
      ],
      "name": "FightMagicMonster",
      "type": "event"
    },
    {
      "inputs": [
        {
          "internalType": "uint256",
          "name": "_xpReward",
          "type": "uint256"
        },
        {
          "internalType": "uint256",
          "name": "_damage",
          "type": "uint256"
        },
        {
          "internalType": "uint256",
          "name": "_hp",
          "type": "uint256"
        },
        {
          "internalType": "uint256",
          "name": "_cooldown",
          "type": "uint256"
        },
        {
          "internalType": "string",
          "name": "_name",
          "type": "string"
        },
        {
          "internalType": "string",
          "name": "_uri",
          "type": "string"
        }
      ],
      "name": "createBasicMonster",
      "outputs": [],
      "stateMutability": "nonpayable",
      "type": "function"
    },
    {
      "inputs": [
        {
          "internalType": "uint256",
          "name": "_xpReward",
          "type": "uint256"
        },
        {
          "internalType": "uint256",
          "name": "_damage",
          "type": "uint256"
        },
        {
          "internalType": "uint256",
          "name": "_hp",
          "type": "uint256"
        },
        {
          "internalType": "uint256",
          "name": "_cooldown",
          "type": "uint256"
        },
        {
          "internalType": "uint256",
          "name": "_cost",
          "type": "uint256"
        },
        {
          "internalType": "string",
          "name": "_name",
          "type": "string"
        },
        {
          "internalType": "string",
          "name": "_uri",
          "type": "string"
        }
      ],
      "name": "createMagicMonster",
      "outputs": [],
      "stateMutability": "nonpayable",
      "type": "function"
    },
    {
      "inputs": [
        {
          "internalType": "uint256",
          "name": "_basicMonsterId",
          "type": "uint256"
        },
        {
          "internalType": "uint256",
          "name": "_xpReward",
          "type": "uint256"
        },
        {
          "internalType": "uint256",
          "name": "_damage",
          "type": "uint256"
        },
        {
          "internalType": "uint256",
          "name": "_hp",
          "type": "uint256"
        },
        {
          "internalType": "uint256",
          "name": "_cooldown",
          "type": "uint256"
        },
        {
          "internalType": "string",
          "name": "_name",
          "type": "string"
        },
        {
          "internalType": "string",
          "name": "_uri",
          "type": "string"
        }
      ],
      "name": "editBasicMonster",
      "outputs": [],
      "stateMutability": "nonpayable",
      "type": "function"
    },
    {
      "inputs": [
        {
          "internalType": "uint256",
          "name": "_playerId",
          "type": "uint256"
        },
        {
          "internalType": "uint256",
          "name": "_monsterId",
          "type": "uint256"
        }
      ],
      "name": "fightBasicMonster",
      "outputs": [],
      "stateMutability": "nonpayable",
      "type": "function"
    },
    {
      "inputs": [
        {
          "internalType": "uint256",
          "name": "_playerId",
          "type": "uint256"
        },
        {
          "internalType": "uint256",
          "name": "_monsterId",
          "type": "uint256"
        }
      ],
      "name": "fightMagicMonster",
      "outputs": [],
      "stateMutability": "nonpayable",
      "type": "function"
    },
    {
      "inputs": [
        {
          "internalType": "uint256",
          "name": "_monsterId",
          "type": "uint256"
        }
      ],
      "name": "getBasicMonster",
      "outputs": [
        {
          "components": [
            {
              "internalType": "uint256",
              "name": "basicMonsterId",
              "type": "uint256"
            },
            {
              "internalType": "uint256",
              "name": "xpReward",
              "type": "uint256"
            },
            {
              "internalType": "uint256",
              "name": "damage",
              "type": "uint256"
            },
            {
              "internalType": "uint256",
              "name": "hp",
              "type": "uint256"
            },
            {
              "internalType": "uint256",
              "name": "cooldown",
              "type": "uint256"
            },
            {
              "internalType": "string",
              "name": "name",
              "type": "string"
            },
            {
              "internalType": "string",
              "name": "uri",
              "type": "string"
            }
          ],
          "internalType": "struct BasicMonster",
          "name": "",
          "type": "tuple"
        }
      ],
      "stateMutability": "view",
      "type": "function"
    },
    {
      "inputs": [
        {
          "internalType": "uint256",
          "name": "_playerId",
          "type": "uint256"
        },
        {
          "internalType": "uint256",
          "name": "_monsterId",
          "type": "uint256"
        }
      ],
      "name": "getBasicMonsterCooldown",
      "outputs": [
        {
          "internalType": "uint256",
          "name": "",
          "type": "uint256"
        }
      ],
      "stateMutability": "view",
      "type": "function"
    },
    {
      "inputs": [],
      "name": "getBasicMonsterCounter",
      "outputs": [
        {
          "internalType": "uint256",
          "name": "",
          "type": "uint256"
        }
      ],
      "stateMutability": "view",
      "type": "function"
    },
    {
      "inputs": [
        {
          "internalType": "uint256",
          "name": "_monsterId",
          "type": "uint256"
        }
      ],
      "name": "getMagicMonster",
      "outputs": [
        {
          "components": [
            {
              "internalType": "uint256",
              "name": "basicMonsterId",
              "type": "uint256"
            },
            {
              "internalType": "uint256",
              "name": "xpReward",
              "type": "uint256"
            },
            {
              "internalType": "uint256",
              "name": "damage",
              "type": "uint256"
            },
            {
              "internalType": "uint256",
              "name": "hp",
              "type": "uint256"
            },
            {
              "internalType": "uint256",
              "name": "cooldown",
              "type": "uint256"
            },
            {
              "internalType": "uint256",
              "name": "cost",
              "type": "uint256"
            },
            {
              "internalType": "string",
              "name": "name",
              "type": "string"
            },
            {
              "internalType": "string",
              "name": "uri",
              "type": "string"
            }
          ],
          "internalType": "struct MagicMonster",
          "name": "",
          "type": "tuple"
        }
      ],
      "stateMutability": "view",
      "type": "function"
    },
    {
      "inputs": [
        {
          "internalType": "uint256",
          "name": "_playerId",
          "type": "uint256"
        },
        {
          "internalType": "uint256",
          "name": "_monsterId",
          "type": "uint256"
        }
      ],
      "name": "getMagicMonsterCooldown",
      "outputs": [
        {
          "internalType": "uint256",
          "name": "",
          "type": "uint256"
        }
      ],
      "stateMutability": "view",
      "type": "function"
    },
    {
      "inputs": [],
      "name": "getMagicMonsterCounter",
      "outputs": [
        {
          "internalType": "uint256",
          "name": "",
          "type": "uint256"
        }
      ],
      "stateMutability": "view",
      "type": "function"
    }
  ],
  "bytecode": "0x608060405234801561001057600080fd5b50611fc0806100206000396000f3fe608060405234801561001057600080fd5b50600436106100a95760003560e01c80635f0b8b8a116100715780635f0b8b8a1461016457806372eba48f14610194578063874e59a8146101b0578063dbab7a75146101e0578063ed068a12146101fe578063fc2875d41461021a576100a9565b806315e840d7146100ae5780632642c3f2146100de57806346a61f0b146100fc5780634996d9481461012c5780634b3564c814610148575b600080fd5b6100c860048036038101906100c391906114dc565b610236565b6040516100d5919061152b565b60405180910390f35b6100e661024a565b6040516100f3919061152b565b60405180910390f35b610116600480360381019061011191906114dc565b610259565b604051610123919061152b565b60405180910390f35b6101466004803603810190610141919061168c565b61026d565b005b610162600480360381019061015d9190611766565b61030b565b005b61017e6004803603810190610179919061182b565b6103a7565b60405161018b919061199d565b60405180910390f35b6101ae60048036038101906101a991906114dc565b6103bf565b005b6101ca60048036038101906101c5919061182b565b610405565b6040516101d79190611a62565b60405180910390f35b6101e861041d565b6040516101f5919061152b565b60405180910390f35b6102186004803603810190610213919061168c565b61042c565b005b610234600480360381019061022f91906114dc565b6104c3565b005b60006102428383610509565b905092915050565b6000610254610546565b905090565b6000610265838361055e565b905092915050565b600073434d36f32abed3f7937fe0be88dc1b0eb938124490508073ffffffffffffffffffffffffffffffffffffffff163373ffffffffffffffffffffffffffffffffffffffff16146102be57600080fd5b6102cd8888888888888861059b565b6102d5610546565b7f856d040967b09806c1357161c96c37bd00e1ddf47865abb6b6bc96b15edc1e3960405160405180910390a25050505050505050565b600073434d36f32abed3f7937fe0be88dc1b0eb938124490508073ffffffffffffffffffffffffffffffffffffffff163373ffffffffffffffffffffffffffffffffffffffff161461035c57600080fd5b61036a87878787878761068d565b61037261076d565b7f856d040967b09806c1357161c96c37bd00e1ddf47865abb6b6bc96b15edc1e3960405160405180910390a250505050505050565b6103af611410565b6103b882610785565b9050919050565b6103c98282610922565b807f965610a8ff8ff82f321c7b88c47381f3bd47756fba31ffa181b65fa2c6acb1c1836040516103f9919061152b565b60405180910390a25050565b61040d611455565b61041682610d49565b9050919050565b600061042761076d565b905090565b600073434d36f32abed3f7937fe0be88dc1b0eb938124490508073ffffffffffffffffffffffffffffffffffffffff163373ffffffffffffffffffffffffffffffffffffffff161461047d57600080fd5b61048c88888888888888610edb565b877fa5d4155cd62c6eda8f9aa81200beec89353e740751684cc81e1aa1a7e65ede6d60405160405180910390a25050505050505050565b6104cd8282610fb1565b807fac9c0073f52a3b08821048912ffb937aaac393618f0474f2ef7960ed035c3d30836040516104fd919061152b565b60405180910390a25050565b6000806105146113b6565b905080600301600084815260200190815260200160002060008581526020019081526020016000205491505092915050565b6000806105516113b6565b9050806001015491505090565b6000806105696113b6565b905080600501600084815260200190815260200160002060008581526020019081526020016000205491505092915050565b60006105a56113b6565b90508060010160008154809291906105bc90611ab3565b9190505550604051806101000160405280826000015481526020018981526020018881526020018781526020018681526020018581526020018481526020018381525081600601600083600101548152602001908152602001600020600082015181600001556020820151816001015560408201518160020155606082015181600301556080820151816004015560a0820151816005015560c08201518160060190816106699190611d07565b5060e082015181600701908161067f9190611d07565b509050505050505050505050565b60006106976113b6565b90508060000160008154809291906106ae90611ab3565b91905055506040518060e00160405280826000015481526020018881526020018781526020018681526020018581526020018481526020018381525081600401600083600001548152602001908152602001600020600082015181600001556020820151816001015560408201518160020155606082015181600301556080820151816004015560a082015181600501908161074a9190611d07565b5060c08201518160060190816107609190611d07565b5090505050505050505050565b6000806107786113b6565b9050806000015491505090565b61078d611410565b60006107976113b6565b90508060060160008481526020019081526020016000206040518061010001604052908160008201548152602001600182015481526020016002820154815260200160038201548152602001600482015481526020016005820154815260200160068201805461080690611b2a565b80601f016020809104026020016040519081016040528092919081815260200182805461083290611b2a565b801561087f5780601f106108545761010080835404028352916020019161087f565b820191906000526020600020905b81548152906001019060200180831161086257829003601f168201915b5050505050815260200160078201805461089890611b2a565b80601f01602080910402602001604051908101604052809291908181526020018280546108c490611b2a565b80156109115780601f106108e657610100808354040283529160200191610911565b820191906000526020600020905b8154815290600101906020018083116108f457829003601f168201915b505050505081525050915050919050565b600061092c6113b6565b905060006109386113e3565b90506000816003016000868152602001908152602001600020600201541461095f57600080fd5b3373ffffffffffffffffffffffffffffffffffffffff1681600201600086815260200190815260200160002060009054906101000a900473ffffffffffffffffffffffffffffffffffffffff1673ffffffffffffffffffffffffffffffffffffffff16146109cc57600080fd5b81600601600084815260200190815260200160002060050154816003016000868152602001908152602001600020600701541015610a0957600080fd5b600082600401600085815260200190815260200160002060020154826003016000878152602001908152602001600020600e01541015610a8757816003016000868152602001908152602001600020600e015483600401600086815260200190815260200160002060020154610a7f9190611dd9565b905080610a8d565b60019050805b50808260030160008781526020019081526020016000206005015411610ae8576040517f08c379a0000000000000000000000000000000000000000000000000000000008152600401610adf90611e6a565b60405180910390fd5b6000600284600401600087815260200190815260200160002060040154610b0f9190611eb9565b836003016000888152602001908152602001600020600901541015610b7e57600a8360030160008881526020019081526020016000206009015485600401600088815260200190815260200160002060040154610b6c9190611dd9565b610b769190611eea565b905080610ba7565b600284600401600087815260200190815260200160002060040154610ba39190611eb9565b9050805b5080846003016000878152602001908152602001600020600088815260200190815260200160002054610bda9190611eea565b421015610be657600080fd5b83600401600086815260200190815260200160002060030154836003016000888152602001908152602001600020600601541015610c59576040517f08c379a0000000000000000000000000000000000000000000000000000000008152600401610c5090611f6a565b60405180910390fd5b836004016000868152602001908152602001600020600101548360030160008881526020019081526020016000206001016000828254610c999190611eea565b92505081905550818360030160008881526020019081526020016000206005016000828254610cc89190611dd9565b92505081905550836006016000868152602001908152602001600020600501548360030160008881526020019081526020016000206007016000828254610d0f9190611dd9565b9250508190555042846003016000878152602001908152602001600020600088815260200190815260200160002081905550505050505050565b610d51611455565b6000610d5b6113b6565b90508060040160008481526020019081526020016000206040518060e00160405290816000820154815260200160018201548152602001600282015481526020016003820154815260200160048201548152602001600582018054610dbf90611b2a565b80601f0160208091040260200160405190810160405280929190818152602001828054610deb90611b2a565b8015610e385780601f10610e0d57610100808354040283529160200191610e38565b820191906000526020600020905b815481529060010190602001808311610e1b57829003601f168201915b50505050508152602001600682018054610e5190611b2a565b80601f0160208091040260200160405190810160405280929190818152602001828054610e7d90611b2a565b8015610eca5780601f10610e9f57610100808354040283529160200191610eca565b820191906000526020600020905b815481529060010190602001808311610ead57829003601f168201915b505050505081525050915050919050565b6000610ee56113b6565b9050868160040160008a815260200190815260200160002060010181905550858160040160008a815260200190815260200160002060020181905550848160040160008a815260200190815260200160002060030181905550838160040160008a815260200190815260200160002060040181905550828160040160008a81526020019081526020016000206005019081610f809190611d07565b50818160040160008a81526020019081526020016000206006019081610fa69190611d07565b505050505050505050565b6000610fbb6113b6565b90506000610fc76113e3565b905060008160030160008681526020019081526020016000206002015414610fee57600080fd5b3373ffffffffffffffffffffffffffffffffffffffff1681600201600086815260200190815260200160002060009054906101000a900473ffffffffffffffffffffffffffffffffffffffff1673ffffffffffffffffffffffffffffffffffffffff161461105b57600080fd5b6000816003016000868152602001908152602001600020600601548260030160008781526020019081526020016000206003015410156110b657816003016000868152602001908152602001600020600601549050806110d3565b816003016000868152602001908152602001600020600301549050805b50600083600401600086815260200190815260200160002060020154836003016000888152602001908152602001600020600e0154101561115257826003016000878152602001908152602001600020600e01548460040160008781526020019081526020016000206002015461114a9190611dd9565b905080611158565b60019050805b508083600301600088815260200190815260200160002060050154116111b3576040517f08c379a00000000000000000000000000000000000000000000000000000000081526004016111aa90611e6a565b60405180910390fd5b60006002856004016000888152602001908152602001600020600401546111da9190611eb9565b84600301600089815260200190815260200160002060090154101561124957600a84600301600089815260200190815260200160002060090154866004016000898152602001908152602001600020600401546112379190611dd9565b6112419190611eea565b905080611272565b60028560040160008881526020019081526020016000206004015461126e9190611eb9565b9050805b50808560030160008881526020019081526020016000206000898152602001908152602001600020546112a59190611eea565b4210156112b157600080fd5b8460040160008781526020019081526020016000206003015483101561130c576040517f08c379a000000000000000000000000000000000000000000000000000000000815260040161130390611f6a565b60405180910390fd5b84600401600087815260200190815260200160002060010154846003016000898152602001908152602001600020600101600082825461134c9190611eea565b9250508190555081846003016000898152602001908152602001600020600501600082825461137b9190611dd9565b925050819055504285600301600088815260200190815260200160002060008981526020019081526020016000208190555050505050505050565b6000807f32545638e04f9bb0e18c6b7b873428ebfe8afc357b1d991bfe15d0950d92384590508091505090565b6000807f3cab9a070a0c61cd0ae9d9e9e2c0781e5ca8691bec4087e5a4701d5ac018dd4e90508091505090565b60405180610100016040528060008152602001600081526020016000815260200160008152602001600081526020016000815260200160608152602001606081525090565b6040518060e00160405280600081526020016000815260200160008152602001600081526020016000815260200160608152602001606081525090565b6000604051905090565b600080fd5b600080fd5b6000819050919050565b6114b9816114a6565b81146114c457600080fd5b50565b6000813590506114d6816114b0565b92915050565b600080604083850312156114f3576114f261149c565b5b6000611501858286016114c7565b9250506020611512858286016114c7565b9150509250929050565b611525816114a6565b82525050565b6000602082019050611540600083018461151c565b92915050565b600080fd5b600080fd5b6000601f19601f8301169050919050565b7f4e487b7100000000000000000000000000000000000000000000000000000000600052604160045260246000fd5b61159982611550565b810181811067ffffffffffffffff821117156115b8576115b7611561565b5b80604052505050565b60006115cb611492565b90506115d78282611590565b919050565b600067ffffffffffffffff8211156115f7576115f6611561565b5b61160082611550565b9050602081019050919050565b82818337600083830152505050565b600061162f61162a846115dc565b6115c1565b90508281526020810184848401111561164b5761164a61154b565b5b61165684828561160d565b509392505050565b600082601f83011261167357611672611546565b5b813561168384826020860161161c565b91505092915050565b600080600080600080600060e0888a0312156116ab576116aa61149c565b5b60006116b98a828b016114c7565b97505060206116ca8a828b016114c7565b96505060406116db8a828b016114c7565b95505060606116ec8a828b016114c7565b94505060806116fd8a828b016114c7565b93505060a088013567ffffffffffffffff81111561171e5761171d6114a1565b5b61172a8a828b0161165e565b92505060c088013567ffffffffffffffff81111561174b5761174a6114a1565b5b6117578a828b0161165e565b91505092959891949750929550565b60008060008060008060c087890312156117835761178261149c565b5b600061179189828a016114c7565b96505060206117a289828a016114c7565b95505060406117b389828a016114c7565b94505060606117c489828a016114c7565b935050608087013567ffffffffffffffff8111156117e5576117e46114a1565b5b6117f189828a0161165e565b92505060a087013567ffffffffffffffff811115611812576118116114a1565b5b61181e89828a0161165e565b9150509295509295509295565b6000602082840312156118415761184061149c565b5b600061184f848285016114c7565b91505092915050565b611861816114a6565b82525050565b600081519050919050565b600082825260208201905092915050565b60005b838110156118a1578082015181840152602081019050611886565b60008484015250505050565b60006118b882611867565b6118c28185611872565b93506118d2818560208601611883565b6118db81611550565b840191505092915050565b6000610100830160008301516118ff6000860182611858565b5060208301516119126020860182611858565b5060408301516119256040860182611858565b5060608301516119386060860182611858565b50608083015161194b6080860182611858565b5060a083015161195e60a0860182611858565b5060c083015184820360c086015261197682826118ad565b91505060e083015184820360e086015261199082826118ad565b9150508091505092915050565b600060208201905081810360008301526119b781846118e6565b905092915050565b600060e0830160008301516119d76000860182611858565b5060208301516119ea6020860182611858565b5060408301516119fd6040860182611858565b506060830151611a106060860182611858565b506080830151611a236080860182611858565b5060a083015184820360a0860152611a3b82826118ad565b91505060c083015184820360c0860152611a5582826118ad565b9150508091505092915050565b60006020820190508181036000830152611a7c81846119bf565b905092915050565b7f4e487b7100000000000000000000000000000000000000000000000000000000600052601160045260246000fd5b6000611abe826114a6565b91507fffffffffffffffffffffffffffffffffffffffffffffffffffffffffffffffff8203611af057611aef611a84565b5b600182019050919050565b7f4e487b7100000000000000000000000000000000000000000000000000000000600052602260045260246000fd5b60006002820490506001821680611b4257607f821691505b602082108103611b5557611b54611afb565b5b50919050565b60008190508160005260206000209050919050565b60006020601f8301049050919050565b600082821b905092915050565b600060088302611bbd7fffffffffffffffffffffffffffffffffffffffffffffffffffffffffffffffff82611b80565b611bc78683611b80565b95508019841693508086168417925050509392505050565b6000819050919050565b6000611c04611bff611bfa846114a6565b611bdf565b6114a6565b9050919050565b6000819050919050565b611c1e83611be9565b611c32611c2a82611c0b565b848454611b8d565b825550505050565b600090565b611c47611c3a565b611c52818484611c15565b505050565b5b81811015611c7657611c6b600082611c3f565b600181019050611c58565b5050565b601f821115611cbb57611c8c81611b5b565b611c9584611b70565b81016020851015611ca4578190505b611cb8611cb085611b70565b830182611c57565b50505b505050565b600082821c905092915050565b6000611cde60001984600802611cc0565b1980831691505092915050565b6000611cf78383611ccd565b9150826002028217905092915050565b611d1082611867565b67ffffffffffffffff811115611d2957611d28611561565b5b611d338254611b2a565b611d3e828285611c7a565b600060209050601f831160018114611d715760008415611d5f578287015190505b611d698582611ceb565b865550611dd1565b601f198416611d7f86611b5b565b60005b82811015611da757848901518255600182019150602085019450602081019050611d82565b86831015611dc45784890151611dc0601f891682611ccd565b8355505b6001600288020188555050505b505050505050565b6000611de4826114a6565b9150611def836114a6565b9250828203905081811115611e0757611e06611a84565b5b92915050565b600082825260208201905092915050565b7f6e6f7420656e6f75676820687000000000000000000000000000000000000000600082015250565b6000611e54600d83611e0d565b9150611e5f82611e1e565b602082019050919050565b60006020820190508181036000830152611e8381611e47565b9050919050565b7f4e487b7100000000000000000000000000000000000000000000000000000000600052601260045260246000fd5b6000611ec4826114a6565b9150611ecf836114a6565b925082611edf57611ede611e8a565b5b828204905092915050565b6000611ef5826114a6565b9150611f00836114a6565b9250828201905080821115611f1857611f17611a84565b5b92915050565b7f6e6f74207374726f6e6720656e6f756768000000000000000000000000000000600082015250565b6000611f54601183611e0d565b9150611f5f82611f1e565b602082019050919050565b60006020820190508181036000830152611f8381611f47565b905091905056fea2646970667358221220d1f05dfd55a092ae3b621c7fc89cd532c30a31d688f6257d661c0fb3430d4da564736f6c63430008120033",
  "linkReferences": {},
  "deployedLinkReferences": {}
}