{
  "_format": "hh-sol-artifact-1",
  "contractName": "PlayerDropFacet",
  "sourceName": "contracts/facets/PlayerDropFacet.sol",
  "abi": [
    {
      "anonymous": false,
      "inputs": [
        {
          "indexed": true,
          "internalType": "uint256",
          "name": "_playerDropId",
          "type": "uint256"
        }
      ],
      "name": "ClaimPlayer",
      "type": "event"
    },
    {
      "anonymous": false,
      "inputs": [
        {
          "indexed": true,
          "internalType": "uint256",
          "name": "id",
          "type": "uint256"
        },
        {
          "indexed": true,
          "internalType": "address",
          "name": "owner",
          "type": "address"
        },
        {
          "indexed": false,
          "internalType": "string",
          "name": "name",
          "type": "string"
        },
        {
          "indexed": false,
          "internalType": "uint256",
          "name": "_class",
          "type": "uint256"
        }
      ],
      "name": "Mint",
      "type": "event"
    },
    {
      "anonymous": false,
      "inputs": [
        {
          "indexed": true,
          "internalType": "address",
          "name": "owner",
          "type": "address"
        },
        {
          "indexed": true,
          "internalType": "uint256",
          "name": "id",
          "type": "uint256"
        },
        {
          "indexed": true,
          "internalType": "string",
          "name": "newName",
          "type": "string"
        }
      ],
      "name": "NameChange",
      "type": "event"
    },
    {
      "inputs": [
        {
          "internalType": "uint256",
          "name": "_id",
          "type": "uint256"
        },
        {
          "internalType": "string",
          "name": "_newName",
          "type": "string"
        }
      ],
      "name": "changeNameFee",
      "outputs": [],
      "stateMutability": "payable",
      "type": "function"
    },
    {
      "inputs": [
        {
          "internalType": "uint256",
          "name": "_playerDropId",
          "type": "uint256"
        },
        {
          "internalType": "bytes32[]",
          "name": "_proof",
          "type": "bytes32[]"
        },
        {
          "internalType": "string",
          "name": "_name",
          "type": "string"
        },
        {
          "internalType": "bool",
          "name": "_isMale",
          "type": "bool"
        },
        {
          "internalType": "uint256",
          "name": "_class",
          "type": "uint256"
        }
      ],
      "name": "claimPlayerDrop",
      "outputs": [],
      "stateMutability": "payable",
      "type": "function"
    },
    {
      "inputs": [
        {
          "internalType": "uint256",
          "name": "_playerDropId",
          "type": "uint256"
        },
        {
          "internalType": "bytes32[]",
          "name": "_proof",
          "type": "bytes32[]"
        },
        {
          "internalType": "string",
          "name": "_name",
          "type": "string"
        },
        {
          "internalType": "bool",
          "name": "_isMale",
          "type": "bool"
        }
      ],
      "name": "claimPlayerDropPaladin",
      "outputs": [],
      "stateMutability": "nonpayable",
      "type": "function"
    },
    {
      "inputs": [
        {
          "internalType": "uint256",
          "name": "_playerDropId",
          "type": "uint256"
        },
        {
          "internalType": "address",
          "name": "_address",
          "type": "address"
        }
      ],
      "name": "claimedStatus",
      "outputs": [
        {
          "internalType": "bool",
          "name": "",
          "type": "bool"
        }
      ],
      "stateMutability": "view",
      "type": "function"
    },
    {
      "inputs": [
        {
          "internalType": "bytes32",
          "name": "_merkleRoot",
          "type": "bytes32"
        },
        {
          "internalType": "string",
          "name": "_name",
          "type": "string"
        },
        {
          "internalType": "uint256",
          "name": "_price",
          "type": "uint256"
        }
      ],
      "name": "createPlayerDrop",
      "outputs": [],
      "stateMutability": "nonpayable",
      "type": "function"
    },
    {
      "inputs": [
        {
          "internalType": "uint256",
          "name": "_playerDropId",
          "type": "uint256"
        }
      ],
      "name": "getPlayerDrop",
      "outputs": [
        {
          "components": [
            {
              "internalType": "uint256",
              "name": "id",
              "type": "uint256"
            },
            {
              "internalType": "uint256",
              "name": "price",
              "type": "uint256"
            },
            {
              "internalType": "bytes32",
              "name": "merkleRoot",
              "type": "bytes32"
            },
            {
              "internalType": "string",
              "name": "name",
              "type": "string"
            }
          ],
          "internalType": "struct PlayerDrop",
          "name": "",
          "type": "tuple"
        }
      ],
      "stateMutability": "view",
      "type": "function"
    },
    {
      "inputs": [
        {
          "internalType": "uint256",
          "name": "_playerDropId",
          "type": "uint256"
        }
      ],
      "name": "getPlayerDropMerkleRoot",
      "outputs": [
        {
          "internalType": "bytes32",
          "name": "",
          "type": "bytes32"
        }
      ],
      "stateMutability": "view",
      "type": "function"
    },
    {
      "inputs": [
        {
          "internalType": "bytes32[]",
          "name": "_proof",
          "type": "bytes32[]"
        },
        {
          "internalType": "uint256",
          "name": "_playerDropId",
          "type": "uint256"
        },
        {
          "internalType": "address",
          "name": "_address",
          "type": "address"
        }
      ],
      "name": "verifyPlayerDropWhitelist",
      "outputs": [
        {
          "internalType": "bool",
          "name": "",
          "type": "bool"
        }
      ],
      "stateMutability": "view",
      "type": "function"
    }
  ],
  "bytecode": "0x608060405234801561001057600080fd5b50612deb806100206000396000f3fe60806040526004361061007b5760003560e01c80639737f88a1161004e5780639737f88a1461013f578063b53675261461015b578063c79cd39f14610184578063e0a0a074146101c15761007b565b80630b5fe530146100805780631b660e47146100bd5780632dfc7abe146100e657806340d0bb7f14610123575b600080fd5b34801561008c57600080fd5b506100a760048036038101906100a29190611e22565b6101fe565b6040516100b49190611f6a565b60405180910390f35b3480156100c957600080fd5b506100e460048036038101906100df91906120ed565b610216565b005b3480156100f257600080fd5b5061010d600480360381019061010891906121ba565b610226565b60405161011a9190612215565b60405180910390f35b61013d60048036038101906101389190612230565b61023a565b005b61015960048036038101906101549190612318565b6102b0565b005b34801561016757600080fd5b50610182600480360381019061017d91906123ce565b61034c565b005b34801561019057600080fd5b506101ab60048036038101906101a69190612472565b610360565b6040516101b89190612215565b60405180910390f35b3480156101cd57600080fd5b506101e860048036038101906101e39190611e22565b610378565b6040516101f591906124f5565b60405180910390f35b610206611dad565b61020f8261038a565b9050919050565b610221838383610476565b505050565b60006102328383610517565b905092915050565b610244828261058d565b600a34101561025257600080fd5b80604051610260919061254c565b6040518091039020823373ffffffffffffffffffffffffffffffffffffffff167fe4ce50a62b6cbb7d19acd75fd57f7e2588dd09705647d97993e2ece872c305b260405160405180910390a45050565b6102b9866101fe565b602001513410156102c957600080fd5b60007308d8e680a2d295af8cbcd8b8e07f900275bc6b8d90508073ffffffffffffffffffffffffffffffffffffffff16610302886101fe565b602001515050610316878787878787610841565b867f9d3afc92396cc7c29a7a44c2e713f9efe3287517db4b2f9eea9f860204fd5baa60405160405180910390a250505050505050565b6103598585858585610a5a565b5050505050565b600061036e85858585610c71565b9050949350505050565b600061038382610d19565b9050919050565b610392611dad565b600061039c610d47565b90508060010160008481526020019081526020016000206040518060800160405290816000820154815260200160018201548152602001600282015481526020016003820180546103ec90612592565b80601f016020809104026020016040519081016040528092919081815260200182805461041890612592565b80156104655780601f1061043a57610100808354040283529160200191610465565b820191906000526020600020905b81548152906001019060200180831161044857829003601f168201915b505050505081525050915050919050565b6000610480610d47565b9050806000016000815480929190610497906125f2565b91905055506040518060800160405280826000015481526020018381526020018581526020018481525081600101600083600001548152602001908152602001600020600082015181600001556020820151816001015560408201518160020155606082015181600301908161050d91906127e6565b5090505050505050565b600080610522610d47565b905080600201600085815260200190815260200160002060008473ffffffffffffffffffffffffffffffffffffffff1673ffffffffffffffffffffffffffffffffffffffff16815260200190815260200160002060009054906101000a900460ff1691505092915050565b6000610597610d74565b90503373ffffffffffffffffffffffffffffffffffffffff1681600201600085815260200190815260200160002060009054906101000a900473ffffffffffffffffffffffffffffffffffffffff1673ffffffffffffffffffffffffffffffffffffffff161461060657600080fd5b8060060182604051610618919061254c565b908152602001604051809103902060009054906101000a900460ff1615610674576040517f08c379a000000000000000000000000000000000000000000000000000000000815260040161066b90612915565b60405180910390fd5b60038251116106b8576040517f08c379a00000000000000000000000000000000000000000000000000000000081526004016106af90612981565b60405180910390fd5b600a8251106106fc576040517f08c379a00000000000000000000000000000000000000000000000000000000081526004016106f3906129ed565b60405180910390fd5b6000816003016000858152602001908152602001600020600f01805461072190612592565b80601f016020809104026020016040519081016040528092919081815260200182805461074d90612592565b801561079a5780601f1061076f5761010080835404028352916020019161079a565b820191906000526020600020905b81548152906001019060200180831161077d57829003601f168201915b505050505090506000815111156107dc5781600601816040516107bd919061254c565b908152602001604051809103902060006101000a81549060ff02191690555b82826003016000868152602001908152602001600020600f01908161080191906127e6565b5060018260060184604051610816919061254c565b908152602001604051809103902060006101000a81548160ff02191690831515021790555050505050565b600061084b610d47565b905080600201600088815260200190815260200160002060003373ffffffffffffffffffffffffffffffffffffffff1673ffffffffffffffffffffffffffffffffffffffff16815260200190815260200160002060009054906101000a900460ff16156108ed576040517f08c379a00000000000000000000000000000000000000000000000000000000081526004016108e490612a7f565b60405180910390fd5b610977868680806020026020016040519081016040528093929190818152602001838360200280828437600081840152601f19601f820116905080830192505050505050508260010160008a8152602001908152602001600020600201543360405160200161095c9190612ae7565b60405160208183030381529060405280519060200120610da1565b6109b6576040517f08c379a00000000000000000000000000000000000000000000000000000000081526004016109ad90612b4e565b60405180910390fd5b806001016000888152602001908152602001600020600101543410156109db57600080fd5b600181600201600089815260200190815260200160002060003373ffffffffffffffffffffffffffffffffffffffff1673ffffffffffffffffffffffffffffffffffffffff16815260200190815260200160002060006101000a81548160ff021916908315150217905550610a51848484610db8565b50505050505050565b6000610a64610d47565b905080600201600087815260200190815260200160002060003373ffffffffffffffffffffffffffffffffffffffff1673ffffffffffffffffffffffffffffffffffffffff16815260200190815260200160002060009054906101000a900460ff1615610b06576040517f08c379a0000000000000000000000000000000000000000000000000000000008152600401610afd90612a7f565b60405180910390fd5b610b90858580806020026020016040519081016040528093929190818152602001838360200280828437600081840152601f19601f820116905080830192505050505050508260010160008981526020019081526020016000206002015433604051602001610b759190612ae7565b60405160208183030381529060405280519060200120610da1565b610bcf576040517f08c379a0000000000000000000000000000000000000000000000000000000008152600401610bc690612b4e565b60405180910390fd5b80600101600087815260200190815260200160002060010154341015610bf457600080fd5b600181600201600088815260200190815260200160002060003373ffffffffffffffffffffffffffffffffffffffff1673ffffffffffffffffffffffffffffffffffffffff16815260200190815260200160002060006101000a81548160ff021916908315150217905550610c6983836117f5565b505050505050565b600080610c7c610d47565b9050600083604051602001610c919190612ae7565b604051602081830303815290604052805190602001209050610d0d878780806020026020016040519081016040528093929190818152602001838360200280828437600081840152601f19601f820116905080830192505050505050508360010160008881526020019081526020016000206002015483610da1565b92505050949350505050565b600080610d24610d47565b905080600101600084815260200190815260200160002060020154915050919050565b6000807f19a7b6aa9ad98f2f267a375bb3e53168bb268f6ec190238c4ccf172054fde40a90508091505090565b6000807f3cab9a070a0c61cd0ae9d9e9e2c0781e5ca8691bec4087e5a4701d5ac018dd4e90508091505090565b600082610dae8584611d15565b1490509392505050565b6000610dc2610d74565b90508060060184604051610dd6919061254c565b908152602001604051809103902060009054906101000a900460ff1615610e32576040517f08c379a0000000000000000000000000000000000000000000000000000000008152600401610e2990612915565b60405180910390fd5b6002821115610e4057600080fd5b600a84511115610e4f57600080fd5b600384511015610e5e57600080fd5b806001016000815480929190610e73906125f2565b91905055506060600083036110fc5783610ea857604051806080016040528060438152602001612c2460439139905080610ec5565b604051806080016040528060438152602001612d73604391399050805b50604051806102800160405280600181526020016000815260200160008152602001600b8152602001600c8152602001600c8152602001600a8152602001600a8152602001600a8152602001600a815260200160018152602001600181526020016001815260200160018152602001600b815260200186815260200182815260200185151581526020016040518060e00160405280600081526020016000815260200160008152602001600081526020016000815260200160008152602001600081525081526020018481525082600301600084600101548152602001908152602001600020600082015181600001556020820151816001015560408201518160020155606082015181600301556080820151816004015560a0820151816005015560c0820151816006015560e082015181600701556101008201518160080155610120820151816009015561014082015181600a015561016082015181600b015561018082015181600c01556101a082015181600d01556101c082015181600e01556101e082015181600f01908161105e91906127e6565b5061020082015181601001908161107591906127e6565b506102208201518160110160006101000a81548160ff02191690831515021790555061024082015181601201600082015181600001556020820151816001015560408201518160020155606082015181600301556080820151816004015560a0820151816005015560c08201518160060155505061026082015181601901559050506115fe565b6001830361137e578361112a57604051806080016040528060438152602001612caa60439139905080611147565b604051806080016040528060438152602001612c67604391399050805b50604051806102800160405280600181526020016000815260200160008152602001600b8152602001600b8152602001600b8152602001600a8152602001600a8152602001600a8152602001600c815260200160018152602001600181526020016001815260200160018152602001600a815260200186815260200182815260200185151581526020016040518060e00160405280600081526020016000815260200160008152602001600081526020016000815260200160008152602001600081525081526020018481525082600301600084600101548152602001908152602001600020600082015181600001556020820151816001015560408201518160020155606082015181600301556080820151816004015560a0820151816005015560c0820151816006015560e082015181600701556101008201518160080155610120820151816009015561014082015181600a015561016082015181600b015561018082015181600c01556101a082015181600d01556101c082015181600e01556101e082015181600f0190816112e091906127e6565b506102008201518160100190816112f791906127e6565b506102208201518160110160006101000a81548160ff02191690831515021790555061024082015181601201600082015181600001556020820151816001015560408201518160020155606082015181600301556080820151816004015560a0820151816005015560c08201518160060155505061026082015181601901559050506115fd565b600283036115fc57836113ac57604051806080016040528060438152602001612be1604391399050806113c9565b604051806080016040528060438152602001612b9e604391399050805b50604051806102800160405280600181526020016000815260200160008152602001600a8152602001600a8152602001600a8152602001600c8152602001600c8152602001600c8152602001600a815260200160018152602001600181526020016001815260200160018152602001600a815260200186815260200182815260200185151581526020016040518060e00160405280600081526020016000815260200160008152602001600081526020016000815260200160008152602001600081525081526020018481525082600301600084600101548152602001908152602001600020600082015181600001556020820151816001015560408201518160020155606082015181600301556080820151816004015560a0820151816005015560c0820151816006015560e082015181600701556101008201518160080155610120820151816009015561014082015181600a015561016082015181600b015561018082015181600c01556101a082015181600d01556101c082015181600e01556101e082015181600f01908161156291906127e6565b5061020082015181601001908161157991906127e6565b506102208201518160110160006101000a81548160ff02191690831515021790555061024082015181601201600082015181600001556020820151816001015560408201518160020155606082015181600301556080820151816004015560a0820151816005015560c08201518160060155505061026082015181601901559050505b5b5b6040518060e00160405280600081526020016000815260200160008152602001600081526020016000815260200160008152602001600081525082600801600084600101548152602001908152602001600020600082015181600001556020820151816001015560408201518160020155606082015181600301556080820151816004015560a0820151816005015560c08201518160060155905050600182600601866040516116ae919061254c565b908152602001604051809103902060006101000a81548160ff021916908315150217905550338260020160008460010154815260200190815260200160002060006101000a81548173ffffffffffffffffffffffffffffffffffffffff021916908373ffffffffffffffffffffffffffffffffffffffff1602179055508160070160003373ffffffffffffffffffffffffffffffffffffffff1673ffffffffffffffffffffffffffffffffffffffff168152602001908152602001600020826001015490806001815401808255809150506001900390600052602060002001600090919091909150558160040160003373ffffffffffffffffffffffffffffffffffffffff1673ffffffffffffffffffffffffffffffffffffffff16815260200190815260200160002060008154809291906117e9906125f2565b91905055505050505050565b60006117ff610d74565b90508060060183604051611813919061254c565b908152602001604051809103902060009054906101000a900460ff161561186f576040517f08c379a000000000000000000000000000000000000000000000000000000000815260040161186690612915565b60405180910390fd5b600a8351111561187e57600080fd5b60038351101561188d57600080fd5b8060010160008154809291906118a2906125f2565b91905055506060826118cf57604051806080016040528060438152602001612ced604391399050806118ec565b604051806080016040528060438152602001612d30604391399050805b50604051806102800160405280600181526020016000815260200160008152602001600d8152602001600d8152602001600d8152602001600d8152602001600d8152602001600d8152602001600d815260200160018152602001600181526020016001815260200160018152602001600d815260200185815260200182815260200184151581526020016040518060e0016040528060008152602001600081526020016000815260200160008152602001600081526020016000815260200160008152508152602001600381525082600301600084600101548152602001908152602001600020600082015181600001556020820151816001015560408201518160020155606082015181600301556080820151816004015560a0820151816005015560c0820151816006015560e082015181600701556101008201518160080155610120820151816009015561014082015181600a015561016082015181600b015561018082015181600c01556101a082015181600d01556101c082015181600e01556101e082015181600f019081611a8691906127e6565b50610200820151816010019081611a9d91906127e6565b506102208201518160110160006101000a81548160ff02191690831515021790555061024082015181601201600082015181600001556020820151816001015560408201518160020155606082015181600301556080820151816004015560a0820151816005015560c08201518160060155505061026082015181601901559050506040518060e00160405280600081526020016000815260200160008152602001600081526020016000815260200160008152602001600081525082600801600084600101548152602001908152602001600020600082015181600001556020820151816001015560408201518160020155606082015181600301556080820151816004015560a0820151816005015560c0820151816006015590505060018260060185604051611bcf919061254c565b908152602001604051809103902060006101000a81548160ff021916908315150217905550338260020160008460010154815260200190815260200160002060006101000a81548173ffffffffffffffffffffffffffffffffffffffff021916908373ffffffffffffffffffffffffffffffffffffffff1602179055508160070160003373ffffffffffffffffffffffffffffffffffffffff1673ffffffffffffffffffffffffffffffffffffffff168152602001908152602001600020826001015490806001815401808255809150506001900390600052602060002001600090919091909150558160040160003373ffffffffffffffffffffffffffffffffffffffff1673ffffffffffffffffffffffffffffffffffffffff1681526020019081526020016000206000815480929190611d0a906125f2565b919050555050505050565b60008082905060005b8451811015611d6057611d4b82868381518110611d3e57611d3d612b6e565b5b6020026020010151611d6b565b91508080611d58906125f2565b915050611d1e565b508091505092915050565b6000818310611d8357611d7e8284611d96565b611d8e565b611d8d8383611d96565b5b905092915050565b600082600052816020526040600020905092915050565b6040518060800160405280600081526020016000815260200160008019168152602001606081525090565b6000604051905090565b600080fd5b600080fd5b6000819050919050565b611dff81611dec565b8114611e0a57600080fd5b50565b600081359050611e1c81611df6565b92915050565b600060208284031215611e3857611e37611de2565b5b6000611e4684828501611e0d565b91505092915050565b611e5881611dec565b82525050565b6000819050919050565b611e7181611e5e565b82525050565b600081519050919050565b600082825260208201905092915050565b60005b83811015611eb1578082015181840152602081019050611e96565b60008484015250505050565b6000601f19601f8301169050919050565b6000611ed982611e77565b611ee38185611e82565b9350611ef3818560208601611e93565b611efc81611ebd565b840191505092915050565b6000608083016000830151611f1f6000860182611e4f565b506020830151611f326020860182611e4f565b506040830151611f456040860182611e68565b5060608301518482036060860152611f5d8282611ece565b9150508091505092915050565b60006020820190508181036000830152611f848184611f07565b905092915050565b611f9581611e5e565b8114611fa057600080fd5b50565b600081359050611fb281611f8c565b92915050565b600080fd5b600080fd5b7f4e487b7100000000000000000000000000000000000000000000000000000000600052604160045260246000fd5b611ffa82611ebd565b810181811067ffffffffffffffff8211171561201957612018611fc2565b5b80604052505050565b600061202c611dd8565b90506120388282611ff1565b919050565b600067ffffffffffffffff82111561205857612057611fc2565b5b61206182611ebd565b9050602081019050919050565b82818337600083830152505050565b600061209061208b8461203d565b612022565b9050828152602081018484840111156120ac576120ab611fbd565b5b6120b784828561206e565b509392505050565b600082601f8301126120d4576120d3611fb8565b5b81356120e484826020860161207d565b91505092915050565b60008060006060848603121561210657612105611de2565b5b600061211486828701611fa3565b935050602084013567ffffffffffffffff81111561213557612134611de7565b5b612141868287016120bf565b925050604061215286828701611e0d565b9150509250925092565b600073ffffffffffffffffffffffffffffffffffffffff82169050919050565b60006121878261215c565b9050919050565b6121978161217c565b81146121a257600080fd5b50565b6000813590506121b48161218e565b92915050565b600080604083850312156121d1576121d0611de2565b5b60006121df85828601611e0d565b92505060206121f0858286016121a5565b9150509250929050565b60008115159050919050565b61220f816121fa565b82525050565b600060208201905061222a6000830184612206565b92915050565b6000806040838503121561224757612246611de2565b5b600061225585828601611e0d565b925050602083013567ffffffffffffffff81111561227657612275611de7565b5b612282858286016120bf565b9150509250929050565b600080fd5b600080fd5b60008083601f8401126122ac576122ab611fb8565b5b8235905067ffffffffffffffff8111156122c9576122c861228c565b5b6020830191508360208202830111156122e5576122e4612291565b5b9250929050565b6122f5816121fa565b811461230057600080fd5b50565b600081359050612312816122ec565b92915050565b60008060008060008060a0878903121561233557612334611de2565b5b600061234389828a01611e0d565b965050602087013567ffffffffffffffff81111561236457612363611de7565b5b61237089828a01612296565b9550955050604087013567ffffffffffffffff81111561239357612392611de7565b5b61239f89828a016120bf565b93505060606123b089828a01612303565b92505060806123c189828a01611e0d565b9150509295509295509295565b6000806000806000608086880312156123ea576123e9611de2565b5b60006123f888828901611e0d565b955050602086013567ffffffffffffffff81111561241957612418611de7565b5b61242588828901612296565b9450945050604086013567ffffffffffffffff81111561244857612447611de7565b5b612454888289016120bf565b925050606061246588828901612303565b9150509295509295909350565b6000806000806060858703121561248c5761248b611de2565b5b600085013567ffffffffffffffff8111156124aa576124a9611de7565b5b6124b687828801612296565b945094505060206124c987828801611e0d565b92505060406124da878288016121a5565b91505092959194509250565b6124ef81611e5e565b82525050565b600060208201905061250a60008301846124e6565b92915050565b600081905092915050565b600061252682611e77565b6125308185612510565b9350612540818560208601611e93565b80840191505092915050565b6000612558828461251b565b915081905092915050565b7f4e487b7100000000000000000000000000000000000000000000000000000000600052602260045260246000fd5b600060028204905060018216806125aa57607f821691505b6020821081036125bd576125bc612563565b5b50919050565b7f4e487b7100000000000000000000000000000000000000000000000000000000600052601160045260246000fd5b60006125fd82611dec565b91507fffffffffffffffffffffffffffffffffffffffffffffffffffffffffffffffff820361262f5761262e6125c3565b5b600182019050919050565b60008190508160005260206000209050919050565b60006020601f8301049050919050565b600082821b905092915050565b60006008830261269c7fffffffffffffffffffffffffffffffffffffffffffffffffffffffffffffffff8261265f565b6126a6868361265f565b95508019841693508086168417925050509392505050565b6000819050919050565b60006126e36126de6126d984611dec565b6126be565b611dec565b9050919050565b6000819050919050565b6126fd836126c8565b612711612709826126ea565b84845461266c565b825550505050565b600090565b612726612719565b6127318184846126f4565b505050565b5b818110156127555761274a60008261271e565b600181019050612737565b5050565b601f82111561279a5761276b8161263a565b6127748461264f565b81016020851015612783578190505b61279761278f8561264f565b830182612736565b50505b505050565b600082821c905092915050565b60006127bd6000198460080261279f565b1980831691505092915050565b60006127d683836127ac565b9150826002028217905092915050565b6127ef82611e77565b67ffffffffffffffff81111561280857612807611fc2565b5b6128128254612592565b61281d828285612759565b600060209050601f831160018114612850576000841561283e578287015190505b61284885826127ca565b8655506128b0565b601f19841661285e8661263a565b60005b8281101561288657848901518255600182019150602085019450602081019050612861565b868310156128a3578489015161289f601f8916826127ac565b8355505b6001600288020188555050505b505050505050565b600082825260208201905092915050565b7f6e616d652069732074616b656e00000000000000000000000000000000000000600082015250565b60006128ff600d836128b8565b915061290a826128c9565b602082019050919050565b6000602082019050818103600083015261292e816128f2565b9050919050565b7f43616e6e6f74207061737320616e20656d707479206861736800000000000000600082015250565b600061296b6019836128b8565b915061297682612935565b602082019050919050565b6000602082019050818103600083015261299a8161295e565b9050919050565b7f43616e6e6f74206265206c6f6e676572207468616e2031302063686172730000600082015250565b60006129d7601e836128b8565b91506129e2826129a1565b602082019050919050565b60006020820190508181036000830152612a06816129ca565b9050919050565b7f416464726573732068617320616c726561647920636c61696d6564207468652060008201527f64726f7000000000000000000000000000000000000000000000000000000000602082015250565b6000612a696024836128b8565b9150612a7482612a0d565b604082019050919050565b60006020820190508181036000830152612a9881612a5c565b9050919050565b60008160601b9050919050565b6000612ab782612a9f565b9050919050565b6000612ac982612aac565b9050919050565b612ae1612adc8261217c565b612abe565b82525050565b6000612af38284612ad0565b60148201915081905092915050565b7f496e76616c6964204d65726b6c652070726f6f66000000000000000000000000600082015250565b6000612b386014836128b8565b9150612b4382612b02565b602082019050919050565b60006020820190508181036000830152612b6781612b2b565b9050919050565b7f4e487b7100000000000000000000000000000000000000000000000000000000600052603260045260246000fdfe68747470733a2f2f697066732e696f2f697066732f516d556257785564387358344d5a6f6a4b455255506d507539597441596659726f425334546531484a454b75637968747470733a2f2f697066732e696f2f697066732f516d625641427439734b704e55613844674d4a64653344424351796f72534354395631447a6436634a385a556d5068747470733a2f2f697066732e696f2f697066732f516d66424e4870787077554e67747736695842784b584c6256786f6d386d7064427367715a5a79353970524d354368747470733a2f2f697066732e696f2f697066732f516d5158655965397278526b6b716645423744725a52534732533179724e676a363456386d3676374b65747a516468747470733a2f2f697066732e696f2f697066732f516d55715a4b5275646e616e673147586244326e4848776d4a664e4e42465156646d6f483857416e65616969356868747470733a2f2f697066732e696f2f697066732f516d5269644a666766523656394c4276594136524b6f6a4450796b713547327a4c6e4e417841724c4d554d6e436468747470733a2f2f697066732e696f2f697066732f516d5751514c364e39416663713270646247766a61315456696943576b346b36764235564d433974634d4b63653968747470733a2f2f697066732e696f2f697066732f516d56357053734d47474d4c5733593979513871534c534d4451616b646e6a686a53346b356865366d4a79506548a26469706673582212202ecc248ae8917f07917ad58fc81480a4c733ec7a011d45e39f7e13c17bb82eaa64736f6c63430008120033",
  "linkReferences": {},
  "deployedLinkReferences": {}
}