{
  "_format": "hh-sol-artifact-1",
  "contractName": "PlayerDropFacet",
  "sourceName": "contracts/facets/PlayerDropFacet.sol",
  "abi": [
    {
      "anonymous": false,
      "inputs": [
        {
          "indexed": true,
          "internalType": "uint256",
          "name": "_playerDropId",
          "type": "uint256"
        }
      ],
      "name": "ClaimPlayer",
      "type": "event"
    },
    {
      "anonymous": false,
      "inputs": [
        {
          "indexed": true,
          "internalType": "uint256",
          "name": "id",
          "type": "uint256"
        },
        {
          "indexed": true,
          "internalType": "address",
          "name": "owner",
          "type": "address"
        },
        {
          "indexed": false,
          "internalType": "string",
          "name": "name",
          "type": "string"
        },
        {
          "indexed": false,
          "internalType": "uint256",
          "name": "_class",
          "type": "uint256"
        }
      ],
      "name": "Mint",
      "type": "event"
    },
    {
      "anonymous": false,
      "inputs": [
        {
          "indexed": true,
          "internalType": "address",
          "name": "owner",
          "type": "address"
        },
        {
          "indexed": true,
          "internalType": "uint256",
          "name": "id",
          "type": "uint256"
        },
        {
          "indexed": true,
          "internalType": "string",
          "name": "newName",
          "type": "string"
        }
      ],
      "name": "NameChange",
      "type": "event"
    },
    {
      "inputs": [
        {
          "internalType": "uint256",
          "name": "_id",
          "type": "uint256"
        },
        {
          "internalType": "string",
          "name": "_newName",
          "type": "string"
        }
      ],
      "name": "changeNameFee",
      "outputs": [],
      "stateMutability": "payable",
      "type": "function"
    },
    {
      "inputs": [
        {
          "internalType": "uint256",
          "name": "_playerDropId",
          "type": "uint256"
        },
        {
          "internalType": "bytes32[]",
          "name": "_proof",
          "type": "bytes32[]"
        },
        {
          "internalType": "string",
          "name": "_name",
          "type": "string"
        },
        {
          "internalType": "bool",
          "name": "_isMale",
          "type": "bool"
        },
        {
          "internalType": "uint256",
          "name": "_class",
          "type": "uint256"
        }
      ],
      "name": "claimPlayerDrop",
      "outputs": [],
      "stateMutability": "payable",
      "type": "function"
    },
    {
      "inputs": [
        {
          "internalType": "uint256",
          "name": "_playerDropId",
          "type": "uint256"
        },
        {
          "internalType": "bytes32[]",
          "name": "_proof",
          "type": "bytes32[]"
        },
        {
          "internalType": "string",
          "name": "_name",
          "type": "string"
        },
        {
          "internalType": "bool",
          "name": "_isMale",
          "type": "bool"
        }
      ],
      "name": "claimPlayerDropPaladin",
      "outputs": [],
      "stateMutability": "nonpayable",
      "type": "function"
    },
    {
      "inputs": [
        {
          "internalType": "uint256",
          "name": "_playerDropId",
          "type": "uint256"
        },
        {
          "internalType": "address",
          "name": "_address",
          "type": "address"
        }
      ],
      "name": "claimedStatus",
      "outputs": [
        {
          "internalType": "bool",
          "name": "",
          "type": "bool"
        }
      ],
      "stateMutability": "view",
      "type": "function"
    },
    {
      "inputs": [
        {
          "internalType": "bytes32",
          "name": "_merkleRoot",
          "type": "bytes32"
        },
        {
          "internalType": "string",
          "name": "_name",
          "type": "string"
        },
        {
          "internalType": "uint256",
          "name": "_price",
          "type": "uint256"
        }
      ],
      "name": "createPlayerDrop",
      "outputs": [],
      "stateMutability": "nonpayable",
      "type": "function"
    },
    {
      "inputs": [
        {
          "internalType": "uint256",
          "name": "_playerDropId",
          "type": "uint256"
        }
      ],
      "name": "getPlayerDrop",
      "outputs": [
        {
          "components": [
            {
              "internalType": "uint256",
              "name": "id",
              "type": "uint256"
            },
            {
              "internalType": "uint256",
              "name": "price",
              "type": "uint256"
            },
            {
              "internalType": "bytes32",
              "name": "merkleRoot",
              "type": "bytes32"
            },
            {
              "internalType": "string",
              "name": "name",
              "type": "string"
            }
          ],
          "internalType": "struct PlayerDrop",
          "name": "",
          "type": "tuple"
        }
      ],
      "stateMutability": "view",
      "type": "function"
    },
    {
      "inputs": [
        {
          "internalType": "uint256",
          "name": "_playerDropId",
          "type": "uint256"
        }
      ],
      "name": "getPlayerDropMerkleRoot",
      "outputs": [
        {
          "internalType": "bytes32",
          "name": "",
          "type": "bytes32"
        }
      ],
      "stateMutability": "view",
      "type": "function"
    },
    {
      "inputs": [
        {
          "internalType": "string",
          "name": "_name",
          "type": "string"
        },
        {
          "internalType": "bool",
          "name": "_isMale",
          "type": "bool"
        }
      ],
      "name": "mintP",
      "outputs": [],
      "stateMutability": "nonpayable",
      "type": "function"
    },
    {
      "inputs": [
        {
          "internalType": "bytes32[]",
          "name": "_proof",
          "type": "bytes32[]"
        },
        {
          "internalType": "uint256",
          "name": "_playerDropId",
          "type": "uint256"
        },
        {
          "internalType": "address",
          "name": "_address",
          "type": "address"
        }
      ],
      "name": "verifyPlayerDropWhitelist",
      "outputs": [
        {
          "internalType": "bool",
          "name": "",
          "type": "bool"
        }
      ],
      "stateMutability": "view",
      "type": "function"
    }
  ],
  "bytecode": "0x608060405234801561001057600080fd5b50613043806100206000396000f3fe6080604052600436106100865760003560e01c80639737f88a116100595780639737f88a1461014a578063a3308b2c14610166578063b53675261461018f578063c79cd39f146101b8578063e0a0a074146101f557610086565b80630b5fe5301461008b5780631b660e47146100c85780632dfc7abe146100f157806340d0bb7f1461012e575b600080fd5b34801561009757600080fd5b506100b260048036038101906100ad9190611f23565b610232565b6040516100bf919061206b565b60405180910390f35b3480156100d457600080fd5b506100ef60048036038101906100ea91906121ee565b61024a565b005b3480156100fd57600080fd5b50610118600480360381019061011391906122bb565b6102ac565b6040516101259190612316565b60405180910390f35b61014860048036038101906101439190612331565b6102c0565b005b610164600480360381019061015f9190612419565b610336565b005b34801561017257600080fd5b5061018d600480360381019061018891906124cf565b6103d2565b005b34801561019b57600080fd5b506101b660048036038101906101b1919061252b565b6103e0565b005b3480156101c457600080fd5b506101df60048036038101906101da91906125cf565b6103f4565b6040516101ec9190612316565b60405180910390f35b34801561020157600080fd5b5061021c60048036038101906102179190611f23565b61040c565b6040516102299190612652565b60405180910390f35b61023a611eae565b6102438261041e565b9050919050565b600073434d36f32abed3f7937fe0be88dc1b0eb938124490508073ffffffffffffffffffffffffffffffffffffffff163373ffffffffffffffffffffffffffffffffffffffff161461029b57600080fd5b6102a684848461050a565b50505050565b60006102b883836105ab565b905092915050565b6102ca8282610621565b600a3410156102d857600080fd5b806040516102e691906126a9565b6040518091039020823373ffffffffffffffffffffffffffffffffffffffff167fe4ce50a62b6cbb7d19acd75fd57f7e2588dd09705647d97993e2ece872c305b260405160405180910390a45050565b61033f86610232565b6020015134101561034f57600080fd5b60007308d8e680a2d295af8cbcd8b8e07f900275bc6b8d90508073ffffffffffffffffffffffffffffffffffffffff1661038888610232565b60200151505061039c8787878787876108d5565b867f9d3afc92396cc7c29a7a44c2e713f9efe3287517db4b2f9eea9f860204fd5baa60405160405180910390a250505050505050565b6103dc8282610aee565b5050565b6103ed858585858561100e565b5050505050565b600061040285858585611292565b9050949350505050565b60006104178261133a565b9050919050565b610426611eae565b6000610430611368565b9050806001016000848152602001908152602001600020604051806080016040529081600082015481526020016001820154815260200160028201548152602001600382018054610480906126ef565b80601f01602080910402602001604051908101604052809291908181526020018280546104ac906126ef565b80156104f95780601f106104ce576101008083540402835291602001916104f9565b820191906000526020600020905b8154815290600101906020018083116104dc57829003601f168201915b505050505081525050915050919050565b6000610514611368565b905080600001600081548092919061052b9061274f565b9190505550604051806080016040528082600001548152602001838152602001858152602001848152508160010160008360000154815260200190815260200160002060008201518160000155602082015181600101556040820151816002015560608201518160030190816105a19190612943565b5090505050505050565b6000806105b6611368565b905080600201600085815260200190815260200160002060008473ffffffffffffffffffffffffffffffffffffffff1673ffffffffffffffffffffffffffffffffffffffff16815260200190815260200160002060009054906101000a900460ff1691505092915050565b600061062b611395565b90503373ffffffffffffffffffffffffffffffffffffffff1681600201600085815260200190815260200160002060009054906101000a900473ffffffffffffffffffffffffffffffffffffffff1673ffffffffffffffffffffffffffffffffffffffff161461069a57600080fd5b80600601826040516106ac91906126a9565b908152602001604051809103902060009054906101000a900460ff1615610708576040517f08c379a00000000000000000000000000000000000000000000000000000000081526004016106ff90612a72565b60405180910390fd5b600382511161074c576040517f08c379a000000000000000000000000000000000000000000000000000000000815260040161074390612ade565b60405180910390fd5b600a825110610790576040517f08c379a000000000000000000000000000000000000000000000000000000000815260040161078790612b4a565b60405180910390fd5b6000816003016000858152602001908152602001600020600f0180546107b5906126ef565b80601f01602080910402602001604051908101604052809291908181526020018280546107e1906126ef565b801561082e5780601f106108035761010080835404028352916020019161082e565b820191906000526020600020905b81548152906001019060200180831161081157829003601f168201915b5050505050905060008151111561087057816006018160405161085191906126a9565b908152602001604051809103902060006101000a81549060ff02191690555b82826003016000868152602001908152602001600020600f0190816108959190612943565b50600182600601846040516108aa91906126a9565b908152602001604051809103902060006101000a81548160ff02191690831515021790555050505050565b60006108df611368565b905080600201600088815260200190815260200160002060003373ffffffffffffffffffffffffffffffffffffffff1673ffffffffffffffffffffffffffffffffffffffff16815260200190815260200160002060009054906101000a900460ff1615610981576040517f08c379a000000000000000000000000000000000000000000000000000000000815260040161097890612bdc565b60405180910390fd5b610a0b868680806020026020016040519081016040528093929190818152602001838360200280828437600081840152601f19601f820116905080830192505050505050508260010160008a815260200190815260200160002060020154336040516020016109f09190612c44565b604051602081830303815290604052805190602001206113c2565b610a4a576040517f08c379a0000000000000000000000000000000000000000000000000000000008152600401610a4190612cab565b60405180910390fd5b80600101600088815260200190815260200160002060010154341015610a6f57600080fd5b600181600201600089815260200190815260200160002060003373ffffffffffffffffffffffffffffffffffffffff1673ffffffffffffffffffffffffffffffffffffffff16815260200190815260200160002060006101000a81548160ff021916908315150217905550610ae58484846113d9565b50505050505050565b6000610af8611395565b90508060060183604051610b0c91906126a9565b908152602001604051809103902060009054906101000a900460ff1615610b68576040517f08c379a0000000000000000000000000000000000000000000000000000000008152600401610b5f90612a72565b60405180910390fd5b600a83511115610b7757600080fd5b600383511015610b8657600080fd5b806001016000815480929190610b9b9061274f565b9190505550606082610bc857604051806080016040528060438152602001612f4560439139905080610be5565b604051806080016040528060438152602001612f88604391399050805b50604051806102800160405280600181526020016000815260200160008152602001600d8152602001600d8152602001600d8152602001600d8152602001600d8152602001600d8152602001600d815260200160018152602001600181526020016001815260200160018152602001600d815260200185815260200182815260200184151581526020016040518060e0016040528060008152602001600081526020016000815260200160008152602001600081526020016000815260200160008152508152602001600381525082600301600084600101548152602001908152602001600020600082015181600001556020820151816001015560408201518160020155606082015181600301556080820151816004015560a0820151816005015560c0820151816006015560e082015181600701556101008201518160080155610120820151816009015561014082015181600a015561016082015181600b015561018082015181600c01556101a082015181600d01556101c082015181600e01556101e082015181600f019081610d7f9190612943565b50610200820151816010019081610d969190612943565b506102208201518160110160006101000a81548160ff02191690831515021790555061024082015181601201600082015181600001556020820151816001015560408201518160020155606082015181600301556080820151816004015560a0820151816005015560c08201518160060155505061026082015181601901559050506040518060e00160405280600081526020016000815260200160008152602001600081526020016000815260200160008152602001600081525082600801600084600101548152602001908152602001600020600082015181600001556020820151816001015560408201518160020155606082015181600301556080820151816004015560a0820151816005015560c0820151816006015590505060018260060185604051610ec891906126a9565b908152602001604051809103902060006101000a81548160ff021916908315150217905550338260020160008460010154815260200190815260200160002060006101000a81548173ffffffffffffffffffffffffffffffffffffffff021916908373ffffffffffffffffffffffffffffffffffffffff1602179055508160070160003373ffffffffffffffffffffffffffffffffffffffff1673ffffffffffffffffffffffffffffffffffffffff168152602001908152602001600020826001015490806001815401808255809150506001900390600052602060002001600090919091909150558160040160003373ffffffffffffffffffffffffffffffffffffffff1673ffffffffffffffffffffffffffffffffffffffff16815260200190815260200160002060008154809291906110039061274f565b919050555050505050565b6000611018611368565b905080600201600087815260200190815260200160002060003373ffffffffffffffffffffffffffffffffffffffff1673ffffffffffffffffffffffffffffffffffffffff16815260200190815260200160002060009054906101000a900460ff16156110ba576040517f08c379a00000000000000000000000000000000000000000000000000000000081526004016110b190612bdc565b60405180910390fd5b611144858580806020026020016040519081016040528093929190818152602001838360200280828437600081840152601f19601f8201169050808301925050505050505082600101600089815260200190815260200160002060020154336040516020016111299190612c44565b604051602081830303815290604052805190602001206113c2565b611183576040517f08c379a000000000000000000000000000000000000000000000000000000000815260040161117a90612cab565b60405180910390fd5b806001016000878152602001908152602001600020600101543410156111a857600080fd5b6040516020016111b790612d17565b604051602081830303815290604052805190602001208160010160008881526020019081526020016000206003016040516020016111f59190612daf565b604051602081830303815290604052805190602001201461121557600080fd5b600181600201600088815260200190815260200160002060003373ffffffffffffffffffffffffffffffffffffffff1673ffffffffffffffffffffffffffffffffffffffff16815260200190815260200160002060006101000a81548160ff02191690831515021790555061128a8383610aee565b505050505050565b60008061129d611368565b90506000836040516020016112b29190612c44565b60405160208183030381529060405280519060200120905061132e878780806020026020016040519081016040528093929190818152602001838360200280828437600081840152601f19601f8201169050808301925050505050505083600101600088815260200190815260200160002060020154836113c2565b92505050949350505050565b600080611345611368565b905080600101600084815260200190815260200160002060020154915050919050565b6000807f19a7b6aa9ad98f2f267a375bb3e53168bb268f6ec190238c4ccf172054fde40a90508091505090565b6000807f3cab9a070a0c61cd0ae9d9e9e2c0781e5ca8691bec4087e5a4701d5ac018dd4e90508091505090565b6000826113cf8584611e16565b1490509392505050565b60006113e3611395565b905080600601846040516113f791906126a9565b908152602001604051809103902060009054906101000a900460ff1615611453576040517f08c379a000000000000000000000000000000000000000000000000000000000815260040161144a90612a72565b60405180910390fd5b600282111561146157600080fd5b600a8451111561147057600080fd5b60038451101561147f57600080fd5b8060010160008154809291906114949061274f565b919050555060606000830361171d57836114c957604051806080016040528060438152602001612e7c604391399050806114e6565b604051806080016040528060438152602001612fcb604391399050805b50604051806102800160405280600181526020016000815260200160008152602001600b8152602001600c8152602001600c8152602001600a8152602001600a8152602001600a8152602001600a815260200160018152602001600181526020016001815260200160018152602001600b815260200186815260200182815260200185151581526020016040518060e00160405280600081526020016000815260200160008152602001600081526020016000815260200160008152602001600081525081526020018481525082600301600084600101548152602001908152602001600020600082015181600001556020820151816001015560408201518160020155606082015181600301556080820151816004015560a0820151816005015560c0820151816006015560e082015181600701556101008201518160080155610120820151816009015561014082015181600a015561016082015181600b015561018082015181600c01556101a082015181600d01556101c082015181600e01556101e082015181600f01908161167f9190612943565b506102008201518160100190816116969190612943565b506102208201518160110160006101000a81548160ff02191690831515021790555061024082015181601201600082015181600001556020820151816001015560408201518160020155606082015181600301556080820151816004015560a0820151816005015560c0820151816006015550506102608201518160190155905050611c1f565b6001830361199f578361174b57604051806080016040528060438152602001612f0260439139905080611768565b604051806080016040528060438152602001612ebf604391399050805b50604051806102800160405280600181526020016000815260200160008152602001600b8152602001600b8152602001600b8152602001600a8152602001600a8152602001600a8152602001600c815260200160018152602001600181526020016001815260200160018152602001600a815260200186815260200182815260200185151581526020016040518060e00160405280600081526020016000815260200160008152602001600081526020016000815260200160008152602001600081525081526020018481525082600301600084600101548152602001908152602001600020600082015181600001556020820151816001015560408201518160020155606082015181600301556080820151816004015560a0820151816005015560c0820151816006015560e082015181600701556101008201518160080155610120820151816009015561014082015181600a015561016082015181600b015561018082015181600c01556101a082015181600d01556101c082015181600e01556101e082015181600f0190816119019190612943565b506102008201518160100190816119189190612943565b506102208201518160110160006101000a81548160ff02191690831515021790555061024082015181601201600082015181600001556020820151816001015560408201518160020155606082015181600301556080820151816004015560a0820151816005015560c0820151816006015550506102608201518160190155905050611c1e565b60028303611c1d57836119cd57604051806080016040528060438152602001612e39604391399050806119ea565b604051806080016040528060438152602001612df6604391399050805b50604051806102800160405280600181526020016000815260200160008152602001600a8152602001600a8152602001600a8152602001600c8152602001600c8152602001600c8152602001600a815260200160018152602001600181526020016001815260200160018152602001600a815260200186815260200182815260200185151581526020016040518060e00160405280600081526020016000815260200160008152602001600081526020016000815260200160008152602001600081525081526020018481525082600301600084600101548152602001908152602001600020600082015181600001556020820151816001015560408201518160020155606082015181600301556080820151816004015560a0820151816005015560c0820151816006015560e082015181600701556101008201518160080155610120820151816009015561014082015181600a015561016082015181600b015561018082015181600c01556101a082015181600d01556101c082015181600e01556101e082015181600f019081611b839190612943565b50610200820151816010019081611b9a9190612943565b506102208201518160110160006101000a81548160ff02191690831515021790555061024082015181601201600082015181600001556020820151816001015560408201518160020155606082015181600301556080820151816004015560a0820151816005015560c08201518160060155505061026082015181601901559050505b5b5b6040518060e00160405280600081526020016000815260200160008152602001600081526020016000815260200160008152602001600081525082600801600084600101548152602001908152602001600020600082015181600001556020820151816001015560408201518160020155606082015181600301556080820151816004015560a0820151816005015560c0820151816006015590505060018260060186604051611ccf91906126a9565b908152602001604051809103902060006101000a81548160ff021916908315150217905550338260020160008460010154815260200190815260200160002060006101000a81548173ffffffffffffffffffffffffffffffffffffffff021916908373ffffffffffffffffffffffffffffffffffffffff1602179055508160070160003373ffffffffffffffffffffffffffffffffffffffff1673ffffffffffffffffffffffffffffffffffffffff168152602001908152602001600020826001015490806001815401808255809150506001900390600052602060002001600090919091909150558160040160003373ffffffffffffffffffffffffffffffffffffffff1673ffffffffffffffffffffffffffffffffffffffff1681526020019081526020016000206000815480929190611e0a9061274f565b91905055505050505050565b60008082905060005b8451811015611e6157611e4c82868381518110611e3f57611e3e612dc6565b5b6020026020010151611e6c565b91508080611e599061274f565b915050611e1f565b508091505092915050565b6000818310611e8457611e7f8284611e97565b611e8f565b611e8e8383611e97565b5b905092915050565b600082600052816020526040600020905092915050565b6040518060800160405280600081526020016000815260200160008019168152602001606081525090565b6000604051905090565b600080fd5b600080fd5b6000819050919050565b611f0081611eed565b8114611f0b57600080fd5b50565b600081359050611f1d81611ef7565b92915050565b600060208284031215611f3957611f38611ee3565b5b6000611f4784828501611f0e565b91505092915050565b611f5981611eed565b82525050565b6000819050919050565b611f7281611f5f565b82525050565b600081519050919050565b600082825260208201905092915050565b60005b83811015611fb2578082015181840152602081019050611f97565b60008484015250505050565b6000601f19601f8301169050919050565b6000611fda82611f78565b611fe48185611f83565b9350611ff4818560208601611f94565b611ffd81611fbe565b840191505092915050565b60006080830160008301516120206000860182611f50565b5060208301516120336020860182611f50565b5060408301516120466040860182611f69565b506060830151848203606086015261205e8282611fcf565b9150508091505092915050565b600060208201905081810360008301526120858184612008565b905092915050565b61209681611f5f565b81146120a157600080fd5b50565b6000813590506120b38161208d565b92915050565b600080fd5b600080fd5b7f4e487b7100000000000000000000000000000000000000000000000000000000600052604160045260246000fd5b6120fb82611fbe565b810181811067ffffffffffffffff8211171561211a576121196120c3565b5b80604052505050565b600061212d611ed9565b905061213982826120f2565b919050565b600067ffffffffffffffff821115612159576121586120c3565b5b61216282611fbe565b9050602081019050919050565b82818337600083830152505050565b600061219161218c8461213e565b612123565b9050828152602081018484840111156121ad576121ac6120be565b5b6121b884828561216f565b509392505050565b600082601f8301126121d5576121d46120b9565b5b81356121e584826020860161217e565b91505092915050565b60008060006060848603121561220757612206611ee3565b5b6000612215868287016120a4565b935050602084013567ffffffffffffffff81111561223657612235611ee8565b5b612242868287016121c0565b925050604061225386828701611f0e565b9150509250925092565b600073ffffffffffffffffffffffffffffffffffffffff82169050919050565b60006122888261225d565b9050919050565b6122988161227d565b81146122a357600080fd5b50565b6000813590506122b58161228f565b92915050565b600080604083850312156122d2576122d1611ee3565b5b60006122e085828601611f0e565b92505060206122f1858286016122a6565b9150509250929050565b60008115159050919050565b612310816122fb565b82525050565b600060208201905061232b6000830184612307565b92915050565b6000806040838503121561234857612347611ee3565b5b600061235685828601611f0e565b925050602083013567ffffffffffffffff81111561237757612376611ee8565b5b612383858286016121c0565b9150509250929050565b600080fd5b600080fd5b60008083601f8401126123ad576123ac6120b9565b5b8235905067ffffffffffffffff8111156123ca576123c961238d565b5b6020830191508360208202830111156123e6576123e5612392565b5b9250929050565b6123f6816122fb565b811461240157600080fd5b50565b600081359050612413816123ed565b92915050565b60008060008060008060a0878903121561243657612435611ee3565b5b600061244489828a01611f0e565b965050602087013567ffffffffffffffff81111561246557612464611ee8565b5b61247189828a01612397565b9550955050604087013567ffffffffffffffff81111561249457612493611ee8565b5b6124a089828a016121c0565b93505060606124b189828a01612404565b92505060806124c289828a01611f0e565b9150509295509295509295565b600080604083850312156124e6576124e5611ee3565b5b600083013567ffffffffffffffff81111561250457612503611ee8565b5b612510858286016121c0565b925050602061252185828601612404565b9150509250929050565b60008060008060006080868803121561254757612546611ee3565b5b600061255588828901611f0e565b955050602086013567ffffffffffffffff81111561257657612575611ee8565b5b61258288828901612397565b9450945050604086013567ffffffffffffffff8111156125a5576125a4611ee8565b5b6125b1888289016121c0565b92505060606125c288828901612404565b9150509295509295909350565b600080600080606085870312156125e9576125e8611ee3565b5b600085013567ffffffffffffffff81111561260757612606611ee8565b5b61261387828801612397565b9450945050602061262687828801611f0e565b9250506040612637878288016122a6565b91505092959194509250565b61264c81611f5f565b82525050565b60006020820190506126676000830184612643565b92915050565b600081905092915050565b600061268382611f78565b61268d818561266d565b935061269d818560208601611f94565b80840191505092915050565b60006126b58284612678565b915081905092915050565b7f4e487b7100000000000000000000000000000000000000000000000000000000600052602260045260246000fd5b6000600282049050600182168061270757607f821691505b60208210810361271a576127196126c0565b5b50919050565b7f4e487b7100000000000000000000000000000000000000000000000000000000600052601160045260246000fd5b600061275a82611eed565b91507fffffffffffffffffffffffffffffffffffffffffffffffffffffffffffffffff820361278c5761278b612720565b5b600182019050919050565b60008190508160005260206000209050919050565b60006020601f8301049050919050565b600082821b905092915050565b6000600883026127f97fffffffffffffffffffffffffffffffffffffffffffffffffffffffffffffffff826127bc565b61280386836127bc565b95508019841693508086168417925050509392505050565b6000819050919050565b600061284061283b61283684611eed565b61281b565b611eed565b9050919050565b6000819050919050565b61285a83612825565b61286e61286682612847565b8484546127c9565b825550505050565b600090565b612883612876565b61288e818484612851565b505050565b5b818110156128b2576128a760008261287b565b600181019050612894565b5050565b601f8211156128f7576128c881612797565b6128d1846127ac565b810160208510156128e0578190505b6128f46128ec856127ac565b830182612893565b50505b505050565b600082821c905092915050565b600061291a600019846008026128fc565b1980831691505092915050565b60006129338383612909565b9150826002028217905092915050565b61294c82611f78565b67ffffffffffffffff811115612965576129646120c3565b5b61296f82546126ef565b61297a8282856128b6565b600060209050601f8311600181146129ad576000841561299b578287015190505b6129a58582612927565b865550612a0d565b601f1984166129bb86612797565b60005b828110156129e3578489015182556001820191506020850194506020810190506129be565b86831015612a0057848901516129fc601f891682612909565b8355505b6001600288020188555050505b505050505050565b600082825260208201905092915050565b7f6e616d652069732074616b656e00000000000000000000000000000000000000600082015250565b6000612a5c600d83612a15565b9150612a6782612a26565b602082019050919050565b60006020820190508181036000830152612a8b81612a4f565b9050919050565b7f43616e6e6f74207061737320616e20656d707479206861736800000000000000600082015250565b6000612ac8601983612a15565b9150612ad382612a92565b602082019050919050565b60006020820190508181036000830152612af781612abb565b9050919050565b7f43616e6e6f74206265206c6f6e676572207468616e2031302063686172730000600082015250565b6000612b34601e83612a15565b9150612b3f82612afe565b602082019050919050565b60006020820190508181036000830152612b6381612b27565b9050919050565b7f416464726573732068617320616c726561647920636c61696d6564207468652060008201527f64726f7000000000000000000000000000000000000000000000000000000000602082015250565b6000612bc6602483612a15565b9150612bd182612b6a565b604082019050919050565b60006020820190508181036000830152612bf581612bb9565b9050919050565b60008160601b9050919050565b6000612c1482612bfc565b9050919050565b6000612c2682612c09565b9050919050565b612c3e612c398261227d565b612c1b565b82525050565b6000612c508284612c2d565b60148201915081905092915050565b7f496e76616c6964204d65726b6c652070726f6f66000000000000000000000000600082015250565b6000612c95601483612a15565b9150612ca082612c5f565b602082019050919050565b60006020820190508181036000830152612cc481612c88565b9050919050565b7f5363726f6c6c0000000000000000000000000000000000000000000000000000600082015250565b6000612d0160068361266d565b9150612d0c82612ccb565b600682019050919050565b6000612d2282612cf4565b9150819050919050565b60008154612d39816126ef565b612d43818661266d565b94506001821660008114612d5e5760018114612d7357612da6565b60ff1983168652811515820286019350612da6565b612d7c85612797565b60005b83811015612d9e57815481890152600182019150602081019050612d7f565b838801955050505b50505092915050565b6000612dbb8284612d2c565b915081905092915050565b7f4e487b7100000000000000000000000000000000000000000000000000000000600052603260045260246000fdfe68747470733a2f2f697066732e696f2f697066732f516d556257785564387358344d5a6f6a4b455255506d507539597441596659726f425334546531484a454b75637968747470733a2f2f697066732e696f2f697066732f516d625641427439734b704e55613844674d4a64653344424351796f72534354395631447a6436634a385a556d5068747470733a2f2f697066732e696f2f697066732f516d66424e4870787077554e67747736695842784b584c6256786f6d386d7064427367715a5a79353970524d354368747470733a2f2f697066732e696f2f697066732f516d5158655965397278526b6b716645423744725a52534732533179724e676a363456386d3676374b65747a516468747470733a2f2f697066732e696f2f697066732f516d55715a4b5275646e616e673147586244326e4848776d4a664e4e42465156646d6f483857416e65616969356868747470733a2f2f697066732e696f2f697066732f516d5269644a666766523656394c4276594136524b6f6a4450796b713547327a4c6e4e417841724c4d554d6e436468747470733a2f2f697066732e696f2f697066732f516d5751514c364e39416663713270646247766a61315456696943576b346b36764235564d433974634d4b63653968747470733a2f2f697066732e696f2f697066732f516d56357053734d47474d4c5733593979513871534c534d4451616b646e6a686a53346b356865366d4a79506548a2646970667358221220059b241cc30aa768cb74f72234ec900450954883dfd068d8e870bcf8f0e8d24564736f6c63430008120033",
  "linkReferences": {},
  "deployedLinkReferences": {}
}