{
  "_format": "hh-sol-artifact-1",
  "contractName": "PlayerDropFacet",
  "sourceName": "contracts/facets/PlayerDropFacet.sol",
  "abi": [
    {
      "anonymous": false,
      "inputs": [
        {
          "indexed": true,
          "internalType": "uint256",
          "name": "_playerId",
          "type": "uint256"
        },
        {
          "indexed": true,
          "internalType": "uint256",
          "name": "_treasureDropId",
          "type": "uint256"
        }
      ],
      "name": "ClaimPlayer",
      "type": "event"
    },
    {
      "anonymous": false,
      "inputs": [
        {
          "indexed": true,
          "internalType": "uint256",
          "name": "id",
          "type": "uint256"
        },
        {
          "indexed": true,
          "internalType": "address",
          "name": "owner",
          "type": "address"
        },
        {
          "indexed": false,
          "internalType": "string",
          "name": "name",
          "type": "string"
        },
        {
          "indexed": false,
          "internalType": "uint256",
          "name": "_class",
          "type": "uint256"
        }
      ],
      "name": "Mint",
      "type": "event"
    },
    {
      "anonymous": false,
      "inputs": [
        {
          "indexed": true,
          "internalType": "address",
          "name": "owner",
          "type": "address"
        },
        {
          "indexed": true,
          "internalType": "uint256",
          "name": "id",
          "type": "uint256"
        },
        {
          "indexed": true,
          "internalType": "string",
          "name": "newName",
          "type": "string"
        }
      ],
      "name": "NameChange",
      "type": "event"
    },
    {
      "inputs": [
        {
          "internalType": "uint256",
          "name": "_id",
          "type": "uint256"
        },
        {
          "internalType": "string",
          "name": "_newName",
          "type": "string"
        }
      ],
      "name": "changeNameFee",
      "outputs": [],
      "stateMutability": "payable",
      "type": "function"
    },
    {
      "inputs": [
        {
          "internalType": "uint256",
          "name": "_treasureDropId",
          "type": "uint256"
        },
        {
          "internalType": "bytes32[]",
          "name": "_proof",
          "type": "bytes32[]"
        },
        {
          "internalType": "string",
          "name": "_name",
          "type": "string"
        },
        {
          "internalType": "bool",
          "name": "_isMale",
          "type": "bool"
        },
        {
          "internalType": "uint256",
          "name": "_class",
          "type": "uint256"
        }
      ],
      "name": "claimPlayerDropMantle",
      "outputs": [],
      "stateMutability": "nonpayable",
      "type": "function"
    },
    {
      "inputs": [
        {
          "internalType": "uint256",
          "name": "_playerDropId",
          "type": "uint256"
        },
        {
          "internalType": "address",
          "name": "_address",
          "type": "address"
        }
      ],
      "name": "claimedStatus",
      "outputs": [
        {
          "internalType": "bool",
          "name": "",
          "type": "bool"
        }
      ],
      "stateMutability": "view",
      "type": "function"
    },
    {
      "inputs": [
        {
          "internalType": "bytes32",
          "name": "_merkleRoot",
          "type": "bytes32"
        },
        {
          "internalType": "string",
          "name": "_name",
          "type": "string"
        }
      ],
      "name": "createPlayerDrop",
      "outputs": [],
      "stateMutability": "nonpayable",
      "type": "function"
    },
    {
      "inputs": [
        {
          "internalType": "uint256",
          "name": "_playerDropId",
          "type": "uint256"
        }
      ],
      "name": "getPlayerDropMerkleRoot",
      "outputs": [
        {
          "internalType": "bytes32",
          "name": "",
          "type": "bytes32"
        }
      ],
      "stateMutability": "view",
      "type": "function"
    },
    {
      "inputs": [
        {
          "internalType": "bytes32[]",
          "name": "_proof",
          "type": "bytes32[]"
        },
        {
          "internalType": "uint256",
          "name": "_playerDropId",
          "type": "uint256"
        },
        {
          "internalType": "address",
          "name": "_address",
          "type": "address"
        }
      ],
      "name": "verifyPlayerDropWhitelist",
      "outputs": [
        {
          "internalType": "bool",
          "name": "",
          "type": "bool"
        }
      ],
      "stateMutability": "view",
      "type": "function"
    }
  ],
  "bytecode": "0x608060405234801561001057600080fd5b5061220a806100206000396000f3fe6080604052600436106100555760003560e01c80632dfc7abe1461005a57806340d0bb7f14610097578063570a4dc9146100b35780638777bf62146100dc578063c79cd39f14610105578063e0a0a07414610142575b600080fd5b34801561006657600080fd5b50610081600480360381019061007c91906114c9565b61017f565b60405161008e9190611524565b60405180910390f35b6100b160048036038101906100ac9190611685565b610193565b005b3480156100bf57600080fd5b506100da60048036038101906100d59190611717565b610209565b005b3480156100e857600080fd5b5061010360048036038101906100fe91906117ff565b610217565b005b34801561011157600080fd5b5061012c600480360381019061012791906118b5565b61022d565b6040516101399190611524565b60405180910390f35b34801561014e57600080fd5b5061016960048036038101906101649190611929565b610245565b6040516101769190611965565b60405180910390f35b600061018b8383610257565b905092915050565b61019d82826102cd565b600a3410156101ab57600080fd5b806040516101b991906119f1565b6040518091039020823373ffffffffffffffffffffffffffffffffffffffff167fe4ce50a62b6cbb7d19acd75fd57f7e2588dd09705647d97993e2ece872c305b260405160405180910390a45050565b6102138282610581565b5050565b610225868686868686610611565b505050505050565b600061023b85858585610805565b9050949350505050565b6000610250826108ad565b9050919050565b6000806102626108db565b905080600201600085815260200190815260200160002060008473ffffffffffffffffffffffffffffffffffffffff1673ffffffffffffffffffffffffffffffffffffffff16815260200190815260200160002060009054906101000a900460ff1691505092915050565b60006102d7610908565b90503373ffffffffffffffffffffffffffffffffffffffff1681600201600085815260200190815260200160002060009054906101000a900473ffffffffffffffffffffffffffffffffffffffff1673ffffffffffffffffffffffffffffffffffffffff161461034657600080fd5b806006018260405161035891906119f1565b908152602001604051809103902060009054906101000a900460ff16156103b4576040517f08c379a00000000000000000000000000000000000000000000000000000000081526004016103ab90611a65565b60405180910390fd5b60038251116103f8576040517f08c379a00000000000000000000000000000000000000000000000000000000081526004016103ef90611ad1565b60405180910390fd5b600a82511061043c576040517f08c379a000000000000000000000000000000000000000000000000000000000815260040161043390611b3d565b60405180910390fd5b6000816003016000858152602001908152602001600020600f01805461046190611b8c565b80601f016020809104026020016040519081016040528092919081815260200182805461048d90611b8c565b80156104da5780601f106104af576101008083540402835291602001916104da565b820191906000526020600020905b8154815290600101906020018083116104bd57829003601f168201915b5050505050905060008151111561051c5781600601816040516104fd91906119f1565b908152602001604051809103902060006101000a81549060ff02191690555b82826003016000868152602001908152602001600020600f0190816105419190611d69565b506001826006018460405161055691906119f1565b908152602001604051809103902060006101000a81548160ff02191690831515021790555050505050565b600061058b6108db565b90508060000160008154809291906105a290611e6a565b91905055506040518060600160405280826000015481526020018481526020018381525081600101600083600001548152602001908152602001600020600082015181600001556020820151816001015560408201518160020190816106089190611d69565b50905050505050565b600061061b6108db565b905080600201600088815260200190815260200160002060003373ffffffffffffffffffffffffffffffffffffffff1673ffffffffffffffffffffffffffffffffffffffff16815260200190815260200160002060009054906101000a900460ff16156106bd576040517f08c379a00000000000000000000000000000000000000000000000000000000081526004016106b490611f24565b60405180910390fd5b610747868680806020026020016040519081016040528093929190818152602001838360200280828437600081840152601f19601f820116905080830192505050505050508260010160008a8152602001908152602001600020600101543360405160200161072c9190611f8c565b60405160208183030381529060405280519060200120610935565b610786576040517f08c379a000000000000000000000000000000000000000000000000000000000815260040161077d90611ff3565b60405180910390fd5b600181600201600089815260200190815260200160002060003373ffffffffffffffffffffffffffffffffffffffff1673ffffffffffffffffffffffffffffffffffffffff16815260200190815260200160002060006101000a81548160ff0219169083151502179055506107fc84848461094c565b50505050505050565b6000806108106108db565b90506000836040516020016108259190611f8c565b6040516020818303038152906040528051906020012090506108a1878780806020026020016040519081016040528093929190818152602001838360200280828437600081840152601f19601f820116905080830192505050505050508360010160008881526020019081526020016000206001015483610935565b92505050949350505050565b6000806108b86108db565b905080600101600084815260200190815260200160002060010154915050919050565b6000807f19a7b6aa9ad98f2f267a375bb3e53168bb268f6ec190238c4ccf172054fde40a90508091505090565b6000807f3cab9a070a0c61cd0ae9d9e9e2c0781e5ca8691bec4087e5a4701d5ac018dd4e90508091505090565b6000826109428584611389565b1490509392505050565b6000610956610908565b9050806006018460405161096a91906119f1565b908152602001604051809103902060009054906101000a900460ff16156109c6576040517f08c379a00000000000000000000000000000000000000000000000000000000081526004016109bd90611a65565b60405180910390fd5b60028211156109d457600080fd5b600a845111156109e357600080fd5b6003845110156109f257600080fd5b806001016000815480929190610a0790611e6a565b9190505550606060008303610c905783610a3c576040518060800160405280604381526020016120c960439139905080610a59565b604051806080016040528060438152602001612192604391399050805b50604051806102800160405280600181526020016000815260200160008152602001600b8152602001600c8152602001600c8152602001600a8152602001600a8152602001600a8152602001600a815260200160018152602001600181526020016001815260200160018152602001600b815260200186815260200182815260200185151581526020016040518060e00160405280600081526020016000815260200160008152602001600081526020016000815260200160008152602001600081525081526020018481525082600301600084600101548152602001908152602001600020600082015181600001556020820151816001015560408201518160020155606082015181600301556080820151816004015560a0820151816005015560c0820151816006015560e082015181600701556101008201518160080155610120820151816009015561014082015181600a015561016082015181600b015561018082015181600c01556101a082015181600d01556101c082015181600e01556101e082015181600f019081610bf29190611d69565b50610200820151816010019081610c099190611d69565b506102208201518160110160006101000a81548160ff02191690831515021790555061024082015181601201600082015181600001556020820151816001015560408201518160020155606082015181600301556080820151816004015560a0820151816005015560c0820151816006015550506102608201518160190155905050611192565b60018303610f125783610cbe5760405180608001604052806043815260200161214f60439139905080610cdb565b60405180608001604052806043815260200161210c604391399050805b50604051806102800160405280600181526020016000815260200160008152602001600b8152602001600b8152602001600b8152602001600a8152602001600a8152602001600a8152602001600c815260200160018152602001600181526020016001815260200160018152602001600a815260200186815260200182815260200185151581526020016040518060e00160405280600081526020016000815260200160008152602001600081526020016000815260200160008152602001600081525081526020018481525082600301600084600101548152602001908152602001600020600082015181600001556020820151816001015560408201518160020155606082015181600301556080820151816004015560a0820151816005015560c0820151816006015560e082015181600701556101008201518160080155610120820151816009015561014082015181600a015561016082015181600b015561018082015181600c01556101a082015181600d01556101c082015181600e01556101e082015181600f019081610e749190611d69565b50610200820151816010019081610e8b9190611d69565b506102208201518160110160006101000a81548160ff02191690831515021790555061024082015181601201600082015181600001556020820151816001015560408201518160020155606082015181600301556080820151816004015560a0820151816005015560c0820151816006015550506102608201518160190155905050611191565b600283036111905783610f405760405180608001604052806043815260200161208660439139905080610f5d565b604051806080016040528060438152602001612043604391399050805b50604051806102800160405280600181526020016000815260200160008152602001600a8152602001600a8152602001600a8152602001600c8152602001600c8152602001600c8152602001600a815260200160018152602001600181526020016001815260200160018152602001600a815260200186815260200182815260200185151581526020016040518060e00160405280600081526020016000815260200160008152602001600081526020016000815260200160008152602001600081525081526020018481525082600301600084600101548152602001908152602001600020600082015181600001556020820151816001015560408201518160020155606082015181600301556080820151816004015560a0820151816005015560c0820151816006015560e082015181600701556101008201518160080155610120820151816009015561014082015181600a015561016082015181600b015561018082015181600c01556101a082015181600d01556101c082015181600e01556101e082015181600f0190816110f69190611d69565b5061020082015181601001908161110d9190611d69565b506102208201518160110160006101000a81548160ff02191690831515021790555061024082015181601201600082015181600001556020820151816001015560408201518160020155606082015181600301556080820151816004015560a0820151816005015560c08201518160060155505061026082015181601901559050505b5b5b6040518060e00160405280600081526020016000815260200160008152602001600081526020016000815260200160008152602001600081525082600801600084600101548152602001908152602001600020600082015181600001556020820151816001015560408201518160020155606082015181600301556080820151816004015560a0820151816005015560c082015181600601559050506001826006018660405161124291906119f1565b908152602001604051809103902060006101000a81548160ff021916908315150217905550338260020160008460010154815260200190815260200160002060006101000a81548173ffffffffffffffffffffffffffffffffffffffff021916908373ffffffffffffffffffffffffffffffffffffffff1602179055508160070160003373ffffffffffffffffffffffffffffffffffffffff1673ffffffffffffffffffffffffffffffffffffffff168152602001908152602001600020826001015490806001815401808255809150506001900390600052602060002001600090919091909150558160040160003373ffffffffffffffffffffffffffffffffffffffff1673ffffffffffffffffffffffffffffffffffffffff168152602001908152602001600020600081548092919061137d90611e6a565b91905055505050505050565b60008082905060005b84518110156113d4576113bf828683815181106113b2576113b1612013565b5b60200260200101516113df565b915080806113cc90611e6a565b915050611392565b508091505092915050565b60008183106113f7576113f2828461140a565b611402565b611401838361140a565b5b905092915050565b600082600052816020526040600020905092915050565b6000604051905090565b600080fd5b600080fd5b6000819050919050565b61144881611435565b811461145357600080fd5b50565b6000813590506114658161143f565b92915050565b600073ffffffffffffffffffffffffffffffffffffffff82169050919050565b60006114968261146b565b9050919050565b6114a68161148b565b81146114b157600080fd5b50565b6000813590506114c38161149d565b92915050565b600080604083850312156114e0576114df61142b565b5b60006114ee85828601611456565b92505060206114ff858286016114b4565b9150509250929050565b60008115159050919050565b61151e81611509565b82525050565b60006020820190506115396000830184611515565b92915050565b600080fd5b600080fd5b6000601f19601f8301169050919050565b7f4e487b7100000000000000000000000000000000000000000000000000000000600052604160045260246000fd5b61159282611549565b810181811067ffffffffffffffff821117156115b1576115b061155a565b5b80604052505050565b60006115c4611421565b90506115d08282611589565b919050565b600067ffffffffffffffff8211156115f0576115ef61155a565b5b6115f982611549565b9050602081019050919050565b82818337600083830152505050565b6000611628611623846115d5565b6115ba565b90508281526020810184848401111561164457611643611544565b5b61164f848285611606565b509392505050565b600082601f83011261166c5761166b61153f565b5b813561167c848260208601611615565b91505092915050565b6000806040838503121561169c5761169b61142b565b5b60006116aa85828601611456565b925050602083013567ffffffffffffffff8111156116cb576116ca611430565b5b6116d785828601611657565b9150509250929050565b6000819050919050565b6116f4816116e1565b81146116ff57600080fd5b50565b600081359050611711816116eb565b92915050565b6000806040838503121561172e5761172d61142b565b5b600061173c85828601611702565b925050602083013567ffffffffffffffff81111561175d5761175c611430565b5b61176985828601611657565b9150509250929050565b600080fd5b600080fd5b60008083601f8401126117935761179261153f565b5b8235905067ffffffffffffffff8111156117b0576117af611773565b5b6020830191508360208202830111156117cc576117cb611778565b5b9250929050565b6117dc81611509565b81146117e757600080fd5b50565b6000813590506117f9816117d3565b92915050565b60008060008060008060a0878903121561181c5761181b61142b565b5b600061182a89828a01611456565b965050602087013567ffffffffffffffff81111561184b5761184a611430565b5b61185789828a0161177d565b9550955050604087013567ffffffffffffffff81111561187a57611879611430565b5b61188689828a01611657565b935050606061189789828a016117ea565b92505060806118a889828a01611456565b9150509295509295509295565b600080600080606085870312156118cf576118ce61142b565b5b600085013567ffffffffffffffff8111156118ed576118ec611430565b5b6118f98782880161177d565b9450945050602061190c87828801611456565b925050604061191d878288016114b4565b91505092959194509250565b60006020828403121561193f5761193e61142b565b5b600061194d84828501611456565b91505092915050565b61195f816116e1565b82525050565b600060208201905061197a6000830184611956565b92915050565b600081519050919050565b600081905092915050565b60005b838110156119b4578082015181840152602081019050611999565b60008484015250505050565b60006119cb82611980565b6119d5818561198b565b93506119e5818560208601611996565b80840191505092915050565b60006119fd82846119c0565b915081905092915050565b600082825260208201905092915050565b7f6e616d652069732074616b656e00000000000000000000000000000000000000600082015250565b6000611a4f600d83611a08565b9150611a5a82611a19565b602082019050919050565b60006020820190508181036000830152611a7e81611a42565b9050919050565b7f43616e6e6f74207061737320616e20656d707479206861736800000000000000600082015250565b6000611abb601983611a08565b9150611ac682611a85565b602082019050919050565b60006020820190508181036000830152611aea81611aae565b9050919050565b7f43616e6e6f74206265206c6f6e676572207468616e2031302063686172730000600082015250565b6000611b27601e83611a08565b9150611b3282611af1565b602082019050919050565b60006020820190508181036000830152611b5681611b1a565b9050919050565b7f4e487b7100000000000000000000000000000000000000000000000000000000600052602260045260246000fd5b60006002820490506001821680611ba457607f821691505b602082108103611bb757611bb6611b5d565b5b50919050565b60008190508160005260206000209050919050565b60006020601f8301049050919050565b600082821b905092915050565b600060088302611c1f7fffffffffffffffffffffffffffffffffffffffffffffffffffffffffffffffff82611be2565b611c298683611be2565b95508019841693508086168417925050509392505050565b6000819050919050565b6000611c66611c61611c5c84611435565b611c41565b611435565b9050919050565b6000819050919050565b611c8083611c4b565b611c94611c8c82611c6d565b848454611bef565b825550505050565b600090565b611ca9611c9c565b611cb4818484611c77565b505050565b5b81811015611cd857611ccd600082611ca1565b600181019050611cba565b5050565b601f821115611d1d57611cee81611bbd565b611cf784611bd2565b81016020851015611d06578190505b611d1a611d1285611bd2565b830182611cb9565b50505b505050565b600082821c905092915050565b6000611d4060001984600802611d22565b1980831691505092915050565b6000611d598383611d2f565b9150826002028217905092915050565b611d7282611980565b67ffffffffffffffff811115611d8b57611d8a61155a565b5b611d958254611b8c565b611da0828285611cdc565b600060209050601f831160018114611dd35760008415611dc1578287015190505b611dcb8582611d4d565b865550611e33565b601f198416611de186611bbd565b60005b82811015611e0957848901518255600182019150602085019450602081019050611de4565b86831015611e265784890151611e22601f891682611d2f565b8355505b6001600288020188555050505b505050505050565b7f4e487b7100000000000000000000000000000000000000000000000000000000600052601160045260246000fd5b6000611e7582611435565b91507fffffffffffffffffffffffffffffffffffffffffffffffffffffffffffffffff8203611ea757611ea6611e3b565b5b600182019050919050565b7f416464726573732068617320616c726561647920636c61696d6564207468652060008201527f64726f7000000000000000000000000000000000000000000000000000000000602082015250565b6000611f0e602483611a08565b9150611f1982611eb2565b604082019050919050565b60006020820190508181036000830152611f3d81611f01565b9050919050565b60008160601b9050919050565b6000611f5c82611f44565b9050919050565b6000611f6e82611f51565b9050919050565b611f86611f818261148b565b611f63565b82525050565b6000611f988284611f75565b60148201915081905092915050565b7f496e76616c6964204d65726b6c652070726f6f66000000000000000000000000600082015250565b6000611fdd601483611a08565b9150611fe882611fa7565b602082019050919050565b6000602082019050818103600083015261200c81611fd0565b9050919050565b7f4e487b7100000000000000000000000000000000000000000000000000000000600052603260045260246000fdfe68747470733a2f2f697066732e696f2f697066732f516d556257785564387358344d5a6f6a4b455255506d507539597441596659726f425334546531484a454b75637968747470733a2f2f697066732e696f2f697066732f516d625641427439734b704e55613844674d4a64653344424351796f72534354395631447a6436634a385a556d5068747470733a2f2f697066732e696f2f697066732f516d66424e4870787077554e67747736695842784b584c6256786f6d386d7064427367715a5a79353970524d354368747470733a2f2f697066732e696f2f697066732f516d5158655965397278526b6b716645423744725a52534732533179724e676a363456386d3676374b65747a516468747470733a2f2f697066732e696f2f697066732f516d55715a4b5275646e616e673147586244326e4848776d4a664e4e42465156646d6f483857416e65616969356868747470733a2f2f697066732e696f2f697066732f516d56357053734d47474d4c5733593979513871534c534d4451616b646e6a686a53346b356865366d4a79506548a2646970667358221220063d6a4d896d5de37b51d2865c99127d6436d65d074d6eae810b09ffa10a43e564736f6c63430008120033",
  "linkReferences": {},
  "deployedLinkReferences": {}
}