{
  "_format": "hh-sol-artifact-1",
  "contractName": "PlayerDropFacet",
  "sourceName": "contracts/facets/PlayerDropFacet.sol",
  "abi": [
    {
      "anonymous": false,
      "inputs": [
        {
          "indexed": true,
          "internalType": "uint256",
          "name": "_playerDropId",
          "type": "uint256"
        }
      ],
      "name": "ClaimPlayer",
      "type": "event"
    },
    {
      "anonymous": false,
      "inputs": [
        {
          "indexed": true,
          "internalType": "uint256",
          "name": "id",
          "type": "uint256"
        },
        {
          "indexed": true,
          "internalType": "address",
          "name": "owner",
          "type": "address"
        },
        {
          "indexed": false,
          "internalType": "string",
          "name": "name",
          "type": "string"
        },
        {
          "indexed": false,
          "internalType": "uint256",
          "name": "_class",
          "type": "uint256"
        }
      ],
      "name": "Mint",
      "type": "event"
    },
    {
      "anonymous": false,
      "inputs": [
        {
          "indexed": true,
          "internalType": "address",
          "name": "owner",
          "type": "address"
        },
        {
          "indexed": true,
          "internalType": "uint256",
          "name": "id",
          "type": "uint256"
        },
        {
          "indexed": true,
          "internalType": "string",
          "name": "newName",
          "type": "string"
        }
      ],
      "name": "NameChange",
      "type": "event"
    },
    {
      "inputs": [
        {
          "internalType": "uint256",
          "name": "_id",
          "type": "uint256"
        },
        {
          "internalType": "string",
          "name": "_newName",
          "type": "string"
        }
      ],
      "name": "changeNameFee",
      "outputs": [],
      "stateMutability": "payable",
      "type": "function"
    },
    {
      "inputs": [
        {
          "internalType": "uint256",
          "name": "_playerDropId",
          "type": "uint256"
        },
        {
          "internalType": "bytes32[]",
          "name": "_proof",
          "type": "bytes32[]"
        },
        {
          "internalType": "string",
          "name": "_name",
          "type": "string"
        },
        {
          "internalType": "bool",
          "name": "_isMale",
          "type": "bool"
        },
        {
          "internalType": "uint256",
          "name": "_class",
          "type": "uint256"
        }
      ],
      "name": "claimPlayerDrop",
      "outputs": [],
      "stateMutability": "payable",
      "type": "function"
    },
    {
      "inputs": [
        {
          "internalType": "uint256",
          "name": "_playerDropId",
          "type": "uint256"
        },
        {
          "internalType": "bytes32[]",
          "name": "_proof",
          "type": "bytes32[]"
        },
        {
          "internalType": "string",
          "name": "_name",
          "type": "string"
        },
        {
          "internalType": "bool",
          "name": "_isMale",
          "type": "bool"
        }
      ],
      "name": "claimPlayerDropPaladin",
      "outputs": [],
      "stateMutability": "payable",
      "type": "function"
    },
    {
      "inputs": [
        {
          "internalType": "uint256",
          "name": "_playerDropId",
          "type": "uint256"
        },
        {
          "internalType": "address",
          "name": "_address",
          "type": "address"
        }
      ],
      "name": "claimedStatus",
      "outputs": [
        {
          "internalType": "bool",
          "name": "",
          "type": "bool"
        }
      ],
      "stateMutability": "view",
      "type": "function"
    },
    {
      "inputs": [
        {
          "internalType": "bytes32",
          "name": "_merkleRoot",
          "type": "bytes32"
        },
        {
          "internalType": "string",
          "name": "_name",
          "type": "string"
        },
        {
          "internalType": "uint256",
          "name": "_price",
          "type": "uint256"
        }
      ],
      "name": "createPlayerDrop",
      "outputs": [],
      "stateMutability": "nonpayable",
      "type": "function"
    },
    {
      "inputs": [
        {
          "internalType": "uint256",
          "name": "_playerDropId",
          "type": "uint256"
        }
      ],
      "name": "getPlayerDrop",
      "outputs": [
        {
          "components": [
            {
              "internalType": "uint256",
              "name": "id",
              "type": "uint256"
            },
            {
              "internalType": "uint256",
              "name": "price",
              "type": "uint256"
            },
            {
              "internalType": "bytes32",
              "name": "merkleRoot",
              "type": "bytes32"
            },
            {
              "internalType": "string",
              "name": "name",
              "type": "string"
            }
          ],
          "internalType": "struct PlayerDrop",
          "name": "",
          "type": "tuple"
        }
      ],
      "stateMutability": "view",
      "type": "function"
    },
    {
      "inputs": [
        {
          "internalType": "uint256",
          "name": "_playerDropId",
          "type": "uint256"
        }
      ],
      "name": "getPlayerDropMerkleRoot",
      "outputs": [
        {
          "internalType": "bytes32",
          "name": "",
          "type": "bytes32"
        }
      ],
      "stateMutability": "view",
      "type": "function"
    },
    {
      "inputs": [
        {
          "internalType": "string",
          "name": "_name",
          "type": "string"
        },
        {
          "internalType": "bool",
          "name": "_isMale",
          "type": "bool"
        }
      ],
      "name": "mintP",
      "outputs": [],
      "stateMutability": "nonpayable",
      "type": "function"
    },
    {
      "inputs": [
        {
          "internalType": "bytes32[]",
          "name": "_proof",
          "type": "bytes32[]"
        },
        {
          "internalType": "uint256",
          "name": "_playerDropId",
          "type": "uint256"
        },
        {
          "internalType": "address",
          "name": "_address",
          "type": "address"
        }
      ],
      "name": "verifyPlayerDropWhitelist",
      "outputs": [
        {
          "internalType": "bool",
          "name": "",
          "type": "bool"
        }
      ],
      "stateMutability": "view",
      "type": "function"
    }
  ],
  "bytecode": "0x608060405234801561001057600080fd5b506130bc806100206000396000f3fe6080604052600436106100865760003560e01c80639737f88a116100595780639737f88a1461014a578063a3308b2c14610166578063b53675261461018f578063c79cd39f146101ab578063e0a0a074146101e857610086565b80630b5fe5301461008b5780631b660e47146100c85780632dfc7abe146100f157806340d0bb7f1461012e575b600080fd5b34801561009757600080fd5b506100b260048036038101906100ad9190611f9c565b610225565b6040516100bf91906120e4565b60405180910390f35b3480156100d457600080fd5b506100ef60048036038101906100ea9190612267565b61023d565b005b3480156100fd57600080fd5b5061011860048036038101906101139190612334565b61029f565b604051610125919061238f565b60405180910390f35b610148600480360381019061014391906123aa565b6102b3565b005b610164600480360381019061015f9190612492565b610329565b005b34801561017257600080fd5b5061018d60048036038101906101889190612548565b6103c5565b005b6101a960048036038101906101a491906125a4565b6103d3565b005b3480156101b757600080fd5b506101d260048036038101906101cd9190612648565b61046d565b6040516101df919061238f565b60405180910390f35b3480156101f457600080fd5b5061020f600480360381019061020a9190611f9c565b610485565b60405161021c91906126cb565b60405180910390f35b61022d611f27565b61023682610497565b9050919050565b600073434d36f32abed3f7937fe0be88dc1b0eb938124490508073ffffffffffffffffffffffffffffffffffffffff163373ffffffffffffffffffffffffffffffffffffffff161461028e57600080fd5b610299848484610583565b50505050565b60006102ab8383610624565b905092915050565b6102bd828261069a565b600a3410156102cb57600080fd5b806040516102d99190612722565b6040518091039020823373ffffffffffffffffffffffffffffffffffffffff167fe4ce50a62b6cbb7d19acd75fd57f7e2588dd09705647d97993e2ece872c305b260405160405180910390a45050565b61033286610225565b6020015134101561034257600080fd5b60007308d8e680a2d295af8cbcd8b8e07f900275bc6b8d90508073ffffffffffffffffffffffffffffffffffffffff1661037b88610225565b60200151505061038f87878787878761094e565b867f9d3afc92396cc7c29a7a44c2e713f9efe3287517db4b2f9eea9f860204fd5baa60405160405180910390a250505050505050565b6103cf8282610b67565b5050565b6103dc85610225565b602001513410156103ec57600080fd5b60007308d8e680a2d295af8cbcd8b8e07f900275bc6b8d90508073ffffffffffffffffffffffffffffffffffffffff1661042587610225565b6020015150506104388686868686611087565b857f9d3afc92396cc7c29a7a44c2e713f9efe3287517db4b2f9eea9f860204fd5baa60405160405180910390a2505050505050565b600061047b8585858561130b565b9050949350505050565b6000610490826113b3565b9050919050565b61049f611f27565b60006104a96113e1565b90508060010160008481526020019081526020016000206040518060800160405290816000820154815260200160018201548152602001600282015481526020016003820180546104f990612768565b80601f016020809104026020016040519081016040528092919081815260200182805461052590612768565b80156105725780601f1061054757610100808354040283529160200191610572565b820191906000526020600020905b81548152906001019060200180831161055557829003601f168201915b505050505081525050915050919050565b600061058d6113e1565b90508060000160008154809291906105a4906127c8565b91905055506040518060800160405280826000015481526020018381526020018581526020018481525081600101600083600001548152602001908152602001600020600082015181600001556020820151816001015560408201518160020155606082015181600301908161061a91906129bc565b5090505050505050565b60008061062f6113e1565b905080600201600085815260200190815260200160002060008473ffffffffffffffffffffffffffffffffffffffff1673ffffffffffffffffffffffffffffffffffffffff16815260200190815260200160002060009054906101000a900460ff1691505092915050565b60006106a461140e565b90503373ffffffffffffffffffffffffffffffffffffffff1681600201600085815260200190815260200160002060009054906101000a900473ffffffffffffffffffffffffffffffffffffffff1673ffffffffffffffffffffffffffffffffffffffff161461071357600080fd5b80600601826040516107259190612722565b908152602001604051809103902060009054906101000a900460ff1615610781576040517f08c379a000000000000000000000000000000000000000000000000000000000815260040161077890612aeb565b60405180910390fd5b60038251116107c5576040517f08c379a00000000000000000000000000000000000000000000000000000000081526004016107bc90612b57565b60405180910390fd5b600a825110610809576040517f08c379a000000000000000000000000000000000000000000000000000000000815260040161080090612bc3565b60405180910390fd5b6000816003016000858152602001908152602001600020600f01805461082e90612768565b80601f016020809104026020016040519081016040528092919081815260200182805461085a90612768565b80156108a75780601f1061087c576101008083540402835291602001916108a7565b820191906000526020600020905b81548152906001019060200180831161088a57829003601f168201915b505050505090506000815111156108e95781600601816040516108ca9190612722565b908152602001604051809103902060006101000a81549060ff02191690555b82826003016000868152602001908152602001600020600f01908161090e91906129bc565b50600182600601846040516109239190612722565b908152602001604051809103902060006101000a81548160ff02191690831515021790555050505050565b60006109586113e1565b905080600201600088815260200190815260200160002060003373ffffffffffffffffffffffffffffffffffffffff1673ffffffffffffffffffffffffffffffffffffffff16815260200190815260200160002060009054906101000a900460ff16156109fa576040517f08c379a00000000000000000000000000000000000000000000000000000000081526004016109f190612c55565b60405180910390fd5b610a84868680806020026020016040519081016040528093929190818152602001838360200280828437600081840152601f19601f820116905080830192505050505050508260010160008a81526020019081526020016000206002015433604051602001610a699190612cbd565b6040516020818303038152906040528051906020012061143b565b610ac3576040517f08c379a0000000000000000000000000000000000000000000000000000000008152600401610aba90612d24565b60405180910390fd5b80600101600088815260200190815260200160002060010154341015610ae857600080fd5b600181600201600089815260200190815260200160002060003373ffffffffffffffffffffffffffffffffffffffff1673ffffffffffffffffffffffffffffffffffffffff16815260200190815260200160002060006101000a81548160ff021916908315150217905550610b5e848484611452565b50505050505050565b6000610b7161140e565b90508060060183604051610b859190612722565b908152602001604051809103902060009054906101000a900460ff1615610be1576040517f08c379a0000000000000000000000000000000000000000000000000000000008152600401610bd890612aeb565b60405180910390fd5b600a83511115610bf057600080fd5b600383511015610bff57600080fd5b806001016000815480929190610c14906127c8565b9190505550606082610c4157604051806080016040528060438152602001612fbe60439139905080610c5e565b604051806080016040528060438152602001613001604391399050805b50604051806102800160405280600181526020016000815260200160008152602001600d8152602001600d8152602001600d8152602001600d8152602001600d8152602001600d8152602001600d815260200160018152602001600181526020016001815260200160018152602001600d815260200185815260200182815260200184151581526020016040518060e0016040528060008152602001600081526020016000815260200160008152602001600081526020016000815260200160008152508152602001600381525082600301600084600101548152602001908152602001600020600082015181600001556020820151816001015560408201518160020155606082015181600301556080820151816004015560a0820151816005015560c0820151816006015560e082015181600701556101008201518160080155610120820151816009015561014082015181600a015561016082015181600b015561018082015181600c01556101a082015181600d01556101c082015181600e01556101e082015181600f019081610df891906129bc565b50610200820151816010019081610e0f91906129bc565b506102208201518160110160006101000a81548160ff02191690831515021790555061024082015181601201600082015181600001556020820151816001015560408201518160020155606082015181600301556080820151816004015560a0820151816005015560c08201518160060155505061026082015181601901559050506040518060e00160405280600081526020016000815260200160008152602001600081526020016000815260200160008152602001600081525082600801600084600101548152602001908152602001600020600082015181600001556020820151816001015560408201518160020155606082015181600301556080820151816004015560a0820151816005015560c0820151816006015590505060018260060185604051610f419190612722565b908152602001604051809103902060006101000a81548160ff021916908315150217905550338260020160008460010154815260200190815260200160002060006101000a81548173ffffffffffffffffffffffffffffffffffffffff021916908373ffffffffffffffffffffffffffffffffffffffff1602179055508160070160003373ffffffffffffffffffffffffffffffffffffffff1673ffffffffffffffffffffffffffffffffffffffff168152602001908152602001600020826001015490806001815401808255809150506001900390600052602060002001600090919091909150558160040160003373ffffffffffffffffffffffffffffffffffffffff1673ffffffffffffffffffffffffffffffffffffffff168152602001908152602001600020600081548092919061107c906127c8565b919050555050505050565b60006110916113e1565b905080600201600087815260200190815260200160002060003373ffffffffffffffffffffffffffffffffffffffff1673ffffffffffffffffffffffffffffffffffffffff16815260200190815260200160002060009054906101000a900460ff1615611133576040517f08c379a000000000000000000000000000000000000000000000000000000000815260040161112a90612c55565b60405180910390fd5b6111bd858580806020026020016040519081016040528093929190818152602001838360200280828437600081840152601f19601f8201169050808301925050505050505082600101600089815260200190815260200160002060020154336040516020016111a29190612cbd565b6040516020818303038152906040528051906020012061143b565b6111fc576040517f08c379a00000000000000000000000000000000000000000000000000000000081526004016111f390612d24565b60405180910390fd5b8060010160008781526020019081526020016000206001015434101561122157600080fd5b60405160200161123090612d90565b6040516020818303038152906040528051906020012081600101600088815260200190815260200160002060030160405160200161126e9190612e28565b604051602081830303815290604052805190602001201461128e57600080fd5b600181600201600088815260200190815260200160002060003373ffffffffffffffffffffffffffffffffffffffff1673ffffffffffffffffffffffffffffffffffffffff16815260200190815260200160002060006101000a81548160ff0219169083151502179055506113038383610b67565b505050505050565b6000806113166113e1565b905060008360405160200161132b9190612cbd565b6040516020818303038152906040528051906020012090506113a7878780806020026020016040519081016040528093929190818152602001838360200280828437600081840152601f19601f82011690508083019250505050505050836001016000888152602001908152602001600020600201548361143b565b92505050949350505050565b6000806113be6113e1565b905080600101600084815260200190815260200160002060020154915050919050565b6000807f19a7b6aa9ad98f2f267a375bb3e53168bb268f6ec190238c4ccf172054fde40a90508091505090565b6000807f3cab9a070a0c61cd0ae9d9e9e2c0781e5ca8691bec4087e5a4701d5ac018dd4e90508091505090565b6000826114488584611e8f565b1490509392505050565b600061145c61140e565b905080600601846040516114709190612722565b908152602001604051809103902060009054906101000a900460ff16156114cc576040517f08c379a00000000000000000000000000000000000000000000000000000000081526004016114c390612aeb565b60405180910390fd5b60028211156114da57600080fd5b600a845111156114e957600080fd5b6003845110156114f857600080fd5b80600101600081548092919061150d906127c8565b9190505550606060008303611796578361154257604051806080016040528060438152602001612ef56043913990508061155f565b604051806080016040528060438152602001613044604391399050805b50604051806102800160405280600181526020016000815260200160008152602001600b8152602001600c8152602001600c8152602001600a8152602001600a8152602001600a8152602001600a815260200160018152602001600181526020016001815260200160018152602001600b815260200186815260200182815260200185151581526020016040518060e00160405280600081526020016000815260200160008152602001600081526020016000815260200160008152602001600081525081526020018481525082600301600084600101548152602001908152602001600020600082015181600001556020820151816001015560408201518160020155606082015181600301556080820151816004015560a0820151816005015560c0820151816006015560e082015181600701556101008201518160080155610120820151816009015561014082015181600a015561016082015181600b015561018082015181600c01556101a082015181600d01556101c082015181600e01556101e082015181600f0190816116f891906129bc565b5061020082015181601001908161170f91906129bc565b506102208201518160110160006101000a81548160ff02191690831515021790555061024082015181601201600082015181600001556020820151816001015560408201518160020155606082015181600301556080820151816004015560a0820151816005015560c0820151816006015550506102608201518160190155905050611c98565b60018303611a1857836117c457604051806080016040528060438152602001612f7b604391399050806117e1565b604051806080016040528060438152602001612f38604391399050805b50604051806102800160405280600181526020016000815260200160008152602001600b8152602001600b8152602001600b8152602001600a8152602001600a8152602001600a8152602001600c815260200160018152602001600181526020016001815260200160018152602001600a815260200186815260200182815260200185151581526020016040518060e00160405280600081526020016000815260200160008152602001600081526020016000815260200160008152602001600081525081526020018481525082600301600084600101548152602001908152602001600020600082015181600001556020820151816001015560408201518160020155606082015181600301556080820151816004015560a0820151816005015560c0820151816006015560e082015181600701556101008201518160080155610120820151816009015561014082015181600a015561016082015181600b015561018082015181600c01556101a082015181600d01556101c082015181600e01556101e082015181600f01908161197a91906129bc565b5061020082015181601001908161199191906129bc565b506102208201518160110160006101000a81548160ff02191690831515021790555061024082015181601201600082015181600001556020820151816001015560408201518160020155606082015181600301556080820151816004015560a0820151816005015560c0820151816006015550506102608201518160190155905050611c97565b60028303611c965783611a4657604051806080016040528060438152602001612eb260439139905080611a63565b604051806080016040528060438152602001612e6f604391399050805b50604051806102800160405280600181526020016000815260200160008152602001600a8152602001600a8152602001600a8152602001600c8152602001600c8152602001600c8152602001600a815260200160018152602001600181526020016001815260200160018152602001600a815260200186815260200182815260200185151581526020016040518060e00160405280600081526020016000815260200160008152602001600081526020016000815260200160008152602001600081525081526020018481525082600301600084600101548152602001908152602001600020600082015181600001556020820151816001015560408201518160020155606082015181600301556080820151816004015560a0820151816005015560c0820151816006015560e082015181600701556101008201518160080155610120820151816009015561014082015181600a015561016082015181600b015561018082015181600c01556101a082015181600d01556101c082015181600e01556101e082015181600f019081611bfc91906129bc565b50610200820151816010019081611c1391906129bc565b506102208201518160110160006101000a81548160ff02191690831515021790555061024082015181601201600082015181600001556020820151816001015560408201518160020155606082015181600301556080820151816004015560a0820151816005015560c08201518160060155505061026082015181601901559050505b5b5b6040518060e00160405280600081526020016000815260200160008152602001600081526020016000815260200160008152602001600081525082600801600084600101548152602001908152602001600020600082015181600001556020820151816001015560408201518160020155606082015181600301556080820151816004015560a0820151816005015560c0820151816006015590505060018260060186604051611d489190612722565b908152602001604051809103902060006101000a81548160ff021916908315150217905550338260020160008460010154815260200190815260200160002060006101000a81548173ffffffffffffffffffffffffffffffffffffffff021916908373ffffffffffffffffffffffffffffffffffffffff1602179055508160070160003373ffffffffffffffffffffffffffffffffffffffff1673ffffffffffffffffffffffffffffffffffffffff168152602001908152602001600020826001015490806001815401808255809150506001900390600052602060002001600090919091909150558160040160003373ffffffffffffffffffffffffffffffffffffffff1673ffffffffffffffffffffffffffffffffffffffff1681526020019081526020016000206000815480929190611e83906127c8565b91905055505050505050565b60008082905060005b8451811015611eda57611ec582868381518110611eb857611eb7612e3f565b5b6020026020010151611ee5565b91508080611ed2906127c8565b915050611e98565b508091505092915050565b6000818310611efd57611ef88284611f10565b611f08565b611f078383611f10565b5b905092915050565b600082600052816020526040600020905092915050565b6040518060800160405280600081526020016000815260200160008019168152602001606081525090565b6000604051905090565b600080fd5b600080fd5b6000819050919050565b611f7981611f66565b8114611f8457600080fd5b50565b600081359050611f9681611f70565b92915050565b600060208284031215611fb257611fb1611f5c565b5b6000611fc084828501611f87565b91505092915050565b611fd281611f66565b82525050565b6000819050919050565b611feb81611fd8565b82525050565b600081519050919050565b600082825260208201905092915050565b60005b8381101561202b578082015181840152602081019050612010565b60008484015250505050565b6000601f19601f8301169050919050565b600061205382611ff1565b61205d8185611ffc565b935061206d81856020860161200d565b61207681612037565b840191505092915050565b60006080830160008301516120996000860182611fc9565b5060208301516120ac6020860182611fc9565b5060408301516120bf6040860182611fe2565b50606083015184820360608601526120d78282612048565b9150508091505092915050565b600060208201905081810360008301526120fe8184612081565b905092915050565b61210f81611fd8565b811461211a57600080fd5b50565b60008135905061212c81612106565b92915050565b600080fd5b600080fd5b7f4e487b7100000000000000000000000000000000000000000000000000000000600052604160045260246000fd5b61217482612037565b810181811067ffffffffffffffff821117156121935761219261213c565b5b80604052505050565b60006121a6611f52565b90506121b2828261216b565b919050565b600067ffffffffffffffff8211156121d2576121d161213c565b5b6121db82612037565b9050602081019050919050565b82818337600083830152505050565b600061220a612205846121b7565b61219c565b90508281526020810184848401111561222657612225612137565b5b6122318482856121e8565b509392505050565b600082601f83011261224e5761224d612132565b5b813561225e8482602086016121f7565b91505092915050565b6000806000606084860312156122805761227f611f5c565b5b600061228e8682870161211d565b935050602084013567ffffffffffffffff8111156122af576122ae611f61565b5b6122bb86828701612239565b92505060406122cc86828701611f87565b9150509250925092565b600073ffffffffffffffffffffffffffffffffffffffff82169050919050565b6000612301826122d6565b9050919050565b612311816122f6565b811461231c57600080fd5b50565b60008135905061232e81612308565b92915050565b6000806040838503121561234b5761234a611f5c565b5b600061235985828601611f87565b925050602061236a8582860161231f565b9150509250929050565b60008115159050919050565b61238981612374565b82525050565b60006020820190506123a46000830184612380565b92915050565b600080604083850312156123c1576123c0611f5c565b5b60006123cf85828601611f87565b925050602083013567ffffffffffffffff8111156123f0576123ef611f61565b5b6123fc85828601612239565b9150509250929050565b600080fd5b600080fd5b60008083601f84011261242657612425612132565b5b8235905067ffffffffffffffff81111561244357612442612406565b5b60208301915083602082028301111561245f5761245e61240b565b5b9250929050565b61246f81612374565b811461247a57600080fd5b50565b60008135905061248c81612466565b92915050565b60008060008060008060a087890312156124af576124ae611f5c565b5b60006124bd89828a01611f87565b965050602087013567ffffffffffffffff8111156124de576124dd611f61565b5b6124ea89828a01612410565b9550955050604087013567ffffffffffffffff81111561250d5761250c611f61565b5b61251989828a01612239565b935050606061252a89828a0161247d565b925050608061253b89828a01611f87565b9150509295509295509295565b6000806040838503121561255f5761255e611f5c565b5b600083013567ffffffffffffffff81111561257d5761257c611f61565b5b61258985828601612239565b925050602061259a8582860161247d565b9150509250929050565b6000806000806000608086880312156125c0576125bf611f5c565b5b60006125ce88828901611f87565b955050602086013567ffffffffffffffff8111156125ef576125ee611f61565b5b6125fb88828901612410565b9450945050604086013567ffffffffffffffff81111561261e5761261d611f61565b5b61262a88828901612239565b925050606061263b8882890161247d565b9150509295509295909350565b6000806000806060858703121561266257612661611f5c565b5b600085013567ffffffffffffffff8111156126805761267f611f61565b5b61268c87828801612410565b9450945050602061269f87828801611f87565b92505060406126b08782880161231f565b91505092959194509250565b6126c581611fd8565b82525050565b60006020820190506126e060008301846126bc565b92915050565b600081905092915050565b60006126fc82611ff1565b61270681856126e6565b935061271681856020860161200d565b80840191505092915050565b600061272e82846126f1565b915081905092915050565b7f4e487b7100000000000000000000000000000000000000000000000000000000600052602260045260246000fd5b6000600282049050600182168061278057607f821691505b60208210810361279357612792612739565b5b50919050565b7f4e487b7100000000000000000000000000000000000000000000000000000000600052601160045260246000fd5b60006127d382611f66565b91507fffffffffffffffffffffffffffffffffffffffffffffffffffffffffffffffff820361280557612804612799565b5b600182019050919050565b60008190508160005260206000209050919050565b60006020601f8301049050919050565b600082821b905092915050565b6000600883026128727fffffffffffffffffffffffffffffffffffffffffffffffffffffffffffffffff82612835565b61287c8683612835565b95508019841693508086168417925050509392505050565b6000819050919050565b60006128b96128b46128af84611f66565b612894565b611f66565b9050919050565b6000819050919050565b6128d38361289e565b6128e76128df826128c0565b848454612842565b825550505050565b600090565b6128fc6128ef565b6129078184846128ca565b505050565b5b8181101561292b576129206000826128f4565b60018101905061290d565b5050565b601f8211156129705761294181612810565b61294a84612825565b81016020851015612959578190505b61296d61296585612825565b83018261290c565b50505b505050565b600082821c905092915050565b600061299360001984600802612975565b1980831691505092915050565b60006129ac8383612982565b9150826002028217905092915050565b6129c582611ff1565b67ffffffffffffffff8111156129de576129dd61213c565b5b6129e88254612768565b6129f382828561292f565b600060209050601f831160018114612a265760008415612a14578287015190505b612a1e85826129a0565b865550612a86565b601f198416612a3486612810565b60005b82811015612a5c57848901518255600182019150602085019450602081019050612a37565b86831015612a795784890151612a75601f891682612982565b8355505b6001600288020188555050505b505050505050565b600082825260208201905092915050565b7f6e616d652069732074616b656e00000000000000000000000000000000000000600082015250565b6000612ad5600d83612a8e565b9150612ae082612a9f565b602082019050919050565b60006020820190508181036000830152612b0481612ac8565b9050919050565b7f43616e6e6f74207061737320616e20656d707479206861736800000000000000600082015250565b6000612b41601983612a8e565b9150612b4c82612b0b565b602082019050919050565b60006020820190508181036000830152612b7081612b34565b9050919050565b7f43616e6e6f74206265206c6f6e676572207468616e2031302063686172730000600082015250565b6000612bad601e83612a8e565b9150612bb882612b77565b602082019050919050565b60006020820190508181036000830152612bdc81612ba0565b9050919050565b7f416464726573732068617320616c726561647920636c61696d6564207468652060008201527f64726f7000000000000000000000000000000000000000000000000000000000602082015250565b6000612c3f602483612a8e565b9150612c4a82612be3565b604082019050919050565b60006020820190508181036000830152612c6e81612c32565b9050919050565b60008160601b9050919050565b6000612c8d82612c75565b9050919050565b6000612c9f82612c82565b9050919050565b612cb7612cb2826122f6565b612c94565b82525050565b6000612cc98284612ca6565b60148201915081905092915050565b7f496e76616c6964204d65726b6c652070726f6f66000000000000000000000000600082015250565b6000612d0e601483612a8e565b9150612d1982612cd8565b602082019050919050565b60006020820190508181036000830152612d3d81612d01565b9050919050565b7f5363726f6c6c0000000000000000000000000000000000000000000000000000600082015250565b6000612d7a6006836126e6565b9150612d8582612d44565b600682019050919050565b6000612d9b82612d6d565b9150819050919050565b60008154612db281612768565b612dbc81866126e6565b94506001821660008114612dd75760018114612dec57612e1f565b60ff1983168652811515820286019350612e1f565b612df585612810565b60005b83811015612e1757815481890152600182019150602081019050612df8565b838801955050505b50505092915050565b6000612e348284612da5565b915081905092915050565b7f4e487b7100000000000000000000000000000000000000000000000000000000600052603260045260246000fdfe68747470733a2f2f697066732e696f2f697066732f516d556257785564387358344d5a6f6a4b455255506d507539597441596659726f425334546531484a454b75637968747470733a2f2f697066732e696f2f697066732f516d625641427439734b704e55613844674d4a64653344424351796f72534354395631447a6436634a385a556d5068747470733a2f2f697066732e696f2f697066732f516d66424e4870787077554e67747736695842784b584c6256786f6d386d7064427367715a5a79353970524d354368747470733a2f2f697066732e696f2f697066732f516d5158655965397278526b6b716645423744725a52534732533179724e676a363456386d3676374b65747a516468747470733a2f2f697066732e696f2f697066732f516d55715a4b5275646e616e673147586244326e4848776d4a664e4e42465156646d6f483857416e65616969356868747470733a2f2f697066732e696f2f697066732f516d5269644a666766523656394c4276594136524b6f6a4450796b713547327a4c6e4e417841724c4d554d6e436468747470733a2f2f697066732e696f2f697066732f516d5751514c364e39416663713270646247766a61315456696943576b346b36764235564d433974634d4b63653968747470733a2f2f697066732e696f2f697066732f516d56357053734d47474d4c5733593979513871534c534d4451616b646e6a686a53346b356865366d4a79506548a2646970667358221220eb24ae3ba220ad3798661772300ed64a6c7c2598f918a8c7173f2388cc153ff664736f6c63430008120033",
  "linkReferences": {},
  "deployedLinkReferences": {}
}