{
  "_format": "hh-sol-artifact-1",
  "contractName": "PlayerDropFacet",
  "sourceName": "contracts/facets/PlayerDropFacet.sol",
  "abi": [
    {
      "anonymous": false,
      "inputs": [
        {
          "indexed": true,
          "internalType": "uint256",
          "name": "_playerDropId",
          "type": "uint256"
        }
      ],
      "name": "ClaimPlayer",
      "type": "event"
    },
    {
      "anonymous": false,
      "inputs": [
        {
          "indexed": true,
          "internalType": "uint256",
          "name": "id",
          "type": "uint256"
        },
        {
          "indexed": true,
          "internalType": "address",
          "name": "owner",
          "type": "address"
        },
        {
          "indexed": false,
          "internalType": "string",
          "name": "name",
          "type": "string"
        },
        {
          "indexed": false,
          "internalType": "uint256",
          "name": "_class",
          "type": "uint256"
        }
      ],
      "name": "Mint",
      "type": "event"
    },
    {
      "anonymous": false,
      "inputs": [
        {
          "indexed": true,
          "internalType": "address",
          "name": "owner",
          "type": "address"
        },
        {
          "indexed": true,
          "internalType": "uint256",
          "name": "id",
          "type": "uint256"
        },
        {
          "indexed": true,
          "internalType": "string",
          "name": "newName",
          "type": "string"
        }
      ],
      "name": "NameChange",
      "type": "event"
    },
    {
      "inputs": [
        {
          "internalType": "uint256",
          "name": "_id",
          "type": "uint256"
        },
        {
          "internalType": "string",
          "name": "_newName",
          "type": "string"
        }
      ],
      "name": "changeNameFee",
      "outputs": [],
      "stateMutability": "payable",
      "type": "function"
    },
    {
      "inputs": [
        {
          "internalType": "uint256",
          "name": "_playerDropId",
          "type": "uint256"
        },
        {
          "internalType": "bytes32[]",
          "name": "_proof",
          "type": "bytes32[]"
        },
        {
          "internalType": "string",
          "name": "_name",
          "type": "string"
        },
        {
          "internalType": "bool",
          "name": "_isMale",
          "type": "bool"
        },
        {
          "internalType": "uint256",
          "name": "_class",
          "type": "uint256"
        }
      ],
      "name": "claimPlayerDrop",
      "outputs": [],
      "stateMutability": "payable",
      "type": "function"
    },
    {
      "inputs": [
        {
          "internalType": "uint256",
          "name": "_playerDropId",
          "type": "uint256"
        },
        {
          "internalType": "address",
          "name": "_address",
          "type": "address"
        }
      ],
      "name": "claimedStatus",
      "outputs": [
        {
          "internalType": "bool",
          "name": "",
          "type": "bool"
        }
      ],
      "stateMutability": "view",
      "type": "function"
    },
    {
      "inputs": [
        {
          "internalType": "bytes32",
          "name": "_merkleRoot",
          "type": "bytes32"
        },
        {
          "internalType": "string",
          "name": "_name",
          "type": "string"
        },
        {
          "internalType": "uint256",
          "name": "_price",
          "type": "uint256"
        }
      ],
      "name": "createPlayerDrop",
      "outputs": [],
      "stateMutability": "nonpayable",
      "type": "function"
    },
    {
      "inputs": [
        {
          "internalType": "uint256",
          "name": "_playerDropId",
          "type": "uint256"
        }
      ],
      "name": "getPlayerDrop",
      "outputs": [
        {
          "components": [
            {
              "internalType": "uint256",
              "name": "id",
              "type": "uint256"
            },
            {
              "internalType": "uint256",
              "name": "price",
              "type": "uint256"
            },
            {
              "internalType": "bytes32",
              "name": "merkleRoot",
              "type": "bytes32"
            },
            {
              "internalType": "string",
              "name": "name",
              "type": "string"
            }
          ],
          "internalType": "struct PlayerDrop",
          "name": "",
          "type": "tuple"
        }
      ],
      "stateMutability": "view",
      "type": "function"
    },
    {
      "inputs": [
        {
          "internalType": "uint256",
          "name": "_playerDropId",
          "type": "uint256"
        }
      ],
      "name": "getPlayerDropMerkleRoot",
      "outputs": [
        {
          "internalType": "bytes32",
          "name": "",
          "type": "bytes32"
        }
      ],
      "stateMutability": "view",
      "type": "function"
    },
    {
      "inputs": [
        {
          "internalType": "bytes32[]",
          "name": "_proof",
          "type": "bytes32[]"
        },
        {
          "internalType": "uint256",
          "name": "_playerDropId",
          "type": "uint256"
        },
        {
          "internalType": "address",
          "name": "_address",
          "type": "address"
        }
      ],
      "name": "verifyPlayerDropWhitelist",
      "outputs": [
        {
          "internalType": "bool",
          "name": "",
          "type": "bool"
        }
      ],
      "stateMutability": "view",
      "type": "function"
    }
  ],
  "bytecode": "0x608060405234801561001057600080fd5b50612542806100206000396000f3fe6080604052600436106100705760003560e01c806340d0bb7f1161004e57806340d0bb7f146101185780639737f88a14610134578063c79cd39f14610150578063e0a0a0741461018d57610070565b80630b5fe530146100755780631b660e47146100b25780632dfc7abe146100db575b600080fd5b34801561008157600080fd5b5061009c600480360381019061009791906116a3565b6101ca565b6040516100a991906117eb565b60405180910390f35b3480156100be57600080fd5b506100d960048036038101906100d4919061196e565b6101e2565b005b3480156100e757600080fd5b5061010260048036038101906100fd9190611a3b565b6101f2565b60405161010f9190611a96565b60405180910390f35b610132600480360381019061012d9190611ab1565b610206565b005b61014e60048036038101906101499190611b99565b61027c565b005b34801561015c57600080fd5b5061017760048036038101906101729190611c4f565b610318565b6040516101849190611a96565b60405180910390f35b34801561019957600080fd5b506101b460048036038101906101af91906116a3565b610330565b6040516101c19190611cd2565b60405180910390f35b6101d261162e565b6101db82610342565b9050919050565b6101ed83838361042e565b505050565b60006101fe83836104cf565b905092915050565b6102108282610545565b600a34101561021e57600080fd5b8060405161022c9190611d29565b6040518091039020823373ffffffffffffffffffffffffffffffffffffffff167fe4ce50a62b6cbb7d19acd75fd57f7e2588dd09705647d97993e2ece872c305b260405160405180910390a45050565b610285866101ca565b6020015134101561029557600080fd5b60007308d8e680a2d295af8cbcd8b8e07f900275bc6b8d90508073ffffffffffffffffffffffffffffffffffffffff166102ce886101ca565b6020015150506102e28787878787876107f9565b867f9d3afc92396cc7c29a7a44c2e713f9efe3287517db4b2f9eea9f860204fd5baa60405160405180910390a250505050505050565b600061032685858585610a12565b9050949350505050565b600061033b82610aba565b9050919050565b61034a61162e565b6000610354610ae8565b90508060010160008481526020019081526020016000206040518060800160405290816000820154815260200160018201548152602001600282015481526020016003820180546103a490611d6f565b80601f01602080910402602001604051908101604052809291908181526020018280546103d090611d6f565b801561041d5780601f106103f25761010080835404028352916020019161041d565b820191906000526020600020905b81548152906001019060200180831161040057829003601f168201915b505050505081525050915050919050565b6000610438610ae8565b905080600001600081548092919061044f90611dcf565b9190505550604051806080016040528082600001548152602001838152602001858152602001848152508160010160008360000154815260200190815260200160002060008201518160000155602082015181600101556040820151816002015560608201518160030190816104c59190611fc3565b5090505050505050565b6000806104da610ae8565b905080600201600085815260200190815260200160002060008473ffffffffffffffffffffffffffffffffffffffff1673ffffffffffffffffffffffffffffffffffffffff16815260200190815260200160002060009054906101000a900460ff1691505092915050565b600061054f610b15565b90503373ffffffffffffffffffffffffffffffffffffffff1681600201600085815260200190815260200160002060009054906101000a900473ffffffffffffffffffffffffffffffffffffffff1673ffffffffffffffffffffffffffffffffffffffff16146105be57600080fd5b80600601826040516105d09190611d29565b908152602001604051809103902060009054906101000a900460ff161561062c576040517f08c379a0000000000000000000000000000000000000000000000000000000008152600401610623906120f2565b60405180910390fd5b6003825111610670576040517f08c379a00000000000000000000000000000000000000000000000000000000081526004016106679061215e565b60405180910390fd5b600a8251106106b4576040517f08c379a00000000000000000000000000000000000000000000000000000000081526004016106ab906121ca565b60405180910390fd5b6000816003016000858152602001908152602001600020600f0180546106d990611d6f565b80601f016020809104026020016040519081016040528092919081815260200182805461070590611d6f565b80156107525780601f1061072757610100808354040283529160200191610752565b820191906000526020600020905b81548152906001019060200180831161073557829003601f168201915b505050505090506000815111156107945781600601816040516107759190611d29565b908152602001604051809103902060006101000a81549060ff02191690555b82826003016000868152602001908152602001600020600f0190816107b99190611fc3565b50600182600601846040516107ce9190611d29565b908152602001604051809103902060006101000a81548160ff02191690831515021790555050505050565b6000610803610ae8565b905080600201600088815260200190815260200160002060003373ffffffffffffffffffffffffffffffffffffffff1673ffffffffffffffffffffffffffffffffffffffff16815260200190815260200160002060009054906101000a900460ff16156108a5576040517f08c379a000000000000000000000000000000000000000000000000000000000815260040161089c9061225c565b60405180910390fd5b61092f868680806020026020016040519081016040528093929190818152602001838360200280828437600081840152601f19601f820116905080830192505050505050508260010160008a8152602001908152602001600020600201543360405160200161091491906122c4565b60405160208183030381529060405280519060200120610b42565b61096e576040517f08c379a00000000000000000000000000000000000000000000000000000000081526004016109659061232b565b60405180910390fd5b8060010160008881526020019081526020016000206001015434101561099357600080fd5b600181600201600089815260200190815260200160002060003373ffffffffffffffffffffffffffffffffffffffff1673ffffffffffffffffffffffffffffffffffffffff16815260200190815260200160002060006101000a81548160ff021916908315150217905550610a09848484610b59565b50505050505050565b600080610a1d610ae8565b9050600083604051602001610a3291906122c4565b604051602081830303815290604052805190602001209050610aae878780806020026020016040519081016040528093929190818152602001838360200280828437600081840152601f19601f820116905080830192505050505050508360010160008881526020019081526020016000206002015483610b42565b92505050949350505050565b600080610ac5610ae8565b905080600101600084815260200190815260200160002060020154915050919050565b6000807f19a7b6aa9ad98f2f267a375bb3e53168bb268f6ec190238c4ccf172054fde40a90508091505090565b6000807f3cab9a070a0c61cd0ae9d9e9e2c0781e5ca8691bec4087e5a4701d5ac018dd4e90508091505090565b600082610b4f8584611596565b1490509392505050565b6000610b63610b15565b90508060060184604051610b779190611d29565b908152602001604051809103902060009054906101000a900460ff1615610bd3576040517f08c379a0000000000000000000000000000000000000000000000000000000008152600401610bca906120f2565b60405180910390fd5b6002821115610be157600080fd5b600a84511115610bf057600080fd5b600384511015610bff57600080fd5b806001016000815480929190610c1490611dcf565b9190505550606060008303610e9d5783610c495760405180608001604052806043815260200161240160439139905080610c66565b6040518060800160405280604381526020016124ca604391399050805b50604051806102800160405280600181526020016000815260200160008152602001600b8152602001600c8152602001600c8152602001600a8152602001600a8152602001600a8152602001600a815260200160018152602001600181526020016001815260200160018152602001600b815260200186815260200182815260200185151581526020016040518060e00160405280600081526020016000815260200160008152602001600081526020016000815260200160008152602001600081525081526020018481525082600301600084600101548152602001908152602001600020600082015181600001556020820151816001015560408201518160020155606082015181600301556080820151816004015560a0820151816005015560c0820151816006015560e082015181600701556101008201518160080155610120820151816009015561014082015181600a015561016082015181600b015561018082015181600c01556101a082015181600d01556101c082015181600e01556101e082015181600f019081610dff9190611fc3565b50610200820151816010019081610e169190611fc3565b506102208201518160110160006101000a81548160ff02191690831515021790555061024082015181601201600082015181600001556020820151816001015560408201518160020155606082015181600301556080820151816004015560a0820151816005015560c082015181600601555050610260820151816019015590505061139f565b6001830361111f5783610ecb5760405180608001604052806043815260200161248760439139905080610ee8565b604051806080016040528060438152602001612444604391399050805b50604051806102800160405280600181526020016000815260200160008152602001600b8152602001600b8152602001600b8152602001600a8152602001600a8152602001600a8152602001600c815260200160018152602001600181526020016001815260200160018152602001600a815260200186815260200182815260200185151581526020016040518060e00160405280600081526020016000815260200160008152602001600081526020016000815260200160008152602001600081525081526020018481525082600301600084600101548152602001908152602001600020600082015181600001556020820151816001015560408201518160020155606082015181600301556080820151816004015560a0820151816005015560c0820151816006015560e082015181600701556101008201518160080155610120820151816009015561014082015181600a015561016082015181600b015561018082015181600c01556101a082015181600d01556101c082015181600e01556101e082015181600f0190816110819190611fc3565b506102008201518160100190816110989190611fc3565b506102208201518160110160006101000a81548160ff02191690831515021790555061024082015181601201600082015181600001556020820151816001015560408201518160020155606082015181600301556080820151816004015560a0820151816005015560c082015181600601555050610260820151816019015590505061139e565b6002830361139d578361114d576040518060800160405280604381526020016123be6043913990508061116a565b60405180608001604052806043815260200161237b604391399050805b50604051806102800160405280600181526020016000815260200160008152602001600a8152602001600a8152602001600a8152602001600c8152602001600c8152602001600c8152602001600a815260200160018152602001600181526020016001815260200160018152602001600a815260200186815260200182815260200185151581526020016040518060e00160405280600081526020016000815260200160008152602001600081526020016000815260200160008152602001600081525081526020018481525082600301600084600101548152602001908152602001600020600082015181600001556020820151816001015560408201518160020155606082015181600301556080820151816004015560a0820151816005015560c0820151816006015560e082015181600701556101008201518160080155610120820151816009015561014082015181600a015561016082015181600b015561018082015181600c01556101a082015181600d01556101c082015181600e01556101e082015181600f0190816113039190611fc3565b5061020082015181601001908161131a9190611fc3565b506102208201518160110160006101000a81548160ff02191690831515021790555061024082015181601201600082015181600001556020820151816001015560408201518160020155606082015181600301556080820151816004015560a0820151816005015560c08201518160060155505061026082015181601901559050505b5b5b6040518060e00160405280600081526020016000815260200160008152602001600081526020016000815260200160008152602001600081525082600801600084600101548152602001908152602001600020600082015181600001556020820151816001015560408201518160020155606082015181600301556080820151816004015560a0820151816005015560c082015181600601559050506001826006018660405161144f9190611d29565b908152602001604051809103902060006101000a81548160ff021916908315150217905550338260020160008460010154815260200190815260200160002060006101000a81548173ffffffffffffffffffffffffffffffffffffffff021916908373ffffffffffffffffffffffffffffffffffffffff1602179055508160070160003373ffffffffffffffffffffffffffffffffffffffff1673ffffffffffffffffffffffffffffffffffffffff168152602001908152602001600020826001015490806001815401808255809150506001900390600052602060002001600090919091909150558160040160003373ffffffffffffffffffffffffffffffffffffffff1673ffffffffffffffffffffffffffffffffffffffff168152602001908152602001600020600081548092919061158a90611dcf565b91905055505050505050565b60008082905060005b84518110156115e1576115cc828683815181106115bf576115be61234b565b5b60200260200101516115ec565b915080806115d990611dcf565b91505061159f565b508091505092915050565b6000818310611604576115ff8284611617565b61160f565b61160e8383611617565b5b905092915050565b600082600052816020526040600020905092915050565b6040518060800160405280600081526020016000815260200160008019168152602001606081525090565b6000604051905090565b600080fd5b600080fd5b6000819050919050565b6116808161166d565b811461168b57600080fd5b50565b60008135905061169d81611677565b92915050565b6000602082840312156116b9576116b8611663565b5b60006116c78482850161168e565b91505092915050565b6116d98161166d565b82525050565b6000819050919050565b6116f2816116df565b82525050565b600081519050919050565b600082825260208201905092915050565b60005b83811015611732578082015181840152602081019050611717565b60008484015250505050565b6000601f19601f8301169050919050565b600061175a826116f8565b6117648185611703565b9350611774818560208601611714565b61177d8161173e565b840191505092915050565b60006080830160008301516117a060008601826116d0565b5060208301516117b360208601826116d0565b5060408301516117c660408601826116e9565b50606083015184820360608601526117de828261174f565b9150508091505092915050565b600060208201905081810360008301526118058184611788565b905092915050565b611816816116df565b811461182157600080fd5b50565b6000813590506118338161180d565b92915050565b600080fd5b600080fd5b7f4e487b7100000000000000000000000000000000000000000000000000000000600052604160045260246000fd5b61187b8261173e565b810181811067ffffffffffffffff8211171561189a57611899611843565b5b80604052505050565b60006118ad611659565b90506118b98282611872565b919050565b600067ffffffffffffffff8211156118d9576118d8611843565b5b6118e28261173e565b9050602081019050919050565b82818337600083830152505050565b600061191161190c846118be565b6118a3565b90508281526020810184848401111561192d5761192c61183e565b5b6119388482856118ef565b509392505050565b600082601f83011261195557611954611839565b5b81356119658482602086016118fe565b91505092915050565b60008060006060848603121561198757611986611663565b5b600061199586828701611824565b935050602084013567ffffffffffffffff8111156119b6576119b5611668565b5b6119c286828701611940565b92505060406119d38682870161168e565b9150509250925092565b600073ffffffffffffffffffffffffffffffffffffffff82169050919050565b6000611a08826119dd565b9050919050565b611a18816119fd565b8114611a2357600080fd5b50565b600081359050611a3581611a0f565b92915050565b60008060408385031215611a5257611a51611663565b5b6000611a608582860161168e565b9250506020611a7185828601611a26565b9150509250929050565b60008115159050919050565b611a9081611a7b565b82525050565b6000602082019050611aab6000830184611a87565b92915050565b60008060408385031215611ac857611ac7611663565b5b6000611ad68582860161168e565b925050602083013567ffffffffffffffff811115611af757611af6611668565b5b611b0385828601611940565b9150509250929050565b600080fd5b600080fd5b60008083601f840112611b2d57611b2c611839565b5b8235905067ffffffffffffffff811115611b4a57611b49611b0d565b5b602083019150836020820283011115611b6657611b65611b12565b5b9250929050565b611b7681611a7b565b8114611b8157600080fd5b50565b600081359050611b9381611b6d565b92915050565b60008060008060008060a08789031215611bb657611bb5611663565b5b6000611bc489828a0161168e565b965050602087013567ffffffffffffffff811115611be557611be4611668565b5b611bf189828a01611b17565b9550955050604087013567ffffffffffffffff811115611c1457611c13611668565b5b611c2089828a01611940565b9350506060611c3189828a01611b84565b9250506080611c4289828a0161168e565b9150509295509295509295565b60008060008060608587031215611c6957611c68611663565b5b600085013567ffffffffffffffff811115611c8757611c86611668565b5b611c9387828801611b17565b94509450506020611ca68782880161168e565b9250506040611cb787828801611a26565b91505092959194509250565b611ccc816116df565b82525050565b6000602082019050611ce76000830184611cc3565b92915050565b600081905092915050565b6000611d03826116f8565b611d0d8185611ced565b9350611d1d818560208601611714565b80840191505092915050565b6000611d358284611cf8565b915081905092915050565b7f4e487b7100000000000000000000000000000000000000000000000000000000600052602260045260246000fd5b60006002820490506001821680611d8757607f821691505b602082108103611d9a57611d99611d40565b5b50919050565b7f4e487b7100000000000000000000000000000000000000000000000000000000600052601160045260246000fd5b6000611dda8261166d565b91507fffffffffffffffffffffffffffffffffffffffffffffffffffffffffffffffff8203611e0c57611e0b611da0565b5b600182019050919050565b60008190508160005260206000209050919050565b60006020601f8301049050919050565b600082821b905092915050565b600060088302611e797fffffffffffffffffffffffffffffffffffffffffffffffffffffffffffffffff82611e3c565b611e838683611e3c565b95508019841693508086168417925050509392505050565b6000819050919050565b6000611ec0611ebb611eb68461166d565b611e9b565b61166d565b9050919050565b6000819050919050565b611eda83611ea5565b611eee611ee682611ec7565b848454611e49565b825550505050565b600090565b611f03611ef6565b611f0e818484611ed1565b505050565b5b81811015611f3257611f27600082611efb565b600181019050611f14565b5050565b601f821115611f7757611f4881611e17565b611f5184611e2c565b81016020851015611f60578190505b611f74611f6c85611e2c565b830182611f13565b50505b505050565b600082821c905092915050565b6000611f9a60001984600802611f7c565b1980831691505092915050565b6000611fb38383611f89565b9150826002028217905092915050565b611fcc826116f8565b67ffffffffffffffff811115611fe557611fe4611843565b5b611fef8254611d6f565b611ffa828285611f36565b600060209050601f83116001811461202d576000841561201b578287015190505b6120258582611fa7565b86555061208d565b601f19841661203b86611e17565b60005b828110156120635784890151825560018201915060208501945060208101905061203e565b86831015612080578489015161207c601f891682611f89565b8355505b6001600288020188555050505b505050505050565b600082825260208201905092915050565b7f6e616d652069732074616b656e00000000000000000000000000000000000000600082015250565b60006120dc600d83612095565b91506120e7826120a6565b602082019050919050565b6000602082019050818103600083015261210b816120cf565b9050919050565b7f43616e6e6f74207061737320616e20656d707479206861736800000000000000600082015250565b6000612148601983612095565b915061215382612112565b602082019050919050565b600060208201905081810360008301526121778161213b565b9050919050565b7f43616e6e6f74206265206c6f6e676572207468616e2031302063686172730000600082015250565b60006121b4601e83612095565b91506121bf8261217e565b602082019050919050565b600060208201905081810360008301526121e3816121a7565b9050919050565b7f416464726573732068617320616c726561647920636c61696d6564207468652060008201527f64726f7000000000000000000000000000000000000000000000000000000000602082015250565b6000612246602483612095565b9150612251826121ea565b604082019050919050565b6000602082019050818103600083015261227581612239565b9050919050565b60008160601b9050919050565b60006122948261227c565b9050919050565b60006122a682612289565b9050919050565b6122be6122b9826119fd565b61229b565b82525050565b60006122d082846122ad565b60148201915081905092915050565b7f496e76616c6964204d65726b6c652070726f6f66000000000000000000000000600082015250565b6000612315601483612095565b9150612320826122df565b602082019050919050565b6000602082019050818103600083015261234481612308565b9050919050565b7f4e487b7100000000000000000000000000000000000000000000000000000000600052603260045260246000fdfe68747470733a2f2f697066732e696f2f697066732f516d556257785564387358344d5a6f6a4b455255506d507539597441596659726f425334546531484a454b75637968747470733a2f2f697066732e696f2f697066732f516d625641427439734b704e55613844674d4a64653344424351796f72534354395631447a6436634a385a556d5068747470733a2f2f697066732e696f2f697066732f516d66424e4870787077554e67747736695842784b584c6256786f6d386d7064427367715a5a79353970524d354368747470733a2f2f697066732e696f2f697066732f516d5158655965397278526b6b716645423744725a52534732533179724e676a363456386d3676374b65747a516468747470733a2f2f697066732e696f2f697066732f516d55715a4b5275646e616e673147586244326e4848776d4a664e4e42465156646d6f483857416e65616969356868747470733a2f2f697066732e696f2f697066732f516d56357053734d47474d4c5733593979513871534c534d4451616b646e6a686a53346b356865366d4a79506548a264697066735822122031ccd897e30347f37357ac484f392cc94bf0f6176262b46fe0bded66ef1ea5b564736f6c63430008120033",
  "linkReferences": {},
  "deployedLinkReferences": {}
}