{
  "_format": "hh-sol-artifact-1",
  "contractName": "PlayerDropFacet",
  "sourceName": "contracts/facets/PlayerDropFacet.sol",
  "abi": [
    {
      "anonymous": false,
      "inputs": [
        {
          "indexed": true,
          "internalType": "uint256",
          "name": "_playerDropId",
          "type": "uint256"
        }
      ],
      "name": "ClaimPlayer",
      "type": "event"
    },
    {
      "anonymous": false,
      "inputs": [
        {
          "indexed": true,
          "internalType": "uint256",
          "name": "id",
          "type": "uint256"
        },
        {
          "indexed": true,
          "internalType": "address",
          "name": "owner",
          "type": "address"
        },
        {
          "indexed": false,
          "internalType": "string",
          "name": "name",
          "type": "string"
        },
        {
          "indexed": false,
          "internalType": "uint256",
          "name": "_class",
          "type": "uint256"
        }
      ],
      "name": "Mint",
      "type": "event"
    },
    {
      "anonymous": false,
      "inputs": [
        {
          "indexed": true,
          "internalType": "address",
          "name": "owner",
          "type": "address"
        },
        {
          "indexed": true,
          "internalType": "uint256",
          "name": "id",
          "type": "uint256"
        },
        {
          "indexed": true,
          "internalType": "string",
          "name": "newName",
          "type": "string"
        }
      ],
      "name": "NameChange",
      "type": "event"
    },
    {
      "inputs": [
        {
          "internalType": "uint256",
          "name": "_id",
          "type": "uint256"
        },
        {
          "internalType": "string",
          "name": "_newName",
          "type": "string"
        }
      ],
      "name": "changeNameFee",
      "outputs": [],
      "stateMutability": "payable",
      "type": "function"
    },
    {
      "inputs": [
        {
          "internalType": "uint256",
          "name": "_playerDropId",
          "type": "uint256"
        },
        {
          "internalType": "bytes32[]",
          "name": "_proof",
          "type": "bytes32[]"
        },
        {
          "internalType": "string",
          "name": "_name",
          "type": "string"
        },
        {
          "internalType": "bool",
          "name": "_isMale",
          "type": "bool"
        },
        {
          "internalType": "uint256",
          "name": "_class",
          "type": "uint256"
        }
      ],
      "name": "claimPlayerDrop",
      "outputs": [],
      "stateMutability": "payable",
      "type": "function"
    },
    {
      "inputs": [
        {
          "internalType": "uint256",
          "name": "_playerDropId",
          "type": "uint256"
        },
        {
          "internalType": "bytes32[]",
          "name": "_proof",
          "type": "bytes32[]"
        },
        {
          "internalType": "string",
          "name": "_name",
          "type": "string"
        },
        {
          "internalType": "bool",
          "name": "_isMale",
          "type": "bool"
        }
      ],
      "name": "claimPlayerDropPaladin",
      "outputs": [],
      "stateMutability": "payable",
      "type": "function"
    },
    {
      "inputs": [
        {
          "internalType": "uint256",
          "name": "_playerDropId",
          "type": "uint256"
        },
        {
          "internalType": "address",
          "name": "_address",
          "type": "address"
        }
      ],
      "name": "claimedStatus",
      "outputs": [
        {
          "internalType": "bool",
          "name": "",
          "type": "bool"
        }
      ],
      "stateMutability": "view",
      "type": "function"
    },
    {
      "inputs": [
        {
          "internalType": "bytes32",
          "name": "_merkleRoot",
          "type": "bytes32"
        },
        {
          "internalType": "string",
          "name": "_name",
          "type": "string"
        },
        {
          "internalType": "uint256",
          "name": "_price",
          "type": "uint256"
        }
      ],
      "name": "createPlayerDrop",
      "outputs": [],
      "stateMutability": "nonpayable",
      "type": "function"
    },
    {
      "inputs": [
        {
          "internalType": "uint256",
          "name": "_playerDropId",
          "type": "uint256"
        }
      ],
      "name": "getPlayerDrop",
      "outputs": [
        {
          "components": [
            {
              "internalType": "uint256",
              "name": "id",
              "type": "uint256"
            },
            {
              "internalType": "uint256",
              "name": "price",
              "type": "uint256"
            },
            {
              "internalType": "bytes32",
              "name": "merkleRoot",
              "type": "bytes32"
            },
            {
              "internalType": "string",
              "name": "name",
              "type": "string"
            }
          ],
          "internalType": "struct PlayerDrop",
          "name": "",
          "type": "tuple"
        }
      ],
      "stateMutability": "view",
      "type": "function"
    },
    {
      "inputs": [
        {
          "internalType": "uint256",
          "name": "_playerDropId",
          "type": "uint256"
        }
      ],
      "name": "getPlayerDropMerkleRoot",
      "outputs": [
        {
          "internalType": "bytes32",
          "name": "",
          "type": "bytes32"
        }
      ],
      "stateMutability": "view",
      "type": "function"
    },
    {
      "inputs": [
        {
          "internalType": "bytes32[]",
          "name": "_proof",
          "type": "bytes32[]"
        },
        {
          "internalType": "uint256",
          "name": "_playerDropId",
          "type": "uint256"
        },
        {
          "internalType": "address",
          "name": "_address",
          "type": "address"
        }
      ],
      "name": "verifyPlayerDropWhitelist",
      "outputs": [
        {
          "internalType": "bool",
          "name": "",
          "type": "bool"
        }
      ],
      "stateMutability": "view",
      "type": "function"
    }
  ],
  "bytecode": "0x608060405234801561001057600080fd5b5061315a806100206000396000f3fe60806040526004361061007b5760003560e01c80639737f88a1161004e5780639737f88a1461013f578063b53675261461015b578063c79cd39f14610177578063e0a0a074146101b45761007b565b80630b5fe530146100805780631b660e47146100bd5780632dfc7abe146100e657806340d0bb7f14610123575b600080fd5b34801561008c57600080fd5b506100a760048036038101906100a29190611fe4565b6101f1565b6040516100b4919061212c565b60405180910390f35b3480156100c957600080fd5b506100e460048036038101906100df91906122af565b610209565b005b3480156100f257600080fd5b5061010d6004803603810190610108919061237c565b61026b565b60405161011a91906123d7565b60405180910390f35b61013d600480360381019061013891906123f2565b61027f565b005b610159600480360381019061015491906124da565b6102f5565b005b61017560048036038101906101709190612590565b610391565b005b34801561018357600080fd5b5061019e60048036038101906101999190612634565b6104b5565b6040516101ab91906123d7565b60405180910390f35b3480156101c057600080fd5b506101db60048036038101906101d69190611fe4565b6104cd565b6040516101e891906126b7565b60405180910390f35b6101f9611f6f565b610202826104df565b9050919050565b600073434d36f32abed3f7937fe0be88dc1b0eb938124490508073ffffffffffffffffffffffffffffffffffffffff163373ffffffffffffffffffffffffffffffffffffffff161461025a57600080fd5b6102658484846105cb565b50505050565b6000610277838361066c565b905092915050565b61028982826106e2565b600a34101561029757600080fd5b806040516102a5919061270e565b6040518091039020823373ffffffffffffffffffffffffffffffffffffffff167fe4ce50a62b6cbb7d19acd75fd57f7e2588dd09705647d97993e2ece872c305b260405160405180910390a45050565b6102fe866101f1565b6020015134101561030e57600080fd5b60007308d8e680a2d295af8cbcd8b8e07f900275bc6b8d90508073ffffffffffffffffffffffffffffffffffffffff16610347886101f1565b60200151505061035b878787878787610996565b867f9d3afc92396cc7c29a7a44c2e713f9efe3287517db4b2f9eea9f860204fd5baa60405160405180910390a250505050505050565b61039a856101f1565b602001513410156103aa57600080fd5b60007308d8e680a2d295af8cbcd8b8e07f900275bc6b8d90506000808273ffffffffffffffffffffffffffffffffffffffff16346040516103ea90612756565b60006040518083038185875af1925050503d8060008114610427576040519150601f19603f3d011682016040523d82523d6000602084013e61042c565b606091505b509150915081610471576040517f08c379a0000000000000000000000000000000000000000000000000000000008152600401610468906127c8565b60405180910390fd5b61047e8888888888610baf565b877f9d3afc92396cc7c29a7a44c2e713f9efe3287517db4b2f9eea9f860204fd5baa60405160405180910390a25050505050505050565b60006104c385858585610e33565b9050949350505050565b60006104d882610edb565b9050919050565b6104e7611f6f565b60006104f1610f09565b905080600101600084815260200190815260200160002060405180608001604052908160008201548152602001600182015481526020016002820154815260200160038201805461054190612817565b80601f016020809104026020016040519081016040528092919081815260200182805461056d90612817565b80156105ba5780601f1061058f576101008083540402835291602001916105ba565b820191906000526020600020905b81548152906001019060200180831161059d57829003601f168201915b505050505081525050915050919050565b60006105d5610f09565b90508060000160008154809291906105ec90612877565b9190505550604051806080016040528082600001548152602001838152602001858152602001848152508160010160008360000154815260200190815260200160002060008201518160000155602082015181600101556040820151816002015560608201518160030190816106629190612a6b565b5090505050505050565b600080610677610f09565b905080600201600085815260200190815260200160002060008473ffffffffffffffffffffffffffffffffffffffff1673ffffffffffffffffffffffffffffffffffffffff16815260200190815260200160002060009054906101000a900460ff1691505092915050565b60006106ec610f36565b90503373ffffffffffffffffffffffffffffffffffffffff1681600201600085815260200190815260200160002060009054906101000a900473ffffffffffffffffffffffffffffffffffffffff1673ffffffffffffffffffffffffffffffffffffffff161461075b57600080fd5b806006018260405161076d919061270e565b908152602001604051809103902060009054906101000a900460ff16156107c9576040517f08c379a00000000000000000000000000000000000000000000000000000000081526004016107c090612b89565b60405180910390fd5b600382511161080d576040517f08c379a000000000000000000000000000000000000000000000000000000000815260040161080490612bf5565b60405180910390fd5b600a825110610851576040517f08c379a000000000000000000000000000000000000000000000000000000000815260040161084890612c61565b60405180910390fd5b6000816003016000858152602001908152602001600020600f01805461087690612817565b80601f01602080910402602001604051908101604052809291908181526020018280546108a290612817565b80156108ef5780601f106108c4576101008083540402835291602001916108ef565b820191906000526020600020905b8154815290600101906020018083116108d257829003601f168201915b50505050509050600081511115610931578160060181604051610912919061270e565b908152602001604051809103902060006101000a81549060ff02191690555b82826003016000868152602001908152602001600020600f0190816109569190612a6b565b506001826006018460405161096b919061270e565b908152602001604051809103902060006101000a81548160ff02191690831515021790555050505050565b60006109a0610f09565b905080600201600088815260200190815260200160002060003373ffffffffffffffffffffffffffffffffffffffff1673ffffffffffffffffffffffffffffffffffffffff16815260200190815260200160002060009054906101000a900460ff1615610a42576040517f08c379a0000000000000000000000000000000000000000000000000000000008152600401610a3990612cf3565b60405180910390fd5b610acc868680806020026020016040519081016040528093929190818152602001838360200280828437600081840152601f19601f820116905080830192505050505050508260010160008a81526020019081526020016000206002015433604051602001610ab19190612d5b565b60405160208183030381529060405280519060200120610f63565b610b0b576040517f08c379a0000000000000000000000000000000000000000000000000000000008152600401610b0290612dc2565b60405180910390fd5b80600101600088815260200190815260200160002060010154341015610b3057600080fd5b600181600201600089815260200190815260200160002060003373ffffffffffffffffffffffffffffffffffffffff1673ffffffffffffffffffffffffffffffffffffffff16815260200190815260200160002060006101000a81548160ff021916908315150217905550610ba6848484610f7a565b50505050505050565b6000610bb9610f09565b905080600201600087815260200190815260200160002060003373ffffffffffffffffffffffffffffffffffffffff1673ffffffffffffffffffffffffffffffffffffffff16815260200190815260200160002060009054906101000a900460ff1615610c5b576040517f08c379a0000000000000000000000000000000000000000000000000000000008152600401610c5290612cf3565b60405180910390fd5b610ce5858580806020026020016040519081016040528093929190818152602001838360200280828437600081840152601f19601f820116905080830192505050505050508260010160008981526020019081526020016000206002015433604051602001610cca9190612d5b565b60405160208183030381529060405280519060200120610f63565b610d24576040517f08c379a0000000000000000000000000000000000000000000000000000000008152600401610d1b90612dc2565b60405180910390fd5b80600101600087815260200190815260200160002060010154341015610d4957600080fd5b604051602001610d5890612e2e565b60405160208183030381529060405280519060200120816001016000888152602001908152602001600020600301604051602001610d969190612ec6565b6040516020818303038152906040528051906020012014610db657600080fd5b600181600201600088815260200190815260200160002060003373ffffffffffffffffffffffffffffffffffffffff1673ffffffffffffffffffffffffffffffffffffffff16815260200190815260200160002060006101000a81548160ff021916908315150217905550610e2b83836119b7565b505050505050565b600080610e3e610f09565b9050600083604051602001610e539190612d5b565b604051602081830303815290604052805190602001209050610ecf878780806020026020016040519081016040528093929190818152602001838360200280828437600081840152601f19601f820116905080830192505050505050508360010160008881526020019081526020016000206002015483610f63565b92505050949350505050565b600080610ee6610f09565b905080600101600084815260200190815260200160002060020154915050919050565b6000807f19a7b6aa9ad98f2f267a375bb3e53168bb268f6ec190238c4ccf172054fde40a90508091505090565b6000807f3cab9a070a0c61cd0ae9d9e9e2c0781e5ca8691bec4087e5a4701d5ac018dd4e90508091505090565b600082610f708584611ed7565b1490509392505050565b6000610f84610f36565b90508060060184604051610f98919061270e565b908152602001604051809103902060009054906101000a900460ff1615610ff4576040517f08c379a0000000000000000000000000000000000000000000000000000000008152600401610feb90612b89565b60405180910390fd5b600282111561100257600080fd5b600a8451111561101157600080fd5b60038451101561102057600080fd5b80600101600081548092919061103590612877565b91905055506060600083036112be578361106a57604051806080016040528060438152602001612f9360439139905080611087565b6040518060800160405280604381526020016130e2604391399050805b50604051806102800160405280600181526020016000815260200160008152602001600b8152602001600c8152602001600c8152602001600a8152602001600a8152602001600a8152602001600a815260200160018152602001600181526020016001815260200160018152602001600b815260200186815260200182815260200185151581526020016040518060e00160405280600081526020016000815260200160008152602001600081526020016000815260200160008152602001600081525081526020018481525082600301600084600101548152602001908152602001600020600082015181600001556020820151816001015560408201518160020155606082015181600301556080820151816004015560a0820151816005015560c0820151816006015560e082015181600701556101008201518160080155610120820151816009015561014082015181600a015561016082015181600b015561018082015181600c01556101a082015181600d01556101c082015181600e01556101e082015181600f0190816112209190612a6b565b506102008201518160100190816112379190612a6b565b506102208201518160110160006101000a81548160ff02191690831515021790555061024082015181601201600082015181600001556020820151816001015560408201518160020155606082015181600301556080820151816004015560a0820151816005015560c08201518160060155505061026082015181601901559050506117c0565b6001830361154057836112ec5760405180608001604052806043815260200161301960439139905080611309565b604051806080016040528060438152602001612fd6604391399050805b50604051806102800160405280600181526020016000815260200160008152602001600b8152602001600b8152602001600b8152602001600a8152602001600a8152602001600a8152602001600c815260200160018152602001600181526020016001815260200160018152602001600a815260200186815260200182815260200185151581526020016040518060e00160405280600081526020016000815260200160008152602001600081526020016000815260200160008152602001600081525081526020018481525082600301600084600101548152602001908152602001600020600082015181600001556020820151816001015560408201518160020155606082015181600301556080820151816004015560a0820151816005015560c0820151816006015560e082015181600701556101008201518160080155610120820151816009015561014082015181600a015561016082015181600b015561018082015181600c01556101a082015181600d01556101c082015181600e01556101e082015181600f0190816114a29190612a6b565b506102008201518160100190816114b99190612a6b565b506102208201518160110160006101000a81548160ff02191690831515021790555061024082015181601201600082015181600001556020820151816001015560408201518160020155606082015181600301556080820151816004015560a0820151816005015560c08201518160060155505061026082015181601901559050506117bf565b600283036117be578361156e57604051806080016040528060438152602001612f506043913990508061158b565b604051806080016040528060438152602001612f0d604391399050805b50604051806102800160405280600181526020016000815260200160008152602001600a8152602001600a8152602001600a8152602001600c8152602001600c8152602001600c8152602001600a815260200160018152602001600181526020016001815260200160018152602001600a815260200186815260200182815260200185151581526020016040518060e00160405280600081526020016000815260200160008152602001600081526020016000815260200160008152602001600081525081526020018481525082600301600084600101548152602001908152602001600020600082015181600001556020820151816001015560408201518160020155606082015181600301556080820151816004015560a0820151816005015560c0820151816006015560e082015181600701556101008201518160080155610120820151816009015561014082015181600a015561016082015181600b015561018082015181600c01556101a082015181600d01556101c082015181600e01556101e082015181600f0190816117249190612a6b565b5061020082015181601001908161173b9190612a6b565b506102208201518160110160006101000a81548160ff02191690831515021790555061024082015181601201600082015181600001556020820151816001015560408201518160020155606082015181600301556080820151816004015560a0820151816005015560c08201518160060155505061026082015181601901559050505b5b5b6040518060e00160405280600081526020016000815260200160008152602001600081526020016000815260200160008152602001600081525082600801600084600101548152602001908152602001600020600082015181600001556020820151816001015560408201518160020155606082015181600301556080820151816004015560a0820151816005015560c0820151816006015590505060018260060186604051611870919061270e565b908152602001604051809103902060006101000a81548160ff021916908315150217905550338260020160008460010154815260200190815260200160002060006101000a81548173ffffffffffffffffffffffffffffffffffffffff021916908373ffffffffffffffffffffffffffffffffffffffff1602179055508160070160003373ffffffffffffffffffffffffffffffffffffffff1673ffffffffffffffffffffffffffffffffffffffff168152602001908152602001600020826001015490806001815401808255809150506001900390600052602060002001600090919091909150558160040160003373ffffffffffffffffffffffffffffffffffffffff1673ffffffffffffffffffffffffffffffffffffffff16815260200190815260200160002060008154809291906119ab90612877565b91905055505050505050565b60006119c1610f36565b905080600601836040516119d5919061270e565b908152602001604051809103902060009054906101000a900460ff1615611a31576040517f08c379a0000000000000000000000000000000000000000000000000000000008152600401611a2890612b89565b60405180910390fd5b600a83511115611a4057600080fd5b600383511015611a4f57600080fd5b806001016000815480929190611a6490612877565b9190505550606082611a915760405180608001604052806043815260200161305c60439139905080611aae565b60405180608001604052806043815260200161309f604391399050805b50604051806102800160405280600181526020016000815260200160008152602001600d8152602001600d8152602001600d8152602001600d8152602001600d8152602001600d8152602001600d815260200160018152602001600181526020016001815260200160018152602001600d815260200185815260200182815260200184151581526020016040518060e0016040528060008152602001600081526020016000815260200160008152602001600081526020016000815260200160008152508152602001600381525082600301600084600101548152602001908152602001600020600082015181600001556020820151816001015560408201518160020155606082015181600301556080820151816004015560a0820151816005015560c0820151816006015560e082015181600701556101008201518160080155610120820151816009015561014082015181600a015561016082015181600b015561018082015181600c01556101a082015181600d01556101c082015181600e01556101e082015181600f019081611c489190612a6b565b50610200820151816010019081611c5f9190612a6b565b506102208201518160110160006101000a81548160ff02191690831515021790555061024082015181601201600082015181600001556020820151816001015560408201518160020155606082015181600301556080820151816004015560a0820151816005015560c08201518160060155505061026082015181601901559050506040518060e00160405280600081526020016000815260200160008152602001600081526020016000815260200160008152602001600081525082600801600084600101548152602001908152602001600020600082015181600001556020820151816001015560408201518160020155606082015181600301556080820151816004015560a0820151816005015560c0820151816006015590505060018260060185604051611d91919061270e565b908152602001604051809103902060006101000a81548160ff021916908315150217905550338260020160008460010154815260200190815260200160002060006101000a81548173ffffffffffffffffffffffffffffffffffffffff021916908373ffffffffffffffffffffffffffffffffffffffff1602179055508160070160003373ffffffffffffffffffffffffffffffffffffffff1673ffffffffffffffffffffffffffffffffffffffff168152602001908152602001600020826001015490806001815401808255809150506001900390600052602060002001600090919091909150558160040160003373ffffffffffffffffffffffffffffffffffffffff1673ffffffffffffffffffffffffffffffffffffffff1681526020019081526020016000206000815480929190611ecc90612877565b919050555050505050565b60008082905060005b8451811015611f2257611f0d82868381518110611f0057611eff612edd565b5b6020026020010151611f2d565b91508080611f1a90612877565b915050611ee0565b508091505092915050565b6000818310611f4557611f408284611f58565b611f50565b611f4f8383611f58565b5b905092915050565b600082600052816020526040600020905092915050565b6040518060800160405280600081526020016000815260200160008019168152602001606081525090565b6000604051905090565b600080fd5b600080fd5b6000819050919050565b611fc181611fae565b8114611fcc57600080fd5b50565b600081359050611fde81611fb8565b92915050565b600060208284031215611ffa57611ff9611fa4565b5b600061200884828501611fcf565b91505092915050565b61201a81611fae565b82525050565b6000819050919050565b61203381612020565b82525050565b600081519050919050565b600082825260208201905092915050565b60005b83811015612073578082015181840152602081019050612058565b60008484015250505050565b6000601f19601f8301169050919050565b600061209b82612039565b6120a58185612044565b93506120b5818560208601612055565b6120be8161207f565b840191505092915050565b60006080830160008301516120e16000860182612011565b5060208301516120f46020860182612011565b506040830151612107604086018261202a565b506060830151848203606086015261211f8282612090565b9150508091505092915050565b6000602082019050818103600083015261214681846120c9565b905092915050565b61215781612020565b811461216257600080fd5b50565b6000813590506121748161214e565b92915050565b600080fd5b600080fd5b7f4e487b7100000000000000000000000000000000000000000000000000000000600052604160045260246000fd5b6121bc8261207f565b810181811067ffffffffffffffff821117156121db576121da612184565b5b80604052505050565b60006121ee611f9a565b90506121fa82826121b3565b919050565b600067ffffffffffffffff82111561221a57612219612184565b5b6122238261207f565b9050602081019050919050565b82818337600083830152505050565b600061225261224d846121ff565b6121e4565b90508281526020810184848401111561226e5761226d61217f565b5b612279848285612230565b509392505050565b600082601f8301126122965761229561217a565b5b81356122a684826020860161223f565b91505092915050565b6000806000606084860312156122c8576122c7611fa4565b5b60006122d686828701612165565b935050602084013567ffffffffffffffff8111156122f7576122f6611fa9565b5b61230386828701612281565b925050604061231486828701611fcf565b9150509250925092565b600073ffffffffffffffffffffffffffffffffffffffff82169050919050565b60006123498261231e565b9050919050565b6123598161233e565b811461236457600080fd5b50565b60008135905061237681612350565b92915050565b6000806040838503121561239357612392611fa4565b5b60006123a185828601611fcf565b92505060206123b285828601612367565b9150509250929050565b60008115159050919050565b6123d1816123bc565b82525050565b60006020820190506123ec60008301846123c8565b92915050565b6000806040838503121561240957612408611fa4565b5b600061241785828601611fcf565b925050602083013567ffffffffffffffff81111561243857612437611fa9565b5b61244485828601612281565b9150509250929050565b600080fd5b600080fd5b60008083601f84011261246e5761246d61217a565b5b8235905067ffffffffffffffff81111561248b5761248a61244e565b5b6020830191508360208202830111156124a7576124a6612453565b5b9250929050565b6124b7816123bc565b81146124c257600080fd5b50565b6000813590506124d4816124ae565b92915050565b60008060008060008060a087890312156124f7576124f6611fa4565b5b600061250589828a01611fcf565b965050602087013567ffffffffffffffff81111561252657612525611fa9565b5b61253289828a01612458565b9550955050604087013567ffffffffffffffff81111561255557612554611fa9565b5b61256189828a01612281565b935050606061257289828a016124c5565b925050608061258389828a01611fcf565b9150509295509295509295565b6000806000806000608086880312156125ac576125ab611fa4565b5b60006125ba88828901611fcf565b955050602086013567ffffffffffffffff8111156125db576125da611fa9565b5b6125e788828901612458565b9450945050604086013567ffffffffffffffff81111561260a57612609611fa9565b5b61261688828901612281565b9250506060612627888289016124c5565b9150509295509295909350565b6000806000806060858703121561264e5761264d611fa4565b5b600085013567ffffffffffffffff81111561266c5761266b611fa9565b5b61267887828801612458565b9450945050602061268b87828801611fcf565b925050604061269c87828801612367565b91505092959194509250565b6126b181612020565b82525050565b60006020820190506126cc60008301846126a8565b92915050565b600081905092915050565b60006126e882612039565b6126f281856126d2565b9350612702818560208601612055565b80840191505092915050565b600061271a82846126dd565b915081905092915050565b600081905092915050565b50565b6000612740600083612725565b915061274b82612730565b600082019050919050565b600061276182612733565b9150819050919050565b600082825260208201905092915050565b7f4661696c656420746f2073656e64204574686572000000000000000000000000600082015250565b60006127b260148361276b565b91506127bd8261277c565b602082019050919050565b600060208201905081810360008301526127e1816127a5565b9050919050565b7f4e487b7100000000000000000000000000000000000000000000000000000000600052602260045260246000fd5b6000600282049050600182168061282f57607f821691505b602082108103612842576128416127e8565b5b50919050565b7f4e487b7100000000000000000000000000000000000000000000000000000000600052601160045260246000fd5b600061288282611fae565b91507fffffffffffffffffffffffffffffffffffffffffffffffffffffffffffffffff82036128b4576128b3612848565b5b600182019050919050565b60008190508160005260206000209050919050565b60006020601f8301049050919050565b600082821b905092915050565b6000600883026129217fffffffffffffffffffffffffffffffffffffffffffffffffffffffffffffffff826128e4565b61292b86836128e4565b95508019841693508086168417925050509392505050565b6000819050919050565b600061296861296361295e84611fae565b612943565b611fae565b9050919050565b6000819050919050565b6129828361294d565b61299661298e8261296f565b8484546128f1565b825550505050565b600090565b6129ab61299e565b6129b6818484612979565b505050565b5b818110156129da576129cf6000826129a3565b6001810190506129bc565b5050565b601f821115612a1f576129f0816128bf565b6129f9846128d4565b81016020851015612a08578190505b612a1c612a14856128d4565b8301826129bb565b50505b505050565b600082821c905092915050565b6000612a4260001984600802612a24565b1980831691505092915050565b6000612a5b8383612a31565b9150826002028217905092915050565b612a7482612039565b67ffffffffffffffff811115612a8d57612a8c612184565b5b612a978254612817565b612aa28282856129de565b600060209050601f831160018114612ad55760008415612ac3578287015190505b612acd8582612a4f565b865550612b35565b601f198416612ae3866128bf565b60005b82811015612b0b57848901518255600182019150602085019450602081019050612ae6565b86831015612b285784890151612b24601f891682612a31565b8355505b6001600288020188555050505b505050505050565b7f6e616d652069732074616b656e00000000000000000000000000000000000000600082015250565b6000612b73600d8361276b565b9150612b7e82612b3d565b602082019050919050565b60006020820190508181036000830152612ba281612b66565b9050919050565b7f43616e6e6f74207061737320616e20656d707479206861736800000000000000600082015250565b6000612bdf60198361276b565b9150612bea82612ba9565b602082019050919050565b60006020820190508181036000830152612c0e81612bd2565b9050919050565b7f43616e6e6f74206265206c6f6e676572207468616e2031302063686172730000600082015250565b6000612c4b601e8361276b565b9150612c5682612c15565b602082019050919050565b60006020820190508181036000830152612c7a81612c3e565b9050919050565b7f416464726573732068617320616c726561647920636c61696d6564207468652060008201527f64726f7000000000000000000000000000000000000000000000000000000000602082015250565b6000612cdd60248361276b565b9150612ce882612c81565b604082019050919050565b60006020820190508181036000830152612d0c81612cd0565b9050919050565b60008160601b9050919050565b6000612d2b82612d13565b9050919050565b6000612d3d82612d20565b9050919050565b612d55612d508261233e565b612d32565b82525050565b6000612d678284612d44565b60148201915081905092915050565b7f496e76616c6964204d65726b6c652070726f6f66000000000000000000000000600082015250565b6000612dac60148361276b565b9150612db782612d76565b602082019050919050565b60006020820190508181036000830152612ddb81612d9f565b9050919050565b7f5363726f6c6c0000000000000000000000000000000000000000000000000000600082015250565b6000612e186006836126d2565b9150612e2382612de2565b600682019050919050565b6000612e3982612e0b565b9150819050919050565b60008154612e5081612817565b612e5a81866126d2565b94506001821660008114612e755760018114612e8a57612ebd565b60ff1983168652811515820286019350612ebd565b612e93856128bf565b60005b83811015612eb557815481890152600182019150602081019050612e96565b838801955050505b50505092915050565b6000612ed28284612e43565b915081905092915050565b7f4e487b7100000000000000000000000000000000000000000000000000000000600052603260045260246000fdfe68747470733a2f2f697066732e696f2f697066732f516d556257785564387358344d5a6f6a4b455255506d507539597441596659726f425334546531484a454b75637968747470733a2f2f697066732e696f2f697066732f516d625641427439734b704e55613844674d4a64653344424351796f72534354395631447a6436634a385a556d5068747470733a2f2f697066732e696f2f697066732f516d66424e4870787077554e67747736695842784b584c6256786f6d386d7064427367715a5a79353970524d354368747470733a2f2f697066732e696f2f697066732f516d5158655965397278526b6b716645423744725a52534732533179724e676a363456386d3676374b65747a516468747470733a2f2f697066732e696f2f697066732f516d55715a4b5275646e616e673147586244326e4848776d4a664e4e42465156646d6f483857416e65616969356868747470733a2f2f697066732e696f2f697066732f516d5269644a666766523656394c4276594136524b6f6a4450796b713547327a4c6e4e417841724c4d554d6e436468747470733a2f2f697066732e696f2f697066732f516d5751514c364e39416663713270646247766a61315456696943576b346b36764235564d433974634d4b63653968747470733a2f2f697066732e696f2f697066732f516d56357053734d47474d4c5733593979513871534c534d4451616b646e6a686a53346b356865366d4a79506548a26469706673582212206b362a70be4da80f9946fe16e886176fb4c46d9b0edeab10db244c68c57329d364736f6c63430008120033",
  "linkReferences": {},
  "deployedLinkReferences": {}
}