{
  "_format": "hh-sol-artifact-1",
  "contractName": "ERC721Facet",
  "sourceName": "contracts/facets/ERC721Facet.sol",
  "abi": [
    {
      "inputs": [
        {
          "internalType": "address",
          "name": "to",
          "type": "address"
        },
        {
          "internalType": "uint256",
          "name": "tokenId",
          "type": "uint256"
        }
      ],
      "name": "approve",
      "outputs": [],
      "stateMutability": "nonpayable",
      "type": "function"
    },
    {
      "inputs": [
        {
          "internalType": "address",
          "name": "owner",
          "type": "address"
        }
      ],
      "name": "balanceOf",
      "outputs": [
        {
          "internalType": "uint256",
          "name": "",
          "type": "uint256"
        }
      ],
      "stateMutability": "view",
      "type": "function"
    },
    {
      "inputs": [
        {
          "internalType": "uint256",
          "name": "tokenId",
          "type": "uint256"
        }
      ],
      "name": "getApproved",
      "outputs": [
        {
          "internalType": "address",
          "name": "",
          "type": "address"
        }
      ],
      "stateMutability": "view",
      "type": "function"
    },
    {
      "inputs": [
        {
          "internalType": "address",
          "name": "owner",
          "type": "address"
        },
        {
          "internalType": "address",
          "name": "operator",
          "type": "address"
        }
      ],
      "name": "isApprovedForAll",
      "outputs": [
        {
          "internalType": "bool",
          "name": "",
          "type": "bool"
        }
      ],
      "stateMutability": "view",
      "type": "function"
    },
    {
      "inputs": [],
      "name": "name",
      "outputs": [
        {
          "internalType": "string",
          "name": "",
          "type": "string"
        }
      ],
      "stateMutability": "view",
      "type": "function"
    },
    {
      "inputs": [
        {
          "internalType": "uint256",
          "name": "tokenId",
          "type": "uint256"
        }
      ],
      "name": "ownerOf",
      "outputs": [
        {
          "internalType": "address",
          "name": "",
          "type": "address"
        }
      ],
      "stateMutability": "view",
      "type": "function"
    },
    {
      "inputs": [
        {
          "internalType": "address",
          "name": "from",
          "type": "address"
        },
        {
          "internalType": "address",
          "name": "to",
          "type": "address"
        },
        {
          "internalType": "uint256",
          "name": "tokenId",
          "type": "uint256"
        }
      ],
      "name": "safeTransferFrom",
      "outputs": [],
      "stateMutability": "nonpayable",
      "type": "function"
    },
    {
      "inputs": [
        {
          "internalType": "address",
          "name": "from",
          "type": "address"
        },
        {
          "internalType": "address",
          "name": "to",
          "type": "address"
        },
        {
          "internalType": "uint256",
          "name": "tokenId",
          "type": "uint256"
        },
        {
          "internalType": "bytes",
          "name": "data",
          "type": "bytes"
        }
      ],
      "name": "safeTransferFrom",
      "outputs": [],
      "stateMutability": "nonpayable",
      "type": "function"
    },
    {
      "inputs": [
        {
          "internalType": "address",
          "name": "operator",
          "type": "address"
        },
        {
          "internalType": "bool",
          "name": "approved",
          "type": "bool"
        }
      ],
      "name": "setApprovalForAll",
      "outputs": [],
      "stateMutability": "nonpayable",
      "type": "function"
    },
    {
      "inputs": [],
      "name": "symbol",
      "outputs": [
        {
          "internalType": "string",
          "name": "",
          "type": "string"
        }
      ],
      "stateMutability": "view",
      "type": "function"
    },
    {
      "inputs": [
        {
          "internalType": "address",
          "name": "from",
          "type": "address"
        },
        {
          "internalType": "address",
          "name": "to",
          "type": "address"
        },
        {
          "internalType": "uint256",
          "name": "tokenId",
          "type": "uint256"
        }
      ],
      "name": "transferFrom",
      "outputs": [],
      "stateMutability": "nonpayable",
      "type": "function"
    }
  ],
  "bytecode": "0x608060405234801561001057600080fd5b50611c10806100206000396000f3fe608060405234801561001057600080fd5b50600436106100a95760003560e01c80636352211e116100715780636352211e1461015057806370a082311461018057806395d89b41146101b0578063a22cb465146101ce578063b88d4fde146101ea578063e985e9c514610206576100a9565b806306fdde03146100ae578063081812fc146100cc578063095ea7b3146100fc57806323b872dd1461011857806342842e0e14610134575b600080fd5b6100b6610236565b6040516100c391906110d9565b60405180910390f35b6100e660048036038101906100e19190611145565b6102d1565b6040516100f391906111b3565b60405180910390f35b610116600480360381019061011191906111fa565b610320565b005b610132600480360381019061012d919061123a565b610437565b005b61014e6004803603810190610149919061123a565b610497565b005b61016a60048036038101906101659190611145565b6104b7565b60405161017791906111b3565b60405180910390f35b61019a6004803603810190610195919061128d565b61053d565b6040516101a791906112c9565b60405180910390f35b6101b86105fd565b6040516101c591906110d9565b60405180910390f35b6101e860048036038101906101e3919061131c565b610698565b005b61020460048036038101906101ff9190611491565b6106ae565b005b610220600480360381019061021b9190611514565b610710565b60405161022d9190611563565b60405180910390f35b60606102406107ad565b600601805461024e906115ad565b80601f016020809104026020016040519081016040528092919081815260200182805461027a906115ad565b80156102c75780601f1061029c576101008083540402835291602001916102c7565b820191906000526020600020905b8154815290600101906020018083116102aa57829003601f168201915b5050505050905090565b60006102dc826107da565b6102e46107ad565b600b01600083815260200190815260200160002060009054906101000a900473ffffffffffffffffffffffffffffffffffffffff169050919050565b600061032b82610825565b90508073ffffffffffffffffffffffffffffffffffffffff168373ffffffffffffffffffffffffffffffffffffffff160361039b576040517f08c379a000000000000000000000000000000000000000000000000000000000815260040161039290611650565b60405180910390fd5b8073ffffffffffffffffffffffffffffffffffffffff166103ba61086b565b73ffffffffffffffffffffffffffffffffffffffff1614806103e957506103e8816103e361086b565b610710565b5b610428576040517f08c379a000000000000000000000000000000000000000000000000000000000815260040161041f906116e2565b60405180910390fd5b6104328383610873565b505050565b61044861044261086b565b826108d2565b610487576040517f08c379a000000000000000000000000000000000000000000000000000000000815260040161047e90611774565b60405180910390fd5b610492838383610a24565b505050565b6104b2838383604051806020016040528060008152506106ae565b505050565b6000806104c383610825565b9050600073ffffffffffffffffffffffffffffffffffffffff168173ffffffffffffffffffffffffffffffffffffffff1603610534576040517f08c379a000000000000000000000000000000000000000000000000000000000815260040161052b906117e0565b60405180910390fd5b80915050919050565b60008073ffffffffffffffffffffffffffffffffffffffff168273ffffffffffffffffffffffffffffffffffffffff16036105ad576040517f08c379a00000000000000000000000000000000000000000000000000000000081526004016105a490611872565b60405180910390fd5b6105b56107ad565b600a0160008373ffffffffffffffffffffffffffffffffffffffff1673ffffffffffffffffffffffffffffffffffffffff168152602001908152602001600020549050919050565b60606106076107ad565b6007018054610615906115ad565b80601f0160208091040260200160405190810160405280929190818152602001828054610641906115ad565b801561068e5780601f106106635761010080835404028352916020019161068e565b820191906000526020600020905b81548152906001019060200180831161067157829003601f168201915b5050505050905090565b6106aa6106a361086b565b8383610ce6565b5050565b6106bf6106b961086b565b836108d2565b6106fe576040517f08c379a00000000000000000000000000000000000000000000000000000000081526004016106f590611774565b60405180910390fd5b61070a84848484610df6565b50505050565b600061071a6107ad565b60080160008473ffffffffffffffffffffffffffffffffffffffff1673ffffffffffffffffffffffffffffffffffffffff16815260200190815260200160002060008373ffffffffffffffffffffffffffffffffffffffff1673ffffffffffffffffffffffffffffffffffffffff16815260200190815260200160002060009054906101000a900460ff16905092915050565b6000807f2569078dfb4b0305704d3008e7403993ae9601b85f7ae5e742de3de8f8011c4090508091505090565b6107e381610e52565b610822576040517f08c379a0000000000000000000000000000000000000000000000000000000008152600401610819906117e0565b60405180910390fd5b50565b600061082f6107ad565b600901600083815260200190815260200160002060009054906101000a900473ffffffffffffffffffffffffffffffffffffffff169050919050565b600033905090565b8161087c6107ad565b600b01600083815260200190815260200160002060006101000a81548173ffffffffffffffffffffffffffffffffffffffff021916908373ffffffffffffffffffffffffffffffffffffffff1602179055505050565b6000806108de83610825565b90508073ffffffffffffffffffffffffffffffffffffffff168473ffffffffffffffffffffffffffffffffffffffff1614806109a9575061091d6107ad565b60080160008273ffffffffffffffffffffffffffffffffffffffff1673ffffffffffffffffffffffffffffffffffffffff16815260200190815260200160002060008573ffffffffffffffffffffffffffffffffffffffff1673ffffffffffffffffffffffffffffffffffffffff16815260200190815260200160002060009054906101000a900460ff165b80610a1b57508373ffffffffffffffffffffffffffffffffffffffff166109ce6107ad565b600b01600085815260200190815260200160002060009054906101000a900473ffffffffffffffffffffffffffffffffffffffff1673ffffffffffffffffffffffffffffffffffffffff16145b91505092915050565b8273ffffffffffffffffffffffffffffffffffffffff16610a4482610825565b73ffffffffffffffffffffffffffffffffffffffff1614610a9a576040517f08c379a0000000000000000000000000000000000000000000000000000000008152600401610a9190611904565b60405180910390fd5b600073ffffffffffffffffffffffffffffffffffffffff168273ffffffffffffffffffffffffffffffffffffffff1603610b09576040517f08c379a0000000000000000000000000000000000000000000000000000000008152600401610b0090611996565b60405180910390fd5b610b168383836001610e93565b8273ffffffffffffffffffffffffffffffffffffffff16610b3682610825565b73ffffffffffffffffffffffffffffffffffffffff1614610b8c576040517f08c379a0000000000000000000000000000000000000000000000000000000008152600401610b8390611904565b60405180910390fd5b610b946107ad565b600b01600082815260200190815260200160002060006101000a81549073ffffffffffffffffffffffffffffffffffffffff02191690556001610bd56107ad565b600a0160008573ffffffffffffffffffffffffffffffffffffffff1673ffffffffffffffffffffffffffffffffffffffff168152602001908152602001600020600082825403925050819055506001610c2c6107ad565b600a0160008473ffffffffffffffffffffffffffffffffffffffff1673ffffffffffffffffffffffffffffffffffffffff1681526020019081526020016000206000828254019250508190555081610c826107ad565b600901600083815260200190815260200160002060006101000a81548173ffffffffffffffffffffffffffffffffffffffff021916908373ffffffffffffffffffffffffffffffffffffffff160217905550610ce18383836001610e99565b505050565b8173ffffffffffffffffffffffffffffffffffffffff168373ffffffffffffffffffffffffffffffffffffffff1603610d54576040517f08c379a0000000000000000000000000000000000000000000000000000000008152600401610d4b90611a02565b60405180910390fd5b80610d5d6107ad565b60080160008573ffffffffffffffffffffffffffffffffffffffff1673ffffffffffffffffffffffffffffffffffffffff16815260200190815260200160002060008473ffffffffffffffffffffffffffffffffffffffff1673ffffffffffffffffffffffffffffffffffffffff16815260200190815260200160002060006101000a81548160ff021916908315150217905550505050565b610e01848484610a24565b610e0d84848484610e9f565b610e4c576040517f08c379a0000000000000000000000000000000000000000000000000000000008152600401610e4390611a94565b60405180910390fd5b50505050565b60008073ffffffffffffffffffffffffffffffffffffffff16610e7483610825565b73ffffffffffffffffffffffffffffffffffffffff1614159050919050565b50505050565b50505050565b6000610ec08473ffffffffffffffffffffffffffffffffffffffff16611026565b15611019578373ffffffffffffffffffffffffffffffffffffffff1663150b7a02610ee961086b565b8786866040518563ffffffff1660e01b8152600401610f0b9493929190611b09565b6020604051808303816000875af1925050508015610f4757506040513d601f19601f82011682018060405250810190610f449190611bad565b60015b610fc9573d8060008114610f77576040519150601f19603f3d011682016040523d82523d6000602084013e610f7c565b606091505b506000815103610fc1576040517f08c379a0000000000000000000000000000000000000000000000000000000008152600401610fb890611a94565b60405180910390fd5b805181602001fd5b63150b7a0260e01b7bffffffffffffffffffffffffffffffffffffffffffffffffffffffff1916817bffffffffffffffffffffffffffffffffffffffffffffffffffffffff19161491505061101e565b600190505b949350505050565b6000808273ffffffffffffffffffffffffffffffffffffffff163b119050919050565b600081519050919050565b600082825260208201905092915050565b60005b83811015611083578082015181840152602081019050611068565b60008484015250505050565b6000601f19601f8301169050919050565b60006110ab82611049565b6110b58185611054565b93506110c5818560208601611065565b6110ce8161108f565b840191505092915050565b600060208201905081810360008301526110f381846110a0565b905092915050565b6000604051905090565b600080fd5b600080fd5b6000819050919050565b6111228161110f565b811461112d57600080fd5b50565b60008135905061113f81611119565b92915050565b60006020828403121561115b5761115a611105565b5b600061116984828501611130565b91505092915050565b600073ffffffffffffffffffffffffffffffffffffffff82169050919050565b600061119d82611172565b9050919050565b6111ad81611192565b82525050565b60006020820190506111c860008301846111a4565b92915050565b6111d781611192565b81146111e257600080fd5b50565b6000813590506111f4816111ce565b92915050565b6000806040838503121561121157611210611105565b5b600061121f858286016111e5565b925050602061123085828601611130565b9150509250929050565b60008060006060848603121561125357611252611105565b5b6000611261868287016111e5565b9350506020611272868287016111e5565b925050604061128386828701611130565b9150509250925092565b6000602082840312156112a3576112a2611105565b5b60006112b1848285016111e5565b91505092915050565b6112c38161110f565b82525050565b60006020820190506112de60008301846112ba565b92915050565b60008115159050919050565b6112f9816112e4565b811461130457600080fd5b50565b600081359050611316816112f0565b92915050565b6000806040838503121561133357611332611105565b5b6000611341858286016111e5565b925050602061135285828601611307565b9150509250929050565b600080fd5b600080fd5b7f4e487b7100000000000000000000000000000000000000000000000000000000600052604160045260246000fd5b61139e8261108f565b810181811067ffffffffffffffff821117156113bd576113bc611366565b5b80604052505050565b60006113d06110fb565b90506113dc8282611395565b919050565b600067ffffffffffffffff8211156113fc576113fb611366565b5b6114058261108f565b9050602081019050919050565b82818337600083830152505050565b600061143461142f846113e1565b6113c6565b9050828152602081018484840111156114505761144f611361565b5b61145b848285611412565b509392505050565b600082601f8301126114785761147761135c565b5b8135611488848260208601611421565b91505092915050565b600080600080608085870312156114ab576114aa611105565b5b60006114b9878288016111e5565b94505060206114ca878288016111e5565b93505060406114db87828801611130565b925050606085013567ffffffffffffffff8111156114fc576114fb61110a565b5b61150887828801611463565b91505092959194509250565b6000806040838503121561152b5761152a611105565b5b6000611539858286016111e5565b925050602061154a858286016111e5565b9150509250929050565b61155d816112e4565b82525050565b60006020820190506115786000830184611554565b92915050565b7f4e487b7100000000000000000000000000000000000000000000000000000000600052602260045260246000fd5b600060028204905060018216806115c557607f821691505b6020821081036115d8576115d761157e565b5b50919050565b7f4552433732313a20617070726f76616c20746f2063757272656e74206f776e6560008201527f7200000000000000000000000000000000000000000000000000000000000000602082015250565b600061163a602183611054565b9150611645826115de565b604082019050919050565b600060208201905081810360008301526116698161162d565b9050919050565b7f4552433732313a20617070726f76652063616c6c6572206973206e6f7420746f60008201527f6b656e206f776e6572206f7220617070726f76656420666f7220616c6c000000602082015250565b60006116cc603d83611054565b91506116d782611670565b604082019050919050565b600060208201905081810360008301526116fb816116bf565b9050919050565b7f4552433732313a2063616c6c6572206973206e6f7420746f6b656e206f776e6560008201527f72206f7220617070726f76656400000000000000000000000000000000000000602082015250565b600061175e602d83611054565b915061176982611702565b604082019050919050565b6000602082019050818103600083015261178d81611751565b9050919050565b7f4552433732313a20696e76616c696420746f6b656e2049440000000000000000600082015250565b60006117ca601883611054565b91506117d582611794565b602082019050919050565b600060208201905081810360008301526117f9816117bd565b9050919050565b7f4552433732313a2061646472657373207a65726f206973206e6f74206120766160008201527f6c6964206f776e65720000000000000000000000000000000000000000000000602082015250565b600061185c602983611054565b915061186782611800565b604082019050919050565b6000602082019050818103600083015261188b8161184f565b9050919050565b7f4552433732313a207472616e736665722066726f6d20696e636f72726563742060008201527f6f776e6572000000000000000000000000000000000000000000000000000000602082015250565b60006118ee602583611054565b91506118f982611892565b604082019050919050565b6000602082019050818103600083015261191d816118e1565b9050919050565b7f4552433732313a207472616e7366657220746f20746865207a65726f2061646460008201527f7265737300000000000000000000000000000000000000000000000000000000602082015250565b6000611980602483611054565b915061198b82611924565b604082019050919050565b600060208201905081810360008301526119af81611973565b9050919050565b7f4552433732313a20617070726f766520746f2063616c6c657200000000000000600082015250565b60006119ec601983611054565b91506119f7826119b6565b602082019050919050565b60006020820190508181036000830152611a1b816119df565b9050919050565b7f4552433732313a207472616e7366657220746f206e6f6e20455243373231526560008201527f63656976657220696d706c656d656e7465720000000000000000000000000000602082015250565b6000611a7e603283611054565b9150611a8982611a22565b604082019050919050565b60006020820190508181036000830152611aad81611a71565b9050919050565b600081519050919050565b600082825260208201905092915050565b6000611adb82611ab4565b611ae58185611abf565b9350611af5818560208601611065565b611afe8161108f565b840191505092915050565b6000608082019050611b1e60008301876111a4565b611b2b60208301866111a4565b611b3860408301856112ba565b8181036060830152611b4a8184611ad0565b905095945050505050565b60007fffffffff0000000000000000000000000000000000000000000000000000000082169050919050565b611b8a81611b55565b8114611b9557600080fd5b50565b600081519050611ba781611b81565b92915050565b600060208284031215611bc357611bc2611105565b5b6000611bd184828501611b98565b9150509291505056fea264697066735822122077ef6ff660d3ef27b9fce7406c3f52e169053c1273bb7cec343319847ae9550e64736f6c63430008110033",
  "linkReferences": {},
  "deployedLinkReferences": {}
}