{
  "_format": "hh-sol-artifact-1",
  "contractName": "ERC721Facet",
  "sourceName": "contracts/facets/ERC721Facet.sol",
  "abi": [
    {
      "anonymous": false,
      "inputs": [
        {
          "indexed": true,
          "internalType": "address",
          "name": "owner",
          "type": "address"
        },
        {
          "indexed": true,
          "internalType": "address",
          "name": "approved",
          "type": "address"
        },
        {
          "indexed": true,
          "internalType": "uint256",
          "name": "tokenId",
          "type": "uint256"
        }
      ],
      "name": "Approval",
      "type": "event"
    },
    {
      "anonymous": false,
      "inputs": [
        {
          "indexed": true,
          "internalType": "address",
          "name": "owner",
          "type": "address"
        },
        {
          "indexed": true,
          "internalType": "address",
          "name": "operator",
          "type": "address"
        },
        {
          "indexed": false,
          "internalType": "bool",
          "name": "approved",
          "type": "bool"
        }
      ],
      "name": "ApprovalForAll",
      "type": "event"
    },
    {
      "anonymous": false,
      "inputs": [
        {
          "indexed": true,
          "internalType": "address",
          "name": "from",
          "type": "address"
        },
        {
          "indexed": true,
          "internalType": "address",
          "name": "to",
          "type": "address"
        },
        {
          "indexed": true,
          "internalType": "uint256",
          "name": "tokenId",
          "type": "uint256"
        }
      ],
      "name": "Transfer",
      "type": "event"
    },
    {
      "inputs": [
        {
          "internalType": "address",
          "name": "to",
          "type": "address"
        },
        {
          "internalType": "uint256",
          "name": "tokenId",
          "type": "uint256"
        }
      ],
      "name": "approve",
      "outputs": [],
      "stateMutability": "nonpayable",
      "type": "function"
    },
    {
      "inputs": [
        {
          "internalType": "address",
          "name": "owner",
          "type": "address"
        }
      ],
      "name": "balanceOf",
      "outputs": [
        {
          "internalType": "uint256",
          "name": "",
          "type": "uint256"
        }
      ],
      "stateMutability": "view",
      "type": "function"
    },
    {
      "inputs": [
        {
          "internalType": "uint256",
          "name": "tokenId",
          "type": "uint256"
        }
      ],
      "name": "getApproved",
      "outputs": [
        {
          "internalType": "address",
          "name": "",
          "type": "address"
        }
      ],
      "stateMutability": "view",
      "type": "function"
    },
    {
      "inputs": [
        {
          "internalType": "address",
          "name": "owner",
          "type": "address"
        },
        {
          "internalType": "address",
          "name": "operator",
          "type": "address"
        }
      ],
      "name": "isApprovedForAll",
      "outputs": [
        {
          "internalType": "bool",
          "name": "",
          "type": "bool"
        }
      ],
      "stateMutability": "view",
      "type": "function"
    },
    {
      "inputs": [],
      "name": "name",
      "outputs": [
        {
          "internalType": "string",
          "name": "",
          "type": "string"
        }
      ],
      "stateMutability": "view",
      "type": "function"
    },
    {
      "inputs": [
        {
          "internalType": "uint256",
          "name": "tokenId",
          "type": "uint256"
        }
      ],
      "name": "ownerOf",
      "outputs": [
        {
          "internalType": "address",
          "name": "",
          "type": "address"
        }
      ],
      "stateMutability": "view",
      "type": "function"
    },
    {
      "inputs": [
        {
          "internalType": "address",
          "name": "from",
          "type": "address"
        },
        {
          "internalType": "address",
          "name": "to",
          "type": "address"
        },
        {
          "internalType": "uint256",
          "name": "tokenId",
          "type": "uint256"
        }
      ],
      "name": "safeTransferFrom",
      "outputs": [],
      "stateMutability": "nonpayable",
      "type": "function"
    },
    {
      "inputs": [
        {
          "internalType": "address",
          "name": "from",
          "type": "address"
        },
        {
          "internalType": "address",
          "name": "to",
          "type": "address"
        },
        {
          "internalType": "uint256",
          "name": "tokenId",
          "type": "uint256"
        },
        {
          "internalType": "bytes",
          "name": "data",
          "type": "bytes"
        }
      ],
      "name": "safeTransferFrom",
      "outputs": [],
      "stateMutability": "nonpayable",
      "type": "function"
    },
    {
      "inputs": [
        {
          "internalType": "address",
          "name": "operator",
          "type": "address"
        },
        {
          "internalType": "bool",
          "name": "approved",
          "type": "bool"
        }
      ],
      "name": "setApprovalForAll",
      "outputs": [],
      "stateMutability": "nonpayable",
      "type": "function"
    },
    {
      "inputs": [],
      "name": "symbol",
      "outputs": [
        {
          "internalType": "string",
          "name": "",
          "type": "string"
        }
      ],
      "stateMutability": "view",
      "type": "function"
    },
    {
      "inputs": [
        {
          "internalType": "uint256",
          "name": "tokenId",
          "type": "uint256"
        }
      ],
      "name": "tokenURI",
      "outputs": [
        {
          "internalType": "string",
          "name": "",
          "type": "string"
        }
      ],
      "stateMutability": "view",
      "type": "function"
    },
    {
      "inputs": [
        {
          "internalType": "address",
          "name": "from",
          "type": "address"
        },
        {
          "internalType": "address",
          "name": "to",
          "type": "address"
        },
        {
          "internalType": "uint256",
          "name": "tokenId",
          "type": "uint256"
        }
      ],
      "name": "transferFrom",
      "outputs": [],
      "stateMutability": "nonpayable",
      "type": "function"
    }
  ],
  "bytecode": "0x608060405234801561001057600080fd5b50612db8806100206000396000f3fe608060405234801561001057600080fd5b50600436106100b45760003560e01c806370a082311161007157806370a082311461018b57806395d89b41146101bb578063a22cb465146101d9578063b88d4fde146101f5578063c87b56dd14610211578063e985e9c514610241576100b4565b806306fdde03146100b9578063081812fc146100d7578063095ea7b31461010757806323b872dd1461012357806342842e0e1461013f5780636352211e1461015b575b600080fd5b6100c1610271565b6040516100ce9190611a92565b60405180910390f35b6100f160048036038101906100ec9190611afe565b61030c565b6040516100fe9190611b6c565b60405180910390f35b610121600480360381019061011c9190611bb3565b61035b565b005b61013d60048036038101906101389190611bf3565b610472565b005b61015960048036038101906101549190611bf3565b6104d2565b005b61017560048036038101906101709190611afe565b6104f2565b6040516101829190611b6c565b60405180910390f35b6101a560048036038101906101a09190611c46565b610578565b6040516101b29190611c82565b60405180910390f35b6101c3610638565b6040516101d09190611a92565b60405180910390f35b6101f360048036038101906101ee9190611cd5565b6106d3565b005b61020f600480360381019061020a9190611e4a565b6106e9565b005b61022b60048036038101906102269190611afe565b61074b565b6040516102389190611a92565b60405180910390f35b61025b60048036038101906102569190611ecd565b6107f4565b6040516102689190611f1c565b60405180910390f35b606061027b610891565b600601805461028990611f66565b80601f01602080910402602001604051908101604052809291908181526020018280546102b590611f66565b80156103025780601f106102d757610100808354040283529160200191610302565b820191906000526020600020905b8154815290600101906020018083116102e557829003601f168201915b5050505050905090565b6000610317826108be565b61031f610891565b600b01600083815260200190815260200160002060009054906101000a900473ffffffffffffffffffffffffffffffffffffffff169050919050565b600061036682610909565b90508073ffffffffffffffffffffffffffffffffffffffff168373ffffffffffffffffffffffffffffffffffffffff16036103d6576040517f08c379a00000000000000000000000000000000000000000000000000000000081526004016103cd90612009565b60405180910390fd5b8073ffffffffffffffffffffffffffffffffffffffff166103f561094f565b73ffffffffffffffffffffffffffffffffffffffff16148061042457506104238161041e61094f565b6107f4565b5b610463576040517f08c379a000000000000000000000000000000000000000000000000000000000815260040161045a9061209b565b60405180910390fd5b61046d8383610957565b505050565b61048361047d61094f565b82610a19565b6104c2576040517f08c379a00000000000000000000000000000000000000000000000000000000081526004016104b99061212d565b60405180910390fd5b6104cd838383610b6b565b505050565b6104ed838383604051806020016040528060008152506106e9565b505050565b6000806104fe83610909565b9050600073ffffffffffffffffffffffffffffffffffffffff168173ffffffffffffffffffffffffffffffffffffffff160361056f576040517f08c379a000000000000000000000000000000000000000000000000000000000815260040161056690612199565b60405180910390fd5b80915050919050565b60008073ffffffffffffffffffffffffffffffffffffffff168273ffffffffffffffffffffffffffffffffffffffff16036105e8576040517f08c379a00000000000000000000000000000000000000000000000000000000081526004016105df9061222b565b60405180910390fd5b6105f0610891565b600a0160008373ffffffffffffffffffffffffffffffffffffffff1673ffffffffffffffffffffffffffffffffffffffff168152602001908152602001600020549050919050565b6060610642610891565b600701805461065090611f66565b80601f016020809104026020016040519081016040528092919081815260200182805461067c90611f66565b80156106c95780601f1061069e576101008083540402835291602001916106c9565b820191906000526020600020905b8154815290600101906020018083116106ac57829003601f168201915b5050505050905090565b6106e56106de61094f565b8383610e88565b5050565b6106fa6106f461094f565b83610a19565b610739576040517f08c379a00000000000000000000000000000000000000000000000000000000081526004016107309061212d565b60405180910390fd5b61074584848484610ffd565b50505050565b6060610756826108be565b600061076183611059565b9050600061076e826112a7565b905060006107c8836101a00151846101e001516107955761078d610891565b600d016107a1565b61079d610891565b600c015b846040516020016107b493929190612475565b604051602081830303815290604052611398565b9050806040516020016107db919061251e565b6040516020818303038152906040529350505050919050565b60006107fe610891565b60080160008473ffffffffffffffffffffffffffffffffffffffff1673ffffffffffffffffffffffffffffffffffffffff16815260200190815260200160002060008373ffffffffffffffffffffffffffffffffffffffff1673ffffffffffffffffffffffffffffffffffffffff16815260200190815260200160002060009054906101000a900460ff16905092915050565b6000807f2569078dfb4b0305704d3008e7403993ae9601b85f7ae5e742de3de8f8011c4090508091505090565b6108c7816114fb565b610906576040517f08c379a00000000000000000000000000000000000000000000000000000000081526004016108fd90612199565b60405180910390fd5b50565b6000610913610891565b600901600083815260200190815260200160002060009054906101000a900473ffffffffffffffffffffffffffffffffffffffff169050919050565b600033905090565b81610960610891565b600b01600083815260200190815260200160002060006101000a81548173ffffffffffffffffffffffffffffffffffffffff021916908373ffffffffffffffffffffffffffffffffffffffff160217905550808273ffffffffffffffffffffffffffffffffffffffff166109d383610909565b73ffffffffffffffffffffffffffffffffffffffff167f8c5be1e5ebec7d5bd14f71427d1e84f3dd0314c0f7b2291e5b200ac8c7c3b92560405160405180910390a45050565b600080610a2583610909565b90508073ffffffffffffffffffffffffffffffffffffffff168473ffffffffffffffffffffffffffffffffffffffff161480610af05750610a64610891565b60080160008273ffffffffffffffffffffffffffffffffffffffff1673ffffffffffffffffffffffffffffffffffffffff16815260200190815260200160002060008573ffffffffffffffffffffffffffffffffffffffff1673ffffffffffffffffffffffffffffffffffffffff16815260200190815260200160002060009054906101000a900460ff165b80610b6257508373ffffffffffffffffffffffffffffffffffffffff16610b15610891565b600b01600085815260200190815260200160002060009054906101000a900473ffffffffffffffffffffffffffffffffffffffff1673ffffffffffffffffffffffffffffffffffffffff16145b91505092915050565b8273ffffffffffffffffffffffffffffffffffffffff16610b8b82610909565b73ffffffffffffffffffffffffffffffffffffffff1614610be1576040517f08c379a0000000000000000000000000000000000000000000000000000000008152600401610bd8906125b2565b60405180910390fd5b600073ffffffffffffffffffffffffffffffffffffffff168273ffffffffffffffffffffffffffffffffffffffff1603610c50576040517f08c379a0000000000000000000000000000000000000000000000000000000008152600401610c4790612644565b60405180910390fd5b610c5d838383600161153c565b8273ffffffffffffffffffffffffffffffffffffffff16610c7d82610909565b73ffffffffffffffffffffffffffffffffffffffff1614610cd3576040517f08c379a0000000000000000000000000000000000000000000000000000000008152600401610cca906125b2565b60405180910390fd5b610cdb610891565b600b01600082815260200190815260200160002060006101000a81549073ffffffffffffffffffffffffffffffffffffffff02191690556001610d1c610891565b600a0160008573ffffffffffffffffffffffffffffffffffffffff1673ffffffffffffffffffffffffffffffffffffffff168152602001908152602001600020600082825403925050819055506001610d73610891565b600a0160008473ffffffffffffffffffffffffffffffffffffffff1673ffffffffffffffffffffffffffffffffffffffff1681526020019081526020016000206000828254019250508190555081610dc9610891565b600901600083815260200190815260200160002060006101000a81548173ffffffffffffffffffffffffffffffffffffffff021916908373ffffffffffffffffffffffffffffffffffffffff160217905550808273ffffffffffffffffffffffffffffffffffffffff168473ffffffffffffffffffffffffffffffffffffffff167fddf252ad1be2c89b69c2b068fc378daa952ba7f163c4a11628f55a4df523b3ef60405160405180910390a4610e838383836001611542565b505050565b8173ffffffffffffffffffffffffffffffffffffffff168373ffffffffffffffffffffffffffffffffffffffff1603610ef6576040517f08c379a0000000000000000000000000000000000000000000000000000000008152600401610eed906126b0565b60405180910390fd5b80610eff610891565b60080160008573ffffffffffffffffffffffffffffffffffffffff1673ffffffffffffffffffffffffffffffffffffffff16815260200190815260200160002060008473ffffffffffffffffffffffffffffffffffffffff1673ffffffffffffffffffffffffffffffffffffffff16815260200190815260200160002060006101000a81548160ff0219169083151502179055508173ffffffffffffffffffffffffffffffffffffffff168373ffffffffffffffffffffffffffffffffffffffff167f17307eab39ab6107e8899845ad3d59bd9653f200f220920489ca2b5937696c3183604051610ff09190611f1c565b60405180910390a3505050565b611008848484610b6b565b61101484848484611548565b611053576040517f08c379a000000000000000000000000000000000000000000000000000000000815260040161104a90612742565b60405180910390fd5b50505050565b611061611940565b600061106b6116cf565b90508060030160008481526020019081526020016000206040518061022001604052908160008201548152602001600182015481526020016002820154815260200160038201548152602001600482015481526020016005820154815260200160068201548152602001600782015481526020016008820154815260200160098201548152602001600a8201548152602001600b8201548152602001600c8201548152602001600d8201805461112090611f66565b80601f016020809104026020016040519081016040528092919081815260200182805461114c90611f66565b80156111995780601f1061116e57610100808354040283529160200191611199565b820191906000526020600020905b81548152906001019060200180831161117c57829003601f168201915b50505050508152602001600e820180546111b290611f66565b80601f01602080910402602001604051908101604052809291908181526020018280546111de90611f66565b801561122b5780601f106112005761010080835404028352916020019161122b565b820191906000526020600020905b81548152906001019060200180831161120e57829003601f168201915b50505050508152602001600f820160009054906101000a900460ff16151515158152602001601082016040518060c0016040529081600082015481526020016001820154815260200160028201548152602001600382015481526020016004820154815260200160058201548152505081525050915050919050565b6060816101a001516112bc83600001516116fc565b6112c984602001516116fc565b6112d685604001516116fc565b856101e0015161131b576040518060400160405280600681526020017f46656d616c650000000000000000000000000000000000000000000000000000815250611352565b6040518060400160405280600481526020017f4d616c65000000000000000000000000000000000000000000000000000000008152505b61135f87606001516116fc565b61136c88608001516116fc565b6040516020016113829796959493929190612a5a565b6040516020818303038152906040529050919050565b606060008251036113ba576040518060200160405280600081525090506114f6565b6000604051806060016040528060408152602001612d4360409139905060006003600285516113e99190612b46565b6113f39190612ba9565b60046113ff9190612bda565b67ffffffffffffffff81111561141857611417611d1f565b5b6040519080825280601f01601f19166020018201604052801561144a5781602001600182028036833780820191505090505b509050600182016020820185865187015b808210156114b6576003820191508151603f8160121c168501518453600184019350603f81600c1c168501518453600184019350603f8160061c168501518453600184019350603f811685015184536001840193505061145b565b50506003865106600181146114d257600281146114e5576114ed565b603d6001830353603d60028303536114ed565b603d60018303535b50505080925050505b919050565b60008073ffffffffffffffffffffffffffffffffffffffff1661151d83610909565b73ffffffffffffffffffffffffffffffffffffffff1614159050919050565b50505050565b50505050565b60006115698473ffffffffffffffffffffffffffffffffffffffff166117ca565b156116c2578373ffffffffffffffffffffffffffffffffffffffff1663150b7a0261159261094f565b8786866040518563ffffffff1660e01b81526004016115b49493929190612c71565b6020604051808303816000875af19250505080156115f057506040513d601f19601f820116820180604052508101906115ed9190612d15565b60015b611672573d8060008114611620576040519150601f19603f3d011682016040523d82523d6000602084013e611625565b606091505b50600081510361166a576040517f08c379a000000000000000000000000000000000000000000000000000000000815260040161166190612742565b60405180910390fd5b805181602001fd5b63150b7a0260e01b7bffffffffffffffffffffffffffffffffffffffffffffffffffffffff1916817bffffffffffffffffffffffffffffffffffffffffffffffffffffffff1916149150506116c7565b600190505b949350505050565b6000807f3cab9a070a0c61cd0ae9d9e9e2c0781e5ca8691bec4087e5a4701d5ac018dd4e90508091505090565b60606000600161170b846117ed565b01905060008167ffffffffffffffff81111561172a57611729611d1f565b5b6040519080825280601f01601f19166020018201604052801561175c5781602001600182028036833780820191505090505b509050600082602001820190505b6001156117bf578080600190039150507f3031323334353637383961626364656600000000000000000000000000000000600a86061a8153600a85816117b3576117b2612b7a565b5b0494506000850361176a575b819350505050919050565b6000808273ffffffffffffffffffffffffffffffffffffffff163b119050919050565b600080600090507a184f03e93ff9f4daa797ed6e38ed64bf6a1f010000000000000000831061184b577a184f03e93ff9f4daa797ed6e38ed64bf6a1f010000000000000000838161184157611840612b7a565b5b0492506040810190505b6d04ee2d6d415b85acef81000000008310611888576d04ee2d6d415b85acef8100000000838161187e5761187d612b7a565b5b0492506020810190505b662386f26fc1000083106118b757662386f26fc1000083816118ad576118ac612b7a565b5b0492506010810190505b6305f5e10083106118e0576305f5e10083816118d6576118d5612b7a565b5b0492506008810190505b61271083106119055761271083816118fb576118fa612b7a565b5b0492506004810190505b60648310611928576064838161191e5761191d612b7a565b5b0492506002810190505b600a8310611937576001810190505b80915050919050565b6040518061022001604052806000815260200160008152602001600081526020016000815260200160008152602001600081526020016000815260200160008152602001600081526020016000815260200160008152602001600081526020016000815260200160608152602001606081526020016000151581526020016119c66119cc565b81525090565b6040518060c001604052806000815260200160008152602001600081526020016000815260200160008152602001600081525090565b600081519050919050565b600082825260208201905092915050565b60005b83811015611a3c578082015181840152602081019050611a21565b60008484015250505050565b6000601f19601f8301169050919050565b6000611a6482611a02565b611a6e8185611a0d565b9350611a7e818560208601611a1e565b611a8781611a48565b840191505092915050565b60006020820190508181036000830152611aac8184611a59565b905092915050565b6000604051905090565b600080fd5b600080fd5b6000819050919050565b611adb81611ac8565b8114611ae657600080fd5b50565b600081359050611af881611ad2565b92915050565b600060208284031215611b1457611b13611abe565b5b6000611b2284828501611ae9565b91505092915050565b600073ffffffffffffffffffffffffffffffffffffffff82169050919050565b6000611b5682611b2b565b9050919050565b611b6681611b4b565b82525050565b6000602082019050611b816000830184611b5d565b92915050565b611b9081611b4b565b8114611b9b57600080fd5b50565b600081359050611bad81611b87565b92915050565b60008060408385031215611bca57611bc9611abe565b5b6000611bd885828601611b9e565b9250506020611be985828601611ae9565b9150509250929050565b600080600060608486031215611c0c57611c0b611abe565b5b6000611c1a86828701611b9e565b9350506020611c2b86828701611b9e565b9250506040611c3c86828701611ae9565b9150509250925092565b600060208284031215611c5c57611c5b611abe565b5b6000611c6a84828501611b9e565b91505092915050565b611c7c81611ac8565b82525050565b6000602082019050611c976000830184611c73565b92915050565b60008115159050919050565b611cb281611c9d565b8114611cbd57600080fd5b50565b600081359050611ccf81611ca9565b92915050565b60008060408385031215611cec57611ceb611abe565b5b6000611cfa85828601611b9e565b9250506020611d0b85828601611cc0565b9150509250929050565b600080fd5b600080fd5b7f4e487b7100000000000000000000000000000000000000000000000000000000600052604160045260246000fd5b611d5782611a48565b810181811067ffffffffffffffff82111715611d7657611d75611d1f565b5b80604052505050565b6000611d89611ab4565b9050611d958282611d4e565b919050565b600067ffffffffffffffff821115611db557611db4611d1f565b5b611dbe82611a48565b9050602081019050919050565b82818337600083830152505050565b6000611ded611de884611d9a565b611d7f565b905082815260208101848484011115611e0957611e08611d1a565b5b611e14848285611dcb565b509392505050565b600082601f830112611e3157611e30611d15565b5b8135611e41848260208601611dda565b91505092915050565b60008060008060808587031215611e6457611e63611abe565b5b6000611e7287828801611b9e565b9450506020611e8387828801611b9e565b9350506040611e9487828801611ae9565b925050606085013567ffffffffffffffff811115611eb557611eb4611ac3565b5b611ec187828801611e1c565b91505092959194509250565b60008060408385031215611ee457611ee3611abe565b5b6000611ef285828601611b9e565b9250506020611f0385828601611b9e565b9150509250929050565b611f1681611c9d565b82525050565b6000602082019050611f316000830184611f0d565b92915050565b7f4e487b7100000000000000000000000000000000000000000000000000000000600052602260045260246000fd5b60006002820490506001821680611f7e57607f821691505b602082108103611f9157611f90611f37565b5b50919050565b7f4552433732313a20617070726f76616c20746f2063757272656e74206f776e6560008201527f7200000000000000000000000000000000000000000000000000000000000000602082015250565b6000611ff3602183611a0d565b9150611ffe82611f97565b604082019050919050565b6000602082019050818103600083015261202281611fe6565b9050919050565b7f4552433732313a20617070726f76652063616c6c6572206973206e6f7420746f60008201527f6b656e206f776e6572206f7220617070726f76656420666f7220616c6c000000602082015250565b6000612085603d83611a0d565b915061209082612029565b604082019050919050565b600060208201905081810360008301526120b481612078565b9050919050565b7f4552433732313a2063616c6c6572206973206e6f7420746f6b656e206f776e6560008201527f72206f7220617070726f76656400000000000000000000000000000000000000602082015250565b6000612117602d83611a0d565b9150612122826120bb565b604082019050919050565b600060208201905081810360008301526121468161210a565b9050919050565b7f4552433732313a20696e76616c696420746f6b656e2049440000000000000000600082015250565b6000612183601883611a0d565b915061218e8261214d565b602082019050919050565b600060208201905081810360008301526121b281612176565b9050919050565b7f4552433732313a2061646472657373207a65726f206973206e6f74206120766160008201527f6c6964206f776e65720000000000000000000000000000000000000000000000602082015250565b6000612215602983611a0d565b9150612220826121b9565b604082019050919050565b6000602082019050818103600083015261224481612208565b9050919050565b600081905092915050565b7f7b226e616d65223a220000000000000000000000000000000000000000000000600082015250565b600061228c60098361224b565b915061229782612256565b600982019050919050565b60006122ad82611a02565b6122b7818561224b565b93506122c7818560208601611a1e565b80840191505092915050565b7f222c226465736372697074696f6e223a22506c61796572204e46542066726f6d60008201527f204f6d6e694b696e67646f6d73222c22696d616765223a220000000000000000602082015250565b600061232f60388361224b565b915061233a826122d3565b603882019050919050565b60008190508160005260206000209050919050565b6000815461236781611f66565b612371818661224b565b9450600182166000811461238c57600181146123a1576123d4565b60ff19831686528115158202860193506123d4565b6123aa85612345565b60005b838110156123cc578154818901526001820191506020810190506123ad565b838801955050505b50505092915050565b7f222c2261747472696275746573223a0000000000000000000000000000000000600082015250565b6000612413600f8361224b565b915061241e826123dd565b600f82019050919050565b7f7d00000000000000000000000000000000000000000000000000000000000000600082015250565b600061245f60018361224b565b915061246a82612429565b600182019050919050565b60006124808261227f565b915061248c82866122a2565b915061249782612322565b91506124a3828561235a565b91506124ae82612406565b91506124ba82846122a2565b91506124c582612452565b9150819050949350505050565b7f646174613a6170706c69636174696f6e2f6a736f6e3b6261736536342c000000600082015250565b6000612508601d8361224b565b9150612513826124d2565b601d82019050919050565b6000612529826124fb565b915061253582846122a2565b915081905092915050565b7f4552433732313a207472616e736665722066726f6d20696e636f72726563742060008201527f6f776e6572000000000000000000000000000000000000000000000000000000602082015250565b600061259c602583611a0d565b91506125a782612540565b604082019050919050565b600060208201905081810360008301526125cb8161258f565b9050919050565b7f4552433732313a207472616e7366657220746f20746865207a65726f2061646460008201527f7265737300000000000000000000000000000000000000000000000000000000602082015250565b600061262e602483611a0d565b9150612639826125d2565b604082019050919050565b6000602082019050818103600083015261265d81612621565b9050919050565b7f4552433732313a20617070726f766520746f2063616c6c657200000000000000600082015250565b600061269a601983611a0d565b91506126a582612664565b602082019050919050565b600060208201905081810360008301526126c98161268d565b9050919050565b7f4552433732313a207472616e7366657220746f206e6f6e20455243373231526560008201527f63656976657220696d706c656d656e7465720000000000000000000000000000602082015250565b600061272c603283611a0d565b9150612737826126d0565b604082019050919050565b6000602082019050818103600083015261275b8161271f565b9050919050565b7f5b7b2274726169745f74797065223a224e616d65222c2276616c7565223a0000600082015250565b6000612798601e8361224b565b91506127a382612762565b601e82019050919050565b7f7d2c7b2274726169745f74797065223a224c6576656c222c2276616c7565223a600082015250565b60006127e460208361224b565b91506127ef826127ae565b602082019050919050565b7f7d2c7b2274726169745f74797065223a225850222c2276616c7565223a000000600082015250565b6000612830601d8361224b565b915061283b826127fa565b601d82019050919050565b7f7d2c7b2274726169745f74797065223a22537461747573222c2276616c75652260008201527f3a00000000000000000000000000000000000000000000000000000000000000602082015250565b60006128a260218361224b565b91506128ad82612846565b602182019050919050565b7f7d2c7b2274726169745f74797065223a2247656e646572222c2276616c75652260008201527f3a00000000000000000000000000000000000000000000000000000000000000602082015250565b600061291460218361224b565b915061291f826128b8565b602182019050919050565b7f7d2c7b2274726169745f74797065223a22537472656e677468222c2276616c7560008201527f65223a0000000000000000000000000000000000000000000000000000000000602082015250565b600061298660238361224b565b91506129918261292a565b602382019050919050565b7f7d2c7b2274726169745f74797065223a224865616c7468222c2276616c75652260008201527f3a00000000000000000000000000000000000000000000000000000000000000602082015250565b60006129f860218361224b565b9150612a038261299c565b602182019050919050565b7f7d5d000000000000000000000000000000000000000000000000000000000000600082015250565b6000612a4460028361224b565b9150612a4f82612a0e565b600282019050919050565b6000612a658261278b565b9150612a71828a6122a2565b9150612a7c826127d7565b9150612a8882896122a2565b9150612a9382612823565b9150612a9f82886122a2565b9150612aaa82612895565b9150612ab682876122a2565b9150612ac182612907565b9150612acd82866122a2565b9150612ad882612979565b9150612ae482856122a2565b9150612aef826129eb565b9150612afb82846122a2565b9150612b0682612a37565b915081905098975050505050505050565b7f4e487b7100000000000000000000000000000000000000000000000000000000600052601160045260246000fd5b6000612b5182611ac8565b9150612b5c83611ac8565b9250828201905080821115612b7457612b73612b17565b5b92915050565b7f4e487b7100000000000000000000000000000000000000000000000000000000600052601260045260246000fd5b6000612bb482611ac8565b9150612bbf83611ac8565b925082612bcf57612bce612b7a565b5b828204905092915050565b6000612be582611ac8565b9150612bf083611ac8565b9250828202612bfe81611ac8565b91508282048414831517612c1557612c14612b17565b5b5092915050565b600081519050919050565b600082825260208201905092915050565b6000612c4382612c1c565b612c4d8185612c27565b9350612c5d818560208601611a1e565b612c6681611a48565b840191505092915050565b6000608082019050612c866000830187611b5d565b612c936020830186611b5d565b612ca06040830185611c73565b8181036060830152612cb28184612c38565b905095945050505050565b60007fffffffff0000000000000000000000000000000000000000000000000000000082169050919050565b612cf281612cbd565b8114612cfd57600080fd5b50565b600081519050612d0f81612ce9565b92915050565b600060208284031215612d2b57612d2a611abe565b5b6000612d3984828501612d00565b9150509291505056fe4142434445464748494a4b4c4d4e4f505152535455565758595a6162636465666768696a6b6c6d6e6f707172737475767778797a303132333435363738392b2fa2646970667358221220316d0d98f787ac526f7bdc9277b25e7df8f45b40699415f4a0d4250be76a720164736f6c63430008110033",
  "linkReferences": {},
  "deployedLinkReferences": {}
}