{
  "_format": "hh-sol-artifact-1",
  "contractName": "ERC721Facet",
  "sourceName": "contracts/facets/ERC721Facet.sol",
  "abi": [
    {
      "anonymous": false,
      "inputs": [
        {
          "indexed": true,
          "internalType": "address",
          "name": "owner",
          "type": "address"
        },
        {
          "indexed": true,
          "internalType": "address",
          "name": "approved",
          "type": "address"
        },
        {
          "indexed": true,
          "internalType": "uint256",
          "name": "tokenId",
          "type": "uint256"
        }
      ],
      "name": "Approval",
      "type": "event"
    },
    {
      "anonymous": false,
      "inputs": [
        {
          "indexed": true,
          "internalType": "address",
          "name": "owner",
          "type": "address"
        },
        {
          "indexed": true,
          "internalType": "address",
          "name": "operator",
          "type": "address"
        },
        {
          "indexed": false,
          "internalType": "bool",
          "name": "approved",
          "type": "bool"
        }
      ],
      "name": "ApprovalForAll",
      "type": "event"
    },
    {
      "anonymous": false,
      "inputs": [
        {
          "indexed": true,
          "internalType": "address",
          "name": "from",
          "type": "address"
        },
        {
          "indexed": true,
          "internalType": "address",
          "name": "to",
          "type": "address"
        },
        {
          "indexed": true,
          "internalType": "uint256",
          "name": "tokenId",
          "type": "uint256"
        }
      ],
      "name": "Transfer",
      "type": "event"
    },
    {
      "inputs": [
        {
          "internalType": "address",
          "name": "to",
          "type": "address"
        },
        {
          "internalType": "uint256",
          "name": "tokenId",
          "type": "uint256"
        }
      ],
      "name": "approve",
      "outputs": [],
      "stateMutability": "nonpayable",
      "type": "function"
    },
    {
      "inputs": [
        {
          "internalType": "address",
          "name": "owner",
          "type": "address"
        }
      ],
      "name": "balanceOf",
      "outputs": [
        {
          "internalType": "uint256",
          "name": "",
          "type": "uint256"
        }
      ],
      "stateMutability": "view",
      "type": "function"
    },
    {
      "inputs": [
        {
          "internalType": "uint256",
          "name": "tokenId",
          "type": "uint256"
        }
      ],
      "name": "getApproved",
      "outputs": [
        {
          "internalType": "address",
          "name": "",
          "type": "address"
        }
      ],
      "stateMutability": "view",
      "type": "function"
    },
    {
      "inputs": [
        {
          "internalType": "address",
          "name": "owner",
          "type": "address"
        },
        {
          "internalType": "address",
          "name": "operator",
          "type": "address"
        }
      ],
      "name": "isApprovedForAll",
      "outputs": [
        {
          "internalType": "bool",
          "name": "",
          "type": "bool"
        }
      ],
      "stateMutability": "view",
      "type": "function"
    },
    {
      "inputs": [],
      "name": "name",
      "outputs": [
        {
          "internalType": "string",
          "name": "",
          "type": "string"
        }
      ],
      "stateMutability": "view",
      "type": "function"
    },
    {
      "inputs": [
        {
          "internalType": "uint256",
          "name": "tokenId",
          "type": "uint256"
        }
      ],
      "name": "ownerOf",
      "outputs": [
        {
          "internalType": "address",
          "name": "",
          "type": "address"
        }
      ],
      "stateMutability": "view",
      "type": "function"
    },
    {
      "inputs": [
        {
          "internalType": "address",
          "name": "from",
          "type": "address"
        },
        {
          "internalType": "address",
          "name": "to",
          "type": "address"
        },
        {
          "internalType": "uint256",
          "name": "tokenId",
          "type": "uint256"
        }
      ],
      "name": "safeTransferFrom",
      "outputs": [],
      "stateMutability": "nonpayable",
      "type": "function"
    },
    {
      "inputs": [
        {
          "internalType": "address",
          "name": "from",
          "type": "address"
        },
        {
          "internalType": "address",
          "name": "to",
          "type": "address"
        },
        {
          "internalType": "uint256",
          "name": "tokenId",
          "type": "uint256"
        },
        {
          "internalType": "bytes",
          "name": "data",
          "type": "bytes"
        }
      ],
      "name": "safeTransferFrom",
      "outputs": [],
      "stateMutability": "nonpayable",
      "type": "function"
    },
    {
      "inputs": [
        {
          "internalType": "address",
          "name": "operator",
          "type": "address"
        },
        {
          "internalType": "bool",
          "name": "approved",
          "type": "bool"
        }
      ],
      "name": "setApprovalForAll",
      "outputs": [],
      "stateMutability": "nonpayable",
      "type": "function"
    },
    {
      "inputs": [],
      "name": "symbol",
      "outputs": [
        {
          "internalType": "string",
          "name": "",
          "type": "string"
        }
      ],
      "stateMutability": "view",
      "type": "function"
    },
    {
      "inputs": [
        {
          "internalType": "uint256",
          "name": "tokenId",
          "type": "uint256"
        }
      ],
      "name": "tokenURI",
      "outputs": [
        {
          "internalType": "string",
          "name": "",
          "type": "string"
        }
      ],
      "stateMutability": "view",
      "type": "function"
    }
  ],
  "bytecode": "0x608060405234801561001057600080fd5b5061378d806100206000396000f3fe608060405234801561001057600080fd5b50600436106100a95760003560e01c806370a082311161007157806370a082311461016457806395d89b4114610194578063a22cb465146101b2578063b88d4fde146101ce578063c87b56dd146101ea578063e985e9c51461021a576100a9565b806306fdde03146100ae578063081812fc146100cc578063095ea7b3146100fc57806342842e0e146101185780636352211e14610134575b600080fd5b6100b661024a565b6040516100c39190612453565b60405180910390f35b6100e660048036038101906100e191906124bf565b6102e5565b6040516100f3919061252d565b60405180910390f35b61011660048036038101906101119190612574565b610334565b005b610132600480360381019061012d91906125b4565b61044b565b005b61014e600480360381019061014991906124bf565b61046b565b60405161015b919061252d565b60405180910390f35b61017e60048036038101906101799190612607565b6104f1565b60405161018b9190612643565b60405180910390f35b61019c6105b1565b6040516101a99190612453565b60405180910390f35b6101cc60048036038101906101c79190612696565b61064c565b005b6101e860048036038101906101e3919061280b565b610662565b005b61020460048036038101906101ff91906124bf565b6106c4565b6040516102119190612453565b60405180910390f35b610234600480360381019061022f919061288e565b610793565b60405161024191906128dd565b60405180910390f35b6060610254610830565b600601805461026290612927565b80601f016020809104026020016040519081016040528092919081815260200182805461028e90612927565b80156102db5780601f106102b0576101008083540402835291602001916102db565b820191906000526020600020905b8154815290600101906020018083116102be57829003601f168201915b5050505050905090565b60006102f08261085d565b6102f8610830565b600b01600083815260200190815260200160002060009054906101000a900473ffffffffffffffffffffffffffffffffffffffff169050919050565b600061033f826108a8565b90508073ffffffffffffffffffffffffffffffffffffffff168373ffffffffffffffffffffffffffffffffffffffff16036103af576040517f08c379a00000000000000000000000000000000000000000000000000000000081526004016103a6906129ca565b60405180910390fd5b8073ffffffffffffffffffffffffffffffffffffffff166103ce6108ee565b73ffffffffffffffffffffffffffffffffffffffff1614806103fd57506103fc816103f76108ee565b610793565b5b61043c576040517f08c379a000000000000000000000000000000000000000000000000000000000815260040161043390612a5c565b60405180910390fd5b61044683836108f6565b505050565b61046683838360405180602001604052806000815250610662565b505050565b600080610477836108a8565b9050600073ffffffffffffffffffffffffffffffffffffffff168173ffffffffffffffffffffffffffffffffffffffff16036104e8576040517f08c379a00000000000000000000000000000000000000000000000000000000081526004016104df90612ac8565b60405180910390fd5b80915050919050565b60008073ffffffffffffffffffffffffffffffffffffffff168273ffffffffffffffffffffffffffffffffffffffff1603610561576040517f08c379a000000000000000000000000000000000000000000000000000000000815260040161055890612b5a565b60405180910390fd5b610569610830565b600a0160008373ffffffffffffffffffffffffffffffffffffffff1673ffffffffffffffffffffffffffffffffffffffff168152602001908152602001600020549050919050565b60606105bb610830565b60070180546105c990612927565b80601f01602080910402602001604051908101604052809291908181526020018280546105f590612927565b80156106425780601f1061061757610100808354040283529160200191610642565b820191906000526020600020905b81548152906001019060200180831161062557829003601f168201915b5050505050905090565b61065e6106576108ee565b83836109b8565b5050565b61067361066d6108ee565b83610b2d565b6106b2576040517f08c379a00000000000000000000000000000000000000000000000000000000081526004016106a990612bec565b60405180910390fd5b6106be84848484610c7f565b50505050565b60606106cf8261085d565b60006106da83610cdb565b905060006106e782610f51565b905060006040518060400160405280601d81526020017f646174613a6170706c69636174696f6e2f6a736f6e3b6261736536342c0000008152509050600061072e8461103c565b90506000610763856101e00151858460405160200161074f93929190612d78565b604051602081830303815290604052611433565b90508281604051602001610778929190612dd5565b60405160208183030381529060405295505050505050919050565b600061079d610830565b60080160008473ffffffffffffffffffffffffffffffffffffffff1673ffffffffffffffffffffffffffffffffffffffff16815260200190815260200160002060008373ffffffffffffffffffffffffffffffffffffffff1673ffffffffffffffffffffffffffffffffffffffff16815260200190815260200160002060009054906101000a900460ff16905092915050565b6000807f2569078dfb4b0305704d3008e7403993ae9601b85f7ae5e742de3de8f8011c4090508091505090565b61086681611596565b6108a5576040517f08c379a000000000000000000000000000000000000000000000000000000000815260040161089c90612ac8565b60405180910390fd5b50565b60006108b2610830565b600901600083815260200190815260200160002060009054906101000a900473ffffffffffffffffffffffffffffffffffffffff169050919050565b600033905090565b816108ff610830565b600b01600083815260200190815260200160002060006101000a81548173ffffffffffffffffffffffffffffffffffffffff021916908373ffffffffffffffffffffffffffffffffffffffff160217905550808273ffffffffffffffffffffffffffffffffffffffff16610972836108a8565b73ffffffffffffffffffffffffffffffffffffffff167f8c5be1e5ebec7d5bd14f71427d1e84f3dd0314c0f7b2291e5b200ac8c7c3b92560405160405180910390a45050565b8173ffffffffffffffffffffffffffffffffffffffff168373ffffffffffffffffffffffffffffffffffffffff1603610a26576040517f08c379a0000000000000000000000000000000000000000000000000000000008152600401610a1d90612e45565b60405180910390fd5b80610a2f610830565b60080160008573ffffffffffffffffffffffffffffffffffffffff1673ffffffffffffffffffffffffffffffffffffffff16815260200190815260200160002060008473ffffffffffffffffffffffffffffffffffffffff1673ffffffffffffffffffffffffffffffffffffffff16815260200190815260200160002060006101000a81548160ff0219169083151502179055508173ffffffffffffffffffffffffffffffffffffffff168373ffffffffffffffffffffffffffffffffffffffff167f17307eab39ab6107e8899845ad3d59bd9653f200f220920489ca2b5937696c3183604051610b2091906128dd565b60405180910390a3505050565b600080610b39836108a8565b90508073ffffffffffffffffffffffffffffffffffffffff168473ffffffffffffffffffffffffffffffffffffffff161480610c045750610b78610830565b60080160008273ffffffffffffffffffffffffffffffffffffffff1673ffffffffffffffffffffffffffffffffffffffff16815260200190815260200160002060008573ffffffffffffffffffffffffffffffffffffffff1673ffffffffffffffffffffffffffffffffffffffff16815260200190815260200160002060009054906101000a900460ff165b80610c7657508373ffffffffffffffffffffffffffffffffffffffff16610c29610830565b600b01600085815260200190815260200160002060009054906101000a900473ffffffffffffffffffffffffffffffffffffffff1673ffffffffffffffffffffffffffffffffffffffff16145b91505092915050565b610c8a8484846115d7565b610c96848484846118ff565b610cd5576040517f08c379a0000000000000000000000000000000000000000000000000000000008152600401610ccc90612ed7565b60405180910390fd5b50505050565b610ce361227b565b6000610ced611a86565b90508060030160008481526020019081526020016000206040518061028001604052908160008201548152602001600182015481526020016002820154815260200160038201548152602001600482015481526020016005820154815260200160068201548152602001600782015481526020016008820154815260200160098201548152602001600a8201548152602001600b8201548152602001600c8201548152602001600d8201548152602001600e8201548152602001600f82018054610db690612927565b80601f0160208091040260200160405190810160405280929190818152602001828054610de290612927565b8015610e2f5780601f10610e0457610100808354040283529160200191610e2f565b820191906000526020600020905b815481529060010190602001808311610e1257829003601f168201915b50505050508152602001601082018054610e4890612927565b80601f0160208091040260200160405190810160405280929190818152602001828054610e7490612927565b8015610ec15780601f10610e9657610100808354040283529160200191610ec1565b820191906000526020600020905b815481529060010190602001808311610ea457829003601f168201915b505050505081526020016011820160009054906101000a900460ff16151515158152602001601282016040518060e00160405290816000820154815260200160018201548152602001600282015481526020016003820154815260200160048201548152602001600582015481526020016006820154815250508152602001601982015481525050915050919050565b6060610f608260000151611ab3565b610f6d8360200151611ab3565b610f7a8460400151611ab3565b846102200151610fbf576040518060400160405280600681526020017f46656d616c650000000000000000000000000000000000000000000000000000815250610ff6565b6040518060400160405280600481526020017f4d616c65000000000000000000000000000000000000000000000000000000008152505b611004866102600151611ab3565b6110118760600151611ab3565b6040516020016110269695949392919061317d565b6040516020818303038152906040529050919050565b60608060008361026001510361118e57826102200151156110f25761105f610830565b600c01805461106d90612927565b80601f016020809104026020016040519081016040528092919081815260200182805461109990612927565b80156110e65780601f106110bb576101008083540402835291602001916110e6565b820191906000526020600020905b8154815290600101906020018083116110c957829003601f168201915b50505050509050611189565b6110fa610830565b600d01805461110890612927565b80601f016020809104026020016040519081016040528092919081815260200182805461113490612927565b80156111815780601f1061115657610100808354040283529160200191611181565b820191906000526020600020905b81548152906001019060200180831161116457829003601f168201915b505050505090505b61142a565b6001836102600151036112dd5782610220015115611241576111ae610830565b600e0180546111bc90612927565b80601f01602080910402602001604051908101604052809291908181526020018280546111e890612927565b80156112355780601f1061120a57610100808354040283529160200191611235565b820191906000526020600020905b81548152906001019060200180831161121857829003601f168201915b505050505090506112d8565b611249610830565b600f01805461125790612927565b80601f016020809104026020016040519081016040528092919081815260200182805461128390612927565b80156112d05780601f106112a5576101008083540402835291602001916112d0565b820191906000526020600020905b8154815290600101906020018083116112b357829003601f168201915b505050505090505b611429565b6002836102600151036114285782610220015115611390576112fd610830565b601001805461130b90612927565b80601f016020809104026020016040519081016040528092919081815260200182805461133790612927565b80156113845780601f1061135957610100808354040283529160200191611384565b820191906000526020600020905b81548152906001019060200180831161136757829003601f168201915b50505050509050611427565b611398610830565b60110180546113a690612927565b80601f01602080910402602001604051908101604052809291908181526020018280546113d290612927565b801561141f5780601f106113f45761010080835404028352916020019161141f565b820191906000526020600020905b81548152906001019060200180831161140257829003601f168201915b505050505090505b5b5b5b80915050919050565b6060600082510361145557604051806020016040528060008152509050611591565b600060405180606001604052806040815260200161371860409139905060006003600285516114849190613288565b61148e91906132eb565b600461149a919061331c565b67ffffffffffffffff8111156114b3576114b26126e0565b5b6040519080825280601f01601f1916602001820160405280156114e55781602001600182028036833780820191505090505b509050600182016020820185865187015b80821015611551576003820191508151603f8160121c168501518453600184019350603f81600c1c168501518453600184019350603f8160061c168501518453600184019350603f81168501518453600184019350506114f6565b505060038651066001811461156d576002811461158057611588565b603d6001830353603d6002830353611588565b603d60018303535b50505080925050505b919050565b60008073ffffffffffffffffffffffffffffffffffffffff166115b8836108a8565b73ffffffffffffffffffffffffffffffffffffffff1614159050919050565b8273ffffffffffffffffffffffffffffffffffffffff166115f7826108a8565b73ffffffffffffffffffffffffffffffffffffffff161461164d576040517f08c379a0000000000000000000000000000000000000000000000000000000008152600401611644906133d0565b60405180910390fd5b600073ffffffffffffffffffffffffffffffffffffffff168273ffffffffffffffffffffffffffffffffffffffff16036116bc576040517f08c379a00000000000000000000000000000000000000000000000000000000081526004016116b390613462565b60405180910390fd5b6116c98383836001611b81565b8273ffffffffffffffffffffffffffffffffffffffff166116e9826108a8565b73ffffffffffffffffffffffffffffffffffffffff161461173f576040517f08c379a0000000000000000000000000000000000000000000000000000000008152600401611736906133d0565b60405180910390fd5b611747610830565b600b01600082815260200190815260200160002060006101000a81549073ffffffffffffffffffffffffffffffffffffffff02191690556001611788610830565b600a0160008573ffffffffffffffffffffffffffffffffffffffff1673ffffffffffffffffffffffffffffffffffffffff1681526020019081526020016000206000828254039250508190555060016117df610830565b600a0160008473ffffffffffffffffffffffffffffffffffffffff1673ffffffffffffffffffffffffffffffffffffffff1681526020019081526020016000206000828254019250508190555081611835610830565b600901600083815260200190815260200160002060006101000a81548173ffffffffffffffffffffffffffffffffffffffff021916908373ffffffffffffffffffffffffffffffffffffffff160217905550611892838383611b87565b808273ffffffffffffffffffffffffffffffffffffffff168473ffffffffffffffffffffffffffffffffffffffff167fddf252ad1be2c89b69c2b068fc378daa952ba7f163c4a11628f55a4df523b3ef60405160405180910390a46118fa83838360016120d2565b505050565b60006119208473ffffffffffffffffffffffffffffffffffffffff166120d8565b15611a79578373ffffffffffffffffffffffffffffffffffffffff1663150b7a026119496108ee565b8786866040518563ffffffff1660e01b815260040161196b94939291906134d7565b6020604051808303816000875af19250505080156119a757506040513d601f19601f820116820180604052508101906119a4919061357b565b60015b611a29573d80600081146119d7576040519150601f19603f3d011682016040523d82523d6000602084013e6119dc565b606091505b506000815103611a21576040517f08c379a0000000000000000000000000000000000000000000000000000000008152600401611a1890612ed7565b60405180910390fd5b805181602001fd5b63150b7a0260e01b7bffffffffffffffffffffffffffffffffffffffffffffffffffffffff1916817bffffffffffffffffffffffffffffffffffffffffffffffffffffffff191614915050611a7e565b600190505b949350505050565b6000807f3cab9a070a0c61cd0ae9d9e9e2c0781e5ca8691bec4087e5a4701d5ac018dd4e90508091505090565b606060006001611ac2846120fb565b01905060008167ffffffffffffffff811115611ae157611ae06126e0565b5b6040519080825280601f01601f191660200182016040528015611b135781602001600182028036833780820191505090505b509050600082602001820190505b600115611b76578080600190039150507f3031323334353637383961626364656600000000000000000000000000000000600a86061a8153600a8581611b6a57611b696132bc565b5b04945060008503611b21575b819350505050919050565b50505050565b6000611b9161224e565b90508373ffffffffffffffffffffffffffffffffffffffff1681600201600084815260200190815260200160002060009054906101000a900473ffffffffffffffffffffffffffffffffffffffff1673ffffffffffffffffffffffffffffffffffffffff1614611c0057600080fd5b600073ffffffffffffffffffffffffffffffffffffffff168373ffffffffffffffffffffffffffffffffffffffff1603611c6f576040517f08c379a0000000000000000000000000000000000000000000000000000000008152600401611c66906135f4565b60405180910390fd5b8281600201600084815260200190815260200160002060006101000a81548173ffffffffffffffffffffffffffffffffffffffff021916908373ffffffffffffffffffffffffffffffffffffffff16021790555060008160070160008673ffffffffffffffffffffffffffffffffffffffff1673ffffffffffffffffffffffffffffffffffffffff16815260200190815260200160002080549050905060005b81811015611fb457838360070160008873ffffffffffffffffffffffffffffffffffffffff1673ffffffffffffffffffffffffffffffffffffffff1681526020019081526020016000208281548110611d6b57611d6a613614565b5b906000526020600020015403611fa15760018360070160008873ffffffffffffffffffffffffffffffffffffffff1673ffffffffffffffffffffffffffffffffffffffff1681526020019081526020016000208054905003611e25576060808460070160008973ffffffffffffffffffffffffffffffffffffffff1673ffffffffffffffffffffffffffffffffffffffff1681526020019081526020016000209080519060200190611e1e92919061231c565b5050611f9c565b8260070160008773ffffffffffffffffffffffffffffffffffffffff1673ffffffffffffffffffffffffffffffffffffffff16815260200190815260200160002060018460070160008973ffffffffffffffffffffffffffffffffffffffff1673ffffffffffffffffffffffffffffffffffffffff16815260200190815260200160002080549050611eb79190613643565b81548110611ec857611ec7613614565b5b90600052602060002001548360070160008873ffffffffffffffffffffffffffffffffffffffff1673ffffffffffffffffffffffffffffffffffffffff1681526020019081526020016000208281548110611f2657611f25613614565b5b90600052602060002001819055508260070160008773ffffffffffffffffffffffffffffffffffffffff1673ffffffffffffffffffffffffffffffffffffffff168152602001908152602001600020805480611f8557611f84613677565b5b600190038181906000526020600020016000905590555b611fb4565b8080611fac906136a6565b915050611d0f565b508160070160008573ffffffffffffffffffffffffffffffffffffffff1673ffffffffffffffffffffffffffffffffffffffff1681526020019081526020016000208390806001815401808255809150506001900390600052602060002001600090919091909150558160040160008673ffffffffffffffffffffffffffffffffffffffff1673ffffffffffffffffffffffffffffffffffffffff168152602001908152602001600020600081548092919061206f906136ee565b91905055508160040160008573ffffffffffffffffffffffffffffffffffffffff1673ffffffffffffffffffffffffffffffffffffffff16815260200190815260200160002060008154809291906120c6906136a6565b91905055505050505050565b50505050565b6000808273ffffffffffffffffffffffffffffffffffffffff163b119050919050565b600080600090507a184f03e93ff9f4daa797ed6e38ed64bf6a1f0100000000000000008310612159577a184f03e93ff9f4daa797ed6e38ed64bf6a1f010000000000000000838161214f5761214e6132bc565b5b0492506040810190505b6d04ee2d6d415b85acef81000000008310612196576d04ee2d6d415b85acef8100000000838161218c5761218b6132bc565b5b0492506020810190505b662386f26fc1000083106121c557662386f26fc1000083816121bb576121ba6132bc565b5b0492506010810190505b6305f5e10083106121ee576305f5e10083816121e4576121e36132bc565b5b0492506008810190505b6127108310612213576127108381612209576122086132bc565b5b0492506004810190505b60648310612236576064838161222c5761222b6132bc565b5b0492506002810190505b600a8310612245576001810190505b80915050919050565b6000807f3cab9a070a0c61cd0ae9d9e9e2c0781e5ca8691bec4087e5a4701d5ac018dd4e90508091505090565b604051806102800160405280600081526020016000815260200160008152602001600081526020016000815260200160008152602001600081526020016000815260200160008152602001600081526020016000815260200160008152602001600081526020016000815260200160008152602001606081526020016060815260200160001515815260200161230f612369565b8152602001600081525090565b828054828255906000526020600020908101928215612358579160200282015b8281111561235757825182559160200191906001019061233c565b5b50905061236591906123a6565b5090565b6040518060e00160405280600081526020016000815260200160008152602001600081526020016000815260200160008152602001600081525090565b5b808211156123bf5760008160009055506001016123a7565b5090565b600081519050919050565b600082825260208201905092915050565b60005b838110156123fd5780820151818401526020810190506123e2565b60008484015250505050565b6000601f19601f8301169050919050565b6000612425826123c3565b61242f81856123ce565b935061243f8185602086016123df565b61244881612409565b840191505092915050565b6000602082019050818103600083015261246d818461241a565b905092915050565b6000604051905090565b600080fd5b600080fd5b6000819050919050565b61249c81612489565b81146124a757600080fd5b50565b6000813590506124b981612493565b92915050565b6000602082840312156124d5576124d461247f565b5b60006124e3848285016124aa565b91505092915050565b600073ffffffffffffffffffffffffffffffffffffffff82169050919050565b6000612517826124ec565b9050919050565b6125278161250c565b82525050565b6000602082019050612542600083018461251e565b92915050565b6125518161250c565b811461255c57600080fd5b50565b60008135905061256e81612548565b92915050565b6000806040838503121561258b5761258a61247f565b5b60006125998582860161255f565b92505060206125aa858286016124aa565b9150509250929050565b6000806000606084860312156125cd576125cc61247f565b5b60006125db8682870161255f565b93505060206125ec8682870161255f565b92505060406125fd868287016124aa565b9150509250925092565b60006020828403121561261d5761261c61247f565b5b600061262b8482850161255f565b91505092915050565b61263d81612489565b82525050565b60006020820190506126586000830184612634565b92915050565b60008115159050919050565b6126738161265e565b811461267e57600080fd5b50565b6000813590506126908161266a565b92915050565b600080604083850312156126ad576126ac61247f565b5b60006126bb8582860161255f565b92505060206126cc85828601612681565b9150509250929050565b600080fd5b600080fd5b7f4e487b7100000000000000000000000000000000000000000000000000000000600052604160045260246000fd5b61271882612409565b810181811067ffffffffffffffff82111715612737576127366126e0565b5b80604052505050565b600061274a612475565b9050612756828261270f565b919050565b600067ffffffffffffffff821115612776576127756126e0565b5b61277f82612409565b9050602081019050919050565b82818337600083830152505050565b60006127ae6127a98461275b565b612740565b9050828152602081018484840111156127ca576127c96126db565b5b6127d584828561278c565b509392505050565b600082601f8301126127f2576127f16126d6565b5b813561280284826020860161279b565b91505092915050565b600080600080608085870312156128255761282461247f565b5b60006128338782880161255f565b94505060206128448782880161255f565b9350506040612855878288016124aa565b925050606085013567ffffffffffffffff81111561287657612875612484565b5b612882878288016127dd565b91505092959194509250565b600080604083850312156128a5576128a461247f565b5b60006128b38582860161255f565b92505060206128c48582860161255f565b9150509250929050565b6128d78161265e565b82525050565b60006020820190506128f260008301846128ce565b92915050565b7f4e487b7100000000000000000000000000000000000000000000000000000000600052602260045260246000fd5b6000600282049050600182168061293f57607f821691505b602082108103612952576129516128f8565b5b50919050565b7f4552433732313a20617070726f76616c20746f2063757272656e74206f776e6560008201527f7200000000000000000000000000000000000000000000000000000000000000602082015250565b60006129b46021836123ce565b91506129bf82612958565b604082019050919050565b600060208201905081810360008301526129e3816129a7565b9050919050565b7f4552433732313a20617070726f76652063616c6c6572206973206e6f7420746f60008201527f6b656e206f776e6572206f7220617070726f76656420666f7220616c6c000000602082015250565b6000612a46603d836123ce565b9150612a51826129ea565b604082019050919050565b60006020820190508181036000830152612a7581612a39565b9050919050565b7f4552433732313a20696e76616c696420746f6b656e2049440000000000000000600082015250565b6000612ab26018836123ce565b9150612abd82612a7c565b602082019050919050565b60006020820190508181036000830152612ae181612aa5565b9050919050565b7f4552433732313a2061646472657373207a65726f206973206e6f74206120766160008201527f6c6964206f776e65720000000000000000000000000000000000000000000000602082015250565b6000612b446029836123ce565b9150612b4f82612ae8565b604082019050919050565b60006020820190508181036000830152612b7381612b37565b9050919050565b7f4552433732313a2063616c6c6572206973206e6f7420746f6b656e206f776e6560008201527f72206f7220617070726f76656400000000000000000000000000000000000000602082015250565b6000612bd6602d836123ce565b9150612be182612b7a565b604082019050919050565b60006020820190508181036000830152612c0581612bc9565b9050919050565b600081905092915050565b7f7b226e616d65223a220000000000000000000000000000000000000000000000600082015250565b6000612c4d600983612c0c565b9150612c5882612c17565b600982019050919050565b6000612c6e826123c3565b612c788185612c0c565b9350612c888185602086016123df565b80840191505092915050565b7f222c202261747472696275746573223a00000000000000000000000000000000600082015250565b6000612cca601083612c0c565b9150612cd582612c94565b601082019050919050565b7f2c2022696d616765223a22000000000000000000000000000000000000000000600082015250565b6000612d16600b83612c0c565b9150612d2182612ce0565b600b82019050919050565b7f227d000000000000000000000000000000000000000000000000000000000000600082015250565b6000612d62600283612c0c565b9150612d6d82612d2c565b600282019050919050565b6000612d8382612c40565b9150612d8f8286612c63565b9150612d9a82612cbd565b9150612da68285612c63565b9150612db182612d09565b9150612dbd8284612c63565b9150612dc882612d55565b9150819050949350505050565b6000612de18285612c63565b9150612ded8284612c63565b91508190509392505050565b7f4552433732313a20617070726f766520746f2063616c6c657200000000000000600082015250565b6000612e2f6019836123ce565b9150612e3a82612df9565b602082019050919050565b60006020820190508181036000830152612e5e81612e22565b9050919050565b7f4552433732313a207472616e7366657220746f206e6f6e20455243373231526560008201527f63656976657220696d706c656d656e7465720000000000000000000000000000602082015250565b6000612ec16032836123ce565b9150612ecc82612e65565b604082019050919050565b60006020820190508181036000830152612ef081612eb4565b9050919050565b7f5b7b2274726169745f74797065223a224c6576656c222c2276616c7565223a22600082015250565b6000612f2d602083612c0c565b9150612f3882612ef7565b602082019050919050565b7f227d2c0000000000000000000000000000000000000000000000000000000000600082015250565b6000612f79600383612c0c565b9150612f8482612f43565b600382019050919050565b7f7b2274726169745f74797065223a225850222c2276616c7565223a2200000000600082015250565b6000612fc5601c83612c0c565b9150612fd082612f8f565b601c82019050919050565b7f7b2274726169745f74797065223a22537461747573222c2276616c7565223a22600082015250565b6000613011602083612c0c565b915061301c82612fdb565b602082019050919050565b7f7b2274726169745f74797065223a2247656e646572222c2276616c7565223a22600082015250565b600061305d602083612c0c565b915061306882613027565b602082019050919050565b7f7b2274726169745f74797065223a22436c617373222c2276616c7565223a2200600082015250565b60006130a9601f83612c0c565b91506130b482613073565b601f82019050919050565b7f7b2274726169745f74797065223a22537472656e677468222c2276616c75652260008201527f3a22000000000000000000000000000000000000000000000000000000000000602082015250565b600061311b602283612c0c565b9150613126826130bf565b602282019050919050565b7f227d5d0000000000000000000000000000000000000000000000000000000000600082015250565b6000613167600383612c0c565b915061317282613131565b600382019050919050565b600061318882612f20565b91506131948289612c63565b915061319f82612f6c565b91506131aa82612fb8565b91506131b68288612c63565b91506131c182612f6c565b91506131cc82613004565b91506131d88287612c63565b91506131e382612f6c565b91506131ee82613050565b91506131fa8286612c63565b915061320582612f6c565b91506132108261309c565b915061321c8285612c63565b915061322782612f6c565b91506132328261310e565b915061323e8284612c63565b91506132498261315a565b9150819050979650505050505050565b7f4e487b7100000000000000000000000000000000000000000000000000000000600052601160045260246000fd5b600061329382612489565b915061329e83612489565b92508282019050808211156132b6576132b5613259565b5b92915050565b7f4e487b7100000000000000000000000000000000000000000000000000000000600052601260045260246000fd5b60006132f682612489565b915061330183612489565b925082613311576133106132bc565b5b828204905092915050565b600061332782612489565b915061333283612489565b925082820261334081612489565b9150828204841483151761335757613356613259565b5b5092915050565b7f4552433732313a207472616e736665722066726f6d20696e636f72726563742060008201527f6f776e6572000000000000000000000000000000000000000000000000000000602082015250565b60006133ba6025836123ce565b91506133c58261335e565b604082019050919050565b600060208201905081810360008301526133e9816133ad565b9050919050565b7f4552433732313a207472616e7366657220746f20746865207a65726f2061646460008201527f7265737300000000000000000000000000000000000000000000000000000000602082015250565b600061344c6024836123ce565b9150613457826133f0565b604082019050919050565b6000602082019050818103600083015261347b8161343f565b9050919050565b600081519050919050565b600082825260208201905092915050565b60006134a982613482565b6134b3818561348d565b93506134c38185602086016123df565b6134cc81612409565b840191505092915050565b60006080820190506134ec600083018761251e565b6134f9602083018661251e565b6135066040830185612634565b8181036060830152613518818461349e565b905095945050505050565b60007fffffffff0000000000000000000000000000000000000000000000000000000082169050919050565b61355881613523565b811461356357600080fd5b50565b6000815190506135758161354f565b92915050565b6000602082840312156135915761359061247f565b5b600061359f84828501613566565b91505092915050565b7f5f746f2063616e6e6f74206265207a65726f2061646472657373000000000000600082015250565b60006135de601a836123ce565b91506135e9826135a8565b602082019050919050565b6000602082019050818103600083015261360d816135d1565b9050919050565b7f4e487b7100000000000000000000000000000000000000000000000000000000600052603260045260246000fd5b600061364e82612489565b915061365983612489565b925082820390508181111561367157613670613259565b5b92915050565b7f4e487b7100000000000000000000000000000000000000000000000000000000600052603160045260246000fd5b60006136b182612489565b91507fffffffffffffffffffffffffffffffffffffffffffffffffffffffffffffffff82036136e3576136e2613259565b5b600182019050919050565b60006136f982612489565b91506000820361370c5761370b613259565b5b60018203905091905056fe4142434445464748494a4b4c4d4e4f505152535455565758595a6162636465666768696a6b6c6d6e6f707172737475767778797a303132333435363738392b2fa2646970667358221220905441ae3cc916e8ffbd9b6ccaf8959a4d887e3a69b047e9ecb5878772b9493264736f6c63430008120033",
  "linkReferences": {},
  "deployedLinkReferences": {}
}