{
  "_format": "hh-sol-artifact-1",
  "contractName": "ERC721Facet",
  "sourceName": "contracts/facets/ERC721Facet.sol",
  "abi": [
    {
      "anonymous": false,
      "inputs": [
        {
          "indexed": true,
          "internalType": "address",
          "name": "owner",
          "type": "address"
        },
        {
          "indexed": true,
          "internalType": "address",
          "name": "approved",
          "type": "address"
        },
        {
          "indexed": true,
          "internalType": "uint256",
          "name": "tokenId",
          "type": "uint256"
        }
      ],
      "name": "Approval",
      "type": "event"
    },
    {
      "anonymous": false,
      "inputs": [
        {
          "indexed": true,
          "internalType": "address",
          "name": "owner",
          "type": "address"
        },
        {
          "indexed": true,
          "internalType": "address",
          "name": "operator",
          "type": "address"
        },
        {
          "indexed": false,
          "internalType": "bool",
          "name": "approved",
          "type": "bool"
        }
      ],
      "name": "ApprovalForAll",
      "type": "event"
    },
    {
      "anonymous": false,
      "inputs": [
        {
          "indexed": true,
          "internalType": "address",
          "name": "from",
          "type": "address"
        },
        {
          "indexed": true,
          "internalType": "address",
          "name": "to",
          "type": "address"
        },
        {
          "indexed": true,
          "internalType": "uint256",
          "name": "tokenId",
          "type": "uint256"
        }
      ],
      "name": "Transfer",
      "type": "event"
    },
    {
      "inputs": [
        {
          "internalType": "address",
          "name": "to",
          "type": "address"
        },
        {
          "internalType": "uint256",
          "name": "tokenId",
          "type": "uint256"
        }
      ],
      "name": "approve",
      "outputs": [],
      "stateMutability": "nonpayable",
      "type": "function"
    },
    {
      "inputs": [
        {
          "internalType": "address",
          "name": "owner",
          "type": "address"
        }
      ],
      "name": "balanceOf",
      "outputs": [
        {
          "internalType": "uint256",
          "name": "",
          "type": "uint256"
        }
      ],
      "stateMutability": "view",
      "type": "function"
    },
    {
      "inputs": [
        {
          "internalType": "uint256",
          "name": "tokenId",
          "type": "uint256"
        }
      ],
      "name": "getApproved",
      "outputs": [
        {
          "internalType": "address",
          "name": "",
          "type": "address"
        }
      ],
      "stateMutability": "view",
      "type": "function"
    },
    {
      "inputs": [
        {
          "internalType": "address",
          "name": "owner",
          "type": "address"
        },
        {
          "internalType": "address",
          "name": "operator",
          "type": "address"
        }
      ],
      "name": "isApprovedForAll",
      "outputs": [
        {
          "internalType": "bool",
          "name": "",
          "type": "bool"
        }
      ],
      "stateMutability": "view",
      "type": "function"
    },
    {
      "inputs": [],
      "name": "name",
      "outputs": [
        {
          "internalType": "string",
          "name": "",
          "type": "string"
        }
      ],
      "stateMutability": "view",
      "type": "function"
    },
    {
      "inputs": [
        {
          "internalType": "uint256",
          "name": "tokenId",
          "type": "uint256"
        }
      ],
      "name": "ownerOf",
      "outputs": [
        {
          "internalType": "address",
          "name": "",
          "type": "address"
        }
      ],
      "stateMutability": "view",
      "type": "function"
    },
    {
      "inputs": [
        {
          "internalType": "address",
          "name": "from",
          "type": "address"
        },
        {
          "internalType": "address",
          "name": "to",
          "type": "address"
        },
        {
          "internalType": "uint256",
          "name": "tokenId",
          "type": "uint256"
        }
      ],
      "name": "safeTransferFrom",
      "outputs": [],
      "stateMutability": "nonpayable",
      "type": "function"
    },
    {
      "inputs": [
        {
          "internalType": "address",
          "name": "from",
          "type": "address"
        },
        {
          "internalType": "address",
          "name": "to",
          "type": "address"
        },
        {
          "internalType": "uint256",
          "name": "tokenId",
          "type": "uint256"
        },
        {
          "internalType": "bytes",
          "name": "data",
          "type": "bytes"
        }
      ],
      "name": "safeTransferFrom",
      "outputs": [],
      "stateMutability": "nonpayable",
      "type": "function"
    },
    {
      "inputs": [
        {
          "internalType": "address",
          "name": "operator",
          "type": "address"
        },
        {
          "internalType": "bool",
          "name": "approved",
          "type": "bool"
        }
      ],
      "name": "setApprovalForAll",
      "outputs": [],
      "stateMutability": "nonpayable",
      "type": "function"
    },
    {
      "inputs": [],
      "name": "symbol",
      "outputs": [
        {
          "internalType": "string",
          "name": "",
          "type": "string"
        }
      ],
      "stateMutability": "view",
      "type": "function"
    },
    {
      "inputs": [
        {
          "internalType": "uint256",
          "name": "tokenId",
          "type": "uint256"
        }
      ],
      "name": "tokenURI",
      "outputs": [
        {
          "internalType": "string",
          "name": "",
          "type": "string"
        }
      ],
      "stateMutability": "view",
      "type": "function"
    },
    {
      "inputs": [
        {
          "internalType": "address",
          "name": "from",
          "type": "address"
        },
        {
          "internalType": "address",
          "name": "to",
          "type": "address"
        },
        {
          "internalType": "uint256",
          "name": "tokenId",
          "type": "uint256"
        }
      ],
      "name": "transferFrom",
      "outputs": [],
      "stateMutability": "nonpayable",
      "type": "function"
    }
  ],
  "bytecode": "0x608060405234801561001057600080fd5b5061351a806100206000396000f3fe608060405234801561001057600080fd5b50600436106100b45760003560e01c806370a082311161007157806370a082311461018b57806395d89b41146101bb578063a22cb465146101d9578063b88d4fde146101f5578063c87b56dd14610211578063e985e9c514610241576100b4565b806306fdde03146100b9578063081812fc146100d7578063095ea7b31461010757806323b872dd1461012357806342842e0e1461013f5780636352211e1461015b575b600080fd5b6100c1610271565b6040516100ce9190612243565b60405180910390f35b6100f160048036038101906100ec91906122af565b61030c565b6040516100fe919061231d565b60405180910390f35b610121600480360381019061011c9190612364565b61035b565b005b61013d600480360381019061013891906123a4565b610472565b005b610159600480360381019061015491906123a4565b6104d2565b005b610175600480360381019061017091906122af565b6104f2565b604051610182919061231d565b60405180910390f35b6101a560048036038101906101a091906123f7565b610578565b6040516101b29190612433565b60405180910390f35b6101c3610638565b6040516101d09190612243565b60405180910390f35b6101f360048036038101906101ee9190612486565b6106d3565b005b61020f600480360381019061020a91906125fb565b6106e9565b005b61022b600480360381019061022691906122af565b61074b565b6040516102389190612243565b60405180910390f35b61025b6004803603810190610256919061267e565b61081a565b60405161026891906126cd565b60405180910390f35b606061027b6108b7565b600601805461028990612717565b80601f01602080910402602001604051908101604052809291908181526020018280546102b590612717565b80156103025780601f106102d757610100808354040283529160200191610302565b820191906000526020600020905b8154815290600101906020018083116102e557829003601f168201915b5050505050905090565b6000610317826108e4565b61031f6108b7565b600b01600083815260200190815260200160002060009054906101000a900473ffffffffffffffffffffffffffffffffffffffff169050919050565b60006103668261092f565b90508073ffffffffffffffffffffffffffffffffffffffff168373ffffffffffffffffffffffffffffffffffffffff16036103d6576040517f08c379a00000000000000000000000000000000000000000000000000000000081526004016103cd906127ba565b60405180910390fd5b8073ffffffffffffffffffffffffffffffffffffffff166103f5610975565b73ffffffffffffffffffffffffffffffffffffffff16148061042457506104238161041e610975565b61081a565b5b610463576040517f08c379a000000000000000000000000000000000000000000000000000000000815260040161045a9061284c565b60405180910390fd5b61046d838361097d565b505050565b61048361047d610975565b82610a3f565b6104c2576040517f08c379a00000000000000000000000000000000000000000000000000000000081526004016104b9906128de565b60405180910390fd5b6104cd838383610b91565b505050565b6104ed838383604051806020016040528060008152506106e9565b505050565b6000806104fe8361092f565b9050600073ffffffffffffffffffffffffffffffffffffffff168173ffffffffffffffffffffffffffffffffffffffff160361056f576040517f08c379a00000000000000000000000000000000000000000000000000000000081526004016105669061294a565b60405180910390fd5b80915050919050565b60008073ffffffffffffffffffffffffffffffffffffffff168273ffffffffffffffffffffffffffffffffffffffff16036105e8576040517f08c379a00000000000000000000000000000000000000000000000000000000081526004016105df906129dc565b60405180910390fd5b6105f06108b7565b600a0160008373ffffffffffffffffffffffffffffffffffffffff1673ffffffffffffffffffffffffffffffffffffffff168152602001908152602001600020549050919050565b60606106426108b7565b600701805461065090612717565b80601f016020809104026020016040519081016040528092919081815260200182805461067c90612717565b80156106c95780601f1061069e576101008083540402835291602001916106c9565b820191906000526020600020905b8154815290600101906020018083116106ac57829003601f168201915b5050505050905090565b6106e56106de610975565b8383610eb8565b5050565b6106fa6106f4610975565b83610a3f565b610739576040517f08c379a0000000000000000000000000000000000000000000000000000000008152600401610730906128de565b60405180910390fd5b6107458484848461102d565b50505050565b6060610756826108e4565b600061076183611089565b9050600061076e826112ff565b905060006040518060400160405280601d81526020017f646174613a6170706c69636174696f6e2f6a736f6e3b6261736536342c000000815250905060006107b5846113ea565b905060006107ea856101e0015185846040516020016107d693929190612b68565b6040516020818303038152906040526117e1565b905082816040516020016107ff929190612bc5565b60405160208183030381529060405295505050505050919050565b60006108246108b7565b60080160008473ffffffffffffffffffffffffffffffffffffffff1673ffffffffffffffffffffffffffffffffffffffff16815260200190815260200160002060008373ffffffffffffffffffffffffffffffffffffffff1673ffffffffffffffffffffffffffffffffffffffff16815260200190815260200160002060009054906101000a900460ff16905092915050565b6000807f2569078dfb4b0305704d3008e7403993ae9601b85f7ae5e742de3de8f8011c4090508091505090565b6108ed81611944565b61092c576040517f08c379a00000000000000000000000000000000000000000000000000000000081526004016109239061294a565b60405180910390fd5b50565b60006109396108b7565b600901600083815260200190815260200160002060009054906101000a900473ffffffffffffffffffffffffffffffffffffffff169050919050565b600033905090565b816109866108b7565b600b01600083815260200190815260200160002060006101000a81548173ffffffffffffffffffffffffffffffffffffffff021916908373ffffffffffffffffffffffffffffffffffffffff160217905550808273ffffffffffffffffffffffffffffffffffffffff166109f98361092f565b73ffffffffffffffffffffffffffffffffffffffff167f8c5be1e5ebec7d5bd14f71427d1e84f3dd0314c0f7b2291e5b200ac8c7c3b92560405160405180910390a45050565b600080610a4b8361092f565b90508073ffffffffffffffffffffffffffffffffffffffff168473ffffffffffffffffffffffffffffffffffffffff161480610b165750610a8a6108b7565b60080160008273ffffffffffffffffffffffffffffffffffffffff1673ffffffffffffffffffffffffffffffffffffffff16815260200190815260200160002060008573ffffffffffffffffffffffffffffffffffffffff1673ffffffffffffffffffffffffffffffffffffffff16815260200190815260200160002060009054906101000a900460ff165b80610b8857508373ffffffffffffffffffffffffffffffffffffffff16610b3b6108b7565b600b01600085815260200190815260200160002060009054906101000a900473ffffffffffffffffffffffffffffffffffffffff1673ffffffffffffffffffffffffffffffffffffffff16145b91505092915050565b8273ffffffffffffffffffffffffffffffffffffffff16610bb18261092f565b73ffffffffffffffffffffffffffffffffffffffff1614610c07576040517f08c379a0000000000000000000000000000000000000000000000000000000008152600401610bfe90612c5b565b60405180910390fd5b600073ffffffffffffffffffffffffffffffffffffffff168273ffffffffffffffffffffffffffffffffffffffff1603610c76576040517f08c379a0000000000000000000000000000000000000000000000000000000008152600401610c6d90612ced565b60405180910390fd5b610c838383836001611985565b8273ffffffffffffffffffffffffffffffffffffffff16610ca38261092f565b73ffffffffffffffffffffffffffffffffffffffff1614610cf9576040517f08c379a0000000000000000000000000000000000000000000000000000000008152600401610cf090612c5b565b60405180910390fd5b610d016108b7565b600b01600082815260200190815260200160002060006101000a81549073ffffffffffffffffffffffffffffffffffffffff02191690556001610d426108b7565b600a0160008573ffffffffffffffffffffffffffffffffffffffff1673ffffffffffffffffffffffffffffffffffffffff168152602001908152602001600020600082825403925050819055506001610d996108b7565b600a0160008473ffffffffffffffffffffffffffffffffffffffff1673ffffffffffffffffffffffffffffffffffffffff1681526020019081526020016000206000828254019250508190555081610def6108b7565b600901600083815260200190815260200160002060006101000a81548173ffffffffffffffffffffffffffffffffffffffff021916908373ffffffffffffffffffffffffffffffffffffffff160217905550610e4b828261198b565b808273ffffffffffffffffffffffffffffffffffffffff168473ffffffffffffffffffffffffffffffffffffffff167fddf252ad1be2c89b69c2b068fc378daa952ba7f163c4a11628f55a4df523b3ef60405160405180910390a4610eb38383836001611caa565b505050565b8173ffffffffffffffffffffffffffffffffffffffff168373ffffffffffffffffffffffffffffffffffffffff1603610f26576040517f08c379a0000000000000000000000000000000000000000000000000000000008152600401610f1d90612d59565b60405180910390fd5b80610f2f6108b7565b60080160008573ffffffffffffffffffffffffffffffffffffffff1673ffffffffffffffffffffffffffffffffffffffff16815260200190815260200160002060008473ffffffffffffffffffffffffffffffffffffffff1673ffffffffffffffffffffffffffffffffffffffff16815260200190815260200160002060006101000a81548160ff0219169083151502179055508173ffffffffffffffffffffffffffffffffffffffff168373ffffffffffffffffffffffffffffffffffffffff167f17307eab39ab6107e8899845ad3d59bd9653f200f220920489ca2b5937696c318360405161102091906126cd565b60405180910390a3505050565b611038848484610b91565b61104484848484611cb0565b611083576040517f08c379a000000000000000000000000000000000000000000000000000000000815260040161107a90612deb565b60405180910390fd5b50505050565b6110916120d5565b600061109b611e37565b90508060030160008481526020019081526020016000206040518061028001604052908160008201548152602001600182015481526020016002820154815260200160038201548152602001600482015481526020016005820154815260200160068201548152602001600782015481526020016008820154815260200160098201548152602001600a8201548152602001600b8201548152602001600c8201548152602001600d8201548152602001600e8201548152602001600f8201805461116490612717565b80601f016020809104026020016040519081016040528092919081815260200182805461119090612717565b80156111dd5780601f106111b2576101008083540402835291602001916111dd565b820191906000526020600020905b8154815290600101906020018083116111c057829003601f168201915b505050505081526020016010820180546111f690612717565b80601f016020809104026020016040519081016040528092919081815260200182805461122290612717565b801561126f5780601f106112445761010080835404028352916020019161126f565b820191906000526020600020905b81548152906001019060200180831161125257829003601f168201915b505050505081526020016011820160009054906101000a900460ff16151515158152602001601282016040518060e00160405290816000820154815260200160018201548152602001600282015481526020016003820154815260200160048201548152602001600582015481526020016006820154815250508152602001601982015481525050915050919050565b606061130e8260000151611e64565b61131b8360200151611e64565b6113288460400151611e64565b84610220015161136d576040518060400160405280600681526020017f46656d616c6500000000000000000000000000000000000000000000000000008152506113a4565b6040518060400160405280600481526020017f4d616c65000000000000000000000000000000000000000000000000000000008152505b6113b2866102600151611e64565b6113bf8760600151611e64565b6040516020016113d496959493929190613091565b6040516020818303038152906040529050919050565b60608060008361026001510361153c57826102200151156114a05761140d6108b7565b600c01805461141b90612717565b80601f016020809104026020016040519081016040528092919081815260200182805461144790612717565b80156114945780601f1061146957610100808354040283529160200191611494565b820191906000526020600020905b81548152906001019060200180831161147757829003601f168201915b50505050509050611537565b6114a86108b7565b600d0180546114b690612717565b80601f01602080910402602001604051908101604052809291908181526020018280546114e290612717565b801561152f5780601f106115045761010080835404028352916020019161152f565b820191906000526020600020905b81548152906001019060200180831161151257829003601f168201915b505050505090505b6117d8565b60018361026001510361168b57826102200151156115ef5761155c6108b7565b600e01805461156a90612717565b80601f016020809104026020016040519081016040528092919081815260200182805461159690612717565b80156115e35780601f106115b8576101008083540402835291602001916115e3565b820191906000526020600020905b8154815290600101906020018083116115c657829003601f168201915b50505050509050611686565b6115f76108b7565b600f01805461160590612717565b80601f016020809104026020016040519081016040528092919081815260200182805461163190612717565b801561167e5780601f106116535761010080835404028352916020019161167e565b820191906000526020600020905b81548152906001019060200180831161166157829003601f168201915b505050505090505b6117d7565b6002836102600151036117d6578261022001511561173e576116ab6108b7565b60100180546116b990612717565b80601f01602080910402602001604051908101604052809291908181526020018280546116e590612717565b80156117325780601f1061170757610100808354040283529160200191611732565b820191906000526020600020905b81548152906001019060200180831161171557829003601f168201915b505050505090506117d5565b6117466108b7565b601101805461175490612717565b80601f016020809104026020016040519081016040528092919081815260200182805461178090612717565b80156117cd5780601f106117a2576101008083540402835291602001916117cd565b820191906000526020600020905b8154815290600101906020018083116117b057829003601f168201915b505050505090505b5b5b5b80915050919050565b606060008251036118035760405180602001604052806000815250905061193f565b60006040518060600160405280604081526020016134a56040913990506000600360028551611832919061319c565b61183c91906131ff565b60046118489190613230565b67ffffffffffffffff811115611861576118606124d0565b5b6040519080825280601f01601f1916602001820160405280156118935781602001600182028036833780820191505090505b509050600182016020820185865187015b808210156118ff576003820191508151603f8160121c168501518453600184019350603f81600c1c168501518453600184019350603f8160061c168501518453600184019350603f81168501518453600184019350506118a4565b505060038651066001811461191b576002811461192e57611936565b603d6001830353603d6002830353611936565b603d60018303535b50505080925050505b919050565b60008073ffffffffffffffffffffffffffffffffffffffff166119668361092f565b73ffffffffffffffffffffffffffffffffffffffff1614159050919050565b50505050565b6000611995611f32565b90503373ffffffffffffffffffffffffffffffffffffffff1681600201600084815260200190815260200160002060009054906101000a900473ffffffffffffffffffffffffffffffffffffffff1673ffffffffffffffffffffffffffffffffffffffff1614611a0457600080fd5b600073ffffffffffffffffffffffffffffffffffffffff168373ffffffffffffffffffffffffffffffffffffffff1603611a73576040517f08c379a0000000000000000000000000000000000000000000000000000000008152600401611a6a906132be565b60405180910390fd5b8281600201600084815260200190815260200160002060006101000a81548173ffffffffffffffffffffffffffffffffffffffff021916908373ffffffffffffffffffffffffffffffffffffffff16021790555060008160040160003373ffffffffffffffffffffffffffffffffffffffff1673ffffffffffffffffffffffffffffffffffffffff16815260200190815260200160002054905060005b81811015611bf557838360070160003373ffffffffffffffffffffffffffffffffffffffff1673ffffffffffffffffffffffffffffffffffffffff1681526020019081526020016000208281548110611b6c57611b6b6132de565b5b906000526020600020015403611be2578260070160003373ffffffffffffffffffffffffffffffffffffffff1673ffffffffffffffffffffffffffffffffffffffff1681526020019081526020016000208181548110611bcf57611bce6132de565b5b9060005260206000200160009055611bf5565b8080611bed9061330d565b915050611b10565b508160040160003373ffffffffffffffffffffffffffffffffffffffff1673ffffffffffffffffffffffffffffffffffffffff1681526020019081526020016000206000815480929190611c4890613355565b91905055508160040160008573ffffffffffffffffffffffffffffffffffffffff1673ffffffffffffffffffffffffffffffffffffffff1681526020019081526020016000206000815480929190611c9f9061330d565b919050555050505050565b50505050565b6000611cd18473ffffffffffffffffffffffffffffffffffffffff16611f5f565b15611e2a578373ffffffffffffffffffffffffffffffffffffffff1663150b7a02611cfa610975565b8786866040518563ffffffff1660e01b8152600401611d1c94939291906133d3565b6020604051808303816000875af1925050508015611d5857506040513d601f19601f82011682018060405250810190611d559190613477565b60015b611dda573d8060008114611d88576040519150601f19603f3d011682016040523d82523d6000602084013e611d8d565b606091505b506000815103611dd2576040517f08c379a0000000000000000000000000000000000000000000000000000000008152600401611dc990612deb565b60405180910390fd5b805181602001fd5b63150b7a0260e01b7bffffffffffffffffffffffffffffffffffffffffffffffffffffffff1916817bffffffffffffffffffffffffffffffffffffffffffffffffffffffff191614915050611e2f565b600190505b949350505050565b6000807f3cab9a070a0c61cd0ae9d9e9e2c0781e5ca8691bec4087e5a4701d5ac018dd4e90508091505090565b606060006001611e7384611f82565b01905060008167ffffffffffffffff811115611e9257611e916124d0565b5b6040519080825280601f01601f191660200182016040528015611ec45781602001600182028036833780820191505090505b509050600082602001820190505b600115611f27578080600190039150507f3031323334353637383961626364656600000000000000000000000000000000600a86061a8153600a8581611f1b57611f1a6131d0565b5b04945060008503611ed2575b819350505050919050565b6000807f3cab9a070a0c61cd0ae9d9e9e2c0781e5ca8691bec4087e5a4701d5ac018dd4e90508091505090565b6000808273ffffffffffffffffffffffffffffffffffffffff163b119050919050565b600080600090507a184f03e93ff9f4daa797ed6e38ed64bf6a1f0100000000000000008310611fe0577a184f03e93ff9f4daa797ed6e38ed64bf6a1f0100000000000000008381611fd657611fd56131d0565b5b0492506040810190505b6d04ee2d6d415b85acef8100000000831061201d576d04ee2d6d415b85acef81000000008381612013576120126131d0565b5b0492506020810190505b662386f26fc10000831061204c57662386f26fc100008381612042576120416131d0565b5b0492506010810190505b6305f5e1008310612075576305f5e100838161206b5761206a6131d0565b5b0492506008810190505b612710831061209a5761271083816120905761208f6131d0565b5b0492506004810190505b606483106120bd57606483816120b3576120b26131d0565b5b0492506002810190505b600a83106120cc576001810190505b80915050919050565b6040518061028001604052806000815260200160008152602001600081526020016000815260200160008152602001600081526020016000815260200160008152602001600081526020016000815260200160008152602001600081526020016000815260200160008152602001600081526020016060815260200160608152602001600015158152602001612169612176565b8152602001600081525090565b6040518060e00160405280600081526020016000815260200160008152602001600081526020016000815260200160008152602001600081525090565b600081519050919050565b600082825260208201905092915050565b60005b838110156121ed5780820151818401526020810190506121d2565b60008484015250505050565b6000601f19601f8301169050919050565b6000612215826121b3565b61221f81856121be565b935061222f8185602086016121cf565b612238816121f9565b840191505092915050565b6000602082019050818103600083015261225d818461220a565b905092915050565b6000604051905090565b600080fd5b600080fd5b6000819050919050565b61228c81612279565b811461229757600080fd5b50565b6000813590506122a981612283565b92915050565b6000602082840312156122c5576122c461226f565b5b60006122d38482850161229a565b91505092915050565b600073ffffffffffffffffffffffffffffffffffffffff82169050919050565b6000612307826122dc565b9050919050565b612317816122fc565b82525050565b6000602082019050612332600083018461230e565b92915050565b612341816122fc565b811461234c57600080fd5b50565b60008135905061235e81612338565b92915050565b6000806040838503121561237b5761237a61226f565b5b60006123898582860161234f565b925050602061239a8582860161229a565b9150509250929050565b6000806000606084860312156123bd576123bc61226f565b5b60006123cb8682870161234f565b93505060206123dc8682870161234f565b92505060406123ed8682870161229a565b9150509250925092565b60006020828403121561240d5761240c61226f565b5b600061241b8482850161234f565b91505092915050565b61242d81612279565b82525050565b60006020820190506124486000830184612424565b92915050565b60008115159050919050565b6124638161244e565b811461246e57600080fd5b50565b6000813590506124808161245a565b92915050565b6000806040838503121561249d5761249c61226f565b5b60006124ab8582860161234f565b92505060206124bc85828601612471565b9150509250929050565b600080fd5b600080fd5b7f4e487b7100000000000000000000000000000000000000000000000000000000600052604160045260246000fd5b612508826121f9565b810181811067ffffffffffffffff82111715612527576125266124d0565b5b80604052505050565b600061253a612265565b905061254682826124ff565b919050565b600067ffffffffffffffff821115612566576125656124d0565b5b61256f826121f9565b9050602081019050919050565b82818337600083830152505050565b600061259e6125998461254b565b612530565b9050828152602081018484840111156125ba576125b96124cb565b5b6125c584828561257c565b509392505050565b600082601f8301126125e2576125e16124c6565b5b81356125f284826020860161258b565b91505092915050565b600080600080608085870312156126155761261461226f565b5b60006126238782880161234f565b94505060206126348782880161234f565b93505060406126458782880161229a565b925050606085013567ffffffffffffffff81111561266657612665612274565b5b612672878288016125cd565b91505092959194509250565b600080604083850312156126955761269461226f565b5b60006126a38582860161234f565b92505060206126b48582860161234f565b9150509250929050565b6126c78161244e565b82525050565b60006020820190506126e260008301846126be565b92915050565b7f4e487b7100000000000000000000000000000000000000000000000000000000600052602260045260246000fd5b6000600282049050600182168061272f57607f821691505b602082108103612742576127416126e8565b5b50919050565b7f4552433732313a20617070726f76616c20746f2063757272656e74206f776e6560008201527f7200000000000000000000000000000000000000000000000000000000000000602082015250565b60006127a46021836121be565b91506127af82612748565b604082019050919050565b600060208201905081810360008301526127d381612797565b9050919050565b7f4552433732313a20617070726f76652063616c6c6572206973206e6f7420746f60008201527f6b656e206f776e6572206f7220617070726f76656420666f7220616c6c000000602082015250565b6000612836603d836121be565b9150612841826127da565b604082019050919050565b6000602082019050818103600083015261286581612829565b9050919050565b7f4552433732313a2063616c6c6572206973206e6f7420746f6b656e206f776e6560008201527f72206f7220617070726f76656400000000000000000000000000000000000000602082015250565b60006128c8602d836121be565b91506128d38261286c565b604082019050919050565b600060208201905081810360008301526128f7816128bb565b9050919050565b7f4552433732313a20696e76616c696420746f6b656e2049440000000000000000600082015250565b60006129346018836121be565b915061293f826128fe565b602082019050919050565b6000602082019050818103600083015261296381612927565b9050919050565b7f4552433732313a2061646472657373207a65726f206973206e6f74206120766160008201527f6c6964206f776e65720000000000000000000000000000000000000000000000602082015250565b60006129c66029836121be565b91506129d18261296a565b604082019050919050565b600060208201905081810360008301526129f5816129b9565b9050919050565b600081905092915050565b7f7b226e616d65223a220000000000000000000000000000000000000000000000600082015250565b6000612a3d6009836129fc565b9150612a4882612a07565b600982019050919050565b6000612a5e826121b3565b612a6881856129fc565b9350612a788185602086016121cf565b80840191505092915050565b7f222c202261747472696275746573223a00000000000000000000000000000000600082015250565b6000612aba6010836129fc565b9150612ac582612a84565b601082019050919050565b7f2c2022696d616765223a22000000000000000000000000000000000000000000600082015250565b6000612b06600b836129fc565b9150612b1182612ad0565b600b82019050919050565b7f227d000000000000000000000000000000000000000000000000000000000000600082015250565b6000612b526002836129fc565b9150612b5d82612b1c565b600282019050919050565b6000612b7382612a30565b9150612b7f8286612a53565b9150612b8a82612aad565b9150612b968285612a53565b9150612ba182612af9565b9150612bad8284612a53565b9150612bb882612b45565b9150819050949350505050565b6000612bd18285612a53565b9150612bdd8284612a53565b91508190509392505050565b7f4552433732313a207472616e736665722066726f6d20696e636f72726563742060008201527f6f776e6572000000000000000000000000000000000000000000000000000000602082015250565b6000612c456025836121be565b9150612c5082612be9565b604082019050919050565b60006020820190508181036000830152612c7481612c38565b9050919050565b7f4552433732313a207472616e7366657220746f20746865207a65726f2061646460008201527f7265737300000000000000000000000000000000000000000000000000000000602082015250565b6000612cd76024836121be565b9150612ce282612c7b565b604082019050919050565b60006020820190508181036000830152612d0681612cca565b9050919050565b7f4552433732313a20617070726f766520746f2063616c6c657200000000000000600082015250565b6000612d436019836121be565b9150612d4e82612d0d565b602082019050919050565b60006020820190508181036000830152612d7281612d36565b9050919050565b7f4552433732313a207472616e7366657220746f206e6f6e20455243373231526560008201527f63656976657220696d706c656d656e7465720000000000000000000000000000602082015250565b6000612dd56032836121be565b9150612de082612d79565b604082019050919050565b60006020820190508181036000830152612e0481612dc8565b9050919050565b7f5b7b2274726169745f74797065223a224c6576656c222c2276616c7565223a22600082015250565b6000612e416020836129fc565b9150612e4c82612e0b565b602082019050919050565b7f227d2c0000000000000000000000000000000000000000000000000000000000600082015250565b6000612e8d6003836129fc565b9150612e9882612e57565b600382019050919050565b7f7b2274726169745f74797065223a225850222c2276616c7565223a2200000000600082015250565b6000612ed9601c836129fc565b9150612ee482612ea3565b601c82019050919050565b7f7b2274726169745f74797065223a22537461747573222c2276616c7565223a22600082015250565b6000612f256020836129fc565b9150612f3082612eef565b602082019050919050565b7f7b2274726169745f74797065223a2247656e646572222c2276616c7565223a22600082015250565b6000612f716020836129fc565b9150612f7c82612f3b565b602082019050919050565b7f7b2274726169745f74797065223a22436c617373222c2276616c7565223a2200600082015250565b6000612fbd601f836129fc565b9150612fc882612f87565b601f82019050919050565b7f7b2274726169745f74797065223a22537472656e677468222c2276616c75652260008201527f3a22000000000000000000000000000000000000000000000000000000000000602082015250565b600061302f6022836129fc565b915061303a82612fd3565b602282019050919050565b7f227d5d0000000000000000000000000000000000000000000000000000000000600082015250565b600061307b6003836129fc565b915061308682613045565b600382019050919050565b600061309c82612e34565b91506130a88289612a53565b91506130b382612e80565b91506130be82612ecc565b91506130ca8288612a53565b91506130d582612e80565b91506130e082612f18565b91506130ec8287612a53565b91506130f782612e80565b915061310282612f64565b915061310e8286612a53565b915061311982612e80565b915061312482612fb0565b91506131308285612a53565b915061313b82612e80565b915061314682613022565b91506131528284612a53565b915061315d8261306e565b9150819050979650505050505050565b7f4e487b7100000000000000000000000000000000000000000000000000000000600052601160045260246000fd5b60006131a782612279565b91506131b283612279565b92508282019050808211156131ca576131c961316d565b5b92915050565b7f4e487b7100000000000000000000000000000000000000000000000000000000600052601260045260246000fd5b600061320a82612279565b915061321583612279565b925082613225576132246131d0565b5b828204905092915050565b600061323b82612279565b915061324683612279565b925082820261325481612279565b9150828204841483151761326b5761326a61316d565b5b5092915050565b7f5f746f2063616e6e6f74206265207a65726f2061646472657373000000000000600082015250565b60006132a8601a836121be565b91506132b382613272565b602082019050919050565b600060208201905081810360008301526132d78161329b565b9050919050565b7f4e487b7100000000000000000000000000000000000000000000000000000000600052603260045260246000fd5b600061331882612279565b91507fffffffffffffffffffffffffffffffffffffffffffffffffffffffffffffffff820361334a5761334961316d565b5b600182019050919050565b600061336082612279565b9150600082036133735761337261316d565b5b600182039050919050565b600081519050919050565b600082825260208201905092915050565b60006133a58261337e565b6133af8185613389565b93506133bf8185602086016121cf565b6133c8816121f9565b840191505092915050565b60006080820190506133e8600083018761230e565b6133f5602083018661230e565b6134026040830185612424565b8181036060830152613414818461339a565b905095945050505050565b60007fffffffff0000000000000000000000000000000000000000000000000000000082169050919050565b6134548161341f565b811461345f57600080fd5b50565b6000815190506134718161344b565b92915050565b60006020828403121561348d5761348c61226f565b5b600061349b84828501613462565b9150509291505056fe4142434445464748494a4b4c4d4e4f505152535455565758595a6162636465666768696a6b6c6d6e6f707172737475767778797a303132333435363738392b2fa2646970667358221220e2dbd4921ac418926586301b78c669ccb05f41e39516691a197c2fe3acb8b09964736f6c63430008110033",
  "linkReferences": {},
  "deployedLinkReferences": {}
}