{
  "_format": "hh-sol-artifact-1",
  "contractName": "ERC721Facet",
  "sourceName": "contracts/facets/ERC721Facet.sol",
  "abi": [
    {
      "anonymous": false,
      "inputs": [
        {
          "indexed": true,
          "internalType": "address",
          "name": "owner",
          "type": "address"
        },
        {
          "indexed": true,
          "internalType": "address",
          "name": "approved",
          "type": "address"
        },
        {
          "indexed": true,
          "internalType": "uint256",
          "name": "tokenId",
          "type": "uint256"
        }
      ],
      "name": "Approval",
      "type": "event"
    },
    {
      "anonymous": false,
      "inputs": [
        {
          "indexed": true,
          "internalType": "address",
          "name": "owner",
          "type": "address"
        },
        {
          "indexed": true,
          "internalType": "address",
          "name": "operator",
          "type": "address"
        },
        {
          "indexed": false,
          "internalType": "bool",
          "name": "approved",
          "type": "bool"
        }
      ],
      "name": "ApprovalForAll",
      "type": "event"
    },
    {
      "anonymous": false,
      "inputs": [
        {
          "indexed": true,
          "internalType": "address",
          "name": "from",
          "type": "address"
        },
        {
          "indexed": true,
          "internalType": "address",
          "name": "to",
          "type": "address"
        },
        {
          "indexed": true,
          "internalType": "uint256",
          "name": "tokenId",
          "type": "uint256"
        }
      ],
      "name": "Transfer",
      "type": "event"
    },
    {
      "inputs": [
        {
          "internalType": "address",
          "name": "to",
          "type": "address"
        },
        {
          "internalType": "uint256",
          "name": "tokenId",
          "type": "uint256"
        }
      ],
      "name": "approve",
      "outputs": [],
      "stateMutability": "nonpayable",
      "type": "function"
    },
    {
      "inputs": [
        {
          "internalType": "address",
          "name": "owner",
          "type": "address"
        }
      ],
      "name": "balanceOf",
      "outputs": [
        {
          "internalType": "uint256",
          "name": "",
          "type": "uint256"
        }
      ],
      "stateMutability": "view",
      "type": "function"
    },
    {
      "inputs": [
        {
          "internalType": "uint256",
          "name": "tokenId",
          "type": "uint256"
        }
      ],
      "name": "getApproved",
      "outputs": [
        {
          "internalType": "address",
          "name": "",
          "type": "address"
        }
      ],
      "stateMutability": "view",
      "type": "function"
    },
    {
      "inputs": [
        {
          "internalType": "address",
          "name": "owner",
          "type": "address"
        },
        {
          "internalType": "address",
          "name": "operator",
          "type": "address"
        }
      ],
      "name": "isApprovedForAll",
      "outputs": [
        {
          "internalType": "bool",
          "name": "",
          "type": "bool"
        }
      ],
      "stateMutability": "view",
      "type": "function"
    },
    {
      "inputs": [],
      "name": "name",
      "outputs": [
        {
          "internalType": "string",
          "name": "",
          "type": "string"
        }
      ],
      "stateMutability": "view",
      "type": "function"
    },
    {
      "inputs": [
        {
          "internalType": "uint256",
          "name": "tokenId",
          "type": "uint256"
        }
      ],
      "name": "ownerOf",
      "outputs": [
        {
          "internalType": "address",
          "name": "",
          "type": "address"
        }
      ],
      "stateMutability": "view",
      "type": "function"
    },
    {
      "inputs": [
        {
          "internalType": "address",
          "name": "from",
          "type": "address"
        },
        {
          "internalType": "address",
          "name": "to",
          "type": "address"
        },
        {
          "internalType": "uint256",
          "name": "tokenId",
          "type": "uint256"
        }
      ],
      "name": "safeTransferFrom",
      "outputs": [],
      "stateMutability": "nonpayable",
      "type": "function"
    },
    {
      "inputs": [
        {
          "internalType": "address",
          "name": "from",
          "type": "address"
        },
        {
          "internalType": "address",
          "name": "to",
          "type": "address"
        },
        {
          "internalType": "uint256",
          "name": "tokenId",
          "type": "uint256"
        },
        {
          "internalType": "bytes",
          "name": "data",
          "type": "bytes"
        }
      ],
      "name": "safeTransferFrom",
      "outputs": [],
      "stateMutability": "nonpayable",
      "type": "function"
    },
    {
      "inputs": [
        {
          "internalType": "address",
          "name": "operator",
          "type": "address"
        },
        {
          "internalType": "bool",
          "name": "approved",
          "type": "bool"
        }
      ],
      "name": "setApprovalForAll",
      "outputs": [],
      "stateMutability": "nonpayable",
      "type": "function"
    },
    {
      "inputs": [],
      "name": "symbol",
      "outputs": [
        {
          "internalType": "string",
          "name": "",
          "type": "string"
        }
      ],
      "stateMutability": "view",
      "type": "function"
    },
    {
      "inputs": [
        {
          "internalType": "uint256",
          "name": "tokenId",
          "type": "uint256"
        }
      ],
      "name": "tokenURI",
      "outputs": [
        {
          "internalType": "string",
          "name": "",
          "type": "string"
        }
      ],
      "stateMutability": "view",
      "type": "function"
    }
  ],
  "bytecode": "0x608060405234801561001057600080fd5b506138dd806100206000396000f3fe608060405234801561001057600080fd5b50600436106100a95760003560e01c806370a082311161007157806370a082311461016457806395d89b4114610194578063a22cb465146101b2578063b88d4fde146101ce578063c87b56dd146101ea578063e985e9c51461021a576100a9565b806306fdde03146100ae578063081812fc146100cc578063095ea7b3146100fc57806342842e0e146101185780636352211e14610134575b600080fd5b6100b661024a565b6040516100c391906125a3565b60405180910390f35b6100e660048036038101906100e1919061260f565b6102e5565b6040516100f3919061267d565b60405180910390f35b610116600480360381019061011191906126c4565b610334565b005b610132600480360381019061012d9190612704565b61044b565b005b61014e6004803603810190610149919061260f565b61046b565b60405161015b919061267d565b60405180910390f35b61017e60048036038101906101799190612757565b6104f1565b60405161018b9190612793565b60405180910390f35b61019c6105b1565b6040516101a991906125a3565b60405180910390f35b6101cc60048036038101906101c791906127e6565b61064c565b005b6101e860048036038101906101e3919061295b565b610662565b005b61020460048036038101906101ff919061260f565b6106c4565b60405161021191906125a3565b60405180910390f35b610234600480360381019061022f91906129de565b610793565b6040516102419190612a2d565b60405180910390f35b6060610254610830565b600601805461026290612a77565b80601f016020809104026020016040519081016040528092919081815260200182805461028e90612a77565b80156102db5780601f106102b0576101008083540402835291602001916102db565b820191906000526020600020905b8154815290600101906020018083116102be57829003601f168201915b5050505050905090565b60006102f08261085d565b6102f8610830565b600b01600083815260200190815260200160002060009054906101000a900473ffffffffffffffffffffffffffffffffffffffff169050919050565b600061033f826108a8565b90508073ffffffffffffffffffffffffffffffffffffffff168373ffffffffffffffffffffffffffffffffffffffff16036103af576040517f08c379a00000000000000000000000000000000000000000000000000000000081526004016103a690612b1a565b60405180910390fd5b8073ffffffffffffffffffffffffffffffffffffffff166103ce6108ee565b73ffffffffffffffffffffffffffffffffffffffff1614806103fd57506103fc816103f76108ee565b610793565b5b61043c576040517f08c379a000000000000000000000000000000000000000000000000000000000815260040161043390612bac565b60405180910390fd5b61044683836108f6565b505050565b61046683838360405180602001604052806000815250610662565b505050565b600080610477836108a8565b9050600073ffffffffffffffffffffffffffffffffffffffff168173ffffffffffffffffffffffffffffffffffffffff16036104e8576040517f08c379a00000000000000000000000000000000000000000000000000000000081526004016104df90612c18565b60405180910390fd5b80915050919050565b60008073ffffffffffffffffffffffffffffffffffffffff168273ffffffffffffffffffffffffffffffffffffffff1603610561576040517f08c379a000000000000000000000000000000000000000000000000000000000815260040161055890612caa565b60405180910390fd5b610569610830565b600a0160008373ffffffffffffffffffffffffffffffffffffffff1673ffffffffffffffffffffffffffffffffffffffff168152602001908152602001600020549050919050565b60606105bb610830565b60070180546105c990612a77565b80601f01602080910402602001604051908101604052809291908181526020018280546105f590612a77565b80156106425780601f1061061757610100808354040283529160200191610642565b820191906000526020600020905b81548152906001019060200180831161062557829003601f168201915b5050505050905090565b61065e6106576108ee565b83836109b8565b5050565b61067361066d6108ee565b83610b2d565b6106b2576040517f08c379a00000000000000000000000000000000000000000000000000000000081526004016106a990612d3c565b60405180910390fd5b6106be84848484610c7f565b50505050565b60606106cf8261085d565b60006106da83610cdb565b905060006106e782610f51565b905060006040518060400160405280601d81526020017f646174613a6170706c69636174696f6e2f6a736f6e3b6261736536342c0000008152509050600061072e8461103c565b90506000610763856101e00151858460405160200161074f93929190612ec8565b604051602081830303815290604052611583565b90508281604051602001610778929190612f25565b60405160208183030381529060405295505050505050919050565b600061079d610830565b60080160008473ffffffffffffffffffffffffffffffffffffffff1673ffffffffffffffffffffffffffffffffffffffff16815260200190815260200160002060008373ffffffffffffffffffffffffffffffffffffffff1673ffffffffffffffffffffffffffffffffffffffff16815260200190815260200160002060009054906101000a900460ff16905092915050565b6000807f2569078dfb4b0305704d3008e7403993ae9601b85f7ae5e742de3de8f8011c4090508091505090565b610866816116e6565b6108a5576040517f08c379a000000000000000000000000000000000000000000000000000000000815260040161089c90612c18565b60405180910390fd5b50565b60006108b2610830565b600901600083815260200190815260200160002060009054906101000a900473ffffffffffffffffffffffffffffffffffffffff169050919050565b600033905090565b816108ff610830565b600b01600083815260200190815260200160002060006101000a81548173ffffffffffffffffffffffffffffffffffffffff021916908373ffffffffffffffffffffffffffffffffffffffff160217905550808273ffffffffffffffffffffffffffffffffffffffff16610972836108a8565b73ffffffffffffffffffffffffffffffffffffffff167f8c5be1e5ebec7d5bd14f71427d1e84f3dd0314c0f7b2291e5b200ac8c7c3b92560405160405180910390a45050565b8173ffffffffffffffffffffffffffffffffffffffff168373ffffffffffffffffffffffffffffffffffffffff1603610a26576040517f08c379a0000000000000000000000000000000000000000000000000000000008152600401610a1d90612f95565b60405180910390fd5b80610a2f610830565b60080160008573ffffffffffffffffffffffffffffffffffffffff1673ffffffffffffffffffffffffffffffffffffffff16815260200190815260200160002060008473ffffffffffffffffffffffffffffffffffffffff1673ffffffffffffffffffffffffffffffffffffffff16815260200190815260200160002060006101000a81548160ff0219169083151502179055508173ffffffffffffffffffffffffffffffffffffffff168373ffffffffffffffffffffffffffffffffffffffff167f17307eab39ab6107e8899845ad3d59bd9653f200f220920489ca2b5937696c3183604051610b209190612a2d565b60405180910390a3505050565b600080610b39836108a8565b90508073ffffffffffffffffffffffffffffffffffffffff168473ffffffffffffffffffffffffffffffffffffffff161480610c045750610b78610830565b60080160008273ffffffffffffffffffffffffffffffffffffffff1673ffffffffffffffffffffffffffffffffffffffff16815260200190815260200160002060008573ffffffffffffffffffffffffffffffffffffffff1673ffffffffffffffffffffffffffffffffffffffff16815260200190815260200160002060009054906101000a900460ff165b80610c7657508373ffffffffffffffffffffffffffffffffffffffff16610c29610830565b600b01600085815260200190815260200160002060009054906101000a900473ffffffffffffffffffffffffffffffffffffffff1673ffffffffffffffffffffffffffffffffffffffff16145b91505092915050565b610c8a848484611727565b610c9684848484611a4f565b610cd5576040517f08c379a0000000000000000000000000000000000000000000000000000000008152600401610ccc90613027565b60405180910390fd5b50505050565b610ce36123cb565b6000610ced611bd6565b90508060030160008481526020019081526020016000206040518061028001604052908160008201548152602001600182015481526020016002820154815260200160038201548152602001600482015481526020016005820154815260200160068201548152602001600782015481526020016008820154815260200160098201548152602001600a8201548152602001600b8201548152602001600c8201548152602001600d8201548152602001600e8201548152602001600f82018054610db690612a77565b80601f0160208091040260200160405190810160405280929190818152602001828054610de290612a77565b8015610e2f5780601f10610e0457610100808354040283529160200191610e2f565b820191906000526020600020905b815481529060010190602001808311610e1257829003601f168201915b50505050508152602001601082018054610e4890612a77565b80601f0160208091040260200160405190810160405280929190818152602001828054610e7490612a77565b8015610ec15780601f10610e9657610100808354040283529160200191610ec1565b820191906000526020600020905b815481529060010190602001808311610ea457829003601f168201915b505050505081526020016011820160009054906101000a900460ff16151515158152602001601282016040518060e00160405290816000820154815260200160018201548152602001600282015481526020016003820154815260200160048201548152602001600582015481526020016006820154815250508152602001601982015481525050915050919050565b6060610f608260000151611c03565b610f6d8360200151611c03565b610f7a8460400151611c03565b846102200151610fbf576040518060400160405280600681526020017f46656d616c650000000000000000000000000000000000000000000000000000815250610ff6565b6040518060400160405280600481526020017f4d616c65000000000000000000000000000000000000000000000000000000008152505b611004866102600151611c03565b6110118760600151611c03565b604051602001611026969594939291906132cd565b6040516020818303038152906040529050919050565b60608060008361026001510361118e57826102200151156110f25761105f610830565b600c01805461106d90612a77565b80601f016020809104026020016040519081016040528092919081815260200182805461109990612a77565b80156110e65780601f106110bb576101008083540402835291602001916110e6565b820191906000526020600020905b8154815290600101906020018083116110c957829003601f168201915b50505050509050611189565b6110fa610830565b600d01805461110890612a77565b80601f016020809104026020016040519081016040528092919081815260200182805461113490612a77565b80156111815780601f1061115657610100808354040283529160200191611181565b820191906000526020600020905b81548152906001019060200180831161116457829003601f168201915b505050505090505b61157a565b6001836102600151036112dd5782610220015115611241576111ae610830565b600e0180546111bc90612a77565b80601f01602080910402602001604051908101604052809291908181526020018280546111e890612a77565b80156112355780601f1061120a57610100808354040283529160200191611235565b820191906000526020600020905b81548152906001019060200180831161121857829003601f168201915b505050505090506112d8565b611249610830565b600f01805461125790612a77565b80601f016020809104026020016040519081016040528092919081815260200182805461128390612a77565b80156112d05780601f106112a5576101008083540402835291602001916112d0565b820191906000526020600020905b8154815290600101906020018083116112b357829003601f168201915b505050505090505b611579565b60028361026001510361142c5782610220015115611390576112fd610830565b601001805461130b90612a77565b80601f016020809104026020016040519081016040528092919081815260200182805461133790612a77565b80156113845780601f1061135957610100808354040283529160200191611384565b820191906000526020600020905b81548152906001019060200180831161136757829003601f168201915b50505050509050611427565b611398610830565b60110180546113a690612a77565b80601f01602080910402602001604051908101604052809291908181526020018280546113d290612a77565b801561141f5780601f106113f45761010080835404028352916020019161141f565b820191906000526020600020905b81548152906001019060200180831161140257829003601f168201915b505050505090505b611578565b60038361026001510361157757826102200151156114df5761144c610830565b601201805461145a90612a77565b80601f016020809104026020016040519081016040528092919081815260200182805461148690612a77565b80156114d35780601f106114a8576101008083540402835291602001916114d3565b820191906000526020600020905b8154815290600101906020018083116114b657829003601f168201915b50505050509050611576565b6114e7610830565b60130180546114f590612a77565b80601f016020809104026020016040519081016040528092919081815260200182805461152190612a77565b801561156e5780601f106115435761010080835404028352916020019161156e565b820191906000526020600020905b81548152906001019060200180831161155157829003601f168201915b505050505090505b5b5b5b5b80915050919050565b606060008251036115a5576040518060200160405280600081525090506116e1565b600060405180606001604052806040815260200161386860409139905060006003600285516115d491906133d8565b6115de919061343b565b60046115ea919061346c565b67ffffffffffffffff81111561160357611602612830565b5b6040519080825280601f01601f1916602001820160405280156116355781602001600182028036833780820191505090505b509050600182016020820185865187015b808210156116a1576003820191508151603f8160121c168501518453600184019350603f81600c1c168501518453600184019350603f8160061c168501518453600184019350603f8116850151845360018401935050611646565b50506003865106600181146116bd57600281146116d0576116d8565b603d6001830353603d60028303536116d8565b603d60018303535b50505080925050505b919050565b60008073ffffffffffffffffffffffffffffffffffffffff16611708836108a8565b73ffffffffffffffffffffffffffffffffffffffff1614159050919050565b8273ffffffffffffffffffffffffffffffffffffffff16611747826108a8565b73ffffffffffffffffffffffffffffffffffffffff161461179d576040517f08c379a000000000000000000000000000000000000000000000000000000000815260040161179490613520565b60405180910390fd5b600073ffffffffffffffffffffffffffffffffffffffff168273ffffffffffffffffffffffffffffffffffffffff160361180c576040517f08c379a0000000000000000000000000000000000000000000000000000000008152600401611803906135b2565b60405180910390fd5b6118198383836001611cd1565b8273ffffffffffffffffffffffffffffffffffffffff16611839826108a8565b73ffffffffffffffffffffffffffffffffffffffff161461188f576040517f08c379a000000000000000000000000000000000000000000000000000000000815260040161188690613520565b60405180910390fd5b611897610830565b600b01600082815260200190815260200160002060006101000a81549073ffffffffffffffffffffffffffffffffffffffff021916905560016118d8610830565b600a0160008573ffffffffffffffffffffffffffffffffffffffff1673ffffffffffffffffffffffffffffffffffffffff16815260200190815260200160002060008282540392505081905550600161192f610830565b600a0160008473ffffffffffffffffffffffffffffffffffffffff1673ffffffffffffffffffffffffffffffffffffffff1681526020019081526020016000206000828254019250508190555081611985610830565b600901600083815260200190815260200160002060006101000a81548173ffffffffffffffffffffffffffffffffffffffff021916908373ffffffffffffffffffffffffffffffffffffffff1602179055506119e2838383611cd7565b808273ffffffffffffffffffffffffffffffffffffffff168473ffffffffffffffffffffffffffffffffffffffff167fddf252ad1be2c89b69c2b068fc378daa952ba7f163c4a11628f55a4df523b3ef60405160405180910390a4611a4a8383836001612222565b505050565b6000611a708473ffffffffffffffffffffffffffffffffffffffff16612228565b15611bc9578373ffffffffffffffffffffffffffffffffffffffff1663150b7a02611a996108ee565b8786866040518563ffffffff1660e01b8152600401611abb9493929190613627565b6020604051808303816000875af1925050508015611af757506040513d601f19601f82011682018060405250810190611af491906136cb565b60015b611b79573d8060008114611b27576040519150601f19603f3d011682016040523d82523d6000602084013e611b2c565b606091505b506000815103611b71576040517f08c379a0000000000000000000000000000000000000000000000000000000008152600401611b6890613027565b60405180910390fd5b805181602001fd5b63150b7a0260e01b7bffffffffffffffffffffffffffffffffffffffffffffffffffffffff1916817bffffffffffffffffffffffffffffffffffffffffffffffffffffffff191614915050611bce565b600190505b949350505050565b6000807f3cab9a070a0c61cd0ae9d9e9e2c0781e5ca8691bec4087e5a4701d5ac018dd4e90508091505090565b606060006001611c128461224b565b01905060008167ffffffffffffffff811115611c3157611c30612830565b5b6040519080825280601f01601f191660200182016040528015611c635781602001600182028036833780820191505090505b509050600082602001820190505b600115611cc6578080600190039150507f3031323334353637383961626364656600000000000000000000000000000000600a86061a8153600a8581611cba57611cb961340c565b5b04945060008503611c71575b819350505050919050565b50505050565b6000611ce161239e565b90508373ffffffffffffffffffffffffffffffffffffffff1681600201600084815260200190815260200160002060009054906101000a900473ffffffffffffffffffffffffffffffffffffffff1673ffffffffffffffffffffffffffffffffffffffff1614611d5057600080fd5b600073ffffffffffffffffffffffffffffffffffffffff168373ffffffffffffffffffffffffffffffffffffffff1603611dbf576040517f08c379a0000000000000000000000000000000000000000000000000000000008152600401611db690613744565b60405180910390fd5b8281600201600084815260200190815260200160002060006101000a81548173ffffffffffffffffffffffffffffffffffffffff021916908373ffffffffffffffffffffffffffffffffffffffff16021790555060008160070160008673ffffffffffffffffffffffffffffffffffffffff1673ffffffffffffffffffffffffffffffffffffffff16815260200190815260200160002080549050905060005b8181101561210457838360070160008873ffffffffffffffffffffffffffffffffffffffff1673ffffffffffffffffffffffffffffffffffffffff1681526020019081526020016000208281548110611ebb57611eba613764565b5b9060005260206000200154036120f15760018360070160008873ffffffffffffffffffffffffffffffffffffffff1673ffffffffffffffffffffffffffffffffffffffff1681526020019081526020016000208054905003611f75576060808460070160008973ffffffffffffffffffffffffffffffffffffffff1673ffffffffffffffffffffffffffffffffffffffff1681526020019081526020016000209080519060200190611f6e92919061246c565b50506120ec565b8260070160008773ffffffffffffffffffffffffffffffffffffffff1673ffffffffffffffffffffffffffffffffffffffff16815260200190815260200160002060018460070160008973ffffffffffffffffffffffffffffffffffffffff1673ffffffffffffffffffffffffffffffffffffffff168152602001908152602001600020805490506120079190613793565b8154811061201857612017613764565b5b90600052602060002001548360070160008873ffffffffffffffffffffffffffffffffffffffff1673ffffffffffffffffffffffffffffffffffffffff168152602001908152602001600020828154811061207657612075613764565b5b90600052602060002001819055508260070160008773ffffffffffffffffffffffffffffffffffffffff1673ffffffffffffffffffffffffffffffffffffffff1681526020019081526020016000208054806120d5576120d46137c7565b5b600190038181906000526020600020016000905590555b612104565b80806120fc906137f6565b915050611e5f565b508160070160008573ffffffffffffffffffffffffffffffffffffffff1673ffffffffffffffffffffffffffffffffffffffff1681526020019081526020016000208390806001815401808255809150506001900390600052602060002001600090919091909150558160040160008673ffffffffffffffffffffffffffffffffffffffff1673ffffffffffffffffffffffffffffffffffffffff16815260200190815260200160002060008154809291906121bf9061383e565b91905055508160040160008573ffffffffffffffffffffffffffffffffffffffff1673ffffffffffffffffffffffffffffffffffffffff1681526020019081526020016000206000815480929190612216906137f6565b91905055505050505050565b50505050565b6000808273ffffffffffffffffffffffffffffffffffffffff163b119050919050565b600080600090507a184f03e93ff9f4daa797ed6e38ed64bf6a1f01000000000000000083106122a9577a184f03e93ff9f4daa797ed6e38ed64bf6a1f010000000000000000838161229f5761229e61340c565b5b0492506040810190505b6d04ee2d6d415b85acef810000000083106122e6576d04ee2d6d415b85acef810000000083816122dc576122db61340c565b5b0492506020810190505b662386f26fc10000831061231557662386f26fc10000838161230b5761230a61340c565b5b0492506010810190505b6305f5e100831061233e576305f5e10083816123345761233361340c565b5b0492506008810190505b61271083106123635761271083816123595761235861340c565b5b0492506004810190505b60648310612386576064838161237c5761237b61340c565b5b0492506002810190505b600a8310612395576001810190505b80915050919050565b6000807f3cab9a070a0c61cd0ae9d9e9e2c0781e5ca8691bec4087e5a4701d5ac018dd4e90508091505090565b604051806102800160405280600081526020016000815260200160008152602001600081526020016000815260200160008152602001600081526020016000815260200160008152602001600081526020016000815260200160008152602001600081526020016000815260200160008152602001606081526020016060815260200160001515815260200161245f6124b9565b8152602001600081525090565b8280548282559060005260206000209081019282156124a8579160200282015b828111156124a757825182559160200191906001019061248c565b5b5090506124b591906124f6565b5090565b6040518060e00160405280600081526020016000815260200160008152602001600081526020016000815260200160008152602001600081525090565b5b8082111561250f5760008160009055506001016124f7565b5090565b600081519050919050565b600082825260208201905092915050565b60005b8381101561254d578082015181840152602081019050612532565b60008484015250505050565b6000601f19601f8301169050919050565b600061257582612513565b61257f818561251e565b935061258f81856020860161252f565b61259881612559565b840191505092915050565b600060208201905081810360008301526125bd818461256a565b905092915050565b6000604051905090565b600080fd5b600080fd5b6000819050919050565b6125ec816125d9565b81146125f757600080fd5b50565b600081359050612609816125e3565b92915050565b600060208284031215612625576126246125cf565b5b6000612633848285016125fa565b91505092915050565b600073ffffffffffffffffffffffffffffffffffffffff82169050919050565b60006126678261263c565b9050919050565b6126778161265c565b82525050565b6000602082019050612692600083018461266e565b92915050565b6126a18161265c565b81146126ac57600080fd5b50565b6000813590506126be81612698565b92915050565b600080604083850312156126db576126da6125cf565b5b60006126e9858286016126af565b92505060206126fa858286016125fa565b9150509250929050565b60008060006060848603121561271d5761271c6125cf565b5b600061272b868287016126af565b935050602061273c868287016126af565b925050604061274d868287016125fa565b9150509250925092565b60006020828403121561276d5761276c6125cf565b5b600061277b848285016126af565b91505092915050565b61278d816125d9565b82525050565b60006020820190506127a86000830184612784565b92915050565b60008115159050919050565b6127c3816127ae565b81146127ce57600080fd5b50565b6000813590506127e0816127ba565b92915050565b600080604083850312156127fd576127fc6125cf565b5b600061280b858286016126af565b925050602061281c858286016127d1565b9150509250929050565b600080fd5b600080fd5b7f4e487b7100000000000000000000000000000000000000000000000000000000600052604160045260246000fd5b61286882612559565b810181811067ffffffffffffffff8211171561288757612886612830565b5b80604052505050565b600061289a6125c5565b90506128a6828261285f565b919050565b600067ffffffffffffffff8211156128c6576128c5612830565b5b6128cf82612559565b9050602081019050919050565b82818337600083830152505050565b60006128fe6128f9846128ab565b612890565b90508281526020810184848401111561291a5761291961282b565b5b6129258482856128dc565b509392505050565b600082601f83011261294257612941612826565b5b81356129528482602086016128eb565b91505092915050565b60008060008060808587031215612975576129746125cf565b5b6000612983878288016126af565b9450506020612994878288016126af565b93505060406129a5878288016125fa565b925050606085013567ffffffffffffffff8111156129c6576129c56125d4565b5b6129d28782880161292d565b91505092959194509250565b600080604083850312156129f5576129f46125cf565b5b6000612a03858286016126af565b9250506020612a14858286016126af565b9150509250929050565b612a27816127ae565b82525050565b6000602082019050612a426000830184612a1e565b92915050565b7f4e487b7100000000000000000000000000000000000000000000000000000000600052602260045260246000fd5b60006002820490506001821680612a8f57607f821691505b602082108103612aa257612aa1612a48565b5b50919050565b7f4552433732313a20617070726f76616c20746f2063757272656e74206f776e6560008201527f7200000000000000000000000000000000000000000000000000000000000000602082015250565b6000612b0460218361251e565b9150612b0f82612aa8565b604082019050919050565b60006020820190508181036000830152612b3381612af7565b9050919050565b7f4552433732313a20617070726f76652063616c6c6572206973206e6f7420746f60008201527f6b656e206f776e6572206f7220617070726f76656420666f7220616c6c000000602082015250565b6000612b96603d8361251e565b9150612ba182612b3a565b604082019050919050565b60006020820190508181036000830152612bc581612b89565b9050919050565b7f4552433732313a20696e76616c696420746f6b656e2049440000000000000000600082015250565b6000612c0260188361251e565b9150612c0d82612bcc565b602082019050919050565b60006020820190508181036000830152612c3181612bf5565b9050919050565b7f4552433732313a2061646472657373207a65726f206973206e6f74206120766160008201527f6c6964206f776e65720000000000000000000000000000000000000000000000602082015250565b6000612c9460298361251e565b9150612c9f82612c38565b604082019050919050565b60006020820190508181036000830152612cc381612c87565b9050919050565b7f4552433732313a2063616c6c6572206973206e6f7420746f6b656e206f776e6560008201527f72206f7220617070726f76656400000000000000000000000000000000000000602082015250565b6000612d26602d8361251e565b9150612d3182612cca565b604082019050919050565b60006020820190508181036000830152612d5581612d19565b9050919050565b600081905092915050565b7f7b226e616d65223a220000000000000000000000000000000000000000000000600082015250565b6000612d9d600983612d5c565b9150612da882612d67565b600982019050919050565b6000612dbe82612513565b612dc88185612d5c565b9350612dd881856020860161252f565b80840191505092915050565b7f222c202261747472696275746573223a00000000000000000000000000000000600082015250565b6000612e1a601083612d5c565b9150612e2582612de4565b601082019050919050565b7f2c2022696d616765223a22000000000000000000000000000000000000000000600082015250565b6000612e66600b83612d5c565b9150612e7182612e30565b600b82019050919050565b7f227d000000000000000000000000000000000000000000000000000000000000600082015250565b6000612eb2600283612d5c565b9150612ebd82612e7c565b600282019050919050565b6000612ed382612d90565b9150612edf8286612db3565b9150612eea82612e0d565b9150612ef68285612db3565b9150612f0182612e59565b9150612f0d8284612db3565b9150612f1882612ea5565b9150819050949350505050565b6000612f318285612db3565b9150612f3d8284612db3565b91508190509392505050565b7f4552433732313a20617070726f766520746f2063616c6c657200000000000000600082015250565b6000612f7f60198361251e565b9150612f8a82612f49565b602082019050919050565b60006020820190508181036000830152612fae81612f72565b9050919050565b7f4552433732313a207472616e7366657220746f206e6f6e20455243373231526560008201527f63656976657220696d706c656d656e7465720000000000000000000000000000602082015250565b600061301160328361251e565b915061301c82612fb5565b604082019050919050565b6000602082019050818103600083015261304081613004565b9050919050565b7f5b7b2274726169745f74797065223a224c6576656c222c2276616c7565223a22600082015250565b600061307d602083612d5c565b915061308882613047565b602082019050919050565b7f227d2c0000000000000000000000000000000000000000000000000000000000600082015250565b60006130c9600383612d5c565b91506130d482613093565b600382019050919050565b7f7b2274726169745f74797065223a225850222c2276616c7565223a2200000000600082015250565b6000613115601c83612d5c565b9150613120826130df565b601c82019050919050565b7f7b2274726169745f74797065223a22537461747573222c2276616c7565223a22600082015250565b6000613161602083612d5c565b915061316c8261312b565b602082019050919050565b7f7b2274726169745f74797065223a2247656e646572222c2276616c7565223a22600082015250565b60006131ad602083612d5c565b91506131b882613177565b602082019050919050565b7f7b2274726169745f74797065223a22436c617373222c2276616c7565223a2200600082015250565b60006131f9601f83612d5c565b9150613204826131c3565b601f82019050919050565b7f7b2274726169745f74797065223a22537472656e677468222c2276616c75652260008201527f3a22000000000000000000000000000000000000000000000000000000000000602082015250565b600061326b602283612d5c565b91506132768261320f565b602282019050919050565b7f227d5d0000000000000000000000000000000000000000000000000000000000600082015250565b60006132b7600383612d5c565b91506132c282613281565b600382019050919050565b60006132d882613070565b91506132e48289612db3565b91506132ef826130bc565b91506132fa82613108565b91506133068288612db3565b9150613311826130bc565b915061331c82613154565b91506133288287612db3565b9150613333826130bc565b915061333e826131a0565b915061334a8286612db3565b9150613355826130bc565b9150613360826131ec565b915061336c8285612db3565b9150613377826130bc565b91506133828261325e565b915061338e8284612db3565b9150613399826132aa565b9150819050979650505050505050565b7f4e487b7100000000000000000000000000000000000000000000000000000000600052601160045260246000fd5b60006133e3826125d9565b91506133ee836125d9565b9250828201905080821115613406576134056133a9565b5b92915050565b7f4e487b7100000000000000000000000000000000000000000000000000000000600052601260045260246000fd5b6000613446826125d9565b9150613451836125d9565b9250826134615761346061340c565b5b828204905092915050565b6000613477826125d9565b9150613482836125d9565b9250828202613490816125d9565b915082820484148315176134a7576134a66133a9565b5b5092915050565b7f4552433732313a207472616e736665722066726f6d20696e636f72726563742060008201527f6f776e6572000000000000000000000000000000000000000000000000000000602082015250565b600061350a60258361251e565b9150613515826134ae565b604082019050919050565b60006020820190508181036000830152613539816134fd565b9050919050565b7f4552433732313a207472616e7366657220746f20746865207a65726f2061646460008201527f7265737300000000000000000000000000000000000000000000000000000000602082015250565b600061359c60248361251e565b91506135a782613540565b604082019050919050565b600060208201905081810360008301526135cb8161358f565b9050919050565b600081519050919050565b600082825260208201905092915050565b60006135f9826135d2565b61360381856135dd565b935061361381856020860161252f565b61361c81612559565b840191505092915050565b600060808201905061363c600083018761266e565b613649602083018661266e565b6136566040830185612784565b818103606083015261366881846135ee565b905095945050505050565b60007fffffffff0000000000000000000000000000000000000000000000000000000082169050919050565b6136a881613673565b81146136b357600080fd5b50565b6000815190506136c58161369f565b92915050565b6000602082840312156136e1576136e06125cf565b5b60006136ef848285016136b6565b91505092915050565b7f5f746f2063616e6e6f74206265207a65726f2061646472657373000000000000600082015250565b600061372e601a8361251e565b9150613739826136f8565b602082019050919050565b6000602082019050818103600083015261375d81613721565b9050919050565b7f4e487b7100000000000000000000000000000000000000000000000000000000600052603260045260246000fd5b600061379e826125d9565b91506137a9836125d9565b92508282039050818111156137c1576137c06133a9565b5b92915050565b7f4e487b7100000000000000000000000000000000000000000000000000000000600052603160045260246000fd5b6000613801826125d9565b91507fffffffffffffffffffffffffffffffffffffffffffffffffffffffffffffffff8203613833576138326133a9565b5b600182019050919050565b6000613849826125d9565b91506000820361385c5761385b6133a9565b5b60018203905091905056fe4142434445464748494a4b4c4d4e4f505152535455565758595a6162636465666768696a6b6c6d6e6f707172737475767778797a303132333435363738392b2fa264697066735822122026bd546525ee2e8149b0ff230a117a8ede6c3ebbc2e8996d90276715f375c5ef64736f6c63430008120033",
  "linkReferences": {},
  "deployedLinkReferences": {}
}