{
  "_format": "hh-sol-artifact-1",
  "contractName": "QuestFacet",
  "sourceName": "contracts/facets/QuestFacet.sol",
  "abi": [
    {
      "anonymous": false,
      "inputs": [
        {
          "indexed": true,
          "internalType": "address",
          "name": "_playerAddress",
          "type": "address"
        },
        {
          "indexed": false,
          "internalType": "uint256",
          "name": "_id",
          "type": "uint256"
        }
      ],
      "name": "BeginQuesting",
      "type": "event"
    },
    {
      "anonymous": false,
      "inputs": [
        {
          "indexed": true,
          "internalType": "uint256",
          "name": "_playerId",
          "type": "uint256"
        }
      ],
      "name": "DragonQuest",
      "type": "event"
    },
    {
      "anonymous": false,
      "inputs": [
        {
          "indexed": true,
          "internalType": "address",
          "name": "_playerAddress",
          "type": "address"
        },
        {
          "indexed": false,
          "internalType": "uint256",
          "name": "_id",
          "type": "uint256"
        }
      ],
      "name": "EndQuesting",
      "type": "event"
    },
    {
      "inputs": [
        {
          "internalType": "uint256",
          "name": "_playerId",
          "type": "uint256"
        }
      ],
      "name": "dragonQuest",
      "outputs": [
        {
          "internalType": "bool",
          "name": "result",
          "type": "bool"
        }
      ],
      "stateMutability": "nonpayable",
      "type": "function"
    },
    {
      "inputs": [
        {
          "internalType": "uint256",
          "name": "_tokenId",
          "type": "uint256"
        }
      ],
      "name": "endQuestGem",
      "outputs": [],
      "stateMutability": "nonpayable",
      "type": "function"
    },
    {
      "inputs": [
        {
          "internalType": "uint256",
          "name": "_tokenId",
          "type": "uint256"
        }
      ],
      "name": "endQuestGold",
      "outputs": [],
      "stateMutability": "nonpayable",
      "type": "function"
    },
    {
      "inputs": [
        {
          "internalType": "uint256",
          "name": "_playerId",
          "type": "uint256"
        }
      ],
      "name": "getCooldown",
      "outputs": [
        {
          "internalType": "uint256",
          "name": "",
          "type": "uint256"
        }
      ],
      "stateMutability": "view",
      "type": "function"
    },
    {
      "inputs": [
        {
          "internalType": "address",
          "name": "_address",
          "type": "address"
        }
      ],
      "name": "getGemBalance",
      "outputs": [
        {
          "internalType": "uint256",
          "name": "",
          "type": "uint256"
        }
      ],
      "stateMutability": "view",
      "type": "function"
    },
    {
      "inputs": [
        {
          "internalType": "uint256",
          "name": "_playerId",
          "type": "uint256"
        }
      ],
      "name": "getGemStart",
      "outputs": [
        {
          "internalType": "uint256",
          "name": "",
          "type": "uint256"
        }
      ],
      "stateMutability": "view",
      "type": "function"
    },
    {
      "inputs": [
        {
          "internalType": "address",
          "name": "_address",
          "type": "address"
        }
      ],
      "name": "getGoldBalance",
      "outputs": [
        {
          "internalType": "uint256",
          "name": "",
          "type": "uint256"
        }
      ],
      "stateMutability": "view",
      "type": "function"
    },
    {
      "inputs": [
        {
          "internalType": "uint256",
          "name": "_playerId",
          "type": "uint256"
        }
      ],
      "name": "getGoldStart",
      "outputs": [
        {
          "internalType": "uint256",
          "name": "",
          "type": "uint256"
        }
      ],
      "stateMutability": "view",
      "type": "function"
    },
    {
      "inputs": [
        {
          "internalType": "uint256",
          "name": "_treasureId",
          "type": "uint256"
        }
      ],
      "name": "getTreasure",
      "outputs": [
        {
          "components": [
            {
              "internalType": "uint256",
              "name": "id",
              "type": "uint256"
            },
            {
              "internalType": "uint256",
              "name": "rank",
              "type": "uint256"
            },
            {
              "internalType": "uint256",
              "name": "pointer",
              "type": "uint256"
            },
            {
              "internalType": "string",
              "name": "name",
              "type": "string"
            }
          ],
          "internalType": "struct Treasure",
          "name": "",
          "type": "tuple"
        }
      ],
      "stateMutability": "view",
      "type": "function"
    },
    {
      "inputs": [
        {
          "internalType": "uint256",
          "name": "_playerId",
          "type": "uint256"
        }
      ],
      "name": "getTreasures",
      "outputs": [
        {
          "internalType": "uint256[]",
          "name": "",
          "type": "uint256[]"
        }
      ],
      "stateMutability": "view",
      "type": "function"
    },
    {
      "inputs": [
        {
          "internalType": "uint256",
          "name": "_tokenId",
          "type": "uint256"
        }
      ],
      "name": "startQuestGem",
      "outputs": [],
      "stateMutability": "nonpayable",
      "type": "function"
    },
    {
      "inputs": [
        {
          "internalType": "uint256",
          "name": "_tokenId",
          "type": "uint256"
        }
      ],
      "name": "startQuestGold",
      "outputs": [],
      "stateMutability": "nonpayable",
      "type": "function"
    }
  ],
  "bytecode": "0x608060405234801561001057600080fd5b50611be8806100206000396000f3fe608060405234801561001057600080fd5b50600436106100b45760003560e01c8063920800801161007157806392080080146101c5578063929c2cc0146101f5578063a174d3c214610225578063cdf0641514610241578063e42ce3cf14610271578063e6be6c661461028d576100b4565b80630207f11f146100b957806329e203ab146100e95780633707caf2146101195780633fc0287f1461014957806368a06747146101655780637775049414610195575b600080fd5b6100d360048036038101906100ce919061122f565b6102a9565b6040516100e09190611277565b60405180910390f35b61010360048036038101906100fe919061122f565b6102ef565b60405161011091906112a1565b60405180910390f35b610133600480360381019061012e919061131a565b610301565b60405161014091906112a1565b60405180910390f35b610163600480360381019061015e919061122f565b610313565b005b61017f600480360381019061017a919061122f565b61036d565b60405161018c91906112a1565b60405180910390f35b6101af60048036038101906101aa919061122f565b61037f565b6040516101bc9190611405565b60405180910390f35b6101df60048036038101906101da919061122f565b610391565b6040516101ec91906112a1565b60405180910390f35b61020f600480360381019061020a919061131a565b6103a3565b60405161021c91906112a1565b60405180910390f35b61023f600480360381019061023a919061122f565b6103b5565b005b61025b6004803603810190610256919061122f565b61040f565b604051610268919061151a565b60405180910390f35b61028b6004803603810190610286919061122f565b610427565b005b6102a760048036038101906102a2919061122f565b610481565b005b60006102b4826104db565b905080156102ea57817f897b5c7abcb9d1af199c95f7485f50c3e0dbed9b05f3068b69fd66613c34c38660405160405180910390a25b919050565b60006102fa8261087f565b9050919050565b600061030c826108aa565b9050919050565b61031c81610901565b3373ffffffffffffffffffffffffffffffffffffffff167fcae7c1c63e65edc05144a6b48d8cb6d31d4f693030fd9aeb70a966faaad0f2628260405161036291906112a1565b60405180910390a250565b600061037882610aaf565b9050919050565b606061038a82610ada565b9050919050565b600061039c82610b54565b9050919050565b60006103ae82610b7f565b9050919050565b6103be81610bd6565b3373ffffffffffffffffffffffffffffffffffffffff167f754ac03968a16df89a46742386b9770f63220c3d6eb2838f03971e18a1dba22a8260405161040491906112a1565b60405180910390a250565b6104176111cc565b61042082610cec565b9050919050565b61043081610dd8565b3373ffffffffffffffffffffffffffffffffffffffff167fcae7c1c63e65edc05144a6b48d8cb6d31d4f693030fd9aeb70a966faaad0f2628260405161047691906112a1565b60405180910390a250565b61048a81610fa1565b3373ffffffffffffffffffffffffffffffffffffffff167f754ac03968a16df89a46742386b9770f63220c3d6eb2838f03971e18a1dba22a826040516104d091906112a1565b60405180910390a250565b6000806104e6611088565b905060006104f26110b5565b905060006104fe6110e2565b9050600061050a61110f565b90506000846003016000888152602001908152602001600020600201541461053157600080fd5b3373ffffffffffffffffffffffffffffffffffffffff1684600201600088815260200190815260200160002060009054906101000a900473ffffffffffffffffffffffffffffffffffffffff1673ffffffffffffffffffffffffffffffffffffffff161461059e57600080fd5b61a8c0836006016000888152602001908152602001600020546105c1919061156b565b4210156105cd57600080fd5b6040516020016105dc906115f6565b604051602081830303815290604052805190602001208260020160008660030160008a81526020019081526020016000206012016000015481526020019081526020016000206007016040516020016106359190611703565b604051602081830303815290604052805190602001201461068b576040517f08c379a000000000000000000000000000000000000000000000000000000000815260040161068290611777565b60405180910390fd5b4283600601600088815260200190815260200160002081905550601360146106b28861113c565b6106bc91906117c6565b10610871578060000160008154809291906106d6906117f7565b9190505550604051806080016040528082600001548152602001600281526020018260030160008981526020019081526020016000208054905081526020016040518060400160405280600681526020017f447363616c65000000000000000000000000000000000000000000000000000081525081525081600201600083600001548152602001908152602001600020600082015181600001556020820151816001015560408201518160020155606082015181600301908161079a9190611a05565b5090505080600301600087815260200190815260200160002081600001549080600181540180825580915050600190039060005260206000200160009091909190915055338160010160008360000154815260200190815260200160002060006101000a81548173ffffffffffffffffffffffffffffffffffffffff021916908373ffffffffffffffffffffffffffffffffffffffff160217905550836003016000878152602001908152602001600020600101600081548092919061085f906117f7565b9190505550600194505050505061087a565b60009450505050505b919050565b60008061088a6110b5565b905080600501600084815260200190815260200160002054915050919050565b6000806108b561119f565b90508060000160008473ffffffffffffffffffffffffffffffffffffffff1673ffffffffffffffffffffffffffffffffffffffff16815260200190815260200160002054915050919050565b600061090b611088565b9050600061091761119f565b905060006109236110b5565b90503373ffffffffffffffffffffffffffffffffffffffff1683600201600086815260200190815260200160002060009054906101000a900473ffffffffffffffffffffffffffffffffffffffff1673ffffffffffffffffffffffffffffffffffffffff161461099257600080fd5b600283600301600086815260200190815260200160002060020154146109b757600080fd5b6078816001016000868152602001908152602001600020546109d9919061156b565b421015610a1b576040517f08c379a0000000000000000000000000000000000000000000000000000000008152600401610a1290611b23565b60405180910390fd5b600083600301600086815260200190815260200160002060020181905550806001016000858152602001908152602001600020600090558160000160003373ffffffffffffffffffffffffffffffffffffffff1673ffffffffffffffffffffffffffffffffffffffff1681526020019081526020016000206000815480929190610aa4906117f7565b919050555050505050565b600080610aba6110b5565b905080600201600084815260200190815260200160002054915050919050565b60606000610ae661110f565b9050806003016000848152602001908152602001600020805480602002602001604051908101604052809291908181526020018280548015610b4757602002820191906000526020600020905b815481526020019060010190808311610b33575b5050505050915050919050565b600080610b5f6110b5565b905080600101600084815260200190815260200160002054915050919050565b600080610b8a61119f565b90508060010160008473ffffffffffffffffffffffffffffffffffffffff1673ffffffffffffffffffffffffffffffffffffffff16815260200190815260200160002054915050919050565b6000610be0611088565b90506000610bec6110b5565b905060008260030160008581526020019081526020016000206002015414610c1357600080fd5b3373ffffffffffffffffffffffffffffffffffffffff1682600201600085815260200190815260200160002060009054906101000a900473ffffffffffffffffffffffffffffffffffffffff1673ffffffffffffffffffffffffffffffffffffffff1614610c8057600080fd5b61025881600501600085815260200190815260200160002054610ca3919061156b565b421015610caf57600080fd5b6005826003016000858152602001908152602001600020600201819055504281600201600085815260200190815260200160002081905550505050565b610cf46111cc565b6000610cfe61110f565b9050806002016000848152602001908152602001600020604051806080016040529081600082015481526020016001820154815260200160028201548152602001600382018054610d4e9061163a565b80601f0160208091040260200160405190810160405280929190818152602001828054610d7a9061163a565b8015610dc75780601f10610d9c57610100808354040283529160200191610dc7565b820191906000526020600020905b815481529060010190602001808311610daa57829003601f168201915b505050505081525050915050919050565b6000610de2611088565b90506000610dee61119f565b90506000610dfa6110b5565b90503373ffffffffffffffffffffffffffffffffffffffff1683600201600086815260200190815260200160002060009054906101000a900473ffffffffffffffffffffffffffffffffffffffff1673ffffffffffffffffffffffffffffffffffffffff1614610e6957600080fd5b60058360030160008681526020019081526020016000206002015414610e8e57600080fd5b61025881600201600086815260200190815260200160002054610eb1919061156b565b421015610ef3576040517f08c379a0000000000000000000000000000000000000000000000000000000008152600401610eea90611b23565b60405180910390fd5b600083600301600086815260200190815260200160002060020181905550806002016000858152602001908152602001600020600090558160010160003373ffffffffffffffffffffffffffffffffffffffff1673ffffffffffffffffffffffffffffffffffffffff1681526020019081526020016000206000815480929190610f7c906117f7565b9190505550428160050160008681526020019081526020016000208190555050505050565b6000610fab611088565b90506000610fb76110b5565b905060008260030160008581526020019081526020016000206002015414610fde57600080fd5b3373ffffffffffffffffffffffffffffffffffffffff1682600201600085815260200190815260200160002060009054906101000a900473ffffffffffffffffffffffffffffffffffffffff1673ffffffffffffffffffffffffffffffffffffffff161461104b57600080fd5b6002826003016000858152602001908152602001600020600201819055504281600101600085815260200190815260200160002081905550505050565b6000807f3cab9a070a0c61cd0ae9d9e9e2c0781e5ca8691bec4087e5a4701d5ac018dd4e90508091505090565b6000807ff76a8e66124dac83b46aecd7c4256d5158e69f6adf88592fd8146c79e007626e90508091505090565b6000807faad0511195ddfb575f5187a7172ca6fc330f129a86291f15eaa5f7537ab038dc90508091505090565b6000807fb5dbbc334907f600e1151190a68c4043043163a23a907389a2c6f6231ed4318b90508091505090565b6000806111476110b5565b905080600001600081548092919061115e906117f7565b9190505550424484836000015460405160200161117e9493929190611b64565b6040516020818303038152906040528051906020012060001c915050919050565b6000807f2c89d74504b6ad8d4fbde22bc3474166bac5452a11195897f239d8bebe02d70790508091505090565b6040518060800160405280600081526020016000815260200160008152602001606081525090565b600080fd5b6000819050919050565b61120c816111f9565b811461121757600080fd5b50565b60008135905061122981611203565b92915050565b600060208284031215611245576112446111f4565b5b60006112538482850161121a565b91505092915050565b60008115159050919050565b6112718161125c565b82525050565b600060208201905061128c6000830184611268565b92915050565b61129b816111f9565b82525050565b60006020820190506112b66000830184611292565b92915050565b600073ffffffffffffffffffffffffffffffffffffffff82169050919050565b60006112e7826112bc565b9050919050565b6112f7816112dc565b811461130257600080fd5b50565b600081359050611314816112ee565b92915050565b6000602082840312156113305761132f6111f4565b5b600061133e84828501611305565b91505092915050565b600081519050919050565b600082825260208201905092915050565b6000819050602082019050919050565b61137c816111f9565b82525050565b600061138e8383611373565b60208301905092915050565b6000602082019050919050565b60006113b282611347565b6113bc8185611352565b93506113c783611363565b8060005b838110156113f85781516113df8882611382565b97506113ea8361139a565b9250506001810190506113cb565b5085935050505092915050565b6000602082019050818103600083015261141f81846113a7565b905092915050565b600081519050919050565b600082825260208201905092915050565b60005b83811015611461578082015181840152602081019050611446565b60008484015250505050565b6000601f19601f8301169050919050565b600061148982611427565b6114938185611432565b93506114a3818560208601611443565b6114ac8161146d565b840191505092915050565b60006080830160008301516114cf6000860182611373565b5060208301516114e26020860182611373565b5060408301516114f56040860182611373565b506060830151848203606086015261150d828261147e565b9150508091505092915050565b6000602082019050818103600083015261153481846114b7565b905092915050565b7f4e487b7100000000000000000000000000000000000000000000000000000000600052601160045260246000fd5b6000611576826111f9565b9150611581836111f9565b92508282019050808211156115995761159861153c565b5b92915050565b600081905092915050565b7f57697a4861740000000000000000000000000000000000000000000000000000600082015250565b60006115e060068361159f565b91506115eb826115aa565b600682019050919050565b6000611601826115d3565b9150819050919050565b7f4e487b7100000000000000000000000000000000000000000000000000000000600052602260045260246000fd5b6000600282049050600182168061165257607f821691505b6020821081036116655761166461160b565b5b50919050565b60008190508160005260206000209050919050565b6000815461168d8161163a565b611697818661159f565b945060018216600081146116b257600181146116c7576116fa565b60ff19831686528115158202860193506116fa565b6116d08561166b565b60005b838110156116f2578154818901526001820191506020810190506116d3565b838801955050505b50505092915050565b600061170f8284611680565b915081905092915050565b600082825260208201905092915050565b7f6e6f742077656172696e67206861740000000000000000000000000000000000600082015250565b6000611761600f8361171a565b915061176c8261172b565b602082019050919050565b6000602082019050818103600083015261179081611754565b9050919050565b7f4e487b7100000000000000000000000000000000000000000000000000000000600052601260045260246000fd5b60006117d1826111f9565b91506117dc836111f9565b9250826117ec576117eb611797565b5b828206905092915050565b6000611802826111f9565b91507fffffffffffffffffffffffffffffffffffffffffffffffffffffffffffffffff82036118345761183361153c565b5b600182019050919050565b7f4e487b7100000000000000000000000000000000000000000000000000000000600052604160045260246000fd5b60006020601f8301049050919050565b600082821b905092915050565b6000600883026118bb7fffffffffffffffffffffffffffffffffffffffffffffffffffffffffffffffff8261187e565b6118c5868361187e565b95508019841693508086168417925050509392505050565b6000819050919050565b60006119026118fd6118f8846111f9565b6118dd565b6111f9565b9050919050565b6000819050919050565b61191c836118e7565b61193061192882611909565b84845461188b565b825550505050565b600090565b611945611938565b611950818484611913565b505050565b5b818110156119745761196960008261193d565b600181019050611956565b5050565b601f8211156119b95761198a8161166b565b6119938461186e565b810160208510156119a2578190505b6119b66119ae8561186e565b830182611955565b50505b505050565b600082821c905092915050565b60006119dc600019846008026119be565b1980831691505092915050565b60006119f583836119cb565b9150826002028217905092915050565b611a0e82611427565b67ffffffffffffffff811115611a2757611a2661183f565b5b611a31825461163a565b611a3c828285611978565b600060209050601f831160018114611a6f5760008415611a5d578287015190505b611a6785826119e9565b865550611acf565b601f198416611a7d8661166b565b60005b82811015611aa557848901518255600182019150602085019450602081019050611a80565b86831015611ac25784890151611abe601f8916826119cb565b8355505b6001600288020188555050505b505050505050565b7f6974277320746f6f206561726c7920746f2070756c6c206f7574000000000000600082015250565b6000611b0d601a8361171a565b9150611b1882611ad7565b602082019050919050565b60006020820190508181036000830152611b3c81611b00565b9050919050565b6000819050919050565b611b5e611b59826111f9565b611b43565b82525050565b6000611b708287611b4d565b602082019150611b808286611b4d565b602082019150611b908285611b4d565b602082019150611ba08284611b4d565b6020820191508190509594505050505056fea264697066735822122042144e22ce8c16e09ae287afede2adcce93652a33af359f10a7d9aca273956b364736f6c63430008110033",
  "linkReferences": {},
  "deployedLinkReferences": {}
}