{
  "_format": "hh-sol-artifact-1",
  "contractName": "QuestFacet",
  "sourceName": "contracts/facets/QuestFacet.sol",
  "abi": [
    {
      "anonymous": false,
      "inputs": [
        {
          "indexed": true,
          "internalType": "address",
          "name": "_playerAddress",
          "type": "address"
        },
        {
          "indexed": false,
          "internalType": "uint256",
          "name": "_id",
          "type": "uint256"
        }
      ],
      "name": "BeginQuesting",
      "type": "event"
    },
    {
      "anonymous": false,
      "inputs": [
        {
          "indexed": true,
          "internalType": "address",
          "name": "_playerAddress",
          "type": "address"
        },
        {
          "indexed": false,
          "internalType": "uint256",
          "name": "_id",
          "type": "uint256"
        }
      ],
      "name": "EndQuesting",
      "type": "event"
    },
    {
      "inputs": [
        {
          "internalType": "uint256",
          "name": "_tokenId",
          "type": "uint256"
        }
      ],
      "name": "endQuestGem",
      "outputs": [],
      "stateMutability": "nonpayable",
      "type": "function"
    },
    {
      "inputs": [
        {
          "internalType": "uint256",
          "name": "_tokenId",
          "type": "uint256"
        }
      ],
      "name": "endQuestGold",
      "outputs": [],
      "stateMutability": "nonpayable",
      "type": "function"
    },
    {
      "inputs": [
        {
          "internalType": "uint256",
          "name": "_playerId",
          "type": "uint256"
        }
      ],
      "name": "getCooldown",
      "outputs": [
        {
          "internalType": "uint256",
          "name": "",
          "type": "uint256"
        }
      ],
      "stateMutability": "view",
      "type": "function"
    },
    {
      "inputs": [
        {
          "internalType": "address",
          "name": "_address",
          "type": "address"
        }
      ],
      "name": "getGemBalance",
      "outputs": [
        {
          "internalType": "uint256",
          "name": "",
          "type": "uint256"
        }
      ],
      "stateMutability": "view",
      "type": "function"
    },
    {
      "inputs": [
        {
          "internalType": "uint256",
          "name": "_playerId",
          "type": "uint256"
        }
      ],
      "name": "getGemStart",
      "outputs": [
        {
          "internalType": "uint256",
          "name": "",
          "type": "uint256"
        }
      ],
      "stateMutability": "view",
      "type": "function"
    },
    {
      "inputs": [
        {
          "internalType": "address",
          "name": "_address",
          "type": "address"
        }
      ],
      "name": "getGoldBalance",
      "outputs": [
        {
          "internalType": "uint256",
          "name": "",
          "type": "uint256"
        }
      ],
      "stateMutability": "view",
      "type": "function"
    },
    {
      "inputs": [
        {
          "internalType": "uint256",
          "name": "_playerId",
          "type": "uint256"
        }
      ],
      "name": "getGoldStart",
      "outputs": [
        {
          "internalType": "uint256",
          "name": "",
          "type": "uint256"
        }
      ],
      "stateMutability": "view",
      "type": "function"
    },
    {
      "inputs": [
        {
          "internalType": "uint256",
          "name": "_treasureId",
          "type": "uint256"
        }
      ],
      "name": "getTreasure",
      "outputs": [
        {
          "components": [
            {
              "internalType": "uint256",
              "name": "id",
              "type": "uint256"
            },
            {
              "internalType": "uint256",
              "name": "rank",
              "type": "uint256"
            },
            {
              "internalType": "uint256",
              "name": "pointer",
              "type": "uint256"
            },
            {
              "internalType": "string",
              "name": "name",
              "type": "string"
            },
            {
              "internalType": "string",
              "name": "uri",
              "type": "string"
            }
          ],
          "internalType": "struct Treasure",
          "name": "",
          "type": "tuple"
        }
      ],
      "stateMutability": "view",
      "type": "function"
    },
    {
      "inputs": [
        {
          "internalType": "uint256",
          "name": "_playerId",
          "type": "uint256"
        }
      ],
      "name": "getTreasures",
      "outputs": [
        {
          "internalType": "uint256[]",
          "name": "",
          "type": "uint256[]"
        }
      ],
      "stateMutability": "view",
      "type": "function"
    },
    {
      "inputs": [
        {
          "internalType": "uint256",
          "name": "_tokenId",
          "type": "uint256"
        }
      ],
      "name": "startQuestGem",
      "outputs": [],
      "stateMutability": "nonpayable",
      "type": "function"
    },
    {
      "inputs": [
        {
          "internalType": "uint256",
          "name": "_tokenId",
          "type": "uint256"
        }
      ],
      "name": "startQuestGold",
      "outputs": [],
      "stateMutability": "nonpayable",
      "type": "function"
    }
  ],
  "bytecode": "0x608060405234801561001057600080fd5b50611543806100206000396000f3fe608060405234801561001057600080fd5b50600436106100a95760003560e01c80639208008011610071578063920800801461018a578063929c2cc0146101ba578063a174d3c2146101ea578063cdf0641514610206578063e42ce3cf14610236578063e6be6c6614610252576100a9565b806329e203ab146100ae5780633707caf2146100de5780633fc0287f1461010e57806368a067471461012a578063777504941461015a575b600080fd5b6100c860048036038101906100c39190610f88565b61026e565b6040516100d59190610fc4565b60405180910390f35b6100f860048036038101906100f3919061103d565b610280565b6040516101059190610fc4565b60405180910390f35b61012860048036038101906101239190610f88565b610292565b005b610144600480360381019061013f9190610f88565b6102ec565b6040516101519190610fc4565b60405180910390f35b610174600480360381019061016f9190610f88565b6102fe565b6040516101819190611128565b60405180910390f35b6101a4600480360381019061019f9190610f88565b610310565b6040516101b19190610fc4565b60405180910390f35b6101d460048036038101906101cf919061103d565b610322565b6040516101e19190610fc4565b60405180910390f35b61020460048036038101906101ff9190610f88565b610334565b005b610220600480360381019061021b9190610f88565b61038e565b60405161022d9190611257565b60405180910390f35b610250600480360381019061024b9190610f88565b6103a6565b005b61026c60048036038101906102679190610f88565b610400565b005b60006102798261045a565b9050919050565b600061028b82610485565b9050919050565b61029b816104dc565b3373ffffffffffffffffffffffffffffffffffffffff167fcae7c1c63e65edc05144a6b48d8cb6d31d4f693030fd9aeb70a966faaad0f262826040516102e19190610fc4565b60405180910390a250565b60006102f78261074d565b9050919050565b606061030982610778565b9050919050565b600061031b826107f2565b9050919050565b600061032d8261081d565b9050919050565b61033d81610874565b3373ffffffffffffffffffffffffffffffffffffffff167f754ac03968a16df89a46742386b9770f63220c3d6eb2838f03971e18a1dba22a826040516103839190610fc4565b60405180910390a250565b610396610f1e565b61039f826109e3565b9050919050565b6103af81610b61565b3373ffffffffffffffffffffffffffffffffffffffff167fcae7c1c63e65edc05144a6b48d8cb6d31d4f693030fd9aeb70a966faaad0f262826040516103f59190610fc4565b60405180910390a250565b61040981610d83565b3373ffffffffffffffffffffffffffffffffffffffff167f754ac03968a16df89a46742386b9770f63220c3d6eb2838f03971e18a1dba22a8260405161044f9190610fc4565b60405180910390a250565b600080610465610e6a565b905080600501600084815260200190815260200160002054915050919050565b600080610490610e97565b90508060000160008473ffffffffffffffffffffffffffffffffffffffff1673ffffffffffffffffffffffffffffffffffffffff16815260200190815260200160002054915050919050565b60006104e6610ec4565b905060006104f2610e97565b905060006104fe610e6a565b90503373ffffffffffffffffffffffffffffffffffffffff1683600201600086815260200190815260200160002060009054906101000a900473ffffffffffffffffffffffffffffffffffffffff1673ffffffffffffffffffffffffffffffffffffffff16146105a3576040517f08c379a000000000000000000000000000000000000000000000000000000000815260040161059a906112d6565b60405180910390fd5b600283600301600086815260200190815260200160002060020154146105fe576040517f08c379a00000000000000000000000000000000000000000000000000000000081526004016105f590611342565b60405180910390fd5b6000603c84600301600087815260200190815260200160002060090154101561064e578360030160008681526020019081526020016000206009015460826106469190611391565b905080610654565b603c9050805b50808260010160008781526020019081526020016000205461067691906113c5565b4210156106b8576040517f08c379a00000000000000000000000000000000000000000000000000000000081526004016106af90611445565b60405180910390fd5b600084600301600087815260200190815260200160002060020181905550816001016000868152602001908152602001600020600090558260000160003373ffffffffffffffffffffffffffffffffffffffff1673ffffffffffffffffffffffffffffffffffffffff168152602001908152602001600020600081548092919061074190611465565b91905055505050505050565b600080610758610e6a565b905080600201600084815260200190815260200160002054915050919050565b60606000610784610ef1565b90508060030160008481526020019081526020016000208054806020026020016040519081016040528092919081815260200182805480156107e557602002820191906000526020600020905b8154815260200190600101908083116107d1575b5050505050915050919050565b6000806107fd610e6a565b905080600101600084815260200190815260200160002054915050919050565b600080610828610e97565b90508060010160008473ffffffffffffffffffffffffffffffffffffffff1673ffffffffffffffffffffffffffffffffffffffff16815260200190815260200160002054915050919050565b600061087e610ec4565b9050600061088a610e6a565b9050600082600301600085815260200190815260200160002060020154146108b157600080fd5b3373ffffffffffffffffffffffffffffffffffffffff1682600201600085815260200190815260200160002060009054906101000a900473ffffffffffffffffffffffffffffffffffffffff1673ffffffffffffffffffffffffffffffffffffffff161461091e57600080fd5b600061012c83600301600086815260200190815260200160002060090154101561097057826003016000858152602001908152602001600020600901546102626109689190611391565b905080610977565b61012c9050805b50808260050160008681526020019081526020016000205461099991906113c5565b4210156109a557600080fd5b600583600301600086815260200190815260200160002060020181905550428260020160008681526020019081526020016000208190555050505050565b6109eb610f1e565b60006109f5610ef1565b90508060020160008481526020019081526020016000206040518060a0016040529081600082015481526020016001820154815260200160028201548152602001600382018054610a45906114dc565b80601f0160208091040260200160405190810160405280929190818152602001828054610a71906114dc565b8015610abe5780601f10610a9357610100808354040283529160200191610abe565b820191906000526020600020905b815481529060010190602001808311610aa157829003601f168201915b50505050508152602001600482018054610ad7906114dc565b80601f0160208091040260200160405190810160405280929190818152602001828054610b03906114dc565b8015610b505780601f10610b2557610100808354040283529160200191610b50565b820191906000526020600020905b815481529060010190602001808311610b3357829003601f168201915b505050505081525050915050919050565b6000610b6b610ec4565b90506000610b77610e97565b90506000610b83610e6a565b90503373ffffffffffffffffffffffffffffffffffffffff1683600201600086815260200190815260200160002060009054906101000a900473ffffffffffffffffffffffffffffffffffffffff1673ffffffffffffffffffffffffffffffffffffffff1614610bf257600080fd5b60058360030160008681526020019081526020016000206002015414610c1757600080fd5b600061012c846003016000878152602001908152602001600020600901541015610c695783600301600086815260200190815260200160002060090154610262610c619190611391565b905080610c70565b61012c9050805b508082600201600087815260200190815260200160002054610c9291906113c5565b421015610cd4576040517f08c379a0000000000000000000000000000000000000000000000000000000008152600401610ccb90611445565b60405180910390fd5b600084600301600087815260200190815260200160002060020181905550816002016000868152602001908152602001600020600090558260010160003373ffffffffffffffffffffffffffffffffffffffff1673ffffffffffffffffffffffffffffffffffffffff1681526020019081526020016000206000815480929190610d5d90611465565b919050555042826005016000878152602001908152602001600020819055505050505050565b6000610d8d610ec4565b90506000610d99610e6a565b905060008260030160008581526020019081526020016000206002015414610dc057600080fd5b3373ffffffffffffffffffffffffffffffffffffffff1682600201600085815260200190815260200160002060009054906101000a900473ffffffffffffffffffffffffffffffffffffffff1673ffffffffffffffffffffffffffffffffffffffff1614610e2d57600080fd5b6002826003016000858152602001908152602001600020600201819055504281600101600085815260200190815260200160002081905550505050565b6000807ff76a8e66124dac83b46aecd7c4256d5158e69f6adf88592fd8146c79e007626e90508091505090565b6000807f2c89d74504b6ad8d4fbde22bc3474166bac5452a11195897f239d8bebe02d70790508091505090565b6000807f3cab9a070a0c61cd0ae9d9e9e2c0781e5ca8691bec4087e5a4701d5ac018dd4e90508091505090565b6000807fb5dbbc334907f600e1151190a68c4043043163a23a907389a2c6f6231ed4318b90508091505090565b6040518060a0016040528060008152602001600081526020016000815260200160608152602001606081525090565b600080fd5b6000819050919050565b610f6581610f52565b8114610f7057600080fd5b50565b600081359050610f8281610f5c565b92915050565b600060208284031215610f9e57610f9d610f4d565b5b6000610fac84828501610f73565b91505092915050565b610fbe81610f52565b82525050565b6000602082019050610fd96000830184610fb5565b92915050565b600073ffffffffffffffffffffffffffffffffffffffff82169050919050565b600061100a82610fdf565b9050919050565b61101a81610fff565b811461102557600080fd5b50565b60008135905061103781611011565b92915050565b60006020828403121561105357611052610f4d565b5b600061106184828501611028565b91505092915050565b600081519050919050565b600082825260208201905092915050565b6000819050602082019050919050565b61109f81610f52565b82525050565b60006110b18383611096565b60208301905092915050565b6000602082019050919050565b60006110d58261106a565b6110df8185611075565b93506110ea83611086565b8060005b8381101561111b57815161110288826110a5565b975061110d836110bd565b9250506001810190506110ee565b5085935050505092915050565b6000602082019050818103600083015261114281846110ca565b905092915050565b600081519050919050565b600082825260208201905092915050565b60005b83811015611184578082015181840152602081019050611169565b60008484015250505050565b6000601f19601f8301169050919050565b60006111ac8261114a565b6111b68185611155565b93506111c6818560208601611166565b6111cf81611190565b840191505092915050565b600060a0830160008301516111f26000860182611096565b5060208301516112056020860182611096565b5060408301516112186040860182611096565b506060830151848203606086015261123082826111a1565b9150506080830151848203608086015261124a82826111a1565b9150508091505092915050565b6000602082019050818103600083015261127181846111da565b905092915050565b600082825260208201905092915050565b7f796f7520617265206e6f7420746865206f776e65720000000000000000000000600082015250565b60006112c0601583611279565b91506112cb8261128a565b602082019050919050565b600060208201905081810360008301526112ef816112b3565b9050919050565b7f446f672c20796f7520617265206e6f7420676f6c64207175657374696e670000600082015250565b600061132c601e83611279565b9150611337826112f6565b602082019050919050565b6000602082019050818103600083015261135b8161131f565b9050919050565b7f4e487b7100000000000000000000000000000000000000000000000000000000600052601160045260246000fd5b600061139c82610f52565b91506113a783610f52565b92508282039050818111156113bf576113be611362565b5b92915050565b60006113d082610f52565b91506113db83610f52565b92508282019050808211156113f3576113f2611362565b5b92915050565b7f6974277320746f6f206561726c7920746f2070756c6c206f7574000000000000600082015250565b600061142f601a83611279565b915061143a826113f9565b602082019050919050565b6000602082019050818103600083015261145e81611422565b9050919050565b600061147082610f52565b91507fffffffffffffffffffffffffffffffffffffffffffffffffffffffffffffffff82036114a2576114a1611362565b5b600182019050919050565b7f4e487b7100000000000000000000000000000000000000000000000000000000600052602260045260246000fd5b600060028204905060018216806114f457607f821691505b602082108103611507576115066114ad565b5b5091905056fea26469706673582212202cb28e674718dd28ca9dcbd3d83b64c94e26d5bf48b76e6eff6e550b62a350ed64736f6c63430008110033",
  "linkReferences": {},
  "deployedLinkReferences": {}
}