{
  "_format": "hh-sol-artifact-1",
  "contractName": "QuestFacet",
  "sourceName": "contracts/facets/QuestFacet.sol",
  "abi": [
    {
      "anonymous": false,
      "inputs": [
        {
          "indexed": true,
          "internalType": "address",
          "name": "_playerAddress",
          "type": "address"
        },
        {
          "indexed": false,
          "internalType": "uint256",
          "name": "_id",
          "type": "uint256"
        }
      ],
      "name": "BeginQuesting",
      "type": "event"
    },
    {
      "anonymous": false,
      "inputs": [
        {
          "indexed": true,
          "internalType": "address",
          "name": "_playerAddress",
          "type": "address"
        },
        {
          "indexed": false,
          "internalType": "uint256",
          "name": "_id",
          "type": "uint256"
        }
      ],
      "name": "EndQuesting",
      "type": "event"
    },
    {
      "inputs": [
        {
          "internalType": "uint256",
          "name": "_tokenId",
          "type": "uint256"
        }
      ],
      "name": "endQuestGem",
      "outputs": [],
      "stateMutability": "nonpayable",
      "type": "function"
    },
    {
      "inputs": [
        {
          "internalType": "uint256",
          "name": "_tokenId",
          "type": "uint256"
        }
      ],
      "name": "endQuestGold",
      "outputs": [],
      "stateMutability": "nonpayable",
      "type": "function"
    },
    {
      "inputs": [
        {
          "internalType": "uint256",
          "name": "_playerId",
          "type": "uint256"
        }
      ],
      "name": "getCooldown",
      "outputs": [
        {
          "internalType": "uint256",
          "name": "",
          "type": "uint256"
        }
      ],
      "stateMutability": "view",
      "type": "function"
    },
    {
      "inputs": [
        {
          "internalType": "address",
          "name": "_address",
          "type": "address"
        }
      ],
      "name": "getGemBalance",
      "outputs": [
        {
          "internalType": "uint256",
          "name": "",
          "type": "uint256"
        }
      ],
      "stateMutability": "view",
      "type": "function"
    },
    {
      "inputs": [
        {
          "internalType": "uint256",
          "name": "_playerId",
          "type": "uint256"
        }
      ],
      "name": "getGemStart",
      "outputs": [
        {
          "internalType": "uint256",
          "name": "",
          "type": "uint256"
        }
      ],
      "stateMutability": "view",
      "type": "function"
    },
    {
      "inputs": [],
      "name": "getGold",
      "outputs": [],
      "stateMutability": "nonpayable",
      "type": "function"
    },
    {
      "inputs": [
        {
          "internalType": "address",
          "name": "_address",
          "type": "address"
        }
      ],
      "name": "getGoldBalance",
      "outputs": [
        {
          "internalType": "uint256",
          "name": "",
          "type": "uint256"
        }
      ],
      "stateMutability": "view",
      "type": "function"
    },
    {
      "inputs": [
        {
          "internalType": "uint256",
          "name": "_playerId",
          "type": "uint256"
        }
      ],
      "name": "getGoldStart",
      "outputs": [
        {
          "internalType": "uint256",
          "name": "",
          "type": "uint256"
        }
      ],
      "stateMutability": "view",
      "type": "function"
    },
    {
      "inputs": [
        {
          "internalType": "uint256",
          "name": "_tokenId",
          "type": "uint256"
        }
      ],
      "name": "startQuestGem",
      "outputs": [],
      "stateMutability": "nonpayable",
      "type": "function"
    },
    {
      "inputs": [
        {
          "internalType": "uint256",
          "name": "_tokenId",
          "type": "uint256"
        }
      ],
      "name": "startQuestGold",
      "outputs": [],
      "stateMutability": "nonpayable",
      "type": "function"
    }
  ],
  "bytecode": "0x608060405234801561001057600080fd5b506110a7806100206000396000f3fe608060405234801561001057600080fd5b506004361061009e5760003560e01c806392080080116100665780639208008014610159578063929c2cc014610189578063a174d3c2146101b9578063e42ce3cf146101d5578063e6be6c66146101f15761009e565b806329e203ab146100a35780633707caf2146100d35780633fc0287f1461010357806342f065321461011f57806368a0674714610129575b600080fd5b6100bd60048036038101906100b89190610d5b565b61020d565b6040516100ca9190610d97565b60405180910390f35b6100ed60048036038101906100e89190610e10565b61021f565b6040516100fa9190610d97565b60405180910390f35b61011d60048036038101906101189190610d5b565b610231565b005b61012761028b565b005b610143600480360381019061013e9190610d5b565b610295565b6040516101509190610d97565b60405180910390f35b610173600480360381019061016e9190610d5b565b6102a7565b6040516101809190610d97565b60405180910390f35b6101a3600480360381019061019e9190610e10565b6102b9565b6040516101b09190610d97565b60405180910390f35b6101d360048036038101906101ce9190610d5b565b6102cb565b005b6101ef60048036038101906101ea9190610d5b565b610325565b005b61020b60048036038101906102069190610d5b565b61037f565b005b6000610218826103d9565b9050919050565b600061022a82610404565b9050919050565b61023a8161045b565b3373ffffffffffffffffffffffffffffffffffffffff167fcae7c1c63e65edc05144a6b48d8cb6d31d4f693030fd9aeb70a966faaad0f262826040516102809190610d97565b60405180910390a250565b6102936106d1565b565b60006102a082610739565b9050919050565b60006102b282610764565b9050919050565b60006102c48261078f565b9050919050565b6102d4816107e6565b3373ffffffffffffffffffffffffffffffffffffffff167f754ac03968a16df89a46742386b9770f63220c3d6eb2838f03971e18a1dba22a8260405161031a9190610d97565b60405180910390a250565b61032e81610955565b3373ffffffffffffffffffffffffffffffffffffffff167fcae7c1c63e65edc05144a6b48d8cb6d31d4f693030fd9aeb70a966faaad0f262826040516103749190610d97565b60405180910390a250565b61038881610b77565b3373ffffffffffffffffffffffffffffffffffffffff167f754ac03968a16df89a46742386b9770f63220c3d6eb2838f03971e18a1dba22a826040516103ce9190610d97565b60405180910390a250565b6000806103e4610c99565b905080600501600084815260200190815260200160002054915050919050565b60008061040f610cc6565b90508060010160008473ffffffffffffffffffffffffffffffffffffffff1673ffffffffffffffffffffffffffffffffffffffff16815260200190815260200160002054915050919050565b6000610465610cf3565b90506000610471610cc6565b9050600061047d610c99565b90503373ffffffffffffffffffffffffffffffffffffffff1683600201600086815260200190815260200160002060009054906101000a900473ffffffffffffffffffffffffffffffffffffffff1673ffffffffffffffffffffffffffffffffffffffff1614610522576040517f08c379a000000000000000000000000000000000000000000000000000000000815260040161051990610e9a565b60405180910390fd5b6002836003016000868152602001908152602001600020600201541461057d576040517f08c379a000000000000000000000000000000000000000000000000000000000815260040161057490610f06565b60405180910390fd5b60006102588460030160008781526020019081526020016000206009015410156105cf57836003016000868152602001908152602001600020600901546102626105c79190610f55565b9050806105d6565b6102589050805b5080826001016000878152602001908152602001600020546105f89190610f89565b42101561063a576040517f08c379a000000000000000000000000000000000000000000000000000000000815260040161063190611009565b60405180910390fd5b60008460030160008781526020019081526020016000206002018190555081600101600086815260200190815260200160002060009055600a8360010160003373ffffffffffffffffffffffffffffffffffffffff1673ffffffffffffffffffffffffffffffffffffffff16815260200190815260200160002060008282546106c39190610f89565b925050819055505050505050565b60006106db610cc6565b905060648160010160003373ffffffffffffffffffffffffffffffffffffffff1673ffffffffffffffffffffffffffffffffffffffff168152602001908152602001600020600082825461072f9190610f89565b9250508190555050565b600080610744610c99565b905080600201600084815260200190815260200160002054915050919050565b60008061076f610c99565b905080600101600084815260200190815260200160002054915050919050565b60008061079a610cc6565b90508060020160008473ffffffffffffffffffffffffffffffffffffffff1673ffffffffffffffffffffffffffffffffffffffff16815260200190815260200160002054915050919050565b60006107f0610cf3565b905060006107fc610c99565b90506000826003016000858152602001908152602001600020600201541461082357600080fd5b3373ffffffffffffffffffffffffffffffffffffffff1682600201600085815260200190815260200160002060009054906101000a900473ffffffffffffffffffffffffffffffffffffffff1673ffffffffffffffffffffffffffffffffffffffff161461089057600080fd5b600061012c8360030160008681526020019081526020016000206009015410156108e257826003016000858152602001908152602001600020600901546102626108da9190610f55565b9050806108e9565b61012c9050805b50808260050160008681526020019081526020016000205461090b9190610f89565b42101561091757600080fd5b600583600301600086815260200190815260200160002060020181905550428260020160008681526020019081526020016000208190555050505050565b600061095f610cf3565b9050600061096b610cc6565b90506000610977610c99565b90503373ffffffffffffffffffffffffffffffffffffffff1683600201600086815260200190815260200160002060009054906101000a900473ffffffffffffffffffffffffffffffffffffffff1673ffffffffffffffffffffffffffffffffffffffff16146109e657600080fd5b60058360030160008681526020019081526020016000206002015414610a0b57600080fd5b600061012c846003016000878152602001908152602001600020600901541015610a5d5783600301600086815260200190815260200160002060090154610262610a559190610f55565b905080610a64565b61012c9050805b508082600201600087815260200190815260200160002054610a869190610f89565b421015610ac8576040517f08c379a0000000000000000000000000000000000000000000000000000000008152600401610abf90611009565b60405180910390fd5b600084600301600087815260200190815260200160002060020181905550816002016000868152602001908152602001600020600090558260020160003373ffffffffffffffffffffffffffffffffffffffff1673ffffffffffffffffffffffffffffffffffffffff1681526020019081526020016000206000815480929190610b5190611029565b919050555042826005016000878152602001908152602001600020819055505050505050565b6000610b81610cf3565b90506000610b8d610c99565b90506000610b99610cc6565b905060008360030160008681526020019081526020016000206002015414610bc057600080fd5b3373ffffffffffffffffffffffffffffffffffffffff1683600201600086815260200190815260200160002060009054906101000a900473ffffffffffffffffffffffffffffffffffffffff1673ffffffffffffffffffffffffffffffffffffffff1614610c2d57600080fd5b6298968081600001541115610c4157600080fd5b806000016000815480929190610c5690611029565b9190505550600283600301600086815260200190815260200160002060020181905550428260010160008681526020019081526020016000208190555050505050565b6000807ff76a8e66124dac83b46aecd7c4256d5158e69f6adf88592fd8146c79e007626e90508091505090565b6000807f2c89d74504b6ad8d4fbde22bc3474166bac5452a11195897f239d8bebe02d70790508091505090565b6000807f3cab9a070a0c61cd0ae9d9e9e2c0781e5ca8691bec4087e5a4701d5ac018dd4e90508091505090565b600080fd5b6000819050919050565b610d3881610d25565b8114610d4357600080fd5b50565b600081359050610d5581610d2f565b92915050565b600060208284031215610d7157610d70610d20565b5b6000610d7f84828501610d46565b91505092915050565b610d9181610d25565b82525050565b6000602082019050610dac6000830184610d88565b92915050565b600073ffffffffffffffffffffffffffffffffffffffff82169050919050565b6000610ddd82610db2565b9050919050565b610ded81610dd2565b8114610df857600080fd5b50565b600081359050610e0a81610de4565b92915050565b600060208284031215610e2657610e25610d20565b5b6000610e3484828501610dfb565b91505092915050565b600082825260208201905092915050565b7f796f7520617265206e6f7420746865206f776e65720000000000000000000000600082015250565b6000610e84601583610e3d565b9150610e8f82610e4e565b602082019050919050565b60006020820190508181036000830152610eb381610e77565b9050919050565b7f446f672c20796f7520617265206e6f7420676f6c64207175657374696e670000600082015250565b6000610ef0601e83610e3d565b9150610efb82610eba565b602082019050919050565b60006020820190508181036000830152610f1f81610ee3565b9050919050565b7f4e487b7100000000000000000000000000000000000000000000000000000000600052601160045260246000fd5b6000610f6082610d25565b9150610f6b83610d25565b9250828203905081811115610f8357610f82610f26565b5b92915050565b6000610f9482610d25565b9150610f9f83610d25565b9250828201905080821115610fb757610fb6610f26565b5b92915050565b7f6974277320746f6f206561726c7920746f2070756c6c206f7574000000000000600082015250565b6000610ff3601a83610e3d565b9150610ffe82610fbd565b602082019050919050565b6000602082019050818103600083015261102281610fe6565b9050919050565b600061103482610d25565b91507fffffffffffffffffffffffffffffffffffffffffffffffffffffffffffffffff820361106657611065610f26565b5b60018201905091905056fea26469706673582212200b2a7f7dbe0ad0beb796a8d86930b47dc052c3772aeac21f19fcc2dc86e414ad64736f6c63430008120033",
  "linkReferences": {},
  "deployedLinkReferences": {}
}