{
  "_format": "hh-sol-artifact-1",
  "contractName": "QuestFacet",
  "sourceName": "contracts/facets/QuestFacet.sol",
  "abi": [
    {
      "anonymous": false,
      "inputs": [
        {
          "indexed": true,
          "internalType": "address",
          "name": "_playerAddress",
          "type": "address"
        },
        {
          "indexed": false,
          "internalType": "uint256",
          "name": "_id",
          "type": "uint256"
        }
      ],
      "name": "BeginQuesting",
      "type": "event"
    },
    {
      "anonymous": false,
      "inputs": [
        {
          "indexed": true,
          "internalType": "uint256",
          "name": "_playerId",
          "type": "uint256"
        }
      ],
      "name": "DragonQuest",
      "type": "event"
    },
    {
      "anonymous": false,
      "inputs": [
        {
          "indexed": true,
          "internalType": "address",
          "name": "_playerAddress",
          "type": "address"
        },
        {
          "indexed": false,
          "internalType": "uint256",
          "name": "_id",
          "type": "uint256"
        }
      ],
      "name": "EndQuesting",
      "type": "event"
    },
    {
      "inputs": [
        {
          "internalType": "uint256",
          "name": "_playerId",
          "type": "uint256"
        }
      ],
      "name": "dragonQuest",
      "outputs": [
        {
          "internalType": "bool",
          "name": "result",
          "type": "bool"
        }
      ],
      "stateMutability": "nonpayable",
      "type": "function"
    },
    {
      "inputs": [
        {
          "internalType": "uint256",
          "name": "_tokenId",
          "type": "uint256"
        }
      ],
      "name": "endQuestGem",
      "outputs": [],
      "stateMutability": "nonpayable",
      "type": "function"
    },
    {
      "inputs": [
        {
          "internalType": "uint256",
          "name": "_tokenId",
          "type": "uint256"
        }
      ],
      "name": "endQuestGold",
      "outputs": [],
      "stateMutability": "nonpayable",
      "type": "function"
    },
    {
      "inputs": [
        {
          "internalType": "uint256",
          "name": "_playerId",
          "type": "uint256"
        }
      ],
      "name": "getCooldown",
      "outputs": [
        {
          "internalType": "uint256",
          "name": "",
          "type": "uint256"
        }
      ],
      "stateMutability": "view",
      "type": "function"
    },
    {
      "inputs": [
        {
          "internalType": "address",
          "name": "_address",
          "type": "address"
        }
      ],
      "name": "getGemBalance",
      "outputs": [
        {
          "internalType": "uint256",
          "name": "",
          "type": "uint256"
        }
      ],
      "stateMutability": "view",
      "type": "function"
    },
    {
      "inputs": [
        {
          "internalType": "uint256",
          "name": "_playerId",
          "type": "uint256"
        }
      ],
      "name": "getGemStart",
      "outputs": [
        {
          "internalType": "uint256",
          "name": "",
          "type": "uint256"
        }
      ],
      "stateMutability": "view",
      "type": "function"
    },
    {
      "inputs": [
        {
          "internalType": "address",
          "name": "_address",
          "type": "address"
        }
      ],
      "name": "getGoldBalance",
      "outputs": [
        {
          "internalType": "uint256",
          "name": "",
          "type": "uint256"
        }
      ],
      "stateMutability": "view",
      "type": "function"
    },
    {
      "inputs": [
        {
          "internalType": "uint256",
          "name": "_playerId",
          "type": "uint256"
        }
      ],
      "name": "getGoldStart",
      "outputs": [
        {
          "internalType": "uint256",
          "name": "",
          "type": "uint256"
        }
      ],
      "stateMutability": "view",
      "type": "function"
    },
    {
      "inputs": [
        {
          "internalType": "uint256",
          "name": "_treasureId",
          "type": "uint256"
        }
      ],
      "name": "getTreasure",
      "outputs": [
        {
          "components": [
            {
              "internalType": "uint256",
              "name": "id",
              "type": "uint256"
            },
            {
              "internalType": "uint256",
              "name": "rank",
              "type": "uint256"
            },
            {
              "internalType": "uint256",
              "name": "pointer",
              "type": "uint256"
            },
            {
              "internalType": "string",
              "name": "name",
              "type": "string"
            }
          ],
          "internalType": "struct Treasure",
          "name": "",
          "type": "tuple"
        }
      ],
      "stateMutability": "view",
      "type": "function"
    },
    {
      "inputs": [
        {
          "internalType": "uint256",
          "name": "_playerId",
          "type": "uint256"
        }
      ],
      "name": "getTreasures",
      "outputs": [
        {
          "internalType": "uint256[]",
          "name": "",
          "type": "uint256[]"
        }
      ],
      "stateMutability": "view",
      "type": "function"
    },
    {
      "inputs": [
        {
          "internalType": "uint256",
          "name": "_tokenId",
          "type": "uint256"
        }
      ],
      "name": "startQuestGem",
      "outputs": [],
      "stateMutability": "nonpayable",
      "type": "function"
    },
    {
      "inputs": [
        {
          "internalType": "uint256",
          "name": "_tokenId",
          "type": "uint256"
        }
      ],
      "name": "startQuestGold",
      "outputs": [],
      "stateMutability": "nonpayable",
      "type": "function"
    }
  ],
  "bytecode": "0x608060405234801561001057600080fd5b50611e69806100206000396000f3fe608060405234801561001057600080fd5b50600436106100b45760003560e01c8063920800801161007157806392080080146101c5578063929c2cc0146101f5578063a174d3c214610225578063cdf0641514610241578063e42ce3cf14610271578063e6be6c661461028d576100b4565b80630207f11f146100b957806329e203ab146100e95780633707caf2146101195780633fc0287f1461014957806368a06747146101655780637775049414610195575b600080fd5b6100d360048036038101906100ce91906113a4565b6102a9565b6040516100e091906113ec565b60405180910390f35b61010360048036038101906100fe91906113a4565b6102ef565b6040516101109190611416565b60405180910390f35b610133600480360381019061012e919061148f565b610301565b6040516101409190611416565b60405180910390f35b610163600480360381019061015e91906113a4565b610313565b005b61017f600480360381019061017a91906113a4565b61036d565b60405161018c9190611416565b60405180910390f35b6101af60048036038101906101aa91906113a4565b61037f565b6040516101bc919061157a565b60405180910390f35b6101df60048036038101906101da91906113a4565b610391565b6040516101ec9190611416565b60405180910390f35b61020f600480360381019061020a919061148f565b6103a3565b60405161021c9190611416565b60405180910390f35b61023f600480360381019061023a91906113a4565b6103b5565b005b61025b600480360381019061025691906113a4565b61040f565b604051610268919061168f565b60405180910390f35b61028b600480360381019061028691906113a4565b610427565b005b6102a760048036038101906102a291906113a4565b610481565b005b60006102b4826104db565b905080156102ea57817f897b5c7abcb9d1af199c95f7485f50c3e0dbed9b05f3068b69fd66613c34c38660405160405180910390a25b919050565b60006102fa8261087f565b9050919050565b600061030c826108aa565b9050919050565b61031c81610901565b3373ffffffffffffffffffffffffffffffffffffffff167fcae7c1c63e65edc05144a6b48d8cb6d31d4f693030fd9aeb70a966faaad0f262826040516103629190611416565b60405180910390a250565b600061037882610b72565b9050919050565b606061038a82610b9d565b9050919050565b600061039c82610c17565b9050919050565b60006103ae82610c42565b9050919050565b6103be81610c99565b3373ffffffffffffffffffffffffffffffffffffffff167f754ac03968a16df89a46742386b9770f63220c3d6eb2838f03971e18a1dba22a826040516104049190611416565b60405180910390a250565b610417611341565b61042082610e08565b9050919050565b61043081610ef4565b3373ffffffffffffffffffffffffffffffffffffffff167fcae7c1c63e65edc05144a6b48d8cb6d31d4f693030fd9aeb70a966faaad0f262826040516104769190611416565b60405180910390a250565b61048a81611116565b3373ffffffffffffffffffffffffffffffffffffffff167f754ac03968a16df89a46742386b9770f63220c3d6eb2838f03971e18a1dba22a826040516104d09190611416565b60405180910390a250565b6000806104e66111fd565b905060006104f261122a565b905060006104fe611257565b9050600061050a611284565b90506000846003016000888152602001908152602001600020600201541461053157600080fd5b3373ffffffffffffffffffffffffffffffffffffffff1684600201600088815260200190815260200160002060009054906101000a900473ffffffffffffffffffffffffffffffffffffffff1673ffffffffffffffffffffffffffffffffffffffff161461059e57600080fd5b61a8c0836006016000888152602001908152602001600020546105c191906116e0565b4210156105cd57600080fd5b6040516020016105dc9061176b565b604051602081830303815290604052805190602001208260020160008660030160008a81526020019081526020016000206012016000015481526020019081526020016000206007016040516020016106359190611878565b604051602081830303815290604052805190602001201461068b576040517f08c379a0000000000000000000000000000000000000000000000000000000008152600401610682906118ec565b60405180910390fd5b4283600601600088815260200190815260200160002081905550601360146106b2886112b1565b6106bc919061193b565b10610871578060000160008154809291906106d69061196c565b9190505550604051806080016040528082600001548152602001600281526020018260030160008981526020019081526020016000208054905081526020016040518060400160405280600681526020017f447363616c65000000000000000000000000000000000000000000000000000081525081525081600201600083600001548152602001908152602001600020600082015181600001556020820151816001015560408201518160020155606082015181600301908161079a9190611b7a565b5090505080600301600087815260200190815260200160002081600001549080600181540180825580915050600190039060005260206000200160009091909190915055338160010160008360000154815260200190815260200160002060006101000a81548173ffffffffffffffffffffffffffffffffffffffff021916908373ffffffffffffffffffffffffffffffffffffffff160217905550836003016000878152602001908152602001600020600101600081548092919061085f9061196c565b9190505550600194505050505061087a565b60009450505050505b919050565b60008061088a61122a565b905080600501600084815260200190815260200160002054915050919050565b6000806108b5611314565b90508060000160008473ffffffffffffffffffffffffffffffffffffffff1673ffffffffffffffffffffffffffffffffffffffff16815260200190815260200160002054915050919050565b600061090b6111fd565b90506000610917611314565b9050600061092361122a565b90503373ffffffffffffffffffffffffffffffffffffffff1683600201600086815260200190815260200160002060009054906101000a900473ffffffffffffffffffffffffffffffffffffffff1673ffffffffffffffffffffffffffffffffffffffff16146109c8576040517f08c379a00000000000000000000000000000000000000000000000000000000081526004016109bf90611c98565b60405180910390fd5b60028360030160008681526020019081526020016000206002015414610a23576040517f08c379a0000000000000000000000000000000000000000000000000000000008152600401610a1a90611d04565b60405180910390fd5b6000603c846003016000878152602001908152602001600020600901541015610a7357836003016000868152602001908152602001600020600901546082610a6b9190611d24565b905080610a79565b603c9050805b508082600101600087815260200190815260200160002054610a9b91906116e0565b421015610add576040517f08c379a0000000000000000000000000000000000000000000000000000000008152600401610ad490611da4565b60405180910390fd5b600084600301600087815260200190815260200160002060020181905550816001016000868152602001908152602001600020600090558260000160003373ffffffffffffffffffffffffffffffffffffffff1673ffffffffffffffffffffffffffffffffffffffff1681526020019081526020016000206000815480929190610b669061196c565b91905055505050505050565b600080610b7d61122a565b905080600201600084815260200190815260200160002054915050919050565b60606000610ba9611284565b9050806003016000848152602001908152602001600020805480602002602001604051908101604052809291908181526020018280548015610c0a57602002820191906000526020600020905b815481526020019060010190808311610bf6575b5050505050915050919050565b600080610c2261122a565b905080600101600084815260200190815260200160002054915050919050565b600080610c4d611314565b90508060010160008473ffffffffffffffffffffffffffffffffffffffff1673ffffffffffffffffffffffffffffffffffffffff16815260200190815260200160002054915050919050565b6000610ca36111fd565b90506000610caf61122a565b905060008260030160008581526020019081526020016000206002015414610cd657600080fd5b3373ffffffffffffffffffffffffffffffffffffffff1682600201600085815260200190815260200160002060009054906101000a900473ffffffffffffffffffffffffffffffffffffffff1673ffffffffffffffffffffffffffffffffffffffff1614610d4357600080fd5b600061012c836003016000868152602001908152602001600020600901541015610d955782600301600085815260200190815260200160002060090154610262610d8d9190611d24565b905080610d9c565b61012c9050805b508082600501600086815260200190815260200160002054610dbe91906116e0565b421015610dca57600080fd5b600583600301600086815260200190815260200160002060020181905550428260020160008681526020019081526020016000208190555050505050565b610e10611341565b6000610e1a611284565b9050806002016000848152602001908152602001600020604051806080016040529081600082015481526020016001820154815260200160028201548152602001600382018054610e6a906117af565b80601f0160208091040260200160405190810160405280929190818152602001828054610e96906117af565b8015610ee35780601f10610eb857610100808354040283529160200191610ee3565b820191906000526020600020905b815481529060010190602001808311610ec657829003601f168201915b505050505081525050915050919050565b6000610efe6111fd565b90506000610f0a611314565b90506000610f1661122a565b90503373ffffffffffffffffffffffffffffffffffffffff1683600201600086815260200190815260200160002060009054906101000a900473ffffffffffffffffffffffffffffffffffffffff1673ffffffffffffffffffffffffffffffffffffffff1614610f8557600080fd5b60058360030160008681526020019081526020016000206002015414610faa57600080fd5b600061012c846003016000878152602001908152602001600020600901541015610ffc5783600301600086815260200190815260200160002060090154610262610ff49190611d24565b905080611003565b61012c9050805b50808260020160008781526020019081526020016000205461102591906116e0565b421015611067576040517f08c379a000000000000000000000000000000000000000000000000000000000815260040161105e90611da4565b60405180910390fd5b600084600301600087815260200190815260200160002060020181905550816002016000868152602001908152602001600020600090558260010160003373ffffffffffffffffffffffffffffffffffffffff1673ffffffffffffffffffffffffffffffffffffffff16815260200190815260200160002060008154809291906110f09061196c565b919050555042826005016000878152602001908152602001600020819055505050505050565b60006111206111fd565b9050600061112c61122a565b90506000826003016000858152602001908152602001600020600201541461115357600080fd5b3373ffffffffffffffffffffffffffffffffffffffff1682600201600085815260200190815260200160002060009054906101000a900473ffffffffffffffffffffffffffffffffffffffff1673ffffffffffffffffffffffffffffffffffffffff16146111c057600080fd5b6002826003016000858152602001908152602001600020600201819055504281600101600085815260200190815260200160002081905550505050565b6000807f3cab9a070a0c61cd0ae9d9e9e2c0781e5ca8691bec4087e5a4701d5ac018dd4e90508091505090565b6000807ff76a8e66124dac83b46aecd7c4256d5158e69f6adf88592fd8146c79e007626e90508091505090565b6000807faad0511195ddfb575f5187a7172ca6fc330f129a86291f15eaa5f7537ab038dc90508091505090565b6000807fb5dbbc334907f600e1151190a68c4043043163a23a907389a2c6f6231ed4318b90508091505090565b6000806112bc61122a565b90508060000160008154809291906112d39061196c565b919050555042448483600001546040516020016112f39493929190611de5565b6040516020818303038152906040528051906020012060001c915050919050565b6000807f2c89d74504b6ad8d4fbde22bc3474166bac5452a11195897f239d8bebe02d70790508091505090565b6040518060800160405280600081526020016000815260200160008152602001606081525090565b600080fd5b6000819050919050565b6113818161136e565b811461138c57600080fd5b50565b60008135905061139e81611378565b92915050565b6000602082840312156113ba576113b9611369565b5b60006113c88482850161138f565b91505092915050565b60008115159050919050565b6113e6816113d1565b82525050565b600060208201905061140160008301846113dd565b92915050565b6114108161136e565b82525050565b600060208201905061142b6000830184611407565b92915050565b600073ffffffffffffffffffffffffffffffffffffffff82169050919050565b600061145c82611431565b9050919050565b61146c81611451565b811461147757600080fd5b50565b60008135905061148981611463565b92915050565b6000602082840312156114a5576114a4611369565b5b60006114b38482850161147a565b91505092915050565b600081519050919050565b600082825260208201905092915050565b6000819050602082019050919050565b6114f18161136e565b82525050565b600061150383836114e8565b60208301905092915050565b6000602082019050919050565b6000611527826114bc565b61153181856114c7565b935061153c836114d8565b8060005b8381101561156d57815161155488826114f7565b975061155f8361150f565b925050600181019050611540565b5085935050505092915050565b60006020820190508181036000830152611594818461151c565b905092915050565b600081519050919050565b600082825260208201905092915050565b60005b838110156115d65780820151818401526020810190506115bb565b60008484015250505050565b6000601f19601f8301169050919050565b60006115fe8261159c565b61160881856115a7565b93506116188185602086016115b8565b611621816115e2565b840191505092915050565b600060808301600083015161164460008601826114e8565b50602083015161165760208601826114e8565b50604083015161166a60408601826114e8565b506060830151848203606086015261168282826115f3565b9150508091505092915050565b600060208201905081810360008301526116a9818461162c565b905092915050565b7f4e487b7100000000000000000000000000000000000000000000000000000000600052601160045260246000fd5b60006116eb8261136e565b91506116f68361136e565b925082820190508082111561170e5761170d6116b1565b5b92915050565b600081905092915050565b7f57697a4861740000000000000000000000000000000000000000000000000000600082015250565b6000611755600683611714565b91506117608261171f565b600682019050919050565b600061177682611748565b9150819050919050565b7f4e487b7100000000000000000000000000000000000000000000000000000000600052602260045260246000fd5b600060028204905060018216806117c757607f821691505b6020821081036117da576117d9611780565b5b50919050565b60008190508160005260206000209050919050565b60008154611802816117af565b61180c8186611714565b94506001821660008114611827576001811461183c5761186f565b60ff198316865281151582028601935061186f565b611845856117e0565b60005b8381101561186757815481890152600182019150602081019050611848565b838801955050505b50505092915050565b600061188482846117f5565b915081905092915050565b600082825260208201905092915050565b7f6e6f742077656172696e67206861740000000000000000000000000000000000600082015250565b60006118d6600f8361188f565b91506118e1826118a0565b602082019050919050565b60006020820190508181036000830152611905816118c9565b9050919050565b7f4e487b7100000000000000000000000000000000000000000000000000000000600052601260045260246000fd5b60006119468261136e565b91506119518361136e565b9250826119615761196061190c565b5b828206905092915050565b60006119778261136e565b91507fffffffffffffffffffffffffffffffffffffffffffffffffffffffffffffffff82036119a9576119a86116b1565b5b600182019050919050565b7f4e487b7100000000000000000000000000000000000000000000000000000000600052604160045260246000fd5b60006020601f8301049050919050565b600082821b905092915050565b600060088302611a307fffffffffffffffffffffffffffffffffffffffffffffffffffffffffffffffff826119f3565b611a3a86836119f3565b95508019841693508086168417925050509392505050565b6000819050919050565b6000611a77611a72611a6d8461136e565b611a52565b61136e565b9050919050565b6000819050919050565b611a9183611a5c565b611aa5611a9d82611a7e565b848454611a00565b825550505050565b600090565b611aba611aad565b611ac5818484611a88565b505050565b5b81811015611ae957611ade600082611ab2565b600181019050611acb565b5050565b601f821115611b2e57611aff816117e0565b611b08846119e3565b81016020851015611b17578190505b611b2b611b23856119e3565b830182611aca565b50505b505050565b600082821c905092915050565b6000611b5160001984600802611b33565b1980831691505092915050565b6000611b6a8383611b40565b9150826002028217905092915050565b611b838261159c565b67ffffffffffffffff811115611b9c57611b9b6119b4565b5b611ba682546117af565b611bb1828285611aed565b600060209050601f831160018114611be45760008415611bd2578287015190505b611bdc8582611b5e565b865550611c44565b601f198416611bf2866117e0565b60005b82811015611c1a57848901518255600182019150602085019450602081019050611bf5565b86831015611c375784890151611c33601f891682611b40565b8355505b6001600288020188555050505b505050505050565b7f796f7520617265206e6f7420746865206f776e65720000000000000000000000600082015250565b6000611c8260158361188f565b9150611c8d82611c4c565b602082019050919050565b60006020820190508181036000830152611cb181611c75565b9050919050565b7f446f672c20796f7520617265206e6f7420676f6c64207175657374696e670000600082015250565b6000611cee601e8361188f565b9150611cf982611cb8565b602082019050919050565b60006020820190508181036000830152611d1d81611ce1565b9050919050565b6000611d2f8261136e565b9150611d3a8361136e565b9250828203905081811115611d5257611d516116b1565b5b92915050565b7f6974277320746f6f206561726c7920746f2070756c6c206f7574000000000000600082015250565b6000611d8e601a8361188f565b9150611d9982611d58565b602082019050919050565b60006020820190508181036000830152611dbd81611d81565b9050919050565b6000819050919050565b611ddf611dda8261136e565b611dc4565b82525050565b6000611df18287611dce565b602082019150611e018286611dce565b602082019150611e118285611dce565b602082019150611e218284611dce565b6020820191508190509594505050505056fea264697066735822122025966f8214a682b2d26732230945408847bdb699a761614a77304c6d0a3b894364736f6c63430008110033",
  "linkReferences": {},
  "deployedLinkReferences": {}
}