{
  "_format": "hh-sol-artifact-1",
  "contractName": "QuestFacet",
  "sourceName": "contracts/facets/QuestFacet.sol",
  "abi": [
    {
      "anonymous": false,
      "inputs": [
        {
          "indexed": true,
          "internalType": "address",
          "name": "_playerAddress",
          "type": "address"
        },
        {
          "indexed": false,
          "internalType": "uint256",
          "name": "_id",
          "type": "uint256"
        }
      ],
      "name": "BeginQuesting",
      "type": "event"
    },
    {
      "anonymous": false,
      "inputs": [
        {
          "indexed": true,
          "internalType": "address",
          "name": "_playerAddress",
          "type": "address"
        },
        {
          "indexed": false,
          "internalType": "uint256",
          "name": "_id",
          "type": "uint256"
        }
      ],
      "name": "EndQuesting",
      "type": "event"
    },
    {
      "inputs": [
        {
          "internalType": "uint256",
          "name": "_tokenId",
          "type": "uint256"
        }
      ],
      "name": "endQuestGem",
      "outputs": [],
      "stateMutability": "nonpayable",
      "type": "function"
    },
    {
      "inputs": [
        {
          "internalType": "uint256",
          "name": "_tokenId",
          "type": "uint256"
        }
      ],
      "name": "endQuestGold",
      "outputs": [],
      "stateMutability": "nonpayable",
      "type": "function"
    },
    {
      "inputs": [
        {
          "internalType": "uint256",
          "name": "_playerId",
          "type": "uint256"
        }
      ],
      "name": "getCooldown",
      "outputs": [
        {
          "internalType": "uint256",
          "name": "",
          "type": "uint256"
        }
      ],
      "stateMutability": "view",
      "type": "function"
    },
    {
      "inputs": [
        {
          "internalType": "address",
          "name": "_address",
          "type": "address"
        }
      ],
      "name": "getGemBalance",
      "outputs": [
        {
          "internalType": "uint256",
          "name": "",
          "type": "uint256"
        }
      ],
      "stateMutability": "view",
      "type": "function"
    },
    {
      "inputs": [
        {
          "internalType": "uint256",
          "name": "_playerId",
          "type": "uint256"
        }
      ],
      "name": "getGemStart",
      "outputs": [
        {
          "internalType": "uint256",
          "name": "",
          "type": "uint256"
        }
      ],
      "stateMutability": "view",
      "type": "function"
    },
    {
      "inputs": [],
      "name": "getGold",
      "outputs": [],
      "stateMutability": "nonpayable",
      "type": "function"
    },
    {
      "inputs": [
        {
          "internalType": "address",
          "name": "_address",
          "type": "address"
        }
      ],
      "name": "getGoldBalance",
      "outputs": [
        {
          "internalType": "uint256",
          "name": "",
          "type": "uint256"
        }
      ],
      "stateMutability": "view",
      "type": "function"
    },
    {
      "inputs": [
        {
          "internalType": "uint256",
          "name": "_playerId",
          "type": "uint256"
        }
      ],
      "name": "getGoldStart",
      "outputs": [
        {
          "internalType": "uint256",
          "name": "",
          "type": "uint256"
        }
      ],
      "stateMutability": "view",
      "type": "function"
    },
    {
      "inputs": [
        {
          "internalType": "uint256",
          "name": "_tokenId",
          "type": "uint256"
        }
      ],
      "name": "startQuestGem",
      "outputs": [],
      "stateMutability": "nonpayable",
      "type": "function"
    },
    {
      "inputs": [
        {
          "internalType": "uint256",
          "name": "_tokenId",
          "type": "uint256"
        }
      ],
      "name": "startQuestGold",
      "outputs": [],
      "stateMutability": "nonpayable",
      "type": "function"
    }
  ],
  "bytecode": "0x608060405234801561001057600080fd5b50611067806100206000396000f3fe608060405234801561001057600080fd5b506004361061009e5760003560e01c806392080080116100665780639208008014610159578063929c2cc014610189578063a174d3c2146101b9578063e42ce3cf146101d5578063e6be6c66146101f15761009e565b806329e203ab146100a35780633707caf2146100d35780633fc0287f1461010357806342f065321461011f57806368a0674714610129575b600080fd5b6100bd60048036038101906100b89190610d1b565b61020d565b6040516100ca9190610d57565b60405180910390f35b6100ed60048036038101906100e89190610dd0565b61021f565b6040516100fa9190610d57565b60405180910390f35b61011d60048036038101906101189190610d1b565b610231565b005b61012761028b565b005b610143600480360381019061013e9190610d1b565b610295565b6040516101509190610d57565b60405180910390f35b610173600480360381019061016e9190610d1b565b6102a7565b6040516101809190610d57565b60405180910390f35b6101a3600480360381019061019e9190610dd0565b6102b9565b6040516101b09190610d57565b60405180910390f35b6101d360048036038101906101ce9190610d1b565b6102cb565b005b6101ef60048036038101906101ea9190610d1b565b610325565b005b61020b60048036038101906102069190610d1b565b61037f565b005b6000610218826103d9565b9050919050565b600061022a82610404565b9050919050565b61023a8161045b565b3373ffffffffffffffffffffffffffffffffffffffff167fcae7c1c63e65edc05144a6b48d8cb6d31d4f693030fd9aeb70a966faaad0f262826040516102809190610d57565b60405180910390a250565b6102936106cc565b565b60006102a082610734565b9050919050565b60006102b28261075f565b9050919050565b60006102c48261078a565b9050919050565b6102d4816107e1565b3373ffffffffffffffffffffffffffffffffffffffff167f754ac03968a16df89a46742386b9770f63220c3d6eb2838f03971e18a1dba22a8260405161031a9190610d57565b60405180910390a250565b61032e81610950565b3373ffffffffffffffffffffffffffffffffffffffff167fcae7c1c63e65edc05144a6b48d8cb6d31d4f693030fd9aeb70a966faaad0f262826040516103749190610d57565b60405180910390a250565b61038881610b72565b3373ffffffffffffffffffffffffffffffffffffffff167f754ac03968a16df89a46742386b9770f63220c3d6eb2838f03971e18a1dba22a826040516103ce9190610d57565b60405180910390a250565b6000806103e4610c59565b905080600501600084815260200190815260200160002054915050919050565b60008061040f610c86565b90508060000160008473ffffffffffffffffffffffffffffffffffffffff1673ffffffffffffffffffffffffffffffffffffffff16815260200190815260200160002054915050919050565b6000610465610cb3565b90506000610471610c86565b9050600061047d610c59565b90503373ffffffffffffffffffffffffffffffffffffffff1683600201600086815260200190815260200160002060009054906101000a900473ffffffffffffffffffffffffffffffffffffffff1673ffffffffffffffffffffffffffffffffffffffff1614610522576040517f08c379a000000000000000000000000000000000000000000000000000000000815260040161051990610e5a565b60405180910390fd5b6002836003016000868152602001908152602001600020600201541461057d576040517f08c379a000000000000000000000000000000000000000000000000000000000815260040161057490610ec6565b60405180910390fd5b6000603c8460030160008781526020019081526020016000206009015410156105cd578360030160008681526020019081526020016000206009015460826105c59190610f15565b9050806105d3565b603c9050805b5080826001016000878152602001908152602001600020546105f59190610f49565b421015610637576040517f08c379a000000000000000000000000000000000000000000000000000000000815260040161062e90610fc9565b60405180910390fd5b600084600301600087815260200190815260200160002060020181905550816001016000868152602001908152602001600020600090558260000160003373ffffffffffffffffffffffffffffffffffffffff1673ffffffffffffffffffffffffffffffffffffffff16815260200190815260200160002060008154809291906106c090610fe9565b91905055505050505050565b60006106d6610c86565b905060648160000160003373ffffffffffffffffffffffffffffffffffffffff1673ffffffffffffffffffffffffffffffffffffffff168152602001908152602001600020600082825461072a9190610f49565b9250508190555050565b60008061073f610c59565b905080600201600084815260200190815260200160002054915050919050565b60008061076a610c59565b905080600101600084815260200190815260200160002054915050919050565b600080610795610c86565b90508060010160008473ffffffffffffffffffffffffffffffffffffffff1673ffffffffffffffffffffffffffffffffffffffff16815260200190815260200160002054915050919050565b60006107eb610cb3565b905060006107f7610c59565b90506000826003016000858152602001908152602001600020600201541461081e57600080fd5b3373ffffffffffffffffffffffffffffffffffffffff1682600201600085815260200190815260200160002060009054906101000a900473ffffffffffffffffffffffffffffffffffffffff1673ffffffffffffffffffffffffffffffffffffffff161461088b57600080fd5b600061012c8360030160008681526020019081526020016000206009015410156108dd57826003016000858152602001908152602001600020600901546102626108d59190610f15565b9050806108e4565b61012c9050805b5080826005016000868152602001908152602001600020546109069190610f49565b42101561091257600080fd5b600583600301600086815260200190815260200160002060020181905550428260020160008681526020019081526020016000208190555050505050565b600061095a610cb3565b90506000610966610c86565b90506000610972610c59565b90503373ffffffffffffffffffffffffffffffffffffffff1683600201600086815260200190815260200160002060009054906101000a900473ffffffffffffffffffffffffffffffffffffffff1673ffffffffffffffffffffffffffffffffffffffff16146109e157600080fd5b60058360030160008681526020019081526020016000206002015414610a0657600080fd5b600061012c846003016000878152602001908152602001600020600901541015610a585783600301600086815260200190815260200160002060090154610262610a509190610f15565b905080610a5f565b61012c9050805b508082600201600087815260200190815260200160002054610a819190610f49565b421015610ac3576040517f08c379a0000000000000000000000000000000000000000000000000000000008152600401610aba90610fc9565b60405180910390fd5b600084600301600087815260200190815260200160002060020181905550816002016000868152602001908152602001600020600090558260010160003373ffffffffffffffffffffffffffffffffffffffff1673ffffffffffffffffffffffffffffffffffffffff1681526020019081526020016000206000815480929190610b4c90610fe9565b919050555042826005016000878152602001908152602001600020819055505050505050565b6000610b7c610cb3565b90506000610b88610c59565b905060008260030160008581526020019081526020016000206002015414610baf57600080fd5b3373ffffffffffffffffffffffffffffffffffffffff1682600201600085815260200190815260200160002060009054906101000a900473ffffffffffffffffffffffffffffffffffffffff1673ffffffffffffffffffffffffffffffffffffffff1614610c1c57600080fd5b6002826003016000858152602001908152602001600020600201819055504281600101600085815260200190815260200160002081905550505050565b6000807ff76a8e66124dac83b46aecd7c4256d5158e69f6adf88592fd8146c79e007626e90508091505090565b6000807f2c89d74504b6ad8d4fbde22bc3474166bac5452a11195897f239d8bebe02d70790508091505090565b6000807f3cab9a070a0c61cd0ae9d9e9e2c0781e5ca8691bec4087e5a4701d5ac018dd4e90508091505090565b600080fd5b6000819050919050565b610cf881610ce5565b8114610d0357600080fd5b50565b600081359050610d1581610cef565b92915050565b600060208284031215610d3157610d30610ce0565b5b6000610d3f84828501610d06565b91505092915050565b610d5181610ce5565b82525050565b6000602082019050610d6c6000830184610d48565b92915050565b600073ffffffffffffffffffffffffffffffffffffffff82169050919050565b6000610d9d82610d72565b9050919050565b610dad81610d92565b8114610db857600080fd5b50565b600081359050610dca81610da4565b92915050565b600060208284031215610de657610de5610ce0565b5b6000610df484828501610dbb565b91505092915050565b600082825260208201905092915050565b7f796f7520617265206e6f7420746865206f776e65720000000000000000000000600082015250565b6000610e44601583610dfd565b9150610e4f82610e0e565b602082019050919050565b60006020820190508181036000830152610e7381610e37565b9050919050565b7f446f672c20796f7520617265206e6f7420676f6c64207175657374696e670000600082015250565b6000610eb0601e83610dfd565b9150610ebb82610e7a565b602082019050919050565b60006020820190508181036000830152610edf81610ea3565b9050919050565b7f4e487b7100000000000000000000000000000000000000000000000000000000600052601160045260246000fd5b6000610f2082610ce5565b9150610f2b83610ce5565b9250828203905081811115610f4357610f42610ee6565b5b92915050565b6000610f5482610ce5565b9150610f5f83610ce5565b9250828201905080821115610f7757610f76610ee6565b5b92915050565b7f6974277320746f6f206561726c7920746f2070756c6c206f7574000000000000600082015250565b6000610fb3601a83610dfd565b9150610fbe82610f7d565b602082019050919050565b60006020820190508181036000830152610fe281610fa6565b9050919050565b6000610ff482610ce5565b91507fffffffffffffffffffffffffffffffffffffffffffffffffffffffffffffffff820361102657611025610ee6565b5b60018201905091905056fea2646970667358221220fee62db116461e6eb05237da7e0d4e9a42be594b9829b51ef6d40ac4c2dff90d64736f6c63430008120033",
  "linkReferences": {},
  "deployedLinkReferences": {}
}