{
  "_format": "hh-sol-artifact-1",
  "contractName": "QuestFacet",
  "sourceName": "contracts/facets/QuestFacet.sol",
  "abi": [
    {
      "anonymous": false,
      "inputs": [
        {
          "indexed": true,
          "internalType": "address",
          "name": "_playerAddress",
          "type": "address"
        },
        {
          "indexed": false,
          "internalType": "uint256",
          "name": "_id",
          "type": "uint256"
        }
      ],
      "name": "BeginQuesting",
      "type": "event"
    },
    {
      "anonymous": false,
      "inputs": [
        {
          "indexed": true,
          "internalType": "address",
          "name": "_playerAddress",
          "type": "address"
        },
        {
          "indexed": false,
          "internalType": "uint256",
          "name": "_id",
          "type": "uint256"
        }
      ],
      "name": "EndQuesting",
      "type": "event"
    },
    {
      "inputs": [
        {
          "internalType": "uint256",
          "name": "_tokenId",
          "type": "uint256"
        }
      ],
      "name": "endQuestGem",
      "outputs": [],
      "stateMutability": "nonpayable",
      "type": "function"
    },
    {
      "inputs": [
        {
          "internalType": "uint256",
          "name": "_tokenId",
          "type": "uint256"
        }
      ],
      "name": "endQuestGold",
      "outputs": [],
      "stateMutability": "nonpayable",
      "type": "function"
    },
    {
      "inputs": [
        {
          "internalType": "uint256",
          "name": "_playerId",
          "type": "uint256"
        }
      ],
      "name": "getCooldown",
      "outputs": [
        {
          "internalType": "uint256",
          "name": "",
          "type": "uint256"
        }
      ],
      "stateMutability": "view",
      "type": "function"
    },
    {
      "inputs": [
        {
          "internalType": "address",
          "name": "_address",
          "type": "address"
        }
      ],
      "name": "getGemBalance",
      "outputs": [
        {
          "internalType": "uint256",
          "name": "",
          "type": "uint256"
        }
      ],
      "stateMutability": "view",
      "type": "function"
    },
    {
      "inputs": [
        {
          "internalType": "uint256",
          "name": "_playerId",
          "type": "uint256"
        }
      ],
      "name": "getGemStart",
      "outputs": [
        {
          "internalType": "uint256",
          "name": "",
          "type": "uint256"
        }
      ],
      "stateMutability": "view",
      "type": "function"
    },
    {
      "inputs": [],
      "name": "getGold",
      "outputs": [],
      "stateMutability": "nonpayable",
      "type": "function"
    },
    {
      "inputs": [
        {
          "internalType": "address",
          "name": "_address",
          "type": "address"
        }
      ],
      "name": "getGoldBalance",
      "outputs": [
        {
          "internalType": "uint256",
          "name": "",
          "type": "uint256"
        }
      ],
      "stateMutability": "view",
      "type": "function"
    },
    {
      "inputs": [
        {
          "internalType": "uint256",
          "name": "_playerId",
          "type": "uint256"
        }
      ],
      "name": "getGoldStart",
      "outputs": [
        {
          "internalType": "uint256",
          "name": "",
          "type": "uint256"
        }
      ],
      "stateMutability": "view",
      "type": "function"
    },
    {
      "inputs": [
        {
          "internalType": "uint256",
          "name": "_treasureId",
          "type": "uint256"
        }
      ],
      "name": "getTreasure",
      "outputs": [
        {
          "components": [
            {
              "internalType": "uint256",
              "name": "id",
              "type": "uint256"
            },
            {
              "internalType": "uint256",
              "name": "rank",
              "type": "uint256"
            },
            {
              "internalType": "uint256",
              "name": "pointer",
              "type": "uint256"
            },
            {
              "internalType": "string",
              "name": "name",
              "type": "string"
            },
            {
              "internalType": "string",
              "name": "uri",
              "type": "string"
            }
          ],
          "internalType": "struct Treasure",
          "name": "",
          "type": "tuple"
        }
      ],
      "stateMutability": "view",
      "type": "function"
    },
    {
      "inputs": [
        {
          "internalType": "uint256",
          "name": "_playerId",
          "type": "uint256"
        }
      ],
      "name": "getTreasures",
      "outputs": [
        {
          "internalType": "uint256[]",
          "name": "",
          "type": "uint256[]"
        }
      ],
      "stateMutability": "view",
      "type": "function"
    },
    {
      "inputs": [
        {
          "internalType": "uint256",
          "name": "_tokenId",
          "type": "uint256"
        }
      ],
      "name": "startQuestGem",
      "outputs": [],
      "stateMutability": "nonpayable",
      "type": "function"
    },
    {
      "inputs": [
        {
          "internalType": "uint256",
          "name": "_tokenId",
          "type": "uint256"
        }
      ],
      "name": "startQuestGold",
      "outputs": [],
      "stateMutability": "nonpayable",
      "type": "function"
    }
  ],
  "bytecode": "0x608060405234801561001057600080fd5b506115ca806100206000396000f3fe608060405234801561001057600080fd5b50600436106100b45760003560e01c80639208008011610071578063920800801461019f578063929c2cc0146101cf578063a174d3c2146101ff578063cdf064151461021b578063e42ce3cf1461024b578063e6be6c6614610267576100b4565b806329e203ab146100b95780633707caf2146100e95780633fc0287f1461011957806342f065321461013557806368a067471461013f578063777504941461016f575b600080fd5b6100d360048036038101906100ce919061100f565b610283565b6040516100e0919061104b565b60405180910390f35b61010360048036038101906100fe91906110c4565b610295565b604051610110919061104b565b60405180910390f35b610133600480360381019061012e919061100f565b6102a7565b005b61013d610301565b005b6101596004803603810190610154919061100f565b61030b565b604051610166919061104b565b60405180910390f35b6101896004803603810190610184919061100f565b61031d565b60405161019691906111af565b60405180910390f35b6101b960048036038101906101b4919061100f565b61032f565b6040516101c6919061104b565b60405180910390f35b6101e960048036038101906101e491906110c4565b610341565b6040516101f6919061104b565b60405180910390f35b6102196004803603810190610214919061100f565b610353565b005b6102356004803603810190610230919061100f565b6103ad565b60405161024291906112de565b60405180910390f35b6102656004803603810190610260919061100f565b6103c5565b005b610281600480360381019061027c919061100f565b61041f565b005b600061028e82610479565b9050919050565b60006102a0826104a4565b9050919050565b6102b0816104fb565b3373ffffffffffffffffffffffffffffffffffffffff167fcae7c1c63e65edc05144a6b48d8cb6d31d4f693030fd9aeb70a966faaad0f262826040516102f6919061104b565b60405180910390a250565b61030961076c565b565b6000610316826107d4565b9050919050565b6060610328826107ff565b9050919050565b600061033a82610879565b9050919050565b600061034c826108a4565b9050919050565b61035c816108fb565b3373ffffffffffffffffffffffffffffffffffffffff167f754ac03968a16df89a46742386b9770f63220c3d6eb2838f03971e18a1dba22a826040516103a2919061104b565b60405180910390a250565b6103b5610fa5565b6103be82610a6a565b9050919050565b6103ce81610be8565b3373ffffffffffffffffffffffffffffffffffffffff167fcae7c1c63e65edc05144a6b48d8cb6d31d4f693030fd9aeb70a966faaad0f26282604051610414919061104b565b60405180910390a250565b61042881610e0a565b3373ffffffffffffffffffffffffffffffffffffffff167f754ac03968a16df89a46742386b9770f63220c3d6eb2838f03971e18a1dba22a8260405161046e919061104b565b60405180910390a250565b600080610484610ef1565b905080600501600084815260200190815260200160002054915050919050565b6000806104af610f1e565b90508060000160008473ffffffffffffffffffffffffffffffffffffffff1673ffffffffffffffffffffffffffffffffffffffff16815260200190815260200160002054915050919050565b6000610505610f4b565b90506000610511610f1e565b9050600061051d610ef1565b90503373ffffffffffffffffffffffffffffffffffffffff1683600201600086815260200190815260200160002060009054906101000a900473ffffffffffffffffffffffffffffffffffffffff1673ffffffffffffffffffffffffffffffffffffffff16146105c2576040517f08c379a00000000000000000000000000000000000000000000000000000000081526004016105b99061135d565b60405180910390fd5b6002836003016000868152602001908152602001600020600201541461061d576040517f08c379a0000000000000000000000000000000000000000000000000000000008152600401610614906113c9565b60405180910390fd5b6000603c84600301600087815260200190815260200160002060090154101561066d578360030160008681526020019081526020016000206009015460826106659190611418565b905080610673565b603c9050805b508082600101600087815260200190815260200160002054610695919061144c565b4210156106d7576040517f08c379a00000000000000000000000000000000000000000000000000000000081526004016106ce906114cc565b60405180910390fd5b600084600301600087815260200190815260200160002060020181905550816001016000868152602001908152602001600020600090558260000160003373ffffffffffffffffffffffffffffffffffffffff1673ffffffffffffffffffffffffffffffffffffffff1681526020019081526020016000206000815480929190610760906114ec565b91905055505050505050565b6000610776610f1e565b905060648160000160003373ffffffffffffffffffffffffffffffffffffffff1673ffffffffffffffffffffffffffffffffffffffff16815260200190815260200160002060008282546107ca919061144c565b9250508190555050565b6000806107df610ef1565b905080600201600084815260200190815260200160002054915050919050565b6060600061080b610f78565b905080600301600084815260200190815260200160002080548060200260200160405190810160405280929190818152602001828054801561086c57602002820191906000526020600020905b815481526020019060010190808311610858575b5050505050915050919050565b600080610884610ef1565b905080600101600084815260200190815260200160002054915050919050565b6000806108af610f1e565b90508060010160008473ffffffffffffffffffffffffffffffffffffffff1673ffffffffffffffffffffffffffffffffffffffff16815260200190815260200160002054915050919050565b6000610905610f4b565b90506000610911610ef1565b90506000826003016000858152602001908152602001600020600201541461093857600080fd5b3373ffffffffffffffffffffffffffffffffffffffff1682600201600085815260200190815260200160002060009054906101000a900473ffffffffffffffffffffffffffffffffffffffff1673ffffffffffffffffffffffffffffffffffffffff16146109a557600080fd5b600061012c8360030160008681526020019081526020016000206009015410156109f757826003016000858152602001908152602001600020600901546102626109ef9190611418565b9050806109fe565b61012c9050805b508082600501600086815260200190815260200160002054610a20919061144c565b421015610a2c57600080fd5b600583600301600086815260200190815260200160002060020181905550428260020160008681526020019081526020016000208190555050505050565b610a72610fa5565b6000610a7c610f78565b90508060020160008481526020019081526020016000206040518060a0016040529081600082015481526020016001820154815260200160028201548152602001600382018054610acc90611563565b80601f0160208091040260200160405190810160405280929190818152602001828054610af890611563565b8015610b455780601f10610b1a57610100808354040283529160200191610b45565b820191906000526020600020905b815481529060010190602001808311610b2857829003601f168201915b50505050508152602001600482018054610b5e90611563565b80601f0160208091040260200160405190810160405280929190818152602001828054610b8a90611563565b8015610bd75780601f10610bac57610100808354040283529160200191610bd7565b820191906000526020600020905b815481529060010190602001808311610bba57829003601f168201915b505050505081525050915050919050565b6000610bf2610f4b565b90506000610bfe610f1e565b90506000610c0a610ef1565b90503373ffffffffffffffffffffffffffffffffffffffff1683600201600086815260200190815260200160002060009054906101000a900473ffffffffffffffffffffffffffffffffffffffff1673ffffffffffffffffffffffffffffffffffffffff1614610c7957600080fd5b60058360030160008681526020019081526020016000206002015414610c9e57600080fd5b600061012c846003016000878152602001908152602001600020600901541015610cf05783600301600086815260200190815260200160002060090154610262610ce89190611418565b905080610cf7565b61012c9050805b508082600201600087815260200190815260200160002054610d19919061144c565b421015610d5b576040517f08c379a0000000000000000000000000000000000000000000000000000000008152600401610d52906114cc565b60405180910390fd5b600084600301600087815260200190815260200160002060020181905550816002016000868152602001908152602001600020600090558260010160003373ffffffffffffffffffffffffffffffffffffffff1673ffffffffffffffffffffffffffffffffffffffff1681526020019081526020016000206000815480929190610de4906114ec565b919050555042826005016000878152602001908152602001600020819055505050505050565b6000610e14610f4b565b90506000610e20610ef1565b905060008260030160008581526020019081526020016000206002015414610e4757600080fd5b3373ffffffffffffffffffffffffffffffffffffffff1682600201600085815260200190815260200160002060009054906101000a900473ffffffffffffffffffffffffffffffffffffffff1673ffffffffffffffffffffffffffffffffffffffff1614610eb457600080fd5b6002826003016000858152602001908152602001600020600201819055504281600101600085815260200190815260200160002081905550505050565b6000807ff76a8e66124dac83b46aecd7c4256d5158e69f6adf88592fd8146c79e007626e90508091505090565b6000807f2c89d74504b6ad8d4fbde22bc3474166bac5452a11195897f239d8bebe02d70790508091505090565b6000807f3cab9a070a0c61cd0ae9d9e9e2c0781e5ca8691bec4087e5a4701d5ac018dd4e90508091505090565b6000807fb5dbbc334907f600e1151190a68c4043043163a23a907389a2c6f6231ed4318b90508091505090565b6040518060a0016040528060008152602001600081526020016000815260200160608152602001606081525090565b600080fd5b6000819050919050565b610fec81610fd9565b8114610ff757600080fd5b50565b60008135905061100981610fe3565b92915050565b60006020828403121561102557611024610fd4565b5b600061103384828501610ffa565b91505092915050565b61104581610fd9565b82525050565b6000602082019050611060600083018461103c565b92915050565b600073ffffffffffffffffffffffffffffffffffffffff82169050919050565b600061109182611066565b9050919050565b6110a181611086565b81146110ac57600080fd5b50565b6000813590506110be81611098565b92915050565b6000602082840312156110da576110d9610fd4565b5b60006110e8848285016110af565b91505092915050565b600081519050919050565b600082825260208201905092915050565b6000819050602082019050919050565b61112681610fd9565b82525050565b6000611138838361111d565b60208301905092915050565b6000602082019050919050565b600061115c826110f1565b61116681856110fc565b93506111718361110d565b8060005b838110156111a2578151611189888261112c565b975061119483611144565b925050600181019050611175565b5085935050505092915050565b600060208201905081810360008301526111c98184611151565b905092915050565b600081519050919050565b600082825260208201905092915050565b60005b8381101561120b5780820151818401526020810190506111f0565b60008484015250505050565b6000601f19601f8301169050919050565b6000611233826111d1565b61123d81856111dc565b935061124d8185602086016111ed565b61125681611217565b840191505092915050565b600060a083016000830151611279600086018261111d565b50602083015161128c602086018261111d565b50604083015161129f604086018261111d565b50606083015184820360608601526112b78282611228565b915050608083015184820360808601526112d18282611228565b9150508091505092915050565b600060208201905081810360008301526112f88184611261565b905092915050565b600082825260208201905092915050565b7f796f7520617265206e6f7420746865206f776e65720000000000000000000000600082015250565b6000611347601583611300565b915061135282611311565b602082019050919050565b600060208201905081810360008301526113768161133a565b9050919050565b7f446f672c20796f7520617265206e6f7420676f6c64207175657374696e670000600082015250565b60006113b3601e83611300565b91506113be8261137d565b602082019050919050565b600060208201905081810360008301526113e2816113a6565b9050919050565b7f4e487b7100000000000000000000000000000000000000000000000000000000600052601160045260246000fd5b600061142382610fd9565b915061142e83610fd9565b9250828203905081811115611446576114456113e9565b5b92915050565b600061145782610fd9565b915061146283610fd9565b925082820190508082111561147a576114796113e9565b5b92915050565b7f6974277320746f6f206561726c7920746f2070756c6c206f7574000000000000600082015250565b60006114b6601a83611300565b91506114c182611480565b602082019050919050565b600060208201905081810360008301526114e5816114a9565b9050919050565b60006114f782610fd9565b91507fffffffffffffffffffffffffffffffffffffffffffffffffffffffffffffffff8203611529576115286113e9565b5b600182019050919050565b7f4e487b7100000000000000000000000000000000000000000000000000000000600052602260045260246000fd5b6000600282049050600182168061157b57607f821691505b60208210810361158e5761158d611534565b5b5091905056fea26469706673582212201a15797f0920e17b647d8a56ce50d4ce8e464d12af02efd4610fd3caa0d9df4064736f6c63430008120033",
  "linkReferences": {},
  "deployedLinkReferences": {}
}