{
  "_format": "hh-sol-artifact-1",
  "contractName": "CraftFacet",
  "sourceName": "contracts/facets/CraftFacet.sol",
  "abi": [
    {
      "anonymous": false,
      "inputs": [
        {
          "indexed": true,
          "internalType": "uint256",
          "name": "_basicEquipmentSchemaId",
          "type": "uint256"
        },
        {
          "indexed": true,
          "internalType": "uint256",
          "name": "_value",
          "type": "uint256"
        },
        {
          "indexed": false,
          "internalType": "string",
          "name": "_uri",
          "type": "string"
        }
      ],
      "name": "BasicEquipmentSchemaCreated",
      "type": "event"
    },
    {
      "anonymous": false,
      "inputs": [
        {
          "indexed": true,
          "internalType": "uint256",
          "name": "_playerId",
          "type": "uint256"
        },
        {
          "indexed": false,
          "internalType": "uint256",
          "name": "_equipmentSchemaId",
          "type": "uint256"
        }
      ],
      "name": "PurchaseBasicEquipment",
      "type": "event"
    },
    {
      "inputs": [
        {
          "internalType": "uint256",
          "name": "_slot",
          "type": "uint256"
        },
        {
          "internalType": "uint256",
          "name": "_value",
          "type": "uint256"
        },
        {
          "internalType": "uint256",
          "name": "_stat",
          "type": "uint256"
        },
        {
          "internalType": "uint256",
          "name": "_cost",
          "type": "uint256"
        },
        {
          "internalType": "string",
          "name": "_name",
          "type": "string"
        },
        {
          "internalType": "string",
          "name": "_uri",
          "type": "string"
        }
      ],
      "name": "_createBasicEquipment",
      "outputs": [],
      "stateMutability": "nonpayable",
      "type": "function"
    },
    {
      "inputs": [
        {
          "internalType": "uint256",
          "name": "_equipmentId",
          "type": "uint256"
        }
      ],
      "name": "getEquipment",
      "outputs": [
        {
          "components": [
            {
              "internalType": "uint256",
              "name": "id",
              "type": "uint256"
            },
            {
              "internalType": "uint256",
              "name": "pointer",
              "type": "uint256"
            },
            {
              "internalType": "uint256",
              "name": "slot",
              "type": "uint256"
            },
            {
              "internalType": "uint256",
              "name": "rank",
              "type": "uint256"
            },
            {
              "internalType": "uint256",
              "name": "value",
              "type": "uint256"
            },
            {
              "internalType": "uint256",
              "name": "stat",
              "type": "uint256"
            },
            {
              "internalType": "uint256",
              "name": "owner",
              "type": "uint256"
            },
            {
              "internalType": "string",
              "name": "name",
              "type": "string"
            },
            {
              "internalType": "string",
              "name": "uri",
              "type": "string"
            },
            {
              "internalType": "bool",
              "name": "isEquiped",
              "type": "bool"
            }
          ],
          "internalType": "struct Equipment",
          "name": "",
          "type": "tuple"
        }
      ],
      "stateMutability": "view",
      "type": "function"
    },
    {
      "inputs": [
        {
          "internalType": "uint256",
          "name": "_playerId",
          "type": "uint256"
        }
      ],
      "name": "getPlayerToEquipment",
      "outputs": [
        {
          "internalType": "uint256[]",
          "name": "",
          "type": "uint256[]"
        }
      ],
      "stateMutability": "view",
      "type": "function"
    },
    {
      "inputs": [
        {
          "internalType": "uint256",
          "name": "_playerId",
          "type": "uint256"
        },
        {
          "internalType": "uint256",
          "name": "_equipmentSchemaId",
          "type": "uint256"
        }
      ],
      "name": "purchaseBasicEquipment",
      "outputs": [],
      "stateMutability": "nonpayable",
      "type": "function"
    }
  ],
  "bytecode": "0x608060405234801561001057600080fd5b5061138c806100206000396000f3fe608060405234801561001057600080fd5b506004361061004c5760003560e01c806340235b3f1461005157806381dd2fa01461006d578063ba0615901461009d578063c696a776146100cd575b600080fd5b61006b60048036038101906100669190610a76565b6100e9565b005b61008760048036038101906100829190610ab6565b61012f565b6040516100949190610c7e565b60405180910390f35b6100b760048036038101906100b29190610ab6565b610147565b6040516100c49190610d4f565b60405180910390f35b6100e760048036038101906100e29190610ea6565b610159565b005b6100f38282610201565b817fe7504f1059be7db1f858136933fb89f1e9996256b3beab064b8293dcc3708607826040516101239190610f7a565b60405180910390a25050565b6101376109d7565b6101408261061c565b9050919050565b6060610152826107de565b9050919050565b600073434d36f32abed3f7937fe0be88dc1b0eb938124490508073ffffffffffffffffffffffffffffffffffffffff163373ffffffffffffffffffffffffffffffffffffffff16146101aa57600080fd5b6101b8878787878787610858565b856101c1610938565b7fe95655014ca2b6e8a6a6cabefa1784441c578a60833d2b4d04e4cd6112b1f77b846040516101f09190610fdf565b60405180910390a350505050505050565b600061020b610950565b9050600061021761097d565b905060006102236109aa565b90506000836003016000878152602001908152602001600020600201541461024a57600080fd5b3373ffffffffffffffffffffffffffffffffffffffff1683600201600087815260200190815260200160002060009054906101000a900473ffffffffffffffffffffffffffffffffffffffff1673ffffffffffffffffffffffffffffffffffffffff16146102b757600080fd5b816002016000858152602001908152602001600020600401548160000160003373ffffffffffffffffffffffffffffffffffffffff1673ffffffffffffffffffffffffffffffffffffffff16815260200190815260200160002054101561031d57600080fd5b81600001600081548092919061033290611030565b9190505550604051806101400160405280836000015481526020018360060160008881526020019081526020016000208054905081526020018360020160008781526020019081526020016000206001015481526020016001815260200183600201600087815260200190815260200160002060020154815260200183600201600087815260200190815260200160002060030154815260200186815260200183600201600087815260200190815260200160002060050180546103f5906110a7565b80601f0160208091040260200160405190810160405280929190818152602001828054610421906110a7565b801561046e5780601f106104435761010080835404028352916020019161046e565b820191906000526020600020905b81548152906001019060200180831161045157829003601f168201915b50505050508152602001836002016000878152602001908152602001600020600601805461049b906110a7565b80601f01602080910402602001604051908101604052809291908181526020018280546104c7906110a7565b80156105145780601f106104e957610100808354040283529160200191610514565b820191906000526020600020905b8154815290600101906020018083116104f757829003601f168201915b505050505081526020016000151581525082600301600084600001548152602001908152602001600020600082015181600001556020820151816001015560408201518160020155606082015181600301556080820151816004015560a0820151816005015560c0820151816006015560e08201518160070190816105999190611284565b506101008201518160080190816105b09190611284565b506101208201518160090160006101000a81548160ff021916908315150217905550905050816006016000868152602001908152602001600020826000015490806001815401808255809150506001900390600052602060002001600090919091909150555050505050565b6106246109d7565b600061062e61097d565b905080600301600084815260200190815260200160002060405180610140016040529081600082015481526020016001820154815260200160028201548152602001600382015481526020016004820154815260200160058201548152602001600682015481526020016007820180546106a7906110a7565b80601f01602080910402602001604051908101604052809291908181526020018280546106d3906110a7565b80156107205780601f106106f557610100808354040283529160200191610720565b820191906000526020600020905b81548152906001019060200180831161070357829003601f168201915b50505050508152602001600882018054610739906110a7565b80601f0160208091040260200160405190810160405280929190818152602001828054610765906110a7565b80156107b25780601f10610787576101008083540402835291602001916107b2565b820191906000526020600020905b81548152906001019060200180831161079557829003601f168201915b505050505081526020016009820160009054906101000a900460ff161515151581525050915050919050565b606060006107ea61097d565b905080600601600084815260200190815260200160002080548060200260200160405190810160405280929190818152602001828054801561084b57602002820191906000526020600020905b815481526020019060010190808311610837575b5050505050915050919050565b600061086261097d565b905080600101600081548092919061087990611030565b91905055506040518060e00160405280826001015481526020018881526020018781526020018681526020018581526020018481526020018381525081600201600083600101548152602001908152602001600020600082015181600001556020820151816001015560408201518160020155606082015181600301556080820151816004015560a08201518160050190816109159190611284565b5060c082015181600601908161092b9190611284565b5090505050505050505050565b60008061094361097d565b9050806001015491505090565b6000807f3cab9a070a0c61cd0ae9d9e9e2c0781e5ca8691bec4087e5a4701d5ac018dd4e90508091505090565b6000807faad0511195ddfb575f5187a7172ca6fc330f129a86291f15eaa5f7537ab038dc90508091505090565b6000807f2c89d74504b6ad8d4fbde22bc3474166bac5452a11195897f239d8bebe02d70790508091505090565b6040518061014001604052806000815260200160008152602001600081526020016000815260200160008152602001600081526020016000815260200160608152602001606081526020016000151581525090565b6000604051905090565b600080fd5b600080fd5b6000819050919050565b610a5381610a40565b8114610a5e57600080fd5b50565b600081359050610a7081610a4a565b92915050565b60008060408385031215610a8d57610a8c610a36565b5b6000610a9b85828601610a61565b9250506020610aac85828601610a61565b9150509250929050565b600060208284031215610acc57610acb610a36565b5b6000610ada84828501610a61565b91505092915050565b610aec81610a40565b82525050565b600081519050919050565b600082825260208201905092915050565b60005b83811015610b2c578082015181840152602081019050610b11565b60008484015250505050565b6000601f19601f8301169050919050565b6000610b5482610af2565b610b5e8185610afd565b9350610b6e818560208601610b0e565b610b7781610b38565b840191505092915050565b60008115159050919050565b610b9781610b82565b82525050565b600061014083016000830151610bb66000860182610ae3565b506020830151610bc96020860182610ae3565b506040830151610bdc6040860182610ae3565b506060830151610bef6060860182610ae3565b506080830151610c026080860182610ae3565b5060a0830151610c1560a0860182610ae3565b5060c0830151610c2860c0860182610ae3565b5060e083015184820360e0860152610c408282610b49565b915050610100830151848203610100860152610c5c8282610b49565b915050610120830151610c73610120860182610b8e565b508091505092915050565b60006020820190508181036000830152610c988184610b9d565b905092915050565b600081519050919050565b600082825260208201905092915050565b6000819050602082019050919050565b6000610cd88383610ae3565b60208301905092915050565b6000602082019050919050565b6000610cfc82610ca0565b610d068185610cab565b9350610d1183610cbc565b8060005b83811015610d42578151610d298882610ccc565b9750610d3483610ce4565b925050600181019050610d15565b5085935050505092915050565b60006020820190508181036000830152610d698184610cf1565b905092915050565b600080fd5b600080fd5b7f4e487b7100000000000000000000000000000000000000000000000000000000600052604160045260246000fd5b610db382610b38565b810181811067ffffffffffffffff82111715610dd257610dd1610d7b565b5b80604052505050565b6000610de5610a2c565b9050610df18282610daa565b919050565b600067ffffffffffffffff821115610e1157610e10610d7b565b5b610e1a82610b38565b9050602081019050919050565b82818337600083830152505050565b6000610e49610e4484610df6565b610ddb565b905082815260208101848484011115610e6557610e64610d76565b5b610e70848285610e27565b509392505050565b600082601f830112610e8d57610e8c610d71565b5b8135610e9d848260208601610e36565b91505092915050565b60008060008060008060c08789031215610ec357610ec2610a36565b5b6000610ed189828a01610a61565b9650506020610ee289828a01610a61565b9550506040610ef389828a01610a61565b9450506060610f0489828a01610a61565b935050608087013567ffffffffffffffff811115610f2557610f24610a3b565b5b610f3189828a01610e78565b92505060a087013567ffffffffffffffff811115610f5257610f51610a3b565b5b610f5e89828a01610e78565b9150509295509295509295565b610f7481610a40565b82525050565b6000602082019050610f8f6000830184610f6b565b92915050565b600082825260208201905092915050565b6000610fb182610af2565b610fbb8185610f95565b9350610fcb818560208601610b0e565b610fd481610b38565b840191505092915050565b60006020820190508181036000830152610ff98184610fa6565b905092915050565b7f4e487b7100000000000000000000000000000000000000000000000000000000600052601160045260246000fd5b600061103b82610a40565b91507fffffffffffffffffffffffffffffffffffffffffffffffffffffffffffffffff820361106d5761106c611001565b5b600182019050919050565b7f4e487b7100000000000000000000000000000000000000000000000000000000600052602260045260246000fd5b600060028204905060018216806110bf57607f821691505b6020821081036110d2576110d1611078565b5b50919050565b60008190508160005260206000209050919050565b60006020601f8301049050919050565b600082821b905092915050565b60006008830261113a7fffffffffffffffffffffffffffffffffffffffffffffffffffffffffffffffff826110fd565b61114486836110fd565b95508019841693508086168417925050509392505050565b6000819050919050565b600061118161117c61117784610a40565b61115c565b610a40565b9050919050565b6000819050919050565b61119b83611166565b6111af6111a782611188565b84845461110a565b825550505050565b600090565b6111c46111b7565b6111cf818484611192565b505050565b5b818110156111f3576111e86000826111bc565b6001810190506111d5565b5050565b601f82111561123857611209816110d8565b611212846110ed565b81016020851015611221578190505b61123561122d856110ed565b8301826111d4565b50505b505050565b600082821c905092915050565b600061125b6000198460080261123d565b1980831691505092915050565b6000611274838361124a565b9150826002028217905092915050565b61128d82610af2565b67ffffffffffffffff8111156112a6576112a5610d7b565b5b6112b082546110a7565b6112bb8282856111f7565b600060209050601f8311600181146112ee57600084156112dc578287015190505b6112e68582611268565b86555061134e565b601f1984166112fc866110d8565b60005b82811015611324578489015182556001820191506020850194506020810190506112ff565b86831015611341578489015161133d601f89168261124a565b8355505b6001600288020188555050505b50505050505056fea264697066735822122025baecb7263985d0028cfe80b5a24b6f6feca13ae2f626dfb7fb427f823efbb864736f6c63430008120033",
  "linkReferences": {},
  "deployedLinkReferences": {}
}