{
  "_format": "hh-sol-artifact-1",
  "contractName": "CraftFacet",
  "sourceName": "contracts/facets/CraftFacet.sol",
  "abi": [
    {
      "anonymous": false,
      "inputs": [
        {
          "indexed": true,
          "internalType": "address",
          "name": "_owner",
          "type": "address"
        },
        {
          "indexed": false,
          "internalType": "uint256",
          "name": "_player",
          "type": "uint256"
        }
      ],
      "name": "ItemCrafted",
      "type": "event"
    },
    {
      "inputs": [
        {
          "internalType": "uint256",
          "name": "_playerId",
          "type": "uint256"
        },
        {
          "internalType": "string",
          "name": "_uri",
          "type": "string"
        }
      ],
      "name": "craftGuitar",
      "outputs": [],
      "stateMutability": "nonpayable",
      "type": "function"
    },
    {
      "inputs": [
        {
          "internalType": "uint256",
          "name": "_playerId",
          "type": "uint256"
        },
        {
          "internalType": "string",
          "name": "_uri",
          "type": "string"
        }
      ],
      "name": "craftSword",
      "outputs": [],
      "stateMutability": "nonpayable",
      "type": "function"
    }
  ],
  "bytecode": "0x608060405234801561001057600080fd5b50610e3e806100206000396000f3fe608060405234801561001057600080fd5b50600436106100365760003560e01c8063479a05551461003b578063805693d514610057575b600080fd5b610055600480360381019061005091906109ee565b610073565b005b610071600480360381019061006c91906109ee565b6100cf565b005b61007d828261012b565b3373ffffffffffffffffffffffffffffffffffffffff167fc23786d6f50f67fc05910a7c0e08cf6ad642ec7b6ec9f701ab0b1d9c479474e7836040516100c39190610a59565b60405180910390a25050565b6100d982826104ac565b3373ffffffffffffffffffffffffffffffffffffffff167fc23786d6f50f67fc05910a7c0e08cf6ad642ec7b6ec9f701ab0b1d9c479474e78360405161011f9190610a59565b60405180910390a25050565b60006101356107d7565b90506000610141610804565b9050600061014d610831565b90506000836003016000878152602001908152602001600020600201541461017457600080fd5b3373ffffffffffffffffffffffffffffffffffffffff1683600201600087815260200190815260200160002060009054906101000a900473ffffffffffffffffffffffffffffffffffffffff1673ffffffffffffffffffffffffffffffffffffffff16146101e157600080fd5b600a8160000160003373ffffffffffffffffffffffffffffffffffffffff1673ffffffffffffffffffffffffffffffffffffffff16815260200190815260200160002054101561023057600080fd5b600283600301600087815260200190815260200160002060070154101561025657600080fd5b600a8160000160003373ffffffffffffffffffffffffffffffffffffffff1673ffffffffffffffffffffffffffffffffffffffff16815260200190815260200160002060008282546102a89190610aa3565b92505081905550600283600301600087815260200190815260200160002060070160008282546102d89190610aa3565b925050819055508160000160008154809291906102f490610ad7565b919050555084826001016000846000015481526020019081526020016000208190555060405180610140016040528083600001548152602001836003016000888152602001908152602001600020805490508152602001600281526020016001815260200160018152602001600081526020018681526020016040518060400160405280600681526020017f477569746172000000000000000000000000000000000000000000000000000081525081526020018581526020016000151581525082600201600084600001548152602001908152602001600020600082015181600001556020820151816001015560408201518160020155606082015181600301556080820151816004015560a0820151816005015560c0820151816006015560e08201518160070190816104299190610d36565b506101008201518160080190816104409190610d36565b506101208201518160090160006101000a81548160ff021916908315150217905550905050816003016000868152602001908152602001600020826000015490806001815401808255809150506001900390600052602060002001600090919091909150555050505050565b60006104b66107d7565b905060006104c2610804565b905060006104ce610831565b9050600083600301600087815260200190815260200160002060020154146104f557600080fd5b3373ffffffffffffffffffffffffffffffffffffffff1683600201600087815260200190815260200160002060009054906101000a900473ffffffffffffffffffffffffffffffffffffffff1673ffffffffffffffffffffffffffffffffffffffff161461056257600080fd5b60058160000160003373ffffffffffffffffffffffffffffffffffffffff1673ffffffffffffffffffffffffffffffffffffffff1681526020019081526020016000205410156105b157600080fd5b60058160000160003373ffffffffffffffffffffffffffffffffffffffff1673ffffffffffffffffffffffffffffffffffffffff16815260200190815260200160002060008282546106039190610aa3565b9250508190555081600001600081548092919061061f90610ad7565b919050555084826001016000846000015481526020019081526020016000208190555060405180610140016040528083600001548152602001836003016000888152602001908152602001600020805490508152602001600281526020016001815260200160038152602001600081526020018681526020016040518060400160405280600581526020017f53776f726400000000000000000000000000000000000000000000000000000081525081526020018581526020016000151581525082600201600084600001548152602001908152602001600020600082015181600001556020820151816001015560408201518160020155606082015181600301556080820151816004015560a0820151816005015560c0820151816006015560e08201518160070190816107549190610d36565b5061010082015181600801908161076b9190610d36565b506101208201518160090160006101000a81548160ff021916908315150217905550905050816003016000868152602001908152602001600020826000015490806001815401808255809150506001900390600052602060002001600090919091909150555050505050565b6000807f3cab9a070a0c61cd0ae9d9e9e2c0781e5ca8691bec4087e5a4701d5ac018dd4e90508091505090565b6000807faad0511195ddfb575f5187a7172ca6fc330f129a86291f15eaa5f7537ab038dc90508091505090565b6000807f2c89d74504b6ad8d4fbde22bc3474166bac5452a11195897f239d8bebe02d70790508091505090565b6000604051905090565b600080fd5b600080fd5b6000819050919050565b61088581610872565b811461089057600080fd5b50565b6000813590506108a28161087c565b92915050565b600080fd5b600080fd5b6000601f19601f8301169050919050565b7f4e487b7100000000000000000000000000000000000000000000000000000000600052604160045260246000fd5b6108fb826108b2565b810181811067ffffffffffffffff8211171561091a576109196108c3565b5b80604052505050565b600061092d61085e565b905061093982826108f2565b919050565b600067ffffffffffffffff821115610959576109586108c3565b5b610962826108b2565b9050602081019050919050565b82818337600083830152505050565b600061099161098c8461093e565b610923565b9050828152602081018484840111156109ad576109ac6108ad565b5b6109b884828561096f565b509392505050565b600082601f8301126109d5576109d46108a8565b5b81356109e584826020860161097e565b91505092915050565b60008060408385031215610a0557610a04610868565b5b6000610a1385828601610893565b925050602083013567ffffffffffffffff811115610a3457610a3361086d565b5b610a40858286016109c0565b9150509250929050565b610a5381610872565b82525050565b6000602082019050610a6e6000830184610a4a565b92915050565b7f4e487b7100000000000000000000000000000000000000000000000000000000600052601160045260246000fd5b6000610aae82610872565b9150610ab983610872565b9250828203905081811115610ad157610ad0610a74565b5b92915050565b6000610ae282610872565b91507fffffffffffffffffffffffffffffffffffffffffffffffffffffffffffffffff8203610b1457610b13610a74565b5b600182019050919050565b600081519050919050565b7f4e487b7100000000000000000000000000000000000000000000000000000000600052602260045260246000fd5b60006002820490506001821680610b7157607f821691505b602082108103610b8457610b83610b2a565b5b50919050565b60008190508160005260206000209050919050565b60006020601f8301049050919050565b600082821b905092915050565b600060088302610bec7fffffffffffffffffffffffffffffffffffffffffffffffffffffffffffffffff82610baf565b610bf68683610baf565b95508019841693508086168417925050509392505050565b6000819050919050565b6000610c33610c2e610c2984610872565b610c0e565b610872565b9050919050565b6000819050919050565b610c4d83610c18565b610c61610c5982610c3a565b848454610bbc565b825550505050565b600090565b610c76610c69565b610c81818484610c44565b505050565b5b81811015610ca557610c9a600082610c6e565b600181019050610c87565b5050565b601f821115610cea57610cbb81610b8a565b610cc484610b9f565b81016020851015610cd3578190505b610ce7610cdf85610b9f565b830182610c86565b50505b505050565b600082821c905092915050565b6000610d0d60001984600802610cef565b1980831691505092915050565b6000610d268383610cfc565b9150826002028217905092915050565b610d3f82610b1f565b67ffffffffffffffff811115610d5857610d576108c3565b5b610d628254610b59565b610d6d828285610ca9565b600060209050601f831160018114610da05760008415610d8e578287015190505b610d988582610d1a565b865550610e00565b601f198416610dae86610b8a565b60005b82811015610dd657848901518255600182019150602085019450602081019050610db1565b86831015610df35784890151610def601f891682610cfc565b8355505b6001600288020188555050505b50505050505056fea2646970667358221220e7297141978fd0a6f60ffd2adc3ef1638231c1534073573a639b240be5cf5f9164736f6c63430008110033",
  "linkReferences": {},
  "deployedLinkReferences": {}
}