{
  "_format": "hh-sol-artifact-1",
  "contractName": "CraftFacet",
  "sourceName": "contracts/facets/CraftFacet.sol",
  "abi": [
    {
      "anonymous": false,
      "inputs": [
        {
          "indexed": true,
          "internalType": "uint256",
          "name": "_playerId",
          "type": "uint256"
        },
        {
          "indexed": false,
          "internalType": "uint256",
          "name": "_equipmentId",
          "type": "uint256"
        },
        {
          "indexed": false,
          "internalType": "uint256",
          "name": "_advancedCraftId",
          "type": "uint256"
        }
      ],
      "name": "AdvancedCraftEvent",
      "type": "event"
    },
    {
      "anonymous": false,
      "inputs": [
        {
          "indexed": true,
          "internalType": "uint256",
          "name": "_playerId",
          "type": "uint256"
        },
        {
          "indexed": false,
          "internalType": "uint256",
          "name": "_equipmentId",
          "type": "uint256"
        },
        {
          "indexed": false,
          "internalType": "uint256",
          "name": "_craftId",
          "type": "uint256"
        }
      ],
      "name": "BasicCraftEvent",
      "type": "event"
    },
    {
      "anonymous": false,
      "inputs": [
        {
          "indexed": true,
          "internalType": "uint256",
          "name": "_basicEquipmentSchemaId",
          "type": "uint256"
        },
        {
          "indexed": true,
          "internalType": "uint256",
          "name": "_value",
          "type": "uint256"
        },
        {
          "indexed": false,
          "internalType": "string",
          "name": "_uri",
          "type": "string"
        },
        {
          "components": [
            {
              "internalType": "uint256",
              "name": "basicEquipmentSchemaId",
              "type": "uint256"
            },
            {
              "internalType": "uint256",
              "name": "slot",
              "type": "uint256"
            },
            {
              "internalType": "uint256",
              "name": "value",
              "type": "uint256"
            },
            {
              "internalType": "uint256",
              "name": "stat",
              "type": "uint256"
            },
            {
              "internalType": "uint256",
              "name": "cost",
              "type": "uint256"
            },
            {
              "internalType": "uint256",
              "name": "supply",
              "type": "uint256"
            },
            {
              "internalType": "string",
              "name": "name",
              "type": "string"
            },
            {
              "internalType": "string",
              "name": "uri",
              "type": "string"
            }
          ],
          "indexed": false,
          "internalType": "struct BasicEquipmentSchema",
          "name": "_basicEQuipmentSchema",
          "type": "tuple"
        }
      ],
      "name": "BasicEquipmentSchemaCreated",
      "type": "event"
    },
    {
      "anonymous": false,
      "inputs": [
        {
          "indexed": true,
          "internalType": "uint256",
          "name": "_basicEquipmentSchemaId",
          "type": "uint256"
        },
        {
          "indexed": true,
          "internalType": "uint256",
          "name": "_value",
          "type": "uint256"
        },
        {
          "indexed": false,
          "internalType": "string",
          "name": "_uri",
          "type": "string"
        },
        {
          "components": [
            {
              "internalType": "uint256",
              "name": "basicEquipmentSchemaId",
              "type": "uint256"
            },
            {
              "internalType": "uint256",
              "name": "slot",
              "type": "uint256"
            },
            {
              "internalType": "uint256",
              "name": "value",
              "type": "uint256"
            },
            {
              "internalType": "uint256",
              "name": "stat",
              "type": "uint256"
            },
            {
              "internalType": "uint256",
              "name": "cost",
              "type": "uint256"
            },
            {
              "internalType": "uint256",
              "name": "supply",
              "type": "uint256"
            },
            {
              "internalType": "string",
              "name": "name",
              "type": "string"
            },
            {
              "internalType": "string",
              "name": "uri",
              "type": "string"
            }
          ],
          "indexed": false,
          "internalType": "struct BasicEquipmentSchema",
          "name": "_basicEQuipmentSchema",
          "type": "tuple"
        }
      ],
      "name": "BasicEquipmentSchemaUpdate",
      "type": "event"
    },
    {
      "anonymous": false,
      "inputs": [
        {
          "indexed": true,
          "internalType": "uint256",
          "name": "id",
          "type": "uint256"
        },
        {
          "components": [
            {
              "internalType": "uint256",
              "name": "advancedCraftId",
              "type": "uint256"
            },
            {
              "internalType": "uint256",
              "name": "slot",
              "type": "uint256"
            },
            {
              "internalType": "uint256",
              "name": "value",
              "type": "uint256"
            },
            {
              "internalType": "uint256",
              "name": "stat",
              "type": "uint256"
            },
            {
              "internalType": "uint256",
              "name": "amount",
              "type": "uint256"
            },
            {
              "internalType": "uint256",
              "name": "treasureSchemaId",
              "type": "uint256"
            },
            {
              "internalType": "string",
              "name": "oldName",
              "type": "string"
            },
            {
              "internalType": "string",
              "name": "newName",
              "type": "string"
            },
            {
              "internalType": "string",
              "name": "uri",
              "type": "string"
            }
          ],
          "indexed": false,
          "internalType": "struct AdvancedCraft",
          "name": "_advancedCraft",
          "type": "tuple"
        }
      ],
      "name": "CreateAdvancedCraft",
      "type": "event"
    },
    {
      "anonymous": false,
      "inputs": [
        {
          "indexed": true,
          "internalType": "uint256",
          "name": "id",
          "type": "uint256"
        },
        {
          "components": [
            {
              "internalType": "uint256",
              "name": "id",
              "type": "uint256"
            },
            {
              "internalType": "uint256",
              "name": "slot",
              "type": "uint256"
            },
            {
              "internalType": "uint256",
              "name": "value",
              "type": "uint256"
            },
            {
              "internalType": "uint256",
              "name": "cost",
              "type": "uint256"
            },
            {
              "internalType": "string",
              "name": "oldName",
              "type": "string"
            },
            {
              "internalType": "string",
              "name": "newName",
              "type": "string"
            },
            {
              "internalType": "string",
              "name": "uri",
              "type": "string"
            }
          ],
          "indexed": false,
          "internalType": "struct BasicCraft",
          "name": "_basicCraft",
          "type": "tuple"
        }
      ],
      "name": "CreateBasicCraft",
      "type": "event"
    },
    {
      "anonymous": false,
      "inputs": [
        {
          "indexed": true,
          "internalType": "uint256",
          "name": "_playerId",
          "type": "uint256"
        },
        {
          "indexed": false,
          "internalType": "uint256",
          "name": "_equipmentSchemaId",
          "type": "uint256"
        }
      ],
      "name": "PurchaseBasicEquipment",
      "type": "event"
    },
    {
      "inputs": [
        {
          "internalType": "uint256",
          "name": "_playerId",
          "type": "uint256"
        },
        {
          "internalType": "uint256",
          "name": "_advancedCraftId",
          "type": "uint256"
        },
        {
          "internalType": "uint256",
          "name": "_equipmentId",
          "type": "uint256"
        }
      ],
      "name": "advancedCraft",
      "outputs": [],
      "stateMutability": "nonpayable",
      "type": "function"
    },
    {
      "inputs": [
        {
          "internalType": "uint256",
          "name": "_playerId",
          "type": "uint256"
        },
        {
          "internalType": "uint256",
          "name": "_equipmentId",
          "type": "uint256"
        },
        {
          "internalType": "uint256",
          "name": "_craftId",
          "type": "uint256"
        }
      ],
      "name": "basicCraft",
      "outputs": [],
      "stateMutability": "nonpayable",
      "type": "function"
    },
    {
      "inputs": [
        {
          "internalType": "uint256",
          "name": "_treasureSchemaId",
          "type": "uint256"
        },
        {
          "internalType": "uint256",
          "name": "_slot",
          "type": "uint256"
        },
        {
          "internalType": "uint256",
          "name": "_value",
          "type": "uint256"
        },
        {
          "internalType": "uint256",
          "name": "_stat",
          "type": "uint256"
        },
        {
          "internalType": "uint256",
          "name": "_amount",
          "type": "uint256"
        },
        {
          "internalType": "string",
          "name": "_oldName",
          "type": "string"
        },
        {
          "internalType": "string",
          "name": "_newName",
          "type": "string"
        },
        {
          "internalType": "string",
          "name": "_uri",
          "type": "string"
        }
      ],
      "name": "createAdvancedCraft",
      "outputs": [],
      "stateMutability": "nonpayable",
      "type": "function"
    },
    {
      "inputs": [
        {
          "internalType": "uint256",
          "name": "_equipmenSchematId",
          "type": "uint256"
        },
        {
          "internalType": "uint256",
          "name": "_value",
          "type": "uint256"
        },
        {
          "internalType": "uint256",
          "name": "_cost",
          "type": "uint256"
        },
        {
          "internalType": "string",
          "name": "_newName",
          "type": "string"
        },
        {
          "internalType": "string",
          "name": "_uri",
          "type": "string"
        }
      ],
      "name": "createBasicCraft",
      "outputs": [],
      "stateMutability": "nonpayable",
      "type": "function"
    },
    {
      "inputs": [
        {
          "internalType": "uint256",
          "name": "_slot",
          "type": "uint256"
        },
        {
          "internalType": "uint256",
          "name": "_value",
          "type": "uint256"
        },
        {
          "internalType": "uint256",
          "name": "_stat",
          "type": "uint256"
        },
        {
          "internalType": "uint256",
          "name": "_cost",
          "type": "uint256"
        },
        {
          "internalType": "uint256",
          "name": "_supply",
          "type": "uint256"
        },
        {
          "internalType": "string",
          "name": "_name",
          "type": "string"
        },
        {
          "internalType": "string",
          "name": "_uri",
          "type": "string"
        }
      ],
      "name": "createBasicEquipment",
      "outputs": [],
      "stateMutability": "nonpayable",
      "type": "function"
    },
    {
      "inputs": [
        {
          "internalType": "uint256",
          "name": "_advancedCraftId",
          "type": "uint256"
        }
      ],
      "name": "getAdvancedCraft",
      "outputs": [
        {
          "components": [
            {
              "internalType": "uint256",
              "name": "advancedCraftId",
              "type": "uint256"
            },
            {
              "internalType": "uint256",
              "name": "slot",
              "type": "uint256"
            },
            {
              "internalType": "uint256",
              "name": "value",
              "type": "uint256"
            },
            {
              "internalType": "uint256",
              "name": "stat",
              "type": "uint256"
            },
            {
              "internalType": "uint256",
              "name": "amount",
              "type": "uint256"
            },
            {
              "internalType": "uint256",
              "name": "treasureSchemaId",
              "type": "uint256"
            },
            {
              "internalType": "string",
              "name": "oldName",
              "type": "string"
            },
            {
              "internalType": "string",
              "name": "newName",
              "type": "string"
            },
            {
              "internalType": "string",
              "name": "uri",
              "type": "string"
            }
          ],
          "internalType": "struct AdvancedCraft",
          "name": "",
          "type": "tuple"
        }
      ],
      "stateMutability": "view",
      "type": "function"
    },
    {
      "inputs": [],
      "name": "getAdvancedCraftCount",
      "outputs": [
        {
          "internalType": "uint256",
          "name": "",
          "type": "uint256"
        }
      ],
      "stateMutability": "view",
      "type": "function"
    },
    {
      "inputs": [
        {
          "internalType": "uint256",
          "name": "_basicCraftId",
          "type": "uint256"
        }
      ],
      "name": "getBasicCraft",
      "outputs": [
        {
          "components": [
            {
              "internalType": "uint256",
              "name": "id",
              "type": "uint256"
            },
            {
              "internalType": "uint256",
              "name": "slot",
              "type": "uint256"
            },
            {
              "internalType": "uint256",
              "name": "value",
              "type": "uint256"
            },
            {
              "internalType": "uint256",
              "name": "cost",
              "type": "uint256"
            },
            {
              "internalType": "string",
              "name": "oldName",
              "type": "string"
            },
            {
              "internalType": "string",
              "name": "newName",
              "type": "string"
            },
            {
              "internalType": "string",
              "name": "uri",
              "type": "string"
            }
          ],
          "internalType": "struct BasicCraft",
          "name": "",
          "type": "tuple"
        }
      ],
      "stateMutability": "view",
      "type": "function"
    },
    {
      "inputs": [],
      "name": "getBasicCraftCount",
      "outputs": [
        {
          "internalType": "uint256",
          "name": "",
          "type": "uint256"
        }
      ],
      "stateMutability": "view",
      "type": "function"
    },
    {
      "inputs": [],
      "name": "getBasicEquipmentCount",
      "outputs": [
        {
          "internalType": "uint256",
          "name": "",
          "type": "uint256"
        }
      ],
      "stateMutability": "view",
      "type": "function"
    },
    {
      "inputs": [
        {
          "internalType": "uint256",
          "name": "_basicEquipmentSchemaId",
          "type": "uint256"
        }
      ],
      "name": "getBasicEquipmentSchema",
      "outputs": [
        {
          "components": [
            {
              "internalType": "uint256",
              "name": "basicEquipmentSchemaId",
              "type": "uint256"
            },
            {
              "internalType": "uint256",
              "name": "slot",
              "type": "uint256"
            },
            {
              "internalType": "uint256",
              "name": "value",
              "type": "uint256"
            },
            {
              "internalType": "uint256",
              "name": "stat",
              "type": "uint256"
            },
            {
              "internalType": "uint256",
              "name": "cost",
              "type": "uint256"
            },
            {
              "internalType": "uint256",
              "name": "supply",
              "type": "uint256"
            },
            {
              "internalType": "string",
              "name": "name",
              "type": "string"
            },
            {
              "internalType": "string",
              "name": "uri",
              "type": "string"
            }
          ],
          "internalType": "struct BasicEquipmentSchema",
          "name": "",
          "type": "tuple"
        }
      ],
      "stateMutability": "view",
      "type": "function"
    },
    {
      "inputs": [
        {
          "internalType": "uint256",
          "name": "_equipmentId",
          "type": "uint256"
        }
      ],
      "name": "getEquipment",
      "outputs": [
        {
          "components": [
            {
              "internalType": "uint256",
              "name": "id",
              "type": "uint256"
            },
            {
              "internalType": "uint256",
              "name": "pointer",
              "type": "uint256"
            },
            {
              "internalType": "uint256",
              "name": "slot",
              "type": "uint256"
            },
            {
              "internalType": "uint256",
              "name": "rank",
              "type": "uint256"
            },
            {
              "internalType": "uint256",
              "name": "value",
              "type": "uint256"
            },
            {
              "internalType": "uint256",
              "name": "stat",
              "type": "uint256"
            },
            {
              "internalType": "uint256",
              "name": "owner",
              "type": "uint256"
            },
            {
              "internalType": "string",
              "name": "name",
              "type": "string"
            },
            {
              "internalType": "string",
              "name": "uri",
              "type": "string"
            },
            {
              "internalType": "bool",
              "name": "isEquiped",
              "type": "bool"
            }
          ],
          "internalType": "struct Equipment",
          "name": "",
          "type": "tuple"
        }
      ],
      "stateMutability": "view",
      "type": "function"
    },
    {
      "inputs": [
        {
          "internalType": "uint256",
          "name": "_playerId",
          "type": "uint256"
        }
      ],
      "name": "getPlayerToEquipment",
      "outputs": [
        {
          "internalType": "uint256[]",
          "name": "",
          "type": "uint256[]"
        }
      ],
      "stateMutability": "view",
      "type": "function"
    },
    {
      "inputs": [
        {
          "internalType": "uint256",
          "name": "_playerId",
          "type": "uint256"
        },
        {
          "internalType": "uint256",
          "name": "_equipmentSchemaId",
          "type": "uint256"
        }
      ],
      "name": "purchaseBasicEquipment",
      "outputs": [],
      "stateMutability": "nonpayable",
      "type": "function"
    },
    {
      "inputs": [
        {
          "internalType": "uint256",
          "name": "_basicEquipmentSchemaId",
          "type": "uint256"
        },
        {
          "internalType": "uint256",
          "name": "_slot",
          "type": "uint256"
        },
        {
          "internalType": "uint256",
          "name": "_value",
          "type": "uint256"
        },
        {
          "internalType": "uint256",
          "name": "_stat",
          "type": "uint256"
        },
        {
          "internalType": "uint256",
          "name": "_cost",
          "type": "uint256"
        },
        {
          "internalType": "string",
          "name": "_name",
          "type": "string"
        },
        {
          "internalType": "string",
          "name": "_uri",
          "type": "string"
        }
      ],
      "name": "updateBasicEquipmentScehma",
      "outputs": [],
      "stateMutability": "nonpayable",
      "type": "function"
    }
  ],
  "bytecode": "0x608060405234801561001057600080fd5b50613456806100206000396000f3fe608060405234801561001057600080fd5b50600436106100f55760003560e01c806381dd2fa011610097578063c653d4b211610066578063c653d4b214610284578063c87bf952146102a0578063d216e986146102bc578063d6f13898146102ec576100f5565b806381dd2fa0146101ea57806387a1f77f1461021a578063b09441c014610236578063ba06159014610254576100f5565b80632bb79ab1116100d35780632bb79ab11461015057806340235b3f146101805780634bf68ade1461019c578063799173c1146101cc576100f5565b806301ed879d146100fa57806307a4cc231461011657806325a2bb6614610132575b600080fd5b610114600480360381019061010f91906123b9565b610308565b005b610130600480360381019061012b91906123b9565b6103c2565b005b61013a61046f565b60405161014791906124a2565b60405180910390f35b61016a600480360381019061016591906124bd565b61047e565b604051610177919061264b565b60405180910390f35b61019a6004803603810190610195919061266d565b610496565b005b6101b660048036038101906101b191906124bd565b6104dc565b6040516101c39190612757565b60405180910390f35b6101d46104f4565b6040516101e191906124a2565b60405180910390f35b61020460048036038101906101ff91906124bd565b610503565b6040516102119190612875565b60405180910390f35b610234600480360381019061022f9190612897565b61051b565b005b61023e610582565b60405161024b91906124a2565b60405180910390f35b61026e600480360381019061026991906124bd565b610591565b60405161027b9190612a50565b60405180910390f35b61029e60048036038101906102999190612a72565b6105a3565b005b6102ba60048036038101906102b59190612ac5565b6105ed565b005b6102d660048036038101906102d191906124bd565b61064e565b6040516102e39190612c2f565b60405180910390f35b61030660048036038101906103019190612a72565b610666565b005b600073434d36f32abed3f7937fe0be88dc1b0eb938124490508073ffffffffffffffffffffffffffffffffffffffff163373ffffffffffffffffffffffffffffffffffffffff161461035957600080fd5b610368888888888888886106b0565b60006103726107a2565b905087817fdfd9f485fd2b67e4ed2b0d34a6c613b58fe6068fada00a72d599f0936d369dba856103a18561064e565b6040516103af929190612c9b565b60405180910390a3505050505050505050565b600073434d36f32abed3f7937fe0be88dc1b0eb938124490508073ffffffffffffffffffffffffffffffffffffffff163373ffffffffffffffffffffffffffffffffffffffff161461041357600080fd5b610422888888888888886107ba565b85887fdfd9f485fd2b67e4ed2b0d34a6c613b58fe6068fada00a72d599f0936d369dba8461044f8c61064e565b60405161045d929190612c9b565b60405180910390a35050505050505050565b60006104796107a2565b905090565b610486612106565b61048f82610890565b9050919050565b6104a08282610abf565b817fe7504f1059be7db1f858136933fb89f1e9996256b3beab064b8293dcc3708607826040516104d091906124a2565b60405180910390a25050565b6104e4612152565b6104ed82611038565b9050919050565b60006104fe611252565b905090565b61050b61218f565b6105148261126a565b9050919050565b61052b888888888888888861142c565b6000610535610582565b9050807fc14e5f65f74dbf8d4c707bd6500fb63dfb41f2c63bafb61e6798c3a048d4906c6105628361047e565b60405161056f919061264b565b60405180910390a2505050505050505050565b600061058c61153c565b905090565b606061059c82611554565b9050919050565b6105ae8383836115ce565b827f63606c63b2453fc45fa811a363d771bb9678c4c5532d644090ebdbe07765546f82846040516105e0929190612cd2565b60405180910390a2505050565b6105fa858585858561194d565b60006106046104f4565b9050807fe7ebf37154a7baecdaff82aaaf79c17b0e7ce8cd17c53835ffd29abbc8a833da610631836104dc565b60405161063e9190612757565b60405180910390a2505050505050565b6106566121e4565b61065f82611af0565b9050919050565b610671838383611c8d565b827f91dddbc82058117c5a605d41c7526e95c5b808e19e0a0d5e204cb74b592e98dc83836040516106a3929190612cd2565b60405180910390a2505050565b60006106ba612052565b90508060010160008154809291906106d190612d2a565b9190505550604051806101000160405280826001015481526020018981526020018881526020018781526020018681526020018581526020018481526020018381525081600201600083600101548152602001908152602001600020600082015181600001556020820151816001015560408201518160020155606082015181600301556080820151816004015560a0820151816005015560c082015181600601908161077e9190612f7e565b5060e08201518160070190816107949190612f7e565b509050505050505050505050565b6000806107ad612052565b9050806001015491505090565b60006107c4612052565b9050868160020160008a815260200190815260200160002060010181905550858160020160008a815260200190815260200160002060020181905550848160020160008a815260200190815260200160002060030181905550838160020160008a815260200190815260200160002060040181905550828160020160008a8152602001908152602001600020600601908161085f9190612f7e565b50818160020160008a815260200190815260200160002060070190816108859190612f7e565b505050505050505050565b610898612106565b60006108a2612052565b90508060090160008481526020019081526020016000206040518061012001604052908160008201548152602001600182015481526020016002820154815260200160038201548152602001600482015481526020016005820154815260200160068201805461091190612da1565b80601f016020809104026020016040519081016040528092919081815260200182805461093d90612da1565b801561098a5780601f1061095f5761010080835404028352916020019161098a565b820191906000526020600020905b81548152906001019060200180831161096d57829003601f168201915b505050505081526020016007820180546109a390612da1565b80601f01602080910402602001604051908101604052809291908181526020018280546109cf90612da1565b8015610a1c5780601f106109f157610100808354040283529160200191610a1c565b820191906000526020600020905b8154815290600101906020018083116109ff57829003601f168201915b50505050508152602001600882018054610a3590612da1565b80601f0160208091040260200160405190810160405280929190818152602001828054610a6190612da1565b8015610aae5780601f10610a8357610100808354040283529160200191610aae565b820191906000526020600020905b815481529060010190602001808311610a9157829003601f168201915b505050505081525050915050919050565b6000610ac961207f565b90506000610ad5612052565b90506000610ae16120ac565b905060008360030160008781526020019081526020016000206002015414610b0857600080fd5b3373ffffffffffffffffffffffffffffffffffffffff1683600201600087815260200190815260200160002060009054906101000a900473ffffffffffffffffffffffffffffffffffffffff1673ffffffffffffffffffffffffffffffffffffffff1614610b7557600080fd5b816002016000858152602001908152602001600020600401548160010160003373ffffffffffffffffffffffffffffffffffffffff1673ffffffffffffffffffffffffffffffffffffffff168152602001908152602001600020541015610bdb57600080fd5b816002016000858152602001908152602001600020600501548260030160008681526020019081526020016000205410610c1457600080fd5b816000016000815480929190610c2990612d2a565b91905055508160030160008581526020019081526020016000206000815480929190610c5490612d2a565b919050555060405180610140016040528083600001548152602001836007016000888152602001908152602001600020805490508152602001836002016000878152602001908152602001600020600101548152602001600181526020018360020160008781526020019081526020016000206002015481526020018360020160008781526020019081526020016000206003015481526020018681526020018360020160008781526020019081526020016000206006018054610d1790612da1565b80601f0160208091040260200160405190810160405280929190818152602001828054610d4390612da1565b8015610d905780601f10610d6557610100808354040283529160200191610d90565b820191906000526020600020905b815481529060010190602001808311610d7357829003601f168201915b505050505081526020018360020160008781526020019081526020016000206007018054610dbd90612da1565b80601f0160208091040260200160405190810160405280929190818152602001828054610de990612da1565b8015610e365780601f10610e0b57610100808354040283529160200191610e36565b820191906000526020600020905b815481529060010190602001808311610e1957829003601f168201915b505050505081526020016000151581525082600401600084600001548152602001908152602001600020600082015181600001556020820151816001015560408201518160020155606082015181600301556080820151816004015560a0820151816005015560c0820151816006015560e0820151816007019081610ebb9190612f7e565b50610100820151816008019081610ed29190612f7e565b506101208201518160090160006101000a81548160ff02191690831515021790555090505081600701600086815260200190815260200160002082600001549080600181540180825580915050600190039060005260206000200160009091909190915055816002016000858152602001908152602001600020600401548160010160003373ffffffffffffffffffffffffffffffffffffffff1673ffffffffffffffffffffffffffffffffffffffff1681526020019081526020016000206000828254610fa09190613050565b9250508190555060007308d8e680a2d295af8cbcd8b8e07f900275bc6b8d9050826002016000868152602001908152602001600020600401548260010160008373ffffffffffffffffffffffffffffffffffffffff1673ffffffffffffffffffffffffffffffffffffffff16815260200190815260200160002060008282546110299190613084565b92505081905550505050505050565b611040612152565b600061104a612052565b90508060060160008481526020019081526020016000206040518060e0016040529081600082015481526020016001820154815260200160028201548152602001600382015481526020016004820180546110a490612da1565b80601f01602080910402602001604051908101604052809291908181526020018280546110d090612da1565b801561111d5780601f106110f25761010080835404028352916020019161111d565b820191906000526020600020905b81548152906001019060200180831161110057829003601f168201915b5050505050815260200160058201805461113690612da1565b80601f016020809104026020016040519081016040528092919081815260200182805461116290612da1565b80156111af5780601f10611184576101008083540402835291602001916111af565b820191906000526020600020905b81548152906001019060200180831161119257829003601f168201915b505050505081526020016006820180546111c890612da1565b80601f01602080910402602001604051908101604052809291908181526020018280546111f490612da1565b80156112415780601f1061121657610100808354040283529160200191611241565b820191906000526020600020905b81548152906001019060200180831161122457829003601f168201915b505050505081525050915050919050565b60008061125d612052565b9050806005015491505090565b61127261218f565b600061127c612052565b905080600401600084815260200190815260200160002060405180610140016040529081600082015481526020016001820154815260200160028201548152602001600382015481526020016004820154815260200160058201548152602001600682015481526020016007820180546112f590612da1565b80601f016020809104026020016040519081016040528092919081815260200182805461132190612da1565b801561136e5780601f106113435761010080835404028352916020019161136e565b820191906000526020600020905b81548152906001019060200180831161135157829003601f168201915b5050505050815260200160088201805461138790612da1565b80601f01602080910402602001604051908101604052809291908181526020018280546113b390612da1565b80156114005780601f106113d557610100808354040283529160200191611400565b820191906000526020600020905b8154815290600101906020018083116113e357829003601f168201915b505050505081526020016009820160009054906101000a900460ff161515151581525050915050919050565b6000611436612052565b905080600801600081548092919061144d90612d2a565b9190505550604051806101200160405280826008015481526020018981526020018881526020018781526020018681526020018a81526020018581526020018481526020018381525081600901600083600801548152602001908152602001600020600082015181600001556020820151816001015560408201518160020155606082015181600301556080820151816004015560a0820151816005015560c08201518160060190816115009190612f7e565b5060e08201518160070190816115169190612f7e565b5061010082015181600801908161152d9190612f7e565b50905050505050505050505050565b600080611547612052565b9050806008015491505090565b60606000611560612052565b90508060070160008481526020019081526020016000208054806020026020016040519081016040528092919081815260200182805480156115c157602002820191906000526020600020905b8154815260200190600101908083116115ad575b5050505050915050919050565b60006115d861207f565b905060006115e4612052565b905060006115f06120d9565b90506000836003016000888152602001908152602001600020600201541461161757600080fd5b3373ffffffffffffffffffffffffffffffffffffffff1683600201600088815260200190815260200160002060009054906101000a900473ffffffffffffffffffffffffffffffffffffffff1673ffffffffffffffffffffffffffffffffffffffff16146116ba576040517f08c379a00000000000000000000000000000000000000000000000000000000081526004016116b190613104565b60405180910390fd5b81600401600085815260200190815260200160002060090160009054906101000a900460ff1615611720576040517f08c379a000000000000000000000000000000000000000000000000000000000815260040161171790613170565b60405180910390fd5b60008260090160008781526020019081526020016000209050806004015482600201600083600501548152602001908152602001600020600089815260200190815260200160002054101561177457600080fd5b80600601604051602001611788919061321e565b604051602081830303815290604052805190602001208360040160008781526020019081526020016000206007016040516020016117c6919061321e565b604051602081830303815290604052805190602001201461181c576040517f08c379a000000000000000000000000000000000000000000000000000000000815260040161181390613281565b60405180910390fd5b826004016000868152602001908152602001600020600301600081548092919061184590612d2a565b91905055508060020154836004016000878152602001908152602001600020600401819055508060010154836004016000878152602001908152602001600020600201819055508060030154836004016000878152602001908152602001600020600501819055508060070183600401600087815260200190815260200160002060070190816118d591906132cc565b508060080183600401600087815260200190815260200160002060080190816118fe91906132cc565b508060040154826002016000836005015481526020019081526020016000206000898152602001908152602001600020600082825461193d9190613050565b9250508190555050505050505050565b6000611957612052565b905080600501600081548092919061196e90612d2a565b91905055506040518060e001604052808260050154815260200182600201600089815260200190815260200160002060010154815260200186815260200185815260200182600201600089815260200190815260200160002060060180546119d590612da1565b80601f0160208091040260200160405190810160405280929190818152602001828054611a0190612da1565b8015611a4e5780601f10611a2357610100808354040283529160200191611a4e565b820191906000526020600020905b815481529060010190602001808311611a3157829003601f168201915b505050505081526020018481526020018381525081600601600083600501548152602001908152602001600020600082015181600001556020820151816001015560408201518160020155606082015181600301556080820151816004019081611ab89190612f7e565b5060a0820151816005019081611ace9190612f7e565b5060c0820151816006019081611ae49190612f7e565b50905050505050505050565b611af86121e4565b6000611b02612052565b905080600201600084815260200190815260200160002060405180610100016040529081600082015481526020016001820154815260200160028201548152602001600382015481526020016004820154815260200160058201548152602001600682018054611b7190612da1565b80601f0160208091040260200160405190810160405280929190818152602001828054611b9d90612da1565b8015611bea5780601f10611bbf57610100808354040283529160200191611bea565b820191906000526020600020905b815481529060010190602001808311611bcd57829003601f168201915b50505050508152602001600782018054611c0390612da1565b80601f0160208091040260200160405190810160405280929190818152602001828054611c2f90612da1565b8015611c7c5780601f10611c5157610100808354040283529160200191611c7c565b820191906000526020600020905b815481529060010190602001808311611c5f57829003601f168201915b505050505081525050915050919050565b6000611c9761207f565b90506000611ca3612052565b90506000611caf6120ac565b905060008360030160008881526020019081526020016000206002015414611cd657600080fd5b3373ffffffffffffffffffffffffffffffffffffffff1683600201600088815260200190815260200160002060009054906101000a900473ffffffffffffffffffffffffffffffffffffffff1673ffffffffffffffffffffffffffffffffffffffff1614611d79576040517f08c379a0000000000000000000000000000000000000000000000000000000008152600401611d7090613104565b60405180910390fd5b81600401600086815260200190815260200160002060090160009054906101000a900460ff1615611ddf576040517f08c379a0000000000000000000000000000000000000000000000000000000008152600401611dd690613170565b60405180910390fd5b6000826006016000868152602001908152602001600020905080600301548260020160003373ffffffffffffffffffffffffffffffffffffffff1673ffffffffffffffffffffffffffffffffffffffff168152602001908152602001600020541015611e80576040517f08c379a0000000000000000000000000000000000000000000000000000000008152600401611e7790613400565b60405180910390fd5b868360040160008881526020019081526020016000206006015414611ea457600080fd5b80600401604051602001611eb8919061321e565b60405160208183030381529060405280519060200120836004016000888152602001908152602001600020600701604051602001611ef6919061321e565b6040516020818303038152906040528051906020012014611f4c576040517f08c379a0000000000000000000000000000000000000000000000000000000008152600401611f4390613281565b60405180910390fd5b80600301548260020160003373ffffffffffffffffffffffffffffffffffffffff1673ffffffffffffffffffffffffffffffffffffffff1681526020019081526020016000206000828254611fa19190613050565b925050819055508260040160008781526020019081526020016000206003016000815480929190611fd190612d2a565b919050555080600201548360040160008881526020019081526020016000206004018190555080600501836004016000888152602001908152602001600020600701908161201f91906132cc565b5080600601836004016000888152602001908152602001600020600801908161204891906132cc565b5050505050505050565b6000807faad0511195ddfb575f5187a7172ca6fc330f129a86291f15eaa5f7537ab038dc90508091505090565b6000807f3cab9a070a0c61cd0ae9d9e9e2c0781e5ca8691bec4087e5a4701d5ac018dd4e90508091505090565b6000807f2c89d74504b6ad8d4fbde22bc3474166bac5452a11195897f239d8bebe02d70790508091505090565b6000807fb5dbbc334907f600e1151190a68c4043043163a23a907389a2c6f6231ed4318b90508091505090565b6040518061012001604052806000815260200160008152602001600081526020016000815260200160008152602001600081526020016060815260200160608152602001606081525090565b6040518060e00160405280600081526020016000815260200160008152602001600081526020016060815260200160608152602001606081525090565b6040518061014001604052806000815260200160008152602001600081526020016000815260200160008152602001600081526020016000815260200160608152602001606081526020016000151581525090565b60405180610100016040528060008152602001600081526020016000815260200160008152602001600081526020016000815260200160608152602001606081525090565b6000604051905090565b600080fd5b600080fd5b6000819050919050565b6122508161223d565b811461225b57600080fd5b50565b60008135905061226d81612247565b92915050565b600080fd5b600080fd5b6000601f19601f8301169050919050565b7f4e487b7100000000000000000000000000000000000000000000000000000000600052604160045260246000fd5b6122c68261227d565b810181811067ffffffffffffffff821117156122e5576122e461228e565b5b80604052505050565b60006122f8612229565b905061230482826122bd565b919050565b600067ffffffffffffffff8211156123245761232361228e565b5b61232d8261227d565b9050602081019050919050565b82818337600083830152505050565b600061235c61235784612309565b6122ee565b90508281526020810184848401111561237857612377612278565b5b61238384828561233a565b509392505050565b600082601f8301126123a05761239f612273565b5b81356123b0848260208601612349565b91505092915050565b600080600080600080600060e0888a0312156123d8576123d7612233565b5b60006123e68a828b0161225e565b97505060206123f78a828b0161225e565b96505060406124088a828b0161225e565b95505060606124198a828b0161225e565b945050608061242a8a828b0161225e565b93505060a088013567ffffffffffffffff81111561244b5761244a612238565b5b6124578a828b0161238b565b92505060c088013567ffffffffffffffff81111561247857612477612238565b5b6124848a828b0161238b565b91505092959891949750929550565b61249c8161223d565b82525050565b60006020820190506124b76000830184612493565b92915050565b6000602082840312156124d3576124d2612233565b5b60006124e18482850161225e565b91505092915050565b6124f38161223d565b82525050565b600081519050919050565b600082825260208201905092915050565b60005b83811015612533578082015181840152602081019050612518565b60008484015250505050565b600061254a826124f9565b6125548185612504565b9350612564818560208601612515565b61256d8161227d565b840191505092915050565b60006101208301600083015161259160008601826124ea565b5060208301516125a460208601826124ea565b5060408301516125b760408601826124ea565b5060608301516125ca60608601826124ea565b5060808301516125dd60808601826124ea565b5060a08301516125f060a08601826124ea565b5060c083015184820360c0860152612608828261253f565b91505060e083015184820360e0860152612622828261253f565b91505061010083015184820361010086015261263e828261253f565b9150508091505092915050565b600060208201905081810360008301526126658184612578565b905092915050565b6000806040838503121561268457612683612233565b5b60006126928582860161225e565b92505060206126a38582860161225e565b9150509250929050565b600060e0830160008301516126c560008601826124ea565b5060208301516126d860208601826124ea565b5060408301516126eb60408601826124ea565b5060608301516126fe60608601826124ea565b5060808301518482036080860152612716828261253f565b91505060a083015184820360a0860152612730828261253f565b91505060c083015184820360c086015261274a828261253f565b9150508091505092915050565b6000602082019050818103600083015261277181846126ad565b905092915050565b60008115159050919050565b61278e81612779565b82525050565b6000610140830160008301516127ad60008601826124ea565b5060208301516127c060208601826124ea565b5060408301516127d360408601826124ea565b5060608301516127e660608601826124ea565b5060808301516127f960808601826124ea565b5060a083015161280c60a08601826124ea565b5060c083015161281f60c08601826124ea565b5060e083015184820360e0860152612837828261253f565b915050610100830151848203610100860152612853828261253f565b91505061012083015161286a610120860182612785565b508091505092915050565b6000602082019050818103600083015261288f8184612794565b905092915050565b600080600080600080600080610100898b0312156128b8576128b7612233565b5b60006128c68b828c0161225e565b98505060206128d78b828c0161225e565b97505060406128e88b828c0161225e565b96505060606128f98b828c0161225e565b955050608061290a8b828c0161225e565b94505060a089013567ffffffffffffffff81111561292b5761292a612238565b5b6129378b828c0161238b565b93505060c089013567ffffffffffffffff81111561295857612957612238565b5b6129648b828c0161238b565b92505060e089013567ffffffffffffffff81111561298557612984612238565b5b6129918b828c0161238b565b9150509295985092959890939650565b600081519050919050565b600082825260208201905092915050565b6000819050602082019050919050565b60006129d983836124ea565b60208301905092915050565b6000602082019050919050565b60006129fd826129a1565b612a0781856129ac565b9350612a12836129bd565b8060005b83811015612a43578151612a2a88826129cd565b9750612a35836129e5565b925050600181019050612a16565b5085935050505092915050565b60006020820190508181036000830152612a6a81846129f2565b905092915050565b600080600060608486031215612a8b57612a8a612233565b5b6000612a998682870161225e565b9350506020612aaa8682870161225e565b9250506040612abb8682870161225e565b9150509250925092565b600080600080600060a08688031215612ae157612ae0612233565b5b6000612aef8882890161225e565b9550506020612b008882890161225e565b9450506040612b118882890161225e565b935050606086013567ffffffffffffffff811115612b3257612b31612238565b5b612b3e8882890161238b565b925050608086013567ffffffffffffffff811115612b5f57612b5e612238565b5b612b6b8882890161238b565b9150509295509295909350565b600061010083016000830151612b9160008601826124ea565b506020830151612ba460208601826124ea565b506040830151612bb760408601826124ea565b506060830151612bca60608601826124ea565b506080830151612bdd60808601826124ea565b5060a0830151612bf060a08601826124ea565b5060c083015184820360c0860152612c08828261253f565b91505060e083015184820360e0860152612c22828261253f565b9150508091505092915050565b60006020820190508181036000830152612c498184612b78565b905092915050565b600082825260208201905092915050565b6000612c6d826124f9565b612c778185612c51565b9350612c87818560208601612515565b612c908161227d565b840191505092915050565b60006040820190508181036000830152612cb58185612c62565b90508181036020830152612cc98184612b78565b90509392505050565b6000604082019050612ce76000830185612493565b612cf46020830184612493565b9392505050565b7f4e487b7100000000000000000000000000000000000000000000000000000000600052601160045260246000fd5b6000612d358261223d565b91507fffffffffffffffffffffffffffffffffffffffffffffffffffffffffffffffff8203612d6757612d66612cfb565b5b600182019050919050565b7f4e487b7100000000000000000000000000000000000000000000000000000000600052602260045260246000fd5b60006002820490506001821680612db957607f821691505b602082108103612dcc57612dcb612d72565b5b50919050565b60008190508160005260206000209050919050565b60006020601f8301049050919050565b600082821b905092915050565b600060088302612e347fffffffffffffffffffffffffffffffffffffffffffffffffffffffffffffffff82612df7565b612e3e8683612df7565b95508019841693508086168417925050509392505050565b6000819050919050565b6000612e7b612e76612e718461223d565b612e56565b61223d565b9050919050565b6000819050919050565b612e9583612e60565b612ea9612ea182612e82565b848454612e04565b825550505050565b600090565b612ebe612eb1565b612ec9818484612e8c565b505050565b5b81811015612eed57612ee2600082612eb6565b600181019050612ecf565b5050565b601f821115612f3257612f0381612dd2565b612f0c84612de7565b81016020851015612f1b578190505b612f2f612f2785612de7565b830182612ece565b50505b505050565b600082821c905092915050565b6000612f5560001984600802612f37565b1980831691505092915050565b6000612f6e8383612f44565b9150826002028217905092915050565b612f87826124f9565b67ffffffffffffffff811115612fa057612f9f61228e565b5b612faa8254612da1565b612fb5828285612ef1565b600060209050601f831160018114612fe85760008415612fd6578287015190505b612fe08582612f62565b865550613048565b601f198416612ff686612dd2565b60005b8281101561301e57848901518255600182019150602085019450602081019050612ff9565b8683101561303b5784890151613037601f891682612f44565b8355505b6001600288020188555050505b505050505050565b600061305b8261223d565b91506130668361223d565b925082820390508181111561307e5761307d612cfb565b5b92915050565b600061308f8261223d565b915061309a8361223d565b92508282019050808211156130b2576130b1612cfb565b5b92915050565b7f796f7520646f206e6f74206f776e207468697320706c61796572000000000000600082015250565b60006130ee601a83612c51565b91506130f9826130b8565b602082019050919050565b6000602082019050818103600083015261311d816130e1565b9050919050565b7f6d757374206e6f74206265206571756970706564000000000000000000000000600082015250565b600061315a601483612c51565b915061316582613124565b602082019050919050565b600060208201905081810360008301526131898161314d565b9050919050565b600081905092915050565b600081546131a881612da1565b6131b28186613190565b945060018216600081146131cd57600181146131e257613215565b60ff1983168652811515820286019350613215565b6131eb85612dd2565b60005b8381101561320d578154818901526001820191506020810190506131ee565b838801955050505b50505092915050565b600061322a828461319b565b915081905092915050565b7f6e6f74207468652073616d652065717569706d656e74206e616d650000000000600082015250565b600061326b601b83612c51565b915061327682613235565b602082019050919050565b6000602082019050818103600083015261329a8161325e565b9050919050565b6000815490506132b081612da1565b9050919050565b60008190508160005260206000209050919050565b8181036132da5750506133b2565b6132e3826132a1565b67ffffffffffffffff8111156132fc576132fb61228e565b5b6133068254612da1565b613311828285612ef1565b6000601f831160018114613340576000841561332e578287015490505b6133388582612f62565b8655506133ab565b601f19841661334e876132b7565b965061335986612dd2565b60005b828110156133815784890154825560018201915060018501945060208101905061335c565b8683101561339e578489015461339a601f891682612f44565b8355505b6001600288020188555050505b5050505050505b565b7f6e656564206d6f72652067656d00000000000000000000000000000000000000600082015250565b60006133ea600d83612c51565b91506133f5826133b4565b602082019050919050565b60006020820190508181036000830152613419816133dd565b905091905056fea2646970667358221220ce706842131d0a13c4a2cd3df764e1495559d5ae5581edfb1e2274ef04b49bac64736f6c63430008120033",
  "linkReferences": {},
  "deployedLinkReferences": {}
}