{
  "_format": "hh-sol-artifact-1",
  "contractName": "CraftFacet",
  "sourceName": "contracts/facets/CraftFacet.sol",
  "abi": [
    {
      "anonymous": false,
      "inputs": [
        {
          "indexed": true,
          "internalType": "uint256",
          "name": "_playerId",
          "type": "uint256"
        },
        {
          "indexed": false,
          "internalType": "uint256",
          "name": "_equipmentId",
          "type": "uint256"
        },
        {
          "indexed": false,
          "internalType": "uint256",
          "name": "_advancedCraftId",
          "type": "uint256"
        }
      ],
      "name": "AdvancedCraftEvent",
      "type": "event"
    },
    {
      "anonymous": false,
      "inputs": [
        {
          "indexed": true,
          "internalType": "uint256",
          "name": "_playerId",
          "type": "uint256"
        },
        {
          "indexed": false,
          "internalType": "uint256",
          "name": "_equipmentId",
          "type": "uint256"
        },
        {
          "indexed": false,
          "internalType": "uint256",
          "name": "_craftId",
          "type": "uint256"
        }
      ],
      "name": "BasicCraftEvent",
      "type": "event"
    },
    {
      "anonymous": false,
      "inputs": [
        {
          "indexed": true,
          "internalType": "uint256",
          "name": "_basicEquipmentSchemaId",
          "type": "uint256"
        },
        {
          "indexed": true,
          "internalType": "uint256",
          "name": "_value",
          "type": "uint256"
        },
        {
          "indexed": false,
          "internalType": "string",
          "name": "_uri",
          "type": "string"
        },
        {
          "components": [
            {
              "internalType": "uint256",
              "name": "basicEquipmentSchemaId",
              "type": "uint256"
            },
            {
              "internalType": "uint256",
              "name": "slot",
              "type": "uint256"
            },
            {
              "internalType": "uint256",
              "name": "value",
              "type": "uint256"
            },
            {
              "internalType": "uint256",
              "name": "stat",
              "type": "uint256"
            },
            {
              "internalType": "uint256",
              "name": "cost",
              "type": "uint256"
            },
            {
              "internalType": "string",
              "name": "name",
              "type": "string"
            },
            {
              "internalType": "string",
              "name": "uri",
              "type": "string"
            }
          ],
          "indexed": false,
          "internalType": "struct BasicEquipmentSchema",
          "name": "_basicEQuipmentSchema",
          "type": "tuple"
        }
      ],
      "name": "BasicEquipmentSchemaCreated",
      "type": "event"
    },
    {
      "anonymous": false,
      "inputs": [
        {
          "indexed": true,
          "internalType": "uint256",
          "name": "_basicEquipmentSchemaId",
          "type": "uint256"
        },
        {
          "indexed": true,
          "internalType": "uint256",
          "name": "_value",
          "type": "uint256"
        },
        {
          "indexed": false,
          "internalType": "string",
          "name": "_uri",
          "type": "string"
        },
        {
          "components": [
            {
              "internalType": "uint256",
              "name": "basicEquipmentSchemaId",
              "type": "uint256"
            },
            {
              "internalType": "uint256",
              "name": "slot",
              "type": "uint256"
            },
            {
              "internalType": "uint256",
              "name": "value",
              "type": "uint256"
            },
            {
              "internalType": "uint256",
              "name": "stat",
              "type": "uint256"
            },
            {
              "internalType": "uint256",
              "name": "cost",
              "type": "uint256"
            },
            {
              "internalType": "string",
              "name": "name",
              "type": "string"
            },
            {
              "internalType": "string",
              "name": "uri",
              "type": "string"
            }
          ],
          "indexed": false,
          "internalType": "struct BasicEquipmentSchema",
          "name": "_basicEQuipmentSchema",
          "type": "tuple"
        }
      ],
      "name": "BasicEquipmentSchemaUpdate",
      "type": "event"
    },
    {
      "anonymous": false,
      "inputs": [
        {
          "indexed": true,
          "internalType": "uint256",
          "name": "id",
          "type": "uint256"
        },
        {
          "components": [
            {
              "internalType": "uint256",
              "name": "advancedCraftId",
              "type": "uint256"
            },
            {
              "internalType": "uint256",
              "name": "slot",
              "type": "uint256"
            },
            {
              "internalType": "uint256",
              "name": "value",
              "type": "uint256"
            },
            {
              "internalType": "uint256",
              "name": "stat",
              "type": "uint256"
            },
            {
              "internalType": "uint256",
              "name": "amount",
              "type": "uint256"
            },
            {
              "internalType": "uint256",
              "name": "treasureSchemaId",
              "type": "uint256"
            },
            {
              "internalType": "string",
              "name": "oldName",
              "type": "string"
            },
            {
              "internalType": "string",
              "name": "newName",
              "type": "string"
            },
            {
              "internalType": "string",
              "name": "uri",
              "type": "string"
            }
          ],
          "indexed": false,
          "internalType": "struct AdvancedCraft",
          "name": "_advancedCraft",
          "type": "tuple"
        }
      ],
      "name": "CreateAdvancedCraft",
      "type": "event"
    },
    {
      "anonymous": false,
      "inputs": [
        {
          "indexed": true,
          "internalType": "uint256",
          "name": "id",
          "type": "uint256"
        },
        {
          "components": [
            {
              "internalType": "uint256",
              "name": "id",
              "type": "uint256"
            },
            {
              "internalType": "uint256",
              "name": "slot",
              "type": "uint256"
            },
            {
              "internalType": "uint256",
              "name": "value",
              "type": "uint256"
            },
            {
              "internalType": "uint256",
              "name": "cost",
              "type": "uint256"
            },
            {
              "internalType": "string",
              "name": "oldName",
              "type": "string"
            },
            {
              "internalType": "string",
              "name": "newName",
              "type": "string"
            },
            {
              "internalType": "string",
              "name": "uri",
              "type": "string"
            }
          ],
          "indexed": false,
          "internalType": "struct BasicCraft",
          "name": "_basicCraft",
          "type": "tuple"
        }
      ],
      "name": "CreateBasicCraft",
      "type": "event"
    },
    {
      "anonymous": false,
      "inputs": [
        {
          "indexed": true,
          "internalType": "uint256",
          "name": "_playerId",
          "type": "uint256"
        },
        {
          "indexed": false,
          "internalType": "uint256",
          "name": "_equipmentSchemaId",
          "type": "uint256"
        }
      ],
      "name": "PurchaseBasicEquipment",
      "type": "event"
    },
    {
      "inputs": [
        {
          "internalType": "uint256",
          "name": "_playerId",
          "type": "uint256"
        },
        {
          "internalType": "uint256",
          "name": "_advancedCraftId",
          "type": "uint256"
        },
        {
          "internalType": "uint256",
          "name": "_equipmentId",
          "type": "uint256"
        }
      ],
      "name": "advancedCraft",
      "outputs": [],
      "stateMutability": "nonpayable",
      "type": "function"
    },
    {
      "inputs": [
        {
          "internalType": "uint256",
          "name": "_playerId",
          "type": "uint256"
        },
        {
          "internalType": "uint256",
          "name": "_equipmentId",
          "type": "uint256"
        },
        {
          "internalType": "uint256",
          "name": "_craftId",
          "type": "uint256"
        }
      ],
      "name": "basicCraft",
      "outputs": [],
      "stateMutability": "nonpayable",
      "type": "function"
    },
    {
      "inputs": [
        {
          "internalType": "uint256",
          "name": "_treasureSchemaId",
          "type": "uint256"
        },
        {
          "internalType": "uint256",
          "name": "_slot",
          "type": "uint256"
        },
        {
          "internalType": "uint256",
          "name": "_value",
          "type": "uint256"
        },
        {
          "internalType": "uint256",
          "name": "_stat",
          "type": "uint256"
        },
        {
          "internalType": "uint256",
          "name": "_amount",
          "type": "uint256"
        },
        {
          "internalType": "string",
          "name": "_oldName",
          "type": "string"
        },
        {
          "internalType": "string",
          "name": "_newName",
          "type": "string"
        },
        {
          "internalType": "string",
          "name": "_uri",
          "type": "string"
        }
      ],
      "name": "createAdvancedCraft",
      "outputs": [],
      "stateMutability": "nonpayable",
      "type": "function"
    },
    {
      "inputs": [
        {
          "internalType": "uint256",
          "name": "_equipmenSchematId",
          "type": "uint256"
        },
        {
          "internalType": "uint256",
          "name": "_value",
          "type": "uint256"
        },
        {
          "internalType": "uint256",
          "name": "_cost",
          "type": "uint256"
        },
        {
          "internalType": "string",
          "name": "_newName",
          "type": "string"
        },
        {
          "internalType": "string",
          "name": "_uri",
          "type": "string"
        }
      ],
      "name": "createBasicCraft",
      "outputs": [],
      "stateMutability": "nonpayable",
      "type": "function"
    },
    {
      "inputs": [
        {
          "internalType": "uint256",
          "name": "_slot",
          "type": "uint256"
        },
        {
          "internalType": "uint256",
          "name": "_value",
          "type": "uint256"
        },
        {
          "internalType": "uint256",
          "name": "_stat",
          "type": "uint256"
        },
        {
          "internalType": "uint256",
          "name": "_cost",
          "type": "uint256"
        },
        {
          "internalType": "string",
          "name": "_name",
          "type": "string"
        },
        {
          "internalType": "string",
          "name": "_uri",
          "type": "string"
        }
      ],
      "name": "createBasicEquipment",
      "outputs": [],
      "stateMutability": "nonpayable",
      "type": "function"
    },
    {
      "inputs": [
        {
          "internalType": "uint256",
          "name": "_advancedCraftId",
          "type": "uint256"
        }
      ],
      "name": "getAdvancedCraft",
      "outputs": [
        {
          "components": [
            {
              "internalType": "uint256",
              "name": "advancedCraftId",
              "type": "uint256"
            },
            {
              "internalType": "uint256",
              "name": "slot",
              "type": "uint256"
            },
            {
              "internalType": "uint256",
              "name": "value",
              "type": "uint256"
            },
            {
              "internalType": "uint256",
              "name": "stat",
              "type": "uint256"
            },
            {
              "internalType": "uint256",
              "name": "amount",
              "type": "uint256"
            },
            {
              "internalType": "uint256",
              "name": "treasureSchemaId",
              "type": "uint256"
            },
            {
              "internalType": "string",
              "name": "oldName",
              "type": "string"
            },
            {
              "internalType": "string",
              "name": "newName",
              "type": "string"
            },
            {
              "internalType": "string",
              "name": "uri",
              "type": "string"
            }
          ],
          "internalType": "struct AdvancedCraft",
          "name": "",
          "type": "tuple"
        }
      ],
      "stateMutability": "view",
      "type": "function"
    },
    {
      "inputs": [],
      "name": "getAdvancedCraftCount",
      "outputs": [
        {
          "internalType": "uint256",
          "name": "",
          "type": "uint256"
        }
      ],
      "stateMutability": "view",
      "type": "function"
    },
    {
      "inputs": [
        {
          "internalType": "uint256",
          "name": "_basicCraftId",
          "type": "uint256"
        }
      ],
      "name": "getBasicCraft",
      "outputs": [
        {
          "components": [
            {
              "internalType": "uint256",
              "name": "id",
              "type": "uint256"
            },
            {
              "internalType": "uint256",
              "name": "slot",
              "type": "uint256"
            },
            {
              "internalType": "uint256",
              "name": "value",
              "type": "uint256"
            },
            {
              "internalType": "uint256",
              "name": "cost",
              "type": "uint256"
            },
            {
              "internalType": "string",
              "name": "oldName",
              "type": "string"
            },
            {
              "internalType": "string",
              "name": "newName",
              "type": "string"
            },
            {
              "internalType": "string",
              "name": "uri",
              "type": "string"
            }
          ],
          "internalType": "struct BasicCraft",
          "name": "",
          "type": "tuple"
        }
      ],
      "stateMutability": "view",
      "type": "function"
    },
    {
      "inputs": [],
      "name": "getBasicCraftCount",
      "outputs": [
        {
          "internalType": "uint256",
          "name": "",
          "type": "uint256"
        }
      ],
      "stateMutability": "view",
      "type": "function"
    },
    {
      "inputs": [],
      "name": "getBasicEquipmentCount",
      "outputs": [
        {
          "internalType": "uint256",
          "name": "",
          "type": "uint256"
        }
      ],
      "stateMutability": "view",
      "type": "function"
    },
    {
      "inputs": [
        {
          "internalType": "uint256",
          "name": "_basicEquipmentSchemaId",
          "type": "uint256"
        }
      ],
      "name": "getBasicEquipmentSchema",
      "outputs": [
        {
          "components": [
            {
              "internalType": "uint256",
              "name": "basicEquipmentSchemaId",
              "type": "uint256"
            },
            {
              "internalType": "uint256",
              "name": "slot",
              "type": "uint256"
            },
            {
              "internalType": "uint256",
              "name": "value",
              "type": "uint256"
            },
            {
              "internalType": "uint256",
              "name": "stat",
              "type": "uint256"
            },
            {
              "internalType": "uint256",
              "name": "cost",
              "type": "uint256"
            },
            {
              "internalType": "string",
              "name": "name",
              "type": "string"
            },
            {
              "internalType": "string",
              "name": "uri",
              "type": "string"
            }
          ],
          "internalType": "struct BasicEquipmentSchema",
          "name": "",
          "type": "tuple"
        }
      ],
      "stateMutability": "view",
      "type": "function"
    },
    {
      "inputs": [
        {
          "internalType": "uint256",
          "name": "_equipmentId",
          "type": "uint256"
        }
      ],
      "name": "getEquipment",
      "outputs": [
        {
          "components": [
            {
              "internalType": "uint256",
              "name": "id",
              "type": "uint256"
            },
            {
              "internalType": "uint256",
              "name": "pointer",
              "type": "uint256"
            },
            {
              "internalType": "uint256",
              "name": "slot",
              "type": "uint256"
            },
            {
              "internalType": "uint256",
              "name": "rank",
              "type": "uint256"
            },
            {
              "internalType": "uint256",
              "name": "value",
              "type": "uint256"
            },
            {
              "internalType": "uint256",
              "name": "stat",
              "type": "uint256"
            },
            {
              "internalType": "uint256",
              "name": "owner",
              "type": "uint256"
            },
            {
              "internalType": "string",
              "name": "name",
              "type": "string"
            },
            {
              "internalType": "string",
              "name": "uri",
              "type": "string"
            },
            {
              "internalType": "bool",
              "name": "isEquiped",
              "type": "bool"
            }
          ],
          "internalType": "struct Equipment",
          "name": "",
          "type": "tuple"
        }
      ],
      "stateMutability": "view",
      "type": "function"
    },
    {
      "inputs": [
        {
          "internalType": "uint256",
          "name": "_playerId",
          "type": "uint256"
        }
      ],
      "name": "getPlayerToEquipment",
      "outputs": [
        {
          "internalType": "uint256[]",
          "name": "",
          "type": "uint256[]"
        }
      ],
      "stateMutability": "view",
      "type": "function"
    },
    {
      "inputs": [
        {
          "internalType": "uint256",
          "name": "_playerId",
          "type": "uint256"
        },
        {
          "internalType": "uint256",
          "name": "_equipmentSchemaId",
          "type": "uint256"
        }
      ],
      "name": "purchaseBasicEquipment",
      "outputs": [],
      "stateMutability": "nonpayable",
      "type": "function"
    },
    {
      "inputs": [
        {
          "internalType": "uint256",
          "name": "_basicEquipmentSchemaId",
          "type": "uint256"
        },
        {
          "internalType": "uint256",
          "name": "_slot",
          "type": "uint256"
        },
        {
          "internalType": "uint256",
          "name": "_value",
          "type": "uint256"
        },
        {
          "internalType": "uint256",
          "name": "_stat",
          "type": "uint256"
        },
        {
          "internalType": "uint256",
          "name": "_cost",
          "type": "uint256"
        },
        {
          "internalType": "string",
          "name": "_name",
          "type": "string"
        },
        {
          "internalType": "string",
          "name": "_uri",
          "type": "string"
        }
      ],
      "name": "updateBasicEquipmentScehma",
      "outputs": [],
      "stateMutability": "nonpayable",
      "type": "function"
    }
  ],
  "bytecode": "0x608060405234801561001057600080fd5b506133be806100206000396000f3fe608060405234801561001057600080fd5b50600436106100f55760003560e01c806387a1f77f11610097578063c653d4b211610066578063c653d4b214610284578063c87bf952146102a0578063d216e986146102bc578063d6f13898146102ec576100f5565b806387a1f77f146101fe578063b09441c01461021a578063ba06159014610238578063c49dd18814610268576100f5565b806340235b3f116100d357806340235b3f146101645780634bf68ade14610180578063799173c1146101b057806381dd2fa0146101ce576100f5565b806307a4cc23146100fa57806325a2bb66146101165780632bb79ab114610134575b600080fd5b610114600480360381019061010f91906122a4565b610308565b005b61011e6103b5565b60405161012b919061238d565b60405180910390f35b61014e600480360381019061014991906123a8565b6103c4565b60405161015b9190612536565b60405180910390f35b61017e60048036038101906101799190612558565b6103dc565b005b61019a600480360381019061019591906123a8565b610422565b6040516101a79190612642565b60405180910390f35b6101b861043a565b6040516101c5919061238d565b60405180910390f35b6101e860048036038101906101e391906123a8565b610449565b6040516101f59190612760565b60405180910390f35b61021860048036038101906102139190612782565b610461565b005b6102226104c8565b60405161022f919061238d565b60405180910390f35b610252600480360381019061024d91906123a8565b6104d7565b60405161025f919061293b565b60405180910390f35b610282600480360381019061027d919061295d565b6104e9565b005b61029e60048036038101906102999190612a22565b6105a1565b005b6102ba60048036038101906102b59190612a75565b6105eb565b005b6102d660048036038101906102d191906123a8565b61064c565b6040516102e39190612bcb565b60405180910390f35b61030660048036038101906103019190612a22565b610664565b005b600073434d36f32abed3f7937fe0be88dc1b0eb938124490508073ffffffffffffffffffffffffffffffffffffffff163373ffffffffffffffffffffffffffffffffffffffff161461035957600080fd5b610368888888888888886106ae565b85887f8a178ab5b62361fa794647e8b4c0bc01a5448c063921eb7a1a83116205e74be5846103958c61064c565b6040516103a3929190612c37565b60405180910390a35050505050505050565b60006103bf610784565b905090565b6103cc611ff9565b6103d58261079c565b9050919050565b6103e682826109cb565b817fe7504f1059be7db1f858136933fb89f1e9996256b3beab064b8293dcc370860782604051610416919061238d565b60405180910390a25050565b61042a612045565b61043382610e56565b9050919050565b6000610444611070565b905090565b610451612082565b61045a82611088565b9050919050565b610471888888888888888861124a565b600061047b6104c8565b9050807fc14e5f65f74dbf8d4c707bd6500fb63dfb41f2c63bafb61e6798c3a048d4906c6104a8836103c4565b6040516104b59190612536565b60405180910390a2505050505050505050565b60006104d261135a565b905090565b60606104e282611372565b9050919050565b600073434d36f32abed3f7937fe0be88dc1b0eb938124490508073ffffffffffffffffffffffffffffffffffffffff163373ffffffffffffffffffffffffffffffffffffffff161461053a57600080fd5b6105488787878787876113ec565b6000610552610784565b905086817f8a178ab5b62361fa794647e8b4c0bc01a5448c063921eb7a1a83116205e74be5856105818561064c565b60405161058f929190612c37565b60405180910390a35050505050505050565b6105ac8383836114cc565b827f63606c63b2453fc45fa811a363d771bb9678c4c5532d644090ebdbe07765546f82846040516105de929190612c6e565b60405180910390a2505050565b6105f8858585858561184b565b600061060261043a565b9050807fe7ebf37154a7baecdaff82aaaf79c17b0e7ce8cd17c53835ffd29abbc8a833da61062f83610422565b60405161063c9190612642565b60405180910390a2505050505050565b6106546120d7565b61065d826119ee565b9050919050565b61066f838383611b80565b827f91dddbc82058117c5a605d41c7526e95c5b808e19e0a0d5e204cb74b592e98dc83836040516106a1929190612c6e565b60405180910390a2505050565b60006106b8611f45565b9050868160020160008a815260200190815260200160002060010181905550858160020160008a815260200190815260200160002060020181905550848160020160008a815260200190815260200160002060030181905550838160020160008a815260200190815260200160002060040181905550828160020160008a815260200190815260200160002060050190816107539190612ea3565b50818160020160008a815260200190815260200160002060060190816107799190612ea3565b505050505050505050565b60008061078f611f45565b9050806001015491505090565b6107a4611ff9565b60006107ae611f45565b90508060080160008481526020019081526020016000206040518061012001604052908160008201548152602001600182015481526020016002820154815260200160038201548152602001600482015481526020016005820154815260200160068201805461081d90612cc6565b80601f016020809104026020016040519081016040528092919081815260200182805461084990612cc6565b80156108965780601f1061086b57610100808354040283529160200191610896565b820191906000526020600020905b81548152906001019060200180831161087957829003601f168201915b505050505081526020016007820180546108af90612cc6565b80601f01602080910402602001604051908101604052809291908181526020018280546108db90612cc6565b80156109285780601f106108fd57610100808354040283529160200191610928565b820191906000526020600020905b81548152906001019060200180831161090b57829003601f168201915b5050505050815260200160088201805461094190612cc6565b80601f016020809104026020016040519081016040528092919081815260200182805461096d90612cc6565b80156109ba5780601f1061098f576101008083540402835291602001916109ba565b820191906000526020600020905b81548152906001019060200180831161099d57829003601f168201915b505050505081525050915050919050565b60006109d5611f72565b905060006109e1611f45565b905060006109ed611f9f565b905060008360030160008781526020019081526020016000206002015414610a1457600080fd5b3373ffffffffffffffffffffffffffffffffffffffff1683600201600087815260200190815260200160002060009054906101000a900473ffffffffffffffffffffffffffffffffffffffff1673ffffffffffffffffffffffffffffffffffffffff1614610a8157600080fd5b816002016000858152602001908152602001600020600401548160000160003373ffffffffffffffffffffffffffffffffffffffff1673ffffffffffffffffffffffffffffffffffffffff168152602001908152602001600020541015610ae757600080fd5b816000016000815480929190610afc90612fa4565b919050555060405180610140016040528083600001548152602001836006016000888152602001908152602001600020805490508152602001836002016000878152602001908152602001600020600101548152602001600181526020018360020160008781526020019081526020016000206002015481526020018360020160008781526020019081526020016000206003015481526020018681526020018360020160008781526020019081526020016000206005018054610bbf90612cc6565b80601f0160208091040260200160405190810160405280929190818152602001828054610beb90612cc6565b8015610c385780601f10610c0d57610100808354040283529160200191610c38565b820191906000526020600020905b815481529060010190602001808311610c1b57829003601f168201915b505050505081526020018360020160008781526020019081526020016000206006018054610c6590612cc6565b80601f0160208091040260200160405190810160405280929190818152602001828054610c9190612cc6565b8015610cde5780601f10610cb357610100808354040283529160200191610cde565b820191906000526020600020905b815481529060010190602001808311610cc157829003601f168201915b505050505081526020016000151581525082600301600084600001548152602001908152602001600020600082015181600001556020820151816001015560408201518160020155606082015181600301556080820151816004015560a0820151816005015560c0820151816006015560e0820151816007019081610d639190612ea3565b50610100820151816008019081610d7a9190612ea3565b506101208201518160090160006101000a81548160ff02191690831515021790555090505081600601600086815260200190815260200160002082600001549080600181540180825580915050600190039060005260206000200160009091909190915055816002016000858152602001908152602001600020600401548160000160003373ffffffffffffffffffffffffffffffffffffffff1673ffffffffffffffffffffffffffffffffffffffff1681526020019081526020016000206000828254610e489190612fec565b925050819055505050505050565b610e5e612045565b6000610e68611f45565b90508060050160008481526020019081526020016000206040518060e001604052908160008201548152602001600182015481526020016002820154815260200160038201548152602001600482018054610ec290612cc6565b80601f0160208091040260200160405190810160405280929190818152602001828054610eee90612cc6565b8015610f3b5780601f10610f1057610100808354040283529160200191610f3b565b820191906000526020600020905b815481529060010190602001808311610f1e57829003601f168201915b50505050508152602001600582018054610f5490612cc6565b80601f0160208091040260200160405190810160405280929190818152602001828054610f8090612cc6565b8015610fcd5780601f10610fa257610100808354040283529160200191610fcd565b820191906000526020600020905b815481529060010190602001808311610fb057829003601f168201915b50505050508152602001600682018054610fe690612cc6565b80601f016020809104026020016040519081016040528092919081815260200182805461101290612cc6565b801561105f5780601f106110345761010080835404028352916020019161105f565b820191906000526020600020905b81548152906001019060200180831161104257829003601f168201915b505050505081525050915050919050565b60008061107b611f45565b9050806004015491505090565b611090612082565b600061109a611f45565b9050806003016000848152602001908152602001600020604051806101400160405290816000820154815260200160018201548152602001600282015481526020016003820154815260200160048201548152602001600582015481526020016006820154815260200160078201805461111390612cc6565b80601f016020809104026020016040519081016040528092919081815260200182805461113f90612cc6565b801561118c5780601f106111615761010080835404028352916020019161118c565b820191906000526020600020905b81548152906001019060200180831161116f57829003601f168201915b505050505081526020016008820180546111a590612cc6565b80601f01602080910402602001604051908101604052809291908181526020018280546111d190612cc6565b801561121e5780601f106111f35761010080835404028352916020019161121e565b820191906000526020600020905b81548152906001019060200180831161120157829003601f168201915b505050505081526020016009820160009054906101000a900460ff161515151581525050915050919050565b6000611254611f45565b905080600701600081548092919061126b90612fa4565b9190505550604051806101200160405280826007015481526020018981526020018881526020018781526020018681526020018a81526020018581526020018481526020018381525081600801600083600701548152602001908152602001600020600082015181600001556020820151816001015560408201518160020155606082015181600301556080820151816004015560a0820151816005015560c082015181600601908161131e9190612ea3565b5060e08201518160070190816113349190612ea3565b5061010082015181600801908161134b9190612ea3565b50905050505050505050505050565b600080611365611f45565b9050806007015491505090565b6060600061137e611f45565b90508060060160008481526020019081526020016000208054806020026020016040519081016040528092919081815260200182805480156113df57602002820191906000526020600020905b8154815260200190600101908083116113cb575b5050505050915050919050565b60006113f6611f45565b905080600101600081548092919061140d90612fa4565b91905055506040518060e00160405280826001015481526020018881526020018781526020018681526020018581526020018481526020018381525081600201600083600101548152602001908152602001600020600082015181600001556020820151816001015560408201518160020155606082015181600301556080820151816004015560a08201518160050190816114a99190612ea3565b5060c08201518160060190816114bf9190612ea3565b5090505050505050505050565b60006114d6611f72565b905060006114e2611f45565b905060006114ee611fcc565b90506000836003016000888152602001908152602001600020600201541461151557600080fd5b3373ffffffffffffffffffffffffffffffffffffffff1683600201600088815260200190815260200160002060009054906101000a900473ffffffffffffffffffffffffffffffffffffffff1673ffffffffffffffffffffffffffffffffffffffff16146115b8576040517f08c379a00000000000000000000000000000000000000000000000000000000081526004016115af9061306c565b60405180910390fd5b81600301600085815260200190815260200160002060090160009054906101000a900460ff161561161e576040517f08c379a0000000000000000000000000000000000000000000000000000000008152600401611615906130d8565b60405180910390fd5b60008260080160008781526020019081526020016000209050806004015482600201600083600501548152602001908152602001600020600089815260200190815260200160002054101561167257600080fd5b806006016040516020016116869190613186565b604051602081830303815290604052805190602001208360030160008781526020019081526020016000206007016040516020016116c49190613186565b604051602081830303815290604052805190602001201461171a576040517f08c379a0000000000000000000000000000000000000000000000000000000008152600401611711906131e9565b60405180910390fd5b826003016000868152602001908152602001600020600301600081548092919061174390612fa4565b91905055508060020154836003016000878152602001908152602001600020600401819055508060010154836003016000878152602001908152602001600020600201819055508060030154836003016000878152602001908152602001600020600501819055508060070183600301600087815260200190815260200160002060070190816117d39190613234565b508060080183600301600087815260200190815260200160002060080190816117fc9190613234565b508060040154826002016000836005015481526020019081526020016000206000898152602001908152602001600020600082825461183b9190612fec565b9250508190555050505050505050565b6000611855611f45565b905080600401600081548092919061186c90612fa4565b91905055506040518060e001604052808260040154815260200182600201600089815260200190815260200160002060010154815260200186815260200185815260200182600201600089815260200190815260200160002060050180546118d390612cc6565b80601f01602080910402602001604051908101604052809291908181526020018280546118ff90612cc6565b801561194c5780601f106119215761010080835404028352916020019161194c565b820191906000526020600020905b81548152906001019060200180831161192f57829003601f168201915b5050505050815260200184815260200183815250816005016000836004015481526020019081526020016000206000820151816000015560208201518160010155604082015181600201556060820151816003015560808201518160040190816119b69190612ea3565b5060a08201518160050190816119cc9190612ea3565b5060c08201518160060190816119e29190612ea3565b50905050505050505050565b6119f66120d7565b6000611a00611f45565b90508060020160008481526020019081526020016000206040518060e00160405290816000820154815260200160018201548152602001600282015481526020016003820154815260200160048201548152602001600582018054611a6490612cc6565b80601f0160208091040260200160405190810160405280929190818152602001828054611a9090612cc6565b8015611add5780601f10611ab257610100808354040283529160200191611add565b820191906000526020600020905b815481529060010190602001808311611ac057829003601f168201915b50505050508152602001600682018054611af690612cc6565b80601f0160208091040260200160405190810160405280929190818152602001828054611b2290612cc6565b8015611b6f5780601f10611b4457610100808354040283529160200191611b6f565b820191906000526020600020905b815481529060010190602001808311611b5257829003601f168201915b505050505081525050915050919050565b6000611b8a611f72565b90506000611b96611f45565b90506000611ba2611f9f565b905060008360030160008881526020019081526020016000206002015414611bc957600080fd5b3373ffffffffffffffffffffffffffffffffffffffff1683600201600088815260200190815260200160002060009054906101000a900473ffffffffffffffffffffffffffffffffffffffff1673ffffffffffffffffffffffffffffffffffffffff1614611c6c576040517f08c379a0000000000000000000000000000000000000000000000000000000008152600401611c639061306c565b60405180910390fd5b81600301600086815260200190815260200160002060090160009054906101000a900460ff1615611cd2576040517f08c379a0000000000000000000000000000000000000000000000000000000008152600401611cc9906130d8565b60405180910390fd5b6000826005016000868152602001908152602001600020905080600301548260010160003373ffffffffffffffffffffffffffffffffffffffff1673ffffffffffffffffffffffffffffffffffffffff168152602001908152602001600020541015611d73576040517f08c379a0000000000000000000000000000000000000000000000000000000008152600401611d6a90613368565b60405180910390fd5b868360030160008881526020019081526020016000206006015414611d9757600080fd5b80600401604051602001611dab9190613186565b60405160208183030381529060405280519060200120836003016000888152602001908152602001600020600701604051602001611de99190613186565b6040516020818303038152906040528051906020012014611e3f576040517f08c379a0000000000000000000000000000000000000000000000000000000008152600401611e36906131e9565b60405180910390fd5b80600301548260010160003373ffffffffffffffffffffffffffffffffffffffff1673ffffffffffffffffffffffffffffffffffffffff1681526020019081526020016000206000828254611e949190612fec565b925050819055508260030160008781526020019081526020016000206003016000815480929190611ec490612fa4565b9190505550806002015483600301600088815260200190815260200160002060040181905550806005018360030160008881526020019081526020016000206007019081611f129190613234565b50806006018360030160008881526020019081526020016000206008019081611f3b9190613234565b5050505050505050565b6000807faad0511195ddfb575f5187a7172ca6fc330f129a86291f15eaa5f7537ab038dc90508091505090565b6000807f3cab9a070a0c61cd0ae9d9e9e2c0781e5ca8691bec4087e5a4701d5ac018dd4e90508091505090565b6000807f2c89d74504b6ad8d4fbde22bc3474166bac5452a11195897f239d8bebe02d70790508091505090565b6000807fb5dbbc334907f600e1151190a68c4043043163a23a907389a2c6f6231ed4318b90508091505090565b6040518061012001604052806000815260200160008152602001600081526020016000815260200160008152602001600081526020016060815260200160608152602001606081525090565b6040518060e00160405280600081526020016000815260200160008152602001600081526020016060815260200160608152602001606081525090565b6040518061014001604052806000815260200160008152602001600081526020016000815260200160008152602001600081526020016000815260200160608152602001606081526020016000151581525090565b6040518060e00160405280600081526020016000815260200160008152602001600081526020016000815260200160608152602001606081525090565b6000604051905090565b600080fd5b600080fd5b6000819050919050565b61213b81612128565b811461214657600080fd5b50565b60008135905061215881612132565b92915050565b600080fd5b600080fd5b6000601f19601f8301169050919050565b7f4e487b7100000000000000000000000000000000000000000000000000000000600052604160045260246000fd5b6121b182612168565b810181811067ffffffffffffffff821117156121d0576121cf612179565b5b80604052505050565b60006121e3612114565b90506121ef82826121a8565b919050565b600067ffffffffffffffff82111561220f5761220e612179565b5b61221882612168565b9050602081019050919050565b82818337600083830152505050565b6000612247612242846121f4565b6121d9565b90508281526020810184848401111561226357612262612163565b5b61226e848285612225565b509392505050565b600082601f83011261228b5761228a61215e565b5b813561229b848260208601612234565b91505092915050565b600080600080600080600060e0888a0312156122c3576122c261211e565b5b60006122d18a828b01612149565b97505060206122e28a828b01612149565b96505060406122f38a828b01612149565b95505060606123048a828b01612149565b94505060806123158a828b01612149565b93505060a088013567ffffffffffffffff81111561233657612335612123565b5b6123428a828b01612276565b92505060c088013567ffffffffffffffff81111561236357612362612123565b5b61236f8a828b01612276565b91505092959891949750929550565b61238781612128565b82525050565b60006020820190506123a2600083018461237e565b92915050565b6000602082840312156123be576123bd61211e565b5b60006123cc84828501612149565b91505092915050565b6123de81612128565b82525050565b600081519050919050565b600082825260208201905092915050565b60005b8381101561241e578082015181840152602081019050612403565b60008484015250505050565b6000612435826123e4565b61243f81856123ef565b935061244f818560208601612400565b61245881612168565b840191505092915050565b60006101208301600083015161247c60008601826123d5565b50602083015161248f60208601826123d5565b5060408301516124a260408601826123d5565b5060608301516124b560608601826123d5565b5060808301516124c860808601826123d5565b5060a08301516124db60a08601826123d5565b5060c083015184820360c08601526124f3828261242a565b91505060e083015184820360e086015261250d828261242a565b915050610100830151848203610100860152612529828261242a565b9150508091505092915050565b600060208201905081810360008301526125508184612463565b905092915050565b6000806040838503121561256f5761256e61211e565b5b600061257d85828601612149565b925050602061258e85828601612149565b9150509250929050565b600060e0830160008301516125b060008601826123d5565b5060208301516125c360208601826123d5565b5060408301516125d660408601826123d5565b5060608301516125e960608601826123d5565b5060808301518482036080860152612601828261242a565b91505060a083015184820360a086015261261b828261242a565b91505060c083015184820360c0860152612635828261242a565b9150508091505092915050565b6000602082019050818103600083015261265c8184612598565b905092915050565b60008115159050919050565b61267981612664565b82525050565b60006101408301600083015161269860008601826123d5565b5060208301516126ab60208601826123d5565b5060408301516126be60408601826123d5565b5060608301516126d160608601826123d5565b5060808301516126e460808601826123d5565b5060a08301516126f760a08601826123d5565b5060c083015161270a60c08601826123d5565b5060e083015184820360e0860152612722828261242a565b91505061010083015184820361010086015261273e828261242a565b915050610120830151612755610120860182612670565b508091505092915050565b6000602082019050818103600083015261277a818461267f565b905092915050565b600080600080600080600080610100898b0312156127a3576127a261211e565b5b60006127b18b828c01612149565b98505060206127c28b828c01612149565b97505060406127d38b828c01612149565b96505060606127e48b828c01612149565b95505060806127f58b828c01612149565b94505060a089013567ffffffffffffffff81111561281657612815612123565b5b6128228b828c01612276565b93505060c089013567ffffffffffffffff81111561284357612842612123565b5b61284f8b828c01612276565b92505060e089013567ffffffffffffffff8111156128705761286f612123565b5b61287c8b828c01612276565b9150509295985092959890939650565b600081519050919050565b600082825260208201905092915050565b6000819050602082019050919050565b60006128c483836123d5565b60208301905092915050565b6000602082019050919050565b60006128e88261288c565b6128f28185612897565b93506128fd836128a8565b8060005b8381101561292e57815161291588826128b8565b9750612920836128d0565b925050600181019050612901565b5085935050505092915050565b6000602082019050818103600083015261295581846128dd565b905092915050565b60008060008060008060c0878903121561297a5761297961211e565b5b600061298889828a01612149565b965050602061299989828a01612149565b95505060406129aa89828a01612149565b94505060606129bb89828a01612149565b935050608087013567ffffffffffffffff8111156129dc576129db612123565b5b6129e889828a01612276565b92505060a087013567ffffffffffffffff811115612a0957612a08612123565b5b612a1589828a01612276565b9150509295509295509295565b600080600060608486031215612a3b57612a3a61211e565b5b6000612a4986828701612149565b9350506020612a5a86828701612149565b9250506040612a6b86828701612149565b9150509250925092565b600080600080600060a08688031215612a9157612a9061211e565b5b6000612a9f88828901612149565b9550506020612ab088828901612149565b9450506040612ac188828901612149565b935050606086013567ffffffffffffffff811115612ae257612ae1612123565b5b612aee88828901612276565b925050608086013567ffffffffffffffff811115612b0f57612b0e612123565b5b612b1b88828901612276565b9150509295509295909350565b600060e083016000830151612b4060008601826123d5565b506020830151612b5360208601826123d5565b506040830151612b6660408601826123d5565b506060830151612b7960608601826123d5565b506080830151612b8c60808601826123d5565b5060a083015184820360a0860152612ba4828261242a565b91505060c083015184820360c0860152612bbe828261242a565b9150508091505092915050565b60006020820190508181036000830152612be58184612b28565b905092915050565b600082825260208201905092915050565b6000612c09826123e4565b612c138185612bed565b9350612c23818560208601612400565b612c2c81612168565b840191505092915050565b60006040820190508181036000830152612c518185612bfe565b90508181036020830152612c658184612b28565b90509392505050565b6000604082019050612c83600083018561237e565b612c90602083018461237e565b9392505050565b7f4e487b7100000000000000000000000000000000000000000000000000000000600052602260045260246000fd5b60006002820490506001821680612cde57607f821691505b602082108103612cf157612cf0612c97565b5b50919050565b60008190508160005260206000209050919050565b60006020601f8301049050919050565b600082821b905092915050565b600060088302612d597fffffffffffffffffffffffffffffffffffffffffffffffffffffffffffffffff82612d1c565b612d638683612d1c565b95508019841693508086168417925050509392505050565b6000819050919050565b6000612da0612d9b612d9684612128565b612d7b565b612128565b9050919050565b6000819050919050565b612dba83612d85565b612dce612dc682612da7565b848454612d29565b825550505050565b600090565b612de3612dd6565b612dee818484612db1565b505050565b5b81811015612e1257612e07600082612ddb565b600181019050612df4565b5050565b601f821115612e5757612e2881612cf7565b612e3184612d0c565b81016020851015612e40578190505b612e54612e4c85612d0c565b830182612df3565b50505b505050565b600082821c905092915050565b6000612e7a60001984600802612e5c565b1980831691505092915050565b6000612e938383612e69565b9150826002028217905092915050565b612eac826123e4565b67ffffffffffffffff811115612ec557612ec4612179565b5b612ecf8254612cc6565b612eda828285612e16565b600060209050601f831160018114612f0d5760008415612efb578287015190505b612f058582612e87565b865550612f6d565b601f198416612f1b86612cf7565b60005b82811015612f4357848901518255600182019150602085019450602081019050612f1e565b86831015612f605784890151612f5c601f891682612e69565b8355505b6001600288020188555050505b505050505050565b7f4e487b7100000000000000000000000000000000000000000000000000000000600052601160045260246000fd5b6000612faf82612128565b91507fffffffffffffffffffffffffffffffffffffffffffffffffffffffffffffffff8203612fe157612fe0612f75565b5b600182019050919050565b6000612ff782612128565b915061300283612128565b925082820390508181111561301a57613019612f75565b5b92915050565b7f796f7520646f206e6f74206f776e207468697320706c61796572000000000000600082015250565b6000613056601a83612bed565b915061306182613020565b602082019050919050565b6000602082019050818103600083015261308581613049565b9050919050565b7f6d757374206e6f74206265206571756970706564000000000000000000000000600082015250565b60006130c2601483612bed565b91506130cd8261308c565b602082019050919050565b600060208201905081810360008301526130f1816130b5565b9050919050565b600081905092915050565b6000815461311081612cc6565b61311a81866130f8565b94506001821660008114613135576001811461314a5761317d565b60ff198316865281151582028601935061317d565b61315385612cf7565b60005b8381101561317557815481890152600182019150602081019050613156565b838801955050505b50505092915050565b60006131928284613103565b915081905092915050565b7f6e6f74207468652073616d652065717569706d656e74206e616d650000000000600082015250565b60006131d3601b83612bed565b91506131de8261319d565b602082019050919050565b60006020820190508181036000830152613202816131c6565b9050919050565b60008154905061321881612cc6565b9050919050565b60008190508160005260206000209050919050565b81810361324257505061331a565b61324b82613209565b67ffffffffffffffff81111561326457613263612179565b5b61326e8254612cc6565b613279828285612e16565b6000601f8311600181146132a85760008415613296578287015490505b6132a08582612e87565b865550613313565b601f1984166132b68761321f565b96506132c186612cf7565b60005b828110156132e9578489015482556001820191506001850194506020810190506132c4565b868310156133065784890154613302601f891682612e69565b8355505b6001600288020188555050505b5050505050505b565b7f6e656564206d6f72652067656d00000000000000000000000000000000000000600082015250565b6000613352600d83612bed565b915061335d8261331c565b602082019050919050565b6000602082019050818103600083015261338181613345565b905091905056fea2646970667358221220224fda7579f2e75a3bd87d355e52edaf738edb8d7ea4e5b4f7adeddb97e2456464736f6c63430008120033",
  "linkReferences": {},
  "deployedLinkReferences": {}
}