{
  "_format": "hh-sol-artifact-1",
  "contractName": "CraftFacet",
  "sourceName": "contracts/facets/CraftFacet.sol",
  "abi": [
    {
      "anonymous": false,
      "inputs": [
        {
          "indexed": true,
          "internalType": "uint256",
          "name": "_basicEquipmentSchemaId",
          "type": "uint256"
        },
        {
          "indexed": true,
          "internalType": "uint256",
          "name": "_value",
          "type": "uint256"
        },
        {
          "indexed": false,
          "internalType": "string",
          "name": "_uri",
          "type": "string"
        }
      ],
      "name": "BasicEquipmentSchemaCreated",
      "type": "event"
    },
    {
      "anonymous": false,
      "inputs": [
        {
          "indexed": true,
          "internalType": "uint256",
          "name": "_playerId",
          "type": "uint256"
        },
        {
          "indexed": false,
          "internalType": "uint256",
          "name": "_equipmentSchemaId",
          "type": "uint256"
        }
      ],
      "name": "PurchaseBasicEquipment",
      "type": "event"
    },
    {
      "inputs": [
        {
          "internalType": "uint256",
          "name": "_slot",
          "type": "uint256"
        },
        {
          "internalType": "uint256",
          "name": "_value",
          "type": "uint256"
        },
        {
          "internalType": "uint256",
          "name": "_stat",
          "type": "uint256"
        },
        {
          "internalType": "uint256",
          "name": "_cost",
          "type": "uint256"
        },
        {
          "internalType": "string",
          "name": "_name",
          "type": "string"
        },
        {
          "internalType": "string",
          "name": "_uri",
          "type": "string"
        }
      ],
      "name": "_createBasicEquipment",
      "outputs": [],
      "stateMutability": "nonpayable",
      "type": "function"
    },
    {
      "inputs": [],
      "name": "getBasicEquipmentCount",
      "outputs": [
        {
          "internalType": "uint256",
          "name": "",
          "type": "uint256"
        }
      ],
      "stateMutability": "view",
      "type": "function"
    },
    {
      "inputs": [
        {
          "internalType": "uint256",
          "name": "_basicEquipmentSchemaId",
          "type": "uint256"
        }
      ],
      "name": "getBasicEquipmentSchema",
      "outputs": [
        {
          "components": [
            {
              "internalType": "uint256",
              "name": "basicEquipmentSchemaId",
              "type": "uint256"
            },
            {
              "internalType": "uint256",
              "name": "slot",
              "type": "uint256"
            },
            {
              "internalType": "uint256",
              "name": "value",
              "type": "uint256"
            },
            {
              "internalType": "uint256",
              "name": "stat",
              "type": "uint256"
            },
            {
              "internalType": "uint256",
              "name": "cost",
              "type": "uint256"
            },
            {
              "internalType": "string",
              "name": "name",
              "type": "string"
            },
            {
              "internalType": "string",
              "name": "uri",
              "type": "string"
            }
          ],
          "internalType": "struct BasicEquipmentSchema",
          "name": "",
          "type": "tuple"
        }
      ],
      "stateMutability": "view",
      "type": "function"
    },
    {
      "inputs": [
        {
          "internalType": "uint256",
          "name": "_equipmentId",
          "type": "uint256"
        }
      ],
      "name": "getEquipment",
      "outputs": [
        {
          "components": [
            {
              "internalType": "uint256",
              "name": "id",
              "type": "uint256"
            },
            {
              "internalType": "uint256",
              "name": "pointer",
              "type": "uint256"
            },
            {
              "internalType": "uint256",
              "name": "slot",
              "type": "uint256"
            },
            {
              "internalType": "uint256",
              "name": "rank",
              "type": "uint256"
            },
            {
              "internalType": "uint256",
              "name": "value",
              "type": "uint256"
            },
            {
              "internalType": "uint256",
              "name": "stat",
              "type": "uint256"
            },
            {
              "internalType": "uint256",
              "name": "owner",
              "type": "uint256"
            },
            {
              "internalType": "string",
              "name": "name",
              "type": "string"
            },
            {
              "internalType": "string",
              "name": "uri",
              "type": "string"
            },
            {
              "internalType": "bool",
              "name": "isEquiped",
              "type": "bool"
            }
          ],
          "internalType": "struct Equipment",
          "name": "",
          "type": "tuple"
        }
      ],
      "stateMutability": "view",
      "type": "function"
    },
    {
      "inputs": [
        {
          "internalType": "uint256",
          "name": "_playerId",
          "type": "uint256"
        }
      ],
      "name": "getPlayerToEquipment",
      "outputs": [
        {
          "internalType": "uint256[]",
          "name": "",
          "type": "uint256[]"
        }
      ],
      "stateMutability": "view",
      "type": "function"
    },
    {
      "inputs": [
        {
          "internalType": "uint256",
          "name": "_playerId",
          "type": "uint256"
        },
        {
          "internalType": "uint256",
          "name": "_equipmentSchemaId",
          "type": "uint256"
        }
      ],
      "name": "purchaseBasicEquipment",
      "outputs": [],
      "stateMutability": "nonpayable",
      "type": "function"
    }
  ],
  "bytecode": "0x608060405234801561001057600080fd5b5061174f806100206000396000f3fe608060405234801561001057600080fd5b50600436106100625760003560e01c806325a2bb661461006757806340235b3f1461008557806381dd2fa0146100a1578063ba061590146100d1578063c696a77614610101578063d216e9861461011d575b600080fd5b61006f61014d565b60405161007c9190610d0f565b60405180910390f35b61009f600480360381019061009a9190610d6a565b61015c565b005b6100bb60048036038101906100b69190610daa565b6101a2565b6040516100c89190610f72565b60405180910390f35b6100eb60048036038101906100e69190610daa565b6101ba565b6040516100f89190611043565b60405180910390f35b61011b6004803603810190610116919061119a565b6101cc565b005b61013760048036038101906101329190610daa565b610274565b6040516101449190611302565b60405180910390f35b600061015761028c565b905090565b61016682826102a4565b817fe7504f1059be7db1f858136933fb89f1e9996256b3beab064b8293dcc3708607826040516101969190610d0f565b60405180910390a25050565b6101aa610c64565b6101b38261072f565b9050919050565b60606101c5826108f1565b9050919050565b600073434d36f32abed3f7937fe0be88dc1b0eb938124490508073ffffffffffffffffffffffffffffffffffffffff163373ffffffffffffffffffffffffffffffffffffffff161461021d57600080fd5b61022b87878787878761096b565b8561023461028c565b7fe95655014ca2b6e8a6a6cabefa1784441c578a60833d2b4d04e4cd6112b1f77b84604051610263919061136e565b60405180910390a350505050505050565b61027c610cb9565b61028582610a4b565b9050919050565b600080610297610bdd565b9050806001015491505090565b60006102ae610c0a565b905060006102ba610bdd565b905060006102c6610c37565b9050600083600301600087815260200190815260200160002060020154146102ed57600080fd5b3373ffffffffffffffffffffffffffffffffffffffff1683600201600087815260200190815260200160002060009054906101000a900473ffffffffffffffffffffffffffffffffffffffff1673ffffffffffffffffffffffffffffffffffffffff161461035a57600080fd5b816002016000858152602001908152602001600020600401548160000160003373ffffffffffffffffffffffffffffffffffffffff1673ffffffffffffffffffffffffffffffffffffffff1681526020019081526020016000205410156103c057600080fd5b8160000160008154809291906103d5906113bf565b91905055506040518061014001604052808360000154815260200183600601600088815260200190815260200160002080549050815260200183600201600087815260200190815260200160002060010154815260200160018152602001836002016000878152602001908152602001600020600201548152602001836002016000878152602001908152602001600020600301548152602001868152602001836002016000878152602001908152602001600020600501805461049890611436565b80601f01602080910402602001604051908101604052809291908181526020018280546104c490611436565b80156105115780601f106104e657610100808354040283529160200191610511565b820191906000526020600020905b8154815290600101906020018083116104f457829003601f168201915b50505050508152602001836002016000878152602001908152602001600020600601805461053e90611436565b80601f016020809104026020016040519081016040528092919081815260200182805461056a90611436565b80156105b75780601f1061058c576101008083540402835291602001916105b7565b820191906000526020600020905b81548152906001019060200180831161059a57829003601f168201915b505050505081526020016000151581525082600301600084600001548152602001908152602001600020600082015181600001556020820151816001015560408201518160020155606082015181600301556080820151816004015560a0820151816005015560c0820151816006015560e082015181600701908161063c9190611613565b506101008201518160080190816106539190611613565b506101208201518160090160006101000a81548160ff02191690831515021790555090505081600601600086815260200190815260200160002082600001549080600181540180825580915050600190039060005260206000200160009091909190915055816002016000858152602001908152602001600020600401548160000160003373ffffffffffffffffffffffffffffffffffffffff1673ffffffffffffffffffffffffffffffffffffffff168152602001908152602001600020600082825461072191906116e5565b925050819055505050505050565b610737610c64565b6000610741610bdd565b905080600301600084815260200190815260200160002060405180610140016040529081600082015481526020016001820154815260200160028201548152602001600382015481526020016004820154815260200160058201548152602001600682015481526020016007820180546107ba90611436565b80601f01602080910402602001604051908101604052809291908181526020018280546107e690611436565b80156108335780601f1061080857610100808354040283529160200191610833565b820191906000526020600020905b81548152906001019060200180831161081657829003601f168201915b5050505050815260200160088201805461084c90611436565b80601f016020809104026020016040519081016040528092919081815260200182805461087890611436565b80156108c55780601f1061089a576101008083540402835291602001916108c5565b820191906000526020600020905b8154815290600101906020018083116108a857829003601f168201915b505050505081526020016009820160009054906101000a900460ff161515151581525050915050919050565b606060006108fd610bdd565b905080600601600084815260200190815260200160002080548060200260200160405190810160405280929190818152602001828054801561095e57602002820191906000526020600020905b81548152602001906001019080831161094a575b5050505050915050919050565b6000610975610bdd565b905080600101600081548092919061098c906113bf565b91905055506040518060e00160405280826001015481526020018881526020018781526020018681526020018581526020018481526020018381525081600201600083600101548152602001908152602001600020600082015181600001556020820151816001015560408201518160020155606082015181600301556080820151816004015560a0820151816005019081610a289190611613565b5060c0820151816006019081610a3e9190611613565b5090505050505050505050565b610a53610cb9565b6000610a5d610bdd565b90508060020160008481526020019081526020016000206040518060e00160405290816000820154815260200160018201548152602001600282015481526020016003820154815260200160048201548152602001600582018054610ac190611436565b80601f0160208091040260200160405190810160405280929190818152602001828054610aed90611436565b8015610b3a5780601f10610b0f57610100808354040283529160200191610b3a565b820191906000526020600020905b815481529060010190602001808311610b1d57829003601f168201915b50505050508152602001600682018054610b5390611436565b80601f0160208091040260200160405190810160405280929190818152602001828054610b7f90611436565b8015610bcc5780601f10610ba157610100808354040283529160200191610bcc565b820191906000526020600020905b815481529060010190602001808311610baf57829003601f168201915b505050505081525050915050919050565b6000807faad0511195ddfb575f5187a7172ca6fc330f129a86291f15eaa5f7537ab038dc90508091505090565b6000807f3cab9a070a0c61cd0ae9d9e9e2c0781e5ca8691bec4087e5a4701d5ac018dd4e90508091505090565b6000807f2c89d74504b6ad8d4fbde22bc3474166bac5452a11195897f239d8bebe02d70790508091505090565b6040518061014001604052806000815260200160008152602001600081526020016000815260200160008152602001600081526020016000815260200160608152602001606081526020016000151581525090565b6040518060e00160405280600081526020016000815260200160008152602001600081526020016000815260200160608152602001606081525090565b6000819050919050565b610d0981610cf6565b82525050565b6000602082019050610d246000830184610d00565b92915050565b6000604051905090565b600080fd5b600080fd5b610d4781610cf6565b8114610d5257600080fd5b50565b600081359050610d6481610d3e565b92915050565b60008060408385031215610d8157610d80610d34565b5b6000610d8f85828601610d55565b9250506020610da085828601610d55565b9150509250929050565b600060208284031215610dc057610dbf610d34565b5b6000610dce84828501610d55565b91505092915050565b610de081610cf6565b82525050565b600081519050919050565b600082825260208201905092915050565b60005b83811015610e20578082015181840152602081019050610e05565b60008484015250505050565b6000601f19601f8301169050919050565b6000610e4882610de6565b610e528185610df1565b9350610e62818560208601610e02565b610e6b81610e2c565b840191505092915050565b60008115159050919050565b610e8b81610e76565b82525050565b600061014083016000830151610eaa6000860182610dd7565b506020830151610ebd6020860182610dd7565b506040830151610ed06040860182610dd7565b506060830151610ee36060860182610dd7565b506080830151610ef66080860182610dd7565b5060a0830151610f0960a0860182610dd7565b5060c0830151610f1c60c0860182610dd7565b5060e083015184820360e0860152610f348282610e3d565b915050610100830151848203610100860152610f508282610e3d565b915050610120830151610f67610120860182610e82565b508091505092915050565b60006020820190508181036000830152610f8c8184610e91565b905092915050565b600081519050919050565b600082825260208201905092915050565b6000819050602082019050919050565b6000610fcc8383610dd7565b60208301905092915050565b6000602082019050919050565b6000610ff082610f94565b610ffa8185610f9f565b935061100583610fb0565b8060005b8381101561103657815161101d8882610fc0565b975061102883610fd8565b925050600181019050611009565b5085935050505092915050565b6000602082019050818103600083015261105d8184610fe5565b905092915050565b600080fd5b600080fd5b7f4e487b7100000000000000000000000000000000000000000000000000000000600052604160045260246000fd5b6110a782610e2c565b810181811067ffffffffffffffff821117156110c6576110c561106f565b5b80604052505050565b60006110d9610d2a565b90506110e5828261109e565b919050565b600067ffffffffffffffff8211156111055761110461106f565b5b61110e82610e2c565b9050602081019050919050565b82818337600083830152505050565b600061113d611138846110ea565b6110cf565b9050828152602081018484840111156111595761115861106a565b5b61116484828561111b565b509392505050565b600082601f83011261118157611180611065565b5b813561119184826020860161112a565b91505092915050565b60008060008060008060c087890312156111b7576111b6610d34565b5b60006111c589828a01610d55565b96505060206111d689828a01610d55565b95505060406111e789828a01610d55565b94505060606111f889828a01610d55565b935050608087013567ffffffffffffffff81111561121957611218610d39565b5b61122589828a0161116c565b92505060a087013567ffffffffffffffff81111561124657611245610d39565b5b61125289828a0161116c565b9150509295509295509295565b600060e0830160008301516112776000860182610dd7565b50602083015161128a6020860182610dd7565b50604083015161129d6040860182610dd7565b5060608301516112b06060860182610dd7565b5060808301516112c36080860182610dd7565b5060a083015184820360a08601526112db8282610e3d565b91505060c083015184820360c08601526112f58282610e3d565b9150508091505092915050565b6000602082019050818103600083015261131c818461125f565b905092915050565b600082825260208201905092915050565b600061134082610de6565b61134a8185611324565b935061135a818560208601610e02565b61136381610e2c565b840191505092915050565b600060208201905081810360008301526113888184611335565b905092915050565b7f4e487b7100000000000000000000000000000000000000000000000000000000600052601160045260246000fd5b60006113ca82610cf6565b91507fffffffffffffffffffffffffffffffffffffffffffffffffffffffffffffffff82036113fc576113fb611390565b5b600182019050919050565b7f4e487b7100000000000000000000000000000000000000000000000000000000600052602260045260246000fd5b6000600282049050600182168061144e57607f821691505b60208210810361146157611460611407565b5b50919050565b60008190508160005260206000209050919050565b60006020601f8301049050919050565b600082821b905092915050565b6000600883026114c97fffffffffffffffffffffffffffffffffffffffffffffffffffffffffffffffff8261148c565b6114d3868361148c565b95508019841693508086168417925050509392505050565b6000819050919050565b600061151061150b61150684610cf6565b6114eb565b610cf6565b9050919050565b6000819050919050565b61152a836114f5565b61153e61153682611517565b848454611499565b825550505050565b600090565b611553611546565b61155e818484611521565b505050565b5b818110156115825761157760008261154b565b600181019050611564565b5050565b601f8211156115c75761159881611467565b6115a18461147c565b810160208510156115b0578190505b6115c46115bc8561147c565b830182611563565b50505b505050565b600082821c905092915050565b60006115ea600019846008026115cc565b1980831691505092915050565b600061160383836115d9565b9150826002028217905092915050565b61161c82610de6565b67ffffffffffffffff8111156116355761163461106f565b5b61163f8254611436565b61164a828285611586565b600060209050601f83116001811461167d576000841561166b578287015190505b61167585826115f7565b8655506116dd565b601f19841661168b86611467565b60005b828110156116b35784890151825560018201915060208501945060208101905061168e565b868310156116d057848901516116cc601f8916826115d9565b8355505b6001600288020188555050505b505050505050565b60006116f082610cf6565b91506116fb83610cf6565b925082820390508181111561171357611712611390565b5b9291505056fea264697066735822122064b453eb2366f9a54c0fbd2c9df26af326255b74534c1d6a90f02c2b85ca95d664736f6c63430008120033",
  "linkReferences": {},
  "deployedLinkReferences": {}
}