{
  "_format": "hh-sol-artifact-1",
  "contractName": "CraftFacet",
  "sourceName": "contracts/facets/CraftFacet.sol",
  "abi": [
    {
      "anonymous": false,
      "inputs": [
        {
          "indexed": true,
          "internalType": "uint256",
          "name": "_basicEquipmentSchemaId",
          "type": "uint256"
        },
        {
          "indexed": true,
          "internalType": "uint256",
          "name": "_value",
          "type": "uint256"
        },
        {
          "indexed": false,
          "internalType": "string",
          "name": "_uri",
          "type": "string"
        },
        {
          "components": [
            {
              "internalType": "uint256",
              "name": "basicEquipmentSchemaId",
              "type": "uint256"
            },
            {
              "internalType": "uint256",
              "name": "slot",
              "type": "uint256"
            },
            {
              "internalType": "uint256",
              "name": "value",
              "type": "uint256"
            },
            {
              "internalType": "uint256",
              "name": "stat",
              "type": "uint256"
            },
            {
              "internalType": "uint256",
              "name": "cost",
              "type": "uint256"
            },
            {
              "internalType": "string",
              "name": "name",
              "type": "string"
            },
            {
              "internalType": "string",
              "name": "uri",
              "type": "string"
            }
          ],
          "indexed": false,
          "internalType": "struct BasicEquipmentSchema",
          "name": "_basicEQuipmentSchema",
          "type": "tuple"
        }
      ],
      "name": "BasicEquipmentSchemaCreated",
      "type": "event"
    },
    {
      "anonymous": false,
      "inputs": [
        {
          "indexed": true,
          "internalType": "uint256",
          "name": "_playerId",
          "type": "uint256"
        },
        {
          "indexed": false,
          "internalType": "uint256",
          "name": "_equipmentSchemaId",
          "type": "uint256"
        }
      ],
      "name": "PurchaseBasicEquipment",
      "type": "event"
    },
    {
      "inputs": [
        {
          "internalType": "uint256",
          "name": "_slot",
          "type": "uint256"
        },
        {
          "internalType": "uint256",
          "name": "_value",
          "type": "uint256"
        },
        {
          "internalType": "uint256",
          "name": "_stat",
          "type": "uint256"
        },
        {
          "internalType": "uint256",
          "name": "_cost",
          "type": "uint256"
        },
        {
          "internalType": "string",
          "name": "_name",
          "type": "string"
        },
        {
          "internalType": "string",
          "name": "_uri",
          "type": "string"
        }
      ],
      "name": "_createBasicEquipment",
      "outputs": [],
      "stateMutability": "nonpayable",
      "type": "function"
    },
    {
      "inputs": [],
      "name": "getBasicEquipmentCount",
      "outputs": [
        {
          "internalType": "uint256",
          "name": "",
          "type": "uint256"
        }
      ],
      "stateMutability": "view",
      "type": "function"
    },
    {
      "inputs": [
        {
          "internalType": "uint256",
          "name": "_basicEquipmentSchemaId",
          "type": "uint256"
        }
      ],
      "name": "getBasicEquipmentSchema",
      "outputs": [
        {
          "components": [
            {
              "internalType": "uint256",
              "name": "basicEquipmentSchemaId",
              "type": "uint256"
            },
            {
              "internalType": "uint256",
              "name": "slot",
              "type": "uint256"
            },
            {
              "internalType": "uint256",
              "name": "value",
              "type": "uint256"
            },
            {
              "internalType": "uint256",
              "name": "stat",
              "type": "uint256"
            },
            {
              "internalType": "uint256",
              "name": "cost",
              "type": "uint256"
            },
            {
              "internalType": "string",
              "name": "name",
              "type": "string"
            },
            {
              "internalType": "string",
              "name": "uri",
              "type": "string"
            }
          ],
          "internalType": "struct BasicEquipmentSchema",
          "name": "",
          "type": "tuple"
        }
      ],
      "stateMutability": "view",
      "type": "function"
    },
    {
      "inputs": [
        {
          "internalType": "uint256",
          "name": "_equipmentId",
          "type": "uint256"
        }
      ],
      "name": "getEquipment",
      "outputs": [
        {
          "components": [
            {
              "internalType": "uint256",
              "name": "id",
              "type": "uint256"
            },
            {
              "internalType": "uint256",
              "name": "pointer",
              "type": "uint256"
            },
            {
              "internalType": "uint256",
              "name": "slot",
              "type": "uint256"
            },
            {
              "internalType": "uint256",
              "name": "rank",
              "type": "uint256"
            },
            {
              "internalType": "uint256",
              "name": "value",
              "type": "uint256"
            },
            {
              "internalType": "uint256",
              "name": "stat",
              "type": "uint256"
            },
            {
              "internalType": "uint256",
              "name": "owner",
              "type": "uint256"
            },
            {
              "internalType": "string",
              "name": "name",
              "type": "string"
            },
            {
              "internalType": "string",
              "name": "uri",
              "type": "string"
            },
            {
              "internalType": "bool",
              "name": "isEquiped",
              "type": "bool"
            }
          ],
          "internalType": "struct Equipment",
          "name": "",
          "type": "tuple"
        }
      ],
      "stateMutability": "view",
      "type": "function"
    },
    {
      "inputs": [
        {
          "internalType": "uint256",
          "name": "_playerId",
          "type": "uint256"
        }
      ],
      "name": "getPlayerToEquipment",
      "outputs": [
        {
          "internalType": "uint256[]",
          "name": "",
          "type": "uint256[]"
        }
      ],
      "stateMutability": "view",
      "type": "function"
    },
    {
      "inputs": [
        {
          "internalType": "uint256",
          "name": "_playerId",
          "type": "uint256"
        },
        {
          "internalType": "uint256",
          "name": "_equipmentSchemaId",
          "type": "uint256"
        }
      ],
      "name": "purchaseBasicEquipment",
      "outputs": [],
      "stateMutability": "nonpayable",
      "type": "function"
    }
  ],
  "bytecode": "0x608060405234801561001057600080fd5b50611774806100206000396000f3fe608060405234801561001057600080fd5b50600436106100625760003560e01c806325a2bb661461006757806340235b3f1461008557806381dd2fa0146100a1578063ba061590146100d1578063c696a77614610101578063d216e9861461011d575b600080fd5b61006f61014d565b60405161007c9190610d1f565b60405180910390f35b61009f600480360381019061009a9190610d7a565b61015c565b005b6100bb60048036038101906100b69190610dba565b6101a2565b6040516100c89190610f82565b60405180910390f35b6100eb60048036038101906100e69190610dba565b6101ba565b6040516100f89190611053565b60405180910390f35b61011b600480360381019061011691906111aa565b6101cc565b005b61013760048036038101906101329190610dba565b610284565b6040516101449190611312565b60405180910390f35b600061015761029c565b905090565b61016682826102b4565b817fe7504f1059be7db1f858136933fb89f1e9996256b3beab064b8293dcc3708607826040516101969190610d1f565b60405180910390a25050565b6101aa610c74565b6101b38261073f565b9050919050565b60606101c582610901565b9050919050565b600073434d36f32abed3f7937fe0be88dc1b0eb938124490508073ffffffffffffffffffffffffffffffffffffffff163373ffffffffffffffffffffffffffffffffffffffff161461021d57600080fd5b61022b87878787878761097b565b600061023561029c565b905086817f8a178ab5b62361fa794647e8b4c0bc01a5448c063921eb7a1a83116205e74be58561026485610284565b60405161027292919061137e565b60405180910390a35050505050505050565b61028c610cc9565b61029582610a5b565b9050919050565b6000806102a7610bed565b9050806001015491505090565b60006102be610c1a565b905060006102ca610bed565b905060006102d6610c47565b9050600083600301600087815260200190815260200160002060020154146102fd57600080fd5b3373ffffffffffffffffffffffffffffffffffffffff1683600201600087815260200190815260200160002060009054906101000a900473ffffffffffffffffffffffffffffffffffffffff1673ffffffffffffffffffffffffffffffffffffffff161461036a57600080fd5b816002016000858152602001908152602001600020600401548160000160003373ffffffffffffffffffffffffffffffffffffffff1673ffffffffffffffffffffffffffffffffffffffff1681526020019081526020016000205410156103d057600080fd5b8160000160008154809291906103e5906113e4565b9190505550604051806101400160405280836000015481526020018360060160008881526020019081526020016000208054905081526020018360020160008781526020019081526020016000206001015481526020016001815260200183600201600087815260200190815260200160002060020154815260200183600201600087815260200190815260200160002060030154815260200186815260200183600201600087815260200190815260200160002060050180546104a89061145b565b80601f01602080910402602001604051908101604052809291908181526020018280546104d49061145b565b80156105215780601f106104f657610100808354040283529160200191610521565b820191906000526020600020905b81548152906001019060200180831161050457829003601f168201915b50505050508152602001836002016000878152602001908152602001600020600601805461054e9061145b565b80601f016020809104026020016040519081016040528092919081815260200182805461057a9061145b565b80156105c75780601f1061059c576101008083540402835291602001916105c7565b820191906000526020600020905b8154815290600101906020018083116105aa57829003601f168201915b505050505081526020016000151581525082600301600084600001548152602001908152602001600020600082015181600001556020820151816001015560408201518160020155606082015181600301556080820151816004015560a0820151816005015560c0820151816006015560e082015181600701908161064c9190611638565b506101008201518160080190816106639190611638565b506101208201518160090160006101000a81548160ff02191690831515021790555090505081600601600086815260200190815260200160002082600001549080600181540180825580915050600190039060005260206000200160009091909190915055816002016000858152602001908152602001600020600401548160000160003373ffffffffffffffffffffffffffffffffffffffff1673ffffffffffffffffffffffffffffffffffffffff1681526020019081526020016000206000828254610731919061170a565b925050819055505050505050565b610747610c74565b6000610751610bed565b905080600301600084815260200190815260200160002060405180610140016040529081600082015481526020016001820154815260200160028201548152602001600382015481526020016004820154815260200160058201548152602001600682015481526020016007820180546107ca9061145b565b80601f01602080910402602001604051908101604052809291908181526020018280546107f69061145b565b80156108435780601f1061081857610100808354040283529160200191610843565b820191906000526020600020905b81548152906001019060200180831161082657829003601f168201915b5050505050815260200160088201805461085c9061145b565b80601f01602080910402602001604051908101604052809291908181526020018280546108889061145b565b80156108d55780601f106108aa576101008083540402835291602001916108d5565b820191906000526020600020905b8154815290600101906020018083116108b857829003601f168201915b505050505081526020016009820160009054906101000a900460ff161515151581525050915050919050565b6060600061090d610bed565b905080600601600084815260200190815260200160002080548060200260200160405190810160405280929190818152602001828054801561096e57602002820191906000526020600020905b81548152602001906001019080831161095a575b5050505050915050919050565b6000610985610bed565b905080600101600081548092919061099c906113e4565b91905055506040518060e00160405280826001015481526020018881526020018781526020018681526020018581526020018481526020018381525081600201600083600101548152602001908152602001600020600082015181600001556020820151816001015560408201518160020155606082015181600301556080820151816004015560a0820151816005019081610a389190611638565b5060c0820151816006019081610a4e9190611638565b5090505050505050505050565b610a63610cc9565b6000610a6d610bed565b90508060020160008481526020019081526020016000206040518060e00160405290816000820154815260200160018201548152602001600282015481526020016003820154815260200160048201548152602001600582018054610ad19061145b565b80601f0160208091040260200160405190810160405280929190818152602001828054610afd9061145b565b8015610b4a5780601f10610b1f57610100808354040283529160200191610b4a565b820191906000526020600020905b815481529060010190602001808311610b2d57829003601f168201915b50505050508152602001600682018054610b639061145b565b80601f0160208091040260200160405190810160405280929190818152602001828054610b8f9061145b565b8015610bdc5780601f10610bb157610100808354040283529160200191610bdc565b820191906000526020600020905b815481529060010190602001808311610bbf57829003601f168201915b505050505081525050915050919050565b6000807faad0511195ddfb575f5187a7172ca6fc330f129a86291f15eaa5f7537ab038dc90508091505090565b6000807f3cab9a070a0c61cd0ae9d9e9e2c0781e5ca8691bec4087e5a4701d5ac018dd4e90508091505090565b6000807f2c89d74504b6ad8d4fbde22bc3474166bac5452a11195897f239d8bebe02d70790508091505090565b6040518061014001604052806000815260200160008152602001600081526020016000815260200160008152602001600081526020016000815260200160608152602001606081526020016000151581525090565b6040518060e00160405280600081526020016000815260200160008152602001600081526020016000815260200160608152602001606081525090565b6000819050919050565b610d1981610d06565b82525050565b6000602082019050610d346000830184610d10565b92915050565b6000604051905090565b600080fd5b600080fd5b610d5781610d06565b8114610d6257600080fd5b50565b600081359050610d7481610d4e565b92915050565b60008060408385031215610d9157610d90610d44565b5b6000610d9f85828601610d65565b9250506020610db085828601610d65565b9150509250929050565b600060208284031215610dd057610dcf610d44565b5b6000610dde84828501610d65565b91505092915050565b610df081610d06565b82525050565b600081519050919050565b600082825260208201905092915050565b60005b83811015610e30578082015181840152602081019050610e15565b60008484015250505050565b6000601f19601f8301169050919050565b6000610e5882610df6565b610e628185610e01565b9350610e72818560208601610e12565b610e7b81610e3c565b840191505092915050565b60008115159050919050565b610e9b81610e86565b82525050565b600061014083016000830151610eba6000860182610de7565b506020830151610ecd6020860182610de7565b506040830151610ee06040860182610de7565b506060830151610ef36060860182610de7565b506080830151610f066080860182610de7565b5060a0830151610f1960a0860182610de7565b5060c0830151610f2c60c0860182610de7565b5060e083015184820360e0860152610f448282610e4d565b915050610100830151848203610100860152610f608282610e4d565b915050610120830151610f77610120860182610e92565b508091505092915050565b60006020820190508181036000830152610f9c8184610ea1565b905092915050565b600081519050919050565b600082825260208201905092915050565b6000819050602082019050919050565b6000610fdc8383610de7565b60208301905092915050565b6000602082019050919050565b600061100082610fa4565b61100a8185610faf565b935061101583610fc0565b8060005b8381101561104657815161102d8882610fd0565b975061103883610fe8565b925050600181019050611019565b5085935050505092915050565b6000602082019050818103600083015261106d8184610ff5565b905092915050565b600080fd5b600080fd5b7f4e487b7100000000000000000000000000000000000000000000000000000000600052604160045260246000fd5b6110b782610e3c565b810181811067ffffffffffffffff821117156110d6576110d561107f565b5b80604052505050565b60006110e9610d3a565b90506110f582826110ae565b919050565b600067ffffffffffffffff8211156111155761111461107f565b5b61111e82610e3c565b9050602081019050919050565b82818337600083830152505050565b600061114d611148846110fa565b6110df565b9050828152602081018484840111156111695761116861107a565b5b61117484828561112b565b509392505050565b600082601f83011261119157611190611075565b5b81356111a184826020860161113a565b91505092915050565b60008060008060008060c087890312156111c7576111c6610d44565b5b60006111d589828a01610d65565b96505060206111e689828a01610d65565b95505060406111f789828a01610d65565b945050606061120889828a01610d65565b935050608087013567ffffffffffffffff81111561122957611228610d49565b5b61123589828a0161117c565b92505060a087013567ffffffffffffffff81111561125657611255610d49565b5b61126289828a0161117c565b9150509295509295509295565b600060e0830160008301516112876000860182610de7565b50602083015161129a6020860182610de7565b5060408301516112ad6040860182610de7565b5060608301516112c06060860182610de7565b5060808301516112d36080860182610de7565b5060a083015184820360a08601526112eb8282610e4d565b91505060c083015184820360c08601526113058282610e4d565b9150508091505092915050565b6000602082019050818103600083015261132c818461126f565b905092915050565b600082825260208201905092915050565b600061135082610df6565b61135a8185611334565b935061136a818560208601610e12565b61137381610e3c565b840191505092915050565b600060408201905081810360008301526113988185611345565b905081810360208301526113ac818461126f565b90509392505050565b7f4e487b7100000000000000000000000000000000000000000000000000000000600052601160045260246000fd5b60006113ef82610d06565b91507fffffffffffffffffffffffffffffffffffffffffffffffffffffffffffffffff8203611421576114206113b5565b5b600182019050919050565b7f4e487b7100000000000000000000000000000000000000000000000000000000600052602260045260246000fd5b6000600282049050600182168061147357607f821691505b6020821081036114865761148561142c565b5b50919050565b60008190508160005260206000209050919050565b60006020601f8301049050919050565b600082821b905092915050565b6000600883026114ee7fffffffffffffffffffffffffffffffffffffffffffffffffffffffffffffffff826114b1565b6114f886836114b1565b95508019841693508086168417925050509392505050565b6000819050919050565b600061153561153061152b84610d06565b611510565b610d06565b9050919050565b6000819050919050565b61154f8361151a565b61156361155b8261153c565b8484546114be565b825550505050565b600090565b61157861156b565b611583818484611546565b505050565b5b818110156115a75761159c600082611570565b600181019050611589565b5050565b601f8211156115ec576115bd8161148c565b6115c6846114a1565b810160208510156115d5578190505b6115e96115e1856114a1565b830182611588565b50505b505050565b600082821c905092915050565b600061160f600019846008026115f1565b1980831691505092915050565b600061162883836115fe565b9150826002028217905092915050565b61164182610df6565b67ffffffffffffffff81111561165a5761165961107f565b5b611664825461145b565b61166f8282856115ab565b600060209050601f8311600181146116a25760008415611690578287015190505b61169a858261161c565b865550611702565b601f1984166116b08661148c565b60005b828110156116d8578489015182556001820191506020850194506020810190506116b3565b868310156116f557848901516116f1601f8916826115fe565b8355505b6001600288020188555050505b505050505050565b600061171582610d06565b915061172083610d06565b9250828203905081811115611738576117376113b5565b5b9291505056fea2646970667358221220aa398c7d1e2366e53836506637a9b28b82ed1158ddb3729a1359c9afc133e00964736f6c63430008120033",
  "linkReferences": {},
  "deployedLinkReferences": {}
}