{
  "_format": "hh-sol-artifact-1",
  "contractName": "CraftFacet",
  "sourceName": "contracts/facets/CraftFacet.sol",
  "abi": [
    {
      "anonymous": false,
      "inputs": [
        {
          "indexed": true,
          "internalType": "uint256",
          "name": "_playerId",
          "type": "uint256"
        },
        {
          "indexed": false,
          "internalType": "uint256",
          "name": "_equipmentId",
          "type": "uint256"
        },
        {
          "indexed": false,
          "internalType": "uint256",
          "name": "_craftId",
          "type": "uint256"
        }
      ],
      "name": "BasicCraftEvent",
      "type": "event"
    },
    {
      "anonymous": false,
      "inputs": [
        {
          "indexed": true,
          "internalType": "uint256",
          "name": "_basicEquipmentSchemaId",
          "type": "uint256"
        },
        {
          "indexed": true,
          "internalType": "uint256",
          "name": "_value",
          "type": "uint256"
        },
        {
          "indexed": false,
          "internalType": "string",
          "name": "_uri",
          "type": "string"
        },
        {
          "components": [
            {
              "internalType": "uint256",
              "name": "basicEquipmentSchemaId",
              "type": "uint256"
            },
            {
              "internalType": "uint256",
              "name": "slot",
              "type": "uint256"
            },
            {
              "internalType": "uint256",
              "name": "value",
              "type": "uint256"
            },
            {
              "internalType": "uint256",
              "name": "stat",
              "type": "uint256"
            },
            {
              "internalType": "uint256",
              "name": "cost",
              "type": "uint256"
            },
            {
              "internalType": "string",
              "name": "name",
              "type": "string"
            },
            {
              "internalType": "string",
              "name": "uri",
              "type": "string"
            }
          ],
          "indexed": false,
          "internalType": "struct BasicEquipmentSchema",
          "name": "_basicEQuipmentSchema",
          "type": "tuple"
        }
      ],
      "name": "BasicEquipmentSchemaCreated",
      "type": "event"
    },
    {
      "anonymous": false,
      "inputs": [
        {
          "indexed": true,
          "internalType": "uint256",
          "name": "_basicEquipmentSchemaId",
          "type": "uint256"
        },
        {
          "indexed": true,
          "internalType": "uint256",
          "name": "_value",
          "type": "uint256"
        },
        {
          "indexed": false,
          "internalType": "string",
          "name": "_uri",
          "type": "string"
        },
        {
          "components": [
            {
              "internalType": "uint256",
              "name": "basicEquipmentSchemaId",
              "type": "uint256"
            },
            {
              "internalType": "uint256",
              "name": "slot",
              "type": "uint256"
            },
            {
              "internalType": "uint256",
              "name": "value",
              "type": "uint256"
            },
            {
              "internalType": "uint256",
              "name": "stat",
              "type": "uint256"
            },
            {
              "internalType": "uint256",
              "name": "cost",
              "type": "uint256"
            },
            {
              "internalType": "string",
              "name": "name",
              "type": "string"
            },
            {
              "internalType": "string",
              "name": "uri",
              "type": "string"
            }
          ],
          "indexed": false,
          "internalType": "struct BasicEquipmentSchema",
          "name": "_basicEQuipmentSchema",
          "type": "tuple"
        }
      ],
      "name": "BasicEquipmentSchemaUpdate",
      "type": "event"
    },
    {
      "anonymous": false,
      "inputs": [
        {
          "indexed": true,
          "internalType": "uint256",
          "name": "id",
          "type": "uint256"
        },
        {
          "components": [
            {
              "internalType": "uint256",
              "name": "id",
              "type": "uint256"
            },
            {
              "internalType": "uint256",
              "name": "slot",
              "type": "uint256"
            },
            {
              "internalType": "uint256",
              "name": "value",
              "type": "uint256"
            },
            {
              "internalType": "uint256",
              "name": "cost",
              "type": "uint256"
            },
            {
              "internalType": "string",
              "name": "oldName",
              "type": "string"
            },
            {
              "internalType": "string",
              "name": "newName",
              "type": "string"
            },
            {
              "internalType": "string",
              "name": "uri",
              "type": "string"
            }
          ],
          "indexed": false,
          "internalType": "struct BasicCraft",
          "name": "_basicCraft",
          "type": "tuple"
        }
      ],
      "name": "CreateBasicCraft",
      "type": "event"
    },
    {
      "anonymous": false,
      "inputs": [
        {
          "indexed": true,
          "internalType": "uint256",
          "name": "_playerId",
          "type": "uint256"
        },
        {
          "indexed": false,
          "internalType": "uint256",
          "name": "_equipmentSchemaId",
          "type": "uint256"
        }
      ],
      "name": "PurchaseBasicEquipment",
      "type": "event"
    },
    {
      "inputs": [
        {
          "internalType": "uint256",
          "name": "_playerId",
          "type": "uint256"
        },
        {
          "internalType": "uint256",
          "name": "_equipmentId",
          "type": "uint256"
        },
        {
          "internalType": "uint256",
          "name": "_craftId",
          "type": "uint256"
        }
      ],
      "name": "basicCraft",
      "outputs": [],
      "stateMutability": "nonpayable",
      "type": "function"
    },
    {
      "inputs": [
        {
          "internalType": "uint256",
          "name": "_equipmenSchematId",
          "type": "uint256"
        },
        {
          "internalType": "uint256",
          "name": "_value",
          "type": "uint256"
        },
        {
          "internalType": "uint256",
          "name": "_cost",
          "type": "uint256"
        },
        {
          "internalType": "string",
          "name": "_newName",
          "type": "string"
        },
        {
          "internalType": "string",
          "name": "_uri",
          "type": "string"
        }
      ],
      "name": "createBasicCraft",
      "outputs": [],
      "stateMutability": "nonpayable",
      "type": "function"
    },
    {
      "inputs": [
        {
          "internalType": "uint256",
          "name": "_slot",
          "type": "uint256"
        },
        {
          "internalType": "uint256",
          "name": "_value",
          "type": "uint256"
        },
        {
          "internalType": "uint256",
          "name": "_stat",
          "type": "uint256"
        },
        {
          "internalType": "uint256",
          "name": "_cost",
          "type": "uint256"
        },
        {
          "internalType": "string",
          "name": "_name",
          "type": "string"
        },
        {
          "internalType": "string",
          "name": "_uri",
          "type": "string"
        }
      ],
      "name": "createBasicEquipment",
      "outputs": [],
      "stateMutability": "nonpayable",
      "type": "function"
    },
    {
      "inputs": [
        {
          "internalType": "uint256",
          "name": "_basicCraftId",
          "type": "uint256"
        }
      ],
      "name": "getBasicCraft",
      "outputs": [
        {
          "components": [
            {
              "internalType": "uint256",
              "name": "id",
              "type": "uint256"
            },
            {
              "internalType": "uint256",
              "name": "slot",
              "type": "uint256"
            },
            {
              "internalType": "uint256",
              "name": "value",
              "type": "uint256"
            },
            {
              "internalType": "uint256",
              "name": "cost",
              "type": "uint256"
            },
            {
              "internalType": "string",
              "name": "oldName",
              "type": "string"
            },
            {
              "internalType": "string",
              "name": "newName",
              "type": "string"
            },
            {
              "internalType": "string",
              "name": "uri",
              "type": "string"
            }
          ],
          "internalType": "struct BasicCraft",
          "name": "",
          "type": "tuple"
        }
      ],
      "stateMutability": "view",
      "type": "function"
    },
    {
      "inputs": [],
      "name": "getBasicCraftCount",
      "outputs": [
        {
          "internalType": "uint256",
          "name": "",
          "type": "uint256"
        }
      ],
      "stateMutability": "view",
      "type": "function"
    },
    {
      "inputs": [],
      "name": "getBasicEquipmentCount",
      "outputs": [
        {
          "internalType": "uint256",
          "name": "",
          "type": "uint256"
        }
      ],
      "stateMutability": "view",
      "type": "function"
    },
    {
      "inputs": [
        {
          "internalType": "uint256",
          "name": "_basicEquipmentSchemaId",
          "type": "uint256"
        }
      ],
      "name": "getBasicEquipmentSchema",
      "outputs": [
        {
          "components": [
            {
              "internalType": "uint256",
              "name": "basicEquipmentSchemaId",
              "type": "uint256"
            },
            {
              "internalType": "uint256",
              "name": "slot",
              "type": "uint256"
            },
            {
              "internalType": "uint256",
              "name": "value",
              "type": "uint256"
            },
            {
              "internalType": "uint256",
              "name": "stat",
              "type": "uint256"
            },
            {
              "internalType": "uint256",
              "name": "cost",
              "type": "uint256"
            },
            {
              "internalType": "string",
              "name": "name",
              "type": "string"
            },
            {
              "internalType": "string",
              "name": "uri",
              "type": "string"
            }
          ],
          "internalType": "struct BasicEquipmentSchema",
          "name": "",
          "type": "tuple"
        }
      ],
      "stateMutability": "view",
      "type": "function"
    },
    {
      "inputs": [
        {
          "internalType": "uint256",
          "name": "_equipmentId",
          "type": "uint256"
        }
      ],
      "name": "getEquipment",
      "outputs": [
        {
          "components": [
            {
              "internalType": "uint256",
              "name": "id",
              "type": "uint256"
            },
            {
              "internalType": "uint256",
              "name": "pointer",
              "type": "uint256"
            },
            {
              "internalType": "uint256",
              "name": "slot",
              "type": "uint256"
            },
            {
              "internalType": "uint256",
              "name": "rank",
              "type": "uint256"
            },
            {
              "internalType": "uint256",
              "name": "value",
              "type": "uint256"
            },
            {
              "internalType": "uint256",
              "name": "stat",
              "type": "uint256"
            },
            {
              "internalType": "uint256",
              "name": "owner",
              "type": "uint256"
            },
            {
              "internalType": "string",
              "name": "name",
              "type": "string"
            },
            {
              "internalType": "string",
              "name": "uri",
              "type": "string"
            },
            {
              "internalType": "bool",
              "name": "isEquiped",
              "type": "bool"
            }
          ],
          "internalType": "struct Equipment",
          "name": "",
          "type": "tuple"
        }
      ],
      "stateMutability": "view",
      "type": "function"
    },
    {
      "inputs": [
        {
          "internalType": "uint256",
          "name": "_playerId",
          "type": "uint256"
        }
      ],
      "name": "getPlayerToEquipment",
      "outputs": [
        {
          "internalType": "uint256[]",
          "name": "",
          "type": "uint256[]"
        }
      ],
      "stateMutability": "view",
      "type": "function"
    },
    {
      "inputs": [
        {
          "internalType": "uint256",
          "name": "_playerId",
          "type": "uint256"
        },
        {
          "internalType": "uint256",
          "name": "_equipmentSchemaId",
          "type": "uint256"
        }
      ],
      "name": "purchaseBasicEquipment",
      "outputs": [],
      "stateMutability": "nonpayable",
      "type": "function"
    },
    {
      "inputs": [
        {
          "internalType": "uint256",
          "name": "_basicEquipmentSchemaId",
          "type": "uint256"
        },
        {
          "internalType": "uint256",
          "name": "_slot",
          "type": "uint256"
        },
        {
          "internalType": "uint256",
          "name": "_value",
          "type": "uint256"
        },
        {
          "internalType": "uint256",
          "name": "_stat",
          "type": "uint256"
        },
        {
          "internalType": "uint256",
          "name": "_cost",
          "type": "uint256"
        },
        {
          "internalType": "string",
          "name": "_name",
          "type": "string"
        },
        {
          "internalType": "string",
          "name": "_uri",
          "type": "string"
        }
      ],
      "name": "updateBasicEquipmentScehma",
      "outputs": [],
      "stateMutability": "nonpayable",
      "type": "function"
    }
  ],
  "bytecode": "0x608060405234801561001057600080fd5b506128c6806100206000396000f3fe608060405234801561001057600080fd5b50600436106100a95760003560e01c806381dd2fa01161007157806381dd2fa014610152578063ba06159014610182578063c49dd188146101b2578063c87bf952146101ce578063d216e986146101ea578063d6f138981461021a576100a9565b806307a4cc23146100ae57806325a2bb66146100ca57806340235b3f146100e85780634bf68ade14610104578063799173c114610134575b600080fd5b6100c860048036038101906100c391906119ab565b610236565b005b6100d26102e3565b6040516100df9190611a94565b60405180910390f35b61010260048036038101906100fd9190611aaf565b6102f2565b005b61011e60048036038101906101199190611aef565b610338565b60405161012b9190611c54565b60405180910390f35b61013c610350565b6040516101499190611a94565b60405180910390f35b61016c60048036038101906101679190611aef565b61035f565b6040516101799190611d72565b60405180910390f35b61019c60048036038101906101979190611aef565b610377565b6040516101a99190611e43565b60405180910390f35b6101cc60048036038101906101c79190611e65565b610389565b005b6101e860048036038101906101e39190611f2a565b610441565b005b61020460048036038101906101ff9190611aef565b6104a2565b6040516102119190612080565b60405180910390f35b610234600480360381019061022f91906120a2565b6104ba565b005b600073434d36f32abed3f7937fe0be88dc1b0eb938124490508073ffffffffffffffffffffffffffffffffffffffff163373ffffffffffffffffffffffffffffffffffffffff161461028757600080fd5b61029688888888888888610504565b85887f8a178ab5b62361fa794647e8b4c0bc01a5448c063921eb7a1a83116205e74be5846102c38c6104a2565b6040516102d192919061213f565b60405180910390a35050505050505050565b60006102ed6105da565b905090565b6102fc82826105f2565b817fe7504f1059be7db1f858136933fb89f1e9996256b3beab064b8293dcc37086078260405161032c9190611a94565b60405180910390a25050565b61034061174c565b61034982610a7d565b9050919050565b600061035a610c97565b905090565b610367611789565b61037082610caf565b9050919050565b606061038282610e71565b9050919050565b600073434d36f32abed3f7937fe0be88dc1b0eb938124490508073ffffffffffffffffffffffffffffffffffffffff163373ffffffffffffffffffffffffffffffffffffffff16146103da57600080fd5b6103e8878787878787610eeb565b60006103f26105da565b905086817f8a178ab5b62361fa794647e8b4c0bc01a5448c063921eb7a1a83116205e74be585610421856104a2565b60405161042f92919061213f565b60405180910390a35050505050505050565b61044e8585858585610fcb565b6000610458610350565b9050807fe7ebf37154a7baecdaff82aaaf79c17b0e7ce8cd17c53835ffd29abbc8a833da61048583610338565b6040516104929190611c54565b60405180910390a2505050505050565b6104aa6117de565b6104b38261116e565b9050919050565b6104c5838383611300565b827f91dddbc82058117c5a605d41c7526e95c5b808e19e0a0d5e204cb74b592e98dc83836040516104f7929190612176565b60405180910390a2505050565b600061050e6116c5565b9050868160020160008a815260200190815260200160002060010181905550858160020160008a815260200190815260200160002060020181905550848160020160008a815260200190815260200160002060030181905550838160020160008a815260200190815260200160002060040181905550828160020160008a815260200190815260200160002060050190816105a991906123ab565b50818160020160008a815260200190815260200160002060060190816105cf91906123ab565b505050505050505050565b6000806105e56116c5565b9050806001015491505090565b60006105fc6116f2565b905060006106086116c5565b9050600061061461171f565b90506000836003016000878152602001908152602001600020600201541461063b57600080fd5b3373ffffffffffffffffffffffffffffffffffffffff1683600201600087815260200190815260200160002060009054906101000a900473ffffffffffffffffffffffffffffffffffffffff1673ffffffffffffffffffffffffffffffffffffffff16146106a857600080fd5b816002016000858152602001908152602001600020600401548160000160003373ffffffffffffffffffffffffffffffffffffffff1673ffffffffffffffffffffffffffffffffffffffff16815260200190815260200160002054101561070e57600080fd5b816000016000815480929190610723906124ac565b9190505550604051806101400160405280836000015481526020018360060160008881526020019081526020016000208054905081526020018360020160008781526020019081526020016000206001015481526020016001815260200183600201600087815260200190815260200160002060020154815260200183600201600087815260200190815260200160002060030154815260200186815260200183600201600087815260200190815260200160002060050180546107e6906121ce565b80601f0160208091040260200160405190810160405280929190818152602001828054610812906121ce565b801561085f5780601f106108345761010080835404028352916020019161085f565b820191906000526020600020905b81548152906001019060200180831161084257829003601f168201915b50505050508152602001836002016000878152602001908152602001600020600601805461088c906121ce565b80601f01602080910402602001604051908101604052809291908181526020018280546108b8906121ce565b80156109055780601f106108da57610100808354040283529160200191610905565b820191906000526020600020905b8154815290600101906020018083116108e857829003601f168201915b505050505081526020016000151581525082600301600084600001548152602001908152602001600020600082015181600001556020820151816001015560408201518160020155606082015181600301556080820151816004015560a0820151816005015560c0820151816006015560e082015181600701908161098a91906123ab565b506101008201518160080190816109a191906123ab565b506101208201518160090160006101000a81548160ff02191690831515021790555090505081600601600086815260200190815260200160002082600001549080600181540180825580915050600190039060005260206000200160009091909190915055816002016000858152602001908152602001600020600401548160000160003373ffffffffffffffffffffffffffffffffffffffff1673ffffffffffffffffffffffffffffffffffffffff1681526020019081526020016000206000828254610a6f91906124f4565b925050819055505050505050565b610a8561174c565b6000610a8f6116c5565b90508060050160008481526020019081526020016000206040518060e001604052908160008201548152602001600182015481526020016002820154815260200160038201548152602001600482018054610ae9906121ce565b80601f0160208091040260200160405190810160405280929190818152602001828054610b15906121ce565b8015610b625780601f10610b3757610100808354040283529160200191610b62565b820191906000526020600020905b815481529060010190602001808311610b4557829003601f168201915b50505050508152602001600582018054610b7b906121ce565b80601f0160208091040260200160405190810160405280929190818152602001828054610ba7906121ce565b8015610bf45780601f10610bc957610100808354040283529160200191610bf4565b820191906000526020600020905b815481529060010190602001808311610bd757829003601f168201915b50505050508152602001600682018054610c0d906121ce565b80601f0160208091040260200160405190810160405280929190818152602001828054610c39906121ce565b8015610c865780601f10610c5b57610100808354040283529160200191610c86565b820191906000526020600020905b815481529060010190602001808311610c6957829003601f168201915b505050505081525050915050919050565b600080610ca26116c5565b9050806004015491505090565b610cb7611789565b6000610cc16116c5565b90508060030160008481526020019081526020016000206040518061014001604052908160008201548152602001600182015481526020016002820154815260200160038201548152602001600482015481526020016005820154815260200160068201548152602001600782018054610d3a906121ce565b80601f0160208091040260200160405190810160405280929190818152602001828054610d66906121ce565b8015610db35780601f10610d8857610100808354040283529160200191610db3565b820191906000526020600020905b815481529060010190602001808311610d9657829003601f168201915b50505050508152602001600882018054610dcc906121ce565b80601f0160208091040260200160405190810160405280929190818152602001828054610df8906121ce565b8015610e455780601f10610e1a57610100808354040283529160200191610e45565b820191906000526020600020905b815481529060010190602001808311610e2857829003601f168201915b505050505081526020016009820160009054906101000a900460ff161515151581525050915050919050565b60606000610e7d6116c5565b9050806006016000848152602001908152602001600020805480602002602001604051908101604052809291908181526020018280548015610ede57602002820191906000526020600020905b815481526020019060010190808311610eca575b5050505050915050919050565b6000610ef56116c5565b9050806001016000815480929190610f0c906124ac565b91905055506040518060e00160405280826001015481526020018881526020018781526020018681526020018581526020018481526020018381525081600201600083600101548152602001908152602001600020600082015181600001556020820151816001015560408201518160020155606082015181600301556080820151816004015560a0820151816005019081610fa891906123ab565b5060c0820151816006019081610fbe91906123ab565b5090505050505050505050565b6000610fd56116c5565b9050806004016000815480929190610fec906124ac565b91905055506040518060e00160405280826004015481526020018260020160008981526020019081526020016000206001015481526020018681526020018581526020018260020160008981526020019081526020016000206005018054611053906121ce565b80601f016020809104026020016040519081016040528092919081815260200182805461107f906121ce565b80156110cc5780601f106110a1576101008083540402835291602001916110cc565b820191906000526020600020905b8154815290600101906020018083116110af57829003601f168201915b50505050508152602001848152602001838152508160050160008360040154815260200190815260200160002060008201518160000155602082015181600101556040820151816002015560608201518160030155608082015181600401908161113691906123ab565b5060a082015181600501908161114c91906123ab565b5060c082015181600601908161116291906123ab565b50905050505050505050565b6111766117de565b60006111806116c5565b90508060020160008481526020019081526020016000206040518060e001604052908160008201548152602001600182015481526020016002820154815260200160038201548152602001600482015481526020016005820180546111e4906121ce565b80601f0160208091040260200160405190810160405280929190818152602001828054611210906121ce565b801561125d5780601f106112325761010080835404028352916020019161125d565b820191906000526020600020905b81548152906001019060200180831161124057829003601f168201915b50505050508152602001600682018054611276906121ce565b80601f01602080910402602001604051908101604052809291908181526020018280546112a2906121ce565b80156112ef5780601f106112c4576101008083540402835291602001916112ef565b820191906000526020600020905b8154815290600101906020018083116112d257829003601f168201915b505050505081525050915050919050565b600061130a6116f2565b905060006113166116c5565b9050600061132261171f565b90506000836003016000888152602001908152602001600020600201541461134957600080fd5b3373ffffffffffffffffffffffffffffffffffffffff1683600201600088815260200190815260200160002060009054906101000a900473ffffffffffffffffffffffffffffffffffffffff1673ffffffffffffffffffffffffffffffffffffffff16146113ec576040517f08c379a00000000000000000000000000000000000000000000000000000000081526004016113e390612574565b60405180910390fd5b81600301600086815260200190815260200160002060090160009054906101000a900460ff1615611452576040517f08c379a0000000000000000000000000000000000000000000000000000000008152600401611449906125e0565b60405180910390fd5b6000826005016000868152602001908152602001600020905080600301548260010160003373ffffffffffffffffffffffffffffffffffffffff1673ffffffffffffffffffffffffffffffffffffffff1681526020019081526020016000205410156114f3576040517f08c379a00000000000000000000000000000000000000000000000000000000081526004016114ea9061264c565b60405180910390fd5b86836003016000888152602001908152602001600020600601541461151757600080fd5b8060040160405160200161152b91906126fa565b6040516020818303038152906040528051906020012083600301600088815260200190815260200160002060070160405160200161156991906126fa565b60405160208183030381529060405280519060200120146115bf576040517f08c379a00000000000000000000000000000000000000000000000000000000081526004016115b69061275d565b60405180910390fd5b80600301548260010160003373ffffffffffffffffffffffffffffffffffffffff1673ffffffffffffffffffffffffffffffffffffffff168152602001908152602001600020600082825461161491906124f4565b925050819055508260030160008781526020019081526020016000206003016000815480929190611644906124ac565b919050555080600201548360030160008881526020019081526020016000206004018190555080600501836003016000888152602001908152602001600020600701908161169291906127a8565b508060060183600301600088815260200190815260200160002060080190816116bb91906127a8565b5050505050505050565b6000807faad0511195ddfb575f5187a7172ca6fc330f129a86291f15eaa5f7537ab038dc90508091505090565b6000807f3cab9a070a0c61cd0ae9d9e9e2c0781e5ca8691bec4087e5a4701d5ac018dd4e90508091505090565b6000807f2c89d74504b6ad8d4fbde22bc3474166bac5452a11195897f239d8bebe02d70790508091505090565b6040518060e00160405280600081526020016000815260200160008152602001600081526020016060815260200160608152602001606081525090565b6040518061014001604052806000815260200160008152602001600081526020016000815260200160008152602001600081526020016000815260200160608152602001606081526020016000151581525090565b6040518060e00160405280600081526020016000815260200160008152602001600081526020016000815260200160608152602001606081525090565b6000604051905090565b600080fd5b600080fd5b6000819050919050565b6118428161182f565b811461184d57600080fd5b50565b60008135905061185f81611839565b92915050565b600080fd5b600080fd5b6000601f19601f8301169050919050565b7f4e487b7100000000000000000000000000000000000000000000000000000000600052604160045260246000fd5b6118b88261186f565b810181811067ffffffffffffffff821117156118d7576118d6611880565b5b80604052505050565b60006118ea61181b565b90506118f682826118af565b919050565b600067ffffffffffffffff82111561191657611915611880565b5b61191f8261186f565b9050602081019050919050565b82818337600083830152505050565b600061194e611949846118fb565b6118e0565b90508281526020810184848401111561196a5761196961186a565b5b61197584828561192c565b509392505050565b600082601f83011261199257611991611865565b5b81356119a284826020860161193b565b91505092915050565b600080600080600080600060e0888a0312156119ca576119c9611825565b5b60006119d88a828b01611850565b97505060206119e98a828b01611850565b96505060406119fa8a828b01611850565b9550506060611a0b8a828b01611850565b9450506080611a1c8a828b01611850565b93505060a088013567ffffffffffffffff811115611a3d57611a3c61182a565b5b611a498a828b0161197d565b92505060c088013567ffffffffffffffff811115611a6a57611a6961182a565b5b611a768a828b0161197d565b91505092959891949750929550565b611a8e8161182f565b82525050565b6000602082019050611aa96000830184611a85565b92915050565b60008060408385031215611ac657611ac5611825565b5b6000611ad485828601611850565b9250506020611ae585828601611850565b9150509250929050565b600060208284031215611b0557611b04611825565b5b6000611b1384828501611850565b91505092915050565b611b258161182f565b82525050565b600081519050919050565b600082825260208201905092915050565b60005b83811015611b65578082015181840152602081019050611b4a565b60008484015250505050565b6000611b7c82611b2b565b611b868185611b36565b9350611b96818560208601611b47565b611b9f8161186f565b840191505092915050565b600060e083016000830151611bc26000860182611b1c565b506020830151611bd56020860182611b1c565b506040830151611be86040860182611b1c565b506060830151611bfb6060860182611b1c565b5060808301518482036080860152611c138282611b71565b91505060a083015184820360a0860152611c2d8282611b71565b91505060c083015184820360c0860152611c478282611b71565b9150508091505092915050565b60006020820190508181036000830152611c6e8184611baa565b905092915050565b60008115159050919050565b611c8b81611c76565b82525050565b600061014083016000830151611caa6000860182611b1c565b506020830151611cbd6020860182611b1c565b506040830151611cd06040860182611b1c565b506060830151611ce36060860182611b1c565b506080830151611cf66080860182611b1c565b5060a0830151611d0960a0860182611b1c565b5060c0830151611d1c60c0860182611b1c565b5060e083015184820360e0860152611d348282611b71565b915050610100830151848203610100860152611d508282611b71565b915050610120830151611d67610120860182611c82565b508091505092915050565b60006020820190508181036000830152611d8c8184611c91565b905092915050565b600081519050919050565b600082825260208201905092915050565b6000819050602082019050919050565b6000611dcc8383611b1c565b60208301905092915050565b6000602082019050919050565b6000611df082611d94565b611dfa8185611d9f565b9350611e0583611db0565b8060005b83811015611e36578151611e1d8882611dc0565b9750611e2883611dd8565b925050600181019050611e09565b5085935050505092915050565b60006020820190508181036000830152611e5d8184611de5565b905092915050565b60008060008060008060c08789031215611e8257611e81611825565b5b6000611e9089828a01611850565b9650506020611ea189828a01611850565b9550506040611eb289828a01611850565b9450506060611ec389828a01611850565b935050608087013567ffffffffffffffff811115611ee457611ee361182a565b5b611ef089828a0161197d565b92505060a087013567ffffffffffffffff811115611f1157611f1061182a565b5b611f1d89828a0161197d565b9150509295509295509295565b600080600080600060a08688031215611f4657611f45611825565b5b6000611f5488828901611850565b9550506020611f6588828901611850565b9450506040611f7688828901611850565b935050606086013567ffffffffffffffff811115611f9757611f9661182a565b5b611fa38882890161197d565b925050608086013567ffffffffffffffff811115611fc457611fc361182a565b5b611fd08882890161197d565b9150509295509295909350565b600060e083016000830151611ff56000860182611b1c565b5060208301516120086020860182611b1c565b50604083015161201b6040860182611b1c565b50606083015161202e6060860182611b1c565b5060808301516120416080860182611b1c565b5060a083015184820360a08601526120598282611b71565b91505060c083015184820360c08601526120738282611b71565b9150508091505092915050565b6000602082019050818103600083015261209a8184611fdd565b905092915050565b6000806000606084860312156120bb576120ba611825565b5b60006120c986828701611850565b93505060206120da86828701611850565b92505060406120eb86828701611850565b9150509250925092565b600082825260208201905092915050565b600061211182611b2b565b61211b81856120f5565b935061212b818560208601611b47565b6121348161186f565b840191505092915050565b600060408201905081810360008301526121598185612106565b9050818103602083015261216d8184611fdd565b90509392505050565b600060408201905061218b6000830185611a85565b6121986020830184611a85565b9392505050565b7f4e487b7100000000000000000000000000000000000000000000000000000000600052602260045260246000fd5b600060028204905060018216806121e657607f821691505b6020821081036121f9576121f861219f565b5b50919050565b60008190508160005260206000209050919050565b60006020601f8301049050919050565b600082821b905092915050565b6000600883026122617fffffffffffffffffffffffffffffffffffffffffffffffffffffffffffffffff82612224565b61226b8683612224565b95508019841693508086168417925050509392505050565b6000819050919050565b60006122a86122a361229e8461182f565b612283565b61182f565b9050919050565b6000819050919050565b6122c28361228d565b6122d66122ce826122af565b848454612231565b825550505050565b600090565b6122eb6122de565b6122f68184846122b9565b505050565b5b8181101561231a5761230f6000826122e3565b6001810190506122fc565b5050565b601f82111561235f57612330816121ff565b61233984612214565b81016020851015612348578190505b61235c61235485612214565b8301826122fb565b50505b505050565b600082821c905092915050565b600061238260001984600802612364565b1980831691505092915050565b600061239b8383612371565b9150826002028217905092915050565b6123b482611b2b565b67ffffffffffffffff8111156123cd576123cc611880565b5b6123d782546121ce565b6123e282828561231e565b600060209050601f8311600181146124155760008415612403578287015190505b61240d858261238f565b865550612475565b601f198416612423866121ff565b60005b8281101561244b57848901518255600182019150602085019450602081019050612426565b868310156124685784890151612464601f891682612371565b8355505b6001600288020188555050505b505050505050565b7f4e487b7100000000000000000000000000000000000000000000000000000000600052601160045260246000fd5b60006124b78261182f565b91507fffffffffffffffffffffffffffffffffffffffffffffffffffffffffffffffff82036124e9576124e861247d565b5b600182019050919050565b60006124ff8261182f565b915061250a8361182f565b92508282039050818111156125225761252161247d565b5b92915050565b7f796f7520646f206e6f74206f776e207468697320706c61796572000000000000600082015250565b600061255e601a836120f5565b915061256982612528565b602082019050919050565b6000602082019050818103600083015261258d81612551565b9050919050565b7f6d757374206e6f74206265206571756970706564000000000000000000000000600082015250565b60006125ca6014836120f5565b91506125d582612594565b602082019050919050565b600060208201905081810360008301526125f9816125bd565b9050919050565b7f6e656564206d6f72652067656d00000000000000000000000000000000000000600082015250565b6000612636600d836120f5565b915061264182612600565b602082019050919050565b6000602082019050818103600083015261266581612629565b9050919050565b600081905092915050565b60008154612684816121ce565b61268e818661266c565b945060018216600081146126a957600181146126be576126f1565b60ff19831686528115158202860193506126f1565b6126c7856121ff565b60005b838110156126e9578154818901526001820191506020810190506126ca565b838801955050505b50505092915050565b60006127068284612677565b915081905092915050565b7f6e6f74207468652073616d652065717569706d656e74206e616d650000000000600082015250565b6000612747601b836120f5565b915061275282612711565b602082019050919050565b600060208201905081810360008301526127768161273a565b9050919050565b60008154905061278c816121ce565b9050919050565b60008190508160005260206000209050919050565b8181036127b657505061288e565b6127bf8261277d565b67ffffffffffffffff8111156127d8576127d7611880565b5b6127e282546121ce565b6127ed82828561231e565b6000601f83116001811461281c576000841561280a578287015490505b612814858261238f565b865550612887565b601f19841661282a87612793565b9650612835866121ff565b60005b8281101561285d57848901548255600182019150600185019450602081019050612838565b8683101561287a5784890154612876601f891682612371565b8355505b6001600288020188555050505b5050505050505b56fea2646970667358221220524eef6495bbc5c71eeda56cd1188cd46716a3596888e99c7850983836e4f9cf64736f6c63430008120033",
  "linkReferences": {},
  "deployedLinkReferences": {}
}