{
  "_format": "hh-sol-artifact-1",
  "contractName": "CraftFacet",
  "sourceName": "contracts/facets/CraftFacet.sol",
  "abi": [
    {
      "anonymous": false,
      "inputs": [
        {
          "indexed": true,
          "internalType": "uint256",
          "name": "_playerId",
          "type": "uint256"
        },
        {
          "indexed": false,
          "internalType": "uint256",
          "name": "_equipmentId",
          "type": "uint256"
        },
        {
          "indexed": false,
          "internalType": "uint256",
          "name": "_advancedCraftId",
          "type": "uint256"
        }
      ],
      "name": "AdvancedCraftEvent",
      "type": "event"
    },
    {
      "anonymous": false,
      "inputs": [
        {
          "indexed": true,
          "internalType": "uint256",
          "name": "_playerId",
          "type": "uint256"
        },
        {
          "indexed": false,
          "internalType": "uint256",
          "name": "_equipmentId",
          "type": "uint256"
        },
        {
          "indexed": false,
          "internalType": "uint256",
          "name": "_craftId",
          "type": "uint256"
        }
      ],
      "name": "BasicCraftEvent",
      "type": "event"
    },
    {
      "anonymous": false,
      "inputs": [
        {
          "indexed": true,
          "internalType": "uint256",
          "name": "_basicEquipmentSchemaId",
          "type": "uint256"
        },
        {
          "indexed": true,
          "internalType": "uint256",
          "name": "_value",
          "type": "uint256"
        },
        {
          "indexed": false,
          "internalType": "string",
          "name": "_uri",
          "type": "string"
        },
        {
          "components": [
            {
              "internalType": "uint256",
              "name": "basicEquipmentSchemaId",
              "type": "uint256"
            },
            {
              "internalType": "uint256",
              "name": "slot",
              "type": "uint256"
            },
            {
              "internalType": "uint256",
              "name": "value",
              "type": "uint256"
            },
            {
              "internalType": "uint256",
              "name": "stat",
              "type": "uint256"
            },
            {
              "internalType": "uint256",
              "name": "cost",
              "type": "uint256"
            },
            {
              "internalType": "string",
              "name": "name",
              "type": "string"
            },
            {
              "internalType": "string",
              "name": "uri",
              "type": "string"
            }
          ],
          "indexed": false,
          "internalType": "struct BasicEquipmentSchema",
          "name": "_basicEQuipmentSchema",
          "type": "tuple"
        }
      ],
      "name": "BasicEquipmentSchemaCreated",
      "type": "event"
    },
    {
      "anonymous": false,
      "inputs": [
        {
          "indexed": true,
          "internalType": "uint256",
          "name": "_basicEquipmentSchemaId",
          "type": "uint256"
        },
        {
          "indexed": true,
          "internalType": "uint256",
          "name": "_value",
          "type": "uint256"
        },
        {
          "indexed": false,
          "internalType": "string",
          "name": "_uri",
          "type": "string"
        },
        {
          "components": [
            {
              "internalType": "uint256",
              "name": "basicEquipmentSchemaId",
              "type": "uint256"
            },
            {
              "internalType": "uint256",
              "name": "slot",
              "type": "uint256"
            },
            {
              "internalType": "uint256",
              "name": "value",
              "type": "uint256"
            },
            {
              "internalType": "uint256",
              "name": "stat",
              "type": "uint256"
            },
            {
              "internalType": "uint256",
              "name": "cost",
              "type": "uint256"
            },
            {
              "internalType": "string",
              "name": "name",
              "type": "string"
            },
            {
              "internalType": "string",
              "name": "uri",
              "type": "string"
            }
          ],
          "indexed": false,
          "internalType": "struct BasicEquipmentSchema",
          "name": "_basicEQuipmentSchema",
          "type": "tuple"
        }
      ],
      "name": "BasicEquipmentSchemaUpdate",
      "type": "event"
    },
    {
      "anonymous": false,
      "inputs": [
        {
          "indexed": true,
          "internalType": "uint256",
          "name": "id",
          "type": "uint256"
        },
        {
          "components": [
            {
              "internalType": "uint256",
              "name": "advancedCraftId",
              "type": "uint256"
            },
            {
              "internalType": "uint256",
              "name": "slot",
              "type": "uint256"
            },
            {
              "internalType": "uint256",
              "name": "value",
              "type": "uint256"
            },
            {
              "internalType": "uint256",
              "name": "stat",
              "type": "uint256"
            },
            {
              "internalType": "uint256",
              "name": "treasureSchemaId",
              "type": "uint256"
            },
            {
              "internalType": "string",
              "name": "oldName",
              "type": "string"
            },
            {
              "internalType": "string",
              "name": "newName",
              "type": "string"
            },
            {
              "internalType": "string",
              "name": "uri",
              "type": "string"
            }
          ],
          "indexed": false,
          "internalType": "struct AdvancedCraft",
          "name": "_advancedCraft",
          "type": "tuple"
        }
      ],
      "name": "CreateAdvancedCraft",
      "type": "event"
    },
    {
      "anonymous": false,
      "inputs": [
        {
          "indexed": true,
          "internalType": "uint256",
          "name": "id",
          "type": "uint256"
        },
        {
          "components": [
            {
              "internalType": "uint256",
              "name": "id",
              "type": "uint256"
            },
            {
              "internalType": "uint256",
              "name": "slot",
              "type": "uint256"
            },
            {
              "internalType": "uint256",
              "name": "value",
              "type": "uint256"
            },
            {
              "internalType": "uint256",
              "name": "cost",
              "type": "uint256"
            },
            {
              "internalType": "string",
              "name": "oldName",
              "type": "string"
            },
            {
              "internalType": "string",
              "name": "newName",
              "type": "string"
            },
            {
              "internalType": "string",
              "name": "uri",
              "type": "string"
            }
          ],
          "indexed": false,
          "internalType": "struct BasicCraft",
          "name": "_basicCraft",
          "type": "tuple"
        }
      ],
      "name": "CreateBasicCraft",
      "type": "event"
    },
    {
      "anonymous": false,
      "inputs": [
        {
          "indexed": true,
          "internalType": "uint256",
          "name": "_playerId",
          "type": "uint256"
        },
        {
          "indexed": false,
          "internalType": "uint256",
          "name": "_equipmentSchemaId",
          "type": "uint256"
        }
      ],
      "name": "PurchaseBasicEquipment",
      "type": "event"
    },
    {
      "inputs": [
        {
          "internalType": "uint256",
          "name": "_playerId",
          "type": "uint256"
        },
        {
          "internalType": "uint256",
          "name": "_advancedCraftId",
          "type": "uint256"
        },
        {
          "internalType": "uint256",
          "name": "_equipmentId",
          "type": "uint256"
        }
      ],
      "name": "advancedCraft",
      "outputs": [],
      "stateMutability": "nonpayable",
      "type": "function"
    },
    {
      "inputs": [
        {
          "internalType": "uint256",
          "name": "_playerId",
          "type": "uint256"
        },
        {
          "internalType": "uint256",
          "name": "_equipmentId",
          "type": "uint256"
        },
        {
          "internalType": "uint256",
          "name": "_craftId",
          "type": "uint256"
        }
      ],
      "name": "basicCraft",
      "outputs": [],
      "stateMutability": "nonpayable",
      "type": "function"
    },
    {
      "inputs": [
        {
          "internalType": "uint256",
          "name": "_treasureSchemaId",
          "type": "uint256"
        },
        {
          "internalType": "uint256",
          "name": "_slot",
          "type": "uint256"
        },
        {
          "internalType": "uint256",
          "name": "_value",
          "type": "uint256"
        },
        {
          "internalType": "uint256",
          "name": "_stat",
          "type": "uint256"
        },
        {
          "internalType": "string",
          "name": "_oldName",
          "type": "string"
        },
        {
          "internalType": "string",
          "name": "_newName",
          "type": "string"
        },
        {
          "internalType": "string",
          "name": "_uri",
          "type": "string"
        }
      ],
      "name": "createAdvancedCraft",
      "outputs": [],
      "stateMutability": "nonpayable",
      "type": "function"
    },
    {
      "inputs": [
        {
          "internalType": "uint256",
          "name": "_equipmenSchematId",
          "type": "uint256"
        },
        {
          "internalType": "uint256",
          "name": "_value",
          "type": "uint256"
        },
        {
          "internalType": "uint256",
          "name": "_cost",
          "type": "uint256"
        },
        {
          "internalType": "string",
          "name": "_newName",
          "type": "string"
        },
        {
          "internalType": "string",
          "name": "_uri",
          "type": "string"
        }
      ],
      "name": "createBasicCraft",
      "outputs": [],
      "stateMutability": "nonpayable",
      "type": "function"
    },
    {
      "inputs": [
        {
          "internalType": "uint256",
          "name": "_slot",
          "type": "uint256"
        },
        {
          "internalType": "uint256",
          "name": "_value",
          "type": "uint256"
        },
        {
          "internalType": "uint256",
          "name": "_stat",
          "type": "uint256"
        },
        {
          "internalType": "uint256",
          "name": "_cost",
          "type": "uint256"
        },
        {
          "internalType": "string",
          "name": "_name",
          "type": "string"
        },
        {
          "internalType": "string",
          "name": "_uri",
          "type": "string"
        }
      ],
      "name": "createBasicEquipment",
      "outputs": [],
      "stateMutability": "nonpayable",
      "type": "function"
    },
    {
      "inputs": [
        {
          "internalType": "uint256",
          "name": "_advancedCraftId",
          "type": "uint256"
        }
      ],
      "name": "getAdvancedCraft",
      "outputs": [
        {
          "components": [
            {
              "internalType": "uint256",
              "name": "advancedCraftId",
              "type": "uint256"
            },
            {
              "internalType": "uint256",
              "name": "slot",
              "type": "uint256"
            },
            {
              "internalType": "uint256",
              "name": "value",
              "type": "uint256"
            },
            {
              "internalType": "uint256",
              "name": "stat",
              "type": "uint256"
            },
            {
              "internalType": "uint256",
              "name": "treasureSchemaId",
              "type": "uint256"
            },
            {
              "internalType": "string",
              "name": "oldName",
              "type": "string"
            },
            {
              "internalType": "string",
              "name": "newName",
              "type": "string"
            },
            {
              "internalType": "string",
              "name": "uri",
              "type": "string"
            }
          ],
          "internalType": "struct AdvancedCraft",
          "name": "",
          "type": "tuple"
        }
      ],
      "stateMutability": "view",
      "type": "function"
    },
    {
      "inputs": [],
      "name": "getAdvancedCraftCount",
      "outputs": [
        {
          "internalType": "uint256",
          "name": "",
          "type": "uint256"
        }
      ],
      "stateMutability": "view",
      "type": "function"
    },
    {
      "inputs": [
        {
          "internalType": "uint256",
          "name": "_basicCraftId",
          "type": "uint256"
        }
      ],
      "name": "getBasicCraft",
      "outputs": [
        {
          "components": [
            {
              "internalType": "uint256",
              "name": "id",
              "type": "uint256"
            },
            {
              "internalType": "uint256",
              "name": "slot",
              "type": "uint256"
            },
            {
              "internalType": "uint256",
              "name": "value",
              "type": "uint256"
            },
            {
              "internalType": "uint256",
              "name": "cost",
              "type": "uint256"
            },
            {
              "internalType": "string",
              "name": "oldName",
              "type": "string"
            },
            {
              "internalType": "string",
              "name": "newName",
              "type": "string"
            },
            {
              "internalType": "string",
              "name": "uri",
              "type": "string"
            }
          ],
          "internalType": "struct BasicCraft",
          "name": "",
          "type": "tuple"
        }
      ],
      "stateMutability": "view",
      "type": "function"
    },
    {
      "inputs": [],
      "name": "getBasicCraftCount",
      "outputs": [
        {
          "internalType": "uint256",
          "name": "",
          "type": "uint256"
        }
      ],
      "stateMutability": "view",
      "type": "function"
    },
    {
      "inputs": [],
      "name": "getBasicEquipmentCount",
      "outputs": [
        {
          "internalType": "uint256",
          "name": "",
          "type": "uint256"
        }
      ],
      "stateMutability": "view",
      "type": "function"
    },
    {
      "inputs": [
        {
          "internalType": "uint256",
          "name": "_basicEquipmentSchemaId",
          "type": "uint256"
        }
      ],
      "name": "getBasicEquipmentSchema",
      "outputs": [
        {
          "components": [
            {
              "internalType": "uint256",
              "name": "basicEquipmentSchemaId",
              "type": "uint256"
            },
            {
              "internalType": "uint256",
              "name": "slot",
              "type": "uint256"
            },
            {
              "internalType": "uint256",
              "name": "value",
              "type": "uint256"
            },
            {
              "internalType": "uint256",
              "name": "stat",
              "type": "uint256"
            },
            {
              "internalType": "uint256",
              "name": "cost",
              "type": "uint256"
            },
            {
              "internalType": "string",
              "name": "name",
              "type": "string"
            },
            {
              "internalType": "string",
              "name": "uri",
              "type": "string"
            }
          ],
          "internalType": "struct BasicEquipmentSchema",
          "name": "",
          "type": "tuple"
        }
      ],
      "stateMutability": "view",
      "type": "function"
    },
    {
      "inputs": [
        {
          "internalType": "uint256",
          "name": "_equipmentId",
          "type": "uint256"
        }
      ],
      "name": "getEquipment",
      "outputs": [
        {
          "components": [
            {
              "internalType": "uint256",
              "name": "id",
              "type": "uint256"
            },
            {
              "internalType": "uint256",
              "name": "pointer",
              "type": "uint256"
            },
            {
              "internalType": "uint256",
              "name": "slot",
              "type": "uint256"
            },
            {
              "internalType": "uint256",
              "name": "rank",
              "type": "uint256"
            },
            {
              "internalType": "uint256",
              "name": "value",
              "type": "uint256"
            },
            {
              "internalType": "uint256",
              "name": "stat",
              "type": "uint256"
            },
            {
              "internalType": "uint256",
              "name": "owner",
              "type": "uint256"
            },
            {
              "internalType": "string",
              "name": "name",
              "type": "string"
            },
            {
              "internalType": "string",
              "name": "uri",
              "type": "string"
            },
            {
              "internalType": "bool",
              "name": "isEquiped",
              "type": "bool"
            }
          ],
          "internalType": "struct Equipment",
          "name": "",
          "type": "tuple"
        }
      ],
      "stateMutability": "view",
      "type": "function"
    },
    {
      "inputs": [
        {
          "internalType": "uint256",
          "name": "_playerId",
          "type": "uint256"
        }
      ],
      "name": "getPlayerToEquipment",
      "outputs": [
        {
          "internalType": "uint256[]",
          "name": "",
          "type": "uint256[]"
        }
      ],
      "stateMutability": "view",
      "type": "function"
    },
    {
      "inputs": [
        {
          "internalType": "uint256",
          "name": "_playerId",
          "type": "uint256"
        },
        {
          "internalType": "uint256",
          "name": "_equipmentSchemaId",
          "type": "uint256"
        }
      ],
      "name": "purchaseBasicEquipment",
      "outputs": [],
      "stateMutability": "nonpayable",
      "type": "function"
    },
    {
      "inputs": [
        {
          "internalType": "uint256",
          "name": "_basicEquipmentSchemaId",
          "type": "uint256"
        },
        {
          "internalType": "uint256",
          "name": "_slot",
          "type": "uint256"
        },
        {
          "internalType": "uint256",
          "name": "_value",
          "type": "uint256"
        },
        {
          "internalType": "uint256",
          "name": "_stat",
          "type": "uint256"
        },
        {
          "internalType": "uint256",
          "name": "_cost",
          "type": "uint256"
        },
        {
          "internalType": "string",
          "name": "_name",
          "type": "string"
        },
        {
          "internalType": "string",
          "name": "_uri",
          "type": "string"
        }
      ],
      "name": "updateBasicEquipmentScehma",
      "outputs": [],
      "stateMutability": "nonpayable",
      "type": "function"
    }
  ],
  "bytecode": "0x608060405234801561001057600080fd5b506134cc806100206000396000f3fe608060405234801561001057600080fd5b50600436106100f55760003560e01c8063b09441c011610097578063c87bf95211610066578063c87bf95214610284578063d216e986146102a0578063d6f13898146102d0578063fa8285b5146102ec576100f5565b8063b09441c0146101fe578063ba0615901461021c578063c49dd1881461024c578063c653d4b214610268576100f5565b806340235b3f116100d357806340235b3f146101645780634bf68ade14610180578063799173c1146101b057806381dd2fa0146101ce576100f5565b806307a4cc23146100fa57806325a2bb66146101165780632bb79ab114610134575b600080fd5b610114600480360381019061010f919061237d565b610308565b005b61011e6103b5565b60405161012b9190612466565b60405180910390f35b61014e60048036038101906101499190612481565b6103c4565b60405161015b91906125fa565b60405180910390f35b61017e6004803603810190610179919061261c565b6103dc565b005b61019a60048036038101906101959190612481565b610422565b6040516101a79190612706565b60405180910390f35b6101b861043a565b6040516101c59190612466565b60405180910390f35b6101e860048036038101906101e39190612481565b610449565b6040516101f59190612824565b60405180910390f35b610206610461565b6040516102139190612466565b60405180910390f35b61023660048036038101906102319190612481565b610470565b60405161024391906128f5565b60405180910390f35b61026660048036038101906102619190612917565b610482565b005b610282600480360381019061027d91906129dc565b61053a565b005b61029e60048036038101906102999190612a2f565b610584565b005b6102ba60048036038101906102b59190612481565b6105e5565b6040516102c79190612b85565b60405180910390f35b6102ea60048036038101906102e591906129dc565b6105fd565b005b61030660048036038101906103019190612ba7565b610647565b005b600073434d36f32abed3f7937fe0be88dc1b0eb938124490508073ffffffffffffffffffffffffffffffffffffffff163373ffffffffffffffffffffffffffffffffffffffff161461035957600080fd5b610368888888888888886106ac565b85887f8a178ab5b62361fa794647e8b4c0bc01a5448c063921eb7a1a83116205e74be5846103958c6105e5565b6040516103a3929190612ce7565b60405180910390a35050505050505050565b60006103bf610782565b905090565b6103cc6120d9565b6103d58261079a565b9050919050565b6103e682826109bf565b817fe7504f1059be7db1f858136933fb89f1e9996256b3beab064b8293dcc3708607826040516104169190612466565b60405180910390a25050565b61042a61211e565b61043382610e4a565b9050919050565b6000610444611064565b905090565b61045161215b565b61045a8261107c565b9050919050565b600061046b61123e565b905090565b606061047b82611256565b9050919050565b600073434d36f32abed3f7937fe0be88dc1b0eb938124490508073ffffffffffffffffffffffffffffffffffffffff163373ffffffffffffffffffffffffffffffffffffffff16146104d357600080fd5b6104e18787878787876112d0565b60006104eb610782565b905086817f8a178ab5b62361fa794647e8b4c0bc01a5448c063921eb7a1a83116205e74be58561051a856105e5565b604051610528929190612ce7565b60405180910390a35050505050505050565b6105458383836113b0565b827f63606c63b2453fc45fa811a363d771bb9678c4c5532d644090ebdbe07765546f8284604051610577929190612d1e565b60405180910390a2505050565b61059185858585856116f5565b600061059b61043a565b9050807fe7ebf37154a7baecdaff82aaaf79c17b0e7ce8cd17c53835ffd29abbc8a833da6105c883610422565b6040516105d59190612706565b60405180910390a2505050505050565b6105ed6121b0565b6105f682611898565b9050919050565b610608838383611a2a565b827f91dddbc82058117c5a605d41c7526e95c5b808e19e0a0d5e204cb74b592e98dc838360405161063a929190612d1e565b60405180910390a2505050565b61065687878787878787611def565b6000610660610461565b9050807fe0dba30483c5bafd92b5b273ff82d3cb8ba8ae555891542aee70c7b5d271b99f61068d836103c4565b60405161069a91906125fa565b60405180910390a25050505050505050565b60006106b6611eed565b9050868160020160008a815260200190815260200160002060010181905550858160020160008a815260200190815260200160002060020181905550848160020160008a815260200190815260200160002060030181905550838160020160008a815260200190815260200160002060040181905550828160020160008a815260200190815260200160002060050190816107519190612f53565b50818160020160008a815260200190815260200160002060060190816107779190612f53565b505050505050505050565b60008061078d611eed565b9050806001015491505090565b6107a26120d9565b60006107ac611eed565b905080600801600084815260200190815260200160002060405180610100016040529081600082015481526020016001820154815260200160028201548152602001600382015481526020016004820154815260200160058201805461081190612d76565b80601f016020809104026020016040519081016040528092919081815260200182805461083d90612d76565b801561088a5780601f1061085f5761010080835404028352916020019161088a565b820191906000526020600020905b81548152906001019060200180831161086d57829003601f168201915b505050505081526020016006820180546108a390612d76565b80601f01602080910402602001604051908101604052809291908181526020018280546108cf90612d76565b801561091c5780601f106108f15761010080835404028352916020019161091c565b820191906000526020600020905b8154815290600101906020018083116108ff57829003601f168201915b5050505050815260200160078201805461093590612d76565b80601f016020809104026020016040519081016040528092919081815260200182805461096190612d76565b80156109ae5780601f10610983576101008083540402835291602001916109ae565b820191906000526020600020905b81548152906001019060200180831161099157829003601f168201915b505050505081525050915050919050565b60006109c9611f1a565b905060006109d5611eed565b905060006109e1611f47565b905060008360030160008781526020019081526020016000206002015414610a0857600080fd5b3373ffffffffffffffffffffffffffffffffffffffff1683600201600087815260200190815260200160002060009054906101000a900473ffffffffffffffffffffffffffffffffffffffff1673ffffffffffffffffffffffffffffffffffffffff1614610a7557600080fd5b816002016000858152602001908152602001600020600401548160000160003373ffffffffffffffffffffffffffffffffffffffff1673ffffffffffffffffffffffffffffffffffffffff168152602001908152602001600020541015610adb57600080fd5b816000016000815480929190610af090613054565b919050555060405180610140016040528083600001548152602001836006016000888152602001908152602001600020805490508152602001836002016000878152602001908152602001600020600101548152602001600181526020018360020160008781526020019081526020016000206002015481526020018360020160008781526020019081526020016000206003015481526020018681526020018360020160008781526020019081526020016000206005018054610bb390612d76565b80601f0160208091040260200160405190810160405280929190818152602001828054610bdf90612d76565b8015610c2c5780601f10610c0157610100808354040283529160200191610c2c565b820191906000526020600020905b815481529060010190602001808311610c0f57829003601f168201915b505050505081526020018360020160008781526020019081526020016000206006018054610c5990612d76565b80601f0160208091040260200160405190810160405280929190818152602001828054610c8590612d76565b8015610cd25780601f10610ca757610100808354040283529160200191610cd2565b820191906000526020600020905b815481529060010190602001808311610cb557829003601f168201915b505050505081526020016000151581525082600301600084600001548152602001908152602001600020600082015181600001556020820151816001015560408201518160020155606082015181600301556080820151816004015560a0820151816005015560c0820151816006015560e0820151816007019081610d579190612f53565b50610100820151816008019081610d6e9190612f53565b506101208201518160090160006101000a81548160ff02191690831515021790555090505081600601600086815260200190815260200160002082600001549080600181540180825580915050600190039060005260206000200160009091909190915055816002016000858152602001908152602001600020600401548160000160003373ffffffffffffffffffffffffffffffffffffffff1673ffffffffffffffffffffffffffffffffffffffff1681526020019081526020016000206000828254610e3c919061309c565b925050819055505050505050565b610e5261211e565b6000610e5c611eed565b90508060050160008481526020019081526020016000206040518060e001604052908160008201548152602001600182015481526020016002820154815260200160038201548152602001600482018054610eb690612d76565b80601f0160208091040260200160405190810160405280929190818152602001828054610ee290612d76565b8015610f2f5780601f10610f0457610100808354040283529160200191610f2f565b820191906000526020600020905b815481529060010190602001808311610f1257829003601f168201915b50505050508152602001600582018054610f4890612d76565b80601f0160208091040260200160405190810160405280929190818152602001828054610f7490612d76565b8015610fc15780601f10610f9657610100808354040283529160200191610fc1565b820191906000526020600020905b815481529060010190602001808311610fa457829003601f168201915b50505050508152602001600682018054610fda90612d76565b80601f016020809104026020016040519081016040528092919081815260200182805461100690612d76565b80156110535780601f1061102857610100808354040283529160200191611053565b820191906000526020600020905b81548152906001019060200180831161103657829003601f168201915b505050505081525050915050919050565b60008061106f611eed565b9050806004015491505090565b61108461215b565b600061108e611eed565b9050806003016000848152602001908152602001600020604051806101400160405290816000820154815260200160018201548152602001600282015481526020016003820154815260200160048201548152602001600582015481526020016006820154815260200160078201805461110790612d76565b80601f016020809104026020016040519081016040528092919081815260200182805461113390612d76565b80156111805780601f1061115557610100808354040283529160200191611180565b820191906000526020600020905b81548152906001019060200180831161116357829003601f168201915b5050505050815260200160088201805461119990612d76565b80601f01602080910402602001604051908101604052809291908181526020018280546111c590612d76565b80156112125780601f106111e757610100808354040283529160200191611212565b820191906000526020600020905b8154815290600101906020018083116111f557829003601f168201915b505050505081526020016009820160009054906101000a900460ff161515151581525050915050919050565b600080611249611eed565b9050806007015491505090565b60606000611262611eed565b90508060060160008481526020019081526020016000208054806020026020016040519081016040528092919081815260200182805480156112c357602002820191906000526020600020905b8154815260200190600101908083116112af575b5050505050915050919050565b60006112da611eed565b90508060010160008154809291906112f190613054565b91905055506040518060e00160405280826001015481526020018881526020018781526020018681526020018581526020018481526020018381525081600201600083600101548152602001908152602001600020600082015181600001556020820151816001015560408201518160020155606082015181600301556080820151816004015560a082015181600501908161138d9190612f53565b5060c08201518160060190816113a39190612f53565b5090505050505050505050565b60006113ba611f1a565b905060006113c6611eed565b905060006113d2611f74565b9050600083600301600088815260200190815260200160002060020154146113f957600080fd5b3373ffffffffffffffffffffffffffffffffffffffff1683600201600088815260200190815260200160002060009054906101000a900473ffffffffffffffffffffffffffffffffffffffff1673ffffffffffffffffffffffffffffffffffffffff161461149c576040517f08c379a00000000000000000000000000000000000000000000000000000000081526004016114939061311c565b60405180910390fd5b81600301600085815260200190815260200160002060090160009054906101000a900460ff1615611502576040517f08c379a00000000000000000000000000000000000000000000000000000000081526004016114f990613188565b60405180910390fd5b60008260080160008781526020019081526020016000209050600182600301600083600401548152602001908152602001600020600089815260200190815260200160002054101561155357600080fd5b806005016040516020016115679190613236565b604051602081830303815290604052805190602001208360030160008781526020019081526020016000206007016040516020016115a59190613236565b60405160208183030381529060405280519060200120146115fb576040517f08c379a00000000000000000000000000000000000000000000000000000000081526004016115f290613299565b60405180910390fd5b826003016000868152602001908152602001600020600301600081548092919061162490613054565b91905055508060020154836003016000878152602001908152602001600020600401819055508060010154836003016000878152602001908152602001600020600201819055508060030154836003016000878152602001908152602001600020600501819055508060060183600301600087815260200190815260200160002060070190816116b491906132e4565b508060070183600301600087815260200190815260200160002060080190816116dd91906132e4565b506116ec878260040154611fa1565b50505050505050565b60006116ff611eed565b905080600401600081548092919061171690613054565b91905055506040518060e0016040528082600401548152602001826002016000898152602001908152602001600020600101548152602001868152602001858152602001826002016000898152602001908152602001600020600501805461177d90612d76565b80601f01602080910402602001604051908101604052809291908181526020018280546117a990612d76565b80156117f65780601f106117cb576101008083540402835291602001916117f6565b820191906000526020600020905b8154815290600101906020018083116117d957829003601f168201915b5050505050815260200184815260200183815250816005016000836004015481526020019081526020016000206000820151816000015560208201518160010155604082015181600201556060820151816003015560808201518160040190816118609190612f53565b5060a08201518160050190816118769190612f53565b5060c082015181600601908161188c9190612f53565b50905050505050505050565b6118a06121b0565b60006118aa611eed565b90508060020160008481526020019081526020016000206040518060e0016040529081600082015481526020016001820154815260200160028201548152602001600382015481526020016004820154815260200160058201805461190e90612d76565b80601f016020809104026020016040519081016040528092919081815260200182805461193a90612d76565b80156119875780601f1061195c57610100808354040283529160200191611987565b820191906000526020600020905b81548152906001019060200180831161196a57829003601f168201915b505050505081526020016006820180546119a090612d76565b80601f01602080910402602001604051908101604052809291908181526020018280546119cc90612d76565b8015611a195780601f106119ee57610100808354040283529160200191611a19565b820191906000526020600020905b8154815290600101906020018083116119fc57829003601f168201915b505050505081525050915050919050565b6000611a34611f1a565b90506000611a40611eed565b90506000611a4c611f47565b905060008360030160008881526020019081526020016000206002015414611a7357600080fd5b3373ffffffffffffffffffffffffffffffffffffffff1683600201600088815260200190815260200160002060009054906101000a900473ffffffffffffffffffffffffffffffffffffffff1673ffffffffffffffffffffffffffffffffffffffff1614611b16576040517f08c379a0000000000000000000000000000000000000000000000000000000008152600401611b0d9061311c565b60405180910390fd5b81600301600086815260200190815260200160002060090160009054906101000a900460ff1615611b7c576040517f08c379a0000000000000000000000000000000000000000000000000000000008152600401611b7390613188565b60405180910390fd5b6000826005016000868152602001908152602001600020905080600301548260010160003373ffffffffffffffffffffffffffffffffffffffff1673ffffffffffffffffffffffffffffffffffffffff168152602001908152602001600020541015611c1d576040517f08c379a0000000000000000000000000000000000000000000000000000000008152600401611c1490613418565b60405180910390fd5b868360030160008881526020019081526020016000206006015414611c4157600080fd5b80600401604051602001611c559190613236565b60405160208183030381529060405280519060200120836003016000888152602001908152602001600020600701604051602001611c939190613236565b6040516020818303038152906040528051906020012014611ce9576040517f08c379a0000000000000000000000000000000000000000000000000000000008152600401611ce090613299565b60405180910390fd5b80600301548260010160003373ffffffffffffffffffffffffffffffffffffffff1673ffffffffffffffffffffffffffffffffffffffff1681526020019081526020016000206000828254611d3e919061309c565b925050819055508260030160008781526020019081526020016000206003016000815480929190611d6e90613054565b9190505550806002015483600301600088815260200190815260200160002060040181905550806005018360030160008881526020019081526020016000206007019081611dbc91906132e4565b50806006018360030160008881526020019081526020016000206008019081611de591906132e4565b5050505050505050565b6000611df9611eed565b9050806007016000815480929190611e1090613054565b9190505550604051806101000160405280826007015481526020018881526020018781526020018681526020018981526020018581526020018481526020018381525081600801600083600701548152602001908152602001600020600082015181600001556020820151816001015560408201518160020155606082015181600301556080820151816004015560a0820151816005019081611eb39190612f53565b5060c0820151816006019081611ec99190612f53565b5060e0820151816007019081611edf9190612f53565b509050505050505050505050565b6000807faad0511195ddfb575f5187a7172ca6fc330f129a86291f15eaa5f7537ab038dc90508091505090565b6000807f3cab9a070a0c61cd0ae9d9e9e2c0781e5ca8691bec4087e5a4701d5ac018dd4e90508091505090565b6000807f2c89d74504b6ad8d4fbde22bc3474166bac5452a11195897f239d8bebe02d70790508091505090565b6000807fb5dbbc334907f600e1151190a68c4043043163a23a907389a2c6f6231ed4318b90508091505090565b6000611fab6120ac565b9050828160040160008481526020019081526020016000206002015414611fd157600080fd5b60008160040160008481526020019081526020016000206004015490506000600183600501600087815260200190815260200160002080549050612015919061309c565b905080836005016000878152602001908152602001600020838154811061203f5761203e613438565b5b9060005260206000200181905550818360040160008381526020019081526020016000206004018190555082600501600086815260200190815260200160002080548061208f5761208e613467565b5b600190038181906000526020600020016000905590555050505050565b6000807fb5dbbc334907f600e1151190a68c4043043163a23a907389a2c6f6231ed4318b90508091505090565b60405180610100016040528060008152602001600081526020016000815260200160008152602001600081526020016060815260200160608152602001606081525090565b6040518060e00160405280600081526020016000815260200160008152602001600081526020016060815260200160608152602001606081525090565b6040518061014001604052806000815260200160008152602001600081526020016000815260200160008152602001600081526020016000815260200160608152602001606081526020016000151581525090565b6040518060e00160405280600081526020016000815260200160008152602001600081526020016000815260200160608152602001606081525090565b6000604051905090565b600080fd5b600080fd5b6000819050919050565b61221481612201565b811461221f57600080fd5b50565b6000813590506122318161220b565b92915050565b600080fd5b600080fd5b6000601f19601f8301169050919050565b7f4e487b7100000000000000000000000000000000000000000000000000000000600052604160045260246000fd5b61228a82612241565b810181811067ffffffffffffffff821117156122a9576122a8612252565b5b80604052505050565b60006122bc6121ed565b90506122c88282612281565b919050565b600067ffffffffffffffff8211156122e8576122e7612252565b5b6122f182612241565b9050602081019050919050565b82818337600083830152505050565b600061232061231b846122cd565b6122b2565b90508281526020810184848401111561233c5761233b61223c565b5b6123478482856122fe565b509392505050565b600082601f83011261236457612363612237565b5b813561237484826020860161230d565b91505092915050565b600080600080600080600060e0888a03121561239c5761239b6121f7565b5b60006123aa8a828b01612222565b97505060206123bb8a828b01612222565b96505060406123cc8a828b01612222565b95505060606123dd8a828b01612222565b94505060806123ee8a828b01612222565b93505060a088013567ffffffffffffffff81111561240f5761240e6121fc565b5b61241b8a828b0161234f565b92505060c088013567ffffffffffffffff81111561243c5761243b6121fc565b5b6124488a828b0161234f565b91505092959891949750929550565b61246081612201565b82525050565b600060208201905061247b6000830184612457565b92915050565b600060208284031215612497576124966121f7565b5b60006124a584828501612222565b91505092915050565b6124b781612201565b82525050565b600081519050919050565b600082825260208201905092915050565b60005b838110156124f75780820151818401526020810190506124dc565b60008484015250505050565b600061250e826124bd565b61251881856124c8565b93506125288185602086016124d9565b61253181612241565b840191505092915050565b60006101008301600083015161255560008601826124ae565b50602083015161256860208601826124ae565b50604083015161257b60408601826124ae565b50606083015161258e60608601826124ae565b5060808301516125a160808601826124ae565b5060a083015184820360a08601526125b98282612503565b91505060c083015184820360c08601526125d38282612503565b91505060e083015184820360e08601526125ed8282612503565b9150508091505092915050565b60006020820190508181036000830152612614818461253c565b905092915050565b60008060408385031215612633576126326121f7565b5b600061264185828601612222565b925050602061265285828601612222565b9150509250929050565b600060e08301600083015161267460008601826124ae565b50602083015161268760208601826124ae565b50604083015161269a60408601826124ae565b5060608301516126ad60608601826124ae565b50608083015184820360808601526126c58282612503565b91505060a083015184820360a08601526126df8282612503565b91505060c083015184820360c08601526126f98282612503565b9150508091505092915050565b60006020820190508181036000830152612720818461265c565b905092915050565b60008115159050919050565b61273d81612728565b82525050565b60006101408301600083015161275c60008601826124ae565b50602083015161276f60208601826124ae565b50604083015161278260408601826124ae565b50606083015161279560608601826124ae565b5060808301516127a860808601826124ae565b5060a08301516127bb60a08601826124ae565b5060c08301516127ce60c08601826124ae565b5060e083015184820360e08601526127e68282612503565b9150506101008301518482036101008601526128028282612503565b915050610120830151612819610120860182612734565b508091505092915050565b6000602082019050818103600083015261283e8184612743565b905092915050565b600081519050919050565b600082825260208201905092915050565b6000819050602082019050919050565b600061287e83836124ae565b60208301905092915050565b6000602082019050919050565b60006128a282612846565b6128ac8185612851565b93506128b783612862565b8060005b838110156128e85781516128cf8882612872565b97506128da8361288a565b9250506001810190506128bb565b5085935050505092915050565b6000602082019050818103600083015261290f8184612897565b905092915050565b60008060008060008060c08789031215612934576129336121f7565b5b600061294289828a01612222565b965050602061295389828a01612222565b955050604061296489828a01612222565b945050606061297589828a01612222565b935050608087013567ffffffffffffffff811115612996576129956121fc565b5b6129a289828a0161234f565b92505060a087013567ffffffffffffffff8111156129c3576129c26121fc565b5b6129cf89828a0161234f565b9150509295509295509295565b6000806000606084860312156129f5576129f46121f7565b5b6000612a0386828701612222565b9350506020612a1486828701612222565b9250506040612a2586828701612222565b9150509250925092565b600080600080600060a08688031215612a4b57612a4a6121f7565b5b6000612a5988828901612222565b9550506020612a6a88828901612222565b9450506040612a7b88828901612222565b935050606086013567ffffffffffffffff811115612a9c57612a9b6121fc565b5b612aa88882890161234f565b925050608086013567ffffffffffffffff811115612ac957612ac86121fc565b5b612ad58882890161234f565b9150509295509295909350565b600060e083016000830151612afa60008601826124ae565b506020830151612b0d60208601826124ae565b506040830151612b2060408601826124ae565b506060830151612b3360608601826124ae565b506080830151612b4660808601826124ae565b5060a083015184820360a0860152612b5e8282612503565b91505060c083015184820360c0860152612b788282612503565b9150508091505092915050565b60006020820190508181036000830152612b9f8184612ae2565b905092915050565b600080600080600080600060e0888a031215612bc657612bc56121f7565b5b6000612bd48a828b01612222565b9750506020612be58a828b01612222565b9650506040612bf68a828b01612222565b9550506060612c078a828b01612222565b945050608088013567ffffffffffffffff811115612c2857612c276121fc565b5b612c348a828b0161234f565b93505060a088013567ffffffffffffffff811115612c5557612c546121fc565b5b612c618a828b0161234f565b92505060c088013567ffffffffffffffff811115612c8257612c816121fc565b5b612c8e8a828b0161234f565b91505092959891949750929550565b600082825260208201905092915050565b6000612cb9826124bd565b612cc38185612c9d565b9350612cd38185602086016124d9565b612cdc81612241565b840191505092915050565b60006040820190508181036000830152612d018185612cae565b90508181036020830152612d158184612ae2565b90509392505050565b6000604082019050612d336000830185612457565b612d406020830184612457565b9392505050565b7f4e487b7100000000000000000000000000000000000000000000000000000000600052602260045260246000fd5b60006002820490506001821680612d8e57607f821691505b602082108103612da157612da0612d47565b5b50919050565b60008190508160005260206000209050919050565b60006020601f8301049050919050565b600082821b905092915050565b600060088302612e097fffffffffffffffffffffffffffffffffffffffffffffffffffffffffffffffff82612dcc565b612e138683612dcc565b95508019841693508086168417925050509392505050565b6000819050919050565b6000612e50612e4b612e4684612201565b612e2b565b612201565b9050919050565b6000819050919050565b612e6a83612e35565b612e7e612e7682612e57565b848454612dd9565b825550505050565b600090565b612e93612e86565b612e9e818484612e61565b505050565b5b81811015612ec257612eb7600082612e8b565b600181019050612ea4565b5050565b601f821115612f0757612ed881612da7565b612ee184612dbc565b81016020851015612ef0578190505b612f04612efc85612dbc565b830182612ea3565b50505b505050565b600082821c905092915050565b6000612f2a60001984600802612f0c565b1980831691505092915050565b6000612f438383612f19565b9150826002028217905092915050565b612f5c826124bd565b67ffffffffffffffff811115612f7557612f74612252565b5b612f7f8254612d76565b612f8a828285612ec6565b600060209050601f831160018114612fbd5760008415612fab578287015190505b612fb58582612f37565b86555061301d565b601f198416612fcb86612da7565b60005b82811015612ff357848901518255600182019150602085019450602081019050612fce565b86831015613010578489015161300c601f891682612f19565b8355505b6001600288020188555050505b505050505050565b7f4e487b7100000000000000000000000000000000000000000000000000000000600052601160045260246000fd5b600061305f82612201565b91507fffffffffffffffffffffffffffffffffffffffffffffffffffffffffffffffff820361309157613090613025565b5b600182019050919050565b60006130a782612201565b91506130b283612201565b92508282039050818111156130ca576130c9613025565b5b92915050565b7f796f7520646f206e6f74206f776e207468697320706c61796572000000000000600082015250565b6000613106601a83612c9d565b9150613111826130d0565b602082019050919050565b60006020820190508181036000830152613135816130f9565b9050919050565b7f6d757374206e6f74206265206571756970706564000000000000000000000000600082015250565b6000613172601483612c9d565b915061317d8261313c565b602082019050919050565b600060208201905081810360008301526131a181613165565b9050919050565b600081905092915050565b600081546131c081612d76565b6131ca81866131a8565b945060018216600081146131e557600181146131fa5761322d565b60ff198316865281151582028601935061322d565b61320385612da7565b60005b8381101561322557815481890152600182019150602081019050613206565b838801955050505b50505092915050565b600061324282846131b3565b915081905092915050565b7f6e6f74207468652073616d652065717569706d656e74206e616d650000000000600082015250565b6000613283601b83612c9d565b915061328e8261324d565b602082019050919050565b600060208201905081810360008301526132b281613276565b9050919050565b6000815490506132c881612d76565b9050919050565b60008190508160005260206000209050919050565b8181036132f25750506133ca565b6132fb826132b9565b67ffffffffffffffff81111561331457613313612252565b5b61331e8254612d76565b613329828285612ec6565b6000601f8311600181146133585760008415613346578287015490505b6133508582612f37565b8655506133c3565b601f198416613366876132cf565b965061337186612da7565b60005b8281101561339957848901548255600182019150600185019450602081019050613374565b868310156133b657848901546133b2601f891682612f19565b8355505b6001600288020188555050505b5050505050505b565b7f6e656564206d6f72652067656d00000000000000000000000000000000000000600082015250565b6000613402600d83612c9d565b915061340d826133cc565b602082019050919050565b60006020820190508181036000830152613431816133f5565b9050919050565b7f4e487b7100000000000000000000000000000000000000000000000000000000600052603260045260246000fd5b7f4e487b7100000000000000000000000000000000000000000000000000000000600052603160045260246000fdfea26469706673582212202e54ff2f1b67903e69ffaf088161794784e8fb27f1674e75e4e234e58b93d97364736f6c63430008120033",
  "linkReferences": {},
  "deployedLinkReferences": {}
}