{
  "_format": "hh-sol-artifact-1",
  "contractName": "CraftFacet",
  "sourceName": "contracts/facets/CraftFacet.sol",
  "abi": [
    {
      "anonymous": false,
      "inputs": [
        {
          "indexed": true,
          "internalType": "uint256",
          "name": "_playerId",
          "type": "uint256"
        },
        {
          "indexed": false,
          "internalType": "uint256",
          "name": "_equipmentId",
          "type": "uint256"
        },
        {
          "indexed": false,
          "internalType": "uint256",
          "name": "_craftId",
          "type": "uint256"
        }
      ],
      "name": "BasicCraftEvent",
      "type": "event"
    },
    {
      "anonymous": false,
      "inputs": [
        {
          "indexed": true,
          "internalType": "uint256",
          "name": "_basicEquipmentSchemaId",
          "type": "uint256"
        },
        {
          "indexed": true,
          "internalType": "uint256",
          "name": "_value",
          "type": "uint256"
        },
        {
          "indexed": false,
          "internalType": "string",
          "name": "_uri",
          "type": "string"
        },
        {
          "components": [
            {
              "internalType": "uint256",
              "name": "basicEquipmentSchemaId",
              "type": "uint256"
            },
            {
              "internalType": "uint256",
              "name": "slot",
              "type": "uint256"
            },
            {
              "internalType": "uint256",
              "name": "value",
              "type": "uint256"
            },
            {
              "internalType": "uint256",
              "name": "stat",
              "type": "uint256"
            },
            {
              "internalType": "uint256",
              "name": "cost",
              "type": "uint256"
            },
            {
              "internalType": "string",
              "name": "name",
              "type": "string"
            },
            {
              "internalType": "string",
              "name": "uri",
              "type": "string"
            }
          ],
          "indexed": false,
          "internalType": "struct BasicEquipmentSchema",
          "name": "_basicEQuipmentSchema",
          "type": "tuple"
        }
      ],
      "name": "BasicEquipmentSchemaCreated",
      "type": "event"
    },
    {
      "anonymous": false,
      "inputs": [
        {
          "indexed": true,
          "internalType": "uint256",
          "name": "id",
          "type": "uint256"
        },
        {
          "components": [
            {
              "internalType": "uint256",
              "name": "id",
              "type": "uint256"
            },
            {
              "internalType": "uint256",
              "name": "slot",
              "type": "uint256"
            },
            {
              "internalType": "uint256",
              "name": "value",
              "type": "uint256"
            },
            {
              "internalType": "uint256",
              "name": "cost",
              "type": "uint256"
            },
            {
              "internalType": "string",
              "name": "oldName",
              "type": "string"
            },
            {
              "internalType": "string",
              "name": "newName",
              "type": "string"
            },
            {
              "internalType": "string",
              "name": "uri",
              "type": "string"
            }
          ],
          "indexed": false,
          "internalType": "struct BasicCraft",
          "name": "_basicCraft",
          "type": "tuple"
        }
      ],
      "name": "CreateBasicCraft",
      "type": "event"
    },
    {
      "anonymous": false,
      "inputs": [
        {
          "indexed": true,
          "internalType": "uint256",
          "name": "_playerId",
          "type": "uint256"
        },
        {
          "indexed": false,
          "internalType": "uint256",
          "name": "_equipmentSchemaId",
          "type": "uint256"
        }
      ],
      "name": "PurchaseBasicEquipment",
      "type": "event"
    },
    {
      "inputs": [
        {
          "internalType": "uint256",
          "name": "_playerId",
          "type": "uint256"
        },
        {
          "internalType": "uint256",
          "name": "_equipmentId",
          "type": "uint256"
        },
        {
          "internalType": "uint256",
          "name": "_craftId",
          "type": "uint256"
        }
      ],
      "name": "basicCraft",
      "outputs": [],
      "stateMutability": "nonpayable",
      "type": "function"
    },
    {
      "inputs": [
        {
          "internalType": "uint256",
          "name": "_equipmenSchematId",
          "type": "uint256"
        },
        {
          "internalType": "uint256",
          "name": "_value",
          "type": "uint256"
        },
        {
          "internalType": "uint256",
          "name": "_cost",
          "type": "uint256"
        },
        {
          "internalType": "string",
          "name": "_newName",
          "type": "string"
        },
        {
          "internalType": "string",
          "name": "_uri",
          "type": "string"
        }
      ],
      "name": "createBasicCraft",
      "outputs": [],
      "stateMutability": "nonpayable",
      "type": "function"
    },
    {
      "inputs": [
        {
          "internalType": "uint256",
          "name": "_slot",
          "type": "uint256"
        },
        {
          "internalType": "uint256",
          "name": "_value",
          "type": "uint256"
        },
        {
          "internalType": "uint256",
          "name": "_stat",
          "type": "uint256"
        },
        {
          "internalType": "uint256",
          "name": "_cost",
          "type": "uint256"
        },
        {
          "internalType": "string",
          "name": "_name",
          "type": "string"
        },
        {
          "internalType": "string",
          "name": "_uri",
          "type": "string"
        }
      ],
      "name": "createBasicEquipment",
      "outputs": [],
      "stateMutability": "nonpayable",
      "type": "function"
    },
    {
      "inputs": [
        {
          "internalType": "uint256",
          "name": "_basicCraftId",
          "type": "uint256"
        }
      ],
      "name": "getBasicCraft",
      "outputs": [
        {
          "components": [
            {
              "internalType": "uint256",
              "name": "id",
              "type": "uint256"
            },
            {
              "internalType": "uint256",
              "name": "slot",
              "type": "uint256"
            },
            {
              "internalType": "uint256",
              "name": "value",
              "type": "uint256"
            },
            {
              "internalType": "uint256",
              "name": "cost",
              "type": "uint256"
            },
            {
              "internalType": "string",
              "name": "oldName",
              "type": "string"
            },
            {
              "internalType": "string",
              "name": "newName",
              "type": "string"
            },
            {
              "internalType": "string",
              "name": "uri",
              "type": "string"
            }
          ],
          "internalType": "struct BasicCraft",
          "name": "",
          "type": "tuple"
        }
      ],
      "stateMutability": "view",
      "type": "function"
    },
    {
      "inputs": [],
      "name": "getBasicCraftCount",
      "outputs": [
        {
          "internalType": "uint256",
          "name": "",
          "type": "uint256"
        }
      ],
      "stateMutability": "view",
      "type": "function"
    },
    {
      "inputs": [],
      "name": "getBasicEquipmentCount",
      "outputs": [
        {
          "internalType": "uint256",
          "name": "",
          "type": "uint256"
        }
      ],
      "stateMutability": "view",
      "type": "function"
    },
    {
      "inputs": [
        {
          "internalType": "uint256",
          "name": "_basicEquipmentSchemaId",
          "type": "uint256"
        }
      ],
      "name": "getBasicEquipmentSchema",
      "outputs": [
        {
          "components": [
            {
              "internalType": "uint256",
              "name": "basicEquipmentSchemaId",
              "type": "uint256"
            },
            {
              "internalType": "uint256",
              "name": "slot",
              "type": "uint256"
            },
            {
              "internalType": "uint256",
              "name": "value",
              "type": "uint256"
            },
            {
              "internalType": "uint256",
              "name": "stat",
              "type": "uint256"
            },
            {
              "internalType": "uint256",
              "name": "cost",
              "type": "uint256"
            },
            {
              "internalType": "string",
              "name": "name",
              "type": "string"
            },
            {
              "internalType": "string",
              "name": "uri",
              "type": "string"
            }
          ],
          "internalType": "struct BasicEquipmentSchema",
          "name": "",
          "type": "tuple"
        }
      ],
      "stateMutability": "view",
      "type": "function"
    },
    {
      "inputs": [
        {
          "internalType": "uint256",
          "name": "_equipmentId",
          "type": "uint256"
        }
      ],
      "name": "getEquipment",
      "outputs": [
        {
          "components": [
            {
              "internalType": "uint256",
              "name": "id",
              "type": "uint256"
            },
            {
              "internalType": "uint256",
              "name": "pointer",
              "type": "uint256"
            },
            {
              "internalType": "uint256",
              "name": "slot",
              "type": "uint256"
            },
            {
              "internalType": "uint256",
              "name": "rank",
              "type": "uint256"
            },
            {
              "internalType": "uint256",
              "name": "value",
              "type": "uint256"
            },
            {
              "internalType": "uint256",
              "name": "stat",
              "type": "uint256"
            },
            {
              "internalType": "uint256",
              "name": "owner",
              "type": "uint256"
            },
            {
              "internalType": "string",
              "name": "name",
              "type": "string"
            },
            {
              "internalType": "string",
              "name": "uri",
              "type": "string"
            },
            {
              "internalType": "bool",
              "name": "isEquiped",
              "type": "bool"
            }
          ],
          "internalType": "struct Equipment",
          "name": "",
          "type": "tuple"
        }
      ],
      "stateMutability": "view",
      "type": "function"
    },
    {
      "inputs": [
        {
          "internalType": "uint256",
          "name": "_playerId",
          "type": "uint256"
        }
      ],
      "name": "getPlayerToEquipment",
      "outputs": [
        {
          "internalType": "uint256[]",
          "name": "",
          "type": "uint256[]"
        }
      ],
      "stateMutability": "view",
      "type": "function"
    },
    {
      "inputs": [
        {
          "internalType": "uint256",
          "name": "_playerId",
          "type": "uint256"
        },
        {
          "internalType": "uint256",
          "name": "_equipmentSchemaId",
          "type": "uint256"
        }
      ],
      "name": "purchaseBasicEquipment",
      "outputs": [],
      "stateMutability": "nonpayable",
      "type": "function"
    }
  ],
  "bytecode": "0x608060405234801561001057600080fd5b50612642806100206000396000f3fe608060405234801561001057600080fd5b506004361061009e5760003560e01c8063ba06159011610066578063ba0615901461015b578063c49dd1881461018b578063c87bf952146101a7578063d216e986146101c3578063d6f13898146101f35761009e565b806325a2bb66146100a357806340235b3f146100c15780634bf68ade146100dd578063799173c11461010d57806381dd2fa01461012b575b600080fd5b6100ab61020f565b6040516100b8919061168a565b60405180910390f35b6100db60048036038101906100d691906116e5565b61021e565b005b6100f760048036038101906100f29190611725565b610264565b604051610104919061189b565b60405180910390f35b61011561027c565b604051610122919061168a565b60405180910390f35b61014560048036038101906101409190611725565b61028b565b60405161015291906119b9565b60405180910390f35b61017560048036038101906101709190611725565b6102a3565b6040516101829190611a8a565b60405180910390f35b6101a560048036038101906101a09190611be1565b6102b5565b005b6101c160048036038101906101bc9190611ca6565b61036d565b005b6101dd60048036038101906101d89190611725565b6103ce565b6040516101ea9190611dfc565b60405180910390f35b61020d60048036038101906102089190611e1e565b6103e6565b005b6000610219610430565b905090565b6102288282610448565b817fe7504f1059be7db1f858136933fb89f1e9996256b3beab064b8293dcc370860782604051610258919061168a565b60405180910390a25050565b61026c6115a2565b610275826108d3565b9050919050565b6000610286610aed565b905090565b6102936115df565b61029c82610b05565b9050919050565b60606102ae82610cc7565b9050919050565b600073434d36f32abed3f7937fe0be88dc1b0eb938124490508073ffffffffffffffffffffffffffffffffffffffff163373ffffffffffffffffffffffffffffffffffffffff161461030657600080fd5b610314878787878787610d41565b600061031e610430565b905086817f8a178ab5b62361fa794647e8b4c0bc01a5448c063921eb7a1a83116205e74be58561034d856103ce565b60405161035b929190611ebb565b60405180910390a35050505050505050565b61037a8585858585610e21565b600061038461027c565b9050807fe7ebf37154a7baecdaff82aaaf79c17b0e7ce8cd17c53835ffd29abbc8a833da6103b183610264565b6040516103be919061189b565b60405180910390a2505050505050565b6103d6611634565b6103df82610fc4565b9050919050565b6103f1838383611156565b827f91dddbc82058117c5a605d41c7526e95c5b808e19e0a0d5e204cb74b592e98dc8383604051610423929190611ef2565b60405180910390a2505050565b60008061043b61151b565b9050806001015491505090565b6000610452611548565b9050600061045e61151b565b9050600061046a611575565b90506000836003016000878152602001908152602001600020600201541461049157600080fd5b3373ffffffffffffffffffffffffffffffffffffffff1683600201600087815260200190815260200160002060009054906101000a900473ffffffffffffffffffffffffffffffffffffffff1673ffffffffffffffffffffffffffffffffffffffff16146104fe57600080fd5b816002016000858152602001908152602001600020600401548160000160003373ffffffffffffffffffffffffffffffffffffffff1673ffffffffffffffffffffffffffffffffffffffff16815260200190815260200160002054101561056457600080fd5b81600001600081548092919061057990611f4a565b91905055506040518061014001604052808360000154815260200183600601600088815260200190815260200160002080549050815260200183600201600087815260200190815260200160002060010154815260200160018152602001836002016000878152602001908152602001600020600201548152602001836002016000878152602001908152602001600020600301548152602001868152602001836002016000878152602001908152602001600020600501805461063c90611fc1565b80601f016020809104026020016040519081016040528092919081815260200182805461066890611fc1565b80156106b55780601f1061068a576101008083540402835291602001916106b5565b820191906000526020600020905b81548152906001019060200180831161069857829003601f168201915b5050505050815260200183600201600087815260200190815260200160002060060180546106e290611fc1565b80601f016020809104026020016040519081016040528092919081815260200182805461070e90611fc1565b801561075b5780601f106107305761010080835404028352916020019161075b565b820191906000526020600020905b81548152906001019060200180831161073e57829003601f168201915b505050505081526020016000151581525082600301600084600001548152602001908152602001600020600082015181600001556020820151816001015560408201518160020155606082015181600301556080820151816004015560a0820151816005015560c0820151816006015560e08201518160070190816107e0919061219e565b506101008201518160080190816107f7919061219e565b506101208201518160090160006101000a81548160ff02191690831515021790555090505081600601600086815260200190815260200160002082600001549080600181540180825580915050600190039060005260206000200160009091909190915055816002016000858152602001908152602001600020600401548160000160003373ffffffffffffffffffffffffffffffffffffffff1673ffffffffffffffffffffffffffffffffffffffff16815260200190815260200160002060008282546108c59190612270565b925050819055505050505050565b6108db6115a2565b60006108e561151b565b90508060050160008481526020019081526020016000206040518060e00160405290816000820154815260200160018201548152602001600282015481526020016003820154815260200160048201805461093f90611fc1565b80601f016020809104026020016040519081016040528092919081815260200182805461096b90611fc1565b80156109b85780601f1061098d576101008083540402835291602001916109b8565b820191906000526020600020905b81548152906001019060200180831161099b57829003601f168201915b505050505081526020016005820180546109d190611fc1565b80601f01602080910402602001604051908101604052809291908181526020018280546109fd90611fc1565b8015610a4a5780601f10610a1f57610100808354040283529160200191610a4a565b820191906000526020600020905b815481529060010190602001808311610a2d57829003601f168201915b50505050508152602001600682018054610a6390611fc1565b80601f0160208091040260200160405190810160405280929190818152602001828054610a8f90611fc1565b8015610adc5780601f10610ab157610100808354040283529160200191610adc565b820191906000526020600020905b815481529060010190602001808311610abf57829003601f168201915b505050505081525050915050919050565b600080610af861151b565b9050806004015491505090565b610b0d6115df565b6000610b1761151b565b90508060030160008481526020019081526020016000206040518061014001604052908160008201548152602001600182015481526020016002820154815260200160038201548152602001600482015481526020016005820154815260200160068201548152602001600782018054610b9090611fc1565b80601f0160208091040260200160405190810160405280929190818152602001828054610bbc90611fc1565b8015610c095780601f10610bde57610100808354040283529160200191610c09565b820191906000526020600020905b815481529060010190602001808311610bec57829003601f168201915b50505050508152602001600882018054610c2290611fc1565b80601f0160208091040260200160405190810160405280929190818152602001828054610c4e90611fc1565b8015610c9b5780601f10610c7057610100808354040283529160200191610c9b565b820191906000526020600020905b815481529060010190602001808311610c7e57829003601f168201915b505050505081526020016009820160009054906101000a900460ff161515151581525050915050919050565b60606000610cd361151b565b9050806006016000848152602001908152602001600020805480602002602001604051908101604052809291908181526020018280548015610d3457602002820191906000526020600020905b815481526020019060010190808311610d20575b5050505050915050919050565b6000610d4b61151b565b9050806001016000815480929190610d6290611f4a565b91905055506040518060e00160405280826001015481526020018881526020018781526020018681526020018581526020018481526020018381525081600201600083600101548152602001908152602001600020600082015181600001556020820151816001015560408201518160020155606082015181600301556080820151816004015560a0820151816005019081610dfe919061219e565b5060c0820151816006019081610e14919061219e565b5090505050505050505050565b6000610e2b61151b565b9050806004016000815480929190610e4290611f4a565b91905055506040518060e00160405280826004015481526020018260020160008981526020019081526020016000206001015481526020018681526020018581526020018260020160008981526020019081526020016000206005018054610ea990611fc1565b80601f0160208091040260200160405190810160405280929190818152602001828054610ed590611fc1565b8015610f225780601f10610ef757610100808354040283529160200191610f22565b820191906000526020600020905b815481529060010190602001808311610f0557829003601f168201915b505050505081526020018481526020018381525081600501600083600401548152602001908152602001600020600082015181600001556020820151816001015560408201518160020155606082015181600301556080820151816004019081610f8c919061219e565b5060a0820151816005019081610fa2919061219e565b5060c0820151816006019081610fb8919061219e565b50905050505050505050565b610fcc611634565b6000610fd661151b565b90508060020160008481526020019081526020016000206040518060e0016040529081600082015481526020016001820154815260200160028201548152602001600382015481526020016004820154815260200160058201805461103a90611fc1565b80601f016020809104026020016040519081016040528092919081815260200182805461106690611fc1565b80156110b35780601f10611088576101008083540402835291602001916110b3565b820191906000526020600020905b81548152906001019060200180831161109657829003601f168201915b505050505081526020016006820180546110cc90611fc1565b80601f01602080910402602001604051908101604052809291908181526020018280546110f890611fc1565b80156111455780601f1061111a57610100808354040283529160200191611145565b820191906000526020600020905b81548152906001019060200180831161112857829003601f168201915b505050505081525050915050919050565b6000611160611548565b9050600061116c61151b565b90506000611178611575565b90506000836003016000888152602001908152602001600020600201541461119f57600080fd5b3373ffffffffffffffffffffffffffffffffffffffff1683600201600088815260200190815260200160002060009054906101000a900473ffffffffffffffffffffffffffffffffffffffff1673ffffffffffffffffffffffffffffffffffffffff1614611242576040517f08c379a0000000000000000000000000000000000000000000000000000000008152600401611239906122f0565b60405180910390fd5b81600301600086815260200190815260200160002060090160009054906101000a900460ff16156112a8576040517f08c379a000000000000000000000000000000000000000000000000000000000815260040161129f9061235c565b60405180910390fd5b6000826005016000868152602001908152602001600020905080600301548260010160003373ffffffffffffffffffffffffffffffffffffffff1673ffffffffffffffffffffffffffffffffffffffff168152602001908152602001600020541015611349576040517f08c379a0000000000000000000000000000000000000000000000000000000008152600401611340906123c8565b60405180910390fd5b86836003016000888152602001908152602001600020600601541461136d57600080fd5b806004016040516020016113819190612476565b604051602081830303815290604052805190602001208360030160008881526020019081526020016000206007016040516020016113bf9190612476565b6040516020818303038152906040528051906020012014611415576040517f08c379a000000000000000000000000000000000000000000000000000000000815260040161140c906124d9565b60405180910390fd5b80600301548260010160003373ffffffffffffffffffffffffffffffffffffffff1673ffffffffffffffffffffffffffffffffffffffff168152602001908152602001600020600082825461146a9190612270565b92505081905550826003016000878152602001908152602001600020600301600081548092919061149a90611f4a565b91905055508060020154836003016000888152602001908152602001600020600401819055508060050183600301600088815260200190815260200160002060070190816114e89190612524565b508060060183600301600088815260200190815260200160002060080190816115119190612524565b5050505050505050565b6000807faad0511195ddfb575f5187a7172ca6fc330f129a86291f15eaa5f7537ab038dc90508091505090565b6000807f3cab9a070a0c61cd0ae9d9e9e2c0781e5ca8691bec4087e5a4701d5ac018dd4e90508091505090565b6000807f2c89d74504b6ad8d4fbde22bc3474166bac5452a11195897f239d8bebe02d70790508091505090565b6040518060e00160405280600081526020016000815260200160008152602001600081526020016060815260200160608152602001606081525090565b6040518061014001604052806000815260200160008152602001600081526020016000815260200160008152602001600081526020016000815260200160608152602001606081526020016000151581525090565b6040518060e00160405280600081526020016000815260200160008152602001600081526020016000815260200160608152602001606081525090565b6000819050919050565b61168481611671565b82525050565b600060208201905061169f600083018461167b565b92915050565b6000604051905090565b600080fd5b600080fd5b6116c281611671565b81146116cd57600080fd5b50565b6000813590506116df816116b9565b92915050565b600080604083850312156116fc576116fb6116af565b5b600061170a858286016116d0565b925050602061171b858286016116d0565b9150509250929050565b60006020828403121561173b5761173a6116af565b5b6000611749848285016116d0565b91505092915050565b61175b81611671565b82525050565b600081519050919050565b600082825260208201905092915050565b60005b8381101561179b578082015181840152602081019050611780565b60008484015250505050565b6000601f19601f8301169050919050565b60006117c382611761565b6117cd818561176c565b93506117dd81856020860161177d565b6117e6816117a7565b840191505092915050565b600060e0830160008301516118096000860182611752565b50602083015161181c6020860182611752565b50604083015161182f6040860182611752565b5060608301516118426060860182611752565b506080830151848203608086015261185a82826117b8565b91505060a083015184820360a086015261187482826117b8565b91505060c083015184820360c086015261188e82826117b8565b9150508091505092915050565b600060208201905081810360008301526118b581846117f1565b905092915050565b60008115159050919050565b6118d2816118bd565b82525050565b6000610140830160008301516118f16000860182611752565b5060208301516119046020860182611752565b5060408301516119176040860182611752565b50606083015161192a6060860182611752565b50608083015161193d6080860182611752565b5060a083015161195060a0860182611752565b5060c083015161196360c0860182611752565b5060e083015184820360e086015261197b82826117b8565b91505061010083015184820361010086015261199782826117b8565b9150506101208301516119ae6101208601826118c9565b508091505092915050565b600060208201905081810360008301526119d381846118d8565b905092915050565b600081519050919050565b600082825260208201905092915050565b6000819050602082019050919050565b6000611a138383611752565b60208301905092915050565b6000602082019050919050565b6000611a37826119db565b611a4181856119e6565b9350611a4c836119f7565b8060005b83811015611a7d578151611a648882611a07565b9750611a6f83611a1f565b925050600181019050611a50565b5085935050505092915050565b60006020820190508181036000830152611aa48184611a2c565b905092915050565b600080fd5b600080fd5b7f4e487b7100000000000000000000000000000000000000000000000000000000600052604160045260246000fd5b611aee826117a7565b810181811067ffffffffffffffff82111715611b0d57611b0c611ab6565b5b80604052505050565b6000611b206116a5565b9050611b2c8282611ae5565b919050565b600067ffffffffffffffff821115611b4c57611b4b611ab6565b5b611b55826117a7565b9050602081019050919050565b82818337600083830152505050565b6000611b84611b7f84611b31565b611b16565b905082815260208101848484011115611ba057611b9f611ab1565b5b611bab848285611b62565b509392505050565b600082601f830112611bc857611bc7611aac565b5b8135611bd8848260208601611b71565b91505092915050565b60008060008060008060c08789031215611bfe57611bfd6116af565b5b6000611c0c89828a016116d0565b9650506020611c1d89828a016116d0565b9550506040611c2e89828a016116d0565b9450506060611c3f89828a016116d0565b935050608087013567ffffffffffffffff811115611c6057611c5f6116b4565b5b611c6c89828a01611bb3565b92505060a087013567ffffffffffffffff811115611c8d57611c8c6116b4565b5b611c9989828a01611bb3565b9150509295509295509295565b600080600080600060a08688031215611cc257611cc16116af565b5b6000611cd0888289016116d0565b9550506020611ce1888289016116d0565b9450506040611cf2888289016116d0565b935050606086013567ffffffffffffffff811115611d1357611d126116b4565b5b611d1f88828901611bb3565b925050608086013567ffffffffffffffff811115611d4057611d3f6116b4565b5b611d4c88828901611bb3565b9150509295509295909350565b600060e083016000830151611d716000860182611752565b506020830151611d846020860182611752565b506040830151611d976040860182611752565b506060830151611daa6060860182611752565b506080830151611dbd6080860182611752565b5060a083015184820360a0860152611dd582826117b8565b91505060c083015184820360c0860152611def82826117b8565b9150508091505092915050565b60006020820190508181036000830152611e168184611d59565b905092915050565b600080600060608486031215611e3757611e366116af565b5b6000611e45868287016116d0565b9350506020611e56868287016116d0565b9250506040611e67868287016116d0565b9150509250925092565b600082825260208201905092915050565b6000611e8d82611761565b611e978185611e71565b9350611ea781856020860161177d565b611eb0816117a7565b840191505092915050565b60006040820190508181036000830152611ed58185611e82565b90508181036020830152611ee98184611d59565b90509392505050565b6000604082019050611f07600083018561167b565b611f14602083018461167b565b9392505050565b7f4e487b7100000000000000000000000000000000000000000000000000000000600052601160045260246000fd5b6000611f5582611671565b91507fffffffffffffffffffffffffffffffffffffffffffffffffffffffffffffffff8203611f8757611f86611f1b565b5b600182019050919050565b7f4e487b7100000000000000000000000000000000000000000000000000000000600052602260045260246000fd5b60006002820490506001821680611fd957607f821691505b602082108103611fec57611feb611f92565b5b50919050565b60008190508160005260206000209050919050565b60006020601f8301049050919050565b600082821b905092915050565b6000600883026120547fffffffffffffffffffffffffffffffffffffffffffffffffffffffffffffffff82612017565b61205e8683612017565b95508019841693508086168417925050509392505050565b6000819050919050565b600061209b61209661209184611671565b612076565b611671565b9050919050565b6000819050919050565b6120b583612080565b6120c96120c1826120a2565b848454612024565b825550505050565b600090565b6120de6120d1565b6120e98184846120ac565b505050565b5b8181101561210d576121026000826120d6565b6001810190506120ef565b5050565b601f8211156121525761212381611ff2565b61212c84612007565b8101602085101561213b578190505b61214f61214785612007565b8301826120ee565b50505b505050565b600082821c905092915050565b600061217560001984600802612157565b1980831691505092915050565b600061218e8383612164565b9150826002028217905092915050565b6121a782611761565b67ffffffffffffffff8111156121c0576121bf611ab6565b5b6121ca8254611fc1565b6121d5828285612111565b600060209050601f83116001811461220857600084156121f6578287015190505b6122008582612182565b865550612268565b601f19841661221686611ff2565b60005b8281101561223e57848901518255600182019150602085019450602081019050612219565b8683101561225b5784890151612257601f891682612164565b8355505b6001600288020188555050505b505050505050565b600061227b82611671565b915061228683611671565b925082820390508181111561229e5761229d611f1b565b5b92915050565b7f796f7520646f206e6f74206f776e207468697320706c61796572000000000000600082015250565b60006122da601a83611e71565b91506122e5826122a4565b602082019050919050565b60006020820190508181036000830152612309816122cd565b9050919050565b7f6d757374206e6f74206265206571756970706564000000000000000000000000600082015250565b6000612346601483611e71565b915061235182612310565b602082019050919050565b6000602082019050818103600083015261237581612339565b9050919050565b7f6e656564206d6f72652067656d00000000000000000000000000000000000000600082015250565b60006123b2600d83611e71565b91506123bd8261237c565b602082019050919050565b600060208201905081810360008301526123e1816123a5565b9050919050565b600081905092915050565b6000815461240081611fc1565b61240a81866123e8565b94506001821660008114612425576001811461243a5761246d565b60ff198316865281151582028601935061246d565b61244385611ff2565b60005b8381101561246557815481890152600182019150602081019050612446565b838801955050505b50505092915050565b600061248282846123f3565b915081905092915050565b7f6e6f74207468652073616d652065717569706d656e74206e616d650000000000600082015250565b60006124c3601b83611e71565b91506124ce8261248d565b602082019050919050565b600060208201905081810360008301526124f2816124b6565b9050919050565b60008154905061250881611fc1565b9050919050565b60008190508160005260206000209050919050565b81810361253257505061260a565b61253b826124f9565b67ffffffffffffffff81111561255457612553611ab6565b5b61255e8254611fc1565b612569828285612111565b6000601f8311600181146125985760008415612586578287015490505b6125908582612182565b865550612603565b601f1984166125a68761250f565b96506125b186611ff2565b60005b828110156125d9578489015482556001820191506001850194506020810190506125b4565b868310156125f657848901546125f2601f891682612164565b8355505b6001600288020188555050505b5050505050505b56fea2646970667358221220a48542425d9d3987f2b031073ab8fd1efd8469b21c509fae6bd6f7578fb9264c64736f6c63430008120033",
  "linkReferences": {},
  "deployedLinkReferences": {}
}