{
  "_format": "hh-sol-artifact-1",
  "contractName": "CraftFacet",
  "sourceName": "contracts/facets/CraftFacet.sol",
  "abi": [
    {
      "anonymous": false,
      "inputs": [
        {
          "indexed": true,
          "internalType": "uint256",
          "name": "_playerId",
          "type": "uint256"
        },
        {
          "indexed": false,
          "internalType": "uint256",
          "name": "_equipmentId",
          "type": "uint256"
        },
        {
          "indexed": false,
          "internalType": "uint256",
          "name": "_advancedCraftId",
          "type": "uint256"
        },
        {
          "indexed": false,
          "internalType": "uint256",
          "name": "_treasureId",
          "type": "uint256"
        }
      ],
      "name": "AdvancedCraftEvent",
      "type": "event"
    },
    {
      "anonymous": false,
      "inputs": [
        {
          "indexed": true,
          "internalType": "uint256",
          "name": "_playerId",
          "type": "uint256"
        },
        {
          "indexed": false,
          "internalType": "uint256",
          "name": "_equipmentId",
          "type": "uint256"
        },
        {
          "indexed": false,
          "internalType": "uint256",
          "name": "_craftId",
          "type": "uint256"
        }
      ],
      "name": "BasicCraftEvent",
      "type": "event"
    },
    {
      "anonymous": false,
      "inputs": [
        {
          "indexed": true,
          "internalType": "uint256",
          "name": "_basicEquipmentSchemaId",
          "type": "uint256"
        },
        {
          "indexed": true,
          "internalType": "uint256",
          "name": "_value",
          "type": "uint256"
        },
        {
          "indexed": false,
          "internalType": "string",
          "name": "_uri",
          "type": "string"
        },
        {
          "components": [
            {
              "internalType": "uint256",
              "name": "basicEquipmentSchemaId",
              "type": "uint256"
            },
            {
              "internalType": "uint256",
              "name": "slot",
              "type": "uint256"
            },
            {
              "internalType": "uint256",
              "name": "value",
              "type": "uint256"
            },
            {
              "internalType": "uint256",
              "name": "stat",
              "type": "uint256"
            },
            {
              "internalType": "uint256",
              "name": "cost",
              "type": "uint256"
            },
            {
              "internalType": "string",
              "name": "name",
              "type": "string"
            },
            {
              "internalType": "string",
              "name": "uri",
              "type": "string"
            }
          ],
          "indexed": false,
          "internalType": "struct BasicEquipmentSchema",
          "name": "_basicEQuipmentSchema",
          "type": "tuple"
        }
      ],
      "name": "BasicEquipmentSchemaCreated",
      "type": "event"
    },
    {
      "anonymous": false,
      "inputs": [
        {
          "indexed": true,
          "internalType": "uint256",
          "name": "_basicEquipmentSchemaId",
          "type": "uint256"
        },
        {
          "indexed": true,
          "internalType": "uint256",
          "name": "_value",
          "type": "uint256"
        },
        {
          "indexed": false,
          "internalType": "string",
          "name": "_uri",
          "type": "string"
        },
        {
          "components": [
            {
              "internalType": "uint256",
              "name": "basicEquipmentSchemaId",
              "type": "uint256"
            },
            {
              "internalType": "uint256",
              "name": "slot",
              "type": "uint256"
            },
            {
              "internalType": "uint256",
              "name": "value",
              "type": "uint256"
            },
            {
              "internalType": "uint256",
              "name": "stat",
              "type": "uint256"
            },
            {
              "internalType": "uint256",
              "name": "cost",
              "type": "uint256"
            },
            {
              "internalType": "string",
              "name": "name",
              "type": "string"
            },
            {
              "internalType": "string",
              "name": "uri",
              "type": "string"
            }
          ],
          "indexed": false,
          "internalType": "struct BasicEquipmentSchema",
          "name": "_basicEQuipmentSchema",
          "type": "tuple"
        }
      ],
      "name": "BasicEquipmentSchemaUpdate",
      "type": "event"
    },
    {
      "anonymous": false,
      "inputs": [
        {
          "indexed": true,
          "internalType": "uint256",
          "name": "id",
          "type": "uint256"
        },
        {
          "components": [
            {
              "internalType": "uint256",
              "name": "advancedCraftId",
              "type": "uint256"
            },
            {
              "internalType": "uint256",
              "name": "slot",
              "type": "uint256"
            },
            {
              "internalType": "uint256",
              "name": "value",
              "type": "uint256"
            },
            {
              "internalType": "uint256",
              "name": "stat",
              "type": "uint256"
            },
            {
              "internalType": "uint256",
              "name": "treasureSchemaId",
              "type": "uint256"
            },
            {
              "internalType": "string",
              "name": "oldName",
              "type": "string"
            },
            {
              "internalType": "string",
              "name": "newName",
              "type": "string"
            },
            {
              "internalType": "string",
              "name": "uri",
              "type": "string"
            }
          ],
          "indexed": false,
          "internalType": "struct AdvancedCraft",
          "name": "_advancedCraft",
          "type": "tuple"
        }
      ],
      "name": "CreateAdvancedCraft",
      "type": "event"
    },
    {
      "anonymous": false,
      "inputs": [
        {
          "indexed": true,
          "internalType": "uint256",
          "name": "id",
          "type": "uint256"
        },
        {
          "components": [
            {
              "internalType": "uint256",
              "name": "id",
              "type": "uint256"
            },
            {
              "internalType": "uint256",
              "name": "slot",
              "type": "uint256"
            },
            {
              "internalType": "uint256",
              "name": "value",
              "type": "uint256"
            },
            {
              "internalType": "uint256",
              "name": "cost",
              "type": "uint256"
            },
            {
              "internalType": "string",
              "name": "oldName",
              "type": "string"
            },
            {
              "internalType": "string",
              "name": "newName",
              "type": "string"
            },
            {
              "internalType": "string",
              "name": "uri",
              "type": "string"
            }
          ],
          "indexed": false,
          "internalType": "struct BasicCraft",
          "name": "_basicCraft",
          "type": "tuple"
        }
      ],
      "name": "CreateBasicCraft",
      "type": "event"
    },
    {
      "anonymous": false,
      "inputs": [
        {
          "indexed": true,
          "internalType": "uint256",
          "name": "_playerId",
          "type": "uint256"
        },
        {
          "indexed": false,
          "internalType": "uint256",
          "name": "_equipmentSchemaId",
          "type": "uint256"
        }
      ],
      "name": "PurchaseBasicEquipment",
      "type": "event"
    },
    {
      "inputs": [
        {
          "internalType": "uint256",
          "name": "_playerId",
          "type": "uint256"
        },
        {
          "internalType": "uint256",
          "name": "_advancedCraftId",
          "type": "uint256"
        },
        {
          "internalType": "uint256",
          "name": "_equipmentId",
          "type": "uint256"
        },
        {
          "internalType": "uint256",
          "name": "_treasureId",
          "type": "uint256"
        }
      ],
      "name": "advancedCraft",
      "outputs": [],
      "stateMutability": "nonpayable",
      "type": "function"
    },
    {
      "inputs": [
        {
          "internalType": "uint256",
          "name": "_playerId",
          "type": "uint256"
        },
        {
          "internalType": "uint256",
          "name": "_equipmentId",
          "type": "uint256"
        },
        {
          "internalType": "uint256",
          "name": "_craftId",
          "type": "uint256"
        }
      ],
      "name": "basicCraft",
      "outputs": [],
      "stateMutability": "nonpayable",
      "type": "function"
    },
    {
      "inputs": [
        {
          "internalType": "uint256",
          "name": "_treasureSchemaId",
          "type": "uint256"
        },
        {
          "internalType": "uint256",
          "name": "_slot",
          "type": "uint256"
        },
        {
          "internalType": "uint256",
          "name": "_value",
          "type": "uint256"
        },
        {
          "internalType": "uint256",
          "name": "_stat",
          "type": "uint256"
        },
        {
          "internalType": "string",
          "name": "_oldName",
          "type": "string"
        },
        {
          "internalType": "string",
          "name": "_newName",
          "type": "string"
        },
        {
          "internalType": "string",
          "name": "_uri",
          "type": "string"
        }
      ],
      "name": "createAdvancedCraft",
      "outputs": [],
      "stateMutability": "nonpayable",
      "type": "function"
    },
    {
      "inputs": [
        {
          "internalType": "uint256",
          "name": "_equipmenSchematId",
          "type": "uint256"
        },
        {
          "internalType": "uint256",
          "name": "_value",
          "type": "uint256"
        },
        {
          "internalType": "uint256",
          "name": "_cost",
          "type": "uint256"
        },
        {
          "internalType": "string",
          "name": "_newName",
          "type": "string"
        },
        {
          "internalType": "string",
          "name": "_uri",
          "type": "string"
        }
      ],
      "name": "createBasicCraft",
      "outputs": [],
      "stateMutability": "nonpayable",
      "type": "function"
    },
    {
      "inputs": [
        {
          "internalType": "uint256",
          "name": "_slot",
          "type": "uint256"
        },
        {
          "internalType": "uint256",
          "name": "_value",
          "type": "uint256"
        },
        {
          "internalType": "uint256",
          "name": "_stat",
          "type": "uint256"
        },
        {
          "internalType": "uint256",
          "name": "_cost",
          "type": "uint256"
        },
        {
          "internalType": "string",
          "name": "_name",
          "type": "string"
        },
        {
          "internalType": "string",
          "name": "_uri",
          "type": "string"
        }
      ],
      "name": "createBasicEquipment",
      "outputs": [],
      "stateMutability": "nonpayable",
      "type": "function"
    },
    {
      "inputs": [
        {
          "internalType": "uint256",
          "name": "_advancedCraftId",
          "type": "uint256"
        }
      ],
      "name": "getAdvancedCraft",
      "outputs": [
        {
          "components": [
            {
              "internalType": "uint256",
              "name": "advancedCraftId",
              "type": "uint256"
            },
            {
              "internalType": "uint256",
              "name": "slot",
              "type": "uint256"
            },
            {
              "internalType": "uint256",
              "name": "value",
              "type": "uint256"
            },
            {
              "internalType": "uint256",
              "name": "stat",
              "type": "uint256"
            },
            {
              "internalType": "uint256",
              "name": "treasureSchemaId",
              "type": "uint256"
            },
            {
              "internalType": "string",
              "name": "oldName",
              "type": "string"
            },
            {
              "internalType": "string",
              "name": "newName",
              "type": "string"
            },
            {
              "internalType": "string",
              "name": "uri",
              "type": "string"
            }
          ],
          "internalType": "struct AdvancedCraft",
          "name": "",
          "type": "tuple"
        }
      ],
      "stateMutability": "view",
      "type": "function"
    },
    {
      "inputs": [],
      "name": "getAdvancedCraftCount",
      "outputs": [
        {
          "internalType": "uint256",
          "name": "",
          "type": "uint256"
        }
      ],
      "stateMutability": "view",
      "type": "function"
    },
    {
      "inputs": [
        {
          "internalType": "uint256",
          "name": "_basicCraftId",
          "type": "uint256"
        }
      ],
      "name": "getBasicCraft",
      "outputs": [
        {
          "components": [
            {
              "internalType": "uint256",
              "name": "id",
              "type": "uint256"
            },
            {
              "internalType": "uint256",
              "name": "slot",
              "type": "uint256"
            },
            {
              "internalType": "uint256",
              "name": "value",
              "type": "uint256"
            },
            {
              "internalType": "uint256",
              "name": "cost",
              "type": "uint256"
            },
            {
              "internalType": "string",
              "name": "oldName",
              "type": "string"
            },
            {
              "internalType": "string",
              "name": "newName",
              "type": "string"
            },
            {
              "internalType": "string",
              "name": "uri",
              "type": "string"
            }
          ],
          "internalType": "struct BasicCraft",
          "name": "",
          "type": "tuple"
        }
      ],
      "stateMutability": "view",
      "type": "function"
    },
    {
      "inputs": [],
      "name": "getBasicCraftCount",
      "outputs": [
        {
          "internalType": "uint256",
          "name": "",
          "type": "uint256"
        }
      ],
      "stateMutability": "view",
      "type": "function"
    },
    {
      "inputs": [],
      "name": "getBasicEquipmentCount",
      "outputs": [
        {
          "internalType": "uint256",
          "name": "",
          "type": "uint256"
        }
      ],
      "stateMutability": "view",
      "type": "function"
    },
    {
      "inputs": [
        {
          "internalType": "uint256",
          "name": "_basicEquipmentSchemaId",
          "type": "uint256"
        }
      ],
      "name": "getBasicEquipmentSchema",
      "outputs": [
        {
          "components": [
            {
              "internalType": "uint256",
              "name": "basicEquipmentSchemaId",
              "type": "uint256"
            },
            {
              "internalType": "uint256",
              "name": "slot",
              "type": "uint256"
            },
            {
              "internalType": "uint256",
              "name": "value",
              "type": "uint256"
            },
            {
              "internalType": "uint256",
              "name": "stat",
              "type": "uint256"
            },
            {
              "internalType": "uint256",
              "name": "cost",
              "type": "uint256"
            },
            {
              "internalType": "string",
              "name": "name",
              "type": "string"
            },
            {
              "internalType": "string",
              "name": "uri",
              "type": "string"
            }
          ],
          "internalType": "struct BasicEquipmentSchema",
          "name": "",
          "type": "tuple"
        }
      ],
      "stateMutability": "view",
      "type": "function"
    },
    {
      "inputs": [
        {
          "internalType": "uint256",
          "name": "_equipmentId",
          "type": "uint256"
        }
      ],
      "name": "getEquipment",
      "outputs": [
        {
          "components": [
            {
              "internalType": "uint256",
              "name": "id",
              "type": "uint256"
            },
            {
              "internalType": "uint256",
              "name": "pointer",
              "type": "uint256"
            },
            {
              "internalType": "uint256",
              "name": "slot",
              "type": "uint256"
            },
            {
              "internalType": "uint256",
              "name": "rank",
              "type": "uint256"
            },
            {
              "internalType": "uint256",
              "name": "value",
              "type": "uint256"
            },
            {
              "internalType": "uint256",
              "name": "stat",
              "type": "uint256"
            },
            {
              "internalType": "uint256",
              "name": "owner",
              "type": "uint256"
            },
            {
              "internalType": "string",
              "name": "name",
              "type": "string"
            },
            {
              "internalType": "string",
              "name": "uri",
              "type": "string"
            },
            {
              "internalType": "bool",
              "name": "isEquiped",
              "type": "bool"
            }
          ],
          "internalType": "struct Equipment",
          "name": "",
          "type": "tuple"
        }
      ],
      "stateMutability": "view",
      "type": "function"
    },
    {
      "inputs": [
        {
          "internalType": "uint256",
          "name": "_playerId",
          "type": "uint256"
        }
      ],
      "name": "getPlayerToEquipment",
      "outputs": [
        {
          "internalType": "uint256[]",
          "name": "",
          "type": "uint256[]"
        }
      ],
      "stateMutability": "view",
      "type": "function"
    },
    {
      "inputs": [
        {
          "internalType": "uint256",
          "name": "_playerId",
          "type": "uint256"
        },
        {
          "internalType": "uint256",
          "name": "_equipmentSchemaId",
          "type": "uint256"
        }
      ],
      "name": "purchaseBasicEquipment",
      "outputs": [],
      "stateMutability": "nonpayable",
      "type": "function"
    },
    {
      "inputs": [
        {
          "internalType": "uint256",
          "name": "_basicEquipmentSchemaId",
          "type": "uint256"
        },
        {
          "internalType": "uint256",
          "name": "_slot",
          "type": "uint256"
        },
        {
          "internalType": "uint256",
          "name": "_value",
          "type": "uint256"
        },
        {
          "internalType": "uint256",
          "name": "_stat",
          "type": "uint256"
        },
        {
          "internalType": "uint256",
          "name": "_cost",
          "type": "uint256"
        },
        {
          "internalType": "string",
          "name": "_name",
          "type": "string"
        },
        {
          "internalType": "string",
          "name": "_uri",
          "type": "string"
        }
      ],
      "name": "updateBasicEquipmentScehma",
      "outputs": [],
      "stateMutability": "nonpayable",
      "type": "function"
    }
  ],
  "bytecode": "0x608060405234801561001057600080fd5b50613552806100206000396000f3fe608060405234801561001057600080fd5b50600436106100f55760003560e01c8063b09441c011610097578063d216e98611610066578063d216e98614610284578063d3b4a1eb146102b4578063d6f13898146102d0578063fa8285b5146102ec576100f5565b8063b09441c0146101fe578063ba0615901461021c578063c49dd1881461024c578063c87bf95214610268576100f5565b806340235b3f116100d357806340235b3f146101645780634bf68ade14610180578063799173c1146101b057806381dd2fa0146101ce576100f5565b806307a4cc23146100fa57806325a2bb66146101165780632bb79ab114610134575b600080fd5b610114600480360381019061010f9190612365565b610308565b005b61011e6103b5565b60405161012b919061244e565b60405180910390f35b61014e60048036038101906101499190612469565b6103c4565b60405161015b91906125e2565b60405180910390f35b61017e60048036038101906101799190612604565b6103dc565b005b61019a60048036038101906101959190612469565b610422565b6040516101a791906126ee565b60405180910390f35b6101b861043a565b6040516101c5919061244e565b60405180910390f35b6101e860048036038101906101e39190612469565b610449565b6040516101f5919061280c565b60405180910390f35b610206610461565b604051610213919061244e565b60405180910390f35b61023660048036038101906102319190612469565b610470565b60405161024391906128dd565b60405180910390f35b610266600480360381019061026191906128ff565b610482565b005b610282600480360381019061027d91906129c4565b61053a565b005b61029e60048036038101906102999190612469565b61059b565b6040516102ab9190612b1a565b60405180910390f35b6102ce60048036038101906102c99190612b3c565b6105b3565b005b6102ea60048036038101906102e59190612ba3565b610601565b005b61030660048036038101906103019190612bf6565b61064b565b005b600073434d36f32abed3f7937fe0be88dc1b0eb938124490508073ffffffffffffffffffffffffffffffffffffffff163373ffffffffffffffffffffffffffffffffffffffff161461035957600080fd5b610368888888888888886106b0565b85887f8a178ab5b62361fa794647e8b4c0bc01a5448c063921eb7a1a83116205e74be5846103958c61059b565b6040516103a3929190612d36565b60405180910390a35050505050505050565b60006103bf610786565b905090565b6103cc6120c1565b6103d58261079e565b9050919050565b6103e682826109c3565b817fe7504f1059be7db1f858136933fb89f1e9996256b3beab064b8293dcc370860782604051610416919061244e565b60405180910390a25050565b61042a612106565b61043382610e4e565b9050919050565b6000610444611068565b905090565b610451612143565b61045a82611080565b9050919050565b600061046b611242565b905090565b606061047b8261125a565b9050919050565b600073434d36f32abed3f7937fe0be88dc1b0eb938124490508073ffffffffffffffffffffffffffffffffffffffff163373ffffffffffffffffffffffffffffffffffffffff16146104d357600080fd5b6104e18787878787876112d4565b60006104eb610786565b905086817f8a178ab5b62361fa794647e8b4c0bc01a5448c063921eb7a1a83116205e74be58561051a8561059b565b604051610528929190612d36565b60405180910390a35050505050505050565b61054785858585856113b4565b600061055161043a565b9050807fe7ebf37154a7baecdaff82aaaf79c17b0e7ce8cd17c53835ffd29abbc8a833da61057e83610422565b60405161058b91906126ee565b60405180910390a2505050505050565b6105a3612198565b6105ac82611557565b9050919050565b6105bf848484846116e9565b837f84218958a00495fe298b5cc34035c3650f6567d9fe0199d902332f7bd6b312788385846040516105f393929190612d6d565b60405180910390a250505050565b61060c838383611a3f565b827f91dddbc82058117c5a605d41c7526e95c5b808e19e0a0d5e204cb74b592e98dc838360405161063e929190612da4565b60405180910390a2505050565b61065a87878787878787611e04565b6000610664610461565b9050807fe0dba30483c5bafd92b5b273ff82d3cb8ba8ae555891542aee70c7b5d271b99f610691836103c4565b60405161069e91906125e2565b60405180910390a25050505050505050565b60006106ba611f02565b9050868160020160008a815260200190815260200160002060010181905550858160020160008a815260200190815260200160002060020181905550848160020160008a815260200190815260200160002060030181905550838160020160008a815260200190815260200160002060040181905550828160020160008a815260200190815260200160002060050190816107559190612fd9565b50818160020160008a8152602001908152602001600020600601908161077b9190612fd9565b505050505050505050565b600080610791611f02565b9050806001015491505090565b6107a66120c1565b60006107b0611f02565b905080600801600084815260200190815260200160002060405180610100016040529081600082015481526020016001820154815260200160028201548152602001600382015481526020016004820154815260200160058201805461081590612dfc565b80601f016020809104026020016040519081016040528092919081815260200182805461084190612dfc565b801561088e5780601f106108635761010080835404028352916020019161088e565b820191906000526020600020905b81548152906001019060200180831161087157829003601f168201915b505050505081526020016006820180546108a790612dfc565b80601f01602080910402602001604051908101604052809291908181526020018280546108d390612dfc565b80156109205780601f106108f557610100808354040283529160200191610920565b820191906000526020600020905b81548152906001019060200180831161090357829003601f168201915b5050505050815260200160078201805461093990612dfc565b80601f016020809104026020016040519081016040528092919081815260200182805461096590612dfc565b80156109b25780601f10610987576101008083540402835291602001916109b2565b820191906000526020600020905b81548152906001019060200180831161099557829003601f168201915b505050505081525050915050919050565b60006109cd611f2f565b905060006109d9611f02565b905060006109e5611f5c565b905060008360030160008781526020019081526020016000206002015414610a0c57600080fd5b3373ffffffffffffffffffffffffffffffffffffffff1683600201600087815260200190815260200160002060009054906101000a900473ffffffffffffffffffffffffffffffffffffffff1673ffffffffffffffffffffffffffffffffffffffff1614610a7957600080fd5b816002016000858152602001908152602001600020600401548160000160003373ffffffffffffffffffffffffffffffffffffffff1673ffffffffffffffffffffffffffffffffffffffff168152602001908152602001600020541015610adf57600080fd5b816000016000815480929190610af4906130da565b919050555060405180610140016040528083600001548152602001836006016000888152602001908152602001600020805490508152602001836002016000878152602001908152602001600020600101548152602001600181526020018360020160008781526020019081526020016000206002015481526020018360020160008781526020019081526020016000206003015481526020018681526020018360020160008781526020019081526020016000206005018054610bb790612dfc565b80601f0160208091040260200160405190810160405280929190818152602001828054610be390612dfc565b8015610c305780601f10610c0557610100808354040283529160200191610c30565b820191906000526020600020905b815481529060010190602001808311610c1357829003601f168201915b505050505081526020018360020160008781526020019081526020016000206006018054610c5d90612dfc565b80601f0160208091040260200160405190810160405280929190818152602001828054610c8990612dfc565b8015610cd65780601f10610cab57610100808354040283529160200191610cd6565b820191906000526020600020905b815481529060010190602001808311610cb957829003601f168201915b505050505081526020016000151581525082600301600084600001548152602001908152602001600020600082015181600001556020820151816001015560408201518160020155606082015181600301556080820151816004015560a0820151816005015560c0820151816006015560e0820151816007019081610d5b9190612fd9565b50610100820151816008019081610d729190612fd9565b506101208201518160090160006101000a81548160ff02191690831515021790555090505081600601600086815260200190815260200160002082600001549080600181540180825580915050600190039060005260206000200160009091909190915055816002016000858152602001908152602001600020600401548160000160003373ffffffffffffffffffffffffffffffffffffffff1673ffffffffffffffffffffffffffffffffffffffff1681526020019081526020016000206000828254610e409190613122565b925050819055505050505050565b610e56612106565b6000610e60611f02565b90508060050160008481526020019081526020016000206040518060e001604052908160008201548152602001600182015481526020016002820154815260200160038201548152602001600482018054610eba90612dfc565b80601f0160208091040260200160405190810160405280929190818152602001828054610ee690612dfc565b8015610f335780601f10610f0857610100808354040283529160200191610f33565b820191906000526020600020905b815481529060010190602001808311610f1657829003601f168201915b50505050508152602001600582018054610f4c90612dfc565b80601f0160208091040260200160405190810160405280929190818152602001828054610f7890612dfc565b8015610fc55780601f10610f9a57610100808354040283529160200191610fc5565b820191906000526020600020905b815481529060010190602001808311610fa857829003601f168201915b50505050508152602001600682018054610fde90612dfc565b80601f016020809104026020016040519081016040528092919081815260200182805461100a90612dfc565b80156110575780601f1061102c57610100808354040283529160200191611057565b820191906000526020600020905b81548152906001019060200180831161103a57829003601f168201915b505050505081525050915050919050565b600080611073611f02565b9050806004015491505090565b611088612143565b6000611092611f02565b9050806003016000848152602001908152602001600020604051806101400160405290816000820154815260200160018201548152602001600282015481526020016003820154815260200160048201548152602001600582015481526020016006820154815260200160078201805461110b90612dfc565b80601f016020809104026020016040519081016040528092919081815260200182805461113790612dfc565b80156111845780601f1061115957610100808354040283529160200191611184565b820191906000526020600020905b81548152906001019060200180831161116757829003601f168201915b5050505050815260200160088201805461119d90612dfc565b80601f01602080910402602001604051908101604052809291908181526020018280546111c990612dfc565b80156112165780601f106111eb57610100808354040283529160200191611216565b820191906000526020600020905b8154815290600101906020018083116111f957829003601f168201915b505050505081526020016009820160009054906101000a900460ff161515151581525050915050919050565b60008061124d611f02565b9050806007015491505090565b60606000611266611f02565b90508060060160008481526020019081526020016000208054806020026020016040519081016040528092919081815260200182805480156112c757602002820191906000526020600020905b8154815260200190600101908083116112b3575b5050505050915050919050565b60006112de611f02565b90508060010160008154809291906112f5906130da565b91905055506040518060e00160405280826001015481526020018881526020018781526020018681526020018581526020018481526020018381525081600201600083600101548152602001908152602001600020600082015181600001556020820151816001015560408201518160020155606082015181600301556080820151816004015560a08201518160050190816113919190612fd9565b5060c08201518160060190816113a79190612fd9565b5090505050505050505050565b60006113be611f02565b90508060040160008154809291906113d5906130da565b91905055506040518060e0016040528082600401548152602001826002016000898152602001908152602001600020600101548152602001868152602001858152602001826002016000898152602001908152602001600020600501805461143c90612dfc565b80601f016020809104026020016040519081016040528092919081815260200182805461146890612dfc565b80156114b55780601f1061148a576101008083540402835291602001916114b5565b820191906000526020600020905b81548152906001019060200180831161149857829003601f168201915b50505050508152602001848152602001838152508160050160008360040154815260200190815260200160002060008201518160000155602082015181600101556040820151816002015560608201518160030155608082015181600401908161151f9190612fd9565b5060a08201518160050190816115359190612fd9565b5060c082015181600601908161154b9190612fd9565b50905050505050505050565b61155f612198565b6000611569611f02565b90508060020160008481526020019081526020016000206040518060e001604052908160008201548152602001600182015481526020016002820154815260200160038201548152602001600482015481526020016005820180546115cd90612dfc565b80601f01602080910402602001604051908101604052809291908181526020018280546115f990612dfc565b80156116465780601f1061161b57610100808354040283529160200191611646565b820191906000526020600020905b81548152906001019060200180831161162957829003601f168201915b5050505050815260200160068201805461165f90612dfc565b80601f016020809104026020016040519081016040528092919081815260200182805461168b90612dfc565b80156116d85780601f106116ad576101008083540402835291602001916116d8565b820191906000526020600020905b8154815290600101906020018083116116bb57829003601f168201915b505050505081525050915050919050565b60006116f3611f2f565b905060006116ff611f02565b9050600061170b611f89565b90506000836003016000898152602001908152602001600020600201541461173257600080fd5b3373ffffffffffffffffffffffffffffffffffffffff1683600201600089815260200190815260200160002060009054906101000a900473ffffffffffffffffffffffffffffffffffffffff1673ffffffffffffffffffffffffffffffffffffffff16146117d5576040517f08c379a00000000000000000000000000000000000000000000000000000000081526004016117cc906131a2565b60405180910390fd5b81600301600086815260200190815260200160002060090160009054906101000a900460ff161561183b576040517f08c379a00000000000000000000000000000000000000000000000000000000081526004016118329061320e565b60405180910390fd5b6000826008016000888152602001908152602001600020905087826004016000878152602001908152602001600020600201541461187857600080fd5b806004015482600401600087815260200190815260200160002060010154146118a057600080fd5b806005016040516020016118b491906132bc565b604051602081830303815290604052805190602001208360030160008881526020019081526020016000206007016040516020016118f291906132bc565b6040516020818303038152906040528051906020012014611948576040517f08c379a000000000000000000000000000000000000000000000000000000000815260040161193f9061331f565b60405180910390fd5b8260030160008781526020019081526020016000206003016000815480929190611971906130da565b9190505550806002015483600301600088815260200190815260200160002060040181905550806001015483600301600088815260200190815260200160002060020181905550806003015483600301600088815260200190815260200160002060050181905550806006018360030160008881526020019081526020016000206007019081611a01919061336a565b50806007018360030160008881526020019081526020016000206008019081611a2a919061336a565b50611a358886611fb6565b5050505050505050565b6000611a49611f2f565b90506000611a55611f02565b90506000611a61611f5c565b905060008360030160008881526020019081526020016000206002015414611a8857600080fd5b3373ffffffffffffffffffffffffffffffffffffffff1683600201600088815260200190815260200160002060009054906101000a900473ffffffffffffffffffffffffffffffffffffffff1673ffffffffffffffffffffffffffffffffffffffff1614611b2b576040517f08c379a0000000000000000000000000000000000000000000000000000000008152600401611b22906131a2565b60405180910390fd5b81600301600086815260200190815260200160002060090160009054906101000a900460ff1615611b91576040517f08c379a0000000000000000000000000000000000000000000000000000000008152600401611b889061320e565b60405180910390fd5b6000826005016000868152602001908152602001600020905080600301548260010160003373ffffffffffffffffffffffffffffffffffffffff1673ffffffffffffffffffffffffffffffffffffffff168152602001908152602001600020541015611c32576040517f08c379a0000000000000000000000000000000000000000000000000000000008152600401611c299061349e565b60405180910390fd5b868360030160008881526020019081526020016000206006015414611c5657600080fd5b80600401604051602001611c6a91906132bc565b60405160208183030381529060405280519060200120836003016000888152602001908152602001600020600701604051602001611ca891906132bc565b6040516020818303038152906040528051906020012014611cfe576040517f08c379a0000000000000000000000000000000000000000000000000000000008152600401611cf59061331f565b60405180910390fd5b80600301548260010160003373ffffffffffffffffffffffffffffffffffffffff1673ffffffffffffffffffffffffffffffffffffffff1681526020019081526020016000206000828254611d539190613122565b925050819055508260030160008781526020019081526020016000206003016000815480929190611d83906130da565b9190505550806002015483600301600088815260200190815260200160002060040181905550806005018360030160008881526020019081526020016000206007019081611dd1919061336a565b50806006018360030160008881526020019081526020016000206008019081611dfa919061336a565b5050505050505050565b6000611e0e611f02565b9050806007016000815480929190611e25906130da565b9190505550604051806101000160405280826007015481526020018881526020018781526020018681526020018981526020018581526020018481526020018381525081600801600083600701548152602001908152602001600020600082015181600001556020820151816001015560408201518160020155606082015181600301556080820151816004015560a0820151816005019081611ec89190612fd9565b5060c0820151816006019081611ede9190612fd9565b5060e0820151816007019081611ef49190612fd9565b509050505050505050505050565b6000807faad0511195ddfb575f5187a7172ca6fc330f129a86291f15eaa5f7537ab038dc90508091505090565b6000807f3cab9a070a0c61cd0ae9d9e9e2c0781e5ca8691bec4087e5a4701d5ac018dd4e90508091505090565b6000807f2c89d74504b6ad8d4fbde22bc3474166bac5452a11195897f239d8bebe02d70790508091505090565b6000807fb5dbbc334907f600e1151190a68c4043043163a23a907389a2c6f6231ed4318b90508091505090565b6000611fc0611f89565b9050828160040160008481526020019081526020016000206002015414611fe657600080fd5b6000816004016000848152602001908152602001600020600401549050600060018360050160008781526020019081526020016000208054905061202a9190613122565b9050808360050160008781526020019081526020016000208381548110612054576120536134be565b5b906000526020600020018190555081836004016000838152602001908152602001600020600401819055508260050160008681526020019081526020016000208054806120a4576120a36134ed565b5b600190038181906000526020600020016000905590555050505050565b60405180610100016040528060008152602001600081526020016000815260200160008152602001600081526020016060815260200160608152602001606081525090565b6040518060e00160405280600081526020016000815260200160008152602001600081526020016060815260200160608152602001606081525090565b6040518061014001604052806000815260200160008152602001600081526020016000815260200160008152602001600081526020016000815260200160608152602001606081526020016000151581525090565b6040518060e00160405280600081526020016000815260200160008152602001600081526020016000815260200160608152602001606081525090565b6000604051905090565b600080fd5b600080fd5b6000819050919050565b6121fc816121e9565b811461220757600080fd5b50565b600081359050612219816121f3565b92915050565b600080fd5b600080fd5b6000601f19601f8301169050919050565b7f4e487b7100000000000000000000000000000000000000000000000000000000600052604160045260246000fd5b61227282612229565b810181811067ffffffffffffffff821117156122915761229061223a565b5b80604052505050565b60006122a46121d5565b90506122b08282612269565b919050565b600067ffffffffffffffff8211156122d0576122cf61223a565b5b6122d982612229565b9050602081019050919050565b82818337600083830152505050565b6000612308612303846122b5565b61229a565b90508281526020810184848401111561232457612323612224565b5b61232f8482856122e6565b509392505050565b600082601f83011261234c5761234b61221f565b5b813561235c8482602086016122f5565b91505092915050565b600080600080600080600060e0888a031215612384576123836121df565b5b60006123928a828b0161220a565b97505060206123a38a828b0161220a565b96505060406123b48a828b0161220a565b95505060606123c58a828b0161220a565b94505060806123d68a828b0161220a565b93505060a088013567ffffffffffffffff8111156123f7576123f66121e4565b5b6124038a828b01612337565b92505060c088013567ffffffffffffffff811115612424576124236121e4565b5b6124308a828b01612337565b91505092959891949750929550565b612448816121e9565b82525050565b6000602082019050612463600083018461243f565b92915050565b60006020828403121561247f5761247e6121df565b5b600061248d8482850161220a565b91505092915050565b61249f816121e9565b82525050565b600081519050919050565b600082825260208201905092915050565b60005b838110156124df5780820151818401526020810190506124c4565b60008484015250505050565b60006124f6826124a5565b61250081856124b0565b93506125108185602086016124c1565b61251981612229565b840191505092915050565b60006101008301600083015161253d6000860182612496565b5060208301516125506020860182612496565b5060408301516125636040860182612496565b5060608301516125766060860182612496565b5060808301516125896080860182612496565b5060a083015184820360a08601526125a182826124eb565b91505060c083015184820360c08601526125bb82826124eb565b91505060e083015184820360e08601526125d582826124eb565b9150508091505092915050565b600060208201905081810360008301526125fc8184612524565b905092915050565b6000806040838503121561261b5761261a6121df565b5b60006126298582860161220a565b925050602061263a8582860161220a565b9150509250929050565b600060e08301600083015161265c6000860182612496565b50602083015161266f6020860182612496565b5060408301516126826040860182612496565b5060608301516126956060860182612496565b50608083015184820360808601526126ad82826124eb565b91505060a083015184820360a08601526126c782826124eb565b91505060c083015184820360c08601526126e182826124eb565b9150508091505092915050565b600060208201905081810360008301526127088184612644565b905092915050565b60008115159050919050565b61272581612710565b82525050565b6000610140830160008301516127446000860182612496565b5060208301516127576020860182612496565b50604083015161276a6040860182612496565b50606083015161277d6060860182612496565b5060808301516127906080860182612496565b5060a08301516127a360a0860182612496565b5060c08301516127b660c0860182612496565b5060e083015184820360e08601526127ce82826124eb565b9150506101008301518482036101008601526127ea82826124eb565b91505061012083015161280161012086018261271c565b508091505092915050565b60006020820190508181036000830152612826818461272b565b905092915050565b600081519050919050565b600082825260208201905092915050565b6000819050602082019050919050565b60006128668383612496565b60208301905092915050565b6000602082019050919050565b600061288a8261282e565b6128948185612839565b935061289f8361284a565b8060005b838110156128d05781516128b7888261285a565b97506128c283612872565b9250506001810190506128a3565b5085935050505092915050565b600060208201905081810360008301526128f7818461287f565b905092915050565b60008060008060008060c0878903121561291c5761291b6121df565b5b600061292a89828a0161220a565b965050602061293b89828a0161220a565b955050604061294c89828a0161220a565b945050606061295d89828a0161220a565b935050608087013567ffffffffffffffff81111561297e5761297d6121e4565b5b61298a89828a01612337565b92505060a087013567ffffffffffffffff8111156129ab576129aa6121e4565b5b6129b789828a01612337565b9150509295509295509295565b600080600080600060a086880312156129e0576129df6121df565b5b60006129ee8882890161220a565b95505060206129ff8882890161220a565b9450506040612a108882890161220a565b935050606086013567ffffffffffffffff811115612a3157612a306121e4565b5b612a3d88828901612337565b925050608086013567ffffffffffffffff811115612a5e57612a5d6121e4565b5b612a6a88828901612337565b9150509295509295909350565b600060e083016000830151612a8f6000860182612496565b506020830151612aa26020860182612496565b506040830151612ab56040860182612496565b506060830151612ac86060860182612496565b506080830151612adb6080860182612496565b5060a083015184820360a0860152612af382826124eb565b91505060c083015184820360c0860152612b0d82826124eb565b9150508091505092915050565b60006020820190508181036000830152612b348184612a77565b905092915050565b60008060008060808587031215612b5657612b556121df565b5b6000612b648782880161220a565b9450506020612b758782880161220a565b9350506040612b868782880161220a565b9250506060612b978782880161220a565b91505092959194509250565b600080600060608486031215612bbc57612bbb6121df565b5b6000612bca8682870161220a565b9350506020612bdb8682870161220a565b9250506040612bec8682870161220a565b9150509250925092565b600080600080600080600060e0888a031215612c1557612c146121df565b5b6000612c238a828b0161220a565b9750506020612c348a828b0161220a565b9650506040612c458a828b0161220a565b9550506060612c568a828b0161220a565b945050608088013567ffffffffffffffff811115612c7757612c766121e4565b5b612c838a828b01612337565b93505060a088013567ffffffffffffffff811115612ca457612ca36121e4565b5b612cb08a828b01612337565b92505060c088013567ffffffffffffffff811115612cd157612cd06121e4565b5b612cdd8a828b01612337565b91505092959891949750929550565b600082825260208201905092915050565b6000612d08826124a5565b612d128185612cec565b9350612d228185602086016124c1565b612d2b81612229565b840191505092915050565b60006040820190508181036000830152612d508185612cfd565b90508181036020830152612d648184612a77565b90509392505050565b6000606082019050612d82600083018661243f565b612d8f602083018561243f565b612d9c604083018461243f565b949350505050565b6000604082019050612db9600083018561243f565b612dc6602083018461243f565b9392505050565b7f4e487b7100000000000000000000000000000000000000000000000000000000600052602260045260246000fd5b60006002820490506001821680612e1457607f821691505b602082108103612e2757612e26612dcd565b5b50919050565b60008190508160005260206000209050919050565b60006020601f8301049050919050565b600082821b905092915050565b600060088302612e8f7fffffffffffffffffffffffffffffffffffffffffffffffffffffffffffffffff82612e52565b612e998683612e52565b95508019841693508086168417925050509392505050565b6000819050919050565b6000612ed6612ed1612ecc846121e9565b612eb1565b6121e9565b9050919050565b6000819050919050565b612ef083612ebb565b612f04612efc82612edd565b848454612e5f565b825550505050565b600090565b612f19612f0c565b612f24818484612ee7565b505050565b5b81811015612f4857612f3d600082612f11565b600181019050612f2a565b5050565b601f821115612f8d57612f5e81612e2d565b612f6784612e42565b81016020851015612f76578190505b612f8a612f8285612e42565b830182612f29565b50505b505050565b600082821c905092915050565b6000612fb060001984600802612f92565b1980831691505092915050565b6000612fc98383612f9f565b9150826002028217905092915050565b612fe2826124a5565b67ffffffffffffffff811115612ffb57612ffa61223a565b5b6130058254612dfc565b613010828285612f4c565b600060209050601f8311600181146130435760008415613031578287015190505b61303b8582612fbd565b8655506130a3565b601f19841661305186612e2d565b60005b8281101561307957848901518255600182019150602085019450602081019050613054565b868310156130965784890151613092601f891682612f9f565b8355505b6001600288020188555050505b505050505050565b7f4e487b7100000000000000000000000000000000000000000000000000000000600052601160045260246000fd5b60006130e5826121e9565b91507fffffffffffffffffffffffffffffffffffffffffffffffffffffffffffffffff8203613117576131166130ab565b5b600182019050919050565b600061312d826121e9565b9150613138836121e9565b92508282039050818111156131505761314f6130ab565b5b92915050565b7f796f7520646f206e6f74206f776e207468697320706c61796572000000000000600082015250565b600061318c601a83612cec565b915061319782613156565b602082019050919050565b600060208201905081810360008301526131bb8161317f565b9050919050565b7f6d757374206e6f74206265206571756970706564000000000000000000000000600082015250565b60006131f8601483612cec565b9150613203826131c2565b602082019050919050565b60006020820190508181036000830152613227816131eb565b9050919050565b600081905092915050565b6000815461324681612dfc565b613250818661322e565b9450600182166000811461326b5760018114613280576132b3565b60ff19831686528115158202860193506132b3565b61328985612e2d565b60005b838110156132ab5781548189015260018201915060208101905061328c565b838801955050505b50505092915050565b60006132c88284613239565b915081905092915050565b7f6e6f74207468652073616d652065717569706d656e74206e616d650000000000600082015250565b6000613309601b83612cec565b9150613314826132d3565b602082019050919050565b60006020820190508181036000830152613338816132fc565b9050919050565b60008154905061334e81612dfc565b9050919050565b60008190508160005260206000209050919050565b818103613378575050613450565b6133818261333f565b67ffffffffffffffff81111561339a5761339961223a565b5b6133a48254612dfc565b6133af828285612f4c565b6000601f8311600181146133de57600084156133cc578287015490505b6133d68582612fbd565b865550613449565b601f1984166133ec87613355565b96506133f786612e2d565b60005b8281101561341f578489015482556001820191506001850194506020810190506133fa565b8683101561343c5784890154613438601f891682612f9f565b8355505b6001600288020188555050505b5050505050505b565b7f6e656564206d6f72652067656d00000000000000000000000000000000000000600082015250565b6000613488600d83612cec565b915061349382613452565b602082019050919050565b600060208201905081810360008301526134b78161347b565b9050919050565b7f4e487b7100000000000000000000000000000000000000000000000000000000600052603260045260246000fd5b7f4e487b7100000000000000000000000000000000000000000000000000000000600052603160045260246000fdfea26469706673582212206ec869edbb8be0b7284c3b7cf7974582cf0b16d0e43d0e1a4a90aebbbc91a7b964736f6c63430008120033",
  "linkReferences": {},
  "deployedLinkReferences": {}
}