{
  "_format": "hh-sol-artifact-1",
  "contractName": "CraftFacet",
  "sourceName": "contracts/facets/CraftFacet.sol",
  "abi": [
    {
      "anonymous": false,
      "inputs": [
        {
          "indexed": true,
          "internalType": "uint256",
          "name": "_basicEquipmentSchemaId",
          "type": "uint256"
        },
        {
          "indexed": true,
          "internalType": "uint256",
          "name": "_value",
          "type": "uint256"
        },
        {
          "indexed": false,
          "internalType": "string",
          "name": "_uri",
          "type": "string"
        }
      ],
      "name": "BasicEquipmentSchemaCreated",
      "type": "event"
    },
    {
      "anonymous": false,
      "inputs": [
        {
          "indexed": true,
          "internalType": "uint256",
          "name": "_playerId",
          "type": "uint256"
        },
        {
          "indexed": false,
          "internalType": "uint256",
          "name": "_equipmentSchemaId",
          "type": "uint256"
        }
      ],
      "name": "PurchaseBasicEquipment",
      "type": "event"
    },
    {
      "inputs": [
        {
          "internalType": "uint256",
          "name": "_slot",
          "type": "uint256"
        },
        {
          "internalType": "uint256",
          "name": "_value",
          "type": "uint256"
        },
        {
          "internalType": "uint256",
          "name": "_stat",
          "type": "uint256"
        },
        {
          "internalType": "uint256",
          "name": "_cost",
          "type": "uint256"
        },
        {
          "internalType": "string",
          "name": "_name",
          "type": "string"
        },
        {
          "internalType": "string",
          "name": "_uri",
          "type": "string"
        }
      ],
      "name": "_createBasicEquipment",
      "outputs": [],
      "stateMutability": "nonpayable",
      "type": "function"
    },
    {
      "inputs": [],
      "name": "getBasicEquipmentCount",
      "outputs": [
        {
          "internalType": "uint256",
          "name": "",
          "type": "uint256"
        }
      ],
      "stateMutability": "view",
      "type": "function"
    },
    {
      "inputs": [
        {
          "internalType": "uint256",
          "name": "_equipmentId",
          "type": "uint256"
        }
      ],
      "name": "getEquipment",
      "outputs": [
        {
          "components": [
            {
              "internalType": "uint256",
              "name": "id",
              "type": "uint256"
            },
            {
              "internalType": "uint256",
              "name": "pointer",
              "type": "uint256"
            },
            {
              "internalType": "uint256",
              "name": "slot",
              "type": "uint256"
            },
            {
              "internalType": "uint256",
              "name": "rank",
              "type": "uint256"
            },
            {
              "internalType": "uint256",
              "name": "value",
              "type": "uint256"
            },
            {
              "internalType": "uint256",
              "name": "stat",
              "type": "uint256"
            },
            {
              "internalType": "uint256",
              "name": "owner",
              "type": "uint256"
            },
            {
              "internalType": "string",
              "name": "name",
              "type": "string"
            },
            {
              "internalType": "string",
              "name": "uri",
              "type": "string"
            },
            {
              "internalType": "bool",
              "name": "isEquiped",
              "type": "bool"
            }
          ],
          "internalType": "struct Equipment",
          "name": "",
          "type": "tuple"
        }
      ],
      "stateMutability": "view",
      "type": "function"
    },
    {
      "inputs": [
        {
          "internalType": "uint256",
          "name": "_playerId",
          "type": "uint256"
        }
      ],
      "name": "getPlayerToEquipment",
      "outputs": [
        {
          "internalType": "uint256[]",
          "name": "",
          "type": "uint256[]"
        }
      ],
      "stateMutability": "view",
      "type": "function"
    },
    {
      "inputs": [
        {
          "internalType": "uint256",
          "name": "_playerId",
          "type": "uint256"
        },
        {
          "internalType": "uint256",
          "name": "_equipmentSchemaId",
          "type": "uint256"
        }
      ],
      "name": "purchaseBasicEquipment",
      "outputs": [],
      "stateMutability": "nonpayable",
      "type": "function"
    }
  ],
  "bytecode": "0x608060405234801561001057600080fd5b50611468806100206000396000f3fe608060405234801561001057600080fd5b50600436106100575760003560e01c806325a2bb661461005c57806340235b3f1461007a57806381dd2fa014610096578063ba061590146100c6578063c696a776146100f6575b600080fd5b610064610112565b6040516100719190610aed565b60405180910390f35b610094600480360381019061008f9190610b48565b610121565b005b6100b060048036038101906100ab9190610b88565b610167565b6040516100bd9190610d50565b60405180910390f35b6100e060048036038101906100db9190610b88565b61017f565b6040516100ed9190610e21565b60405180910390f35b610110600480360381019061010b9190610f78565b610191565b005b600061011c610239565b905090565b61012b8282610251565b817fe7504f1059be7db1f858136933fb89f1e9996256b3beab064b8293dcc37086078260405161015b9190610aed565b60405180910390a25050565b61016f610a7f565b610178826106dc565b9050919050565b606061018a8261089e565b9050919050565b600073434d36f32abed3f7937fe0be88dc1b0eb938124490508073ffffffffffffffffffffffffffffffffffffffff163373ffffffffffffffffffffffffffffffffffffffff16146101e257600080fd5b6101f0878787878787610918565b856101f9610239565b7fe95655014ca2b6e8a6a6cabefa1784441c578a60833d2b4d04e4cd6112b1f77b846040516102289190611087565b60405180910390a350505050505050565b6000806102446109f8565b9050806001015491505090565b600061025b610a25565b905060006102676109f8565b90506000610273610a52565b90506000836003016000878152602001908152602001600020600201541461029a57600080fd5b3373ffffffffffffffffffffffffffffffffffffffff1683600201600087815260200190815260200160002060009054906101000a900473ffffffffffffffffffffffffffffffffffffffff1673ffffffffffffffffffffffffffffffffffffffff161461030757600080fd5b816002016000858152602001908152602001600020600401548160000160003373ffffffffffffffffffffffffffffffffffffffff1673ffffffffffffffffffffffffffffffffffffffff16815260200190815260200160002054101561036d57600080fd5b816000016000815480929190610382906110d8565b9190505550604051806101400160405280836000015481526020018360060160008881526020019081526020016000208054905081526020018360020160008781526020019081526020016000206001015481526020016001815260200183600201600087815260200190815260200160002060020154815260200183600201600087815260200190815260200160002060030154815260200186815260200183600201600087815260200190815260200160002060050180546104459061114f565b80601f01602080910402602001604051908101604052809291908181526020018280546104719061114f565b80156104be5780601f10610493576101008083540402835291602001916104be565b820191906000526020600020905b8154815290600101906020018083116104a157829003601f168201915b5050505050815260200183600201600087815260200190815260200160002060060180546104eb9061114f565b80601f01602080910402602001604051908101604052809291908181526020018280546105179061114f565b80156105645780601f1061053957610100808354040283529160200191610564565b820191906000526020600020905b81548152906001019060200180831161054757829003601f168201915b505050505081526020016000151581525082600301600084600001548152602001908152602001600020600082015181600001556020820151816001015560408201518160020155606082015181600301556080820151816004015560a0820151816005015560c0820151816006015560e08201518160070190816105e9919061132c565b50610100820151816008019081610600919061132c565b506101208201518160090160006101000a81548160ff02191690831515021790555090505081600601600086815260200190815260200160002082600001549080600181540180825580915050600190039060005260206000200160009091909190915055816002016000858152602001908152602001600020600401548160000160003373ffffffffffffffffffffffffffffffffffffffff1673ffffffffffffffffffffffffffffffffffffffff16815260200190815260200160002060008282546106ce91906113fe565b925050819055505050505050565b6106e4610a7f565b60006106ee6109f8565b905080600301600084815260200190815260200160002060405180610140016040529081600082015481526020016001820154815260200160028201548152602001600382015481526020016004820154815260200160058201548152602001600682015481526020016007820180546107679061114f565b80601f01602080910402602001604051908101604052809291908181526020018280546107939061114f565b80156107e05780601f106107b5576101008083540402835291602001916107e0565b820191906000526020600020905b8154815290600101906020018083116107c357829003601f168201915b505050505081526020016008820180546107f99061114f565b80601f01602080910402602001604051908101604052809291908181526020018280546108259061114f565b80156108725780601f1061084757610100808354040283529160200191610872565b820191906000526020600020905b81548152906001019060200180831161085557829003601f168201915b505050505081526020016009820160009054906101000a900460ff161515151581525050915050919050565b606060006108aa6109f8565b905080600601600084815260200190815260200160002080548060200260200160405190810160405280929190818152602001828054801561090b57602002820191906000526020600020905b8154815260200190600101908083116108f7575b5050505050915050919050565b60006109226109f8565b9050806001016000815480929190610939906110d8565b91905055506040518060e00160405280826001015481526020018881526020018781526020018681526020018581526020018481526020018381525081600201600083600101548152602001908152602001600020600082015181600001556020820151816001015560408201518160020155606082015181600301556080820151816004015560a08201518160050190816109d5919061132c565b5060c08201518160060190816109eb919061132c565b5090505050505050505050565b6000807faad0511195ddfb575f5187a7172ca6fc330f129a86291f15eaa5f7537ab038dc90508091505090565b6000807f3cab9a070a0c61cd0ae9d9e9e2c0781e5ca8691bec4087e5a4701d5ac018dd4e90508091505090565b6000807f2c89d74504b6ad8d4fbde22bc3474166bac5452a11195897f239d8bebe02d70790508091505090565b6040518061014001604052806000815260200160008152602001600081526020016000815260200160008152602001600081526020016000815260200160608152602001606081526020016000151581525090565b6000819050919050565b610ae781610ad4565b82525050565b6000602082019050610b026000830184610ade565b92915050565b6000604051905090565b600080fd5b600080fd5b610b2581610ad4565b8114610b3057600080fd5b50565b600081359050610b4281610b1c565b92915050565b60008060408385031215610b5f57610b5e610b12565b5b6000610b6d85828601610b33565b9250506020610b7e85828601610b33565b9150509250929050565b600060208284031215610b9e57610b9d610b12565b5b6000610bac84828501610b33565b91505092915050565b610bbe81610ad4565b82525050565b600081519050919050565b600082825260208201905092915050565b60005b83811015610bfe578082015181840152602081019050610be3565b60008484015250505050565b6000601f19601f8301169050919050565b6000610c2682610bc4565b610c308185610bcf565b9350610c40818560208601610be0565b610c4981610c0a565b840191505092915050565b60008115159050919050565b610c6981610c54565b82525050565b600061014083016000830151610c886000860182610bb5565b506020830151610c9b6020860182610bb5565b506040830151610cae6040860182610bb5565b506060830151610cc16060860182610bb5565b506080830151610cd46080860182610bb5565b5060a0830151610ce760a0860182610bb5565b5060c0830151610cfa60c0860182610bb5565b5060e083015184820360e0860152610d128282610c1b565b915050610100830151848203610100860152610d2e8282610c1b565b915050610120830151610d45610120860182610c60565b508091505092915050565b60006020820190508181036000830152610d6a8184610c6f565b905092915050565b600081519050919050565b600082825260208201905092915050565b6000819050602082019050919050565b6000610daa8383610bb5565b60208301905092915050565b6000602082019050919050565b6000610dce82610d72565b610dd88185610d7d565b9350610de383610d8e565b8060005b83811015610e14578151610dfb8882610d9e565b9750610e0683610db6565b925050600181019050610de7565b5085935050505092915050565b60006020820190508181036000830152610e3b8184610dc3565b905092915050565b600080fd5b600080fd5b7f4e487b7100000000000000000000000000000000000000000000000000000000600052604160045260246000fd5b610e8582610c0a565b810181811067ffffffffffffffff82111715610ea457610ea3610e4d565b5b80604052505050565b6000610eb7610b08565b9050610ec38282610e7c565b919050565b600067ffffffffffffffff821115610ee357610ee2610e4d565b5b610eec82610c0a565b9050602081019050919050565b82818337600083830152505050565b6000610f1b610f1684610ec8565b610ead565b905082815260208101848484011115610f3757610f36610e48565b5b610f42848285610ef9565b509392505050565b600082601f830112610f5f57610f5e610e43565b5b8135610f6f848260208601610f08565b91505092915050565b60008060008060008060c08789031215610f9557610f94610b12565b5b6000610fa389828a01610b33565b9650506020610fb489828a01610b33565b9550506040610fc589828a01610b33565b9450506060610fd689828a01610b33565b935050608087013567ffffffffffffffff811115610ff757610ff6610b17565b5b61100389828a01610f4a565b92505060a087013567ffffffffffffffff81111561102457611023610b17565b5b61103089828a01610f4a565b9150509295509295509295565b600082825260208201905092915050565b600061105982610bc4565b611063818561103d565b9350611073818560208601610be0565b61107c81610c0a565b840191505092915050565b600060208201905081810360008301526110a1818461104e565b905092915050565b7f4e487b7100000000000000000000000000000000000000000000000000000000600052601160045260246000fd5b60006110e382610ad4565b91507fffffffffffffffffffffffffffffffffffffffffffffffffffffffffffffffff8203611115576111146110a9565b5b600182019050919050565b7f4e487b7100000000000000000000000000000000000000000000000000000000600052602260045260246000fd5b6000600282049050600182168061116757607f821691505b60208210810361117a57611179611120565b5b50919050565b60008190508160005260206000209050919050565b60006020601f8301049050919050565b600082821b905092915050565b6000600883026111e27fffffffffffffffffffffffffffffffffffffffffffffffffffffffffffffffff826111a5565b6111ec86836111a5565b95508019841693508086168417925050509392505050565b6000819050919050565b600061122961122461121f84610ad4565b611204565b610ad4565b9050919050565b6000819050919050565b6112438361120e565b61125761124f82611230565b8484546111b2565b825550505050565b600090565b61126c61125f565b61127781848461123a565b505050565b5b8181101561129b57611290600082611264565b60018101905061127d565b5050565b601f8211156112e0576112b181611180565b6112ba84611195565b810160208510156112c9578190505b6112dd6112d585611195565b83018261127c565b50505b505050565b600082821c905092915050565b6000611303600019846008026112e5565b1980831691505092915050565b600061131c83836112f2565b9150826002028217905092915050565b61133582610bc4565b67ffffffffffffffff81111561134e5761134d610e4d565b5b611358825461114f565b61136382828561129f565b600060209050601f8311600181146113965760008415611384578287015190505b61138e8582611310565b8655506113f6565b601f1984166113a486611180565b60005b828110156113cc578489015182556001820191506020850194506020810190506113a7565b868310156113e957848901516113e5601f8916826112f2565b8355505b6001600288020188555050505b505050505050565b600061140982610ad4565b915061141483610ad4565b925082820390508181111561142c5761142b6110a9565b5b9291505056fea264697066735822122027993ec76b4c629a6bc21ba2c467978c9d4c72895fd825883e208cd48de1afbb64736f6c63430008120033",
  "linkReferences": {},
  "deployedLinkReferences": {}
}