{
  "_format": "hh-sol-artifact-1",
  "contractName": "CraftFacet",
  "sourceName": "contracts/facets/CraftFacet.sol",
  "abi": [
    {
      "anonymous": false,
      "inputs": [
        {
          "indexed": true,
          "internalType": "uint256",
          "name": "_playerId",
          "type": "uint256"
        },
        {
          "indexed": false,
          "internalType": "uint256",
          "name": "_equipmentId",
          "type": "uint256"
        },
        {
          "indexed": false,
          "internalType": "uint256",
          "name": "_advancedCraftId",
          "type": "uint256"
        }
      ],
      "name": "AdvancedCraftEvent",
      "type": "event"
    },
    {
      "anonymous": false,
      "inputs": [
        {
          "indexed": true,
          "internalType": "uint256",
          "name": "_playerId",
          "type": "uint256"
        },
        {
          "indexed": false,
          "internalType": "uint256",
          "name": "_equipmentId",
          "type": "uint256"
        },
        {
          "indexed": false,
          "internalType": "uint256",
          "name": "_craftId",
          "type": "uint256"
        }
      ],
      "name": "BasicCraftEvent",
      "type": "event"
    },
    {
      "anonymous": false,
      "inputs": [
        {
          "indexed": true,
          "internalType": "uint256",
          "name": "_basicEquipmentSchemaId",
          "type": "uint256"
        },
        {
          "indexed": true,
          "internalType": "uint256",
          "name": "_value",
          "type": "uint256"
        },
        {
          "indexed": false,
          "internalType": "string",
          "name": "_uri",
          "type": "string"
        },
        {
          "components": [
            {
              "internalType": "uint256",
              "name": "basicEquipmentSchemaId",
              "type": "uint256"
            },
            {
              "internalType": "uint256",
              "name": "slot",
              "type": "uint256"
            },
            {
              "internalType": "uint256",
              "name": "value",
              "type": "uint256"
            },
            {
              "internalType": "uint256",
              "name": "stat",
              "type": "uint256"
            },
            {
              "internalType": "uint256",
              "name": "cost",
              "type": "uint256"
            },
            {
              "internalType": "uint256",
              "name": "supply",
              "type": "uint256"
            },
            {
              "internalType": "string",
              "name": "name",
              "type": "string"
            },
            {
              "internalType": "string",
              "name": "uri",
              "type": "string"
            }
          ],
          "indexed": false,
          "internalType": "struct BasicEquipmentSchema",
          "name": "_basicEQuipmentSchema",
          "type": "tuple"
        }
      ],
      "name": "BasicEquipmentSchemaCreated",
      "type": "event"
    },
    {
      "anonymous": false,
      "inputs": [
        {
          "indexed": true,
          "internalType": "uint256",
          "name": "_basicEquipmentSchemaId",
          "type": "uint256"
        },
        {
          "indexed": true,
          "internalType": "uint256",
          "name": "_value",
          "type": "uint256"
        },
        {
          "indexed": false,
          "internalType": "string",
          "name": "_uri",
          "type": "string"
        },
        {
          "components": [
            {
              "internalType": "uint256",
              "name": "basicEquipmentSchemaId",
              "type": "uint256"
            },
            {
              "internalType": "uint256",
              "name": "slot",
              "type": "uint256"
            },
            {
              "internalType": "uint256",
              "name": "value",
              "type": "uint256"
            },
            {
              "internalType": "uint256",
              "name": "stat",
              "type": "uint256"
            },
            {
              "internalType": "uint256",
              "name": "cost",
              "type": "uint256"
            },
            {
              "internalType": "uint256",
              "name": "supply",
              "type": "uint256"
            },
            {
              "internalType": "string",
              "name": "name",
              "type": "string"
            },
            {
              "internalType": "string",
              "name": "uri",
              "type": "string"
            }
          ],
          "indexed": false,
          "internalType": "struct BasicEquipmentSchema",
          "name": "_basicEQuipmentSchema",
          "type": "tuple"
        }
      ],
      "name": "BasicEquipmentSchemaUpdate",
      "type": "event"
    },
    {
      "anonymous": false,
      "inputs": [
        {
          "indexed": true,
          "internalType": "uint256",
          "name": "id",
          "type": "uint256"
        },
        {
          "components": [
            {
              "internalType": "uint256",
              "name": "advancedCraftId",
              "type": "uint256"
            },
            {
              "internalType": "uint256",
              "name": "slot",
              "type": "uint256"
            },
            {
              "internalType": "uint256",
              "name": "value",
              "type": "uint256"
            },
            {
              "internalType": "uint256",
              "name": "stat",
              "type": "uint256"
            },
            {
              "internalType": "uint256",
              "name": "amount",
              "type": "uint256"
            },
            {
              "internalType": "uint256",
              "name": "treasureSchemaId",
              "type": "uint256"
            },
            {
              "internalType": "string",
              "name": "oldName",
              "type": "string"
            },
            {
              "internalType": "string",
              "name": "newName",
              "type": "string"
            },
            {
              "internalType": "string",
              "name": "uri",
              "type": "string"
            }
          ],
          "indexed": false,
          "internalType": "struct AdvancedCraft",
          "name": "_advancedCraft",
          "type": "tuple"
        }
      ],
      "name": "CreateAdvancedCraft",
      "type": "event"
    },
    {
      "anonymous": false,
      "inputs": [
        {
          "indexed": true,
          "internalType": "uint256",
          "name": "id",
          "type": "uint256"
        },
        {
          "components": [
            {
              "internalType": "uint256",
              "name": "id",
              "type": "uint256"
            },
            {
              "internalType": "uint256",
              "name": "slot",
              "type": "uint256"
            },
            {
              "internalType": "uint256",
              "name": "value",
              "type": "uint256"
            },
            {
              "internalType": "uint256",
              "name": "cost",
              "type": "uint256"
            },
            {
              "internalType": "string",
              "name": "oldName",
              "type": "string"
            },
            {
              "internalType": "string",
              "name": "newName",
              "type": "string"
            },
            {
              "internalType": "string",
              "name": "uri",
              "type": "string"
            }
          ],
          "indexed": false,
          "internalType": "struct BasicCraft",
          "name": "_basicCraft",
          "type": "tuple"
        }
      ],
      "name": "CreateBasicCraft",
      "type": "event"
    },
    {
      "anonymous": false,
      "inputs": [
        {
          "indexed": true,
          "internalType": "uint256",
          "name": "_playerId",
          "type": "uint256"
        },
        {
          "indexed": false,
          "internalType": "uint256",
          "name": "_equipmentSchemaId",
          "type": "uint256"
        }
      ],
      "name": "PurchaseBasicEquipment",
      "type": "event"
    },
    {
      "inputs": [
        {
          "internalType": "uint256",
          "name": "_playerId",
          "type": "uint256"
        },
        {
          "internalType": "uint256",
          "name": "_advancedCraftId",
          "type": "uint256"
        },
        {
          "internalType": "uint256",
          "name": "_equipmentId",
          "type": "uint256"
        }
      ],
      "name": "advancedCraft",
      "outputs": [],
      "stateMutability": "nonpayable",
      "type": "function"
    },
    {
      "inputs": [
        {
          "internalType": "uint256",
          "name": "_playerId",
          "type": "uint256"
        },
        {
          "internalType": "uint256",
          "name": "_equipmentId",
          "type": "uint256"
        },
        {
          "internalType": "uint256",
          "name": "_craftId",
          "type": "uint256"
        }
      ],
      "name": "basicCraft",
      "outputs": [],
      "stateMutability": "nonpayable",
      "type": "function"
    },
    {
      "inputs": [
        {
          "internalType": "uint256",
          "name": "_treasureSchemaId",
          "type": "uint256"
        },
        {
          "internalType": "uint256",
          "name": "_slot",
          "type": "uint256"
        },
        {
          "internalType": "uint256",
          "name": "_value",
          "type": "uint256"
        },
        {
          "internalType": "uint256",
          "name": "_stat",
          "type": "uint256"
        },
        {
          "internalType": "uint256",
          "name": "_amount",
          "type": "uint256"
        },
        {
          "internalType": "string",
          "name": "_oldName",
          "type": "string"
        },
        {
          "internalType": "string",
          "name": "_newName",
          "type": "string"
        },
        {
          "internalType": "string",
          "name": "_uri",
          "type": "string"
        }
      ],
      "name": "createAdvancedCraft",
      "outputs": [],
      "stateMutability": "nonpayable",
      "type": "function"
    },
    {
      "inputs": [
        {
          "internalType": "uint256",
          "name": "_equipmenSchematId",
          "type": "uint256"
        },
        {
          "internalType": "uint256",
          "name": "_value",
          "type": "uint256"
        },
        {
          "internalType": "uint256",
          "name": "_cost",
          "type": "uint256"
        },
        {
          "internalType": "string",
          "name": "_newName",
          "type": "string"
        },
        {
          "internalType": "string",
          "name": "_uri",
          "type": "string"
        }
      ],
      "name": "createBasicCraft",
      "outputs": [],
      "stateMutability": "nonpayable",
      "type": "function"
    },
    {
      "inputs": [
        {
          "internalType": "uint256",
          "name": "_slot",
          "type": "uint256"
        },
        {
          "internalType": "uint256",
          "name": "_value",
          "type": "uint256"
        },
        {
          "internalType": "uint256",
          "name": "_stat",
          "type": "uint256"
        },
        {
          "internalType": "uint256",
          "name": "_cost",
          "type": "uint256"
        },
        {
          "internalType": "uint256",
          "name": "_supply",
          "type": "uint256"
        },
        {
          "internalType": "string",
          "name": "_name",
          "type": "string"
        },
        {
          "internalType": "string",
          "name": "_uri",
          "type": "string"
        }
      ],
      "name": "createBasicEquipment",
      "outputs": [],
      "stateMutability": "nonpayable",
      "type": "function"
    },
    {
      "inputs": [
        {
          "internalType": "uint256",
          "name": "_advancedCraftId",
          "type": "uint256"
        }
      ],
      "name": "getAdvancedCraft",
      "outputs": [
        {
          "components": [
            {
              "internalType": "uint256",
              "name": "advancedCraftId",
              "type": "uint256"
            },
            {
              "internalType": "uint256",
              "name": "slot",
              "type": "uint256"
            },
            {
              "internalType": "uint256",
              "name": "value",
              "type": "uint256"
            },
            {
              "internalType": "uint256",
              "name": "stat",
              "type": "uint256"
            },
            {
              "internalType": "uint256",
              "name": "amount",
              "type": "uint256"
            },
            {
              "internalType": "uint256",
              "name": "treasureSchemaId",
              "type": "uint256"
            },
            {
              "internalType": "string",
              "name": "oldName",
              "type": "string"
            },
            {
              "internalType": "string",
              "name": "newName",
              "type": "string"
            },
            {
              "internalType": "string",
              "name": "uri",
              "type": "string"
            }
          ],
          "internalType": "struct AdvancedCraft",
          "name": "",
          "type": "tuple"
        }
      ],
      "stateMutability": "view",
      "type": "function"
    },
    {
      "inputs": [],
      "name": "getAdvancedCraftCount",
      "outputs": [
        {
          "internalType": "uint256",
          "name": "",
          "type": "uint256"
        }
      ],
      "stateMutability": "view",
      "type": "function"
    },
    {
      "inputs": [
        {
          "internalType": "uint256",
          "name": "_basicCraftId",
          "type": "uint256"
        }
      ],
      "name": "getBasicCraft",
      "outputs": [
        {
          "components": [
            {
              "internalType": "uint256",
              "name": "id",
              "type": "uint256"
            },
            {
              "internalType": "uint256",
              "name": "slot",
              "type": "uint256"
            },
            {
              "internalType": "uint256",
              "name": "value",
              "type": "uint256"
            },
            {
              "internalType": "uint256",
              "name": "cost",
              "type": "uint256"
            },
            {
              "internalType": "string",
              "name": "oldName",
              "type": "string"
            },
            {
              "internalType": "string",
              "name": "newName",
              "type": "string"
            },
            {
              "internalType": "string",
              "name": "uri",
              "type": "string"
            }
          ],
          "internalType": "struct BasicCraft",
          "name": "",
          "type": "tuple"
        }
      ],
      "stateMutability": "view",
      "type": "function"
    },
    {
      "inputs": [],
      "name": "getBasicCraftCount",
      "outputs": [
        {
          "internalType": "uint256",
          "name": "",
          "type": "uint256"
        }
      ],
      "stateMutability": "view",
      "type": "function"
    },
    {
      "inputs": [],
      "name": "getBasicEquipmentCount",
      "outputs": [
        {
          "internalType": "uint256",
          "name": "",
          "type": "uint256"
        }
      ],
      "stateMutability": "view",
      "type": "function"
    },
    {
      "inputs": [
        {
          "internalType": "uint256",
          "name": "_basicEquipmentSchemaId",
          "type": "uint256"
        }
      ],
      "name": "getBasicEquipmentSchema",
      "outputs": [
        {
          "components": [
            {
              "internalType": "uint256",
              "name": "basicEquipmentSchemaId",
              "type": "uint256"
            },
            {
              "internalType": "uint256",
              "name": "slot",
              "type": "uint256"
            },
            {
              "internalType": "uint256",
              "name": "value",
              "type": "uint256"
            },
            {
              "internalType": "uint256",
              "name": "stat",
              "type": "uint256"
            },
            {
              "internalType": "uint256",
              "name": "cost",
              "type": "uint256"
            },
            {
              "internalType": "uint256",
              "name": "supply",
              "type": "uint256"
            },
            {
              "internalType": "string",
              "name": "name",
              "type": "string"
            },
            {
              "internalType": "string",
              "name": "uri",
              "type": "string"
            }
          ],
          "internalType": "struct BasicEquipmentSchema",
          "name": "",
          "type": "tuple"
        }
      ],
      "stateMutability": "view",
      "type": "function"
    },
    {
      "inputs": [
        {
          "internalType": "uint256",
          "name": "_basicEquipmentSchemaId",
          "type": "uint256"
        }
      ],
      "name": "getBasicEquipmentSupply",
      "outputs": [
        {
          "internalType": "uint256",
          "name": "",
          "type": "uint256"
        }
      ],
      "stateMutability": "view",
      "type": "function"
    },
    {
      "inputs": [
        {
          "internalType": "uint256",
          "name": "_equipmentId",
          "type": "uint256"
        }
      ],
      "name": "getEquipment",
      "outputs": [
        {
          "components": [
            {
              "internalType": "uint256",
              "name": "id",
              "type": "uint256"
            },
            {
              "internalType": "uint256",
              "name": "pointer",
              "type": "uint256"
            },
            {
              "internalType": "uint256",
              "name": "slot",
              "type": "uint256"
            },
            {
              "internalType": "uint256",
              "name": "rank",
              "type": "uint256"
            },
            {
              "internalType": "uint256",
              "name": "value",
              "type": "uint256"
            },
            {
              "internalType": "uint256",
              "name": "stat",
              "type": "uint256"
            },
            {
              "internalType": "uint256",
              "name": "owner",
              "type": "uint256"
            },
            {
              "internalType": "string",
              "name": "name",
              "type": "string"
            },
            {
              "internalType": "string",
              "name": "uri",
              "type": "string"
            },
            {
              "internalType": "bool",
              "name": "isEquiped",
              "type": "bool"
            }
          ],
          "internalType": "struct Equipment",
          "name": "",
          "type": "tuple"
        }
      ],
      "stateMutability": "view",
      "type": "function"
    },
    {
      "inputs": [
        {
          "internalType": "uint256",
          "name": "_playerId",
          "type": "uint256"
        }
      ],
      "name": "getPlayerToEquipment",
      "outputs": [
        {
          "internalType": "uint256[]",
          "name": "",
          "type": "uint256[]"
        }
      ],
      "stateMutability": "view",
      "type": "function"
    },
    {
      "inputs": [
        {
          "internalType": "uint256",
          "name": "_playerId",
          "type": "uint256"
        },
        {
          "internalType": "uint256",
          "name": "_equipmentSchemaId",
          "type": "uint256"
        }
      ],
      "name": "purchaseBasicEquipment",
      "outputs": [],
      "stateMutability": "nonpayable",
      "type": "function"
    },
    {
      "inputs": [
        {
          "internalType": "uint256",
          "name": "_basicEquipmentSchemaId",
          "type": "uint256"
        },
        {
          "internalType": "uint256",
          "name": "_slot",
          "type": "uint256"
        },
        {
          "internalType": "uint256",
          "name": "_value",
          "type": "uint256"
        },
        {
          "internalType": "uint256",
          "name": "_stat",
          "type": "uint256"
        },
        {
          "internalType": "uint256",
          "name": "_cost",
          "type": "uint256"
        },
        {
          "internalType": "string",
          "name": "_name",
          "type": "string"
        },
        {
          "internalType": "string",
          "name": "_uri",
          "type": "string"
        }
      ],
      "name": "updateBasicEquipmentScehma",
      "outputs": [],
      "stateMutability": "nonpayable",
      "type": "function"
    }
  ],
  "bytecode": "0x608060405234801561001057600080fd5b506134ce806100206000396000f3fe608060405234801561001057600080fd5b50600436106101005760003560e01c806387a1f77f11610097578063c653d4b211610066578063c653d4b2146102bf578063c87bf952146102db578063d216e986146102f7578063d6f138981461032757610100565b806387a1f77f1461022557806396f3e8f114610241578063b09441c014610271578063ba0615901461028f57610100565b806340235b3f116100d357806340235b3f1461018b5780634bf68ade146101a7578063799173c1146101d757806381dd2fa0146101f557610100565b806301ed879d1461010557806307a4cc231461012157806325a2bb661461013d5780632bb79ab11461015b575b600080fd5b61011f600480360381019061011a9190612431565b610343565b005b61013b60048036038101906101369190612431565b6103fd565b005b6101456104aa565b604051610152919061251a565b60405180910390f35b61017560048036038101906101709190612535565b6104b9565b60405161018291906126c3565b60405180910390f35b6101a560048036038101906101a091906126e5565b6104d1565b005b6101c160048036038101906101bc9190612535565b610517565b6040516101ce91906127cf565b60405180910390f35b6101df61052f565b6040516101ec919061251a565b60405180910390f35b61020f600480360381019061020a9190612535565b61053e565b60405161021c91906128ed565b60405180910390f35b61023f600480360381019061023a919061290f565b610556565b005b61025b60048036038101906102569190612535565b6105bd565b604051610268919061251a565b60405180910390f35b6102796105cf565b604051610286919061251a565b60405180910390f35b6102a960048036038101906102a49190612535565b6105de565b6040516102b69190612ac8565b60405180910390f35b6102d960048036038101906102d49190612aea565b6105f0565b005b6102f560048036038101906102f09190612b3d565b61063a565b005b610311600480360381019061030c9190612535565b61069b565b60405161031e9190612ca7565b60405180910390f35b610341600480360381019061033c9190612aea565b6106b3565b005b600073434d36f32abed3f7937fe0be88dc1b0eb938124490508073ffffffffffffffffffffffffffffffffffffffff163373ffffffffffffffffffffffffffffffffffffffff161461039457600080fd5b6103a3888888888888886106fd565b60006103ad6107ef565b905087817fdfd9f485fd2b67e4ed2b0d34a6c613b58fe6068fada00a72d599f0936d369dba856103dc8561069b565b6040516103ea929190612d13565b60405180910390a3505050505050505050565b600073434d36f32abed3f7937fe0be88dc1b0eb938124490508073ffffffffffffffffffffffffffffffffffffffff163373ffffffffffffffffffffffffffffffffffffffff161461044e57600080fd5b61045d88888888888888610807565b85887fdfd9f485fd2b67e4ed2b0d34a6c613b58fe6068fada00a72d599f0936d369dba8461048a8c61069b565b604051610498929190612d13565b60405180910390a35050505050505050565b60006104b46107ef565b905090565b6104c161217e565b6104ca826108dd565b9050919050565b6104db8282610b0c565b817fe7504f1059be7db1f858136933fb89f1e9996256b3beab064b8293dcc37086078260405161050b919061251a565b60405180910390a25050565b61051f6121ca565b61052882611085565b9050919050565b600061053961129f565b905090565b610546612207565b61054f826112b7565b9050919050565b6105668888888888888888611479565b60006105706105cf565b9050807fc14e5f65f74dbf8d4c707bd6500fb63dfb41f2c63bafb61e6798c3a048d4906c61059d836104b9565b6040516105aa91906126c3565b60405180910390a2505050505050505050565b60006105c882611589565b9050919050565b60006105d96115b4565b905090565b60606105e9826115cc565b9050919050565b6105fb838383611646565b827f63606c63b2453fc45fa811a363d771bb9678c4c5532d644090ebdbe07765546f828460405161062d929190612d4a565b60405180910390a2505050565b61064785858585856119c5565b600061065161052f565b9050807fe7ebf37154a7baecdaff82aaaf79c17b0e7ce8cd17c53835ffd29abbc8a833da61067e83610517565b60405161068b91906127cf565b60405180910390a2505050505050565b6106a361225c565b6106ac82611b68565b9050919050565b6106be838383611d05565b827f91dddbc82058117c5a605d41c7526e95c5b808e19e0a0d5e204cb74b592e98dc83836040516106f0929190612d4a565b60405180910390a2505050565b60006107076120ca565b905080600101600081548092919061071e90612da2565b9190505550604051806101000160405280826001015481526020018981526020018881526020018781526020018681526020018581526020018481526020018381525081600201600083600101548152602001908152602001600020600082015181600001556020820151816001015560408201518160020155606082015181600301556080820151816004015560a0820151816005015560c08201518160060190816107cb9190612ff6565b5060e08201518160070190816107e19190612ff6565b509050505050505050505050565b6000806107fa6120ca565b9050806001015491505090565b60006108116120ca565b9050868160020160008a815260200190815260200160002060010181905550858160020160008a815260200190815260200160002060020181905550848160020160008a815260200190815260200160002060030181905550838160020160008a815260200190815260200160002060040181905550828160020160008a815260200190815260200160002060060190816108ac9190612ff6565b50818160020160008a815260200190815260200160002060070190816108d29190612ff6565b505050505050505050565b6108e561217e565b60006108ef6120ca565b90508060090160008481526020019081526020016000206040518061012001604052908160008201548152602001600182015481526020016002820154815260200160038201548152602001600482015481526020016005820154815260200160068201805461095e90612e19565b80601f016020809104026020016040519081016040528092919081815260200182805461098a90612e19565b80156109d75780601f106109ac576101008083540402835291602001916109d7565b820191906000526020600020905b8154815290600101906020018083116109ba57829003601f168201915b505050505081526020016007820180546109f090612e19565b80601f0160208091040260200160405190810160405280929190818152602001828054610a1c90612e19565b8015610a695780601f10610a3e57610100808354040283529160200191610a69565b820191906000526020600020905b815481529060010190602001808311610a4c57829003601f168201915b50505050508152602001600882018054610a8290612e19565b80601f0160208091040260200160405190810160405280929190818152602001828054610aae90612e19565b8015610afb5780601f10610ad057610100808354040283529160200191610afb565b820191906000526020600020905b815481529060010190602001808311610ade57829003601f168201915b505050505081525050915050919050565b6000610b166120f7565b90506000610b226120ca565b90506000610b2e612124565b905060008360030160008781526020019081526020016000206002015414610b5557600080fd5b3373ffffffffffffffffffffffffffffffffffffffff1683600201600087815260200190815260200160002060009054906101000a900473ffffffffffffffffffffffffffffffffffffffff1673ffffffffffffffffffffffffffffffffffffffff1614610bc257600080fd5b816002016000858152602001908152602001600020600401548160010160003373ffffffffffffffffffffffffffffffffffffffff1673ffffffffffffffffffffffffffffffffffffffff168152602001908152602001600020541015610c2857600080fd5b816002016000858152602001908152602001600020600501548260030160008681526020019081526020016000205410610c6157600080fd5b816000016000815480929190610c7690612da2565b91905055508160030160008581526020019081526020016000206000815480929190610ca190612da2565b919050555060405180610140016040528083600001548152602001836007016000888152602001908152602001600020805490508152602001836002016000878152602001908152602001600020600101548152602001600181526020018360020160008781526020019081526020016000206002015481526020018360020160008781526020019081526020016000206003015481526020018681526020018360020160008781526020019081526020016000206006018054610d6490612e19565b80601f0160208091040260200160405190810160405280929190818152602001828054610d9090612e19565b8015610ddd5780601f10610db257610100808354040283529160200191610ddd565b820191906000526020600020905b815481529060010190602001808311610dc057829003601f168201915b505050505081526020018360020160008781526020019081526020016000206007018054610e0a90612e19565b80601f0160208091040260200160405190810160405280929190818152602001828054610e3690612e19565b8015610e835780601f10610e5857610100808354040283529160200191610e83565b820191906000526020600020905b815481529060010190602001808311610e6657829003601f168201915b505050505081526020016000151581525082600401600084600001548152602001908152602001600020600082015181600001556020820151816001015560408201518160020155606082015181600301556080820151816004015560a0820151816005015560c0820151816006015560e0820151816007019081610f089190612ff6565b50610100820151816008019081610f1f9190612ff6565b506101208201518160090160006101000a81548160ff02191690831515021790555090505081600701600086815260200190815260200160002082600001549080600181540180825580915050600190039060005260206000200160009091909190915055816002016000858152602001908152602001600020600401548160010160003373ffffffffffffffffffffffffffffffffffffffff1673ffffffffffffffffffffffffffffffffffffffff1681526020019081526020016000206000828254610fed91906130c8565b9250508190555060007308d8e680a2d295af8cbcd8b8e07f900275bc6b8d9050826002016000868152602001908152602001600020600401548260010160008373ffffffffffffffffffffffffffffffffffffffff1673ffffffffffffffffffffffffffffffffffffffff168152602001908152602001600020600082825461107691906130fc565b92505081905550505050505050565b61108d6121ca565b60006110976120ca565b90508060060160008481526020019081526020016000206040518060e0016040529081600082015481526020016001820154815260200160028201548152602001600382015481526020016004820180546110f190612e19565b80601f016020809104026020016040519081016040528092919081815260200182805461111d90612e19565b801561116a5780601f1061113f5761010080835404028352916020019161116a565b820191906000526020600020905b81548152906001019060200180831161114d57829003601f168201915b5050505050815260200160058201805461118390612e19565b80601f01602080910402602001604051908101604052809291908181526020018280546111af90612e19565b80156111fc5780601f106111d1576101008083540402835291602001916111fc565b820191906000526020600020905b8154815290600101906020018083116111df57829003601f168201915b5050505050815260200160068201805461121590612e19565b80601f016020809104026020016040519081016040528092919081815260200182805461124190612e19565b801561128e5780601f106112635761010080835404028352916020019161128e565b820191906000526020600020905b81548152906001019060200180831161127157829003601f168201915b505050505081525050915050919050565b6000806112aa6120ca565b9050806005015491505090565b6112bf612207565b60006112c96120ca565b9050806004016000848152602001908152602001600020604051806101400160405290816000820154815260200160018201548152602001600282015481526020016003820154815260200160048201548152602001600582015481526020016006820154815260200160078201805461134290612e19565b80601f016020809104026020016040519081016040528092919081815260200182805461136e90612e19565b80156113bb5780601f10611390576101008083540402835291602001916113bb565b820191906000526020600020905b81548152906001019060200180831161139e57829003601f168201915b505050505081526020016008820180546113d490612e19565b80601f016020809104026020016040519081016040528092919081815260200182805461140090612e19565b801561144d5780601f106114225761010080835404028352916020019161144d565b820191906000526020600020905b81548152906001019060200180831161143057829003601f168201915b505050505081526020016009820160009054906101000a900460ff161515151581525050915050919050565b60006114836120ca565b905080600801600081548092919061149a90612da2565b9190505550604051806101200160405280826008015481526020018981526020018881526020018781526020018681526020018a81526020018581526020018481526020018381525081600901600083600801548152602001908152602001600020600082015181600001556020820151816001015560408201518160020155606082015181600301556080820151816004015560a0820151816005015560c082015181600601908161154d9190612ff6565b5060e08201518160070190816115639190612ff6565b5061010082015181600801908161157a9190612ff6565b50905050505050505050505050565b6000806115946120ca565b905080600301600084815260200190815260200160002054915050919050565b6000806115bf6120ca565b9050806008015491505090565b606060006115d86120ca565b905080600701600084815260200190815260200160002080548060200260200160405190810160405280929190818152602001828054801561163957602002820191906000526020600020905b815481526020019060010190808311611625575b5050505050915050919050565b60006116506120f7565b9050600061165c6120ca565b90506000611668612151565b90506000836003016000888152602001908152602001600020600201541461168f57600080fd5b3373ffffffffffffffffffffffffffffffffffffffff1683600201600088815260200190815260200160002060009054906101000a900473ffffffffffffffffffffffffffffffffffffffff1673ffffffffffffffffffffffffffffffffffffffff1614611732576040517f08c379a00000000000000000000000000000000000000000000000000000000081526004016117299061317c565b60405180910390fd5b81600401600085815260200190815260200160002060090160009054906101000a900460ff1615611798576040517f08c379a000000000000000000000000000000000000000000000000000000000815260040161178f906131e8565b60405180910390fd5b6000826009016000878152602001908152602001600020905080600401548260020160008360050154815260200190815260200160002060008981526020019081526020016000205410156117ec57600080fd5b806006016040516020016118009190613296565b6040516020818303038152906040528051906020012083600401600087815260200190815260200160002060070160405160200161183e9190613296565b6040516020818303038152906040528051906020012014611894576040517f08c379a000000000000000000000000000000000000000000000000000000000815260040161188b906132f9565b60405180910390fd5b82600401600086815260200190815260200160002060030160008154809291906118bd90612da2565b919050555080600201548360040160008781526020019081526020016000206004018190555080600101548360040160008781526020019081526020016000206002018190555080600301548360040160008781526020019081526020016000206005018190555080600701836004016000878152602001908152602001600020600701908161194d9190613344565b508060080183600401600087815260200190815260200160002060080190816119769190613344565b50806004015482600201600083600501548152602001908152602001600020600089815260200190815260200160002060008282546119b591906130c8565b9250508190555050505050505050565b60006119cf6120ca565b90508060050160008154809291906119e690612da2565b91905055506040518060e00160405280826005015481526020018260020160008981526020019081526020016000206001015481526020018681526020018581526020018260020160008981526020019081526020016000206006018054611a4d90612e19565b80601f0160208091040260200160405190810160405280929190818152602001828054611a7990612e19565b8015611ac65780601f10611a9b57610100808354040283529160200191611ac6565b820191906000526020600020905b815481529060010190602001808311611aa957829003601f168201915b505050505081526020018481526020018381525081600601600083600501548152602001908152602001600020600082015181600001556020820151816001015560408201518160020155606082015181600301556080820151816004019081611b309190612ff6565b5060a0820151816005019081611b469190612ff6565b5060c0820151816006019081611b5c9190612ff6565b50905050505050505050565b611b7061225c565b6000611b7a6120ca565b905080600201600084815260200190815260200160002060405180610100016040529081600082015481526020016001820154815260200160028201548152602001600382015481526020016004820154815260200160058201548152602001600682018054611be990612e19565b80601f0160208091040260200160405190810160405280929190818152602001828054611c1590612e19565b8015611c625780601f10611c3757610100808354040283529160200191611c62565b820191906000526020600020905b815481529060010190602001808311611c4557829003601f168201915b50505050508152602001600782018054611c7b90612e19565b80601f0160208091040260200160405190810160405280929190818152602001828054611ca790612e19565b8015611cf45780601f10611cc957610100808354040283529160200191611cf4565b820191906000526020600020905b815481529060010190602001808311611cd757829003601f168201915b505050505081525050915050919050565b6000611d0f6120f7565b90506000611d1b6120ca565b90506000611d27612124565b905060008360030160008881526020019081526020016000206002015414611d4e57600080fd5b3373ffffffffffffffffffffffffffffffffffffffff1683600201600088815260200190815260200160002060009054906101000a900473ffffffffffffffffffffffffffffffffffffffff1673ffffffffffffffffffffffffffffffffffffffff1614611df1576040517f08c379a0000000000000000000000000000000000000000000000000000000008152600401611de89061317c565b60405180910390fd5b81600401600086815260200190815260200160002060090160009054906101000a900460ff1615611e57576040517f08c379a0000000000000000000000000000000000000000000000000000000008152600401611e4e906131e8565b60405180910390fd5b6000826006016000868152602001908152602001600020905080600301548260020160003373ffffffffffffffffffffffffffffffffffffffff1673ffffffffffffffffffffffffffffffffffffffff168152602001908152602001600020541015611ef8576040517f08c379a0000000000000000000000000000000000000000000000000000000008152600401611eef90613478565b60405180910390fd5b868360040160008881526020019081526020016000206006015414611f1c57600080fd5b80600401604051602001611f309190613296565b60405160208183030381529060405280519060200120836004016000888152602001908152602001600020600701604051602001611f6e9190613296565b6040516020818303038152906040528051906020012014611fc4576040517f08c379a0000000000000000000000000000000000000000000000000000000008152600401611fbb906132f9565b60405180910390fd5b80600301548260020160003373ffffffffffffffffffffffffffffffffffffffff1673ffffffffffffffffffffffffffffffffffffffff168152602001908152602001600020600082825461201991906130c8565b92505081905550826004016000878152602001908152602001600020600301600081548092919061204990612da2565b91905055508060020154836004016000888152602001908152602001600020600401819055508060050183600401600088815260200190815260200160002060070190816120979190613344565b508060060183600401600088815260200190815260200160002060080190816120c09190613344565b5050505050505050565b6000807faad0511195ddfb575f5187a7172ca6fc330f129a86291f15eaa5f7537ab038dc90508091505090565b6000807f3cab9a070a0c61cd0ae9d9e9e2c0781e5ca8691bec4087e5a4701d5ac018dd4e90508091505090565b6000807f2c89d74504b6ad8d4fbde22bc3474166bac5452a11195897f239d8bebe02d70790508091505090565b6000807fb5dbbc334907f600e1151190a68c4043043163a23a907389a2c6f6231ed4318b90508091505090565b6040518061012001604052806000815260200160008152602001600081526020016000815260200160008152602001600081526020016060815260200160608152602001606081525090565b6040518060e00160405280600081526020016000815260200160008152602001600081526020016060815260200160608152602001606081525090565b6040518061014001604052806000815260200160008152602001600081526020016000815260200160008152602001600081526020016000815260200160608152602001606081526020016000151581525090565b60405180610100016040528060008152602001600081526020016000815260200160008152602001600081526020016000815260200160608152602001606081525090565b6000604051905090565b600080fd5b600080fd5b6000819050919050565b6122c8816122b5565b81146122d357600080fd5b50565b6000813590506122e5816122bf565b92915050565b600080fd5b600080fd5b6000601f19601f8301169050919050565b7f4e487b7100000000000000000000000000000000000000000000000000000000600052604160045260246000fd5b61233e826122f5565b810181811067ffffffffffffffff8211171561235d5761235c612306565b5b80604052505050565b60006123706122a1565b905061237c8282612335565b919050565b600067ffffffffffffffff82111561239c5761239b612306565b5b6123a5826122f5565b9050602081019050919050565b82818337600083830152505050565b60006123d46123cf84612381565b612366565b9050828152602081018484840111156123f0576123ef6122f0565b5b6123fb8482856123b2565b509392505050565b600082601f830112612418576124176122eb565b5b81356124288482602086016123c1565b91505092915050565b600080600080600080600060e0888a0312156124505761244f6122ab565b5b600061245e8a828b016122d6565b975050602061246f8a828b016122d6565b96505060406124808a828b016122d6565b95505060606124918a828b016122d6565b94505060806124a28a828b016122d6565b93505060a088013567ffffffffffffffff8111156124c3576124c26122b0565b5b6124cf8a828b01612403565b92505060c088013567ffffffffffffffff8111156124f0576124ef6122b0565b5b6124fc8a828b01612403565b91505092959891949750929550565b612514816122b5565b82525050565b600060208201905061252f600083018461250b565b92915050565b60006020828403121561254b5761254a6122ab565b5b6000612559848285016122d6565b91505092915050565b61256b816122b5565b82525050565b600081519050919050565b600082825260208201905092915050565b60005b838110156125ab578082015181840152602081019050612590565b60008484015250505050565b60006125c282612571565b6125cc818561257c565b93506125dc81856020860161258d565b6125e5816122f5565b840191505092915050565b6000610120830160008301516126096000860182612562565b50602083015161261c6020860182612562565b50604083015161262f6040860182612562565b5060608301516126426060860182612562565b5060808301516126556080860182612562565b5060a083015161266860a0860182612562565b5060c083015184820360c086015261268082826125b7565b91505060e083015184820360e086015261269a82826125b7565b9150506101008301518482036101008601526126b682826125b7565b9150508091505092915050565b600060208201905081810360008301526126dd81846125f0565b905092915050565b600080604083850312156126fc576126fb6122ab565b5b600061270a858286016122d6565b925050602061271b858286016122d6565b9150509250929050565b600060e08301600083015161273d6000860182612562565b5060208301516127506020860182612562565b5060408301516127636040860182612562565b5060608301516127766060860182612562565b506080830151848203608086015261278e82826125b7565b91505060a083015184820360a08601526127a882826125b7565b91505060c083015184820360c08601526127c282826125b7565b9150508091505092915050565b600060208201905081810360008301526127e98184612725565b905092915050565b60008115159050919050565b612806816127f1565b82525050565b6000610140830160008301516128256000860182612562565b5060208301516128386020860182612562565b50604083015161284b6040860182612562565b50606083015161285e6060860182612562565b5060808301516128716080860182612562565b5060a083015161288460a0860182612562565b5060c083015161289760c0860182612562565b5060e083015184820360e08601526128af82826125b7565b9150506101008301518482036101008601526128cb82826125b7565b9150506101208301516128e26101208601826127fd565b508091505092915050565b60006020820190508181036000830152612907818461280c565b905092915050565b600080600080600080600080610100898b0312156129305761292f6122ab565b5b600061293e8b828c016122d6565b985050602061294f8b828c016122d6565b97505060406129608b828c016122d6565b96505060606129718b828c016122d6565b95505060806129828b828c016122d6565b94505060a089013567ffffffffffffffff8111156129a3576129a26122b0565b5b6129af8b828c01612403565b93505060c089013567ffffffffffffffff8111156129d0576129cf6122b0565b5b6129dc8b828c01612403565b92505060e089013567ffffffffffffffff8111156129fd576129fc6122b0565b5b612a098b828c01612403565b9150509295985092959890939650565b600081519050919050565b600082825260208201905092915050565b6000819050602082019050919050565b6000612a518383612562565b60208301905092915050565b6000602082019050919050565b6000612a7582612a19565b612a7f8185612a24565b9350612a8a83612a35565b8060005b83811015612abb578151612aa28882612a45565b9750612aad83612a5d565b925050600181019050612a8e565b5085935050505092915050565b60006020820190508181036000830152612ae28184612a6a565b905092915050565b600080600060608486031215612b0357612b026122ab565b5b6000612b11868287016122d6565b9350506020612b22868287016122d6565b9250506040612b33868287016122d6565b9150509250925092565b600080600080600060a08688031215612b5957612b586122ab565b5b6000612b67888289016122d6565b9550506020612b78888289016122d6565b9450506040612b89888289016122d6565b935050606086013567ffffffffffffffff811115612baa57612ba96122b0565b5b612bb688828901612403565b925050608086013567ffffffffffffffff811115612bd757612bd66122b0565b5b612be388828901612403565b9150509295509295909350565b600061010083016000830151612c096000860182612562565b506020830151612c1c6020860182612562565b506040830151612c2f6040860182612562565b506060830151612c426060860182612562565b506080830151612c556080860182612562565b5060a0830151612c6860a0860182612562565b5060c083015184820360c0860152612c8082826125b7565b91505060e083015184820360e0860152612c9a82826125b7565b9150508091505092915050565b60006020820190508181036000830152612cc18184612bf0565b905092915050565b600082825260208201905092915050565b6000612ce582612571565b612cef8185612cc9565b9350612cff81856020860161258d565b612d08816122f5565b840191505092915050565b60006040820190508181036000830152612d2d8185612cda565b90508181036020830152612d418184612bf0565b90509392505050565b6000604082019050612d5f600083018561250b565b612d6c602083018461250b565b9392505050565b7f4e487b7100000000000000000000000000000000000000000000000000000000600052601160045260246000fd5b6000612dad826122b5565b91507fffffffffffffffffffffffffffffffffffffffffffffffffffffffffffffffff8203612ddf57612dde612d73565b5b600182019050919050565b7f4e487b7100000000000000000000000000000000000000000000000000000000600052602260045260246000fd5b60006002820490506001821680612e3157607f821691505b602082108103612e4457612e43612dea565b5b50919050565b60008190508160005260206000209050919050565b60006020601f8301049050919050565b600082821b905092915050565b600060088302612eac7fffffffffffffffffffffffffffffffffffffffffffffffffffffffffffffffff82612e6f565b612eb68683612e6f565b95508019841693508086168417925050509392505050565b6000819050919050565b6000612ef3612eee612ee9846122b5565b612ece565b6122b5565b9050919050565b6000819050919050565b612f0d83612ed8565b612f21612f1982612efa565b848454612e7c565b825550505050565b600090565b612f36612f29565b612f41818484612f04565b505050565b5b81811015612f6557612f5a600082612f2e565b600181019050612f47565b5050565b601f821115612faa57612f7b81612e4a565b612f8484612e5f565b81016020851015612f93578190505b612fa7612f9f85612e5f565b830182612f46565b50505b505050565b600082821c905092915050565b6000612fcd60001984600802612faf565b1980831691505092915050565b6000612fe68383612fbc565b9150826002028217905092915050565b612fff82612571565b67ffffffffffffffff81111561301857613017612306565b5b6130228254612e19565b61302d828285612f69565b600060209050601f831160018114613060576000841561304e578287015190505b6130588582612fda565b8655506130c0565b601f19841661306e86612e4a565b60005b8281101561309657848901518255600182019150602085019450602081019050613071565b868310156130b357848901516130af601f891682612fbc565b8355505b6001600288020188555050505b505050505050565b60006130d3826122b5565b91506130de836122b5565b92508282039050818111156130f6576130f5612d73565b5b92915050565b6000613107826122b5565b9150613112836122b5565b925082820190508082111561312a57613129612d73565b5b92915050565b7f796f7520646f206e6f74206f776e207468697320706c61796572000000000000600082015250565b6000613166601a83612cc9565b915061317182613130565b602082019050919050565b6000602082019050818103600083015261319581613159565b9050919050565b7f6d757374206e6f74206265206571756970706564000000000000000000000000600082015250565b60006131d2601483612cc9565b91506131dd8261319c565b602082019050919050565b60006020820190508181036000830152613201816131c5565b9050919050565b600081905092915050565b6000815461322081612e19565b61322a8186613208565b94506001821660008114613245576001811461325a5761328d565b60ff198316865281151582028601935061328d565b61326385612e4a565b60005b8381101561328557815481890152600182019150602081019050613266565b838801955050505b50505092915050565b60006132a28284613213565b915081905092915050565b7f6e6f74207468652073616d652065717569706d656e74206e616d650000000000600082015250565b60006132e3601b83612cc9565b91506132ee826132ad565b602082019050919050565b60006020820190508181036000830152613312816132d6565b9050919050565b60008154905061332881612e19565b9050919050565b60008190508160005260206000209050919050565b81810361335257505061342a565b61335b82613319565b67ffffffffffffffff81111561337457613373612306565b5b61337e8254612e19565b613389828285612f69565b6000601f8311600181146133b857600084156133a6578287015490505b6133b08582612fda565b865550613423565b601f1984166133c68761332f565b96506133d186612e4a565b60005b828110156133f9578489015482556001820191506001850194506020810190506133d4565b868310156134165784890154613412601f891682612fbc565b8355505b6001600288020188555050505b5050505050505b565b7f6e656564206d6f72652067656d00000000000000000000000000000000000000600082015250565b6000613462600d83612cc9565b915061346d8261342c565b602082019050919050565b6000602082019050818103600083015261349181613455565b905091905056fea26469706673582212202c3c7202d0301fa8f4c7829b0a6d02a9c60cefc1120c1f878ca57ce4807fd3f664736f6c63430008120033",
  "linkReferences": {},
  "deployedLinkReferences": {}
}