{
  "_format": "hh-sol-artifact-1",
  "contractName": "CraftFacet",
  "sourceName": "contracts/facets/CraftFacet.sol",
  "abi": [
    {
      "anonymous": false,
      "inputs": [
        {
          "indexed": true,
          "internalType": "uint256",
          "name": "_playerId",
          "type": "uint256"
        },
        {
          "indexed": false,
          "internalType": "uint256",
          "name": "_equipmentId",
          "type": "uint256"
        },
        {
          "indexed": false,
          "internalType": "uint256",
          "name": "_advancedCraftId",
          "type": "uint256"
        },
        {
          "indexed": false,
          "internalType": "uint256",
          "name": "_treasureId",
          "type": "uint256"
        }
      ],
      "name": "AdvancedCraftEvent",
      "type": "event"
    },
    {
      "anonymous": false,
      "inputs": [
        {
          "indexed": true,
          "internalType": "uint256",
          "name": "_playerId",
          "type": "uint256"
        },
        {
          "indexed": false,
          "internalType": "uint256",
          "name": "_equipmentId",
          "type": "uint256"
        },
        {
          "indexed": false,
          "internalType": "uint256",
          "name": "_craftId",
          "type": "uint256"
        }
      ],
      "name": "BasicCraftEvent",
      "type": "event"
    },
    {
      "anonymous": false,
      "inputs": [
        {
          "indexed": true,
          "internalType": "uint256",
          "name": "_basicEquipmentSchemaId",
          "type": "uint256"
        },
        {
          "indexed": true,
          "internalType": "uint256",
          "name": "_value",
          "type": "uint256"
        },
        {
          "indexed": false,
          "internalType": "string",
          "name": "_uri",
          "type": "string"
        },
        {
          "components": [
            {
              "internalType": "uint256",
              "name": "basicEquipmentSchemaId",
              "type": "uint256"
            },
            {
              "internalType": "uint256",
              "name": "slot",
              "type": "uint256"
            },
            {
              "internalType": "uint256",
              "name": "value",
              "type": "uint256"
            },
            {
              "internalType": "uint256",
              "name": "stat",
              "type": "uint256"
            },
            {
              "internalType": "uint256",
              "name": "cost",
              "type": "uint256"
            },
            {
              "internalType": "string",
              "name": "name",
              "type": "string"
            },
            {
              "internalType": "string",
              "name": "uri",
              "type": "string"
            }
          ],
          "indexed": false,
          "internalType": "struct BasicEquipmentSchema",
          "name": "_basicEQuipmentSchema",
          "type": "tuple"
        }
      ],
      "name": "BasicEquipmentSchemaCreated",
      "type": "event"
    },
    {
      "anonymous": false,
      "inputs": [
        {
          "indexed": true,
          "internalType": "uint256",
          "name": "_basicEquipmentSchemaId",
          "type": "uint256"
        },
        {
          "indexed": true,
          "internalType": "uint256",
          "name": "_value",
          "type": "uint256"
        },
        {
          "indexed": false,
          "internalType": "string",
          "name": "_uri",
          "type": "string"
        },
        {
          "components": [
            {
              "internalType": "uint256",
              "name": "basicEquipmentSchemaId",
              "type": "uint256"
            },
            {
              "internalType": "uint256",
              "name": "slot",
              "type": "uint256"
            },
            {
              "internalType": "uint256",
              "name": "value",
              "type": "uint256"
            },
            {
              "internalType": "uint256",
              "name": "stat",
              "type": "uint256"
            },
            {
              "internalType": "uint256",
              "name": "cost",
              "type": "uint256"
            },
            {
              "internalType": "string",
              "name": "name",
              "type": "string"
            },
            {
              "internalType": "string",
              "name": "uri",
              "type": "string"
            }
          ],
          "indexed": false,
          "internalType": "struct BasicEquipmentSchema",
          "name": "_basicEQuipmentSchema",
          "type": "tuple"
        }
      ],
      "name": "BasicEquipmentSchemaUpdate",
      "type": "event"
    },
    {
      "anonymous": false,
      "inputs": [
        {
          "indexed": true,
          "internalType": "uint256",
          "name": "id",
          "type": "uint256"
        },
        {
          "components": [
            {
              "internalType": "uint256",
              "name": "advancedCraftId",
              "type": "uint256"
            },
            {
              "internalType": "uint256",
              "name": "slot",
              "type": "uint256"
            },
            {
              "internalType": "uint256",
              "name": "value",
              "type": "uint256"
            },
            {
              "internalType": "uint256",
              "name": "stat",
              "type": "uint256"
            },
            {
              "internalType": "uint256",
              "name": "treasureSchemaId",
              "type": "uint256"
            },
            {
              "internalType": "string",
              "name": "oldName",
              "type": "string"
            },
            {
              "internalType": "string",
              "name": "newName",
              "type": "string"
            },
            {
              "internalType": "string",
              "name": "uri",
              "type": "string"
            }
          ],
          "indexed": false,
          "internalType": "struct AdvancedCraft",
          "name": "_advancedCraft",
          "type": "tuple"
        }
      ],
      "name": "CreateAdvancedCraft",
      "type": "event"
    },
    {
      "anonymous": false,
      "inputs": [
        {
          "indexed": true,
          "internalType": "uint256",
          "name": "id",
          "type": "uint256"
        },
        {
          "components": [
            {
              "internalType": "uint256",
              "name": "id",
              "type": "uint256"
            },
            {
              "internalType": "uint256",
              "name": "slot",
              "type": "uint256"
            },
            {
              "internalType": "uint256",
              "name": "value",
              "type": "uint256"
            },
            {
              "internalType": "uint256",
              "name": "cost",
              "type": "uint256"
            },
            {
              "internalType": "string",
              "name": "oldName",
              "type": "string"
            },
            {
              "internalType": "string",
              "name": "newName",
              "type": "string"
            },
            {
              "internalType": "string",
              "name": "uri",
              "type": "string"
            }
          ],
          "indexed": false,
          "internalType": "struct BasicCraft",
          "name": "_basicCraft",
          "type": "tuple"
        }
      ],
      "name": "CreateBasicCraft",
      "type": "event"
    },
    {
      "anonymous": false,
      "inputs": [
        {
          "indexed": true,
          "internalType": "uint256",
          "name": "_playerId",
          "type": "uint256"
        },
        {
          "indexed": false,
          "internalType": "uint256",
          "name": "_equipmentSchemaId",
          "type": "uint256"
        }
      ],
      "name": "PurchaseBasicEquipment",
      "type": "event"
    },
    {
      "inputs": [
        {
          "internalType": "uint256",
          "name": "_playerId",
          "type": "uint256"
        },
        {
          "internalType": "uint256",
          "name": "_advancedCraftId",
          "type": "uint256"
        },
        {
          "internalType": "uint256",
          "name": "_equipmentId",
          "type": "uint256"
        },
        {
          "internalType": "uint256",
          "name": "_treasureId",
          "type": "uint256"
        }
      ],
      "name": "advancedCraft",
      "outputs": [],
      "stateMutability": "nonpayable",
      "type": "function"
    },
    {
      "inputs": [
        {
          "internalType": "uint256",
          "name": "_playerId",
          "type": "uint256"
        },
        {
          "internalType": "uint256",
          "name": "_equipmentId",
          "type": "uint256"
        },
        {
          "internalType": "uint256",
          "name": "_craftId",
          "type": "uint256"
        }
      ],
      "name": "basicCraft",
      "outputs": [],
      "stateMutability": "nonpayable",
      "type": "function"
    },
    {
      "inputs": [
        {
          "internalType": "uint256",
          "name": "_treasureSchemaId",
          "type": "uint256"
        },
        {
          "internalType": "uint256",
          "name": "_slot",
          "type": "uint256"
        },
        {
          "internalType": "uint256",
          "name": "_value",
          "type": "uint256"
        },
        {
          "internalType": "uint256",
          "name": "_stat",
          "type": "uint256"
        },
        {
          "internalType": "string",
          "name": "_oldName",
          "type": "string"
        },
        {
          "internalType": "string",
          "name": "_newName",
          "type": "string"
        },
        {
          "internalType": "string",
          "name": "_uri",
          "type": "string"
        }
      ],
      "name": "createAdvancedCraft",
      "outputs": [],
      "stateMutability": "nonpayable",
      "type": "function"
    },
    {
      "inputs": [
        {
          "internalType": "uint256",
          "name": "_equipmenSchematId",
          "type": "uint256"
        },
        {
          "internalType": "uint256",
          "name": "_value",
          "type": "uint256"
        },
        {
          "internalType": "uint256",
          "name": "_cost",
          "type": "uint256"
        },
        {
          "internalType": "string",
          "name": "_newName",
          "type": "string"
        },
        {
          "internalType": "string",
          "name": "_uri",
          "type": "string"
        }
      ],
      "name": "createBasicCraft",
      "outputs": [],
      "stateMutability": "nonpayable",
      "type": "function"
    },
    {
      "inputs": [
        {
          "internalType": "uint256",
          "name": "_slot",
          "type": "uint256"
        },
        {
          "internalType": "uint256",
          "name": "_value",
          "type": "uint256"
        },
        {
          "internalType": "uint256",
          "name": "_stat",
          "type": "uint256"
        },
        {
          "internalType": "uint256",
          "name": "_cost",
          "type": "uint256"
        },
        {
          "internalType": "string",
          "name": "_name",
          "type": "string"
        },
        {
          "internalType": "string",
          "name": "_uri",
          "type": "string"
        }
      ],
      "name": "createBasicEquipment",
      "outputs": [],
      "stateMutability": "nonpayable",
      "type": "function"
    },
    {
      "inputs": [
        {
          "internalType": "uint256",
          "name": "_advancedCraftId",
          "type": "uint256"
        }
      ],
      "name": "getAdvancedCraft",
      "outputs": [
        {
          "components": [
            {
              "internalType": "uint256",
              "name": "advancedCraftId",
              "type": "uint256"
            },
            {
              "internalType": "uint256",
              "name": "slot",
              "type": "uint256"
            },
            {
              "internalType": "uint256",
              "name": "value",
              "type": "uint256"
            },
            {
              "internalType": "uint256",
              "name": "stat",
              "type": "uint256"
            },
            {
              "internalType": "uint256",
              "name": "treasureSchemaId",
              "type": "uint256"
            },
            {
              "internalType": "string",
              "name": "oldName",
              "type": "string"
            },
            {
              "internalType": "string",
              "name": "newName",
              "type": "string"
            },
            {
              "internalType": "string",
              "name": "uri",
              "type": "string"
            }
          ],
          "internalType": "struct AdvancedCraft",
          "name": "",
          "type": "tuple"
        }
      ],
      "stateMutability": "view",
      "type": "function"
    },
    {
      "inputs": [],
      "name": "getAdvancedCraftCount",
      "outputs": [
        {
          "internalType": "uint256",
          "name": "",
          "type": "uint256"
        }
      ],
      "stateMutability": "view",
      "type": "function"
    },
    {
      "inputs": [
        {
          "internalType": "uint256",
          "name": "_basicCraftId",
          "type": "uint256"
        }
      ],
      "name": "getBasicCraft",
      "outputs": [
        {
          "components": [
            {
              "internalType": "uint256",
              "name": "id",
              "type": "uint256"
            },
            {
              "internalType": "uint256",
              "name": "slot",
              "type": "uint256"
            },
            {
              "internalType": "uint256",
              "name": "value",
              "type": "uint256"
            },
            {
              "internalType": "uint256",
              "name": "cost",
              "type": "uint256"
            },
            {
              "internalType": "string",
              "name": "oldName",
              "type": "string"
            },
            {
              "internalType": "string",
              "name": "newName",
              "type": "string"
            },
            {
              "internalType": "string",
              "name": "uri",
              "type": "string"
            }
          ],
          "internalType": "struct BasicCraft",
          "name": "",
          "type": "tuple"
        }
      ],
      "stateMutability": "view",
      "type": "function"
    },
    {
      "inputs": [],
      "name": "getBasicCraftCount",
      "outputs": [
        {
          "internalType": "uint256",
          "name": "",
          "type": "uint256"
        }
      ],
      "stateMutability": "view",
      "type": "function"
    },
    {
      "inputs": [],
      "name": "getBasicEquipmentCount",
      "outputs": [
        {
          "internalType": "uint256",
          "name": "",
          "type": "uint256"
        }
      ],
      "stateMutability": "view",
      "type": "function"
    },
    {
      "inputs": [
        {
          "internalType": "uint256",
          "name": "_basicEquipmentSchemaId",
          "type": "uint256"
        }
      ],
      "name": "getBasicEquipmentSchema",
      "outputs": [
        {
          "components": [
            {
              "internalType": "uint256",
              "name": "basicEquipmentSchemaId",
              "type": "uint256"
            },
            {
              "internalType": "uint256",
              "name": "slot",
              "type": "uint256"
            },
            {
              "internalType": "uint256",
              "name": "value",
              "type": "uint256"
            },
            {
              "internalType": "uint256",
              "name": "stat",
              "type": "uint256"
            },
            {
              "internalType": "uint256",
              "name": "cost",
              "type": "uint256"
            },
            {
              "internalType": "string",
              "name": "name",
              "type": "string"
            },
            {
              "internalType": "string",
              "name": "uri",
              "type": "string"
            }
          ],
          "internalType": "struct BasicEquipmentSchema",
          "name": "",
          "type": "tuple"
        }
      ],
      "stateMutability": "view",
      "type": "function"
    },
    {
      "inputs": [
        {
          "internalType": "uint256",
          "name": "_equipmentId",
          "type": "uint256"
        }
      ],
      "name": "getEquipment",
      "outputs": [
        {
          "components": [
            {
              "internalType": "uint256",
              "name": "id",
              "type": "uint256"
            },
            {
              "internalType": "uint256",
              "name": "pointer",
              "type": "uint256"
            },
            {
              "internalType": "uint256",
              "name": "slot",
              "type": "uint256"
            },
            {
              "internalType": "uint256",
              "name": "rank",
              "type": "uint256"
            },
            {
              "internalType": "uint256",
              "name": "value",
              "type": "uint256"
            },
            {
              "internalType": "uint256",
              "name": "stat",
              "type": "uint256"
            },
            {
              "internalType": "uint256",
              "name": "owner",
              "type": "uint256"
            },
            {
              "internalType": "string",
              "name": "name",
              "type": "string"
            },
            {
              "internalType": "string",
              "name": "uri",
              "type": "string"
            },
            {
              "internalType": "bool",
              "name": "isEquiped",
              "type": "bool"
            }
          ],
          "internalType": "struct Equipment",
          "name": "",
          "type": "tuple"
        }
      ],
      "stateMutability": "view",
      "type": "function"
    },
    {
      "inputs": [
        {
          "internalType": "uint256",
          "name": "_playerId",
          "type": "uint256"
        }
      ],
      "name": "getPlayerToEquipment",
      "outputs": [
        {
          "internalType": "uint256[]",
          "name": "",
          "type": "uint256[]"
        }
      ],
      "stateMutability": "view",
      "type": "function"
    },
    {
      "inputs": [
        {
          "internalType": "uint256",
          "name": "_playerId",
          "type": "uint256"
        },
        {
          "internalType": "uint256",
          "name": "_equipmentSchemaId",
          "type": "uint256"
        }
      ],
      "name": "purchaseBasicEquipment",
      "outputs": [],
      "stateMutability": "nonpayable",
      "type": "function"
    },
    {
      "inputs": [
        {
          "internalType": "uint256",
          "name": "_basicEquipmentSchemaId",
          "type": "uint256"
        },
        {
          "internalType": "uint256",
          "name": "_slot",
          "type": "uint256"
        },
        {
          "internalType": "uint256",
          "name": "_value",
          "type": "uint256"
        },
        {
          "internalType": "uint256",
          "name": "_stat",
          "type": "uint256"
        },
        {
          "internalType": "uint256",
          "name": "_cost",
          "type": "uint256"
        },
        {
          "internalType": "string",
          "name": "_name",
          "type": "string"
        },
        {
          "internalType": "string",
          "name": "_uri",
          "type": "string"
        }
      ],
      "name": "updateBasicEquipmentScehma",
      "outputs": [],
      "stateMutability": "nonpayable",
      "type": "function"
    }
  ],
  "bytecode": "0x608060405234801561001057600080fd5b50613581806100206000396000f3fe608060405234801561001057600080fd5b50600436106100f55760003560e01c8063b09441c011610097578063d216e98611610066578063d216e98614610284578063d3b4a1eb146102b4578063d6f13898146102d0578063fa8285b5146102ec576100f5565b8063b09441c0146101fe578063ba0615901461021c578063c49dd1881461024c578063c87bf95214610268576100f5565b806340235b3f116100d357806340235b3f146101645780634bf68ade14610180578063799173c1146101b057806381dd2fa0146101ce576100f5565b806307a4cc23146100fa57806325a2bb66146101165780632bb79ab114610134575b600080fd5b610114600480360381019061010f9190612394565b610308565b005b61011e6103b5565b60405161012b919061247d565b60405180910390f35b61014e60048036038101906101499190612498565b6103c4565b60405161015b9190612611565b60405180910390f35b61017e60048036038101906101799190612633565b6103dc565b005b61019a60048036038101906101959190612498565b610422565b6040516101a7919061271d565b60405180910390f35b6101b861043a565b6040516101c5919061247d565b60405180910390f35b6101e860048036038101906101e39190612498565b610449565b6040516101f5919061283b565b60405180910390f35b610206610461565b604051610213919061247d565b60405180910390f35b61023660048036038101906102319190612498565b610470565b604051610243919061290c565b60405180910390f35b6102666004803603810190610261919061292e565b610482565b005b610282600480360381019061027d91906129f3565b61053a565b005b61029e60048036038101906102999190612498565b61059b565b6040516102ab9190612b49565b60405180910390f35b6102ce60048036038101906102c99190612b6b565b6105b3565b005b6102ea60048036038101906102e59190612bd2565b610600565b005b61030660048036038101906103019190612c25565b61064a565b005b600073434d36f32abed3f7937fe0be88dc1b0eb938124490508073ffffffffffffffffffffffffffffffffffffffff163373ffffffffffffffffffffffffffffffffffffffff161461035957600080fd5b610368888888888888886106af565b85887f8a178ab5b62361fa794647e8b4c0bc01a5448c063921eb7a1a83116205e74be5846103958c61059b565b6040516103a3929190612d65565b60405180910390a35050505050505050565b60006103bf610785565b905090565b6103cc6120f0565b6103d58261079d565b9050919050565b6103e682826109c2565b817fe7504f1059be7db1f858136933fb89f1e9996256b3beab064b8293dcc370860782604051610416919061247d565b60405180910390a25050565b61042a612135565b61043382610e4d565b9050919050565b6000610444611067565b905090565b610451612172565b61045a8261107f565b9050919050565b600061046b611241565b905090565b606061047b82611259565b9050919050565b600073434d36f32abed3f7937fe0be88dc1b0eb938124490508073ffffffffffffffffffffffffffffffffffffffff163373ffffffffffffffffffffffffffffffffffffffff16146104d357600080fd5b6104e18787878787876112d3565b60006104eb610785565b905086817f8a178ab5b62361fa794647e8b4c0bc01a5448c063921eb7a1a83116205e74be58561051a8561059b565b604051610528929190612d65565b60405180910390a35050505050505050565b61054785858585856113b3565b600061055161043a565b9050807fe7ebf37154a7baecdaff82aaaf79c17b0e7ce8cd17c53835ffd29abbc8a833da61057e83610422565b60405161058b919061271d565b60405180910390a2505050505050565b6105a36121c7565b6105ac82611556565b9050919050565b6105be8484846116e8565b837f84218958a00495fe298b5cc34035c3650f6567d9fe0199d902332f7bd6b312788385846040516105f293929190612d9c565b60405180910390a250505050565b61060b838383611a41565b827f91dddbc82058117c5a605d41c7526e95c5b808e19e0a0d5e204cb74b592e98dc838360405161063d929190612dd3565b60405180910390a2505050565b61065987878787878787611e06565b6000610663610461565b9050807fe0dba30483c5bafd92b5b273ff82d3cb8ba8ae555891542aee70c7b5d271b99f610690836103c4565b60405161069d9190612611565b60405180910390a25050505050505050565b60006106b9611f04565b9050868160020160008a815260200190815260200160002060010181905550858160020160008a815260200190815260200160002060020181905550848160020160008a815260200190815260200160002060030181905550838160020160008a815260200190815260200160002060040181905550828160020160008a815260200190815260200160002060050190816107549190613008565b50818160020160008a8152602001908152602001600020600601908161077a9190613008565b505050505050505050565b600080610790611f04565b9050806001015491505090565b6107a56120f0565b60006107af611f04565b905080600801600084815260200190815260200160002060405180610100016040529081600082015481526020016001820154815260200160028201548152602001600382015481526020016004820154815260200160058201805461081490612e2b565b80601f016020809104026020016040519081016040528092919081815260200182805461084090612e2b565b801561088d5780601f106108625761010080835404028352916020019161088d565b820191906000526020600020905b81548152906001019060200180831161087057829003601f168201915b505050505081526020016006820180546108a690612e2b565b80601f01602080910402602001604051908101604052809291908181526020018280546108d290612e2b565b801561091f5780601f106108f45761010080835404028352916020019161091f565b820191906000526020600020905b81548152906001019060200180831161090257829003601f168201915b5050505050815260200160078201805461093890612e2b565b80601f016020809104026020016040519081016040528092919081815260200182805461096490612e2b565b80156109b15780601f10610986576101008083540402835291602001916109b1565b820191906000526020600020905b81548152906001019060200180831161099457829003601f168201915b505050505081525050915050919050565b60006109cc611f31565b905060006109d8611f04565b905060006109e4611f5e565b905060008360030160008781526020019081526020016000206002015414610a0b57600080fd5b3373ffffffffffffffffffffffffffffffffffffffff1683600201600087815260200190815260200160002060009054906101000a900473ffffffffffffffffffffffffffffffffffffffff1673ffffffffffffffffffffffffffffffffffffffff1614610a7857600080fd5b816002016000858152602001908152602001600020600401548160000160003373ffffffffffffffffffffffffffffffffffffffff1673ffffffffffffffffffffffffffffffffffffffff168152602001908152602001600020541015610ade57600080fd5b816000016000815480929190610af390613109565b919050555060405180610140016040528083600001548152602001836006016000888152602001908152602001600020805490508152602001836002016000878152602001908152602001600020600101548152602001600181526020018360020160008781526020019081526020016000206002015481526020018360020160008781526020019081526020016000206003015481526020018681526020018360020160008781526020019081526020016000206005018054610bb690612e2b565b80601f0160208091040260200160405190810160405280929190818152602001828054610be290612e2b565b8015610c2f5780601f10610c0457610100808354040283529160200191610c2f565b820191906000526020600020905b815481529060010190602001808311610c1257829003601f168201915b505050505081526020018360020160008781526020019081526020016000206006018054610c5c90612e2b565b80601f0160208091040260200160405190810160405280929190818152602001828054610c8890612e2b565b8015610cd55780601f10610caa57610100808354040283529160200191610cd5565b820191906000526020600020905b815481529060010190602001808311610cb857829003601f168201915b505050505081526020016000151581525082600301600084600001548152602001908152602001600020600082015181600001556020820151816001015560408201518160020155606082015181600301556080820151816004015560a0820151816005015560c0820151816006015560e0820151816007019081610d5a9190613008565b50610100820151816008019081610d719190613008565b506101208201518160090160006101000a81548160ff02191690831515021790555090505081600601600086815260200190815260200160002082600001549080600181540180825580915050600190039060005260206000200160009091909190915055816002016000858152602001908152602001600020600401548160000160003373ffffffffffffffffffffffffffffffffffffffff1673ffffffffffffffffffffffffffffffffffffffff1681526020019081526020016000206000828254610e3f9190613151565b925050819055505050505050565b610e55612135565b6000610e5f611f04565b90508060050160008481526020019081526020016000206040518060e001604052908160008201548152602001600182015481526020016002820154815260200160038201548152602001600482018054610eb990612e2b565b80601f0160208091040260200160405190810160405280929190818152602001828054610ee590612e2b565b8015610f325780601f10610f0757610100808354040283529160200191610f32565b820191906000526020600020905b815481529060010190602001808311610f1557829003601f168201915b50505050508152602001600582018054610f4b90612e2b565b80601f0160208091040260200160405190810160405280929190818152602001828054610f7790612e2b565b8015610fc45780601f10610f9957610100808354040283529160200191610fc4565b820191906000526020600020905b815481529060010190602001808311610fa757829003601f168201915b50505050508152602001600682018054610fdd90612e2b565b80601f016020809104026020016040519081016040528092919081815260200182805461100990612e2b565b80156110565780601f1061102b57610100808354040283529160200191611056565b820191906000526020600020905b81548152906001019060200180831161103957829003601f168201915b505050505081525050915050919050565b600080611072611f04565b9050806004015491505090565b611087612172565b6000611091611f04565b9050806003016000848152602001908152602001600020604051806101400160405290816000820154815260200160018201548152602001600282015481526020016003820154815260200160048201548152602001600582015481526020016006820154815260200160078201805461110a90612e2b565b80601f016020809104026020016040519081016040528092919081815260200182805461113690612e2b565b80156111835780601f1061115857610100808354040283529160200191611183565b820191906000526020600020905b81548152906001019060200180831161116657829003601f168201915b5050505050815260200160088201805461119c90612e2b565b80601f01602080910402602001604051908101604052809291908181526020018280546111c890612e2b565b80156112155780601f106111ea57610100808354040283529160200191611215565b820191906000526020600020905b8154815290600101906020018083116111f857829003601f168201915b505050505081526020016009820160009054906101000a900460ff161515151581525050915050919050565b60008061124c611f04565b9050806007015491505090565b60606000611265611f04565b90508060060160008481526020019081526020016000208054806020026020016040519081016040528092919081815260200182805480156112c657602002820191906000526020600020905b8154815260200190600101908083116112b2575b5050505050915050919050565b60006112dd611f04565b90508060010160008154809291906112f490613109565b91905055506040518060e00160405280826001015481526020018881526020018781526020018681526020018581526020018481526020018381525081600201600083600101548152602001908152602001600020600082015181600001556020820151816001015560408201518160020155606082015181600301556080820151816004015560a08201518160050190816113909190613008565b5060c08201518160060190816113a69190613008565b5090505050505050505050565b60006113bd611f04565b90508060040160008154809291906113d490613109565b91905055506040518060e0016040528082600401548152602001826002016000898152602001908152602001600020600101548152602001868152602001858152602001826002016000898152602001908152602001600020600501805461143b90612e2b565b80601f016020809104026020016040519081016040528092919081815260200182805461146790612e2b565b80156114b45780601f10611489576101008083540402835291602001916114b4565b820191906000526020600020905b81548152906001019060200180831161149757829003601f168201915b50505050508152602001848152602001838152508160050160008360040154815260200190815260200160002060008201518160000155602082015181600101556040820151816002015560608201518160030155608082015181600401908161151e9190613008565b5060a08201518160050190816115349190613008565b5060c082015181600601908161154a9190613008565b50905050505050505050565b61155e6121c7565b6000611568611f04565b90508060020160008481526020019081526020016000206040518060e001604052908160008201548152602001600182015481526020016002820154815260200160038201548152602001600482015481526020016005820180546115cc90612e2b565b80601f01602080910402602001604051908101604052809291908181526020018280546115f890612e2b565b80156116455780601f1061161a57610100808354040283529160200191611645565b820191906000526020600020905b81548152906001019060200180831161162857829003601f168201915b5050505050815260200160068201805461165e90612e2b565b80601f016020809104026020016040519081016040528092919081815260200182805461168a90612e2b565b80156116d75780601f106116ac576101008083540402835291602001916116d7565b820191906000526020600020905b8154815290600101906020018083116116ba57829003601f168201915b505050505081525050915050919050565b60006116f2611f31565b905060006116fe611f04565b9050600061170a611f8b565b90506000836003016000888152602001908152602001600020600201541461173157600080fd5b3373ffffffffffffffffffffffffffffffffffffffff1683600201600088815260200190815260200160002060009054906101000a900473ffffffffffffffffffffffffffffffffffffffff1673ffffffffffffffffffffffffffffffffffffffff16146117d4576040517f08c379a00000000000000000000000000000000000000000000000000000000081526004016117cb906131d1565b60405180910390fd5b81600301600085815260200190815260200160002060090160009054906101000a900460ff161561183a576040517f08c379a00000000000000000000000000000000000000000000000000000000081526004016118319061323d565b60405180910390fd5b60008260080160008781526020019081526020016000209050600182600301600083600401548152602001908152602001600020600089815260200190815260200160002054101561188b57600080fd5b806004015481600401541461189f57600080fd5b806005016040516020016118b391906132eb565b604051602081830303815290604052805190602001208360030160008781526020019081526020016000206007016040516020016118f191906132eb565b6040516020818303038152906040528051906020012014611947576040517f08c379a000000000000000000000000000000000000000000000000000000000815260040161193e9061334e565b60405180910390fd5b826003016000868152602001908152602001600020600301600081548092919061197090613109565b9190505550806002015483600301600087815260200190815260200160002060040181905550806001015483600301600087815260200190815260200160002060020181905550806003015483600301600087815260200190815260200160002060050181905550806006018360030160008781526020019081526020016000206007019081611a009190613399565b50806007018360030160008781526020019081526020016000206008019081611a299190613399565b50611a38878260040154611fb8565b50505050505050565b6000611a4b611f31565b90506000611a57611f04565b90506000611a63611f5e565b905060008360030160008881526020019081526020016000206002015414611a8a57600080fd5b3373ffffffffffffffffffffffffffffffffffffffff1683600201600088815260200190815260200160002060009054906101000a900473ffffffffffffffffffffffffffffffffffffffff1673ffffffffffffffffffffffffffffffffffffffff1614611b2d576040517f08c379a0000000000000000000000000000000000000000000000000000000008152600401611b24906131d1565b60405180910390fd5b81600301600086815260200190815260200160002060090160009054906101000a900460ff1615611b93576040517f08c379a0000000000000000000000000000000000000000000000000000000008152600401611b8a9061323d565b60405180910390fd5b6000826005016000868152602001908152602001600020905080600301548260010160003373ffffffffffffffffffffffffffffffffffffffff1673ffffffffffffffffffffffffffffffffffffffff168152602001908152602001600020541015611c34576040517f08c379a0000000000000000000000000000000000000000000000000000000008152600401611c2b906134cd565b60405180910390fd5b868360030160008881526020019081526020016000206006015414611c5857600080fd5b80600401604051602001611c6c91906132eb565b60405160208183030381529060405280519060200120836003016000888152602001908152602001600020600701604051602001611caa91906132eb565b6040516020818303038152906040528051906020012014611d00576040517f08c379a0000000000000000000000000000000000000000000000000000000008152600401611cf79061334e565b60405180910390fd5b80600301548260010160003373ffffffffffffffffffffffffffffffffffffffff1673ffffffffffffffffffffffffffffffffffffffff1681526020019081526020016000206000828254611d559190613151565b925050819055508260030160008781526020019081526020016000206003016000815480929190611d8590613109565b9190505550806002015483600301600088815260200190815260200160002060040181905550806005018360030160008881526020019081526020016000206007019081611dd39190613399565b50806006018360030160008881526020019081526020016000206008019081611dfc9190613399565b5050505050505050565b6000611e10611f04565b9050806007016000815480929190611e2790613109565b9190505550604051806101000160405280826007015481526020018881526020018781526020018681526020018981526020018581526020018481526020018381525081600801600083600701548152602001908152602001600020600082015181600001556020820151816001015560408201518160020155606082015181600301556080820151816004015560a0820151816005019081611eca9190613008565b5060c0820151816006019081611ee09190613008565b5060e0820151816007019081611ef69190613008565b509050505050505050505050565b6000807faad0511195ddfb575f5187a7172ca6fc330f129a86291f15eaa5f7537ab038dc90508091505090565b6000807f3cab9a070a0c61cd0ae9d9e9e2c0781e5ca8691bec4087e5a4701d5ac018dd4e90508091505090565b6000807f2c89d74504b6ad8d4fbde22bc3474166bac5452a11195897f239d8bebe02d70790508091505090565b6000807fb5dbbc334907f600e1151190a68c4043043163a23a907389a2c6f6231ed4318b90508091505090565b6000611fc26120c3565b9050828160040160008481526020019081526020016000206002015414611fe857600080fd5b6000816004016000848152602001908152602001600020600401549050600060018360050160008781526020019081526020016000208054905061202c9190613151565b9050808360050160008781526020019081526020016000208381548110612056576120556134ed565b5b906000526020600020018190555081836004016000838152602001908152602001600020600401819055508260050160008681526020019081526020016000208054806120a6576120a561351c565b5b600190038181906000526020600020016000905590555050505050565b6000807fb5dbbc334907f600e1151190a68c4043043163a23a907389a2c6f6231ed4318b90508091505090565b60405180610100016040528060008152602001600081526020016000815260200160008152602001600081526020016060815260200160608152602001606081525090565b6040518060e00160405280600081526020016000815260200160008152602001600081526020016060815260200160608152602001606081525090565b6040518061014001604052806000815260200160008152602001600081526020016000815260200160008152602001600081526020016000815260200160608152602001606081526020016000151581525090565b6040518060e00160405280600081526020016000815260200160008152602001600081526020016000815260200160608152602001606081525090565b6000604051905090565b600080fd5b600080fd5b6000819050919050565b61222b81612218565b811461223657600080fd5b50565b60008135905061224881612222565b92915050565b600080fd5b600080fd5b6000601f19601f8301169050919050565b7f4e487b7100000000000000000000000000000000000000000000000000000000600052604160045260246000fd5b6122a182612258565b810181811067ffffffffffffffff821117156122c0576122bf612269565b5b80604052505050565b60006122d3612204565b90506122df8282612298565b919050565b600067ffffffffffffffff8211156122ff576122fe612269565b5b61230882612258565b9050602081019050919050565b82818337600083830152505050565b6000612337612332846122e4565b6122c9565b90508281526020810184848401111561235357612352612253565b5b61235e848285612315565b509392505050565b600082601f83011261237b5761237a61224e565b5b813561238b848260208601612324565b91505092915050565b600080600080600080600060e0888a0312156123b3576123b261220e565b5b60006123c18a828b01612239565b97505060206123d28a828b01612239565b96505060406123e38a828b01612239565b95505060606123f48a828b01612239565b94505060806124058a828b01612239565b93505060a088013567ffffffffffffffff81111561242657612425612213565b5b6124328a828b01612366565b92505060c088013567ffffffffffffffff81111561245357612452612213565b5b61245f8a828b01612366565b91505092959891949750929550565b61247781612218565b82525050565b6000602082019050612492600083018461246e565b92915050565b6000602082840312156124ae576124ad61220e565b5b60006124bc84828501612239565b91505092915050565b6124ce81612218565b82525050565b600081519050919050565b600082825260208201905092915050565b60005b8381101561250e5780820151818401526020810190506124f3565b60008484015250505050565b6000612525826124d4565b61252f81856124df565b935061253f8185602086016124f0565b61254881612258565b840191505092915050565b60006101008301600083015161256c60008601826124c5565b50602083015161257f60208601826124c5565b50604083015161259260408601826124c5565b5060608301516125a560608601826124c5565b5060808301516125b860808601826124c5565b5060a083015184820360a08601526125d0828261251a565b91505060c083015184820360c08601526125ea828261251a565b91505060e083015184820360e0860152612604828261251a565b9150508091505092915050565b6000602082019050818103600083015261262b8184612553565b905092915050565b6000806040838503121561264a5761264961220e565b5b600061265885828601612239565b925050602061266985828601612239565b9150509250929050565b600060e08301600083015161268b60008601826124c5565b50602083015161269e60208601826124c5565b5060408301516126b160408601826124c5565b5060608301516126c460608601826124c5565b50608083015184820360808601526126dc828261251a565b91505060a083015184820360a08601526126f6828261251a565b91505060c083015184820360c0860152612710828261251a565b9150508091505092915050565b600060208201905081810360008301526127378184612673565b905092915050565b60008115159050919050565b6127548161273f565b82525050565b60006101408301600083015161277360008601826124c5565b50602083015161278660208601826124c5565b50604083015161279960408601826124c5565b5060608301516127ac60608601826124c5565b5060808301516127bf60808601826124c5565b5060a08301516127d260a08601826124c5565b5060c08301516127e560c08601826124c5565b5060e083015184820360e08601526127fd828261251a565b915050610100830151848203610100860152612819828261251a565b91505061012083015161283061012086018261274b565b508091505092915050565b60006020820190508181036000830152612855818461275a565b905092915050565b600081519050919050565b600082825260208201905092915050565b6000819050602082019050919050565b600061289583836124c5565b60208301905092915050565b6000602082019050919050565b60006128b98261285d565b6128c38185612868565b93506128ce83612879565b8060005b838110156128ff5781516128e68882612889565b97506128f1836128a1565b9250506001810190506128d2565b5085935050505092915050565b6000602082019050818103600083015261292681846128ae565b905092915050565b60008060008060008060c0878903121561294b5761294a61220e565b5b600061295989828a01612239565b965050602061296a89828a01612239565b955050604061297b89828a01612239565b945050606061298c89828a01612239565b935050608087013567ffffffffffffffff8111156129ad576129ac612213565b5b6129b989828a01612366565b92505060a087013567ffffffffffffffff8111156129da576129d9612213565b5b6129e689828a01612366565b9150509295509295509295565b600080600080600060a08688031215612a0f57612a0e61220e565b5b6000612a1d88828901612239565b9550506020612a2e88828901612239565b9450506040612a3f88828901612239565b935050606086013567ffffffffffffffff811115612a6057612a5f612213565b5b612a6c88828901612366565b925050608086013567ffffffffffffffff811115612a8d57612a8c612213565b5b612a9988828901612366565b9150509295509295909350565b600060e083016000830151612abe60008601826124c5565b506020830151612ad160208601826124c5565b506040830151612ae460408601826124c5565b506060830151612af760608601826124c5565b506080830151612b0a60808601826124c5565b5060a083015184820360a0860152612b22828261251a565b91505060c083015184820360c0860152612b3c828261251a565b9150508091505092915050565b60006020820190508181036000830152612b638184612aa6565b905092915050565b60008060008060808587031215612b8557612b8461220e565b5b6000612b9387828801612239565b9450506020612ba487828801612239565b9350506040612bb587828801612239565b9250506060612bc687828801612239565b91505092959194509250565b600080600060608486031215612beb57612bea61220e565b5b6000612bf986828701612239565b9350506020612c0a86828701612239565b9250506040612c1b86828701612239565b9150509250925092565b600080600080600080600060e0888a031215612c4457612c4361220e565b5b6000612c528a828b01612239565b9750506020612c638a828b01612239565b9650506040612c748a828b01612239565b9550506060612c858a828b01612239565b945050608088013567ffffffffffffffff811115612ca657612ca5612213565b5b612cb28a828b01612366565b93505060a088013567ffffffffffffffff811115612cd357612cd2612213565b5b612cdf8a828b01612366565b92505060c088013567ffffffffffffffff811115612d0057612cff612213565b5b612d0c8a828b01612366565b91505092959891949750929550565b600082825260208201905092915050565b6000612d37826124d4565b612d418185612d1b565b9350612d518185602086016124f0565b612d5a81612258565b840191505092915050565b60006040820190508181036000830152612d7f8185612d2c565b90508181036020830152612d938184612aa6565b90509392505050565b6000606082019050612db1600083018661246e565b612dbe602083018561246e565b612dcb604083018461246e565b949350505050565b6000604082019050612de8600083018561246e565b612df5602083018461246e565b9392505050565b7f4e487b7100000000000000000000000000000000000000000000000000000000600052602260045260246000fd5b60006002820490506001821680612e4357607f821691505b602082108103612e5657612e55612dfc565b5b50919050565b60008190508160005260206000209050919050565b60006020601f8301049050919050565b600082821b905092915050565b600060088302612ebe7fffffffffffffffffffffffffffffffffffffffffffffffffffffffffffffffff82612e81565b612ec88683612e81565b95508019841693508086168417925050509392505050565b6000819050919050565b6000612f05612f00612efb84612218565b612ee0565b612218565b9050919050565b6000819050919050565b612f1f83612eea565b612f33612f2b82612f0c565b848454612e8e565b825550505050565b600090565b612f48612f3b565b612f53818484612f16565b505050565b5b81811015612f7757612f6c600082612f40565b600181019050612f59565b5050565b601f821115612fbc57612f8d81612e5c565b612f9684612e71565b81016020851015612fa5578190505b612fb9612fb185612e71565b830182612f58565b50505b505050565b600082821c905092915050565b6000612fdf60001984600802612fc1565b1980831691505092915050565b6000612ff88383612fce565b9150826002028217905092915050565b613011826124d4565b67ffffffffffffffff81111561302a57613029612269565b5b6130348254612e2b565b61303f828285612f7b565b600060209050601f8311600181146130725760008415613060578287015190505b61306a8582612fec565b8655506130d2565b601f19841661308086612e5c565b60005b828110156130a857848901518255600182019150602085019450602081019050613083565b868310156130c557848901516130c1601f891682612fce565b8355505b6001600288020188555050505b505050505050565b7f4e487b7100000000000000000000000000000000000000000000000000000000600052601160045260246000fd5b600061311482612218565b91507fffffffffffffffffffffffffffffffffffffffffffffffffffffffffffffffff8203613146576131456130da565b5b600182019050919050565b600061315c82612218565b915061316783612218565b925082820390508181111561317f5761317e6130da565b5b92915050565b7f796f7520646f206e6f74206f776e207468697320706c61796572000000000000600082015250565b60006131bb601a83612d1b565b91506131c682613185565b602082019050919050565b600060208201905081810360008301526131ea816131ae565b9050919050565b7f6d757374206e6f74206265206571756970706564000000000000000000000000600082015250565b6000613227601483612d1b565b9150613232826131f1565b602082019050919050565b600060208201905081810360008301526132568161321a565b9050919050565b600081905092915050565b6000815461327581612e2b565b61327f818661325d565b9450600182166000811461329a57600181146132af576132e2565b60ff19831686528115158202860193506132e2565b6132b885612e5c565b60005b838110156132da578154818901526001820191506020810190506132bb565b838801955050505b50505092915050565b60006132f78284613268565b915081905092915050565b7f6e6f74207468652073616d652065717569706d656e74206e616d650000000000600082015250565b6000613338601b83612d1b565b915061334382613302565b602082019050919050565b600060208201905081810360008301526133678161332b565b9050919050565b60008154905061337d81612e2b565b9050919050565b60008190508160005260206000209050919050565b8181036133a757505061347f565b6133b08261336e565b67ffffffffffffffff8111156133c9576133c8612269565b5b6133d38254612e2b565b6133de828285612f7b565b6000601f83116001811461340d57600084156133fb578287015490505b6134058582612fec565b865550613478565b601f19841661341b87613384565b965061342686612e5c565b60005b8281101561344e57848901548255600182019150600185019450602081019050613429565b8683101561346b5784890154613467601f891682612fce565b8355505b6001600288020188555050505b5050505050505b565b7f6e656564206d6f72652067656d00000000000000000000000000000000000000600082015250565b60006134b7600d83612d1b565b91506134c282613481565b602082019050919050565b600060208201905081810360008301526134e6816134aa565b9050919050565b7f4e487b7100000000000000000000000000000000000000000000000000000000600052603260045260246000fd5b7f4e487b7100000000000000000000000000000000000000000000000000000000600052603160045260246000fdfea26469706673582212203a9dea0f9e64513bdb8cc0a97f2c4209b45ce62f9871255bb25032f306e2916a64736f6c63430008120033",
  "linkReferences": {},
  "deployedLinkReferences": {}
}