{
  "_format": "hh-sol-artifact-1",
  "contractName": "CraftFacet",
  "sourceName": "contracts/facets/CraftFacet.sol",
  "abi": [
    {
      "anonymous": false,
      "inputs": [
        {
          "indexed": true,
          "internalType": "address",
          "name": "_owner",
          "type": "address"
        },
        {
          "indexed": false,
          "internalType": "uint256",
          "name": "_player",
          "type": "uint256"
        }
      ],
      "name": "ItemCrafted",
      "type": "event"
    },
    {
      "inputs": [
        {
          "internalType": "uint256",
          "name": "_tokenId",
          "type": "uint256"
        },
        {
          "internalType": "string",
          "name": "_uri",
          "type": "string"
        }
      ],
      "name": "craftSword",
      "outputs": [],
      "stateMutability": "nonpayable",
      "type": "function"
    }
  ],
  "bytecode": "0x608060405234801561001057600080fd5b50610a3a806100206000396000f3fe608060405234801561001057600080fd5b506004361061002b5760003560e01c8063805693d514610030575b600080fd5b61004a600480360381019061004591906105ea565b61004c565b005b61005682826100a8565b3373ffffffffffffffffffffffffffffffffffffffff167fc23786d6f50f67fc05910a7c0e08cf6ad642ec7b6ec9f701ab0b1d9c479474e78360405161009c9190610655565b60405180910390a25050565b60006100b26103d3565b905060006100be610400565b905060006100ca61042d565b9050600083600301600087815260200190815260200160002060020154146100f157600080fd5b3373ffffffffffffffffffffffffffffffffffffffff1683600201600087815260200190815260200160002060009054906101000a900473ffffffffffffffffffffffffffffffffffffffff1673ffffffffffffffffffffffffffffffffffffffff161461015e57600080fd5b60058160000160003373ffffffffffffffffffffffffffffffffffffffff1673ffffffffffffffffffffffffffffffffffffffff1681526020019081526020016000205410156101ad57600080fd5b60058160000160003373ffffffffffffffffffffffffffffffffffffffff1673ffffffffffffffffffffffffffffffffffffffff16815260200190815260200160002060008282546101ff919061069f565b9250508190555081600001600081548092919061021b906106d3565b919050555084826001016000846000015481526020019081526020016000208190555060405180610140016040528083600001548152602001836003016000888152602001908152602001600020805490508152602001600281526020016001815260200160018152602001600081526020018681526020016040518060400160405280600581526020017f53776f726400000000000000000000000000000000000000000000000000000081525081526020018581526020016000151581525082600201600084600001548152602001908152602001600020600082015181600001556020820151816001015560408201518160020155606082015181600301556080820151816004015560a0820151816005015560c0820151816006015560e08201518160070190816103509190610932565b506101008201518160080190816103679190610932565b506101208201518160090160006101000a81548160ff021916908315150217905550905050816003016000868152602001908152602001600020826000015490806001815401808255809150506001900390600052602060002001600090919091909150555050505050565b6000807f3cab9a070a0c61cd0ae9d9e9e2c0781e5ca8691bec4087e5a4701d5ac018dd4e90508091505090565b6000807faad0511195ddfb575f5187a7172ca6fc330f129a86291f15eaa5f7537ab038dc90508091505090565b6000807f2c89d74504b6ad8d4fbde22bc3474166bac5452a11195897f239d8bebe02d70790508091505090565b6000604051905090565b600080fd5b600080fd5b6000819050919050565b6104818161046e565b811461048c57600080fd5b50565b60008135905061049e81610478565b92915050565b600080fd5b600080fd5b6000601f19601f8301169050919050565b7f4e487b7100000000000000000000000000000000000000000000000000000000600052604160045260246000fd5b6104f7826104ae565b810181811067ffffffffffffffff82111715610516576105156104bf565b5b80604052505050565b600061052961045a565b905061053582826104ee565b919050565b600067ffffffffffffffff821115610555576105546104bf565b5b61055e826104ae565b9050602081019050919050565b82818337600083830152505050565b600061058d6105888461053a565b61051f565b9050828152602081018484840111156105a9576105a86104a9565b5b6105b484828561056b565b509392505050565b600082601f8301126105d1576105d06104a4565b5b81356105e184826020860161057a565b91505092915050565b6000806040838503121561060157610600610464565b5b600061060f8582860161048f565b925050602083013567ffffffffffffffff8111156106305761062f610469565b5b61063c858286016105bc565b9150509250929050565b61064f8161046e565b82525050565b600060208201905061066a6000830184610646565b92915050565b7f4e487b7100000000000000000000000000000000000000000000000000000000600052601160045260246000fd5b60006106aa8261046e565b91506106b58361046e565b92508282039050818111156106cd576106cc610670565b5b92915050565b60006106de8261046e565b91507fffffffffffffffffffffffffffffffffffffffffffffffffffffffffffffffff82036107105761070f610670565b5b600182019050919050565b600081519050919050565b7f4e487b7100000000000000000000000000000000000000000000000000000000600052602260045260246000fd5b6000600282049050600182168061076d57607f821691505b6020821081036107805761077f610726565b5b50919050565b60008190508160005260206000209050919050565b60006020601f8301049050919050565b600082821b905092915050565b6000600883026107e87fffffffffffffffffffffffffffffffffffffffffffffffffffffffffffffffff826107ab565b6107f286836107ab565b95508019841693508086168417925050509392505050565b6000819050919050565b600061082f61082a6108258461046e565b61080a565b61046e565b9050919050565b6000819050919050565b61084983610814565b61085d61085582610836565b8484546107b8565b825550505050565b600090565b610872610865565b61087d818484610840565b505050565b5b818110156108a15761089660008261086a565b600181019050610883565b5050565b601f8211156108e6576108b781610786565b6108c08461079b565b810160208510156108cf578190505b6108e36108db8561079b565b830182610882565b50505b505050565b600082821c905092915050565b6000610909600019846008026108eb565b1980831691505092915050565b600061092283836108f8565b9150826002028217905092915050565b61093b8261071b565b67ffffffffffffffff811115610954576109536104bf565b5b61095e8254610755565b6109698282856108a5565b600060209050601f83116001811461099c576000841561098a578287015190505b6109948582610916565b8655506109fc565b601f1984166109aa86610786565b60005b828110156109d2578489015182556001820191506020850194506020810190506109ad565b868310156109ef57848901516109eb601f8916826108f8565b8355505b6001600288020188555050505b50505050505056fea264697066735822122032d823c9f5a6e09b8e1a066e10b11c2cbb104f6e8779f26254e55156185cecbf64736f6c63430008110033",
  "linkReferences": {},
  "deployedLinkReferences": {}
}