{
  "_format": "hh-sol-artifact-1",
  "contractName": "TrainFacet",
  "sourceName": "contracts/facets/TrainFacet.sol",
  "abi": [
    {
      "anonymous": false,
      "inputs": [
        {
          "indexed": true,
          "internalType": "address",
          "name": "_playerAddress",
          "type": "address"
        },
        {
          "indexed": true,
          "internalType": "uint256",
          "name": "_id",
          "type": "uint256"
        }
      ],
      "name": "BeginTrainingBasicHealth",
      "type": "event"
    },
    {
      "anonymous": false,
      "inputs": [
        {
          "indexed": true,
          "internalType": "address",
          "name": "_playerAddress",
          "type": "address"
        },
        {
          "indexed": true,
          "internalType": "uint256",
          "name": "_id",
          "type": "uint256"
        }
      ],
      "name": "BeginTrainingMana",
      "type": "event"
    },
    {
      "anonymous": false,
      "inputs": [
        {
          "indexed": true,
          "internalType": "address",
          "name": "_playerAddress",
          "type": "address"
        },
        {
          "indexed": true,
          "internalType": "uint256",
          "name": "_id",
          "type": "uint256"
        }
      ],
      "name": "EndTrainingBasicHealth",
      "type": "event"
    },
    {
      "anonymous": false,
      "inputs": [
        {
          "indexed": true,
          "internalType": "address",
          "name": "_playerAddress",
          "type": "address"
        },
        {
          "indexed": true,
          "internalType": "uint256",
          "name": "_id",
          "type": "uint256"
        }
      ],
      "name": "EndTrainingMana",
      "type": "event"
    },
    {
      "inputs": [
        {
          "internalType": "uint256",
          "name": "_playerId",
          "type": "uint256"
        }
      ],
      "name": "endTrainingBasicHealth",
      "outputs": [],
      "stateMutability": "nonpayable",
      "type": "function"
    },
    {
      "inputs": [
        {
          "internalType": "uint256",
          "name": "_tokenId",
          "type": "uint256"
        }
      ],
      "name": "endTrainingMana",
      "outputs": [],
      "stateMutability": "nonpayable",
      "type": "function"
    },
    {
      "inputs": [
        {
          "internalType": "uint256",
          "name": "_playerId",
          "type": "uint256"
        }
      ],
      "name": "getHealthStart",
      "outputs": [
        {
          "internalType": "uint256",
          "name": "",
          "type": "uint256"
        }
      ],
      "stateMutability": "view",
      "type": "function"
    },
    {
      "inputs": [
        {
          "internalType": "uint256",
          "name": "_playerId",
          "type": "uint256"
        }
      ],
      "name": "getManaStart",
      "outputs": [
        {
          "internalType": "uint256",
          "name": "",
          "type": "uint256"
        }
      ],
      "stateMutability": "view",
      "type": "function"
    },
    {
      "inputs": [
        {
          "internalType": "uint256",
          "name": "_playerId",
          "type": "uint256"
        }
      ],
      "name": "startTrainingBasicHealth",
      "outputs": [],
      "stateMutability": "nonpayable",
      "type": "function"
    },
    {
      "inputs": [
        {
          "internalType": "uint256",
          "name": "_tokenId",
          "type": "uint256"
        }
      ],
      "name": "startTrainingMana",
      "outputs": [],
      "stateMutability": "nonpayable",
      "type": "function"
    }
  ],
  "bytecode": "0x608060405234801561001057600080fd5b50610bf7806100206000396000f3fe608060405234801561001057600080fd5b50600436106100625760003560e01c80630448671a1461006757806367e128c71461009757806397dd8533146100b35780639b7ea6a0146100e3578063ea18fcb4146100ff578063fafe49f91461011b575b600080fd5b610081600480360381019061007c9190610a0e565b610137565b60405161008e9190610a4a565b60405180910390f35b6100b160048036038101906100ac9190610a0e565b610149565b005b6100cd60048036038101906100c89190610a0e565b610199565b6040516100da9190610a4a565b60405180910390f35b6100fd60048036038101906100f89190610a0e565b6101ab565b005b61011960048036038101906101149190610a0e565b6101fb565b005b61013560048036038101906101309190610a0e565b61024b565b005b60006101428261029b565b9050919050565b610152816102c6565b803373ffffffffffffffffffffffffffffffffffffffff167f0fc1305841fd5e436d7fce87e426e4399a665e0ffd4b2714bdbac43ecdef049b60405160405180910390a350565b60006101a482610515565b9050919050565b6101b481610540565b803373ffffffffffffffffffffffffffffffffffffffff167fffe9f752108573bd609233f01673e9bfbaef56b98963a8a184e5b57b605828b060405160405180910390a350565b6102048161066e565b803373ffffffffffffffffffffffffffffffffffffffff167f172eb2159e304707e5a8c16968a3a6af367c81ee56a7138c8b4fc4b4bfaf898f60405160405180910390a350565b610254816107aa565b803373ffffffffffffffffffffffffffffffffffffffff167f9407a007e74ffbf636a5eb0a83e8c8ada5a48d29a8f156fc9318c01e94b3afc760405160405180910390a350565b6000806102a6610979565b905080600001600084815260200190815260200160002054915050919050565b60006102d06109a6565b905060006102dc610979565b90503373ffffffffffffffffffffffffffffffffffffffff1682600201600085815260200190815260200160002060009054906101000a900473ffffffffffffffffffffffffffffffffffffffff1673ffffffffffffffffffffffffffffffffffffffff161461034b57600080fd5b6001826003016000858152602001908152602001600020600201541461037057600080fd5b600060148360030160008681526020019081526020016000206009015410156103c05782600301600085815260200190815260200160002060090154601e6103b89190610a94565b9050806103c6565b600a9050805b5080826000016000868152602001908152602001600020546103e89190610ac8565b42101561042a576040517f08c379a000000000000000000000000000000000000000000000000000000000815260040161042190610b59565b60405180910390fd5b600083600301600086815260200190815260200160002060020181905550816000016000858152602001908152602001600020600090556003836003016000868152602001908152602001600020600501548460030160008781526020019081526020016000206004015461049f9190610a94565b106104d957600383600301600086815260200190815260200160002060050160008282546104cd9190610ac8565b9250508190555061050f565b82600301600085815260200190815260200160002060050154836003016000868152602001908152602001600020600401819055505b50505050565b600080610520610979565b905080600101600084815260200190815260200160002054915050919050565b600061054a6109a6565b90506000610556610979565b90506000826003016000858152602001908152602001600020600201541461057d57600080fd5b3373ffffffffffffffffffffffffffffffffffffffff1682600201600085815260200190815260200160002060009054906101000a900473ffffffffffffffffffffffffffffffffffffffff1673ffffffffffffffffffffffffffffffffffffffff16146105ea57600080fd5b60018160040160008581526020019081526020016000205461060c9190610ac8565b42101561061857600080fd5b600382600301600085815260200190815260200160002060020181905550428160010160008581526020019081526020016000208190555080600401600084815260200190815260200160002060009055505050565b60006106786109a6565b90506000610684610979565b9050600082600301600085815260200190815260200160002060020154146106ab57600080fd5b3373ffffffffffffffffffffffffffffffffffffffff1682600201600085815260200190815260200160002060009054906101000a900473ffffffffffffffffffffffffffffffffffffffff1673ffffffffffffffffffffffffffffffffffffffff161461071857600080fd5b81600301600084815260200190815260200160002060050154826003016000858152602001908152602001600020600401541161075457600080fd5b600182600301600085815260200190815260200160002060020181905550428160000160008581526020019081526020016000208190555080600401600084815260200190815260200160002060009055505050565b60006107b46109a6565b905060006107c0610979565b90503373ffffffffffffffffffffffffffffffffffffffff1682600201600085815260200190815260200160002060009054906101000a900473ffffffffffffffffffffffffffffffffffffffff1673ffffffffffffffffffffffffffffffffffffffff161461082f57600080fd5b6003826003016000858152602001908152602001600020600201541461085457600080fd5b61012c816001016000858152602001908152602001600020546108779190610ac8565b4210156108b9576040517f08c379a00000000000000000000000000000000000000000000000000000000081526004016108b090610b59565b60405180910390fd5b60008260030160008581526020019081526020016000206002018190555080600101600084815260200190815260200160002060009055428160040160008581526020019081526020016000208190555081600301600084815260200190815260200160002060080154826003016000858152602001908152602001600020600701541061094657600080fd5b816003016000848152602001908152602001600020600701600081548092919061096f90610b79565b9190505550505050565b6000807f69a36aa8a1def7c34163f21101855534226dbb17b620d65b1681d4d0b27f0b2e90508091505090565b6000807f3cab9a070a0c61cd0ae9d9e9e2c0781e5ca8691bec4087e5a4701d5ac018dd4e90508091505090565b600080fd5b6000819050919050565b6109eb816109d8565b81146109f657600080fd5b50565b600081359050610a08816109e2565b92915050565b600060208284031215610a2457610a236109d3565b5b6000610a32848285016109f9565b91505092915050565b610a44816109d8565b82525050565b6000602082019050610a5f6000830184610a3b565b92915050565b7f4e487b7100000000000000000000000000000000000000000000000000000000600052601160045260246000fd5b6000610a9f826109d8565b9150610aaa836109d8565b9250828203905081811115610ac257610ac1610a65565b5b92915050565b6000610ad3826109d8565b9150610ade836109d8565b9250828201905080821115610af657610af5610a65565b5b92915050565b600082825260208201905092915050565b7f6974277320746f6f206561726c7920746f2070756c6c206f7574000000000000600082015250565b6000610b43601a83610afc565b9150610b4e82610b0d565b602082019050919050565b60006020820190508181036000830152610b7281610b36565b9050919050565b6000610b84826109d8565b91507fffffffffffffffffffffffffffffffffffffffffffffffffffffffffffffffff8203610bb657610bb5610a65565b5b60018201905091905056fea264697066735822122066feb4f9af59b7cbd99e069fa05f7f4eb78c614684fee5ee2e6eceb0c1342b1664736f6c63430008120033",
  "linkReferences": {},
  "deployedLinkReferences": {}
}