{
  "_format": "hh-sol-artifact-1",
  "contractName": "TrainFacet",
  "sourceName": "contracts/facets/TrainFacet.sol",
  "abi": [
    {
      "anonymous": false,
      "inputs": [
        {
          "indexed": true,
          "internalType": "address",
          "name": "_playerAddress",
          "type": "address"
        },
        {
          "indexed": true,
          "internalType": "uint256",
          "name": "_id",
          "type": "uint256"
        }
      ],
      "name": "BeginTrainingCombat",
      "type": "event"
    },
    {
      "anonymous": false,
      "inputs": [
        {
          "indexed": true,
          "internalType": "address",
          "name": "_playerAddress",
          "type": "address"
        },
        {
          "indexed": true,
          "internalType": "uint256",
          "name": "_id",
          "type": "uint256"
        }
      ],
      "name": "BeginTrainingMana",
      "type": "event"
    },
    {
      "anonymous": false,
      "inputs": [
        {
          "indexed": true,
          "internalType": "address",
          "name": "_playerAddress",
          "type": "address"
        },
        {
          "indexed": true,
          "internalType": "uint256",
          "name": "_id",
          "type": "uint256"
        }
      ],
      "name": "EndTrainingCombat",
      "type": "event"
    },
    {
      "anonymous": false,
      "inputs": [
        {
          "indexed": true,
          "internalType": "address",
          "name": "_playerAddress",
          "type": "address"
        },
        {
          "indexed": true,
          "internalType": "uint256",
          "name": "_id",
          "type": "uint256"
        }
      ],
      "name": "EndTrainingMana",
      "type": "event"
    },
    {
      "inputs": [
        {
          "internalType": "uint256",
          "name": "_tokenId",
          "type": "uint256"
        }
      ],
      "name": "endTrainingCombat",
      "outputs": [],
      "stateMutability": "nonpayable",
      "type": "function"
    },
    {
      "inputs": [
        {
          "internalType": "uint256",
          "name": "_tokenId",
          "type": "uint256"
        }
      ],
      "name": "endTrainingMana",
      "outputs": [],
      "stateMutability": "nonpayable",
      "type": "function"
    },
    {
      "inputs": [
        {
          "internalType": "uint256",
          "name": "_playerId",
          "type": "uint256"
        }
      ],
      "name": "getCombatStart",
      "outputs": [
        {
          "internalType": "uint256",
          "name": "",
          "type": "uint256"
        }
      ],
      "stateMutability": "view",
      "type": "function"
    },
    {
      "inputs": [
        {
          "internalType": "uint256",
          "name": "_playerId",
          "type": "uint256"
        }
      ],
      "name": "getManaStart",
      "outputs": [
        {
          "internalType": "uint256",
          "name": "",
          "type": "uint256"
        }
      ],
      "stateMutability": "view",
      "type": "function"
    },
    {
      "inputs": [
        {
          "internalType": "uint256",
          "name": "_tokenId",
          "type": "uint256"
        }
      ],
      "name": "startTrainingCombat",
      "outputs": [],
      "stateMutability": "nonpayable",
      "type": "function"
    },
    {
      "inputs": [
        {
          "internalType": "uint256",
          "name": "_tokenId",
          "type": "uint256"
        }
      ],
      "name": "startTrainingMana",
      "outputs": [],
      "stateMutability": "nonpayable",
      "type": "function"
    }
  ],
  "bytecode": "0x608060405234801561001057600080fd5b50610ae8806100206000396000f3fe608060405234801561001057600080fd5b50600436106100625760003560e01c80631a0df17614610067578063260174a31461008357806397dd8533146100b35780639b7ea6a0146100e3578063d527644c146100ff578063fafe49f91461011b575b600080fd5b610081600480360381019061007c9190610933565b610137565b005b61009d60048036038101906100989190610933565b610187565b6040516100aa919061096f565b60405180910390f35b6100cd60048036038101906100c89190610933565b610199565b6040516100da919061096f565b60405180910390f35b6100fd60048036038101906100f89190610933565b6101ab565b005b61011960048036038101906101149190610933565b6101fb565b005b61013560048036038101906101309190610933565b61024b565b005b6101408161029b565b803373ffffffffffffffffffffffffffffffffffffffff167f6b8560f80db335bb4a2fdb21b521ecf0da9cd807e392a7b07c9403934c4ad48160405160405180910390a350565b60006101928261044b565b9050919050565b60006101a482610476565b9050919050565b6101b4816104a1565b803373ffffffffffffffffffffffffffffffffffffffff167fffe9f752108573bd609233f01673e9bfbaef56b98963a8a184e5b57b605828b060405160405180910390a350565b610204816105cf565b803373ffffffffffffffffffffffffffffffffffffffff167f3c3c241ddc27650ae5dea0a4c112f87b05c8c1dbb6c5d59b6cd75e7f466a929d60405160405180910390a350565b610254816106cf565b803373ffffffffffffffffffffffffffffffffffffffff167f9407a007e74ffbf636a5eb0a83e8c8ada5a48d29a8f156fc9318c01e94b3afc760405160405180910390a350565b60006102a561089e565b905060006102b16108cb565b90503373ffffffffffffffffffffffffffffffffffffffff1682600201600085815260200190815260200160002060009054906101000a900473ffffffffffffffffffffffffffffffffffffffff1673ffffffffffffffffffffffffffffffffffffffff161461032057600080fd5b3373ffffffffffffffffffffffffffffffffffffffff163273ffffffffffffffffffffffffffffffffffffffff161461035857600080fd5b6001826003016000858152602001908152602001600020600201541461037d57600080fd5b60788160000160008581526020019081526020016000205461039f91906109b9565b4210156103e1576040517f08c379a00000000000000000000000000000000000000000000000000000000081526004016103d890610a4a565b60405180910390fd5b60008260030160008581526020019081526020016000206002018190555080600001600084815260200190815260200160002060009055816003016000848152602001908152602001600020600301600081548092919061044190610a6a565b9190505550505050565b6000806104566108cb565b905080600001600084815260200190815260200160002054915050919050565b6000806104816108cb565b905080600101600084815260200190815260200160002054915050919050565b60006104ab61089e565b905060006104b76108cb565b9050600082600301600085815260200190815260200160002060020154146104de57600080fd5b3373ffffffffffffffffffffffffffffffffffffffff1682600201600085815260200190815260200160002060009054906101000a900473ffffffffffffffffffffffffffffffffffffffff1673ffffffffffffffffffffffffffffffffffffffff161461054b57600080fd5b60018160040160008581526020019081526020016000205461056d91906109b9565b42101561057957600080fd5b600382600301600085815260200190815260200160002060020181905550428160010160008581526020019081526020016000208190555080600401600084815260200190815260200160002060009055505050565b60006105d961089e565b905060006105e56108cb565b90506000826003016000858152602001908152602001600020600201541461060c57600080fd5b3373ffffffffffffffffffffffffffffffffffffffff1682600201600085815260200190815260200160002060009054906101000a900473ffffffffffffffffffffffffffffffffffffffff1673ffffffffffffffffffffffffffffffffffffffff161461067957600080fd5b600182600301600085815260200190815260200160002060020181905550428160000160008581526020019081526020016000208190555080600401600084815260200190815260200160002060009055505050565b60006106d961089e565b905060006106e56108cb565b90503373ffffffffffffffffffffffffffffffffffffffff1682600201600085815260200190815260200160002060009054906101000a900473ffffffffffffffffffffffffffffffffffffffff1673ffffffffffffffffffffffffffffffffffffffff161461075457600080fd5b6003826003016000858152602001908152602001600020600201541461077957600080fd5b61012c8160010160008581526020019081526020016000205461079c91906109b9565b4210156107de576040517f08c379a00000000000000000000000000000000000000000000000000000000081526004016107d590610a4a565b60405180910390fd5b60008260030160008581526020019081526020016000206002018190555080600101600084815260200190815260200160002060009055428160040160008581526020019081526020016000208190555081600301600084815260200190815260200160002060080154826003016000858152602001908152602001600020600701541061086b57600080fd5b816003016000848152602001908152602001600020600701600081548092919061089490610a6a565b9190505550505050565b6000807f3cab9a070a0c61cd0ae9d9e9e2c0781e5ca8691bec4087e5a4701d5ac018dd4e90508091505090565b6000807f69a36aa8a1def7c34163f21101855534226dbb17b620d65b1681d4d0b27f0b2e90508091505090565b600080fd5b6000819050919050565b610910816108fd565b811461091b57600080fd5b50565b60008135905061092d81610907565b92915050565b600060208284031215610949576109486108f8565b5b60006109578482850161091e565b91505092915050565b610969816108fd565b82525050565b60006020820190506109846000830184610960565b92915050565b7f4e487b7100000000000000000000000000000000000000000000000000000000600052601160045260246000fd5b60006109c4826108fd565b91506109cf836108fd565b92508282019050808211156109e7576109e661098a565b5b92915050565b600082825260208201905092915050565b7f6974277320746f6f206561726c7920746f2070756c6c206f7574000000000000600082015250565b6000610a34601a836109ed565b9150610a3f826109fe565b602082019050919050565b60006020820190508181036000830152610a6381610a27565b9050919050565b6000610a75826108fd565b91507fffffffffffffffffffffffffffffffffffffffffffffffffffffffffffffffff8203610aa757610aa661098a565b5b60018201905091905056fea264697066735822122074d3f435576fb22ed687d9665d8179986e5b681f618b7804adcb2cecd34e1c8564736f6c63430008110033",
  "linkReferences": {},
  "deployedLinkReferences": {}
}