{
  "_format": "hh-sol-artifact-1",
  "contractName": "TrainFacet",
  "sourceName": "contracts/facets/TrainFacet.sol",
  "abi": [
    {
      "anonymous": false,
      "inputs": [
        {
          "indexed": true,
          "internalType": "address",
          "name": "_playerAddress",
          "type": "address"
        },
        {
          "indexed": true,
          "internalType": "uint256",
          "name": "_id",
          "type": "uint256"
        }
      ],
      "name": "BeginTrainingBasicHealth",
      "type": "event"
    },
    {
      "anonymous": false,
      "inputs": [
        {
          "indexed": true,
          "internalType": "address",
          "name": "_playerAddress",
          "type": "address"
        },
        {
          "indexed": true,
          "internalType": "uint256",
          "name": "_id",
          "type": "uint256"
        }
      ],
      "name": "BeginTrainingMana",
      "type": "event"
    },
    {
      "anonymous": false,
      "inputs": [
        {
          "indexed": true,
          "internalType": "address",
          "name": "_playerAddress",
          "type": "address"
        },
        {
          "indexed": true,
          "internalType": "uint256",
          "name": "_id",
          "type": "uint256"
        }
      ],
      "name": "EndTrainingBasicHealth",
      "type": "event"
    },
    {
      "anonymous": false,
      "inputs": [
        {
          "indexed": true,
          "internalType": "address",
          "name": "_playerAddress",
          "type": "address"
        },
        {
          "indexed": true,
          "internalType": "uint256",
          "name": "_id",
          "type": "uint256"
        }
      ],
      "name": "EndTrainingMana",
      "type": "event"
    },
    {
      "inputs": [
        {
          "internalType": "uint256",
          "name": "_playerId",
          "type": "uint256"
        }
      ],
      "name": "endTrainingBasicHealth",
      "outputs": [],
      "stateMutability": "nonpayable",
      "type": "function"
    },
    {
      "inputs": [
        {
          "internalType": "uint256",
          "name": "_tokenId",
          "type": "uint256"
        }
      ],
      "name": "endTrainingMana",
      "outputs": [],
      "stateMutability": "nonpayable",
      "type": "function"
    },
    {
      "inputs": [
        {
          "internalType": "uint256",
          "name": "_playerId",
          "type": "uint256"
        }
      ],
      "name": "getHealthStart",
      "outputs": [
        {
          "internalType": "uint256",
          "name": "",
          "type": "uint256"
        }
      ],
      "stateMutability": "view",
      "type": "function"
    },
    {
      "inputs": [
        {
          "internalType": "uint256",
          "name": "_playerId",
          "type": "uint256"
        }
      ],
      "name": "getManaStart",
      "outputs": [
        {
          "internalType": "uint256",
          "name": "",
          "type": "uint256"
        }
      ],
      "stateMutability": "view",
      "type": "function"
    },
    {
      "inputs": [
        {
          "internalType": "uint256",
          "name": "_playerId",
          "type": "uint256"
        }
      ],
      "name": "startTrainingBasicHealth",
      "outputs": [],
      "stateMutability": "nonpayable",
      "type": "function"
    },
    {
      "inputs": [
        {
          "internalType": "uint256",
          "name": "_tokenId",
          "type": "uint256"
        }
      ],
      "name": "startTrainingMana",
      "outputs": [],
      "stateMutability": "nonpayable",
      "type": "function"
    }
  ],
  "bytecode": "0x608060405234801561001057600080fd5b50610baf806100206000396000f3fe608060405234801561001057600080fd5b50600436106100625760003560e01c80630448671a1461006757806367e128c71461009757806397dd8533146100b35780639b7ea6a0146100e3578063ea18fcb4146100ff578063fafe49f91461011b575b600080fd5b610081600480360381019061007c91906109c6565b610137565b60405161008e9190610a02565b60405180910390f35b6100b160048036038101906100ac91906109c6565b610149565b005b6100cd60048036038101906100c891906109c6565b610199565b6040516100da9190610a02565b60405180910390f35b6100fd60048036038101906100f891906109c6565b6101ab565b005b610119600480360381019061011491906109c6565b6101fb565b005b610135600480360381019061013091906109c6565b61024b565b005b60006101428261029b565b9050919050565b610152816102c6565b803373ffffffffffffffffffffffffffffffffffffffff167f0fc1305841fd5e436d7fce87e426e4399a665e0ffd4b2714bdbac43ecdef049b60405160405180910390a350565b60006101a4826104cd565b9050919050565b6101b4816104f8565b803373ffffffffffffffffffffffffffffffffffffffff167fffe9f752108573bd609233f01673e9bfbaef56b98963a8a184e5b57b605828b060405160405180910390a350565b61020481610626565b803373ffffffffffffffffffffffffffffffffffffffff167f172eb2159e304707e5a8c16968a3a6af367c81ee56a7138c8b4fc4b4bfaf898f60405160405180910390a350565b61025481610762565b803373ffffffffffffffffffffffffffffffffffffffff167f9407a007e74ffbf636a5eb0a83e8c8ada5a48d29a8f156fc9318c01e94b3afc760405160405180910390a350565b6000806102a6610931565b905080600001600084815260200190815260200160002054915050919050565b60006102d061095e565b905060006102dc610931565b90503373ffffffffffffffffffffffffffffffffffffffff1682600201600085815260200190815260200160002060009054906101000a900473ffffffffffffffffffffffffffffffffffffffff1673ffffffffffffffffffffffffffffffffffffffff161461034b57600080fd5b3373ffffffffffffffffffffffffffffffffffffffff163273ffffffffffffffffffffffffffffffffffffffff161461038357600080fd5b600182600301600085815260200190815260200160002060020154146103a857600080fd5b600060148360030160008681526020019081526020016000206009015410156103f85782600301600085815260200190815260200160002060090154601e6103f09190610a4c565b9050806103fe565b600a9050805b5080826000016000868152602001908152602001600020546104209190610a80565b421015610462576040517f08c379a000000000000000000000000000000000000000000000000000000000815260040161045990610b11565b60405180910390fd5b6000836003016000868152602001908152602001600020600201819055508160000160008581526020019081526020016000206000905582600301600085815260200190815260200160002060050160008154809291906104c290610b31565b919050555050505050565b6000806104d8610931565b905080600101600084815260200190815260200160002054915050919050565b600061050261095e565b9050600061050e610931565b90506000826003016000858152602001908152602001600020600201541461053557600080fd5b3373ffffffffffffffffffffffffffffffffffffffff1682600201600085815260200190815260200160002060009054906101000a900473ffffffffffffffffffffffffffffffffffffffff1673ffffffffffffffffffffffffffffffffffffffff16146105a257600080fd5b6001816004016000858152602001908152602001600020546105c49190610a80565b4210156105d057600080fd5b600382600301600085815260200190815260200160002060020181905550428160010160008581526020019081526020016000208190555080600401600084815260200190815260200160002060009055505050565b600061063061095e565b9050600061063c610931565b90506000826003016000858152602001908152602001600020600201541461066357600080fd5b3373ffffffffffffffffffffffffffffffffffffffff1682600201600085815260200190815260200160002060009054906101000a900473ffffffffffffffffffffffffffffffffffffffff1673ffffffffffffffffffffffffffffffffffffffff16146106d057600080fd5b81600301600084815260200190815260200160002060050154826003016000858152602001908152602001600020600401541161070c57600080fd5b600182600301600085815260200190815260200160002060020181905550428160000160008581526020019081526020016000208190555080600401600084815260200190815260200160002060009055505050565b600061076c61095e565b90506000610778610931565b90503373ffffffffffffffffffffffffffffffffffffffff1682600201600085815260200190815260200160002060009054906101000a900473ffffffffffffffffffffffffffffffffffffffff1673ffffffffffffffffffffffffffffffffffffffff16146107e757600080fd5b6003826003016000858152602001908152602001600020600201541461080c57600080fd5b61012c8160010160008581526020019081526020016000205461082f9190610a80565b421015610871576040517f08c379a000000000000000000000000000000000000000000000000000000000815260040161086890610b11565b60405180910390fd5b6000826003016000858152602001908152602001600020600201819055508060010160008481526020019081526020016000206000905542816004016000858152602001908152602001600020819055508160030160008481526020019081526020016000206008015482600301600085815260200190815260200160002060070154106108fe57600080fd5b816003016000848152602001908152602001600020600701600081548092919061092790610b31565b9190505550505050565b6000807f69a36aa8a1def7c34163f21101855534226dbb17b620d65b1681d4d0b27f0b2e90508091505090565b6000807f3cab9a070a0c61cd0ae9d9e9e2c0781e5ca8691bec4087e5a4701d5ac018dd4e90508091505090565b600080fd5b6000819050919050565b6109a381610990565b81146109ae57600080fd5b50565b6000813590506109c08161099a565b92915050565b6000602082840312156109dc576109db61098b565b5b60006109ea848285016109b1565b91505092915050565b6109fc81610990565b82525050565b6000602082019050610a1760008301846109f3565b92915050565b7f4e487b7100000000000000000000000000000000000000000000000000000000600052601160045260246000fd5b6000610a5782610990565b9150610a6283610990565b9250828203905081811115610a7a57610a79610a1d565b5b92915050565b6000610a8b82610990565b9150610a9683610990565b9250828201905080821115610aae57610aad610a1d565b5b92915050565b600082825260208201905092915050565b7f6974277320746f6f206561726c7920746f2070756c6c206f7574000000000000600082015250565b6000610afb601a83610ab4565b9150610b0682610ac5565b602082019050919050565b60006020820190508181036000830152610b2a81610aee565b9050919050565b6000610b3c82610990565b91507fffffffffffffffffffffffffffffffffffffffffffffffffffffffffffffffff8203610b6e57610b6d610a1d565b5b60018201905091905056fea2646970667358221220a5c44400575edca2fa6dd41fb650000310e6780463de7e7b547aaa34221ec62864736f6c63430008120033",
  "linkReferences": {},
  "deployedLinkReferences": {}
}