{
  "_format": "hh-sol-artifact-1",
  "contractName": "BridgeFacet",
  "sourceName": "contracts/facets/BridgeFacet.sol",
  "abi": [
    {
      "anonymous": false,
      "inputs": [
        {
          "indexed": true,
          "internalType": "address",
          "name": "owner",
          "type": "address"
        },
        {
          "indexed": true,
          "internalType": "address",
          "name": "approved",
          "type": "address"
        },
        {
          "indexed": true,
          "internalType": "uint256",
          "name": "tokenId",
          "type": "uint256"
        }
      ],
      "name": "Approval",
      "type": "event"
    },
    {
      "anonymous": false,
      "inputs": [
        {
          "indexed": true,
          "internalType": "address",
          "name": "owner",
          "type": "address"
        },
        {
          "indexed": true,
          "internalType": "address",
          "name": "operator",
          "type": "address"
        },
        {
          "indexed": false,
          "internalType": "bool",
          "name": "approved",
          "type": "bool"
        }
      ],
      "name": "ApprovalForAll",
      "type": "event"
    },
    {
      "anonymous": false,
      "inputs": [
        {
          "indexed": true,
          "internalType": "uint256",
          "name": "_chainId",
          "type": "uint256"
        },
        {
          "indexed": true,
          "internalType": "address",
          "name": "_portal",
          "type": "address"
        },
        {
          "indexed": true,
          "internalType": "address",
          "name": "_diamond",
          "type": "address"
        }
      ],
      "name": "BridgeCreated",
      "type": "event"
    },
    {
      "anonymous": false,
      "inputs": [
        {
          "indexed": true,
          "internalType": "uint256",
          "name": "_playerId",
          "type": "uint256"
        },
        {
          "components": [
            {
              "internalType": "uint256",
              "name": "class",
              "type": "uint256"
            },
            {
              "internalType": "uint256",
              "name": "level",
              "type": "uint256"
            },
            {
              "internalType": "uint256",
              "name": "xp",
              "type": "uint256"
            },
            {
              "internalType": "uint256",
              "name": "strength",
              "type": "uint256"
            },
            {
              "internalType": "uint256",
              "name": "health",
              "type": "uint256"
            },
            {
              "internalType": "uint256",
              "name": "magic",
              "type": "uint256"
            },
            {
              "internalType": "uint256",
              "name": "maxMana",
              "type": "uint256"
            },
            {
              "internalType": "uint256",
              "name": "agility",
              "type": "uint256"
            },
            {
              "internalType": "uint256",
              "name": "defense",
              "type": "uint256"
            },
            {
              "internalType": "uint256",
              "name": "baseChain",
              "type": "uint256"
            },
            {
              "internalType": "uint256",
              "name": "baseId",
              "type": "uint256"
            },
            {
              "internalType": "string",
              "name": "name",
              "type": "string"
            },
            {
              "internalType": "bool",
              "name": "isMale",
              "type": "bool"
            },
            {
              "internalType": "address",
              "name": "sender",
              "type": "address"
            }
          ],
          "indexed": false,
          "internalType": "struct BridgeFormat",
          "name": "_format",
          "type": "tuple"
        }
      ],
      "name": "BridgePlayer",
      "type": "event"
    },
    {
      "anonymous": false,
      "inputs": [
        {
          "indexed": true,
          "internalType": "uint256",
          "name": "_playerId",
          "type": "uint256"
        },
        {
          "components": [
            {
              "internalType": "uint256",
              "name": "class",
              "type": "uint256"
            },
            {
              "internalType": "uint256",
              "name": "level",
              "type": "uint256"
            },
            {
              "internalType": "uint256",
              "name": "xp",
              "type": "uint256"
            },
            {
              "internalType": "uint256",
              "name": "strength",
              "type": "uint256"
            },
            {
              "internalType": "uint256",
              "name": "health",
              "type": "uint256"
            },
            {
              "internalType": "uint256",
              "name": "magic",
              "type": "uint256"
            },
            {
              "internalType": "uint256",
              "name": "maxMana",
              "type": "uint256"
            },
            {
              "internalType": "uint256",
              "name": "agility",
              "type": "uint256"
            },
            {
              "internalType": "uint256",
              "name": "defense",
              "type": "uint256"
            },
            {
              "internalType": "uint256",
              "name": "baseChain",
              "type": "uint256"
            },
            {
              "internalType": "uint256",
              "name": "baseId",
              "type": "uint256"
            },
            {
              "internalType": "string",
              "name": "name",
              "type": "string"
            },
            {
              "internalType": "bool",
              "name": "isMale",
              "type": "bool"
            },
            {
              "internalType": "address",
              "name": "sender",
              "type": "address"
            }
          ],
          "indexed": false,
          "internalType": "struct BridgeFormat",
          "name": "_format",
          "type": "tuple"
        }
      ],
      "name": "ReMintPlayer",
      "type": "event"
    },
    {
      "anonymous": false,
      "inputs": [
        {
          "indexed": true,
          "internalType": "address",
          "name": "_sender",
          "type": "address"
        },
        {
          "indexed": true,
          "internalType": "uint256",
          "name": "_amount",
          "type": "uint256"
        }
      ],
      "name": "ReceiveGold",
      "type": "event"
    },
    {
      "anonymous": false,
      "inputs": [
        {
          "indexed": true,
          "internalType": "address",
          "name": "_sender",
          "type": "address"
        },
        {
          "indexed": true,
          "internalType": "uint256",
          "name": "_amount",
          "type": "uint256"
        }
      ],
      "name": "SendGold",
      "type": "event"
    },
    {
      "anonymous": false,
      "inputs": [
        {
          "indexed": true,
          "internalType": "address",
          "name": "from",
          "type": "address"
        },
        {
          "indexed": true,
          "internalType": "address",
          "name": "to",
          "type": "address"
        },
        {
          "indexed": true,
          "internalType": "uint256",
          "name": "tokenId",
          "type": "uint256"
        }
      ],
      "name": "Transfer",
      "type": "event"
    },
    {
      "anonymous": false,
      "inputs": [
        {
          "indexed": true,
          "internalType": "uint256",
          "name": "_playerId",
          "type": "uint256"
        },
        {
          "components": [
            {
              "internalType": "uint256",
              "name": "class",
              "type": "uint256"
            },
            {
              "internalType": "uint256",
              "name": "level",
              "type": "uint256"
            },
            {
              "internalType": "uint256",
              "name": "xp",
              "type": "uint256"
            },
            {
              "internalType": "uint256",
              "name": "strength",
              "type": "uint256"
            },
            {
              "internalType": "uint256",
              "name": "health",
              "type": "uint256"
            },
            {
              "internalType": "uint256",
              "name": "magic",
              "type": "uint256"
            },
            {
              "internalType": "uint256",
              "name": "maxMana",
              "type": "uint256"
            },
            {
              "internalType": "uint256",
              "name": "agility",
              "type": "uint256"
            },
            {
              "internalType": "uint256",
              "name": "defense",
              "type": "uint256"
            },
            {
              "internalType": "uint256",
              "name": "baseChain",
              "type": "uint256"
            },
            {
              "internalType": "uint256",
              "name": "baseId",
              "type": "uint256"
            },
            {
              "internalType": "string",
              "name": "name",
              "type": "string"
            },
            {
              "internalType": "bool",
              "name": "isMale",
              "type": "bool"
            },
            {
              "internalType": "address",
              "name": "sender",
              "type": "address"
            }
          ],
          "indexed": false,
          "internalType": "struct BridgeFormat",
          "name": "_format",
          "type": "tuple"
        }
      ],
      "name": "UnFreezePlayer",
      "type": "event"
    },
    {
      "inputs": [
        {
          "internalType": "string",
          "name": "_chain",
          "type": "string"
        },
        {
          "internalType": "address",
          "name": "_contract",
          "type": "address"
        },
        {
          "internalType": "uint256",
          "name": "_amount",
          "type": "uint256"
        }
      ],
      "name": "bridgeGold",
      "outputs": [],
      "stateMutability": "nonpayable",
      "type": "function"
    },
    {
      "inputs": [
        {
          "internalType": "uint256",
          "name": "_playerId",
          "type": "uint256"
        },
        {
          "internalType": "uint256",
          "name": "_chainCountId",
          "type": "uint256"
        }
      ],
      "name": "bridgePlayer",
      "outputs": [],
      "stateMutability": "nonpayable",
      "type": "function"
    },
    {
      "inputs": [
        {
          "internalType": "uint256",
          "name": "_playerId",
          "type": "uint256"
        },
        {
          "internalType": "string",
          "name": "_chain",
          "type": "string"
        },
        {
          "internalType": "address",
          "name": "_contract",
          "type": "address"
        }
      ],
      "name": "bridgePlayerTest",
      "outputs": [],
      "stateMutability": "nonpayable",
      "type": "function"
    },
    {
      "inputs": [
        {
          "internalType": "uint256",
          "name": "_chainId",
          "type": "uint256"
        },
        {
          "internalType": "string",
          "name": "_name",
          "type": "string"
        },
        {
          "internalType": "address",
          "name": "_portal",
          "type": "address"
        },
        {
          "internalType": "address",
          "name": "_diamond",
          "type": "address"
        }
      ],
      "name": "createBridge",
      "outputs": [],
      "stateMutability": "nonpayable",
      "type": "function"
    },
    {
      "inputs": [],
      "name": "freeGold",
      "outputs": [],
      "stateMutability": "nonpayable",
      "type": "function"
    },
    {
      "inputs": [],
      "name": "getChainCount",
      "outputs": [
        {
          "internalType": "uint256",
          "name": "",
          "type": "uint256"
        }
      ],
      "stateMutability": "view",
      "type": "function"
    },
    {
      "inputs": [
        {
          "internalType": "uint256",
          "name": "_chainId",
          "type": "uint256"
        }
      ],
      "name": "getChainData",
      "outputs": [
        {
          "components": [
            {
              "internalType": "uint256",
              "name": "chainId",
              "type": "uint256"
            },
            {
              "internalType": "string",
              "name": "name",
              "type": "string"
            },
            {
              "internalType": "address",
              "name": "portal",
              "type": "address"
            },
            {
              "internalType": "address",
              "name": "diamond",
              "type": "address"
            }
          ],
          "internalType": "struct ChainData",
          "name": "",
          "type": "tuple"
        }
      ],
      "stateMutability": "view",
      "type": "function"
    },
    {
      "inputs": [
        {
          "internalType": "uint256",
          "name": "_chainCountId",
          "type": "uint256"
        }
      ],
      "name": "getChainDataByCountId",
      "outputs": [
        {
          "components": [
            {
              "internalType": "uint256",
              "name": "chainId",
              "type": "uint256"
            },
            {
              "internalType": "string",
              "name": "name",
              "type": "string"
            },
            {
              "internalType": "address",
              "name": "portal",
              "type": "address"
            },
            {
              "internalType": "address",
              "name": "diamond",
              "type": "address"
            }
          ],
          "internalType": "struct ChainData",
          "name": "",
          "type": "tuple"
        }
      ],
      "stateMutability": "view",
      "type": "function"
    },
    {
      "inputs": [
        {
          "internalType": "uint256",
          "name": "_id",
          "type": "uint256"
        }
      ],
      "name": "getFormat",
      "outputs": [
        {
          "components": [
            {
              "internalType": "uint256",
              "name": "class",
              "type": "uint256"
            },
            {
              "internalType": "uint256",
              "name": "level",
              "type": "uint256"
            },
            {
              "internalType": "uint256",
              "name": "xp",
              "type": "uint256"
            },
            {
              "internalType": "uint256",
              "name": "strength",
              "type": "uint256"
            },
            {
              "internalType": "uint256",
              "name": "health",
              "type": "uint256"
            },
            {
              "internalType": "uint256",
              "name": "magic",
              "type": "uint256"
            },
            {
              "internalType": "uint256",
              "name": "maxMana",
              "type": "uint256"
            },
            {
              "internalType": "uint256",
              "name": "agility",
              "type": "uint256"
            },
            {
              "internalType": "uint256",
              "name": "defense",
              "type": "uint256"
            },
            {
              "internalType": "uint256",
              "name": "baseChain",
              "type": "uint256"
            },
            {
              "internalType": "uint256",
              "name": "baseId",
              "type": "uint256"
            },
            {
              "internalType": "string",
              "name": "name",
              "type": "string"
            },
            {
              "internalType": "bool",
              "name": "isMale",
              "type": "bool"
            },
            {
              "internalType": "address",
              "name": "sender",
              "type": "address"
            }
          ],
          "internalType": "struct BridgeFormat",
          "name": "",
          "type": "tuple"
        }
      ],
      "stateMutability": "view",
      "type": "function"
    },
    {
      "inputs": [
        {
          "components": [
            {
              "internalType": "uint256",
              "name": "class",
              "type": "uint256"
            },
            {
              "internalType": "uint256",
              "name": "level",
              "type": "uint256"
            },
            {
              "internalType": "uint256",
              "name": "xp",
              "type": "uint256"
            },
            {
              "internalType": "uint256",
              "name": "strength",
              "type": "uint256"
            },
            {
              "internalType": "uint256",
              "name": "health",
              "type": "uint256"
            },
            {
              "internalType": "uint256",
              "name": "magic",
              "type": "uint256"
            },
            {
              "internalType": "uint256",
              "name": "maxMana",
              "type": "uint256"
            },
            {
              "internalType": "uint256",
              "name": "agility",
              "type": "uint256"
            },
            {
              "internalType": "uint256",
              "name": "defense",
              "type": "uint256"
            },
            {
              "internalType": "uint256",
              "name": "baseChain",
              "type": "uint256"
            },
            {
              "internalType": "uint256",
              "name": "baseId",
              "type": "uint256"
            },
            {
              "internalType": "string",
              "name": "name",
              "type": "string"
            },
            {
              "internalType": "bool",
              "name": "isMale",
              "type": "bool"
            },
            {
              "internalType": "address",
              "name": "sender",
              "type": "address"
            }
          ],
          "internalType": "struct BridgeFormat",
          "name": "_format",
          "type": "tuple"
        }
      ],
      "name": "reMintPlayer",
      "outputs": [],
      "stateMutability": "nonpayable",
      "type": "function"
    },
    {
      "inputs": [
        {
          "components": [
            {
              "internalType": "address",
              "name": "sender",
              "type": "address"
            },
            {
              "internalType": "uint256",
              "name": "amount",
              "type": "uint256"
            }
          ],
          "internalType": "struct BridgegeCoinFormat",
          "name": "_format",
          "type": "tuple"
        }
      ],
      "name": "receiveGold",
      "outputs": [],
      "stateMutability": "nonpayable",
      "type": "function"
    },
    {
      "inputs": [
        {
          "internalType": "uint256",
          "name": "_playerId",
          "type": "uint256"
        }
      ],
      "name": "sanityCheck",
      "outputs": [
        {
          "internalType": "uint256",
          "name": "",
          "type": "uint256"
        },
        {
          "internalType": "uint256",
          "name": "",
          "type": "uint256"
        },
        {
          "internalType": "uint256",
          "name": "",
          "type": "uint256"
        },
        {
          "internalType": "uint256",
          "name": "",
          "type": "uint256"
        },
        {
          "internalType": "uint256",
          "name": "",
          "type": "uint256"
        },
        {
          "internalType": "bool",
          "name": "",
          "type": "bool"
        }
      ],
      "stateMutability": "view",
      "type": "function"
    }
  ],
  "bytecode": "0x608060405234801561001057600080fd5b50613db0806100206000396000f3fe608060405234801561001057600080fd5b50600436106100b45760003560e01c80638ee7f6cb116100715780638ee7f6cb1461017c57806390601da3146101ac578063aeb45f01146101c8578063c3e4f9c2146101f8578063d25d23bd14610214578063feea35c914610232576100b4565b80630183d1e6146100b957806303f256ec146100e957806333f453af14610105578063537ce6151461010f57806354250a131461012b578063763b4ef014610147575b600080fd5b6100d360048036038101906100ce91906128e3565b61024e565b6040516100e09190612a53565b60405180910390f35b61010360048036038101906100fe9190612bd6565b610266565b005b61010d6102d3565b005b61012960048036038101906101249190612c59565b6102dd565b005b61014560048036038101906101409190612e45565b610443565b005b610161600480360381019061015c91906128e3565b6104ff565b60405161017396959493929190612eac565b60405180910390f35b610196600480360381019061019191906128e3565b610526565b6040516101a3919061304a565b60405180910390f35b6101c660048036038101906101c191906130bc565b61053e565b005b6101e260048036038101906101dd91906128e3565b61059f565b6040516101ef9190612a53565b60405180910390f35b610212600480360381019061020d91906130e9565b6105b7565b005b61021c610718565b6040516102299190613158565b60405180910390f35b61024c60048036038101906102479190613173565b610727565b005b6102566127be565b61025f826108c0565b9050919050565b61027284848484610a44565b8073ffffffffffffffffffffffffffffffffffffffff168273ffffffffffffffffffffffffffffffffffffffff16857f924c77d15e16cd31a7b4457de58065af652bd3178fe5f5f2ff801196f030fe7860405160405180910390a450505050565b6102db610c9b565b565b60006102e88261024e565b905060008160400151905060006102fe85610d01565b90508173ffffffffffffffffffffffffffffffffffffffff16637f2d905b8460200151856060015184604051602401610337919061304a565b6040516020818303038152906040527f54250a13000000000000000000000000000000000000000000000000000000007bffffffffffffffffffffffffffffffffffffffffffffffffffffffff19166020820180517bffffffffffffffffffffffffffffffffffffffffffffffffffffffff83818316178352505050506040518463ffffffff1660e01b81526004016103d293929190613290565b600060405180830381600087803b1580156103ec57600080fd5b505af1158015610400573d6000803e3d6000fd5b50505050847f602103799a7c20f1b0af9606ecee1173039b639af978bf3755ef5db1a5209a6f82604051610434919061304a565b60405180910390a25050505050565b61044c816110f6565b6104608161012001518261014001516113df565b156104be57600061046f611432565b9050610480826101a001518261144a565b807f038153a05f584c8a013d995510cb2a343c79259d90c1104781032846799cedbf836040516104b0919061304a565b60405180910390a2506104fc565b8061014001517f63eab96f65d1507cf3ccfa424a7be2c0571365e7bbb8f4a1d86fc90e7727fa42826040516104f3919061304a565b60405180910390a25b50565b60008060008060008061051187611468565b95509550955095509550955091939550919395565b61052e612812565b61053782611542565b9050919050565b610550816000015182602001516116f0565b8060200151816000015173ffffffffffffffffffffffffffffffffffffffff167f2974932ea8347b7507a8cb3888088a5db0692804c1592c993279b17e7fa7d7f260405160405180910390a350565b6105a76127be565b6105b082611759565b9050919050565b600073cbbc5da52ea2728279560dca8f4ec08d5f829985905060006105db85610d01565b90508173ffffffffffffffffffffffffffffffffffffffff16637f2d905b85858460405160240161060c919061304a565b6040516020818303038152906040527f54250a13000000000000000000000000000000000000000000000000000000007bffffffffffffffffffffffffffffffffffffffffffffffffffffffff19166020820180517bffffffffffffffffffffffffffffffffffffffffffffffffffffffff83818316178352505050506040518463ffffffff1660e01b81526004016106a793929190613290565b600060405180830381600087803b1580156106c157600080fd5b505af11580156106d5573d6000803e3d6000fd5b50505050847f602103799a7c20f1b0af9606ecee1173039b639af978bf3755ef5db1a5209a6f82604051610709919061304a565b60405180910390a25050505050565b60006107226118dd565b905090565b600073cbbc5da52ea2728279560dca8f4ec08d5f8299859050600060405180604001604052803373ffffffffffffffffffffffffffffffffffffffff1681526020018481525090508173ffffffffffffffffffffffffffffffffffffffff16637f2d905b86868460405160240161079e9190613304565b6040516020818303038152906040527f90601da3000000000000000000000000000000000000000000000000000000007bffffffffffffffffffffffffffffffffffffffffffffffffffffffff19166020820180517bffffffffffffffffffffffffffffffffffffffffffffffffffffffff83818316178352505050506040518463ffffffff1660e01b815260040161083993929190613290565b600060405180830381600087803b15801561085357600080fd5b505af1158015610867573d6000803e3d6000fd5b5050505061087533846118f5565b823373ffffffffffffffffffffffffffffffffffffffff167f639a1c2428edca612d7aa6a0f09df35033766e9b8578f6db38659900e23abf7260405160405180910390a35050505050565b6108c86127be565b60006108d26119ac565b90508060010160008481526020019081526020016000206040518060800160405290816000820154815260200160018201805461090e9061334e565b80601f016020809104026020016040519081016040528092919081815260200182805461093a9061334e565b80156109875780601f1061095c57610100808354040283529160200191610987565b820191906000526020600020905b81548152906001019060200180831161096a57829003601f168201915b505050505081526020016002820160009054906101000a900473ffffffffffffffffffffffffffffffffffffffff1673ffffffffffffffffffffffffffffffffffffffff1673ffffffffffffffffffffffffffffffffffffffff1681526020016003820160009054906101000a900473ffffffffffffffffffffffffffffffffffffffff1673ffffffffffffffffffffffffffffffffffffffff1673ffffffffffffffffffffffffffffffffffffffff1681525050915050919050565b6000610a4e6119ac565b9050806000016000815480929190610a65906133ae565b919050555060405180608001604052808681526020018581526020018473ffffffffffffffffffffffffffffffffffffffff1681526020018373ffffffffffffffffffffffffffffffffffffffff16815250816002016000878152602001908152602001600020600082015181600001556020820151816001019081610aeb91906135a2565b5060408201518160020160006101000a81548173ffffffffffffffffffffffffffffffffffffffff021916908373ffffffffffffffffffffffffffffffffffffffff16021790555060608201518160030160006101000a81548173ffffffffffffffffffffffffffffffffffffffff021916908373ffffffffffffffffffffffffffffffffffffffff16021790555090505060405180608001604052808681526020018581526020018473ffffffffffffffffffffffffffffffffffffffff1681526020018373ffffffffffffffffffffffffffffffffffffffff1681525081600101600083600001548152602001908152602001600020600082015181600001556020820151816001019081610c0291906135a2565b5060408201518160020160006101000a81548173ffffffffffffffffffffffffffffffffffffffff021916908373ffffffffffffffffffffffffffffffffffffffff16021790555060608201518160030160006101000a81548173ffffffffffffffffffffffffffffffffffffffff021916908373ffffffffffffffffffffffffffffffffffffffff1602179055509050505050505050565b6000610ca56119d9565b90508060000160003373ffffffffffffffffffffffffffffffffffffffff1673ffffffffffffffffffffffffffffffffffffffff1681526020019081526020016000206000815480929190610cf9906133ae565b919050555050565b610d09612812565b6000610d13611a06565b90506000610d1f6119ac565b905060008260030160008681526020019081526020016000206002015414610d7c576040517f08c379a0000000000000000000000000000000000000000000000000000000008152600401610d73906136c0565b60405180910390fd5b3373ffffffffffffffffffffffffffffffffffffffff1682600201600086815260200190815260200160002060009054906101000a900473ffffffffffffffffffffffffffffffffffffffff1673ffffffffffffffffffffffffffffffffffffffff1614610e1f576040517f08c379a0000000000000000000000000000000000000000000000000000000008152600401610e169061372c565b60405180910390fd5b6064826003016000868152602001908152602001600020600201819055506000826003016000868152602001908152602001600020905060008083600501600088815260200190815260200160002060009054906101000a900460ff16610f4957469150869050600184600501600089815260200190815260200160002060006101000a81548160ff02191690831515021790555086846003016000848152602001908152602001600020600089815260200190815260200160002081905550846003016000888152602001908152602001600020600f0184600401600084815260200190815260200160002060008981526020019081526020016000209081610f299190613777565b508184600601600089815260200190815260200160002081905550610f8b565b83600601600088815260200190815260200160002054915083600301600083815260200190815260200160002060008881526020019081526020016000205490505b6000604051806101c00160405280856019015481526020018560000154815260200185600101548152602001856003015481526020018560040154815260200185600601548152602001856008015481526020018560090154815260200185600e0154815260200184815260200183815260200186600401600086815260200190815260200160002060008b815260200190815260200160002080546110309061334e565b80601f016020809104026020016040519081016040528092919081815260200182805461105c9061334e565b80156110a95780601f1061107e576101008083540402835291602001916110a9565b820191906000526020600020905b81548152906001019060200180831161108c57829003601f168201915b505050505081526020018560110160009054906101000a900460ff16151581526020013373ffffffffffffffffffffffffffffffffffffffff168152509050809650505050505050919050565b6000611100611a06565b9050600061110c6119ac565b9050806009016000815480929190611123906133ae565b91905055508281600801600083600901548152602001908152602001600020600082015181600001556020820151816001015560408201518160020155606082015181600301556080820151816004015560a0820151816005015560c0820151816006015560e082015181600701556101008201518160080155610120820151816009015561014082015181600a015561016082015181600b0190816111c991906135a2565b5061018082015181600c0160006101000a81548160ff0219169083151502179055506101a082015181600c0160016101000a81548173ffffffffffffffffffffffffffffffffffffffff021916908373ffffffffffffffffffffffffffffffffffffffff16021790555090505060008160030160008561012001518152602001908152602001600020600085610140015181526020019081526020016000205411156113d05760008361014001519050600083600301600086610140015181526020019081526020016000206002018190555083602001518360030160008661014001518152602001908152602001600020600001819055508360400151836003016000838152602001908152602001600020600101819055508360600151836003016000838152602001908152602001600020600301819055508360800151836003016000838152602001908152602001600020600401819055508360800151836003016000838152602001908152602001600020600501819055508360a00151836003016000838152602001908152602001600020600601819055508360c00151836003016000838152602001908152602001600020600801819055508360c00151836003016000838152602001908152602001600020600701819055508360e0015183600301600083815260200190815260200160002060090181905550506113da565b6113d983611a33565b5b505050565b6000806113ea6119ac565b905060008160030160008681526020019081526020016000206000858152602001908152602001600020541161142457600191508161142a565b60009150815b505092915050565b60008061143d611a06565b9050806001015491505090565b6114648282604051806020016040528060008152506120a1565b5050565b600080600080600080600061147b6119ac565b90506000611487611a06565b90504682600301600046815260200190815260200160002060008b8152602001908152602001600020548360030160008560060160008e815260200190815260200160002054815260200190815260200160002060008c8152602001908152602001600020548460060160008d81526020019081526020016000205484600101548660050160008f815260200190815260200160002060009054906101000a900460ff16975097509750975097509750505091939550919395565b61154a612812565b60006115546119ac565b9050806008016000848152602001908152602001600020604051806101c001604052908160008201548152602001600182015481526020016002820154815260200160038201548152602001600482015481526020016005820154815260200160068201548152602001600782015481526020016008820154815260200160098201548152602001600a8201548152602001600b820180546115f59061334e565b80601f01602080910402602001604051908101604052809291908181526020018280546116219061334e565b801561166e5780601f106116435761010080835404028352916020019161166e565b820191906000526020600020905b81548152906001019060200180831161165157829003601f168201915b50505050508152602001600c820160009054906101000a900460ff16151515158152602001600c820160019054906101000a900473ffffffffffffffffffffffffffffffffffffffff1673ffffffffffffffffffffffffffffffffffffffff1673ffffffffffffffffffffffffffffffffffffffff1681525050915050919050565b60006116fa6119d9565b9050818160000160008573ffffffffffffffffffffffffffffffffffffffff1673ffffffffffffffffffffffffffffffffffffffff168152602001908152602001600020600082825461174d919061385f565b92505081905550505050565b6117616127be565b600061176b6119ac565b9050806002016000848152602001908152602001600020604051806080016040529081600082015481526020016001820180546117a79061334e565b80601f01602080910402602001604051908101604052809291908181526020018280546117d39061334e565b80156118205780601f106117f557610100808354040283529160200191611820565b820191906000526020600020905b81548152906001019060200180831161180357829003601f168201915b505050505081526020016002820160009054906101000a900473ffffffffffffffffffffffffffffffffffffffff1673ffffffffffffffffffffffffffffffffffffffff1673ffffffffffffffffffffffffffffffffffffffff1681526020016003820160009054906101000a900473ffffffffffffffffffffffffffffffffffffffff1673ffffffffffffffffffffffffffffffffffffffff1673ffffffffffffffffffffffffffffffffffffffff1681525050915050919050565b6000806118e86119ac565b9050806000015491505090565b60006118ff6119d9565b9050818160000160008573ffffffffffffffffffffffffffffffffffffffff1673ffffffffffffffffffffffffffffffffffffffff16815260200190815260200160002054101561194f57600080fd5b818160000160008573ffffffffffffffffffffffffffffffffffffffff1673ffffffffffffffffffffffffffffffffffffffff16815260200190815260200160002060008282546119a09190613893565b92505081905550505050565b6000807f4cde922899fdacbde63ed2c277d08801981412358b79d054d98add0ca65dea1990508091505090565b6000807f2c89d74504b6ad8d4fbde22bc3474166bac5452a11195897f239d8bebe02d70790508091505090565b6000807f3cab9a070a0c61cd0ae9d9e9e2c0781e5ca8691bec4087e5a4701d5ac018dd4e90508091505090565b6000611a3d611a06565b90506000611a496119ac565b9050816001016000815480929190611a60906133ae565b91905055508261014001518160030160008561012001518152602001908152602001600020600084600101548152602001908152602001600020819055508261016001518160040160008561012001518152602001908152602001600020600085610140015181526020019081526020016000209081611ae091906135a2565b5060018160050160008460010154815260200190815260200160002060006101000a81548160ff02191690831515021790555082610120015181600601600084600101548152602001908152602001600020819055506000836101600151611b4b84600101546120fc565b604051602001611b5c92919061394f565b604051602081830303815290604052905060606000856000015103611bc957846101800151611ba657604051806080016040528060438152602001613c6f60439139905080611bc3565b604051806080016040528060438152602001613d38604391399050805b50611c7b565b6001856000015103611c2357846101800151611c0057604051806080016040528060438152602001613cf560439139905080611c1d565b604051806080016040528060438152602001613cb2604391399050805b50611c7a565b6002856000015103611c7957846101800151611c5a57604051806080016040528060438152602001613c2c60439139905080611c77565b604051806080016040528060438152602001613be9604391399050805b505b5b5b6040518061028001604052808660200151815260200186604001518152602001600081526020018660600151815260200186608001518152602001866080015181526020018660a0015181526020018660c0015181526020018660c0015181526020018660e001518152602001600181526020016001815260200160018152602001600181526020018661010001518152602001838152602001828152602001866101800151151581526020016040518060e0016040528060008152602001600081526020016000815260200160008152602001600081526020016000815260200160008152508152602001866000015181525084600301600086600101548152602001908152602001600020600082015181600001556020820151816001015560408201518160020155606082015181600301556080820151816004015560a0820151816005015560c0820151816006015560e082015181600701556101008201518160080155610120820151816009015561014082015181600a015561016082015181600b015561018082015181600c01556101a082015181600d01556101c082015181600e01556101e082015181600f019081611e3b91906135a2565b50610200820151816010019081611e5291906135a2565b506102208201518160110160006101000a81548160ff02191690831515021790555061024082015181601201600082015181600001556020820151816001015560408201518160020155606082015181600301556080820151816004015560a0820151816005015560c08201518160060155505061026082015181601901559050506040518060e00160405280600081526020016000815260200160008152602001600081526020016000815260200160008152602001600081525084600801600086600101548152602001908152602001600020600082015181600001556020820151816001015560408201518160020155606082015181600301556080820151816004015560a0820151816005015560c08201518160060155905050846101a001518460020160008660010154815260200190815260200160002060006101000a81548173ffffffffffffffffffffffffffffffffffffffff021916908373ffffffffffffffffffffffffffffffffffffffff160217905550836007016000866101a0015173ffffffffffffffffffffffffffffffffffffffff1673ffffffffffffffffffffffffffffffffffffffff16815260200190815260200160002084600101549080600181540180825580915050600190039060005260206000200160009091909190915055836004016000866101a0015173ffffffffffffffffffffffffffffffffffffffff1673ffffffffffffffffffffffffffffffffffffffff1681526020019081526020016000206000815480929190612095906133ae565b91905055505050505050565b6120ab83836121ca565b6120b860008484846123f9565b6120f7576040517f08c379a00000000000000000000000000000000000000000000000000000000081526004016120ee906139f0565b60405180910390fd5b505050565b60606000600161210b84612580565b01905060008167ffffffffffffffff81111561212a57612129612a7f565b5b6040519080825280601f01601f19166020018201604052801561215c5781602001600182028036833780820191505090505b509050600082602001820190505b6001156121bf578080600190039150507f3031323334353637383961626364656600000000000000000000000000000000600a86061a8153600a85816121b3576121b2613a10565b5b0494506000850361216a575b819350505050919050565b600073ffffffffffffffffffffffffffffffffffffffff168273ffffffffffffffffffffffffffffffffffffffff1603612239576040517f08c379a000000000000000000000000000000000000000000000000000000000815260040161223090613a8b565b60405180910390fd5b612242816126d3565b15612282576040517f08c379a000000000000000000000000000000000000000000000000000000000815260040161227990613af7565b60405180910390fd5b612290600083836001612714565b612299816126d3565b156122d9576040517f08c379a00000000000000000000000000000000000000000000000000000000081526004016122d090613af7565b60405180910390fd5b60016122e361271a565b600a0160008473ffffffffffffffffffffffffffffffffffffffff1673ffffffffffffffffffffffffffffffffffffffff168152602001908152602001600020600082825401925050819055508161233961271a565b600901600083815260200190815260200160002060006101000a81548173ffffffffffffffffffffffffffffffffffffffff021916908373ffffffffffffffffffffffffffffffffffffffff160217905550808273ffffffffffffffffffffffffffffffffffffffff16600073ffffffffffffffffffffffffffffffffffffffff167fddf252ad1be2c89b69c2b068fc378daa952ba7f163c4a11628f55a4df523b3ef60405160405180910390a46123f5600083836001612747565b5050565b600061241a8473ffffffffffffffffffffffffffffffffffffffff1661274d565b15612573578373ffffffffffffffffffffffffffffffffffffffff1663150b7a02612443612770565b8786866040518563ffffffff1660e01b81526004016124659493929190613b17565b6020604051808303816000875af19250505080156124a157506040513d601f19601f8201168201806040525081019061249e9190613bbb565b60015b612523573d80600081146124d1576040519150601f19603f3d011682016040523d82523d6000602084013e6124d6565b606091505b50600081510361251b576040517f08c379a0000000000000000000000000000000000000000000000000000000008152600401612512906139f0565b60405180910390fd5b805181602001fd5b63150b7a0260e01b7bffffffffffffffffffffffffffffffffffffffffffffffffffffffff1916817bffffffffffffffffffffffffffffffffffffffffffffffffffffffff191614915050612578565b600190505b949350505050565b600080600090507a184f03e93ff9f4daa797ed6e38ed64bf6a1f01000000000000000083106125de577a184f03e93ff9f4daa797ed6e38ed64bf6a1f01000000000000000083816125d4576125d3613a10565b5b0492506040810190505b6d04ee2d6d415b85acef8100000000831061261b576d04ee2d6d415b85acef8100000000838161261157612610613a10565b5b0492506020810190505b662386f26fc10000831061264a57662386f26fc1000083816126405761263f613a10565b5b0492506010810190505b6305f5e1008310612673576305f5e100838161266957612668613a10565b5b0492506008810190505b612710831061269857612710838161268e5761268d613a10565b5b0492506004810190505b606483106126bb57606483816126b1576126b0613a10565b5b0492506002810190505b600a83106126ca576001810190505b80915050919050565b60008073ffffffffffffffffffffffffffffffffffffffff166126f583612778565b73ffffffffffffffffffffffffffffffffffffffff1614159050919050565b50505050565b6000807f2569078dfb4b0305704d3008e7403993ae9601b85f7ae5e742de3de8f8011c4090508091505090565b50505050565b6000808273ffffffffffffffffffffffffffffffffffffffff163b119050919050565b600033905090565b600061278261271a565b600901600083815260200190815260200160002060009054906101000a900473ffffffffffffffffffffffffffffffffffffffff169050919050565b60405180608001604052806000815260200160608152602001600073ffffffffffffffffffffffffffffffffffffffff168152602001600073ffffffffffffffffffffffffffffffffffffffff1681525090565b604051806101c00160405280600081526020016000815260200160008152602001600081526020016000815260200160008152602001600081526020016000815260200160008152602001600081526020016000815260200160608152602001600015158152602001600073ffffffffffffffffffffffffffffffffffffffff1681525090565b6000604051905090565b600080fd5b600080fd5b6000819050919050565b6128c0816128ad565b81146128cb57600080fd5b50565b6000813590506128dd816128b7565b92915050565b6000602082840312156128f9576128f86128a3565b5b6000612907848285016128ce565b91505092915050565b612919816128ad565b82525050565b600081519050919050565b600082825260208201905092915050565b60005b8381101561295957808201518184015260208101905061293e565b60008484015250505050565b6000601f19601f8301169050919050565b60006129818261291f565b61298b818561292a565b935061299b81856020860161293b565b6129a481612965565b840191505092915050565b600073ffffffffffffffffffffffffffffffffffffffff82169050919050565b60006129da826129af565b9050919050565b6129ea816129cf565b82525050565b6000608083016000830151612a086000860182612910565b5060208301518482036020860152612a208282612976565b9150506040830151612a3560408601826129e1565b506060830151612a4860608601826129e1565b508091505092915050565b60006020820190508181036000830152612a6d81846129f0565b905092915050565b600080fd5b600080fd5b7f4e487b7100000000000000000000000000000000000000000000000000000000600052604160045260246000fd5b612ab782612965565b810181811067ffffffffffffffff82111715612ad657612ad5612a7f565b5b80604052505050565b6000612ae9612899565b9050612af58282612aae565b919050565b600067ffffffffffffffff821115612b1557612b14612a7f565b5b612b1e82612965565b9050602081019050919050565b82818337600083830152505050565b6000612b4d612b4884612afa565b612adf565b905082815260208101848484011115612b6957612b68612a7a565b5b612b74848285612b2b565b509392505050565b600082601f830112612b9157612b90612a75565b5b8135612ba1848260208601612b3a565b91505092915050565b612bb3816129cf565b8114612bbe57600080fd5b50565b600081359050612bd081612baa565b92915050565b60008060008060808587031215612bf057612bef6128a3565b5b6000612bfe878288016128ce565b945050602085013567ffffffffffffffff811115612c1f57612c1e6128a8565b5b612c2b87828801612b7c565b9350506040612c3c87828801612bc1565b9250506060612c4d87828801612bc1565b91505092959194509250565b60008060408385031215612c7057612c6f6128a3565b5b6000612c7e858286016128ce565b9250506020612c8f858286016128ce565b9150509250929050565b600080fd5b600080fd5b60008115159050919050565b612cb881612ca3565b8114612cc357600080fd5b50565b600081359050612cd581612caf565b92915050565b60006101c08284031215612cf257612cf1612c99565b5b612cfd6101c0612adf565b90506000612d0d848285016128ce565b6000830152506020612d21848285016128ce565b6020830152506040612d35848285016128ce565b6040830152506060612d49848285016128ce565b6060830152506080612d5d848285016128ce565b60808301525060a0612d71848285016128ce565b60a08301525060c0612d85848285016128ce565b60c08301525060e0612d99848285016128ce565b60e083015250610100612dae848285016128ce565b61010083015250610120612dc4848285016128ce565b61012083015250610140612dda848285016128ce565b6101408301525061016082013567ffffffffffffffff811115612e0057612dff612c9e565b5b612e0c84828501612b7c565b61016083015250610180612e2284828501612cc6565b610180830152506101a0612e3884828501612bc1565b6101a08301525092915050565b600060208284031215612e5b57612e5a6128a3565b5b600082013567ffffffffffffffff811115612e7957612e786128a8565b5b612e8584828501612cdb565b91505092915050565b612e97816128ad565b82525050565b612ea681612ca3565b82525050565b600060c082019050612ec16000830189612e8e565b612ece6020830188612e8e565b612edb6040830187612e8e565b612ee86060830186612e8e565b612ef56080830185612e8e565b612f0260a0830184612e9d565b979650505050505050565b612f1681612ca3565b82525050565b60006101c083016000830151612f356000860182612910565b506020830151612f486020860182612910565b506040830151612f5b6040860182612910565b506060830151612f6e6060860182612910565b506080830151612f816080860182612910565b5060a0830151612f9460a0860182612910565b5060c0830151612fa760c0860182612910565b5060e0830151612fba60e0860182612910565b50610100830151612fcf610100860182612910565b50610120830151612fe4610120860182612910565b50610140830151612ff9610140860182612910565b506101608301518482036101608601526130138282612976565b91505061018083015161302a610180860182612f0d565b506101a083015161303f6101a08601826129e1565b508091505092915050565b600060208201905081810360008301526130648184612f1c565b905092915050565b60006040828403121561308257613081612c99565b5b61308c6040612adf565b9050600061309c84828501612bc1565b60008301525060206130b0848285016128ce565b60208301525092915050565b6000604082840312156130d2576130d16128a3565b5b60006130e08482850161306c565b91505092915050565b600080600060608486031215613102576131016128a3565b5b6000613110868287016128ce565b935050602084013567ffffffffffffffff811115613131576131306128a8565b5b61313d86828701612b7c565b925050604061314e86828701612bc1565b9150509250925092565b600060208201905061316d6000830184612e8e565b92915050565b60008060006060848603121561318c5761318b6128a3565b5b600084013567ffffffffffffffff8111156131aa576131a96128a8565b5b6131b686828701612b7c565b93505060206131c786828701612bc1565b92505060406131d8868287016128ce565b9150509250925092565b600082825260208201905092915050565b60006131fe8261291f565b61320881856131e2565b935061321881856020860161293b565b61322181612965565b840191505092915050565b613235816129cf565b82525050565b600081519050919050565b600082825260208201905092915050565b60006132628261323b565b61326c8185613246565b935061327c81856020860161293b565b61328581612965565b840191505092915050565b600060608201905081810360008301526132aa81866131f3565b90506132b9602083018561322c565b81810360408301526132cb8184613257565b9050949350505050565b6040820160008201516132eb60008501826129e1565b5060208201516132fe6020850182612910565b50505050565b600060408201905061331960008301846132d5565b92915050565b7f4e487b7100000000000000000000000000000000000000000000000000000000600052602260045260246000fd5b6000600282049050600182168061336657607f821691505b6020821081036133795761337861331f565b5b50919050565b7f4e487b7100000000000000000000000000000000000000000000000000000000600052601160045260246000fd5b60006133b9826128ad565b91507fffffffffffffffffffffffffffffffffffffffffffffffffffffffffffffffff82036133eb576133ea61337f565b5b600182019050919050565b60008190508160005260206000209050919050565b60006020601f8301049050919050565b600082821b905092915050565b6000600883026134587fffffffffffffffffffffffffffffffffffffffffffffffffffffffffffffffff8261341b565b613462868361341b565b95508019841693508086168417925050509392505050565b6000819050919050565b600061349f61349a613495846128ad565b61347a565b6128ad565b9050919050565b6000819050919050565b6134b983613484565b6134cd6134c5826134a6565b848454613428565b825550505050565b600090565b6134e26134d5565b6134ed8184846134b0565b505050565b5b81811015613511576135066000826134da565b6001810190506134f3565b5050565b601f82111561355657613527816133f6565b6135308461340b565b8101602085101561353f578190505b61355361354b8561340b565b8301826134f2565b50505b505050565b600082821c905092915050565b60006135796000198460080261355b565b1980831691505092915050565b60006135928383613568565b9150826002028217905092915050565b6135ab8261291f565b67ffffffffffffffff8111156135c4576135c3612a7f565b5b6135ce825461334e565b6135d9828285613515565b600060209050601f83116001811461360c57600084156135fa578287015190505b6136048582613586565b86555061366c565b601f19841661361a866133f6565b60005b828110156136425784890151825560018201915060208501945060208101905061361d565b8683101561365f578489015161365b601f891682613568565b8355505b6001600288020188555050505b505050505050565b7f796f7520617265206e6f742069646c6500000000000000000000000000000000600082015250565b60006136aa6010836131e2565b91506136b582613674565b602082019050919050565b600060208201905081810360008301526136d98161369d565b9050919050565b7f796f7520617265206e6f7420746865206f776e65720000000000000000000000600082015250565b60006137166015836131e2565b9150613721826136e0565b602082019050919050565b6000602082019050818103600083015261374581613709565b9050919050565b60008154905061375b8161334e565b9050919050565b60008190508160005260206000209050919050565b81810361378557505061385d565b61378e8261374c565b67ffffffffffffffff8111156137a7576137a6612a7f565b5b6137b1825461334e565b6137bc828285613515565b6000601f8311600181146137eb57600084156137d9578287015490505b6137e38582613586565b865550613856565b601f1984166137f987613762565b9650613804866133f6565b60005b8281101561382c57848901548255600182019150600185019450602081019050613807565b868310156138495784890154613845601f891682613568565b8355505b6001600288020188555050505b5050505050505b565b600061386a826128ad565b9150613875836128ad565b925082820190508082111561388d5761388c61337f565b5b92915050565b600061389e826128ad565b91506138a9836128ad565b92508282039050818111156138c1576138c061337f565b5b92915050565b600081905092915050565b60006138dd8261291f565b6138e781856138c7565b93506138f781856020860161293b565b80840191505092915050565b7f2d00000000000000000000000000000000000000000000000000000000000000600082015250565b60006139396001836138c7565b915061394482613903565b600182019050919050565b600061395b82856138d2565b91506139668261392c565b915061397282846138d2565b91508190509392505050565b7f4552433732313a207472616e7366657220746f206e6f6e20455243373231526560008201527f63656976657220696d706c656d656e7465720000000000000000000000000000602082015250565b60006139da6032836131e2565b91506139e58261397e565b604082019050919050565b60006020820190508181036000830152613a09816139cd565b9050919050565b7f4e487b7100000000000000000000000000000000000000000000000000000000600052601260045260246000fd5b7f4552433732313a206d696e7420746f20746865207a65726f2061646472657373600082015250565b6000613a756020836131e2565b9150613a8082613a3f565b602082019050919050565b60006020820190508181036000830152613aa481613a68565b9050919050565b7f4552433732313a20746f6b656e20616c7265616479206d696e74656400000000600082015250565b6000613ae1601c836131e2565b9150613aec82613aab565b602082019050919050565b60006020820190508181036000830152613b1081613ad4565b9050919050565b6000608082019050613b2c600083018761322c565b613b39602083018661322c565b613b466040830185612e8e565b8181036060830152613b588184613257565b905095945050505050565b60007fffffffff0000000000000000000000000000000000000000000000000000000082169050919050565b613b9881613b63565b8114613ba357600080fd5b50565b600081519050613bb581613b8f565b92915050565b600060208284031215613bd157613bd06128a3565b5b6000613bdf84828501613ba6565b9150509291505056fe68747470733a2f2f697066732e696f2f697066732f516d556257785564387358344d5a6f6a4b455255506d507539597441596659726f425334546531484a454b75637968747470733a2f2f697066732e696f2f697066732f516d625641427439734b704e55613844674d4a64653344424351796f72534354395631447a6436634a385a556d5068747470733a2f2f697066732e696f2f697066732f516d66424e4870787077554e67747736695842784b584c6256786f6d386d7064427367715a5a79353970524d354368747470733a2f2f697066732e696f2f697066732f516d5158655965397278526b6b716645423744725a52534732533179724e676a363456386d3676374b65747a516468747470733a2f2f697066732e696f2f697066732f516d55715a4b5275646e616e673147586244326e4848776d4a664e4e42465156646d6f483857416e65616969356868747470733a2f2f697066732e696f2f697066732f516d56357053734d47474d4c5733593979513871534c534d4451616b646e6a686a53346b356865366d4a79506548a26469706673582212203b5181f5f0b09c46d4485511662e68027cf18fc93d7df2cc1bdbc800e81e14da64736f6c63430008120033",
  "linkReferences": {},
  "deployedLinkReferences": {}
}