{
  "_format": "hh-sol-artifact-1",
  "contractName": "BridgeFacet",
  "sourceName": "contracts/facets/BridgeFacet.sol",
  "abi": [
    {
      "anonymous": false,
      "inputs": [
        {
          "indexed": true,
          "internalType": "address",
          "name": "owner",
          "type": "address"
        },
        {
          "indexed": true,
          "internalType": "address",
          "name": "approved",
          "type": "address"
        },
        {
          "indexed": true,
          "internalType": "uint256",
          "name": "tokenId",
          "type": "uint256"
        }
      ],
      "name": "Approval",
      "type": "event"
    },
    {
      "anonymous": false,
      "inputs": [
        {
          "indexed": true,
          "internalType": "address",
          "name": "owner",
          "type": "address"
        },
        {
          "indexed": true,
          "internalType": "address",
          "name": "operator",
          "type": "address"
        },
        {
          "indexed": false,
          "internalType": "bool",
          "name": "approved",
          "type": "bool"
        }
      ],
      "name": "ApprovalForAll",
      "type": "event"
    },
    {
      "anonymous": false,
      "inputs": [
        {
          "indexed": true,
          "internalType": "uint256",
          "name": "_chainId",
          "type": "uint256"
        },
        {
          "indexed": true,
          "internalType": "address",
          "name": "_portal",
          "type": "address"
        },
        {
          "indexed": true,
          "internalType": "address",
          "name": "_diamond",
          "type": "address"
        }
      ],
      "name": "BridgeCreated",
      "type": "event"
    },
    {
      "anonymous": false,
      "inputs": [
        {
          "indexed": true,
          "internalType": "uint256",
          "name": "_playerId",
          "type": "uint256"
        },
        {
          "components": [
            {
              "internalType": "uint256",
              "name": "class",
              "type": "uint256"
            },
            {
              "internalType": "uint256",
              "name": "level",
              "type": "uint256"
            },
            {
              "internalType": "uint256",
              "name": "xp",
              "type": "uint256"
            },
            {
              "internalType": "uint256",
              "name": "strength",
              "type": "uint256"
            },
            {
              "internalType": "uint256",
              "name": "health",
              "type": "uint256"
            },
            {
              "internalType": "uint256",
              "name": "magic",
              "type": "uint256"
            },
            {
              "internalType": "uint256",
              "name": "maxMana",
              "type": "uint256"
            },
            {
              "internalType": "uint256",
              "name": "agility",
              "type": "uint256"
            },
            {
              "internalType": "uint256",
              "name": "defense",
              "type": "uint256"
            },
            {
              "internalType": "uint256",
              "name": "baseChain",
              "type": "uint256"
            },
            {
              "internalType": "uint256",
              "name": "baseId",
              "type": "uint256"
            },
            {
              "internalType": "string",
              "name": "name",
              "type": "string"
            },
            {
              "internalType": "bool",
              "name": "isMale",
              "type": "bool"
            },
            {
              "internalType": "address",
              "name": "sender",
              "type": "address"
            }
          ],
          "indexed": false,
          "internalType": "struct BridgeFormat",
          "name": "_format",
          "type": "tuple"
        }
      ],
      "name": "BridgePlayer",
      "type": "event"
    },
    {
      "anonymous": false,
      "inputs": [
        {
          "indexed": true,
          "internalType": "uint256",
          "name": "_playerId",
          "type": "uint256"
        },
        {
          "components": [
            {
              "internalType": "uint256",
              "name": "class",
              "type": "uint256"
            },
            {
              "internalType": "uint256",
              "name": "level",
              "type": "uint256"
            },
            {
              "internalType": "uint256",
              "name": "xp",
              "type": "uint256"
            },
            {
              "internalType": "uint256",
              "name": "strength",
              "type": "uint256"
            },
            {
              "internalType": "uint256",
              "name": "health",
              "type": "uint256"
            },
            {
              "internalType": "uint256",
              "name": "magic",
              "type": "uint256"
            },
            {
              "internalType": "uint256",
              "name": "maxMana",
              "type": "uint256"
            },
            {
              "internalType": "uint256",
              "name": "agility",
              "type": "uint256"
            },
            {
              "internalType": "uint256",
              "name": "defense",
              "type": "uint256"
            },
            {
              "internalType": "uint256",
              "name": "baseChain",
              "type": "uint256"
            },
            {
              "internalType": "uint256",
              "name": "baseId",
              "type": "uint256"
            },
            {
              "internalType": "string",
              "name": "name",
              "type": "string"
            },
            {
              "internalType": "bool",
              "name": "isMale",
              "type": "bool"
            },
            {
              "internalType": "address",
              "name": "sender",
              "type": "address"
            }
          ],
          "indexed": false,
          "internalType": "struct BridgeFormat",
          "name": "_format",
          "type": "tuple"
        }
      ],
      "name": "ReMintPlayer",
      "type": "event"
    },
    {
      "anonymous": false,
      "inputs": [
        {
          "indexed": true,
          "internalType": "address",
          "name": "_sender",
          "type": "address"
        },
        {
          "indexed": true,
          "internalType": "uint256",
          "name": "_amount",
          "type": "uint256"
        }
      ],
      "name": "ReceiveGold",
      "type": "event"
    },
    {
      "anonymous": false,
      "inputs": [
        {
          "indexed": true,
          "internalType": "address",
          "name": "_sender",
          "type": "address"
        },
        {
          "indexed": true,
          "internalType": "uint256",
          "name": "_amount",
          "type": "uint256"
        }
      ],
      "name": "SendGold",
      "type": "event"
    },
    {
      "anonymous": false,
      "inputs": [
        {
          "indexed": true,
          "internalType": "address",
          "name": "from",
          "type": "address"
        },
        {
          "indexed": true,
          "internalType": "address",
          "name": "to",
          "type": "address"
        },
        {
          "indexed": true,
          "internalType": "uint256",
          "name": "tokenId",
          "type": "uint256"
        }
      ],
      "name": "Transfer",
      "type": "event"
    },
    {
      "anonymous": false,
      "inputs": [
        {
          "indexed": true,
          "internalType": "uint256",
          "name": "_playerId",
          "type": "uint256"
        },
        {
          "components": [
            {
              "internalType": "uint256",
              "name": "class",
              "type": "uint256"
            },
            {
              "internalType": "uint256",
              "name": "level",
              "type": "uint256"
            },
            {
              "internalType": "uint256",
              "name": "xp",
              "type": "uint256"
            },
            {
              "internalType": "uint256",
              "name": "strength",
              "type": "uint256"
            },
            {
              "internalType": "uint256",
              "name": "health",
              "type": "uint256"
            },
            {
              "internalType": "uint256",
              "name": "magic",
              "type": "uint256"
            },
            {
              "internalType": "uint256",
              "name": "maxMana",
              "type": "uint256"
            },
            {
              "internalType": "uint256",
              "name": "agility",
              "type": "uint256"
            },
            {
              "internalType": "uint256",
              "name": "defense",
              "type": "uint256"
            },
            {
              "internalType": "uint256",
              "name": "baseChain",
              "type": "uint256"
            },
            {
              "internalType": "uint256",
              "name": "baseId",
              "type": "uint256"
            },
            {
              "internalType": "string",
              "name": "name",
              "type": "string"
            },
            {
              "internalType": "bool",
              "name": "isMale",
              "type": "bool"
            },
            {
              "internalType": "address",
              "name": "sender",
              "type": "address"
            }
          ],
          "indexed": false,
          "internalType": "struct BridgeFormat",
          "name": "_format",
          "type": "tuple"
        }
      ],
      "name": "UnFreezePlayer",
      "type": "event"
    },
    {
      "inputs": [
        {
          "internalType": "string",
          "name": "_chain",
          "type": "string"
        },
        {
          "internalType": "address",
          "name": "_contract",
          "type": "address"
        },
        {
          "internalType": "uint256",
          "name": "_amount",
          "type": "uint256"
        }
      ],
      "name": "bridgeGold",
      "outputs": [],
      "stateMutability": "nonpayable",
      "type": "function"
    },
    {
      "inputs": [
        {
          "internalType": "uint256",
          "name": "_playerId",
          "type": "uint256"
        },
        {
          "internalType": "uint256",
          "name": "_chainCountId",
          "type": "uint256"
        }
      ],
      "name": "bridgePlayer",
      "outputs": [],
      "stateMutability": "nonpayable",
      "type": "function"
    },
    {
      "inputs": [
        {
          "internalType": "uint256",
          "name": "_playerId",
          "type": "uint256"
        },
        {
          "internalType": "string",
          "name": "_chain",
          "type": "string"
        },
        {
          "internalType": "address",
          "name": "_contract",
          "type": "address"
        }
      ],
      "name": "bridgePlayerTest",
      "outputs": [],
      "stateMutability": "nonpayable",
      "type": "function"
    },
    {
      "inputs": [
        {
          "internalType": "uint256",
          "name": "_chainId",
          "type": "uint256"
        },
        {
          "internalType": "string",
          "name": "_name",
          "type": "string"
        },
        {
          "internalType": "address",
          "name": "_portal",
          "type": "address"
        },
        {
          "internalType": "address",
          "name": "_diamond",
          "type": "address"
        }
      ],
      "name": "createBridge",
      "outputs": [],
      "stateMutability": "nonpayable",
      "type": "function"
    },
    {
      "inputs": [],
      "name": "freeGold",
      "outputs": [],
      "stateMutability": "nonpayable",
      "type": "function"
    },
    {
      "inputs": [],
      "name": "getChainCount",
      "outputs": [
        {
          "internalType": "uint256",
          "name": "",
          "type": "uint256"
        }
      ],
      "stateMutability": "view",
      "type": "function"
    },
    {
      "inputs": [
        {
          "internalType": "uint256",
          "name": "_chainId",
          "type": "uint256"
        }
      ],
      "name": "getChainData",
      "outputs": [
        {
          "components": [
            {
              "internalType": "uint256",
              "name": "chainId",
              "type": "uint256"
            },
            {
              "internalType": "string",
              "name": "name",
              "type": "string"
            },
            {
              "internalType": "address",
              "name": "portal",
              "type": "address"
            },
            {
              "internalType": "address",
              "name": "diamond",
              "type": "address"
            }
          ],
          "internalType": "struct ChainData",
          "name": "",
          "type": "tuple"
        }
      ],
      "stateMutability": "view",
      "type": "function"
    },
    {
      "inputs": [
        {
          "internalType": "uint256",
          "name": "_chainCountId",
          "type": "uint256"
        }
      ],
      "name": "getChainDataByCountId",
      "outputs": [
        {
          "components": [
            {
              "internalType": "uint256",
              "name": "chainId",
              "type": "uint256"
            },
            {
              "internalType": "string",
              "name": "name",
              "type": "string"
            },
            {
              "internalType": "address",
              "name": "portal",
              "type": "address"
            },
            {
              "internalType": "address",
              "name": "diamond",
              "type": "address"
            }
          ],
          "internalType": "struct ChainData",
          "name": "",
          "type": "tuple"
        }
      ],
      "stateMutability": "view",
      "type": "function"
    },
    {
      "inputs": [
        {
          "internalType": "uint256",
          "name": "_id",
          "type": "uint256"
        }
      ],
      "name": "getFormat",
      "outputs": [
        {
          "components": [
            {
              "internalType": "uint256",
              "name": "class",
              "type": "uint256"
            },
            {
              "internalType": "uint256",
              "name": "level",
              "type": "uint256"
            },
            {
              "internalType": "uint256",
              "name": "xp",
              "type": "uint256"
            },
            {
              "internalType": "uint256",
              "name": "strength",
              "type": "uint256"
            },
            {
              "internalType": "uint256",
              "name": "health",
              "type": "uint256"
            },
            {
              "internalType": "uint256",
              "name": "magic",
              "type": "uint256"
            },
            {
              "internalType": "uint256",
              "name": "maxMana",
              "type": "uint256"
            },
            {
              "internalType": "uint256",
              "name": "agility",
              "type": "uint256"
            },
            {
              "internalType": "uint256",
              "name": "defense",
              "type": "uint256"
            },
            {
              "internalType": "uint256",
              "name": "baseChain",
              "type": "uint256"
            },
            {
              "internalType": "uint256",
              "name": "baseId",
              "type": "uint256"
            },
            {
              "internalType": "string",
              "name": "name",
              "type": "string"
            },
            {
              "internalType": "bool",
              "name": "isMale",
              "type": "bool"
            },
            {
              "internalType": "address",
              "name": "sender",
              "type": "address"
            }
          ],
          "internalType": "struct BridgeFormat",
          "name": "",
          "type": "tuple"
        }
      ],
      "stateMutability": "view",
      "type": "function"
    },
    {
      "inputs": [
        {
          "components": [
            {
              "internalType": "uint256",
              "name": "class",
              "type": "uint256"
            },
            {
              "internalType": "uint256",
              "name": "level",
              "type": "uint256"
            },
            {
              "internalType": "uint256",
              "name": "xp",
              "type": "uint256"
            },
            {
              "internalType": "uint256",
              "name": "strength",
              "type": "uint256"
            },
            {
              "internalType": "uint256",
              "name": "health",
              "type": "uint256"
            },
            {
              "internalType": "uint256",
              "name": "magic",
              "type": "uint256"
            },
            {
              "internalType": "uint256",
              "name": "maxMana",
              "type": "uint256"
            },
            {
              "internalType": "uint256",
              "name": "agility",
              "type": "uint256"
            },
            {
              "internalType": "uint256",
              "name": "defense",
              "type": "uint256"
            },
            {
              "internalType": "uint256",
              "name": "baseChain",
              "type": "uint256"
            },
            {
              "internalType": "uint256",
              "name": "baseId",
              "type": "uint256"
            },
            {
              "internalType": "string",
              "name": "name",
              "type": "string"
            },
            {
              "internalType": "bool",
              "name": "isMale",
              "type": "bool"
            },
            {
              "internalType": "address",
              "name": "sender",
              "type": "address"
            }
          ],
          "internalType": "struct BridgeFormat",
          "name": "_format",
          "type": "tuple"
        }
      ],
      "name": "reMintPlayer",
      "outputs": [],
      "stateMutability": "nonpayable",
      "type": "function"
    },
    {
      "inputs": [
        {
          "components": [
            {
              "internalType": "address",
              "name": "sender",
              "type": "address"
            },
            {
              "internalType": "uint256",
              "name": "amount",
              "type": "uint256"
            }
          ],
          "internalType": "struct BridgegeCoinFormat",
          "name": "_format",
          "type": "tuple"
        }
      ],
      "name": "receiveGold",
      "outputs": [],
      "stateMutability": "nonpayable",
      "type": "function"
    },
    {
      "inputs": [
        {
          "internalType": "uint256",
          "name": "_playerId",
          "type": "uint256"
        }
      ],
      "name": "sanityCheck",
      "outputs": [
        {
          "internalType": "uint256",
          "name": "",
          "type": "uint256"
        },
        {
          "internalType": "uint256",
          "name": "",
          "type": "uint256"
        },
        {
          "internalType": "uint256",
          "name": "",
          "type": "uint256"
        },
        {
          "internalType": "uint256",
          "name": "",
          "type": "uint256"
        },
        {
          "internalType": "uint256",
          "name": "",
          "type": "uint256"
        },
        {
          "internalType": "bool",
          "name": "",
          "type": "bool"
        }
      ],
      "stateMutability": "view",
      "type": "function"
    }
  ],
  "bytecode": "0x608060405234801561001057600080fd5b50613dcf806100206000396000f3fe608060405234801561001057600080fd5b50600436106100b45760003560e01c80638ee7f6cb116100715780638ee7f6cb1461017c57806390601da3146101ac578063aeb45f01146101c8578063c3e4f9c2146101f8578063d25d23bd14610214578063feea35c914610232576100b4565b80630183d1e6146100b957806303f256ec146100e957806333f453af14610105578063537ce6151461010f57806354250a131461012b578063763b4ef014610147575b600080fd5b6100d360048036038101906100ce9190612902565b61024e565b6040516100e09190612a72565b60405180910390f35b61010360048036038101906100fe9190612bf5565b610266565b005b61010d6102d3565b005b61012960048036038101906101249190612c78565b6102dd565b005b61014560048036038101906101409190612e64565b610443565b005b610161600480360381019061015c9190612902565b6104ff565b60405161017396959493929190612ecb565b60405180910390f35b61019660048036038101906101919190612902565b610526565b6040516101a39190613069565b60405180910390f35b6101c660048036038101906101c191906130db565b61053e565b005b6101e260048036038101906101dd9190612902565b61059f565b6040516101ef9190612a72565b60405180910390f35b610212600480360381019061020d9190613108565b6105b7565b005b61021c610718565b6040516102299190613177565b60405180910390f35b61024c60048036038101906102479190613192565b610727565b005b6102566127dd565b61025f826108c0565b9050919050565b61027284848484610a44565b8073ffffffffffffffffffffffffffffffffffffffff168273ffffffffffffffffffffffffffffffffffffffff16857f924c77d15e16cd31a7b4457de58065af652bd3178fe5f5f2ff801196f030fe7860405160405180910390a450505050565b6102db610c9b565b565b60006102e88261024e565b905060008160400151905060006102fe85610d01565b90508173ffffffffffffffffffffffffffffffffffffffff16637f2d905b84602001518560600151846040516024016103379190613069565b6040516020818303038152906040527f54250a13000000000000000000000000000000000000000000000000000000007bffffffffffffffffffffffffffffffffffffffffffffffffffffffff19166020820180517bffffffffffffffffffffffffffffffffffffffffffffffffffffffff83818316178352505050506040518463ffffffff1660e01b81526004016103d2939291906132af565b600060405180830381600087803b1580156103ec57600080fd5b505af1158015610400573d6000803e3d6000fd5b50505050847f602103799a7c20f1b0af9606ecee1173039b639af978bf3755ef5db1a5209a6f826040516104349190613069565b60405180910390a25050505050565b61044c816110f6565b6104608161012001518261014001516113fe565b156104be57600061046f611451565b9050610480826101a0015182611469565b807f038153a05f584c8a013d995510cb2a343c79259d90c1104781032846799cedbf836040516104b09190613069565b60405180910390a2506104fc565b8061014001517f63eab96f65d1507cf3ccfa424a7be2c0571365e7bbb8f4a1d86fc90e7727fa42826040516104f39190613069565b60405180910390a25b50565b60008060008060008061051187611487565b95509550955095509550955091939550919395565b61052e612831565b61053782611561565b9050919050565b6105508160000151826020015161170f565b8060200151816000015173ffffffffffffffffffffffffffffffffffffffff167f2974932ea8347b7507a8cb3888088a5db0692804c1592c993279b17e7fa7d7f260405160405180910390a350565b6105a76127dd565b6105b082611778565b9050919050565b600073cbbc5da52ea2728279560dca8f4ec08d5f829985905060006105db85610d01565b90508173ffffffffffffffffffffffffffffffffffffffff16637f2d905b85858460405160240161060c9190613069565b6040516020818303038152906040527f54250a13000000000000000000000000000000000000000000000000000000007bffffffffffffffffffffffffffffffffffffffffffffffffffffffff19166020820180517bffffffffffffffffffffffffffffffffffffffffffffffffffffffff83818316178352505050506040518463ffffffff1660e01b81526004016106a7939291906132af565b600060405180830381600087803b1580156106c157600080fd5b505af11580156106d5573d6000803e3d6000fd5b50505050847f602103799a7c20f1b0af9606ecee1173039b639af978bf3755ef5db1a5209a6f826040516107099190613069565b60405180910390a25050505050565b60006107226118fc565b905090565b600073cbbc5da52ea2728279560dca8f4ec08d5f8299859050600060405180604001604052803373ffffffffffffffffffffffffffffffffffffffff1681526020018481525090508173ffffffffffffffffffffffffffffffffffffffff16637f2d905b86868460405160240161079e9190613323565b6040516020818303038152906040527f90601da3000000000000000000000000000000000000000000000000000000007bffffffffffffffffffffffffffffffffffffffffffffffffffffffff19166020820180517bffffffffffffffffffffffffffffffffffffffffffffffffffffffff83818316178352505050506040518463ffffffff1660e01b8152600401610839939291906132af565b600060405180830381600087803b15801561085357600080fd5b505af1158015610867573d6000803e3d6000fd5b505050506108753384611914565b823373ffffffffffffffffffffffffffffffffffffffff167f639a1c2428edca612d7aa6a0f09df35033766e9b8578f6db38659900e23abf7260405160405180910390a35050505050565b6108c86127dd565b60006108d26119cb565b90508060010160008481526020019081526020016000206040518060800160405290816000820154815260200160018201805461090e9061336d565b80601f016020809104026020016040519081016040528092919081815260200182805461093a9061336d565b80156109875780601f1061095c57610100808354040283529160200191610987565b820191906000526020600020905b81548152906001019060200180831161096a57829003601f168201915b505050505081526020016002820160009054906101000a900473ffffffffffffffffffffffffffffffffffffffff1673ffffffffffffffffffffffffffffffffffffffff1673ffffffffffffffffffffffffffffffffffffffff1681526020016003820160009054906101000a900473ffffffffffffffffffffffffffffffffffffffff1673ffffffffffffffffffffffffffffffffffffffff1673ffffffffffffffffffffffffffffffffffffffff1681525050915050919050565b6000610a4e6119cb565b9050806000016000815480929190610a65906133cd565b919050555060405180608001604052808681526020018581526020018473ffffffffffffffffffffffffffffffffffffffff1681526020018373ffffffffffffffffffffffffffffffffffffffff16815250816002016000878152602001908152602001600020600082015181600001556020820151816001019081610aeb91906135c1565b5060408201518160020160006101000a81548173ffffffffffffffffffffffffffffffffffffffff021916908373ffffffffffffffffffffffffffffffffffffffff16021790555060608201518160030160006101000a81548173ffffffffffffffffffffffffffffffffffffffff021916908373ffffffffffffffffffffffffffffffffffffffff16021790555090505060405180608001604052808681526020018581526020018473ffffffffffffffffffffffffffffffffffffffff1681526020018373ffffffffffffffffffffffffffffffffffffffff1681525081600101600083600001548152602001908152602001600020600082015181600001556020820151816001019081610c0291906135c1565b5060408201518160020160006101000a81548173ffffffffffffffffffffffffffffffffffffffff021916908373ffffffffffffffffffffffffffffffffffffffff16021790555060608201518160030160006101000a81548173ffffffffffffffffffffffffffffffffffffffff021916908373ffffffffffffffffffffffffffffffffffffffff1602179055509050505050505050565b6000610ca56119f8565b90508060000160003373ffffffffffffffffffffffffffffffffffffffff1673ffffffffffffffffffffffffffffffffffffffff1681526020019081526020016000206000815480929190610cf9906133cd565b919050555050565b610d09612831565b6000610d13611a25565b90506000610d1f6119cb565b905060008260030160008681526020019081526020016000206002015414610d7c576040517f08c379a0000000000000000000000000000000000000000000000000000000008152600401610d73906136df565b60405180910390fd5b3373ffffffffffffffffffffffffffffffffffffffff1682600201600086815260200190815260200160002060009054906101000a900473ffffffffffffffffffffffffffffffffffffffff1673ffffffffffffffffffffffffffffffffffffffff1614610e1f576040517f08c379a0000000000000000000000000000000000000000000000000000000008152600401610e169061374b565b60405180910390fd5b6064826003016000868152602001908152602001600020600201819055506000826003016000868152602001908152602001600020905060008083600501600088815260200190815260200160002060009054906101000a900460ff16610f4957469150869050600184600501600089815260200190815260200160002060006101000a81548160ff02191690831515021790555086846003016000848152602001908152602001600020600089815260200190815260200160002081905550846003016000888152602001908152602001600020600f0184600401600084815260200190815260200160002060008981526020019081526020016000209081610f299190613796565b508184600601600089815260200190815260200160002081905550610f8b565b83600601600088815260200190815260200160002054915083600301600083815260200190815260200160002060008881526020019081526020016000205490505b6000604051806101c00160405280856019015481526020018560000154815260200185600101548152602001856003015481526020018560040154815260200185600601548152602001856008015481526020018560090154815260200185600e0154815260200184815260200183815260200186600401600086815260200190815260200160002060008b815260200190815260200160002080546110309061336d565b80601f016020809104026020016040519081016040528092919081815260200182805461105c9061336d565b80156110a95780601f1061107e576101008083540402835291602001916110a9565b820191906000526020600020905b81548152906001019060200180831161108c57829003601f168201915b505050505081526020018560110160009054906101000a900460ff16151581526020013373ffffffffffffffffffffffffffffffffffffffff168152509050809650505050505050919050565b6000611100611a25565b9050600061110c6119cb565b9050806008016000815480929190611123906133cd565b91905055508281600701600083600801548152602001908152602001600020600082015181600001556020820151816001015560408201518160020155606082015181600301556080820151816004015560a0820151816005015560c0820151816006015560e082015181600701556101008201518160080155610120820151816009015561014082015181600a015561016082015181600b0190816111c991906135c1565b5061018082015181600c0160006101000a81548160ff0219169083151502179055506101a082015181600c0160016101000a81548173ffffffffffffffffffffffffffffffffffffffff021916908373ffffffffffffffffffffffffffffffffffffffff16021790555090505060008160030160008561012001518152602001908152602001600020600085610140015181526020019081526020016000205411156113cd57600083610140015190506000836003016000866101400151815260200190815260200160002060020181905550603b8360030160008661014001518152602001908152602001600020600001819055508360400151836003016000838152602001908152602001600020600101819055508360600151836003016000838152602001908152602001600020600301819055508360800151836003016000838152602001908152602001600020600401819055508360800151836003016000838152602001908152602001600020600501819055508360a00151836003016000838152602001908152602001600020600601819055508360c00151836003016000838152602001908152602001600020600801819055508360c00151836003016000838152602001908152602001600020600701819055508360e0015183600301600083815260200190815260200160002060090181905550506113f9565b6113d683611a52565b603682600301600084600101548152602001908152602001600020600001819055505b505050565b6000806114096119cb565b9050600081600301600086815260200190815260200160002060008581526020019081526020016000205411611443576001915081611449565b60009150815b505092915050565b60008061145c611a25565b9050806001015491505090565b6114838282604051806020016040528060008152506120c0565b5050565b600080600080600080600061149a6119cb565b905060006114a6611a25565b90504682600301600046815260200190815260200160002060008b8152602001908152602001600020548360030160008560060160008e815260200190815260200160002054815260200190815260200160002060008c8152602001908152602001600020548460060160008d81526020019081526020016000205484600101548660050160008f815260200190815260200160002060009054906101000a900460ff16975097509750975097509750505091939550919395565b611569612831565b60006115736119cb565b9050806007016000848152602001908152602001600020604051806101c001604052908160008201548152602001600182015481526020016002820154815260200160038201548152602001600482015481526020016005820154815260200160068201548152602001600782015481526020016008820154815260200160098201548152602001600a8201548152602001600b820180546116149061336d565b80601f01602080910402602001604051908101604052809291908181526020018280546116409061336d565b801561168d5780601f106116625761010080835404028352916020019161168d565b820191906000526020600020905b81548152906001019060200180831161167057829003601f168201915b50505050508152602001600c820160009054906101000a900460ff16151515158152602001600c820160019054906101000a900473ffffffffffffffffffffffffffffffffffffffff1673ffffffffffffffffffffffffffffffffffffffff1673ffffffffffffffffffffffffffffffffffffffff1681525050915050919050565b60006117196119f8565b9050818160000160008573ffffffffffffffffffffffffffffffffffffffff1673ffffffffffffffffffffffffffffffffffffffff168152602001908152602001600020600082825461176c919061387e565b92505081905550505050565b6117806127dd565b600061178a6119cb565b9050806002016000848152602001908152602001600020604051806080016040529081600082015481526020016001820180546117c69061336d565b80601f01602080910402602001604051908101604052809291908181526020018280546117f29061336d565b801561183f5780601f106118145761010080835404028352916020019161183f565b820191906000526020600020905b81548152906001019060200180831161182257829003601f168201915b505050505081526020016002820160009054906101000a900473ffffffffffffffffffffffffffffffffffffffff1673ffffffffffffffffffffffffffffffffffffffff1673ffffffffffffffffffffffffffffffffffffffff1681526020016003820160009054906101000a900473ffffffffffffffffffffffffffffffffffffffff1673ffffffffffffffffffffffffffffffffffffffff1673ffffffffffffffffffffffffffffffffffffffff1681525050915050919050565b6000806119076119cb565b9050806000015491505090565b600061191e6119f8565b9050818160000160008573ffffffffffffffffffffffffffffffffffffffff1673ffffffffffffffffffffffffffffffffffffffff16815260200190815260200160002054101561196e57600080fd5b818160000160008573ffffffffffffffffffffffffffffffffffffffff1673ffffffffffffffffffffffffffffffffffffffff16815260200190815260200160002060008282546119bf91906138b2565b92505081905550505050565b6000807f4cde922899fdacbde63ed2c277d08801981412358b79d054d98add0ca65dea1990508091505090565b6000807f2c89d74504b6ad8d4fbde22bc3474166bac5452a11195897f239d8bebe02d70790508091505090565b6000807f3cab9a070a0c61cd0ae9d9e9e2c0781e5ca8691bec4087e5a4701d5ac018dd4e90508091505090565b6000611a5c611a25565b90506000611a686119cb565b9050816001016000815480929190611a7f906133cd565b91905055508261014001518160030160008561012001518152602001908152602001600020600084600101548152602001908152602001600020819055508261016001518160040160008561012001518152602001908152602001600020600085610140015181526020019081526020016000209081611aff91906135c1565b5060018160050160008460010154815260200190815260200160002060006101000a81548160ff02191690831515021790555082610120015181600601600084600101548152602001908152602001600020819055506000836101600151611b6a846001015461211b565b604051602001611b7b92919061396e565b604051602081830303815290604052905060606000856000015103611be857846101800151611bc557604051806080016040528060438152602001613c8e60439139905080611be2565b604051806080016040528060438152602001613d57604391399050805b50611c9a565b6001856000015103611c4257846101800151611c1f57604051806080016040528060438152602001613d1460439139905080611c3c565b604051806080016040528060438152602001613cd1604391399050805b50611c99565b6002856000015103611c9857846101800151611c7957604051806080016040528060438152602001613c4b60439139905080611c96565b604051806080016040528060438152602001613c08604391399050805b505b5b5b6040518061028001604052808660200151815260200186604001518152602001600081526020018660600151815260200186608001518152602001866080015181526020018660a0015181526020018660c0015181526020018660c0015181526020018660e001518152602001600181526020016001815260200160018152602001600181526020018661010001518152602001838152602001828152602001866101800151151581526020016040518060e0016040528060008152602001600081526020016000815260200160008152602001600081526020016000815260200160008152508152602001866000015181525084600301600086600101548152602001908152602001600020600082015181600001556020820151816001015560408201518160020155606082015181600301556080820151816004015560a0820151816005015560c0820151816006015560e082015181600701556101008201518160080155610120820151816009015561014082015181600a015561016082015181600b015561018082015181600c01556101a082015181600d01556101c082015181600e01556101e082015181600f019081611e5a91906135c1565b50610200820151816010019081611e7191906135c1565b506102208201518160110160006101000a81548160ff02191690831515021790555061024082015181601201600082015181600001556020820151816001015560408201518160020155606082015181600301556080820151816004015560a0820151816005015560c08201518160060155505061026082015181601901559050506040518060e00160405280600081526020016000815260200160008152602001600081526020016000815260200160008152602001600081525084600801600086600101548152602001908152602001600020600082015181600001556020820151816001015560408201518160020155606082015181600301556080820151816004015560a0820151816005015560c08201518160060155905050846101a001518460020160008660010154815260200190815260200160002060006101000a81548173ffffffffffffffffffffffffffffffffffffffff021916908373ffffffffffffffffffffffffffffffffffffffff160217905550836007016000866101a0015173ffffffffffffffffffffffffffffffffffffffff1673ffffffffffffffffffffffffffffffffffffffff16815260200190815260200160002084600101549080600181540180825580915050600190039060005260206000200160009091909190915055836004016000866101a0015173ffffffffffffffffffffffffffffffffffffffff1673ffffffffffffffffffffffffffffffffffffffff16815260200190815260200160002060008154809291906120b4906133cd565b91905055505050505050565b6120ca83836121e9565b6120d76000848484612418565b612116576040517f08c379a000000000000000000000000000000000000000000000000000000000815260040161210d90613a0f565b60405180910390fd5b505050565b60606000600161212a8461259f565b01905060008167ffffffffffffffff81111561214957612148612a9e565b5b6040519080825280601f01601f19166020018201604052801561217b5781602001600182028036833780820191505090505b509050600082602001820190505b6001156121de578080600190039150507f3031323334353637383961626364656600000000000000000000000000000000600a86061a8153600a85816121d2576121d1613a2f565b5b04945060008503612189575b819350505050919050565b600073ffffffffffffffffffffffffffffffffffffffff168273ffffffffffffffffffffffffffffffffffffffff1603612258576040517f08c379a000000000000000000000000000000000000000000000000000000000815260040161224f90613aaa565b60405180910390fd5b612261816126f2565b156122a1576040517f08c379a000000000000000000000000000000000000000000000000000000000815260040161229890613b16565b60405180910390fd5b6122af600083836001612733565b6122b8816126f2565b156122f8576040517f08c379a00000000000000000000000000000000000000000000000000000000081526004016122ef90613b16565b60405180910390fd5b6001612302612739565b600a0160008473ffffffffffffffffffffffffffffffffffffffff1673ffffffffffffffffffffffffffffffffffffffff1681526020019081526020016000206000828254019250508190555081612358612739565b600901600083815260200190815260200160002060006101000a81548173ffffffffffffffffffffffffffffffffffffffff021916908373ffffffffffffffffffffffffffffffffffffffff160217905550808273ffffffffffffffffffffffffffffffffffffffff16600073ffffffffffffffffffffffffffffffffffffffff167fddf252ad1be2c89b69c2b068fc378daa952ba7f163c4a11628f55a4df523b3ef60405160405180910390a4612414600083836001612766565b5050565b60006124398473ffffffffffffffffffffffffffffffffffffffff1661276c565b15612592578373ffffffffffffffffffffffffffffffffffffffff1663150b7a0261246261278f565b8786866040518563ffffffff1660e01b81526004016124849493929190613b36565b6020604051808303816000875af19250505080156124c057506040513d601f19601f820116820180604052508101906124bd9190613bda565b60015b612542573d80600081146124f0576040519150601f19603f3d011682016040523d82523d6000602084013e6124f5565b606091505b50600081510361253a576040517f08c379a000000000000000000000000000000000000000000000000000000000815260040161253190613a0f565b60405180910390fd5b805181602001fd5b63150b7a0260e01b7bffffffffffffffffffffffffffffffffffffffffffffffffffffffff1916817bffffffffffffffffffffffffffffffffffffffffffffffffffffffff191614915050612597565b600190505b949350505050565b600080600090507a184f03e93ff9f4daa797ed6e38ed64bf6a1f01000000000000000083106125fd577a184f03e93ff9f4daa797ed6e38ed64bf6a1f01000000000000000083816125f3576125f2613a2f565b5b0492506040810190505b6d04ee2d6d415b85acef8100000000831061263a576d04ee2d6d415b85acef810000000083816126305761262f613a2f565b5b0492506020810190505b662386f26fc10000831061266957662386f26fc10000838161265f5761265e613a2f565b5b0492506010810190505b6305f5e1008310612692576305f5e100838161268857612687613a2f565b5b0492506008810190505b61271083106126b75761271083816126ad576126ac613a2f565b5b0492506004810190505b606483106126da57606483816126d0576126cf613a2f565b5b0492506002810190505b600a83106126e9576001810190505b80915050919050565b60008073ffffffffffffffffffffffffffffffffffffffff1661271483612797565b73ffffffffffffffffffffffffffffffffffffffff1614159050919050565b50505050565b6000807f2569078dfb4b0305704d3008e7403993ae9601b85f7ae5e742de3de8f8011c4090508091505090565b50505050565b6000808273ffffffffffffffffffffffffffffffffffffffff163b119050919050565b600033905090565b60006127a1612739565b600901600083815260200190815260200160002060009054906101000a900473ffffffffffffffffffffffffffffffffffffffff169050919050565b60405180608001604052806000815260200160608152602001600073ffffffffffffffffffffffffffffffffffffffff168152602001600073ffffffffffffffffffffffffffffffffffffffff1681525090565b604051806101c00160405280600081526020016000815260200160008152602001600081526020016000815260200160008152602001600081526020016000815260200160008152602001600081526020016000815260200160608152602001600015158152602001600073ffffffffffffffffffffffffffffffffffffffff1681525090565b6000604051905090565b600080fd5b600080fd5b6000819050919050565b6128df816128cc565b81146128ea57600080fd5b50565b6000813590506128fc816128d6565b92915050565b600060208284031215612918576129176128c2565b5b6000612926848285016128ed565b91505092915050565b612938816128cc565b82525050565b600081519050919050565b600082825260208201905092915050565b60005b8381101561297857808201518184015260208101905061295d565b60008484015250505050565b6000601f19601f8301169050919050565b60006129a08261293e565b6129aa8185612949565b93506129ba81856020860161295a565b6129c381612984565b840191505092915050565b600073ffffffffffffffffffffffffffffffffffffffff82169050919050565b60006129f9826129ce565b9050919050565b612a09816129ee565b82525050565b6000608083016000830151612a27600086018261292f565b5060208301518482036020860152612a3f8282612995565b9150506040830151612a546040860182612a00565b506060830151612a676060860182612a00565b508091505092915050565b60006020820190508181036000830152612a8c8184612a0f565b905092915050565b600080fd5b600080fd5b7f4e487b7100000000000000000000000000000000000000000000000000000000600052604160045260246000fd5b612ad682612984565b810181811067ffffffffffffffff82111715612af557612af4612a9e565b5b80604052505050565b6000612b086128b8565b9050612b148282612acd565b919050565b600067ffffffffffffffff821115612b3457612b33612a9e565b5b612b3d82612984565b9050602081019050919050565b82818337600083830152505050565b6000612b6c612b6784612b19565b612afe565b905082815260208101848484011115612b8857612b87612a99565b5b612b93848285612b4a565b509392505050565b600082601f830112612bb057612baf612a94565b5b8135612bc0848260208601612b59565b91505092915050565b612bd2816129ee565b8114612bdd57600080fd5b50565b600081359050612bef81612bc9565b92915050565b60008060008060808587031215612c0f57612c0e6128c2565b5b6000612c1d878288016128ed565b945050602085013567ffffffffffffffff811115612c3e57612c3d6128c7565b5b612c4a87828801612b9b565b9350506040612c5b87828801612be0565b9250506060612c6c87828801612be0565b91505092959194509250565b60008060408385031215612c8f57612c8e6128c2565b5b6000612c9d858286016128ed565b9250506020612cae858286016128ed565b9150509250929050565b600080fd5b600080fd5b60008115159050919050565b612cd781612cc2565b8114612ce257600080fd5b50565b600081359050612cf481612cce565b92915050565b60006101c08284031215612d1157612d10612cb8565b5b612d1c6101c0612afe565b90506000612d2c848285016128ed565b6000830152506020612d40848285016128ed565b6020830152506040612d54848285016128ed565b6040830152506060612d68848285016128ed565b6060830152506080612d7c848285016128ed565b60808301525060a0612d90848285016128ed565b60a08301525060c0612da4848285016128ed565b60c08301525060e0612db8848285016128ed565b60e083015250610100612dcd848285016128ed565b61010083015250610120612de3848285016128ed565b61012083015250610140612df9848285016128ed565b6101408301525061016082013567ffffffffffffffff811115612e1f57612e1e612cbd565b5b612e2b84828501612b9b565b61016083015250610180612e4184828501612ce5565b610180830152506101a0612e5784828501612be0565b6101a08301525092915050565b600060208284031215612e7a57612e796128c2565b5b600082013567ffffffffffffffff811115612e9857612e976128c7565b5b612ea484828501612cfa565b91505092915050565b612eb6816128cc565b82525050565b612ec581612cc2565b82525050565b600060c082019050612ee06000830189612ead565b612eed6020830188612ead565b612efa6040830187612ead565b612f076060830186612ead565b612f146080830185612ead565b612f2160a0830184612ebc565b979650505050505050565b612f3581612cc2565b82525050565b60006101c083016000830151612f54600086018261292f565b506020830151612f67602086018261292f565b506040830151612f7a604086018261292f565b506060830151612f8d606086018261292f565b506080830151612fa0608086018261292f565b5060a0830151612fb360a086018261292f565b5060c0830151612fc660c086018261292f565b5060e0830151612fd960e086018261292f565b50610100830151612fee61010086018261292f565b5061012083015161300361012086018261292f565b5061014083015161301861014086018261292f565b506101608301518482036101608601526130328282612995565b915050610180830151613049610180860182612f2c565b506101a083015161305e6101a0860182612a00565b508091505092915050565b600060208201905081810360008301526130838184612f3b565b905092915050565b6000604082840312156130a1576130a0612cb8565b5b6130ab6040612afe565b905060006130bb84828501612be0565b60008301525060206130cf848285016128ed565b60208301525092915050565b6000604082840312156130f1576130f06128c2565b5b60006130ff8482850161308b565b91505092915050565b600080600060608486031215613121576131206128c2565b5b600061312f868287016128ed565b935050602084013567ffffffffffffffff8111156131505761314f6128c7565b5b61315c86828701612b9b565b925050604061316d86828701612be0565b9150509250925092565b600060208201905061318c6000830184612ead565b92915050565b6000806000606084860312156131ab576131aa6128c2565b5b600084013567ffffffffffffffff8111156131c9576131c86128c7565b5b6131d586828701612b9b565b93505060206131e686828701612be0565b92505060406131f7868287016128ed565b9150509250925092565b600082825260208201905092915050565b600061321d8261293e565b6132278185613201565b935061323781856020860161295a565b61324081612984565b840191505092915050565b613254816129ee565b82525050565b600081519050919050565b600082825260208201905092915050565b60006132818261325a565b61328b8185613265565b935061329b81856020860161295a565b6132a481612984565b840191505092915050565b600060608201905081810360008301526132c98186613212565b90506132d8602083018561324b565b81810360408301526132ea8184613276565b9050949350505050565b60408201600082015161330a6000850182612a00565b50602082015161331d602085018261292f565b50505050565b600060408201905061333860008301846132f4565b92915050565b7f4e487b7100000000000000000000000000000000000000000000000000000000600052602260045260246000fd5b6000600282049050600182168061338557607f821691505b6020821081036133985761339761333e565b5b50919050565b7f4e487b7100000000000000000000000000000000000000000000000000000000600052601160045260246000fd5b60006133d8826128cc565b91507fffffffffffffffffffffffffffffffffffffffffffffffffffffffffffffffff820361340a5761340961339e565b5b600182019050919050565b60008190508160005260206000209050919050565b60006020601f8301049050919050565b600082821b905092915050565b6000600883026134777fffffffffffffffffffffffffffffffffffffffffffffffffffffffffffffffff8261343a565b613481868361343a565b95508019841693508086168417925050509392505050565b6000819050919050565b60006134be6134b96134b4846128cc565b613499565b6128cc565b9050919050565b6000819050919050565b6134d8836134a3565b6134ec6134e4826134c5565b848454613447565b825550505050565b600090565b6135016134f4565b61350c8184846134cf565b505050565b5b81811015613530576135256000826134f9565b600181019050613512565b5050565b601f8211156135755761354681613415565b61354f8461342a565b8101602085101561355e578190505b61357261356a8561342a565b830182613511565b50505b505050565b600082821c905092915050565b60006135986000198460080261357a565b1980831691505092915050565b60006135b18383613587565b9150826002028217905092915050565b6135ca8261293e565b67ffffffffffffffff8111156135e3576135e2612a9e565b5b6135ed825461336d565b6135f8828285613534565b600060209050601f83116001811461362b5760008415613619578287015190505b61362385826135a5565b86555061368b565b601f19841661363986613415565b60005b828110156136615784890151825560018201915060208501945060208101905061363c565b8683101561367e578489015161367a601f891682613587565b8355505b6001600288020188555050505b505050505050565b7f796f7520617265206e6f742069646c6500000000000000000000000000000000600082015250565b60006136c9601083613201565b91506136d482613693565b602082019050919050565b600060208201905081810360008301526136f8816136bc565b9050919050565b7f796f7520617265206e6f7420746865206f776e65720000000000000000000000600082015250565b6000613735601583613201565b9150613740826136ff565b602082019050919050565b6000602082019050818103600083015261376481613728565b9050919050565b60008154905061377a8161336d565b9050919050565b60008190508160005260206000209050919050565b8181036137a457505061387c565b6137ad8261376b565b67ffffffffffffffff8111156137c6576137c5612a9e565b5b6137d0825461336d565b6137db828285613534565b6000601f83116001811461380a57600084156137f8578287015490505b61380285826135a5565b865550613875565b601f19841661381887613781565b965061382386613415565b60005b8281101561384b57848901548255600182019150600185019450602081019050613826565b868310156138685784890154613864601f891682613587565b8355505b6001600288020188555050505b5050505050505b565b6000613889826128cc565b9150613894836128cc565b92508282019050808211156138ac576138ab61339e565b5b92915050565b60006138bd826128cc565b91506138c8836128cc565b92508282039050818111156138e0576138df61339e565b5b92915050565b600081905092915050565b60006138fc8261293e565b61390681856138e6565b935061391681856020860161295a565b80840191505092915050565b7f2d00000000000000000000000000000000000000000000000000000000000000600082015250565b60006139586001836138e6565b915061396382613922565b600182019050919050565b600061397a82856138f1565b91506139858261394b565b915061399182846138f1565b91508190509392505050565b7f4552433732313a207472616e7366657220746f206e6f6e20455243373231526560008201527f63656976657220696d706c656d656e7465720000000000000000000000000000602082015250565b60006139f9603283613201565b9150613a048261399d565b604082019050919050565b60006020820190508181036000830152613a28816139ec565b9050919050565b7f4e487b7100000000000000000000000000000000000000000000000000000000600052601260045260246000fd5b7f4552433732313a206d696e7420746f20746865207a65726f2061646472657373600082015250565b6000613a94602083613201565b9150613a9f82613a5e565b602082019050919050565b60006020820190508181036000830152613ac381613a87565b9050919050565b7f4552433732313a20746f6b656e20616c7265616479206d696e74656400000000600082015250565b6000613b00601c83613201565b9150613b0b82613aca565b602082019050919050565b60006020820190508181036000830152613b2f81613af3565b9050919050565b6000608082019050613b4b600083018761324b565b613b58602083018661324b565b613b656040830185612ead565b8181036060830152613b778184613276565b905095945050505050565b60007fffffffff0000000000000000000000000000000000000000000000000000000082169050919050565b613bb781613b82565b8114613bc257600080fd5b50565b600081519050613bd481613bae565b92915050565b600060208284031215613bf057613bef6128c2565b5b6000613bfe84828501613bc5565b9150509291505056fe68747470733a2f2f697066732e696f2f697066732f516d556257785564387358344d5a6f6a4b455255506d507539597441596659726f425334546531484a454b75637968747470733a2f2f697066732e696f2f697066732f516d625641427439734b704e55613844674d4a64653344424351796f72534354395631447a6436634a385a556d5068747470733a2f2f697066732e696f2f697066732f516d66424e4870787077554e67747736695842784b584c6256786f6d386d7064427367715a5a79353970524d354368747470733a2f2f697066732e696f2f697066732f516d5158655965397278526b6b716645423744725a52534732533179724e676a363456386d3676374b65747a516468747470733a2f2f697066732e696f2f697066732f516d55715a4b5275646e616e673147586244326e4848776d4a664e4e42465156646d6f483857416e65616969356868747470733a2f2f697066732e696f2f697066732f516d56357053734d47474d4c5733593979513871534c534d4451616b646e6a686a53346b356865366d4a79506548a26469706673582212204b2dce78b4fa3d06cb600d4b23a5d26c83f87325e7629ffb5a45cb538a05524d64736f6c63430008120033",
  "linkReferences": {},
  "deployedLinkReferences": {}
}