{
  "_format": "hh-sol-artifact-1",
  "contractName": "BridgeFacet",
  "sourceName": "contracts/facets/BridgeFacet.sol",
  "abi": [
    {
      "anonymous": false,
      "inputs": [
        {
          "indexed": true,
          "internalType": "address",
          "name": "owner",
          "type": "address"
        },
        {
          "indexed": true,
          "internalType": "address",
          "name": "approved",
          "type": "address"
        },
        {
          "indexed": true,
          "internalType": "uint256",
          "name": "tokenId",
          "type": "uint256"
        }
      ],
      "name": "Approval",
      "type": "event"
    },
    {
      "anonymous": false,
      "inputs": [
        {
          "indexed": true,
          "internalType": "address",
          "name": "owner",
          "type": "address"
        },
        {
          "indexed": true,
          "internalType": "address",
          "name": "operator",
          "type": "address"
        },
        {
          "indexed": false,
          "internalType": "bool",
          "name": "approved",
          "type": "bool"
        }
      ],
      "name": "ApprovalForAll",
      "type": "event"
    },
    {
      "anonymous": false,
      "inputs": [
        {
          "indexed": true,
          "internalType": "uint256",
          "name": "_chainId",
          "type": "uint256"
        },
        {
          "indexed": true,
          "internalType": "address",
          "name": "_portal",
          "type": "address"
        },
        {
          "indexed": true,
          "internalType": "address",
          "name": "_diamond",
          "type": "address"
        }
      ],
      "name": "BridgeCreated",
      "type": "event"
    },
    {
      "anonymous": false,
      "inputs": [
        {
          "indexed": true,
          "internalType": "uint256",
          "name": "_playerId",
          "type": "uint256"
        },
        {
          "components": [
            {
              "internalType": "uint256",
              "name": "class",
              "type": "uint256"
            },
            {
              "internalType": "uint256",
              "name": "level",
              "type": "uint256"
            },
            {
              "internalType": "uint256",
              "name": "xp",
              "type": "uint256"
            },
            {
              "internalType": "uint256",
              "name": "strength",
              "type": "uint256"
            },
            {
              "internalType": "uint256",
              "name": "health",
              "type": "uint256"
            },
            {
              "internalType": "uint256",
              "name": "magic",
              "type": "uint256"
            },
            {
              "internalType": "uint256",
              "name": "maxMana",
              "type": "uint256"
            },
            {
              "internalType": "uint256",
              "name": "agility",
              "type": "uint256"
            },
            {
              "internalType": "uint256",
              "name": "defense",
              "type": "uint256"
            },
            {
              "internalType": "uint256",
              "name": "baseChain",
              "type": "uint256"
            },
            {
              "internalType": "uint256",
              "name": "baseId",
              "type": "uint256"
            },
            {
              "internalType": "string",
              "name": "name",
              "type": "string"
            },
            {
              "internalType": "bool",
              "name": "isMale",
              "type": "bool"
            },
            {
              "internalType": "address",
              "name": "sender",
              "type": "address"
            }
          ],
          "indexed": false,
          "internalType": "struct BridgeFormat",
          "name": "_format",
          "type": "tuple"
        }
      ],
      "name": "BridgePlayer",
      "type": "event"
    },
    {
      "anonymous": false,
      "inputs": [
        {
          "indexed": true,
          "internalType": "uint256",
          "name": "_playerId",
          "type": "uint256"
        },
        {
          "components": [
            {
              "internalType": "uint256",
              "name": "class",
              "type": "uint256"
            },
            {
              "internalType": "uint256",
              "name": "level",
              "type": "uint256"
            },
            {
              "internalType": "uint256",
              "name": "xp",
              "type": "uint256"
            },
            {
              "internalType": "uint256",
              "name": "strength",
              "type": "uint256"
            },
            {
              "internalType": "uint256",
              "name": "health",
              "type": "uint256"
            },
            {
              "internalType": "uint256",
              "name": "magic",
              "type": "uint256"
            },
            {
              "internalType": "uint256",
              "name": "maxMana",
              "type": "uint256"
            },
            {
              "internalType": "uint256",
              "name": "agility",
              "type": "uint256"
            },
            {
              "internalType": "uint256",
              "name": "defense",
              "type": "uint256"
            },
            {
              "internalType": "uint256",
              "name": "baseChain",
              "type": "uint256"
            },
            {
              "internalType": "uint256",
              "name": "baseId",
              "type": "uint256"
            },
            {
              "internalType": "string",
              "name": "name",
              "type": "string"
            },
            {
              "internalType": "bool",
              "name": "isMale",
              "type": "bool"
            },
            {
              "internalType": "address",
              "name": "sender",
              "type": "address"
            }
          ],
          "indexed": false,
          "internalType": "struct BridgeFormat",
          "name": "_format",
          "type": "tuple"
        }
      ],
      "name": "ReMintPlayer",
      "type": "event"
    },
    {
      "anonymous": false,
      "inputs": [
        {
          "indexed": true,
          "internalType": "address",
          "name": "_sender",
          "type": "address"
        },
        {
          "indexed": true,
          "internalType": "uint256",
          "name": "_amount",
          "type": "uint256"
        }
      ],
      "name": "ReceiveGold",
      "type": "event"
    },
    {
      "anonymous": false,
      "inputs": [
        {
          "indexed": true,
          "internalType": "address",
          "name": "_sender",
          "type": "address"
        },
        {
          "indexed": true,
          "internalType": "uint256",
          "name": "_amount",
          "type": "uint256"
        }
      ],
      "name": "SendGold",
      "type": "event"
    },
    {
      "anonymous": false,
      "inputs": [
        {
          "indexed": true,
          "internalType": "address",
          "name": "from",
          "type": "address"
        },
        {
          "indexed": true,
          "internalType": "address",
          "name": "to",
          "type": "address"
        },
        {
          "indexed": true,
          "internalType": "uint256",
          "name": "tokenId",
          "type": "uint256"
        }
      ],
      "name": "Transfer",
      "type": "event"
    },
    {
      "inputs": [
        {
          "internalType": "string",
          "name": "_chain",
          "type": "string"
        },
        {
          "internalType": "address",
          "name": "_contract",
          "type": "address"
        },
        {
          "internalType": "uint256",
          "name": "_amount",
          "type": "uint256"
        }
      ],
      "name": "bridgeGold",
      "outputs": [],
      "stateMutability": "nonpayable",
      "type": "function"
    },
    {
      "inputs": [
        {
          "internalType": "uint256",
          "name": "_playerId",
          "type": "uint256"
        },
        {
          "internalType": "uint256",
          "name": "_chainId",
          "type": "uint256"
        }
      ],
      "name": "bridgePlayer",
      "outputs": [],
      "stateMutability": "nonpayable",
      "type": "function"
    },
    {
      "inputs": [
        {
          "internalType": "uint256",
          "name": "_playerId",
          "type": "uint256"
        },
        {
          "internalType": "string",
          "name": "_chain",
          "type": "string"
        },
        {
          "internalType": "address",
          "name": "_contract",
          "type": "address"
        }
      ],
      "name": "bridgePlayerTest",
      "outputs": [],
      "stateMutability": "nonpayable",
      "type": "function"
    },
    {
      "inputs": [
        {
          "internalType": "uint256",
          "name": "_chainId",
          "type": "uint256"
        },
        {
          "internalType": "string",
          "name": "_name",
          "type": "string"
        },
        {
          "internalType": "address",
          "name": "_portal",
          "type": "address"
        },
        {
          "internalType": "address",
          "name": "_diamond",
          "type": "address"
        }
      ],
      "name": "createBridge",
      "outputs": [],
      "stateMutability": "nonpayable",
      "type": "function"
    },
    {
      "inputs": [
        {
          "internalType": "uint256",
          "name": "_chainId",
          "type": "uint256"
        }
      ],
      "name": "getChainData",
      "outputs": [
        {
          "components": [
            {
              "internalType": "uint256",
              "name": "chainId",
              "type": "uint256"
            },
            {
              "internalType": "string",
              "name": "name",
              "type": "string"
            },
            {
              "internalType": "address",
              "name": "portal",
              "type": "address"
            },
            {
              "internalType": "address",
              "name": "diamond",
              "type": "address"
            }
          ],
          "internalType": "struct ChainData",
          "name": "",
          "type": "tuple"
        }
      ],
      "stateMutability": "view",
      "type": "function"
    },
    {
      "inputs": [
        {
          "internalType": "uint256",
          "name": "_id",
          "type": "uint256"
        }
      ],
      "name": "getFormat",
      "outputs": [
        {
          "components": [
            {
              "internalType": "uint256",
              "name": "class",
              "type": "uint256"
            },
            {
              "internalType": "uint256",
              "name": "level",
              "type": "uint256"
            },
            {
              "internalType": "uint256",
              "name": "xp",
              "type": "uint256"
            },
            {
              "internalType": "uint256",
              "name": "strength",
              "type": "uint256"
            },
            {
              "internalType": "uint256",
              "name": "health",
              "type": "uint256"
            },
            {
              "internalType": "uint256",
              "name": "magic",
              "type": "uint256"
            },
            {
              "internalType": "uint256",
              "name": "maxMana",
              "type": "uint256"
            },
            {
              "internalType": "uint256",
              "name": "agility",
              "type": "uint256"
            },
            {
              "internalType": "uint256",
              "name": "defense",
              "type": "uint256"
            },
            {
              "internalType": "uint256",
              "name": "baseChain",
              "type": "uint256"
            },
            {
              "internalType": "uint256",
              "name": "baseId",
              "type": "uint256"
            },
            {
              "internalType": "string",
              "name": "name",
              "type": "string"
            },
            {
              "internalType": "bool",
              "name": "isMale",
              "type": "bool"
            },
            {
              "internalType": "address",
              "name": "sender",
              "type": "address"
            }
          ],
          "internalType": "struct BridgeFormat",
          "name": "",
          "type": "tuple"
        }
      ],
      "stateMutability": "view",
      "type": "function"
    },
    {
      "inputs": [
        {
          "components": [
            {
              "internalType": "uint256",
              "name": "class",
              "type": "uint256"
            },
            {
              "internalType": "uint256",
              "name": "level",
              "type": "uint256"
            },
            {
              "internalType": "uint256",
              "name": "xp",
              "type": "uint256"
            },
            {
              "internalType": "uint256",
              "name": "strength",
              "type": "uint256"
            },
            {
              "internalType": "uint256",
              "name": "health",
              "type": "uint256"
            },
            {
              "internalType": "uint256",
              "name": "magic",
              "type": "uint256"
            },
            {
              "internalType": "uint256",
              "name": "maxMana",
              "type": "uint256"
            },
            {
              "internalType": "uint256",
              "name": "agility",
              "type": "uint256"
            },
            {
              "internalType": "uint256",
              "name": "defense",
              "type": "uint256"
            },
            {
              "internalType": "uint256",
              "name": "baseChain",
              "type": "uint256"
            },
            {
              "internalType": "uint256",
              "name": "baseId",
              "type": "uint256"
            },
            {
              "internalType": "string",
              "name": "name",
              "type": "string"
            },
            {
              "internalType": "bool",
              "name": "isMale",
              "type": "bool"
            },
            {
              "internalType": "address",
              "name": "sender",
              "type": "address"
            }
          ],
          "internalType": "struct BridgeFormat",
          "name": "_format",
          "type": "tuple"
        }
      ],
      "name": "reMintPlayer",
      "outputs": [],
      "stateMutability": "nonpayable",
      "type": "function"
    },
    {
      "inputs": [
        {
          "components": [
            {
              "internalType": "address",
              "name": "sender",
              "type": "address"
            },
            {
              "internalType": "uint256",
              "name": "amount",
              "type": "uint256"
            }
          ],
          "internalType": "struct BridgegeCoinFormat",
          "name": "_format",
          "type": "tuple"
        }
      ],
      "name": "receiveGold",
      "outputs": [],
      "stateMutability": "nonpayable",
      "type": "function"
    },
    {
      "inputs": [
        {
          "internalType": "uint256",
          "name": "_playerId",
          "type": "uint256"
        }
      ],
      "name": "sanityCheck",
      "outputs": [
        {
          "internalType": "uint256",
          "name": "",
          "type": "uint256"
        },
        {
          "internalType": "uint256",
          "name": "",
          "type": "uint256"
        },
        {
          "internalType": "uint256",
          "name": "",
          "type": "uint256"
        },
        {
          "internalType": "uint256",
          "name": "",
          "type": "uint256"
        },
        {
          "internalType": "uint256",
          "name": "",
          "type": "uint256"
        },
        {
          "internalType": "bool",
          "name": "",
          "type": "bool"
        }
      ],
      "stateMutability": "view",
      "type": "function"
    }
  ],
  "bytecode": "0x608060405234801561001057600080fd5b50613991806100206000396000f3fe608060405234801561001057600080fd5b50600436106100935760003560e01c80638ee7f6cb116100665780638ee7f6cb1461012157806390601da314610151578063aeb45f011461016d578063c3e4f9c21461019d578063feea35c9146101b957610093565b806303f256ec14610098578063537ce615146100b457806354250a13146100d0578063763b4ef0146100ec575b600080fd5b6100b260048036038101906100ad91906125dd565b6101d5565b005b6100ce60048036038101906100c99190612660565b610242565b005b6100ea60048036038101906100e5919061284c565b6103b0565b005b61010660048036038101906101019190612895565b6103d8565b604051610118969594939291906128e0565b60405180910390f35b61013b60048036038101906101369190612895565b6103ff565b6040516101489190612b1b565b60405180910390f35b61016b60048036038101906101669190612b8d565b610417565b005b61018760048036038101906101829190612895565b610478565b6040516101949190612c1d565b60405180910390f35b6101b760048036038101906101b29190612c3f565b610490565b005b6101d360048036038101906101ce9190612cae565b6105f9565b005b6101e18484848461079a565b8073ffffffffffffffffffffffffffffffffffffffff168273ffffffffffffffffffffffffffffffffffffffff16857f924c77d15e16cd31a7b4457de58065af652bd3178fe5f5f2ff801196f030fe7860405160405180910390a450505050565b600061024d82610478565b90506000816040015190506000610263856108c0565b90508173ffffffffffffffffffffffffffffffffffffffff1663381aa2cf846020015185606001516000620186a0866040516024016102a29190612b1b565b6040516020818303038152906040527f54250a13000000000000000000000000000000000000000000000000000000007bffffffffffffffffffffffffffffffffffffffffffffffffffffffff19166020820180517bffffffffffffffffffffffffffffffffffffffffffffffffffffffff83818316178352505050506040518663ffffffff1660e01b815260040161033f959493929190612e5f565b600060405180830381600087803b15801561035957600080fd5b505af115801561036d573d6000803e3d6000fd5b50505050847f602103799a7c20f1b0af9606ecee1173039b639af978bf3755ef5db1a5209a6f826040516103a19190612b1b565b60405180910390a25050505050565b6103b981610dbf565b60006103c3610fa0565b90506103d4826101a0015182610fb8565b5050565b6000806000806000806103ea87610fd6565b95509550955095509550955091939550919395565b610407612314565b610410826110b0565b9050919050565b6104298160000151826020015161125e565b8060200151816000015173ffffffffffffffffffffffffffffffffffffffff167f2974932ea8347b7507a8cb3888088a5db0692804c1592c993279b17e7fa7d7f260405160405180910390a350565b61048061239b565b610489826112c7565b9050919050565b6000731b2c14b235e928b42ede9d83c8143fc9ec309742905060006104b4856108c0565b90508173ffffffffffffffffffffffffffffffffffffffff1663381aa2cf85856000620186a0866040516024016104eb9190612b1b565b6040516020818303038152906040527f54250a13000000000000000000000000000000000000000000000000000000007bffffffffffffffffffffffffffffffffffffffffffffffffffffffff19166020820180517bffffffffffffffffffffffffffffffffffffffffffffffffffffffff83818316178352505050506040518663ffffffff1660e01b8152600401610588959493929190612e5f565b600060405180830381600087803b1580156105a257600080fd5b505af11580156105b6573d6000803e3d6000fd5b50505050847f602103799a7c20f1b0af9606ecee1173039b639af978bf3755ef5db1a5209a6f826040516105ea9190612b1b565b60405180910390a25050505050565b6000731b2c14b235e928b42ede9d83c8143fc9ec3097429050600060405180604001604052803373ffffffffffffffffffffffffffffffffffffffff1681526020018481525090508173ffffffffffffffffffffffffffffffffffffffff1663381aa2cf86866000620186a0866040516024016106769190612eef565b6040516020818303038152906040527f90601da3000000000000000000000000000000000000000000000000000000007bffffffffffffffffffffffffffffffffffffffffffffffffffffffff19166020820180517bffffffffffffffffffffffffffffffffffffffffffffffffffffffff83818316178352505050506040518663ffffffff1660e01b8152600401610713959493929190612e5f565b600060405180830381600087803b15801561072d57600080fd5b505af1158015610741573d6000803e3d6000fd5b5050505061074f338461144b565b823373ffffffffffffffffffffffffffffffffffffffff167f639a1c2428edca612d7aa6a0f09df35033766e9b8578f6db38659900e23abf7260405160405180910390a35050505050565b60006107a4611502565b905060405180608001604052808681526020018581526020018473ffffffffffffffffffffffffffffffffffffffff1681526020018373ffffffffffffffffffffffffffffffffffffffff16815250816000016000878152602001908152602001600020600082015181600001556020820151816001019081610827919061310c565b5060408201518160020160006101000a81548173ffffffffffffffffffffffffffffffffffffffff021916908373ffffffffffffffffffffffffffffffffffffffff16021790555060608201518160030160006101000a81548173ffffffffffffffffffffffffffffffffffffffff021916908373ffffffffffffffffffffffffffffffffffffffff1602179055509050505050505050565b6108c8612314565b60006108d261152f565b905060006108de611502565b90506000826003016000868152602001908152602001600020600201541461093b576040517f08c379a00000000000000000000000000000000000000000000000000000000081526004016109329061322a565b60405180910390fd5b3373ffffffffffffffffffffffffffffffffffffffff1682600201600086815260200190815260200160002060009054906101000a900473ffffffffffffffffffffffffffffffffffffffff1673ffffffffffffffffffffffffffffffffffffffff16146109de576040517f08c379a00000000000000000000000000000000000000000000000000000000081526004016109d590613296565b60405180910390fd5b6064826003016000868152602001908152602001600020600201819055506000826003016000868152602001908152602001600020905060008083600301600088815260200190815260200160002060009054906101000a900460ff16610b0857469150869050600184600301600089815260200190815260200160002060006101000a81548160ff02191690831515021790555086846001016000848152602001908152602001600020600089815260200190815260200160002081905550846003016000888152602001908152602001600020600f0184600201600084815260200190815260200160002060008981526020019081526020016000209081610ae891906132e1565b508184600401600089815260200190815260200160002081905550610b4a565b83600401600088815260200190815260200160002054915083600101600083815260200190815260200160002060008881526020019081526020016000205490505b6000604051806101c00160405280856019015481526020018560000154815260200185600101548152602001856003015481526020018560040154815260200185600601548152602001856008015481526020018560090154815260200185600e0154815260200184815260200183815260200186600201600086815260200190815260200160002060008b81526020019081526020016000208054610bef90612f39565b80601f0160208091040260200160405190810160405280929190818152602001828054610c1b90612f39565b8015610c685780601f10610c3d57610100808354040283529160200191610c68565b820191906000526020600020905b815481529060010190602001808311610c4b57829003601f168201915b505050505081526020018560110160009054906101000a900460ff16151581526020013373ffffffffffffffffffffffffffffffffffffffff168152509050808560050160008a8152602001908152602001600020600082015181600001556020820151816001015560408201518160020155606082015181600301556080820151816004015560a0820151816005015560c0820151816006015560e082015181600701556101008201518160080155610120820151816009015561014082015181600a015561016082015181600b019081610d44919061310c565b5061018082015181600c0160006101000a81548160ff0219169083151502179055506101a082015181600c0160016101000a81548173ffffffffffffffffffffffffffffffffffffffff021916908373ffffffffffffffffffffffffffffffffffffffff160217905550905050809650505050505050919050565b6000610dc961152f565b90506000610dd5611502565b9050600080826001016000866101200151815260200190815260200160002060008661014001518152602001908152602001600020541115610f90578160010160008561012001518152602001908152602001600020600085610140015181526020019081526020016000205490506000836003016000838152602001908152602001600020600201819055508360200151836003016000838152602001908152602001600020600001819055508360400151836003016000838152602001908152602001600020600101819055508360600151836003016000838152602001908152602001600020600301819055508360800151836003016000838152602001908152602001600020600401819055508360800151836003016000838152602001908152602001600020600501819055508360a00151836003016000838152602001908152602001600020600601819055508360c00151836003016000838152602001908152602001600020600801819055508360c00151836003016000838152602001908152602001600020600701819055508360e0015183600301600083815260200190815260200160002060090181905550610f9a565b610f998461155c565b5b50505050565b600080610fab61152f565b9050806001015491505090565b610fd2828260405180602001604052806000815250611bca565b5050565b6000806000806000806000610fe9611502565b90506000610ff561152f565b90504682600101600046815260200190815260200160002060008b8152602001908152602001600020548360010160008560040160008e815260200190815260200160002054815260200190815260200160002060008c8152602001908152602001600020548460040160008d81526020019081526020016000205484600101548660030160008f815260200190815260200160002060009054906101000a900460ff16975097509750975097509750505091939550919395565b6110b8612314565b60006110c2611502565b9050806005016000848152602001908152602001600020604051806101c001604052908160008201548152602001600182015481526020016002820154815260200160038201548152602001600482015481526020016005820154815260200160068201548152602001600782015481526020016008820154815260200160098201548152602001600a8201548152602001600b8201805461116390612f39565b80601f016020809104026020016040519081016040528092919081815260200182805461118f90612f39565b80156111dc5780601f106111b1576101008083540402835291602001916111dc565b820191906000526020600020905b8154815290600101906020018083116111bf57829003601f168201915b50505050508152602001600c820160009054906101000a900460ff16151515158152602001600c820160019054906101000a900473ffffffffffffffffffffffffffffffffffffffff1673ffffffffffffffffffffffffffffffffffffffff1673ffffffffffffffffffffffffffffffffffffffff1681525050915050919050565b6000611268611c25565b9050818160000160008573ffffffffffffffffffffffffffffffffffffffff1673ffffffffffffffffffffffffffffffffffffffff16815260200190815260200160002060008282546112bb91906133f8565b92505081905550505050565b6112cf61239b565b60006112d9611502565b90508060000160008481526020019081526020016000206040518060800160405290816000820154815260200160018201805461131590612f39565b80601f016020809104026020016040519081016040528092919081815260200182805461134190612f39565b801561138e5780601f106113635761010080835404028352916020019161138e565b820191906000526020600020905b81548152906001019060200180831161137157829003601f168201915b505050505081526020016002820160009054906101000a900473ffffffffffffffffffffffffffffffffffffffff1673ffffffffffffffffffffffffffffffffffffffff1673ffffffffffffffffffffffffffffffffffffffff1681526020016003820160009054906101000a900473ffffffffffffffffffffffffffffffffffffffff1673ffffffffffffffffffffffffffffffffffffffff1673ffffffffffffffffffffffffffffffffffffffff1681525050915050919050565b6000611455611c25565b9050818160000160008573ffffffffffffffffffffffffffffffffffffffff1673ffffffffffffffffffffffffffffffffffffffff1681526020019081526020016000205410156114a557600080fd5b818160000160008573ffffffffffffffffffffffffffffffffffffffff1673ffffffffffffffffffffffffffffffffffffffff16815260200190815260200160002060008282546114f6919061342c565b92505081905550505050565b6000807f4cde922899fdacbde63ed2c277d08801981412358b79d054d98add0ca65dea1990508091505090565b6000807f3cab9a070a0c61cd0ae9d9e9e2c0781e5ca8691bec4087e5a4701d5ac018dd4e90508091505090565b600061156661152f565b90506000611572611502565b905081600101600081548092919061158990613460565b91905055508261014001518160010160008561012001518152602001908152602001600020600084600101548152602001908152602001600020819055508261016001518160020160008561012001518152602001908152602001600020600085610140015181526020019081526020016000209081611609919061310c565b5060018160030160008460010154815260200190815260200160002060006101000a81548160ff021916908315150217905550826101200151816004016000846001015481526020019081526020016000208190555060008361016001516116748460010154611c52565b604051602001611685929190613530565b6040516020818303038152906040529050606060008560000151036116f2578461018001516116cf57604051806080016040528060438152602001613850604391399050806116ec565b604051806080016040528060438152602001613919604391399050805b506117a4565b600185600001510361174c57846101800151611729576040518060800160405280604381526020016138d660439139905080611746565b604051806080016040528060438152602001613893604391399050805b506117a3565b60028560000151036117a2578461018001516117835760405180608001604052806043815260200161380d604391399050806117a0565b6040518060800160405280604381526020016137ca604391399050805b505b5b5b6040518061028001604052808660200151815260200186604001518152602001600081526020018660600151815260200186608001518152602001866080015181526020018660a0015181526020018660c0015181526020018660c0015181526020018660e001518152602001600181526020016001815260200160018152602001600181526020018661010001518152602001838152602001828152602001866101800151151581526020016040518060e0016040528060008152602001600081526020016000815260200160008152602001600081526020016000815260200160008152508152602001866000015181525084600301600086600101548152602001908152602001600020600082015181600001556020820151816001015560408201518160020155606082015181600301556080820151816004015560a0820151816005015560c0820151816006015560e082015181600701556101008201518160080155610120820151816009015561014082015181600a015561016082015181600b015561018082015181600c01556101a082015181600d01556101c082015181600e01556101e082015181600f019081611964919061310c565b5061020082015181601001908161197b919061310c565b506102208201518160110160006101000a81548160ff02191690831515021790555061024082015181601201600082015181600001556020820151816001015560408201518160020155606082015181600301556080820151816004015560a0820151816005015560c08201518160060155505061026082015181601901559050506040518060e00160405280600081526020016000815260200160008152602001600081526020016000815260200160008152602001600081525084600801600086600101548152602001908152602001600020600082015181600001556020820151816001015560408201518160020155606082015181600301556080820151816004015560a0820151816005015560c08201518160060155905050846101a001518460020160008660010154815260200190815260200160002060006101000a81548173ffffffffffffffffffffffffffffffffffffffff021916908373ffffffffffffffffffffffffffffffffffffffff160217905550836007016000866101a0015173ffffffffffffffffffffffffffffffffffffffff1673ffffffffffffffffffffffffffffffffffffffff16815260200190815260200160002084600101549080600181540180825580915050600190039060005260206000200160009091909190915055836004016000866101a0015173ffffffffffffffffffffffffffffffffffffffff1673ffffffffffffffffffffffffffffffffffffffff1681526020019081526020016000206000815480929190611bbe90613460565b91905055505050505050565b611bd48383611d20565b611be16000848484611f4f565b611c20576040517f08c379a0000000000000000000000000000000000000000000000000000000008152600401611c17906135d1565b60405180910390fd5b505050565b6000807f2c89d74504b6ad8d4fbde22bc3474166bac5452a11195897f239d8bebe02d70790508091505090565b606060006001611c61846120d6565b01905060008167ffffffffffffffff811115611c8057611c7f612454565b5b6040519080825280601f01601f191660200182016040528015611cb25781602001600182028036833780820191505090505b509050600082602001820190505b600115611d15578080600190039150507f3031323334353637383961626364656600000000000000000000000000000000600a86061a8153600a8581611d0957611d086135f1565b5b04945060008503611cc0575b819350505050919050565b600073ffffffffffffffffffffffffffffffffffffffff168273ffffffffffffffffffffffffffffffffffffffff1603611d8f576040517f08c379a0000000000000000000000000000000000000000000000000000000008152600401611d869061366c565b60405180910390fd5b611d9881612229565b15611dd8576040517f08c379a0000000000000000000000000000000000000000000000000000000008152600401611dcf906136d8565b60405180910390fd5b611de660008383600161226a565b611def81612229565b15611e2f576040517f08c379a0000000000000000000000000000000000000000000000000000000008152600401611e26906136d8565b60405180910390fd5b6001611e39612270565b600a0160008473ffffffffffffffffffffffffffffffffffffffff1673ffffffffffffffffffffffffffffffffffffffff1681526020019081526020016000206000828254019250508190555081611e8f612270565b600901600083815260200190815260200160002060006101000a81548173ffffffffffffffffffffffffffffffffffffffff021916908373ffffffffffffffffffffffffffffffffffffffff160217905550808273ffffffffffffffffffffffffffffffffffffffff16600073ffffffffffffffffffffffffffffffffffffffff167fddf252ad1be2c89b69c2b068fc378daa952ba7f163c4a11628f55a4df523b3ef60405160405180910390a4611f4b60008383600161229d565b5050565b6000611f708473ffffffffffffffffffffffffffffffffffffffff166122a3565b156120c9578373ffffffffffffffffffffffffffffffffffffffff1663150b7a02611f996122c6565b8786866040518563ffffffff1660e01b8152600401611fbb94939291906136f8565b6020604051808303816000875af1925050508015611ff757506040513d601f19601f82011682018060405250810190611ff4919061379c565b60015b612079573d8060008114612027576040519150601f19603f3d011682016040523d82523d6000602084013e61202c565b606091505b506000815103612071576040517f08c379a0000000000000000000000000000000000000000000000000000000008152600401612068906135d1565b60405180910390fd5b805181602001fd5b63150b7a0260e01b7bffffffffffffffffffffffffffffffffffffffffffffffffffffffff1916817bffffffffffffffffffffffffffffffffffffffffffffffffffffffff1916149150506120ce565b600190505b949350505050565b600080600090507a184f03e93ff9f4daa797ed6e38ed64bf6a1f0100000000000000008310612134577a184f03e93ff9f4daa797ed6e38ed64bf6a1f010000000000000000838161212a576121296135f1565b5b0492506040810190505b6d04ee2d6d415b85acef81000000008310612171576d04ee2d6d415b85acef81000000008381612167576121666135f1565b5b0492506020810190505b662386f26fc1000083106121a057662386f26fc100008381612196576121956135f1565b5b0492506010810190505b6305f5e10083106121c9576305f5e10083816121bf576121be6135f1565b5b0492506008810190505b61271083106121ee5761271083816121e4576121e36135f1565b5b0492506004810190505b606483106122115760648381612207576122066135f1565b5b0492506002810190505b600a8310612220576001810190505b80915050919050565b60008073ffffffffffffffffffffffffffffffffffffffff1661224b836122ce565b73ffffffffffffffffffffffffffffffffffffffff1614159050919050565b50505050565b6000807f2569078dfb4b0305704d3008e7403993ae9601b85f7ae5e742de3de8f8011c4090508091505090565b50505050565b6000808273ffffffffffffffffffffffffffffffffffffffff163b119050919050565b600033905090565b60006122d8612270565b600901600083815260200190815260200160002060009054906101000a900473ffffffffffffffffffffffffffffffffffffffff169050919050565b604051806101c00160405280600081526020016000815260200160008152602001600081526020016000815260200160008152602001600081526020016000815260200160008152602001600081526020016000815260200160608152602001600015158152602001600073ffffffffffffffffffffffffffffffffffffffff1681525090565b60405180608001604052806000815260200160608152602001600073ffffffffffffffffffffffffffffffffffffffff168152602001600073ffffffffffffffffffffffffffffffffffffffff1681525090565b6000604051905090565b600080fd5b600080fd5b6000819050919050565b61241681612403565b811461242157600080fd5b50565b6000813590506124338161240d565b92915050565b600080fd5b600080fd5b6000601f19601f8301169050919050565b7f4e487b7100000000000000000000000000000000000000000000000000000000600052604160045260246000fd5b61248c82612443565b810181811067ffffffffffffffff821117156124ab576124aa612454565b5b80604052505050565b60006124be6123ef565b90506124ca8282612483565b919050565b600067ffffffffffffffff8211156124ea576124e9612454565b5b6124f382612443565b9050602081019050919050565b82818337600083830152505050565b600061252261251d846124cf565b6124b4565b90508281526020810184848401111561253e5761253d61243e565b5b612549848285612500565b509392505050565b600082601f83011261256657612565612439565b5b813561257684826020860161250f565b91505092915050565b600073ffffffffffffffffffffffffffffffffffffffff82169050919050565b60006125aa8261257f565b9050919050565b6125ba8161259f565b81146125c557600080fd5b50565b6000813590506125d7816125b1565b92915050565b600080600080608085870312156125f7576125f66123f9565b5b600061260587828801612424565b945050602085013567ffffffffffffffff811115612626576126256123fe565b5b61263287828801612551565b9350506040612643878288016125c8565b9250506060612654878288016125c8565b91505092959194509250565b60008060408385031215612677576126766123f9565b5b600061268585828601612424565b925050602061269685828601612424565b9150509250929050565b600080fd5b600080fd5b60008115159050919050565b6126bf816126aa565b81146126ca57600080fd5b50565b6000813590506126dc816126b6565b92915050565b60006101c082840312156126f9576126f86126a0565b5b6127046101c06124b4565b9050600061271484828501612424565b600083015250602061272884828501612424565b602083015250604061273c84828501612424565b604083015250606061275084828501612424565b606083015250608061276484828501612424565b60808301525060a061277884828501612424565b60a08301525060c061278c84828501612424565b60c08301525060e06127a084828501612424565b60e0830152506101006127b584828501612424565b610100830152506101206127cb84828501612424565b610120830152506101406127e184828501612424565b6101408301525061016082013567ffffffffffffffff811115612807576128066126a5565b5b61281384828501612551565b61016083015250610180612829848285016126cd565b610180830152506101a061283f848285016125c8565b6101a08301525092915050565b600060208284031215612862576128616123f9565b5b600082013567ffffffffffffffff8111156128805761287f6123fe565b5b61288c848285016126e2565b91505092915050565b6000602082840312156128ab576128aa6123f9565b5b60006128b984828501612424565b91505092915050565b6128cb81612403565b82525050565b6128da816126aa565b82525050565b600060c0820190506128f560008301896128c2565b61290260208301886128c2565b61290f60408301876128c2565b61291c60608301866128c2565b61292960808301856128c2565b61293660a08301846128d1565b979650505050505050565b61294a81612403565b82525050565b600081519050919050565b600082825260208201905092915050565b60005b8381101561298a57808201518184015260208101905061296f565b60008484015250505050565b60006129a182612950565b6129ab818561295b565b93506129bb81856020860161296c565b6129c481612443565b840191505092915050565b6129d8816126aa565b82525050565b6129e78161259f565b82525050565b60006101c083016000830151612a066000860182612941565b506020830151612a196020860182612941565b506040830151612a2c6040860182612941565b506060830151612a3f6060860182612941565b506080830151612a526080860182612941565b5060a0830151612a6560a0860182612941565b5060c0830151612a7860c0860182612941565b5060e0830151612a8b60e0860182612941565b50610100830151612aa0610100860182612941565b50610120830151612ab5610120860182612941565b50610140830151612aca610140860182612941565b50610160830151848203610160860152612ae48282612996565b915050610180830151612afb6101808601826129cf565b506101a0830151612b106101a08601826129de565b508091505092915050565b60006020820190508181036000830152612b3581846129ed565b905092915050565b600060408284031215612b5357612b526126a0565b5b612b5d60406124b4565b90506000612b6d848285016125c8565b6000830152506020612b8184828501612424565b60208301525092915050565b600060408284031215612ba357612ba26123f9565b5b6000612bb184828501612b3d565b91505092915050565b6000608083016000830151612bd26000860182612941565b5060208301518482036020860152612bea8282612996565b9150506040830151612bff60408601826129de565b506060830151612c1260608601826129de565b508091505092915050565b60006020820190508181036000830152612c378184612bba565b905092915050565b600080600060608486031215612c5857612c576123f9565b5b6000612c6686828701612424565b935050602084013567ffffffffffffffff811115612c8757612c866123fe565b5b612c9386828701612551565b9250506040612ca4868287016125c8565b9150509250925092565b600080600060608486031215612cc757612cc66123f9565b5b600084013567ffffffffffffffff811115612ce557612ce46123fe565b5b612cf186828701612551565b9350506020612d02868287016125c8565b9250506040612d1386828701612424565b9150509250925092565b600082825260208201905092915050565b6000612d3982612950565b612d438185612d1d565b9350612d5381856020860161296c565b612d5c81612443565b840191505092915050565b612d708161259f565b82525050565b6000819050919050565b6000819050919050565b6000612da5612da0612d9b84612d76565b612d80565b612403565b9050919050565b612db581612d8a565b82525050565b6000819050919050565b600067ffffffffffffffff82169050919050565b6000612df4612def612dea84612dbb565b612d80565b612dc5565b9050919050565b612e0481612dd9565b82525050565b600081519050919050565b600082825260208201905092915050565b6000612e3182612e0a565b612e3b8185612e15565b9350612e4b81856020860161296c565b612e5481612443565b840191505092915050565b600060a0820190508181036000830152612e798188612d2e565b9050612e886020830187612d67565b612e956040830186612dac565b612ea26060830185612dfb565b8181036080830152612eb48184612e26565b90509695505050505050565b604082016000820151612ed660008501826129de565b506020820151612ee96020850182612941565b50505050565b6000604082019050612f046000830184612ec0565b92915050565b7f4e487b7100000000000000000000000000000000000000000000000000000000600052602260045260246000fd5b60006002820490506001821680612f5157607f821691505b602082108103612f6457612f63612f0a565b5b50919050565b60008190508160005260206000209050919050565b60006020601f8301049050919050565b600082821b905092915050565b600060088302612fcc7fffffffffffffffffffffffffffffffffffffffffffffffffffffffffffffffff82612f8f565b612fd68683612f8f565b95508019841693508086168417925050509392505050565b6000613009613004612fff84612403565b612d80565b612403565b9050919050565b6000819050919050565b61302383612fee565b61303761302f82613010565b848454612f9c565b825550505050565b600090565b61304c61303f565b61305781848461301a565b505050565b5b8181101561307b57613070600082613044565b60018101905061305d565b5050565b601f8211156130c05761309181612f6a565b61309a84612f7f565b810160208510156130a9578190505b6130bd6130b585612f7f565b83018261305c565b50505b505050565b600082821c905092915050565b60006130e3600019846008026130c5565b1980831691505092915050565b60006130fc83836130d2565b9150826002028217905092915050565b61311582612950565b67ffffffffffffffff81111561312e5761312d612454565b5b6131388254612f39565b61314382828561307f565b600060209050601f8311600181146131765760008415613164578287015190505b61316e85826130f0565b8655506131d6565b601f19841661318486612f6a565b60005b828110156131ac57848901518255600182019150602085019450602081019050613187565b868310156131c957848901516131c5601f8916826130d2565b8355505b6001600288020188555050505b505050505050565b7f796f7520617265206e6f742069646c6500000000000000000000000000000000600082015250565b6000613214601083612d1d565b915061321f826131de565b602082019050919050565b6000602082019050818103600083015261324381613207565b9050919050565b7f796f7520617265206e6f7420746865206f776e65720000000000000000000000600082015250565b6000613280601583612d1d565b915061328b8261324a565b602082019050919050565b600060208201905081810360008301526132af81613273565b9050919050565b6000815490506132c581612f39565b9050919050565b60008190508160005260206000209050919050565b8181036132ef5750506133c7565b6132f8826132b6565b67ffffffffffffffff81111561331157613310612454565b5b61331b8254612f39565b61332682828561307f565b6000601f8311600181146133555760008415613343578287015490505b61334d85826130f0565b8655506133c0565b601f198416613363876132cc565b965061336e86612f6a565b60005b8281101561339657848901548255600182019150600185019450602081019050613371565b868310156133b357848901546133af601f8916826130d2565b8355505b6001600288020188555050505b5050505050505b565b7f4e487b7100000000000000000000000000000000000000000000000000000000600052601160045260246000fd5b600061340382612403565b915061340e83612403565b9250828201905080821115613426576134256133c9565b5b92915050565b600061343782612403565b915061344283612403565b925082820390508181111561345a576134596133c9565b5b92915050565b600061346b82612403565b91507fffffffffffffffffffffffffffffffffffffffffffffffffffffffffffffffff820361349d5761349c6133c9565b5b600182019050919050565b600081905092915050565b60006134be82612950565b6134c881856134a8565b93506134d881856020860161296c565b80840191505092915050565b7f2d00000000000000000000000000000000000000000000000000000000000000600082015250565b600061351a6001836134a8565b9150613525826134e4565b600182019050919050565b600061353c82856134b3565b91506135478261350d565b915061355382846134b3565b91508190509392505050565b7f4552433732313a207472616e7366657220746f206e6f6e20455243373231526560008201527f63656976657220696d706c656d656e7465720000000000000000000000000000602082015250565b60006135bb603283612d1d565b91506135c68261355f565b604082019050919050565b600060208201905081810360008301526135ea816135ae565b9050919050565b7f4e487b7100000000000000000000000000000000000000000000000000000000600052601260045260246000fd5b7f4552433732313a206d696e7420746f20746865207a65726f2061646472657373600082015250565b6000613656602083612d1d565b915061366182613620565b602082019050919050565b6000602082019050818103600083015261368581613649565b9050919050565b7f4552433732313a20746f6b656e20616c7265616479206d696e74656400000000600082015250565b60006136c2601c83612d1d565b91506136cd8261368c565b602082019050919050565b600060208201905081810360008301526136f1816136b5565b9050919050565b600060808201905061370d6000830187612d67565b61371a6020830186612d67565b61372760408301856128c2565b81810360608301526137398184612e26565b905095945050505050565b60007fffffffff0000000000000000000000000000000000000000000000000000000082169050919050565b61377981613744565b811461378457600080fd5b50565b60008151905061379681613770565b92915050565b6000602082840312156137b2576137b16123f9565b5b60006137c084828501613787565b9150509291505056fe68747470733a2f2f697066732e696f2f697066732f516d556257785564387358344d5a6f6a4b455255506d507539597441596659726f425334546531484a454b75637968747470733a2f2f697066732e696f2f697066732f516d625641427439734b704e55613844674d4a64653344424351796f72534354395631447a6436634a385a556d5068747470733a2f2f697066732e696f2f697066732f516d66424e4870787077554e67747736695842784b584c6256786f6d386d7064427367715a5a79353970524d354368747470733a2f2f697066732e696f2f697066732f516d5158655965397278526b6b716645423744725a52534732533179724e676a363456386d3676374b65747a516468747470733a2f2f697066732e696f2f697066732f516d55715a4b5275646e616e673147586244326e4848776d4a664e4e42465156646d6f483857416e65616969356868747470733a2f2f697066732e696f2f697066732f516d56357053734d47474d4c5733593979513871534c534d4451616b646e6a686a53346b356865366d4a79506548a2646970667358221220260d0f76e4fdd26a02638ece0928ae869ad8f757bde2ea6d3dd51575de6f433d64736f6c63430008120033",
  "linkReferences": {},
  "deployedLinkReferences": {}
}