{
  "_format": "hh-sol-artifact-1",
  "contractName": "BridgeFacet",
  "sourceName": "contracts/facets/BridgeFacet.sol",
  "abi": [
    {
      "inputs": [],
      "stateMutability": "nonpayable",
      "type": "constructor"
    },
    {
      "anonymous": false,
      "inputs": [
        {
          "indexed": false,
          "internalType": "uint256",
          "name": "count",
          "type": "uint256"
        }
      ],
      "name": "Increment",
      "type": "event"
    },
    {
      "anonymous": false,
      "inputs": [
        {
          "indexed": false,
          "internalType": "uint256",
          "name": "nonces",
          "type": "uint256"
        }
      ],
      "name": "IncrementOnChainReverted",
      "type": "event"
    },
    {
      "anonymous": false,
      "inputs": [
        {
          "indexed": false,
          "internalType": "uint256",
          "name": "nonce",
          "type": "uint256"
        }
      ],
      "name": "IncrementOnChainSuccess",
      "type": "event"
    },
    {
      "inputs": [],
      "name": "count",
      "outputs": [
        {
          "internalType": "uint256",
          "name": "",
          "type": "uint256"
        }
      ],
      "stateMutability": "view",
      "type": "function"
    },
    {
      "inputs": [
        {
          "internalType": "string",
          "name": "chain",
          "type": "string"
        }
      ],
      "name": "getCountFor",
      "outputs": [
        {
          "internalType": "uint256",
          "name": "",
          "type": "uint256"
        }
      ],
      "stateMutability": "view",
      "type": "function"
    },
    {
      "inputs": [],
      "name": "increment",
      "outputs": [],
      "stateMutability": "nonpayable",
      "type": "function"
    },
    {
      "inputs": [
        {
          "internalType": "string",
          "name": "chain",
          "type": "string"
        },
        {
          "internalType": "address",
          "name": "counter",
          "type": "address"
        }
      ],
      "name": "incrementOnChain",
      "outputs": [],
      "stateMutability": "nonpayable",
      "type": "function"
    },
    {
      "inputs": [
        {
          "internalType": "uint256",
          "name": "",
          "type": "uint256"
        }
      ],
      "name": "incrementSuccess",
      "outputs": [
        {
          "internalType": "bool",
          "name": "",
          "type": "bool"
        }
      ],
      "stateMutability": "view",
      "type": "function"
    },
    {
      "inputs": [
        {
          "components": [
            {
              "internalType": "bytes32",
              "name": "sourceTxHash",
              "type": "bytes32"
            },
            {
              "internalType": "string",
              "name": "sourceChain",
              "type": "string"
            },
            {
              "internalType": "string",
              "name": "destChain",
              "type": "string"
            },
            {
              "internalType": "uint64",
              "name": "nonce",
              "type": "uint64"
            },
            {
              "internalType": "address",
              "name": "from",
              "type": "address"
            },
            {
              "internalType": "address",
              "name": "to",
              "type": "address"
            },
            {
              "internalType": "uint256",
              "name": "value",
              "type": "uint256"
            },
            {
              "internalType": "uint256",
              "name": "paid",
              "type": "uint256"
            },
            {
              "internalType": "uint64",
              "name": "gasLimit",
              "type": "uint64"
            },
            {
              "internalType": "bytes",
              "name": "data",
              "type": "bytes"
            }
          ],
          "internalType": "struct OmniCodec.Tx",
          "name": "_xtx",
          "type": "tuple"
        },
        {
          "internalType": "address",
          "name": "_sender",
          "type": "address"
        },
        {
          "internalType": "uint256",
          "name": "_gasSpent",
          "type": "uint256"
        }
      ],
      "name": "onXChainTxReverted",
      "outputs": [],
      "stateMutability": "nonpayable",
      "type": "function"
    },
    {
      "inputs": [
        {
          "components": [
            {
              "internalType": "bytes32",
              "name": "sourceTxHash",
              "type": "bytes32"
            },
            {
              "internalType": "string",
              "name": "sourceChain",
              "type": "string"
            },
            {
              "internalType": "string",
              "name": "destChain",
              "type": "string"
            },
            {
              "internalType": "uint64",
              "name": "nonce",
              "type": "uint64"
            },
            {
              "internalType": "address",
              "name": "from",
              "type": "address"
            },
            {
              "internalType": "address",
              "name": "to",
              "type": "address"
            },
            {
              "internalType": "uint256",
              "name": "value",
              "type": "uint256"
            },
            {
              "internalType": "uint256",
              "name": "paid",
              "type": "uint256"
            },
            {
              "internalType": "uint64",
              "name": "gasLimit",
              "type": "uint64"
            },
            {
              "internalType": "bytes",
              "name": "data",
              "type": "bytes"
            }
          ],
          "internalType": "struct OmniCodec.Tx",
          "name": "_xtx",
          "type": "tuple"
        },
        {
          "internalType": "address",
          "name": "_sender",
          "type": "address"
        },
        {
          "internalType": "bytes",
          "name": "_returnValue",
          "type": "bytes"
        },
        {
          "internalType": "uint256",
          "name": "_gasSpent",
          "type": "uint256"
        }
      ],
      "name": "onXChainTxSuccess",
      "outputs": [],
      "stateMutability": "nonpayable",
      "type": "function"
    }
  ],
  "bytecode": "0x608060405234801561001057600080fd5b5060008081905550610ffe806100276000396000f3fe608060405234801561001057600080fd5b506004361061007d5760003560e01c806358bf23251161005b57806358bf2325146100ec57806372184faf146101085780639e0552aa14610138578063d09de08a146101545761007d565b806306661abd146100825780631c2a31f8146100a05780632140f89f146100d0575b600080fd5b61008a61015e565b6040516100979190610587565b60405180910390f35b6100ba60048036038101906100b591906106fc565b610164565b6040516100c79190610587565b60405180910390f35b6100ea60048036038101906100e59190610a3a565b61018c565b005b61010660048036038101906101019190610ad9565b610253565b005b610122600480360381019061011d9190610b35565b610376565b60405161012f9190610b7d565b60405180910390f35b610152600480360381019061014d9190610b98565b610396565b005b61015c61045c565b005b60005481565b60006001826040516101769190610c78565b9081526020016040518091039020549050919050565b73121240000000000000000000000000000000000173ffffffffffffffffffffffffffffffffffffffff163373ffffffffffffffffffffffffffffffffffffffff16146101d857600080fd5b600160026000866060015167ffffffffffffffff16815260200190815260200160002060006101000a81548160ff0219169083151502179055507f876b93eb89a5c0d3a5a4bfdb980463c823c86c99a429d063d539f530ea8a69c584606001516040516102459190610cca565b60405180910390a150505050565b73121240000000000000000000000000000000000173ffffffffffffffffffffffffffffffffffffffff16639dbfacc983836000620186a06040516024016040516020818303038152906040527fd09de08a000000000000000000000000000000000000000000000000000000007bffffffffffffffffffffffffffffffffffffffffffffffffffffffff19166020820180517bffffffffffffffffffffffffffffffffffffffffffffffffffffffff83818316178352505050506040518663ffffffff1660e01b815260040161032e959493929190610e09565b6020604051808303816000875af115801561034d573d6000803e3d6000fd5b505050506040513d601f19601f820116820180604052508101906103719190610e7f565b505050565b60026020528060005260406000206000915054906101000a900460ff1681565b73121240000000000000000000000000000000000173ffffffffffffffffffffffffffffffffffffffff163373ffffffffffffffffffffffffffffffffffffffff16146103e257600080fd5b600060026000856060015167ffffffffffffffff16815260200190815260200160002060006101000a81548160ff0219169083151502179055507fb10ffa70cf5b759a88c4e87c2870cb8231bdae003d977f466ec48a33a7e6b2d5836060015160405161044f9190610cca565b60405180910390a1505050565b600160008082825461046e9190610edb565b9250508190555060018073121240000000000000000000000000000000000173ffffffffffffffffffffffffffffffffffffffff1663ebf93f686040518163ffffffff1660e01b81526004016000604051808303816000875af11580156104d9573d6000803e3d6000fd5b505050506040513d6000823e3d601f19601f820116820180604052508101906105029190610f7f565b60405161050f9190610c78565b9081526020016040518091039020600082825461052c9190610edb565b925050819055507f51af157c2eee40f68107a47a49c32fbbeb0a3c9e5cd37aa56e88e6be92368a816000546040516105649190610587565b60405180910390a1565b6000819050919050565b6105818161056e565b82525050565b600060208201905061059c6000830184610578565b92915050565b6000604051905090565b600080fd5b600080fd5b600080fd5b600080fd5b6000601f19601f8301169050919050565b7f4e487b7100000000000000000000000000000000000000000000000000000000600052604160045260246000fd5b610609826105c0565b810181811067ffffffffffffffff82111715610628576106276105d1565b5b80604052505050565b600061063b6105a2565b90506106478282610600565b919050565b600067ffffffffffffffff821115610667576106666105d1565b5b610670826105c0565b9050602081019050919050565b82818337600083830152505050565b600061069f61069a8461064c565b610631565b9050828152602081018484840111156106bb576106ba6105bb565b5b6106c684828561067d565b509392505050565b600082601f8301126106e3576106e26105b6565b5b81356106f384826020860161068c565b91505092915050565b600060208284031215610712576107116105ac565b5b600082013567ffffffffffffffff8111156107305761072f6105b1565b5b61073c848285016106ce565b91505092915050565b600080fd5b600080fd5b6000819050919050565b6107628161074f565b811461076d57600080fd5b50565b60008135905061077f81610759565b92915050565b600067ffffffffffffffff82169050919050565b6107a281610785565b81146107ad57600080fd5b50565b6000813590506107bf81610799565b92915050565b600073ffffffffffffffffffffffffffffffffffffffff82169050919050565b60006107f0826107c5565b9050919050565b610800816107e5565b811461080b57600080fd5b50565b60008135905061081d816107f7565b92915050565b61082c8161056e565b811461083757600080fd5b50565b60008135905061084981610823565b92915050565b600067ffffffffffffffff82111561086a576108696105d1565b5b610873826105c0565b9050602081019050919050565b600061089361088e8461084f565b610631565b9050828152602081018484840111156108af576108ae6105bb565b5b6108ba84828561067d565b509392505050565b600082601f8301126108d7576108d66105b6565b5b81356108e7848260208601610880565b91505092915050565b6000610140828403121561090757610906610745565b5b610912610140610631565b9050600061092284828501610770565b600083015250602082013567ffffffffffffffff8111156109465761094561074a565b5b610952848285016106ce565b602083015250604082013567ffffffffffffffff8111156109765761097561074a565b5b610982848285016106ce565b6040830152506060610996848285016107b0565b60608301525060806109aa8482850161080e565b60808301525060a06109be8482850161080e565b60a08301525060c06109d28482850161083a565b60c08301525060e06109e68482850161083a565b60e0830152506101006109fb848285016107b0565b6101008301525061012082013567ffffffffffffffff811115610a2157610a2061074a565b5b610a2d848285016108c2565b6101208301525092915050565b60008060008060808587031215610a5457610a536105ac565b5b600085013567ffffffffffffffff811115610a7257610a716105b1565b5b610a7e878288016108f0565b9450506020610a8f8782880161080e565b935050604085013567ffffffffffffffff811115610ab057610aaf6105b1565b5b610abc878288016108c2565b9250506060610acd8782880161083a565b91505092959194509250565b60008060408385031215610af057610aef6105ac565b5b600083013567ffffffffffffffff811115610b0e57610b0d6105b1565b5b610b1a858286016106ce565b9250506020610b2b8582860161080e565b9150509250929050565b600060208284031215610b4b57610b4a6105ac565b5b6000610b598482850161083a565b91505092915050565b60008115159050919050565b610b7781610b62565b82525050565b6000602082019050610b926000830184610b6e565b92915050565b600080600060608486031215610bb157610bb06105ac565b5b600084013567ffffffffffffffff811115610bcf57610bce6105b1565b5b610bdb868287016108f0565b9350506020610bec8682870161080e565b9250506040610bfd8682870161083a565b9150509250925092565b600081519050919050565b600081905092915050565b60005b83811015610c3b578082015181840152602081019050610c20565b60008484015250505050565b6000610c5282610c07565b610c5c8185610c12565b9350610c6c818560208601610c1d565b80840191505092915050565b6000610c848284610c47565b915081905092915050565b6000819050919050565b6000610cb4610caf610caa84610785565b610c8f565b61056e565b9050919050565b610cc481610c99565b82525050565b6000602082019050610cdf6000830184610cbb565b92915050565b600082825260208201905092915050565b6000610d0182610c07565b610d0b8185610ce5565b9350610d1b818560208601610c1d565b610d24816105c0565b840191505092915050565b610d38816107e5565b82525050565b6000819050919050565b6000610d63610d5e610d5984610d3e565b610c8f565b61056e565b9050919050565b610d7381610d48565b82525050565b6000819050919050565b6000610d9e610d99610d9484610d79565b610c8f565b610785565b9050919050565b610dae81610d83565b82525050565b600081519050919050565b600082825260208201905092915050565b6000610ddb82610db4565b610de58185610dbf565b9350610df5818560208601610c1d565b610dfe816105c0565b840191505092915050565b600060a0820190508181036000830152610e238188610cf6565b9050610e326020830187610d2f565b610e3f6040830186610d6a565b610e4c6060830185610da5565b8181036080830152610e5e8184610dd0565b90509695505050505050565b600081519050610e7981610823565b92915050565b600060208284031215610e9557610e946105ac565b5b6000610ea384828501610e6a565b91505092915050565b7f4e487b7100000000000000000000000000000000000000000000000000000000600052601160045260246000fd5b6000610ee68261056e565b9150610ef18361056e565b9250828201905080821115610f0957610f08610eac565b5b92915050565b6000610f22610f1d8461064c565b610631565b905082815260208101848484011115610f3e57610f3d6105bb565b5b610f49848285610c1d565b509392505050565b600082601f830112610f6657610f656105b6565b5b8151610f76848260208601610f0f565b91505092915050565b600060208284031215610f9557610f946105ac565b5b600082015167ffffffffffffffff811115610fb357610fb26105b1565b5b610fbf84828501610f51565b9150509291505056fea2646970667358221220dd50fef41eb4b4fc0f5193f9286344626579ca1abbcc04639a9e92bcacf5907f64736f6c63430008120033",
  "linkReferences": {},
  "deployedLinkReferences": {}
}