{
  "_format": "hh-sol-artifact-1",
  "contractName": "BridgeFacet",
  "sourceName": "contracts/facets/BridgeFacet.sol",
  "abi": [
    {
      "anonymous": false,
      "inputs": [
        {
          "indexed": true,
          "internalType": "address",
          "name": "owner",
          "type": "address"
        },
        {
          "indexed": true,
          "internalType": "address",
          "name": "approved",
          "type": "address"
        },
        {
          "indexed": true,
          "internalType": "uint256",
          "name": "tokenId",
          "type": "uint256"
        }
      ],
      "name": "Approval",
      "type": "event"
    },
    {
      "anonymous": false,
      "inputs": [
        {
          "indexed": true,
          "internalType": "address",
          "name": "owner",
          "type": "address"
        },
        {
          "indexed": true,
          "internalType": "address",
          "name": "operator",
          "type": "address"
        },
        {
          "indexed": false,
          "internalType": "bool",
          "name": "approved",
          "type": "bool"
        }
      ],
      "name": "ApprovalForAll",
      "type": "event"
    },
    {
      "anonymous": false,
      "inputs": [
        {
          "indexed": true,
          "internalType": "uint256",
          "name": "_chainId",
          "type": "uint256"
        },
        {
          "indexed": true,
          "internalType": "address",
          "name": "_portal",
          "type": "address"
        },
        {
          "indexed": true,
          "internalType": "address",
          "name": "_diamond",
          "type": "address"
        }
      ],
      "name": "BridgeCreated",
      "type": "event"
    },
    {
      "anonymous": false,
      "inputs": [
        {
          "indexed": true,
          "internalType": "uint256",
          "name": "_playerId",
          "type": "uint256"
        },
        {
          "components": [
            {
              "internalType": "uint256",
              "name": "class",
              "type": "uint256"
            },
            {
              "internalType": "uint256",
              "name": "level",
              "type": "uint256"
            },
            {
              "internalType": "uint256",
              "name": "xp",
              "type": "uint256"
            },
            {
              "internalType": "uint256",
              "name": "strength",
              "type": "uint256"
            },
            {
              "internalType": "uint256",
              "name": "health",
              "type": "uint256"
            },
            {
              "internalType": "uint256",
              "name": "magic",
              "type": "uint256"
            },
            {
              "internalType": "uint256",
              "name": "maxMana",
              "type": "uint256"
            },
            {
              "internalType": "uint256",
              "name": "agility",
              "type": "uint256"
            },
            {
              "internalType": "uint256",
              "name": "defense",
              "type": "uint256"
            },
            {
              "internalType": "uint256",
              "name": "baseChain",
              "type": "uint256"
            },
            {
              "internalType": "uint256",
              "name": "baseId",
              "type": "uint256"
            },
            {
              "internalType": "string",
              "name": "name",
              "type": "string"
            },
            {
              "internalType": "bool",
              "name": "isMale",
              "type": "bool"
            }
          ],
          "indexed": false,
          "internalType": "struct BridgeFormat",
          "name": "_format",
          "type": "tuple"
        }
      ],
      "name": "BridgePlayer",
      "type": "event"
    },
    {
      "anonymous": false,
      "inputs": [
        {
          "components": [
            {
              "internalType": "uint256",
              "name": "class",
              "type": "uint256"
            },
            {
              "internalType": "uint256",
              "name": "level",
              "type": "uint256"
            },
            {
              "internalType": "uint256",
              "name": "xp",
              "type": "uint256"
            },
            {
              "internalType": "uint256",
              "name": "strength",
              "type": "uint256"
            },
            {
              "internalType": "uint256",
              "name": "health",
              "type": "uint256"
            },
            {
              "internalType": "uint256",
              "name": "magic",
              "type": "uint256"
            },
            {
              "internalType": "uint256",
              "name": "maxMana",
              "type": "uint256"
            },
            {
              "internalType": "uint256",
              "name": "agility",
              "type": "uint256"
            },
            {
              "internalType": "uint256",
              "name": "defense",
              "type": "uint256"
            },
            {
              "internalType": "uint256",
              "name": "baseChain",
              "type": "uint256"
            },
            {
              "internalType": "uint256",
              "name": "baseId",
              "type": "uint256"
            },
            {
              "internalType": "string",
              "name": "name",
              "type": "string"
            },
            {
              "internalType": "bool",
              "name": "isMale",
              "type": "bool"
            }
          ],
          "indexed": false,
          "internalType": "struct BridgeFormat",
          "name": "_format",
          "type": "tuple"
        }
      ],
      "name": "ReMintPlayer",
      "type": "event"
    },
    {
      "anonymous": false,
      "inputs": [
        {
          "indexed": true,
          "internalType": "address",
          "name": "from",
          "type": "address"
        },
        {
          "indexed": true,
          "internalType": "address",
          "name": "to",
          "type": "address"
        },
        {
          "indexed": true,
          "internalType": "uint256",
          "name": "tokenId",
          "type": "uint256"
        }
      ],
      "name": "Transfer",
      "type": "event"
    },
    {
      "inputs": [
        {
          "internalType": "uint256",
          "name": "_playerId",
          "type": "uint256"
        },
        {
          "internalType": "uint256",
          "name": "_chainId",
          "type": "uint256"
        }
      ],
      "name": "bridgePlayer",
      "outputs": [],
      "stateMutability": "nonpayable",
      "type": "function"
    },
    {
      "inputs": [
        {
          "internalType": "uint256",
          "name": "_chainId",
          "type": "uint256"
        },
        {
          "internalType": "string",
          "name": "_name",
          "type": "string"
        },
        {
          "internalType": "address",
          "name": "_portal",
          "type": "address"
        },
        {
          "internalType": "address",
          "name": "_diamond",
          "type": "address"
        }
      ],
      "name": "createBridge",
      "outputs": [],
      "stateMutability": "nonpayable",
      "type": "function"
    },
    {
      "inputs": [
        {
          "internalType": "uint256",
          "name": "_chainId",
          "type": "uint256"
        }
      ],
      "name": "getChainData",
      "outputs": [
        {
          "components": [
            {
              "internalType": "uint256",
              "name": "chainId",
              "type": "uint256"
            },
            {
              "internalType": "string",
              "name": "name",
              "type": "string"
            },
            {
              "internalType": "address",
              "name": "portal",
              "type": "address"
            },
            {
              "internalType": "address",
              "name": "diamond",
              "type": "address"
            }
          ],
          "internalType": "struct ChainData",
          "name": "",
          "type": "tuple"
        }
      ],
      "stateMutability": "view",
      "type": "function"
    },
    {
      "inputs": [],
      "name": "omni",
      "outputs": [
        {
          "internalType": "contract IOmniPortal",
          "name": "",
          "type": "address"
        }
      ],
      "stateMutability": "view",
      "type": "function"
    },
    {
      "inputs": [
        {
          "components": [
            {
              "internalType": "uint256",
              "name": "class",
              "type": "uint256"
            },
            {
              "internalType": "uint256",
              "name": "level",
              "type": "uint256"
            },
            {
              "internalType": "uint256",
              "name": "xp",
              "type": "uint256"
            },
            {
              "internalType": "uint256",
              "name": "strength",
              "type": "uint256"
            },
            {
              "internalType": "uint256",
              "name": "health",
              "type": "uint256"
            },
            {
              "internalType": "uint256",
              "name": "magic",
              "type": "uint256"
            },
            {
              "internalType": "uint256",
              "name": "maxMana",
              "type": "uint256"
            },
            {
              "internalType": "uint256",
              "name": "agility",
              "type": "uint256"
            },
            {
              "internalType": "uint256",
              "name": "defense",
              "type": "uint256"
            },
            {
              "internalType": "uint256",
              "name": "baseChain",
              "type": "uint256"
            },
            {
              "internalType": "uint256",
              "name": "baseId",
              "type": "uint256"
            },
            {
              "internalType": "string",
              "name": "name",
              "type": "string"
            },
            {
              "internalType": "bool",
              "name": "isMale",
              "type": "bool"
            }
          ],
          "internalType": "struct BridgeFormat",
          "name": "_format",
          "type": "tuple"
        }
      ],
      "name": "reMintPlayer",
      "outputs": [],
      "stateMutability": "nonpayable",
      "type": "function"
    }
  ],
  "bytecode": "0x608060405234801561001057600080fd5b50611779806100206000396000f3fe608060405234801561001057600080fd5b50600436106100575760003560e01c806303f256ec1461005c57806339acf9f114610078578063537ce61514610096578063aeb45f01146100b2578063d24e417a146100e2575b600080fd5b61007660048036038101906100719190610c49565b6100fe565b005b61008061016b565b60405161008d9190610d2b565b60405180910390f35b6100b060048036038101906100ab9190610d46565b61018f565b005b6100cc60048036038101906100c79190610d86565b610357565b6040516100d99190610eb3565b60405180910390f35b6100fc60048036038101906100f7919061106b565b61036f565b005b61010a84848484610372565b8073ffffffffffffffffffffffffffffffffffffffff168273ffffffffffffffffffffffffffffffffffffffff16857f924c77d15e16cd31a7b4457de58065af652bd3178fe5f5f2ff801196f030fe7860405160405180910390a450505050565b60008054906101000a900473ffffffffffffffffffffffffffffffffffffffff1681565b600061019a82610357565b905080604001516000806101000a81548173ffffffffffffffffffffffffffffffffffffffff021916908373ffffffffffffffffffffffffffffffffffffffff16021790555060006101eb84610498565b905060008054906101000a900473ffffffffffffffffffffffffffffffffffffffff1673ffffffffffffffffffffffffffffffffffffffff1663381aa2cf836020015184606001516000620186a08660405160240161024a91906111dc565b6040516020818303038152906040527ffc32acfb000000000000000000000000000000000000000000000000000000007bffffffffffffffffffffffffffffffffffffffffffffffffffffffff19166020820180517bffffffffffffffffffffffffffffffffffffffffffffffffffffffff83818316178352505050506040518663ffffffff1660e01b81526004016102e7959493929190611336565b600060405180830381600087803b15801561030157600080fd5b505af1158015610315573d6000803e3d6000fd5b50505050837febb6823f5ac4933b44c79a87ad823e9c1f9c887d48a9ef01fb26503713d207e68260405161034991906111dc565b60405180910390a250505050565b61035f61099d565b610368826107bf565b9050919050565b50565b600061037c610943565b905060405180608001604052808681526020018581526020018473ffffffffffffffffffffffffffffffffffffffff1681526020018373ffffffffffffffffffffffffffffffffffffffff168152508160000160008781526020019081526020016000206000820151816000015560208201518160010190816103ff9190611599565b5060408201518160020160006101000a81548173ffffffffffffffffffffffffffffffffffffffff021916908373ffffffffffffffffffffffffffffffffffffffff16021790555060608201518160030160006101000a81548173ffffffffffffffffffffffffffffffffffffffff021916908373ffffffffffffffffffffffffffffffffffffffff1602179055509050505050505050565b6104a06109f1565b60006104aa610970565b905060006104b6610943565b905060008260030160008681526020019081526020016000206002015414610513576040517f08c379a000000000000000000000000000000000000000000000000000000000815260040161050a906116b7565b60405180910390fd5b3373ffffffffffffffffffffffffffffffffffffffff1682600201600086815260200190815260200160002060009054906101000a900473ffffffffffffffffffffffffffffffffffffffff1673ffffffffffffffffffffffffffffffffffffffff16146105b6576040517f08c379a00000000000000000000000000000000000000000000000000000000081526004016105ad90611723565b60405180910390fd5b6064826003016000868152602001908152602001600020600201819055506000826003016000868152602001908152602001600020905060008083600201600088815260200190815260200160002060009054906101000a900460ff1661065057469150869050600184600201600089815260200190815260200160002060006101000a81548160ff021916908315150217905550610692565b83600301600088815260200190815260200160002054915083600101600083815260200190815260200160002060008881526020019081526020016000205490505b6000604051806101a00160405280856019015481526020018560000154815260200185600101548152602001856003015481526020018560040154815260200185600601548152602001856008015481526020018560090154815260200185600e0154815260200184815260200183815260200185600f018054610715906113c6565b80601f0160208091040260200160405190810160405280929190818152602001828054610741906113c6565b801561078e5780601f106107635761010080835404028352916020019161078e565b820191906000526020600020905b81548152906001019060200180831161077157829003601f168201915b505050505081526020018560110160009054906101000a900460ff1615158152509050809650505050505050919050565b6107c761099d565b60006107d1610943565b90508060000160008481526020019081526020016000206040518060800160405290816000820154815260200160018201805461080d906113c6565b80601f0160208091040260200160405190810160405280929190818152602001828054610839906113c6565b80156108865780601f1061085b57610100808354040283529160200191610886565b820191906000526020600020905b81548152906001019060200180831161086957829003601f168201915b505050505081526020016002820160009054906101000a900473ffffffffffffffffffffffffffffffffffffffff1673ffffffffffffffffffffffffffffffffffffffff1673ffffffffffffffffffffffffffffffffffffffff1681526020016003820160009054906101000a900473ffffffffffffffffffffffffffffffffffffffff1673ffffffffffffffffffffffffffffffffffffffff1673ffffffffffffffffffffffffffffffffffffffff1681525050915050919050565b6000807f4cde922899fdacbde63ed2c277d08801981412358b79d054d98add0ca65dea1990508091505090565b6000807f3cab9a070a0c61cd0ae9d9e9e2c0781e5ca8691bec4087e5a4701d5ac018dd4e90508091505090565b60405180608001604052806000815260200160608152602001600073ffffffffffffffffffffffffffffffffffffffff168152602001600073ffffffffffffffffffffffffffffffffffffffff1681525090565b604051806101a001604052806000815260200160008152602001600081526020016000815260200160008152602001600081526020016000815260200160008152602001600081526020016000815260200160008152602001606081526020016000151581525090565b6000604051905090565b600080fd5b600080fd5b6000819050919050565b610a8281610a6f565b8114610a8d57600080fd5b50565b600081359050610a9f81610a79565b92915050565b600080fd5b600080fd5b6000601f19601f8301169050919050565b7f4e487b7100000000000000000000000000000000000000000000000000000000600052604160045260246000fd5b610af882610aaf565b810181811067ffffffffffffffff82111715610b1757610b16610ac0565b5b80604052505050565b6000610b2a610a5b565b9050610b368282610aef565b919050565b600067ffffffffffffffff821115610b5657610b55610ac0565b5b610b5f82610aaf565b9050602081019050919050565b82818337600083830152505050565b6000610b8e610b8984610b3b565b610b20565b905082815260208101848484011115610baa57610ba9610aaa565b5b610bb5848285610b6c565b509392505050565b600082601f830112610bd257610bd1610aa5565b5b8135610be2848260208601610b7b565b91505092915050565b600073ffffffffffffffffffffffffffffffffffffffff82169050919050565b6000610c1682610beb565b9050919050565b610c2681610c0b565b8114610c3157600080fd5b50565b600081359050610c4381610c1d565b92915050565b60008060008060808587031215610c6357610c62610a65565b5b6000610c7187828801610a90565b945050602085013567ffffffffffffffff811115610c9257610c91610a6a565b5b610c9e87828801610bbd565b9350506040610caf87828801610c34565b9250506060610cc087828801610c34565b91505092959194509250565b6000819050919050565b6000610cf1610cec610ce784610beb565b610ccc565b610beb565b9050919050565b6000610d0382610cd6565b9050919050565b6000610d1582610cf8565b9050919050565b610d2581610d0a565b82525050565b6000602082019050610d406000830184610d1c565b92915050565b60008060408385031215610d5d57610d5c610a65565b5b6000610d6b85828601610a90565b9250506020610d7c85828601610a90565b9150509250929050565b600060208284031215610d9c57610d9b610a65565b5b6000610daa84828501610a90565b91505092915050565b610dbc81610a6f565b82525050565b600081519050919050565b600082825260208201905092915050565b60005b83811015610dfc578082015181840152602081019050610de1565b60008484015250505050565b6000610e1382610dc2565b610e1d8185610dcd565b9350610e2d818560208601610dde565b610e3681610aaf565b840191505092915050565b610e4a81610c0b565b82525050565b6000608083016000830151610e686000860182610db3565b5060208301518482036020860152610e808282610e08565b9150506040830151610e956040860182610e41565b506060830151610ea86060860182610e41565b508091505092915050565b60006020820190508181036000830152610ecd8184610e50565b905092915050565b600080fd5b600080fd5b60008115159050919050565b610ef481610edf565b8114610eff57600080fd5b50565b600081359050610f1181610eeb565b92915050565b60006101a08284031215610f2e57610f2d610ed5565b5b610f396101a0610b20565b90506000610f4984828501610a90565b6000830152506020610f5d84828501610a90565b6020830152506040610f7184828501610a90565b6040830152506060610f8584828501610a90565b6060830152506080610f9984828501610a90565b60808301525060a0610fad84828501610a90565b60a08301525060c0610fc184828501610a90565b60c08301525060e0610fd584828501610a90565b60e083015250610100610fea84828501610a90565b6101008301525061012061100084828501610a90565b6101208301525061014061101684828501610a90565b6101408301525061016082013567ffffffffffffffff81111561103c5761103b610eda565b5b61104884828501610bbd565b6101608301525061018061105e84828501610f02565b6101808301525092915050565b60006020828403121561108157611080610a65565b5b600082013567ffffffffffffffff81111561109f5761109e610a6a565b5b6110ab84828501610f17565b91505092915050565b6110bd81610edf565b82525050565b60006101a0830160008301516110dc6000860182610db3565b5060208301516110ef6020860182610db3565b5060408301516111026040860182610db3565b5060608301516111156060860182610db3565b5060808301516111286080860182610db3565b5060a083015161113b60a0860182610db3565b5060c083015161114e60c0860182610db3565b5060e083015161116160e0860182610db3565b50610100830151611176610100860182610db3565b5061012083015161118b610120860182610db3565b506101408301516111a0610140860182610db3565b506101608301518482036101608601526111ba8282610e08565b9150506101808301516111d16101808601826110b4565b508091505092915050565b600060208201905081810360008301526111f681846110c3565b905092915050565b600082825260208201905092915050565b600061121a82610dc2565b61122481856111fe565b9350611234818560208601610dde565b61123d81610aaf565b840191505092915050565b61125181610c0b565b82525050565b6000819050919050565b600061127c61127761127284611257565b610ccc565b610a6f565b9050919050565b61128c81611261565b82525050565b6000819050919050565b600067ffffffffffffffff82169050919050565b60006112cb6112c66112c184611292565b610ccc565b61129c565b9050919050565b6112db816112b0565b82525050565b600081519050919050565b600082825260208201905092915050565b6000611308826112e1565b61131281856112ec565b9350611322818560208601610dde565b61132b81610aaf565b840191505092915050565b600060a0820190508181036000830152611350818861120f565b905061135f6020830187611248565b61136c6040830186611283565b61137960608301856112d2565b818103608083015261138b81846112fd565b90509695505050505050565b7f4e487b7100000000000000000000000000000000000000000000000000000000600052602260045260246000fd5b600060028204905060018216806113de57607f821691505b6020821081036113f1576113f0611397565b5b50919050565b60008190508160005260206000209050919050565b60006020601f8301049050919050565b600082821b905092915050565b6000600883026114597fffffffffffffffffffffffffffffffffffffffffffffffffffffffffffffffff8261141c565b611463868361141c565b95508019841693508086168417925050509392505050565b600061149661149161148c84610a6f565b610ccc565b610a6f565b9050919050565b6000819050919050565b6114b08361147b565b6114c46114bc8261149d565b848454611429565b825550505050565b600090565b6114d96114cc565b6114e48184846114a7565b505050565b5b81811015611508576114fd6000826114d1565b6001810190506114ea565b5050565b601f82111561154d5761151e816113f7565b6115278461140c565b81016020851015611536578190505b61154a6115428561140c565b8301826114e9565b50505b505050565b600082821c905092915050565b600061157060001984600802611552565b1980831691505092915050565b6000611589838361155f565b9150826002028217905092915050565b6115a282610dc2565b67ffffffffffffffff8111156115bb576115ba610ac0565b5b6115c582546113c6565b6115d082828561150c565b600060209050601f83116001811461160357600084156115f1578287015190505b6115fb858261157d565b865550611663565b601f198416611611866113f7565b60005b8281101561163957848901518255600182019150602085019450602081019050611614565b868310156116565784890151611652601f89168261155f565b8355505b6001600288020188555050505b505050505050565b7f796f7520617265206e6f742069646c6500000000000000000000000000000000600082015250565b60006116a16010836111fe565b91506116ac8261166b565b602082019050919050565b600060208201905081810360008301526116d081611694565b9050919050565b7f796f7520617265206e6f7420746865206f776e65720000000000000000000000600082015250565b600061170d6015836111fe565b9150611718826116d7565b602082019050919050565b6000602082019050818103600083015261173c81611700565b905091905056fea2646970667358221220f24f50834af53222bdcfde67eb5ac499fa613274df3bf58430502a324f7ca82a64736f6c63430008120033",
  "linkReferences": {},
  "deployedLinkReferences": {}
}