{
  "_format": "hh-sol-artifact-1",
  "contractName": "BridgeFacet",
  "sourceName": "contracts/facets/BridgeFacet.sol",
  "abi": [
    {
      "anonymous": false,
      "inputs": [
        {
          "indexed": true,
          "internalType": "address",
          "name": "owner",
          "type": "address"
        },
        {
          "indexed": true,
          "internalType": "address",
          "name": "approved",
          "type": "address"
        },
        {
          "indexed": true,
          "internalType": "uint256",
          "name": "tokenId",
          "type": "uint256"
        }
      ],
      "name": "Approval",
      "type": "event"
    },
    {
      "anonymous": false,
      "inputs": [
        {
          "indexed": true,
          "internalType": "address",
          "name": "owner",
          "type": "address"
        },
        {
          "indexed": true,
          "internalType": "address",
          "name": "operator",
          "type": "address"
        },
        {
          "indexed": false,
          "internalType": "bool",
          "name": "approved",
          "type": "bool"
        }
      ],
      "name": "ApprovalForAll",
      "type": "event"
    },
    {
      "anonymous": false,
      "inputs": [
        {
          "indexed": true,
          "internalType": "uint256",
          "name": "_chainId",
          "type": "uint256"
        },
        {
          "indexed": true,
          "internalType": "address",
          "name": "_portal",
          "type": "address"
        },
        {
          "indexed": true,
          "internalType": "address",
          "name": "_diamond",
          "type": "address"
        }
      ],
      "name": "BridgeCreated",
      "type": "event"
    },
    {
      "anonymous": false,
      "inputs": [
        {
          "indexed": true,
          "internalType": "uint256",
          "name": "_playerId",
          "type": "uint256"
        },
        {
          "components": [
            {
              "internalType": "uint256",
              "name": "class",
              "type": "uint256"
            },
            {
              "internalType": "uint256",
              "name": "level",
              "type": "uint256"
            },
            {
              "internalType": "uint256",
              "name": "xp",
              "type": "uint256"
            },
            {
              "internalType": "uint256",
              "name": "strength",
              "type": "uint256"
            },
            {
              "internalType": "uint256",
              "name": "health",
              "type": "uint256"
            },
            {
              "internalType": "uint256",
              "name": "magic",
              "type": "uint256"
            },
            {
              "internalType": "uint256",
              "name": "maxMana",
              "type": "uint256"
            },
            {
              "internalType": "uint256",
              "name": "agility",
              "type": "uint256"
            },
            {
              "internalType": "uint256",
              "name": "defense",
              "type": "uint256"
            },
            {
              "internalType": "uint256",
              "name": "baseChain",
              "type": "uint256"
            },
            {
              "internalType": "uint256",
              "name": "baseId",
              "type": "uint256"
            },
            {
              "internalType": "string",
              "name": "name",
              "type": "string"
            },
            {
              "internalType": "bool",
              "name": "isMale",
              "type": "bool"
            },
            {
              "internalType": "address",
              "name": "sender",
              "type": "address"
            }
          ],
          "indexed": false,
          "internalType": "struct BridgeFormat",
          "name": "_format",
          "type": "tuple"
        }
      ],
      "name": "BridgePlayer",
      "type": "event"
    },
    {
      "anonymous": false,
      "inputs": [
        {
          "components": [
            {
              "internalType": "uint256",
              "name": "class",
              "type": "uint256"
            },
            {
              "internalType": "uint256",
              "name": "level",
              "type": "uint256"
            },
            {
              "internalType": "uint256",
              "name": "xp",
              "type": "uint256"
            },
            {
              "internalType": "uint256",
              "name": "strength",
              "type": "uint256"
            },
            {
              "internalType": "uint256",
              "name": "health",
              "type": "uint256"
            },
            {
              "internalType": "uint256",
              "name": "magic",
              "type": "uint256"
            },
            {
              "internalType": "uint256",
              "name": "maxMana",
              "type": "uint256"
            },
            {
              "internalType": "uint256",
              "name": "agility",
              "type": "uint256"
            },
            {
              "internalType": "uint256",
              "name": "defense",
              "type": "uint256"
            },
            {
              "internalType": "uint256",
              "name": "baseChain",
              "type": "uint256"
            },
            {
              "internalType": "uint256",
              "name": "baseId",
              "type": "uint256"
            },
            {
              "internalType": "string",
              "name": "name",
              "type": "string"
            },
            {
              "internalType": "bool",
              "name": "isMale",
              "type": "bool"
            },
            {
              "internalType": "address",
              "name": "sender",
              "type": "address"
            }
          ],
          "indexed": false,
          "internalType": "struct BridgeFormat",
          "name": "_format",
          "type": "tuple"
        }
      ],
      "name": "ReMintPlayer",
      "type": "event"
    },
    {
      "anonymous": false,
      "inputs": [
        {
          "indexed": true,
          "internalType": "address",
          "name": "from",
          "type": "address"
        },
        {
          "indexed": true,
          "internalType": "address",
          "name": "to",
          "type": "address"
        },
        {
          "indexed": true,
          "internalType": "uint256",
          "name": "tokenId",
          "type": "uint256"
        }
      ],
      "name": "Transfer",
      "type": "event"
    },
    {
      "inputs": [
        {
          "internalType": "uint256",
          "name": "_playerId",
          "type": "uint256"
        },
        {
          "internalType": "uint256",
          "name": "_chainId",
          "type": "uint256"
        }
      ],
      "name": "bridgePlayer",
      "outputs": [],
      "stateMutability": "nonpayable",
      "type": "function"
    },
    {
      "inputs": [
        {
          "internalType": "uint256",
          "name": "_chainId",
          "type": "uint256"
        },
        {
          "internalType": "string",
          "name": "_name",
          "type": "string"
        },
        {
          "internalType": "address",
          "name": "_portal",
          "type": "address"
        },
        {
          "internalType": "address",
          "name": "_diamond",
          "type": "address"
        }
      ],
      "name": "createBridge",
      "outputs": [],
      "stateMutability": "nonpayable",
      "type": "function"
    },
    {
      "inputs": [
        {
          "internalType": "uint256",
          "name": "_chainId",
          "type": "uint256"
        }
      ],
      "name": "getChainData",
      "outputs": [
        {
          "components": [
            {
              "internalType": "uint256",
              "name": "chainId",
              "type": "uint256"
            },
            {
              "internalType": "string",
              "name": "name",
              "type": "string"
            },
            {
              "internalType": "address",
              "name": "portal",
              "type": "address"
            },
            {
              "internalType": "address",
              "name": "diamond",
              "type": "address"
            }
          ],
          "internalType": "struct ChainData",
          "name": "",
          "type": "tuple"
        }
      ],
      "stateMutability": "view",
      "type": "function"
    },
    {
      "inputs": [],
      "name": "omni",
      "outputs": [
        {
          "internalType": "contract IOmniPortal",
          "name": "",
          "type": "address"
        }
      ],
      "stateMutability": "view",
      "type": "function"
    },
    {
      "inputs": [
        {
          "components": [
            {
              "internalType": "uint256",
              "name": "class",
              "type": "uint256"
            },
            {
              "internalType": "uint256",
              "name": "level",
              "type": "uint256"
            },
            {
              "internalType": "uint256",
              "name": "xp",
              "type": "uint256"
            },
            {
              "internalType": "uint256",
              "name": "strength",
              "type": "uint256"
            },
            {
              "internalType": "uint256",
              "name": "health",
              "type": "uint256"
            },
            {
              "internalType": "uint256",
              "name": "magic",
              "type": "uint256"
            },
            {
              "internalType": "uint256",
              "name": "maxMana",
              "type": "uint256"
            },
            {
              "internalType": "uint256",
              "name": "agility",
              "type": "uint256"
            },
            {
              "internalType": "uint256",
              "name": "defense",
              "type": "uint256"
            },
            {
              "internalType": "uint256",
              "name": "baseChain",
              "type": "uint256"
            },
            {
              "internalType": "uint256",
              "name": "baseId",
              "type": "uint256"
            },
            {
              "internalType": "string",
              "name": "name",
              "type": "string"
            },
            {
              "internalType": "bool",
              "name": "isMale",
              "type": "bool"
            },
            {
              "internalType": "address",
              "name": "sender",
              "type": "address"
            }
          ],
          "internalType": "struct BridgeFormat",
          "name": "_format",
          "type": "tuple"
        }
      ],
      "name": "reMintPlayer",
      "outputs": [],
      "stateMutability": "nonpayable",
      "type": "function"
    }
  ],
  "bytecode": "0x608060405234801561001057600080fd5b506124ab806100206000396000f3fe608060405234801561001057600080fd5b50600436106100575760003560e01c806303f256ec1461005c57806339acf9f114610078578063537ce6151461009657806354250a13146100b2578063aeb45f01146100ce575b600080fd5b610076600480360381019061007191906116b8565b6100fe565b005b61008061016b565b60405161008d919061179a565b60405180910390f35b6100b060048036038101906100ab91906117b5565b61018f565b005b6100cc60048036038101906100c791906119a1565b610357565b005b6100e860048036038101906100e391906119ea565b610363565b6040516100f59190611b17565b60405180910390f35b61010a8484848461037b565b8073ffffffffffffffffffffffffffffffffffffffff168273ffffffffffffffffffffffffffffffffffffffff16857f924c77d15e16cd31a7b4457de58065af652bd3178fe5f5f2ff801196f030fe7860405160405180910390a450505050565b60008054906101000a900473ffffffffffffffffffffffffffffffffffffffff1681565b600061019a82610363565b905080604001516000806101000a81548173ffffffffffffffffffffffffffffffffffffffff021916908373ffffffffffffffffffffffffffffffffffffffff16021790555060006101eb846104a1565b905060008054906101000a900473ffffffffffffffffffffffffffffffffffffffff1673ffffffffffffffffffffffffffffffffffffffff1663381aa2cf836020015184606001516000620186a08660405160240161024a9190611c76565b6040516020818303038152906040527fd7129e72000000000000000000000000000000000000000000000000000000007bffffffffffffffffffffffffffffffffffffffffffffffffffffffff19166020820180517bffffffffffffffffffffffffffffffffffffffffffffffffffffffff83818316178352505050506040518663ffffffff1660e01b81526004016102e7959493929190611dd0565b600060405180830381600087803b15801561030157600080fd5b505af1158015610315573d6000803e3d6000fd5b50505050837f602103799a7c20f1b0af9606ecee1173039b639af978bf3755ef5db1a5209a6f826040516103499190611c76565b60405180910390a250505050565b610360816107e4565b50565b61036b6113ef565b610374826109c5565b9050919050565b6000610385610b49565b905060405180608001604052808681526020018581526020018473ffffffffffffffffffffffffffffffffffffffff1681526020018373ffffffffffffffffffffffffffffffffffffffff168152508160000160008781526020019081526020016000206000820151816000015560208201518160010190816104089190612033565b5060408201518160020160006101000a81548173ffffffffffffffffffffffffffffffffffffffff021916908373ffffffffffffffffffffffffffffffffffffffff16021790555060608201518160030160006101000a81548173ffffffffffffffffffffffffffffffffffffffff021916908373ffffffffffffffffffffffffffffffffffffffff1602179055509050505050505050565b6104a9611443565b60006104b3610b76565b905060006104bf610b49565b90506000826003016000868152602001908152602001600020600201541461051c576040517f08c379a000000000000000000000000000000000000000000000000000000000815260040161051390612151565b60405180910390fd5b3373ffffffffffffffffffffffffffffffffffffffff1682600201600086815260200190815260200160002060009054906101000a900473ffffffffffffffffffffffffffffffffffffffff1673ffffffffffffffffffffffffffffffffffffffff16146105bf576040517f08c379a00000000000000000000000000000000000000000000000000000000081526004016105b6906121bd565b60405180910390fd5b6064826003016000868152602001908152602001600020600201819055506000826003016000868152602001908152602001600020905060008083600201600088815260200190815260200160002060009054906101000a900460ff1661065957469150869050600184600201600089815260200190815260200160002060006101000a81548160ff02191690831515021790555061069b565b83600301600088815260200190815260200160002054915083600101600083815260200190815260200160002060008881526020019081526020016000205490505b6000604051806101c00160405280856019015481526020018560000154815260200185600101548152602001856003015481526020018560040154815260200185600601548152602001856008015481526020018560090154815260200185600e0154815260200184815260200183815260200185600f01805461071e90611e60565b80601f016020809104026020016040519081016040528092919081815260200182805461074a90611e60565b80156107975780601f1061076c57610100808354040283529160200191610797565b820191906000526020600020905b81548152906001019060200180831161077a57829003601f168201915b505050505081526020018560110160009054906101000a900460ff16151581526020013373ffffffffffffffffffffffffffffffffffffffff168152509050809650505050505050919050565b60006107ee610b76565b905060006107fa610b49565b90506000808260010160008661012001518152602001908152602001600020600086610140015181526020019081526020016000205411156109b5578160010160008561012001518152602001908152602001600020600085610140015181526020019081526020016000205490506000836003016000838152602001908152602001600020600201819055508360200151836003016000838152602001908152602001600020600001819055508360400151836003016000838152602001908152602001600020600101819055508360600151836003016000838152602001908152602001600020600301819055508360800151836003016000838152602001908152602001600020600401819055508360800151836003016000838152602001908152602001600020600501819055508360a00151836003016000838152602001908152602001600020600601819055508360c00151836003016000838152602001908152602001600020600801819055508360c00151836003016000838152602001908152602001600020600701819055508360e00151836003016000838152602001908152602001600020600901819055506109bf565b6109be84610ba3565b5b50505050565b6109cd6113ef565b60006109d7610b49565b905080600001600084815260200190815260200160002060405180608001604052908160008201548152602001600182018054610a1390611e60565b80601f0160208091040260200160405190810160405280929190818152602001828054610a3f90611e60565b8015610a8c5780601f10610a6157610100808354040283529160200191610a8c565b820191906000526020600020905b815481529060010190602001808311610a6f57829003601f168201915b505050505081526020016002820160009054906101000a900473ffffffffffffffffffffffffffffffffffffffff1673ffffffffffffffffffffffffffffffffffffffff1673ffffffffffffffffffffffffffffffffffffffff1681526020016003820160009054906101000a900473ffffffffffffffffffffffffffffffffffffffff1673ffffffffffffffffffffffffffffffffffffffff1673ffffffffffffffffffffffffffffffffffffffff1681525050915050919050565b6000807f4cde922899fdacbde63ed2c277d08801981412358b79d054d98add0ca65dea1990508091505090565b6000807f3cab9a070a0c61cd0ae9d9e9e2c0781e5ca8691bec4087e5a4701d5ac018dd4e90508091505090565b6000610bad610b76565b90506000610bb9610b49565b9050816001016000815480929190610bd09061220c565b919050555081600101548160010160008561012001518152602001908152602001600020600085610140015181526020019081526020016000208190555060008160020160008460010154815260200190815260200160002060006101000a81548160ff02191690831515021790555082610120015181600301600084600101548152602001908152602001600020819055506000836101600151610c7884600101546111ce565b604051602001610c89929190612290565b604051602081830303815290604052905060606000856000015103610cf657846101800151610cd35760405180608001604052806043815260200161236a60439139905080610cf0565b604051806080016040528060438152602001612433604391399050805b50610da8565b6001856000015103610d5057846101800151610d2d576040518060800160405280604381526020016123f060439139905080610d4a565b6040518060800160405280604381526020016123ad604391399050805b50610da7565b6002856000015103610da657846101800151610d875760405180608001604052806043815260200161232760439139905080610da4565b6040518060800160405280604381526020016122e4604391399050805b505b5b5b6040518061028001604052808660200151815260200186604001518152602001600081526020018660600151815260200186608001518152602001866080015181526020018660a0015181526020018660c0015181526020018660c0015181526020018660e001518152602001600181526020016001815260200160018152602001600181526020018661010001518152602001838152602001828152602001866101800151151581526020016040518060e0016040528060008152602001600081526020016000815260200160008152602001600081526020016000815260200160008152508152602001866000015181525084600301600086600101548152602001908152602001600020600082015181600001556020820151816001015560408201518160020155606082015181600301556080820151816004015560a0820151816005015560c0820151816006015560e082015181600701556101008201518160080155610120820151816009015561014082015181600a015561016082015181600b015561018082015181600c01556101a082015181600d01556101c082015181600e01556101e082015181600f019081610f689190612033565b50610200820151816010019081610f7f9190612033565b506102208201518160110160006101000a81548160ff02191690831515021790555061024082015181601201600082015181600001556020820151816001015560408201518160020155606082015181600301556080820151816004015560a0820151816005015560c08201518160060155505061026082015181601901559050506040518060e00160405280600081526020016000815260200160008152602001600081526020016000815260200160008152602001600081525084600801600086600101548152602001908152602001600020600082015181600001556020820151816001015560408201518160020155606082015181600301556080820151816004015560a0820151816005015560c08201518160060155905050846101a001518460020160008660010154815260200190815260200160002060006101000a81548173ffffffffffffffffffffffffffffffffffffffff021916908373ffffffffffffffffffffffffffffffffffffffff160217905550836007016000866101a0015173ffffffffffffffffffffffffffffffffffffffff1673ffffffffffffffffffffffffffffffffffffffff16815260200190815260200160002084600101549080600181540180825580915050600190039060005260206000200160009091909190915055836004016000866101a0015173ffffffffffffffffffffffffffffffffffffffff1673ffffffffffffffffffffffffffffffffffffffff16815260200190815260200160002060008154809291906111c29061220c565b91905055505050505050565b6060600060016111dd8461129c565b01905060008167ffffffffffffffff8111156111fc576111fb61152f565b5b6040519080825280601f01601f19166020018201604052801561122e5781602001600182028036833780820191505090505b509050600082602001820190505b600115611291578080600190039150507f3031323334353637383961626364656600000000000000000000000000000000600a86061a8153600a8581611285576112846122b4565b5b0494506000850361123c575b819350505050919050565b600080600090507a184f03e93ff9f4daa797ed6e38ed64bf6a1f01000000000000000083106112fa577a184f03e93ff9f4daa797ed6e38ed64bf6a1f01000000000000000083816112f0576112ef6122b4565b5b0492506040810190505b6d04ee2d6d415b85acef81000000008310611337576d04ee2d6d415b85acef8100000000838161132d5761132c6122b4565b5b0492506020810190505b662386f26fc10000831061136657662386f26fc10000838161135c5761135b6122b4565b5b0492506010810190505b6305f5e100831061138f576305f5e1008381611385576113846122b4565b5b0492506008810190505b61271083106113b45761271083816113aa576113a96122b4565b5b0492506004810190505b606483106113d757606483816113cd576113cc6122b4565b5b0492506002810190505b600a83106113e6576001810190505b80915050919050565b60405180608001604052806000815260200160608152602001600073ffffffffffffffffffffffffffffffffffffffff168152602001600073ffffffffffffffffffffffffffffffffffffffff1681525090565b604051806101c00160405280600081526020016000815260200160008152602001600081526020016000815260200160008152602001600081526020016000815260200160008152602001600081526020016000815260200160608152602001600015158152602001600073ffffffffffffffffffffffffffffffffffffffff1681525090565b6000604051905090565b600080fd5b600080fd5b6000819050919050565b6114f1816114de565b81146114fc57600080fd5b50565b60008135905061150e816114e8565b92915050565b600080fd5b600080fd5b6000601f19601f8301169050919050565b7f4e487b7100000000000000000000000000000000000000000000000000000000600052604160045260246000fd5b6115678261151e565b810181811067ffffffffffffffff821117156115865761158561152f565b5b80604052505050565b60006115996114ca565b90506115a5828261155e565b919050565b600067ffffffffffffffff8211156115c5576115c461152f565b5b6115ce8261151e565b9050602081019050919050565b82818337600083830152505050565b60006115fd6115f8846115aa565b61158f565b90508281526020810184848401111561161957611618611519565b5b6116248482856115db565b509392505050565b600082601f83011261164157611640611514565b5b81356116518482602086016115ea565b91505092915050565b600073ffffffffffffffffffffffffffffffffffffffff82169050919050565b60006116858261165a565b9050919050565b6116958161167a565b81146116a057600080fd5b50565b6000813590506116b28161168c565b92915050565b600080600080608085870312156116d2576116d16114d4565b5b60006116e0878288016114ff565b945050602085013567ffffffffffffffff811115611701576117006114d9565b5b61170d8782880161162c565b935050604061171e878288016116a3565b925050606061172f878288016116a3565b91505092959194509250565b6000819050919050565b600061176061175b6117568461165a565b61173b565b61165a565b9050919050565b600061177282611745565b9050919050565b600061178482611767565b9050919050565b61179481611779565b82525050565b60006020820190506117af600083018461178b565b92915050565b600080604083850312156117cc576117cb6114d4565b5b60006117da858286016114ff565b92505060206117eb858286016114ff565b9150509250929050565b600080fd5b600080fd5b60008115159050919050565b611814816117ff565b811461181f57600080fd5b50565b6000813590506118318161180b565b92915050565b60006101c0828403121561184e5761184d6117f5565b5b6118596101c061158f565b90506000611869848285016114ff565b600083015250602061187d848285016114ff565b6020830152506040611891848285016114ff565b60408301525060606118a5848285016114ff565b60608301525060806118b9848285016114ff565b60808301525060a06118cd848285016114ff565b60a08301525060c06118e1848285016114ff565b60c08301525060e06118f5848285016114ff565b60e08301525061010061190a848285016114ff565b61010083015250610120611920848285016114ff565b61012083015250610140611936848285016114ff565b6101408301525061016082013567ffffffffffffffff81111561195c5761195b6117fa565b5b6119688482850161162c565b6101608301525061018061197e84828501611822565b610180830152506101a0611994848285016116a3565b6101a08301525092915050565b6000602082840312156119b7576119b66114d4565b5b600082013567ffffffffffffffff8111156119d5576119d46114d9565b5b6119e184828501611837565b91505092915050565b600060208284031215611a00576119ff6114d4565b5b6000611a0e848285016114ff565b91505092915050565b611a20816114de565b82525050565b600081519050919050565b600082825260208201905092915050565b60005b83811015611a60578082015181840152602081019050611a45565b60008484015250505050565b6000611a7782611a26565b611a818185611a31565b9350611a91818560208601611a42565b611a9a8161151e565b840191505092915050565b611aae8161167a565b82525050565b6000608083016000830151611acc6000860182611a17565b5060208301518482036020860152611ae48282611a6c565b9150506040830151611af96040860182611aa5565b506060830151611b0c6060860182611aa5565b508091505092915050565b60006020820190508181036000830152611b318184611ab4565b905092915050565b611b42816117ff565b82525050565b60006101c083016000830151611b616000860182611a17565b506020830151611b746020860182611a17565b506040830151611b876040860182611a17565b506060830151611b9a6060860182611a17565b506080830151611bad6080860182611a17565b5060a0830151611bc060a0860182611a17565b5060c0830151611bd360c0860182611a17565b5060e0830151611be660e0860182611a17565b50610100830151611bfb610100860182611a17565b50610120830151611c10610120860182611a17565b50610140830151611c25610140860182611a17565b50610160830151848203610160860152611c3f8282611a6c565b915050610180830151611c56610180860182611b39565b506101a0830151611c6b6101a0860182611aa5565b508091505092915050565b60006020820190508181036000830152611c908184611b48565b905092915050565b600082825260208201905092915050565b6000611cb482611a26565b611cbe8185611c98565b9350611cce818560208601611a42565b611cd78161151e565b840191505092915050565b611ceb8161167a565b82525050565b6000819050919050565b6000611d16611d11611d0c84611cf1565b61173b565b6114de565b9050919050565b611d2681611cfb565b82525050565b6000819050919050565b600067ffffffffffffffff82169050919050565b6000611d65611d60611d5b84611d2c565b61173b565b611d36565b9050919050565b611d7581611d4a565b82525050565b600081519050919050565b600082825260208201905092915050565b6000611da282611d7b565b611dac8185611d86565b9350611dbc818560208601611a42565b611dc58161151e565b840191505092915050565b600060a0820190508181036000830152611dea8188611ca9565b9050611df96020830187611ce2565b611e066040830186611d1d565b611e136060830185611d6c565b8181036080830152611e258184611d97565b90509695505050505050565b7f4e487b7100000000000000000000000000000000000000000000000000000000600052602260045260246000fd5b60006002820490506001821680611e7857607f821691505b602082108103611e8b57611e8a611e31565b5b50919050565b60008190508160005260206000209050919050565b60006020601f8301049050919050565b600082821b905092915050565b600060088302611ef37fffffffffffffffffffffffffffffffffffffffffffffffffffffffffffffffff82611eb6565b611efd8683611eb6565b95508019841693508086168417925050509392505050565b6000611f30611f2b611f26846114de565b61173b565b6114de565b9050919050565b6000819050919050565b611f4a83611f15565b611f5e611f5682611f37565b848454611ec3565b825550505050565b600090565b611f73611f66565b611f7e818484611f41565b505050565b5b81811015611fa257611f97600082611f6b565b600181019050611f84565b5050565b601f821115611fe757611fb881611e91565b611fc184611ea6565b81016020851015611fd0578190505b611fe4611fdc85611ea6565b830182611f83565b50505b505050565b600082821c905092915050565b600061200a60001984600802611fec565b1980831691505092915050565b60006120238383611ff9565b9150826002028217905092915050565b61203c82611a26565b67ffffffffffffffff8111156120555761205461152f565b5b61205f8254611e60565b61206a828285611fa6565b600060209050601f83116001811461209d576000841561208b578287015190505b6120958582612017565b8655506120fd565b601f1984166120ab86611e91565b60005b828110156120d3578489015182556001820191506020850194506020810190506120ae565b868310156120f057848901516120ec601f891682611ff9565b8355505b6001600288020188555050505b505050505050565b7f796f7520617265206e6f742069646c6500000000000000000000000000000000600082015250565b600061213b601083611c98565b915061214682612105565b602082019050919050565b6000602082019050818103600083015261216a8161212e565b9050919050565b7f796f7520617265206e6f7420746865206f776e65720000000000000000000000600082015250565b60006121a7601583611c98565b91506121b282612171565b602082019050919050565b600060208201905081810360008301526121d68161219a565b9050919050565b7f4e487b7100000000000000000000000000000000000000000000000000000000600052601160045260246000fd5b6000612217826114de565b91507fffffffffffffffffffffffffffffffffffffffffffffffffffffffffffffffff8203612249576122486121dd565b5b600182019050919050565b600081905092915050565b600061226a82611a26565b6122748185612254565b9350612284818560208601611a42565b80840191505092915050565b600061229c828561225f565b91506122a8828461225f565b91508190509392505050565b7f4e487b7100000000000000000000000000000000000000000000000000000000600052601260045260246000fdfe68747470733a2f2f697066732e696f2f697066732f516d556257785564387358344d5a6f6a4b455255506d507539597441596659726f425334546531484a454b75637968747470733a2f2f697066732e696f2f697066732f516d625641427439734b704e55613844674d4a64653344424351796f72534354395631447a6436634a385a556d5068747470733a2f2f697066732e696f2f697066732f516d66424e4870787077554e67747736695842784b584c6256786f6d386d7064427367715a5a79353970524d354368747470733a2f2f697066732e696f2f697066732f516d5158655965397278526b6b716645423744725a52534732533179724e676a363456386d3676374b65747a516468747470733a2f2f697066732e696f2f697066732f516d55715a4b5275646e616e673147586244326e4848776d4a664e4e42465156646d6f483857416e65616969356868747470733a2f2f697066732e696f2f697066732f516d56357053734d47474d4c5733593979513871534c534d4451616b646e6a686a53346b356865366d4a79506548a26469706673582212203eaed36cd0fc62e623e6bfd4d2ef5f2cfc7ad99f1149b6666ed912f74d96bbc664736f6c63430008120033",
  "linkReferences": {},
  "deployedLinkReferences": {}
}