{
  "_format": "hh-sol-artifact-1",
  "contractName": "BridgeFacet",
  "sourceName": "contracts/facets/BridgeFacet.sol",
  "abi": [
    {
      "anonymous": false,
      "inputs": [
        {
          "indexed": true,
          "internalType": "address",
          "name": "owner",
          "type": "address"
        },
        {
          "indexed": true,
          "internalType": "address",
          "name": "approved",
          "type": "address"
        },
        {
          "indexed": true,
          "internalType": "uint256",
          "name": "tokenId",
          "type": "uint256"
        }
      ],
      "name": "Approval",
      "type": "event"
    },
    {
      "anonymous": false,
      "inputs": [
        {
          "indexed": true,
          "internalType": "address",
          "name": "owner",
          "type": "address"
        },
        {
          "indexed": true,
          "internalType": "address",
          "name": "operator",
          "type": "address"
        },
        {
          "indexed": false,
          "internalType": "bool",
          "name": "approved",
          "type": "bool"
        }
      ],
      "name": "ApprovalForAll",
      "type": "event"
    },
    {
      "anonymous": false,
      "inputs": [
        {
          "indexed": true,
          "internalType": "uint256",
          "name": "_chainId",
          "type": "uint256"
        },
        {
          "indexed": true,
          "internalType": "address",
          "name": "_portal",
          "type": "address"
        },
        {
          "indexed": true,
          "internalType": "address",
          "name": "_diamond",
          "type": "address"
        }
      ],
      "name": "BridgeCreated",
      "type": "event"
    },
    {
      "anonymous": false,
      "inputs": [
        {
          "indexed": true,
          "internalType": "uint256",
          "name": "_playerId",
          "type": "uint256"
        },
        {
          "components": [
            {
              "internalType": "uint256",
              "name": "class",
              "type": "uint256"
            },
            {
              "internalType": "uint256",
              "name": "level",
              "type": "uint256"
            },
            {
              "internalType": "uint256",
              "name": "xp",
              "type": "uint256"
            },
            {
              "internalType": "uint256",
              "name": "strength",
              "type": "uint256"
            },
            {
              "internalType": "uint256",
              "name": "health",
              "type": "uint256"
            },
            {
              "internalType": "uint256",
              "name": "magic",
              "type": "uint256"
            },
            {
              "internalType": "uint256",
              "name": "maxMana",
              "type": "uint256"
            },
            {
              "internalType": "uint256",
              "name": "agility",
              "type": "uint256"
            },
            {
              "internalType": "uint256",
              "name": "defense",
              "type": "uint256"
            },
            {
              "internalType": "uint256",
              "name": "baseChain",
              "type": "uint256"
            },
            {
              "internalType": "uint256",
              "name": "baseId",
              "type": "uint256"
            },
            {
              "internalType": "string",
              "name": "name",
              "type": "string"
            },
            {
              "internalType": "bool",
              "name": "isMale",
              "type": "bool"
            },
            {
              "internalType": "address",
              "name": "sender",
              "type": "address"
            }
          ],
          "indexed": false,
          "internalType": "struct BridgeFormat",
          "name": "_format",
          "type": "tuple"
        }
      ],
      "name": "BridgePlayer",
      "type": "event"
    },
    {
      "anonymous": false,
      "inputs": [
        {
          "indexed": true,
          "internalType": "uint256",
          "name": "_playerId",
          "type": "uint256"
        },
        {
          "components": [
            {
              "internalType": "uint256",
              "name": "class",
              "type": "uint256"
            },
            {
              "internalType": "uint256",
              "name": "level",
              "type": "uint256"
            },
            {
              "internalType": "uint256",
              "name": "xp",
              "type": "uint256"
            },
            {
              "internalType": "uint256",
              "name": "strength",
              "type": "uint256"
            },
            {
              "internalType": "uint256",
              "name": "health",
              "type": "uint256"
            },
            {
              "internalType": "uint256",
              "name": "magic",
              "type": "uint256"
            },
            {
              "internalType": "uint256",
              "name": "maxMana",
              "type": "uint256"
            },
            {
              "internalType": "uint256",
              "name": "agility",
              "type": "uint256"
            },
            {
              "internalType": "uint256",
              "name": "defense",
              "type": "uint256"
            },
            {
              "internalType": "uint256",
              "name": "baseChain",
              "type": "uint256"
            },
            {
              "internalType": "uint256",
              "name": "baseId",
              "type": "uint256"
            },
            {
              "internalType": "string",
              "name": "name",
              "type": "string"
            },
            {
              "internalType": "bool",
              "name": "isMale",
              "type": "bool"
            },
            {
              "internalType": "address",
              "name": "sender",
              "type": "address"
            }
          ],
          "indexed": false,
          "internalType": "struct BridgeFormat",
          "name": "_format",
          "type": "tuple"
        }
      ],
      "name": "ReMintPlayer",
      "type": "event"
    },
    {
      "anonymous": false,
      "inputs": [
        {
          "indexed": true,
          "internalType": "address",
          "name": "_sender",
          "type": "address"
        },
        {
          "indexed": true,
          "internalType": "uint256",
          "name": "_amount",
          "type": "uint256"
        }
      ],
      "name": "ReceiveGold",
      "type": "event"
    },
    {
      "anonymous": false,
      "inputs": [
        {
          "indexed": true,
          "internalType": "address",
          "name": "_sender",
          "type": "address"
        },
        {
          "indexed": true,
          "internalType": "uint256",
          "name": "_amount",
          "type": "uint256"
        }
      ],
      "name": "SendGold",
      "type": "event"
    },
    {
      "anonymous": false,
      "inputs": [
        {
          "indexed": true,
          "internalType": "address",
          "name": "from",
          "type": "address"
        },
        {
          "indexed": true,
          "internalType": "address",
          "name": "to",
          "type": "address"
        },
        {
          "indexed": true,
          "internalType": "uint256",
          "name": "tokenId",
          "type": "uint256"
        }
      ],
      "name": "Transfer",
      "type": "event"
    },
    {
      "inputs": [
        {
          "internalType": "string",
          "name": "_chain",
          "type": "string"
        },
        {
          "internalType": "address",
          "name": "_contract",
          "type": "address"
        },
        {
          "internalType": "uint256",
          "name": "_amount",
          "type": "uint256"
        }
      ],
      "name": "bridgeGold",
      "outputs": [],
      "stateMutability": "nonpayable",
      "type": "function"
    },
    {
      "inputs": [
        {
          "internalType": "uint256",
          "name": "_playerId",
          "type": "uint256"
        },
        {
          "internalType": "uint256",
          "name": "_chainId",
          "type": "uint256"
        }
      ],
      "name": "bridgePlayer",
      "outputs": [],
      "stateMutability": "nonpayable",
      "type": "function"
    },
    {
      "inputs": [
        {
          "internalType": "uint256",
          "name": "_playerId",
          "type": "uint256"
        },
        {
          "internalType": "string",
          "name": "_chain",
          "type": "string"
        },
        {
          "internalType": "address",
          "name": "_contract",
          "type": "address"
        }
      ],
      "name": "bridgePlayerTest",
      "outputs": [],
      "stateMutability": "nonpayable",
      "type": "function"
    },
    {
      "inputs": [
        {
          "internalType": "uint256",
          "name": "_chainId",
          "type": "uint256"
        },
        {
          "internalType": "string",
          "name": "_name",
          "type": "string"
        },
        {
          "internalType": "address",
          "name": "_portal",
          "type": "address"
        },
        {
          "internalType": "address",
          "name": "_diamond",
          "type": "address"
        }
      ],
      "name": "createBridge",
      "outputs": [],
      "stateMutability": "nonpayable",
      "type": "function"
    },
    {
      "inputs": [],
      "name": "freeGold",
      "outputs": [],
      "stateMutability": "nonpayable",
      "type": "function"
    },
    {
      "inputs": [
        {
          "internalType": "uint256",
          "name": "_chainId",
          "type": "uint256"
        }
      ],
      "name": "getChainData",
      "outputs": [
        {
          "components": [
            {
              "internalType": "uint256",
              "name": "chainId",
              "type": "uint256"
            },
            {
              "internalType": "string",
              "name": "name",
              "type": "string"
            },
            {
              "internalType": "address",
              "name": "portal",
              "type": "address"
            },
            {
              "internalType": "address",
              "name": "diamond",
              "type": "address"
            }
          ],
          "internalType": "struct ChainData",
          "name": "",
          "type": "tuple"
        }
      ],
      "stateMutability": "view",
      "type": "function"
    },
    {
      "inputs": [
        {
          "internalType": "uint256",
          "name": "_id",
          "type": "uint256"
        }
      ],
      "name": "getFormat",
      "outputs": [
        {
          "components": [
            {
              "internalType": "uint256",
              "name": "class",
              "type": "uint256"
            },
            {
              "internalType": "uint256",
              "name": "level",
              "type": "uint256"
            },
            {
              "internalType": "uint256",
              "name": "xp",
              "type": "uint256"
            },
            {
              "internalType": "uint256",
              "name": "strength",
              "type": "uint256"
            },
            {
              "internalType": "uint256",
              "name": "health",
              "type": "uint256"
            },
            {
              "internalType": "uint256",
              "name": "magic",
              "type": "uint256"
            },
            {
              "internalType": "uint256",
              "name": "maxMana",
              "type": "uint256"
            },
            {
              "internalType": "uint256",
              "name": "agility",
              "type": "uint256"
            },
            {
              "internalType": "uint256",
              "name": "defense",
              "type": "uint256"
            },
            {
              "internalType": "uint256",
              "name": "baseChain",
              "type": "uint256"
            },
            {
              "internalType": "uint256",
              "name": "baseId",
              "type": "uint256"
            },
            {
              "internalType": "string",
              "name": "name",
              "type": "string"
            },
            {
              "internalType": "bool",
              "name": "isMale",
              "type": "bool"
            },
            {
              "internalType": "address",
              "name": "sender",
              "type": "address"
            }
          ],
          "internalType": "struct BridgeFormat",
          "name": "",
          "type": "tuple"
        }
      ],
      "stateMutability": "view",
      "type": "function"
    },
    {
      "inputs": [
        {
          "components": [
            {
              "internalType": "uint256",
              "name": "class",
              "type": "uint256"
            },
            {
              "internalType": "uint256",
              "name": "level",
              "type": "uint256"
            },
            {
              "internalType": "uint256",
              "name": "xp",
              "type": "uint256"
            },
            {
              "internalType": "uint256",
              "name": "strength",
              "type": "uint256"
            },
            {
              "internalType": "uint256",
              "name": "health",
              "type": "uint256"
            },
            {
              "internalType": "uint256",
              "name": "magic",
              "type": "uint256"
            },
            {
              "internalType": "uint256",
              "name": "maxMana",
              "type": "uint256"
            },
            {
              "internalType": "uint256",
              "name": "agility",
              "type": "uint256"
            },
            {
              "internalType": "uint256",
              "name": "defense",
              "type": "uint256"
            },
            {
              "internalType": "uint256",
              "name": "baseChain",
              "type": "uint256"
            },
            {
              "internalType": "uint256",
              "name": "baseId",
              "type": "uint256"
            },
            {
              "internalType": "string",
              "name": "name",
              "type": "string"
            },
            {
              "internalType": "bool",
              "name": "isMale",
              "type": "bool"
            },
            {
              "internalType": "address",
              "name": "sender",
              "type": "address"
            }
          ],
          "internalType": "struct BridgeFormat",
          "name": "_format",
          "type": "tuple"
        }
      ],
      "name": "reMintPlayer",
      "outputs": [],
      "stateMutability": "nonpayable",
      "type": "function"
    },
    {
      "inputs": [
        {
          "components": [
            {
              "internalType": "address",
              "name": "sender",
              "type": "address"
            },
            {
              "internalType": "uint256",
              "name": "amount",
              "type": "uint256"
            }
          ],
          "internalType": "struct BridgegeCoinFormat",
          "name": "_format",
          "type": "tuple"
        }
      ],
      "name": "receiveGold",
      "outputs": [],
      "stateMutability": "nonpayable",
      "type": "function"
    },
    {
      "inputs": [
        {
          "internalType": "uint256",
          "name": "_playerId",
          "type": "uint256"
        }
      ],
      "name": "sanityCheck",
      "outputs": [
        {
          "internalType": "uint256",
          "name": "",
          "type": "uint256"
        },
        {
          "internalType": "uint256",
          "name": "",
          "type": "uint256"
        },
        {
          "internalType": "uint256",
          "name": "",
          "type": "uint256"
        },
        {
          "internalType": "uint256",
          "name": "",
          "type": "uint256"
        },
        {
          "internalType": "uint256",
          "name": "",
          "type": "uint256"
        },
        {
          "internalType": "bool",
          "name": "",
          "type": "bool"
        }
      ],
      "stateMutability": "view",
      "type": "function"
    }
  ],
  "bytecode": "0x608060405234801561001057600080fd5b506131bd806100206000396000f3fe608060405234801561001057600080fd5b506004361061009e5760003560e01c80638ee7f6cb116100665780638ee7f6cb1461013657806390601da314610166578063aeb45f0114610182578063c3e4f9c2146101b2578063feea35c9146101ce5761009e565b806303f256ec146100a357806333f453af146100bf578063537ce615146100c957806354250a13146100e5578063763b4ef014610101575b600080fd5b6100bd60048036038101906100b891906120ea565b6101ea565b005b6100c7610257565b005b6100e360048036038101906100de919061216d565b610261565b005b6100ff60048036038101906100fa9190612359565b6103c7565b005b61011b600480360381019061011691906123a2565b6103d3565b60405161012d969594939291906123ed565b60405180910390f35b610150600480360381019061014b91906123a2565b6103fa565b60405161015d9190612628565b60405180910390f35b610180600480360381019061017b919061269a565b610412565b005b61019c600480360381019061019791906123a2565b610473565b6040516101a9919061272a565b60405180910390f35b6101cc60048036038101906101c7919061274c565b61048b565b005b6101e860048036038101906101e391906127bb565b6105ec565b005b6101f684848484610785565b8073ffffffffffffffffffffffffffffffffffffffff168273ffffffffffffffffffffffffffffffffffffffff16857f924c77d15e16cd31a7b4457de58065af652bd3178fe5f5f2ff801196f030fe7860405160405180910390a450505050565b61025f6108ab565b565b600061026c82610473565b9050600081604001519050600061028285610911565b90508173ffffffffffffffffffffffffffffffffffffffff16637f2d905b84602001518560600151846040516024016102bb9190612628565b6040516020818303038152906040527f54250a13000000000000000000000000000000000000000000000000000000007bffffffffffffffffffffffffffffffffffffffffffffffffffffffff19166020820180517bffffffffffffffffffffffffffffffffffffffffffffffffffffffff83818316178352505050506040518463ffffffff1660e01b8152600401610356939291906128d8565b600060405180830381600087803b15801561037057600080fd5b505af1158015610384573d6000803e3d6000fd5b50505050847f602103799a7c20f1b0af9606ecee1173039b639af978bf3755ef5db1a5209a6f826040516103b89190612628565b60405180910390a25050505050565b6103d081610e10565b50565b6000806000806000806103e587610fdf565b95509550955095509550955091939550919395565b610402611e21565b61040b826110b9565b9050919050565b61042481600001518260200151611267565b8060200151816000015173ffffffffffffffffffffffffffffffffffffffff167f2974932ea8347b7507a8cb3888088a5db0692804c1592c993279b17e7fa7d7f260405160405180910390a350565b61047b611ea8565b610484826112d0565b9050919050565b600073cbbc5da52ea2728279560dca8f4ec08d5f829985905060006104af85610911565b90508173ffffffffffffffffffffffffffffffffffffffff16637f2d905b8585846040516024016104e09190612628565b6040516020818303038152906040527f54250a13000000000000000000000000000000000000000000000000000000007bffffffffffffffffffffffffffffffffffffffffffffffffffffffff19166020820180517bffffffffffffffffffffffffffffffffffffffffffffffffffffffff83818316178352505050506040518463ffffffff1660e01b815260040161057b939291906128d8565b600060405180830381600087803b15801561059557600080fd5b505af11580156105a9573d6000803e3d6000fd5b50505050847f602103799a7c20f1b0af9606ecee1173039b639af978bf3755ef5db1a5209a6f826040516105dd9190612628565b60405180910390a25050505050565b600073cbbc5da52ea2728279560dca8f4ec08d5f8299859050600060405180604001604052803373ffffffffffffffffffffffffffffffffffffffff1681526020018481525090508173ffffffffffffffffffffffffffffffffffffffff16637f2d905b868684604051602401610663919061294c565b6040516020818303038152906040527f90601da3000000000000000000000000000000000000000000000000000000007bffffffffffffffffffffffffffffffffffffffffffffffffffffffff19166020820180517bffffffffffffffffffffffffffffffffffffffffffffffffffffffff83818316178352505050506040518463ffffffff1660e01b81526004016106fe939291906128d8565b600060405180830381600087803b15801561071857600080fd5b505af115801561072c573d6000803e3d6000fd5b5050505061073a3384611454565b823373ffffffffffffffffffffffffffffffffffffffff167f639a1c2428edca612d7aa6a0f09df35033766e9b8578f6db38659900e23abf7260405160405180910390a35050505050565b600061078f61150b565b905060405180608001604052808681526020018581526020018473ffffffffffffffffffffffffffffffffffffffff1681526020018373ffffffffffffffffffffffffffffffffffffffff168152508160000160008781526020019081526020016000206000820151816000015560208201518160010190816108129190612b73565b5060408201518160020160006101000a81548173ffffffffffffffffffffffffffffffffffffffff021916908373ffffffffffffffffffffffffffffffffffffffff16021790555060608201518160030160006101000a81548173ffffffffffffffffffffffffffffffffffffffff021916908373ffffffffffffffffffffffffffffffffffffffff1602179055509050505050505050565b60006108b5611538565b90508060000160003373ffffffffffffffffffffffffffffffffffffffff1673ffffffffffffffffffffffffffffffffffffffff168152602001908152602001600020600081548092919061090990612c74565b919050555050565b610919611e21565b6000610923611565565b9050600061092f61150b565b90506000826003016000868152602001908152602001600020600201541461098c576040517f08c379a000000000000000000000000000000000000000000000000000000000815260040161098390612d08565b60405180910390fd5b3373ffffffffffffffffffffffffffffffffffffffff1682600201600086815260200190815260200160002060009054906101000a900473ffffffffffffffffffffffffffffffffffffffff1673ffffffffffffffffffffffffffffffffffffffff1614610a2f576040517f08c379a0000000000000000000000000000000000000000000000000000000008152600401610a2690612d74565b60405180910390fd5b6064826003016000868152602001908152602001600020600201819055506000826003016000868152602001908152602001600020905060008083600301600088815260200190815260200160002060009054906101000a900460ff16610b5957469150869050600184600301600089815260200190815260200160002060006101000a81548160ff02191690831515021790555086846001016000848152602001908152602001600020600089815260200190815260200160002081905550846003016000888152602001908152602001600020600f0184600201600084815260200190815260200160002060008981526020019081526020016000209081610b399190612dbf565b508184600401600089815260200190815260200160002081905550610b9b565b83600401600088815260200190815260200160002054915083600101600083815260200190815260200160002060008881526020019081526020016000205490505b6000604051806101c00160405280856019015481526020018560000154815260200185600101548152602001856003015481526020018560040154815260200185600601548152602001856008015481526020018560090154815260200185600e0154815260200184815260200183815260200186600201600086815260200190815260200160002060008b81526020019081526020016000208054610c4090612996565b80601f0160208091040260200160405190810160405280929190818152602001828054610c6c90612996565b8015610cb95780601f10610c8e57610100808354040283529160200191610cb9565b820191906000526020600020905b815481529060010190602001808311610c9c57829003601f168201915b505050505081526020018560110160009054906101000a900460ff16151581526020013373ffffffffffffffffffffffffffffffffffffffff168152509050808560050160008a8152602001908152602001600020600082015181600001556020820151816001015560408201518160020155606082015181600301556080820151816004015560a0820151816005015560c0820151816006015560e082015181600701556101008201518160080155610120820151816009015561014082015181600a015561016082015181600b019081610d959190612b73565b5061018082015181600c0160006101000a81548160ff0219169083151502179055506101a082015181600c0160016101000a81548173ffffffffffffffffffffffffffffffffffffffff021916908373ffffffffffffffffffffffffffffffffffffffff160217905550905050809650505050505050919050565b6000610e1a611565565b90506000610e2661150b565b905060008083600101541115610f8b576001905060008360030160008560010154815260200190815260200160002060020181905550603a83600301600085600101548152602001908152602001600020600001819055508360400151836003016000838152602001908152602001600020600101819055508360600151836003016000838152602001908152602001600020600301819055508360800151836003016000838152602001908152602001600020600401819055508360800151836003016000838152602001908152602001600020600501819055508360a00151836003016000838152602001908152602001600020600601819055508360c00151836003016000838152602001908152602001600020600801819055508360c00151836003016000838152602001908152602001600020600701819055508360e0015183600301600083815260200190815260200160002060090181905550610f95565b610f9484611592565b5b60008360030160008560010154815260200190815260200160002060020181905550603a836003016000856001015481526020019081526020016000206000018190555050505050565b6000806000806000806000610ff261150b565b90506000610ffe611565565b90504682600101600046815260200190815260200160002060008b8152602001908152602001600020548360010160008560040160008e815260200190815260200160002054815260200190815260200160002060008c8152602001908152602001600020548460040160008d81526020019081526020016000205484600101548660030160008f815260200190815260200160002060009054906101000a900460ff16975097509750975097509750505091939550919395565b6110c1611e21565b60006110cb61150b565b9050806005016000848152602001908152602001600020604051806101c001604052908160008201548152602001600182015481526020016002820154815260200160038201548152602001600482015481526020016005820154815260200160068201548152602001600782015481526020016008820154815260200160098201548152602001600a8201548152602001600b8201805461116c90612996565b80601f016020809104026020016040519081016040528092919081815260200182805461119890612996565b80156111e55780601f106111ba576101008083540402835291602001916111e5565b820191906000526020600020905b8154815290600101906020018083116111c857829003601f168201915b50505050508152602001600c820160009054906101000a900460ff16151515158152602001600c820160019054906101000a900473ffffffffffffffffffffffffffffffffffffffff1673ffffffffffffffffffffffffffffffffffffffff1673ffffffffffffffffffffffffffffffffffffffff1681525050915050919050565b6000611271611538565b9050818160000160008573ffffffffffffffffffffffffffffffffffffffff1673ffffffffffffffffffffffffffffffffffffffff16815260200190815260200160002060008282546112c49190612ea7565b92505081905550505050565b6112d8611ea8565b60006112e261150b565b90508060000160008481526020019081526020016000206040518060800160405290816000820154815260200160018201805461131e90612996565b80601f016020809104026020016040519081016040528092919081815260200182805461134a90612996565b80156113975780601f1061136c57610100808354040283529160200191611397565b820191906000526020600020905b81548152906001019060200180831161137a57829003601f168201915b505050505081526020016002820160009054906101000a900473ffffffffffffffffffffffffffffffffffffffff1673ffffffffffffffffffffffffffffffffffffffff1673ffffffffffffffffffffffffffffffffffffffff1681526020016003820160009054906101000a900473ffffffffffffffffffffffffffffffffffffffff1673ffffffffffffffffffffffffffffffffffffffff1673ffffffffffffffffffffffffffffffffffffffff1681525050915050919050565b600061145e611538565b9050818160000160008573ffffffffffffffffffffffffffffffffffffffff1673ffffffffffffffffffffffffffffffffffffffff1681526020019081526020016000205410156114ae57600080fd5b818160000160008573ffffffffffffffffffffffffffffffffffffffff1673ffffffffffffffffffffffffffffffffffffffff16815260200190815260200160002060008282546114ff9190612edb565b92505081905550505050565b6000807f4cde922899fdacbde63ed2c277d08801981412358b79d054d98add0ca65dea1990508091505090565b6000807f2c89d74504b6ad8d4fbde22bc3474166bac5452a11195897f239d8bebe02d70790508091505090565b6000807f3cab9a070a0c61cd0ae9d9e9e2c0781e5ca8691bec4087e5a4701d5ac018dd4e90508091505090565b600061159c611565565b905060006115a861150b565b90508160010160008154809291906115bf90612c74565b9190505550826101400151816001016000856101200151815260200190815260200160002060008460010154815260200190815260200160002081905550826101600151816002016000856101200151815260200190815260200160002060008561014001518152602001908152602001600020908161163f9190612b73565b5060018160030160008460010154815260200190815260200160002060006101000a81548160ff021916908315150217905550826101200151816004016000846001015481526020019081526020016000208190555060008361016001516116aa8460010154611c00565b6040516020016116bb929190612f97565b604051602081830303815290604052905060606000856000015103611728578461018001516117055760405180608001604052806043815260200161307c60439139905080611722565b604051806080016040528060438152602001613145604391399050805b506117da565b60018560000151036117825784610180015161175f576040518060800160405280604381526020016131026043913990508061177c565b6040518060800160405280604381526020016130bf604391399050805b506117d9565b60028560000151036117d8578461018001516117b957604051806080016040528060438152602001613039604391399050806117d6565b604051806080016040528060438152602001612ff6604391399050805b505b5b5b6040518061028001604052808660200151815260200186604001518152602001600081526020018660600151815260200186608001518152602001866080015181526020018660a0015181526020018660c0015181526020018660c0015181526020018660e001518152602001600181526020016001815260200160018152602001600181526020018661010001518152602001838152602001828152602001866101800151151581526020016040518060e0016040528060008152602001600081526020016000815260200160008152602001600081526020016000815260200160008152508152602001866000015181525084600301600086600101548152602001908152602001600020600082015181600001556020820151816001015560408201518160020155606082015181600301556080820151816004015560a0820151816005015560c0820151816006015560e082015181600701556101008201518160080155610120820151816009015561014082015181600a015561016082015181600b015561018082015181600c01556101a082015181600d01556101c082015181600e01556101e082015181600f01908161199a9190612b73565b506102008201518160100190816119b19190612b73565b506102208201518160110160006101000a81548160ff02191690831515021790555061024082015181601201600082015181600001556020820151816001015560408201518160020155606082015181600301556080820151816004015560a0820151816005015560c08201518160060155505061026082015181601901559050506040518060e00160405280600081526020016000815260200160008152602001600081526020016000815260200160008152602001600081525084600801600086600101548152602001908152602001600020600082015181600001556020820151816001015560408201518160020155606082015181600301556080820151816004015560a0820151816005015560c08201518160060155905050846101a001518460020160008660010154815260200190815260200160002060006101000a81548173ffffffffffffffffffffffffffffffffffffffff021916908373ffffffffffffffffffffffffffffffffffffffff160217905550836007016000866101a0015173ffffffffffffffffffffffffffffffffffffffff1673ffffffffffffffffffffffffffffffffffffffff16815260200190815260200160002084600101549080600181540180825580915050600190039060005260206000200160009091909190915055836004016000866101a0015173ffffffffffffffffffffffffffffffffffffffff1673ffffffffffffffffffffffffffffffffffffffff1681526020019081526020016000206000815480929190611bf490612c74565b91905055505050505050565b606060006001611c0f84611cce565b01905060008167ffffffffffffffff811115611c2e57611c2d611f61565b5b6040519080825280601f01601f191660200182016040528015611c605781602001600182028036833780820191505090505b509050600082602001820190505b600115611cc3578080600190039150507f3031323334353637383961626364656600000000000000000000000000000000600a86061a8153600a8581611cb757611cb6612fc6565b5b04945060008503611c6e575b819350505050919050565b600080600090507a184f03e93ff9f4daa797ed6e38ed64bf6a1f0100000000000000008310611d2c577a184f03e93ff9f4daa797ed6e38ed64bf6a1f0100000000000000008381611d2257611d21612fc6565b5b0492506040810190505b6d04ee2d6d415b85acef81000000008310611d69576d04ee2d6d415b85acef81000000008381611d5f57611d5e612fc6565b5b0492506020810190505b662386f26fc100008310611d9857662386f26fc100008381611d8e57611d8d612fc6565b5b0492506010810190505b6305f5e1008310611dc1576305f5e1008381611db757611db6612fc6565b5b0492506008810190505b6127108310611de6576127108381611ddc57611ddb612fc6565b5b0492506004810190505b60648310611e095760648381611dff57611dfe612fc6565b5b0492506002810190505b600a8310611e18576001810190505b80915050919050565b604051806101c00160405280600081526020016000815260200160008152602001600081526020016000815260200160008152602001600081526020016000815260200160008152602001600081526020016000815260200160608152602001600015158152602001600073ffffffffffffffffffffffffffffffffffffffff1681525090565b60405180608001604052806000815260200160608152602001600073ffffffffffffffffffffffffffffffffffffffff168152602001600073ffffffffffffffffffffffffffffffffffffffff1681525090565b6000604051905090565b600080fd5b600080fd5b6000819050919050565b611f2381611f10565b8114611f2e57600080fd5b50565b600081359050611f4081611f1a565b92915050565b600080fd5b600080fd5b6000601f19601f8301169050919050565b7f4e487b7100000000000000000000000000000000000000000000000000000000600052604160045260246000fd5b611f9982611f50565b810181811067ffffffffffffffff82111715611fb857611fb7611f61565b5b80604052505050565b6000611fcb611efc565b9050611fd78282611f90565b919050565b600067ffffffffffffffff821115611ff757611ff6611f61565b5b61200082611f50565b9050602081019050919050565b82818337600083830152505050565b600061202f61202a84611fdc565b611fc1565b90508281526020810184848401111561204b5761204a611f4b565b5b61205684828561200d565b509392505050565b600082601f83011261207357612072611f46565b5b813561208384826020860161201c565b91505092915050565b600073ffffffffffffffffffffffffffffffffffffffff82169050919050565b60006120b78261208c565b9050919050565b6120c7816120ac565b81146120d257600080fd5b50565b6000813590506120e4816120be565b92915050565b6000806000806080858703121561210457612103611f06565b5b600061211287828801611f31565b945050602085013567ffffffffffffffff81111561213357612132611f0b565b5b61213f8782880161205e565b9350506040612150878288016120d5565b9250506060612161878288016120d5565b91505092959194509250565b6000806040838503121561218457612183611f06565b5b600061219285828601611f31565b92505060206121a385828601611f31565b9150509250929050565b600080fd5b600080fd5b60008115159050919050565b6121cc816121b7565b81146121d757600080fd5b50565b6000813590506121e9816121c3565b92915050565b60006101c08284031215612206576122056121ad565b5b6122116101c0611fc1565b9050600061222184828501611f31565b600083015250602061223584828501611f31565b602083015250604061224984828501611f31565b604083015250606061225d84828501611f31565b606083015250608061227184828501611f31565b60808301525060a061228584828501611f31565b60a08301525060c061229984828501611f31565b60c08301525060e06122ad84828501611f31565b60e0830152506101006122c284828501611f31565b610100830152506101206122d884828501611f31565b610120830152506101406122ee84828501611f31565b6101408301525061016082013567ffffffffffffffff811115612314576123136121b2565b5b6123208482850161205e565b61016083015250610180612336848285016121da565b610180830152506101a061234c848285016120d5565b6101a08301525092915050565b60006020828403121561236f5761236e611f06565b5b600082013567ffffffffffffffff81111561238d5761238c611f0b565b5b612399848285016121ef565b91505092915050565b6000602082840312156123b8576123b7611f06565b5b60006123c684828501611f31565b91505092915050565b6123d881611f10565b82525050565b6123e7816121b7565b82525050565b600060c08201905061240260008301896123cf565b61240f60208301886123cf565b61241c60408301876123cf565b61242960608301866123cf565b61243660808301856123cf565b61244360a08301846123de565b979650505050505050565b61245781611f10565b82525050565b600081519050919050565b600082825260208201905092915050565b60005b8381101561249757808201518184015260208101905061247c565b60008484015250505050565b60006124ae8261245d565b6124b88185612468565b93506124c8818560208601612479565b6124d181611f50565b840191505092915050565b6124e5816121b7565b82525050565b6124f4816120ac565b82525050565b60006101c083016000830151612513600086018261244e565b506020830151612526602086018261244e565b506040830151612539604086018261244e565b50606083015161254c606086018261244e565b50608083015161255f608086018261244e565b5060a083015161257260a086018261244e565b5060c083015161258560c086018261244e565b5060e083015161259860e086018261244e565b506101008301516125ad61010086018261244e565b506101208301516125c261012086018261244e565b506101408301516125d761014086018261244e565b506101608301518482036101608601526125f182826124a3565b9150506101808301516126086101808601826124dc565b506101a083015161261d6101a08601826124eb565b508091505092915050565b6000602082019050818103600083015261264281846124fa565b905092915050565b6000604082840312156126605761265f6121ad565b5b61266a6040611fc1565b9050600061267a848285016120d5565b600083015250602061268e84828501611f31565b60208301525092915050565b6000604082840312156126b0576126af611f06565b5b60006126be8482850161264a565b91505092915050565b60006080830160008301516126df600086018261244e565b50602083015184820360208601526126f782826124a3565b915050604083015161270c60408601826124eb565b50606083015161271f60608601826124eb565b508091505092915050565b6000602082019050818103600083015261274481846126c7565b905092915050565b60008060006060848603121561276557612764611f06565b5b600061277386828701611f31565b935050602084013567ffffffffffffffff81111561279457612793611f0b565b5b6127a08682870161205e565b92505060406127b1868287016120d5565b9150509250925092565b6000806000606084860312156127d4576127d3611f06565b5b600084013567ffffffffffffffff8111156127f2576127f1611f0b565b5b6127fe8682870161205e565b935050602061280f868287016120d5565b925050604061282086828701611f31565b9150509250925092565b600082825260208201905092915050565b60006128468261245d565b612850818561282a565b9350612860818560208601612479565b61286981611f50565b840191505092915050565b61287d816120ac565b82525050565b600081519050919050565b600082825260208201905092915050565b60006128aa82612883565b6128b4818561288e565b93506128c4818560208601612479565b6128cd81611f50565b840191505092915050565b600060608201905081810360008301526128f2818661283b565b90506129016020830185612874565b8181036040830152612913818461289f565b9050949350505050565b60408201600082015161293360008501826124eb565b506020820151612946602085018261244e565b50505050565b6000604082019050612961600083018461291d565b92915050565b7f4e487b7100000000000000000000000000000000000000000000000000000000600052602260045260246000fd5b600060028204905060018216806129ae57607f821691505b6020821081036129c1576129c0612967565b5b50919050565b60008190508160005260206000209050919050565b60006020601f8301049050919050565b600082821b905092915050565b600060088302612a297fffffffffffffffffffffffffffffffffffffffffffffffffffffffffffffffff826129ec565b612a3386836129ec565b95508019841693508086168417925050509392505050565b6000819050919050565b6000612a70612a6b612a6684611f10565b612a4b565b611f10565b9050919050565b6000819050919050565b612a8a83612a55565b612a9e612a9682612a77565b8484546129f9565b825550505050565b600090565b612ab3612aa6565b612abe818484612a81565b505050565b5b81811015612ae257612ad7600082612aab565b600181019050612ac4565b5050565b601f821115612b2757612af8816129c7565b612b01846129dc565b81016020851015612b10578190505b612b24612b1c856129dc565b830182612ac3565b50505b505050565b600082821c905092915050565b6000612b4a60001984600802612b2c565b1980831691505092915050565b6000612b638383612b39565b9150826002028217905092915050565b612b7c8261245d565b67ffffffffffffffff811115612b9557612b94611f61565b5b612b9f8254612996565b612baa828285612ae6565b600060209050601f831160018114612bdd5760008415612bcb578287015190505b612bd58582612b57565b865550612c3d565b601f198416612beb866129c7565b60005b82811015612c1357848901518255600182019150602085019450602081019050612bee565b86831015612c305784890151612c2c601f891682612b39565b8355505b6001600288020188555050505b505050505050565b7f4e487b7100000000000000000000000000000000000000000000000000000000600052601160045260246000fd5b6000612c7f82611f10565b91507fffffffffffffffffffffffffffffffffffffffffffffffffffffffffffffffff8203612cb157612cb0612c45565b5b600182019050919050565b7f796f7520617265206e6f742069646c6500000000000000000000000000000000600082015250565b6000612cf260108361282a565b9150612cfd82612cbc565b602082019050919050565b60006020820190508181036000830152612d2181612ce5565b9050919050565b7f796f7520617265206e6f7420746865206f776e65720000000000000000000000600082015250565b6000612d5e60158361282a565b9150612d6982612d28565b602082019050919050565b60006020820190508181036000830152612d8d81612d51565b9050919050565b600081549050612da381612996565b9050919050565b60008190508160005260206000209050919050565b818103612dcd575050612ea5565b612dd682612d94565b67ffffffffffffffff811115612def57612dee611f61565b5b612df98254612996565b612e04828285612ae6565b6000601f831160018114612e335760008415612e21578287015490505b612e2b8582612b57565b865550612e9e565b601f198416612e4187612daa565b9650612e4c866129c7565b60005b82811015612e7457848901548255600182019150600185019450602081019050612e4f565b86831015612e915784890154612e8d601f891682612b39565b8355505b6001600288020188555050505b5050505050505b565b6000612eb282611f10565b9150612ebd83611f10565b9250828201905080821115612ed557612ed4612c45565b5b92915050565b6000612ee682611f10565b9150612ef183611f10565b9250828203905081811115612f0957612f08612c45565b5b92915050565b600081905092915050565b6000612f258261245d565b612f2f8185612f0f565b9350612f3f818560208601612479565b80840191505092915050565b7f2d00000000000000000000000000000000000000000000000000000000000000600082015250565b6000612f81600183612f0f565b9150612f8c82612f4b565b600182019050919050565b6000612fa38285612f1a565b9150612fae82612f74565b9150612fba8284612f1a565b91508190509392505050565b7f4e487b7100000000000000000000000000000000000000000000000000000000600052601260045260246000fdfe68747470733a2f2f697066732e696f2f697066732f516d556257785564387358344d5a6f6a4b455255506d507539597441596659726f425334546531484a454b75637968747470733a2f2f697066732e696f2f697066732f516d625641427439734b704e55613844674d4a64653344424351796f72534354395631447a6436634a385a556d5068747470733a2f2f697066732e696f2f697066732f516d66424e4870787077554e67747736695842784b584c6256786f6d386d7064427367715a5a79353970524d354368747470733a2f2f697066732e696f2f697066732f516d5158655965397278526b6b716645423744725a52534732533179724e676a363456386d3676374b65747a516468747470733a2f2f697066732e696f2f697066732f516d55715a4b5275646e616e673147586244326e4848776d4a664e4e42465156646d6f483857416e65616969356868747470733a2f2f697066732e696f2f697066732f516d56357053734d47474d4c5733593979513871534c534d4451616b646e6a686a53346b356865366d4a79506548a26469706673582212209e191f2423cd4c008e51f738690c8d0b2b8b35e35aa4f302237196cabaa9b5df64736f6c63430008120033",
  "linkReferences": {},
  "deployedLinkReferences": {}
}