{
  "_format": "hh-sol-artifact-1",
  "contractName": "BridgeFacet",
  "sourceName": "contracts/facets/BridgeFacet.sol",
  "abi": [
    {
      "anonymous": false,
      "inputs": [
        {
          "indexed": true,
          "internalType": "address",
          "name": "owner",
          "type": "address"
        },
        {
          "indexed": true,
          "internalType": "address",
          "name": "approved",
          "type": "address"
        },
        {
          "indexed": true,
          "internalType": "uint256",
          "name": "tokenId",
          "type": "uint256"
        }
      ],
      "name": "Approval",
      "type": "event"
    },
    {
      "anonymous": false,
      "inputs": [
        {
          "indexed": true,
          "internalType": "address",
          "name": "owner",
          "type": "address"
        },
        {
          "indexed": true,
          "internalType": "address",
          "name": "operator",
          "type": "address"
        },
        {
          "indexed": false,
          "internalType": "bool",
          "name": "approved",
          "type": "bool"
        }
      ],
      "name": "ApprovalForAll",
      "type": "event"
    },
    {
      "anonymous": false,
      "inputs": [
        {
          "indexed": true,
          "internalType": "uint256",
          "name": "_chainId",
          "type": "uint256"
        },
        {
          "indexed": true,
          "internalType": "address",
          "name": "_portal",
          "type": "address"
        },
        {
          "indexed": true,
          "internalType": "address",
          "name": "_diamond",
          "type": "address"
        }
      ],
      "name": "BridgeCreated",
      "type": "event"
    },
    {
      "anonymous": false,
      "inputs": [
        {
          "indexed": true,
          "internalType": "uint256",
          "name": "_playerId",
          "type": "uint256"
        },
        {
          "components": [
            {
              "internalType": "uint256",
              "name": "class",
              "type": "uint256"
            },
            {
              "internalType": "uint256",
              "name": "level",
              "type": "uint256"
            },
            {
              "internalType": "uint256",
              "name": "xp",
              "type": "uint256"
            },
            {
              "internalType": "uint256",
              "name": "strength",
              "type": "uint256"
            },
            {
              "internalType": "uint256",
              "name": "health",
              "type": "uint256"
            },
            {
              "internalType": "uint256",
              "name": "magic",
              "type": "uint256"
            },
            {
              "internalType": "uint256",
              "name": "maxMana",
              "type": "uint256"
            },
            {
              "internalType": "uint256",
              "name": "agility",
              "type": "uint256"
            },
            {
              "internalType": "uint256",
              "name": "defense",
              "type": "uint256"
            },
            {
              "internalType": "uint256",
              "name": "baseChain",
              "type": "uint256"
            },
            {
              "internalType": "uint256",
              "name": "baseId",
              "type": "uint256"
            },
            {
              "internalType": "string",
              "name": "name",
              "type": "string"
            },
            {
              "internalType": "bool",
              "name": "isMale",
              "type": "bool"
            },
            {
              "internalType": "address",
              "name": "sender",
              "type": "address"
            }
          ],
          "indexed": false,
          "internalType": "struct BridgeFormat",
          "name": "_format",
          "type": "tuple"
        }
      ],
      "name": "BridgePlayer",
      "type": "event"
    },
    {
      "anonymous": false,
      "inputs": [
        {
          "indexed": true,
          "internalType": "uint256",
          "name": "_playerId",
          "type": "uint256"
        },
        {
          "components": [
            {
              "internalType": "uint256",
              "name": "class",
              "type": "uint256"
            },
            {
              "internalType": "uint256",
              "name": "level",
              "type": "uint256"
            },
            {
              "internalType": "uint256",
              "name": "xp",
              "type": "uint256"
            },
            {
              "internalType": "uint256",
              "name": "strength",
              "type": "uint256"
            },
            {
              "internalType": "uint256",
              "name": "health",
              "type": "uint256"
            },
            {
              "internalType": "uint256",
              "name": "magic",
              "type": "uint256"
            },
            {
              "internalType": "uint256",
              "name": "maxMana",
              "type": "uint256"
            },
            {
              "internalType": "uint256",
              "name": "agility",
              "type": "uint256"
            },
            {
              "internalType": "uint256",
              "name": "defense",
              "type": "uint256"
            },
            {
              "internalType": "uint256",
              "name": "baseChain",
              "type": "uint256"
            },
            {
              "internalType": "uint256",
              "name": "baseId",
              "type": "uint256"
            },
            {
              "internalType": "string",
              "name": "name",
              "type": "string"
            },
            {
              "internalType": "bool",
              "name": "isMale",
              "type": "bool"
            },
            {
              "internalType": "address",
              "name": "sender",
              "type": "address"
            }
          ],
          "indexed": false,
          "internalType": "struct BridgeFormat",
          "name": "_format",
          "type": "tuple"
        }
      ],
      "name": "ReMintPlayer",
      "type": "event"
    },
    {
      "anonymous": false,
      "inputs": [
        {
          "indexed": true,
          "internalType": "address",
          "name": "_sender",
          "type": "address"
        },
        {
          "indexed": true,
          "internalType": "uint256",
          "name": "_amount",
          "type": "uint256"
        }
      ],
      "name": "ReceiveGold",
      "type": "event"
    },
    {
      "anonymous": false,
      "inputs": [
        {
          "indexed": true,
          "internalType": "address",
          "name": "_sender",
          "type": "address"
        },
        {
          "indexed": true,
          "internalType": "uint256",
          "name": "_amount",
          "type": "uint256"
        }
      ],
      "name": "SendGold",
      "type": "event"
    },
    {
      "anonymous": false,
      "inputs": [
        {
          "indexed": true,
          "internalType": "address",
          "name": "from",
          "type": "address"
        },
        {
          "indexed": true,
          "internalType": "address",
          "name": "to",
          "type": "address"
        },
        {
          "indexed": true,
          "internalType": "uint256",
          "name": "tokenId",
          "type": "uint256"
        }
      ],
      "name": "Transfer",
      "type": "event"
    },
    {
      "inputs": [
        {
          "internalType": "string",
          "name": "_chain",
          "type": "string"
        },
        {
          "internalType": "address",
          "name": "_contract",
          "type": "address"
        },
        {
          "internalType": "uint256",
          "name": "_amount",
          "type": "uint256"
        }
      ],
      "name": "bridgeGold",
      "outputs": [],
      "stateMutability": "nonpayable",
      "type": "function"
    },
    {
      "inputs": [
        {
          "internalType": "uint256",
          "name": "_playerId",
          "type": "uint256"
        },
        {
          "internalType": "uint256",
          "name": "_chainId",
          "type": "uint256"
        }
      ],
      "name": "bridgePlayer",
      "outputs": [],
      "stateMutability": "nonpayable",
      "type": "function"
    },
    {
      "inputs": [
        {
          "internalType": "uint256",
          "name": "_playerId",
          "type": "uint256"
        },
        {
          "internalType": "string",
          "name": "_chain",
          "type": "string"
        },
        {
          "internalType": "address",
          "name": "_contract",
          "type": "address"
        }
      ],
      "name": "bridgePlayerTest",
      "outputs": [],
      "stateMutability": "nonpayable",
      "type": "function"
    },
    {
      "inputs": [
        {
          "internalType": "uint256",
          "name": "_chainId",
          "type": "uint256"
        },
        {
          "internalType": "string",
          "name": "_name",
          "type": "string"
        },
        {
          "internalType": "address",
          "name": "_portal",
          "type": "address"
        },
        {
          "internalType": "address",
          "name": "_diamond",
          "type": "address"
        }
      ],
      "name": "createBridge",
      "outputs": [],
      "stateMutability": "nonpayable",
      "type": "function"
    },
    {
      "inputs": [
        {
          "internalType": "uint256",
          "name": "_chainId",
          "type": "uint256"
        }
      ],
      "name": "getChainData",
      "outputs": [
        {
          "components": [
            {
              "internalType": "uint256",
              "name": "chainId",
              "type": "uint256"
            },
            {
              "internalType": "string",
              "name": "name",
              "type": "string"
            },
            {
              "internalType": "address",
              "name": "portal",
              "type": "address"
            },
            {
              "internalType": "address",
              "name": "diamond",
              "type": "address"
            }
          ],
          "internalType": "struct ChainData",
          "name": "",
          "type": "tuple"
        }
      ],
      "stateMutability": "view",
      "type": "function"
    },
    {
      "inputs": [
        {
          "components": [
            {
              "internalType": "uint256",
              "name": "class",
              "type": "uint256"
            },
            {
              "internalType": "uint256",
              "name": "level",
              "type": "uint256"
            },
            {
              "internalType": "uint256",
              "name": "xp",
              "type": "uint256"
            },
            {
              "internalType": "uint256",
              "name": "strength",
              "type": "uint256"
            },
            {
              "internalType": "uint256",
              "name": "health",
              "type": "uint256"
            },
            {
              "internalType": "uint256",
              "name": "magic",
              "type": "uint256"
            },
            {
              "internalType": "uint256",
              "name": "maxMana",
              "type": "uint256"
            },
            {
              "internalType": "uint256",
              "name": "agility",
              "type": "uint256"
            },
            {
              "internalType": "uint256",
              "name": "defense",
              "type": "uint256"
            },
            {
              "internalType": "uint256",
              "name": "baseChain",
              "type": "uint256"
            },
            {
              "internalType": "uint256",
              "name": "baseId",
              "type": "uint256"
            },
            {
              "internalType": "string",
              "name": "name",
              "type": "string"
            },
            {
              "internalType": "bool",
              "name": "isMale",
              "type": "bool"
            },
            {
              "internalType": "address",
              "name": "sender",
              "type": "address"
            }
          ],
          "internalType": "struct BridgeFormat",
          "name": "_format",
          "type": "tuple"
        }
      ],
      "name": "reMintPlayer",
      "outputs": [],
      "stateMutability": "nonpayable",
      "type": "function"
    },
    {
      "inputs": [
        {
          "components": [
            {
              "internalType": "address",
              "name": "sender",
              "type": "address"
            },
            {
              "internalType": "uint256",
              "name": "amount",
              "type": "uint256"
            }
          ],
          "internalType": "struct BridgegeCoinFormat",
          "name": "_format",
          "type": "tuple"
        }
      ],
      "name": "receiveGold",
      "outputs": [],
      "stateMutability": "nonpayable",
      "type": "function"
    },
    {
      "inputs": [
        {
          "internalType": "uint256",
          "name": "_playerId",
          "type": "uint256"
        }
      ],
      "name": "sanityCheck",
      "outputs": [
        {
          "internalType": "uint256",
          "name": "",
          "type": "uint256"
        },
        {
          "internalType": "uint256",
          "name": "",
          "type": "uint256"
        },
        {
          "internalType": "uint256",
          "name": "",
          "type": "uint256"
        },
        {
          "internalType": "bool",
          "name": "",
          "type": "bool"
        }
      ],
      "stateMutability": "view",
      "type": "function"
    }
  ],
  "bytecode": "0x608060405234801561001057600080fd5b506135ee806100206000396000f3fe608060405234801561001057600080fd5b50600436106100885760003560e01c806390601da31161005b57806390601da314610114578063aeb45f0114610130578063c3e4f9c214610160578063feea35c91461017c57610088565b806303f256ec1461008d578063537ce615146100a957806354250a13146100c5578063763b4ef0146100e1575b600080fd5b6100a760048036038101906100a29190612256565b610198565b005b6100c360048036038101906100be91906122d9565b610205565b005b6100df60048036038101906100da91906124c5565b610373565b005b6100fb60048036038101906100f6919061250e565b61039b565b60405161010b9493929190612559565b60405180910390f35b61012e600480360381019061012991906125ee565b6103b9565b005b61014a6004803603810190610145919061250e565b61041a565b604051610157919061271b565b60405180910390f35b61017a6004803603810190610175919061273d565b610432565b005b610196600480360381019061019191906127ac565b61059b565b005b6101a48484848461073c565b8073ffffffffffffffffffffffffffffffffffffffff168273ffffffffffffffffffffffffffffffffffffffff16857f924c77d15e16cd31a7b4457de58065af652bd3178fe5f5f2ff801196f030fe7860405160405180910390a450505050565b60006102108261041a565b9050600081604001519050600061022685610862565b90508173ffffffffffffffffffffffffffffffffffffffff1663381aa2cf846020015185606001516000620186a0866040516024016102659190612958565b6040516020818303038152906040527f54250a13000000000000000000000000000000000000000000000000000000007bffffffffffffffffffffffffffffffffffffffffffffffffffffffff19166020820180517bffffffffffffffffffffffffffffffffffffffffffffffffffffffff83818316178352505050506040518663ffffffff1660e01b8152600401610302959493929190612abc565b600060405180830381600087803b15801561031c57600080fd5b505af1158015610330573d6000803e3d6000fd5b50505050847f602103799a7c20f1b0af9606ecee1173039b639af978bf3755ef5db1a5209a6f826040516103649190612958565b60405180910390a25050505050565b61037c81610c3d565b6000610386610e1e565b9050610397826101a0015182610e36565b5050565b6000806000806103aa85610e54565b93509350935093509193509193565b6103cb81600001518260200151610ed7565b8060200151816000015173ffffffffffffffffffffffffffffffffffffffff167f2974932ea8347b7507a8cb3888088a5db0692804c1592c993279b17e7fa7d7f260405160405180910390a350565b610422611f8d565b61042b82610f40565b9050919050565b6000731b2c14b235e928b42ede9d83c8143fc9ec3097429050600061045685610862565b90508173ffffffffffffffffffffffffffffffffffffffff1663381aa2cf85856000620186a08660405160240161048d9190612958565b6040516020818303038152906040527f54250a13000000000000000000000000000000000000000000000000000000007bffffffffffffffffffffffffffffffffffffffffffffffffffffffff19166020820180517bffffffffffffffffffffffffffffffffffffffffffffffffffffffff83818316178352505050506040518663ffffffff1660e01b815260040161052a959493929190612abc565b600060405180830381600087803b15801561054457600080fd5b505af1158015610558573d6000803e3d6000fd5b50505050847f602103799a7c20f1b0af9606ecee1173039b639af978bf3755ef5db1a5209a6f8260405161058c9190612958565b60405180910390a25050505050565b6000731b2c14b235e928b42ede9d83c8143fc9ec3097429050600060405180604001604052803373ffffffffffffffffffffffffffffffffffffffff1681526020018481525090508173ffffffffffffffffffffffffffffffffffffffff1663381aa2cf86866000620186a0866040516024016106189190612b4c565b6040516020818303038152906040527f90601da3000000000000000000000000000000000000000000000000000000007bffffffffffffffffffffffffffffffffffffffffffffffffffffffff19166020820180517bffffffffffffffffffffffffffffffffffffffffffffffffffffffff83818316178352505050506040518663ffffffff1660e01b81526004016106b5959493929190612abc565b600060405180830381600087803b1580156106cf57600080fd5b505af11580156106e3573d6000803e3d6000fd5b505050506106f133846110c4565b823373ffffffffffffffffffffffffffffffffffffffff167f639a1c2428edca612d7aa6a0f09df35033766e9b8578f6db38659900e23abf7260405160405180910390a35050505050565b600061074661117b565b905060405180608001604052808681526020018581526020018473ffffffffffffffffffffffffffffffffffffffff1681526020018373ffffffffffffffffffffffffffffffffffffffff168152508160000160008781526020019081526020016000206000820151816000015560208201518160010190816107c99190612d69565b5060408201518160020160006101000a81548173ffffffffffffffffffffffffffffffffffffffff021916908373ffffffffffffffffffffffffffffffffffffffff16021790555060608201518160030160006101000a81548173ffffffffffffffffffffffffffffffffffffffff021916908373ffffffffffffffffffffffffffffffffffffffff1602179055509050505050505050565b61086a611fe1565b60006108746111a8565b9050600061088061117b565b9050600082600301600086815260200190815260200160002060020154146108dd576040517f08c379a00000000000000000000000000000000000000000000000000000000081526004016108d490612e87565b60405180910390fd5b3373ffffffffffffffffffffffffffffffffffffffff1682600201600086815260200190815260200160002060009054906101000a900473ffffffffffffffffffffffffffffffffffffffff1673ffffffffffffffffffffffffffffffffffffffff1614610980576040517f08c379a000000000000000000000000000000000000000000000000000000000815260040161097790612ef3565b60405180910390fd5b6064826003016000868152602001908152602001600020600201819055506000826003016000868152602001908152602001600020905060008083600301600088815260200190815260200160002060009054906101000a900460ff16610a9057469150869050600184600301600089815260200190815260200160002060006101000a81548160ff02191690831515021790555086846001016000848152602001908152602001600020600089815260200190815260200160002081905550846003016000888152602001908152602001600020600f0184600201600084815260200190815260200160002060008981526020019081526020016000209081610a8a9190612f3e565b50610ad2565b83600401600088815260200190815260200160002054915083600101600083815260200190815260200160002060008881526020019081526020016000205490505b6000604051806101c00160405280856019015481526020018560000154815260200185600101548152602001856003015481526020018560040154815260200185600601548152602001856008015481526020018560090154815260200185600e0154815260200184815260200183815260200186600201600086815260200190815260200160002060008b81526020019081526020016000208054610b7790612b96565b80601f0160208091040260200160405190810160405280929190818152602001828054610ba390612b96565b8015610bf05780601f10610bc557610100808354040283529160200191610bf0565b820191906000526020600020905b815481529060010190602001808311610bd357829003601f168201915b505050505081526020018560110160009054906101000a900460ff16151581526020013373ffffffffffffffffffffffffffffffffffffffff168152509050809650505050505050919050565b6000610c476111a8565b90506000610c5361117b565b9050600080826001016000866101200151815260200190815260200160002060008661014001518152602001908152602001600020541115610e0e578160010160008561012001518152602001908152602001600020600085610140015181526020019081526020016000205490506000836003016000838152602001908152602001600020600201819055508360200151836003016000838152602001908152602001600020600001819055508360400151836003016000838152602001908152602001600020600101819055508360600151836003016000838152602001908152602001600020600301819055508360800151836003016000838152602001908152602001600020600401819055508360800151836003016000838152602001908152602001600020600501819055508360a00151836003016000838152602001908152602001600020600601819055508360c00151836003016000838152602001908152602001600020600801819055508360c00151836003016000838152602001908152602001600020600701819055508360e0015183600301600083815260200190815260200160002060090181905550610e18565b610e17846111d5565b5b50505050565b600080610e296111a8565b9050806001015491505090565b610e50828260405180602001604052806000815250611843565b5050565b6000806000806000610e6461117b565b905046816001016000468152602001908152602001600020600088815260200190815260200160002054826004016000898152602001908152602001600020548360030160008a815260200190815260200160002060009054906101000a900460ff169450945094509450509193509193565b6000610ee161189e565b9050818160000160008573ffffffffffffffffffffffffffffffffffffffff1673ffffffffffffffffffffffffffffffffffffffff1681526020019081526020016000206000828254610f349190613055565b92505081905550505050565b610f48611f8d565b6000610f5261117b565b905080600001600084815260200190815260200160002060405180608001604052908160008201548152602001600182018054610f8e90612b96565b80601f0160208091040260200160405190810160405280929190818152602001828054610fba90612b96565b80156110075780601f10610fdc57610100808354040283529160200191611007565b820191906000526020600020905b815481529060010190602001808311610fea57829003601f168201915b505050505081526020016002820160009054906101000a900473ffffffffffffffffffffffffffffffffffffffff1673ffffffffffffffffffffffffffffffffffffffff1673ffffffffffffffffffffffffffffffffffffffff1681526020016003820160009054906101000a900473ffffffffffffffffffffffffffffffffffffffff1673ffffffffffffffffffffffffffffffffffffffff1673ffffffffffffffffffffffffffffffffffffffff1681525050915050919050565b60006110ce61189e565b9050818160000160008573ffffffffffffffffffffffffffffffffffffffff1673ffffffffffffffffffffffffffffffffffffffff16815260200190815260200160002054101561111e57600080fd5b818160000160008573ffffffffffffffffffffffffffffffffffffffff1673ffffffffffffffffffffffffffffffffffffffff168152602001908152602001600020600082825461116f9190613089565b92505081905550505050565b6000807f4cde922899fdacbde63ed2c277d08801981412358b79d054d98add0ca65dea1990508091505090565b6000807f3cab9a070a0c61cd0ae9d9e9e2c0781e5ca8691bec4087e5a4701d5ac018dd4e90508091505090565b60006111df6111a8565b905060006111eb61117b565b9050816001016000815480929190611202906130bd565b919050555082610140015181600101600085610120015181526020019081526020016000206000846001015481526020019081526020016000208190555082610160015181600201600085610120015181526020019081526020016000206000856101400151815260200190815260200160002090816112829190612d69565b5060018160030160008460010154815260200190815260200160002060006101000a81548160ff021916908315150217905550826101200151816004016000846001015481526020019081526020016000208190555060008361016001516112ed84600101546118cb565b6040516020016112fe92919061318d565b60405160208183030381529060405290506060600085600001510361136b57846101800151611348576040518060800160405280604381526020016134ad60439139905080611365565b604051806080016040528060438152602001613576604391399050805b5061141d565b60018560000151036113c5578461018001516113a257604051806080016040528060438152602001613533604391399050806113bf565b6040518060800160405280604381526020016134f0604391399050805b5061141c565b600285600001510361141b578461018001516113fc5760405180608001604052806043815260200161346a60439139905080611419565b604051806080016040528060438152602001613427604391399050805b505b5b5b6040518061028001604052808660200151815260200186604001518152602001600081526020018660600151815260200186608001518152602001866080015181526020018660a0015181526020018660c0015181526020018660c0015181526020018660e001518152602001600181526020016001815260200160018152602001600181526020018661010001518152602001838152602001828152602001866101800151151581526020016040518060e0016040528060008152602001600081526020016000815260200160008152602001600081526020016000815260200160008152508152602001866000015181525084600301600086600101548152602001908152602001600020600082015181600001556020820151816001015560408201518160020155606082015181600301556080820151816004015560a0820151816005015560c0820151816006015560e082015181600701556101008201518160080155610120820151816009015561014082015181600a015561016082015181600b015561018082015181600c01556101a082015181600d01556101c082015181600e01556101e082015181600f0190816115dd9190612d69565b506102008201518160100190816115f49190612d69565b506102208201518160110160006101000a81548160ff02191690831515021790555061024082015181601201600082015181600001556020820151816001015560408201518160020155606082015181600301556080820151816004015560a0820151816005015560c08201518160060155505061026082015181601901559050506040518060e00160405280600081526020016000815260200160008152602001600081526020016000815260200160008152602001600081525084600801600086600101548152602001908152602001600020600082015181600001556020820151816001015560408201518160020155606082015181600301556080820151816004015560a0820151816005015560c08201518160060155905050846101a001518460020160008660010154815260200190815260200160002060006101000a81548173ffffffffffffffffffffffffffffffffffffffff021916908373ffffffffffffffffffffffffffffffffffffffff160217905550836007016000866101a0015173ffffffffffffffffffffffffffffffffffffffff1673ffffffffffffffffffffffffffffffffffffffff16815260200190815260200160002084600101549080600181540180825580915050600190039060005260206000200160009091909190915055836004016000866101a0015173ffffffffffffffffffffffffffffffffffffffff1673ffffffffffffffffffffffffffffffffffffffff1681526020019081526020016000206000815480929190611837906130bd565b91905055505050505050565b61184d8383611999565b61185a6000848484611bc8565b611899576040517f08c379a00000000000000000000000000000000000000000000000000000000081526004016118909061322e565b60405180910390fd5b505050565b6000807f2c89d74504b6ad8d4fbde22bc3474166bac5452a11195897f239d8bebe02d70790508091505090565b6060600060016118da84611d4f565b01905060008167ffffffffffffffff8111156118f9576118f86120cd565b5b6040519080825280601f01601f19166020018201604052801561192b5781602001600182028036833780820191505090505b509050600082602001820190505b60011561198e578080600190039150507f3031323334353637383961626364656600000000000000000000000000000000600a86061a8153600a85816119825761198161324e565b5b04945060008503611939575b819350505050919050565b600073ffffffffffffffffffffffffffffffffffffffff168273ffffffffffffffffffffffffffffffffffffffff1603611a08576040517f08c379a00000000000000000000000000000000000000000000000000000000081526004016119ff906132c9565b60405180910390fd5b611a1181611ea2565b15611a51576040517f08c379a0000000000000000000000000000000000000000000000000000000008152600401611a4890613335565b60405180910390fd5b611a5f600083836001611ee3565b611a6881611ea2565b15611aa8576040517f08c379a0000000000000000000000000000000000000000000000000000000008152600401611a9f90613335565b60405180910390fd5b6001611ab2611ee9565b600a0160008473ffffffffffffffffffffffffffffffffffffffff1673ffffffffffffffffffffffffffffffffffffffff1681526020019081526020016000206000828254019250508190555081611b08611ee9565b600901600083815260200190815260200160002060006101000a81548173ffffffffffffffffffffffffffffffffffffffff021916908373ffffffffffffffffffffffffffffffffffffffff160217905550808273ffffffffffffffffffffffffffffffffffffffff16600073ffffffffffffffffffffffffffffffffffffffff167fddf252ad1be2c89b69c2b068fc378daa952ba7f163c4a11628f55a4df523b3ef60405160405180910390a4611bc4600083836001611f16565b5050565b6000611be98473ffffffffffffffffffffffffffffffffffffffff16611f1c565b15611d42578373ffffffffffffffffffffffffffffffffffffffff1663150b7a02611c12611f3f565b8786866040518563ffffffff1660e01b8152600401611c349493929190613355565b6020604051808303816000875af1925050508015611c7057506040513d601f19601f82011682018060405250810190611c6d91906133f9565b60015b611cf2573d8060008114611ca0576040519150601f19603f3d011682016040523d82523d6000602084013e611ca5565b606091505b506000815103611cea576040517f08c379a0000000000000000000000000000000000000000000000000000000008152600401611ce19061322e565b60405180910390fd5b805181602001fd5b63150b7a0260e01b7bffffffffffffffffffffffffffffffffffffffffffffffffffffffff1916817bffffffffffffffffffffffffffffffffffffffffffffffffffffffff191614915050611d47565b600190505b949350505050565b600080600090507a184f03e93ff9f4daa797ed6e38ed64bf6a1f0100000000000000008310611dad577a184f03e93ff9f4daa797ed6e38ed64bf6a1f0100000000000000008381611da357611da261324e565b5b0492506040810190505b6d04ee2d6d415b85acef81000000008310611dea576d04ee2d6d415b85acef81000000008381611de057611ddf61324e565b5b0492506020810190505b662386f26fc100008310611e1957662386f26fc100008381611e0f57611e0e61324e565b5b0492506010810190505b6305f5e1008310611e42576305f5e1008381611e3857611e3761324e565b5b0492506008810190505b6127108310611e67576127108381611e5d57611e5c61324e565b5b0492506004810190505b60648310611e8a5760648381611e8057611e7f61324e565b5b0492506002810190505b600a8310611e99576001810190505b80915050919050565b60008073ffffffffffffffffffffffffffffffffffffffff16611ec483611f47565b73ffffffffffffffffffffffffffffffffffffffff1614159050919050565b50505050565b6000807f2569078dfb4b0305704d3008e7403993ae9601b85f7ae5e742de3de8f8011c4090508091505090565b50505050565b6000808273ffffffffffffffffffffffffffffffffffffffff163b119050919050565b600033905090565b6000611f51611ee9565b600901600083815260200190815260200160002060009054906101000a900473ffffffffffffffffffffffffffffffffffffffff169050919050565b60405180608001604052806000815260200160608152602001600073ffffffffffffffffffffffffffffffffffffffff168152602001600073ffffffffffffffffffffffffffffffffffffffff1681525090565b604051806101c00160405280600081526020016000815260200160008152602001600081526020016000815260200160008152602001600081526020016000815260200160008152602001600081526020016000815260200160608152602001600015158152602001600073ffffffffffffffffffffffffffffffffffffffff1681525090565b6000604051905090565b600080fd5b600080fd5b6000819050919050565b61208f8161207c565b811461209a57600080fd5b50565b6000813590506120ac81612086565b92915050565b600080fd5b600080fd5b6000601f19601f8301169050919050565b7f4e487b7100000000000000000000000000000000000000000000000000000000600052604160045260246000fd5b612105826120bc565b810181811067ffffffffffffffff82111715612124576121236120cd565b5b80604052505050565b6000612137612068565b905061214382826120fc565b919050565b600067ffffffffffffffff821115612163576121626120cd565b5b61216c826120bc565b9050602081019050919050565b82818337600083830152505050565b600061219b61219684612148565b61212d565b9050828152602081018484840111156121b7576121b66120b7565b5b6121c2848285612179565b509392505050565b600082601f8301126121df576121de6120b2565b5b81356121ef848260208601612188565b91505092915050565b600073ffffffffffffffffffffffffffffffffffffffff82169050919050565b6000612223826121f8565b9050919050565b61223381612218565b811461223e57600080fd5b50565b6000813590506122508161222a565b92915050565b600080600080608085870312156122705761226f612072565b5b600061227e8782880161209d565b945050602085013567ffffffffffffffff81111561229f5761229e612077565b5b6122ab878288016121ca565b93505060406122bc87828801612241565b92505060606122cd87828801612241565b91505092959194509250565b600080604083850312156122f0576122ef612072565b5b60006122fe8582860161209d565b925050602061230f8582860161209d565b9150509250929050565b600080fd5b600080fd5b60008115159050919050565b61233881612323565b811461234357600080fd5b50565b6000813590506123558161232f565b92915050565b60006101c0828403121561237257612371612319565b5b61237d6101c061212d565b9050600061238d8482850161209d565b60008301525060206123a18482850161209d565b60208301525060406123b58482850161209d565b60408301525060606123c98482850161209d565b60608301525060806123dd8482850161209d565b60808301525060a06123f18482850161209d565b60a08301525060c06124058482850161209d565b60c08301525060e06124198482850161209d565b60e08301525061010061242e8482850161209d565b610100830152506101206124448482850161209d565b6101208301525061014061245a8482850161209d565b6101408301525061016082013567ffffffffffffffff8111156124805761247f61231e565b5b61248c848285016121ca565b610160830152506101806124a284828501612346565b610180830152506101a06124b884828501612241565b6101a08301525092915050565b6000602082840312156124db576124da612072565b5b600082013567ffffffffffffffff8111156124f9576124f8612077565b5b6125058482850161235b565b91505092915050565b60006020828403121561252457612523612072565b5b60006125328482850161209d565b91505092915050565b6125448161207c565b82525050565b61255381612323565b82525050565b600060808201905061256e600083018761253b565b61257b602083018661253b565b612588604083018561253b565b612595606083018461254a565b95945050505050565b6000604082840312156125b4576125b3612319565b5b6125be604061212d565b905060006125ce84828501612241565b60008301525060206125e28482850161209d565b60208301525092915050565b60006040828403121561260457612603612072565b5b60006126128482850161259e565b91505092915050565b6126248161207c565b82525050565b600081519050919050565b600082825260208201905092915050565b60005b83811015612664578082015181840152602081019050612649565b60008484015250505050565b600061267b8261262a565b6126858185612635565b9350612695818560208601612646565b61269e816120bc565b840191505092915050565b6126b281612218565b82525050565b60006080830160008301516126d0600086018261261b565b50602083015184820360208601526126e88282612670565b91505060408301516126fd60408601826126a9565b50606083015161271060608601826126a9565b508091505092915050565b6000602082019050818103600083015261273581846126b8565b905092915050565b60008060006060848603121561275657612755612072565b5b60006127648682870161209d565b935050602084013567ffffffffffffffff81111561278557612784612077565b5b612791868287016121ca565b92505060406127a286828701612241565b9150509250925092565b6000806000606084860312156127c5576127c4612072565b5b600084013567ffffffffffffffff8111156127e3576127e2612077565b5b6127ef868287016121ca565b935050602061280086828701612241565b92505060406128118682870161209d565b9150509250925092565b61282481612323565b82525050565b60006101c083016000830151612843600086018261261b565b506020830151612856602086018261261b565b506040830151612869604086018261261b565b50606083015161287c606086018261261b565b50608083015161288f608086018261261b565b5060a08301516128a260a086018261261b565b5060c08301516128b560c086018261261b565b5060e08301516128c860e086018261261b565b506101008301516128dd61010086018261261b565b506101208301516128f261012086018261261b565b5061014083015161290761014086018261261b565b506101608301518482036101608601526129218282612670565b91505061018083015161293861018086018261281b565b506101a083015161294d6101a08601826126a9565b508091505092915050565b60006020820190508181036000830152612972818461282a565b905092915050565b600082825260208201905092915050565b60006129968261262a565b6129a0818561297a565b93506129b0818560208601612646565b6129b9816120bc565b840191505092915050565b6129cd81612218565b82525050565b6000819050919050565b6000819050919050565b6000612a026129fd6129f8846129d3565b6129dd565b61207c565b9050919050565b612a12816129e7565b82525050565b6000819050919050565b600067ffffffffffffffff82169050919050565b6000612a51612a4c612a4784612a18565b6129dd565b612a22565b9050919050565b612a6181612a36565b82525050565b600081519050919050565b600082825260208201905092915050565b6000612a8e82612a67565b612a988185612a72565b9350612aa8818560208601612646565b612ab1816120bc565b840191505092915050565b600060a0820190508181036000830152612ad6818861298b565b9050612ae560208301876129c4565b612af26040830186612a09565b612aff6060830185612a58565b8181036080830152612b118184612a83565b90509695505050505050565b604082016000820151612b3360008501826126a9565b506020820151612b46602085018261261b565b50505050565b6000604082019050612b616000830184612b1d565b92915050565b7f4e487b7100000000000000000000000000000000000000000000000000000000600052602260045260246000fd5b60006002820490506001821680612bae57607f821691505b602082108103612bc157612bc0612b67565b5b50919050565b60008190508160005260206000209050919050565b60006020601f8301049050919050565b600082821b905092915050565b600060088302612c297fffffffffffffffffffffffffffffffffffffffffffffffffffffffffffffffff82612bec565b612c338683612bec565b95508019841693508086168417925050509392505050565b6000612c66612c61612c5c8461207c565b6129dd565b61207c565b9050919050565b6000819050919050565b612c8083612c4b565b612c94612c8c82612c6d565b848454612bf9565b825550505050565b600090565b612ca9612c9c565b612cb4818484612c77565b505050565b5b81811015612cd857612ccd600082612ca1565b600181019050612cba565b5050565b601f821115612d1d57612cee81612bc7565b612cf784612bdc565b81016020851015612d06578190505b612d1a612d1285612bdc565b830182612cb9565b50505b505050565b600082821c905092915050565b6000612d4060001984600802612d22565b1980831691505092915050565b6000612d598383612d2f565b9150826002028217905092915050565b612d728261262a565b67ffffffffffffffff811115612d8b57612d8a6120cd565b5b612d958254612b96565b612da0828285612cdc565b600060209050601f831160018114612dd35760008415612dc1578287015190505b612dcb8582612d4d565b865550612e33565b601f198416612de186612bc7565b60005b82811015612e0957848901518255600182019150602085019450602081019050612de4565b86831015612e265784890151612e22601f891682612d2f565b8355505b6001600288020188555050505b505050505050565b7f796f7520617265206e6f742069646c6500000000000000000000000000000000600082015250565b6000612e7160108361297a565b9150612e7c82612e3b565b602082019050919050565b60006020820190508181036000830152612ea081612e64565b9050919050565b7f796f7520617265206e6f7420746865206f776e65720000000000000000000000600082015250565b6000612edd60158361297a565b9150612ee882612ea7565b602082019050919050565b60006020820190508181036000830152612f0c81612ed0565b9050919050565b600081549050612f2281612b96565b9050919050565b60008190508160005260206000209050919050565b818103612f4c575050613024565b612f5582612f13565b67ffffffffffffffff811115612f6e57612f6d6120cd565b5b612f788254612b96565b612f83828285612cdc565b6000601f831160018114612fb25760008415612fa0578287015490505b612faa8582612d4d565b86555061301d565b601f198416612fc087612f29565b9650612fcb86612bc7565b60005b82811015612ff357848901548255600182019150600185019450602081019050612fce565b86831015613010578489015461300c601f891682612d2f565b8355505b6001600288020188555050505b5050505050505b565b7f4e487b7100000000000000000000000000000000000000000000000000000000600052601160045260246000fd5b60006130608261207c565b915061306b8361207c565b925082820190508082111561308357613082613026565b5b92915050565b60006130948261207c565b915061309f8361207c565b92508282039050818111156130b7576130b6613026565b5b92915050565b60006130c88261207c565b91507fffffffffffffffffffffffffffffffffffffffffffffffffffffffffffffffff82036130fa576130f9613026565b5b600182019050919050565b600081905092915050565b600061311b8261262a565b6131258185613105565b9350613135818560208601612646565b80840191505092915050565b7f2d00000000000000000000000000000000000000000000000000000000000000600082015250565b6000613177600183613105565b915061318282613141565b600182019050919050565b60006131998285613110565b91506131a48261316a565b91506131b08284613110565b91508190509392505050565b7f4552433732313a207472616e7366657220746f206e6f6e20455243373231526560008201527f63656976657220696d706c656d656e7465720000000000000000000000000000602082015250565b600061321860328361297a565b9150613223826131bc565b604082019050919050565b600060208201905081810360008301526132478161320b565b9050919050565b7f4e487b7100000000000000000000000000000000000000000000000000000000600052601260045260246000fd5b7f4552433732313a206d696e7420746f20746865207a65726f2061646472657373600082015250565b60006132b360208361297a565b91506132be8261327d565b602082019050919050565b600060208201905081810360008301526132e2816132a6565b9050919050565b7f4552433732313a20746f6b656e20616c7265616479206d696e74656400000000600082015250565b600061331f601c8361297a565b915061332a826132e9565b602082019050919050565b6000602082019050818103600083015261334e81613312565b9050919050565b600060808201905061336a60008301876129c4565b61337760208301866129c4565b613384604083018561253b565b81810360608301526133968184612a83565b905095945050505050565b60007fffffffff0000000000000000000000000000000000000000000000000000000082169050919050565b6133d6816133a1565b81146133e157600080fd5b50565b6000815190506133f3816133cd565b92915050565b60006020828403121561340f5761340e612072565b5b600061341d848285016133e4565b9150509291505056fe68747470733a2f2f697066732e696f2f697066732f516d556257785564387358344d5a6f6a4b455255506d507539597441596659726f425334546531484a454b75637968747470733a2f2f697066732e696f2f697066732f516d625641427439734b704e55613844674d4a64653344424351796f72534354395631447a6436634a385a556d5068747470733a2f2f697066732e696f2f697066732f516d66424e4870787077554e67747736695842784b584c6256786f6d386d7064427367715a5a79353970524d354368747470733a2f2f697066732e696f2f697066732f516d5158655965397278526b6b716645423744725a52534732533179724e676a363456386d3676374b65747a516468747470733a2f2f697066732e696f2f697066732f516d55715a4b5275646e616e673147586244326e4848776d4a664e4e42465156646d6f483857416e65616969356868747470733a2f2f697066732e696f2f697066732f516d56357053734d47474d4c5733593979513871534c534d4451616b646e6a686a53346b356865366d4a79506548a2646970667358221220b6e63cdb8d6f3e97368d01749e59b244c83fe2317331ea81c29a6563c6993fb164736f6c63430008120033",
  "linkReferences": {},
  "deployedLinkReferences": {}
}