{
  "_format": "hh-sol-artifact-1",
  "contractName": "BridgeFacet",
  "sourceName": "contracts/facets/BridgeFacet.sol",
  "abi": [
    {
      "anonymous": false,
      "inputs": [
        {
          "indexed": true,
          "internalType": "address",
          "name": "owner",
          "type": "address"
        },
        {
          "indexed": true,
          "internalType": "address",
          "name": "approved",
          "type": "address"
        },
        {
          "indexed": true,
          "internalType": "uint256",
          "name": "tokenId",
          "type": "uint256"
        }
      ],
      "name": "Approval",
      "type": "event"
    },
    {
      "anonymous": false,
      "inputs": [
        {
          "indexed": true,
          "internalType": "address",
          "name": "owner",
          "type": "address"
        },
        {
          "indexed": true,
          "internalType": "address",
          "name": "operator",
          "type": "address"
        },
        {
          "indexed": false,
          "internalType": "bool",
          "name": "approved",
          "type": "bool"
        }
      ],
      "name": "ApprovalForAll",
      "type": "event"
    },
    {
      "anonymous": false,
      "inputs": [
        {
          "indexed": true,
          "internalType": "uint256",
          "name": "_chainId",
          "type": "uint256"
        },
        {
          "indexed": true,
          "internalType": "address",
          "name": "_portal",
          "type": "address"
        },
        {
          "indexed": true,
          "internalType": "address",
          "name": "_diamond",
          "type": "address"
        }
      ],
      "name": "BridgeCreated",
      "type": "event"
    },
    {
      "anonymous": false,
      "inputs": [
        {
          "indexed": true,
          "internalType": "uint256",
          "name": "_playerId",
          "type": "uint256"
        },
        {
          "components": [
            {
              "internalType": "uint256",
              "name": "class",
              "type": "uint256"
            },
            {
              "internalType": "uint256",
              "name": "level",
              "type": "uint256"
            },
            {
              "internalType": "uint256",
              "name": "xp",
              "type": "uint256"
            },
            {
              "internalType": "uint256",
              "name": "strength",
              "type": "uint256"
            },
            {
              "internalType": "uint256",
              "name": "health",
              "type": "uint256"
            },
            {
              "internalType": "uint256",
              "name": "magic",
              "type": "uint256"
            },
            {
              "internalType": "uint256",
              "name": "maxMana",
              "type": "uint256"
            },
            {
              "internalType": "uint256",
              "name": "agility",
              "type": "uint256"
            },
            {
              "internalType": "uint256",
              "name": "defense",
              "type": "uint256"
            },
            {
              "internalType": "uint256",
              "name": "baseChain",
              "type": "uint256"
            },
            {
              "internalType": "uint256",
              "name": "baseId",
              "type": "uint256"
            },
            {
              "internalType": "string",
              "name": "name",
              "type": "string"
            },
            {
              "internalType": "bool",
              "name": "isMale",
              "type": "bool"
            },
            {
              "internalType": "address",
              "name": "sender",
              "type": "address"
            }
          ],
          "indexed": false,
          "internalType": "struct BridgeFormat",
          "name": "_format",
          "type": "tuple"
        }
      ],
      "name": "BridgePlayer",
      "type": "event"
    },
    {
      "anonymous": false,
      "inputs": [
        {
          "indexed": true,
          "internalType": "uint256",
          "name": "_playerId",
          "type": "uint256"
        },
        {
          "components": [
            {
              "internalType": "uint256",
              "name": "class",
              "type": "uint256"
            },
            {
              "internalType": "uint256",
              "name": "level",
              "type": "uint256"
            },
            {
              "internalType": "uint256",
              "name": "xp",
              "type": "uint256"
            },
            {
              "internalType": "uint256",
              "name": "strength",
              "type": "uint256"
            },
            {
              "internalType": "uint256",
              "name": "health",
              "type": "uint256"
            },
            {
              "internalType": "uint256",
              "name": "magic",
              "type": "uint256"
            },
            {
              "internalType": "uint256",
              "name": "maxMana",
              "type": "uint256"
            },
            {
              "internalType": "uint256",
              "name": "agility",
              "type": "uint256"
            },
            {
              "internalType": "uint256",
              "name": "defense",
              "type": "uint256"
            },
            {
              "internalType": "uint256",
              "name": "baseChain",
              "type": "uint256"
            },
            {
              "internalType": "uint256",
              "name": "baseId",
              "type": "uint256"
            },
            {
              "internalType": "string",
              "name": "name",
              "type": "string"
            },
            {
              "internalType": "bool",
              "name": "isMale",
              "type": "bool"
            },
            {
              "internalType": "address",
              "name": "sender",
              "type": "address"
            }
          ],
          "indexed": false,
          "internalType": "struct BridgeFormat",
          "name": "_format",
          "type": "tuple"
        }
      ],
      "name": "ReMintPlayer",
      "type": "event"
    },
    {
      "anonymous": false,
      "inputs": [
        {
          "indexed": true,
          "internalType": "address",
          "name": "_sender",
          "type": "address"
        },
        {
          "indexed": true,
          "internalType": "uint256",
          "name": "_amount",
          "type": "uint256"
        }
      ],
      "name": "ReceiveGold",
      "type": "event"
    },
    {
      "anonymous": false,
      "inputs": [
        {
          "indexed": true,
          "internalType": "address",
          "name": "_sender",
          "type": "address"
        },
        {
          "indexed": true,
          "internalType": "uint256",
          "name": "_amount",
          "type": "uint256"
        }
      ],
      "name": "SendGold",
      "type": "event"
    },
    {
      "anonymous": false,
      "inputs": [
        {
          "indexed": true,
          "internalType": "address",
          "name": "from",
          "type": "address"
        },
        {
          "indexed": true,
          "internalType": "address",
          "name": "to",
          "type": "address"
        },
        {
          "indexed": true,
          "internalType": "uint256",
          "name": "tokenId",
          "type": "uint256"
        }
      ],
      "name": "Transfer",
      "type": "event"
    },
    {
      "inputs": [
        {
          "internalType": "string",
          "name": "_chain",
          "type": "string"
        },
        {
          "internalType": "address",
          "name": "_contract",
          "type": "address"
        },
        {
          "internalType": "uint256",
          "name": "_amount",
          "type": "uint256"
        }
      ],
      "name": "bridgeGold",
      "outputs": [],
      "stateMutability": "nonpayable",
      "type": "function"
    },
    {
      "inputs": [
        {
          "internalType": "uint256",
          "name": "_playerId",
          "type": "uint256"
        },
        {
          "internalType": "uint256",
          "name": "_chainId",
          "type": "uint256"
        }
      ],
      "name": "bridgePlayer",
      "outputs": [],
      "stateMutability": "nonpayable",
      "type": "function"
    },
    {
      "inputs": [
        {
          "internalType": "uint256",
          "name": "_playerId",
          "type": "uint256"
        },
        {
          "internalType": "string",
          "name": "_chain",
          "type": "string"
        },
        {
          "internalType": "address",
          "name": "_contract",
          "type": "address"
        }
      ],
      "name": "bridgePlayerTest",
      "outputs": [],
      "stateMutability": "nonpayable",
      "type": "function"
    },
    {
      "inputs": [
        {
          "internalType": "uint256",
          "name": "_chainId",
          "type": "uint256"
        },
        {
          "internalType": "string",
          "name": "_name",
          "type": "string"
        },
        {
          "internalType": "address",
          "name": "_portal",
          "type": "address"
        },
        {
          "internalType": "address",
          "name": "_diamond",
          "type": "address"
        }
      ],
      "name": "createBridge",
      "outputs": [],
      "stateMutability": "nonpayable",
      "type": "function"
    },
    {
      "inputs": [
        {
          "internalType": "uint256",
          "name": "_chainId",
          "type": "uint256"
        }
      ],
      "name": "getChainData",
      "outputs": [
        {
          "components": [
            {
              "internalType": "uint256",
              "name": "chainId",
              "type": "uint256"
            },
            {
              "internalType": "string",
              "name": "name",
              "type": "string"
            },
            {
              "internalType": "address",
              "name": "portal",
              "type": "address"
            },
            {
              "internalType": "address",
              "name": "diamond",
              "type": "address"
            }
          ],
          "internalType": "struct ChainData",
          "name": "",
          "type": "tuple"
        }
      ],
      "stateMutability": "view",
      "type": "function"
    },
    {
      "inputs": [
        {
          "components": [
            {
              "internalType": "uint256",
              "name": "class",
              "type": "uint256"
            },
            {
              "internalType": "uint256",
              "name": "level",
              "type": "uint256"
            },
            {
              "internalType": "uint256",
              "name": "xp",
              "type": "uint256"
            },
            {
              "internalType": "uint256",
              "name": "strength",
              "type": "uint256"
            },
            {
              "internalType": "uint256",
              "name": "health",
              "type": "uint256"
            },
            {
              "internalType": "uint256",
              "name": "magic",
              "type": "uint256"
            },
            {
              "internalType": "uint256",
              "name": "maxMana",
              "type": "uint256"
            },
            {
              "internalType": "uint256",
              "name": "agility",
              "type": "uint256"
            },
            {
              "internalType": "uint256",
              "name": "defense",
              "type": "uint256"
            },
            {
              "internalType": "uint256",
              "name": "baseChain",
              "type": "uint256"
            },
            {
              "internalType": "uint256",
              "name": "baseId",
              "type": "uint256"
            },
            {
              "internalType": "string",
              "name": "name",
              "type": "string"
            },
            {
              "internalType": "bool",
              "name": "isMale",
              "type": "bool"
            },
            {
              "internalType": "address",
              "name": "sender",
              "type": "address"
            }
          ],
          "internalType": "struct BridgeFormat",
          "name": "_format",
          "type": "tuple"
        }
      ],
      "name": "reMintPlayer",
      "outputs": [],
      "stateMutability": "nonpayable",
      "type": "function"
    },
    {
      "inputs": [
        {
          "components": [
            {
              "internalType": "address",
              "name": "sender",
              "type": "address"
            },
            {
              "internalType": "uint256",
              "name": "amount",
              "type": "uint256"
            }
          ],
          "internalType": "struct BridgegeCoinFormat",
          "name": "_format",
          "type": "tuple"
        }
      ],
      "name": "receiveGold",
      "outputs": [],
      "stateMutability": "nonpayable",
      "type": "function"
    }
  ],
  "bytecode": "0x608060405234801561001057600080fd5b50613560806100206000396000f3fe608060405234801561001057600080fd5b506004361061007d5760003560e01c806390601da31161005b57806390601da3146100d6578063aeb45f01146100f2578063c3e4f9c214610122578063feea35c91461013e5761007d565b806303f256ec14610082578063537ce6151461009e57806354250a13146100ba575b600080fd5b61009c6004803603810190610097919061221c565b61015a565b005b6100b860048036038101906100b3919061229f565b6101c7565b005b6100d460048036038101906100cf919061248b565b610335565b005b6100f060048036038101906100eb9190612524565b6103af565b005b61010c60048036038101906101079190612551565b610410565b604051610119919061267e565b60405180910390f35b61013c600480360381019061013791906126a0565b610428565b005b6101586004803603810190610153919061270f565b610591565b005b61016684848484610732565b8073ffffffffffffffffffffffffffffffffffffffff168273ffffffffffffffffffffffffffffffffffffffff16857f924c77d15e16cd31a7b4457de58065af652bd3178fe5f5f2ff801196f030fe7860405160405180910390a450505050565b60006101d282610410565b905060008160400151905060006101e885610858565b90508173ffffffffffffffffffffffffffffffffffffffff1663381aa2cf846020015185606001516000620186a08660405160240161022791906128bb565b6040516020818303038152906040527f54250a13000000000000000000000000000000000000000000000000000000007bffffffffffffffffffffffffffffffffffffffffffffffffffffffff19166020820180517bffffffffffffffffffffffffffffffffffffffffffffffffffffffff83818316178352505050506040518663ffffffff1660e01b81526004016102c4959493929190612a1f565b600060405180830381600087803b1580156102de57600080fd5b505af11580156102f2573d6000803e3d6000fd5b50505050847f602103799a7c20f1b0af9606ecee1173039b639af978bf3755ef5db1a5209a6f8260405161032691906128bb565b60405180910390a25050505050565b61033e81610c33565b6000610348610e14565b905061035e826101200151836101400151610e2c565b156103ab57807f038153a05f584c8a013d995510cb2a343c79259d90c1104781032846799cedbf8360405161039391906128bb565b60405180910390a26103aa826101a0015182610e7f565b5b5050565b6103c181600001518260200151610e9d565b8060200151816000015173ffffffffffffffffffffffffffffffffffffffff167f2974932ea8347b7507a8cb3888088a5db0692804c1592c993279b17e7fa7d7f260405160405180910390a350565b610418611f53565b61042182610f06565b9050919050565b600073c0400275f85b45dfd2cfc838da8ee4214b659e259050600061044c85610858565b90508173ffffffffffffffffffffffffffffffffffffffff1663381aa2cf85856000620186a08660405160240161048391906128bb565b6040516020818303038152906040527f54250a13000000000000000000000000000000000000000000000000000000007bffffffffffffffffffffffffffffffffffffffffffffffffffffffff19166020820180517bffffffffffffffffffffffffffffffffffffffffffffffffffffffff83818316178352505050506040518663ffffffff1660e01b8152600401610520959493929190612a1f565b600060405180830381600087803b15801561053a57600080fd5b505af115801561054e573d6000803e3d6000fd5b50505050847f602103799a7c20f1b0af9606ecee1173039b639af978bf3755ef5db1a5209a6f8260405161058291906128bb565b60405180910390a25050505050565b600073c0400275f85b45dfd2cfc838da8ee4214b659e259050600060405180604001604052803373ffffffffffffffffffffffffffffffffffffffff1681526020018481525090508173ffffffffffffffffffffffffffffffffffffffff1663381aa2cf86866000620186a08660405160240161060e9190612aaf565b6040516020818303038152906040527f2e266020000000000000000000000000000000000000000000000000000000007bffffffffffffffffffffffffffffffffffffffffffffffffffffffff19166020820180517bffffffffffffffffffffffffffffffffffffffffffffffffffffffff83818316178352505050506040518663ffffffff1660e01b81526004016106ab959493929190612a1f565b600060405180830381600087803b1580156106c557600080fd5b505af11580156106d9573d6000803e3d6000fd5b505050506106e7338461108a565b823373ffffffffffffffffffffffffffffffffffffffff167f639a1c2428edca612d7aa6a0f09df35033766e9b8578f6db38659900e23abf7260405160405180910390a35050505050565b600061073c611141565b905060405180608001604052808681526020018581526020018473ffffffffffffffffffffffffffffffffffffffff1681526020018373ffffffffffffffffffffffffffffffffffffffff168152508160000160008781526020019081526020016000206000820151816000015560208201518160010190816107bf9190612ccc565b5060408201518160020160006101000a81548173ffffffffffffffffffffffffffffffffffffffff021916908373ffffffffffffffffffffffffffffffffffffffff16021790555060608201518160030160006101000a81548173ffffffffffffffffffffffffffffffffffffffff021916908373ffffffffffffffffffffffffffffffffffffffff1602179055509050505050505050565b610860611fa7565b600061086a61116e565b90506000610876611141565b9050600082600301600086815260200190815260200160002060020154146108d3576040517f08c379a00000000000000000000000000000000000000000000000000000000081526004016108ca90612dea565b60405180910390fd5b3373ffffffffffffffffffffffffffffffffffffffff1682600201600086815260200190815260200160002060009054906101000a900473ffffffffffffffffffffffffffffffffffffffff1673ffffffffffffffffffffffffffffffffffffffff1614610976576040517f08c379a000000000000000000000000000000000000000000000000000000000815260040161096d90612e56565b60405180910390fd5b6064826003016000868152602001908152602001600020600201819055506000826003016000868152602001908152602001600020905060008083600301600088815260200190815260200160002060009054906101000a900460ff16610a8657469150869050600184600301600089815260200190815260200160002060006101000a81548160ff02191690831515021790555086846001016000848152602001908152602001600020600089815260200190815260200160002081905550846003016000888152602001908152602001600020600f0184600201600084815260200190815260200160002060008981526020019081526020016000209081610a809190612ea1565b50610ac8565b83600401600088815260200190815260200160002054915083600101600083815260200190815260200160002060008881526020019081526020016000205490505b6000604051806101c00160405280856019015481526020018560000154815260200185600101548152602001856003015481526020018560040154815260200185600601548152602001856008015481526020018560090154815260200185600e0154815260200184815260200183815260200186600201600086815260200190815260200160002060008b81526020019081526020016000208054610b6d90612af9565b80601f0160208091040260200160405190810160405280929190818152602001828054610b9990612af9565b8015610be65780601f10610bbb57610100808354040283529160200191610be6565b820191906000526020600020905b815481529060010190602001808311610bc957829003601f168201915b505050505081526020018560110160009054906101000a900460ff16151581526020013373ffffffffffffffffffffffffffffffffffffffff168152509050809650505050505050919050565b6000610c3d61116e565b90506000610c49611141565b9050600080826001016000866101200151815260200190815260200160002060008661014001518152602001908152602001600020541115610e04578160010160008561012001518152602001908152602001600020600085610140015181526020019081526020016000205490506000836003016000838152602001908152602001600020600201819055508360200151836003016000838152602001908152602001600020600001819055508360400151836003016000838152602001908152602001600020600101819055508360600151836003016000838152602001908152602001600020600301819055508360800151836003016000838152602001908152602001600020600401819055508360800151836003016000838152602001908152602001600020600501819055508360a00151836003016000838152602001908152602001600020600601819055508360c00151836003016000838152602001908152602001600020600801819055508360c00151836003016000838152602001908152602001600020600701819055508360e0015183600301600083815260200190815260200160002060090181905550610e0e565b610e0d8461119b565b5b50505050565b600080610e1f61116e565b9050806001015491505090565b600080610e37611141565b9050600081600101600086815260200190815260200160002060008581526020019081526020016000205411610e71576001915081610e77565b60009150815b505092915050565b610e99828260405180602001604052806000815250611809565b5050565b6000610ea7611864565b9050818160000160008573ffffffffffffffffffffffffffffffffffffffff1673ffffffffffffffffffffffffffffffffffffffff1681526020019081526020016000206000828254610efa9190612fb8565b92505081905550505050565b610f0e611f53565b6000610f18611141565b905080600001600084815260200190815260200160002060405180608001604052908160008201548152602001600182018054610f5490612af9565b80601f0160208091040260200160405190810160405280929190818152602001828054610f8090612af9565b8015610fcd5780601f10610fa257610100808354040283529160200191610fcd565b820191906000526020600020905b815481529060010190602001808311610fb057829003601f168201915b505050505081526020016002820160009054906101000a900473ffffffffffffffffffffffffffffffffffffffff1673ffffffffffffffffffffffffffffffffffffffff1673ffffffffffffffffffffffffffffffffffffffff1681526020016003820160009054906101000a900473ffffffffffffffffffffffffffffffffffffffff1673ffffffffffffffffffffffffffffffffffffffff1673ffffffffffffffffffffffffffffffffffffffff1681525050915050919050565b6000611094611864565b9050818160000160008573ffffffffffffffffffffffffffffffffffffffff1673ffffffffffffffffffffffffffffffffffffffff1681526020019081526020016000205410156110e457600080fd5b818160000160008573ffffffffffffffffffffffffffffffffffffffff1673ffffffffffffffffffffffffffffffffffffffff16815260200190815260200160002060008282546111359190612fec565b92505081905550505050565b6000807f4cde922899fdacbde63ed2c277d08801981412358b79d054d98add0ca65dea1990508091505090565b6000807f3cab9a070a0c61cd0ae9d9e9e2c0781e5ca8691bec4087e5a4701d5ac018dd4e90508091505090565b60006111a561116e565b905060006111b1611141565b90508160010160008154809291906111c890613020565b919050555081600101548160010160008561012001518152602001908152602001600020600085610140015181526020019081526020016000208190555082610160015181600201600085610120015181526020019081526020016000206000856101400151815260200190815260200160002090816112489190612ccc565b5060018160030160008460010154815260200190815260200160002060006101000a81548160ff021916908315150217905550826101200151816004016000846001015481526020019081526020016000208190555060008361016001516112b38460010154611891565b6040516020016112c49291906130f0565b6040516020818303038152906040529050606060008560000151036113315784610180015161130e5760405180608001604052806043815260200161341f6043913990508061132b565b6040518060800160405280604381526020016134e8604391399050805b506113e3565b600185600001510361138b57846101800151611368576040518060800160405280604381526020016134a560439139905080611385565b604051806080016040528060438152602001613462604391399050805b506113e2565b60028560000151036113e1578461018001516113c2576040518060800160405280604381526020016133dc604391399050806113df565b604051806080016040528060438152602001613399604391399050805b505b5b5b6040518061028001604052808660200151815260200186604001518152602001600081526020018660600151815260200186608001518152602001866080015181526020018660a0015181526020018660c0015181526020018660c0015181526020018660e001518152602001600181526020016001815260200160018152602001600181526020018661010001518152602001838152602001828152602001866101800151151581526020016040518060e0016040528060008152602001600081526020016000815260200160008152602001600081526020016000815260200160008152508152602001866000015181525084600301600086600101548152602001908152602001600020600082015181600001556020820151816001015560408201518160020155606082015181600301556080820151816004015560a0820151816005015560c0820151816006015560e082015181600701556101008201518160080155610120820151816009015561014082015181600a015561016082015181600b015561018082015181600c01556101a082015181600d01556101c082015181600e01556101e082015181600f0190816115a39190612ccc565b506102008201518160100190816115ba9190612ccc565b506102208201518160110160006101000a81548160ff02191690831515021790555061024082015181601201600082015181600001556020820151816001015560408201518160020155606082015181600301556080820151816004015560a0820151816005015560c08201518160060155505061026082015181601901559050506040518060e00160405280600081526020016000815260200160008152602001600081526020016000815260200160008152602001600081525084600801600086600101548152602001908152602001600020600082015181600001556020820151816001015560408201518160020155606082015181600301556080820151816004015560a0820151816005015560c08201518160060155905050846101a001518460020160008660010154815260200190815260200160002060006101000a81548173ffffffffffffffffffffffffffffffffffffffff021916908373ffffffffffffffffffffffffffffffffffffffff160217905550836007016000866101a0015173ffffffffffffffffffffffffffffffffffffffff1673ffffffffffffffffffffffffffffffffffffffff16815260200190815260200160002084600101549080600181540180825580915050600190039060005260206000200160009091909190915055836004016000866101a0015173ffffffffffffffffffffffffffffffffffffffff1673ffffffffffffffffffffffffffffffffffffffff16815260200190815260200160002060008154809291906117fd90613020565b91905055505050505050565b611813838361195f565b6118206000848484611b8e565b61185f576040517f08c379a000000000000000000000000000000000000000000000000000000000815260040161185690613191565b60405180910390fd5b505050565b6000807f2c89d74504b6ad8d4fbde22bc3474166bac5452a11195897f239d8bebe02d70790508091505090565b6060600060016118a084611d15565b01905060008167ffffffffffffffff8111156118bf576118be612093565b5b6040519080825280601f01601f1916602001820160405280156118f15781602001600182028036833780820191505090505b509050600082602001820190505b600115611954578080600190039150507f3031323334353637383961626364656600000000000000000000000000000000600a86061a8153600a8581611948576119476131b1565b5b049450600085036118ff575b819350505050919050565b600073ffffffffffffffffffffffffffffffffffffffff168273ffffffffffffffffffffffffffffffffffffffff16036119ce576040517f08c379a00000000000000000000000000000000000000000000000000000000081526004016119c59061322c565b60405180910390fd5b6119d781611e68565b15611a17576040517f08c379a0000000000000000000000000000000000000000000000000000000008152600401611a0e90613298565b60405180910390fd5b611a25600083836001611ea9565b611a2e81611e68565b15611a6e576040517f08c379a0000000000000000000000000000000000000000000000000000000008152600401611a6590613298565b60405180910390fd5b6001611a78611eaf565b600a0160008473ffffffffffffffffffffffffffffffffffffffff1673ffffffffffffffffffffffffffffffffffffffff1681526020019081526020016000206000828254019250508190555081611ace611eaf565b600901600083815260200190815260200160002060006101000a81548173ffffffffffffffffffffffffffffffffffffffff021916908373ffffffffffffffffffffffffffffffffffffffff160217905550808273ffffffffffffffffffffffffffffffffffffffff16600073ffffffffffffffffffffffffffffffffffffffff167fddf252ad1be2c89b69c2b068fc378daa952ba7f163c4a11628f55a4df523b3ef60405160405180910390a4611b8a600083836001611edc565b5050565b6000611baf8473ffffffffffffffffffffffffffffffffffffffff16611ee2565b15611d08578373ffffffffffffffffffffffffffffffffffffffff1663150b7a02611bd8611f05565b8786866040518563ffffffff1660e01b8152600401611bfa94939291906132c7565b6020604051808303816000875af1925050508015611c3657506040513d601f19601f82011682018060405250810190611c33919061336b565b60015b611cb8573d8060008114611c66576040519150601f19603f3d011682016040523d82523d6000602084013e611c6b565b606091505b506000815103611cb0576040517f08c379a0000000000000000000000000000000000000000000000000000000008152600401611ca790613191565b60405180910390fd5b805181602001fd5b63150b7a0260e01b7bffffffffffffffffffffffffffffffffffffffffffffffffffffffff1916817bffffffffffffffffffffffffffffffffffffffffffffffffffffffff191614915050611d0d565b600190505b949350505050565b600080600090507a184f03e93ff9f4daa797ed6e38ed64bf6a1f0100000000000000008310611d73577a184f03e93ff9f4daa797ed6e38ed64bf6a1f0100000000000000008381611d6957611d686131b1565b5b0492506040810190505b6d04ee2d6d415b85acef81000000008310611db0576d04ee2d6d415b85acef81000000008381611da657611da56131b1565b5b0492506020810190505b662386f26fc100008310611ddf57662386f26fc100008381611dd557611dd46131b1565b5b0492506010810190505b6305f5e1008310611e08576305f5e1008381611dfe57611dfd6131b1565b5b0492506008810190505b6127108310611e2d576127108381611e2357611e226131b1565b5b0492506004810190505b60648310611e505760648381611e4657611e456131b1565b5b0492506002810190505b600a8310611e5f576001810190505b80915050919050565b60008073ffffffffffffffffffffffffffffffffffffffff16611e8a83611f0d565b73ffffffffffffffffffffffffffffffffffffffff1614159050919050565b50505050565b6000807f2569078dfb4b0305704d3008e7403993ae9601b85f7ae5e742de3de8f8011c4090508091505090565b50505050565b6000808273ffffffffffffffffffffffffffffffffffffffff163b119050919050565b600033905090565b6000611f17611eaf565b600901600083815260200190815260200160002060009054906101000a900473ffffffffffffffffffffffffffffffffffffffff169050919050565b60405180608001604052806000815260200160608152602001600073ffffffffffffffffffffffffffffffffffffffff168152602001600073ffffffffffffffffffffffffffffffffffffffff1681525090565b604051806101c00160405280600081526020016000815260200160008152602001600081526020016000815260200160008152602001600081526020016000815260200160008152602001600081526020016000815260200160608152602001600015158152602001600073ffffffffffffffffffffffffffffffffffffffff1681525090565b6000604051905090565b600080fd5b600080fd5b6000819050919050565b61205581612042565b811461206057600080fd5b50565b6000813590506120728161204c565b92915050565b600080fd5b600080fd5b6000601f19601f8301169050919050565b7f4e487b7100000000000000000000000000000000000000000000000000000000600052604160045260246000fd5b6120cb82612082565b810181811067ffffffffffffffff821117156120ea576120e9612093565b5b80604052505050565b60006120fd61202e565b905061210982826120c2565b919050565b600067ffffffffffffffff82111561212957612128612093565b5b61213282612082565b9050602081019050919050565b82818337600083830152505050565b600061216161215c8461210e565b6120f3565b90508281526020810184848401111561217d5761217c61207d565b5b61218884828561213f565b509392505050565b600082601f8301126121a5576121a4612078565b5b81356121b584826020860161214e565b91505092915050565b600073ffffffffffffffffffffffffffffffffffffffff82169050919050565b60006121e9826121be565b9050919050565b6121f9816121de565b811461220457600080fd5b50565b600081359050612216816121f0565b92915050565b6000806000806080858703121561223657612235612038565b5b600061224487828801612063565b945050602085013567ffffffffffffffff8111156122655761226461203d565b5b61227187828801612190565b935050604061228287828801612207565b925050606061229387828801612207565b91505092959194509250565b600080604083850312156122b6576122b5612038565b5b60006122c485828601612063565b92505060206122d585828601612063565b9150509250929050565b600080fd5b600080fd5b60008115159050919050565b6122fe816122e9565b811461230957600080fd5b50565b60008135905061231b816122f5565b92915050565b60006101c08284031215612338576123376122df565b5b6123436101c06120f3565b9050600061235384828501612063565b600083015250602061236784828501612063565b602083015250604061237b84828501612063565b604083015250606061238f84828501612063565b60608301525060806123a384828501612063565b60808301525060a06123b784828501612063565b60a08301525060c06123cb84828501612063565b60c08301525060e06123df84828501612063565b60e0830152506101006123f484828501612063565b6101008301525061012061240a84828501612063565b6101208301525061014061242084828501612063565b6101408301525061016082013567ffffffffffffffff811115612446576124456122e4565b5b61245284828501612190565b610160830152506101806124688482850161230c565b610180830152506101a061247e84828501612207565b6101a08301525092915050565b6000602082840312156124a1576124a0612038565b5b600082013567ffffffffffffffff8111156124bf576124be61203d565b5b6124cb84828501612321565b91505092915050565b6000604082840312156124ea576124e96122df565b5b6124f460406120f3565b9050600061250484828501612207565b600083015250602061251884828501612063565b60208301525092915050565b60006040828403121561253a57612539612038565b5b6000612548848285016124d4565b91505092915050565b60006020828403121561256757612566612038565b5b600061257584828501612063565b91505092915050565b61258781612042565b82525050565b600081519050919050565b600082825260208201905092915050565b60005b838110156125c75780820151818401526020810190506125ac565b60008484015250505050565b60006125de8261258d565b6125e88185612598565b93506125f88185602086016125a9565b61260181612082565b840191505092915050565b612615816121de565b82525050565b6000608083016000830151612633600086018261257e565b506020830151848203602086015261264b82826125d3565b9150506040830151612660604086018261260c565b506060830151612673606086018261260c565b508091505092915050565b60006020820190508181036000830152612698818461261b565b905092915050565b6000806000606084860312156126b9576126b8612038565b5b60006126c786828701612063565b935050602084013567ffffffffffffffff8111156126e8576126e761203d565b5b6126f486828701612190565b925050604061270586828701612207565b9150509250925092565b60008060006060848603121561272857612727612038565b5b600084013567ffffffffffffffff8111156127465761274561203d565b5b61275286828701612190565b935050602061276386828701612207565b925050604061277486828701612063565b9150509250925092565b612787816122e9565b82525050565b60006101c0830160008301516127a6600086018261257e565b5060208301516127b9602086018261257e565b5060408301516127cc604086018261257e565b5060608301516127df606086018261257e565b5060808301516127f2608086018261257e565b5060a083015161280560a086018261257e565b5060c083015161281860c086018261257e565b5060e083015161282b60e086018261257e565b5061010083015161284061010086018261257e565b5061012083015161285561012086018261257e565b5061014083015161286a61014086018261257e565b5061016083015184820361016086015261288482826125d3565b91505061018083015161289b61018086018261277e565b506101a08301516128b06101a086018261260c565b508091505092915050565b600060208201905081810360008301526128d5818461278d565b905092915050565b600082825260208201905092915050565b60006128f98261258d565b61290381856128dd565b93506129138185602086016125a9565b61291c81612082565b840191505092915050565b612930816121de565b82525050565b6000819050919050565b6000819050919050565b600061296561296061295b84612936565b612940565b612042565b9050919050565b6129758161294a565b82525050565b6000819050919050565b600067ffffffffffffffff82169050919050565b60006129b46129af6129aa8461297b565b612940565b612985565b9050919050565b6129c481612999565b82525050565b600081519050919050565b600082825260208201905092915050565b60006129f1826129ca565b6129fb81856129d5565b9350612a0b8185602086016125a9565b612a1481612082565b840191505092915050565b600060a0820190508181036000830152612a3981886128ee565b9050612a486020830187612927565b612a55604083018661296c565b612a6260608301856129bb565b8181036080830152612a7481846129e6565b90509695505050505050565b604082016000820151612a96600085018261260c565b506020820151612aa9602085018261257e565b50505050565b6000604082019050612ac46000830184612a80565b92915050565b7f4e487b7100000000000000000000000000000000000000000000000000000000600052602260045260246000fd5b60006002820490506001821680612b1157607f821691505b602082108103612b2457612b23612aca565b5b50919050565b60008190508160005260206000209050919050565b60006020601f8301049050919050565b600082821b905092915050565b600060088302612b8c7fffffffffffffffffffffffffffffffffffffffffffffffffffffffffffffffff82612b4f565b612b968683612b4f565b95508019841693508086168417925050509392505050565b6000612bc9612bc4612bbf84612042565b612940565b612042565b9050919050565b6000819050919050565b612be383612bae565b612bf7612bef82612bd0565b848454612b5c565b825550505050565b600090565b612c0c612bff565b612c17818484612bda565b505050565b5b81811015612c3b57612c30600082612c04565b600181019050612c1d565b5050565b601f821115612c8057612c5181612b2a565b612c5a84612b3f565b81016020851015612c69578190505b612c7d612c7585612b3f565b830182612c1c565b50505b505050565b600082821c905092915050565b6000612ca360001984600802612c85565b1980831691505092915050565b6000612cbc8383612c92565b9150826002028217905092915050565b612cd58261258d565b67ffffffffffffffff811115612cee57612ced612093565b5b612cf88254612af9565b612d03828285612c3f565b600060209050601f831160018114612d365760008415612d24578287015190505b612d2e8582612cb0565b865550612d96565b601f198416612d4486612b2a565b60005b82811015612d6c57848901518255600182019150602085019450602081019050612d47565b86831015612d895784890151612d85601f891682612c92565b8355505b6001600288020188555050505b505050505050565b7f796f7520617265206e6f742069646c6500000000000000000000000000000000600082015250565b6000612dd46010836128dd565b9150612ddf82612d9e565b602082019050919050565b60006020820190508181036000830152612e0381612dc7565b9050919050565b7f796f7520617265206e6f7420746865206f776e65720000000000000000000000600082015250565b6000612e406015836128dd565b9150612e4b82612e0a565b602082019050919050565b60006020820190508181036000830152612e6f81612e33565b9050919050565b600081549050612e8581612af9565b9050919050565b60008190508160005260206000209050919050565b818103612eaf575050612f87565b612eb882612e76565b67ffffffffffffffff811115612ed157612ed0612093565b5b612edb8254612af9565b612ee6828285612c3f565b6000601f831160018114612f155760008415612f03578287015490505b612f0d8582612cb0565b865550612f80565b601f198416612f2387612e8c565b9650612f2e86612b2a565b60005b82811015612f5657848901548255600182019150600185019450602081019050612f31565b86831015612f735784890154612f6f601f891682612c92565b8355505b6001600288020188555050505b5050505050505b565b7f4e487b7100000000000000000000000000000000000000000000000000000000600052601160045260246000fd5b6000612fc382612042565b9150612fce83612042565b9250828201905080821115612fe657612fe5612f89565b5b92915050565b6000612ff782612042565b915061300283612042565b925082820390508181111561301a57613019612f89565b5b92915050565b600061302b82612042565b91507fffffffffffffffffffffffffffffffffffffffffffffffffffffffffffffffff820361305d5761305c612f89565b5b600182019050919050565b600081905092915050565b600061307e8261258d565b6130888185613068565b93506130988185602086016125a9565b80840191505092915050565b7f2d00000000000000000000000000000000000000000000000000000000000000600082015250565b60006130da600183613068565b91506130e5826130a4565b600182019050919050565b60006130fc8285613073565b9150613107826130cd565b91506131138284613073565b91508190509392505050565b7f4552433732313a207472616e7366657220746f206e6f6e20455243373231526560008201527f63656976657220696d706c656d656e7465720000000000000000000000000000602082015250565b600061317b6032836128dd565b91506131868261311f565b604082019050919050565b600060208201905081810360008301526131aa8161316e565b9050919050565b7f4e487b7100000000000000000000000000000000000000000000000000000000600052601260045260246000fd5b7f4552433732313a206d696e7420746f20746865207a65726f2061646472657373600082015250565b60006132166020836128dd565b9150613221826131e0565b602082019050919050565b6000602082019050818103600083015261324581613209565b9050919050565b7f4552433732313a20746f6b656e20616c7265616479206d696e74656400000000600082015250565b6000613282601c836128dd565b915061328d8261324c565b602082019050919050565b600060208201905081810360008301526132b181613275565b9050919050565b6132c181612042565b82525050565b60006080820190506132dc6000830187612927565b6132e96020830186612927565b6132f660408301856132b8565b818103606083015261330881846129e6565b905095945050505050565b60007fffffffff0000000000000000000000000000000000000000000000000000000082169050919050565b61334881613313565b811461335357600080fd5b50565b6000815190506133658161333f565b92915050565b60006020828403121561338157613380612038565b5b600061338f84828501613356565b9150509291505056fe68747470733a2f2f697066732e696f2f697066732f516d556257785564387358344d5a6f6a4b455255506d507539597441596659726f425334546531484a454b75637968747470733a2f2f697066732e696f2f697066732f516d625641427439734b704e55613844674d4a64653344424351796f72534354395631447a6436634a385a556d5068747470733a2f2f697066732e696f2f697066732f516d66424e4870787077554e67747736695842784b584c6256786f6d386d7064427367715a5a79353970524d354368747470733a2f2f697066732e696f2f697066732f516d5158655965397278526b6b716645423744725a52534732533179724e676a363456386d3676374b65747a516468747470733a2f2f697066732e696f2f697066732f516d55715a4b5275646e616e673147586244326e4848776d4a664e4e42465156646d6f483857416e65616969356868747470733a2f2f697066732e696f2f697066732f516d56357053734d47474d4c5733593979513871534c534d4451616b646e6a686a53346b356865366d4a79506548a2646970667358221220ec0c8ea995fa1606acbf782ef3f12cccc0b8daf3614b462673f99fa90b4c2fe164736f6c63430008120033",
  "linkReferences": {},
  "deployedLinkReferences": {}
}