{
  "_format": "hh-sol-artifact-1",
  "contractName": "BridgeFacet",
  "sourceName": "contracts/facets/BridgeFacet.sol",
  "abi": [
    {
      "anonymous": false,
      "inputs": [
        {
          "indexed": true,
          "internalType": "address",
          "name": "owner",
          "type": "address"
        },
        {
          "indexed": true,
          "internalType": "address",
          "name": "approved",
          "type": "address"
        },
        {
          "indexed": true,
          "internalType": "uint256",
          "name": "tokenId",
          "type": "uint256"
        }
      ],
      "name": "Approval",
      "type": "event"
    },
    {
      "anonymous": false,
      "inputs": [
        {
          "indexed": true,
          "internalType": "address",
          "name": "owner",
          "type": "address"
        },
        {
          "indexed": true,
          "internalType": "address",
          "name": "operator",
          "type": "address"
        },
        {
          "indexed": false,
          "internalType": "bool",
          "name": "approved",
          "type": "bool"
        }
      ],
      "name": "ApprovalForAll",
      "type": "event"
    },
    {
      "anonymous": false,
      "inputs": [
        {
          "indexed": true,
          "internalType": "uint256",
          "name": "_chainId",
          "type": "uint256"
        },
        {
          "indexed": true,
          "internalType": "address",
          "name": "_portal",
          "type": "address"
        },
        {
          "indexed": true,
          "internalType": "address",
          "name": "_diamond",
          "type": "address"
        }
      ],
      "name": "BridgeCreated",
      "type": "event"
    },
    {
      "anonymous": false,
      "inputs": [
        {
          "indexed": true,
          "internalType": "uint256",
          "name": "_playerId",
          "type": "uint256"
        },
        {
          "components": [
            {
              "internalType": "uint256",
              "name": "class",
              "type": "uint256"
            },
            {
              "internalType": "uint256",
              "name": "level",
              "type": "uint256"
            },
            {
              "internalType": "uint256",
              "name": "xp",
              "type": "uint256"
            },
            {
              "internalType": "uint256",
              "name": "strength",
              "type": "uint256"
            },
            {
              "internalType": "uint256",
              "name": "health",
              "type": "uint256"
            },
            {
              "internalType": "uint256",
              "name": "magic",
              "type": "uint256"
            },
            {
              "internalType": "uint256",
              "name": "maxMana",
              "type": "uint256"
            },
            {
              "internalType": "uint256",
              "name": "agility",
              "type": "uint256"
            },
            {
              "internalType": "uint256",
              "name": "defense",
              "type": "uint256"
            },
            {
              "internalType": "uint256",
              "name": "baseChain",
              "type": "uint256"
            },
            {
              "internalType": "uint256",
              "name": "baseId",
              "type": "uint256"
            },
            {
              "internalType": "string",
              "name": "name",
              "type": "string"
            },
            {
              "internalType": "bool",
              "name": "isMale",
              "type": "bool"
            },
            {
              "internalType": "address",
              "name": "sender",
              "type": "address"
            }
          ],
          "indexed": false,
          "internalType": "struct BridgeFormat",
          "name": "_format",
          "type": "tuple"
        }
      ],
      "name": "BridgePlayer",
      "type": "event"
    },
    {
      "anonymous": false,
      "inputs": [
        {
          "indexed": true,
          "internalType": "uint256",
          "name": "_playerId",
          "type": "uint256"
        },
        {
          "components": [
            {
              "internalType": "uint256",
              "name": "class",
              "type": "uint256"
            },
            {
              "internalType": "uint256",
              "name": "level",
              "type": "uint256"
            },
            {
              "internalType": "uint256",
              "name": "xp",
              "type": "uint256"
            },
            {
              "internalType": "uint256",
              "name": "strength",
              "type": "uint256"
            },
            {
              "internalType": "uint256",
              "name": "health",
              "type": "uint256"
            },
            {
              "internalType": "uint256",
              "name": "magic",
              "type": "uint256"
            },
            {
              "internalType": "uint256",
              "name": "maxMana",
              "type": "uint256"
            },
            {
              "internalType": "uint256",
              "name": "agility",
              "type": "uint256"
            },
            {
              "internalType": "uint256",
              "name": "defense",
              "type": "uint256"
            },
            {
              "internalType": "uint256",
              "name": "baseChain",
              "type": "uint256"
            },
            {
              "internalType": "uint256",
              "name": "baseId",
              "type": "uint256"
            },
            {
              "internalType": "string",
              "name": "name",
              "type": "string"
            },
            {
              "internalType": "bool",
              "name": "isMale",
              "type": "bool"
            },
            {
              "internalType": "address",
              "name": "sender",
              "type": "address"
            }
          ],
          "indexed": false,
          "internalType": "struct BridgeFormat",
          "name": "_format",
          "type": "tuple"
        }
      ],
      "name": "ReMintPlayer",
      "type": "event"
    },
    {
      "anonymous": false,
      "inputs": [
        {
          "indexed": true,
          "internalType": "address",
          "name": "_sender",
          "type": "address"
        },
        {
          "indexed": true,
          "internalType": "uint256",
          "name": "_amount",
          "type": "uint256"
        }
      ],
      "name": "ReceiveGold",
      "type": "event"
    },
    {
      "anonymous": false,
      "inputs": [
        {
          "indexed": true,
          "internalType": "address",
          "name": "_sender",
          "type": "address"
        },
        {
          "indexed": true,
          "internalType": "uint256",
          "name": "_amount",
          "type": "uint256"
        }
      ],
      "name": "SendGold",
      "type": "event"
    },
    {
      "anonymous": false,
      "inputs": [
        {
          "indexed": true,
          "internalType": "address",
          "name": "from",
          "type": "address"
        },
        {
          "indexed": true,
          "internalType": "address",
          "name": "to",
          "type": "address"
        },
        {
          "indexed": true,
          "internalType": "uint256",
          "name": "tokenId",
          "type": "uint256"
        }
      ],
      "name": "Transfer",
      "type": "event"
    },
    {
      "anonymous": false,
      "inputs": [
        {
          "indexed": true,
          "internalType": "uint256",
          "name": "_playerId",
          "type": "uint256"
        },
        {
          "components": [
            {
              "internalType": "uint256",
              "name": "class",
              "type": "uint256"
            },
            {
              "internalType": "uint256",
              "name": "level",
              "type": "uint256"
            },
            {
              "internalType": "uint256",
              "name": "xp",
              "type": "uint256"
            },
            {
              "internalType": "uint256",
              "name": "strength",
              "type": "uint256"
            },
            {
              "internalType": "uint256",
              "name": "health",
              "type": "uint256"
            },
            {
              "internalType": "uint256",
              "name": "magic",
              "type": "uint256"
            },
            {
              "internalType": "uint256",
              "name": "maxMana",
              "type": "uint256"
            },
            {
              "internalType": "uint256",
              "name": "agility",
              "type": "uint256"
            },
            {
              "internalType": "uint256",
              "name": "defense",
              "type": "uint256"
            },
            {
              "internalType": "uint256",
              "name": "baseChain",
              "type": "uint256"
            },
            {
              "internalType": "uint256",
              "name": "baseId",
              "type": "uint256"
            },
            {
              "internalType": "string",
              "name": "name",
              "type": "string"
            },
            {
              "internalType": "bool",
              "name": "isMale",
              "type": "bool"
            },
            {
              "internalType": "address",
              "name": "sender",
              "type": "address"
            }
          ],
          "indexed": false,
          "internalType": "struct BridgeFormat",
          "name": "_format",
          "type": "tuple"
        }
      ],
      "name": "UnFreezePlayer",
      "type": "event"
    },
    {
      "inputs": [
        {
          "internalType": "string",
          "name": "_chain",
          "type": "string"
        },
        {
          "internalType": "address",
          "name": "_contract",
          "type": "address"
        },
        {
          "internalType": "uint256",
          "name": "_amount",
          "type": "uint256"
        }
      ],
      "name": "bridgeGold",
      "outputs": [],
      "stateMutability": "nonpayable",
      "type": "function"
    },
    {
      "inputs": [
        {
          "internalType": "uint256",
          "name": "_playerId",
          "type": "uint256"
        },
        {
          "internalType": "uint256",
          "name": "_chainId",
          "type": "uint256"
        }
      ],
      "name": "bridgePlayer",
      "outputs": [],
      "stateMutability": "nonpayable",
      "type": "function"
    },
    {
      "inputs": [
        {
          "internalType": "uint256",
          "name": "_playerId",
          "type": "uint256"
        },
        {
          "internalType": "string",
          "name": "_chain",
          "type": "string"
        },
        {
          "internalType": "address",
          "name": "_contract",
          "type": "address"
        }
      ],
      "name": "bridgePlayerTest",
      "outputs": [],
      "stateMutability": "nonpayable",
      "type": "function"
    },
    {
      "inputs": [
        {
          "internalType": "uint256",
          "name": "_chainId",
          "type": "uint256"
        },
        {
          "internalType": "string",
          "name": "_name",
          "type": "string"
        },
        {
          "internalType": "address",
          "name": "_portal",
          "type": "address"
        },
        {
          "internalType": "address",
          "name": "_diamond",
          "type": "address"
        }
      ],
      "name": "createBridge",
      "outputs": [],
      "stateMutability": "nonpayable",
      "type": "function"
    },
    {
      "inputs": [],
      "name": "freeGold",
      "outputs": [],
      "stateMutability": "nonpayable",
      "type": "function"
    },
    {
      "inputs": [
        {
          "internalType": "uint256",
          "name": "_chainId",
          "type": "uint256"
        }
      ],
      "name": "getChainData",
      "outputs": [
        {
          "components": [
            {
              "internalType": "uint256",
              "name": "chainId",
              "type": "uint256"
            },
            {
              "internalType": "string",
              "name": "name",
              "type": "string"
            },
            {
              "internalType": "address",
              "name": "portal",
              "type": "address"
            },
            {
              "internalType": "address",
              "name": "diamond",
              "type": "address"
            }
          ],
          "internalType": "struct ChainData",
          "name": "",
          "type": "tuple"
        }
      ],
      "stateMutability": "view",
      "type": "function"
    },
    {
      "inputs": [
        {
          "internalType": "uint256",
          "name": "_id",
          "type": "uint256"
        }
      ],
      "name": "getFormat",
      "outputs": [
        {
          "components": [
            {
              "internalType": "uint256",
              "name": "class",
              "type": "uint256"
            },
            {
              "internalType": "uint256",
              "name": "level",
              "type": "uint256"
            },
            {
              "internalType": "uint256",
              "name": "xp",
              "type": "uint256"
            },
            {
              "internalType": "uint256",
              "name": "strength",
              "type": "uint256"
            },
            {
              "internalType": "uint256",
              "name": "health",
              "type": "uint256"
            },
            {
              "internalType": "uint256",
              "name": "magic",
              "type": "uint256"
            },
            {
              "internalType": "uint256",
              "name": "maxMana",
              "type": "uint256"
            },
            {
              "internalType": "uint256",
              "name": "agility",
              "type": "uint256"
            },
            {
              "internalType": "uint256",
              "name": "defense",
              "type": "uint256"
            },
            {
              "internalType": "uint256",
              "name": "baseChain",
              "type": "uint256"
            },
            {
              "internalType": "uint256",
              "name": "baseId",
              "type": "uint256"
            },
            {
              "internalType": "string",
              "name": "name",
              "type": "string"
            },
            {
              "internalType": "bool",
              "name": "isMale",
              "type": "bool"
            },
            {
              "internalType": "address",
              "name": "sender",
              "type": "address"
            }
          ],
          "internalType": "struct BridgeFormat",
          "name": "",
          "type": "tuple"
        }
      ],
      "stateMutability": "view",
      "type": "function"
    },
    {
      "inputs": [
        {
          "components": [
            {
              "internalType": "uint256",
              "name": "class",
              "type": "uint256"
            },
            {
              "internalType": "uint256",
              "name": "level",
              "type": "uint256"
            },
            {
              "internalType": "uint256",
              "name": "xp",
              "type": "uint256"
            },
            {
              "internalType": "uint256",
              "name": "strength",
              "type": "uint256"
            },
            {
              "internalType": "uint256",
              "name": "health",
              "type": "uint256"
            },
            {
              "internalType": "uint256",
              "name": "magic",
              "type": "uint256"
            },
            {
              "internalType": "uint256",
              "name": "maxMana",
              "type": "uint256"
            },
            {
              "internalType": "uint256",
              "name": "agility",
              "type": "uint256"
            },
            {
              "internalType": "uint256",
              "name": "defense",
              "type": "uint256"
            },
            {
              "internalType": "uint256",
              "name": "baseChain",
              "type": "uint256"
            },
            {
              "internalType": "uint256",
              "name": "baseId",
              "type": "uint256"
            },
            {
              "internalType": "string",
              "name": "name",
              "type": "string"
            },
            {
              "internalType": "bool",
              "name": "isMale",
              "type": "bool"
            },
            {
              "internalType": "address",
              "name": "sender",
              "type": "address"
            }
          ],
          "internalType": "struct BridgeFormat",
          "name": "_format",
          "type": "tuple"
        }
      ],
      "name": "reMintPlayer",
      "outputs": [],
      "stateMutability": "nonpayable",
      "type": "function"
    },
    {
      "inputs": [
        {
          "components": [
            {
              "internalType": "address",
              "name": "sender",
              "type": "address"
            },
            {
              "internalType": "uint256",
              "name": "amount",
              "type": "uint256"
            }
          ],
          "internalType": "struct BridgegeCoinFormat",
          "name": "_format",
          "type": "tuple"
        }
      ],
      "name": "receiveGold",
      "outputs": [],
      "stateMutability": "nonpayable",
      "type": "function"
    },
    {
      "inputs": [
        {
          "internalType": "uint256",
          "name": "_playerId",
          "type": "uint256"
        }
      ],
      "name": "sanityCheck",
      "outputs": [
        {
          "internalType": "uint256",
          "name": "",
          "type": "uint256"
        },
        {
          "internalType": "uint256",
          "name": "",
          "type": "uint256"
        },
        {
          "internalType": "uint256",
          "name": "",
          "type": "uint256"
        },
        {
          "internalType": "uint256",
          "name": "",
          "type": "uint256"
        },
        {
          "internalType": "uint256",
          "name": "",
          "type": "uint256"
        },
        {
          "internalType": "bool",
          "name": "",
          "type": "bool"
        }
      ],
      "stateMutability": "view",
      "type": "function"
    }
  ],
  "bytecode": "0x608060405234801561001057600080fd5b50613b8d806100206000396000f3fe608060405234801561001057600080fd5b506004361061009e5760003560e01c80638ee7f6cb116100665780638ee7f6cb1461013657806390601da314610166578063aeb45f0114610182578063c3e4f9c2146101b2578063feea35c9146101ce5761009e565b806303f256ec146100a357806333f453af146100bf578063537ce615146100c957806354250a13146100e5578063763b4ef014610101575b600080fd5b6100bd60048036038101906100b8919061287f565b6101ea565b005b6100c7610257565b005b6100e360048036038101906100de9190612902565b610261565b005b6100ff60048036038101906100fa9190612aee565b6103c7565b005b61011b60048036038101906101169190612b37565b610483565b60405161012d96959493929190612b82565b60405180910390f35b610150600480360381019061014b9190612b37565b6104aa565b60405161015d9190612dbd565b60405180910390f35b610180600480360381019061017b9190612e2f565b6104c2565b005b61019c60048036038101906101979190612b37565b610523565b6040516101a99190612ebf565b60405180910390f35b6101cc60048036038101906101c79190612ee1565b61053b565b005b6101e860048036038101906101e39190612f50565b61069c565b005b6101f684848484610835565b8073ffffffffffffffffffffffffffffffffffffffff168273ffffffffffffffffffffffffffffffffffffffff16857f924c77d15e16cd31a7b4457de58065af652bd3178fe5f5f2ff801196f030fe7860405160405180910390a450505050565b61025f610a8c565b565b600061026c82610523565b9050600081604001519050600061028285610af2565b90508173ffffffffffffffffffffffffffffffffffffffff16637f2d905b84602001518560600151846040516024016102bb9190612dbd565b6040516020818303038152906040527f54250a13000000000000000000000000000000000000000000000000000000007bffffffffffffffffffffffffffffffffffffffffffffffffffffffff19166020820180517bffffffffffffffffffffffffffffffffffffffffffffffffffffffff83818316178352505050506040518463ffffffff1660e01b81526004016103569392919061306d565b600060405180830381600087803b15801561037057600080fd5b505af1158015610384573d6000803e3d6000fd5b50505050847f602103799a7c20f1b0af9606ecee1173039b639af978bf3755ef5db1a5209a6f826040516103b89190612dbd565b60405180910390a25050505050565b6103d081610ee7565b6103e48161012001518261014001516111ef565b156104425760006103f3611242565b9050610404826101a001518261125a565b807f038153a05f584c8a013d995510cb2a343c79259d90c1104781032846799cedbf836040516104349190612dbd565b60405180910390a250610480565b8061014001517f63eab96f65d1507cf3ccfa424a7be2c0571365e7bbb8f4a1d86fc90e7727fa42826040516104779190612dbd565b60405180910390a25b50565b60008060008060008061049587611278565b95509550955095509550955091939550919395565b6104b26125b6565b6104bb82611352565b9050919050565b6104d481600001518260200151611500565b8060200151816000015173ffffffffffffffffffffffffffffffffffffffff167f2974932ea8347b7507a8cb3888088a5db0692804c1592c993279b17e7fa7d7f260405160405180910390a350565b61052b61263d565b61053482611569565b9050919050565b600073cbbc5da52ea2728279560dca8f4ec08d5f8299859050600061055f85610af2565b90508173ffffffffffffffffffffffffffffffffffffffff16637f2d905b8585846040516024016105909190612dbd565b6040516020818303038152906040527f54250a13000000000000000000000000000000000000000000000000000000007bffffffffffffffffffffffffffffffffffffffffffffffffffffffff19166020820180517bffffffffffffffffffffffffffffffffffffffffffffffffffffffff83818316178352505050506040518463ffffffff1660e01b815260040161062b9392919061306d565b600060405180830381600087803b15801561064557600080fd5b505af1158015610659573d6000803e3d6000fd5b50505050847f602103799a7c20f1b0af9606ecee1173039b639af978bf3755ef5db1a5209a6f8260405161068d9190612dbd565b60405180910390a25050505050565b600073cbbc5da52ea2728279560dca8f4ec08d5f8299859050600060405180604001604052803373ffffffffffffffffffffffffffffffffffffffff1681526020018481525090508173ffffffffffffffffffffffffffffffffffffffff16637f2d905b86868460405160240161071391906130e1565b6040516020818303038152906040527f90601da3000000000000000000000000000000000000000000000000000000007bffffffffffffffffffffffffffffffffffffffffffffffffffffffff19166020820180517bffffffffffffffffffffffffffffffffffffffffffffffffffffffff83818316178352505050506040518463ffffffff1660e01b81526004016107ae9392919061306d565b600060405180830381600087803b1580156107c857600080fd5b505af11580156107dc573d6000803e3d6000fd5b505050506107ea33846116ed565b823373ffffffffffffffffffffffffffffffffffffffff167f639a1c2428edca612d7aa6a0f09df35033766e9b8578f6db38659900e23abf7260405160405180910390a35050505050565b600061083f6117a4565b90508060000160008154809291906108569061312b565b919050555060405180608001604052808681526020018581526020018473ffffffffffffffffffffffffffffffffffffffff1681526020018373ffffffffffffffffffffffffffffffffffffffff168152508160020160008781526020019081526020016000206000820151816000015560208201518160010190816108dc919061337f565b5060408201518160020160006101000a81548173ffffffffffffffffffffffffffffffffffffffff021916908373ffffffffffffffffffffffffffffffffffffffff16021790555060608201518160030160006101000a81548173ffffffffffffffffffffffffffffffffffffffff021916908373ffffffffffffffffffffffffffffffffffffffff16021790555090505060405180608001604052808681526020018581526020018473ffffffffffffffffffffffffffffffffffffffff1681526020018373ffffffffffffffffffffffffffffffffffffffff16815250816001016000836000015481526020019081526020016000206000820151816000015560208201518160010190816109f3919061337f565b5060408201518160020160006101000a81548173ffffffffffffffffffffffffffffffffffffffff021916908373ffffffffffffffffffffffffffffffffffffffff16021790555060608201518160030160006101000a81548173ffffffffffffffffffffffffffffffffffffffff021916908373ffffffffffffffffffffffffffffffffffffffff1602179055509050505050505050565b6000610a966117d1565b90508060000160003373ffffffffffffffffffffffffffffffffffffffff1673ffffffffffffffffffffffffffffffffffffffff1681526020019081526020016000206000815480929190610aea9061312b565b919050555050565b610afa6125b6565b6000610b046117fe565b90506000610b106117a4565b905060008260030160008681526020019081526020016000206002015414610b6d576040517f08c379a0000000000000000000000000000000000000000000000000000000008152600401610b649061349d565b60405180910390fd5b3373ffffffffffffffffffffffffffffffffffffffff1682600201600086815260200190815260200160002060009054906101000a900473ffffffffffffffffffffffffffffffffffffffff1673ffffffffffffffffffffffffffffffffffffffff1614610c10576040517f08c379a0000000000000000000000000000000000000000000000000000000008152600401610c0790613509565b60405180910390fd5b6064826003016000868152602001908152602001600020600201819055506000826003016000868152602001908152602001600020905060008083600501600088815260200190815260200160002060009054906101000a900460ff16610d3a57469150869050600184600501600089815260200190815260200160002060006101000a81548160ff02191690831515021790555086846003016000848152602001908152602001600020600089815260200190815260200160002081905550846003016000888152602001908152602001600020600f0184600401600084815260200190815260200160002060008981526020019081526020016000209081610d1a9190613554565b508184600601600089815260200190815260200160002081905550610d7c565b83600601600088815260200190815260200160002054915083600301600083815260200190815260200160002060008881526020019081526020016000205490505b6000604051806101c00160405280856019015481526020018560000154815260200185600101548152602001856003015481526020018560040154815260200185600601548152602001856008015481526020018560090154815260200185600e0154815260200184815260200183815260200186600401600086815260200190815260200160002060008b81526020019081526020016000208054610e21906131a2565b80601f0160208091040260200160405190810160405280929190818152602001828054610e4d906131a2565b8015610e9a5780601f10610e6f57610100808354040283529160200191610e9a565b820191906000526020600020905b815481529060010190602001808311610e7d57829003601f168201915b505050505081526020018560110160009054906101000a900460ff16151581526020013373ffffffffffffffffffffffffffffffffffffffff168152509050809650505050505050919050565b6000610ef16117fe565b90506000610efd6117a4565b9050806008016000815480929190610f149061312b565b91905055508281600701600083600801548152602001908152602001600020600082015181600001556020820151816001015560408201518160020155606082015181600301556080820151816004015560a0820151816005015560c0820151816006015560e082015181600701556101008201518160080155610120820151816009015561014082015181600a015561016082015181600b019081610fba919061337f565b5061018082015181600c0160006101000a81548160ff0219169083151502179055506101a082015181600c0160016101000a81548173ffffffffffffffffffffffffffffffffffffffff021916908373ffffffffffffffffffffffffffffffffffffffff16021790555090505060008160030160008561012001518152602001908152602001600020600085610140015181526020019081526020016000205411156111be57600083610140015190506000836003016000866101400151815260200190815260200160002060020181905550603b8360030160008661014001518152602001908152602001600020600001819055508360400151836003016000838152602001908152602001600020600101819055508360600151836003016000838152602001908152602001600020600301819055508360800151836003016000838152602001908152602001600020600401819055508360800151836003016000838152602001908152602001600020600501819055508360a00151836003016000838152602001908152602001600020600601819055508360c00151836003016000838152602001908152602001600020600801819055508360c00151836003016000838152602001908152602001600020600701819055508360e0015183600301600083815260200190815260200160002060090181905550506111ea565b6111c78361182b565b603682600301600084600101548152602001908152602001600020600001819055505b505050565b6000806111fa6117a4565b905060008160030160008681526020019081526020016000206000858152602001908152602001600020541161123457600191508161123a565b60009150815b505092915050565b60008061124d6117fe565b9050806001015491505090565b611274828260405180602001604052806000815250611e99565b5050565b600080600080600080600061128b6117a4565b905060006112976117fe565b90504682600301600046815260200190815260200160002060008b8152602001908152602001600020548360030160008560060160008e815260200190815260200160002054815260200190815260200160002060008c8152602001908152602001600020548460060160008d81526020019081526020016000205484600101548660050160008f815260200190815260200160002060009054906101000a900460ff16975097509750975097509750505091939550919395565b61135a6125b6565b60006113646117a4565b9050806007016000848152602001908152602001600020604051806101c001604052908160008201548152602001600182015481526020016002820154815260200160038201548152602001600482015481526020016005820154815260200160068201548152602001600782015481526020016008820154815260200160098201548152602001600a8201548152602001600b82018054611405906131a2565b80601f0160208091040260200160405190810160405280929190818152602001828054611431906131a2565b801561147e5780601f106114535761010080835404028352916020019161147e565b820191906000526020600020905b81548152906001019060200180831161146157829003601f168201915b50505050508152602001600c820160009054906101000a900460ff16151515158152602001600c820160019054906101000a900473ffffffffffffffffffffffffffffffffffffffff1673ffffffffffffffffffffffffffffffffffffffff1673ffffffffffffffffffffffffffffffffffffffff1681525050915050919050565b600061150a6117d1565b9050818160000160008573ffffffffffffffffffffffffffffffffffffffff1673ffffffffffffffffffffffffffffffffffffffff168152602001908152602001600020600082825461155d919061363c565b92505081905550505050565b61157161263d565b600061157b6117a4565b9050806002016000848152602001908152602001600020604051806080016040529081600082015481526020016001820180546115b7906131a2565b80601f01602080910402602001604051908101604052809291908181526020018280546115e3906131a2565b80156116305780601f1061160557610100808354040283529160200191611630565b820191906000526020600020905b81548152906001019060200180831161161357829003601f168201915b505050505081526020016002820160009054906101000a900473ffffffffffffffffffffffffffffffffffffffff1673ffffffffffffffffffffffffffffffffffffffff1673ffffffffffffffffffffffffffffffffffffffff1681526020016003820160009054906101000a900473ffffffffffffffffffffffffffffffffffffffff1673ffffffffffffffffffffffffffffffffffffffff1673ffffffffffffffffffffffffffffffffffffffff1681525050915050919050565b60006116f76117d1565b9050818160000160008573ffffffffffffffffffffffffffffffffffffffff1673ffffffffffffffffffffffffffffffffffffffff16815260200190815260200160002054101561174757600080fd5b818160000160008573ffffffffffffffffffffffffffffffffffffffff1673ffffffffffffffffffffffffffffffffffffffff16815260200190815260200160002060008282546117989190613670565b92505081905550505050565b6000807f4cde922899fdacbde63ed2c277d08801981412358b79d054d98add0ca65dea1990508091505090565b6000807f2c89d74504b6ad8d4fbde22bc3474166bac5452a11195897f239d8bebe02d70790508091505090565b6000807f3cab9a070a0c61cd0ae9d9e9e2c0781e5ca8691bec4087e5a4701d5ac018dd4e90508091505090565b60006118356117fe565b905060006118416117a4565b90508160010160008154809291906118589061312b565b919050555082610140015181600301600085610120015181526020019081526020016000206000846001015481526020019081526020016000208190555082610160015181600401600085610120015181526020019081526020016000206000856101400151815260200190815260200160002090816118d8919061337f565b5060018160050160008460010154815260200190815260200160002060006101000a81548160ff021916908315150217905550826101200151816006016000846001015481526020019081526020016000208190555060008361016001516119438460010154611ef4565b60405160200161195492919061372c565b6040516020818303038152906040529050606060008560000151036119c15784610180015161199e57604051806080016040528060438152602001613a4c604391399050806119bb565b604051806080016040528060438152602001613b15604391399050805b50611a73565b6001856000015103611a1b578461018001516119f857604051806080016040528060438152602001613ad260439139905080611a15565b604051806080016040528060438152602001613a8f604391399050805b50611a72565b6002856000015103611a7157846101800151611a5257604051806080016040528060438152602001613a0960439139905080611a6f565b6040518060800160405280604381526020016139c6604391399050805b505b5b5b6040518061028001604052808660200151815260200186604001518152602001600081526020018660600151815260200186608001518152602001866080015181526020018660a0015181526020018660c0015181526020018660c0015181526020018660e001518152602001600181526020016001815260200160018152602001600181526020018661010001518152602001838152602001828152602001866101800151151581526020016040518060e0016040528060008152602001600081526020016000815260200160008152602001600081526020016000815260200160008152508152602001866000015181525084600301600086600101548152602001908152602001600020600082015181600001556020820151816001015560408201518160020155606082015181600301556080820151816004015560a0820151816005015560c0820151816006015560e082015181600701556101008201518160080155610120820151816009015561014082015181600a015561016082015181600b015561018082015181600c01556101a082015181600d01556101c082015181600e01556101e082015181600f019081611c33919061337f565b50610200820151816010019081611c4a919061337f565b506102208201518160110160006101000a81548160ff02191690831515021790555061024082015181601201600082015181600001556020820151816001015560408201518160020155606082015181600301556080820151816004015560a0820151816005015560c08201518160060155505061026082015181601901559050506040518060e00160405280600081526020016000815260200160008152602001600081526020016000815260200160008152602001600081525084600801600086600101548152602001908152602001600020600082015181600001556020820151816001015560408201518160020155606082015181600301556080820151816004015560a0820151816005015560c08201518160060155905050846101a001518460020160008660010154815260200190815260200160002060006101000a81548173ffffffffffffffffffffffffffffffffffffffff021916908373ffffffffffffffffffffffffffffffffffffffff160217905550836007016000866101a0015173ffffffffffffffffffffffffffffffffffffffff1673ffffffffffffffffffffffffffffffffffffffff16815260200190815260200160002084600101549080600181540180825580915050600190039060005260206000200160009091909190915055836004016000866101a0015173ffffffffffffffffffffffffffffffffffffffff1673ffffffffffffffffffffffffffffffffffffffff1681526020019081526020016000206000815480929190611e8d9061312b565b91905055505050505050565b611ea38383611fc2565b611eb060008484846121f1565b611eef576040517f08c379a0000000000000000000000000000000000000000000000000000000008152600401611ee6906137cd565b60405180910390fd5b505050565b606060006001611f0384612378565b01905060008167ffffffffffffffff811115611f2257611f216126f6565b5b6040519080825280601f01601f191660200182016040528015611f545781602001600182028036833780820191505090505b509050600082602001820190505b600115611fb7578080600190039150507f3031323334353637383961626364656600000000000000000000000000000000600a86061a8153600a8581611fab57611faa6137ed565b5b04945060008503611f62575b819350505050919050565b600073ffffffffffffffffffffffffffffffffffffffff168273ffffffffffffffffffffffffffffffffffffffff1603612031576040517f08c379a000000000000000000000000000000000000000000000000000000000815260040161202890613868565b60405180910390fd5b61203a816124cb565b1561207a576040517f08c379a0000000000000000000000000000000000000000000000000000000008152600401612071906138d4565b60405180910390fd5b61208860008383600161250c565b612091816124cb565b156120d1576040517f08c379a00000000000000000000000000000000000000000000000000000000081526004016120c8906138d4565b60405180910390fd5b60016120db612512565b600a0160008473ffffffffffffffffffffffffffffffffffffffff1673ffffffffffffffffffffffffffffffffffffffff1681526020019081526020016000206000828254019250508190555081612131612512565b600901600083815260200190815260200160002060006101000a81548173ffffffffffffffffffffffffffffffffffffffff021916908373ffffffffffffffffffffffffffffffffffffffff160217905550808273ffffffffffffffffffffffffffffffffffffffff16600073ffffffffffffffffffffffffffffffffffffffff167fddf252ad1be2c89b69c2b068fc378daa952ba7f163c4a11628f55a4df523b3ef60405160405180910390a46121ed60008383600161253f565b5050565b60006122128473ffffffffffffffffffffffffffffffffffffffff16612545565b1561236b578373ffffffffffffffffffffffffffffffffffffffff1663150b7a0261223b612568565b8786866040518563ffffffff1660e01b815260040161225d94939291906138f4565b6020604051808303816000875af192505050801561229957506040513d601f19601f820116820180604052508101906122969190613998565b60015b61231b573d80600081146122c9576040519150601f19603f3d011682016040523d82523d6000602084013e6122ce565b606091505b506000815103612313576040517f08c379a000000000000000000000000000000000000000000000000000000000815260040161230a906137cd565b60405180910390fd5b805181602001fd5b63150b7a0260e01b7bffffffffffffffffffffffffffffffffffffffffffffffffffffffff1916817bffffffffffffffffffffffffffffffffffffffffffffffffffffffff191614915050612370565b600190505b949350505050565b600080600090507a184f03e93ff9f4daa797ed6e38ed64bf6a1f01000000000000000083106123d6577a184f03e93ff9f4daa797ed6e38ed64bf6a1f01000000000000000083816123cc576123cb6137ed565b5b0492506040810190505b6d04ee2d6d415b85acef81000000008310612413576d04ee2d6d415b85acef81000000008381612409576124086137ed565b5b0492506020810190505b662386f26fc10000831061244257662386f26fc100008381612438576124376137ed565b5b0492506010810190505b6305f5e100831061246b576305f5e1008381612461576124606137ed565b5b0492506008810190505b6127108310612490576127108381612486576124856137ed565b5b0492506004810190505b606483106124b357606483816124a9576124a86137ed565b5b0492506002810190505b600a83106124c2576001810190505b80915050919050565b60008073ffffffffffffffffffffffffffffffffffffffff166124ed83612570565b73ffffffffffffffffffffffffffffffffffffffff1614159050919050565b50505050565b6000807f2569078dfb4b0305704d3008e7403993ae9601b85f7ae5e742de3de8f8011c4090508091505090565b50505050565b6000808273ffffffffffffffffffffffffffffffffffffffff163b119050919050565b600033905090565b600061257a612512565b600901600083815260200190815260200160002060009054906101000a900473ffffffffffffffffffffffffffffffffffffffff169050919050565b604051806101c00160405280600081526020016000815260200160008152602001600081526020016000815260200160008152602001600081526020016000815260200160008152602001600081526020016000815260200160608152602001600015158152602001600073ffffffffffffffffffffffffffffffffffffffff1681525090565b60405180608001604052806000815260200160608152602001600073ffffffffffffffffffffffffffffffffffffffff168152602001600073ffffffffffffffffffffffffffffffffffffffff1681525090565b6000604051905090565b600080fd5b600080fd5b6000819050919050565b6126b8816126a5565b81146126c357600080fd5b50565b6000813590506126d5816126af565b92915050565b600080fd5b600080fd5b6000601f19601f8301169050919050565b7f4e487b7100000000000000000000000000000000000000000000000000000000600052604160045260246000fd5b61272e826126e5565b810181811067ffffffffffffffff8211171561274d5761274c6126f6565b5b80604052505050565b6000612760612691565b905061276c8282612725565b919050565b600067ffffffffffffffff82111561278c5761278b6126f6565b5b612795826126e5565b9050602081019050919050565b82818337600083830152505050565b60006127c46127bf84612771565b612756565b9050828152602081018484840111156127e0576127df6126e0565b5b6127eb8482856127a2565b509392505050565b600082601f830112612808576128076126db565b5b81356128188482602086016127b1565b91505092915050565b600073ffffffffffffffffffffffffffffffffffffffff82169050919050565b600061284c82612821565b9050919050565b61285c81612841565b811461286757600080fd5b50565b60008135905061287981612853565b92915050565b600080600080608085870312156128995761289861269b565b5b60006128a7878288016126c6565b945050602085013567ffffffffffffffff8111156128c8576128c76126a0565b5b6128d4878288016127f3565b93505060406128e58782880161286a565b92505060606128f68782880161286a565b91505092959194509250565b600080604083850312156129195761291861269b565b5b6000612927858286016126c6565b9250506020612938858286016126c6565b9150509250929050565b600080fd5b600080fd5b60008115159050919050565b6129618161294c565b811461296c57600080fd5b50565b60008135905061297e81612958565b92915050565b60006101c0828403121561299b5761299a612942565b5b6129a66101c0612756565b905060006129b6848285016126c6565b60008301525060206129ca848285016126c6565b60208301525060406129de848285016126c6565b60408301525060606129f2848285016126c6565b6060830152506080612a06848285016126c6565b60808301525060a0612a1a848285016126c6565b60a08301525060c0612a2e848285016126c6565b60c08301525060e0612a42848285016126c6565b60e083015250610100612a57848285016126c6565b61010083015250610120612a6d848285016126c6565b61012083015250610140612a83848285016126c6565b6101408301525061016082013567ffffffffffffffff811115612aa957612aa8612947565b5b612ab5848285016127f3565b61016083015250610180612acb8482850161296f565b610180830152506101a0612ae18482850161286a565b6101a08301525092915050565b600060208284031215612b0457612b0361269b565b5b600082013567ffffffffffffffff811115612b2257612b216126a0565b5b612b2e84828501612984565b91505092915050565b600060208284031215612b4d57612b4c61269b565b5b6000612b5b848285016126c6565b91505092915050565b612b6d816126a5565b82525050565b612b7c8161294c565b82525050565b600060c082019050612b976000830189612b64565b612ba46020830188612b64565b612bb16040830187612b64565b612bbe6060830186612b64565b612bcb6080830185612b64565b612bd860a0830184612b73565b979650505050505050565b612bec816126a5565b82525050565b600081519050919050565b600082825260208201905092915050565b60005b83811015612c2c578082015181840152602081019050612c11565b60008484015250505050565b6000612c4382612bf2565b612c4d8185612bfd565b9350612c5d818560208601612c0e565b612c66816126e5565b840191505092915050565b612c7a8161294c565b82525050565b612c8981612841565b82525050565b60006101c083016000830151612ca86000860182612be3565b506020830151612cbb6020860182612be3565b506040830151612cce6040860182612be3565b506060830151612ce16060860182612be3565b506080830151612cf46080860182612be3565b5060a0830151612d0760a0860182612be3565b5060c0830151612d1a60c0860182612be3565b5060e0830151612d2d60e0860182612be3565b50610100830151612d42610100860182612be3565b50610120830151612d57610120860182612be3565b50610140830151612d6c610140860182612be3565b50610160830151848203610160860152612d868282612c38565b915050610180830151612d9d610180860182612c71565b506101a0830151612db26101a0860182612c80565b508091505092915050565b60006020820190508181036000830152612dd78184612c8f565b905092915050565b600060408284031215612df557612df4612942565b5b612dff6040612756565b90506000612e0f8482850161286a565b6000830152506020612e23848285016126c6565b60208301525092915050565b600060408284031215612e4557612e4461269b565b5b6000612e5384828501612ddf565b91505092915050565b6000608083016000830151612e746000860182612be3565b5060208301518482036020860152612e8c8282612c38565b9150506040830151612ea16040860182612c80565b506060830151612eb46060860182612c80565b508091505092915050565b60006020820190508181036000830152612ed98184612e5c565b905092915050565b600080600060608486031215612efa57612ef961269b565b5b6000612f08868287016126c6565b935050602084013567ffffffffffffffff811115612f2957612f286126a0565b5b612f35868287016127f3565b9250506040612f468682870161286a565b9150509250925092565b600080600060608486031215612f6957612f6861269b565b5b600084013567ffffffffffffffff811115612f8757612f866126a0565b5b612f93868287016127f3565b9350506020612fa48682870161286a565b9250506040612fb5868287016126c6565b9150509250925092565b600082825260208201905092915050565b6000612fdb82612bf2565b612fe58185612fbf565b9350612ff5818560208601612c0e565b612ffe816126e5565b840191505092915050565b61301281612841565b82525050565b600081519050919050565b600082825260208201905092915050565b600061303f82613018565b6130498185613023565b9350613059818560208601612c0e565b613062816126e5565b840191505092915050565b600060608201905081810360008301526130878186612fd0565b90506130966020830185613009565b81810360408301526130a88184613034565b9050949350505050565b6040820160008201516130c86000850182612c80565b5060208201516130db6020850182612be3565b50505050565b60006040820190506130f660008301846130b2565b92915050565b7f4e487b7100000000000000000000000000000000000000000000000000000000600052601160045260246000fd5b6000613136826126a5565b91507fffffffffffffffffffffffffffffffffffffffffffffffffffffffffffffffff8203613168576131676130fc565b5b600182019050919050565b7f4e487b7100000000000000000000000000000000000000000000000000000000600052602260045260246000fd5b600060028204905060018216806131ba57607f821691505b6020821081036131cd576131cc613173565b5b50919050565b60008190508160005260206000209050919050565b60006020601f8301049050919050565b600082821b905092915050565b6000600883026132357fffffffffffffffffffffffffffffffffffffffffffffffffffffffffffffffff826131f8565b61323f86836131f8565b95508019841693508086168417925050509392505050565b6000819050919050565b600061327c613277613272846126a5565b613257565b6126a5565b9050919050565b6000819050919050565b61329683613261565b6132aa6132a282613283565b848454613205565b825550505050565b600090565b6132bf6132b2565b6132ca81848461328d565b505050565b5b818110156132ee576132e36000826132b7565b6001810190506132d0565b5050565b601f82111561333357613304816131d3565b61330d846131e8565b8101602085101561331c578190505b613330613328856131e8565b8301826132cf565b50505b505050565b600082821c905092915050565b600061335660001984600802613338565b1980831691505092915050565b600061336f8383613345565b9150826002028217905092915050565b61338882612bf2565b67ffffffffffffffff8111156133a1576133a06126f6565b5b6133ab82546131a2565b6133b68282856132f2565b600060209050601f8311600181146133e957600084156133d7578287015190505b6133e18582613363565b865550613449565b601f1984166133f7866131d3565b60005b8281101561341f578489015182556001820191506020850194506020810190506133fa565b8683101561343c5784890151613438601f891682613345565b8355505b6001600288020188555050505b505050505050565b7f796f7520617265206e6f742069646c6500000000000000000000000000000000600082015250565b6000613487601083612fbf565b915061349282613451565b602082019050919050565b600060208201905081810360008301526134b68161347a565b9050919050565b7f796f7520617265206e6f7420746865206f776e65720000000000000000000000600082015250565b60006134f3601583612fbf565b91506134fe826134bd565b602082019050919050565b60006020820190508181036000830152613522816134e6565b9050919050565b600081549050613538816131a2565b9050919050565b60008190508160005260206000209050919050565b81810361356257505061363a565b61356b82613529565b67ffffffffffffffff811115613584576135836126f6565b5b61358e82546131a2565b6135998282856132f2565b6000601f8311600181146135c857600084156135b6578287015490505b6135c08582613363565b865550613633565b601f1984166135d68761353f565b96506135e1866131d3565b60005b82811015613609578489015482556001820191506001850194506020810190506135e4565b868310156136265784890154613622601f891682613345565b8355505b6001600288020188555050505b5050505050505b565b6000613647826126a5565b9150613652836126a5565b925082820190508082111561366a576136696130fc565b5b92915050565b600061367b826126a5565b9150613686836126a5565b925082820390508181111561369e5761369d6130fc565b5b92915050565b600081905092915050565b60006136ba82612bf2565b6136c481856136a4565b93506136d4818560208601612c0e565b80840191505092915050565b7f2d00000000000000000000000000000000000000000000000000000000000000600082015250565b60006137166001836136a4565b9150613721826136e0565b600182019050919050565b600061373882856136af565b915061374382613709565b915061374f82846136af565b91508190509392505050565b7f4552433732313a207472616e7366657220746f206e6f6e20455243373231526560008201527f63656976657220696d706c656d656e7465720000000000000000000000000000602082015250565b60006137b7603283612fbf565b91506137c28261375b565b604082019050919050565b600060208201905081810360008301526137e6816137aa565b9050919050565b7f4e487b7100000000000000000000000000000000000000000000000000000000600052601260045260246000fd5b7f4552433732313a206d696e7420746f20746865207a65726f2061646472657373600082015250565b6000613852602083612fbf565b915061385d8261381c565b602082019050919050565b6000602082019050818103600083015261388181613845565b9050919050565b7f4552433732313a20746f6b656e20616c7265616479206d696e74656400000000600082015250565b60006138be601c83612fbf565b91506138c982613888565b602082019050919050565b600060208201905081810360008301526138ed816138b1565b9050919050565b60006080820190506139096000830187613009565b6139166020830186613009565b6139236040830185612b64565b81810360608301526139358184613034565b905095945050505050565b60007fffffffff0000000000000000000000000000000000000000000000000000000082169050919050565b61397581613940565b811461398057600080fd5b50565b6000815190506139928161396c565b92915050565b6000602082840312156139ae576139ad61269b565b5b60006139bc84828501613983565b9150509291505056fe68747470733a2f2f697066732e696f2f697066732f516d556257785564387358344d5a6f6a4b455255506d507539597441596659726f425334546531484a454b75637968747470733a2f2f697066732e696f2f697066732f516d625641427439734b704e55613844674d4a64653344424351796f72534354395631447a6436634a385a556d5068747470733a2f2f697066732e696f2f697066732f516d66424e4870787077554e67747736695842784b584c6256786f6d386d7064427367715a5a79353970524d354368747470733a2f2f697066732e696f2f697066732f516d5158655965397278526b6b716645423744725a52534732533179724e676a363456386d3676374b65747a516468747470733a2f2f697066732e696f2f697066732f516d55715a4b5275646e616e673147586244326e4848776d4a664e4e42465156646d6f483857416e65616969356868747470733a2f2f697066732e696f2f697066732f516d56357053734d47474d4c5733593979513871534c534d4451616b646e6a686a53346b356865366d4a79506548a26469706673582212209ef7a71e39ffadab6cd2ba5613ebad5bdd7e8e7c184afd03a2c488945e87b69c64736f6c63430008120033",
  "linkReferences": {},
  "deployedLinkReferences": {}
}