{
  "_format": "hh-sol-artifact-1",
  "contractName": "BridgeFacet",
  "sourceName": "contracts/facets/BridgeFacet.sol",
  "abi": [
    {
      "anonymous": false,
      "inputs": [
        {
          "indexed": true,
          "internalType": "address",
          "name": "owner",
          "type": "address"
        },
        {
          "indexed": true,
          "internalType": "address",
          "name": "approved",
          "type": "address"
        },
        {
          "indexed": true,
          "internalType": "uint256",
          "name": "tokenId",
          "type": "uint256"
        }
      ],
      "name": "Approval",
      "type": "event"
    },
    {
      "anonymous": false,
      "inputs": [
        {
          "indexed": true,
          "internalType": "address",
          "name": "owner",
          "type": "address"
        },
        {
          "indexed": true,
          "internalType": "address",
          "name": "operator",
          "type": "address"
        },
        {
          "indexed": false,
          "internalType": "bool",
          "name": "approved",
          "type": "bool"
        }
      ],
      "name": "ApprovalForAll",
      "type": "event"
    },
    {
      "anonymous": false,
      "inputs": [
        {
          "indexed": true,
          "internalType": "uint256",
          "name": "_chainId",
          "type": "uint256"
        },
        {
          "indexed": true,
          "internalType": "address",
          "name": "_portal",
          "type": "address"
        },
        {
          "indexed": true,
          "internalType": "address",
          "name": "_diamond",
          "type": "address"
        }
      ],
      "name": "BridgeCreated",
      "type": "event"
    },
    {
      "anonymous": false,
      "inputs": [
        {
          "indexed": true,
          "internalType": "uint256",
          "name": "_playerId",
          "type": "uint256"
        },
        {
          "components": [
            {
              "internalType": "uint256",
              "name": "class",
              "type": "uint256"
            },
            {
              "internalType": "uint256",
              "name": "level",
              "type": "uint256"
            },
            {
              "internalType": "uint256",
              "name": "xp",
              "type": "uint256"
            },
            {
              "internalType": "uint256",
              "name": "strength",
              "type": "uint256"
            },
            {
              "internalType": "uint256",
              "name": "health",
              "type": "uint256"
            },
            {
              "internalType": "uint256",
              "name": "magic",
              "type": "uint256"
            },
            {
              "internalType": "uint256",
              "name": "maxMana",
              "type": "uint256"
            },
            {
              "internalType": "uint256",
              "name": "agility",
              "type": "uint256"
            },
            {
              "internalType": "uint256",
              "name": "defense",
              "type": "uint256"
            },
            {
              "internalType": "uint256",
              "name": "baseChain",
              "type": "uint256"
            },
            {
              "internalType": "uint256",
              "name": "baseId",
              "type": "uint256"
            },
            {
              "internalType": "string",
              "name": "name",
              "type": "string"
            },
            {
              "internalType": "bool",
              "name": "isMale",
              "type": "bool"
            },
            {
              "internalType": "address",
              "name": "sender",
              "type": "address"
            }
          ],
          "indexed": false,
          "internalType": "struct BridgeFormat",
          "name": "_format",
          "type": "tuple"
        }
      ],
      "name": "BridgePlayer",
      "type": "event"
    },
    {
      "anonymous": false,
      "inputs": [
        {
          "indexed": true,
          "internalType": "uint256",
          "name": "_playerId",
          "type": "uint256"
        },
        {
          "components": [
            {
              "internalType": "uint256",
              "name": "class",
              "type": "uint256"
            },
            {
              "internalType": "uint256",
              "name": "level",
              "type": "uint256"
            },
            {
              "internalType": "uint256",
              "name": "xp",
              "type": "uint256"
            },
            {
              "internalType": "uint256",
              "name": "strength",
              "type": "uint256"
            },
            {
              "internalType": "uint256",
              "name": "health",
              "type": "uint256"
            },
            {
              "internalType": "uint256",
              "name": "magic",
              "type": "uint256"
            },
            {
              "internalType": "uint256",
              "name": "maxMana",
              "type": "uint256"
            },
            {
              "internalType": "uint256",
              "name": "agility",
              "type": "uint256"
            },
            {
              "internalType": "uint256",
              "name": "defense",
              "type": "uint256"
            },
            {
              "internalType": "uint256",
              "name": "baseChain",
              "type": "uint256"
            },
            {
              "internalType": "uint256",
              "name": "baseId",
              "type": "uint256"
            },
            {
              "internalType": "string",
              "name": "name",
              "type": "string"
            },
            {
              "internalType": "bool",
              "name": "isMale",
              "type": "bool"
            },
            {
              "internalType": "address",
              "name": "sender",
              "type": "address"
            }
          ],
          "indexed": false,
          "internalType": "struct BridgeFormat",
          "name": "_format",
          "type": "tuple"
        }
      ],
      "name": "ReMintPlayer",
      "type": "event"
    },
    {
      "anonymous": false,
      "inputs": [
        {
          "indexed": true,
          "internalType": "address",
          "name": "_sender",
          "type": "address"
        },
        {
          "indexed": true,
          "internalType": "uint256",
          "name": "_amount",
          "type": "uint256"
        }
      ],
      "name": "ReceiveGold",
      "type": "event"
    },
    {
      "anonymous": false,
      "inputs": [
        {
          "indexed": true,
          "internalType": "address",
          "name": "_sender",
          "type": "address"
        },
        {
          "indexed": true,
          "internalType": "uint256",
          "name": "_amount",
          "type": "uint256"
        }
      ],
      "name": "SendGold",
      "type": "event"
    },
    {
      "anonymous": false,
      "inputs": [
        {
          "indexed": true,
          "internalType": "address",
          "name": "from",
          "type": "address"
        },
        {
          "indexed": true,
          "internalType": "address",
          "name": "to",
          "type": "address"
        },
        {
          "indexed": true,
          "internalType": "uint256",
          "name": "tokenId",
          "type": "uint256"
        }
      ],
      "name": "Transfer",
      "type": "event"
    },
    {
      "inputs": [
        {
          "internalType": "string",
          "name": "_chain",
          "type": "string"
        },
        {
          "internalType": "address",
          "name": "_contract",
          "type": "address"
        },
        {
          "internalType": "uint256",
          "name": "_amount",
          "type": "uint256"
        }
      ],
      "name": "bridgeGold",
      "outputs": [],
      "stateMutability": "nonpayable",
      "type": "function"
    },
    {
      "inputs": [
        {
          "internalType": "uint256",
          "name": "_playerId",
          "type": "uint256"
        },
        {
          "internalType": "uint256",
          "name": "_chainId",
          "type": "uint256"
        }
      ],
      "name": "bridgePlayer",
      "outputs": [],
      "stateMutability": "nonpayable",
      "type": "function"
    },
    {
      "inputs": [
        {
          "internalType": "uint256",
          "name": "_playerId",
          "type": "uint256"
        },
        {
          "internalType": "string",
          "name": "_chain",
          "type": "string"
        },
        {
          "internalType": "address",
          "name": "_contract",
          "type": "address"
        }
      ],
      "name": "bridgePlayerTest",
      "outputs": [],
      "stateMutability": "nonpayable",
      "type": "function"
    },
    {
      "inputs": [
        {
          "internalType": "uint256",
          "name": "_chainId",
          "type": "uint256"
        },
        {
          "internalType": "string",
          "name": "_name",
          "type": "string"
        },
        {
          "internalType": "address",
          "name": "_portal",
          "type": "address"
        },
        {
          "internalType": "address",
          "name": "_diamond",
          "type": "address"
        }
      ],
      "name": "createBridge",
      "outputs": [],
      "stateMutability": "nonpayable",
      "type": "function"
    },
    {
      "inputs": [
        {
          "internalType": "uint256",
          "name": "_chainId",
          "type": "uint256"
        }
      ],
      "name": "getChainData",
      "outputs": [
        {
          "components": [
            {
              "internalType": "uint256",
              "name": "chainId",
              "type": "uint256"
            },
            {
              "internalType": "string",
              "name": "name",
              "type": "string"
            },
            {
              "internalType": "address",
              "name": "portal",
              "type": "address"
            },
            {
              "internalType": "address",
              "name": "diamond",
              "type": "address"
            }
          ],
          "internalType": "struct ChainData",
          "name": "",
          "type": "tuple"
        }
      ],
      "stateMutability": "view",
      "type": "function"
    },
    {
      "inputs": [
        {
          "internalType": "uint256",
          "name": "_id",
          "type": "uint256"
        }
      ],
      "name": "getFormat",
      "outputs": [
        {
          "components": [
            {
              "internalType": "uint256",
              "name": "class",
              "type": "uint256"
            },
            {
              "internalType": "uint256",
              "name": "level",
              "type": "uint256"
            },
            {
              "internalType": "uint256",
              "name": "xp",
              "type": "uint256"
            },
            {
              "internalType": "uint256",
              "name": "strength",
              "type": "uint256"
            },
            {
              "internalType": "uint256",
              "name": "health",
              "type": "uint256"
            },
            {
              "internalType": "uint256",
              "name": "magic",
              "type": "uint256"
            },
            {
              "internalType": "uint256",
              "name": "maxMana",
              "type": "uint256"
            },
            {
              "internalType": "uint256",
              "name": "agility",
              "type": "uint256"
            },
            {
              "internalType": "uint256",
              "name": "defense",
              "type": "uint256"
            },
            {
              "internalType": "uint256",
              "name": "baseChain",
              "type": "uint256"
            },
            {
              "internalType": "uint256",
              "name": "baseId",
              "type": "uint256"
            },
            {
              "internalType": "string",
              "name": "name",
              "type": "string"
            },
            {
              "internalType": "bool",
              "name": "isMale",
              "type": "bool"
            },
            {
              "internalType": "address",
              "name": "sender",
              "type": "address"
            }
          ],
          "internalType": "struct BridgeFormat",
          "name": "",
          "type": "tuple"
        }
      ],
      "stateMutability": "view",
      "type": "function"
    },
    {
      "inputs": [
        {
          "components": [
            {
              "internalType": "uint256",
              "name": "class",
              "type": "uint256"
            },
            {
              "internalType": "uint256",
              "name": "level",
              "type": "uint256"
            },
            {
              "internalType": "uint256",
              "name": "xp",
              "type": "uint256"
            },
            {
              "internalType": "uint256",
              "name": "strength",
              "type": "uint256"
            },
            {
              "internalType": "uint256",
              "name": "health",
              "type": "uint256"
            },
            {
              "internalType": "uint256",
              "name": "magic",
              "type": "uint256"
            },
            {
              "internalType": "uint256",
              "name": "maxMana",
              "type": "uint256"
            },
            {
              "internalType": "uint256",
              "name": "agility",
              "type": "uint256"
            },
            {
              "internalType": "uint256",
              "name": "defense",
              "type": "uint256"
            },
            {
              "internalType": "uint256",
              "name": "baseChain",
              "type": "uint256"
            },
            {
              "internalType": "uint256",
              "name": "baseId",
              "type": "uint256"
            },
            {
              "internalType": "string",
              "name": "name",
              "type": "string"
            },
            {
              "internalType": "bool",
              "name": "isMale",
              "type": "bool"
            },
            {
              "internalType": "address",
              "name": "sender",
              "type": "address"
            }
          ],
          "internalType": "struct BridgeFormat",
          "name": "_format",
          "type": "tuple"
        }
      ],
      "name": "reMintPlayer",
      "outputs": [],
      "stateMutability": "nonpayable",
      "type": "function"
    },
    {
      "inputs": [
        {
          "components": [
            {
              "internalType": "address",
              "name": "sender",
              "type": "address"
            },
            {
              "internalType": "uint256",
              "name": "amount",
              "type": "uint256"
            }
          ],
          "internalType": "struct BridgegeCoinFormat",
          "name": "_format",
          "type": "tuple"
        }
      ],
      "name": "receiveGold",
      "outputs": [],
      "stateMutability": "nonpayable",
      "type": "function"
    },
    {
      "inputs": [
        {
          "internalType": "uint256",
          "name": "_playerId",
          "type": "uint256"
        }
      ],
      "name": "sanityCheck",
      "outputs": [
        {
          "internalType": "uint256",
          "name": "",
          "type": "uint256"
        },
        {
          "internalType": "uint256",
          "name": "",
          "type": "uint256"
        },
        {
          "internalType": "uint256",
          "name": "",
          "type": "uint256"
        },
        {
          "internalType": "uint256",
          "name": "",
          "type": "uint256"
        },
        {
          "internalType": "uint256",
          "name": "",
          "type": "uint256"
        },
        {
          "internalType": "bool",
          "name": "",
          "type": "bool"
        }
      ],
      "stateMutability": "view",
      "type": "function"
    }
  ],
  "bytecode": "0x608060405234801561001057600080fd5b5061397f806100206000396000f3fe608060405234801561001057600080fd5b50600436106100935760003560e01c80638ee7f6cb116100665780638ee7f6cb1461012157806390601da314610151578063aeb45f011461016d578063c3e4f9c21461019d578063feea35c9146101b957610093565b806303f256ec14610098578063537ce615146100b457806354250a13146100d0578063763b4ef0146100ec575b600080fd5b6100b260048036038101906100ad91906125cb565b6101d5565b005b6100ce60048036038101906100c9919061264e565b610242565b005b6100ea60048036038101906100e5919061283a565b6103b0565b005b61010660048036038101906101019190612883565b6103d8565b604051610118969594939291906128ce565b60405180910390f35b61013b60048036038101906101369190612883565b6103ff565b6040516101489190612b09565b60405180910390f35b61016b60048036038101906101669190612b7b565b610417565b005b61018760048036038101906101829190612883565b610478565b6040516101949190612c0b565b60405180910390f35b6101b760048036038101906101b29190612c2d565b610490565b005b6101d360048036038101906101ce9190612c9c565b6105f9565b005b6101e18484848461079a565b8073ffffffffffffffffffffffffffffffffffffffff168273ffffffffffffffffffffffffffffffffffffffff16857f924c77d15e16cd31a7b4457de58065af652bd3178fe5f5f2ff801196f030fe7860405160405180910390a450505050565b600061024d82610478565b90506000816040015190506000610263856108c0565b90508173ffffffffffffffffffffffffffffffffffffffff1663381aa2cf846020015185606001516000620186a0866040516024016102a29190612b09565b6040516020818303038152906040527f54250a13000000000000000000000000000000000000000000000000000000007bffffffffffffffffffffffffffffffffffffffffffffffffffffffff19166020820180517bffffffffffffffffffffffffffffffffffffffffffffffffffffffff83818316178352505050506040518663ffffffff1660e01b815260040161033f959493929190612e4d565b600060405180830381600087803b15801561035957600080fd5b505af115801561036d573d6000803e3d6000fd5b50505050847f602103799a7c20f1b0af9606ecee1173039b639af978bf3755ef5db1a5209a6f826040516103a19190612b09565b60405180910390a25050505050565b6103b981610dbf565b60006103c3610f8e565b90506103d4826101a0015182610fa6565b5050565b6000806000806000806103ea87610fc4565b95509550955095509550955091939550919395565b610407612302565b6104108261109e565b9050919050565b6104298160000151826020015161124c565b8060200151816000015173ffffffffffffffffffffffffffffffffffffffff167f2974932ea8347b7507a8cb3888088a5db0692804c1592c993279b17e7fa7d7f260405160405180910390a350565b610480612389565b610489826112b5565b9050919050565b6000731b2c14b235e928b42ede9d83c8143fc9ec309742905060006104b4856108c0565b90508173ffffffffffffffffffffffffffffffffffffffff1663381aa2cf85856000620186a0866040516024016104eb9190612b09565b6040516020818303038152906040527f54250a13000000000000000000000000000000000000000000000000000000007bffffffffffffffffffffffffffffffffffffffffffffffffffffffff19166020820180517bffffffffffffffffffffffffffffffffffffffffffffffffffffffff83818316178352505050506040518663ffffffff1660e01b8152600401610588959493929190612e4d565b600060405180830381600087803b1580156105a257600080fd5b505af11580156105b6573d6000803e3d6000fd5b50505050847f602103799a7c20f1b0af9606ecee1173039b639af978bf3755ef5db1a5209a6f826040516105ea9190612b09565b60405180910390a25050505050565b6000731b2c14b235e928b42ede9d83c8143fc9ec3097429050600060405180604001604052803373ffffffffffffffffffffffffffffffffffffffff1681526020018481525090508173ffffffffffffffffffffffffffffffffffffffff1663381aa2cf86866000620186a0866040516024016106769190612edd565b6040516020818303038152906040527f90601da3000000000000000000000000000000000000000000000000000000007bffffffffffffffffffffffffffffffffffffffffffffffffffffffff19166020820180517bffffffffffffffffffffffffffffffffffffffffffffffffffffffff83818316178352505050506040518663ffffffff1660e01b8152600401610713959493929190612e4d565b600060405180830381600087803b15801561072d57600080fd5b505af1158015610741573d6000803e3d6000fd5b5050505061074f3384611439565b823373ffffffffffffffffffffffffffffffffffffffff167f639a1c2428edca612d7aa6a0f09df35033766e9b8578f6db38659900e23abf7260405160405180910390a35050505050565b60006107a46114f0565b905060405180608001604052808681526020018581526020018473ffffffffffffffffffffffffffffffffffffffff1681526020018373ffffffffffffffffffffffffffffffffffffffff1681525081600001600087815260200190815260200160002060008201518160000155602082015181600101908161082791906130fa565b5060408201518160020160006101000a81548173ffffffffffffffffffffffffffffffffffffffff021916908373ffffffffffffffffffffffffffffffffffffffff16021790555060608201518160030160006101000a81548173ffffffffffffffffffffffffffffffffffffffff021916908373ffffffffffffffffffffffffffffffffffffffff1602179055509050505050505050565b6108c8612302565b60006108d261151d565b905060006108de6114f0565b90506000826003016000868152602001908152602001600020600201541461093b576040517f08c379a000000000000000000000000000000000000000000000000000000000815260040161093290613218565b60405180910390fd5b3373ffffffffffffffffffffffffffffffffffffffff1682600201600086815260200190815260200160002060009054906101000a900473ffffffffffffffffffffffffffffffffffffffff1673ffffffffffffffffffffffffffffffffffffffff16146109de576040517f08c379a00000000000000000000000000000000000000000000000000000000081526004016109d590613284565b60405180910390fd5b6064826003016000868152602001908152602001600020600201819055506000826003016000868152602001908152602001600020905060008083600301600088815260200190815260200160002060009054906101000a900460ff16610b0857469150869050600184600301600089815260200190815260200160002060006101000a81548160ff02191690831515021790555086846001016000848152602001908152602001600020600089815260200190815260200160002081905550846003016000888152602001908152602001600020600f0184600201600084815260200190815260200160002060008981526020019081526020016000209081610ae891906132cf565b508184600401600089815260200190815260200160002081905550610b4a565b83600401600088815260200190815260200160002054915083600101600083815260200190815260200160002060008881526020019081526020016000205490505b6000604051806101c00160405280856019015481526020018560000154815260200185600101548152602001856003015481526020018560040154815260200185600601548152602001856008015481526020018560090154815260200185600e0154815260200184815260200183815260200186600201600086815260200190815260200160002060008b81526020019081526020016000208054610bef90612f27565b80601f0160208091040260200160405190810160405280929190818152602001828054610c1b90612f27565b8015610c685780601f10610c3d57610100808354040283529160200191610c68565b820191906000526020600020905b815481529060010190602001808311610c4b57829003601f168201915b505050505081526020018560110160009054906101000a900460ff16151581526020013373ffffffffffffffffffffffffffffffffffffffff168152509050808560050160008a8152602001908152602001600020600082015181600001556020820151816001015560408201518160020155606082015181600301556080820151816004015560a0820151816005015560c0820151816006015560e082015181600701556101008201518160080155610120820151816009015561014082015181600a015561016082015181600b019081610d4491906130fa565b5061018082015181600c0160006101000a81548160ff0219169083151502179055506101a082015181600c0160016101000a81548173ffffffffffffffffffffffffffffffffffffffff021916908373ffffffffffffffffffffffffffffffffffffffff160217905550905050809650505050505050919050565b6000610dc961151d565b90506000610dd56114f0565b905060008083600101541115610f3a576001905060008360030160008560010154815260200190815260200160002060020181905550603983600301600085600101548152602001908152602001600020600001819055508360400151836003016000838152602001908152602001600020600101819055508360600151836003016000838152602001908152602001600020600301819055508360800151836003016000838152602001908152602001600020600401819055508360800151836003016000838152602001908152602001600020600501819055508360a00151836003016000838152602001908152602001600020600601819055508360c00151836003016000838152602001908152602001600020600801819055508360c00151836003016000838152602001908152602001600020600701819055508360e0015183600301600083815260200190815260200160002060090181905550610f44565b610f438461154a565b5b600083600301600085600101548152602001908152602001600020600201819055506039836003016000856001015481526020019081526020016000206000018190555050505050565b600080610f9961151d565b9050806001015491505090565b610fc0828260405180602001604052806000815250611bb8565b5050565b6000806000806000806000610fd76114f0565b90506000610fe361151d565b90504682600101600046815260200190815260200160002060008b8152602001908152602001600020548360010160008560040160008e815260200190815260200160002054815260200190815260200160002060008c8152602001908152602001600020548460040160008d81526020019081526020016000205484600101548660030160008f815260200190815260200160002060009054906101000a900460ff16975097509750975097509750505091939550919395565b6110a6612302565b60006110b06114f0565b9050806005016000848152602001908152602001600020604051806101c001604052908160008201548152602001600182015481526020016002820154815260200160038201548152602001600482015481526020016005820154815260200160068201548152602001600782015481526020016008820154815260200160098201548152602001600a8201548152602001600b8201805461115190612f27565b80601f016020809104026020016040519081016040528092919081815260200182805461117d90612f27565b80156111ca5780601f1061119f576101008083540402835291602001916111ca565b820191906000526020600020905b8154815290600101906020018083116111ad57829003601f168201915b50505050508152602001600c820160009054906101000a900460ff16151515158152602001600c820160019054906101000a900473ffffffffffffffffffffffffffffffffffffffff1673ffffffffffffffffffffffffffffffffffffffff1673ffffffffffffffffffffffffffffffffffffffff1681525050915050919050565b6000611256611c13565b9050818160000160008573ffffffffffffffffffffffffffffffffffffffff1673ffffffffffffffffffffffffffffffffffffffff16815260200190815260200160002060008282546112a991906133e6565b92505081905550505050565b6112bd612389565b60006112c76114f0565b90508060000160008481526020019081526020016000206040518060800160405290816000820154815260200160018201805461130390612f27565b80601f016020809104026020016040519081016040528092919081815260200182805461132f90612f27565b801561137c5780601f106113515761010080835404028352916020019161137c565b820191906000526020600020905b81548152906001019060200180831161135f57829003601f168201915b505050505081526020016002820160009054906101000a900473ffffffffffffffffffffffffffffffffffffffff1673ffffffffffffffffffffffffffffffffffffffff1673ffffffffffffffffffffffffffffffffffffffff1681526020016003820160009054906101000a900473ffffffffffffffffffffffffffffffffffffffff1673ffffffffffffffffffffffffffffffffffffffff1673ffffffffffffffffffffffffffffffffffffffff1681525050915050919050565b6000611443611c13565b9050818160000160008573ffffffffffffffffffffffffffffffffffffffff1673ffffffffffffffffffffffffffffffffffffffff16815260200190815260200160002054101561149357600080fd5b818160000160008573ffffffffffffffffffffffffffffffffffffffff1673ffffffffffffffffffffffffffffffffffffffff16815260200190815260200160002060008282546114e4919061341a565b92505081905550505050565b6000807f4cde922899fdacbde63ed2c277d08801981412358b79d054d98add0ca65dea1990508091505090565b6000807f3cab9a070a0c61cd0ae9d9e9e2c0781e5ca8691bec4087e5a4701d5ac018dd4e90508091505090565b600061155461151d565b905060006115606114f0565b90508160010160008154809291906115779061344e565b919050555082610140015181600101600085610120015181526020019081526020016000206000846001015481526020019081526020016000208190555082610160015181600201600085610120015181526020019081526020016000206000856101400151815260200190815260200160002090816115f791906130fa565b5060018160030160008460010154815260200190815260200160002060006101000a81548160ff021916908315150217905550826101200151816004016000846001015481526020019081526020016000208190555060008361016001516116628460010154611c40565b60405160200161167392919061351e565b6040516020818303038152906040529050606060008560000151036116e0578461018001516116bd5760405180608001604052806043815260200161383e604391399050806116da565b604051806080016040528060438152602001613907604391399050805b50611792565b600185600001510361173a57846101800151611717576040518060800160405280604381526020016138c460439139905080611734565b604051806080016040528060438152602001613881604391399050805b50611791565b600285600001510361179057846101800151611771576040518060800160405280604381526020016137fb6043913990508061178e565b6040518060800160405280604381526020016137b8604391399050805b505b5b5b6040518061028001604052808660200151815260200186604001518152602001600081526020018660600151815260200186608001518152602001866080015181526020018660a0015181526020018660c0015181526020018660c0015181526020018660e001518152602001600181526020016001815260200160018152602001600181526020018661010001518152602001838152602001828152602001866101800151151581526020016040518060e0016040528060008152602001600081526020016000815260200160008152602001600081526020016000815260200160008152508152602001866000015181525084600301600086600101548152602001908152602001600020600082015181600001556020820151816001015560408201518160020155606082015181600301556080820151816004015560a0820151816005015560c0820151816006015560e082015181600701556101008201518160080155610120820151816009015561014082015181600a015561016082015181600b015561018082015181600c01556101a082015181600d01556101c082015181600e01556101e082015181600f01908161195291906130fa565b5061020082015181601001908161196991906130fa565b506102208201518160110160006101000a81548160ff02191690831515021790555061024082015181601201600082015181600001556020820151816001015560408201518160020155606082015181600301556080820151816004015560a0820151816005015560c08201518160060155505061026082015181601901559050506040518060e00160405280600081526020016000815260200160008152602001600081526020016000815260200160008152602001600081525084600801600086600101548152602001908152602001600020600082015181600001556020820151816001015560408201518160020155606082015181600301556080820151816004015560a0820151816005015560c08201518160060155905050846101a001518460020160008660010154815260200190815260200160002060006101000a81548173ffffffffffffffffffffffffffffffffffffffff021916908373ffffffffffffffffffffffffffffffffffffffff160217905550836007016000866101a0015173ffffffffffffffffffffffffffffffffffffffff1673ffffffffffffffffffffffffffffffffffffffff16815260200190815260200160002084600101549080600181540180825580915050600190039060005260206000200160009091909190915055836004016000866101a0015173ffffffffffffffffffffffffffffffffffffffff1673ffffffffffffffffffffffffffffffffffffffff1681526020019081526020016000206000815480929190611bac9061344e565b91905055505050505050565b611bc28383611d0e565b611bcf6000848484611f3d565b611c0e576040517f08c379a0000000000000000000000000000000000000000000000000000000008152600401611c05906135bf565b60405180910390fd5b505050565b6000807f2c89d74504b6ad8d4fbde22bc3474166bac5452a11195897f239d8bebe02d70790508091505090565b606060006001611c4f846120c4565b01905060008167ffffffffffffffff811115611c6e57611c6d612442565b5b6040519080825280601f01601f191660200182016040528015611ca05781602001600182028036833780820191505090505b509050600082602001820190505b600115611d03578080600190039150507f3031323334353637383961626364656600000000000000000000000000000000600a86061a8153600a8581611cf757611cf66135df565b5b04945060008503611cae575b819350505050919050565b600073ffffffffffffffffffffffffffffffffffffffff168273ffffffffffffffffffffffffffffffffffffffff1603611d7d576040517f08c379a0000000000000000000000000000000000000000000000000000000008152600401611d749061365a565b60405180910390fd5b611d8681612217565b15611dc6576040517f08c379a0000000000000000000000000000000000000000000000000000000008152600401611dbd906136c6565b60405180910390fd5b611dd4600083836001612258565b611ddd81612217565b15611e1d576040517f08c379a0000000000000000000000000000000000000000000000000000000008152600401611e14906136c6565b60405180910390fd5b6001611e2761225e565b600a0160008473ffffffffffffffffffffffffffffffffffffffff1673ffffffffffffffffffffffffffffffffffffffff1681526020019081526020016000206000828254019250508190555081611e7d61225e565b600901600083815260200190815260200160002060006101000a81548173ffffffffffffffffffffffffffffffffffffffff021916908373ffffffffffffffffffffffffffffffffffffffff160217905550808273ffffffffffffffffffffffffffffffffffffffff16600073ffffffffffffffffffffffffffffffffffffffff167fddf252ad1be2c89b69c2b068fc378daa952ba7f163c4a11628f55a4df523b3ef60405160405180910390a4611f3960008383600161228b565b5050565b6000611f5e8473ffffffffffffffffffffffffffffffffffffffff16612291565b156120b7578373ffffffffffffffffffffffffffffffffffffffff1663150b7a02611f876122b4565b8786866040518563ffffffff1660e01b8152600401611fa994939291906136e6565b6020604051808303816000875af1925050508015611fe557506040513d601f19601f82011682018060405250810190611fe2919061378a565b60015b612067573d8060008114612015576040519150601f19603f3d011682016040523d82523d6000602084013e61201a565b606091505b50600081510361205f576040517f08c379a0000000000000000000000000000000000000000000000000000000008152600401612056906135bf565b60405180910390fd5b805181602001fd5b63150b7a0260e01b7bffffffffffffffffffffffffffffffffffffffffffffffffffffffff1916817bffffffffffffffffffffffffffffffffffffffffffffffffffffffff1916149150506120bc565b600190505b949350505050565b600080600090507a184f03e93ff9f4daa797ed6e38ed64bf6a1f0100000000000000008310612122577a184f03e93ff9f4daa797ed6e38ed64bf6a1f0100000000000000008381612118576121176135df565b5b0492506040810190505b6d04ee2d6d415b85acef8100000000831061215f576d04ee2d6d415b85acef81000000008381612155576121546135df565b5b0492506020810190505b662386f26fc10000831061218e57662386f26fc100008381612184576121836135df565b5b0492506010810190505b6305f5e10083106121b7576305f5e10083816121ad576121ac6135df565b5b0492506008810190505b61271083106121dc5761271083816121d2576121d16135df565b5b0492506004810190505b606483106121ff57606483816121f5576121f46135df565b5b0492506002810190505b600a831061220e576001810190505b80915050919050565b60008073ffffffffffffffffffffffffffffffffffffffff16612239836122bc565b73ffffffffffffffffffffffffffffffffffffffff1614159050919050565b50505050565b6000807f2569078dfb4b0305704d3008e7403993ae9601b85f7ae5e742de3de8f8011c4090508091505090565b50505050565b6000808273ffffffffffffffffffffffffffffffffffffffff163b119050919050565b600033905090565b60006122c661225e565b600901600083815260200190815260200160002060009054906101000a900473ffffffffffffffffffffffffffffffffffffffff169050919050565b604051806101c00160405280600081526020016000815260200160008152602001600081526020016000815260200160008152602001600081526020016000815260200160008152602001600081526020016000815260200160608152602001600015158152602001600073ffffffffffffffffffffffffffffffffffffffff1681525090565b60405180608001604052806000815260200160608152602001600073ffffffffffffffffffffffffffffffffffffffff168152602001600073ffffffffffffffffffffffffffffffffffffffff1681525090565b6000604051905090565b600080fd5b600080fd5b6000819050919050565b612404816123f1565b811461240f57600080fd5b50565b600081359050612421816123fb565b92915050565b600080fd5b600080fd5b6000601f19601f8301169050919050565b7f4e487b7100000000000000000000000000000000000000000000000000000000600052604160045260246000fd5b61247a82612431565b810181811067ffffffffffffffff8211171561249957612498612442565b5b80604052505050565b60006124ac6123dd565b90506124b88282612471565b919050565b600067ffffffffffffffff8211156124d8576124d7612442565b5b6124e182612431565b9050602081019050919050565b82818337600083830152505050565b600061251061250b846124bd565b6124a2565b90508281526020810184848401111561252c5761252b61242c565b5b6125378482856124ee565b509392505050565b600082601f83011261255457612553612427565b5b81356125648482602086016124fd565b91505092915050565b600073ffffffffffffffffffffffffffffffffffffffff82169050919050565b60006125988261256d565b9050919050565b6125a88161258d565b81146125b357600080fd5b50565b6000813590506125c58161259f565b92915050565b600080600080608085870312156125e5576125e46123e7565b5b60006125f387828801612412565b945050602085013567ffffffffffffffff811115612614576126136123ec565b5b6126208782880161253f565b9350506040612631878288016125b6565b9250506060612642878288016125b6565b91505092959194509250565b60008060408385031215612665576126646123e7565b5b600061267385828601612412565b925050602061268485828601612412565b9150509250929050565b600080fd5b600080fd5b60008115159050919050565b6126ad81612698565b81146126b857600080fd5b50565b6000813590506126ca816126a4565b92915050565b60006101c082840312156126e7576126e661268e565b5b6126f26101c06124a2565b9050600061270284828501612412565b600083015250602061271684828501612412565b602083015250604061272a84828501612412565b604083015250606061273e84828501612412565b606083015250608061275284828501612412565b60808301525060a061276684828501612412565b60a08301525060c061277a84828501612412565b60c08301525060e061278e84828501612412565b60e0830152506101006127a384828501612412565b610100830152506101206127b984828501612412565b610120830152506101406127cf84828501612412565b6101408301525061016082013567ffffffffffffffff8111156127f5576127f4612693565b5b6128018482850161253f565b61016083015250610180612817848285016126bb565b610180830152506101a061282d848285016125b6565b6101a08301525092915050565b6000602082840312156128505761284f6123e7565b5b600082013567ffffffffffffffff81111561286e5761286d6123ec565b5b61287a848285016126d0565b91505092915050565b600060208284031215612899576128986123e7565b5b60006128a784828501612412565b91505092915050565b6128b9816123f1565b82525050565b6128c881612698565b82525050565b600060c0820190506128e360008301896128b0565b6128f060208301886128b0565b6128fd60408301876128b0565b61290a60608301866128b0565b61291760808301856128b0565b61292460a08301846128bf565b979650505050505050565b612938816123f1565b82525050565b600081519050919050565b600082825260208201905092915050565b60005b8381101561297857808201518184015260208101905061295d565b60008484015250505050565b600061298f8261293e565b6129998185612949565b93506129a981856020860161295a565b6129b281612431565b840191505092915050565b6129c681612698565b82525050565b6129d58161258d565b82525050565b60006101c0830160008301516129f4600086018261292f565b506020830151612a07602086018261292f565b506040830151612a1a604086018261292f565b506060830151612a2d606086018261292f565b506080830151612a40608086018261292f565b5060a0830151612a5360a086018261292f565b5060c0830151612a6660c086018261292f565b5060e0830151612a7960e086018261292f565b50610100830151612a8e61010086018261292f565b50610120830151612aa361012086018261292f565b50610140830151612ab861014086018261292f565b50610160830151848203610160860152612ad28282612984565b915050610180830151612ae96101808601826129bd565b506101a0830151612afe6101a08601826129cc565b508091505092915050565b60006020820190508181036000830152612b2381846129db565b905092915050565b600060408284031215612b4157612b4061268e565b5b612b4b60406124a2565b90506000612b5b848285016125b6565b6000830152506020612b6f84828501612412565b60208301525092915050565b600060408284031215612b9157612b906123e7565b5b6000612b9f84828501612b2b565b91505092915050565b6000608083016000830151612bc0600086018261292f565b5060208301518482036020860152612bd88282612984565b9150506040830151612bed60408601826129cc565b506060830151612c0060608601826129cc565b508091505092915050565b60006020820190508181036000830152612c258184612ba8565b905092915050565b600080600060608486031215612c4657612c456123e7565b5b6000612c5486828701612412565b935050602084013567ffffffffffffffff811115612c7557612c746123ec565b5b612c818682870161253f565b9250506040612c92868287016125b6565b9150509250925092565b600080600060608486031215612cb557612cb46123e7565b5b600084013567ffffffffffffffff811115612cd357612cd26123ec565b5b612cdf8682870161253f565b9350506020612cf0868287016125b6565b9250506040612d0186828701612412565b9150509250925092565b600082825260208201905092915050565b6000612d278261293e565b612d318185612d0b565b9350612d4181856020860161295a565b612d4a81612431565b840191505092915050565b612d5e8161258d565b82525050565b6000819050919050565b6000819050919050565b6000612d93612d8e612d8984612d64565b612d6e565b6123f1565b9050919050565b612da381612d78565b82525050565b6000819050919050565b600067ffffffffffffffff82169050919050565b6000612de2612ddd612dd884612da9565b612d6e565b612db3565b9050919050565b612df281612dc7565b82525050565b600081519050919050565b600082825260208201905092915050565b6000612e1f82612df8565b612e298185612e03565b9350612e3981856020860161295a565b612e4281612431565b840191505092915050565b600060a0820190508181036000830152612e678188612d1c565b9050612e766020830187612d55565b612e836040830186612d9a565b612e906060830185612de9565b8181036080830152612ea28184612e14565b90509695505050505050565b604082016000820151612ec460008501826129cc565b506020820151612ed7602085018261292f565b50505050565b6000604082019050612ef26000830184612eae565b92915050565b7f4e487b7100000000000000000000000000000000000000000000000000000000600052602260045260246000fd5b60006002820490506001821680612f3f57607f821691505b602082108103612f5257612f51612ef8565b5b50919050565b60008190508160005260206000209050919050565b60006020601f8301049050919050565b600082821b905092915050565b600060088302612fba7fffffffffffffffffffffffffffffffffffffffffffffffffffffffffffffffff82612f7d565b612fc48683612f7d565b95508019841693508086168417925050509392505050565b6000612ff7612ff2612fed846123f1565b612d6e565b6123f1565b9050919050565b6000819050919050565b61301183612fdc565b61302561301d82612ffe565b848454612f8a565b825550505050565b600090565b61303a61302d565b613045818484613008565b505050565b5b818110156130695761305e600082613032565b60018101905061304b565b5050565b601f8211156130ae5761307f81612f58565b61308884612f6d565b81016020851015613097578190505b6130ab6130a385612f6d565b83018261304a565b50505b505050565b600082821c905092915050565b60006130d1600019846008026130b3565b1980831691505092915050565b60006130ea83836130c0565b9150826002028217905092915050565b6131038261293e565b67ffffffffffffffff81111561311c5761311b612442565b5b6131268254612f27565b61313182828561306d565b600060209050601f8311600181146131645760008415613152578287015190505b61315c85826130de565b8655506131c4565b601f19841661317286612f58565b60005b8281101561319a57848901518255600182019150602085019450602081019050613175565b868310156131b757848901516131b3601f8916826130c0565b8355505b6001600288020188555050505b505050505050565b7f796f7520617265206e6f742069646c6500000000000000000000000000000000600082015250565b6000613202601083612d0b565b915061320d826131cc565b602082019050919050565b60006020820190508181036000830152613231816131f5565b9050919050565b7f796f7520617265206e6f7420746865206f776e65720000000000000000000000600082015250565b600061326e601583612d0b565b915061327982613238565b602082019050919050565b6000602082019050818103600083015261329d81613261565b9050919050565b6000815490506132b381612f27565b9050919050565b60008190508160005260206000209050919050565b8181036132dd5750506133b5565b6132e6826132a4565b67ffffffffffffffff8111156132ff576132fe612442565b5b6133098254612f27565b61331482828561306d565b6000601f8311600181146133435760008415613331578287015490505b61333b85826130de565b8655506133ae565b601f198416613351876132ba565b965061335c86612f58565b60005b828110156133845784890154825560018201915060018501945060208101905061335f565b868310156133a1578489015461339d601f8916826130c0565b8355505b6001600288020188555050505b5050505050505b565b7f4e487b7100000000000000000000000000000000000000000000000000000000600052601160045260246000fd5b60006133f1826123f1565b91506133fc836123f1565b9250828201905080821115613414576134136133b7565b5b92915050565b6000613425826123f1565b9150613430836123f1565b9250828203905081811115613448576134476133b7565b5b92915050565b6000613459826123f1565b91507fffffffffffffffffffffffffffffffffffffffffffffffffffffffffffffffff820361348b5761348a6133b7565b5b600182019050919050565b600081905092915050565b60006134ac8261293e565b6134b68185613496565b93506134c681856020860161295a565b80840191505092915050565b7f2d00000000000000000000000000000000000000000000000000000000000000600082015250565b6000613508600183613496565b9150613513826134d2565b600182019050919050565b600061352a82856134a1565b9150613535826134fb565b915061354182846134a1565b91508190509392505050565b7f4552433732313a207472616e7366657220746f206e6f6e20455243373231526560008201527f63656976657220696d706c656d656e7465720000000000000000000000000000602082015250565b60006135a9603283612d0b565b91506135b48261354d565b604082019050919050565b600060208201905081810360008301526135d88161359c565b9050919050565b7f4e487b7100000000000000000000000000000000000000000000000000000000600052601260045260246000fd5b7f4552433732313a206d696e7420746f20746865207a65726f2061646472657373600082015250565b6000613644602083612d0b565b915061364f8261360e565b602082019050919050565b6000602082019050818103600083015261367381613637565b9050919050565b7f4552433732313a20746f6b656e20616c7265616479206d696e74656400000000600082015250565b60006136b0601c83612d0b565b91506136bb8261367a565b602082019050919050565b600060208201905081810360008301526136df816136a3565b9050919050565b60006080820190506136fb6000830187612d55565b6137086020830186612d55565b61371560408301856128b0565b81810360608301526137278184612e14565b905095945050505050565b60007fffffffff0000000000000000000000000000000000000000000000000000000082169050919050565b61376781613732565b811461377257600080fd5b50565b6000815190506137848161375e565b92915050565b6000602082840312156137a05761379f6123e7565b5b60006137ae84828501613775565b9150509291505056fe68747470733a2f2f697066732e696f2f697066732f516d556257785564387358344d5a6f6a4b455255506d507539597441596659726f425334546531484a454b75637968747470733a2f2f697066732e696f2f697066732f516d625641427439734b704e55613844674d4a64653344424351796f72534354395631447a6436634a385a556d5068747470733a2f2f697066732e696f2f697066732f516d66424e4870787077554e67747736695842784b584c6256786f6d386d7064427367715a5a79353970524d354368747470733a2f2f697066732e696f2f697066732f516d5158655965397278526b6b716645423744725a52534732533179724e676a363456386d3676374b65747a516468747470733a2f2f697066732e696f2f697066732f516d55715a4b5275646e616e673147586244326e4848776d4a664e4e42465156646d6f483857416e65616969356868747470733a2f2f697066732e696f2f697066732f516d56357053734d47474d4c5733593979513871534c534d4451616b646e6a686a53346b356865366d4a79506548a2646970667358221220a5721696f713b09db3dd98205361c3c6f4de81260464f9578c2ec41df1006f5564736f6c63430008120033",
  "linkReferences": {},
  "deployedLinkReferences": {}
}