{
  "_format": "hh-sol-artifact-1",
  "contractName": "BridgeFacet",
  "sourceName": "contracts/facets/BridgeFacet.sol",
  "abi": [
    {
      "anonymous": false,
      "inputs": [
        {
          "indexed": true,
          "internalType": "address",
          "name": "owner",
          "type": "address"
        },
        {
          "indexed": true,
          "internalType": "address",
          "name": "approved",
          "type": "address"
        },
        {
          "indexed": true,
          "internalType": "uint256",
          "name": "tokenId",
          "type": "uint256"
        }
      ],
      "name": "Approval",
      "type": "event"
    },
    {
      "anonymous": false,
      "inputs": [
        {
          "indexed": true,
          "internalType": "address",
          "name": "owner",
          "type": "address"
        },
        {
          "indexed": true,
          "internalType": "address",
          "name": "operator",
          "type": "address"
        },
        {
          "indexed": false,
          "internalType": "bool",
          "name": "approved",
          "type": "bool"
        }
      ],
      "name": "ApprovalForAll",
      "type": "event"
    },
    {
      "anonymous": false,
      "inputs": [
        {
          "indexed": true,
          "internalType": "uint256",
          "name": "_chainId",
          "type": "uint256"
        },
        {
          "indexed": true,
          "internalType": "address",
          "name": "_portal",
          "type": "address"
        },
        {
          "indexed": true,
          "internalType": "address",
          "name": "_diamond",
          "type": "address"
        }
      ],
      "name": "BridgeCreated",
      "type": "event"
    },
    {
      "anonymous": false,
      "inputs": [
        {
          "indexed": true,
          "internalType": "uint256",
          "name": "_playerId",
          "type": "uint256"
        },
        {
          "components": [
            {
              "internalType": "uint256",
              "name": "class",
              "type": "uint256"
            },
            {
              "internalType": "uint256",
              "name": "level",
              "type": "uint256"
            },
            {
              "internalType": "uint256",
              "name": "xp",
              "type": "uint256"
            },
            {
              "internalType": "uint256",
              "name": "strength",
              "type": "uint256"
            },
            {
              "internalType": "uint256",
              "name": "health",
              "type": "uint256"
            },
            {
              "internalType": "uint256",
              "name": "magic",
              "type": "uint256"
            },
            {
              "internalType": "uint256",
              "name": "maxMana",
              "type": "uint256"
            },
            {
              "internalType": "uint256",
              "name": "agility",
              "type": "uint256"
            },
            {
              "internalType": "uint256",
              "name": "defense",
              "type": "uint256"
            },
            {
              "internalType": "uint256",
              "name": "baseChain",
              "type": "uint256"
            },
            {
              "internalType": "uint256",
              "name": "baseId",
              "type": "uint256"
            },
            {
              "internalType": "string",
              "name": "name",
              "type": "string"
            },
            {
              "internalType": "bool",
              "name": "isMale",
              "type": "bool"
            },
            {
              "internalType": "address",
              "name": "sender",
              "type": "address"
            }
          ],
          "indexed": false,
          "internalType": "struct BridgeFormat",
          "name": "_format",
          "type": "tuple"
        }
      ],
      "name": "BridgePlayer",
      "type": "event"
    },
    {
      "anonymous": false,
      "inputs": [
        {
          "indexed": true,
          "internalType": "uint256",
          "name": "_playerId",
          "type": "uint256"
        },
        {
          "components": [
            {
              "internalType": "uint256",
              "name": "class",
              "type": "uint256"
            },
            {
              "internalType": "uint256",
              "name": "level",
              "type": "uint256"
            },
            {
              "internalType": "uint256",
              "name": "xp",
              "type": "uint256"
            },
            {
              "internalType": "uint256",
              "name": "strength",
              "type": "uint256"
            },
            {
              "internalType": "uint256",
              "name": "health",
              "type": "uint256"
            },
            {
              "internalType": "uint256",
              "name": "magic",
              "type": "uint256"
            },
            {
              "internalType": "uint256",
              "name": "maxMana",
              "type": "uint256"
            },
            {
              "internalType": "uint256",
              "name": "agility",
              "type": "uint256"
            },
            {
              "internalType": "uint256",
              "name": "defense",
              "type": "uint256"
            },
            {
              "internalType": "uint256",
              "name": "baseChain",
              "type": "uint256"
            },
            {
              "internalType": "uint256",
              "name": "baseId",
              "type": "uint256"
            },
            {
              "internalType": "string",
              "name": "name",
              "type": "string"
            },
            {
              "internalType": "bool",
              "name": "isMale",
              "type": "bool"
            },
            {
              "internalType": "address",
              "name": "sender",
              "type": "address"
            }
          ],
          "indexed": false,
          "internalType": "struct BridgeFormat",
          "name": "_format",
          "type": "tuple"
        }
      ],
      "name": "ReMintPlayer",
      "type": "event"
    },
    {
      "anonymous": false,
      "inputs": [
        {
          "indexed": true,
          "internalType": "address",
          "name": "from",
          "type": "address"
        },
        {
          "indexed": true,
          "internalType": "address",
          "name": "to",
          "type": "address"
        },
        {
          "indexed": true,
          "internalType": "uint256",
          "name": "tokenId",
          "type": "uint256"
        }
      ],
      "name": "Transfer",
      "type": "event"
    },
    {
      "inputs": [
        {
          "internalType": "uint256",
          "name": "_playerId",
          "type": "uint256"
        },
        {
          "internalType": "uint256",
          "name": "_chainId",
          "type": "uint256"
        }
      ],
      "name": "bridgePlayer",
      "outputs": [],
      "stateMutability": "nonpayable",
      "type": "function"
    },
    {
      "inputs": [
        {
          "internalType": "uint256",
          "name": "_playerId",
          "type": "uint256"
        },
        {
          "internalType": "string",
          "name": "_chain",
          "type": "string"
        },
        {
          "internalType": "address",
          "name": "_contract",
          "type": "address"
        }
      ],
      "name": "bridgePlayerTest",
      "outputs": [],
      "stateMutability": "nonpayable",
      "type": "function"
    },
    {
      "inputs": [
        {
          "internalType": "string",
          "name": "_chain",
          "type": "string"
        },
        {
          "internalType": "address",
          "name": "_contract",
          "type": "address"
        }
      ],
      "name": "bridgeTest",
      "outputs": [],
      "stateMutability": "nonpayable",
      "type": "function"
    },
    {
      "inputs": [
        {
          "components": [
            {
              "internalType": "uint256",
              "name": "one",
              "type": "uint256"
            },
            {
              "internalType": "uint256",
              "name": "two",
              "type": "uint256"
            },
            {
              "internalType": "bool",
              "name": "three",
              "type": "bool"
            }
          ],
          "internalType": "struct Test",
          "name": "_test",
          "type": "tuple"
        }
      ],
      "name": "catchTest",
      "outputs": [],
      "stateMutability": "nonpayable",
      "type": "function"
    },
    {
      "inputs": [
        {
          "internalType": "uint256",
          "name": "_chainId",
          "type": "uint256"
        },
        {
          "internalType": "string",
          "name": "_name",
          "type": "string"
        },
        {
          "internalType": "address",
          "name": "_portal",
          "type": "address"
        },
        {
          "internalType": "address",
          "name": "_diamond",
          "type": "address"
        }
      ],
      "name": "createBridge",
      "outputs": [],
      "stateMutability": "nonpayable",
      "type": "function"
    },
    {
      "inputs": [
        {
          "internalType": "uint256",
          "name": "_chainId",
          "type": "uint256"
        }
      ],
      "name": "getChainData",
      "outputs": [
        {
          "components": [
            {
              "internalType": "uint256",
              "name": "chainId",
              "type": "uint256"
            },
            {
              "internalType": "string",
              "name": "name",
              "type": "string"
            },
            {
              "internalType": "address",
              "name": "portal",
              "type": "address"
            },
            {
              "internalType": "address",
              "name": "diamond",
              "type": "address"
            }
          ],
          "internalType": "struct ChainData",
          "name": "",
          "type": "tuple"
        }
      ],
      "stateMutability": "view",
      "type": "function"
    },
    {
      "inputs": [],
      "name": "getValueTest",
      "outputs": [
        {
          "internalType": "uint256",
          "name": "",
          "type": "uint256"
        }
      ],
      "stateMutability": "view",
      "type": "function"
    },
    {
      "inputs": [],
      "name": "omni",
      "outputs": [
        {
          "internalType": "contract IOmniPortal",
          "name": "",
          "type": "address"
        }
      ],
      "stateMutability": "view",
      "type": "function"
    },
    {
      "inputs": [
        {
          "components": [
            {
              "internalType": "uint256",
              "name": "class",
              "type": "uint256"
            },
            {
              "internalType": "uint256",
              "name": "level",
              "type": "uint256"
            },
            {
              "internalType": "uint256",
              "name": "xp",
              "type": "uint256"
            },
            {
              "internalType": "uint256",
              "name": "strength",
              "type": "uint256"
            },
            {
              "internalType": "uint256",
              "name": "health",
              "type": "uint256"
            },
            {
              "internalType": "uint256",
              "name": "magic",
              "type": "uint256"
            },
            {
              "internalType": "uint256",
              "name": "maxMana",
              "type": "uint256"
            },
            {
              "internalType": "uint256",
              "name": "agility",
              "type": "uint256"
            },
            {
              "internalType": "uint256",
              "name": "defense",
              "type": "uint256"
            },
            {
              "internalType": "uint256",
              "name": "baseChain",
              "type": "uint256"
            },
            {
              "internalType": "uint256",
              "name": "baseId",
              "type": "uint256"
            },
            {
              "internalType": "string",
              "name": "name",
              "type": "string"
            },
            {
              "internalType": "bool",
              "name": "isMale",
              "type": "bool"
            },
            {
              "internalType": "address",
              "name": "sender",
              "type": "address"
            }
          ],
          "internalType": "struct BridgeFormat",
          "name": "_format",
          "type": "tuple"
        }
      ],
      "name": "reMintPlayer",
      "outputs": [],
      "stateMutability": "nonpayable",
      "type": "function"
    },
    {
      "inputs": [],
      "name": "value",
      "outputs": [
        {
          "internalType": "uint256",
          "name": "",
          "type": "uint256"
        }
      ],
      "stateMutability": "view",
      "type": "function"
    }
  ],
  "bytecode": "0x608060405234801561001057600080fd5b506132a8806100206000396000f3fe608060405234801561001057600080fd5b506004361061009e5760003560e01c8063537ce61511610066578063537ce6151461013557806354250a13146101515780638d3390d01461016d578063aeb45f0114610189578063c3e4f9c2146101b95761009e565b806303f256ec146100a3578063082bb21c146100bf57806339acf9f1146100dd5780633fa4f245146100fb5780635272243314610119575b600080fd5b6100bd60048036038101906100b89190612097565b6101d5565b005b6100c7610242565b6040516100d49190612129565b60405180910390f35b6100e561024c565b6040516100f291906121a3565b60405180910390f35b610103610270565b6040516101109190612129565b60405180910390f35b610133600480360381019061012e9190612264565b610276565b005b61014f600480360381019061014a9190612291565b610284565b005b61016b6004803603810190610166919061243b565b61044c565b005b61018760048036038101906101829190612484565b6104ac565b005b6101a3600480360381019061019e91906124e0565b61064d565b6040516101b0919061260d565b60405180910390f35b6101d360048036038101906101ce919061262f565b610665565b005b6101e184848484610828565b8073ffffffffffffffffffffffffffffffffffffffff168273ffffffffffffffffffffffffffffffffffffffff16857f924c77d15e16cd31a7b4457de58065af652bd3178fe5f5f2ff801196f030fe7860405160405180910390a450505050565b6000600154905090565b60008054906101000a900473ffffffffffffffffffffffffffffffffffffffff1681565b60015481565b806000015160018190555050565b600061028f8261064d565b905080604001516000806101000a81548173ffffffffffffffffffffffffffffffffffffffff021916908373ffffffffffffffffffffffffffffffffffffffff16021790555060006102e08461094e565b905060008054906101000a900473ffffffffffffffffffffffffffffffffffffffff1673ffffffffffffffffffffffffffffffffffffffff1663381aa2cf836020015184606001516000620186a08660405160240161033f91906127db565b6040516020818303038152906040527fd7129e72000000000000000000000000000000000000000000000000000000007bffffffffffffffffffffffffffffffffffffffffffffffffffffffff19166020820180517bffffffffffffffffffffffffffffffffffffffffffffffffffffffff83818316178352505050506040518663ffffffff1660e01b81526004016103dc959493929190612935565b600060405180830381600087803b1580156103f657600080fd5b505af115801561040a573d6000803e3d6000fd5b50505050837f602103799a7c20f1b0af9606ecee1173039b639af978bf3755ef5db1a5209a6f8260405161043e91906127db565b60405180910390a250505050565b61045581610c91565b600061045f610e72565b9050807f038153a05f584c8a013d995510cb2a343c79259d90c1104781032846799cedbf8360405161049191906127db565b60405180910390a26104a8826101a0015182610e8a565b5050565b73c0400275f85b45dfd2cfc838da8ee4214b659e256000806101000a81548173ffffffffffffffffffffffffffffffffffffffff021916908373ffffffffffffffffffffffffffffffffffffffff16021790555060006040518060600160405280600181526020016002815260200160011515815250905060008054906101000a900473ffffffffffffffffffffffffffffffffffffffff1673ffffffffffffffffffffffffffffffffffffffff1663381aa2cf84846000620186a08660405160240161057991906129d8565b6040516020818303038152906040527f52722433000000000000000000000000000000000000000000000000000000007bffffffffffffffffffffffffffffffffffffffffffffffffffffffff19166020820180517bffffffffffffffffffffffffffffffffffffffffffffffffffffffff83818316178352505050506040518663ffffffff1660e01b8152600401610616959493929190612935565b600060405180830381600087803b15801561063057600080fd5b505af1158015610644573d6000803e3d6000fd5b50505050505050565b610655611dce565b61065e82610ea8565b9050919050565b73c0400275f85b45dfd2cfc838da8ee4214b659e256000806101000a81548173ffffffffffffffffffffffffffffffffffffffff021916908373ffffffffffffffffffffffffffffffffffffffff16021790555060006106c48461094e565b905060008054906101000a900473ffffffffffffffffffffffffffffffffffffffff1673ffffffffffffffffffffffffffffffffffffffff1663381aa2cf84846000620186a08660405160240161071b91906127db565b6040516020818303038152906040527fd7129e72000000000000000000000000000000000000000000000000000000007bffffffffffffffffffffffffffffffffffffffffffffffffffffffff19166020820180517bffffffffffffffffffffffffffffffffffffffffffffffffffffffff83818316178352505050506040518663ffffffff1660e01b81526004016107b8959493929190612935565b600060405180830381600087803b1580156107d257600080fd5b505af11580156107e6573d6000803e3d6000fd5b50505050837f602103799a7c20f1b0af9606ecee1173039b639af978bf3755ef5db1a5209a6f8260405161081a91906127db565b60405180910390a250505050565b600061083261102c565b905060405180608001604052808681526020018581526020018473ffffffffffffffffffffffffffffffffffffffff1681526020018373ffffffffffffffffffffffffffffffffffffffff168152508160000160008781526020019081526020016000206000820151816000015560208201518160010190816108b59190612bf5565b5060408201518160020160006101000a81548173ffffffffffffffffffffffffffffffffffffffff021916908373ffffffffffffffffffffffffffffffffffffffff16021790555060608201518160030160006101000a81548173ffffffffffffffffffffffffffffffffffffffff021916908373ffffffffffffffffffffffffffffffffffffffff1602179055509050505050505050565b610956611e22565b6000610960611059565b9050600061096c61102c565b9050600082600301600086815260200190815260200160002060020154146109c9576040517f08c379a00000000000000000000000000000000000000000000000000000000081526004016109c090612d13565b60405180910390fd5b3373ffffffffffffffffffffffffffffffffffffffff1682600201600086815260200190815260200160002060009054906101000a900473ffffffffffffffffffffffffffffffffffffffff1673ffffffffffffffffffffffffffffffffffffffff1614610a6c576040517f08c379a0000000000000000000000000000000000000000000000000000000008152600401610a6390612d7f565b60405180910390fd5b6064826003016000868152602001908152602001600020600201819055506000826003016000868152602001908152602001600020905060008083600201600088815260200190815260200160002060009054906101000a900460ff16610b0657469150869050600184600201600089815260200190815260200160002060006101000a81548160ff021916908315150217905550610b48565b83600301600088815260200190815260200160002054915083600101600083815260200190815260200160002060008881526020019081526020016000205490505b6000604051806101c00160405280856019015481526020018560000154815260200185600101548152602001856003015481526020018560040154815260200185600601548152602001856008015481526020018560090154815260200185600e0154815260200184815260200183815260200185600f018054610bcb90612a22565b80601f0160208091040260200160405190810160405280929190818152602001828054610bf790612a22565b8015610c445780601f10610c1957610100808354040283529160200191610c44565b820191906000526020600020905b815481529060010190602001808311610c2757829003601f168201915b505050505081526020018560110160009054906101000a900460ff16151581526020013373ffffffffffffffffffffffffffffffffffffffff168152509050809650505050505050919050565b6000610c9b611059565b90506000610ca761102c565b9050600080826001016000866101200151815260200190815260200160002060008661014001518152602001908152602001600020541115610e62578160010160008561012001518152602001908152602001600020600085610140015181526020019081526020016000205490506000836003016000838152602001908152602001600020600201819055508360200151836003016000838152602001908152602001600020600001819055508360400151836003016000838152602001908152602001600020600101819055508360600151836003016000838152602001908152602001600020600301819055508360800151836003016000838152602001908152602001600020600401819055508360800151836003016000838152602001908152602001600020600501819055508360a00151836003016000838152602001908152602001600020600601819055508360c00151836003016000838152602001908152602001600020600801819055508360c00151836003016000838152602001908152602001600020600701819055508360e0015183600301600083815260200190815260200160002060090181905550610e6c565b610e6b84611086565b5b50505050565b600080610e7d611059565b9050806001015491505090565b610ea48282604051806020016040528060008152506116b1565b5050565b610eb0611dce565b6000610eba61102c565b905080600001600084815260200190815260200160002060405180608001604052908160008201548152602001600182018054610ef690612a22565b80601f0160208091040260200160405190810160405280929190818152602001828054610f2290612a22565b8015610f6f5780601f10610f4457610100808354040283529160200191610f6f565b820191906000526020600020905b815481529060010190602001808311610f5257829003601f168201915b505050505081526020016002820160009054906101000a900473ffffffffffffffffffffffffffffffffffffffff1673ffffffffffffffffffffffffffffffffffffffff1673ffffffffffffffffffffffffffffffffffffffff1681526020016003820160009054906101000a900473ffffffffffffffffffffffffffffffffffffffff1673ffffffffffffffffffffffffffffffffffffffff1673ffffffffffffffffffffffffffffffffffffffff1681525050915050919050565b6000807f4cde922899fdacbde63ed2c277d08801981412358b79d054d98add0ca65dea1990508091505090565b6000807f3cab9a070a0c61cd0ae9d9e9e2c0781e5ca8691bec4087e5a4701d5ac018dd4e90508091505090565b6000611090611059565b9050600061109c61102c565b90508160010160008154809291906110b390612dce565b919050555081600101548160010160008561012001518152602001908152602001600020600085610140015181526020019081526020016000208190555060008160020160008460010154815260200190815260200160002060006101000a81548160ff0219169083151502179055508261012001518160030160008460010154815260200190815260200160002081905550600083610160015161115b846001015461170c565b60405160200161116c929190612e52565b6040516020818303038152906040529050606060008560000151036111d9578461018001516111b657604051806080016040528060438152602001613167604391399050806111d3565b604051806080016040528060438152602001613230604391399050805b5061128b565b600185600001510361123357846101800151611210576040518060800160405280604381526020016131ed6043913990508061122d565b6040518060800160405280604381526020016131aa604391399050805b5061128a565b60028560000151036112895784610180015161126a5760405180608001604052806043815260200161312460439139905080611287565b6040518060800160405280604381526020016130e1604391399050805b505b5b5b6040518061028001604052808660200151815260200186604001518152602001600081526020018660600151815260200186608001518152602001866080015181526020018660a0015181526020018660c0015181526020018660c0015181526020018660e001518152602001600181526020016001815260200160018152602001600181526020018661010001518152602001838152602001828152602001866101800151151581526020016040518060e0016040528060008152602001600081526020016000815260200160008152602001600081526020016000815260200160008152508152602001866000015181525084600301600086600101548152602001908152602001600020600082015181600001556020820151816001015560408201518160020155606082015181600301556080820151816004015560a0820151816005015560c0820151816006015560e082015181600701556101008201518160080155610120820151816009015561014082015181600a015561016082015181600b015561018082015181600c01556101a082015181600d01556101c082015181600e01556101e082015181600f01908161144b9190612bf5565b506102008201518160100190816114629190612bf5565b506102208201518160110160006101000a81548160ff02191690831515021790555061024082015181601201600082015181600001556020820151816001015560408201518160020155606082015181600301556080820151816004015560a0820151816005015560c08201518160060155505061026082015181601901559050506040518060e00160405280600081526020016000815260200160008152602001600081526020016000815260200160008152602001600081525084600801600086600101548152602001908152602001600020600082015181600001556020820151816001015560408201518160020155606082015181600301556080820151816004015560a0820151816005015560c08201518160060155905050846101a001518460020160008660010154815260200190815260200160002060006101000a81548173ffffffffffffffffffffffffffffffffffffffff021916908373ffffffffffffffffffffffffffffffffffffffff160217905550836007016000866101a0015173ffffffffffffffffffffffffffffffffffffffff1673ffffffffffffffffffffffffffffffffffffffff16815260200190815260200160002084600101549080600181540180825580915050600190039060005260206000200160009091909190915055836004016000866101a0015173ffffffffffffffffffffffffffffffffffffffff1673ffffffffffffffffffffffffffffffffffffffff16815260200190815260200160002060008154809291906116a590612dce565b91905055505050505050565b6116bb83836117da565b6116c86000848484611a09565b611707576040517f08c379a00000000000000000000000000000000000000000000000000000000081526004016116fe90612ee8565b60405180910390fd5b505050565b60606000600161171b84611b90565b01905060008167ffffffffffffffff81111561173a57611739611f0e565b5b6040519080825280601f01601f19166020018201604052801561176c5781602001600182028036833780820191505090505b509050600082602001820190505b6001156117cf578080600190039150507f3031323334353637383961626364656600000000000000000000000000000000600a86061a8153600a85816117c3576117c2612f08565b5b0494506000850361177a575b819350505050919050565b600073ffffffffffffffffffffffffffffffffffffffff168273ffffffffffffffffffffffffffffffffffffffff1603611849576040517f08c379a000000000000000000000000000000000000000000000000000000000815260040161184090612f83565b60405180910390fd5b61185281611ce3565b15611892576040517f08c379a000000000000000000000000000000000000000000000000000000000815260040161188990612fef565b60405180910390fd5b6118a0600083836001611d24565b6118a981611ce3565b156118e9576040517f08c379a00000000000000000000000000000000000000000000000000000000081526004016118e090612fef565b60405180910390fd5b60016118f3611d2a565b600a0160008473ffffffffffffffffffffffffffffffffffffffff1673ffffffffffffffffffffffffffffffffffffffff1681526020019081526020016000206000828254019250508190555081611949611d2a565b600901600083815260200190815260200160002060006101000a81548173ffffffffffffffffffffffffffffffffffffffff021916908373ffffffffffffffffffffffffffffffffffffffff160217905550808273ffffffffffffffffffffffffffffffffffffffff16600073ffffffffffffffffffffffffffffffffffffffff167fddf252ad1be2c89b69c2b068fc378daa952ba7f163c4a11628f55a4df523b3ef60405160405180910390a4611a05600083836001611d57565b5050565b6000611a2a8473ffffffffffffffffffffffffffffffffffffffff16611d5d565b15611b83578373ffffffffffffffffffffffffffffffffffffffff1663150b7a02611a53611d80565b8786866040518563ffffffff1660e01b8152600401611a75949392919061300f565b6020604051808303816000875af1925050508015611ab157506040513d601f19601f82011682018060405250810190611aae91906130b3565b60015b611b33573d8060008114611ae1576040519150601f19603f3d011682016040523d82523d6000602084013e611ae6565b606091505b506000815103611b2b576040517f08c379a0000000000000000000000000000000000000000000000000000000008152600401611b2290612ee8565b60405180910390fd5b805181602001fd5b63150b7a0260e01b7bffffffffffffffffffffffffffffffffffffffffffffffffffffffff1916817bffffffffffffffffffffffffffffffffffffffffffffffffffffffff191614915050611b88565b600190505b949350505050565b600080600090507a184f03e93ff9f4daa797ed6e38ed64bf6a1f0100000000000000008310611bee577a184f03e93ff9f4daa797ed6e38ed64bf6a1f0100000000000000008381611be457611be3612f08565b5b0492506040810190505b6d04ee2d6d415b85acef81000000008310611c2b576d04ee2d6d415b85acef81000000008381611c2157611c20612f08565b5b0492506020810190505b662386f26fc100008310611c5a57662386f26fc100008381611c5057611c4f612f08565b5b0492506010810190505b6305f5e1008310611c83576305f5e1008381611c7957611c78612f08565b5b0492506008810190505b6127108310611ca8576127108381611c9e57611c9d612f08565b5b0492506004810190505b60648310611ccb5760648381611cc157611cc0612f08565b5b0492506002810190505b600a8310611cda576001810190505b80915050919050565b60008073ffffffffffffffffffffffffffffffffffffffff16611d0583611d88565b73ffffffffffffffffffffffffffffffffffffffff1614159050919050565b50505050565b6000807f2569078dfb4b0305704d3008e7403993ae9601b85f7ae5e742de3de8f8011c4090508091505090565b50505050565b6000808273ffffffffffffffffffffffffffffffffffffffff163b119050919050565b600033905090565b6000611d92611d2a565b600901600083815260200190815260200160002060009054906101000a900473ffffffffffffffffffffffffffffffffffffffff169050919050565b60405180608001604052806000815260200160608152602001600073ffffffffffffffffffffffffffffffffffffffff168152602001600073ffffffffffffffffffffffffffffffffffffffff1681525090565b604051806101c00160405280600081526020016000815260200160008152602001600081526020016000815260200160008152602001600081526020016000815260200160008152602001600081526020016000815260200160608152602001600015158152602001600073ffffffffffffffffffffffffffffffffffffffff1681525090565b6000604051905090565b600080fd5b600080fd5b6000819050919050565b611ed081611ebd565b8114611edb57600080fd5b50565b600081359050611eed81611ec7565b92915050565b600080fd5b600080fd5b6000601f19601f8301169050919050565b7f4e487b7100000000000000000000000000000000000000000000000000000000600052604160045260246000fd5b611f4682611efd565b810181811067ffffffffffffffff82111715611f6557611f64611f0e565b5b80604052505050565b6000611f78611ea9565b9050611f848282611f3d565b919050565b600067ffffffffffffffff821115611fa457611fa3611f0e565b5b611fad82611efd565b9050602081019050919050565b82818337600083830152505050565b6000611fdc611fd784611f89565b611f6e565b905082815260208101848484011115611ff857611ff7611ef8565b5b612003848285611fba565b509392505050565b600082601f8301126120205761201f611ef3565b5b8135612030848260208601611fc9565b91505092915050565b600073ffffffffffffffffffffffffffffffffffffffff82169050919050565b600061206482612039565b9050919050565b61207481612059565b811461207f57600080fd5b50565b6000813590506120918161206b565b92915050565b600080600080608085870312156120b1576120b0611eb3565b5b60006120bf87828801611ede565b945050602085013567ffffffffffffffff8111156120e0576120df611eb8565b5b6120ec8782880161200b565b93505060406120fd87828801612082565b925050606061210e87828801612082565b91505092959194509250565b61212381611ebd565b82525050565b600060208201905061213e600083018461211a565b92915050565b6000819050919050565b600061216961216461215f84612039565b612144565b612039565b9050919050565b600061217b8261214e565b9050919050565b600061218d82612170565b9050919050565b61219d81612182565b82525050565b60006020820190506121b86000830184612194565b92915050565b600080fd5b600080fd5b60008115159050919050565b6121dd816121c8565b81146121e857600080fd5b50565b6000813590506121fa816121d4565b92915050565b600060608284031215612216576122156121be565b5b6122206060611f6e565b9050600061223084828501611ede565b600083015250602061224484828501611ede565b6020830152506040612258848285016121eb565b60408301525092915050565b60006060828403121561227a57612279611eb3565b5b600061228884828501612200565b91505092915050565b600080604083850312156122a8576122a7611eb3565b5b60006122b685828601611ede565b92505060206122c785828601611ede565b9150509250929050565b60006101c082840312156122e8576122e76121be565b5b6122f36101c0611f6e565b9050600061230384828501611ede565b600083015250602061231784828501611ede565b602083015250604061232b84828501611ede565b604083015250606061233f84828501611ede565b606083015250608061235384828501611ede565b60808301525060a061236784828501611ede565b60a08301525060c061237b84828501611ede565b60c08301525060e061238f84828501611ede565b60e0830152506101006123a484828501611ede565b610100830152506101206123ba84828501611ede565b610120830152506101406123d084828501611ede565b6101408301525061016082013567ffffffffffffffff8111156123f6576123f56121c3565b5b6124028482850161200b565b61016083015250610180612418848285016121eb565b610180830152506101a061242e84828501612082565b6101a08301525092915050565b60006020828403121561245157612450611eb3565b5b600082013567ffffffffffffffff81111561246f5761246e611eb8565b5b61247b848285016122d1565b91505092915050565b6000806040838503121561249b5761249a611eb3565b5b600083013567ffffffffffffffff8111156124b9576124b8611eb8565b5b6124c58582860161200b565b92505060206124d685828601612082565b9150509250929050565b6000602082840312156124f6576124f5611eb3565b5b600061250484828501611ede565b91505092915050565b61251681611ebd565b82525050565b600081519050919050565b600082825260208201905092915050565b60005b8381101561255657808201518184015260208101905061253b565b60008484015250505050565b600061256d8261251c565b6125778185612527565b9350612587818560208601612538565b61259081611efd565b840191505092915050565b6125a481612059565b82525050565b60006080830160008301516125c2600086018261250d565b50602083015184820360208601526125da8282612562565b91505060408301516125ef604086018261259b565b506060830151612602606086018261259b565b508091505092915050565b6000602082019050818103600083015261262781846125aa565b905092915050565b60008060006060848603121561264857612647611eb3565b5b600061265686828701611ede565b935050602084013567ffffffffffffffff81111561267757612676611eb8565b5b6126838682870161200b565b925050604061269486828701612082565b9150509250925092565b6126a7816121c8565b82525050565b60006101c0830160008301516126c6600086018261250d565b5060208301516126d9602086018261250d565b5060408301516126ec604086018261250d565b5060608301516126ff606086018261250d565b506080830151612712608086018261250d565b5060a083015161272560a086018261250d565b5060c083015161273860c086018261250d565b5060e083015161274b60e086018261250d565b5061010083015161276061010086018261250d565b5061012083015161277561012086018261250d565b5061014083015161278a61014086018261250d565b506101608301518482036101608601526127a48282612562565b9150506101808301516127bb61018086018261269e565b506101a08301516127d06101a086018261259b565b508091505092915050565b600060208201905081810360008301526127f581846126ad565b905092915050565b600082825260208201905092915050565b60006128198261251c565b61282381856127fd565b9350612833818560208601612538565b61283c81611efd565b840191505092915050565b61285081612059565b82525050565b6000819050919050565b600061287b61287661287184612856565b612144565b611ebd565b9050919050565b61288b81612860565b82525050565b6000819050919050565b600067ffffffffffffffff82169050919050565b60006128ca6128c56128c084612891565b612144565b61289b565b9050919050565b6128da816128af565b82525050565b600081519050919050565b600082825260208201905092915050565b6000612907826128e0565b61291181856128eb565b9350612921818560208601612538565b61292a81611efd565b840191505092915050565b600060a082019050818103600083015261294f818861280e565b905061295e6020830187612847565b61296b6040830186612882565b61297860608301856128d1565b818103608083015261298a81846128fc565b90509695505050505050565b6060820160008201516129ac600085018261250d565b5060208201516129bf602085018261250d565b5060408201516129d2604085018261269e565b50505050565b60006060820190506129ed6000830184612996565b92915050565b7f4e487b7100000000000000000000000000000000000000000000000000000000600052602260045260246000fd5b60006002820490506001821680612a3a57607f821691505b602082108103612a4d57612a4c6129f3565b5b50919050565b60008190508160005260206000209050919050565b60006020601f8301049050919050565b600082821b905092915050565b600060088302612ab57fffffffffffffffffffffffffffffffffffffffffffffffffffffffffffffffff82612a78565b612abf8683612a78565b95508019841693508086168417925050509392505050565b6000612af2612aed612ae884611ebd565b612144565b611ebd565b9050919050565b6000819050919050565b612b0c83612ad7565b612b20612b1882612af9565b848454612a85565b825550505050565b600090565b612b35612b28565b612b40818484612b03565b505050565b5b81811015612b6457612b59600082612b2d565b600181019050612b46565b5050565b601f821115612ba957612b7a81612a53565b612b8384612a68565b81016020851015612b92578190505b612ba6612b9e85612a68565b830182612b45565b50505b505050565b600082821c905092915050565b6000612bcc60001984600802612bae565b1980831691505092915050565b6000612be58383612bbb565b9150826002028217905092915050565b612bfe8261251c565b67ffffffffffffffff811115612c1757612c16611f0e565b5b612c218254612a22565b612c2c828285612b68565b600060209050601f831160018114612c5f5760008415612c4d578287015190505b612c578582612bd9565b865550612cbf565b601f198416612c6d86612a53565b60005b82811015612c9557848901518255600182019150602085019450602081019050612c70565b86831015612cb25784890151612cae601f891682612bbb565b8355505b6001600288020188555050505b505050505050565b7f796f7520617265206e6f742069646c6500000000000000000000000000000000600082015250565b6000612cfd6010836127fd565b9150612d0882612cc7565b602082019050919050565b60006020820190508181036000830152612d2c81612cf0565b9050919050565b7f796f7520617265206e6f7420746865206f776e65720000000000000000000000600082015250565b6000612d696015836127fd565b9150612d7482612d33565b602082019050919050565b60006020820190508181036000830152612d9881612d5c565b9050919050565b7f4e487b7100000000000000000000000000000000000000000000000000000000600052601160045260246000fd5b6000612dd982611ebd565b91507fffffffffffffffffffffffffffffffffffffffffffffffffffffffffffffffff8203612e0b57612e0a612d9f565b5b600182019050919050565b600081905092915050565b6000612e2c8261251c565b612e368185612e16565b9350612e46818560208601612538565b80840191505092915050565b6000612e5e8285612e21565b9150612e6a8284612e21565b91508190509392505050565b7f4552433732313a207472616e7366657220746f206e6f6e20455243373231526560008201527f63656976657220696d706c656d656e7465720000000000000000000000000000602082015250565b6000612ed26032836127fd565b9150612edd82612e76565b604082019050919050565b60006020820190508181036000830152612f0181612ec5565b9050919050565b7f4e487b7100000000000000000000000000000000000000000000000000000000600052601260045260246000fd5b7f4552433732313a206d696e7420746f20746865207a65726f2061646472657373600082015250565b6000612f6d6020836127fd565b9150612f7882612f37565b602082019050919050565b60006020820190508181036000830152612f9c81612f60565b9050919050565b7f4552433732313a20746f6b656e20616c7265616479206d696e74656400000000600082015250565b6000612fd9601c836127fd565b9150612fe482612fa3565b602082019050919050565b6000602082019050818103600083015261300881612fcc565b9050919050565b60006080820190506130246000830187612847565b6130316020830186612847565b61303e604083018561211a565b818103606083015261305081846128fc565b905095945050505050565b60007fffffffff0000000000000000000000000000000000000000000000000000000082169050919050565b6130908161305b565b811461309b57600080fd5b50565b6000815190506130ad81613087565b92915050565b6000602082840312156130c9576130c8611eb3565b5b60006130d78482850161309e565b9150509291505056fe68747470733a2f2f697066732e696f2f697066732f516d556257785564387358344d5a6f6a4b455255506d507539597441596659726f425334546531484a454b75637968747470733a2f2f697066732e696f2f697066732f516d625641427439734b704e55613844674d4a64653344424351796f72534354395631447a6436634a385a556d5068747470733a2f2f697066732e696f2f697066732f516d66424e4870787077554e67747736695842784b584c6256786f6d386d7064427367715a5a79353970524d354368747470733a2f2f697066732e696f2f697066732f516d5158655965397278526b6b716645423744725a52534732533179724e676a363456386d3676374b65747a516468747470733a2f2f697066732e696f2f697066732f516d55715a4b5275646e616e673147586244326e4848776d4a664e4e42465156646d6f483857416e65616969356868747470733a2f2f697066732e696f2f697066732f516d56357053734d47474d4c5733593979513871534c534d4451616b646e6a686a53346b356865366d4a79506548a264697066735822122094d2e301af5f302c809c7f79ef33a6cf3e512612f1d272f4aeae30f7a1c0936964736f6c63430008120033",
  "linkReferences": {},
  "deployedLinkReferences": {}
}