{
  "_format": "hh-sol-artifact-1",
  "contractName": "BridgeFacet",
  "sourceName": "contracts/facets/BridgeFacet.sol",
  "abi": [
    {
      "anonymous": false,
      "inputs": [
        {
          "indexed": true,
          "internalType": "address",
          "name": "owner",
          "type": "address"
        },
        {
          "indexed": true,
          "internalType": "address",
          "name": "approved",
          "type": "address"
        },
        {
          "indexed": true,
          "internalType": "uint256",
          "name": "tokenId",
          "type": "uint256"
        }
      ],
      "name": "Approval",
      "type": "event"
    },
    {
      "anonymous": false,
      "inputs": [
        {
          "indexed": true,
          "internalType": "address",
          "name": "owner",
          "type": "address"
        },
        {
          "indexed": true,
          "internalType": "address",
          "name": "operator",
          "type": "address"
        },
        {
          "indexed": false,
          "internalType": "bool",
          "name": "approved",
          "type": "bool"
        }
      ],
      "name": "ApprovalForAll",
      "type": "event"
    },
    {
      "anonymous": false,
      "inputs": [
        {
          "indexed": true,
          "internalType": "uint256",
          "name": "_chainId",
          "type": "uint256"
        },
        {
          "indexed": true,
          "internalType": "address",
          "name": "_portal",
          "type": "address"
        },
        {
          "indexed": true,
          "internalType": "address",
          "name": "_diamond",
          "type": "address"
        }
      ],
      "name": "BridgeCreated",
      "type": "event"
    },
    {
      "anonymous": false,
      "inputs": [
        {
          "indexed": true,
          "internalType": "uint256",
          "name": "_playerId",
          "type": "uint256"
        },
        {
          "components": [
            {
              "internalType": "uint256",
              "name": "class",
              "type": "uint256"
            },
            {
              "internalType": "uint256",
              "name": "level",
              "type": "uint256"
            },
            {
              "internalType": "uint256",
              "name": "xp",
              "type": "uint256"
            },
            {
              "internalType": "uint256",
              "name": "strength",
              "type": "uint256"
            },
            {
              "internalType": "uint256",
              "name": "health",
              "type": "uint256"
            },
            {
              "internalType": "uint256",
              "name": "magic",
              "type": "uint256"
            },
            {
              "internalType": "uint256",
              "name": "maxMana",
              "type": "uint256"
            },
            {
              "internalType": "uint256",
              "name": "agility",
              "type": "uint256"
            },
            {
              "internalType": "uint256",
              "name": "defense",
              "type": "uint256"
            },
            {
              "internalType": "uint256",
              "name": "baseChain",
              "type": "uint256"
            },
            {
              "internalType": "uint256",
              "name": "baseId",
              "type": "uint256"
            },
            {
              "internalType": "string",
              "name": "name",
              "type": "string"
            },
            {
              "internalType": "bool",
              "name": "isMale",
              "type": "bool"
            },
            {
              "internalType": "address",
              "name": "sender",
              "type": "address"
            }
          ],
          "indexed": false,
          "internalType": "struct BridgeFormat",
          "name": "_format",
          "type": "tuple"
        }
      ],
      "name": "BridgePlayer",
      "type": "event"
    },
    {
      "anonymous": false,
      "inputs": [
        {
          "indexed": true,
          "internalType": "uint256",
          "name": "_playerId",
          "type": "uint256"
        },
        {
          "components": [
            {
              "internalType": "uint256",
              "name": "class",
              "type": "uint256"
            },
            {
              "internalType": "uint256",
              "name": "level",
              "type": "uint256"
            },
            {
              "internalType": "uint256",
              "name": "xp",
              "type": "uint256"
            },
            {
              "internalType": "uint256",
              "name": "strength",
              "type": "uint256"
            },
            {
              "internalType": "uint256",
              "name": "health",
              "type": "uint256"
            },
            {
              "internalType": "uint256",
              "name": "magic",
              "type": "uint256"
            },
            {
              "internalType": "uint256",
              "name": "maxMana",
              "type": "uint256"
            },
            {
              "internalType": "uint256",
              "name": "agility",
              "type": "uint256"
            },
            {
              "internalType": "uint256",
              "name": "defense",
              "type": "uint256"
            },
            {
              "internalType": "uint256",
              "name": "baseChain",
              "type": "uint256"
            },
            {
              "internalType": "uint256",
              "name": "baseId",
              "type": "uint256"
            },
            {
              "internalType": "string",
              "name": "name",
              "type": "string"
            },
            {
              "internalType": "bool",
              "name": "isMale",
              "type": "bool"
            },
            {
              "internalType": "address",
              "name": "sender",
              "type": "address"
            }
          ],
          "indexed": false,
          "internalType": "struct BridgeFormat",
          "name": "_format",
          "type": "tuple"
        }
      ],
      "name": "ReMintPlayer",
      "type": "event"
    },
    {
      "anonymous": false,
      "inputs": [
        {
          "indexed": true,
          "internalType": "address",
          "name": "_sender",
          "type": "address"
        },
        {
          "indexed": true,
          "internalType": "uint256",
          "name": "_amount",
          "type": "uint256"
        }
      ],
      "name": "ReceiveGold",
      "type": "event"
    },
    {
      "anonymous": false,
      "inputs": [
        {
          "indexed": true,
          "internalType": "address",
          "name": "_sender",
          "type": "address"
        },
        {
          "indexed": true,
          "internalType": "uint256",
          "name": "_amount",
          "type": "uint256"
        }
      ],
      "name": "SendGold",
      "type": "event"
    },
    {
      "anonymous": false,
      "inputs": [
        {
          "indexed": true,
          "internalType": "address",
          "name": "from",
          "type": "address"
        },
        {
          "indexed": true,
          "internalType": "address",
          "name": "to",
          "type": "address"
        },
        {
          "indexed": true,
          "internalType": "uint256",
          "name": "tokenId",
          "type": "uint256"
        }
      ],
      "name": "Transfer",
      "type": "event"
    },
    {
      "inputs": [
        {
          "internalType": "string",
          "name": "_chain",
          "type": "string"
        },
        {
          "internalType": "address",
          "name": "_contract",
          "type": "address"
        },
        {
          "internalType": "uint256",
          "name": "_amount",
          "type": "uint256"
        }
      ],
      "name": "bridgeGold",
      "outputs": [],
      "stateMutability": "nonpayable",
      "type": "function"
    },
    {
      "inputs": [
        {
          "internalType": "uint256",
          "name": "_playerId",
          "type": "uint256"
        },
        {
          "internalType": "uint256",
          "name": "_chainId",
          "type": "uint256"
        }
      ],
      "name": "bridgePlayer",
      "outputs": [],
      "stateMutability": "nonpayable",
      "type": "function"
    },
    {
      "inputs": [
        {
          "internalType": "uint256",
          "name": "_playerId",
          "type": "uint256"
        },
        {
          "internalType": "string",
          "name": "_chain",
          "type": "string"
        },
        {
          "internalType": "address",
          "name": "_contract",
          "type": "address"
        }
      ],
      "name": "bridgePlayerTest",
      "outputs": [],
      "stateMutability": "nonpayable",
      "type": "function"
    },
    {
      "inputs": [
        {
          "internalType": "uint256",
          "name": "_chainId",
          "type": "uint256"
        },
        {
          "internalType": "string",
          "name": "_name",
          "type": "string"
        },
        {
          "internalType": "address",
          "name": "_portal",
          "type": "address"
        },
        {
          "internalType": "address",
          "name": "_diamond",
          "type": "address"
        }
      ],
      "name": "createBridge",
      "outputs": [],
      "stateMutability": "nonpayable",
      "type": "function"
    },
    {
      "inputs": [
        {
          "internalType": "uint256",
          "name": "_chainId",
          "type": "uint256"
        }
      ],
      "name": "getChainData",
      "outputs": [
        {
          "components": [
            {
              "internalType": "uint256",
              "name": "chainId",
              "type": "uint256"
            },
            {
              "internalType": "string",
              "name": "name",
              "type": "string"
            },
            {
              "internalType": "address",
              "name": "portal",
              "type": "address"
            },
            {
              "internalType": "address",
              "name": "diamond",
              "type": "address"
            }
          ],
          "internalType": "struct ChainData",
          "name": "",
          "type": "tuple"
        }
      ],
      "stateMutability": "view",
      "type": "function"
    },
    {
      "inputs": [
        {
          "components": [
            {
              "internalType": "uint256",
              "name": "class",
              "type": "uint256"
            },
            {
              "internalType": "uint256",
              "name": "level",
              "type": "uint256"
            },
            {
              "internalType": "uint256",
              "name": "xp",
              "type": "uint256"
            },
            {
              "internalType": "uint256",
              "name": "strength",
              "type": "uint256"
            },
            {
              "internalType": "uint256",
              "name": "health",
              "type": "uint256"
            },
            {
              "internalType": "uint256",
              "name": "magic",
              "type": "uint256"
            },
            {
              "internalType": "uint256",
              "name": "maxMana",
              "type": "uint256"
            },
            {
              "internalType": "uint256",
              "name": "agility",
              "type": "uint256"
            },
            {
              "internalType": "uint256",
              "name": "defense",
              "type": "uint256"
            },
            {
              "internalType": "uint256",
              "name": "baseChain",
              "type": "uint256"
            },
            {
              "internalType": "uint256",
              "name": "baseId",
              "type": "uint256"
            },
            {
              "internalType": "string",
              "name": "name",
              "type": "string"
            },
            {
              "internalType": "bool",
              "name": "isMale",
              "type": "bool"
            },
            {
              "internalType": "address",
              "name": "sender",
              "type": "address"
            }
          ],
          "internalType": "struct BridgeFormat",
          "name": "_format",
          "type": "tuple"
        }
      ],
      "name": "reMintPlayer",
      "outputs": [],
      "stateMutability": "nonpayable",
      "type": "function"
    },
    {
      "inputs": [
        {
          "components": [
            {
              "internalType": "address",
              "name": "sender",
              "type": "address"
            },
            {
              "internalType": "uint256",
              "name": "amount",
              "type": "uint256"
            }
          ],
          "internalType": "struct BridgegeCoinFormat",
          "name": "_format",
          "type": "tuple"
        }
      ],
      "name": "receiveGold",
      "outputs": [],
      "stateMutability": "nonpayable",
      "type": "function"
    },
    {
      "inputs": [
        {
          "internalType": "uint256",
          "name": "_playerId",
          "type": "uint256"
        }
      ],
      "name": "sanityCheck",
      "outputs": [
        {
          "internalType": "uint256",
          "name": "",
          "type": "uint256"
        },
        {
          "internalType": "uint256",
          "name": "",
          "type": "uint256"
        },
        {
          "internalType": "uint256",
          "name": "",
          "type": "uint256"
        },
        {
          "internalType": "uint256",
          "name": "",
          "type": "uint256"
        },
        {
          "internalType": "uint256",
          "name": "",
          "type": "uint256"
        },
        {
          "internalType": "bool",
          "name": "",
          "type": "bool"
        }
      ],
      "stateMutability": "view",
      "type": "function"
    }
  ],
  "bytecode": "0x608060405234801561001057600080fd5b5061366c806100206000396000f3fe608060405234801561001057600080fd5b50600436106100885760003560e01c806390601da31161005b57806390601da314610116578063aeb45f0114610132578063c3e4f9c214610162578063feea35c91461017e57610088565b806303f256ec1461008d578063537ce615146100a957806354250a13146100c5578063763b4ef0146100e1575b600080fd5b6100a760048036038101906100a291906122b8565b61019a565b005b6100c360048036038101906100be919061233b565b610207565b005b6100df60048036038101906100da9190612527565b610375565b005b6100fb60048036038101906100f69190612570565b61039d565b60405161010d969594939291906125bb565b60405180910390f35b610130600480360381019061012b919061266c565b6103c4565b005b61014c60048036038101906101479190612570565b610425565b6040516101599190612799565b60405180910390f35b61017c600480360381019061017791906127bb565b61043d565b005b6101986004803603810190610193919061282a565b6105a6565b005b6101a684848484610747565b8073ffffffffffffffffffffffffffffffffffffffff168273ffffffffffffffffffffffffffffffffffffffff16857f924c77d15e16cd31a7b4457de58065af652bd3178fe5f5f2ff801196f030fe7860405160405180910390a450505050565b600061021282610425565b905060008160400151905060006102288561086d565b90508173ffffffffffffffffffffffffffffffffffffffff1663381aa2cf846020015185606001516000620186a08660405160240161026791906129d6565b6040516020818303038152906040527f54250a13000000000000000000000000000000000000000000000000000000007bffffffffffffffffffffffffffffffffffffffffffffffffffffffff19166020820180517bffffffffffffffffffffffffffffffffffffffffffffffffffffffff83818316178352505050506040518663ffffffff1660e01b8152600401610304959493929190612b3a565b600060405180830381600087803b15801561031e57600080fd5b505af1158015610332573d6000803e3d6000fd5b50505050847f602103799a7c20f1b0af9606ecee1173039b639af978bf3755ef5db1a5209a6f8260405161036691906129d6565b60405180910390a25050505050565b61037e81610c48565b6000610388610e29565b9050610399826101a0015182610e41565b5050565b6000806000806000806103af87610e5f565b95509550955095509550955091939550919395565b6103d681600001518260200151610f39565b8060200151816000015173ffffffffffffffffffffffffffffffffffffffff167f2974932ea8347b7507a8cb3888088a5db0692804c1592c993279b17e7fa7d7f260405160405180910390a350565b61042d611fef565b61043682610fa2565b9050919050565b6000731b2c14b235e928b42ede9d83c8143fc9ec309742905060006104618561086d565b90508173ffffffffffffffffffffffffffffffffffffffff1663381aa2cf85856000620186a08660405160240161049891906129d6565b6040516020818303038152906040527f54250a13000000000000000000000000000000000000000000000000000000007bffffffffffffffffffffffffffffffffffffffffffffffffffffffff19166020820180517bffffffffffffffffffffffffffffffffffffffffffffffffffffffff83818316178352505050506040518663ffffffff1660e01b8152600401610535959493929190612b3a565b600060405180830381600087803b15801561054f57600080fd5b505af1158015610563573d6000803e3d6000fd5b50505050847f602103799a7c20f1b0af9606ecee1173039b639af978bf3755ef5db1a5209a6f8260405161059791906129d6565b60405180910390a25050505050565b6000731b2c14b235e928b42ede9d83c8143fc9ec3097429050600060405180604001604052803373ffffffffffffffffffffffffffffffffffffffff1681526020018481525090508173ffffffffffffffffffffffffffffffffffffffff1663381aa2cf86866000620186a0866040516024016106239190612bca565b6040516020818303038152906040527f90601da3000000000000000000000000000000000000000000000000000000007bffffffffffffffffffffffffffffffffffffffffffffffffffffffff19166020820180517bffffffffffffffffffffffffffffffffffffffffffffffffffffffff83818316178352505050506040518663ffffffff1660e01b81526004016106c0959493929190612b3a565b600060405180830381600087803b1580156106da57600080fd5b505af11580156106ee573d6000803e3d6000fd5b505050506106fc3384611126565b823373ffffffffffffffffffffffffffffffffffffffff167f639a1c2428edca612d7aa6a0f09df35033766e9b8578f6db38659900e23abf7260405160405180910390a35050505050565b60006107516111dd565b905060405180608001604052808681526020018581526020018473ffffffffffffffffffffffffffffffffffffffff1681526020018373ffffffffffffffffffffffffffffffffffffffff168152508160000160008781526020019081526020016000206000820151816000015560208201518160010190816107d49190612de7565b5060408201518160020160006101000a81548173ffffffffffffffffffffffffffffffffffffffff021916908373ffffffffffffffffffffffffffffffffffffffff16021790555060608201518160030160006101000a81548173ffffffffffffffffffffffffffffffffffffffff021916908373ffffffffffffffffffffffffffffffffffffffff1602179055509050505050505050565b610875612043565b600061087f61120a565b9050600061088b6111dd565b9050600082600301600086815260200190815260200160002060020154146108e8576040517f08c379a00000000000000000000000000000000000000000000000000000000081526004016108df90612f05565b60405180910390fd5b3373ffffffffffffffffffffffffffffffffffffffff1682600201600086815260200190815260200160002060009054906101000a900473ffffffffffffffffffffffffffffffffffffffff1673ffffffffffffffffffffffffffffffffffffffff161461098b576040517f08c379a000000000000000000000000000000000000000000000000000000000815260040161098290612f71565b60405180910390fd5b6064826003016000868152602001908152602001600020600201819055506000826003016000868152602001908152602001600020905060008083600301600088815260200190815260200160002060009054906101000a900460ff16610a9b57469150869050600184600301600089815260200190815260200160002060006101000a81548160ff02191690831515021790555086846001016000848152602001908152602001600020600089815260200190815260200160002081905550846003016000888152602001908152602001600020600f0184600201600084815260200190815260200160002060008981526020019081526020016000209081610a959190612fbc565b50610add565b83600401600088815260200190815260200160002054915083600101600083815260200190815260200160002060008881526020019081526020016000205490505b6000604051806101c00160405280856019015481526020018560000154815260200185600101548152602001856003015481526020018560040154815260200185600601548152602001856008015481526020018560090154815260200185600e0154815260200184815260200183815260200186600201600086815260200190815260200160002060008b81526020019081526020016000208054610b8290612c14565b80601f0160208091040260200160405190810160405280929190818152602001828054610bae90612c14565b8015610bfb5780601f10610bd057610100808354040283529160200191610bfb565b820191906000526020600020905b815481529060010190602001808311610bde57829003601f168201915b505050505081526020018560110160009054906101000a900460ff16151581526020013373ffffffffffffffffffffffffffffffffffffffff168152509050809650505050505050919050565b6000610c5261120a565b90506000610c5e6111dd565b9050600080826001016000866101200151815260200190815260200160002060008661014001518152602001908152602001600020541115610e19578160010160008561012001518152602001908152602001600020600085610140015181526020019081526020016000205490506000836003016000838152602001908152602001600020600201819055508360200151836003016000838152602001908152602001600020600001819055508360400151836003016000838152602001908152602001600020600101819055508360600151836003016000838152602001908152602001600020600301819055508360800151836003016000838152602001908152602001600020600401819055508360800151836003016000838152602001908152602001600020600501819055508360a00151836003016000838152602001908152602001600020600601819055508360c00151836003016000838152602001908152602001600020600801819055508360c00151836003016000838152602001908152602001600020600701819055508360e0015183600301600083815260200190815260200160002060090181905550610e23565b610e2284611237565b5b50505050565b600080610e3461120a565b9050806001015491505090565b610e5b8282604051806020016040528060008152506118a5565b5050565b6000806000806000806000610e726111dd565b90506000610e7e61120a565b90504682600101600046815260200190815260200160002060008b8152602001908152602001600020548360010160008560040160008e815260200190815260200160002054815260200190815260200160002060008c8152602001908152602001600020548460040160008d81526020019081526020016000205484600101548660030160008f815260200190815260200160002060009054906101000a900460ff16975097509750975097509750505091939550919395565b6000610f43611900565b9050818160000160008573ffffffffffffffffffffffffffffffffffffffff1673ffffffffffffffffffffffffffffffffffffffff1681526020019081526020016000206000828254610f9691906130d3565b92505081905550505050565b610faa611fef565b6000610fb46111dd565b905080600001600084815260200190815260200160002060405180608001604052908160008201548152602001600182018054610ff090612c14565b80601f016020809104026020016040519081016040528092919081815260200182805461101c90612c14565b80156110695780601f1061103e57610100808354040283529160200191611069565b820191906000526020600020905b81548152906001019060200180831161104c57829003601f168201915b505050505081526020016002820160009054906101000a900473ffffffffffffffffffffffffffffffffffffffff1673ffffffffffffffffffffffffffffffffffffffff1673ffffffffffffffffffffffffffffffffffffffff1681526020016003820160009054906101000a900473ffffffffffffffffffffffffffffffffffffffff1673ffffffffffffffffffffffffffffffffffffffff1673ffffffffffffffffffffffffffffffffffffffff1681525050915050919050565b6000611130611900565b9050818160000160008573ffffffffffffffffffffffffffffffffffffffff1673ffffffffffffffffffffffffffffffffffffffff16815260200190815260200160002054101561118057600080fd5b818160000160008573ffffffffffffffffffffffffffffffffffffffff1673ffffffffffffffffffffffffffffffffffffffff16815260200190815260200160002060008282546111d19190613107565b92505081905550505050565b6000807f4cde922899fdacbde63ed2c277d08801981412358b79d054d98add0ca65dea1990508091505090565b6000807f3cab9a070a0c61cd0ae9d9e9e2c0781e5ca8691bec4087e5a4701d5ac018dd4e90508091505090565b600061124161120a565b9050600061124d6111dd565b90508160010160008154809291906112649061313b565b919050555082610140015181600101600085610120015181526020019081526020016000206000846001015481526020019081526020016000208190555082610160015181600201600085610120015181526020019081526020016000206000856101400151815260200190815260200160002090816112e49190612de7565b5060018160030160008460010154815260200190815260200160002060006101000a81548160ff0219169083151502179055508261012001518160040160008460010154815260200190815260200160002081905550600083610160015161134f846001015461192d565b60405160200161136092919061320b565b6040516020818303038152906040529050606060008560000151036113cd578461018001516113aa5760405180608001604052806043815260200161352b604391399050806113c7565b6040518060800160405280604381526020016135f4604391399050805b5061147f565b600185600001510361142757846101800151611404576040518060800160405280604381526020016135b160439139905080611421565b60405180608001604052806043815260200161356e604391399050805b5061147e565b600285600001510361147d5784610180015161145e576040518060800160405280604381526020016134e86043913990508061147b565b6040518060800160405280604381526020016134a5604391399050805b505b5b5b6040518061028001604052808660200151815260200186604001518152602001600081526020018660600151815260200186608001518152602001866080015181526020018660a0015181526020018660c0015181526020018660c0015181526020018660e001518152602001600181526020016001815260200160018152602001600181526020018661010001518152602001838152602001828152602001866101800151151581526020016040518060e0016040528060008152602001600081526020016000815260200160008152602001600081526020016000815260200160008152508152602001866000015181525084600301600086600101548152602001908152602001600020600082015181600001556020820151816001015560408201518160020155606082015181600301556080820151816004015560a0820151816005015560c0820151816006015560e082015181600701556101008201518160080155610120820151816009015561014082015181600a015561016082015181600b015561018082015181600c01556101a082015181600d01556101c082015181600e01556101e082015181600f01908161163f9190612de7565b506102008201518160100190816116569190612de7565b506102208201518160110160006101000a81548160ff02191690831515021790555061024082015181601201600082015181600001556020820151816001015560408201518160020155606082015181600301556080820151816004015560a0820151816005015560c08201518160060155505061026082015181601901559050506040518060e00160405280600081526020016000815260200160008152602001600081526020016000815260200160008152602001600081525084600801600086600101548152602001908152602001600020600082015181600001556020820151816001015560408201518160020155606082015181600301556080820151816004015560a0820151816005015560c08201518160060155905050846101a001518460020160008660010154815260200190815260200160002060006101000a81548173ffffffffffffffffffffffffffffffffffffffff021916908373ffffffffffffffffffffffffffffffffffffffff160217905550836007016000866101a0015173ffffffffffffffffffffffffffffffffffffffff1673ffffffffffffffffffffffffffffffffffffffff16815260200190815260200160002084600101549080600181540180825580915050600190039060005260206000200160009091909190915055836004016000866101a0015173ffffffffffffffffffffffffffffffffffffffff1673ffffffffffffffffffffffffffffffffffffffff16815260200190815260200160002060008154809291906118999061313b565b91905055505050505050565b6118af83836119fb565b6118bc6000848484611c2a565b6118fb576040517f08c379a00000000000000000000000000000000000000000000000000000000081526004016118f2906132ac565b60405180910390fd5b505050565b6000807f2c89d74504b6ad8d4fbde22bc3474166bac5452a11195897f239d8bebe02d70790508091505090565b60606000600161193c84611db1565b01905060008167ffffffffffffffff81111561195b5761195a61212f565b5b6040519080825280601f01601f19166020018201604052801561198d5781602001600182028036833780820191505090505b509050600082602001820190505b6001156119f0578080600190039150507f3031323334353637383961626364656600000000000000000000000000000000600a86061a8153600a85816119e4576119e36132cc565b5b0494506000850361199b575b819350505050919050565b600073ffffffffffffffffffffffffffffffffffffffff168273ffffffffffffffffffffffffffffffffffffffff1603611a6a576040517f08c379a0000000000000000000000000000000000000000000000000000000008152600401611a6190613347565b60405180910390fd5b611a7381611f04565b15611ab3576040517f08c379a0000000000000000000000000000000000000000000000000000000008152600401611aaa906133b3565b60405180910390fd5b611ac1600083836001611f45565b611aca81611f04565b15611b0a576040517f08c379a0000000000000000000000000000000000000000000000000000000008152600401611b01906133b3565b60405180910390fd5b6001611b14611f4b565b600a0160008473ffffffffffffffffffffffffffffffffffffffff1673ffffffffffffffffffffffffffffffffffffffff1681526020019081526020016000206000828254019250508190555081611b6a611f4b565b600901600083815260200190815260200160002060006101000a81548173ffffffffffffffffffffffffffffffffffffffff021916908373ffffffffffffffffffffffffffffffffffffffff160217905550808273ffffffffffffffffffffffffffffffffffffffff16600073ffffffffffffffffffffffffffffffffffffffff167fddf252ad1be2c89b69c2b068fc378daa952ba7f163c4a11628f55a4df523b3ef60405160405180910390a4611c26600083836001611f78565b5050565b6000611c4b8473ffffffffffffffffffffffffffffffffffffffff16611f7e565b15611da4578373ffffffffffffffffffffffffffffffffffffffff1663150b7a02611c74611fa1565b8786866040518563ffffffff1660e01b8152600401611c9694939291906133d3565b6020604051808303816000875af1925050508015611cd257506040513d601f19601f82011682018060405250810190611ccf9190613477565b60015b611d54573d8060008114611d02576040519150601f19603f3d011682016040523d82523d6000602084013e611d07565b606091505b506000815103611d4c576040517f08c379a0000000000000000000000000000000000000000000000000000000008152600401611d43906132ac565b60405180910390fd5b805181602001fd5b63150b7a0260e01b7bffffffffffffffffffffffffffffffffffffffffffffffffffffffff1916817bffffffffffffffffffffffffffffffffffffffffffffffffffffffff191614915050611da9565b600190505b949350505050565b600080600090507a184f03e93ff9f4daa797ed6e38ed64bf6a1f0100000000000000008310611e0f577a184f03e93ff9f4daa797ed6e38ed64bf6a1f0100000000000000008381611e0557611e046132cc565b5b0492506040810190505b6d04ee2d6d415b85acef81000000008310611e4c576d04ee2d6d415b85acef81000000008381611e4257611e416132cc565b5b0492506020810190505b662386f26fc100008310611e7b57662386f26fc100008381611e7157611e706132cc565b5b0492506010810190505b6305f5e1008310611ea4576305f5e1008381611e9a57611e996132cc565b5b0492506008810190505b6127108310611ec9576127108381611ebf57611ebe6132cc565b5b0492506004810190505b60648310611eec5760648381611ee257611ee16132cc565b5b0492506002810190505b600a8310611efb576001810190505b80915050919050565b60008073ffffffffffffffffffffffffffffffffffffffff16611f2683611fa9565b73ffffffffffffffffffffffffffffffffffffffff1614159050919050565b50505050565b6000807f2569078dfb4b0305704d3008e7403993ae9601b85f7ae5e742de3de8f8011c4090508091505090565b50505050565b6000808273ffffffffffffffffffffffffffffffffffffffff163b119050919050565b600033905090565b6000611fb3611f4b565b600901600083815260200190815260200160002060009054906101000a900473ffffffffffffffffffffffffffffffffffffffff169050919050565b60405180608001604052806000815260200160608152602001600073ffffffffffffffffffffffffffffffffffffffff168152602001600073ffffffffffffffffffffffffffffffffffffffff1681525090565b604051806101c00160405280600081526020016000815260200160008152602001600081526020016000815260200160008152602001600081526020016000815260200160008152602001600081526020016000815260200160608152602001600015158152602001600073ffffffffffffffffffffffffffffffffffffffff1681525090565b6000604051905090565b600080fd5b600080fd5b6000819050919050565b6120f1816120de565b81146120fc57600080fd5b50565b60008135905061210e816120e8565b92915050565b600080fd5b600080fd5b6000601f19601f8301169050919050565b7f4e487b7100000000000000000000000000000000000000000000000000000000600052604160045260246000fd5b6121678261211e565b810181811067ffffffffffffffff821117156121865761218561212f565b5b80604052505050565b60006121996120ca565b90506121a5828261215e565b919050565b600067ffffffffffffffff8211156121c5576121c461212f565b5b6121ce8261211e565b9050602081019050919050565b82818337600083830152505050565b60006121fd6121f8846121aa565b61218f565b90508281526020810184848401111561221957612218612119565b5b6122248482856121db565b509392505050565b600082601f83011261224157612240612114565b5b81356122518482602086016121ea565b91505092915050565b600073ffffffffffffffffffffffffffffffffffffffff82169050919050565b60006122858261225a565b9050919050565b6122958161227a565b81146122a057600080fd5b50565b6000813590506122b28161228c565b92915050565b600080600080608085870312156122d2576122d16120d4565b5b60006122e0878288016120ff565b945050602085013567ffffffffffffffff811115612301576123006120d9565b5b61230d8782880161222c565b935050604061231e878288016122a3565b925050606061232f878288016122a3565b91505092959194509250565b60008060408385031215612352576123516120d4565b5b6000612360858286016120ff565b9250506020612371858286016120ff565b9150509250929050565b600080fd5b600080fd5b60008115159050919050565b61239a81612385565b81146123a557600080fd5b50565b6000813590506123b781612391565b92915050565b60006101c082840312156123d4576123d361237b565b5b6123df6101c061218f565b905060006123ef848285016120ff565b6000830152506020612403848285016120ff565b6020830152506040612417848285016120ff565b604083015250606061242b848285016120ff565b606083015250608061243f848285016120ff565b60808301525060a0612453848285016120ff565b60a08301525060c0612467848285016120ff565b60c08301525060e061247b848285016120ff565b60e083015250610100612490848285016120ff565b610100830152506101206124a6848285016120ff565b610120830152506101406124bc848285016120ff565b6101408301525061016082013567ffffffffffffffff8111156124e2576124e1612380565b5b6124ee8482850161222c565b61016083015250610180612504848285016123a8565b610180830152506101a061251a848285016122a3565b6101a08301525092915050565b60006020828403121561253d5761253c6120d4565b5b600082013567ffffffffffffffff81111561255b5761255a6120d9565b5b612567848285016123bd565b91505092915050565b600060208284031215612586576125856120d4565b5b6000612594848285016120ff565b91505092915050565b6125a6816120de565b82525050565b6125b581612385565b82525050565b600060c0820190506125d0600083018961259d565b6125dd602083018861259d565b6125ea604083018761259d565b6125f7606083018661259d565b612604608083018561259d565b61261160a08301846125ac565b979650505050505050565b6000604082840312156126325761263161237b565b5b61263c604061218f565b9050600061264c848285016122a3565b6000830152506020612660848285016120ff565b60208301525092915050565b600060408284031215612682576126816120d4565b5b60006126908482850161261c565b91505092915050565b6126a2816120de565b82525050565b600081519050919050565b600082825260208201905092915050565b60005b838110156126e25780820151818401526020810190506126c7565b60008484015250505050565b60006126f9826126a8565b61270381856126b3565b93506127138185602086016126c4565b61271c8161211e565b840191505092915050565b6127308161227a565b82525050565b600060808301600083015161274e6000860182612699565b506020830151848203602086015261276682826126ee565b915050604083015161277b6040860182612727565b50606083015161278e6060860182612727565b508091505092915050565b600060208201905081810360008301526127b38184612736565b905092915050565b6000806000606084860312156127d4576127d36120d4565b5b60006127e2868287016120ff565b935050602084013567ffffffffffffffff811115612803576128026120d9565b5b61280f8682870161222c565b9250506040612820868287016122a3565b9150509250925092565b600080600060608486031215612843576128426120d4565b5b600084013567ffffffffffffffff811115612861576128606120d9565b5b61286d8682870161222c565b935050602061287e868287016122a3565b925050604061288f868287016120ff565b9150509250925092565b6128a281612385565b82525050565b60006101c0830160008301516128c16000860182612699565b5060208301516128d46020860182612699565b5060408301516128e76040860182612699565b5060608301516128fa6060860182612699565b50608083015161290d6080860182612699565b5060a083015161292060a0860182612699565b5060c083015161293360c0860182612699565b5060e083015161294660e0860182612699565b5061010083015161295b610100860182612699565b50610120830151612970610120860182612699565b50610140830151612985610140860182612699565b5061016083015184820361016086015261299f82826126ee565b9150506101808301516129b6610180860182612899565b506101a08301516129cb6101a0860182612727565b508091505092915050565b600060208201905081810360008301526129f081846128a8565b905092915050565b600082825260208201905092915050565b6000612a14826126a8565b612a1e81856129f8565b9350612a2e8185602086016126c4565b612a378161211e565b840191505092915050565b612a4b8161227a565b82525050565b6000819050919050565b6000819050919050565b6000612a80612a7b612a7684612a51565b612a5b565b6120de565b9050919050565b612a9081612a65565b82525050565b6000819050919050565b600067ffffffffffffffff82169050919050565b6000612acf612aca612ac584612a96565b612a5b565b612aa0565b9050919050565b612adf81612ab4565b82525050565b600081519050919050565b600082825260208201905092915050565b6000612b0c82612ae5565b612b168185612af0565b9350612b268185602086016126c4565b612b2f8161211e565b840191505092915050565b600060a0820190508181036000830152612b548188612a09565b9050612b636020830187612a42565b612b706040830186612a87565b612b7d6060830185612ad6565b8181036080830152612b8f8184612b01565b90509695505050505050565b604082016000820151612bb16000850182612727565b506020820151612bc46020850182612699565b50505050565b6000604082019050612bdf6000830184612b9b565b92915050565b7f4e487b7100000000000000000000000000000000000000000000000000000000600052602260045260246000fd5b60006002820490506001821680612c2c57607f821691505b602082108103612c3f57612c3e612be5565b5b50919050565b60008190508160005260206000209050919050565b60006020601f8301049050919050565b600082821b905092915050565b600060088302612ca77fffffffffffffffffffffffffffffffffffffffffffffffffffffffffffffffff82612c6a565b612cb18683612c6a565b95508019841693508086168417925050509392505050565b6000612ce4612cdf612cda846120de565b612a5b565b6120de565b9050919050565b6000819050919050565b612cfe83612cc9565b612d12612d0a82612ceb565b848454612c77565b825550505050565b600090565b612d27612d1a565b612d32818484612cf5565b505050565b5b81811015612d5657612d4b600082612d1f565b600181019050612d38565b5050565b601f821115612d9b57612d6c81612c45565b612d7584612c5a565b81016020851015612d84578190505b612d98612d9085612c5a565b830182612d37565b50505b505050565b600082821c905092915050565b6000612dbe60001984600802612da0565b1980831691505092915050565b6000612dd78383612dad565b9150826002028217905092915050565b612df0826126a8565b67ffffffffffffffff811115612e0957612e0861212f565b5b612e138254612c14565b612e1e828285612d5a565b600060209050601f831160018114612e515760008415612e3f578287015190505b612e498582612dcb565b865550612eb1565b601f198416612e5f86612c45565b60005b82811015612e8757848901518255600182019150602085019450602081019050612e62565b86831015612ea45784890151612ea0601f891682612dad565b8355505b6001600288020188555050505b505050505050565b7f796f7520617265206e6f742069646c6500000000000000000000000000000000600082015250565b6000612eef6010836129f8565b9150612efa82612eb9565b602082019050919050565b60006020820190508181036000830152612f1e81612ee2565b9050919050565b7f796f7520617265206e6f7420746865206f776e65720000000000000000000000600082015250565b6000612f5b6015836129f8565b9150612f6682612f25565b602082019050919050565b60006020820190508181036000830152612f8a81612f4e565b9050919050565b600081549050612fa081612c14565b9050919050565b60008190508160005260206000209050919050565b818103612fca5750506130a2565b612fd382612f91565b67ffffffffffffffff811115612fec57612feb61212f565b5b612ff68254612c14565b613001828285612d5a565b6000601f831160018114613030576000841561301e578287015490505b6130288582612dcb565b86555061309b565b601f19841661303e87612fa7565b965061304986612c45565b60005b828110156130715784890154825560018201915060018501945060208101905061304c565b8683101561308e578489015461308a601f891682612dad565b8355505b6001600288020188555050505b5050505050505b565b7f4e487b7100000000000000000000000000000000000000000000000000000000600052601160045260246000fd5b60006130de826120de565b91506130e9836120de565b9250828201905080821115613101576131006130a4565b5b92915050565b6000613112826120de565b915061311d836120de565b9250828203905081811115613135576131346130a4565b5b92915050565b6000613146826120de565b91507fffffffffffffffffffffffffffffffffffffffffffffffffffffffffffffffff8203613178576131776130a4565b5b600182019050919050565b600081905092915050565b6000613199826126a8565b6131a38185613183565b93506131b38185602086016126c4565b80840191505092915050565b7f2d00000000000000000000000000000000000000000000000000000000000000600082015250565b60006131f5600183613183565b9150613200826131bf565b600182019050919050565b6000613217828561318e565b9150613222826131e8565b915061322e828461318e565b91508190509392505050565b7f4552433732313a207472616e7366657220746f206e6f6e20455243373231526560008201527f63656976657220696d706c656d656e7465720000000000000000000000000000602082015250565b60006132966032836129f8565b91506132a18261323a565b604082019050919050565b600060208201905081810360008301526132c581613289565b9050919050565b7f4e487b7100000000000000000000000000000000000000000000000000000000600052601260045260246000fd5b7f4552433732313a206d696e7420746f20746865207a65726f2061646472657373600082015250565b60006133316020836129f8565b915061333c826132fb565b602082019050919050565b6000602082019050818103600083015261336081613324565b9050919050565b7f4552433732313a20746f6b656e20616c7265616479206d696e74656400000000600082015250565b600061339d601c836129f8565b91506133a882613367565b602082019050919050565b600060208201905081810360008301526133cc81613390565b9050919050565b60006080820190506133e86000830187612a42565b6133f56020830186612a42565b613402604083018561259d565b81810360608301526134148184612b01565b905095945050505050565b60007fffffffff0000000000000000000000000000000000000000000000000000000082169050919050565b6134548161341f565b811461345f57600080fd5b50565b6000815190506134718161344b565b92915050565b60006020828403121561348d5761348c6120d4565b5b600061349b84828501613462565b9150509291505056fe68747470733a2f2f697066732e696f2f697066732f516d556257785564387358344d5a6f6a4b455255506d507539597441596659726f425334546531484a454b75637968747470733a2f2f697066732e696f2f697066732f516d625641427439734b704e55613844674d4a64653344424351796f72534354395631447a6436634a385a556d5068747470733a2f2f697066732e696f2f697066732f516d66424e4870787077554e67747736695842784b584c6256786f6d386d7064427367715a5a79353970524d354368747470733a2f2f697066732e696f2f697066732f516d5158655965397278526b6b716645423744725a52534732533179724e676a363456386d3676374b65747a516468747470733a2f2f697066732e696f2f697066732f516d55715a4b5275646e616e673147586244326e4848776d4a664e4e42465156646d6f483857416e65616969356868747470733a2f2f697066732e696f2f697066732f516d56357053734d47474d4c5733593979513871534c534d4451616b646e6a686a53346b356865366d4a79506548a2646970667358221220a9ff196325c6be982438e2961b1b3de6d22dae368591930e6c4587ec9c738ff164736f6c63430008120033",
  "linkReferences": {},
  "deployedLinkReferences": {}
}