{
  "_format": "hh-sol-artifact-1",
  "contractName": "BridgeFacet",
  "sourceName": "contracts/facets/BridgeFacet.sol",
  "abi": [
    {
      "anonymous": false,
      "inputs": [
        {
          "indexed": false,
          "internalType": "uint256",
          "name": "count",
          "type": "uint256"
        }
      ],
      "name": "Increment",
      "type": "event"
    },
    {
      "inputs": [],
      "name": "count",
      "outputs": [
        {
          "internalType": "uint256",
          "name": "",
          "type": "uint256"
        }
      ],
      "stateMutability": "view",
      "type": "function"
    },
    {
      "inputs": [
        {
          "internalType": "string",
          "name": "",
          "type": "string"
        }
      ],
      "name": "countByChain",
      "outputs": [
        {
          "internalType": "uint256",
          "name": "",
          "type": "uint256"
        }
      ],
      "stateMutability": "view",
      "type": "function"
    },
    {
      "inputs": [],
      "name": "getCounter",
      "outputs": [
        {
          "internalType": "uint256",
          "name": "",
          "type": "uint256"
        }
      ],
      "stateMutability": "view",
      "type": "function"
    },
    {
      "inputs": [],
      "name": "globalBlockNumber",
      "outputs": [
        {
          "internalType": "uint256",
          "name": "",
          "type": "uint256"
        }
      ],
      "stateMutability": "view",
      "type": "function"
    },
    {
      "inputs": [],
      "name": "globalCount",
      "outputs": [
        {
          "internalType": "uint256",
          "name": "",
          "type": "uint256"
        }
      ],
      "stateMutability": "view",
      "type": "function"
    },
    {
      "inputs": [
        {
          "internalType": "string",
          "name": "chain",
          "type": "string"
        },
        {
          "internalType": "address",
          "name": "counter",
          "type": "address"
        }
      ],
      "name": "incrementOnChainRU",
      "outputs": [],
      "stateMutability": "nonpayable",
      "type": "function"
    },
    {
      "inputs": [],
      "name": "incrementRU",
      "outputs": [],
      "stateMutability": "nonpayable",
      "type": "function"
    },
    {
      "inputs": [],
      "name": "omni",
      "outputs": [
        {
          "internalType": "contract IOmniPortal",
          "name": "",
          "type": "address"
        }
      ],
      "stateMutability": "view",
      "type": "function"
    }
  ],
  "bytecode": "0x608060405234801561001057600080fd5b506108e9806100206000396000f3fe608060405234801561001057600080fd5b50600436106100885760003560e01c80638ada066e1161005b5780638ada066e14610103578063a1be482614610121578063d59aaa1e1461012b578063e84a7bc01461014957610088565b806306661abd1461008d578063151e70f5146100ab5780632bf4bff8146100c757806339acf9f1146100e5575b600080fd5b610095610179565b6040516100a29190610390565b60405180910390f35b6100c560048036038101906100c09190610563565b61017f565b005b6100cf6102f3565b6040516100dc9190610390565b60405180910390f35b6100ed6102f9565b6040516100fa919061061e565b60405180910390f35b61010b61031f565b6040516101189190610390565b60405180910390f35b610129610328565b005b610133610343565b6040516101409190610390565b60405180910390f35b610163600480360381019061015e9190610639565b610349565b6040516101709190610390565b60405180910390f35b60005481565b73c0400275f85b45dfd2cfc838da8ee4214b659e25600460006101000a81548173ffffffffffffffffffffffffffffffffffffffff021916908373ffffffffffffffffffffffffffffffffffffffff160217905550600460009054906101000a900473ffffffffffffffffffffffffffffffffffffffff1673ffffffffffffffffffffffffffffffffffffffff1663381aa2cf83836000620186a06040516024016040516020818303038152906040527fa1be4826000000000000000000000000000000000000000000000000000000007bffffffffffffffffffffffffffffffffffffffffffffffffffffffff19166020820180517bffffffffffffffffffffffffffffffffffffffffffffffffffffffff83818316178352505050506040518663ffffffff1660e01b81526004016102bd9594939291906107ef565b600060405180830381600087803b1580156102d757600080fd5b505af11580156102eb573d6000803e3d6000fd5b505050505050565b60025481565b600460009054906101000a900473ffffffffffffffffffffffffffffffffffffffff1681565b60008054905090565b600160008082825461033a919061087f565b92505081905550565b60015481565b6003818051602081018201805184825260208301602085012081835280955050505050506000915090505481565b6000819050919050565b61038a81610377565b82525050565b60006020820190506103a56000830184610381565b92915050565b6000604051905090565b600080fd5b600080fd5b600080fd5b600080fd5b6000601f19601f8301169050919050565b7f4e487b7100000000000000000000000000000000000000000000000000000000600052604160045260246000fd5b610412826103c9565b810181811067ffffffffffffffff82111715610431576104306103da565b5b80604052505050565b60006104446103ab565b90506104508282610409565b919050565b600067ffffffffffffffff8211156104705761046f6103da565b5b610479826103c9565b9050602081019050919050565b82818337600083830152505050565b60006104a86104a384610455565b61043a565b9050828152602081018484840111156104c4576104c36103c4565b5b6104cf848285610486565b509392505050565b600082601f8301126104ec576104eb6103bf565b5b81356104fc848260208601610495565b91505092915050565b600073ffffffffffffffffffffffffffffffffffffffff82169050919050565b600061053082610505565b9050919050565b61054081610525565b811461054b57600080fd5b50565b60008135905061055d81610537565b92915050565b6000806040838503121561057a576105796103b5565b5b600083013567ffffffffffffffff811115610598576105976103ba565b5b6105a4858286016104d7565b92505060206105b58582860161054e565b9150509250929050565b6000819050919050565b60006105e46105df6105da84610505565b6105bf565b610505565b9050919050565b60006105f6826105c9565b9050919050565b6000610608826105eb565b9050919050565b610618816105fd565b82525050565b6000602082019050610633600083018461060f565b92915050565b60006020828403121561064f5761064e6103b5565b5b600082013567ffffffffffffffff81111561066d5761066c6103ba565b5b610679848285016104d7565b91505092915050565b600081519050919050565b600082825260208201905092915050565b60005b838110156106bc5780820151818401526020810190506106a1565b60008484015250505050565b60006106d382610682565b6106dd818561068d565b93506106ed81856020860161069e565b6106f6816103c9565b840191505092915050565b61070a81610525565b82525050565b6000819050919050565b600061073561073061072b84610710565b6105bf565b610377565b9050919050565b6107458161071a565b82525050565b6000819050919050565b600067ffffffffffffffff82169050919050565b600061078461077f61077a8461074b565b6105bf565b610755565b9050919050565b61079481610769565b82525050565b600081519050919050565b600082825260208201905092915050565b60006107c18261079a565b6107cb81856107a5565b93506107db81856020860161069e565b6107e4816103c9565b840191505092915050565b600060a082019050818103600083015261080981886106c8565b90506108186020830187610701565b610825604083018661073c565b610832606083018561078b565b818103608083015261084481846107b6565b90509695505050505050565b7f4e487b7100000000000000000000000000000000000000000000000000000000600052601160045260246000fd5b600061088a82610377565b915061089583610377565b92508282019050808211156108ad576108ac610850565b5b9291505056fea2646970667358221220737d8e5d01ff8eaae31de9eb1ff16d4a3387c9d55d1c0df0f54b49902766349e64736f6c63430008120033",
  "linkReferences": {},
  "deployedLinkReferences": {}
}