{
  "_format": "hh-sol-artifact-1",
  "contractName": "BridgeFacet",
  "sourceName": "contracts/facets/BridgeFacet.sol",
  "abi": [
    {
      "anonymous": false,
      "inputs": [
        {
          "indexed": true,
          "internalType": "address",
          "name": "owner",
          "type": "address"
        },
        {
          "indexed": true,
          "internalType": "address",
          "name": "approved",
          "type": "address"
        },
        {
          "indexed": true,
          "internalType": "uint256",
          "name": "tokenId",
          "type": "uint256"
        }
      ],
      "name": "Approval",
      "type": "event"
    },
    {
      "anonymous": false,
      "inputs": [
        {
          "indexed": true,
          "internalType": "address",
          "name": "owner",
          "type": "address"
        },
        {
          "indexed": true,
          "internalType": "address",
          "name": "operator",
          "type": "address"
        },
        {
          "indexed": false,
          "internalType": "bool",
          "name": "approved",
          "type": "bool"
        }
      ],
      "name": "ApprovalForAll",
      "type": "event"
    },
    {
      "anonymous": false,
      "inputs": [
        {
          "indexed": true,
          "internalType": "uint256",
          "name": "_chainId",
          "type": "uint256"
        },
        {
          "indexed": true,
          "internalType": "address",
          "name": "_portal",
          "type": "address"
        },
        {
          "indexed": true,
          "internalType": "address",
          "name": "_diamond",
          "type": "address"
        }
      ],
      "name": "BridgeCreated",
      "type": "event"
    },
    {
      "anonymous": false,
      "inputs": [
        {
          "indexed": true,
          "internalType": "uint256",
          "name": "_playerId",
          "type": "uint256"
        },
        {
          "components": [
            {
              "internalType": "uint256",
              "name": "class",
              "type": "uint256"
            },
            {
              "internalType": "uint256",
              "name": "level",
              "type": "uint256"
            },
            {
              "internalType": "uint256",
              "name": "xp",
              "type": "uint256"
            },
            {
              "internalType": "uint256",
              "name": "strength",
              "type": "uint256"
            },
            {
              "internalType": "uint256",
              "name": "health",
              "type": "uint256"
            },
            {
              "internalType": "uint256",
              "name": "magic",
              "type": "uint256"
            },
            {
              "internalType": "uint256",
              "name": "maxMana",
              "type": "uint256"
            },
            {
              "internalType": "uint256",
              "name": "agility",
              "type": "uint256"
            },
            {
              "internalType": "uint256",
              "name": "defense",
              "type": "uint256"
            },
            {
              "internalType": "uint256",
              "name": "baseChain",
              "type": "uint256"
            },
            {
              "internalType": "uint256",
              "name": "baseId",
              "type": "uint256"
            },
            {
              "internalType": "string",
              "name": "name",
              "type": "string"
            },
            {
              "internalType": "bool",
              "name": "isMale",
              "type": "bool"
            },
            {
              "internalType": "address",
              "name": "sender",
              "type": "address"
            }
          ],
          "indexed": false,
          "internalType": "struct BridgeFormat",
          "name": "_format",
          "type": "tuple"
        }
      ],
      "name": "BridgePlayer",
      "type": "event"
    },
    {
      "anonymous": false,
      "inputs": [
        {
          "indexed": true,
          "internalType": "uint256",
          "name": "_playerId",
          "type": "uint256"
        },
        {
          "components": [
            {
              "internalType": "uint256",
              "name": "class",
              "type": "uint256"
            },
            {
              "internalType": "uint256",
              "name": "level",
              "type": "uint256"
            },
            {
              "internalType": "uint256",
              "name": "xp",
              "type": "uint256"
            },
            {
              "internalType": "uint256",
              "name": "strength",
              "type": "uint256"
            },
            {
              "internalType": "uint256",
              "name": "health",
              "type": "uint256"
            },
            {
              "internalType": "uint256",
              "name": "magic",
              "type": "uint256"
            },
            {
              "internalType": "uint256",
              "name": "maxMana",
              "type": "uint256"
            },
            {
              "internalType": "uint256",
              "name": "agility",
              "type": "uint256"
            },
            {
              "internalType": "uint256",
              "name": "defense",
              "type": "uint256"
            },
            {
              "internalType": "uint256",
              "name": "baseChain",
              "type": "uint256"
            },
            {
              "internalType": "uint256",
              "name": "baseId",
              "type": "uint256"
            },
            {
              "internalType": "string",
              "name": "name",
              "type": "string"
            },
            {
              "internalType": "bool",
              "name": "isMale",
              "type": "bool"
            },
            {
              "internalType": "address",
              "name": "sender",
              "type": "address"
            }
          ],
          "indexed": false,
          "internalType": "struct BridgeFormat",
          "name": "_format",
          "type": "tuple"
        }
      ],
      "name": "ReMintPlayer",
      "type": "event"
    },
    {
      "anonymous": false,
      "inputs": [
        {
          "indexed": true,
          "internalType": "address",
          "name": "_sender",
          "type": "address"
        },
        {
          "indexed": true,
          "internalType": "uint256",
          "name": "_amount",
          "type": "uint256"
        }
      ],
      "name": "ReceiveGold",
      "type": "event"
    },
    {
      "anonymous": false,
      "inputs": [
        {
          "indexed": true,
          "internalType": "address",
          "name": "_sender",
          "type": "address"
        },
        {
          "indexed": true,
          "internalType": "uint256",
          "name": "_amount",
          "type": "uint256"
        }
      ],
      "name": "SendGold",
      "type": "event"
    },
    {
      "anonymous": false,
      "inputs": [
        {
          "indexed": true,
          "internalType": "address",
          "name": "from",
          "type": "address"
        },
        {
          "indexed": true,
          "internalType": "address",
          "name": "to",
          "type": "address"
        },
        {
          "indexed": true,
          "internalType": "uint256",
          "name": "tokenId",
          "type": "uint256"
        }
      ],
      "name": "Transfer",
      "type": "event"
    },
    {
      "inputs": [
        {
          "internalType": "string",
          "name": "_chain",
          "type": "string"
        },
        {
          "internalType": "address",
          "name": "_contract",
          "type": "address"
        },
        {
          "internalType": "uint256",
          "name": "_amount",
          "type": "uint256"
        }
      ],
      "name": "bridgeGold",
      "outputs": [],
      "stateMutability": "nonpayable",
      "type": "function"
    },
    {
      "inputs": [
        {
          "internalType": "uint256",
          "name": "_playerId",
          "type": "uint256"
        },
        {
          "internalType": "uint256",
          "name": "_chainId",
          "type": "uint256"
        }
      ],
      "name": "bridgePlayer",
      "outputs": [],
      "stateMutability": "nonpayable",
      "type": "function"
    },
    {
      "inputs": [
        {
          "internalType": "uint256",
          "name": "_playerId",
          "type": "uint256"
        },
        {
          "internalType": "string",
          "name": "_chain",
          "type": "string"
        },
        {
          "internalType": "address",
          "name": "_contract",
          "type": "address"
        }
      ],
      "name": "bridgePlayerTest",
      "outputs": [],
      "stateMutability": "nonpayable",
      "type": "function"
    },
    {
      "inputs": [
        {
          "internalType": "uint256",
          "name": "_chainId",
          "type": "uint256"
        },
        {
          "internalType": "string",
          "name": "_name",
          "type": "string"
        },
        {
          "internalType": "address",
          "name": "_portal",
          "type": "address"
        },
        {
          "internalType": "address",
          "name": "_diamond",
          "type": "address"
        }
      ],
      "name": "createBridge",
      "outputs": [],
      "stateMutability": "nonpayable",
      "type": "function"
    },
    {
      "inputs": [
        {
          "internalType": "uint256",
          "name": "_chainId",
          "type": "uint256"
        }
      ],
      "name": "getChainData",
      "outputs": [
        {
          "components": [
            {
              "internalType": "uint256",
              "name": "chainId",
              "type": "uint256"
            },
            {
              "internalType": "string",
              "name": "name",
              "type": "string"
            },
            {
              "internalType": "address",
              "name": "portal",
              "type": "address"
            },
            {
              "internalType": "address",
              "name": "diamond",
              "type": "address"
            }
          ],
          "internalType": "struct ChainData",
          "name": "",
          "type": "tuple"
        }
      ],
      "stateMutability": "view",
      "type": "function"
    },
    {
      "inputs": [
        {
          "components": [
            {
              "internalType": "uint256",
              "name": "class",
              "type": "uint256"
            },
            {
              "internalType": "uint256",
              "name": "level",
              "type": "uint256"
            },
            {
              "internalType": "uint256",
              "name": "xp",
              "type": "uint256"
            },
            {
              "internalType": "uint256",
              "name": "strength",
              "type": "uint256"
            },
            {
              "internalType": "uint256",
              "name": "health",
              "type": "uint256"
            },
            {
              "internalType": "uint256",
              "name": "magic",
              "type": "uint256"
            },
            {
              "internalType": "uint256",
              "name": "maxMana",
              "type": "uint256"
            },
            {
              "internalType": "uint256",
              "name": "agility",
              "type": "uint256"
            },
            {
              "internalType": "uint256",
              "name": "defense",
              "type": "uint256"
            },
            {
              "internalType": "uint256",
              "name": "baseChain",
              "type": "uint256"
            },
            {
              "internalType": "uint256",
              "name": "baseId",
              "type": "uint256"
            },
            {
              "internalType": "string",
              "name": "name",
              "type": "string"
            },
            {
              "internalType": "bool",
              "name": "isMale",
              "type": "bool"
            },
            {
              "internalType": "address",
              "name": "sender",
              "type": "address"
            }
          ],
          "internalType": "struct BridgeFormat",
          "name": "_format",
          "type": "tuple"
        }
      ],
      "name": "reMintPlayer",
      "outputs": [],
      "stateMutability": "nonpayable",
      "type": "function"
    },
    {
      "inputs": [
        {
          "components": [
            {
              "internalType": "address",
              "name": "sender",
              "type": "address"
            },
            {
              "internalType": "uint256",
              "name": "amount",
              "type": "uint256"
            }
          ],
          "internalType": "struct BridgegeCoinFormat",
          "name": "_format",
          "type": "tuple"
        }
      ],
      "name": "receiveGold",
      "outputs": [],
      "stateMutability": "nonpayable",
      "type": "function"
    }
  ],
  "bytecode": "0x608060405234801561001057600080fd5b506134bb806100206000396000f3fe608060405234801561001057600080fd5b506004361061007d5760003560e01c806390601da31161005b57806390601da3146100d6578063aeb45f01146100f2578063c3e4f9c214610122578063feea35c91461013e5761007d565b806303f256ec14610082578063537ce6151461009e57806354250a13146100ba575b600080fd5b61009c60048036038101906100979190612177565b61015a565b005b6100b860048036038101906100b391906121fa565b6101c7565b005b6100d460048036038101906100cf91906123e6565b610335565b005b6100f060048036038101906100eb919061247f565b61035d565b005b61010c600480360381019061010791906124ac565b6103be565b60405161011991906125d9565b60405180910390f35b61013c600480360381019061013791906125fb565b6103d6565b005b6101586004803603810190610153919061266a565b61053f565b005b610166848484846106e0565b8073ffffffffffffffffffffffffffffffffffffffff168273ffffffffffffffffffffffffffffffffffffffff16857f924c77d15e16cd31a7b4457de58065af652bd3178fe5f5f2ff801196f030fe7860405160405180910390a450505050565b60006101d2826103be565b905060008160400151905060006101e885610806565b90508173ffffffffffffffffffffffffffffffffffffffff1663381aa2cf846020015185606001516000620186a0866040516024016102279190612816565b6040516020818303038152906040527f54250a13000000000000000000000000000000000000000000000000000000007bffffffffffffffffffffffffffffffffffffffffffffffffffffffff19166020820180517bffffffffffffffffffffffffffffffffffffffffffffffffffffffff83818316178352505050506040518663ffffffff1660e01b81526004016102c495949392919061297a565b600060405180830381600087803b1580156102de57600080fd5b505af11580156102f2573d6000803e3d6000fd5b50505050847f602103799a7c20f1b0af9606ecee1173039b639af978bf3755ef5db1a5209a6f826040516103269190612816565b60405180910390a25050505050565b61033e81610be1565b6000610348610dc2565b9050610359826101a0015182610dda565b5050565b61036f81600001518260200151610df8565b8060200151816000015173ffffffffffffffffffffffffffffffffffffffff167f2974932ea8347b7507a8cb3888088a5db0692804c1592c993279b17e7fa7d7f260405160405180910390a350565b6103c6611eae565b6103cf82610e61565b9050919050565b6000731b2c14b235e928b42ede9d83c8143fc9ec309742905060006103fa85610806565b90508173ffffffffffffffffffffffffffffffffffffffff1663381aa2cf85856000620186a0866040516024016104319190612816565b6040516020818303038152906040527f54250a13000000000000000000000000000000000000000000000000000000007bffffffffffffffffffffffffffffffffffffffffffffffffffffffff19166020820180517bffffffffffffffffffffffffffffffffffffffffffffffffffffffff83818316178352505050506040518663ffffffff1660e01b81526004016104ce95949392919061297a565b600060405180830381600087803b1580156104e857600080fd5b505af11580156104fc573d6000803e3d6000fd5b50505050847f602103799a7c20f1b0af9606ecee1173039b639af978bf3755ef5db1a5209a6f826040516105309190612816565b60405180910390a25050505050565b6000731b2c14b235e928b42ede9d83c8143fc9ec3097429050600060405180604001604052803373ffffffffffffffffffffffffffffffffffffffff1681526020018481525090508173ffffffffffffffffffffffffffffffffffffffff1663381aa2cf86866000620186a0866040516024016105bc9190612a0a565b6040516020818303038152906040527f90601da3000000000000000000000000000000000000000000000000000000007bffffffffffffffffffffffffffffffffffffffffffffffffffffffff19166020820180517bffffffffffffffffffffffffffffffffffffffffffffffffffffffff83818316178352505050506040518663ffffffff1660e01b815260040161065995949392919061297a565b600060405180830381600087803b15801561067357600080fd5b505af1158015610687573d6000803e3d6000fd5b505050506106953384610fe5565b823373ffffffffffffffffffffffffffffffffffffffff167f639a1c2428edca612d7aa6a0f09df35033766e9b8578f6db38659900e23abf7260405160405180910390a35050505050565b60006106ea61109c565b905060405180608001604052808681526020018581526020018473ffffffffffffffffffffffffffffffffffffffff1681526020018373ffffffffffffffffffffffffffffffffffffffff1681525081600001600087815260200190815260200160002060008201518160000155602082015181600101908161076d9190612c27565b5060408201518160020160006101000a81548173ffffffffffffffffffffffffffffffffffffffff021916908373ffffffffffffffffffffffffffffffffffffffff16021790555060608201518160030160006101000a81548173ffffffffffffffffffffffffffffffffffffffff021916908373ffffffffffffffffffffffffffffffffffffffff1602179055509050505050505050565b61080e611f02565b60006108186110c9565b9050600061082461109c565b905060008260030160008681526020019081526020016000206002015414610881576040517f08c379a000000000000000000000000000000000000000000000000000000000815260040161087890612d45565b60405180910390fd5b3373ffffffffffffffffffffffffffffffffffffffff1682600201600086815260200190815260200160002060009054906101000a900473ffffffffffffffffffffffffffffffffffffffff1673ffffffffffffffffffffffffffffffffffffffff1614610924576040517f08c379a000000000000000000000000000000000000000000000000000000000815260040161091b90612db1565b60405180910390fd5b6064826003016000868152602001908152602001600020600201819055506000826003016000868152602001908152602001600020905060008083600301600088815260200190815260200160002060009054906101000a900460ff16610a3457469150869050600184600301600089815260200190815260200160002060006101000a81548160ff02191690831515021790555086846001016000848152602001908152602001600020600089815260200190815260200160002081905550846003016000888152602001908152602001600020600f0184600201600084815260200190815260200160002060008981526020019081526020016000209081610a2e9190612dfc565b50610a76565b83600401600088815260200190815260200160002054915083600101600083815260200190815260200160002060008881526020019081526020016000205490505b6000604051806101c00160405280856019015481526020018560000154815260200185600101548152602001856003015481526020018560040154815260200185600601548152602001856008015481526020018560090154815260200185600e0154815260200184815260200183815260200186600201600086815260200190815260200160002060008b81526020019081526020016000208054610b1b90612a54565b80601f0160208091040260200160405190810160405280929190818152602001828054610b4790612a54565b8015610b945780601f10610b6957610100808354040283529160200191610b94565b820191906000526020600020905b815481529060010190602001808311610b7757829003601f168201915b505050505081526020018560110160009054906101000a900460ff16151581526020013373ffffffffffffffffffffffffffffffffffffffff168152509050809650505050505050919050565b6000610beb6110c9565b90506000610bf761109c565b9050600080826001016000866101200151815260200190815260200160002060008661014001518152602001908152602001600020541115610db2578160010160008561012001518152602001908152602001600020600085610140015181526020019081526020016000205490506000836003016000838152602001908152602001600020600201819055508360200151836003016000838152602001908152602001600020600001819055508360400151836003016000838152602001908152602001600020600101819055508360600151836003016000838152602001908152602001600020600301819055508360800151836003016000838152602001908152602001600020600401819055508360800151836003016000838152602001908152602001600020600501819055508360a00151836003016000838152602001908152602001600020600601819055508360c00151836003016000838152602001908152602001600020600801819055508360c00151836003016000838152602001908152602001600020600701819055508360e0015183600301600083815260200190815260200160002060090181905550610dbc565b610dbb846110f6565b5b50505050565b600080610dcd6110c9565b9050806001015491505090565b610df4828260405180602001604052806000815250611764565b5050565b6000610e026117bf565b9050818160000160008573ffffffffffffffffffffffffffffffffffffffff1673ffffffffffffffffffffffffffffffffffffffff1681526020019081526020016000206000828254610e559190612f13565b92505081905550505050565b610e69611eae565b6000610e7361109c565b905080600001600084815260200190815260200160002060405180608001604052908160008201548152602001600182018054610eaf90612a54565b80601f0160208091040260200160405190810160405280929190818152602001828054610edb90612a54565b8015610f285780601f10610efd57610100808354040283529160200191610f28565b820191906000526020600020905b815481529060010190602001808311610f0b57829003601f168201915b505050505081526020016002820160009054906101000a900473ffffffffffffffffffffffffffffffffffffffff1673ffffffffffffffffffffffffffffffffffffffff1673ffffffffffffffffffffffffffffffffffffffff1681526020016003820160009054906101000a900473ffffffffffffffffffffffffffffffffffffffff1673ffffffffffffffffffffffffffffffffffffffff1673ffffffffffffffffffffffffffffffffffffffff1681525050915050919050565b6000610fef6117bf565b9050818160000160008573ffffffffffffffffffffffffffffffffffffffff1673ffffffffffffffffffffffffffffffffffffffff16815260200190815260200160002054101561103f57600080fd5b818160000160008573ffffffffffffffffffffffffffffffffffffffff1673ffffffffffffffffffffffffffffffffffffffff16815260200190815260200160002060008282546110909190612f47565b92505081905550505050565b6000807f4cde922899fdacbde63ed2c277d08801981412358b79d054d98add0ca65dea1990508091505090565b6000807f3cab9a070a0c61cd0ae9d9e9e2c0781e5ca8691bec4087e5a4701d5ac018dd4e90508091505090565b60006111006110c9565b9050600061110c61109c565b905081600101600081548092919061112390612f7b565b919050555081600101548160010160008561012001518152602001908152602001600020600085610140015181526020019081526020016000208190555082610160015181600201600085610120015181526020019081526020016000206000856101400151815260200190815260200160002090816111a39190612c27565b5060018160030160008460010154815260200190815260200160002060006101000a81548160ff0219169083151502179055508261012001518160040160008460010154815260200190815260200160002081905550600083610160015161120e84600101546117ec565b60405160200161121f92919061304b565b60405160208183030381529060405290506060600085600001510361128c578461018001516112695760405180608001604052806043815260200161337a60439139905080611286565b604051806080016040528060438152602001613443604391399050805b5061133e565b60018560000151036112e6578461018001516112c357604051806080016040528060438152602001613400604391399050806112e0565b6040518060800160405280604381526020016133bd604391399050805b5061133d565b600285600001510361133c5784610180015161131d576040518060800160405280604381526020016133376043913990508061133a565b6040518060800160405280604381526020016132f4604391399050805b505b5b5b6040518061028001604052808660200151815260200186604001518152602001600081526020018660600151815260200186608001518152602001866080015181526020018660a0015181526020018660c0015181526020018660c0015181526020018660e001518152602001600181526020016001815260200160018152602001600181526020018661010001518152602001838152602001828152602001866101800151151581526020016040518060e0016040528060008152602001600081526020016000815260200160008152602001600081526020016000815260200160008152508152602001866000015181525084600301600086600101548152602001908152602001600020600082015181600001556020820151816001015560408201518160020155606082015181600301556080820151816004015560a0820151816005015560c0820151816006015560e082015181600701556101008201518160080155610120820151816009015561014082015181600a015561016082015181600b015561018082015181600c01556101a082015181600d01556101c082015181600e01556101e082015181600f0190816114fe9190612c27565b506102008201518160100190816115159190612c27565b506102208201518160110160006101000a81548160ff02191690831515021790555061024082015181601201600082015181600001556020820151816001015560408201518160020155606082015181600301556080820151816004015560a0820151816005015560c08201518160060155505061026082015181601901559050506040518060e00160405280600081526020016000815260200160008152602001600081526020016000815260200160008152602001600081525084600801600086600101548152602001908152602001600020600082015181600001556020820151816001015560408201518160020155606082015181600301556080820151816004015560a0820151816005015560c08201518160060155905050846101a001518460020160008660010154815260200190815260200160002060006101000a81548173ffffffffffffffffffffffffffffffffffffffff021916908373ffffffffffffffffffffffffffffffffffffffff160217905550836007016000866101a0015173ffffffffffffffffffffffffffffffffffffffff1673ffffffffffffffffffffffffffffffffffffffff16815260200190815260200160002084600101549080600181540180825580915050600190039060005260206000200160009091909190915055836004016000866101a0015173ffffffffffffffffffffffffffffffffffffffff1673ffffffffffffffffffffffffffffffffffffffff168152602001908152602001600020600081548092919061175890612f7b565b91905055505050505050565b61176e83836118ba565b61177b6000848484611ae9565b6117ba576040517f08c379a00000000000000000000000000000000000000000000000000000000081526004016117b1906130ec565b60405180910390fd5b505050565b6000807f2c89d74504b6ad8d4fbde22bc3474166bac5452a11195897f239d8bebe02d70790508091505090565b6060600060016117fb84611c70565b01905060008167ffffffffffffffff81111561181a57611819611fee565b5b6040519080825280601f01601f19166020018201604052801561184c5781602001600182028036833780820191505090505b509050600082602001820190505b6001156118af578080600190039150507f3031323334353637383961626364656600000000000000000000000000000000600a86061a8153600a85816118a3576118a261310c565b5b0494506000850361185a575b819350505050919050565b600073ffffffffffffffffffffffffffffffffffffffff168273ffffffffffffffffffffffffffffffffffffffff1603611929576040517f08c379a000000000000000000000000000000000000000000000000000000000815260040161192090613187565b60405180910390fd5b61193281611dc3565b15611972576040517f08c379a0000000000000000000000000000000000000000000000000000000008152600401611969906131f3565b60405180910390fd5b611980600083836001611e04565b61198981611dc3565b156119c9576040517f08c379a00000000000000000000000000000000000000000000000000000000081526004016119c0906131f3565b60405180910390fd5b60016119d3611e0a565b600a0160008473ffffffffffffffffffffffffffffffffffffffff1673ffffffffffffffffffffffffffffffffffffffff1681526020019081526020016000206000828254019250508190555081611a29611e0a565b600901600083815260200190815260200160002060006101000a81548173ffffffffffffffffffffffffffffffffffffffff021916908373ffffffffffffffffffffffffffffffffffffffff160217905550808273ffffffffffffffffffffffffffffffffffffffff16600073ffffffffffffffffffffffffffffffffffffffff167fddf252ad1be2c89b69c2b068fc378daa952ba7f163c4a11628f55a4df523b3ef60405160405180910390a4611ae5600083836001611e37565b5050565b6000611b0a8473ffffffffffffffffffffffffffffffffffffffff16611e3d565b15611c63578373ffffffffffffffffffffffffffffffffffffffff1663150b7a02611b33611e60565b8786866040518563ffffffff1660e01b8152600401611b559493929190613222565b6020604051808303816000875af1925050508015611b9157506040513d601f19601f82011682018060405250810190611b8e91906132c6565b60015b611c13573d8060008114611bc1576040519150601f19603f3d011682016040523d82523d6000602084013e611bc6565b606091505b506000815103611c0b576040517f08c379a0000000000000000000000000000000000000000000000000000000008152600401611c02906130ec565b60405180910390fd5b805181602001fd5b63150b7a0260e01b7bffffffffffffffffffffffffffffffffffffffffffffffffffffffff1916817bffffffffffffffffffffffffffffffffffffffffffffffffffffffff191614915050611c68565b600190505b949350505050565b600080600090507a184f03e93ff9f4daa797ed6e38ed64bf6a1f0100000000000000008310611cce577a184f03e93ff9f4daa797ed6e38ed64bf6a1f0100000000000000008381611cc457611cc361310c565b5b0492506040810190505b6d04ee2d6d415b85acef81000000008310611d0b576d04ee2d6d415b85acef81000000008381611d0157611d0061310c565b5b0492506020810190505b662386f26fc100008310611d3a57662386f26fc100008381611d3057611d2f61310c565b5b0492506010810190505b6305f5e1008310611d63576305f5e1008381611d5957611d5861310c565b5b0492506008810190505b6127108310611d88576127108381611d7e57611d7d61310c565b5b0492506004810190505b60648310611dab5760648381611da157611da061310c565b5b0492506002810190505b600a8310611dba576001810190505b80915050919050565b60008073ffffffffffffffffffffffffffffffffffffffff16611de583611e68565b73ffffffffffffffffffffffffffffffffffffffff1614159050919050565b50505050565b6000807f2569078dfb4b0305704d3008e7403993ae9601b85f7ae5e742de3de8f8011c4090508091505090565b50505050565b6000808273ffffffffffffffffffffffffffffffffffffffff163b119050919050565b600033905090565b6000611e72611e0a565b600901600083815260200190815260200160002060009054906101000a900473ffffffffffffffffffffffffffffffffffffffff169050919050565b60405180608001604052806000815260200160608152602001600073ffffffffffffffffffffffffffffffffffffffff168152602001600073ffffffffffffffffffffffffffffffffffffffff1681525090565b604051806101c00160405280600081526020016000815260200160008152602001600081526020016000815260200160008152602001600081526020016000815260200160008152602001600081526020016000815260200160608152602001600015158152602001600073ffffffffffffffffffffffffffffffffffffffff1681525090565b6000604051905090565b600080fd5b600080fd5b6000819050919050565b611fb081611f9d565b8114611fbb57600080fd5b50565b600081359050611fcd81611fa7565b92915050565b600080fd5b600080fd5b6000601f19601f8301169050919050565b7f4e487b7100000000000000000000000000000000000000000000000000000000600052604160045260246000fd5b61202682611fdd565b810181811067ffffffffffffffff8211171561204557612044611fee565b5b80604052505050565b6000612058611f89565b9050612064828261201d565b919050565b600067ffffffffffffffff82111561208457612083611fee565b5b61208d82611fdd565b9050602081019050919050565b82818337600083830152505050565b60006120bc6120b784612069565b61204e565b9050828152602081018484840111156120d8576120d7611fd8565b5b6120e384828561209a565b509392505050565b600082601f830112612100576120ff611fd3565b5b81356121108482602086016120a9565b91505092915050565b600073ffffffffffffffffffffffffffffffffffffffff82169050919050565b600061214482612119565b9050919050565b61215481612139565b811461215f57600080fd5b50565b6000813590506121718161214b565b92915050565b6000806000806080858703121561219157612190611f93565b5b600061219f87828801611fbe565b945050602085013567ffffffffffffffff8111156121c0576121bf611f98565b5b6121cc878288016120eb565b93505060406121dd87828801612162565b92505060606121ee87828801612162565b91505092959194509250565b6000806040838503121561221157612210611f93565b5b600061221f85828601611fbe565b925050602061223085828601611fbe565b9150509250929050565b600080fd5b600080fd5b60008115159050919050565b61225981612244565b811461226457600080fd5b50565b60008135905061227681612250565b92915050565b60006101c082840312156122935761229261223a565b5b61229e6101c061204e565b905060006122ae84828501611fbe565b60008301525060206122c284828501611fbe565b60208301525060406122d684828501611fbe565b60408301525060606122ea84828501611fbe565b60608301525060806122fe84828501611fbe565b60808301525060a061231284828501611fbe565b60a08301525060c061232684828501611fbe565b60c08301525060e061233a84828501611fbe565b60e08301525061010061234f84828501611fbe565b6101008301525061012061236584828501611fbe565b6101208301525061014061237b84828501611fbe565b6101408301525061016082013567ffffffffffffffff8111156123a1576123a061223f565b5b6123ad848285016120eb565b610160830152506101806123c384828501612267565b610180830152506101a06123d984828501612162565b6101a08301525092915050565b6000602082840312156123fc576123fb611f93565b5b600082013567ffffffffffffffff81111561241a57612419611f98565b5b6124268482850161227c565b91505092915050565b6000604082840312156124455761244461223a565b5b61244f604061204e565b9050600061245f84828501612162565b600083015250602061247384828501611fbe565b60208301525092915050565b60006040828403121561249557612494611f93565b5b60006124a38482850161242f565b91505092915050565b6000602082840312156124c2576124c1611f93565b5b60006124d084828501611fbe565b91505092915050565b6124e281611f9d565b82525050565b600081519050919050565b600082825260208201905092915050565b60005b83811015612522578082015181840152602081019050612507565b60008484015250505050565b6000612539826124e8565b61254381856124f3565b9350612553818560208601612504565b61255c81611fdd565b840191505092915050565b61257081612139565b82525050565b600060808301600083015161258e60008601826124d9565b50602083015184820360208601526125a6828261252e565b91505060408301516125bb6040860182612567565b5060608301516125ce6060860182612567565b508091505092915050565b600060208201905081810360008301526125f38184612576565b905092915050565b60008060006060848603121561261457612613611f93565b5b600061262286828701611fbe565b935050602084013567ffffffffffffffff81111561264357612642611f98565b5b61264f868287016120eb565b925050604061266086828701612162565b9150509250925092565b60008060006060848603121561268357612682611f93565b5b600084013567ffffffffffffffff8111156126a1576126a0611f98565b5b6126ad868287016120eb565b93505060206126be86828701612162565b92505060406126cf86828701611fbe565b9150509250925092565b6126e281612244565b82525050565b60006101c08301600083015161270160008601826124d9565b50602083015161271460208601826124d9565b50604083015161272760408601826124d9565b50606083015161273a60608601826124d9565b50608083015161274d60808601826124d9565b5060a083015161276060a08601826124d9565b5060c083015161277360c08601826124d9565b5060e083015161278660e08601826124d9565b5061010083015161279b6101008601826124d9565b506101208301516127b06101208601826124d9565b506101408301516127c56101408601826124d9565b506101608301518482036101608601526127df828261252e565b9150506101808301516127f66101808601826126d9565b506101a083015161280b6101a0860182612567565b508091505092915050565b6000602082019050818103600083015261283081846126e8565b905092915050565b600082825260208201905092915050565b6000612854826124e8565b61285e8185612838565b935061286e818560208601612504565b61287781611fdd565b840191505092915050565b61288b81612139565b82525050565b6000819050919050565b6000819050919050565b60006128c06128bb6128b684612891565b61289b565b611f9d565b9050919050565b6128d0816128a5565b82525050565b6000819050919050565b600067ffffffffffffffff82169050919050565b600061290f61290a612905846128d6565b61289b565b6128e0565b9050919050565b61291f816128f4565b82525050565b600081519050919050565b600082825260208201905092915050565b600061294c82612925565b6129568185612930565b9350612966818560208601612504565b61296f81611fdd565b840191505092915050565b600060a08201905081810360008301526129948188612849565b90506129a36020830187612882565b6129b060408301866128c7565b6129bd6060830185612916565b81810360808301526129cf8184612941565b90509695505050505050565b6040820160008201516129f16000850182612567565b506020820151612a0460208501826124d9565b50505050565b6000604082019050612a1f60008301846129db565b92915050565b7f4e487b7100000000000000000000000000000000000000000000000000000000600052602260045260246000fd5b60006002820490506001821680612a6c57607f821691505b602082108103612a7f57612a7e612a25565b5b50919050565b60008190508160005260206000209050919050565b60006020601f8301049050919050565b600082821b905092915050565b600060088302612ae77fffffffffffffffffffffffffffffffffffffffffffffffffffffffffffffffff82612aaa565b612af18683612aaa565b95508019841693508086168417925050509392505050565b6000612b24612b1f612b1a84611f9d565b61289b565b611f9d565b9050919050565b6000819050919050565b612b3e83612b09565b612b52612b4a82612b2b565b848454612ab7565b825550505050565b600090565b612b67612b5a565b612b72818484612b35565b505050565b5b81811015612b9657612b8b600082612b5f565b600181019050612b78565b5050565b601f821115612bdb57612bac81612a85565b612bb584612a9a565b81016020851015612bc4578190505b612bd8612bd085612a9a565b830182612b77565b50505b505050565b600082821c905092915050565b6000612bfe60001984600802612be0565b1980831691505092915050565b6000612c178383612bed565b9150826002028217905092915050565b612c30826124e8565b67ffffffffffffffff811115612c4957612c48611fee565b5b612c538254612a54565b612c5e828285612b9a565b600060209050601f831160018114612c915760008415612c7f578287015190505b612c898582612c0b565b865550612cf1565b601f198416612c9f86612a85565b60005b82811015612cc757848901518255600182019150602085019450602081019050612ca2565b86831015612ce45784890151612ce0601f891682612bed565b8355505b6001600288020188555050505b505050505050565b7f796f7520617265206e6f742069646c6500000000000000000000000000000000600082015250565b6000612d2f601083612838565b9150612d3a82612cf9565b602082019050919050565b60006020820190508181036000830152612d5e81612d22565b9050919050565b7f796f7520617265206e6f7420746865206f776e65720000000000000000000000600082015250565b6000612d9b601583612838565b9150612da682612d65565b602082019050919050565b60006020820190508181036000830152612dca81612d8e565b9050919050565b600081549050612de081612a54565b9050919050565b60008190508160005260206000209050919050565b818103612e0a575050612ee2565b612e1382612dd1565b67ffffffffffffffff811115612e2c57612e2b611fee565b5b612e368254612a54565b612e41828285612b9a565b6000601f831160018114612e705760008415612e5e578287015490505b612e688582612c0b565b865550612edb565b601f198416612e7e87612de7565b9650612e8986612a85565b60005b82811015612eb157848901548255600182019150600185019450602081019050612e8c565b86831015612ece5784890154612eca601f891682612bed565b8355505b6001600288020188555050505b5050505050505b565b7f4e487b7100000000000000000000000000000000000000000000000000000000600052601160045260246000fd5b6000612f1e82611f9d565b9150612f2983611f9d565b9250828201905080821115612f4157612f40612ee4565b5b92915050565b6000612f5282611f9d565b9150612f5d83611f9d565b9250828203905081811115612f7557612f74612ee4565b5b92915050565b6000612f8682611f9d565b91507fffffffffffffffffffffffffffffffffffffffffffffffffffffffffffffffff8203612fb857612fb7612ee4565b5b600182019050919050565b600081905092915050565b6000612fd9826124e8565b612fe38185612fc3565b9350612ff3818560208601612504565b80840191505092915050565b7f2d00000000000000000000000000000000000000000000000000000000000000600082015250565b6000613035600183612fc3565b915061304082612fff565b600182019050919050565b60006130578285612fce565b915061306282613028565b915061306e8284612fce565b91508190509392505050565b7f4552433732313a207472616e7366657220746f206e6f6e20455243373231526560008201527f63656976657220696d706c656d656e7465720000000000000000000000000000602082015250565b60006130d6603283612838565b91506130e18261307a565b604082019050919050565b60006020820190508181036000830152613105816130c9565b9050919050565b7f4e487b7100000000000000000000000000000000000000000000000000000000600052601260045260246000fd5b7f4552433732313a206d696e7420746f20746865207a65726f2061646472657373600082015250565b6000613171602083612838565b915061317c8261313b565b602082019050919050565b600060208201905081810360008301526131a081613164565b9050919050565b7f4552433732313a20746f6b656e20616c7265616479206d696e74656400000000600082015250565b60006131dd601c83612838565b91506131e8826131a7565b602082019050919050565b6000602082019050818103600083015261320c816131d0565b9050919050565b61321c81611f9d565b82525050565b60006080820190506132376000830187612882565b6132446020830186612882565b6132516040830185613213565b81810360608301526132638184612941565b905095945050505050565b60007fffffffff0000000000000000000000000000000000000000000000000000000082169050919050565b6132a38161326e565b81146132ae57600080fd5b50565b6000815190506132c08161329a565b92915050565b6000602082840312156132dc576132db611f93565b5b60006132ea848285016132b1565b9150509291505056fe68747470733a2f2f697066732e696f2f697066732f516d556257785564387358344d5a6f6a4b455255506d507539597441596659726f425334546531484a454b75637968747470733a2f2f697066732e696f2f697066732f516d625641427439734b704e55613844674d4a64653344424351796f72534354395631447a6436634a385a556d5068747470733a2f2f697066732e696f2f697066732f516d66424e4870787077554e67747736695842784b584c6256786f6d386d7064427367715a5a79353970524d354368747470733a2f2f697066732e696f2f697066732f516d5158655965397278526b6b716645423744725a52534732533179724e676a363456386d3676374b65747a516468747470733a2f2f697066732e696f2f697066732f516d55715a4b5275646e616e673147586244326e4848776d4a664e4e42465156646d6f483857416e65616969356868747470733a2f2f697066732e696f2f697066732f516d56357053734d47474d4c5733593979513871534c534d4451616b646e6a686a53346b356865366d4a79506548a26469706673582212204edecda3f08371553f1f10396433e887f9f39e3a767e5ae2270fe33d0574a83f64736f6c63430008120033",
  "linkReferences": {},
  "deployedLinkReferences": {}
}