{
  "_format": "hh-sol-artifact-1",
  "contractName": "BridgeFacet",
  "sourceName": "contracts/facets/BridgeFacet.sol",
  "abi": [
    {
      "anonymous": false,
      "inputs": [
        {
          "indexed": true,
          "internalType": "address",
          "name": "owner",
          "type": "address"
        },
        {
          "indexed": true,
          "internalType": "address",
          "name": "approved",
          "type": "address"
        },
        {
          "indexed": true,
          "internalType": "uint256",
          "name": "tokenId",
          "type": "uint256"
        }
      ],
      "name": "Approval",
      "type": "event"
    },
    {
      "anonymous": false,
      "inputs": [
        {
          "indexed": true,
          "internalType": "address",
          "name": "owner",
          "type": "address"
        },
        {
          "indexed": true,
          "internalType": "address",
          "name": "operator",
          "type": "address"
        },
        {
          "indexed": false,
          "internalType": "bool",
          "name": "approved",
          "type": "bool"
        }
      ],
      "name": "ApprovalForAll",
      "type": "event"
    },
    {
      "anonymous": false,
      "inputs": [
        {
          "indexed": true,
          "internalType": "uint256",
          "name": "_chainId",
          "type": "uint256"
        },
        {
          "indexed": true,
          "internalType": "address",
          "name": "_portal",
          "type": "address"
        },
        {
          "indexed": true,
          "internalType": "address",
          "name": "_diamond",
          "type": "address"
        }
      ],
      "name": "BridgeCreated",
      "type": "event"
    },
    {
      "anonymous": false,
      "inputs": [
        {
          "indexed": true,
          "internalType": "uint256",
          "name": "_playerId",
          "type": "uint256"
        },
        {
          "components": [
            {
              "internalType": "uint256",
              "name": "class",
              "type": "uint256"
            },
            {
              "internalType": "uint256",
              "name": "level",
              "type": "uint256"
            },
            {
              "internalType": "uint256",
              "name": "xp",
              "type": "uint256"
            },
            {
              "internalType": "uint256",
              "name": "strength",
              "type": "uint256"
            },
            {
              "internalType": "uint256",
              "name": "health",
              "type": "uint256"
            },
            {
              "internalType": "uint256",
              "name": "magic",
              "type": "uint256"
            },
            {
              "internalType": "uint256",
              "name": "maxMana",
              "type": "uint256"
            },
            {
              "internalType": "uint256",
              "name": "agility",
              "type": "uint256"
            },
            {
              "internalType": "uint256",
              "name": "defense",
              "type": "uint256"
            },
            {
              "internalType": "uint256",
              "name": "baseChain",
              "type": "uint256"
            },
            {
              "internalType": "uint256",
              "name": "baseId",
              "type": "uint256"
            },
            {
              "internalType": "string",
              "name": "name",
              "type": "string"
            },
            {
              "internalType": "bool",
              "name": "isMale",
              "type": "bool"
            },
            {
              "internalType": "address",
              "name": "sender",
              "type": "address"
            }
          ],
          "indexed": false,
          "internalType": "struct BridgeFormat",
          "name": "_format",
          "type": "tuple"
        }
      ],
      "name": "BridgePlayer",
      "type": "event"
    },
    {
      "anonymous": false,
      "inputs": [
        {
          "indexed": true,
          "internalType": "uint256",
          "name": "_playerId",
          "type": "uint256"
        },
        {
          "components": [
            {
              "internalType": "uint256",
              "name": "class",
              "type": "uint256"
            },
            {
              "internalType": "uint256",
              "name": "level",
              "type": "uint256"
            },
            {
              "internalType": "uint256",
              "name": "xp",
              "type": "uint256"
            },
            {
              "internalType": "uint256",
              "name": "strength",
              "type": "uint256"
            },
            {
              "internalType": "uint256",
              "name": "health",
              "type": "uint256"
            },
            {
              "internalType": "uint256",
              "name": "magic",
              "type": "uint256"
            },
            {
              "internalType": "uint256",
              "name": "maxMana",
              "type": "uint256"
            },
            {
              "internalType": "uint256",
              "name": "agility",
              "type": "uint256"
            },
            {
              "internalType": "uint256",
              "name": "defense",
              "type": "uint256"
            },
            {
              "internalType": "uint256",
              "name": "baseChain",
              "type": "uint256"
            },
            {
              "internalType": "uint256",
              "name": "baseId",
              "type": "uint256"
            },
            {
              "internalType": "string",
              "name": "name",
              "type": "string"
            },
            {
              "internalType": "bool",
              "name": "isMale",
              "type": "bool"
            },
            {
              "internalType": "address",
              "name": "sender",
              "type": "address"
            }
          ],
          "indexed": false,
          "internalType": "struct BridgeFormat",
          "name": "_format",
          "type": "tuple"
        }
      ],
      "name": "ReMintPlayer",
      "type": "event"
    },
    {
      "anonymous": false,
      "inputs": [
        {
          "indexed": true,
          "internalType": "address",
          "name": "from",
          "type": "address"
        },
        {
          "indexed": true,
          "internalType": "address",
          "name": "to",
          "type": "address"
        },
        {
          "indexed": true,
          "internalType": "uint256",
          "name": "tokenId",
          "type": "uint256"
        }
      ],
      "name": "Transfer",
      "type": "event"
    },
    {
      "inputs": [
        {
          "internalType": "uint256",
          "name": "_playerId",
          "type": "uint256"
        },
        {
          "internalType": "uint256",
          "name": "_chainId",
          "type": "uint256"
        }
      ],
      "name": "bridgePlayer",
      "outputs": [],
      "stateMutability": "nonpayable",
      "type": "function"
    },
    {
      "inputs": [
        {
          "internalType": "uint256",
          "name": "_playerId",
          "type": "uint256"
        },
        {
          "internalType": "string",
          "name": "_chain",
          "type": "string"
        },
        {
          "internalType": "address",
          "name": "_contract",
          "type": "address"
        }
      ],
      "name": "bridgePlayerTest",
      "outputs": [],
      "stateMutability": "nonpayable",
      "type": "function"
    },
    {
      "inputs": [
        {
          "internalType": "string",
          "name": "_chain",
          "type": "string"
        },
        {
          "internalType": "address",
          "name": "_contract",
          "type": "address"
        }
      ],
      "name": "bridgeTest",
      "outputs": [],
      "stateMutability": "nonpayable",
      "type": "function"
    },
    {
      "inputs": [
        {
          "internalType": "uint256",
          "name": "_chainId",
          "type": "uint256"
        },
        {
          "internalType": "string",
          "name": "_name",
          "type": "string"
        },
        {
          "internalType": "address",
          "name": "_portal",
          "type": "address"
        },
        {
          "internalType": "address",
          "name": "_diamond",
          "type": "address"
        }
      ],
      "name": "createBridge",
      "outputs": [],
      "stateMutability": "nonpayable",
      "type": "function"
    },
    {
      "inputs": [
        {
          "internalType": "uint256",
          "name": "_chainId",
          "type": "uint256"
        }
      ],
      "name": "getChainData",
      "outputs": [
        {
          "components": [
            {
              "internalType": "uint256",
              "name": "chainId",
              "type": "uint256"
            },
            {
              "internalType": "string",
              "name": "name",
              "type": "string"
            },
            {
              "internalType": "address",
              "name": "portal",
              "type": "address"
            },
            {
              "internalType": "address",
              "name": "diamond",
              "type": "address"
            }
          ],
          "internalType": "struct ChainData",
          "name": "",
          "type": "tuple"
        }
      ],
      "stateMutability": "view",
      "type": "function"
    },
    {
      "inputs": [
        {
          "components": [
            {
              "internalType": "uint256",
              "name": "class",
              "type": "uint256"
            },
            {
              "internalType": "uint256",
              "name": "level",
              "type": "uint256"
            },
            {
              "internalType": "uint256",
              "name": "xp",
              "type": "uint256"
            },
            {
              "internalType": "uint256",
              "name": "strength",
              "type": "uint256"
            },
            {
              "internalType": "uint256",
              "name": "health",
              "type": "uint256"
            },
            {
              "internalType": "uint256",
              "name": "magic",
              "type": "uint256"
            },
            {
              "internalType": "uint256",
              "name": "maxMana",
              "type": "uint256"
            },
            {
              "internalType": "uint256",
              "name": "agility",
              "type": "uint256"
            },
            {
              "internalType": "uint256",
              "name": "defense",
              "type": "uint256"
            },
            {
              "internalType": "uint256",
              "name": "baseChain",
              "type": "uint256"
            },
            {
              "internalType": "uint256",
              "name": "baseId",
              "type": "uint256"
            },
            {
              "internalType": "string",
              "name": "name",
              "type": "string"
            },
            {
              "internalType": "bool",
              "name": "isMale",
              "type": "bool"
            },
            {
              "internalType": "address",
              "name": "sender",
              "type": "address"
            }
          ],
          "internalType": "struct BridgeFormat",
          "name": "_format",
          "type": "tuple"
        }
      ],
      "name": "reMintPlayer",
      "outputs": [],
      "stateMutability": "nonpayable",
      "type": "function"
    }
  ],
  "bytecode": "0x608060405234801561001057600080fd5b50612f8a806100206000396000f3fe608060405234801561001057600080fd5b50600436106100625760003560e01c806303f256ec14610067578063537ce6151461008357806354250a131461009f5780638d3390d0146100bb578063aeb45f01146100d7578063c3e4f9c214610107575b600080fd5b610081600480360381019061007c9190611e95565b610123565b005b61009d60048036038101906100989190611f18565b610190565b005b6100b960048036038101906100b49190612104565b6102fe565b005b6100d560048036038101906100d0919061214d565b61035e565b005b6100f160048036038101906100ec91906121a9565b6104a5565b6040516100fe91906122d6565b60405180910390f35b610121600480360381019061011c91906122f8565b6104bd565b005b61012f84848484610626565b8073ffffffffffffffffffffffffffffffffffffffff168273ffffffffffffffffffffffffffffffffffffffff16857f924c77d15e16cd31a7b4457de58065af652bd3178fe5f5f2ff801196f030fe7860405160405180910390a450505050565b600061019b826104a5565b905060008160400151905060006101b18561074c565b90508173ffffffffffffffffffffffffffffffffffffffff1663381aa2cf846020015185606001516000620186a0866040516024016101f091906124a4565b6040516020818303038152906040527f54250a13000000000000000000000000000000000000000000000000000000007bffffffffffffffffffffffffffffffffffffffffffffffffffffffff19166020820180517bffffffffffffffffffffffffffffffffffffffffffffffffffffffff83818316178352505050506040518663ffffffff1660e01b815260040161028d959493929190612608565b600060405180830381600087803b1580156102a757600080fd5b505af11580156102bb573d6000803e3d6000fd5b50505050847f602103799a7c20f1b0af9606ecee1173039b639af978bf3755ef5db1a5209a6f826040516102ef91906124a4565b60405180910390a25050505050565b61030781610a8f565b6000610311610c70565b9050807f038153a05f584c8a013d995510cb2a343c79259d90c1104781032846799cedbf8360405161034391906124a4565b60405180910390a261035a826101a0015182610c88565b5050565b600073c0400275f85b45dfd2cfc838da8ee4214b659e25905060006040518060600160405280602a8152602001600281526020016001151581525090508173ffffffffffffffffffffffffffffffffffffffff1663381aa2cf85856000620186a0866040516024016103d091906126ab565b6040516020818303038152906040527f52722433000000000000000000000000000000000000000000000000000000007bffffffffffffffffffffffffffffffffffffffffffffffffffffffff19166020820180517bffffffffffffffffffffffffffffffffffffffffffffffffffffffff83818316178352505050506040518663ffffffff1660e01b815260040161046d959493929190612608565b600060405180830381600087803b15801561048757600080fd5b505af115801561049b573d6000803e3d6000fd5b5050505050505050565b6104ad611bcc565b6104b682610ca6565b9050919050565b600073c0400275f85b45dfd2cfc838da8ee4214b659e25905060006104e18561074c565b90508173ffffffffffffffffffffffffffffffffffffffff1663381aa2cf85856000620186a08660405160240161051891906124a4565b6040516020818303038152906040527f54250a13000000000000000000000000000000000000000000000000000000007bffffffffffffffffffffffffffffffffffffffffffffffffffffffff19166020820180517bffffffffffffffffffffffffffffffffffffffffffffffffffffffff83818316178352505050506040518663ffffffff1660e01b81526004016105b5959493929190612608565b600060405180830381600087803b1580156105cf57600080fd5b505af11580156105e3573d6000803e3d6000fd5b50505050847f602103799a7c20f1b0af9606ecee1173039b639af978bf3755ef5db1a5209a6f8260405161061791906124a4565b60405180910390a25050505050565b6000610630610e2a565b905060405180608001604052808681526020018581526020018473ffffffffffffffffffffffffffffffffffffffff1681526020018373ffffffffffffffffffffffffffffffffffffffff168152508160000160008781526020019081526020016000206000820151816000015560208201518160010190816106b391906128c8565b5060408201518160020160006101000a81548173ffffffffffffffffffffffffffffffffffffffff021916908373ffffffffffffffffffffffffffffffffffffffff16021790555060608201518160030160006101000a81548173ffffffffffffffffffffffffffffffffffffffff021916908373ffffffffffffffffffffffffffffffffffffffff1602179055509050505050505050565b610754611c20565b600061075e610e57565b9050600061076a610e2a565b9050600082600301600086815260200190815260200160002060020154146107c7576040517f08c379a00000000000000000000000000000000000000000000000000000000081526004016107be906129e6565b60405180910390fd5b3373ffffffffffffffffffffffffffffffffffffffff1682600201600086815260200190815260200160002060009054906101000a900473ffffffffffffffffffffffffffffffffffffffff1673ffffffffffffffffffffffffffffffffffffffff161461086a576040517f08c379a000000000000000000000000000000000000000000000000000000000815260040161086190612a52565b60405180910390fd5b6064826003016000868152602001908152602001600020600201819055506000826003016000868152602001908152602001600020905060008083600201600088815260200190815260200160002060009054906101000a900460ff1661090457469150869050600184600201600089815260200190815260200160002060006101000a81548160ff021916908315150217905550610946565b83600301600088815260200190815260200160002054915083600101600083815260200190815260200160002060008881526020019081526020016000205490505b6000604051806101c00160405280856019015481526020018560000154815260200185600101548152602001856003015481526020018560040154815260200185600601548152602001856008015481526020018560090154815260200185600e0154815260200184815260200183815260200185600f0180546109c9906126f5565b80601f01602080910402602001604051908101604052809291908181526020018280546109f5906126f5565b8015610a425780601f10610a1757610100808354040283529160200191610a42565b820191906000526020600020905b815481529060010190602001808311610a2557829003601f168201915b505050505081526020018560110160009054906101000a900460ff16151581526020013373ffffffffffffffffffffffffffffffffffffffff168152509050809650505050505050919050565b6000610a99610e57565b90506000610aa5610e2a565b9050600080826001016000866101200151815260200190815260200160002060008661014001518152602001908152602001600020541115610c60578160010160008561012001518152602001908152602001600020600085610140015181526020019081526020016000205490506000836003016000838152602001908152602001600020600201819055508360200151836003016000838152602001908152602001600020600001819055508360400151836003016000838152602001908152602001600020600101819055508360600151836003016000838152602001908152602001600020600301819055508360800151836003016000838152602001908152602001600020600401819055508360800151836003016000838152602001908152602001600020600501819055508360a00151836003016000838152602001908152602001600020600601819055508360c00151836003016000838152602001908152602001600020600801819055508360c00151836003016000838152602001908152602001600020600701819055508360e0015183600301600083815260200190815260200160002060090181905550610c6a565b610c6984610e84565b5b50505050565b600080610c7b610e57565b9050806001015491505090565b610ca28282604051806020016040528060008152506114af565b5050565b610cae611bcc565b6000610cb8610e2a565b905080600001600084815260200190815260200160002060405180608001604052908160008201548152602001600182018054610cf4906126f5565b80601f0160208091040260200160405190810160405280929190818152602001828054610d20906126f5565b8015610d6d5780601f10610d4257610100808354040283529160200191610d6d565b820191906000526020600020905b815481529060010190602001808311610d5057829003601f168201915b505050505081526020016002820160009054906101000a900473ffffffffffffffffffffffffffffffffffffffff1673ffffffffffffffffffffffffffffffffffffffff1673ffffffffffffffffffffffffffffffffffffffff1681526020016003820160009054906101000a900473ffffffffffffffffffffffffffffffffffffffff1673ffffffffffffffffffffffffffffffffffffffff1673ffffffffffffffffffffffffffffffffffffffff1681525050915050919050565b6000807f4cde922899fdacbde63ed2c277d08801981412358b79d054d98add0ca65dea1990508091505090565b6000807f3cab9a070a0c61cd0ae9d9e9e2c0781e5ca8691bec4087e5a4701d5ac018dd4e90508091505090565b6000610e8e610e57565b90506000610e9a610e2a565b9050816001016000815480929190610eb190612aa1565b919050555081600101548160010160008561012001518152602001908152602001600020600085610140015181526020019081526020016000208190555060008160020160008460010154815260200190815260200160002060006101000a81548160ff02191690831515021790555082610120015181600301600084600101548152602001908152602001600020819055506000836101600151610f59846001015461150a565b604051602001610f6a929190612b25565b604051602081830303815290604052905060606000856000015103610fd757846101800151610fb457604051806080016040528060438152602001612e4960439139905080610fd1565b604051806080016040528060438152602001612f12604391399050805b50611089565b60018560000151036110315784610180015161100e57604051806080016040528060438152602001612ecf6043913990508061102b565b604051806080016040528060438152602001612e8c604391399050805b50611088565b60028560000151036110875784610180015161106857604051806080016040528060438152602001612e0660439139905080611085565b604051806080016040528060438152602001612dc3604391399050805b505b5b5b6040518061028001604052808660200151815260200186604001518152602001600081526020018660600151815260200186608001518152602001866080015181526020018660a0015181526020018660c0015181526020018660c0015181526020018660e001518152602001600181526020016001815260200160018152602001600181526020018661010001518152602001838152602001828152602001866101800151151581526020016040518060e0016040528060008152602001600081526020016000815260200160008152602001600081526020016000815260200160008152508152602001866000015181525084600301600086600101548152602001908152602001600020600082015181600001556020820151816001015560408201518160020155606082015181600301556080820151816004015560a0820151816005015560c0820151816006015560e082015181600701556101008201518160080155610120820151816009015561014082015181600a015561016082015181600b015561018082015181600c01556101a082015181600d01556101c082015181600e01556101e082015181600f01908161124991906128c8565b5061020082015181601001908161126091906128c8565b506102208201518160110160006101000a81548160ff02191690831515021790555061024082015181601201600082015181600001556020820151816001015560408201518160020155606082015181600301556080820151816004015560a0820151816005015560c08201518160060155505061026082015181601901559050506040518060e00160405280600081526020016000815260200160008152602001600081526020016000815260200160008152602001600081525084600801600086600101548152602001908152602001600020600082015181600001556020820151816001015560408201518160020155606082015181600301556080820151816004015560a0820151816005015560c08201518160060155905050846101a001518460020160008660010154815260200190815260200160002060006101000a81548173ffffffffffffffffffffffffffffffffffffffff021916908373ffffffffffffffffffffffffffffffffffffffff160217905550836007016000866101a0015173ffffffffffffffffffffffffffffffffffffffff1673ffffffffffffffffffffffffffffffffffffffff16815260200190815260200160002084600101549080600181540180825580915050600190039060005260206000200160009091909190915055836004016000866101a0015173ffffffffffffffffffffffffffffffffffffffff1673ffffffffffffffffffffffffffffffffffffffff16815260200190815260200160002060008154809291906114a390612aa1565b91905055505050505050565b6114b983836115d8565b6114c66000848484611807565b611505576040517f08c379a00000000000000000000000000000000000000000000000000000000081526004016114fc90612bbb565b60405180910390fd5b505050565b6060600060016115198461198e565b01905060008167ffffffffffffffff81111561153857611537611d0c565b5b6040519080825280601f01601f19166020018201604052801561156a5781602001600182028036833780820191505090505b509050600082602001820190505b6001156115cd578080600190039150507f3031323334353637383961626364656600000000000000000000000000000000600a86061a8153600a85816115c1576115c0612bdb565b5b04945060008503611578575b819350505050919050565b600073ffffffffffffffffffffffffffffffffffffffff168273ffffffffffffffffffffffffffffffffffffffff1603611647576040517f08c379a000000000000000000000000000000000000000000000000000000000815260040161163e90612c56565b60405180910390fd5b61165081611ae1565b15611690576040517f08c379a000000000000000000000000000000000000000000000000000000000815260040161168790612cc2565b60405180910390fd5b61169e600083836001611b22565b6116a781611ae1565b156116e7576040517f08c379a00000000000000000000000000000000000000000000000000000000081526004016116de90612cc2565b60405180910390fd5b60016116f1611b28565b600a0160008473ffffffffffffffffffffffffffffffffffffffff1673ffffffffffffffffffffffffffffffffffffffff1681526020019081526020016000206000828254019250508190555081611747611b28565b600901600083815260200190815260200160002060006101000a81548173ffffffffffffffffffffffffffffffffffffffff021916908373ffffffffffffffffffffffffffffffffffffffff160217905550808273ffffffffffffffffffffffffffffffffffffffff16600073ffffffffffffffffffffffffffffffffffffffff167fddf252ad1be2c89b69c2b068fc378daa952ba7f163c4a11628f55a4df523b3ef60405160405180910390a4611803600083836001611b55565b5050565b60006118288473ffffffffffffffffffffffffffffffffffffffff16611b5b565b15611981578373ffffffffffffffffffffffffffffffffffffffff1663150b7a02611851611b7e565b8786866040518563ffffffff1660e01b81526004016118739493929190612cf1565b6020604051808303816000875af19250505080156118af57506040513d601f19601f820116820180604052508101906118ac9190612d95565b60015b611931573d80600081146118df576040519150601f19603f3d011682016040523d82523d6000602084013e6118e4565b606091505b506000815103611929576040517f08c379a000000000000000000000000000000000000000000000000000000000815260040161192090612bbb565b60405180910390fd5b805181602001fd5b63150b7a0260e01b7bffffffffffffffffffffffffffffffffffffffffffffffffffffffff1916817bffffffffffffffffffffffffffffffffffffffffffffffffffffffff191614915050611986565b600190505b949350505050565b600080600090507a184f03e93ff9f4daa797ed6e38ed64bf6a1f01000000000000000083106119ec577a184f03e93ff9f4daa797ed6e38ed64bf6a1f01000000000000000083816119e2576119e1612bdb565b5b0492506040810190505b6d04ee2d6d415b85acef81000000008310611a29576d04ee2d6d415b85acef81000000008381611a1f57611a1e612bdb565b5b0492506020810190505b662386f26fc100008310611a5857662386f26fc100008381611a4e57611a4d612bdb565b5b0492506010810190505b6305f5e1008310611a81576305f5e1008381611a7757611a76612bdb565b5b0492506008810190505b6127108310611aa6576127108381611a9c57611a9b612bdb565b5b0492506004810190505b60648310611ac95760648381611abf57611abe612bdb565b5b0492506002810190505b600a8310611ad8576001810190505b80915050919050565b60008073ffffffffffffffffffffffffffffffffffffffff16611b0383611b86565b73ffffffffffffffffffffffffffffffffffffffff1614159050919050565b50505050565b6000807f2569078dfb4b0305704d3008e7403993ae9601b85f7ae5e742de3de8f8011c4090508091505090565b50505050565b6000808273ffffffffffffffffffffffffffffffffffffffff163b119050919050565b600033905090565b6000611b90611b28565b600901600083815260200190815260200160002060009054906101000a900473ffffffffffffffffffffffffffffffffffffffff169050919050565b60405180608001604052806000815260200160608152602001600073ffffffffffffffffffffffffffffffffffffffff168152602001600073ffffffffffffffffffffffffffffffffffffffff1681525090565b604051806101c00160405280600081526020016000815260200160008152602001600081526020016000815260200160008152602001600081526020016000815260200160008152602001600081526020016000815260200160608152602001600015158152602001600073ffffffffffffffffffffffffffffffffffffffff1681525090565b6000604051905090565b600080fd5b600080fd5b6000819050919050565b611cce81611cbb565b8114611cd957600080fd5b50565b600081359050611ceb81611cc5565b92915050565b600080fd5b600080fd5b6000601f19601f8301169050919050565b7f4e487b7100000000000000000000000000000000000000000000000000000000600052604160045260246000fd5b611d4482611cfb565b810181811067ffffffffffffffff82111715611d6357611d62611d0c565b5b80604052505050565b6000611d76611ca7565b9050611d828282611d3b565b919050565b600067ffffffffffffffff821115611da257611da1611d0c565b5b611dab82611cfb565b9050602081019050919050565b82818337600083830152505050565b6000611dda611dd584611d87565b611d6c565b905082815260208101848484011115611df657611df5611cf6565b5b611e01848285611db8565b509392505050565b600082601f830112611e1e57611e1d611cf1565b5b8135611e2e848260208601611dc7565b91505092915050565b600073ffffffffffffffffffffffffffffffffffffffff82169050919050565b6000611e6282611e37565b9050919050565b611e7281611e57565b8114611e7d57600080fd5b50565b600081359050611e8f81611e69565b92915050565b60008060008060808587031215611eaf57611eae611cb1565b5b6000611ebd87828801611cdc565b945050602085013567ffffffffffffffff811115611ede57611edd611cb6565b5b611eea87828801611e09565b9350506040611efb87828801611e80565b9250506060611f0c87828801611e80565b91505092959194509250565b60008060408385031215611f2f57611f2e611cb1565b5b6000611f3d85828601611cdc565b9250506020611f4e85828601611cdc565b9150509250929050565b600080fd5b600080fd5b60008115159050919050565b611f7781611f62565b8114611f8257600080fd5b50565b600081359050611f9481611f6e565b92915050565b60006101c08284031215611fb157611fb0611f58565b5b611fbc6101c0611d6c565b90506000611fcc84828501611cdc565b6000830152506020611fe084828501611cdc565b6020830152506040611ff484828501611cdc565b604083015250606061200884828501611cdc565b606083015250608061201c84828501611cdc565b60808301525060a061203084828501611cdc565b60a08301525060c061204484828501611cdc565b60c08301525060e061205884828501611cdc565b60e08301525061010061206d84828501611cdc565b6101008301525061012061208384828501611cdc565b6101208301525061014061209984828501611cdc565b6101408301525061016082013567ffffffffffffffff8111156120bf576120be611f5d565b5b6120cb84828501611e09565b610160830152506101806120e184828501611f85565b610180830152506101a06120f784828501611e80565b6101a08301525092915050565b60006020828403121561211a57612119611cb1565b5b600082013567ffffffffffffffff81111561213857612137611cb6565b5b61214484828501611f9a565b91505092915050565b6000806040838503121561216457612163611cb1565b5b600083013567ffffffffffffffff81111561218257612181611cb6565b5b61218e85828601611e09565b925050602061219f85828601611e80565b9150509250929050565b6000602082840312156121bf576121be611cb1565b5b60006121cd84828501611cdc565b91505092915050565b6121df81611cbb565b82525050565b600081519050919050565b600082825260208201905092915050565b60005b8381101561221f578082015181840152602081019050612204565b60008484015250505050565b6000612236826121e5565b61224081856121f0565b9350612250818560208601612201565b61225981611cfb565b840191505092915050565b61226d81611e57565b82525050565b600060808301600083015161228b60008601826121d6565b50602083015184820360208601526122a3828261222b565b91505060408301516122b86040860182612264565b5060608301516122cb6060860182612264565b508091505092915050565b600060208201905081810360008301526122f08184612273565b905092915050565b60008060006060848603121561231157612310611cb1565b5b600061231f86828701611cdc565b935050602084013567ffffffffffffffff8111156123405761233f611cb6565b5b61234c86828701611e09565b925050604061235d86828701611e80565b9150509250925092565b61237081611f62565b82525050565b60006101c08301600083015161238f60008601826121d6565b5060208301516123a260208601826121d6565b5060408301516123b560408601826121d6565b5060608301516123c860608601826121d6565b5060808301516123db60808601826121d6565b5060a08301516123ee60a08601826121d6565b5060c083015161240160c08601826121d6565b5060e083015161241460e08601826121d6565b506101008301516124296101008601826121d6565b5061012083015161243e6101208601826121d6565b506101408301516124536101408601826121d6565b5061016083015184820361016086015261246d828261222b565b915050610180830151612484610180860182612367565b506101a08301516124996101a0860182612264565b508091505092915050565b600060208201905081810360008301526124be8184612376565b905092915050565b600082825260208201905092915050565b60006124e2826121e5565b6124ec81856124c6565b93506124fc818560208601612201565b61250581611cfb565b840191505092915050565b61251981611e57565b82525050565b6000819050919050565b6000819050919050565b600061254e6125496125448461251f565b612529565b611cbb565b9050919050565b61255e81612533565b82525050565b6000819050919050565b600067ffffffffffffffff82169050919050565b600061259d61259861259384612564565b612529565b61256e565b9050919050565b6125ad81612582565b82525050565b600081519050919050565b600082825260208201905092915050565b60006125da826125b3565b6125e481856125be565b93506125f4818560208601612201565b6125fd81611cfb565b840191505092915050565b600060a082019050818103600083015261262281886124d7565b90506126316020830187612510565b61263e6040830186612555565b61264b60608301856125a4565b818103608083015261265d81846125cf565b90509695505050505050565b60608201600082015161267f60008501826121d6565b50602082015161269260208501826121d6565b5060408201516126a56040850182612367565b50505050565b60006060820190506126c06000830184612669565b92915050565b7f4e487b7100000000000000000000000000000000000000000000000000000000600052602260045260246000fd5b6000600282049050600182168061270d57607f821691505b6020821081036127205761271f6126c6565b5b50919050565b60008190508160005260206000209050919050565b60006020601f8301049050919050565b600082821b905092915050565b6000600883026127887fffffffffffffffffffffffffffffffffffffffffffffffffffffffffffffffff8261274b565b612792868361274b565b95508019841693508086168417925050509392505050565b60006127c56127c06127bb84611cbb565b612529565b611cbb565b9050919050565b6000819050919050565b6127df836127aa565b6127f36127eb826127cc565b848454612758565b825550505050565b600090565b6128086127fb565b6128138184846127d6565b505050565b5b818110156128375761282c600082612800565b600181019050612819565b5050565b601f82111561287c5761284d81612726565b6128568461273b565b81016020851015612865578190505b6128796128718561273b565b830182612818565b50505b505050565b600082821c905092915050565b600061289f60001984600802612881565b1980831691505092915050565b60006128b8838361288e565b9150826002028217905092915050565b6128d1826121e5565b67ffffffffffffffff8111156128ea576128e9611d0c565b5b6128f482546126f5565b6128ff82828561283b565b600060209050601f8311600181146129325760008415612920578287015190505b61292a85826128ac565b865550612992565b601f19841661294086612726565b60005b8281101561296857848901518255600182019150602085019450602081019050612943565b868310156129855784890151612981601f89168261288e565b8355505b6001600288020188555050505b505050505050565b7f796f7520617265206e6f742069646c6500000000000000000000000000000000600082015250565b60006129d06010836124c6565b91506129db8261299a565b602082019050919050565b600060208201905081810360008301526129ff816129c3565b9050919050565b7f796f7520617265206e6f7420746865206f776e65720000000000000000000000600082015250565b6000612a3c6015836124c6565b9150612a4782612a06565b602082019050919050565b60006020820190508181036000830152612a6b81612a2f565b9050919050565b7f4e487b7100000000000000000000000000000000000000000000000000000000600052601160045260246000fd5b6000612aac82611cbb565b91507fffffffffffffffffffffffffffffffffffffffffffffffffffffffffffffffff8203612ade57612add612a72565b5b600182019050919050565b600081905092915050565b6000612aff826121e5565b612b098185612ae9565b9350612b19818560208601612201565b80840191505092915050565b6000612b318285612af4565b9150612b3d8284612af4565b91508190509392505050565b7f4552433732313a207472616e7366657220746f206e6f6e20455243373231526560008201527f63656976657220696d706c656d656e7465720000000000000000000000000000602082015250565b6000612ba56032836124c6565b9150612bb082612b49565b604082019050919050565b60006020820190508181036000830152612bd481612b98565b9050919050565b7f4e487b7100000000000000000000000000000000000000000000000000000000600052601260045260246000fd5b7f4552433732313a206d696e7420746f20746865207a65726f2061646472657373600082015250565b6000612c406020836124c6565b9150612c4b82612c0a565b602082019050919050565b60006020820190508181036000830152612c6f81612c33565b9050919050565b7f4552433732313a20746f6b656e20616c7265616479206d696e74656400000000600082015250565b6000612cac601c836124c6565b9150612cb782612c76565b602082019050919050565b60006020820190508181036000830152612cdb81612c9f565b9050919050565b612ceb81611cbb565b82525050565b6000608082019050612d066000830187612510565b612d136020830186612510565b612d206040830185612ce2565b8181036060830152612d3281846125cf565b905095945050505050565b60007fffffffff0000000000000000000000000000000000000000000000000000000082169050919050565b612d7281612d3d565b8114612d7d57600080fd5b50565b600081519050612d8f81612d69565b92915050565b600060208284031215612dab57612daa611cb1565b5b6000612db984828501612d80565b9150509291505056fe68747470733a2f2f697066732e696f2f697066732f516d556257785564387358344d5a6f6a4b455255506d507539597441596659726f425334546531484a454b75637968747470733a2f2f697066732e696f2f697066732f516d625641427439734b704e55613844674d4a64653344424351796f72534354395631447a6436634a385a556d5068747470733a2f2f697066732e696f2f697066732f516d66424e4870787077554e67747736695842784b584c6256786f6d386d7064427367715a5a79353970524d354368747470733a2f2f697066732e696f2f697066732f516d5158655965397278526b6b716645423744725a52534732533179724e676a363456386d3676374b65747a516468747470733a2f2f697066732e696f2f697066732f516d55715a4b5275646e616e673147586244326e4848776d4a664e4e42465156646d6f483857416e65616969356868747470733a2f2f697066732e696f2f697066732f516d56357053734d47474d4c5733593979513871534c534d4451616b646e6a686a53346b356865366d4a79506548a264697066735822122094848d8f9643498c6ead8bcb5a78ed67e3d93cd96f7532abf207028fc268f9ae64736f6c63430008120033",
  "linkReferences": {},
  "deployedLinkReferences": {}
}