{
  "_format": "hh-sol-artifact-1",
  "contractName": "ScriptFacet",
  "sourceName": "contracts/facets/ScriptFacet.sol",
  "abi": [
    {
      "anonymous": false,
      "inputs": [
        {
          "indexed": true,
          "internalType": "uint256",
          "name": "id",
          "type": "uint256"
        }
      ],
      "name": "LevelUpPatch",
      "type": "event"
    },
    {
      "inputs": [
        {
          "internalType": "uint256",
          "name": "_id",
          "type": "uint256"
        }
      ],
      "name": "emitLevel",
      "outputs": [],
      "stateMutability": "nonpayable",
      "type": "function"
    },
    {
      "inputs": [],
      "name": "levelUpScript",
      "outputs": [],
      "stateMutability": "nonpayable",
      "type": "function"
    }
  ],
  "bytecode": "0x608060405234801561001057600080fd5b506105f7806100206000396000f3fe608060405234801561001057600080fd5b50600436106100365760003560e01c806399b2eee11461003b5780639b80cab514610045575b600080fd5b610043610061565b005b61005f600480360381019061005a91906104bd565b6100b2565b005b600061006b6100e9565b90506000600190505b818110156100ae57600161008782610101565b60000151111561009b5761009a816100b2565b5b80806100a690610519565b915050610074565b5050565b600060099050817f59e322613c41634cab13222c75ad4e4c6d441312567e15eeb3cab8da555c664c60405160405180910390a25050565b6000806100f4610377565b9050806001015491505090565b6101096103a4565b6000610113610377565b90508060030160008481526020019081526020016000206040518061028001604052908160008201548152602001600182015481526020016002820154815260200160038201548152602001600482015481526020016005820154815260200160068201548152602001600782015481526020016008820154815260200160098201548152602001600a8201548152602001600b8201548152602001600c8201548152602001600d8201548152602001600e8201548152602001600f820180546101dc90610590565b80601f016020809104026020016040519081016040528092919081815260200182805461020890610590565b80156102555780601f1061022a57610100808354040283529160200191610255565b820191906000526020600020905b81548152906001019060200180831161023857829003601f168201915b5050505050815260200160108201805461026e90610590565b80601f016020809104026020016040519081016040528092919081815260200182805461029a90610590565b80156102e75780601f106102bc576101008083540402835291602001916102e7565b820191906000526020600020905b8154815290600101906020018083116102ca57829003601f168201915b505050505081526020016011820160009054906101000a900460ff16151515158152602001601282016040518060e00160405290816000820154815260200160018201548152602001600282015481526020016003820154815260200160048201548152602001600582015481526020016006820154815250508152602001601982015481525050915050919050565b6000807f3cab9a070a0c61cd0ae9d9e9e2c0781e5ca8691bec4087e5a4701d5ac018dd4e90508091505090565b6040518061028001604052806000815260200160008152602001600081526020016000815260200160008152602001600081526020016000815260200160008152602001600081526020016000815260200160008152602001600081526020016000815260200160008152602001600081526020016060815260200160608152602001600015158152602001610438610445565b8152602001600081525090565b6040518060e00160405280600081526020016000815260200160008152602001600081526020016000815260200160008152602001600081525090565b600080fd5b6000819050919050565b61049a81610487565b81146104a557600080fd5b50565b6000813590506104b781610491565b92915050565b6000602082840312156104d3576104d2610482565b5b60006104e1848285016104a8565b91505092915050565b7f4e487b7100000000000000000000000000000000000000000000000000000000600052601160045260246000fd5b600061052482610487565b91507fffffffffffffffffffffffffffffffffffffffffffffffffffffffffffffffff8203610556576105556104ea565b5b600182019050919050565b7f4e487b7100000000000000000000000000000000000000000000000000000000600052602260045260246000fd5b600060028204905060018216806105a857607f821691505b6020821081036105bb576105ba610561565b5b5091905056fea2646970667358221220b5d3ff8338aa0b94f45059cc8b117b1c88c41dde96b2457d46905ff2832ba9e664736f6c63430008120033",
  "linkReferences": {},
  "deployedLinkReferences": {}
}