{
  "_format": "hh-sol-artifact-1",
  "contractName": "ScriptFacet",
  "sourceName": "contracts/facets/ScriptFacet.sol",
  "abi": [
    {
      "anonymous": false,
      "inputs": [
        {
          "indexed": true,
          "internalType": "uint256",
          "name": "id",
          "type": "uint256"
        },
        {
          "components": [
            {
              "internalType": "uint256",
              "name": "level",
              "type": "uint256"
            },
            {
              "internalType": "uint256",
              "name": "xp",
              "type": "uint256"
            },
            {
              "internalType": "uint256",
              "name": "status",
              "type": "uint256"
            },
            {
              "internalType": "uint256",
              "name": "strength",
              "type": "uint256"
            },
            {
              "internalType": "uint256",
              "name": "health",
              "type": "uint256"
            },
            {
              "internalType": "uint256",
              "name": "currentHealth",
              "type": "uint256"
            },
            {
              "internalType": "uint256",
              "name": "magic",
              "type": "uint256"
            },
            {
              "internalType": "uint256",
              "name": "mana",
              "type": "uint256"
            },
            {
              "internalType": "uint256",
              "name": "maxMana",
              "type": "uint256"
            },
            {
              "internalType": "uint256",
              "name": "agility",
              "type": "uint256"
            },
            {
              "internalType": "uint256",
              "name": "luck",
              "type": "uint256"
            },
            {
              "internalType": "uint256",
              "name": "wisdom",
              "type": "uint256"
            },
            {
              "internalType": "uint256",
              "name": "haki",
              "type": "uint256"
            },
            {
              "internalType": "uint256",
              "name": "perception",
              "type": "uint256"
            },
            {
              "internalType": "uint256",
              "name": "defense",
              "type": "uint256"
            },
            {
              "internalType": "string",
              "name": "name",
              "type": "string"
            },
            {
              "internalType": "string",
              "name": "uri",
              "type": "string"
            },
            {
              "internalType": "bool",
              "name": "male",
              "type": "bool"
            },
            {
              "components": [
                {
                  "internalType": "uint256",
                  "name": "head",
                  "type": "uint256"
                },
                {
                  "internalType": "uint256",
                  "name": "body",
                  "type": "uint256"
                },
                {
                  "internalType": "uint256",
                  "name": "leftHand",
                  "type": "uint256"
                },
                {
                  "internalType": "uint256",
                  "name": "rightHand",
                  "type": "uint256"
                },
                {
                  "internalType": "uint256",
                  "name": "pants",
                  "type": "uint256"
                },
                {
                  "internalType": "uint256",
                  "name": "feet",
                  "type": "uint256"
                },
                {
                  "internalType": "uint256",
                  "name": "neck",
                  "type": "uint256"
                }
              ],
              "internalType": "struct PlayerSlotLib.Slot",
              "name": "slot",
              "type": "tuple"
            },
            {
              "internalType": "uint256",
              "name": "playerClass",
              "type": "uint256"
            }
          ],
          "indexed": false,
          "internalType": "struct PlayerSlotLib.Player",
          "name": "_player",
          "type": "tuple"
        }
      ],
      "name": "LevelUpPatch",
      "type": "event"
    },
    {
      "inputs": [],
      "name": "levelUpScript",
      "outputs": [],
      "stateMutability": "nonpayable",
      "type": "function"
    }
  ],
  "bytecode": "0x608060405234801561001057600080fd5b5061088f806100206000396000f3fe608060405234801561001057600080fd5b506004361061002b5760003560e01c806399b2eee114610030575b600080fd5b61003861003a565b005b60006100446100c2565b90506000600190505b818110156100be576001610060826100da565b6000015111156100ab57807fa2b8af449d12fc50eb3ba4a31dcd5747789b93e963bec9dacf73f233def8dd03610095836100da565b6040516100a29190610760565b60405180910390a25b80806100b6906107b1565b91505061004d565b5050565b6000806100cd610350565b9050806001015491505090565b6100e261037d565b60006100ec610350565b90508060030160008481526020019081526020016000206040518061028001604052908160008201548152602001600182015481526020016002820154815260200160038201548152602001600482015481526020016005820154815260200160068201548152602001600782015481526020016008820154815260200160098201548152602001600a8201548152602001600b8201548152602001600c8201548152602001600d8201548152602001600e8201548152602001600f820180546101b590610828565b80601f01602080910402602001604051908101604052809291908181526020018280546101e190610828565b801561022e5780601f106102035761010080835404028352916020019161022e565b820191906000526020600020905b81548152906001019060200180831161021157829003601f168201915b5050505050815260200160108201805461024790610828565b80601f016020809104026020016040519081016040528092919081815260200182805461027390610828565b80156102c05780601f10610295576101008083540402835291602001916102c0565b820191906000526020600020905b8154815290600101906020018083116102a357829003601f168201915b505050505081526020016011820160009054906101000a900460ff16151515158152602001601282016040518060e00160405290816000820154815260200160018201548152602001600282015481526020016003820154815260200160048201548152602001600582015481526020016006820154815250508152602001601982015481525050915050919050565b6000807f3cab9a070a0c61cd0ae9d9e9e2c0781e5ca8691bec4087e5a4701d5ac018dd4e90508091505090565b604051806102800160405280600081526020016000815260200160008152602001600081526020016000815260200160008152602001600081526020016000815260200160008152602001600081526020016000815260200160008152602001600081526020016000815260200160008152602001606081526020016060815260200160001515815260200161041161041e565b8152602001600081525090565b6040518060e00160405280600081526020016000815260200160008152602001600081526020016000815260200160008152602001600081525090565b6000819050919050565b61046e8161045b565b82525050565b600081519050919050565b600082825260208201905092915050565b60005b838110156104ae578082015181840152602081019050610493565b60008484015250505050565b6000601f19601f8301169050919050565b60006104d682610474565b6104e0818561047f565b93506104f0818560208601610490565b6104f9816104ba565b840191505092915050565b60008115159050919050565b61051981610504565b82525050565b60e0820160008201516105356000850182610465565b5060208201516105486020850182610465565b50604082015161055b6040850182610465565b50606082015161056e6060850182610465565b5060808201516105816080850182610465565b5060a082015161059460a0850182610465565b5060c08201516105a760c0850182610465565b50505050565b6000610340830160008301516105c66000860182610465565b5060208301516105d96020860182610465565b5060408301516105ec6040860182610465565b5060608301516105ff6060860182610465565b5060808301516106126080860182610465565b5060a083015161062560a0860182610465565b5060c083015161063860c0860182610465565b5060e083015161064b60e0860182610465565b50610100830151610660610100860182610465565b50610120830151610675610120860182610465565b5061014083015161068a610140860182610465565b5061016083015161069f610160860182610465565b506101808301516106b4610180860182610465565b506101a08301516106c96101a0860182610465565b506101c08301516106de6101c0860182610465565b506101e08301518482036101e08601526106f882826104cb565b91505061020083015184820361020086015261071482826104cb565b91505061022083015161072b610220860182610510565b5061024083015161074061024086018261051f565b50610260830151610755610320860182610465565b508091505092915050565b6000602082019050818103600083015261077a81846105ad565b905092915050565b7f4e487b7100000000000000000000000000000000000000000000000000000000600052601160045260246000fd5b60006107bc8261045b565b91507fffffffffffffffffffffffffffffffffffffffffffffffffffffffffffffffff82036107ee576107ed610782565b5b600182019050919050565b7f4e487b7100000000000000000000000000000000000000000000000000000000600052602260045260246000fd5b6000600282049050600182168061084057607f821691505b602082108103610853576108526107f9565b5b5091905056fea26469706673582212202703850ca992754d83b50b5f93f343cb66349563c62c6db1530eec9fae8eceea64736f6c63430008120033",
  "linkReferences": {},
  "deployedLinkReferences": {}
}