{
  "_format": "hh-sol-artifact-1",
  "contractName": "ScriptFacet",
  "sourceName": "contracts/facets/ScriptFacet.sol",
  "abi": [
    {
      "anonymous": false,
      "inputs": [
        {
          "indexed": true,
          "internalType": "uint256",
          "name": "id",
          "type": "uint256"
        },
        {
          "components": [
            {
              "internalType": "uint256",
              "name": "level",
              "type": "uint256"
            },
            {
              "internalType": "uint256",
              "name": "xp",
              "type": "uint256"
            },
            {
              "internalType": "uint256",
              "name": "status",
              "type": "uint256"
            },
            {
              "internalType": "uint256",
              "name": "strength",
              "type": "uint256"
            },
            {
              "internalType": "uint256",
              "name": "health",
              "type": "uint256"
            },
            {
              "internalType": "uint256",
              "name": "currentHealth",
              "type": "uint256"
            },
            {
              "internalType": "uint256",
              "name": "magic",
              "type": "uint256"
            },
            {
              "internalType": "uint256",
              "name": "mana",
              "type": "uint256"
            },
            {
              "internalType": "uint256",
              "name": "maxMana",
              "type": "uint256"
            },
            {
              "internalType": "uint256",
              "name": "agility",
              "type": "uint256"
            },
            {
              "internalType": "uint256",
              "name": "luck",
              "type": "uint256"
            },
            {
              "internalType": "uint256",
              "name": "wisdom",
              "type": "uint256"
            },
            {
              "internalType": "uint256",
              "name": "haki",
              "type": "uint256"
            },
            {
              "internalType": "uint256",
              "name": "perception",
              "type": "uint256"
            },
            {
              "internalType": "uint256",
              "name": "defense",
              "type": "uint256"
            },
            {
              "internalType": "string",
              "name": "name",
              "type": "string"
            },
            {
              "internalType": "string",
              "name": "uri",
              "type": "string"
            },
            {
              "internalType": "bool",
              "name": "male",
              "type": "bool"
            },
            {
              "components": [
                {
                  "internalType": "uint256",
                  "name": "head",
                  "type": "uint256"
                },
                {
                  "internalType": "uint256",
                  "name": "body",
                  "type": "uint256"
                },
                {
                  "internalType": "uint256",
                  "name": "leftHand",
                  "type": "uint256"
                },
                {
                  "internalType": "uint256",
                  "name": "rightHand",
                  "type": "uint256"
                },
                {
                  "internalType": "uint256",
                  "name": "pants",
                  "type": "uint256"
                },
                {
                  "internalType": "uint256",
                  "name": "feet",
                  "type": "uint256"
                },
                {
                  "internalType": "uint256",
                  "name": "neck",
                  "type": "uint256"
                }
              ],
              "internalType": "struct PlayerSlotLib.Slot",
              "name": "slot",
              "type": "tuple"
            },
            {
              "internalType": "uint256",
              "name": "playerClass",
              "type": "uint256"
            }
          ],
          "indexed": false,
          "internalType": "struct PlayerSlotLib.Player",
          "name": "_player",
          "type": "tuple"
        }
      ],
      "name": "LevelUpPatch",
      "type": "event"
    },
    {
      "inputs": [
        {
          "internalType": "uint256",
          "name": "_id",
          "type": "uint256"
        }
      ],
      "name": "emitLevel",
      "outputs": [],
      "stateMutability": "nonpayable",
      "type": "function"
    },
    {
      "inputs": [],
      "name": "levelUpScript",
      "outputs": [],
      "stateMutability": "nonpayable",
      "type": "function"
    }
  ],
  "bytecode": "0x608060405234801561001057600080fd5b50610920806100206000396000f3fe608060405234801561001057600080fd5b50600436106100365760003560e01c806399b2eee11461003b5780639b80cab514610045575b600080fd5b610043610061565b005b61005f600480360381019061005a91906104c9565b6100b2565b005b600061006b6100f5565b90506000600190505b818110156100ae5760016100878261010d565b60000151111561009b5761009a816100b2565b5b80806100a690610525565b915050610074565b5050565b807fa2b8af449d12fc50eb3ba4a31dcd5747789b93e963bec9dacf73f233def8dd036100dd8361010d565b6040516100ea9190610868565b60405180910390a250565b600080610100610383565b9050806001015491505090565b6101156103b0565b600061011f610383565b90508060030160008481526020019081526020016000206040518061028001604052908160008201548152602001600182015481526020016002820154815260200160038201548152602001600482015481526020016005820154815260200160068201548152602001600782015481526020016008820154815260200160098201548152602001600a8201548152602001600b8201548152602001600c8201548152602001600d8201548152602001600e8201548152602001600f820180546101e8906108b9565b80601f0160208091040260200160405190810160405280929190818152602001828054610214906108b9565b80156102615780601f1061023657610100808354040283529160200191610261565b820191906000526020600020905b81548152906001019060200180831161024457829003601f168201915b5050505050815260200160108201805461027a906108b9565b80601f01602080910402602001604051908101604052809291908181526020018280546102a6906108b9565b80156102f35780601f106102c8576101008083540402835291602001916102f3565b820191906000526020600020905b8154815290600101906020018083116102d657829003601f168201915b505050505081526020016011820160009054906101000a900460ff16151515158152602001601282016040518060e00160405290816000820154815260200160018201548152602001600282015481526020016003820154815260200160048201548152602001600582015481526020016006820154815250508152602001601982015481525050915050919050565b6000807f3cab9a070a0c61cd0ae9d9e9e2c0781e5ca8691bec4087e5a4701d5ac018dd4e90508091505090565b6040518061028001604052806000815260200160008152602001600081526020016000815260200160008152602001600081526020016000815260200160008152602001600081526020016000815260200160008152602001600081526020016000815260200160008152602001600081526020016060815260200160608152602001600015158152602001610444610451565b8152602001600081525090565b6040518060e00160405280600081526020016000815260200160008152602001600081526020016000815260200160008152602001600081525090565b600080fd5b6000819050919050565b6104a681610493565b81146104b157600080fd5b50565b6000813590506104c38161049d565b92915050565b6000602082840312156104df576104de61048e565b5b60006104ed848285016104b4565b91505092915050565b7f4e487b7100000000000000000000000000000000000000000000000000000000600052601160045260246000fd5b600061053082610493565b91507fffffffffffffffffffffffffffffffffffffffffffffffffffffffffffffffff8203610562576105616104f6565b5b600182019050919050565b61057681610493565b82525050565b600081519050919050565b600082825260208201905092915050565b60005b838110156105b657808201518184015260208101905061059b565b60008484015250505050565b6000601f19601f8301169050919050565b60006105de8261057c565b6105e88185610587565b93506105f8818560208601610598565b610601816105c2565b840191505092915050565b60008115159050919050565b6106218161060c565b82525050565b60e08201600082015161063d600085018261056d565b506020820151610650602085018261056d565b506040820151610663604085018261056d565b506060820151610676606085018261056d565b506080820151610689608085018261056d565b5060a082015161069c60a085018261056d565b5060c08201516106af60c085018261056d565b50505050565b6000610340830160008301516106ce600086018261056d565b5060208301516106e1602086018261056d565b5060408301516106f4604086018261056d565b506060830151610707606086018261056d565b50608083015161071a608086018261056d565b5060a083015161072d60a086018261056d565b5060c083015161074060c086018261056d565b5060e083015161075360e086018261056d565b5061010083015161076861010086018261056d565b5061012083015161077d61012086018261056d565b5061014083015161079261014086018261056d565b506101608301516107a761016086018261056d565b506101808301516107bc61018086018261056d565b506101a08301516107d16101a086018261056d565b506101c08301516107e66101c086018261056d565b506101e08301518482036101e086015261080082826105d3565b91505061020083015184820361020086015261081c82826105d3565b915050610220830151610833610220860182610618565b50610240830151610848610240860182610627565b5061026083015161085d61032086018261056d565b508091505092915050565b6000602082019050818103600083015261088281846106b5565b905092915050565b7f4e487b7100000000000000000000000000000000000000000000000000000000600052602260045260246000fd5b600060028204905060018216806108d157607f821691505b6020821081036108e4576108e361088a565b5b5091905056fea264697066735822122071e71d307558eb943b3289a7d56fba16b92ebdadf72ca61a26d9bf631087e36d64736f6c63430008120033",
  "linkReferences": {},
  "deployedLinkReferences": {}
}