{
  "_format": "hh-sol-artifact-1",
  "contractName": "ScriptFacet",
  "sourceName": "contracts/facets/ScriptFacet.sol",
  "abi": [
    {
      "inputs": [
        {
          "internalType": "uint256",
          "name": "_playerId",
          "type": "uint256"
        }
      ],
      "name": "activeScript",
      "outputs": [],
      "stateMutability": "nonpayable",
      "type": "function"
    },
    {
      "inputs": [],
      "name": "openArena",
      "outputs": [],
      "stateMutability": "nonpayable",
      "type": "function"
    },
    {
      "inputs": [],
      "name": "udpateDefese",
      "outputs": [],
      "stateMutability": "nonpayable",
      "type": "function"
    }
  ],
  "bytecode": "0x608060405234801561001057600080fd5b50610416806100206000396000f3fe608060405234801561001057600080fd5b50600436106100415760003560e01c806378aafea2146100465780639b25b84214610050578063d91708b51461006c575b600080fd5b61004e610076565b005b61006a60048036038101906100659190610308565b610080565b005b61007461008c565b005b61007e610096565b565b610089816100c5565b50565b6100946101c5565b565b60006100a0610246565b905060018160020160000160006101000a81548160ff02191690831515021790555050565b60006100cf610273565b905060006100db6102a0565b9050603282600301600085815260200190815260200160002060070160008282546101069190610364565b9250508190555060328160010160003373ffffffffffffffffffffffffffffffffffffffff1673ffffffffffffffffffffffffffffffffffffffff168152602001908152602001600020600082825461015f9190610364565b925050819055506101f48160000160003373ffffffffffffffffffffffffffffffffffffffff1673ffffffffffffffffffffffffffffffffffffffff16815260200190815260200160002060008282546101b99190610364565b92505081905550505050565b60006101cf610273565b905060005b8160010154811015610242576000826003016000838152602001908152602001600020601901540361022f57816003016000828152602001908152602001600020600e01600081548092919061022990610398565b91905055505b808061023a90610398565b9150506101d4565b5050565b6000807f1b1c2350f60dba32e7a2436167ce3f8399cd1c51a95c8577f1448f53846d4cda90508091505090565b6000807f3cab9a070a0c61cd0ae9d9e9e2c0781e5ca8691bec4087e5a4701d5ac018dd4e90508091505090565b6000807f2c89d74504b6ad8d4fbde22bc3474166bac5452a11195897f239d8bebe02d70790508091505090565b600080fd5b6000819050919050565b6102e5816102d2565b81146102f057600080fd5b50565b600081359050610302816102dc565b92915050565b60006020828403121561031e5761031d6102cd565b5b600061032c848285016102f3565b91505092915050565b7f4e487b7100000000000000000000000000000000000000000000000000000000600052601160045260246000fd5b600061036f826102d2565b915061037a836102d2565b925082820190508082111561039257610391610335565b5b92915050565b60006103a3826102d2565b91507fffffffffffffffffffffffffffffffffffffffffffffffffffffffffffffffff82036103d5576103d4610335565b5b60018201905091905056fea26469706673582212203502bcb9dc563c1fdeee734119050d646ec83d5a236e1906b2e186834ed2172a64736f6c63430008110033",
  "linkReferences": {},
  "deployedLinkReferences": {}
}