{
  "_format": "hh-sol-artifact-1",
  "contractName": "ScriptFacet",
  "sourceName": "contracts/facets/ScriptFacet.sol",
  "abi": [
    {
      "anonymous": false,
      "inputs": [
        {
          "components": [
            {
              "internalType": "uint256",
              "name": "level",
              "type": "uint256"
            },
            {
              "internalType": "uint256",
              "name": "xp",
              "type": "uint256"
            },
            {
              "internalType": "uint256",
              "name": "status",
              "type": "uint256"
            },
            {
              "internalType": "uint256",
              "name": "strength",
              "type": "uint256"
            },
            {
              "internalType": "uint256",
              "name": "health",
              "type": "uint256"
            },
            {
              "internalType": "uint256",
              "name": "currentHealth",
              "type": "uint256"
            },
            {
              "internalType": "uint256",
              "name": "magic",
              "type": "uint256"
            },
            {
              "internalType": "uint256",
              "name": "mana",
              "type": "uint256"
            },
            {
              "internalType": "uint256",
              "name": "maxMana",
              "type": "uint256"
            },
            {
              "internalType": "uint256",
              "name": "agility",
              "type": "uint256"
            },
            {
              "internalType": "uint256",
              "name": "luck",
              "type": "uint256"
            },
            {
              "internalType": "uint256",
              "name": "wisdom",
              "type": "uint256"
            },
            {
              "internalType": "uint256",
              "name": "haki",
              "type": "uint256"
            },
            {
              "internalType": "uint256",
              "name": "perception",
              "type": "uint256"
            },
            {
              "internalType": "uint256",
              "name": "defense",
              "type": "uint256"
            },
            {
              "internalType": "string",
              "name": "name",
              "type": "string"
            },
            {
              "internalType": "string",
              "name": "uri",
              "type": "string"
            },
            {
              "internalType": "bool",
              "name": "male",
              "type": "bool"
            },
            {
              "components": [
                {
                  "internalType": "uint256",
                  "name": "head",
                  "type": "uint256"
                },
                {
                  "internalType": "uint256",
                  "name": "body",
                  "type": "uint256"
                },
                {
                  "internalType": "uint256",
                  "name": "leftHand",
                  "type": "uint256"
                },
                {
                  "internalType": "uint256",
                  "name": "rightHand",
                  "type": "uint256"
                },
                {
                  "internalType": "uint256",
                  "name": "pants",
                  "type": "uint256"
                },
                {
                  "internalType": "uint256",
                  "name": "feet",
                  "type": "uint256"
                },
                {
                  "internalType": "uint256",
                  "name": "neck",
                  "type": "uint256"
                }
              ],
              "internalType": "struct PlayerSlotLib.Slot",
              "name": "slot",
              "type": "tuple"
            },
            {
              "internalType": "uint256",
              "name": "playerClass",
              "type": "uint256"
            }
          ],
          "indexed": false,
          "internalType": "struct PlayerSlotLib.Player",
          "name": "_player",
          "type": "tuple"
        }
      ],
      "name": "LevelUpPatch",
      "type": "event"
    },
    {
      "inputs": [],
      "name": "levelUpScript",
      "outputs": [],
      "stateMutability": "nonpayable",
      "type": "function"
    }
  ],
  "bytecode": "0x608060405234801561001057600080fd5b5061088e806100206000396000f3fe608060405234801561001057600080fd5b506004361061002b5760003560e01c806399b2eee114610030575b600080fd5b61003861003a565b005b60006100446100c1565b90506000600190505b818110156100bd576001610060826100d9565b6000015111156100aa577feb5ced7d80ac15a758471501af787566ba7174da1082247160dab1b05f478188610094826100d9565b6040516100a1919061075f565b60405180910390a15b80806100b5906107b0565b91505061004d565b5050565b6000806100cc61034f565b9050806001015491505090565b6100e161037c565b60006100eb61034f565b90508060030160008481526020019081526020016000206040518061028001604052908160008201548152602001600182015481526020016002820154815260200160038201548152602001600482015481526020016005820154815260200160068201548152602001600782015481526020016008820154815260200160098201548152602001600a8201548152602001600b8201548152602001600c8201548152602001600d8201548152602001600e8201548152602001600f820180546101b490610827565b80601f01602080910402602001604051908101604052809291908181526020018280546101e090610827565b801561022d5780601f106102025761010080835404028352916020019161022d565b820191906000526020600020905b81548152906001019060200180831161021057829003601f168201915b5050505050815260200160108201805461024690610827565b80601f016020809104026020016040519081016040528092919081815260200182805461027290610827565b80156102bf5780601f10610294576101008083540402835291602001916102bf565b820191906000526020600020905b8154815290600101906020018083116102a257829003601f168201915b505050505081526020016011820160009054906101000a900460ff16151515158152602001601282016040518060e00160405290816000820154815260200160018201548152602001600282015481526020016003820154815260200160048201548152602001600582015481526020016006820154815250508152602001601982015481525050915050919050565b6000807f3cab9a070a0c61cd0ae9d9e9e2c0781e5ca8691bec4087e5a4701d5ac018dd4e90508091505090565b604051806102800160405280600081526020016000815260200160008152602001600081526020016000815260200160008152602001600081526020016000815260200160008152602001600081526020016000815260200160008152602001600081526020016000815260200160008152602001606081526020016060815260200160001515815260200161041061041d565b8152602001600081525090565b6040518060e00160405280600081526020016000815260200160008152602001600081526020016000815260200160008152602001600081525090565b6000819050919050565b61046d8161045a565b82525050565b600081519050919050565b600082825260208201905092915050565b60005b838110156104ad578082015181840152602081019050610492565b60008484015250505050565b6000601f19601f8301169050919050565b60006104d582610473565b6104df818561047e565b93506104ef81856020860161048f565b6104f8816104b9565b840191505092915050565b60008115159050919050565b61051881610503565b82525050565b60e0820160008201516105346000850182610464565b5060208201516105476020850182610464565b50604082015161055a6040850182610464565b50606082015161056d6060850182610464565b5060808201516105806080850182610464565b5060a082015161059360a0850182610464565b5060c08201516105a660c0850182610464565b50505050565b6000610340830160008301516105c56000860182610464565b5060208301516105d86020860182610464565b5060408301516105eb6040860182610464565b5060608301516105fe6060860182610464565b5060808301516106116080860182610464565b5060a083015161062460a0860182610464565b5060c083015161063760c0860182610464565b5060e083015161064a60e0860182610464565b5061010083015161065f610100860182610464565b50610120830151610674610120860182610464565b50610140830151610689610140860182610464565b5061016083015161069e610160860182610464565b506101808301516106b3610180860182610464565b506101a08301516106c86101a0860182610464565b506101c08301516106dd6101c0860182610464565b506101e08301518482036101e08601526106f782826104ca565b91505061020083015184820361020086015261071382826104ca565b91505061022083015161072a61022086018261050f565b5061024083015161073f61024086018261051e565b50610260830151610754610320860182610464565b508091505092915050565b6000602082019050818103600083015261077981846105ac565b905092915050565b7f4e487b7100000000000000000000000000000000000000000000000000000000600052601160045260246000fd5b60006107bb8261045a565b91507fffffffffffffffffffffffffffffffffffffffffffffffffffffffffffffffff82036107ed576107ec610781565b5b600182019050919050565b7f4e487b7100000000000000000000000000000000000000000000000000000000600052602260045260246000fd5b6000600282049050600182168061083f57607f821691505b602082108103610852576108516107f8565b5b5091905056fea264697066735822122015a7c99ac93ff767b5aee34bacf1ef8edc6ad4ec0cd295a70dcb0a6e60ba478664736f6c63430008120033",
  "linkReferences": {},
  "deployedLinkReferences": {}
}