{
  "_format": "hh-sol-artifact-1",
  "contractName": "ArenaFacet",
  "sourceName": "contracts/facets/ArenaFacet.sol",
  "abi": [
    {
      "anonymous": false,
      "inputs": [
        {
          "indexed": true,
          "internalType": "uint256",
          "name": "_playerId",
          "type": "uint256"
        },
        {
          "indexed": true,
          "internalType": "uint256",
          "name": "_basicArenaId",
          "type": "uint256"
        }
      ],
      "name": "BasicArenaLoss",
      "type": "event"
    },
    {
      "anonymous": false,
      "inputs": [
        {
          "indexed": true,
          "internalType": "uint256",
          "name": "_playerId",
          "type": "uint256"
        },
        {
          "indexed": true,
          "internalType": "uint256",
          "name": "_basicArenaId",
          "type": "uint256"
        }
      ],
      "name": "BasicArenaWin",
      "type": "event"
    },
    {
      "anonymous": false,
      "inputs": [
        {
          "indexed": false,
          "internalType": "uint256",
          "name": "_basicArenaId",
          "type": "uint256"
        }
      ],
      "name": "CreateBasicArena",
      "type": "event"
    },
    {
      "anonymous": false,
      "inputs": [
        {
          "indexed": true,
          "internalType": "uint256",
          "name": "_playerId",
          "type": "uint256"
        },
        {
          "indexed": true,
          "internalType": "uint256",
          "name": "_basicArenaId",
          "type": "uint256"
        }
      ],
      "name": "EnterBasicArena",
      "type": "event"
    },
    {
      "anonymous": false,
      "inputs": [
        {
          "indexed": true,
          "internalType": "uint256",
          "name": "_playerId",
          "type": "uint256"
        },
        {
          "indexed": true,
          "internalType": "uint256",
          "name": "_basicArenaId",
          "type": "uint256"
        }
      ],
      "name": "LeaveBasicArena",
      "type": "event"
    },
    {
      "inputs": [
        {
          "internalType": "uint256",
          "name": "_cost",
          "type": "uint256"
        },
        {
          "internalType": "uint256",
          "name": "_cooldown",
          "type": "uint256"
        },
        {
          "internalType": "string",
          "name": "_name",
          "type": "string"
        },
        {
          "internalType": "string",
          "name": "_uri",
          "type": "string"
        }
      ],
      "name": "creatBasicArena",
      "outputs": [],
      "stateMutability": "nonpayable",
      "type": "function"
    },
    {
      "inputs": [
        {
          "internalType": "uint256",
          "name": "_playerId",
          "type": "uint256"
        },
        {
          "internalType": "uint256",
          "name": "_basicArenaId",
          "type": "uint256"
        }
      ],
      "name": "enterBasicArena",
      "outputs": [],
      "stateMutability": "nonpayable",
      "type": "function"
    },
    {
      "inputs": [
        {
          "internalType": "uint256",
          "name": "_playerId",
          "type": "uint256"
        },
        {
          "internalType": "uint256",
          "name": "_basicArenaId",
          "type": "uint256"
        }
      ],
      "name": "fightBaiscArena",
      "outputs": [],
      "stateMutability": "nonpayable",
      "type": "function"
    },
    {
      "inputs": [
        {
          "internalType": "uint256",
          "name": "_basicArenaId",
          "type": "uint256"
        }
      ],
      "name": "getBasicArena",
      "outputs": [
        {
          "components": [
            {
              "internalType": "uint256",
              "name": "basicArenaId",
              "type": "uint256"
            },
            {
              "internalType": "uint256",
              "name": "cost",
              "type": "uint256"
            },
            {
              "internalType": "uint256",
              "name": "cooldown",
              "type": "uint256"
            },
            {
              "internalType": "uint256",
              "name": "hostId",
              "type": "uint256"
            },
            {
              "internalType": "bool",
              "name": "open",
              "type": "bool"
            },
            {
              "internalType": "address payable",
              "name": "hostAddress",
              "type": "address"
            },
            {
              "internalType": "string",
              "name": "name",
              "type": "string"
            },
            {
              "internalType": "string",
              "name": "url",
              "type": "string"
            }
          ],
          "internalType": "struct BasicArena",
          "name": "",
          "type": "tuple"
        }
      ],
      "stateMutability": "view",
      "type": "function"
    },
    {
      "inputs": [
        {
          "internalType": "uint256",
          "name": "_playerId",
          "type": "uint256"
        },
        {
          "internalType": "uint256",
          "name": "_basicArenaId",
          "type": "uint256"
        }
      ],
      "name": "getBasicArenaCooldowns",
      "outputs": [
        {
          "internalType": "uint256",
          "name": "",
          "type": "uint256"
        }
      ],
      "stateMutability": "view",
      "type": "function"
    },
    {
      "inputs": [],
      "name": "getBasicArenaCount",
      "outputs": [
        {
          "internalType": "uint256",
          "name": "",
          "type": "uint256"
        }
      ],
      "stateMutability": "view",
      "type": "function"
    },
    {
      "inputs": [
        {
          "internalType": "uint256",
          "name": "_playerId",
          "type": "uint256"
        }
      ],
      "name": "getTotalLosses",
      "outputs": [
        {
          "internalType": "uint256",
          "name": "",
          "type": "uint256"
        }
      ],
      "stateMutability": "view",
      "type": "function"
    },
    {
      "inputs": [
        {
          "internalType": "uint256",
          "name": "_playerId",
          "type": "uint256"
        }
      ],
      "name": "getTotalWins",
      "outputs": [
        {
          "internalType": "uint256",
          "name": "",
          "type": "uint256"
        }
      ],
      "stateMutability": "view",
      "type": "function"
    },
    {
      "inputs": [
        {
          "internalType": "uint256",
          "name": "_playerId",
          "type": "uint256"
        },
        {
          "internalType": "uint256",
          "name": "_basicArenaId",
          "type": "uint256"
        }
      ],
      "name": "leaveBasicArena",
      "outputs": [],
      "stateMutability": "nonpayable",
      "type": "function"
    }
  ],
  "bytecode": "0x608060405234801561001057600080fd5b506121d3806100206000396000f3fe608060405234801561001057600080fd5b50600436106100935760003560e01c806359735adc1161006657806359735adc14610132578063c7f3ade51461014e578063c8fe5c471461016a578063cc8d469d14610186578063fb944ffc146101b657610093565b80630b93942a146100985780632d2c17be146100b45780634f7d08e5146100d257806354e8a31a14610102575b600080fd5b6100b260048036038101906100ad919061169e565b6101e6565b005b6100bc610222565b6040516100c991906116ed565b60405180910390f35b6100ec60048036038101906100e79190611708565b610231565b6040516100f991906116ed565b60405180910390f35b61011c60048036038101906101179190611708565b610243565b60405161012991906118e7565b60405180910390f35b61014c60048036038101906101479190611a3e565b61025b565b005b6101686004803603810190610163919061169e565b6102ab565b005b610184600480360381019061017f919061169e565b610322565b005b6101a0600480360381019061019b919061169e565b61035e565b6040516101ad91906116ed565b60405180910390f35b6101d060048036038101906101cb9190611708565b610372565b6040516101dd91906116ed565b60405180910390f35b6101f08282610384565b80827f429a014671400a39eaa0b16744a56044df14e9b9124a3919f8425a0b471e25e960405160405180910390a35050565b600061022c610722565b905090565b600061023c8261073a565b9050919050565b61024b6115f7565b61025482610765565b9050919050565b6102678484848461095f565b7f645e88aa97de18912e43f2a442395d3217ced4b7b14e66da10045e228f0eda4d610290610722565b60405161029d91906116ed565b60405180910390a150505050565b6000806102b88484610abb565b809250819350505082827fe5783c40c14d69971fbf9d435486b3a0469a026e4cacbd5e543c18ddd293eca560405160405180910390a382817ff07fe1bc469a482805ec42d00e7477d9bacbd901aedac046ea74d6a10ce2b04a60405160405180910390a350505050565b61032c8282611025565b80827ff4debd39acd9b010e1276185a3f67b145758748b94e0145ce176c42ae6d27a4f60405160405180910390a35050565b600061036a838361124f565b905092915050565b600061037d8261128c565b9050919050565b600061038e6112b7565b9050600061039a6112e4565b905060006103a6611311565b9050600083600301600087815260200190815260200160002060020154146103cd57600080fd5b3373ffffffffffffffffffffffffffffffffffffffff1683600201600087815260200190815260200160002060009054906101000a900473ffffffffffffffffffffffffffffffffffffffff1673ffffffffffffffffffffffffffffffffffffffff161461043a57600080fd5b600081600101600086815260200190815260200160002090508060040160009054906101000a900460ff166104a4576040517f08c379a000000000000000000000000000000000000000000000000000000000815260040161049b90611b3a565b60405180910390fd5b6000600282600201546104b79190611bb8565b85600301600089815260200190815260200160002060090154101561051e57600a85600301600089815260200190815260200160002060090154600284600201546105029190611bb8565b61050c9190611be9565b6105169190611c1d565b905080610533565b6002826002015461052f9190611bb8565b9050805b50808360020160008881526020019081526020016000206000898152602001908152602001600020546105669190611c1d565b42101561057257600080fd5b81600101548460000160003373ffffffffffffffffffffffffffffffffffffffff1673ffffffffffffffffffffffffffffffffffffffff1681526020019081526020016000205410156105fa576040517f08c379a00000000000000000000000000000000000000000000000000000000081526004016105f190611c9d565b60405180910390fd5b81600101548460000160003373ffffffffffffffffffffffffffffffffffffffff1673ffffffffffffffffffffffffffffffffffffffff168152602001908152602001600020600082825461064f9190611be9565b92505081905550600485600301600089815260200190815260200160002060020181905550600083600101600088815260200190815260200160002060040160006101000a81548160ff02191690831515021790555086836001016000888152602001908152602001600020600301819055503383600101600088815260200190815260200160002060040160016101000a81548173ffffffffffffffffffffffffffffffffffffffff021916908373ffffffffffffffffffffffffffffffffffffffff16021790555050505050505050565b60008061072d611311565b9050806000015491505090565b600080610745611311565b905080600501600084815260200190815260200160002054915050919050565b61076d6115f7565b6000610777611311565b905080600101600084815260200190815260200160002060405180610100016040529081600082015481526020016001820154815260200160028201548152602001600382015481526020016004820160009054906101000a900460ff161515151581526020016004820160019054906101000a900473ffffffffffffffffffffffffffffffffffffffff1673ffffffffffffffffffffffffffffffffffffffff1673ffffffffffffffffffffffffffffffffffffffff16815260200160058201805461084390611cec565b80601f016020809104026020016040519081016040528092919081815260200182805461086f90611cec565b80156108bc5780601f10610891576101008083540402835291602001916108bc565b820191906000526020600020905b81548152906001019060200180831161089f57829003601f168201915b505050505081526020016006820180546108d590611cec565b80601f016020809104026020016040519081016040528092919081815260200182805461090190611cec565b801561094e5780601f106109235761010080835404028352916020019161094e565b820191906000526020600020905b81548152906001019060200180831161093157829003601f168201915b505050505081525050915050919050565b6000610969611311565b905080600001600081548092919061098090611d1d565b919050555060405180610100016040528082600001548152602001868152602001858152602001600081526020016001151581526020013373ffffffffffffffffffffffffffffffffffffffff16815260200184815260200183815250816001016000836000015481526020019081526020016000206000820151816000015560208201518160010155604082015181600201556060820151816003015560808201518160040160006101000a81548160ff02191690831515021790555060a08201518160040160016101000a81548173ffffffffffffffffffffffffffffffffffffffff021916908373ffffffffffffffffffffffffffffffffffffffff16021790555060c0820151816005019081610a9a9190611f11565b5060e0820151816006019081610ab09190611f11565b509050505050505050565b6000806000610ac86112b7565b90506000610ad46112e4565b90506000610ae0611311565b905060008360030160008981526020019081526020016000206002015414610b0757600080fd5b3373ffffffffffffffffffffffffffffffffffffffff1683600201600089815260200190815260200160002060009054906101000a900473ffffffffffffffffffffffffffffffffffffffff1673ffffffffffffffffffffffffffffffffffffffff1614610b7457600080fd5b600081600101600088815260200190815260200160002090508060040160009054906101000a900460ff1615610bdf576040517f08c379a0000000000000000000000000000000000000000000000000000000008152600401610bd690611b3a565b60405180910390fd5b600060028260020154610bf29190611bb8565b8560030160008b8152602001908152602001600020600901541015610c5957600a8560030160008b81526020019081526020016000206009015460028460020154610c3d9190611bb8565b610c479190611be9565b610c519190611c1d565b905080610c6e565b60028260020154610c6a9190611bb8565b9050805b50808360020160008a815260200190815260200160002060008b815260200190815260200160002054610ca19190611c1d565b421015610cad57600080fd5b81600101548460000160003373ffffffffffffffffffffffffffffffffffffffff1673ffffffffffffffffffffffffffffffffffffffff168152602001908152602001600020541015610d35576040517f08c379a0000000000000000000000000000000000000000000000000000000008152600401610d2c90611c9d565b60405180910390fd5b6000610d4583600301548b61133e565b90506000808b8303610e16578b9150846003015490508560050160008d81526020019081526020016000206000815480929190610d8190611d1d565b9190505550856006016000866003015481526020019081526020016000206000815480929190610db090611d1d565b919050555084600101548760000160003373ffffffffffffffffffffffffffffffffffffffff1673ffffffffffffffffffffffffffffffffffffffff1681526020019081526020016000206000828254610e0a9190611c1d565b92505081905550610f63565b846003015491508b9050856005016000866003015481526020019081526020016000206000815480929190610e4a90611d1d565b91905055508560060160008d81526020019081526020016000206000815480929190610e7590611d1d565b919050555060028560010154610e8b9190611fe3565b8760000160008760040160019054906101000a900473ffffffffffffffffffffffffffffffffffffffff1673ffffffffffffffffffffffffffffffffffffffff1673ffffffffffffffffffffffffffffffffffffffff1681526020019081526020016000206000828254610eff9190611c1d565b9250508190555084600101548760000160003373ffffffffffffffffffffffffffffffffffffffff1673ffffffffffffffffffffffffffffffffffffffff1681526020019081526020016000206000828254610f5b9190611be9565b925050819055505b428660020160008d815260200190815260200160002060008e815260200190815260200160002081905550428660020160008d81526020019081526020016000206000876003015481526020019081526020016000208190555060018660010160008d815260200190815260200160002060040160006101000a81548160ff0219169083151502179055506000886003016000876003015481526020019081526020016000206002018190555081819950995050505050505050509250929050565b600061102f611311565b9050600061103b6112b7565b905060006110476112e4565b90508483600101600086815260200190815260200160002060030154146110a3576040517f08c379a000000000000000000000000000000000000000000000000000000000815260040161109a90612071565b60405180910390fd5b600482600301600087815260200190815260200160002060020154146110fe576040517f08c379a00000000000000000000000000000000000000000000000000000000081526004016110f5906120dd565b60405180910390fd5b3373ffffffffffffffffffffffffffffffffffffffff1682600201600087815260200190815260200160002060009054906101000a900473ffffffffffffffffffffffffffffffffffffffff1673ffffffffffffffffffffffffffffffffffffffff161461116b57600080fd5b600083600101600086815260200190815260200160002060030181905550600183600101600086815260200190815260200160002060040160006101000a81548160ff021916908315150217905550600082600301600087815260200190815260200160002060020181905550826001016000858152602001908152602001600020600101548160000160003373ffffffffffffffffffffffffffffffffffffffff1673ffffffffffffffffffffffffffffffffffffffff16815260200190815260200160002060008282546112419190611c1d565b925050819055505050505050565b60008061125a611311565b905080600201600084815260200190815260200160002060008581526020019081526020016000205491505092915050565b600080611297611311565b905080600601600084815260200190815260200160002054915050919050565b6000807f3cab9a070a0c61cd0ae9d9e9e2c0781e5ca8691bec4087e5a4701d5ac018dd4e90508091505090565b6000807f2c89d74504b6ad8d4fbde22bc3474166bac5452a11195897f239d8bebe02d70790508091505090565b6000807f1b1c2350f60dba32e7a2436167ce3f8399cd1c51a95c8577f1448f53846d4cda90508091505090565b6000806113496112b7565b9050600081600301600086815260200190815260200160002090506000826003016000868152602001908152602001600020905081600e015482600501546113919190611c1d565b61139f868360030154611575565b10156114295781600e01546113b8868360030154611575565b10156113dc5782600301600087815260200190815260200160002060050154611424565b6113ea858260030154611575565b82600e015483600501546113fe9190611c1d565b6114089190611be9565b8360030160008881526020019081526020016000206005018190555b611447565b60008360030160008881526020019081526020016000206005018190555b5080600e0154816005015461145c9190611c1d565b61146a878460030154611575565b10156115065780600e0154611483878460030154611575565b10156114a75782600301600086815260200190815260200160002060050154611501565b6114b5868360030154611575565b81600e015482600501546114c99190611c1d565b6114d39190611be9565b83600301600087815260200190815260200160002060050160008282546114fa9190611be9565b9250508190555b611524565b60008360030160008781526020019081526020016000206005018190555b50826003016000878152602001908152602001600020600501548360030160008781526020019081526020016000206005015411156115685784935050505061156f565b8593505050505b92915050565b6000806064600961158686866115bd565b61159091906120fd565b61159a9190611c1d565b9050606481846115aa9190611fe3565b6115b49190611bb8565b91505092915050565b6000424484846040516020016115d6949392919061214f565b6040516020818303038152906040528051906020012060001c905092915050565b60405180610100016040528060008152602001600081526020016000815260200160008152602001600015158152602001600073ffffffffffffffffffffffffffffffffffffffff16815260200160608152602001606081525090565b6000604051905090565b600080fd5b600080fd5b6000819050919050565b61167b81611668565b811461168657600080fd5b50565b60008135905061169881611672565b92915050565b600080604083850312156116b5576116b461165e565b5b60006116c385828601611689565b92505060206116d485828601611689565b9150509250929050565b6116e781611668565b82525050565b600060208201905061170260008301846116de565b92915050565b60006020828403121561171e5761171d61165e565b5b600061172c84828501611689565b91505092915050565b61173e81611668565b82525050565b60008115159050919050565b61175981611744565b82525050565b600073ffffffffffffffffffffffffffffffffffffffff82169050919050565b600061178a8261175f565b9050919050565b61179a8161177f565b82525050565b600081519050919050565b600082825260208201905092915050565b60005b838110156117da5780820151818401526020810190506117bf565b60008484015250505050565b6000601f19601f8301169050919050565b6000611802826117a0565b61180c81856117ab565b935061181c8185602086016117bc565b611825816117e6565b840191505092915050565b6000610100830160008301516118496000860182611735565b50602083015161185c6020860182611735565b50604083015161186f6040860182611735565b5060608301516118826060860182611735565b5060808301516118956080860182611750565b5060a08301516118a860a0860182611791565b5060c083015184820360c08601526118c082826117f7565b91505060e083015184820360e08601526118da82826117f7565b9150508091505092915050565b600060208201905081810360008301526119018184611830565b905092915050565b600080fd5b600080fd5b7f4e487b7100000000000000000000000000000000000000000000000000000000600052604160045260246000fd5b61194b826117e6565b810181811067ffffffffffffffff8211171561196a57611969611913565b5b80604052505050565b600061197d611654565b90506119898282611942565b919050565b600067ffffffffffffffff8211156119a9576119a8611913565b5b6119b2826117e6565b9050602081019050919050565b82818337600083830152505050565b60006119e16119dc8461198e565b611973565b9050828152602081018484840111156119fd576119fc61190e565b5b611a088482856119bf565b509392505050565b600082601f830112611a2557611a24611909565b5b8135611a358482602086016119ce565b91505092915050565b60008060008060808587031215611a5857611a5761165e565b5b6000611a6687828801611689565b9450506020611a7787828801611689565b935050604085013567ffffffffffffffff811115611a9857611a97611663565b5b611aa487828801611a10565b925050606085013567ffffffffffffffff811115611ac557611ac4611663565b5b611ad187828801611a10565b91505092959194509250565b600082825260208201905092915050565b7f6172656e61206973206e6f74206f70656e000000000000000000000000000000600082015250565b6000611b24601183611add565b9150611b2f82611aee565b602082019050919050565b60006020820190508181036000830152611b5381611b17565b9050919050565b7f4e487b7100000000000000000000000000000000000000000000000000000000600052601260045260246000fd5b7f4e487b7100000000000000000000000000000000000000000000000000000000600052601160045260246000fd5b6000611bc382611668565b9150611bce83611668565b925082611bde57611bdd611b5a565b5b828204905092915050565b6000611bf482611668565b9150611bff83611668565b9250828203905081811115611c1757611c16611b89565b5b92915050565b6000611c2882611668565b9150611c3383611668565b9250828201905080821115611c4b57611c4a611b89565b5b92915050565b7f62726f6b652061737320676f74206e6f206d6f6e657900000000000000000000600082015250565b6000611c87601683611add565b9150611c9282611c51565b602082019050919050565b60006020820190508181036000830152611cb681611c7a565b9050919050565b7f4e487b7100000000000000000000000000000000000000000000000000000000600052602260045260246000fd5b60006002820490506001821680611d0457607f821691505b602082108103611d1757611d16611cbd565b5b50919050565b6000611d2882611668565b91507fffffffffffffffffffffffffffffffffffffffffffffffffffffffffffffffff8203611d5a57611d59611b89565b5b600182019050919050565b60008190508160005260206000209050919050565b60006020601f8301049050919050565b600082821b905092915050565b600060088302611dc77fffffffffffffffffffffffffffffffffffffffffffffffffffffffffffffffff82611d8a565b611dd18683611d8a565b95508019841693508086168417925050509392505050565b6000819050919050565b6000611e0e611e09611e0484611668565b611de9565b611668565b9050919050565b6000819050919050565b611e2883611df3565b611e3c611e3482611e15565b848454611d97565b825550505050565b600090565b611e51611e44565b611e5c818484611e1f565b505050565b5b81811015611e8057611e75600082611e49565b600181019050611e62565b5050565b601f821115611ec557611e9681611d65565b611e9f84611d7a565b81016020851015611eae578190505b611ec2611eba85611d7a565b830182611e61565b50505b505050565b600082821c905092915050565b6000611ee860001984600802611eca565b1980831691505092915050565b6000611f018383611ed7565b9150826002028217905092915050565b611f1a826117a0565b67ffffffffffffffff811115611f3357611f32611913565b5b611f3d8254611cec565b611f48828285611e84565b600060209050601f831160018114611f7b5760008415611f69578287015190505b611f738582611ef5565b865550611fdb565b601f198416611f8986611d65565b60005b82811015611fb157848901518255600182019150602085019450602081019050611f8c565b86831015611fce5784890151611fca601f891682611ed7565b8355505b6001600288020188555050505b505050505050565b6000611fee82611668565b9150611ff983611668565b925082820261200781611668565b9150828204841483151761201e5761201d611b89565b5b5092915050565b7f796f7520617265206e6f742074686520686f7374000000000000000000000000600082015250565b600061205b601483611add565b915061206682612025565b602082019050919050565b6000602082019050818103600083015261208a8161204e565b9050919050565b7f796f7520617265206e6f7420696e20746865206172656e610000000000000000600082015250565b60006120c7601883611add565b91506120d282612091565b602082019050919050565b600060208201905081810360008301526120f6816120ba565b9050919050565b600061210882611668565b915061211383611668565b92508261212357612122611b5a565b5b828206905092915050565b6000819050919050565b61214961214482611668565b61212e565b82525050565b600061215b8287612138565b60208201915061216b8286612138565b60208201915061217b8285612138565b60208201915061218b8284612138565b6020820191508190509594505050505056fea26469706673582212207fcf06016732dd1bdb9fff0cba8d6c8e427be630eeeb309d04b0efc2648accdc64736f6c63430008120033",
  "linkReferences": {},
  "deployedLinkReferences": {}
}