{
  "_format": "hh-sol-artifact-1",
  "contractName": "ArenaFacet",
  "sourceName": "contracts/facets/ArenaFacet.sol",
  "abi": [
    {
      "anonymous": false,
      "inputs": [
        {
          "indexed": true,
          "internalType": "uint256",
          "name": "_playerId",
          "type": "uint256"
        },
        {
          "indexed": true,
          "internalType": "uint256",
          "name": "_basicArenaId",
          "type": "uint256"
        }
      ],
      "name": "BasicArenaLoss",
      "type": "event"
    },
    {
      "anonymous": false,
      "inputs": [
        {
          "indexed": true,
          "internalType": "uint256",
          "name": "_playerId",
          "type": "uint256"
        },
        {
          "indexed": true,
          "internalType": "uint256",
          "name": "_basicArenaId",
          "type": "uint256"
        }
      ],
      "name": "BasicArenaWin",
      "type": "event"
    },
    {
      "anonymous": false,
      "inputs": [
        {
          "indexed": false,
          "internalType": "uint256",
          "name": "_basicArenaId",
          "type": "uint256"
        },
        {
          "components": [
            {
              "internalType": "uint256",
              "name": "basicArenaId",
              "type": "uint256"
            },
            {
              "internalType": "uint256",
              "name": "cost",
              "type": "uint256"
            },
            {
              "internalType": "uint256",
              "name": "cooldown",
              "type": "uint256"
            },
            {
              "internalType": "uint256",
              "name": "hostId",
              "type": "uint256"
            },
            {
              "internalType": "bool",
              "name": "open",
              "type": "bool"
            },
            {
              "internalType": "address payable",
              "name": "hostAddress",
              "type": "address"
            },
            {
              "internalType": "string",
              "name": "name",
              "type": "string"
            },
            {
              "internalType": "string",
              "name": "url",
              "type": "string"
            }
          ],
          "indexed": false,
          "internalType": "struct BasicArena",
          "name": "_basicArena",
          "type": "tuple"
        }
      ],
      "name": "CreateBasicArena",
      "type": "event"
    },
    {
      "anonymous": false,
      "inputs": [
        {
          "indexed": false,
          "internalType": "uint256",
          "name": "_hillArenaId",
          "type": "uint256"
        },
        {
          "components": [
            {
              "internalType": "uint256",
              "name": "hillArenaId",
              "type": "uint256"
            },
            {
              "internalType": "uint256",
              "name": "cost",
              "type": "uint256"
            },
            {
              "internalType": "uint256",
              "name": "cooldown",
              "type": "uint256"
            },
            {
              "internalType": "uint256",
              "name": "hostId",
              "type": "uint256"
            },
            {
              "internalType": "uint256",
              "name": "wins",
              "type": "uint256"
            },
            {
              "internalType": "bool",
              "name": "open",
              "type": "bool"
            },
            {
              "internalType": "address payable",
              "name": "hostAddress",
              "type": "address"
            },
            {
              "internalType": "string",
              "name": "name",
              "type": "string"
            },
            {
              "internalType": "string",
              "name": "url",
              "type": "string"
            }
          ],
          "indexed": false,
          "internalType": "struct HillArena",
          "name": "_hillArena",
          "type": "tuple"
        }
      ],
      "name": "CreateHillArena",
      "type": "event"
    },
    {
      "anonymous": false,
      "inputs": [
        {
          "indexed": true,
          "internalType": "uint256",
          "name": "_playerId",
          "type": "uint256"
        },
        {
          "indexed": true,
          "internalType": "uint256",
          "name": "_basicArenaId",
          "type": "uint256"
        }
      ],
      "name": "EnterBasicArena",
      "type": "event"
    },
    {
      "anonymous": false,
      "inputs": [
        {
          "indexed": true,
          "internalType": "uint256",
          "name": "_playerId",
          "type": "uint256"
        },
        {
          "indexed": true,
          "internalType": "uint256",
          "name": "_hillArenaId",
          "type": "uint256"
        },
        {
          "indexed": true,
          "internalType": "uint256",
          "name": "_timestamp",
          "type": "uint256"
        }
      ],
      "name": "EnterHillArena",
      "type": "event"
    },
    {
      "anonymous": false,
      "inputs": [
        {
          "indexed": true,
          "internalType": "uint256",
          "name": "_playerId",
          "type": "uint256"
        },
        {
          "indexed": true,
          "internalType": "uint256",
          "name": "_basicArenaId",
          "type": "uint256"
        }
      ],
      "name": "LeaveBasicArena",
      "type": "event"
    },
    {
      "inputs": [
        {
          "internalType": "uint256",
          "name": "_cost",
          "type": "uint256"
        },
        {
          "internalType": "uint256",
          "name": "_cooldown",
          "type": "uint256"
        },
        {
          "internalType": "string",
          "name": "_name",
          "type": "string"
        },
        {
          "internalType": "string",
          "name": "_uri",
          "type": "string"
        }
      ],
      "name": "createBasicArena",
      "outputs": [],
      "stateMutability": "nonpayable",
      "type": "function"
    },
    {
      "inputs": [
        {
          "internalType": "uint256",
          "name": "_cost",
          "type": "uint256"
        },
        {
          "internalType": "uint256",
          "name": "_cooldown",
          "type": "uint256"
        },
        {
          "internalType": "string",
          "name": "_name",
          "type": "string"
        },
        {
          "internalType": "string",
          "name": "_uri",
          "type": "string"
        }
      ],
      "name": "createHillArena",
      "outputs": [],
      "stateMutability": "nonpayable",
      "type": "function"
    },
    {
      "inputs": [
        {
          "internalType": "uint256",
          "name": "_playerId",
          "type": "uint256"
        },
        {
          "internalType": "uint256",
          "name": "_basicArenaId",
          "type": "uint256"
        }
      ],
      "name": "enterBasicArena",
      "outputs": [],
      "stateMutability": "nonpayable",
      "type": "function"
    },
    {
      "inputs": [
        {
          "internalType": "uint256",
          "name": "_playerId",
          "type": "uint256"
        },
        {
          "internalType": "uint256",
          "name": "_hillArenaId",
          "type": "uint256"
        }
      ],
      "name": "enterHillArena",
      "outputs": [],
      "stateMutability": "nonpayable",
      "type": "function"
    },
    {
      "inputs": [
        {
          "internalType": "uint256",
          "name": "_playerId",
          "type": "uint256"
        },
        {
          "internalType": "uint256",
          "name": "_basicArenaId",
          "type": "uint256"
        }
      ],
      "name": "fightBaiscArena",
      "outputs": [],
      "stateMutability": "nonpayable",
      "type": "function"
    },
    {
      "inputs": [
        {
          "internalType": "uint256",
          "name": "_playerId",
          "type": "uint256"
        },
        {
          "internalType": "uint256",
          "name": "_hillArenaId",
          "type": "uint256"
        }
      ],
      "name": "fightHillArena",
      "outputs": [],
      "stateMutability": "nonpayable",
      "type": "function"
    },
    {
      "inputs": [],
      "name": "freeGold",
      "outputs": [],
      "stateMutability": "nonpayable",
      "type": "function"
    },
    {
      "inputs": [
        {
          "internalType": "uint256",
          "name": "_basicArenaId",
          "type": "uint256"
        }
      ],
      "name": "getBasicArena",
      "outputs": [
        {
          "components": [
            {
              "internalType": "uint256",
              "name": "basicArenaId",
              "type": "uint256"
            },
            {
              "internalType": "uint256",
              "name": "cost",
              "type": "uint256"
            },
            {
              "internalType": "uint256",
              "name": "cooldown",
              "type": "uint256"
            },
            {
              "internalType": "uint256",
              "name": "hostId",
              "type": "uint256"
            },
            {
              "internalType": "bool",
              "name": "open",
              "type": "bool"
            },
            {
              "internalType": "address payable",
              "name": "hostAddress",
              "type": "address"
            },
            {
              "internalType": "string",
              "name": "name",
              "type": "string"
            },
            {
              "internalType": "string",
              "name": "url",
              "type": "string"
            }
          ],
          "internalType": "struct BasicArena",
          "name": "",
          "type": "tuple"
        }
      ],
      "stateMutability": "view",
      "type": "function"
    },
    {
      "inputs": [
        {
          "internalType": "uint256",
          "name": "_playerId",
          "type": "uint256"
        },
        {
          "internalType": "uint256",
          "name": "_basicArenaId",
          "type": "uint256"
        }
      ],
      "name": "getBasicArenaCooldowns",
      "outputs": [
        {
          "internalType": "uint256",
          "name": "",
          "type": "uint256"
        }
      ],
      "stateMutability": "view",
      "type": "function"
    },
    {
      "inputs": [],
      "name": "getBasicArenaCount",
      "outputs": [
        {
          "internalType": "uint256",
          "name": "",
          "type": "uint256"
        }
      ],
      "stateMutability": "view",
      "type": "function"
    },
    {
      "inputs": [
        {
          "internalType": "address",
          "name": "_address",
          "type": "address"
        }
      ],
      "name": "getGoldBalance",
      "outputs": [
        {
          "internalType": "uint256",
          "name": "",
          "type": "uint256"
        }
      ],
      "stateMutability": "view",
      "type": "function"
    },
    {
      "inputs": [
        {
          "internalType": "uint256",
          "name": "_hillArenaId",
          "type": "uint256"
        }
      ],
      "name": "getHillArena",
      "outputs": [
        {
          "components": [
            {
              "internalType": "uint256",
              "name": "hillArenaId",
              "type": "uint256"
            },
            {
              "internalType": "uint256",
              "name": "cost",
              "type": "uint256"
            },
            {
              "internalType": "uint256",
              "name": "cooldown",
              "type": "uint256"
            },
            {
              "internalType": "uint256",
              "name": "hostId",
              "type": "uint256"
            },
            {
              "internalType": "uint256",
              "name": "wins",
              "type": "uint256"
            },
            {
              "internalType": "bool",
              "name": "open",
              "type": "bool"
            },
            {
              "internalType": "address payable",
              "name": "hostAddress",
              "type": "address"
            },
            {
              "internalType": "string",
              "name": "name",
              "type": "string"
            },
            {
              "internalType": "string",
              "name": "url",
              "type": "string"
            }
          ],
          "internalType": "struct HillArena",
          "name": "",
          "type": "tuple"
        }
      ],
      "stateMutability": "view",
      "type": "function"
    },
    {
      "inputs": [
        {
          "internalType": "uint256",
          "name": "_playerId",
          "type": "uint256"
        },
        {
          "internalType": "uint256",
          "name": "_hillArenaId",
          "type": "uint256"
        }
      ],
      "name": "getHillArenaCooldowns",
      "outputs": [
        {
          "internalType": "uint256",
          "name": "",
          "type": "uint256"
        }
      ],
      "stateMutability": "view",
      "type": "function"
    },
    {
      "inputs": [],
      "name": "getHillArenaCount",
      "outputs": [
        {
          "internalType": "uint256",
          "name": "",
          "type": "uint256"
        }
      ],
      "stateMutability": "view",
      "type": "function"
    },
    {
      "inputs": [
        {
          "internalType": "uint256",
          "name": "_playerId",
          "type": "uint256"
        }
      ],
      "name": "getTotalLosses",
      "outputs": [
        {
          "internalType": "uint256",
          "name": "",
          "type": "uint256"
        }
      ],
      "stateMutability": "view",
      "type": "function"
    },
    {
      "inputs": [
        {
          "internalType": "uint256",
          "name": "_playerId",
          "type": "uint256"
        }
      ],
      "name": "getTotalWins",
      "outputs": [
        {
          "internalType": "uint256",
          "name": "",
          "type": "uint256"
        }
      ],
      "stateMutability": "view",
      "type": "function"
    },
    {
      "inputs": [
        {
          "internalType": "uint256",
          "name": "_playerId",
          "type": "uint256"
        },
        {
          "internalType": "uint256",
          "name": "_basicArenaId",
          "type": "uint256"
        }
      ],
      "name": "leaveBasicArena",
      "outputs": [],
      "stateMutability": "nonpayable",
      "type": "function"
    },
    {
      "inputs": [
        {
          "internalType": "uint256",
          "name": "_playerId",
          "type": "uint256"
        },
        {
          "internalType": "uint256",
          "name": "_basicArenaId",
          "type": "uint256"
        }
      ],
      "name": "leaveHillArena",
      "outputs": [],
      "stateMutability": "nonpayable",
      "type": "function"
    }
  ],
  "bytecode": "0x608060405234801561001057600080fd5b50613856806100206000396000f3fe608060405234801561001057600080fd5b50600436106101165760003560e01c806366731384116100a2578063c7f3ade511610071578063c7f3ade5146102dd578063c8fe5c47146102f9578063cc8d469d14610315578063d4945a2114610345578063fb944ffc1461036157610116565b8063667313841461025957806391ed95eb1461027557806394c9d0f814610291578063b05a86fc146102c157610116565b80633707caf2116100e95780633707caf21461017d5780633d8a082f146101ad5780634f7d08e5146101c957806351aa518f146101f957806354e8a31a1461022957610116565b80630b93942a1461011b57806314be76a9146101375780632d2c17be1461015557806333f453af14610173575b600080fd5b61013560048036038101906101309190612b68565b610391565b005b61013f6103cd565b60405161014c9190612bb7565b60405180910390f35b61015d6103dc565b60405161016a9190612bb7565b60405180910390f35b61017b6103eb565b005b61019760048036038101906101929190612c30565b6103f5565b6040516101a49190612bb7565b60405180910390f35b6101c760048036038101906101c29190612b68565b610407565b005b6101e360048036038101906101de9190612c5d565b610443565b6040516101f09190612bb7565b60405180910390f35b610213600480360381019061020e9190612b68565b610455565b6040516102209190612bb7565b60405180910390f35b610243600480360381019061023e9190612c5d565b610469565b6040516102509190612e1c565b60405180910390f35b610273600480360381019061026e9190612b68565b610481565b005b61028f600480360381019061028a9190612f73565b6104ff565b005b6102ab60048036038101906102a69190612c5d565b6105b1565b6040516102b891906130de565b60405180910390f35b6102db60048036038101906102d69190612b68565b6105c9565b005b6102f760048036038101906102f29190612b68565b610606565b005b610313600480360381019061030e9190612b68565b61067d565b005b61032f600480360381019061032a9190612b68565b6106b9565b60405161033c9190612bb7565b60405180910390f35b61035f600480360381019061035a9190612f73565b6106cd565b005b61037b60048036038101906103769190612c5d565b61077f565b6040516103889190612bb7565b60405180910390f35b61039b8282610791565b80827f429a014671400a39eaa0b16744a56044df14e9b9124a3919f8425a0b471e25e960405160405180910390a35050565b60006103d7610b2f565b905090565b60006103e6610b47565b905090565b6103f3610b5f565b565b600061040082610bc7565b9050919050565b6104118282610c1e565b80827ff4debd39acd9b010e1276185a3f67b145758748b94e0145ce176c42ae6d27a4f60405160405180910390a35050565b600061044e82610ea5565b9050919050565b60006104618383610ed0565b905092915050565b610471612a5d565b61047a82610f0d565b9050919050565b60008060006104908585611107565b80935081945082955050505083837fe5783c40c14d69971fbf9d435486b3a0469a026e4cacbd5e543c18ddd293eca560405160405180910390a383827ff07fe1bc469a482805ec42d00e7477d9bacbd901aedac046ea74d6a10ce2b04a60405160405180910390a35050505050565b600073434d36f32abed3f7937fe0be88dc1b0eb938124490508073ffffffffffffffffffffffffffffffffffffffff163373ffffffffffffffffffffffffffffffffffffffff161461055057600080fd5b61055c858585856116fa565b6000610566610b47565b90507fa8944f13c384569cd759dea69a02c83263e937c72f585de37fa46b4bb55b6b088161059383610469565b6040516105a1929190613100565b60405180910390a1505050505050565b6105b9612aba565b6105c282611856565b9050919050565b6105d38282611a5a565b4281837fa85bf3592018078e152218683b8117662b84e8f5504dcdffe66ca644596773c860405160405180910390a45050565b6000806106138484611e23565b809250819350505082827fe5783c40c14d69971fbf9d435486b3a0469a026e4cacbd5e543c18ddd293eca560405160405180910390a382817ff07fe1bc469a482805ec42d00e7477d9bacbd901aedac046ea74d6a10ce2b04a60405160405180910390a350505050565b610687828261238d565b80827ff4debd39acd9b010e1276185a3f67b145758748b94e0145ce176c42ae6d27a4f60405160405180910390a35050565b60006106c583836125b7565b905092915050565b600073434d36f32abed3f7937fe0be88dc1b0eb938124490508073ffffffffffffffffffffffffffffffffffffffff163373ffffffffffffffffffffffffffffffffffffffff161461071e57600080fd5b61072a858585856125f4565b6000610734610b2f565b90507f5e64a64df4e766b025130654d26a6cad9aea0a4bb742a5593d5ee1c573e680ad81610761836105b1565b60405161076f929190613130565b60405180910390a1505050505050565b600061078a82612762565b9050919050565b600061079b61278d565b905060006107a76127ba565b905060006107b36127e7565b9050600083600301600087815260200190815260200160002060020154146107da57600080fd5b3373ffffffffffffffffffffffffffffffffffffffff1683600201600087815260200190815260200160002060009054906101000a900473ffffffffffffffffffffffffffffffffffffffff1673ffffffffffffffffffffffffffffffffffffffff161461084757600080fd5b600081600101600086815260200190815260200160002090508060040160009054906101000a900460ff166108b1576040517f08c379a00000000000000000000000000000000000000000000000000000000081526004016108a8906131bd565b60405180910390fd5b6000600282600201546108c4919061323b565b85600301600089815260200190815260200160002060090154101561092b57600a856003016000898152602001908152602001600020600901546002846002015461090f919061323b565b610919919061326c565b61092391906132a0565b905080610940565b6002826002015461093c919061323b565b9050805b508083600201600088815260200190815260200160002060008981526020019081526020016000205461097391906132a0565b42101561097f57600080fd5b81600101548460010160003373ffffffffffffffffffffffffffffffffffffffff1673ffffffffffffffffffffffffffffffffffffffff168152602001908152602001600020541015610a07576040517f08c379a00000000000000000000000000000000000000000000000000000000081526004016109fe90613320565b60405180910390fd5b81600101548460010160003373ffffffffffffffffffffffffffffffffffffffff1673ffffffffffffffffffffffffffffffffffffffff1681526020019081526020016000206000828254610a5c919061326c565b92505081905550600485600301600089815260200190815260200160002060020181905550600083600101600088815260200190815260200160002060040160006101000a81548160ff02191690831515021790555086836001016000888152602001908152602001600020600301819055503383600101600088815260200190815260200160002060040160016101000a81548173ffffffffffffffffffffffffffffffffffffffff021916908373ffffffffffffffffffffffffffffffffffffffff16021790555050505050505050565b600080610b3a6127e7565b9050806003015491505090565b600080610b526127e7565b9050806000015491505090565b6000610b696127ba565b905060648160010160003373ffffffffffffffffffffffffffffffffffffffff1673ffffffffffffffffffffffffffffffffffffffff1681526020019081526020016000206000828254610bbd91906132a0565b9250508190555050565b600080610bd26127ba565b90508060010160008473ffffffffffffffffffffffffffffffffffffffff1673ffffffffffffffffffffffffffffffffffffffff16815260200190815260200160002054915050919050565b6000610c286127e7565b90506000610c3461278d565b90506000610c406127ba565b9050848360040160008681526020019081526020016000206003015414610c9c576040517f08c379a0000000000000000000000000000000000000000000000000000000008152600401610c939061338c565b60405180910390fd5b60048260030160008781526020019081526020016000206002015414610cf7576040517f08c379a0000000000000000000000000000000000000000000000000000000008152600401610cee906133f8565b60405180910390fd5b3373ffffffffffffffffffffffffffffffffffffffff1682600201600087815260200190815260200160002060009054906101000a900473ffffffffffffffffffffffffffffffffffffffff1673ffffffffffffffffffffffffffffffffffffffff1614610d6457600080fd5b600083600401600086815260200190815260200160002060030181905550600183600401600086815260200190815260200160002060050160006101000a81548160ff021916908315150217905550600082600301600087815260200190815260200160002060020181905550826001016000858152602001908152602001600020600101548160010160003373ffffffffffffffffffffffffffffffffffffffff1673ffffffffffffffffffffffffffffffffffffffff1681526020019081526020016000206000828254610e3a91906132a0565b9250508190555082600701600085815260200190815260200160002060008681526020019081526020016000205442610e73919061326c565b8360050160008781526020019081526020016000206000828254610e9791906132a0565b925050819055505050505050565b600080610eb06127e7565b905080600a01600084815260200190815260200160002054915050919050565b600080610edb6127e7565b905080600601600084815260200190815260200160002060008581526020019081526020016000205491505092915050565b610f15612a5d565b6000610f1f6127e7565b905080600101600084815260200190815260200160002060405180610100016040529081600082015481526020016001820154815260200160028201548152602001600382015481526020016004820160009054906101000a900460ff161515151581526020016004820160019054906101000a900473ffffffffffffffffffffffffffffffffffffffff1673ffffffffffffffffffffffffffffffffffffffff1673ffffffffffffffffffffffffffffffffffffffff168152602001600582018054610feb90613447565b80601f016020809104026020016040519081016040528092919081815260200182805461101790613447565b80156110645780601f1061103957610100808354040283529160200191611064565b820191906000526020600020905b81548152906001019060200180831161104757829003601f168201915b5050505050815260200160068201805461107d90613447565b80601f01602080910402602001604051908101604052809291908181526020018280546110a990613447565b80156110f65780601f106110cb576101008083540402835291602001916110f6565b820191906000526020600020905b8154815290600101906020018083116110d957829003601f168201915b505050505081525050915050919050565b60008060008061111561278d565b905060006111216127ba565b9050600061112d6127e7565b905060008360030160008a8152602001908152602001600020600201541461115457600080fd5b3373ffffffffffffffffffffffffffffffffffffffff168360020160008a815260200190815260200160002060009054906101000a900473ffffffffffffffffffffffffffffffffffffffff1673ffffffffffffffffffffffffffffffffffffffff16146111c157600080fd5b600081600401600089815260200190815260200160002090508060050160009054906101000a900460ff161561122c576040517f08c379a0000000000000000000000000000000000000000000000000000000008152600401611223906131bd565b60405180910390fd5b60006002826002015461123f919061323b565b8560030160008c81526020019081526020016000206009015410156112a657600a8560030160008c8152602001908152602001600020600901546002846002015461128a919061323b565b611294919061326c565b61129e91906132a0565b9050806112bb565b600282600201546112b7919061323b565b9050805b50808360060160008b815260200190815260200160002060008c8152602001908152602001600020546112ee91906132a0565b4210156112fa57600080fd5b81600101548460010160003373ffffffffffffffffffffffffffffffffffffffff1673ffffffffffffffffffffffffffffffffffffffff168152602001908152602001600020541015611382576040517f08c379a000000000000000000000000000000000000000000000000000000000815260040161137990613320565b60405180910390fd5b600061139283600301548c612814565b90506000808c8303611515578c91508460030154905085600a0160008e815260200190815260200160002060008154809291906113ce90613478565b919050555085600b0160008660030154815260200190815260200160002060008154809291906113fd90613478565b919050555084600101548760010160003373ffffffffffffffffffffffffffffffffffffffff1673ffffffffffffffffffffffffffffffffffffffff168152602001908152602001600020600082825461145791906132a0565b92505081905550428660070160008e815260200190815260200160002060008f8152602001908152602001600020819055508560070160008d815260200190815260200160002060008660030154815260200190815260200160002054426114bf919061326c565b8660050160008760030154815260200190815260200160002060008282546114e791906132a0565b9250508190555060008860030160008760030154815260200190815260200160002060020181905550611662565b846003015491508c905085600a01600086600301548152602001908152602001600020600081548092919061154990613478565b919050555085600b0160008e8152602001908152602001600020600081548092919061157490613478565b91905055506002856001015461158a91906134c0565b8760010160008760050160019054906101000a900473ffffffffffffffffffffffffffffffffffffffff1673ffffffffffffffffffffffffffffffffffffffff1673ffffffffffffffffffffffffffffffffffffffff16815260200190815260200160002060008282546115fe91906132a0565b9250508190555084600101548760010160003373ffffffffffffffffffffffffffffffffffffffff1673ffffffffffffffffffffffffffffffffffffffff168152602001908152602001600020600082825461165a919061326c565b925050819055505b428660060160008e815260200190815260200160002060008f815260200190815260200160002081905550428660060160008e81526020019081526020016000206000876003015481526020019081526020016000208190555081818760070160008f81526020019081526020016000206000858152602001908152602001600020549a509a509a5050505050505050509250925092565b60006117046127e7565b905080600001600081548092919061171b90613478565b919050555060405180610100016040528082600001548152602001868152602001858152602001600081526020016001151581526020013373ffffffffffffffffffffffffffffffffffffffff16815260200184815260200183815250816001016000836000015481526020019081526020016000206000820151816000015560208201518160010155604082015181600201556060820151816003015560808201518160040160006101000a81548160ff02191690831515021790555060a08201518160040160016101000a81548173ffffffffffffffffffffffffffffffffffffffff021916908373ffffffffffffffffffffffffffffffffffffffff16021790555060c082015181600501908161183591906136ae565b5060e082015181600601908161184b91906136ae565b509050505050505050565b61185e612aba565b60006118686127e7565b90508060040160008481526020019081526020016000206040518061012001604052908160008201548152602001600182015481526020016002820154815260200160038201548152602001600482015481526020016005820160009054906101000a900460ff161515151581526020016005820160019054906101000a900473ffffffffffffffffffffffffffffffffffffffff1673ffffffffffffffffffffffffffffffffffffffff1673ffffffffffffffffffffffffffffffffffffffff16815260200160068201805461193e90613447565b80601f016020809104026020016040519081016040528092919081815260200182805461196a90613447565b80156119b75780601f1061198c576101008083540402835291602001916119b7565b820191906000526020600020905b81548152906001019060200180831161199a57829003601f168201915b505050505081526020016007820180546119d090613447565b80601f01602080910402602001604051908101604052809291908181526020018280546119fc90613447565b8015611a495780601f10611a1e57610100808354040283529160200191611a49565b820191906000526020600020905b815481529060010190602001808311611a2c57829003601f168201915b505050505081525050915050919050565b6000611a6461278d565b90506000611a706127e7565b90506000611a7c6127ba565b905060008360030160008781526020019081526020016000206002015414611aa357600080fd5b3373ffffffffffffffffffffffffffffffffffffffff1683600201600087815260200190815260200160002060009054906101000a900473ffffffffffffffffffffffffffffffffffffffff1673ffffffffffffffffffffffffffffffffffffffff1614611b1057600080fd5b600082600401600086815260200190815260200160002090508060050160009054906101000a900460ff16611b7a576040517f08c379a0000000000000000000000000000000000000000000000000000000008152600401611b71906131bd565b60405180910390fd5b80600101548260010160003373ffffffffffffffffffffffffffffffffffffffff1673ffffffffffffffffffffffffffffffffffffffff168152602001908152602001600020541015611c02576040517f08c379a0000000000000000000000000000000000000000000000000000000008152600401611bf990613320565b60405180910390fd5b80600101548260010160003373ffffffffffffffffffffffffffffffffffffffff1673ffffffffffffffffffffffffffffffffffffffff1681526020019081526020016000206000828254611c57919061326c565b92505081905550600060028260020154611c71919061323b565b856003016000898152602001908152602001600020600901541015611cd857600a8560030160008981526020019081526020016000206009015460028460020154611cbc919061323b565b611cc6919061326c565b611cd091906132a0565b905080611ced565b60028260020154611ce9919061323b565b9050805b5080846006016000888152602001908152602001600020600089815260200190815260200160002054611d2091906132a0565b421015611d2c57600080fd5b600485600301600089815260200190815260200160002060020181905550600084600401600088815260200190815260200160002060050160006101000a81548160ff02191690831515021790555086846004016000888152602001908152602001600020600301819055503384600401600088815260200190815260200160002060050160016101000a81548173ffffffffffffffffffffffffffffffffffffffff021916908373ffffffffffffffffffffffffffffffffffffffff1602179055504284600701600088815260200190815260200160002060008981526020019081526020016000208190555050505050505050565b6000806000611e3061278d565b90506000611e3c6127ba565b90506000611e486127e7565b905060008360030160008981526020019081526020016000206002015414611e6f57600080fd5b3373ffffffffffffffffffffffffffffffffffffffff1683600201600089815260200190815260200160002060009054906101000a900473ffffffffffffffffffffffffffffffffffffffff1673ffffffffffffffffffffffffffffffffffffffff1614611edc57600080fd5b600081600101600088815260200190815260200160002090508060040160009054906101000a900460ff1615611f47576040517f08c379a0000000000000000000000000000000000000000000000000000000008152600401611f3e906131bd565b60405180910390fd5b600060028260020154611f5a919061323b565b8560030160008b8152602001908152602001600020600901541015611fc157600a8560030160008b81526020019081526020016000206009015460028460020154611fa5919061323b565b611faf919061326c565b611fb991906132a0565b905080611fd6565b60028260020154611fd2919061323b565b9050805b50808360020160008a815260200190815260200160002060008b81526020019081526020016000205461200991906132a0565b42101561201557600080fd5b81600101548460010160003373ffffffffffffffffffffffffffffffffffffffff1673ffffffffffffffffffffffffffffffffffffffff16815260200190815260200160002054101561209d576040517f08c379a000000000000000000000000000000000000000000000000000000000815260040161209490613320565b60405180910390fd5b60006120ad83600301548b612814565b90506000808b830361217e578b91508460030154905085600a0160008d815260200190815260200160002060008154809291906120e990613478565b919050555085600b01600086600301548152602001908152602001600020600081548092919061211890613478565b919050555084600101548760010160003373ffffffffffffffffffffffffffffffffffffffff1673ffffffffffffffffffffffffffffffffffffffff168152602001908152602001600020600082825461217291906132a0565b925050819055506122cb565b846003015491508b905085600a0160008660030154815260200190815260200160002060008154809291906121b290613478565b919050555085600b0160008d815260200190815260200160002060008154809291906121dd90613478565b9190505550600285600101546121f391906134c0565b8760010160008760040160019054906101000a900473ffffffffffffffffffffffffffffffffffffffff1673ffffffffffffffffffffffffffffffffffffffff1673ffffffffffffffffffffffffffffffffffffffff168152602001908152602001600020600082825461226791906132a0565b9250508190555084600101548760010160003373ffffffffffffffffffffffffffffffffffffffff1673ffffffffffffffffffffffffffffffffffffffff16815260200190815260200160002060008282546122c3919061326c565b925050819055505b428660020160008d815260200190815260200160002060008e815260200190815260200160002081905550428660020160008d81526020019081526020016000206000876003015481526020019081526020016000208190555060018660010160008d815260200190815260200160002060040160006101000a81548160ff0219169083151502179055506000886003016000876003015481526020019081526020016000206002018190555081819950995050505050505050509250929050565b60006123976127e7565b905060006123a361278d565b905060006123af6127ba565b905084836001016000868152602001908152602001600020600301541461240b576040517f08c379a00000000000000000000000000000000000000000000000000000000081526004016124029061338c565b60405180910390fd5b60048260030160008781526020019081526020016000206002015414612466576040517f08c379a000000000000000000000000000000000000000000000000000000000815260040161245d906133f8565b60405180910390fd5b3373ffffffffffffffffffffffffffffffffffffffff1682600201600087815260200190815260200160002060009054906101000a900473ffffffffffffffffffffffffffffffffffffffff1673ffffffffffffffffffffffffffffffffffffffff16146124d357600080fd5b600083600101600086815260200190815260200160002060030181905550600183600101600086815260200190815260200160002060040160006101000a81548160ff021916908315150217905550600082600301600087815260200190815260200160002060020181905550826001016000858152602001908152602001600020600101548160010160003373ffffffffffffffffffffffffffffffffffffffff1673ffffffffffffffffffffffffffffffffffffffff16815260200190815260200160002060008282546125a991906132a0565b925050819055505050505050565b6000806125c26127e7565b905080600201600084815260200190815260200160002060008581526020019081526020016000205491505092915050565b60006125fe6127e7565b905080600301600081548092919061261590613478565b91905055506040518061012001604052808260030154815260200186815260200185815260200160008152602001600081526020016001151581526020013373ffffffffffffffffffffffffffffffffffffffff1681526020018481526020018381525081600401600083600301548152602001908152602001600020600082015181600001556020820151816001015560408201518160020155606082015181600301556080820151816004015560a08201518160050160006101000a81548160ff02191690831515021790555060c08201518160050160016101000a81548173ffffffffffffffffffffffffffffffffffffffff021916908373ffffffffffffffffffffffffffffffffffffffff16021790555060e082015181600601908161274091906136ae565b5061010082015181600701908161275791906136ae565b509050505050505050565b60008061276d6127e7565b905080600b01600084815260200190815260200160002054915050919050565b6000807f3cab9a070a0c61cd0ae9d9e9e2c0781e5ca8691bec4087e5a4701d5ac018dd4e90508091505090565b6000807f2c89d74504b6ad8d4fbde22bc3474166bac5452a11195897f239d8bebe02d70790508091505090565b6000807f1b1c2350f60dba32e7a2436167ce3f8399cd1c51a95c8577f1448f53846d4cda90508091505090565b60008061281f61278d565b9050600081600301600086815260200190815260200160002090506000826003016000868152602001908152602001600020905060006128638683600301546129db565b905060006128758885600301546129db565b905083600e0154846005015461288b91906132a0565b82106128b45760008560030160008a8152602001908152602001600020600501819055506128ff565b83600e015482106128fe5783600e0154826128cf919061326c565b8560030160008a815260200190815260200160002060050160008282546128f6919061326c565b925050819055505b5b82600e0154836005015461291391906132a0565b811061293c57600085600301600089815260200190815260200160002060050181905550612987565b82600e015481106129865782600e015481612957919061326c565b856003016000898152602001908152602001600020600501600082825461297e919061326c565b925050819055505b5b846003016000898152602001908152602001600020600501548560030160008981526020019081526020016000206005015411156129cc5786955050505050506129d5565b87955050505050505b92915050565b600080606460096129ec8686612a23565b6129f69190613780565b612a0091906132a0565b905060648184612a1091906134c0565b612a1a919061323b565b91505092915050565b600042448484604051602001612a3c94939291906137d2565b6040516020818303038152906040528051906020012060001c905092915050565b60405180610100016040528060008152602001600081526020016000815260200160008152602001600015158152602001600073ffffffffffffffffffffffffffffffffffffffff16815260200160608152602001606081525090565b6040518061012001604052806000815260200160008152602001600081526020016000815260200160008152602001600015158152602001600073ffffffffffffffffffffffffffffffffffffffff16815260200160608152602001606081525090565b6000604051905090565b600080fd5b600080fd5b6000819050919050565b612b4581612b32565b8114612b5057600080fd5b50565b600081359050612b6281612b3c565b92915050565b60008060408385031215612b7f57612b7e612b28565b5b6000612b8d85828601612b53565b9250506020612b9e85828601612b53565b9150509250929050565b612bb181612b32565b82525050565b6000602082019050612bcc6000830184612ba8565b92915050565b600073ffffffffffffffffffffffffffffffffffffffff82169050919050565b6000612bfd82612bd2565b9050919050565b612c0d81612bf2565b8114612c1857600080fd5b50565b600081359050612c2a81612c04565b92915050565b600060208284031215612c4657612c45612b28565b5b6000612c5484828501612c1b565b91505092915050565b600060208284031215612c7357612c72612b28565b5b6000612c8184828501612b53565b91505092915050565b612c9381612b32565b82525050565b60008115159050919050565b612cae81612c99565b82525050565b6000612cbf82612bd2565b9050919050565b612ccf81612cb4565b82525050565b600081519050919050565b600082825260208201905092915050565b60005b83811015612d0f578082015181840152602081019050612cf4565b60008484015250505050565b6000601f19601f8301169050919050565b6000612d3782612cd5565b612d418185612ce0565b9350612d51818560208601612cf1565b612d5a81612d1b565b840191505092915050565b600061010083016000830151612d7e6000860182612c8a565b506020830151612d916020860182612c8a565b506040830151612da46040860182612c8a565b506060830151612db76060860182612c8a565b506080830151612dca6080860182612ca5565b5060a0830151612ddd60a0860182612cc6565b5060c083015184820360c0860152612df58282612d2c565b91505060e083015184820360e0860152612e0f8282612d2c565b9150508091505092915050565b60006020820190508181036000830152612e368184612d65565b905092915050565b600080fd5b600080fd5b7f4e487b7100000000000000000000000000000000000000000000000000000000600052604160045260246000fd5b612e8082612d1b565b810181811067ffffffffffffffff82111715612e9f57612e9e612e48565b5b80604052505050565b6000612eb2612b1e565b9050612ebe8282612e77565b919050565b600067ffffffffffffffff821115612ede57612edd612e48565b5b612ee782612d1b565b9050602081019050919050565b82818337600083830152505050565b6000612f16612f1184612ec3565b612ea8565b905082815260208101848484011115612f3257612f31612e43565b5b612f3d848285612ef4565b509392505050565b600082601f830112612f5a57612f59612e3e565b5b8135612f6a848260208601612f03565b91505092915050565b60008060008060808587031215612f8d57612f8c612b28565b5b6000612f9b87828801612b53565b9450506020612fac87828801612b53565b935050604085013567ffffffffffffffff811115612fcd57612fcc612b2d565b5b612fd987828801612f45565b925050606085013567ffffffffffffffff811115612ffa57612ff9612b2d565b5b61300687828801612f45565b91505092959194509250565b60006101208301600083015161302b6000860182612c8a565b50602083015161303e6020860182612c8a565b5060408301516130516040860182612c8a565b5060608301516130646060860182612c8a565b5060808301516130776080860182612c8a565b5060a083015161308a60a0860182612ca5565b5060c083015161309d60c0860182612cc6565b5060e083015184820360e08601526130b58282612d2c565b9150506101008301518482036101008601526130d18282612d2c565b9150508091505092915050565b600060208201905081810360008301526130f88184613012565b905092915050565b60006040820190506131156000830185612ba8565b81810360208301526131278184612d65565b90509392505050565b60006040820190506131456000830185612ba8565b81810360208301526131578184613012565b90509392505050565b600082825260208201905092915050565b7f6172656e61206973206e6f74206f70656e000000000000000000000000000000600082015250565b60006131a7601183613160565b91506131b282613171565b602082019050919050565b600060208201905081810360008301526131d68161319a565b9050919050565b7f4e487b7100000000000000000000000000000000000000000000000000000000600052601260045260246000fd5b7f4e487b7100000000000000000000000000000000000000000000000000000000600052601160045260246000fd5b600061324682612b32565b915061325183612b32565b925082613261576132606131dd565b5b828204905092915050565b600061327782612b32565b915061328283612b32565b925082820390508181111561329a5761329961320c565b5b92915050565b60006132ab82612b32565b91506132b683612b32565b92508282019050808211156132ce576132cd61320c565b5b92915050565b7f62726f6b652061737320676f74206e6f206d6f6e657900000000000000000000600082015250565b600061330a601683613160565b9150613315826132d4565b602082019050919050565b60006020820190508181036000830152613339816132fd565b9050919050565b7f796f7520617265206e6f742074686520686f7374000000000000000000000000600082015250565b6000613376601483613160565b915061338182613340565b602082019050919050565b600060208201905081810360008301526133a581613369565b9050919050565b7f796f7520617265206e6f7420696e20746865206172656e610000000000000000600082015250565b60006133e2601883613160565b91506133ed826133ac565b602082019050919050565b60006020820190508181036000830152613411816133d5565b9050919050565b7f4e487b7100000000000000000000000000000000000000000000000000000000600052602260045260246000fd5b6000600282049050600182168061345f57607f821691505b60208210810361347257613471613418565b5b50919050565b600061348382612b32565b91507fffffffffffffffffffffffffffffffffffffffffffffffffffffffffffffffff82036134b5576134b461320c565b5b600182019050919050565b60006134cb82612b32565b91506134d683612b32565b92508282026134e481612b32565b915082820484148315176134fb576134fa61320c565b5b5092915050565b60008190508160005260206000209050919050565b60006020601f8301049050919050565b600082821b905092915050565b6000600883026135647fffffffffffffffffffffffffffffffffffffffffffffffffffffffffffffffff82613527565b61356e8683613527565b95508019841693508086168417925050509392505050565b6000819050919050565b60006135ab6135a66135a184612b32565b613586565b612b32565b9050919050565b6000819050919050565b6135c583613590565b6135d96135d1826135b2565b848454613534565b825550505050565b600090565b6135ee6135e1565b6135f98184846135bc565b505050565b5b8181101561361d576136126000826135e6565b6001810190506135ff565b5050565b601f8211156136625761363381613502565b61363c84613517565b8101602085101561364b578190505b61365f61365785613517565b8301826135fe565b50505b505050565b600082821c905092915050565b600061368560001984600802613667565b1980831691505092915050565b600061369e8383613674565b9150826002028217905092915050565b6136b782612cd5565b67ffffffffffffffff8111156136d0576136cf612e48565b5b6136da8254613447565b6136e5828285613621565b600060209050601f8311600181146137185760008415613706578287015190505b6137108582613692565b865550613778565b601f19841661372686613502565b60005b8281101561374e57848901518255600182019150602085019450602081019050613729565b8683101561376b5784890151613767601f891682613674565b8355505b6001600288020188555050505b505050505050565b600061378b82612b32565b915061379683612b32565b9250826137a6576137a56131dd565b5b828206905092915050565b6000819050919050565b6137cc6137c782612b32565b6137b1565b82525050565b60006137de82876137bb565b6020820191506137ee82866137bb565b6020820191506137fe82856137bb565b60208201915061380e82846137bb565b6020820191508190509594505050505056fea2646970667358221220d3f8c2d0f97bded0949fc2bdfc3df12e8ee5cf61166b56ce2a0fa6f6300c717b64736f6c63430008120033",
  "linkReferences": {},
  "deployedLinkReferences": {}
}