{
  "_format": "hh-sol-artifact-1",
  "contractName": "ArenaFacet",
  "sourceName": "contracts/facets/ArenaFacet.sol",
  "abi": [
    {
      "anonymous": false,
      "inputs": [
        {
          "indexed": true,
          "internalType": "uint256",
          "name": "_playerId",
          "type": "uint256"
        },
        {
          "indexed": true,
          "internalType": "uint256",
          "name": "_basicArenaId",
          "type": "uint256"
        }
      ],
      "name": "BasicArenaLoss",
      "type": "event"
    },
    {
      "anonymous": false,
      "inputs": [
        {
          "indexed": true,
          "internalType": "uint256",
          "name": "_playerId",
          "type": "uint256"
        },
        {
          "indexed": true,
          "internalType": "uint256",
          "name": "_basicArenaId",
          "type": "uint256"
        }
      ],
      "name": "BasicArenaWin",
      "type": "event"
    },
    {
      "anonymous": false,
      "inputs": [
        {
          "indexed": false,
          "internalType": "uint256",
          "name": "_basicArenaId",
          "type": "uint256"
        },
        {
          "components": [
            {
              "internalType": "uint256",
              "name": "basicArenaId",
              "type": "uint256"
            },
            {
              "internalType": "uint256",
              "name": "cost",
              "type": "uint256"
            },
            {
              "internalType": "uint256",
              "name": "cooldown",
              "type": "uint256"
            },
            {
              "internalType": "uint256",
              "name": "hostId",
              "type": "uint256"
            },
            {
              "internalType": "bool",
              "name": "open",
              "type": "bool"
            },
            {
              "internalType": "address payable",
              "name": "hostAddress",
              "type": "address"
            },
            {
              "internalType": "string",
              "name": "name",
              "type": "string"
            },
            {
              "internalType": "string",
              "name": "url",
              "type": "string"
            }
          ],
          "indexed": false,
          "internalType": "struct BasicArena",
          "name": "_basicArena",
          "type": "tuple"
        }
      ],
      "name": "CreateBasicArena",
      "type": "event"
    },
    {
      "anonymous": false,
      "inputs": [
        {
          "indexed": true,
          "internalType": "uint256",
          "name": "_playerId",
          "type": "uint256"
        },
        {
          "indexed": true,
          "internalType": "uint256",
          "name": "_basicArenaId",
          "type": "uint256"
        }
      ],
      "name": "EnterBasicArena",
      "type": "event"
    },
    {
      "anonymous": false,
      "inputs": [
        {
          "indexed": true,
          "internalType": "uint256",
          "name": "_playerId",
          "type": "uint256"
        },
        {
          "indexed": true,
          "internalType": "uint256",
          "name": "_basicArenaId",
          "type": "uint256"
        }
      ],
      "name": "LeaveBasicArena",
      "type": "event"
    },
    {
      "inputs": [
        {
          "internalType": "uint256",
          "name": "_cost",
          "type": "uint256"
        },
        {
          "internalType": "uint256",
          "name": "_cooldown",
          "type": "uint256"
        },
        {
          "internalType": "string",
          "name": "_name",
          "type": "string"
        },
        {
          "internalType": "string",
          "name": "_uri",
          "type": "string"
        }
      ],
      "name": "creatBasicArena",
      "outputs": [],
      "stateMutability": "nonpayable",
      "type": "function"
    },
    {
      "inputs": [
        {
          "internalType": "uint256",
          "name": "_playerId",
          "type": "uint256"
        },
        {
          "internalType": "uint256",
          "name": "_basicArenaId",
          "type": "uint256"
        }
      ],
      "name": "enterBasicArena",
      "outputs": [],
      "stateMutability": "nonpayable",
      "type": "function"
    },
    {
      "inputs": [
        {
          "internalType": "uint256",
          "name": "_playerId",
          "type": "uint256"
        },
        {
          "internalType": "uint256",
          "name": "_basicArenaId",
          "type": "uint256"
        }
      ],
      "name": "fightBaiscArena",
      "outputs": [],
      "stateMutability": "nonpayable",
      "type": "function"
    },
    {
      "inputs": [
        {
          "internalType": "uint256",
          "name": "_basicArenaId",
          "type": "uint256"
        }
      ],
      "name": "getBasicArena",
      "outputs": [
        {
          "components": [
            {
              "internalType": "uint256",
              "name": "basicArenaId",
              "type": "uint256"
            },
            {
              "internalType": "uint256",
              "name": "cost",
              "type": "uint256"
            },
            {
              "internalType": "uint256",
              "name": "cooldown",
              "type": "uint256"
            },
            {
              "internalType": "uint256",
              "name": "hostId",
              "type": "uint256"
            },
            {
              "internalType": "bool",
              "name": "open",
              "type": "bool"
            },
            {
              "internalType": "address payable",
              "name": "hostAddress",
              "type": "address"
            },
            {
              "internalType": "string",
              "name": "name",
              "type": "string"
            },
            {
              "internalType": "string",
              "name": "url",
              "type": "string"
            }
          ],
          "internalType": "struct BasicArena",
          "name": "",
          "type": "tuple"
        }
      ],
      "stateMutability": "view",
      "type": "function"
    },
    {
      "inputs": [
        {
          "internalType": "uint256",
          "name": "_playerId",
          "type": "uint256"
        },
        {
          "internalType": "uint256",
          "name": "_basicArenaId",
          "type": "uint256"
        }
      ],
      "name": "getBasicArenaCooldowns",
      "outputs": [
        {
          "internalType": "uint256",
          "name": "",
          "type": "uint256"
        }
      ],
      "stateMutability": "view",
      "type": "function"
    },
    {
      "inputs": [],
      "name": "getBasicArenaCount",
      "outputs": [
        {
          "internalType": "uint256",
          "name": "",
          "type": "uint256"
        }
      ],
      "stateMutability": "view",
      "type": "function"
    },
    {
      "inputs": [
        {
          "internalType": "uint256",
          "name": "_playerId",
          "type": "uint256"
        }
      ],
      "name": "getTotalLosses",
      "outputs": [
        {
          "internalType": "uint256",
          "name": "",
          "type": "uint256"
        }
      ],
      "stateMutability": "view",
      "type": "function"
    },
    {
      "inputs": [
        {
          "internalType": "uint256",
          "name": "_playerId",
          "type": "uint256"
        }
      ],
      "name": "getTotalWins",
      "outputs": [
        {
          "internalType": "uint256",
          "name": "",
          "type": "uint256"
        }
      ],
      "stateMutability": "view",
      "type": "function"
    },
    {
      "inputs": [
        {
          "internalType": "uint256",
          "name": "_playerId",
          "type": "uint256"
        },
        {
          "internalType": "uint256",
          "name": "_basicArenaId",
          "type": "uint256"
        }
      ],
      "name": "leaveBasicArena",
      "outputs": [],
      "stateMutability": "nonpayable",
      "type": "function"
    }
  ],
  "bytecode": "0x608060405234801561001057600080fd5b5061223b806100206000396000f3fe608060405234801561001057600080fd5b50600436106100935760003560e01c806359735adc1161006657806359735adc14610132578063c7f3ade51461014e578063c8fe5c471461016a578063cc8d469d14610186578063fb944ffc146101b657610093565b80630b93942a146100985780632d2c17be146100b45780634f7d08e5146100d257806354e8a31a14610102575b600080fd5b6100b260048036038101906100ad91906116d6565b6101e6565b005b6100bc610222565b6040516100c99190611725565b60405180910390f35b6100ec60048036038101906100e79190611740565b610231565b6040516100f99190611725565b60405180910390f35b61011c60048036038101906101179190611740565b610243565b604051610129919061191f565b60405180910390f35b61014c60048036038101906101479190611a76565b61025b565b005b610168600480360381019061016391906116d6565b6102bb565b005b610184600480360381019061017f91906116d6565b610332565b005b6101a0600480360381019061019b91906116d6565b61036e565b6040516101ad9190611725565b60405180910390f35b6101d060048036038101906101cb9190611740565b610382565b6040516101dd9190611725565b60405180910390f35b6101f08282610394565b80827f429a014671400a39eaa0b16744a56044df14e9b9124a3919f8425a0b471e25e960405160405180910390a35050565b600061022c610732565b905090565b600061023c8261074a565b9050919050565b61024b61162f565b61025482610775565b9050919050565b6102678484848461096f565b6000610271610732565b90507fa8944f13c384569cd759dea69a02c83263e937c72f585de37fa46b4bb55b6b088161029e83610243565b6040516102ac929190611b15565b60405180910390a15050505050565b6000806102c88484610acb565b809250819350505082827fe5783c40c14d69971fbf9d435486b3a0469a026e4cacbd5e543c18ddd293eca560405160405180910390a382817ff07fe1bc469a482805ec42d00e7477d9bacbd901aedac046ea74d6a10ce2b04a60405160405180910390a350505050565b61033c8282611035565b80827ff4debd39acd9b010e1276185a3f67b145758748b94e0145ce176c42ae6d27a4f60405160405180910390a35050565b600061037a838361125f565b905092915050565b600061038d8261129c565b9050919050565b600061039e6112c7565b905060006103aa6112f4565b905060006103b6611321565b9050600083600301600087815260200190815260200160002060020154146103dd57600080fd5b3373ffffffffffffffffffffffffffffffffffffffff1683600201600087815260200190815260200160002060009054906101000a900473ffffffffffffffffffffffffffffffffffffffff1673ffffffffffffffffffffffffffffffffffffffff161461044a57600080fd5b600081600101600086815260200190815260200160002090508060040160009054906101000a900460ff166104b4576040517f08c379a00000000000000000000000000000000000000000000000000000000081526004016104ab90611ba2565b60405180910390fd5b6000600282600201546104c79190611c20565b85600301600089815260200190815260200160002060090154101561052e57600a85600301600089815260200190815260200160002060090154600284600201546105129190611c20565b61051c9190611c51565b6105269190611c85565b905080610543565b6002826002015461053f9190611c20565b9050805b50808360020160008881526020019081526020016000206000898152602001908152602001600020546105769190611c85565b42101561058257600080fd5b81600101548460000160003373ffffffffffffffffffffffffffffffffffffffff1673ffffffffffffffffffffffffffffffffffffffff16815260200190815260200160002054101561060a576040517f08c379a000000000000000000000000000000000000000000000000000000000815260040161060190611d05565b60405180910390fd5b81600101548460000160003373ffffffffffffffffffffffffffffffffffffffff1673ffffffffffffffffffffffffffffffffffffffff168152602001908152602001600020600082825461065f9190611c51565b92505081905550600485600301600089815260200190815260200160002060020181905550600083600101600088815260200190815260200160002060040160006101000a81548160ff02191690831515021790555086836001016000888152602001908152602001600020600301819055503383600101600088815260200190815260200160002060040160016101000a81548173ffffffffffffffffffffffffffffffffffffffff021916908373ffffffffffffffffffffffffffffffffffffffff16021790555050505050505050565b60008061073d611321565b9050806000015491505090565b600080610755611321565b905080600501600084815260200190815260200160002054915050919050565b61077d61162f565b6000610787611321565b905080600101600084815260200190815260200160002060405180610100016040529081600082015481526020016001820154815260200160028201548152602001600382015481526020016004820160009054906101000a900460ff161515151581526020016004820160019054906101000a900473ffffffffffffffffffffffffffffffffffffffff1673ffffffffffffffffffffffffffffffffffffffff1673ffffffffffffffffffffffffffffffffffffffff16815260200160058201805461085390611d54565b80601f016020809104026020016040519081016040528092919081815260200182805461087f90611d54565b80156108cc5780601f106108a1576101008083540402835291602001916108cc565b820191906000526020600020905b8154815290600101906020018083116108af57829003601f168201915b505050505081526020016006820180546108e590611d54565b80601f016020809104026020016040519081016040528092919081815260200182805461091190611d54565b801561095e5780601f106109335761010080835404028352916020019161095e565b820191906000526020600020905b81548152906001019060200180831161094157829003601f168201915b505050505081525050915050919050565b6000610979611321565b905080600001600081548092919061099090611d85565b919050555060405180610100016040528082600001548152602001868152602001858152602001600081526020016001151581526020013373ffffffffffffffffffffffffffffffffffffffff16815260200184815260200183815250816001016000836000015481526020019081526020016000206000820151816000015560208201518160010155604082015181600201556060820151816003015560808201518160040160006101000a81548160ff02191690831515021790555060a08201518160040160016101000a81548173ffffffffffffffffffffffffffffffffffffffff021916908373ffffffffffffffffffffffffffffffffffffffff16021790555060c0820151816005019081610aaa9190611f79565b5060e0820151816006019081610ac09190611f79565b509050505050505050565b6000806000610ad86112c7565b90506000610ae46112f4565b90506000610af0611321565b905060008360030160008981526020019081526020016000206002015414610b1757600080fd5b3373ffffffffffffffffffffffffffffffffffffffff1683600201600089815260200190815260200160002060009054906101000a900473ffffffffffffffffffffffffffffffffffffffff1673ffffffffffffffffffffffffffffffffffffffff1614610b8457600080fd5b600081600101600088815260200190815260200160002090508060040160009054906101000a900460ff1615610bef576040517f08c379a0000000000000000000000000000000000000000000000000000000008152600401610be690611ba2565b60405180910390fd5b600060028260020154610c029190611c20565b8560030160008b8152602001908152602001600020600901541015610c6957600a8560030160008b81526020019081526020016000206009015460028460020154610c4d9190611c20565b610c579190611c51565b610c619190611c85565b905080610c7e565b60028260020154610c7a9190611c20565b9050805b50808360020160008a815260200190815260200160002060008b815260200190815260200160002054610cb19190611c85565b421015610cbd57600080fd5b81600101548460000160003373ffffffffffffffffffffffffffffffffffffffff1673ffffffffffffffffffffffffffffffffffffffff168152602001908152602001600020541015610d45576040517f08c379a0000000000000000000000000000000000000000000000000000000008152600401610d3c90611d05565b60405180910390fd5b6000610d5583600301548b61134e565b90506000808b8303610e26578b9150846003015490508560050160008d81526020019081526020016000206000815480929190610d9190611d85565b9190505550856006016000866003015481526020019081526020016000206000815480929190610dc090611d85565b919050555084600101548760000160003373ffffffffffffffffffffffffffffffffffffffff1673ffffffffffffffffffffffffffffffffffffffff1681526020019081526020016000206000828254610e1a9190611c85565b92505081905550610f73565b846003015491508b9050856005016000866003015481526020019081526020016000206000815480929190610e5a90611d85565b91905055508560060160008d81526020019081526020016000206000815480929190610e8590611d85565b919050555060028560010154610e9b919061204b565b8760000160008760040160019054906101000a900473ffffffffffffffffffffffffffffffffffffffff1673ffffffffffffffffffffffffffffffffffffffff1673ffffffffffffffffffffffffffffffffffffffff1681526020019081526020016000206000828254610f0f9190611c85565b9250508190555084600101548760000160003373ffffffffffffffffffffffffffffffffffffffff1673ffffffffffffffffffffffffffffffffffffffff1681526020019081526020016000206000828254610f6b9190611c51565b925050819055505b428660020160008d815260200190815260200160002060008e815260200190815260200160002081905550428660020160008d81526020019081526020016000206000876003015481526020019081526020016000208190555060018660010160008d815260200190815260200160002060040160006101000a81548160ff0219169083151502179055506000886003016000876003015481526020019081526020016000206002018190555081819950995050505050505050509250929050565b600061103f611321565b9050600061104b6112c7565b905060006110576112f4565b90508483600101600086815260200190815260200160002060030154146110b3576040517f08c379a00000000000000000000000000000000000000000000000000000000081526004016110aa906120d9565b60405180910390fd5b6004826003016000878152602001908152602001600020600201541461110e576040517f08c379a000000000000000000000000000000000000000000000000000000000815260040161110590612145565b60405180910390fd5b3373ffffffffffffffffffffffffffffffffffffffff1682600201600087815260200190815260200160002060009054906101000a900473ffffffffffffffffffffffffffffffffffffffff1673ffffffffffffffffffffffffffffffffffffffff161461117b57600080fd5b600083600101600086815260200190815260200160002060030181905550600183600101600086815260200190815260200160002060040160006101000a81548160ff021916908315150217905550600082600301600087815260200190815260200160002060020181905550826001016000858152602001908152602001600020600101548160000160003373ffffffffffffffffffffffffffffffffffffffff1673ffffffffffffffffffffffffffffffffffffffff16815260200190815260200160002060008282546112519190611c85565b925050819055505050505050565b60008061126a611321565b905080600201600084815260200190815260200160002060008581526020019081526020016000205491505092915050565b6000806112a7611321565b905080600601600084815260200190815260200160002054915050919050565b6000807f3cab9a070a0c61cd0ae9d9e9e2c0781e5ca8691bec4087e5a4701d5ac018dd4e90508091505090565b6000807f2c89d74504b6ad8d4fbde22bc3474166bac5452a11195897f239d8bebe02d70790508091505090565b6000807f1b1c2350f60dba32e7a2436167ce3f8399cd1c51a95c8577f1448f53846d4cda90508091505090565b6000806113596112c7565b90506000816003016000868152602001908152602001600020905060008260030160008681526020019081526020016000209050600061139d8683600301546115ad565b905060006113af8885600301546115ad565b905083600e015484600501546113c59190611c85565b6113d38885600301546115ad565b101561145d5783600e01546113ec8885600301546115ad565b10156114105784600301600089815260200190815260200160002060050154611458565b61141e8784600301546115ad565b84600e015485600501546114329190611c85565b61143c9190611c51565b8560030160008a81526020019081526020016000206005018190555b61147b565b60008560030160008a81526020019081526020016000206005018190555b5082600e015483600501546114909190611c85565b61149e8986600301546115ad565b101561153a5782600e01546114b78986600301546115ad565b10156114db5784600301600088815260200190815260200160002060050154611535565b6114e98885600301546115ad565b83600e015484600501546114fd9190611c85565b6115079190611c51565b856003016000898152602001908152602001600020600501600082825461152e9190611c51565b9250508190555b611558565b60008560030160008981526020019081526020016000206005018190555b508460030160008981526020019081526020016000206005015485600301600089815260200190815260200160002060050154111561159e5786955050505050506115a7565b87955050505050505b92915050565b600080606460096115be86866115f5565b6115c89190612165565b6115d29190611c85565b9050606481846115e2919061204b565b6115ec9190611c20565b91505092915050565b60004244848460405160200161160e94939291906121b7565b6040516020818303038152906040528051906020012060001c905092915050565b60405180610100016040528060008152602001600081526020016000815260200160008152602001600015158152602001600073ffffffffffffffffffffffffffffffffffffffff16815260200160608152602001606081525090565b6000604051905090565b600080fd5b600080fd5b6000819050919050565b6116b3816116a0565b81146116be57600080fd5b50565b6000813590506116d0816116aa565b92915050565b600080604083850312156116ed576116ec611696565b5b60006116fb858286016116c1565b925050602061170c858286016116c1565b9150509250929050565b61171f816116a0565b82525050565b600060208201905061173a6000830184611716565b92915050565b60006020828403121561175657611755611696565b5b6000611764848285016116c1565b91505092915050565b611776816116a0565b82525050565b60008115159050919050565b6117918161177c565b82525050565b600073ffffffffffffffffffffffffffffffffffffffff82169050919050565b60006117c282611797565b9050919050565b6117d2816117b7565b82525050565b600081519050919050565b600082825260208201905092915050565b60005b838110156118125780820151818401526020810190506117f7565b60008484015250505050565b6000601f19601f8301169050919050565b600061183a826117d8565b61184481856117e3565b93506118548185602086016117f4565b61185d8161181e565b840191505092915050565b600061010083016000830151611881600086018261176d565b506020830151611894602086018261176d565b5060408301516118a7604086018261176d565b5060608301516118ba606086018261176d565b5060808301516118cd6080860182611788565b5060a08301516118e060a08601826117c9565b5060c083015184820360c08601526118f8828261182f565b91505060e083015184820360e0860152611912828261182f565b9150508091505092915050565b600060208201905081810360008301526119398184611868565b905092915050565b600080fd5b600080fd5b7f4e487b7100000000000000000000000000000000000000000000000000000000600052604160045260246000fd5b6119838261181e565b810181811067ffffffffffffffff821117156119a2576119a161194b565b5b80604052505050565b60006119b561168c565b90506119c1828261197a565b919050565b600067ffffffffffffffff8211156119e1576119e061194b565b5b6119ea8261181e565b9050602081019050919050565b82818337600083830152505050565b6000611a19611a14846119c6565b6119ab565b905082815260208101848484011115611a3557611a34611946565b5b611a408482856119f7565b509392505050565b600082601f830112611a5d57611a5c611941565b5b8135611a6d848260208601611a06565b91505092915050565b60008060008060808587031215611a9057611a8f611696565b5b6000611a9e878288016116c1565b9450506020611aaf878288016116c1565b935050604085013567ffffffffffffffff811115611ad057611acf61169b565b5b611adc87828801611a48565b925050606085013567ffffffffffffffff811115611afd57611afc61169b565b5b611b0987828801611a48565b91505092959194509250565b6000604082019050611b2a6000830185611716565b8181036020830152611b3c8184611868565b90509392505050565b600082825260208201905092915050565b7f6172656e61206973206e6f74206f70656e000000000000000000000000000000600082015250565b6000611b8c601183611b45565b9150611b9782611b56565b602082019050919050565b60006020820190508181036000830152611bbb81611b7f565b9050919050565b7f4e487b7100000000000000000000000000000000000000000000000000000000600052601260045260246000fd5b7f4e487b7100000000000000000000000000000000000000000000000000000000600052601160045260246000fd5b6000611c2b826116a0565b9150611c36836116a0565b925082611c4657611c45611bc2565b5b828204905092915050565b6000611c5c826116a0565b9150611c67836116a0565b9250828203905081811115611c7f57611c7e611bf1565b5b92915050565b6000611c90826116a0565b9150611c9b836116a0565b9250828201905080821115611cb357611cb2611bf1565b5b92915050565b7f62726f6b652061737320676f74206e6f206d6f6e657900000000000000000000600082015250565b6000611cef601683611b45565b9150611cfa82611cb9565b602082019050919050565b60006020820190508181036000830152611d1e81611ce2565b9050919050565b7f4e487b7100000000000000000000000000000000000000000000000000000000600052602260045260246000fd5b60006002820490506001821680611d6c57607f821691505b602082108103611d7f57611d7e611d25565b5b50919050565b6000611d90826116a0565b91507fffffffffffffffffffffffffffffffffffffffffffffffffffffffffffffffff8203611dc257611dc1611bf1565b5b600182019050919050565b60008190508160005260206000209050919050565b60006020601f8301049050919050565b600082821b905092915050565b600060088302611e2f7fffffffffffffffffffffffffffffffffffffffffffffffffffffffffffffffff82611df2565b611e398683611df2565b95508019841693508086168417925050509392505050565b6000819050919050565b6000611e76611e71611e6c846116a0565b611e51565b6116a0565b9050919050565b6000819050919050565b611e9083611e5b565b611ea4611e9c82611e7d565b848454611dff565b825550505050565b600090565b611eb9611eac565b611ec4818484611e87565b505050565b5b81811015611ee857611edd600082611eb1565b600181019050611eca565b5050565b601f821115611f2d57611efe81611dcd565b611f0784611de2565b81016020851015611f16578190505b611f2a611f2285611de2565b830182611ec9565b50505b505050565b600082821c905092915050565b6000611f5060001984600802611f32565b1980831691505092915050565b6000611f698383611f3f565b9150826002028217905092915050565b611f82826117d8565b67ffffffffffffffff811115611f9b57611f9a61194b565b5b611fa58254611d54565b611fb0828285611eec565b600060209050601f831160018114611fe35760008415611fd1578287015190505b611fdb8582611f5d565b865550612043565b601f198416611ff186611dcd565b60005b8281101561201957848901518255600182019150602085019450602081019050611ff4565b868310156120365784890151612032601f891682611f3f565b8355505b6001600288020188555050505b505050505050565b6000612056826116a0565b9150612061836116a0565b925082820261206f816116a0565b9150828204841483151761208657612085611bf1565b5b5092915050565b7f796f7520617265206e6f742074686520686f7374000000000000000000000000600082015250565b60006120c3601483611b45565b91506120ce8261208d565b602082019050919050565b600060208201905081810360008301526120f2816120b6565b9050919050565b7f796f7520617265206e6f7420696e20746865206172656e610000000000000000600082015250565b600061212f601883611b45565b915061213a826120f9565b602082019050919050565b6000602082019050818103600083015261215e81612122565b9050919050565b6000612170826116a0565b915061217b836116a0565b92508261218b5761218a611bc2565b5b828206905092915050565b6000819050919050565b6121b16121ac826116a0565b612196565b82525050565b60006121c382876121a0565b6020820191506121d382866121a0565b6020820191506121e382856121a0565b6020820191506121f382846121a0565b6020820191508190509594505050505056fea264697066735822122046c8d74bb5001aa6276d887bb264cdec399dce7637f2d3e296b8b0601703c43f64736f6c63430008120033",
  "linkReferences": {},
  "deployedLinkReferences": {}
}