{
  "_format": "hh-sol-artifact-1",
  "contractName": "ArenaFacet",
  "sourceName": "contracts/facets/ArenaFacet.sol",
  "abi": [
    {
      "anonymous": false,
      "inputs": [
        {
          "indexed": true,
          "internalType": "uint256",
          "name": "_playerId",
          "type": "uint256"
        },
        {
          "indexed": true,
          "internalType": "uint256",
          "name": "_basicArenaId",
          "type": "uint256"
        }
      ],
      "name": "BasicArenaLoss",
      "type": "event"
    },
    {
      "anonymous": false,
      "inputs": [
        {
          "indexed": true,
          "internalType": "uint256",
          "name": "_playerId",
          "type": "uint256"
        },
        {
          "indexed": true,
          "internalType": "uint256",
          "name": "_basicArenaId",
          "type": "uint256"
        }
      ],
      "name": "BasicArenaWin",
      "type": "event"
    },
    {
      "anonymous": false,
      "inputs": [
        {
          "indexed": false,
          "internalType": "uint256",
          "name": "_basicArenaId",
          "type": "uint256"
        },
        {
          "components": [
            {
              "internalType": "uint256",
              "name": "basicArenaId",
              "type": "uint256"
            },
            {
              "internalType": "uint256",
              "name": "cost",
              "type": "uint256"
            },
            {
              "internalType": "uint256",
              "name": "cooldown",
              "type": "uint256"
            },
            {
              "internalType": "uint256",
              "name": "hostId",
              "type": "uint256"
            },
            {
              "internalType": "bool",
              "name": "open",
              "type": "bool"
            },
            {
              "internalType": "address payable",
              "name": "hostAddress",
              "type": "address"
            },
            {
              "internalType": "string",
              "name": "name",
              "type": "string"
            },
            {
              "internalType": "string",
              "name": "url",
              "type": "string"
            }
          ],
          "indexed": false,
          "internalType": "struct BasicArena",
          "name": "_basicArena",
          "type": "tuple"
        }
      ],
      "name": "CreateBasicArena",
      "type": "event"
    },
    {
      "anonymous": false,
      "inputs": [
        {
          "indexed": false,
          "internalType": "uint256",
          "name": "_hillArenaId",
          "type": "uint256"
        },
        {
          "components": [
            {
              "internalType": "uint256",
              "name": "hillArenaId",
              "type": "uint256"
            },
            {
              "internalType": "uint256",
              "name": "cost",
              "type": "uint256"
            },
            {
              "internalType": "uint256",
              "name": "cooldown",
              "type": "uint256"
            },
            {
              "internalType": "uint256",
              "name": "hostId",
              "type": "uint256"
            },
            {
              "internalType": "uint256",
              "name": "wins",
              "type": "uint256"
            },
            {
              "internalType": "bool",
              "name": "open",
              "type": "bool"
            },
            {
              "internalType": "address payable",
              "name": "hostAddress",
              "type": "address"
            },
            {
              "internalType": "string",
              "name": "name",
              "type": "string"
            },
            {
              "internalType": "string",
              "name": "url",
              "type": "string"
            }
          ],
          "indexed": false,
          "internalType": "struct HillArena",
          "name": "_hillArena",
          "type": "tuple"
        }
      ],
      "name": "CreateHillArena",
      "type": "event"
    },
    {
      "anonymous": false,
      "inputs": [
        {
          "indexed": true,
          "internalType": "uint256",
          "name": "_playerId",
          "type": "uint256"
        },
        {
          "indexed": true,
          "internalType": "uint256",
          "name": "_basicArenaId",
          "type": "uint256"
        }
      ],
      "name": "EnterBasicArena",
      "type": "event"
    },
    {
      "anonymous": false,
      "inputs": [
        {
          "indexed": true,
          "internalType": "uint256",
          "name": "_playerId",
          "type": "uint256"
        },
        {
          "indexed": true,
          "internalType": "uint256",
          "name": "_hillArenaId",
          "type": "uint256"
        },
        {
          "indexed": true,
          "internalType": "uint256",
          "name": "_timestamp",
          "type": "uint256"
        }
      ],
      "name": "EnterHillArena",
      "type": "event"
    },
    {
      "anonymous": false,
      "inputs": [
        {
          "indexed": true,
          "internalType": "uint256",
          "name": "_playerId",
          "type": "uint256"
        },
        {
          "indexed": true,
          "internalType": "uint256",
          "name": "_basicArenaId",
          "type": "uint256"
        }
      ],
      "name": "LeaveBasicArena",
      "type": "event"
    },
    {
      "inputs": [
        {
          "internalType": "uint256",
          "name": "_cost",
          "type": "uint256"
        },
        {
          "internalType": "uint256",
          "name": "_cooldown",
          "type": "uint256"
        },
        {
          "internalType": "string",
          "name": "_name",
          "type": "string"
        },
        {
          "internalType": "string",
          "name": "_uri",
          "type": "string"
        }
      ],
      "name": "creatBasicArena",
      "outputs": [],
      "stateMutability": "nonpayable",
      "type": "function"
    },
    {
      "inputs": [
        {
          "internalType": "uint256",
          "name": "_cost",
          "type": "uint256"
        },
        {
          "internalType": "uint256",
          "name": "_cooldown",
          "type": "uint256"
        },
        {
          "internalType": "string",
          "name": "_name",
          "type": "string"
        },
        {
          "internalType": "string",
          "name": "_uri",
          "type": "string"
        }
      ],
      "name": "creatHillArena",
      "outputs": [],
      "stateMutability": "nonpayable",
      "type": "function"
    },
    {
      "inputs": [
        {
          "internalType": "uint256",
          "name": "_playerId",
          "type": "uint256"
        },
        {
          "internalType": "uint256",
          "name": "_basicArenaId",
          "type": "uint256"
        }
      ],
      "name": "enterBasicArena",
      "outputs": [],
      "stateMutability": "nonpayable",
      "type": "function"
    },
    {
      "inputs": [
        {
          "internalType": "uint256",
          "name": "_playerId",
          "type": "uint256"
        },
        {
          "internalType": "uint256",
          "name": "_hillArenaId",
          "type": "uint256"
        }
      ],
      "name": "enterHillArena",
      "outputs": [],
      "stateMutability": "nonpayable",
      "type": "function"
    },
    {
      "inputs": [
        {
          "internalType": "uint256",
          "name": "_playerId",
          "type": "uint256"
        },
        {
          "internalType": "uint256",
          "name": "_basicArenaId",
          "type": "uint256"
        }
      ],
      "name": "fightBaiscArena",
      "outputs": [],
      "stateMutability": "nonpayable",
      "type": "function"
    },
    {
      "inputs": [
        {
          "internalType": "uint256",
          "name": "_playerId",
          "type": "uint256"
        },
        {
          "internalType": "uint256",
          "name": "_hillArenaId",
          "type": "uint256"
        }
      ],
      "name": "fightHillArena",
      "outputs": [],
      "stateMutability": "nonpayable",
      "type": "function"
    },
    {
      "inputs": [],
      "name": "freeGold",
      "outputs": [],
      "stateMutability": "nonpayable",
      "type": "function"
    },
    {
      "inputs": [
        {
          "internalType": "uint256",
          "name": "_basicArenaId",
          "type": "uint256"
        }
      ],
      "name": "getBasicArena",
      "outputs": [
        {
          "components": [
            {
              "internalType": "uint256",
              "name": "basicArenaId",
              "type": "uint256"
            },
            {
              "internalType": "uint256",
              "name": "cost",
              "type": "uint256"
            },
            {
              "internalType": "uint256",
              "name": "cooldown",
              "type": "uint256"
            },
            {
              "internalType": "uint256",
              "name": "hostId",
              "type": "uint256"
            },
            {
              "internalType": "bool",
              "name": "open",
              "type": "bool"
            },
            {
              "internalType": "address payable",
              "name": "hostAddress",
              "type": "address"
            },
            {
              "internalType": "string",
              "name": "name",
              "type": "string"
            },
            {
              "internalType": "string",
              "name": "url",
              "type": "string"
            }
          ],
          "internalType": "struct BasicArena",
          "name": "",
          "type": "tuple"
        }
      ],
      "stateMutability": "view",
      "type": "function"
    },
    {
      "inputs": [
        {
          "internalType": "uint256",
          "name": "_playerId",
          "type": "uint256"
        },
        {
          "internalType": "uint256",
          "name": "_basicArenaId",
          "type": "uint256"
        }
      ],
      "name": "getBasicArenaCooldowns",
      "outputs": [
        {
          "internalType": "uint256",
          "name": "",
          "type": "uint256"
        }
      ],
      "stateMutability": "view",
      "type": "function"
    },
    {
      "inputs": [],
      "name": "getBasicArenaCount",
      "outputs": [
        {
          "internalType": "uint256",
          "name": "",
          "type": "uint256"
        }
      ],
      "stateMutability": "view",
      "type": "function"
    },
    {
      "inputs": [
        {
          "internalType": "address",
          "name": "_address",
          "type": "address"
        }
      ],
      "name": "getGoldBalance",
      "outputs": [
        {
          "internalType": "uint256",
          "name": "",
          "type": "uint256"
        }
      ],
      "stateMutability": "view",
      "type": "function"
    },
    {
      "inputs": [
        {
          "internalType": "uint256",
          "name": "_basicArenaId",
          "type": "uint256"
        }
      ],
      "name": "getHillArena",
      "outputs": [
        {
          "components": [
            {
              "internalType": "uint256",
              "name": "hillArenaId",
              "type": "uint256"
            },
            {
              "internalType": "uint256",
              "name": "cost",
              "type": "uint256"
            },
            {
              "internalType": "uint256",
              "name": "cooldown",
              "type": "uint256"
            },
            {
              "internalType": "uint256",
              "name": "hostId",
              "type": "uint256"
            },
            {
              "internalType": "uint256",
              "name": "wins",
              "type": "uint256"
            },
            {
              "internalType": "bool",
              "name": "open",
              "type": "bool"
            },
            {
              "internalType": "address payable",
              "name": "hostAddress",
              "type": "address"
            },
            {
              "internalType": "string",
              "name": "name",
              "type": "string"
            },
            {
              "internalType": "string",
              "name": "url",
              "type": "string"
            }
          ],
          "internalType": "struct HillArena",
          "name": "",
          "type": "tuple"
        }
      ],
      "stateMutability": "view",
      "type": "function"
    },
    {
      "inputs": [
        {
          "internalType": "uint256",
          "name": "_playerId",
          "type": "uint256"
        },
        {
          "internalType": "uint256",
          "name": "_hillArenaId",
          "type": "uint256"
        }
      ],
      "name": "getHillArenaCooldowns",
      "outputs": [
        {
          "internalType": "uint256",
          "name": "",
          "type": "uint256"
        }
      ],
      "stateMutability": "view",
      "type": "function"
    },
    {
      "inputs": [],
      "name": "getHillArenaCount",
      "outputs": [
        {
          "internalType": "uint256",
          "name": "",
          "type": "uint256"
        }
      ],
      "stateMutability": "view",
      "type": "function"
    },
    {
      "inputs": [
        {
          "internalType": "uint256",
          "name": "_playerId",
          "type": "uint256"
        }
      ],
      "name": "getTotalLosses",
      "outputs": [
        {
          "internalType": "uint256",
          "name": "",
          "type": "uint256"
        }
      ],
      "stateMutability": "view",
      "type": "function"
    },
    {
      "inputs": [
        {
          "internalType": "uint256",
          "name": "_playerId",
          "type": "uint256"
        }
      ],
      "name": "getTotalWins",
      "outputs": [
        {
          "internalType": "uint256",
          "name": "",
          "type": "uint256"
        }
      ],
      "stateMutability": "view",
      "type": "function"
    },
    {
      "inputs": [
        {
          "internalType": "uint256",
          "name": "_playerId",
          "type": "uint256"
        },
        {
          "internalType": "uint256",
          "name": "_basicArenaId",
          "type": "uint256"
        }
      ],
      "name": "leaveBasicArena",
      "outputs": [],
      "stateMutability": "nonpayable",
      "type": "function"
    },
    {
      "inputs": [
        {
          "internalType": "uint256",
          "name": "_playerId",
          "type": "uint256"
        },
        {
          "internalType": "uint256",
          "name": "_basicArenaId",
          "type": "uint256"
        }
      ],
      "name": "leaveHillArena",
      "outputs": [],
      "stateMutability": "nonpayable",
      "type": "function"
    }
  ],
  "bytecode": "0x608060405234801561001057600080fd5b506136b8806100206000396000f3fe608060405234801561001057600080fd5b50600436106101165760003560e01c806359735adc116100a2578063c7f3ade511610071578063c7f3ade5146102dd578063c8fe5c47146102f9578063cc8d469d14610315578063f248251314610345578063fb944ffc1461036157610116565b806359735adc14610259578063667313841461027557806394c9d0f814610291578063b05a86fc146102c157610116565b80633707caf2116100e95780633707caf21461017d5780633d8a082f146101ad5780634f7d08e5146101c957806351aa518f146101f957806354e8a31a1461022957610116565b80630b93942a1461011b57806314be76a9146101375780632d2c17be1461015557806333f453af14610173575b600080fd5b610135600480360381019061013091906129fa565b610391565b005b61013f6103cd565b60405161014c9190612a49565b60405180910390f35b61015d6103dc565b60405161016a9190612a49565b60405180910390f35b61017b6103eb565b005b61019760048036038101906101929190612ac2565b6103f5565b6040516101a49190612a49565b60405180910390f35b6101c760048036038101906101c291906129fa565b610407565b005b6101e360048036038101906101de9190612aef565b610443565b6040516101f09190612a49565b60405180910390f35b610213600480360381019061020e91906129fa565b610455565b6040516102209190612a49565b60405180910390f35b610243600480360381019061023e9190612aef565b610469565b6040516102509190612cae565b60405180910390f35b610273600480360381019061026e9190612e05565b610481565b005b61028f600480360381019061028a91906129fa565b610533565b005b6102ab60048036038101906102a69190612aef565b6105b1565b6040516102b89190612f70565b60405180910390f35b6102db60048036038101906102d691906129fa565b6105c9565b005b6102f760048036038101906102f291906129fa565b610606565b005b610313600480360381019061030e91906129fa565b61067d565b005b61032f600480360381019061032a91906129fa565b6106b9565b60405161033c9190612a49565b60405180910390f35b61035f600480360381019061035a9190612e05565b6106cd565b005b61037b60048036038101906103769190612aef565b61077f565b6040516103889190612a49565b60405180910390f35b61039b8282610791565b80827f429a014671400a39eaa0b16744a56044df14e9b9124a3919f8425a0b471e25e960405160405180910390a35050565b60006103d7610b2f565b905090565b60006103e6610b47565b905090565b6103f3610b5f565b565b600061040082610bc7565b9050919050565b6104118282610c1e565b80827ff4debd39acd9b010e1276185a3f67b145758748b94e0145ce176c42ae6d27a4f60405160405180910390a35050565b600061044e82610ea5565b9050919050565b60006104618383610ed0565b905092915050565b6104716128ef565b61047a82610f0d565b9050919050565b600073434d36f32abed3f7937fe0be88dc1b0eb938124490508073ffffffffffffffffffffffffffffffffffffffff163373ffffffffffffffffffffffffffffffffffffffff16146104d257600080fd5b6104de85858585611107565b60006104e8610b47565b90507fa8944f13c384569cd759dea69a02c83263e937c72f585de37fa46b4bb55b6b088161051583610469565b604051610523929190612f92565b60405180910390a1505050505050565b60008060006105428585611263565b80935081945082955050505083837fe5783c40c14d69971fbf9d435486b3a0469a026e4cacbd5e543c18ddd293eca560405160405180910390a383827ff07fe1bc469a482805ec42d00e7477d9bacbd901aedac046ea74d6a10ce2b04a60405160405180910390a35050505050565b6105b961294c565b6105c282611856565b9050919050565b6105d38282611a5a565b4281837fa85bf3592018078e152218683b8117662b84e8f5504dcdffe66ca644596773c860405160405180910390a45050565b6000806106138484611e23565b809250819350505082827fe5783c40c14d69971fbf9d435486b3a0469a026e4cacbd5e543c18ddd293eca560405160405180910390a382817ff07fe1bc469a482805ec42d00e7477d9bacbd901aedac046ea74d6a10ce2b04a60405160405180910390a350505050565b610687828261238d565b80827ff4debd39acd9b010e1276185a3f67b145758748b94e0145ce176c42ae6d27a4f60405160405180910390a35050565b60006106c583836125b7565b905092915050565b600073434d36f32abed3f7937fe0be88dc1b0eb938124490508073ffffffffffffffffffffffffffffffffffffffff163373ffffffffffffffffffffffffffffffffffffffff161461071e57600080fd5b61072a85858585611107565b6000610734610b47565b90507fa8944f13c384569cd759dea69a02c83263e937c72f585de37fa46b4bb55b6b088161076183610469565b60405161076f929190612f92565b60405180910390a1505050505050565b600061078a826125f4565b9050919050565b600061079b61261f565b905060006107a761264c565b905060006107b3612679565b9050600083600301600087815260200190815260200160002060020154146107da57600080fd5b3373ffffffffffffffffffffffffffffffffffffffff1683600201600087815260200190815260200160002060009054906101000a900473ffffffffffffffffffffffffffffffffffffffff1673ffffffffffffffffffffffffffffffffffffffff161461084757600080fd5b600081600101600086815260200190815260200160002090508060040160009054906101000a900460ff166108b1576040517f08c379a00000000000000000000000000000000000000000000000000000000081526004016108a89061301f565b60405180910390fd5b6000600282600201546108c4919061309d565b85600301600089815260200190815260200160002060090154101561092b57600a856003016000898152602001908152602001600020600901546002846002015461090f919061309d565b61091991906130ce565b6109239190613102565b905080610940565b6002826002015461093c919061309d565b9050805b50808360020160008881526020019081526020016000206000898152602001908152602001600020546109739190613102565b42101561097f57600080fd5b81600101548460010160003373ffffffffffffffffffffffffffffffffffffffff1673ffffffffffffffffffffffffffffffffffffffff168152602001908152602001600020541015610a07576040517f08c379a00000000000000000000000000000000000000000000000000000000081526004016109fe90613182565b60405180910390fd5b81600101548460010160003373ffffffffffffffffffffffffffffffffffffffff1673ffffffffffffffffffffffffffffffffffffffff1681526020019081526020016000206000828254610a5c91906130ce565b92505081905550600485600301600089815260200190815260200160002060020181905550600083600101600088815260200190815260200160002060040160006101000a81548160ff02191690831515021790555086836001016000888152602001908152602001600020600301819055503383600101600088815260200190815260200160002060040160016101000a81548173ffffffffffffffffffffffffffffffffffffffff021916908373ffffffffffffffffffffffffffffffffffffffff16021790555050505050505050565b600080610b3a612679565b9050806003015491505090565b600080610b52612679565b9050806000015491505090565b6000610b6961264c565b905060648160010160003373ffffffffffffffffffffffffffffffffffffffff1673ffffffffffffffffffffffffffffffffffffffff1681526020019081526020016000206000828254610bbd9190613102565b9250508190555050565b600080610bd261264c565b90508060010160008473ffffffffffffffffffffffffffffffffffffffff1673ffffffffffffffffffffffffffffffffffffffff16815260200190815260200160002054915050919050565b6000610c28612679565b90506000610c3461261f565b90506000610c4061264c565b9050848360040160008681526020019081526020016000206003015414610c9c576040517f08c379a0000000000000000000000000000000000000000000000000000000008152600401610c93906131ee565b60405180910390fd5b60048260030160008781526020019081526020016000206002015414610cf7576040517f08c379a0000000000000000000000000000000000000000000000000000000008152600401610cee9061325a565b60405180910390fd5b3373ffffffffffffffffffffffffffffffffffffffff1682600201600087815260200190815260200160002060009054906101000a900473ffffffffffffffffffffffffffffffffffffffff1673ffffffffffffffffffffffffffffffffffffffff1614610d6457600080fd5b600083600401600086815260200190815260200160002060030181905550600183600401600086815260200190815260200160002060050160006101000a81548160ff021916908315150217905550600082600301600087815260200190815260200160002060020181905550826001016000858152602001908152602001600020600101548160010160003373ffffffffffffffffffffffffffffffffffffffff1673ffffffffffffffffffffffffffffffffffffffff1681526020019081526020016000206000828254610e3a9190613102565b9250508190555082600701600085815260200190815260200160002060008681526020019081526020016000205442610e7391906130ce565b8360050160008781526020019081526020016000206000828254610e979190613102565b925050819055505050505050565b600080610eb0612679565b905080600a01600084815260200190815260200160002054915050919050565b600080610edb612679565b905080600601600084815260200190815260200160002060008581526020019081526020016000205491505092915050565b610f156128ef565b6000610f1f612679565b905080600101600084815260200190815260200160002060405180610100016040529081600082015481526020016001820154815260200160028201548152602001600382015481526020016004820160009054906101000a900460ff161515151581526020016004820160019054906101000a900473ffffffffffffffffffffffffffffffffffffffff1673ffffffffffffffffffffffffffffffffffffffff1673ffffffffffffffffffffffffffffffffffffffff168152602001600582018054610feb906132a9565b80601f0160208091040260200160405190810160405280929190818152602001828054611017906132a9565b80156110645780601f1061103957610100808354040283529160200191611064565b820191906000526020600020905b81548152906001019060200180831161104757829003601f168201915b5050505050815260200160068201805461107d906132a9565b80601f01602080910402602001604051908101604052809291908181526020018280546110a9906132a9565b80156110f65780601f106110cb576101008083540402835291602001916110f6565b820191906000526020600020905b8154815290600101906020018083116110d957829003601f168201915b505050505081525050915050919050565b6000611111612679565b9050806000016000815480929190611128906132da565b919050555060405180610100016040528082600001548152602001868152602001858152602001600081526020016001151581526020013373ffffffffffffffffffffffffffffffffffffffff16815260200184815260200183815250816001016000836000015481526020019081526020016000206000820151816000015560208201518160010155604082015181600201556060820151816003015560808201518160040160006101000a81548160ff02191690831515021790555060a08201518160040160016101000a81548173ffffffffffffffffffffffffffffffffffffffff021916908373ffffffffffffffffffffffffffffffffffffffff16021790555060c082015181600501908161124291906134ce565b5060e082015181600601908161125891906134ce565b509050505050505050565b60008060008061127161261f565b9050600061127d61264c565b90506000611289612679565b905060008360030160008a815260200190815260200160002060020154146112b057600080fd5b3373ffffffffffffffffffffffffffffffffffffffff168360020160008a815260200190815260200160002060009054906101000a900473ffffffffffffffffffffffffffffffffffffffff1673ffffffffffffffffffffffffffffffffffffffff161461131d57600080fd5b600081600401600089815260200190815260200160002090508060050160009054906101000a900460ff1615611388576040517f08c379a000000000000000000000000000000000000000000000000000000000815260040161137f9061301f565b60405180910390fd5b60006002826002015461139b919061309d565b8560030160008c815260200190815260200160002060090154101561140257600a8560030160008c815260200190815260200160002060090154600284600201546113e6919061309d565b6113f091906130ce565b6113fa9190613102565b905080611417565b60028260020154611413919061309d565b9050805b50808360060160008b815260200190815260200160002060008c81526020019081526020016000205461144a9190613102565b42101561145657600080fd5b81600101548460010160003373ffffffffffffffffffffffffffffffffffffffff1673ffffffffffffffffffffffffffffffffffffffff1681526020019081526020016000205410156114de576040517f08c379a00000000000000000000000000000000000000000000000000000000081526004016114d590613182565b60405180910390fd5b60006114ee83600301548c6126a6565b90506000808c8303611671578c91508460030154905085600a0160008e8152602001908152602001600020600081548092919061152a906132da565b919050555085600b016000866003015481526020019081526020016000206000815480929190611559906132da565b919050555084600101548760010160003373ffffffffffffffffffffffffffffffffffffffff1673ffffffffffffffffffffffffffffffffffffffff16815260200190815260200160002060008282546115b39190613102565b92505081905550428660070160008e815260200190815260200160002060008f8152602001908152602001600020819055508560070160008d8152602001908152602001600020600086600301548152602001908152602001600020544261161b91906130ce565b8660050160008760030154815260200190815260200160002060008282546116439190613102565b92505081905550600088600301600087600301548152602001908152602001600020600201819055506117be565b846003015491508c905085600a0160008660030154815260200190815260200160002060008154809291906116a5906132da565b919050555085600b0160008e815260200190815260200160002060008154809291906116d0906132da565b9190505550600285600101546116e691906135a0565b8760010160008760050160019054906101000a900473ffffffffffffffffffffffffffffffffffffffff1673ffffffffffffffffffffffffffffffffffffffff1673ffffffffffffffffffffffffffffffffffffffff168152602001908152602001600020600082825461175a9190613102565b9250508190555084600101548760010160003373ffffffffffffffffffffffffffffffffffffffff1673ffffffffffffffffffffffffffffffffffffffff16815260200190815260200160002060008282546117b691906130ce565b925050819055505b428660060160008e815260200190815260200160002060008f815260200190815260200160002081905550428660060160008e81526020019081526020016000206000876003015481526020019081526020016000208190555081818760070160008f81526020019081526020016000206000858152602001908152602001600020549a509a509a5050505050505050509250925092565b61185e61294c565b6000611868612679565b90508060040160008481526020019081526020016000206040518061012001604052908160008201548152602001600182015481526020016002820154815260200160038201548152602001600482015481526020016005820160009054906101000a900460ff161515151581526020016005820160019054906101000a900473ffffffffffffffffffffffffffffffffffffffff1673ffffffffffffffffffffffffffffffffffffffff1673ffffffffffffffffffffffffffffffffffffffff16815260200160068201805461193e906132a9565b80601f016020809104026020016040519081016040528092919081815260200182805461196a906132a9565b80156119b75780601f1061198c576101008083540402835291602001916119b7565b820191906000526020600020905b81548152906001019060200180831161199a57829003601f168201915b505050505081526020016007820180546119d0906132a9565b80601f01602080910402602001604051908101604052809291908181526020018280546119fc906132a9565b8015611a495780601f10611a1e57610100808354040283529160200191611a49565b820191906000526020600020905b815481529060010190602001808311611a2c57829003601f168201915b505050505081525050915050919050565b6000611a6461261f565b90506000611a70612679565b90506000611a7c61264c565b905060008360030160008781526020019081526020016000206002015414611aa357600080fd5b3373ffffffffffffffffffffffffffffffffffffffff1683600201600087815260200190815260200160002060009054906101000a900473ffffffffffffffffffffffffffffffffffffffff1673ffffffffffffffffffffffffffffffffffffffff1614611b1057600080fd5b600082600401600086815260200190815260200160002090508060050160009054906101000a900460ff16611b7a576040517f08c379a0000000000000000000000000000000000000000000000000000000008152600401611b719061301f565b60405180910390fd5b80600101548260010160003373ffffffffffffffffffffffffffffffffffffffff1673ffffffffffffffffffffffffffffffffffffffff168152602001908152602001600020541015611c02576040517f08c379a0000000000000000000000000000000000000000000000000000000008152600401611bf990613182565b60405180910390fd5b80600101548260010160003373ffffffffffffffffffffffffffffffffffffffff1673ffffffffffffffffffffffffffffffffffffffff1681526020019081526020016000206000828254611c5791906130ce565b92505081905550600060028260020154611c71919061309d565b856003016000898152602001908152602001600020600901541015611cd857600a8560030160008981526020019081526020016000206009015460028460020154611cbc919061309d565b611cc691906130ce565b611cd09190613102565b905080611ced565b60028260020154611ce9919061309d565b9050805b5080846006016000888152602001908152602001600020600089815260200190815260200160002054611d209190613102565b421015611d2c57600080fd5b600485600301600089815260200190815260200160002060020181905550600084600401600088815260200190815260200160002060050160006101000a81548160ff02191690831515021790555086846004016000888152602001908152602001600020600301819055503384600401600088815260200190815260200160002060050160016101000a81548173ffffffffffffffffffffffffffffffffffffffff021916908373ffffffffffffffffffffffffffffffffffffffff1602179055504284600701600088815260200190815260200160002060008981526020019081526020016000208190555050505050505050565b6000806000611e3061261f565b90506000611e3c61264c565b90506000611e48612679565b905060008360030160008981526020019081526020016000206002015414611e6f57600080fd5b3373ffffffffffffffffffffffffffffffffffffffff1683600201600089815260200190815260200160002060009054906101000a900473ffffffffffffffffffffffffffffffffffffffff1673ffffffffffffffffffffffffffffffffffffffff1614611edc57600080fd5b600081600101600088815260200190815260200160002090508060040160009054906101000a900460ff1615611f47576040517f08c379a0000000000000000000000000000000000000000000000000000000008152600401611f3e9061301f565b60405180910390fd5b600060028260020154611f5a919061309d565b8560030160008b8152602001908152602001600020600901541015611fc157600a8560030160008b81526020019081526020016000206009015460028460020154611fa5919061309d565b611faf91906130ce565b611fb99190613102565b905080611fd6565b60028260020154611fd2919061309d565b9050805b50808360020160008a815260200190815260200160002060008b8152602001908152602001600020546120099190613102565b42101561201557600080fd5b81600101548460010160003373ffffffffffffffffffffffffffffffffffffffff1673ffffffffffffffffffffffffffffffffffffffff16815260200190815260200160002054101561209d576040517f08c379a000000000000000000000000000000000000000000000000000000000815260040161209490613182565b60405180910390fd5b60006120ad83600301548b6126a6565b90506000808b830361217e578b91508460030154905085600a0160008d815260200190815260200160002060008154809291906120e9906132da565b919050555085600b016000866003015481526020019081526020016000206000815480929190612118906132da565b919050555084600101548760010160003373ffffffffffffffffffffffffffffffffffffffff1673ffffffffffffffffffffffffffffffffffffffff16815260200190815260200160002060008282546121729190613102565b925050819055506122cb565b846003015491508b905085600a0160008660030154815260200190815260200160002060008154809291906121b2906132da565b919050555085600b0160008d815260200190815260200160002060008154809291906121dd906132da565b9190505550600285600101546121f391906135a0565b8760010160008760040160019054906101000a900473ffffffffffffffffffffffffffffffffffffffff1673ffffffffffffffffffffffffffffffffffffffff1673ffffffffffffffffffffffffffffffffffffffff16815260200190815260200160002060008282546122679190613102565b9250508190555084600101548760010160003373ffffffffffffffffffffffffffffffffffffffff1673ffffffffffffffffffffffffffffffffffffffff16815260200190815260200160002060008282546122c391906130ce565b925050819055505b428660020160008d815260200190815260200160002060008e815260200190815260200160002081905550428660020160008d81526020019081526020016000206000876003015481526020019081526020016000208190555060018660010160008d815260200190815260200160002060040160006101000a81548160ff0219169083151502179055506000886003016000876003015481526020019081526020016000206002018190555081819950995050505050505050509250929050565b6000612397612679565b905060006123a361261f565b905060006123af61264c565b905084836001016000868152602001908152602001600020600301541461240b576040517f08c379a0000000000000000000000000000000000000000000000000000000008152600401612402906131ee565b60405180910390fd5b60048260030160008781526020019081526020016000206002015414612466576040517f08c379a000000000000000000000000000000000000000000000000000000000815260040161245d9061325a565b60405180910390fd5b3373ffffffffffffffffffffffffffffffffffffffff1682600201600087815260200190815260200160002060009054906101000a900473ffffffffffffffffffffffffffffffffffffffff1673ffffffffffffffffffffffffffffffffffffffff16146124d357600080fd5b600083600101600086815260200190815260200160002060030181905550600183600101600086815260200190815260200160002060040160006101000a81548160ff021916908315150217905550600082600301600087815260200190815260200160002060020181905550826001016000858152602001908152602001600020600101548160010160003373ffffffffffffffffffffffffffffffffffffffff1673ffffffffffffffffffffffffffffffffffffffff16815260200190815260200160002060008282546125a99190613102565b925050819055505050505050565b6000806125c2612679565b905080600201600084815260200190815260200160002060008581526020019081526020016000205491505092915050565b6000806125ff612679565b905080600b01600084815260200190815260200160002054915050919050565b6000807f3cab9a070a0c61cd0ae9d9e9e2c0781e5ca8691bec4087e5a4701d5ac018dd4e90508091505090565b6000807f2c89d74504b6ad8d4fbde22bc3474166bac5452a11195897f239d8bebe02d70790508091505090565b6000807f1b1c2350f60dba32e7a2436167ce3f8399cd1c51a95c8577f1448f53846d4cda90508091505090565b6000806126b161261f565b9050600081600301600086815260200190815260200160002090506000826003016000868152602001908152602001600020905060006126f586836003015461286d565b9050600061270788856003015461286d565b905083600e0154846005015461271d9190613102565b82106127465760008560030160008a815260200190815260200160002060050181905550612791565b83600e015482106127905783600e01548261276191906130ce565b8560030160008a8152602001908152602001600020600501600082825461278891906130ce565b925050819055505b5b82600e015483600501546127a59190613102565b81106127ce57600085600301600089815260200190815260200160002060050181905550612819565b82600e015481106128185782600e0154816127e991906130ce565b856003016000898152602001908152602001600020600501600082825461281091906130ce565b925050819055505b5b8460030160008981526020019081526020016000206005015485600301600089815260200190815260200160002060050154111561285e578695505050505050612867565b87955050505050505b92915050565b6000806064600961287e86866128b5565b61288891906135e2565b6128929190613102565b9050606481846128a291906135a0565b6128ac919061309d565b91505092915050565b6000424484846040516020016128ce9493929190613634565b6040516020818303038152906040528051906020012060001c905092915050565b60405180610100016040528060008152602001600081526020016000815260200160008152602001600015158152602001600073ffffffffffffffffffffffffffffffffffffffff16815260200160608152602001606081525090565b6040518061012001604052806000815260200160008152602001600081526020016000815260200160008152602001600015158152602001600073ffffffffffffffffffffffffffffffffffffffff16815260200160608152602001606081525090565b6000604051905090565b600080fd5b600080fd5b6000819050919050565b6129d7816129c4565b81146129e257600080fd5b50565b6000813590506129f4816129ce565b92915050565b60008060408385031215612a1157612a106129ba565b5b6000612a1f858286016129e5565b9250506020612a30858286016129e5565b9150509250929050565b612a43816129c4565b82525050565b6000602082019050612a5e6000830184612a3a565b92915050565b600073ffffffffffffffffffffffffffffffffffffffff82169050919050565b6000612a8f82612a64565b9050919050565b612a9f81612a84565b8114612aaa57600080fd5b50565b600081359050612abc81612a96565b92915050565b600060208284031215612ad857612ad76129ba565b5b6000612ae684828501612aad565b91505092915050565b600060208284031215612b0557612b046129ba565b5b6000612b13848285016129e5565b91505092915050565b612b25816129c4565b82525050565b60008115159050919050565b612b4081612b2b565b82525050565b6000612b5182612a64565b9050919050565b612b6181612b46565b82525050565b600081519050919050565b600082825260208201905092915050565b60005b83811015612ba1578082015181840152602081019050612b86565b60008484015250505050565b6000601f19601f8301169050919050565b6000612bc982612b67565b612bd38185612b72565b9350612be3818560208601612b83565b612bec81612bad565b840191505092915050565b600061010083016000830151612c106000860182612b1c565b506020830151612c236020860182612b1c565b506040830151612c366040860182612b1c565b506060830151612c496060860182612b1c565b506080830151612c5c6080860182612b37565b5060a0830151612c6f60a0860182612b58565b5060c083015184820360c0860152612c878282612bbe565b91505060e083015184820360e0860152612ca18282612bbe565b9150508091505092915050565b60006020820190508181036000830152612cc88184612bf7565b905092915050565b600080fd5b600080fd5b7f4e487b7100000000000000000000000000000000000000000000000000000000600052604160045260246000fd5b612d1282612bad565b810181811067ffffffffffffffff82111715612d3157612d30612cda565b5b80604052505050565b6000612d446129b0565b9050612d508282612d09565b919050565b600067ffffffffffffffff821115612d7057612d6f612cda565b5b612d7982612bad565b9050602081019050919050565b82818337600083830152505050565b6000612da8612da384612d55565b612d3a565b905082815260208101848484011115612dc457612dc3612cd5565b5b612dcf848285612d86565b509392505050565b600082601f830112612dec57612deb612cd0565b5b8135612dfc848260208601612d95565b91505092915050565b60008060008060808587031215612e1f57612e1e6129ba565b5b6000612e2d878288016129e5565b9450506020612e3e878288016129e5565b935050604085013567ffffffffffffffff811115612e5f57612e5e6129bf565b5b612e6b87828801612dd7565b925050606085013567ffffffffffffffff811115612e8c57612e8b6129bf565b5b612e9887828801612dd7565b91505092959194509250565b600061012083016000830151612ebd6000860182612b1c565b506020830151612ed06020860182612b1c565b506040830151612ee36040860182612b1c565b506060830151612ef66060860182612b1c565b506080830151612f096080860182612b1c565b5060a0830151612f1c60a0860182612b37565b5060c0830151612f2f60c0860182612b58565b5060e083015184820360e0860152612f478282612bbe565b915050610100830151848203610100860152612f638282612bbe565b9150508091505092915050565b60006020820190508181036000830152612f8a8184612ea4565b905092915050565b6000604082019050612fa76000830185612a3a565b8181036020830152612fb98184612bf7565b90509392505050565b600082825260208201905092915050565b7f6172656e61206973206e6f74206f70656e000000000000000000000000000000600082015250565b6000613009601183612fc2565b915061301482612fd3565b602082019050919050565b6000602082019050818103600083015261303881612ffc565b9050919050565b7f4e487b7100000000000000000000000000000000000000000000000000000000600052601260045260246000fd5b7f4e487b7100000000000000000000000000000000000000000000000000000000600052601160045260246000fd5b60006130a8826129c4565b91506130b3836129c4565b9250826130c3576130c261303f565b5b828204905092915050565b60006130d9826129c4565b91506130e4836129c4565b92508282039050818111156130fc576130fb61306e565b5b92915050565b600061310d826129c4565b9150613118836129c4565b92508282019050808211156131305761312f61306e565b5b92915050565b7f62726f6b652061737320676f74206e6f206d6f6e657900000000000000000000600082015250565b600061316c601683612fc2565b915061317782613136565b602082019050919050565b6000602082019050818103600083015261319b8161315f565b9050919050565b7f796f7520617265206e6f742074686520686f7374000000000000000000000000600082015250565b60006131d8601483612fc2565b91506131e3826131a2565b602082019050919050565b60006020820190508181036000830152613207816131cb565b9050919050565b7f796f7520617265206e6f7420696e20746865206172656e610000000000000000600082015250565b6000613244601883612fc2565b915061324f8261320e565b602082019050919050565b6000602082019050818103600083015261327381613237565b9050919050565b7f4e487b7100000000000000000000000000000000000000000000000000000000600052602260045260246000fd5b600060028204905060018216806132c157607f821691505b6020821081036132d4576132d361327a565b5b50919050565b60006132e5826129c4565b91507fffffffffffffffffffffffffffffffffffffffffffffffffffffffffffffffff82036133175761331661306e565b5b600182019050919050565b60008190508160005260206000209050919050565b60006020601f8301049050919050565b600082821b905092915050565b6000600883026133847fffffffffffffffffffffffffffffffffffffffffffffffffffffffffffffffff82613347565b61338e8683613347565b95508019841693508086168417925050509392505050565b6000819050919050565b60006133cb6133c66133c1846129c4565b6133a6565b6129c4565b9050919050565b6000819050919050565b6133e5836133b0565b6133f96133f1826133d2565b848454613354565b825550505050565b600090565b61340e613401565b6134198184846133dc565b505050565b5b8181101561343d57613432600082613406565b60018101905061341f565b5050565b601f8211156134825761345381613322565b61345c84613337565b8101602085101561346b578190505b61347f61347785613337565b83018261341e565b50505b505050565b600082821c905092915050565b60006134a560001984600802613487565b1980831691505092915050565b60006134be8383613494565b9150826002028217905092915050565b6134d782612b67565b67ffffffffffffffff8111156134f0576134ef612cda565b5b6134fa82546132a9565b613505828285613441565b600060209050601f8311600181146135385760008415613526578287015190505b61353085826134b2565b865550613598565b601f19841661354686613322565b60005b8281101561356e57848901518255600182019150602085019450602081019050613549565b8683101561358b5784890151613587601f891682613494565b8355505b6001600288020188555050505b505050505050565b60006135ab826129c4565b91506135b6836129c4565b92508282026135c4816129c4565b915082820484148315176135db576135da61306e565b5b5092915050565b60006135ed826129c4565b91506135f8836129c4565b9250826136085761360761303f565b5b828206905092915050565b6000819050919050565b61362e613629826129c4565b613613565b82525050565b6000613640828761361d565b602082019150613650828661361d565b602082019150613660828561361d565b602082019150613670828461361d565b6020820191508190509594505050505056fea2646970667358221220fc2858402c69c718bdad809db3cd680428611e1e9ef38ba4d1457a1dffe40a7b64736f6c63430008120033",
  "linkReferences": {},
  "deployedLinkReferences": {}
}