{
  "_format": "hh-sol-artifact-1",
  "contractName": "ArenaFacet",
  "sourceName": "contracts/facets/ArenaFacet.sol",
  "abi": [
    {
      "anonymous": false,
      "inputs": [
        {
          "indexed": true,
          "internalType": "uint256",
          "name": "_playerId",
          "type": "uint256"
        },
        {
          "indexed": true,
          "internalType": "uint256",
          "name": "_basicArenaId",
          "type": "uint256"
        }
      ],
      "name": "BasicArenaLoss",
      "type": "event"
    },
    {
      "anonymous": false,
      "inputs": [
        {
          "indexed": true,
          "internalType": "uint256",
          "name": "_playerId",
          "type": "uint256"
        },
        {
          "indexed": true,
          "internalType": "uint256",
          "name": "_basicArenaId",
          "type": "uint256"
        }
      ],
      "name": "BasicArenaWin",
      "type": "event"
    },
    {
      "anonymous": false,
      "inputs": [
        {
          "indexed": false,
          "internalType": "uint256",
          "name": "_basicArenaId",
          "type": "uint256"
        }
      ],
      "name": "CreateBasicArena",
      "type": "event"
    },
    {
      "anonymous": false,
      "inputs": [
        {
          "indexed": true,
          "internalType": "uint256",
          "name": "_playerId",
          "type": "uint256"
        },
        {
          "indexed": true,
          "internalType": "uint256",
          "name": "_basicArenaId",
          "type": "uint256"
        }
      ],
      "name": "EnterBasicArena",
      "type": "event"
    },
    {
      "anonymous": false,
      "inputs": [
        {
          "indexed": true,
          "internalType": "uint256",
          "name": "_playerId",
          "type": "uint256"
        },
        {
          "indexed": true,
          "internalType": "uint256",
          "name": "_basicArenaId",
          "type": "uint256"
        }
      ],
      "name": "LeaveBasicArena",
      "type": "event"
    },
    {
      "inputs": [
        {
          "internalType": "uint256",
          "name": "_cost",
          "type": "uint256"
        },
        {
          "internalType": "uint256",
          "name": "_cooldown",
          "type": "uint256"
        },
        {
          "internalType": "string",
          "name": "_name",
          "type": "string"
        },
        {
          "internalType": "string",
          "name": "_uri",
          "type": "string"
        }
      ],
      "name": "creatBasicArena",
      "outputs": [],
      "stateMutability": "nonpayable",
      "type": "function"
    },
    {
      "inputs": [
        {
          "internalType": "uint256",
          "name": "_playerId",
          "type": "uint256"
        },
        {
          "internalType": "uint256",
          "name": "_basicArenaId",
          "type": "uint256"
        }
      ],
      "name": "enterBasicArena",
      "outputs": [],
      "stateMutability": "nonpayable",
      "type": "function"
    },
    {
      "inputs": [
        {
          "internalType": "uint256",
          "name": "_playerId",
          "type": "uint256"
        },
        {
          "internalType": "uint256",
          "name": "_basicArenaId",
          "type": "uint256"
        }
      ],
      "name": "fightBaiscArena",
      "outputs": [],
      "stateMutability": "nonpayable",
      "type": "function"
    },
    {
      "inputs": [
        {
          "internalType": "uint256",
          "name": "_basicArenaId",
          "type": "uint256"
        }
      ],
      "name": "getBasicArena",
      "outputs": [
        {
          "components": [
            {
              "internalType": "uint256",
              "name": "basicArenaId",
              "type": "uint256"
            },
            {
              "internalType": "uint256",
              "name": "cost",
              "type": "uint256"
            },
            {
              "internalType": "uint256",
              "name": "cooldown",
              "type": "uint256"
            },
            {
              "internalType": "uint256",
              "name": "hostId",
              "type": "uint256"
            },
            {
              "internalType": "bool",
              "name": "open",
              "type": "bool"
            },
            {
              "internalType": "address payable",
              "name": "hostAddress",
              "type": "address"
            },
            {
              "internalType": "string",
              "name": "name",
              "type": "string"
            },
            {
              "internalType": "string",
              "name": "url",
              "type": "string"
            }
          ],
          "internalType": "struct BasicArena",
          "name": "",
          "type": "tuple"
        }
      ],
      "stateMutability": "view",
      "type": "function"
    },
    {
      "inputs": [
        {
          "internalType": "uint256",
          "name": "_playerId",
          "type": "uint256"
        }
      ],
      "name": "getTotalLosses",
      "outputs": [
        {
          "internalType": "uint256",
          "name": "",
          "type": "uint256"
        }
      ],
      "stateMutability": "view",
      "type": "function"
    },
    {
      "inputs": [
        {
          "internalType": "uint256",
          "name": "_playerId",
          "type": "uint256"
        }
      ],
      "name": "getTotalWins",
      "outputs": [
        {
          "internalType": "uint256",
          "name": "",
          "type": "uint256"
        }
      ],
      "stateMutability": "view",
      "type": "function"
    },
    {
      "inputs": [
        {
          "internalType": "uint256",
          "name": "_playerId",
          "type": "uint256"
        },
        {
          "internalType": "uint256",
          "name": "_basicArenaId",
          "type": "uint256"
        }
      ],
      "name": "leaveBasicArena",
      "outputs": [],
      "stateMutability": "nonpayable",
      "type": "function"
    }
  ],
  "bytecode": "0x608060405234801561001057600080fd5b50612021806100206000396000f3fe608060405234801561001057600080fd5b506004361061007d5760003560e01c806359735adc1161005b57806359735adc146100fe578063c7f3ade51461011a578063c8fe5c4714610136578063fb944ffc146101525761007d565b80630b93942a146100825780634f7d08e51461009e57806354e8a31a146100ce575b600080fd5b61009c600480360381019061009791906114ec565b610182565b005b6100b860048036038101906100b3919061152c565b6101be565b6040516100c59190611568565b60405180910390f35b6100e860048036038101906100e3919061152c565b6101d0565b6040516100f59190611735565b60405180910390f35b6101186004803603810190610113919061188c565b6101e8565b005b610134600480360381019061012f91906114ec565b610238565b005b610150600480360381019061014b91906114ec565b6102af565b005b61016c6004803603810190610167919061152c565b6102eb565b6040516101799190611568565b60405180910390f35b61018c82826102fd565b80827f429a014671400a39eaa0b16744a56044df14e9b9124a3919f8425a0b471e25e960405160405180910390a35050565b60006101c98261069b565b9050919050565b6101d8611445565b6101e1826106c6565b9050919050565b6101f4848484846108c0565b7f645e88aa97de18912e43f2a442395d3217ced4b7b14e66da10045e228f0eda4d61021d610a1c565b60405161022a9190611568565b60405180910390a150505050565b6000806102458484610a34565b809250819350505082827fe5783c40c14d69971fbf9d435486b3a0469a026e4cacbd5e543c18ddd293eca560405160405180910390a382817ff07fe1bc469a482805ec42d00e7477d9bacbd901aedac046ea74d6a10ce2b04a60405160405180910390a350505050565b6102b98282610f44565b80827ff4debd39acd9b010e1276185a3f67b145758748b94e0145ce176c42ae6d27a4f60405160405180910390a35050565b60006102f68261116e565b9050919050565b6000610307611199565b905060006103136111c6565b9050600061031f6111f3565b90506000836003016000878152602001908152602001600020600201541461034657600080fd5b3373ffffffffffffffffffffffffffffffffffffffff1683600201600087815260200190815260200160002060009054906101000a900473ffffffffffffffffffffffffffffffffffffffff1673ffffffffffffffffffffffffffffffffffffffff16146103b357600080fd5b600081600101600086815260200190815260200160002090508060040160009054906101000a900460ff1661041d576040517f08c379a000000000000000000000000000000000000000000000000000000000815260040161041490611988565b60405180910390fd5b6000600282600201546104309190611a06565b85600301600089815260200190815260200160002060090154101561049757600a856003016000898152602001908152602001600020600901546002846002015461047b9190611a06565b6104859190611a37565b61048f9190611a6b565b9050806104ac565b600282600201546104a89190611a06565b9050805b50808360020160008881526020019081526020016000206000898152602001908152602001600020546104df9190611a6b565b4210156104eb57600080fd5b81600101548460000160003373ffffffffffffffffffffffffffffffffffffffff1673ffffffffffffffffffffffffffffffffffffffff168152602001908152602001600020541015610573576040517f08c379a000000000000000000000000000000000000000000000000000000000815260040161056a90611aeb565b60405180910390fd5b81600101548460000160003373ffffffffffffffffffffffffffffffffffffffff1673ffffffffffffffffffffffffffffffffffffffff16815260200190815260200160002060008282546105c89190611a37565b92505081905550600485600301600089815260200190815260200160002060020181905550600083600101600088815260200190815260200160002060040160006101000a81548160ff02191690831515021790555086836001016000888152602001908152602001600020600301819055503383600101600088815260200190815260200160002060040160016101000a81548173ffffffffffffffffffffffffffffffffffffffff021916908373ffffffffffffffffffffffffffffffffffffffff16021790555050505050505050565b6000806106a66111f3565b905080600501600084815260200190815260200160002054915050919050565b6106ce611445565b60006106d86111f3565b905080600101600084815260200190815260200160002060405180610100016040529081600082015481526020016001820154815260200160028201548152602001600382015481526020016004820160009054906101000a900460ff161515151581526020016004820160019054906101000a900473ffffffffffffffffffffffffffffffffffffffff1673ffffffffffffffffffffffffffffffffffffffff1673ffffffffffffffffffffffffffffffffffffffff1681526020016005820180546107a490611b3a565b80601f01602080910402602001604051908101604052809291908181526020018280546107d090611b3a565b801561081d5780601f106107f25761010080835404028352916020019161081d565b820191906000526020600020905b81548152906001019060200180831161080057829003601f168201915b5050505050815260200160068201805461083690611b3a565b80601f016020809104026020016040519081016040528092919081815260200182805461086290611b3a565b80156108af5780601f10610884576101008083540402835291602001916108af565b820191906000526020600020905b81548152906001019060200180831161089257829003601f168201915b505050505081525050915050919050565b60006108ca6111f3565b90508060000160008154809291906108e190611b6b565b919050555060405180610100016040528082600001548152602001868152602001858152602001600081526020016001151581526020013373ffffffffffffffffffffffffffffffffffffffff16815260200184815260200183815250816001016000836000015481526020019081526020016000206000820151816000015560208201518160010155604082015181600201556060820151816003015560808201518160040160006101000a81548160ff02191690831515021790555060a08201518160040160016101000a81548173ffffffffffffffffffffffffffffffffffffffff021916908373ffffffffffffffffffffffffffffffffffffffff16021790555060c08201518160050190816109fb9190611d5f565b5060e0820151816006019081610a119190611d5f565b509050505050505050565b600080610a276111f3565b9050806000015491505090565b6000806000610a41611199565b90506000610a4d6111c6565b90506000610a596111f3565b905060008360030160008981526020019081526020016000206002015414610a8057600080fd5b3373ffffffffffffffffffffffffffffffffffffffff1683600201600089815260200190815260200160002060009054906101000a900473ffffffffffffffffffffffffffffffffffffffff1673ffffffffffffffffffffffffffffffffffffffff1614610aed57600080fd5b600081600101600088815260200190815260200160002090508060040160009054906101000a900460ff1615610b58576040517f08c379a0000000000000000000000000000000000000000000000000000000008152600401610b4f90611988565b60405180910390fd5b600060028260020154610b6b9190611a06565b8560030160008b8152602001908152602001600020600901541015610bd257600a8560030160008b81526020019081526020016000206009015460028460020154610bb69190611a06565b610bc09190611a37565b610bca9190611a6b565b905080610be7565b60028260020154610be39190611a06565b9050805b50808360020160008a815260200190815260200160002060008b815260200190815260200160002054610c1a9190611a6b565b421015610c2657600080fd5b81600101548460000160003373ffffffffffffffffffffffffffffffffffffffff1673ffffffffffffffffffffffffffffffffffffffff168152602001908152602001600020541015610cae576040517f08c379a0000000000000000000000000000000000000000000000000000000008152600401610ca590611aeb565b60405180910390fd5b6000610cbe83600301548b611220565b90506000808b8303610d8f578b9150846003015490508560050160008d81526020019081526020016000206000815480929190610cfa90611b6b565b9190505550856006016000866003015481526020019081526020016000206000815480929190610d2990611b6b565b919050555084600101548760000160003373ffffffffffffffffffffffffffffffffffffffff1673ffffffffffffffffffffffffffffffffffffffff1681526020019081526020016000206000828254610d839190611a6b565b92505081905550610edc565b846003015491508b9050856005016000866003015481526020019081526020016000206000815480929190610dc390611b6b565b91905055508560060160008d81526020019081526020016000206000815480929190610dee90611b6b565b919050555060028560010154610e049190611e31565b8760000160008760040160019054906101000a900473ffffffffffffffffffffffffffffffffffffffff1673ffffffffffffffffffffffffffffffffffffffff1673ffffffffffffffffffffffffffffffffffffffff1681526020019081526020016000206000828254610e789190611a6b565b9250508190555084600101548760000160003373ffffffffffffffffffffffffffffffffffffffff1673ffffffffffffffffffffffffffffffffffffffff1681526020019081526020016000206000828254610ed49190611a37565b925050819055505b60018660010160008d815260200190815260200160002060040160006101000a81548160ff0219169083151502179055506000886003016000876003015481526020019081526020016000206002018190555081819950995050505050505050509250929050565b6000610f4e6111f3565b90506000610f5a611199565b90506000610f666111c6565b9050848360010160008681526020019081526020016000206003015414610fc2576040517f08c379a0000000000000000000000000000000000000000000000000000000008152600401610fb990611ebf565b60405180910390fd5b6004826003016000878152602001908152602001600020600201541461101d576040517f08c379a000000000000000000000000000000000000000000000000000000000815260040161101490611f2b565b60405180910390fd5b3373ffffffffffffffffffffffffffffffffffffffff1682600201600087815260200190815260200160002060009054906101000a900473ffffffffffffffffffffffffffffffffffffffff1673ffffffffffffffffffffffffffffffffffffffff161461108a57600080fd5b600083600101600086815260200190815260200160002060030181905550600183600101600086815260200190815260200160002060040160006101000a81548160ff021916908315150217905550600082600301600087815260200190815260200160002060020181905550826001016000858152602001908152602001600020600101548160000160003373ffffffffffffffffffffffffffffffffffffffff1673ffffffffffffffffffffffffffffffffffffffff16815260200190815260200160002060008282546111609190611a6b565b925050819055505050505050565b6000806111796111f3565b905080600601600084815260200190815260200160002054915050919050565b6000807f3cab9a070a0c61cd0ae9d9e9e2c0781e5ca8691bec4087e5a4701d5ac018dd4e90508091505090565b6000807f2c89d74504b6ad8d4fbde22bc3474166bac5452a11195897f239d8bebe02d70790508091505090565b6000807f1b1c2350f60dba32e7a2436167ce3f8399cd1c51a95c8577f1448f53846d4cda90508091505090565b60008061122b611199565b9050600081600301600086815260200190815260200160002090506000826003016000868152602001908152602001600020905081600e015482600501546112739190611a6b565b6112818683600301546113c3565b10156112ca57806003015482600e015483600501546112a09190611a6b565b6112aa9190611a37565b8360030160008881526020019081526020016000206005018190556112e8565b60008360030160008881526020019081526020016000206005018190555b5080600e015481600501546112fd9190611a6b565b61130b8784600301546113c3565b101561135457816003015481600e0154826005015461132a9190611a6b565b6113349190611a37565b836003016000878152602001908152602001600020600501819055611372565b60008360030160008781526020019081526020016000206005018190555b50826003016000878152602001908152602001600020600501548360030160008781526020019081526020016000206005015411156113b6578493505050506113bd565b8593505050505b92915050565b600080606460096113d4868661140b565b6113de9190611f4b565b6113e89190611a6b565b9050606481846113f89190611e31565b6114029190611a06565b91505092915050565b6000424484846040516020016114249493929190611f9d565b6040516020818303038152906040528051906020012060001c905092915050565b60405180610100016040528060008152602001600081526020016000815260200160008152602001600015158152602001600073ffffffffffffffffffffffffffffffffffffffff16815260200160608152602001606081525090565b6000604051905090565b600080fd5b600080fd5b6000819050919050565b6114c9816114b6565b81146114d457600080fd5b50565b6000813590506114e6816114c0565b92915050565b60008060408385031215611503576115026114ac565b5b6000611511858286016114d7565b9250506020611522858286016114d7565b9150509250929050565b600060208284031215611542576115416114ac565b5b6000611550848285016114d7565b91505092915050565b611562816114b6565b82525050565b600060208201905061157d6000830184611559565b92915050565b61158c816114b6565b82525050565b60008115159050919050565b6115a781611592565b82525050565b600073ffffffffffffffffffffffffffffffffffffffff82169050919050565b60006115d8826115ad565b9050919050565b6115e8816115cd565b82525050565b600081519050919050565b600082825260208201905092915050565b60005b8381101561162857808201518184015260208101905061160d565b60008484015250505050565b6000601f19601f8301169050919050565b6000611650826115ee565b61165a81856115f9565b935061166a81856020860161160a565b61167381611634565b840191505092915050565b6000610100830160008301516116976000860182611583565b5060208301516116aa6020860182611583565b5060408301516116bd6040860182611583565b5060608301516116d06060860182611583565b5060808301516116e3608086018261159e565b5060a08301516116f660a08601826115df565b5060c083015184820360c086015261170e8282611645565b91505060e083015184820360e08601526117288282611645565b9150508091505092915050565b6000602082019050818103600083015261174f818461167e565b905092915050565b600080fd5b600080fd5b7f4e487b7100000000000000000000000000000000000000000000000000000000600052604160045260246000fd5b61179982611634565b810181811067ffffffffffffffff821117156117b8576117b7611761565b5b80604052505050565b60006117cb6114a2565b90506117d78282611790565b919050565b600067ffffffffffffffff8211156117f7576117f6611761565b5b61180082611634565b9050602081019050919050565b82818337600083830152505050565b600061182f61182a846117dc565b6117c1565b90508281526020810184848401111561184b5761184a61175c565b5b61185684828561180d565b509392505050565b600082601f83011261187357611872611757565b5b813561188384826020860161181c565b91505092915050565b600080600080608085870312156118a6576118a56114ac565b5b60006118b4878288016114d7565b94505060206118c5878288016114d7565b935050604085013567ffffffffffffffff8111156118e6576118e56114b1565b5b6118f28782880161185e565b925050606085013567ffffffffffffffff811115611913576119126114b1565b5b61191f8782880161185e565b91505092959194509250565b600082825260208201905092915050565b7f6172656e61206973206e6f74206f70656e000000000000000000000000000000600082015250565b600061197260118361192b565b915061197d8261193c565b602082019050919050565b600060208201905081810360008301526119a181611965565b9050919050565b7f4e487b7100000000000000000000000000000000000000000000000000000000600052601260045260246000fd5b7f4e487b7100000000000000000000000000000000000000000000000000000000600052601160045260246000fd5b6000611a11826114b6565b9150611a1c836114b6565b925082611a2c57611a2b6119a8565b5b828204905092915050565b6000611a42826114b6565b9150611a4d836114b6565b9250828203905081811115611a6557611a646119d7565b5b92915050565b6000611a76826114b6565b9150611a81836114b6565b9250828201905080821115611a9957611a986119d7565b5b92915050565b7f62726f6b652061737320676f74206e6f206d6f6e657900000000000000000000600082015250565b6000611ad560168361192b565b9150611ae082611a9f565b602082019050919050565b60006020820190508181036000830152611b0481611ac8565b9050919050565b7f4e487b7100000000000000000000000000000000000000000000000000000000600052602260045260246000fd5b60006002820490506001821680611b5257607f821691505b602082108103611b6557611b64611b0b565b5b50919050565b6000611b76826114b6565b91507fffffffffffffffffffffffffffffffffffffffffffffffffffffffffffffffff8203611ba857611ba76119d7565b5b600182019050919050565b60008190508160005260206000209050919050565b60006020601f8301049050919050565b600082821b905092915050565b600060088302611c157fffffffffffffffffffffffffffffffffffffffffffffffffffffffffffffffff82611bd8565b611c1f8683611bd8565b95508019841693508086168417925050509392505050565b6000819050919050565b6000611c5c611c57611c52846114b6565b611c37565b6114b6565b9050919050565b6000819050919050565b611c7683611c41565b611c8a611c8282611c63565b848454611be5565b825550505050565b600090565b611c9f611c92565b611caa818484611c6d565b505050565b5b81811015611cce57611cc3600082611c97565b600181019050611cb0565b5050565b601f821115611d1357611ce481611bb3565b611ced84611bc8565b81016020851015611cfc578190505b611d10611d0885611bc8565b830182611caf565b50505b505050565b600082821c905092915050565b6000611d3660001984600802611d18565b1980831691505092915050565b6000611d4f8383611d25565b9150826002028217905092915050565b611d68826115ee565b67ffffffffffffffff811115611d8157611d80611761565b5b611d8b8254611b3a565b611d96828285611cd2565b600060209050601f831160018114611dc95760008415611db7578287015190505b611dc18582611d43565b865550611e29565b601f198416611dd786611bb3565b60005b82811015611dff57848901518255600182019150602085019450602081019050611dda565b86831015611e1c5784890151611e18601f891682611d25565b8355505b6001600288020188555050505b505050505050565b6000611e3c826114b6565b9150611e47836114b6565b9250828202611e55816114b6565b91508282048414831517611e6c57611e6b6119d7565b5b5092915050565b7f796f7520617265206e6f742074686520686f7374000000000000000000000000600082015250565b6000611ea960148361192b565b9150611eb482611e73565b602082019050919050565b60006020820190508181036000830152611ed881611e9c565b9050919050565b7f796f7520617265206e6f7420696e20746865206172656e610000000000000000600082015250565b6000611f1560188361192b565b9150611f2082611edf565b602082019050919050565b60006020820190508181036000830152611f4481611f08565b9050919050565b6000611f56826114b6565b9150611f61836114b6565b925082611f7157611f706119a8565b5b828206905092915050565b6000819050919050565b611f97611f92826114b6565b611f7c565b82525050565b6000611fa98287611f86565b602082019150611fb98286611f86565b602082019150611fc98285611f86565b602082019150611fd98284611f86565b6020820191508190509594505050505056fea264697066735822122019a275e9b875c4c8676c0c4e368c236f512596951e2c13da69d9996d81399bd564736f6c63430008120033",
  "linkReferences": {},
  "deployedLinkReferences": {}
}