{
  "_format": "hh-sol-artifact-1",
  "contractName": "ArenaFacet",
  "sourceName": "contracts/facets/ArenaFacet.sol",
  "abi": [
    {
      "anonymous": false,
      "inputs": [
        {
          "indexed": true,
          "internalType": "uint256",
          "name": "_playerId",
          "type": "uint256"
        },
        {
          "indexed": true,
          "internalType": "uint256",
          "name": "_basicArenaId",
          "type": "uint256"
        }
      ],
      "name": "BasicArenaLoss",
      "type": "event"
    },
    {
      "anonymous": false,
      "inputs": [
        {
          "indexed": true,
          "internalType": "uint256",
          "name": "_playerId",
          "type": "uint256"
        },
        {
          "indexed": true,
          "internalType": "uint256",
          "name": "_basicArenaId",
          "type": "uint256"
        }
      ],
      "name": "BasicArenaWin",
      "type": "event"
    },
    {
      "anonymous": false,
      "inputs": [
        {
          "indexed": false,
          "internalType": "uint256",
          "name": "_basicArenaId",
          "type": "uint256"
        },
        {
          "components": [
            {
              "internalType": "uint256",
              "name": "basicArenaId",
              "type": "uint256"
            },
            {
              "internalType": "uint256",
              "name": "cost",
              "type": "uint256"
            },
            {
              "internalType": "uint256",
              "name": "cooldown",
              "type": "uint256"
            },
            {
              "internalType": "uint256",
              "name": "hostId",
              "type": "uint256"
            },
            {
              "internalType": "bool",
              "name": "open",
              "type": "bool"
            },
            {
              "internalType": "address payable",
              "name": "hostAddress",
              "type": "address"
            },
            {
              "internalType": "string",
              "name": "name",
              "type": "string"
            },
            {
              "internalType": "string",
              "name": "url",
              "type": "string"
            }
          ],
          "indexed": false,
          "internalType": "struct BasicArena",
          "name": "_basicArena",
          "type": "tuple"
        }
      ],
      "name": "CreateBasicArena",
      "type": "event"
    },
    {
      "anonymous": false,
      "inputs": [
        {
          "indexed": false,
          "internalType": "uint256",
          "name": "_hillArenaId",
          "type": "uint256"
        },
        {
          "components": [
            {
              "internalType": "uint256",
              "name": "hillArenaId",
              "type": "uint256"
            },
            {
              "internalType": "uint256",
              "name": "cost",
              "type": "uint256"
            },
            {
              "internalType": "uint256",
              "name": "cooldown",
              "type": "uint256"
            },
            {
              "internalType": "uint256",
              "name": "hostId",
              "type": "uint256"
            },
            {
              "internalType": "uint256",
              "name": "wins",
              "type": "uint256"
            },
            {
              "internalType": "bool",
              "name": "open",
              "type": "bool"
            },
            {
              "internalType": "address payable",
              "name": "hostAddress",
              "type": "address"
            },
            {
              "internalType": "string",
              "name": "name",
              "type": "string"
            },
            {
              "internalType": "string",
              "name": "url",
              "type": "string"
            }
          ],
          "indexed": false,
          "internalType": "struct HillArena",
          "name": "_hillArena",
          "type": "tuple"
        }
      ],
      "name": "CreateHillArena",
      "type": "event"
    },
    {
      "anonymous": false,
      "inputs": [
        {
          "indexed": true,
          "internalType": "uint256",
          "name": "_playerId",
          "type": "uint256"
        },
        {
          "indexed": true,
          "internalType": "uint256",
          "name": "_basicArenaId",
          "type": "uint256"
        }
      ],
      "name": "EnterBasicArena",
      "type": "event"
    },
    {
      "anonymous": false,
      "inputs": [
        {
          "indexed": true,
          "internalType": "uint256",
          "name": "_playerId",
          "type": "uint256"
        },
        {
          "indexed": true,
          "internalType": "uint256",
          "name": "_hillArenaId",
          "type": "uint256"
        },
        {
          "indexed": true,
          "internalType": "uint256",
          "name": "_timestamp",
          "type": "uint256"
        }
      ],
      "name": "EnterHillArena",
      "type": "event"
    },
    {
      "anonymous": false,
      "inputs": [
        {
          "indexed": true,
          "internalType": "uint256",
          "name": "_playerId",
          "type": "uint256"
        },
        {
          "indexed": true,
          "internalType": "uint256",
          "name": "_basicArenaId",
          "type": "uint256"
        }
      ],
      "name": "LeaveBasicArena",
      "type": "event"
    },
    {
      "inputs": [
        {
          "internalType": "uint256",
          "name": "_cost",
          "type": "uint256"
        },
        {
          "internalType": "uint256",
          "name": "_cooldown",
          "type": "uint256"
        },
        {
          "internalType": "string",
          "name": "_name",
          "type": "string"
        },
        {
          "internalType": "string",
          "name": "_uri",
          "type": "string"
        }
      ],
      "name": "creatBasicArena",
      "outputs": [],
      "stateMutability": "nonpayable",
      "type": "function"
    },
    {
      "inputs": [
        {
          "internalType": "uint256",
          "name": "_cost",
          "type": "uint256"
        },
        {
          "internalType": "uint256",
          "name": "_cooldown",
          "type": "uint256"
        },
        {
          "internalType": "string",
          "name": "_name",
          "type": "string"
        },
        {
          "internalType": "string",
          "name": "_uri",
          "type": "string"
        }
      ],
      "name": "creatHillArena",
      "outputs": [],
      "stateMutability": "nonpayable",
      "type": "function"
    },
    {
      "inputs": [
        {
          "internalType": "uint256",
          "name": "_playerId",
          "type": "uint256"
        },
        {
          "internalType": "uint256",
          "name": "_basicArenaId",
          "type": "uint256"
        }
      ],
      "name": "enterBasicArena",
      "outputs": [],
      "stateMutability": "nonpayable",
      "type": "function"
    },
    {
      "inputs": [
        {
          "internalType": "uint256",
          "name": "_playerId",
          "type": "uint256"
        },
        {
          "internalType": "uint256",
          "name": "_hillArenaId",
          "type": "uint256"
        }
      ],
      "name": "enterHillArena",
      "outputs": [],
      "stateMutability": "nonpayable",
      "type": "function"
    },
    {
      "inputs": [
        {
          "internalType": "uint256",
          "name": "_playerId",
          "type": "uint256"
        },
        {
          "internalType": "uint256",
          "name": "_basicArenaId",
          "type": "uint256"
        }
      ],
      "name": "fightBaiscArena",
      "outputs": [],
      "stateMutability": "nonpayable",
      "type": "function"
    },
    {
      "inputs": [
        {
          "internalType": "uint256",
          "name": "_playerId",
          "type": "uint256"
        },
        {
          "internalType": "uint256",
          "name": "_hillArenaId",
          "type": "uint256"
        }
      ],
      "name": "fightHillArena",
      "outputs": [],
      "stateMutability": "nonpayable",
      "type": "function"
    },
    {
      "inputs": [],
      "name": "freeGold",
      "outputs": [],
      "stateMutability": "nonpayable",
      "type": "function"
    },
    {
      "inputs": [
        {
          "internalType": "uint256",
          "name": "_basicArenaId",
          "type": "uint256"
        }
      ],
      "name": "getBasicArena",
      "outputs": [
        {
          "components": [
            {
              "internalType": "uint256",
              "name": "basicArenaId",
              "type": "uint256"
            },
            {
              "internalType": "uint256",
              "name": "cost",
              "type": "uint256"
            },
            {
              "internalType": "uint256",
              "name": "cooldown",
              "type": "uint256"
            },
            {
              "internalType": "uint256",
              "name": "hostId",
              "type": "uint256"
            },
            {
              "internalType": "bool",
              "name": "open",
              "type": "bool"
            },
            {
              "internalType": "address payable",
              "name": "hostAddress",
              "type": "address"
            },
            {
              "internalType": "string",
              "name": "name",
              "type": "string"
            },
            {
              "internalType": "string",
              "name": "url",
              "type": "string"
            }
          ],
          "internalType": "struct BasicArena",
          "name": "",
          "type": "tuple"
        }
      ],
      "stateMutability": "view",
      "type": "function"
    },
    {
      "inputs": [
        {
          "internalType": "uint256",
          "name": "_playerId",
          "type": "uint256"
        },
        {
          "internalType": "uint256",
          "name": "_basicArenaId",
          "type": "uint256"
        }
      ],
      "name": "getBasicArenaCooldowns",
      "outputs": [
        {
          "internalType": "uint256",
          "name": "",
          "type": "uint256"
        }
      ],
      "stateMutability": "view",
      "type": "function"
    },
    {
      "inputs": [],
      "name": "getBasicArenaCount",
      "outputs": [
        {
          "internalType": "uint256",
          "name": "",
          "type": "uint256"
        }
      ],
      "stateMutability": "view",
      "type": "function"
    },
    {
      "inputs": [
        {
          "internalType": "address",
          "name": "_address",
          "type": "address"
        }
      ],
      "name": "getGoldBalance",
      "outputs": [
        {
          "internalType": "uint256",
          "name": "",
          "type": "uint256"
        }
      ],
      "stateMutability": "view",
      "type": "function"
    },
    {
      "inputs": [
        {
          "internalType": "uint256",
          "name": "_playerId",
          "type": "uint256"
        }
      ],
      "name": "getTotalLosses",
      "outputs": [
        {
          "internalType": "uint256",
          "name": "",
          "type": "uint256"
        }
      ],
      "stateMutability": "view",
      "type": "function"
    },
    {
      "inputs": [
        {
          "internalType": "uint256",
          "name": "_playerId",
          "type": "uint256"
        }
      ],
      "name": "getTotalWins",
      "outputs": [
        {
          "internalType": "uint256",
          "name": "",
          "type": "uint256"
        }
      ],
      "stateMutability": "view",
      "type": "function"
    },
    {
      "inputs": [
        {
          "internalType": "uint256",
          "name": "_playerId",
          "type": "uint256"
        },
        {
          "internalType": "uint256",
          "name": "_basicArenaId",
          "type": "uint256"
        }
      ],
      "name": "leaveBasicArena",
      "outputs": [],
      "stateMutability": "nonpayable",
      "type": "function"
    },
    {
      "inputs": [
        {
          "internalType": "uint256",
          "name": "_playerId",
          "type": "uint256"
        },
        {
          "internalType": "uint256",
          "name": "_basicArenaId",
          "type": "uint256"
        }
      ],
      "name": "leaveHillArena",
      "outputs": [],
      "stateMutability": "nonpayable",
      "type": "function"
    }
  ],
  "bytecode": "0x608060405234801561001057600080fd5b50613202806100206000396000f3fe608060405234801561001057600080fd5b50600436106100f55760003560e01c806359735adc11610097578063c8fe5c4711610066578063c8fe5c471461025a578063cc8d469d14610276578063f2482513146102a6578063fb944ffc146102c2576100f5565b806359735adc146101ea5780636673138414610206578063b05a86fc14610222578063c7f3ade51461023e576100f5565b80633707caf2116100d35780633707caf21461013e5780633d8a082f1461016e5780634f7d08e51461018a57806354e8a31a146101ba576100f5565b80630b93942a146100fa5780632d2c17be1461011657806333f453af14610134575b600080fd5b610114600480360381019061010f9190612632565b6102f2565b005b61011e61032e565b60405161012b9190612681565b60405180910390f35b61013c61033d565b005b610158600480360381019061015391906126fa565b610347565b6040516101659190612681565b60405180910390f35b61018860048036038101906101839190612632565b610359565b005b6101a4600480360381019061019f9190612727565b610395565b6040516101b19190612681565b60405180910390f35b6101d460048036038101906101cf9190612727565b6103a7565b6040516101e191906128e6565b60405180910390f35b61020460048036038101906101ff9190612a3d565b6103bf565b005b610220600480360381019061021b9190612632565b610471565b005b61023c60048036038101906102379190612632565b6104e8565b005b61025860048036038101906102539190612632565b610525565b005b610274600480360381019061026f9190612632565b61059c565b005b610290600480360381019061028b9190612632565b6105d8565b60405161029d9190612681565b60405180910390f35b6102c060048036038101906102bb9190612a3d565b6105ec565b005b6102dc60048036038101906102d79190612727565b61069e565b6040516102e99190612681565b60405180910390f35b6102fc82826106b0565b80827f429a014671400a39eaa0b16744a56044df14e9b9124a3919f8425a0b471e25e960405160405180910390a35050565b6000610338610a4e565b905090565b610345610a66565b565b600061035282610ace565b9050919050565b6103638282610b25565b80827ff4debd39acd9b010e1276185a3f67b145758748b94e0145ce176c42ae6d27a4f60405160405180910390a35050565b60006103a082610dac565b9050919050565b6103af61258b565b6103b882610dd7565b9050919050565b600073434d36f32abed3f7937fe0be88dc1b0eb938124490508073ffffffffffffffffffffffffffffffffffffffff163373ffffffffffffffffffffffffffffffffffffffff161461041057600080fd5b61041c85858585610fd1565b6000610426610a4e565b90507fa8944f13c384569cd759dea69a02c83263e937c72f585de37fa46b4bb55b6b0881610453836103a7565b604051610461929190612adc565b60405180910390a1505050505050565b60008061047e848461112d565b809250819350505082827fe5783c40c14d69971fbf9d435486b3a0469a026e4cacbd5e543c18ddd293eca560405160405180910390a382817ff07fe1bc469a482805ec42d00e7477d9bacbd901aedac046ea74d6a10ce2b04a60405160405180910390a350505050565b6104f282826116f6565b4281837fa85bf3592018078e152218683b8117662b84e8f5504dcdffe66ca644596773c860405160405180910390a45050565b6000806105328484611abf565b809250819350505082827fe5783c40c14d69971fbf9d435486b3a0469a026e4cacbd5e543c18ddd293eca560405160405180910390a382817ff07fe1bc469a482805ec42d00e7477d9bacbd901aedac046ea74d6a10ce2b04a60405160405180910390a350505050565b6105a68282612029565b80827ff4debd39acd9b010e1276185a3f67b145758748b94e0145ce176c42ae6d27a4f60405160405180910390a35050565b60006105e48383612253565b905092915050565b600073434d36f32abed3f7937fe0be88dc1b0eb938124490508073ffffffffffffffffffffffffffffffffffffffff163373ffffffffffffffffffffffffffffffffffffffff161461063d57600080fd5b61064985858585610fd1565b6000610653610a4e565b90507fa8944f13c384569cd759dea69a02c83263e937c72f585de37fa46b4bb55b6b0881610680836103a7565b60405161068e929190612adc565b60405180910390a1505050505050565b60006106a982612290565b9050919050565b60006106ba6122bb565b905060006106c66122e8565b905060006106d2612315565b9050600083600301600087815260200190815260200160002060020154146106f957600080fd5b3373ffffffffffffffffffffffffffffffffffffffff1683600201600087815260200190815260200160002060009054906101000a900473ffffffffffffffffffffffffffffffffffffffff1673ffffffffffffffffffffffffffffffffffffffff161461076657600080fd5b600081600101600086815260200190815260200160002090508060040160009054906101000a900460ff166107d0576040517f08c379a00000000000000000000000000000000000000000000000000000000081526004016107c790612b69565b60405180910390fd5b6000600282600201546107e39190612be7565b85600301600089815260200190815260200160002060090154101561084a57600a856003016000898152602001908152602001600020600901546002846002015461082e9190612be7565b6108389190612c18565b6108429190612c4c565b90508061085f565b6002826002015461085b9190612be7565b9050805b50808360020160008881526020019081526020016000206000898152602001908152602001600020546108929190612c4c565b42101561089e57600080fd5b81600101548460010160003373ffffffffffffffffffffffffffffffffffffffff1673ffffffffffffffffffffffffffffffffffffffff168152602001908152602001600020541015610926576040517f08c379a000000000000000000000000000000000000000000000000000000000815260040161091d90612ccc565b60405180910390fd5b81600101548460010160003373ffffffffffffffffffffffffffffffffffffffff1673ffffffffffffffffffffffffffffffffffffffff168152602001908152602001600020600082825461097b9190612c18565b92505081905550600485600301600089815260200190815260200160002060020181905550600083600101600088815260200190815260200160002060040160006101000a81548160ff02191690831515021790555086836001016000888152602001908152602001600020600301819055503383600101600088815260200190815260200160002060040160016101000a81548173ffffffffffffffffffffffffffffffffffffffff021916908373ffffffffffffffffffffffffffffffffffffffff16021790555050505050505050565b600080610a59612315565b9050806000015491505090565b6000610a706122e8565b905060648160010160003373ffffffffffffffffffffffffffffffffffffffff1673ffffffffffffffffffffffffffffffffffffffff1681526020019081526020016000206000828254610ac49190612c4c565b9250508190555050565b600080610ad96122e8565b90508060010160008473ffffffffffffffffffffffffffffffffffffffff1673ffffffffffffffffffffffffffffffffffffffff16815260200190815260200160002054915050919050565b6000610b2f612315565b90506000610b3b6122bb565b90506000610b476122e8565b9050848360040160008681526020019081526020016000206003015414610ba3576040517f08c379a0000000000000000000000000000000000000000000000000000000008152600401610b9a90612d38565b60405180910390fd5b60048260030160008781526020019081526020016000206002015414610bfe576040517f08c379a0000000000000000000000000000000000000000000000000000000008152600401610bf590612da4565b60405180910390fd5b3373ffffffffffffffffffffffffffffffffffffffff1682600201600087815260200190815260200160002060009054906101000a900473ffffffffffffffffffffffffffffffffffffffff1673ffffffffffffffffffffffffffffffffffffffff1614610c6b57600080fd5b600083600401600086815260200190815260200160002060030181905550600183600401600086815260200190815260200160002060050160006101000a81548160ff021916908315150217905550600082600301600087815260200190815260200160002060020181905550826001016000858152602001908152602001600020600101548160010160003373ffffffffffffffffffffffffffffffffffffffff1673ffffffffffffffffffffffffffffffffffffffff1681526020019081526020016000206000828254610d419190612c4c565b9250508190555082600701600085815260200190815260200160002060008681526020019081526020016000205442610d7a9190612c18565b8360050160008781526020019081526020016000206000828254610d9e9190612c4c565b925050819055505050505050565b600080610db7612315565b905080600a01600084815260200190815260200160002054915050919050565b610ddf61258b565b6000610de9612315565b905080600101600084815260200190815260200160002060405180610100016040529081600082015481526020016001820154815260200160028201548152602001600382015481526020016004820160009054906101000a900460ff161515151581526020016004820160019054906101000a900473ffffffffffffffffffffffffffffffffffffffff1673ffffffffffffffffffffffffffffffffffffffff1673ffffffffffffffffffffffffffffffffffffffff168152602001600582018054610eb590612df3565b80601f0160208091040260200160405190810160405280929190818152602001828054610ee190612df3565b8015610f2e5780601f10610f0357610100808354040283529160200191610f2e565b820191906000526020600020905b815481529060010190602001808311610f1157829003601f168201915b50505050508152602001600682018054610f4790612df3565b80601f0160208091040260200160405190810160405280929190818152602001828054610f7390612df3565b8015610fc05780601f10610f9557610100808354040283529160200191610fc0565b820191906000526020600020905b815481529060010190602001808311610fa357829003601f168201915b505050505081525050915050919050565b6000610fdb612315565b9050806000016000815480929190610ff290612e24565b919050555060405180610100016040528082600001548152602001868152602001858152602001600081526020016001151581526020013373ffffffffffffffffffffffffffffffffffffffff16815260200184815260200183815250816001016000836000015481526020019081526020016000206000820151816000015560208201518160010155604082015181600201556060820151816003015560808201518160040160006101000a81548160ff02191690831515021790555060a08201518160040160016101000a81548173ffffffffffffffffffffffffffffffffffffffff021916908373ffffffffffffffffffffffffffffffffffffffff16021790555060c082015181600501908161110c9190613018565b5060e08201518160060190816111229190613018565b509050505050505050565b600080600061113a6122bb565b905060006111466122e8565b90506000611152612315565b90506000836003016000898152602001908152602001600020600201541461117957600080fd5b3373ffffffffffffffffffffffffffffffffffffffff1683600201600089815260200190815260200160002060009054906101000a900473ffffffffffffffffffffffffffffffffffffffff1673ffffffffffffffffffffffffffffffffffffffff16146111e657600080fd5b600081600401600088815260200190815260200160002090508060050160009054906101000a900460ff1615611251576040517f08c379a000000000000000000000000000000000000000000000000000000000815260040161124890612b69565b60405180910390fd5b6000600282600201546112649190612be7565b8560030160008b81526020019081526020016000206009015410156112cb57600a8560030160008b815260200190815260200160002060090154600284600201546112af9190612be7565b6112b99190612c18565b6112c39190612c4c565b9050806112e0565b600282600201546112dc9190612be7565b9050805b50808360060160008a815260200190815260200160002060008b8152602001908152602001600020546113139190612c4c565b42101561131f57600080fd5b81600101548460010160003373ffffffffffffffffffffffffffffffffffffffff1673ffffffffffffffffffffffffffffffffffffffff1681526020019081526020016000205410156113a7576040517f08c379a000000000000000000000000000000000000000000000000000000000815260040161139e90612ccc565b60405180910390fd5b60006113b783600301548b612342565b90506000808b830361153a578b91508460030154905085600a0160008d815260200190815260200160002060008154809291906113f390612e24565b919050555085600b01600086600301548152602001908152602001600020600081548092919061142290612e24565b919050555084600101548760010160003373ffffffffffffffffffffffffffffffffffffffff1673ffffffffffffffffffffffffffffffffffffffff168152602001908152602001600020600082825461147c9190612c4c565b92505081905550428660070160008d815260200190815260200160002060008e8152602001908152602001600020819055508560070160008c815260200190815260200160002060008660030154815260200190815260200160002054426114e49190612c18565b86600501600087600301548152602001908152602001600020600082825461150c9190612c4c565b9250508190555060008860030160008760030154815260200190815260200160002060020181905550611687565b846003015491508b905085600a01600086600301548152602001908152602001600020600081548092919061156e90612e24565b919050555085600b0160008d8152602001908152602001600020600081548092919061159990612e24565b9190505550600285600101546115af91906130ea565b8760010160008760050160019054906101000a900473ffffffffffffffffffffffffffffffffffffffff1673ffffffffffffffffffffffffffffffffffffffff1673ffffffffffffffffffffffffffffffffffffffff16815260200190815260200160002060008282546116239190612c4c565b9250508190555084600101548760010160003373ffffffffffffffffffffffffffffffffffffffff1673ffffffffffffffffffffffffffffffffffffffff168152602001908152602001600020600082825461167f9190612c18565b925050819055505b428660060160008d815260200190815260200160002060008e815260200190815260200160002081905550428660060160008d81526020019081526020016000206000876003015481526020019081526020016000208190555081819950995050505050505050509250929050565b60006117006122bb565b9050600061170c612315565b905060006117186122e8565b90506000836003016000878152602001908152602001600020600201541461173f57600080fd5b3373ffffffffffffffffffffffffffffffffffffffff1683600201600087815260200190815260200160002060009054906101000a900473ffffffffffffffffffffffffffffffffffffffff1673ffffffffffffffffffffffffffffffffffffffff16146117ac57600080fd5b600082600401600086815260200190815260200160002090508060050160009054906101000a900460ff16611816576040517f08c379a000000000000000000000000000000000000000000000000000000000815260040161180d90612b69565b60405180910390fd5b80600101548260010160003373ffffffffffffffffffffffffffffffffffffffff1673ffffffffffffffffffffffffffffffffffffffff16815260200190815260200160002054101561189e576040517f08c379a000000000000000000000000000000000000000000000000000000000815260040161189590612ccc565b60405180910390fd5b80600101548260010160003373ffffffffffffffffffffffffffffffffffffffff1673ffffffffffffffffffffffffffffffffffffffff16815260200190815260200160002060008282546118f39190612c18565b9250508190555060006002826002015461190d9190612be7565b85600301600089815260200190815260200160002060090154101561197457600a85600301600089815260200190815260200160002060090154600284600201546119589190612be7565b6119629190612c18565b61196c9190612c4c565b905080611989565b600282600201546119859190612be7565b9050805b50808460060160008881526020019081526020016000206000898152602001908152602001600020546119bc9190612c4c565b4210156119c857600080fd5b600485600301600089815260200190815260200160002060020181905550600084600401600088815260200190815260200160002060050160006101000a81548160ff02191690831515021790555086846004016000888152602001908152602001600020600301819055503384600401600088815260200190815260200160002060050160016101000a81548173ffffffffffffffffffffffffffffffffffffffff021916908373ffffffffffffffffffffffffffffffffffffffff1602179055504284600701600088815260200190815260200160002060008981526020019081526020016000208190555050505050505050565b6000806000611acc6122bb565b90506000611ad86122e8565b90506000611ae4612315565b905060008360030160008981526020019081526020016000206002015414611b0b57600080fd5b3373ffffffffffffffffffffffffffffffffffffffff1683600201600089815260200190815260200160002060009054906101000a900473ffffffffffffffffffffffffffffffffffffffff1673ffffffffffffffffffffffffffffffffffffffff1614611b7857600080fd5b600081600101600088815260200190815260200160002090508060040160009054906101000a900460ff1615611be3576040517f08c379a0000000000000000000000000000000000000000000000000000000008152600401611bda90612b69565b60405180910390fd5b600060028260020154611bf69190612be7565b8560030160008b8152602001908152602001600020600901541015611c5d57600a8560030160008b81526020019081526020016000206009015460028460020154611c419190612be7565b611c4b9190612c18565b611c559190612c4c565b905080611c72565b60028260020154611c6e9190612be7565b9050805b50808360020160008a815260200190815260200160002060008b815260200190815260200160002054611ca59190612c4c565b421015611cb157600080fd5b81600101548460010160003373ffffffffffffffffffffffffffffffffffffffff1673ffffffffffffffffffffffffffffffffffffffff168152602001908152602001600020541015611d39576040517f08c379a0000000000000000000000000000000000000000000000000000000008152600401611d3090612ccc565b60405180910390fd5b6000611d4983600301548b612342565b90506000808b8303611e1a578b91508460030154905085600a0160008d81526020019081526020016000206000815480929190611d8590612e24565b919050555085600b016000866003015481526020019081526020016000206000815480929190611db490612e24565b919050555084600101548760010160003373ffffffffffffffffffffffffffffffffffffffff1673ffffffffffffffffffffffffffffffffffffffff1681526020019081526020016000206000828254611e0e9190612c4c565b92505081905550611f67565b846003015491508b905085600a016000866003015481526020019081526020016000206000815480929190611e4e90612e24565b919050555085600b0160008d81526020019081526020016000206000815480929190611e7990612e24565b919050555060028560010154611e8f91906130ea565b8760010160008760040160019054906101000a900473ffffffffffffffffffffffffffffffffffffffff1673ffffffffffffffffffffffffffffffffffffffff1673ffffffffffffffffffffffffffffffffffffffff1681526020019081526020016000206000828254611f039190612c4c565b9250508190555084600101548760010160003373ffffffffffffffffffffffffffffffffffffffff1673ffffffffffffffffffffffffffffffffffffffff1681526020019081526020016000206000828254611f5f9190612c18565b925050819055505b428660020160008d815260200190815260200160002060008e815260200190815260200160002081905550428660020160008d81526020019081526020016000206000876003015481526020019081526020016000208190555060018660010160008d815260200190815260200160002060040160006101000a81548160ff0219169083151502179055506000886003016000876003015481526020019081526020016000206002018190555081819950995050505050505050509250929050565b6000612033612315565b9050600061203f6122bb565b9050600061204b6122e8565b90508483600101600086815260200190815260200160002060030154146120a7576040517f08c379a000000000000000000000000000000000000000000000000000000000815260040161209e90612d38565b60405180910390fd5b60048260030160008781526020019081526020016000206002015414612102576040517f08c379a00000000000000000000000000000000000000000000000000000000081526004016120f990612da4565b60405180910390fd5b3373ffffffffffffffffffffffffffffffffffffffff1682600201600087815260200190815260200160002060009054906101000a900473ffffffffffffffffffffffffffffffffffffffff1673ffffffffffffffffffffffffffffffffffffffff161461216f57600080fd5b600083600101600086815260200190815260200160002060030181905550600183600101600086815260200190815260200160002060040160006101000a81548160ff021916908315150217905550600082600301600087815260200190815260200160002060020181905550826001016000858152602001908152602001600020600101548160010160003373ffffffffffffffffffffffffffffffffffffffff1673ffffffffffffffffffffffffffffffffffffffff16815260200190815260200160002060008282546122459190612c4c565b925050819055505050505050565b60008061225e612315565b905080600201600084815260200190815260200160002060008581526020019081526020016000205491505092915050565b60008061229b612315565b905080600b01600084815260200190815260200160002054915050919050565b6000807f3cab9a070a0c61cd0ae9d9e9e2c0781e5ca8691bec4087e5a4701d5ac018dd4e90508091505090565b6000807f2c89d74504b6ad8d4fbde22bc3474166bac5452a11195897f239d8bebe02d70790508091505090565b6000807f1b1c2350f60dba32e7a2436167ce3f8399cd1c51a95c8577f1448f53846d4cda90508091505090565b60008061234d6122bb565b905060008160030160008681526020019081526020016000209050600082600301600086815260200190815260200160002090506000612391868360030154612509565b905060006123a3888560030154612509565b905083600e015484600501546123b99190612c4c565b82106123e25760008560030160008a81526020019081526020016000206005018190555061242d565b83600e0154821061242c5783600e0154826123fd9190612c18565b8560030160008a815260200190815260200160002060050160008282546124249190612c18565b925050819055505b5b82600e015483600501546124419190612c4c565b811061246a576000856003016000898152602001908152602001600020600501819055506124b5565b82600e015481106124b45782600e0154816124859190612c18565b85600301600089815260200190815260200160002060050160008282546124ac9190612c18565b925050819055505b5b846003016000898152602001908152602001600020600501548560030160008981526020019081526020016000206005015411156124fa578695505050505050612503565b87955050505050505b92915050565b6000806064600961251a8686612551565b612524919061312c565b61252e9190612c4c565b90506064818461253e91906130ea565b6125489190612be7565b91505092915050565b60004244848460405160200161256a949392919061317e565b6040516020818303038152906040528051906020012060001c905092915050565b60405180610100016040528060008152602001600081526020016000815260200160008152602001600015158152602001600073ffffffffffffffffffffffffffffffffffffffff16815260200160608152602001606081525090565b6000604051905090565b600080fd5b600080fd5b6000819050919050565b61260f816125fc565b811461261a57600080fd5b50565b60008135905061262c81612606565b92915050565b60008060408385031215612649576126486125f2565b5b60006126578582860161261d565b92505060206126688582860161261d565b9150509250929050565b61267b816125fc565b82525050565b60006020820190506126966000830184612672565b92915050565b600073ffffffffffffffffffffffffffffffffffffffff82169050919050565b60006126c78261269c565b9050919050565b6126d7816126bc565b81146126e257600080fd5b50565b6000813590506126f4816126ce565b92915050565b6000602082840312156127105761270f6125f2565b5b600061271e848285016126e5565b91505092915050565b60006020828403121561273d5761273c6125f2565b5b600061274b8482850161261d565b91505092915050565b61275d816125fc565b82525050565b60008115159050919050565b61277881612763565b82525050565b60006127898261269c565b9050919050565b6127998161277e565b82525050565b600081519050919050565b600082825260208201905092915050565b60005b838110156127d95780820151818401526020810190506127be565b60008484015250505050565b6000601f19601f8301169050919050565b60006128018261279f565b61280b81856127aa565b935061281b8185602086016127bb565b612824816127e5565b840191505092915050565b6000610100830160008301516128486000860182612754565b50602083015161285b6020860182612754565b50604083015161286e6040860182612754565b5060608301516128816060860182612754565b506080830151612894608086018261276f565b5060a08301516128a760a0860182612790565b5060c083015184820360c08601526128bf82826127f6565b91505060e083015184820360e08601526128d982826127f6565b9150508091505092915050565b60006020820190508181036000830152612900818461282f565b905092915050565b600080fd5b600080fd5b7f4e487b7100000000000000000000000000000000000000000000000000000000600052604160045260246000fd5b61294a826127e5565b810181811067ffffffffffffffff8211171561296957612968612912565b5b80604052505050565b600061297c6125e8565b90506129888282612941565b919050565b600067ffffffffffffffff8211156129a8576129a7612912565b5b6129b1826127e5565b9050602081019050919050565b82818337600083830152505050565b60006129e06129db8461298d565b612972565b9050828152602081018484840111156129fc576129fb61290d565b5b612a078482856129be565b509392505050565b600082601f830112612a2457612a23612908565b5b8135612a348482602086016129cd565b91505092915050565b60008060008060808587031215612a5757612a566125f2565b5b6000612a658782880161261d565b9450506020612a768782880161261d565b935050604085013567ffffffffffffffff811115612a9757612a966125f7565b5b612aa387828801612a0f565b925050606085013567ffffffffffffffff811115612ac457612ac36125f7565b5b612ad087828801612a0f565b91505092959194509250565b6000604082019050612af16000830185612672565b8181036020830152612b03818461282f565b90509392505050565b600082825260208201905092915050565b7f6172656e61206973206e6f74206f70656e000000000000000000000000000000600082015250565b6000612b53601183612b0c565b9150612b5e82612b1d565b602082019050919050565b60006020820190508181036000830152612b8281612b46565b9050919050565b7f4e487b7100000000000000000000000000000000000000000000000000000000600052601260045260246000fd5b7f4e487b7100000000000000000000000000000000000000000000000000000000600052601160045260246000fd5b6000612bf2826125fc565b9150612bfd836125fc565b925082612c0d57612c0c612b89565b5b828204905092915050565b6000612c23826125fc565b9150612c2e836125fc565b9250828203905081811115612c4657612c45612bb8565b5b92915050565b6000612c57826125fc565b9150612c62836125fc565b9250828201905080821115612c7a57612c79612bb8565b5b92915050565b7f62726f6b652061737320676f74206e6f206d6f6e657900000000000000000000600082015250565b6000612cb6601683612b0c565b9150612cc182612c80565b602082019050919050565b60006020820190508181036000830152612ce581612ca9565b9050919050565b7f796f7520617265206e6f742074686520686f7374000000000000000000000000600082015250565b6000612d22601483612b0c565b9150612d2d82612cec565b602082019050919050565b60006020820190508181036000830152612d5181612d15565b9050919050565b7f796f7520617265206e6f7420696e20746865206172656e610000000000000000600082015250565b6000612d8e601883612b0c565b9150612d9982612d58565b602082019050919050565b60006020820190508181036000830152612dbd81612d81565b9050919050565b7f4e487b7100000000000000000000000000000000000000000000000000000000600052602260045260246000fd5b60006002820490506001821680612e0b57607f821691505b602082108103612e1e57612e1d612dc4565b5b50919050565b6000612e2f826125fc565b91507fffffffffffffffffffffffffffffffffffffffffffffffffffffffffffffffff8203612e6157612e60612bb8565b5b600182019050919050565b60008190508160005260206000209050919050565b60006020601f8301049050919050565b600082821b905092915050565b600060088302612ece7fffffffffffffffffffffffffffffffffffffffffffffffffffffffffffffffff82612e91565b612ed88683612e91565b95508019841693508086168417925050509392505050565b6000819050919050565b6000612f15612f10612f0b846125fc565b612ef0565b6125fc565b9050919050565b6000819050919050565b612f2f83612efa565b612f43612f3b82612f1c565b848454612e9e565b825550505050565b600090565b612f58612f4b565b612f63818484612f26565b505050565b5b81811015612f8757612f7c600082612f50565b600181019050612f69565b5050565b601f821115612fcc57612f9d81612e6c565b612fa684612e81565b81016020851015612fb5578190505b612fc9612fc185612e81565b830182612f68565b50505b505050565b600082821c905092915050565b6000612fef60001984600802612fd1565b1980831691505092915050565b60006130088383612fde565b9150826002028217905092915050565b6130218261279f565b67ffffffffffffffff81111561303a57613039612912565b5b6130448254612df3565b61304f828285612f8b565b600060209050601f8311600181146130825760008415613070578287015190505b61307a8582612ffc565b8655506130e2565b601f19841661309086612e6c565b60005b828110156130b857848901518255600182019150602085019450602081019050613093565b868310156130d557848901516130d1601f891682612fde565b8355505b6001600288020188555050505b505050505050565b60006130f5826125fc565b9150613100836125fc565b925082820261310e816125fc565b9150828204841483151761312557613124612bb8565b5b5092915050565b6000613137826125fc565b9150613142836125fc565b92508261315257613151612b89565b5b828206905092915050565b6000819050919050565b613178613173826125fc565b61315d565b82525050565b600061318a8287613167565b60208201915061319a8286613167565b6020820191506131aa8285613167565b6020820191506131ba8284613167565b6020820191508190509594505050505056fea2646970667358221220c79925c3b8b8073434b6b82ca242534c26c968dff57093a03c1e56a421ca794064736f6c63430008120033",
  "linkReferences": {},
  "deployedLinkReferences": {}
}