{
  "_format": "hh-sol-artifact-1",
  "contractName": "ArenaFacet",
  "sourceName": "contracts/facets/ArenaFacet.sol",
  "abi": [
    {
      "anonymous": false,
      "inputs": [
        {
          "indexed": true,
          "internalType": "uint256",
          "name": "_playerId",
          "type": "uint256"
        },
        {
          "indexed": true,
          "internalType": "uint256",
          "name": "_basicArenaId",
          "type": "uint256"
        }
      ],
      "name": "BasicArenaLoss",
      "type": "event"
    },
    {
      "anonymous": false,
      "inputs": [
        {
          "indexed": true,
          "internalType": "uint256",
          "name": "_playerId",
          "type": "uint256"
        },
        {
          "indexed": true,
          "internalType": "uint256",
          "name": "_basicArenaId",
          "type": "uint256"
        }
      ],
      "name": "BasicArenaWin",
      "type": "event"
    },
    {
      "anonymous": false,
      "inputs": [
        {
          "indexed": false,
          "internalType": "uint256",
          "name": "_basicArenaId",
          "type": "uint256"
        },
        {
          "components": [
            {
              "internalType": "uint256",
              "name": "basicArenaId",
              "type": "uint256"
            },
            {
              "internalType": "uint256",
              "name": "cost",
              "type": "uint256"
            },
            {
              "internalType": "uint256",
              "name": "cooldown",
              "type": "uint256"
            },
            {
              "internalType": "uint256",
              "name": "hostId",
              "type": "uint256"
            },
            {
              "internalType": "bool",
              "name": "open",
              "type": "bool"
            },
            {
              "internalType": "address payable",
              "name": "hostAddress",
              "type": "address"
            },
            {
              "internalType": "string",
              "name": "name",
              "type": "string"
            },
            {
              "internalType": "string",
              "name": "url",
              "type": "string"
            }
          ],
          "indexed": false,
          "internalType": "struct BasicArena",
          "name": "_basicArena",
          "type": "tuple"
        }
      ],
      "name": "CreateBasicArena",
      "type": "event"
    },
    {
      "anonymous": false,
      "inputs": [
        {
          "indexed": true,
          "internalType": "uint256",
          "name": "_playerId",
          "type": "uint256"
        },
        {
          "indexed": true,
          "internalType": "uint256",
          "name": "_basicArenaId",
          "type": "uint256"
        }
      ],
      "name": "EnterBasicArena",
      "type": "event"
    },
    {
      "anonymous": false,
      "inputs": [
        {
          "indexed": true,
          "internalType": "uint256",
          "name": "_playerId",
          "type": "uint256"
        },
        {
          "indexed": true,
          "internalType": "uint256",
          "name": "_basicArenaId",
          "type": "uint256"
        }
      ],
      "name": "LeaveBasicArena",
      "type": "event"
    },
    {
      "inputs": [
        {
          "internalType": "uint256",
          "name": "_cost",
          "type": "uint256"
        },
        {
          "internalType": "uint256",
          "name": "_cooldown",
          "type": "uint256"
        },
        {
          "internalType": "string",
          "name": "_name",
          "type": "string"
        },
        {
          "internalType": "string",
          "name": "_uri",
          "type": "string"
        }
      ],
      "name": "creatBasicArena",
      "outputs": [],
      "stateMutability": "nonpayable",
      "type": "function"
    },
    {
      "inputs": [
        {
          "internalType": "uint256",
          "name": "_playerId",
          "type": "uint256"
        },
        {
          "internalType": "uint256",
          "name": "_basicArenaId",
          "type": "uint256"
        }
      ],
      "name": "enterBasicArena",
      "outputs": [],
      "stateMutability": "nonpayable",
      "type": "function"
    },
    {
      "inputs": [
        {
          "internalType": "uint256",
          "name": "_playerId",
          "type": "uint256"
        },
        {
          "internalType": "uint256",
          "name": "_basicArenaId",
          "type": "uint256"
        }
      ],
      "name": "fightBaiscArena",
      "outputs": [],
      "stateMutability": "nonpayable",
      "type": "function"
    },
    {
      "inputs": [],
      "name": "freeGold",
      "outputs": [],
      "stateMutability": "nonpayable",
      "type": "function"
    },
    {
      "inputs": [
        {
          "internalType": "uint256",
          "name": "_basicArenaId",
          "type": "uint256"
        }
      ],
      "name": "getBasicArena",
      "outputs": [
        {
          "components": [
            {
              "internalType": "uint256",
              "name": "basicArenaId",
              "type": "uint256"
            },
            {
              "internalType": "uint256",
              "name": "cost",
              "type": "uint256"
            },
            {
              "internalType": "uint256",
              "name": "cooldown",
              "type": "uint256"
            },
            {
              "internalType": "uint256",
              "name": "hostId",
              "type": "uint256"
            },
            {
              "internalType": "bool",
              "name": "open",
              "type": "bool"
            },
            {
              "internalType": "address payable",
              "name": "hostAddress",
              "type": "address"
            },
            {
              "internalType": "string",
              "name": "name",
              "type": "string"
            },
            {
              "internalType": "string",
              "name": "url",
              "type": "string"
            }
          ],
          "internalType": "struct BasicArena",
          "name": "",
          "type": "tuple"
        }
      ],
      "stateMutability": "view",
      "type": "function"
    },
    {
      "inputs": [
        {
          "internalType": "uint256",
          "name": "_playerId",
          "type": "uint256"
        },
        {
          "internalType": "uint256",
          "name": "_basicArenaId",
          "type": "uint256"
        }
      ],
      "name": "getBasicArenaCooldowns",
      "outputs": [
        {
          "internalType": "uint256",
          "name": "",
          "type": "uint256"
        }
      ],
      "stateMutability": "view",
      "type": "function"
    },
    {
      "inputs": [],
      "name": "getBasicArenaCount",
      "outputs": [
        {
          "internalType": "uint256",
          "name": "",
          "type": "uint256"
        }
      ],
      "stateMutability": "view",
      "type": "function"
    },
    {
      "inputs": [
        {
          "internalType": "address",
          "name": "_address",
          "type": "address"
        }
      ],
      "name": "getGoldBalance",
      "outputs": [
        {
          "internalType": "uint256",
          "name": "",
          "type": "uint256"
        }
      ],
      "stateMutability": "view",
      "type": "function"
    },
    {
      "inputs": [
        {
          "internalType": "uint256",
          "name": "_playerId",
          "type": "uint256"
        }
      ],
      "name": "getTotalLosses",
      "outputs": [
        {
          "internalType": "uint256",
          "name": "",
          "type": "uint256"
        }
      ],
      "stateMutability": "view",
      "type": "function"
    },
    {
      "inputs": [
        {
          "internalType": "uint256",
          "name": "_playerId",
          "type": "uint256"
        }
      ],
      "name": "getTotalWins",
      "outputs": [
        {
          "internalType": "uint256",
          "name": "",
          "type": "uint256"
        }
      ],
      "stateMutability": "view",
      "type": "function"
    },
    {
      "inputs": [
        {
          "internalType": "uint256",
          "name": "_playerId",
          "type": "uint256"
        },
        {
          "internalType": "uint256",
          "name": "_basicArenaId",
          "type": "uint256"
        }
      ],
      "name": "leaveBasicArena",
      "outputs": [],
      "stateMutability": "nonpayable",
      "type": "function"
    }
  ],
  "bytecode": "0x608060405234801561001057600080fd5b50612339806100206000396000f3fe608060405234801561001057600080fd5b50600436106100a95760003560e01c806354e8a31a1161007157806354e8a31a1461015257806359735adc14610182578063c7f3ade51461019e578063c8fe5c47146101ba578063cc8d469d146101d6578063fb944ffc14610206576100a9565b80630b93942a146100ae5780632d2c17be146100ca57806333f453af146100e85780633707caf2146100f25780634f7d08e514610122575b600080fd5b6100c860048036038101906100c39190611769565b610236565b005b6100d2610272565b6040516100df91906117b8565b60405180910390f35b6100f0610281565b005b61010c60048036038101906101079190611831565b61028b565b60405161011991906117b8565b60405180910390f35b61013c6004803603810190610137919061185e565b61029d565b60405161014991906117b8565b60405180910390f35b61016c6004803603810190610167919061185e565b6102af565b6040516101799190611a1d565b60405180910390f35b61019c60048036038101906101979190611b74565b6102c7565b005b6101b860048036038101906101b39190611769565b610327565b005b6101d460048036038101906101cf9190611769565b61039e565b005b6101f060048036038101906101eb9190611769565b6103da565b6040516101fd91906117b8565b60405180910390f35b610220600480360381019061021b919061185e565b6103ee565b60405161022d91906117b8565b60405180910390f35b6102408282610400565b80827f429a014671400a39eaa0b16744a56044df14e9b9124a3919f8425a0b471e25e960405160405180910390a35050565b600061027c61079e565b905090565b6102896107b6565b565b60006102968261081e565b9050919050565b60006102a882610875565b9050919050565b6102b76116c2565b6102c0826108a0565b9050919050565b6102d384848484610a9a565b60006102dd61079e565b90507fa8944f13c384569cd759dea69a02c83263e937c72f585de37fa46b4bb55b6b088161030a836102af565b604051610318929190611c13565b60405180910390a15050505050565b6000806103348484610bf6565b809250819350505082827fe5783c40c14d69971fbf9d435486b3a0469a026e4cacbd5e543c18ddd293eca560405160405180910390a382817ff07fe1bc469a482805ec42d00e7477d9bacbd901aedac046ea74d6a10ce2b04a60405160405180910390a350505050565b6103a88282611160565b80827ff4debd39acd9b010e1276185a3f67b145758748b94e0145ce176c42ae6d27a4f60405160405180910390a35050565b60006103e6838361138a565b905092915050565b60006103f9826113c7565b9050919050565b600061040a6113f2565b9050600061041661141f565b9050600061042261144c565b90506000836003016000878152602001908152602001600020600201541461044957600080fd5b3373ffffffffffffffffffffffffffffffffffffffff1683600201600087815260200190815260200160002060009054906101000a900473ffffffffffffffffffffffffffffffffffffffff1673ffffffffffffffffffffffffffffffffffffffff16146104b657600080fd5b600081600101600086815260200190815260200160002090508060040160009054906101000a900460ff16610520576040517f08c379a000000000000000000000000000000000000000000000000000000000815260040161051790611ca0565b60405180910390fd5b6000600282600201546105339190611d1e565b85600301600089815260200190815260200160002060090154101561059a57600a856003016000898152602001908152602001600020600901546002846002015461057e9190611d1e565b6105889190611d4f565b6105929190611d83565b9050806105af565b600282600201546105ab9190611d1e565b9050805b50808360020160008881526020019081526020016000206000898152602001908152602001600020546105e29190611d83565b4210156105ee57600080fd5b81600101548460010160003373ffffffffffffffffffffffffffffffffffffffff1673ffffffffffffffffffffffffffffffffffffffff168152602001908152602001600020541015610676576040517f08c379a000000000000000000000000000000000000000000000000000000000815260040161066d90611e03565b60405180910390fd5b81600101548460010160003373ffffffffffffffffffffffffffffffffffffffff1673ffffffffffffffffffffffffffffffffffffffff16815260200190815260200160002060008282546106cb9190611d4f565b92505081905550600485600301600089815260200190815260200160002060020181905550600083600101600088815260200190815260200160002060040160006101000a81548160ff02191690831515021790555086836001016000888152602001908152602001600020600301819055503383600101600088815260200190815260200160002060040160016101000a81548173ffffffffffffffffffffffffffffffffffffffff021916908373ffffffffffffffffffffffffffffffffffffffff16021790555050505050505050565b6000806107a961144c565b9050806000015491505090565b60006107c061141f565b905060648160010160003373ffffffffffffffffffffffffffffffffffffffff1673ffffffffffffffffffffffffffffffffffffffff16815260200190815260200160002060008282546108149190611d83565b9250508190555050565b60008061082961141f565b90508060010160008473ffffffffffffffffffffffffffffffffffffffff1673ffffffffffffffffffffffffffffffffffffffff16815260200190815260200160002054915050919050565b60008061088061144c565b905080600801600084815260200190815260200160002054915050919050565b6108a86116c2565b60006108b261144c565b905080600101600084815260200190815260200160002060405180610100016040529081600082015481526020016001820154815260200160028201548152602001600382015481526020016004820160009054906101000a900460ff161515151581526020016004820160019054906101000a900473ffffffffffffffffffffffffffffffffffffffff1673ffffffffffffffffffffffffffffffffffffffff1673ffffffffffffffffffffffffffffffffffffffff16815260200160058201805461097e90611e52565b80601f01602080910402602001604051908101604052809291908181526020018280546109aa90611e52565b80156109f75780601f106109cc576101008083540402835291602001916109f7565b820191906000526020600020905b8154815290600101906020018083116109da57829003601f168201915b50505050508152602001600682018054610a1090611e52565b80601f0160208091040260200160405190810160405280929190818152602001828054610a3c90611e52565b8015610a895780601f10610a5e57610100808354040283529160200191610a89565b820191906000526020600020905b815481529060010190602001808311610a6c57829003601f168201915b505050505081525050915050919050565b6000610aa461144c565b9050806000016000815480929190610abb90611e83565b919050555060405180610100016040528082600001548152602001868152602001858152602001600081526020016001151581526020013373ffffffffffffffffffffffffffffffffffffffff16815260200184815260200183815250816001016000836000015481526020019081526020016000206000820151816000015560208201518160010155604082015181600201556060820151816003015560808201518160040160006101000a81548160ff02191690831515021790555060a08201518160040160016101000a81548173ffffffffffffffffffffffffffffffffffffffff021916908373ffffffffffffffffffffffffffffffffffffffff16021790555060c0820151816005019081610bd59190612077565b5060e0820151816006019081610beb9190612077565b509050505050505050565b6000806000610c036113f2565b90506000610c0f61141f565b90506000610c1b61144c565b905060008360030160008981526020019081526020016000206002015414610c4257600080fd5b3373ffffffffffffffffffffffffffffffffffffffff1683600201600089815260200190815260200160002060009054906101000a900473ffffffffffffffffffffffffffffffffffffffff1673ffffffffffffffffffffffffffffffffffffffff1614610caf57600080fd5b600081600101600088815260200190815260200160002090508060040160009054906101000a900460ff1615610d1a576040517f08c379a0000000000000000000000000000000000000000000000000000000008152600401610d1190611ca0565b60405180910390fd5b600060028260020154610d2d9190611d1e565b8560030160008b8152602001908152602001600020600901541015610d9457600a8560030160008b81526020019081526020016000206009015460028460020154610d789190611d1e565b610d829190611d4f565b610d8c9190611d83565b905080610da9565b60028260020154610da59190611d1e565b9050805b50808360020160008a815260200190815260200160002060008b815260200190815260200160002054610ddc9190611d83565b421015610de857600080fd5b81600101548460010160003373ffffffffffffffffffffffffffffffffffffffff1673ffffffffffffffffffffffffffffffffffffffff168152602001908152602001600020541015610e70576040517f08c379a0000000000000000000000000000000000000000000000000000000008152600401610e6790611e03565b60405180910390fd5b6000610e8083600301548b611479565b90506000808b8303610f51578b9150846003015490508560080160008d81526020019081526020016000206000815480929190610ebc90611e83565b9190505550856009016000866003015481526020019081526020016000206000815480929190610eeb90611e83565b919050555084600101548760010160003373ffffffffffffffffffffffffffffffffffffffff1673ffffffffffffffffffffffffffffffffffffffff1681526020019081526020016000206000828254610f459190611d83565b9250508190555061109e565b846003015491508b9050856008016000866003015481526020019081526020016000206000815480929190610f8590611e83565b91905055508560090160008d81526020019081526020016000206000815480929190610fb090611e83565b919050555060028560010154610fc69190612149565b8760010160008760040160019054906101000a900473ffffffffffffffffffffffffffffffffffffffff1673ffffffffffffffffffffffffffffffffffffffff1673ffffffffffffffffffffffffffffffffffffffff168152602001908152602001600020600082825461103a9190611d83565b9250508190555084600101548760010160003373ffffffffffffffffffffffffffffffffffffffff1673ffffffffffffffffffffffffffffffffffffffff16815260200190815260200160002060008282546110969190611d4f565b925050819055505b428660020160008d815260200190815260200160002060008e815260200190815260200160002081905550428660020160008d81526020019081526020016000206000876003015481526020019081526020016000208190555060018660010160008d815260200190815260200160002060040160006101000a81548160ff0219169083151502179055506000886003016000876003015481526020019081526020016000206002018190555081819950995050505050505050509250929050565b600061116a61144c565b905060006111766113f2565b9050600061118261141f565b90508483600101600086815260200190815260200160002060030154146111de576040517f08c379a00000000000000000000000000000000000000000000000000000000081526004016111d5906121d7565b60405180910390fd5b60048260030160008781526020019081526020016000206002015414611239576040517f08c379a000000000000000000000000000000000000000000000000000000000815260040161123090612243565b60405180910390fd5b3373ffffffffffffffffffffffffffffffffffffffff1682600201600087815260200190815260200160002060009054906101000a900473ffffffffffffffffffffffffffffffffffffffff1673ffffffffffffffffffffffffffffffffffffffff16146112a657600080fd5b600083600101600086815260200190815260200160002060030181905550600183600101600086815260200190815260200160002060040160006101000a81548160ff021916908315150217905550600082600301600087815260200190815260200160002060020181905550826001016000858152602001908152602001600020600101548160010160003373ffffffffffffffffffffffffffffffffffffffff1673ffffffffffffffffffffffffffffffffffffffff168152602001908152602001600020600082825461137c9190611d83565b925050819055505050505050565b60008061139561144c565b905080600201600084815260200190815260200160002060008581526020019081526020016000205491505092915050565b6000806113d261144c565b905080600901600084815260200190815260200160002054915050919050565b6000807f3cab9a070a0c61cd0ae9d9e9e2c0781e5ca8691bec4087e5a4701d5ac018dd4e90508091505090565b6000807f2c89d74504b6ad8d4fbde22bc3474166bac5452a11195897f239d8bebe02d70790508091505090565b6000807f1b1c2350f60dba32e7a2436167ce3f8399cd1c51a95c8577f1448f53846d4cda90508091505090565b6000806114846113f2565b9050600081600301600086815260200190815260200160002090506000826003016000868152602001908152602001600020905060006114c8868360030154611640565b905060006114da888560030154611640565b905083600e015484600501546114f09190611d83565b82106115195760008560030160008a815260200190815260200160002060050181905550611564565b83600e015482106115635783600e0154826115349190611d4f565b8560030160008a8152602001908152602001600020600501600082825461155b9190611d4f565b925050819055505b5b82600e015483600501546115789190611d83565b81106115a1576000856003016000898152602001908152602001600020600501819055506115ec565b82600e015481106115eb5782600e0154816115bc9190611d4f565b85600301600089815260200190815260200160002060050160008282546115e39190611d4f565b925050819055505b5b8460030160008981526020019081526020016000206005015485600301600089815260200190815260200160002060050154111561163157869550505050505061163a565b87955050505050505b92915050565b600080606460096116518686611688565b61165b9190612263565b6116659190611d83565b9050606481846116759190612149565b61167f9190611d1e565b91505092915050565b6000424484846040516020016116a194939291906122b5565b6040516020818303038152906040528051906020012060001c905092915050565b60405180610100016040528060008152602001600081526020016000815260200160008152602001600015158152602001600073ffffffffffffffffffffffffffffffffffffffff16815260200160608152602001606081525090565b6000604051905090565b600080fd5b600080fd5b6000819050919050565b61174681611733565b811461175157600080fd5b50565b6000813590506117638161173d565b92915050565b600080604083850312156117805761177f611729565b5b600061178e85828601611754565b925050602061179f85828601611754565b9150509250929050565b6117b281611733565b82525050565b60006020820190506117cd60008301846117a9565b92915050565b600073ffffffffffffffffffffffffffffffffffffffff82169050919050565b60006117fe826117d3565b9050919050565b61180e816117f3565b811461181957600080fd5b50565b60008135905061182b81611805565b92915050565b60006020828403121561184757611846611729565b5b60006118558482850161181c565b91505092915050565b60006020828403121561187457611873611729565b5b600061188284828501611754565b91505092915050565b61189481611733565b82525050565b60008115159050919050565b6118af8161189a565b82525050565b60006118c0826117d3565b9050919050565b6118d0816118b5565b82525050565b600081519050919050565b600082825260208201905092915050565b60005b838110156119105780820151818401526020810190506118f5565b60008484015250505050565b6000601f19601f8301169050919050565b6000611938826118d6565b61194281856118e1565b93506119528185602086016118f2565b61195b8161191c565b840191505092915050565b60006101008301600083015161197f600086018261188b565b506020830151611992602086018261188b565b5060408301516119a5604086018261188b565b5060608301516119b8606086018261188b565b5060808301516119cb60808601826118a6565b5060a08301516119de60a08601826118c7565b5060c083015184820360c08601526119f6828261192d565b91505060e083015184820360e0860152611a10828261192d565b9150508091505092915050565b60006020820190508181036000830152611a378184611966565b905092915050565b600080fd5b600080fd5b7f4e487b7100000000000000000000000000000000000000000000000000000000600052604160045260246000fd5b611a818261191c565b810181811067ffffffffffffffff82111715611aa057611a9f611a49565b5b80604052505050565b6000611ab361171f565b9050611abf8282611a78565b919050565b600067ffffffffffffffff821115611adf57611ade611a49565b5b611ae88261191c565b9050602081019050919050565b82818337600083830152505050565b6000611b17611b1284611ac4565b611aa9565b905082815260208101848484011115611b3357611b32611a44565b5b611b3e848285611af5565b509392505050565b600082601f830112611b5b57611b5a611a3f565b5b8135611b6b848260208601611b04565b91505092915050565b60008060008060808587031215611b8e57611b8d611729565b5b6000611b9c87828801611754565b9450506020611bad87828801611754565b935050604085013567ffffffffffffffff811115611bce57611bcd61172e565b5b611bda87828801611b46565b925050606085013567ffffffffffffffff811115611bfb57611bfa61172e565b5b611c0787828801611b46565b91505092959194509250565b6000604082019050611c2860008301856117a9565b8181036020830152611c3a8184611966565b90509392505050565b600082825260208201905092915050565b7f6172656e61206973206e6f74206f70656e000000000000000000000000000000600082015250565b6000611c8a601183611c43565b9150611c9582611c54565b602082019050919050565b60006020820190508181036000830152611cb981611c7d565b9050919050565b7f4e487b7100000000000000000000000000000000000000000000000000000000600052601260045260246000fd5b7f4e487b7100000000000000000000000000000000000000000000000000000000600052601160045260246000fd5b6000611d2982611733565b9150611d3483611733565b925082611d4457611d43611cc0565b5b828204905092915050565b6000611d5a82611733565b9150611d6583611733565b9250828203905081811115611d7d57611d7c611cef565b5b92915050565b6000611d8e82611733565b9150611d9983611733565b9250828201905080821115611db157611db0611cef565b5b92915050565b7f62726f6b652061737320676f74206e6f206d6f6e657900000000000000000000600082015250565b6000611ded601683611c43565b9150611df882611db7565b602082019050919050565b60006020820190508181036000830152611e1c81611de0565b9050919050565b7f4e487b7100000000000000000000000000000000000000000000000000000000600052602260045260246000fd5b60006002820490506001821680611e6a57607f821691505b602082108103611e7d57611e7c611e23565b5b50919050565b6000611e8e82611733565b91507fffffffffffffffffffffffffffffffffffffffffffffffffffffffffffffffff8203611ec057611ebf611cef565b5b600182019050919050565b60008190508160005260206000209050919050565b60006020601f8301049050919050565b600082821b905092915050565b600060088302611f2d7fffffffffffffffffffffffffffffffffffffffffffffffffffffffffffffffff82611ef0565b611f378683611ef0565b95508019841693508086168417925050509392505050565b6000819050919050565b6000611f74611f6f611f6a84611733565b611f4f565b611733565b9050919050565b6000819050919050565b611f8e83611f59565b611fa2611f9a82611f7b565b848454611efd565b825550505050565b600090565b611fb7611faa565b611fc2818484611f85565b505050565b5b81811015611fe657611fdb600082611faf565b600181019050611fc8565b5050565b601f82111561202b57611ffc81611ecb565b61200584611ee0565b81016020851015612014578190505b61202861202085611ee0565b830182611fc7565b50505b505050565b600082821c905092915050565b600061204e60001984600802612030565b1980831691505092915050565b6000612067838361203d565b9150826002028217905092915050565b612080826118d6565b67ffffffffffffffff81111561209957612098611a49565b5b6120a38254611e52565b6120ae828285611fea565b600060209050601f8311600181146120e157600084156120cf578287015190505b6120d9858261205b565b865550612141565b601f1984166120ef86611ecb565b60005b82811015612117578489015182556001820191506020850194506020810190506120f2565b868310156121345784890151612130601f89168261203d565b8355505b6001600288020188555050505b505050505050565b600061215482611733565b915061215f83611733565b925082820261216d81611733565b9150828204841483151761218457612183611cef565b5b5092915050565b7f796f7520617265206e6f742074686520686f7374000000000000000000000000600082015250565b60006121c1601483611c43565b91506121cc8261218b565b602082019050919050565b600060208201905081810360008301526121f0816121b4565b9050919050565b7f796f7520617265206e6f7420696e20746865206172656e610000000000000000600082015250565b600061222d601883611c43565b9150612238826121f7565b602082019050919050565b6000602082019050818103600083015261225c81612220565b9050919050565b600061226e82611733565b915061227983611733565b92508261228957612288611cc0565b5b828206905092915050565b6000819050919050565b6122af6122aa82611733565b612294565b82525050565b60006122c1828761229e565b6020820191506122d1828661229e565b6020820191506122e1828561229e565b6020820191506122f1828461229e565b6020820191508190509594505050505056fea264697066735822122046200e6ab4a4ee0e54e333f6e8beb659867f2c3b41934831cdf85f7cc746af3064736f6c63430008120033",
  "linkReferences": {},
  "deployedLinkReferences": {}
}