{
  "_format": "hh-sol-artifact-1",
  "contractName": "ArenaFacet",
  "sourceName": "contracts/facets/ArenaFacet.sol",
  "abi": [
    {
      "anonymous": false,
      "inputs": [
        {
          "indexed": true,
          "internalType": "uint256",
          "name": "_playerId",
          "type": "uint256"
        },
        {
          "indexed": true,
          "internalType": "uint256",
          "name": "_basicArenaId",
          "type": "uint256"
        }
      ],
      "name": "BasicArenaLoss",
      "type": "event"
    },
    {
      "anonymous": false,
      "inputs": [
        {
          "indexed": true,
          "internalType": "uint256",
          "name": "_playerId",
          "type": "uint256"
        },
        {
          "indexed": true,
          "internalType": "uint256",
          "name": "_basicArenaId",
          "type": "uint256"
        }
      ],
      "name": "BasicArenaWin",
      "type": "event"
    },
    {
      "anonymous": false,
      "inputs": [
        {
          "indexed": false,
          "internalType": "uint256",
          "name": "_basicArenaId",
          "type": "uint256"
        },
        {
          "components": [
            {
              "internalType": "uint256",
              "name": "basicArenaId",
              "type": "uint256"
            },
            {
              "internalType": "uint256",
              "name": "cost",
              "type": "uint256"
            },
            {
              "internalType": "uint256",
              "name": "cooldown",
              "type": "uint256"
            },
            {
              "internalType": "uint256",
              "name": "hostId",
              "type": "uint256"
            },
            {
              "internalType": "bool",
              "name": "open",
              "type": "bool"
            },
            {
              "internalType": "address payable",
              "name": "hostAddress",
              "type": "address"
            },
            {
              "internalType": "string",
              "name": "name",
              "type": "string"
            },
            {
              "internalType": "string",
              "name": "url",
              "type": "string"
            }
          ],
          "indexed": false,
          "internalType": "struct BasicArena",
          "name": "_basicArena",
          "type": "tuple"
        }
      ],
      "name": "CreateBasicArena",
      "type": "event"
    },
    {
      "anonymous": false,
      "inputs": [
        {
          "indexed": false,
          "internalType": "uint256",
          "name": "_hillArenaId",
          "type": "uint256"
        },
        {
          "components": [
            {
              "internalType": "uint256",
              "name": "hillArenaId",
              "type": "uint256"
            },
            {
              "internalType": "uint256",
              "name": "cost",
              "type": "uint256"
            },
            {
              "internalType": "uint256",
              "name": "cooldown",
              "type": "uint256"
            },
            {
              "internalType": "uint256",
              "name": "hostId",
              "type": "uint256"
            },
            {
              "internalType": "uint256",
              "name": "wins",
              "type": "uint256"
            },
            {
              "internalType": "bool",
              "name": "open",
              "type": "bool"
            },
            {
              "internalType": "address payable",
              "name": "hostAddress",
              "type": "address"
            },
            {
              "internalType": "string",
              "name": "name",
              "type": "string"
            },
            {
              "internalType": "string",
              "name": "url",
              "type": "string"
            }
          ],
          "indexed": false,
          "internalType": "struct HillArena",
          "name": "_hillArena",
          "type": "tuple"
        }
      ],
      "name": "CreateHillArena",
      "type": "event"
    },
    {
      "anonymous": false,
      "inputs": [
        {
          "indexed": true,
          "internalType": "uint256",
          "name": "_playerId",
          "type": "uint256"
        },
        {
          "indexed": true,
          "internalType": "uint256",
          "name": "_basicArenaId",
          "type": "uint256"
        }
      ],
      "name": "EnterBasicArena",
      "type": "event"
    },
    {
      "anonymous": false,
      "inputs": [
        {
          "indexed": true,
          "internalType": "uint256",
          "name": "_playerId",
          "type": "uint256"
        },
        {
          "indexed": true,
          "internalType": "uint256",
          "name": "_basicArenaId",
          "type": "uint256"
        }
      ],
      "name": "LeaveBasicArena",
      "type": "event"
    },
    {
      "inputs": [
        {
          "internalType": "uint256",
          "name": "_cost",
          "type": "uint256"
        },
        {
          "internalType": "uint256",
          "name": "_cooldown",
          "type": "uint256"
        },
        {
          "internalType": "string",
          "name": "_name",
          "type": "string"
        },
        {
          "internalType": "string",
          "name": "_uri",
          "type": "string"
        }
      ],
      "name": "creatBasicArena",
      "outputs": [],
      "stateMutability": "nonpayable",
      "type": "function"
    },
    {
      "inputs": [
        {
          "internalType": "uint256",
          "name": "_cost",
          "type": "uint256"
        },
        {
          "internalType": "uint256",
          "name": "_cooldown",
          "type": "uint256"
        },
        {
          "internalType": "string",
          "name": "_name",
          "type": "string"
        },
        {
          "internalType": "string",
          "name": "_uri",
          "type": "string"
        }
      ],
      "name": "creatHillArena",
      "outputs": [],
      "stateMutability": "nonpayable",
      "type": "function"
    },
    {
      "inputs": [
        {
          "internalType": "uint256",
          "name": "_playerId",
          "type": "uint256"
        },
        {
          "internalType": "uint256",
          "name": "_basicArenaId",
          "type": "uint256"
        }
      ],
      "name": "enterBasicArena",
      "outputs": [],
      "stateMutability": "nonpayable",
      "type": "function"
    },
    {
      "inputs": [
        {
          "internalType": "uint256",
          "name": "_playerId",
          "type": "uint256"
        },
        {
          "internalType": "uint256",
          "name": "_basicArenaId",
          "type": "uint256"
        }
      ],
      "name": "fightBaiscArena",
      "outputs": [],
      "stateMutability": "nonpayable",
      "type": "function"
    },
    {
      "inputs": [],
      "name": "freeGold",
      "outputs": [],
      "stateMutability": "nonpayable",
      "type": "function"
    },
    {
      "inputs": [
        {
          "internalType": "uint256",
          "name": "_basicArenaId",
          "type": "uint256"
        }
      ],
      "name": "getBasicArena",
      "outputs": [
        {
          "components": [
            {
              "internalType": "uint256",
              "name": "basicArenaId",
              "type": "uint256"
            },
            {
              "internalType": "uint256",
              "name": "cost",
              "type": "uint256"
            },
            {
              "internalType": "uint256",
              "name": "cooldown",
              "type": "uint256"
            },
            {
              "internalType": "uint256",
              "name": "hostId",
              "type": "uint256"
            },
            {
              "internalType": "bool",
              "name": "open",
              "type": "bool"
            },
            {
              "internalType": "address payable",
              "name": "hostAddress",
              "type": "address"
            },
            {
              "internalType": "string",
              "name": "name",
              "type": "string"
            },
            {
              "internalType": "string",
              "name": "url",
              "type": "string"
            }
          ],
          "internalType": "struct BasicArena",
          "name": "",
          "type": "tuple"
        }
      ],
      "stateMutability": "view",
      "type": "function"
    },
    {
      "inputs": [
        {
          "internalType": "uint256",
          "name": "_playerId",
          "type": "uint256"
        },
        {
          "internalType": "uint256",
          "name": "_basicArenaId",
          "type": "uint256"
        }
      ],
      "name": "getBasicArenaCooldowns",
      "outputs": [
        {
          "internalType": "uint256",
          "name": "",
          "type": "uint256"
        }
      ],
      "stateMutability": "view",
      "type": "function"
    },
    {
      "inputs": [],
      "name": "getBasicArenaCount",
      "outputs": [
        {
          "internalType": "uint256",
          "name": "",
          "type": "uint256"
        }
      ],
      "stateMutability": "view",
      "type": "function"
    },
    {
      "inputs": [
        {
          "internalType": "address",
          "name": "_address",
          "type": "address"
        }
      ],
      "name": "getGoldBalance",
      "outputs": [
        {
          "internalType": "uint256",
          "name": "",
          "type": "uint256"
        }
      ],
      "stateMutability": "view",
      "type": "function"
    },
    {
      "inputs": [
        {
          "internalType": "uint256",
          "name": "_playerId",
          "type": "uint256"
        }
      ],
      "name": "getTotalLosses",
      "outputs": [
        {
          "internalType": "uint256",
          "name": "",
          "type": "uint256"
        }
      ],
      "stateMutability": "view",
      "type": "function"
    },
    {
      "inputs": [
        {
          "internalType": "uint256",
          "name": "_playerId",
          "type": "uint256"
        }
      ],
      "name": "getTotalWins",
      "outputs": [
        {
          "internalType": "uint256",
          "name": "",
          "type": "uint256"
        }
      ],
      "stateMutability": "view",
      "type": "function"
    },
    {
      "inputs": [
        {
          "internalType": "uint256",
          "name": "_playerId",
          "type": "uint256"
        },
        {
          "internalType": "uint256",
          "name": "_basicArenaId",
          "type": "uint256"
        }
      ],
      "name": "leaveBasicArena",
      "outputs": [],
      "stateMutability": "nonpayable",
      "type": "function"
    }
  ],
  "bytecode": "0x608060405234801561001057600080fd5b50612464806100206000396000f3fe608060405234801561001057600080fd5b50600436106100b45760003560e01c806359735adc1161007157806359735adc1461018d578063c7f3ade5146101a9578063c8fe5c47146101c5578063cc8d469d146101e1578063f248251314610211578063fb944ffc1461022d576100b4565b80630b93942a146100b95780632d2c17be146100d557806333f453af146100f35780633707caf2146100fd5780634f7d08e51461012d57806354e8a31a1461015d575b600080fd5b6100d360048036038101906100ce9190611894565b61025d565b005b6100dd610299565b6040516100ea91906118e3565b60405180910390f35b6100fb6102a8565b005b6101176004803603810190610112919061195c565b6102b2565b60405161012491906118e3565b60405180910390f35b61014760048036038101906101429190611989565b6102c4565b60405161015491906118e3565b60405180910390f35b61017760048036038101906101729190611989565b6102d6565b6040516101849190611b48565b60405180910390f35b6101a760048036038101906101a29190611c9f565b6102ee565b005b6101c360048036038101906101be9190611894565b6103a0565b005b6101df60048036038101906101da9190611894565b610417565b005b6101fb60048036038101906101f69190611894565b610453565b60405161020891906118e3565b60405180910390f35b61022b60048036038101906102269190611c9f565b610467565b005b61024760048036038101906102429190611989565b610519565b60405161025491906118e3565b60405180910390f35b610267828261052b565b80827f429a014671400a39eaa0b16744a56044df14e9b9124a3919f8425a0b471e25e960405160405180910390a35050565b60006102a36108c9565b905090565b6102b06108e1565b565b60006102bd82610949565b9050919050565b60006102cf826109a0565b9050919050565b6102de6117ed565b6102e7826109cb565b9050919050565b600073434d36f32abed3f7937fe0be88dc1b0eb938124490508073ffffffffffffffffffffffffffffffffffffffff163373ffffffffffffffffffffffffffffffffffffffff161461033f57600080fd5b61034b85858585610bc5565b60006103556108c9565b90507fa8944f13c384569cd759dea69a02c83263e937c72f585de37fa46b4bb55b6b0881610382836102d6565b604051610390929190611d3e565b60405180910390a1505050505050565b6000806103ad8484610d21565b809250819350505082827fe5783c40c14d69971fbf9d435486b3a0469a026e4cacbd5e543c18ddd293eca560405160405180910390a382817ff07fe1bc469a482805ec42d00e7477d9bacbd901aedac046ea74d6a10ce2b04a60405160405180910390a350505050565b610421828261128b565b80827ff4debd39acd9b010e1276185a3f67b145758748b94e0145ce176c42ae6d27a4f60405160405180910390a35050565b600061045f83836114b5565b905092915050565b600073434d36f32abed3f7937fe0be88dc1b0eb938124490508073ffffffffffffffffffffffffffffffffffffffff163373ffffffffffffffffffffffffffffffffffffffff16146104b857600080fd5b6104c485858585610bc5565b60006104ce6108c9565b90507fa8944f13c384569cd759dea69a02c83263e937c72f585de37fa46b4bb55b6b08816104fb836102d6565b604051610509929190611d3e565b60405180910390a1505050505050565b6000610524826114f2565b9050919050565b600061053561151d565b9050600061054161154a565b9050600061054d611577565b90506000836003016000878152602001908152602001600020600201541461057457600080fd5b3373ffffffffffffffffffffffffffffffffffffffff1683600201600087815260200190815260200160002060009054906101000a900473ffffffffffffffffffffffffffffffffffffffff1673ffffffffffffffffffffffffffffffffffffffff16146105e157600080fd5b600081600101600086815260200190815260200160002090508060040160009054906101000a900460ff1661064b576040517f08c379a000000000000000000000000000000000000000000000000000000000815260040161064290611dcb565b60405180910390fd5b60006002826002015461065e9190611e49565b8560030160008981526020019081526020016000206009015410156106c557600a85600301600089815260200190815260200160002060090154600284600201546106a99190611e49565b6106b39190611e7a565b6106bd9190611eae565b9050806106da565b600282600201546106d69190611e49565b9050805b508083600201600088815260200190815260200160002060008981526020019081526020016000205461070d9190611eae565b42101561071957600080fd5b81600101548460010160003373ffffffffffffffffffffffffffffffffffffffff1673ffffffffffffffffffffffffffffffffffffffff1681526020019081526020016000205410156107a1576040517f08c379a000000000000000000000000000000000000000000000000000000000815260040161079890611f2e565b60405180910390fd5b81600101548460010160003373ffffffffffffffffffffffffffffffffffffffff1673ffffffffffffffffffffffffffffffffffffffff16815260200190815260200160002060008282546107f69190611e7a565b92505081905550600485600301600089815260200190815260200160002060020181905550600083600101600088815260200190815260200160002060040160006101000a81548160ff02191690831515021790555086836001016000888152602001908152602001600020600301819055503383600101600088815260200190815260200160002060040160016101000a81548173ffffffffffffffffffffffffffffffffffffffff021916908373ffffffffffffffffffffffffffffffffffffffff16021790555050505050505050565b6000806108d4611577565b9050806000015491505090565b60006108eb61154a565b905060648160010160003373ffffffffffffffffffffffffffffffffffffffff1673ffffffffffffffffffffffffffffffffffffffff168152602001908152602001600020600082825461093f9190611eae565b9250508190555050565b60008061095461154a565b90508060010160008473ffffffffffffffffffffffffffffffffffffffff1673ffffffffffffffffffffffffffffffffffffffff16815260200190815260200160002054915050919050565b6000806109ab611577565b905080600a01600084815260200190815260200160002054915050919050565b6109d36117ed565b60006109dd611577565b905080600101600084815260200190815260200160002060405180610100016040529081600082015481526020016001820154815260200160028201548152602001600382015481526020016004820160009054906101000a900460ff161515151581526020016004820160019054906101000a900473ffffffffffffffffffffffffffffffffffffffff1673ffffffffffffffffffffffffffffffffffffffff1673ffffffffffffffffffffffffffffffffffffffff168152602001600582018054610aa990611f7d565b80601f0160208091040260200160405190810160405280929190818152602001828054610ad590611f7d565b8015610b225780601f10610af757610100808354040283529160200191610b22565b820191906000526020600020905b815481529060010190602001808311610b0557829003601f168201915b50505050508152602001600682018054610b3b90611f7d565b80601f0160208091040260200160405190810160405280929190818152602001828054610b6790611f7d565b8015610bb45780601f10610b8957610100808354040283529160200191610bb4565b820191906000526020600020905b815481529060010190602001808311610b9757829003601f168201915b505050505081525050915050919050565b6000610bcf611577565b9050806000016000815480929190610be690611fae565b919050555060405180610100016040528082600001548152602001868152602001858152602001600081526020016001151581526020013373ffffffffffffffffffffffffffffffffffffffff16815260200184815260200183815250816001016000836000015481526020019081526020016000206000820151816000015560208201518160010155604082015181600201556060820151816003015560808201518160040160006101000a81548160ff02191690831515021790555060a08201518160040160016101000a81548173ffffffffffffffffffffffffffffffffffffffff021916908373ffffffffffffffffffffffffffffffffffffffff16021790555060c0820151816005019081610d0091906121a2565b5060e0820151816006019081610d1691906121a2565b509050505050505050565b6000806000610d2e61151d565b90506000610d3a61154a565b90506000610d46611577565b905060008360030160008981526020019081526020016000206002015414610d6d57600080fd5b3373ffffffffffffffffffffffffffffffffffffffff1683600201600089815260200190815260200160002060009054906101000a900473ffffffffffffffffffffffffffffffffffffffff1673ffffffffffffffffffffffffffffffffffffffff1614610dda57600080fd5b600081600101600088815260200190815260200160002090508060040160009054906101000a900460ff1615610e45576040517f08c379a0000000000000000000000000000000000000000000000000000000008152600401610e3c90611dcb565b60405180910390fd5b600060028260020154610e589190611e49565b8560030160008b8152602001908152602001600020600901541015610ebf57600a8560030160008b81526020019081526020016000206009015460028460020154610ea39190611e49565b610ead9190611e7a565b610eb79190611eae565b905080610ed4565b60028260020154610ed09190611e49565b9050805b50808360020160008a815260200190815260200160002060008b815260200190815260200160002054610f079190611eae565b421015610f1357600080fd5b81600101548460010160003373ffffffffffffffffffffffffffffffffffffffff1673ffffffffffffffffffffffffffffffffffffffff168152602001908152602001600020541015610f9b576040517f08c379a0000000000000000000000000000000000000000000000000000000008152600401610f9290611f2e565b60405180910390fd5b6000610fab83600301548b6115a4565b90506000808b830361107c578b91508460030154905085600a0160008d81526020019081526020016000206000815480929190610fe790611fae565b919050555085600b01600086600301548152602001908152602001600020600081548092919061101690611fae565b919050555084600101548760010160003373ffffffffffffffffffffffffffffffffffffffff1673ffffffffffffffffffffffffffffffffffffffff16815260200190815260200160002060008282546110709190611eae565b925050819055506111c9565b846003015491508b905085600a0160008660030154815260200190815260200160002060008154809291906110b090611fae565b919050555085600b0160008d815260200190815260200160002060008154809291906110db90611fae565b9190505550600285600101546110f19190612274565b8760010160008760040160019054906101000a900473ffffffffffffffffffffffffffffffffffffffff1673ffffffffffffffffffffffffffffffffffffffff1673ffffffffffffffffffffffffffffffffffffffff16815260200190815260200160002060008282546111659190611eae565b9250508190555084600101548760010160003373ffffffffffffffffffffffffffffffffffffffff1673ffffffffffffffffffffffffffffffffffffffff16815260200190815260200160002060008282546111c19190611e7a565b925050819055505b428660020160008d815260200190815260200160002060008e815260200190815260200160002081905550428660020160008d81526020019081526020016000206000876003015481526020019081526020016000208190555060018660010160008d815260200190815260200160002060040160006101000a81548160ff0219169083151502179055506000886003016000876003015481526020019081526020016000206002018190555081819950995050505050505050509250929050565b6000611295611577565b905060006112a161151d565b905060006112ad61154a565b9050848360010160008681526020019081526020016000206003015414611309576040517f08c379a000000000000000000000000000000000000000000000000000000000815260040161130090612302565b60405180910390fd5b60048260030160008781526020019081526020016000206002015414611364576040517f08c379a000000000000000000000000000000000000000000000000000000000815260040161135b9061236e565b60405180910390fd5b3373ffffffffffffffffffffffffffffffffffffffff1682600201600087815260200190815260200160002060009054906101000a900473ffffffffffffffffffffffffffffffffffffffff1673ffffffffffffffffffffffffffffffffffffffff16146113d157600080fd5b600083600101600086815260200190815260200160002060030181905550600183600101600086815260200190815260200160002060040160006101000a81548160ff021916908315150217905550600082600301600087815260200190815260200160002060020181905550826001016000858152602001908152602001600020600101548160010160003373ffffffffffffffffffffffffffffffffffffffff1673ffffffffffffffffffffffffffffffffffffffff16815260200190815260200160002060008282546114a79190611eae565b925050819055505050505050565b6000806114c0611577565b905080600201600084815260200190815260200160002060008581526020019081526020016000205491505092915050565b6000806114fd611577565b905080600b01600084815260200190815260200160002054915050919050565b6000807f3cab9a070a0c61cd0ae9d9e9e2c0781e5ca8691bec4087e5a4701d5ac018dd4e90508091505090565b6000807f2c89d74504b6ad8d4fbde22bc3474166bac5452a11195897f239d8bebe02d70790508091505090565b6000807f1b1c2350f60dba32e7a2436167ce3f8399cd1c51a95c8577f1448f53846d4cda90508091505090565b6000806115af61151d565b9050600081600301600086815260200190815260200160002090506000826003016000868152602001908152602001600020905060006115f386836003015461176b565b9050600061160588856003015461176b565b905083600e0154846005015461161b9190611eae565b82106116445760008560030160008a81526020019081526020016000206005018190555061168f565b83600e0154821061168e5783600e01548261165f9190611e7a565b8560030160008a815260200190815260200160002060050160008282546116869190611e7a565b925050819055505b5b82600e015483600501546116a39190611eae565b81106116cc57600085600301600089815260200190815260200160002060050181905550611717565b82600e015481106117165782600e0154816116e79190611e7a565b856003016000898152602001908152602001600020600501600082825461170e9190611e7a565b925050819055505b5b8460030160008981526020019081526020016000206005015485600301600089815260200190815260200160002060050154111561175c578695505050505050611765565b87955050505050505b92915050565b6000806064600961177c86866117b3565b611786919061238e565b6117909190611eae565b9050606481846117a09190612274565b6117aa9190611e49565b91505092915050565b6000424484846040516020016117cc94939291906123e0565b6040516020818303038152906040528051906020012060001c905092915050565b60405180610100016040528060008152602001600081526020016000815260200160008152602001600015158152602001600073ffffffffffffffffffffffffffffffffffffffff16815260200160608152602001606081525090565b6000604051905090565b600080fd5b600080fd5b6000819050919050565b6118718161185e565b811461187c57600080fd5b50565b60008135905061188e81611868565b92915050565b600080604083850312156118ab576118aa611854565b5b60006118b98582860161187f565b92505060206118ca8582860161187f565b9150509250929050565b6118dd8161185e565b82525050565b60006020820190506118f860008301846118d4565b92915050565b600073ffffffffffffffffffffffffffffffffffffffff82169050919050565b6000611929826118fe565b9050919050565b6119398161191e565b811461194457600080fd5b50565b60008135905061195681611930565b92915050565b60006020828403121561197257611971611854565b5b600061198084828501611947565b91505092915050565b60006020828403121561199f5761199e611854565b5b60006119ad8482850161187f565b91505092915050565b6119bf8161185e565b82525050565b60008115159050919050565b6119da816119c5565b82525050565b60006119eb826118fe565b9050919050565b6119fb816119e0565b82525050565b600081519050919050565b600082825260208201905092915050565b60005b83811015611a3b578082015181840152602081019050611a20565b60008484015250505050565b6000601f19601f8301169050919050565b6000611a6382611a01565b611a6d8185611a0c565b9350611a7d818560208601611a1d565b611a8681611a47565b840191505092915050565b600061010083016000830151611aaa60008601826119b6565b506020830151611abd60208601826119b6565b506040830151611ad060408601826119b6565b506060830151611ae360608601826119b6565b506080830151611af660808601826119d1565b5060a0830151611b0960a08601826119f2565b5060c083015184820360c0860152611b218282611a58565b91505060e083015184820360e0860152611b3b8282611a58565b9150508091505092915050565b60006020820190508181036000830152611b628184611a91565b905092915050565b600080fd5b600080fd5b7f4e487b7100000000000000000000000000000000000000000000000000000000600052604160045260246000fd5b611bac82611a47565b810181811067ffffffffffffffff82111715611bcb57611bca611b74565b5b80604052505050565b6000611bde61184a565b9050611bea8282611ba3565b919050565b600067ffffffffffffffff821115611c0a57611c09611b74565b5b611c1382611a47565b9050602081019050919050565b82818337600083830152505050565b6000611c42611c3d84611bef565b611bd4565b905082815260208101848484011115611c5e57611c5d611b6f565b5b611c69848285611c20565b509392505050565b600082601f830112611c8657611c85611b6a565b5b8135611c96848260208601611c2f565b91505092915050565b60008060008060808587031215611cb957611cb8611854565b5b6000611cc78782880161187f565b9450506020611cd88782880161187f565b935050604085013567ffffffffffffffff811115611cf957611cf8611859565b5b611d0587828801611c71565b925050606085013567ffffffffffffffff811115611d2657611d25611859565b5b611d3287828801611c71565b91505092959194509250565b6000604082019050611d5360008301856118d4565b8181036020830152611d658184611a91565b90509392505050565b600082825260208201905092915050565b7f6172656e61206973206e6f74206f70656e000000000000000000000000000000600082015250565b6000611db5601183611d6e565b9150611dc082611d7f565b602082019050919050565b60006020820190508181036000830152611de481611da8565b9050919050565b7f4e487b7100000000000000000000000000000000000000000000000000000000600052601260045260246000fd5b7f4e487b7100000000000000000000000000000000000000000000000000000000600052601160045260246000fd5b6000611e548261185e565b9150611e5f8361185e565b925082611e6f57611e6e611deb565b5b828204905092915050565b6000611e858261185e565b9150611e908361185e565b9250828203905081811115611ea857611ea7611e1a565b5b92915050565b6000611eb98261185e565b9150611ec48361185e565b9250828201905080821115611edc57611edb611e1a565b5b92915050565b7f62726f6b652061737320676f74206e6f206d6f6e657900000000000000000000600082015250565b6000611f18601683611d6e565b9150611f2382611ee2565b602082019050919050565b60006020820190508181036000830152611f4781611f0b565b9050919050565b7f4e487b7100000000000000000000000000000000000000000000000000000000600052602260045260246000fd5b60006002820490506001821680611f9557607f821691505b602082108103611fa857611fa7611f4e565b5b50919050565b6000611fb98261185e565b91507fffffffffffffffffffffffffffffffffffffffffffffffffffffffffffffffff8203611feb57611fea611e1a565b5b600182019050919050565b60008190508160005260206000209050919050565b60006020601f8301049050919050565b600082821b905092915050565b6000600883026120587fffffffffffffffffffffffffffffffffffffffffffffffffffffffffffffffff8261201b565b612062868361201b565b95508019841693508086168417925050509392505050565b6000819050919050565b600061209f61209a6120958461185e565b61207a565b61185e565b9050919050565b6000819050919050565b6120b983612084565b6120cd6120c5826120a6565b848454612028565b825550505050565b600090565b6120e26120d5565b6120ed8184846120b0565b505050565b5b81811015612111576121066000826120da565b6001810190506120f3565b5050565b601f8211156121565761212781611ff6565b6121308461200b565b8101602085101561213f578190505b61215361214b8561200b565b8301826120f2565b50505b505050565b600082821c905092915050565b60006121796000198460080261215b565b1980831691505092915050565b60006121928383612168565b9150826002028217905092915050565b6121ab82611a01565b67ffffffffffffffff8111156121c4576121c3611b74565b5b6121ce8254611f7d565b6121d9828285612115565b600060209050601f83116001811461220c57600084156121fa578287015190505b6122048582612186565b86555061226c565b601f19841661221a86611ff6565b60005b828110156122425784890151825560018201915060208501945060208101905061221d565b8683101561225f578489015161225b601f891682612168565b8355505b6001600288020188555050505b505050505050565b600061227f8261185e565b915061228a8361185e565b92508282026122988161185e565b915082820484148315176122af576122ae611e1a565b5b5092915050565b7f796f7520617265206e6f742074686520686f7374000000000000000000000000600082015250565b60006122ec601483611d6e565b91506122f7826122b6565b602082019050919050565b6000602082019050818103600083015261231b816122df565b9050919050565b7f796f7520617265206e6f7420696e20746865206172656e610000000000000000600082015250565b6000612358601883611d6e565b915061236382612322565b602082019050919050565b600060208201905081810360008301526123878161234b565b9050919050565b60006123998261185e565b91506123a48361185e565b9250826123b4576123b3611deb565b5b828206905092915050565b6000819050919050565b6123da6123d58261185e565b6123bf565b82525050565b60006123ec82876123c9565b6020820191506123fc82866123c9565b60208201915061240c82856123c9565b60208201915061241c82846123c9565b6020820191508190509594505050505056fea264697066735822122037ef668a9382cd94a28c048d760fd3cbcf3820f2f1680a80e5f1105493d5ecf164736f6c63430008120033",
  "linkReferences": {},
  "deployedLinkReferences": {}
}