{
  "_format": "hh-sol-artifact-1",
  "contractName": "ArenaFacet",
  "sourceName": "contracts/facets/ArenaFacet.sol",
  "abi": [
    {
      "anonymous": false,
      "inputs": [
        {
          "indexed": true,
          "internalType": "uint256",
          "name": "_playerId",
          "type": "uint256"
        },
        {
          "indexed": true,
          "internalType": "uint256",
          "name": "_basicArenaId",
          "type": "uint256"
        }
      ],
      "name": "BasicArenaLoss",
      "type": "event"
    },
    {
      "anonymous": false,
      "inputs": [
        {
          "indexed": true,
          "internalType": "uint256",
          "name": "_playerId",
          "type": "uint256"
        },
        {
          "indexed": true,
          "internalType": "uint256",
          "name": "_basicArenaId",
          "type": "uint256"
        }
      ],
      "name": "BasicArenaWin",
      "type": "event"
    },
    {
      "anonymous": false,
      "inputs": [
        {
          "indexed": false,
          "internalType": "uint256",
          "name": "_basicArenaId",
          "type": "uint256"
        }
      ],
      "name": "CreateBasicArena",
      "type": "event"
    },
    {
      "anonymous": false,
      "inputs": [
        {
          "indexed": true,
          "internalType": "uint256",
          "name": "_playerId",
          "type": "uint256"
        },
        {
          "indexed": true,
          "internalType": "uint256",
          "name": "_basicArenaId",
          "type": "uint256"
        }
      ],
      "name": "EnterBasicArena",
      "type": "event"
    },
    {
      "anonymous": false,
      "inputs": [
        {
          "indexed": true,
          "internalType": "uint256",
          "name": "_playerId",
          "type": "uint256"
        },
        {
          "indexed": true,
          "internalType": "uint256",
          "name": "_basicArenaId",
          "type": "uint256"
        }
      ],
      "name": "LeaveBasicArena",
      "type": "event"
    },
    {
      "inputs": [
        {
          "internalType": "uint256",
          "name": "_cost",
          "type": "uint256"
        },
        {
          "internalType": "uint256",
          "name": "_cooldown",
          "type": "uint256"
        },
        {
          "internalType": "string",
          "name": "_name",
          "type": "string"
        },
        {
          "internalType": "string",
          "name": "_uri",
          "type": "string"
        }
      ],
      "name": "creatBasicArena",
      "outputs": [],
      "stateMutability": "nonpayable",
      "type": "function"
    },
    {
      "inputs": [
        {
          "internalType": "uint256",
          "name": "_playerId",
          "type": "uint256"
        },
        {
          "internalType": "uint256",
          "name": "_basicArenaId",
          "type": "uint256"
        }
      ],
      "name": "enterBasicArena",
      "outputs": [],
      "stateMutability": "nonpayable",
      "type": "function"
    },
    {
      "inputs": [
        {
          "internalType": "uint256",
          "name": "_playerId",
          "type": "uint256"
        },
        {
          "internalType": "uint256",
          "name": "_basicArenaId",
          "type": "uint256"
        }
      ],
      "name": "fightBaiscArena",
      "outputs": [],
      "stateMutability": "nonpayable",
      "type": "function"
    },
    {
      "inputs": [
        {
          "internalType": "uint256",
          "name": "_basicArenaId",
          "type": "uint256"
        }
      ],
      "name": "getBasicArena",
      "outputs": [
        {
          "components": [
            {
              "internalType": "uint256",
              "name": "basicArenaId",
              "type": "uint256"
            },
            {
              "internalType": "uint256",
              "name": "cost",
              "type": "uint256"
            },
            {
              "internalType": "uint256",
              "name": "cooldown",
              "type": "uint256"
            },
            {
              "internalType": "uint256",
              "name": "hostId",
              "type": "uint256"
            },
            {
              "internalType": "bool",
              "name": "open",
              "type": "bool"
            },
            {
              "internalType": "address payable",
              "name": "hostAddress",
              "type": "address"
            },
            {
              "internalType": "string",
              "name": "name",
              "type": "string"
            },
            {
              "internalType": "string",
              "name": "url",
              "type": "string"
            }
          ],
          "internalType": "struct BasicArena",
          "name": "",
          "type": "tuple"
        }
      ],
      "stateMutability": "view",
      "type": "function"
    },
    {
      "inputs": [],
      "name": "getBasicArenaCount",
      "outputs": [
        {
          "internalType": "uint256",
          "name": "",
          "type": "uint256"
        }
      ],
      "stateMutability": "view",
      "type": "function"
    },
    {
      "inputs": [
        {
          "internalType": "uint256",
          "name": "_playerId",
          "type": "uint256"
        }
      ],
      "name": "getTotalLosses",
      "outputs": [
        {
          "internalType": "uint256",
          "name": "",
          "type": "uint256"
        }
      ],
      "stateMutability": "view",
      "type": "function"
    },
    {
      "inputs": [
        {
          "internalType": "uint256",
          "name": "_playerId",
          "type": "uint256"
        }
      ],
      "name": "getTotalWins",
      "outputs": [
        {
          "internalType": "uint256",
          "name": "",
          "type": "uint256"
        }
      ],
      "stateMutability": "view",
      "type": "function"
    },
    {
      "inputs": [
        {
          "internalType": "uint256",
          "name": "_playerId",
          "type": "uint256"
        },
        {
          "internalType": "uint256",
          "name": "_basicArenaId",
          "type": "uint256"
        }
      ],
      "name": "leaveBasicArena",
      "outputs": [],
      "stateMutability": "nonpayable",
      "type": "function"
    }
  ],
  "bytecode": "0x608060405234801561001057600080fd5b50612059806100206000396000f3fe608060405234801561001057600080fd5b50600436106100885760003560e01c806359735adc1161005b57806359735adc14610127578063c7f3ade514610143578063c8fe5c471461015f578063fb944ffc1461017b57610088565b80630b93942a1461008d5780632d2c17be146100a95780634f7d08e5146100c757806354e8a31a146100f7575b600080fd5b6100a760048036038101906100a29190611524565b6101ab565b005b6100b16101e7565b6040516100be9190611573565b60405180910390f35b6100e160048036038101906100dc919061158e565b6101f6565b6040516100ee9190611573565b60405180910390f35b610111600480360381019061010c919061158e565b610208565b60405161011e919061176d565b60405180910390f35b610141600480360381019061013c91906118c4565b610220565b005b61015d60048036038101906101589190611524565b610270565b005b61017960048036038101906101749190611524565b6102e7565b005b6101956004803603810190610190919061158e565b610323565b6040516101a29190611573565b60405180910390f35b6101b58282610335565b80827f429a014671400a39eaa0b16744a56044df14e9b9124a3919f8425a0b471e25e960405160405180910390a35050565b60006101f16106d3565b905090565b6000610201826106eb565b9050919050565b61021061147d565b61021982610716565b9050919050565b61022c84848484610910565b7f645e88aa97de18912e43f2a442395d3217ced4b7b14e66da10045e228f0eda4d6102556106d3565b6040516102629190611573565b60405180910390a150505050565b60008061027d8484610a6c565b809250819350505082827fe5783c40c14d69971fbf9d435486b3a0469a026e4cacbd5e543c18ddd293eca560405160405180910390a382817ff07fe1bc469a482805ec42d00e7477d9bacbd901aedac046ea74d6a10ce2b04a60405160405180910390a350505050565b6102f18282610f7c565b80827ff4debd39acd9b010e1276185a3f67b145758748b94e0145ce176c42ae6d27a4f60405160405180910390a35050565b600061032e826111a6565b9050919050565b600061033f6111d1565b9050600061034b6111fe565b9050600061035761122b565b90506000836003016000878152602001908152602001600020600201541461037e57600080fd5b3373ffffffffffffffffffffffffffffffffffffffff1683600201600087815260200190815260200160002060009054906101000a900473ffffffffffffffffffffffffffffffffffffffff1673ffffffffffffffffffffffffffffffffffffffff16146103eb57600080fd5b600081600101600086815260200190815260200160002090508060040160009054906101000a900460ff16610455576040517f08c379a000000000000000000000000000000000000000000000000000000000815260040161044c906119c0565b60405180910390fd5b6000600282600201546104689190611a3e565b8560030160008981526020019081526020016000206009015410156104cf57600a85600301600089815260200190815260200160002060090154600284600201546104b39190611a3e565b6104bd9190611a6f565b6104c79190611aa3565b9050806104e4565b600282600201546104e09190611a3e565b9050805b50808360020160008881526020019081526020016000206000898152602001908152602001600020546105179190611aa3565b42101561052357600080fd5b81600101548460000160003373ffffffffffffffffffffffffffffffffffffffff1673ffffffffffffffffffffffffffffffffffffffff1681526020019081526020016000205410156105ab576040517f08c379a00000000000000000000000000000000000000000000000000000000081526004016105a290611b23565b60405180910390fd5b81600101548460000160003373ffffffffffffffffffffffffffffffffffffffff1673ffffffffffffffffffffffffffffffffffffffff16815260200190815260200160002060008282546106009190611a6f565b92505081905550600485600301600089815260200190815260200160002060020181905550600083600101600088815260200190815260200160002060040160006101000a81548160ff02191690831515021790555086836001016000888152602001908152602001600020600301819055503383600101600088815260200190815260200160002060040160016101000a81548173ffffffffffffffffffffffffffffffffffffffff021916908373ffffffffffffffffffffffffffffffffffffffff16021790555050505050505050565b6000806106de61122b565b9050806000015491505090565b6000806106f661122b565b905080600501600084815260200190815260200160002054915050919050565b61071e61147d565b600061072861122b565b905080600101600084815260200190815260200160002060405180610100016040529081600082015481526020016001820154815260200160028201548152602001600382015481526020016004820160009054906101000a900460ff161515151581526020016004820160019054906101000a900473ffffffffffffffffffffffffffffffffffffffff1673ffffffffffffffffffffffffffffffffffffffff1673ffffffffffffffffffffffffffffffffffffffff1681526020016005820180546107f490611b72565b80601f016020809104026020016040519081016040528092919081815260200182805461082090611b72565b801561086d5780601f106108425761010080835404028352916020019161086d565b820191906000526020600020905b81548152906001019060200180831161085057829003601f168201915b5050505050815260200160068201805461088690611b72565b80601f01602080910402602001604051908101604052809291908181526020018280546108b290611b72565b80156108ff5780601f106108d4576101008083540402835291602001916108ff565b820191906000526020600020905b8154815290600101906020018083116108e257829003601f168201915b505050505081525050915050919050565b600061091a61122b565b905080600001600081548092919061093190611ba3565b919050555060405180610100016040528082600001548152602001868152602001858152602001600081526020016001151581526020013373ffffffffffffffffffffffffffffffffffffffff16815260200184815260200183815250816001016000836000015481526020019081526020016000206000820151816000015560208201518160010155604082015181600201556060820151816003015560808201518160040160006101000a81548160ff02191690831515021790555060a08201518160040160016101000a81548173ffffffffffffffffffffffffffffffffffffffff021916908373ffffffffffffffffffffffffffffffffffffffff16021790555060c0820151816005019081610a4b9190611d97565b5060e0820151816006019081610a619190611d97565b509050505050505050565b6000806000610a796111d1565b90506000610a856111fe565b90506000610a9161122b565b905060008360030160008981526020019081526020016000206002015414610ab857600080fd5b3373ffffffffffffffffffffffffffffffffffffffff1683600201600089815260200190815260200160002060009054906101000a900473ffffffffffffffffffffffffffffffffffffffff1673ffffffffffffffffffffffffffffffffffffffff1614610b2557600080fd5b600081600101600088815260200190815260200160002090508060040160009054906101000a900460ff1615610b90576040517f08c379a0000000000000000000000000000000000000000000000000000000008152600401610b87906119c0565b60405180910390fd5b600060028260020154610ba39190611a3e565b8560030160008b8152602001908152602001600020600901541015610c0a57600a8560030160008b81526020019081526020016000206009015460028460020154610bee9190611a3e565b610bf89190611a6f565b610c029190611aa3565b905080610c1f565b60028260020154610c1b9190611a3e565b9050805b50808360020160008a815260200190815260200160002060008b815260200190815260200160002054610c529190611aa3565b421015610c5e57600080fd5b81600101548460000160003373ffffffffffffffffffffffffffffffffffffffff1673ffffffffffffffffffffffffffffffffffffffff168152602001908152602001600020541015610ce6576040517f08c379a0000000000000000000000000000000000000000000000000000000008152600401610cdd90611b23565b60405180910390fd5b6000610cf683600301548b611258565b90506000808b8303610dc7578b9150846003015490508560050160008d81526020019081526020016000206000815480929190610d3290611ba3565b9190505550856006016000866003015481526020019081526020016000206000815480929190610d6190611ba3565b919050555084600101548760000160003373ffffffffffffffffffffffffffffffffffffffff1673ffffffffffffffffffffffffffffffffffffffff1681526020019081526020016000206000828254610dbb9190611aa3565b92505081905550610f14565b846003015491508b9050856005016000866003015481526020019081526020016000206000815480929190610dfb90611ba3565b91905055508560060160008d81526020019081526020016000206000815480929190610e2690611ba3565b919050555060028560010154610e3c9190611e69565b8760000160008760040160019054906101000a900473ffffffffffffffffffffffffffffffffffffffff1673ffffffffffffffffffffffffffffffffffffffff1673ffffffffffffffffffffffffffffffffffffffff1681526020019081526020016000206000828254610eb09190611aa3565b9250508190555084600101548760000160003373ffffffffffffffffffffffffffffffffffffffff1673ffffffffffffffffffffffffffffffffffffffff1681526020019081526020016000206000828254610f0c9190611a6f565b925050819055505b60018660010160008d815260200190815260200160002060040160006101000a81548160ff0219169083151502179055506000886003016000876003015481526020019081526020016000206002018190555081819950995050505050505050509250929050565b6000610f8661122b565b90506000610f926111d1565b90506000610f9e6111fe565b9050848360010160008681526020019081526020016000206003015414610ffa576040517f08c379a0000000000000000000000000000000000000000000000000000000008152600401610ff190611ef7565b60405180910390fd5b60048260030160008781526020019081526020016000206002015414611055576040517f08c379a000000000000000000000000000000000000000000000000000000000815260040161104c90611f63565b60405180910390fd5b3373ffffffffffffffffffffffffffffffffffffffff1682600201600087815260200190815260200160002060009054906101000a900473ffffffffffffffffffffffffffffffffffffffff1673ffffffffffffffffffffffffffffffffffffffff16146110c257600080fd5b600083600101600086815260200190815260200160002060030181905550600183600101600086815260200190815260200160002060040160006101000a81548160ff021916908315150217905550600082600301600087815260200190815260200160002060020181905550826001016000858152602001908152602001600020600101548160000160003373ffffffffffffffffffffffffffffffffffffffff1673ffffffffffffffffffffffffffffffffffffffff16815260200190815260200160002060008282546111989190611aa3565b925050819055505050505050565b6000806111b161122b565b905080600601600084815260200190815260200160002054915050919050565b6000807f3cab9a070a0c61cd0ae9d9e9e2c0781e5ca8691bec4087e5a4701d5ac018dd4e90508091505090565b6000807f2c89d74504b6ad8d4fbde22bc3474166bac5452a11195897f239d8bebe02d70790508091505090565b6000807f1b1c2350f60dba32e7a2436167ce3f8399cd1c51a95c8577f1448f53846d4cda90508091505090565b6000806112636111d1565b9050600081600301600086815260200190815260200160002090506000826003016000868152602001908152602001600020905081600e015482600501546112ab9190611aa3565b6112b98683600301546113fb565b101561130257806003015482600e015483600501546112d89190611aa3565b6112e29190611a6f565b836003016000888152602001908152602001600020600501819055611320565b60008360030160008881526020019081526020016000206005018190555b5080600e015481600501546113359190611aa3565b6113438784600301546113fb565b101561138c57816003015481600e015482600501546113629190611aa3565b61136c9190611a6f565b8360030160008781526020019081526020016000206005018190556113aa565b60008360030160008781526020019081526020016000206005018190555b50826003016000878152602001908152602001600020600501548360030160008781526020019081526020016000206005015411156113ee578493505050506113f5565b8593505050505b92915050565b6000806064600961140c8686611443565b6114169190611f83565b6114209190611aa3565b9050606481846114309190611e69565b61143a9190611a3e565b91505092915050565b60004244848460405160200161145c9493929190611fd5565b6040516020818303038152906040528051906020012060001c905092915050565b60405180610100016040528060008152602001600081526020016000815260200160008152602001600015158152602001600073ffffffffffffffffffffffffffffffffffffffff16815260200160608152602001606081525090565b6000604051905090565b600080fd5b600080fd5b6000819050919050565b611501816114ee565b811461150c57600080fd5b50565b60008135905061151e816114f8565b92915050565b6000806040838503121561153b5761153a6114e4565b5b60006115498582860161150f565b925050602061155a8582860161150f565b9150509250929050565b61156d816114ee565b82525050565b60006020820190506115886000830184611564565b92915050565b6000602082840312156115a4576115a36114e4565b5b60006115b28482850161150f565b91505092915050565b6115c4816114ee565b82525050565b60008115159050919050565b6115df816115ca565b82525050565b600073ffffffffffffffffffffffffffffffffffffffff82169050919050565b6000611610826115e5565b9050919050565b61162081611605565b82525050565b600081519050919050565b600082825260208201905092915050565b60005b83811015611660578082015181840152602081019050611645565b60008484015250505050565b6000601f19601f8301169050919050565b600061168882611626565b6116928185611631565b93506116a2818560208601611642565b6116ab8161166c565b840191505092915050565b6000610100830160008301516116cf60008601826115bb565b5060208301516116e260208601826115bb565b5060408301516116f560408601826115bb565b50606083015161170860608601826115bb565b50608083015161171b60808601826115d6565b5060a083015161172e60a0860182611617565b5060c083015184820360c0860152611746828261167d565b91505060e083015184820360e0860152611760828261167d565b9150508091505092915050565b6000602082019050818103600083015261178781846116b6565b905092915050565b600080fd5b600080fd5b7f4e487b7100000000000000000000000000000000000000000000000000000000600052604160045260246000fd5b6117d18261166c565b810181811067ffffffffffffffff821117156117f0576117ef611799565b5b80604052505050565b60006118036114da565b905061180f82826117c8565b919050565b600067ffffffffffffffff82111561182f5761182e611799565b5b6118388261166c565b9050602081019050919050565b82818337600083830152505050565b600061186761186284611814565b6117f9565b90508281526020810184848401111561188357611882611794565b5b61188e848285611845565b509392505050565b600082601f8301126118ab576118aa61178f565b5b81356118bb848260208601611854565b91505092915050565b600080600080608085870312156118de576118dd6114e4565b5b60006118ec8782880161150f565b94505060206118fd8782880161150f565b935050604085013567ffffffffffffffff81111561191e5761191d6114e9565b5b61192a87828801611896565b925050606085013567ffffffffffffffff81111561194b5761194a6114e9565b5b61195787828801611896565b91505092959194509250565b600082825260208201905092915050565b7f6172656e61206973206e6f74206f70656e000000000000000000000000000000600082015250565b60006119aa601183611963565b91506119b582611974565b602082019050919050565b600060208201905081810360008301526119d98161199d565b9050919050565b7f4e487b7100000000000000000000000000000000000000000000000000000000600052601260045260246000fd5b7f4e487b7100000000000000000000000000000000000000000000000000000000600052601160045260246000fd5b6000611a49826114ee565b9150611a54836114ee565b925082611a6457611a636119e0565b5b828204905092915050565b6000611a7a826114ee565b9150611a85836114ee565b9250828203905081811115611a9d57611a9c611a0f565b5b92915050565b6000611aae826114ee565b9150611ab9836114ee565b9250828201905080821115611ad157611ad0611a0f565b5b92915050565b7f62726f6b652061737320676f74206e6f206d6f6e657900000000000000000000600082015250565b6000611b0d601683611963565b9150611b1882611ad7565b602082019050919050565b60006020820190508181036000830152611b3c81611b00565b9050919050565b7f4e487b7100000000000000000000000000000000000000000000000000000000600052602260045260246000fd5b60006002820490506001821680611b8a57607f821691505b602082108103611b9d57611b9c611b43565b5b50919050565b6000611bae826114ee565b91507fffffffffffffffffffffffffffffffffffffffffffffffffffffffffffffffff8203611be057611bdf611a0f565b5b600182019050919050565b60008190508160005260206000209050919050565b60006020601f8301049050919050565b600082821b905092915050565b600060088302611c4d7fffffffffffffffffffffffffffffffffffffffffffffffffffffffffffffffff82611c10565b611c578683611c10565b95508019841693508086168417925050509392505050565b6000819050919050565b6000611c94611c8f611c8a846114ee565b611c6f565b6114ee565b9050919050565b6000819050919050565b611cae83611c79565b611cc2611cba82611c9b565b848454611c1d565b825550505050565b600090565b611cd7611cca565b611ce2818484611ca5565b505050565b5b81811015611d0657611cfb600082611ccf565b600181019050611ce8565b5050565b601f821115611d4b57611d1c81611beb565b611d2584611c00565b81016020851015611d34578190505b611d48611d4085611c00565b830182611ce7565b50505b505050565b600082821c905092915050565b6000611d6e60001984600802611d50565b1980831691505092915050565b6000611d878383611d5d565b9150826002028217905092915050565b611da082611626565b67ffffffffffffffff811115611db957611db8611799565b5b611dc38254611b72565b611dce828285611d0a565b600060209050601f831160018114611e015760008415611def578287015190505b611df98582611d7b565b865550611e61565b601f198416611e0f86611beb565b60005b82811015611e3757848901518255600182019150602085019450602081019050611e12565b86831015611e545784890151611e50601f891682611d5d565b8355505b6001600288020188555050505b505050505050565b6000611e74826114ee565b9150611e7f836114ee565b9250828202611e8d816114ee565b91508282048414831517611ea457611ea3611a0f565b5b5092915050565b7f796f7520617265206e6f742074686520686f7374000000000000000000000000600082015250565b6000611ee1601483611963565b9150611eec82611eab565b602082019050919050565b60006020820190508181036000830152611f1081611ed4565b9050919050565b7f796f7520617265206e6f7420696e20746865206172656e610000000000000000600082015250565b6000611f4d601883611963565b9150611f5882611f17565b602082019050919050565b60006020820190508181036000830152611f7c81611f40565b9050919050565b6000611f8e826114ee565b9150611f99836114ee565b925082611fa957611fa86119e0565b5b828206905092915050565b6000819050919050565b611fcf611fca826114ee565b611fb4565b82525050565b6000611fe18287611fbe565b602082019150611ff18286611fbe565b6020820191506120018285611fbe565b6020820191506120118284611fbe565b6020820191508190509594505050505056fea2646970667358221220c47a9ecb234f965e8de81f1765696e639242e47d2c6fa40a7eec112e812c7a4164736f6c63430008120033",
  "linkReferences": {},
  "deployedLinkReferences": {}
}