{
  "_format": "hh-sol-artifact-1",
  "contractName": "ArenaFacet",
  "sourceName": "contracts/facets/ArenaFacet.sol",
  "abi": [
    {
      "anonymous": false,
      "inputs": [
        {
          "indexed": true,
          "internalType": "uint256",
          "name": "_playerId",
          "type": "uint256"
        },
        {
          "indexed": true,
          "internalType": "uint256",
          "name": "_basicArenaId",
          "type": "uint256"
        }
      ],
      "name": "BasicArenaLoss",
      "type": "event"
    },
    {
      "anonymous": false,
      "inputs": [
        {
          "indexed": true,
          "internalType": "uint256",
          "name": "_playerId",
          "type": "uint256"
        },
        {
          "indexed": true,
          "internalType": "uint256",
          "name": "_basicArenaId",
          "type": "uint256"
        }
      ],
      "name": "BasicArenaWin",
      "type": "event"
    },
    {
      "anonymous": false,
      "inputs": [
        {
          "indexed": false,
          "internalType": "uint256",
          "name": "_basicArenaId",
          "type": "uint256"
        },
        {
          "components": [
            {
              "internalType": "uint256",
              "name": "basicArenaId",
              "type": "uint256"
            },
            {
              "internalType": "uint256",
              "name": "cost",
              "type": "uint256"
            },
            {
              "internalType": "uint256",
              "name": "cooldown",
              "type": "uint256"
            },
            {
              "internalType": "uint256",
              "name": "hostId",
              "type": "uint256"
            },
            {
              "internalType": "bool",
              "name": "open",
              "type": "bool"
            },
            {
              "internalType": "address payable",
              "name": "hostAddress",
              "type": "address"
            },
            {
              "internalType": "string",
              "name": "name",
              "type": "string"
            },
            {
              "internalType": "string",
              "name": "url",
              "type": "string"
            }
          ],
          "indexed": false,
          "internalType": "struct BasicArena",
          "name": "_basicArena",
          "type": "tuple"
        }
      ],
      "name": "CreateBasicArena",
      "type": "event"
    },
    {
      "anonymous": false,
      "inputs": [
        {
          "indexed": false,
          "internalType": "uint256",
          "name": "_hillArenaId",
          "type": "uint256"
        },
        {
          "components": [
            {
              "internalType": "uint256",
              "name": "hillArenaId",
              "type": "uint256"
            },
            {
              "internalType": "uint256",
              "name": "cost",
              "type": "uint256"
            },
            {
              "internalType": "uint256",
              "name": "cooldown",
              "type": "uint256"
            },
            {
              "internalType": "uint256",
              "name": "hostId",
              "type": "uint256"
            },
            {
              "internalType": "bool",
              "name": "open",
              "type": "bool"
            },
            {
              "internalType": "address payable",
              "name": "hostAddress",
              "type": "address"
            },
            {
              "internalType": "string",
              "name": "name",
              "type": "string"
            },
            {
              "internalType": "string",
              "name": "url",
              "type": "string"
            }
          ],
          "indexed": false,
          "internalType": "struct HillArena",
          "name": "_hillArena",
          "type": "tuple"
        }
      ],
      "name": "CreateHillArena",
      "type": "event"
    },
    {
      "anonymous": false,
      "inputs": [
        {
          "indexed": true,
          "internalType": "uint256",
          "name": "_playerId",
          "type": "uint256"
        },
        {
          "indexed": true,
          "internalType": "uint256",
          "name": "_basicArenaId",
          "type": "uint256"
        }
      ],
      "name": "EnterBasicArena",
      "type": "event"
    },
    {
      "anonymous": false,
      "inputs": [
        {
          "indexed": true,
          "internalType": "uint256",
          "name": "_playerId",
          "type": "uint256"
        },
        {
          "indexed": true,
          "internalType": "uint256",
          "name": "_hillArenaId",
          "type": "uint256"
        },
        {
          "indexed": true,
          "internalType": "uint256",
          "name": "_timestamp",
          "type": "uint256"
        }
      ],
      "name": "EnterHillArena",
      "type": "event"
    },
    {
      "anonymous": false,
      "inputs": [
        {
          "indexed": true,
          "internalType": "uint256",
          "name": "_playerId",
          "type": "uint256"
        },
        {
          "indexed": true,
          "internalType": "uint256",
          "name": "_basicArenaId",
          "type": "uint256"
        }
      ],
      "name": "LeaveBasicArena",
      "type": "event"
    },
    {
      "inputs": [
        {
          "internalType": "uint256",
          "name": "_cost",
          "type": "uint256"
        },
        {
          "internalType": "uint256",
          "name": "_cooldown",
          "type": "uint256"
        },
        {
          "internalType": "string",
          "name": "_name",
          "type": "string"
        },
        {
          "internalType": "string",
          "name": "_uri",
          "type": "string"
        }
      ],
      "name": "createBasicArena",
      "outputs": [],
      "stateMutability": "nonpayable",
      "type": "function"
    },
    {
      "inputs": [
        {
          "internalType": "uint256",
          "name": "_cost",
          "type": "uint256"
        },
        {
          "internalType": "uint256",
          "name": "_cooldown",
          "type": "uint256"
        },
        {
          "internalType": "string",
          "name": "_name",
          "type": "string"
        },
        {
          "internalType": "string",
          "name": "_uri",
          "type": "string"
        }
      ],
      "name": "createHillArena",
      "outputs": [],
      "stateMutability": "nonpayable",
      "type": "function"
    },
    {
      "inputs": [
        {
          "internalType": "uint256",
          "name": "_playerId",
          "type": "uint256"
        },
        {
          "internalType": "uint256",
          "name": "_basicArenaId",
          "type": "uint256"
        }
      ],
      "name": "enterBasicArena",
      "outputs": [],
      "stateMutability": "nonpayable",
      "type": "function"
    },
    {
      "inputs": [
        {
          "internalType": "uint256",
          "name": "_playerId",
          "type": "uint256"
        },
        {
          "internalType": "uint256",
          "name": "_hillArenaId",
          "type": "uint256"
        }
      ],
      "name": "enterHillArena",
      "outputs": [],
      "stateMutability": "nonpayable",
      "type": "function"
    },
    {
      "inputs": [
        {
          "internalType": "uint256",
          "name": "_playerId",
          "type": "uint256"
        },
        {
          "internalType": "uint256",
          "name": "_basicArenaId",
          "type": "uint256"
        }
      ],
      "name": "fightBaiscArena",
      "outputs": [],
      "stateMutability": "nonpayable",
      "type": "function"
    },
    {
      "inputs": [
        {
          "internalType": "uint256",
          "name": "_playerId",
          "type": "uint256"
        },
        {
          "internalType": "uint256",
          "name": "_hillArenaId",
          "type": "uint256"
        }
      ],
      "name": "fightHillArena",
      "outputs": [],
      "stateMutability": "nonpayable",
      "type": "function"
    },
    {
      "inputs": [],
      "name": "freeGold",
      "outputs": [],
      "stateMutability": "nonpayable",
      "type": "function"
    },
    {
      "inputs": [
        {
          "internalType": "uint256",
          "name": "_basicArenaId",
          "type": "uint256"
        }
      ],
      "name": "getBasicArena",
      "outputs": [
        {
          "components": [
            {
              "internalType": "uint256",
              "name": "basicArenaId",
              "type": "uint256"
            },
            {
              "internalType": "uint256",
              "name": "cost",
              "type": "uint256"
            },
            {
              "internalType": "uint256",
              "name": "cooldown",
              "type": "uint256"
            },
            {
              "internalType": "uint256",
              "name": "hostId",
              "type": "uint256"
            },
            {
              "internalType": "bool",
              "name": "open",
              "type": "bool"
            },
            {
              "internalType": "address payable",
              "name": "hostAddress",
              "type": "address"
            },
            {
              "internalType": "string",
              "name": "name",
              "type": "string"
            },
            {
              "internalType": "string",
              "name": "url",
              "type": "string"
            }
          ],
          "internalType": "struct BasicArena",
          "name": "",
          "type": "tuple"
        }
      ],
      "stateMutability": "view",
      "type": "function"
    },
    {
      "inputs": [
        {
          "internalType": "uint256",
          "name": "_playerId",
          "type": "uint256"
        },
        {
          "internalType": "uint256",
          "name": "_basicArenaId",
          "type": "uint256"
        }
      ],
      "name": "getBasicArenaCooldowns",
      "outputs": [
        {
          "internalType": "uint256",
          "name": "",
          "type": "uint256"
        }
      ],
      "stateMutability": "view",
      "type": "function"
    },
    {
      "inputs": [],
      "name": "getBasicArenaCount",
      "outputs": [
        {
          "internalType": "uint256",
          "name": "",
          "type": "uint256"
        }
      ],
      "stateMutability": "view",
      "type": "function"
    },
    {
      "inputs": [
        {
          "internalType": "address",
          "name": "_address",
          "type": "address"
        }
      ],
      "name": "getGoldBalance",
      "outputs": [
        {
          "internalType": "uint256",
          "name": "",
          "type": "uint256"
        }
      ],
      "stateMutability": "view",
      "type": "function"
    },
    {
      "inputs": [
        {
          "internalType": "uint256",
          "name": "_hillArenaId",
          "type": "uint256"
        }
      ],
      "name": "getHillArena",
      "outputs": [
        {
          "components": [
            {
              "internalType": "uint256",
              "name": "hillArenaId",
              "type": "uint256"
            },
            {
              "internalType": "uint256",
              "name": "cost",
              "type": "uint256"
            },
            {
              "internalType": "uint256",
              "name": "cooldown",
              "type": "uint256"
            },
            {
              "internalType": "uint256",
              "name": "hostId",
              "type": "uint256"
            },
            {
              "internalType": "bool",
              "name": "open",
              "type": "bool"
            },
            {
              "internalType": "address payable",
              "name": "hostAddress",
              "type": "address"
            },
            {
              "internalType": "string",
              "name": "name",
              "type": "string"
            },
            {
              "internalType": "string",
              "name": "url",
              "type": "string"
            }
          ],
          "internalType": "struct HillArena",
          "name": "",
          "type": "tuple"
        }
      ],
      "stateMutability": "view",
      "type": "function"
    },
    {
      "inputs": [
        {
          "internalType": "uint256",
          "name": "_playerId",
          "type": "uint256"
        },
        {
          "internalType": "uint256",
          "name": "_hillArenaId",
          "type": "uint256"
        }
      ],
      "name": "getHillArenaCooldowns",
      "outputs": [
        {
          "internalType": "uint256",
          "name": "",
          "type": "uint256"
        }
      ],
      "stateMutability": "view",
      "type": "function"
    },
    {
      "inputs": [],
      "name": "getHillArenaCount",
      "outputs": [
        {
          "internalType": "uint256",
          "name": "",
          "type": "uint256"
        }
      ],
      "stateMutability": "view",
      "type": "function"
    },
    {
      "inputs": [
        {
          "internalType": "uint256",
          "name": "_playerId",
          "type": "uint256"
        }
      ],
      "name": "getTotalLosses",
      "outputs": [
        {
          "internalType": "uint256",
          "name": "",
          "type": "uint256"
        }
      ],
      "stateMutability": "view",
      "type": "function"
    },
    {
      "inputs": [
        {
          "internalType": "uint256",
          "name": "_playerId",
          "type": "uint256"
        }
      ],
      "name": "getTotalWins",
      "outputs": [
        {
          "internalType": "uint256",
          "name": "",
          "type": "uint256"
        }
      ],
      "stateMutability": "view",
      "type": "function"
    },
    {
      "inputs": [
        {
          "internalType": "uint256",
          "name": "_playerId",
          "type": "uint256"
        },
        {
          "internalType": "uint256",
          "name": "_basicArenaId",
          "type": "uint256"
        }
      ],
      "name": "leaveBasicArena",
      "outputs": [],
      "stateMutability": "nonpayable",
      "type": "function"
    },
    {
      "inputs": [
        {
          "internalType": "uint256",
          "name": "_playerId",
          "type": "uint256"
        },
        {
          "internalType": "uint256",
          "name": "_basicArenaId",
          "type": "uint256"
        }
      ],
      "name": "leaveHillArena",
      "outputs": [],
      "stateMutability": "nonpayable",
      "type": "function"
    }
  ],
  "bytecode": "0x608060405234801561001057600080fd5b50613892806100206000396000f3fe608060405234801561001057600080fd5b50600436106101165760003560e01c806366731384116100a2578063c7f3ade511610071578063c7f3ade5146102dd578063c8fe5c47146102f9578063cc8d469d14610315578063d4945a2114610345578063fb944ffc1461036157610116565b8063667313841461025957806391ed95eb1461027557806394c9d0f814610291578063b05a86fc146102c157610116565b80633707caf2116100e95780633707caf21461017d5780633d8a082f146101ad5780634f7d08e5146101c957806351aa518f146101f957806354e8a31a1461022957610116565b80630b93942a1461011b57806314be76a9146101375780632d2c17be1461015557806333f453af14610173575b600080fd5b61013560048036038101906101309190612bb9565b610391565b005b61013f6103cd565b60405161014c9190612c08565b60405180910390f35b61015d6103dc565b60405161016a9190612c08565b60405180910390f35b61017b6103eb565b005b61019760048036038101906101929190612c81565b6103f5565b6040516101a49190612c08565b60405180910390f35b6101c760048036038101906101c29190612bb9565b610407565b005b6101e360048036038101906101de9190612cae565b610443565b6040516101f09190612c08565b60405180910390f35b610213600480360381019061020e9190612bb9565b610455565b6040516102209190612c08565b60405180910390f35b610243600480360381019061023e9190612cae565b610469565b6040516102509190612e6d565b60405180910390f35b610273600480360381019061026e9190612bb9565b610481565b005b61028f600480360381019061028a9190612fc4565b6104ff565b005b6102ab60048036038101906102a69190612cae565b6105b1565b6040516102b8919061311a565b60405180910390f35b6102db60048036038101906102d69190612bb9565b6105c9565b005b6102f760048036038101906102f29190612bb9565b610606565b005b610313600480360381019061030e9190612bb9565b61067d565b005b61032f600480360381019061032a9190612bb9565b6106b9565b60405161033c9190612c08565b60405180910390f35b61035f600480360381019061035a9190612fc4565b6106cd565b005b61037b60048036038101906103769190612cae565b61077f565b6040516103889190612c08565b60405180910390f35b61039b8282610791565b80827f429a014671400a39eaa0b16744a56044df14e9b9124a3919f8425a0b471e25e960405160405180910390a35050565b60006103d7610b2f565b905090565b60006103e6610b47565b905090565b6103f3610b5f565b565b600061040082610bc7565b9050919050565b6104118282610c1e565b80827ff4debd39acd9b010e1276185a3f67b145758748b94e0145ce176c42ae6d27a4f60405160405180910390a35050565b600061044e82610ea5565b9050919050565b60006104618383610ed0565b905092915050565b610471612ab5565b61047a82610f0d565b9050919050565b60008060006104908585611107565b80935081945082955050505083837fe5783c40c14d69971fbf9d435486b3a0469a026e4cacbd5e543c18ddd293eca560405160405180910390a383827ff07fe1bc469a482805ec42d00e7477d9bacbd901aedac046ea74d6a10ce2b04a60405160405180910390a35050505050565b600073434d36f32abed3f7937fe0be88dc1b0eb938124490508073ffffffffffffffffffffffffffffffffffffffff163373ffffffffffffffffffffffffffffffffffffffff161461055057600080fd5b61055c8585858561176e565b6000610566610b47565b90507fa8944f13c384569cd759dea69a02c83263e937c72f585de37fa46b4bb55b6b088161059383610469565b6040516105a192919061313c565b60405180910390a1505050505050565b6105b9612b12565b6105c2826118ca565b9050919050565b6105d38282611ac4565b4281837fa85bf3592018078e152218683b8117662b84e8f5504dcdffe66ca644596773c860405160405180910390a45050565b6000806106138484611e8d565b809250819350505082827fe5783c40c14d69971fbf9d435486b3a0469a026e4cacbd5e543c18ddd293eca560405160405180910390a382817ff07fe1bc469a482805ec42d00e7477d9bacbd901aedac046ea74d6a10ce2b04a60405160405180910390a350505050565b61068782826123f7565b80827ff4debd39acd9b010e1276185a3f67b145758748b94e0145ce176c42ae6d27a4f60405160405180910390a35050565b60006106c58383612621565b905092915050565b600073434d36f32abed3f7937fe0be88dc1b0eb938124490508073ffffffffffffffffffffffffffffffffffffffff163373ffffffffffffffffffffffffffffffffffffffff161461071e57600080fd5b61072a8585858561265e565b6000610734610b2f565b90507ffa506e4a78f11c5bbc0ecd41e68f665356de6661aa27acb7ceebf18a02a8264381610761836105b1565b60405161076f92919061316c565b60405180910390a1505050505050565b600061078a826127ba565b9050919050565b600061079b6127e5565b905060006107a7612812565b905060006107b361283f565b9050600083600301600087815260200190815260200160002060020154146107da57600080fd5b3373ffffffffffffffffffffffffffffffffffffffff1683600201600087815260200190815260200160002060009054906101000a900473ffffffffffffffffffffffffffffffffffffffff1673ffffffffffffffffffffffffffffffffffffffff161461084757600080fd5b600081600101600086815260200190815260200160002090508060040160009054906101000a900460ff166108b1576040517f08c379a00000000000000000000000000000000000000000000000000000000081526004016108a8906131f9565b60405180910390fd5b6000600282600201546108c49190613277565b85600301600089815260200190815260200160002060090154101561092b57600a856003016000898152602001908152602001600020600901546002846002015461090f9190613277565b61091991906132a8565b61092391906132dc565b905080610940565b6002826002015461093c9190613277565b9050805b508083600201600088815260200190815260200160002060008981526020019081526020016000205461097391906132dc565b42101561097f57600080fd5b81600101548460010160003373ffffffffffffffffffffffffffffffffffffffff1673ffffffffffffffffffffffffffffffffffffffff168152602001908152602001600020541015610a07576040517f08c379a00000000000000000000000000000000000000000000000000000000081526004016109fe9061335c565b60405180910390fd5b81600101548460010160003373ffffffffffffffffffffffffffffffffffffffff1673ffffffffffffffffffffffffffffffffffffffff1681526020019081526020016000206000828254610a5c91906132a8565b92505081905550600485600301600089815260200190815260200160002060020181905550600083600101600088815260200190815260200160002060040160006101000a81548160ff02191690831515021790555086836001016000888152602001908152602001600020600301819055503383600101600088815260200190815260200160002060040160016101000a81548173ffffffffffffffffffffffffffffffffffffffff021916908373ffffffffffffffffffffffffffffffffffffffff16021790555050505050505050565b600080610b3a61283f565b9050806003015491505090565b600080610b5261283f565b9050806000015491505090565b6000610b69612812565b905060648160010160003373ffffffffffffffffffffffffffffffffffffffff1673ffffffffffffffffffffffffffffffffffffffff1681526020019081526020016000206000828254610bbd91906132dc565b9250508190555050565b600080610bd2612812565b90508060010160008473ffffffffffffffffffffffffffffffffffffffff1673ffffffffffffffffffffffffffffffffffffffff16815260200190815260200160002054915050919050565b6000610c2861283f565b90506000610c346127e5565b90506000610c40612812565b9050848360040160008681526020019081526020016000206003015414610c9c576040517f08c379a0000000000000000000000000000000000000000000000000000000008152600401610c93906133c8565b60405180910390fd5b60048260030160008781526020019081526020016000206002015414610cf7576040517f08c379a0000000000000000000000000000000000000000000000000000000008152600401610cee90613434565b60405180910390fd5b3373ffffffffffffffffffffffffffffffffffffffff1682600201600087815260200190815260200160002060009054906101000a900473ffffffffffffffffffffffffffffffffffffffff1673ffffffffffffffffffffffffffffffffffffffff1614610d6457600080fd5b600083600401600086815260200190815260200160002060030181905550600183600401600086815260200190815260200160002060040160006101000a81548160ff021916908315150217905550600082600301600087815260200190815260200160002060020181905550826001016000858152602001908152602001600020600101548160010160003373ffffffffffffffffffffffffffffffffffffffff1673ffffffffffffffffffffffffffffffffffffffff1681526020019081526020016000206000828254610e3a91906132dc565b9250508190555082600701600085815260200190815260200160002060008681526020019081526020016000205442610e7391906132a8565b8360050160008781526020019081526020016000206000828254610e9791906132dc565b925050819055505050505050565b600080610eb061283f565b905080600a01600084815260200190815260200160002054915050919050565b600080610edb61283f565b905080600601600084815260200190815260200160002060008581526020019081526020016000205491505092915050565b610f15612ab5565b6000610f1f61283f565b905080600101600084815260200190815260200160002060405180610100016040529081600082015481526020016001820154815260200160028201548152602001600382015481526020016004820160009054906101000a900460ff161515151581526020016004820160019054906101000a900473ffffffffffffffffffffffffffffffffffffffff1673ffffffffffffffffffffffffffffffffffffffff1673ffffffffffffffffffffffffffffffffffffffff168152602001600582018054610feb90613483565b80601f016020809104026020016040519081016040528092919081815260200182805461101790613483565b80156110645780601f1061103957610100808354040283529160200191611064565b820191906000526020600020905b81548152906001019060200180831161104757829003601f168201915b5050505050815260200160068201805461107d90613483565b80601f01602080910402602001604051908101604052809291908181526020018280546110a990613483565b80156110f65780601f106110cb576101008083540402835291602001916110f6565b820191906000526020600020905b8154815290600101906020018083116110d957829003601f168201915b505050505081525050915050919050565b6000806000806111156127e5565b90506000611121612812565b9050600061112d61283f565b905060008360030160008a8152602001908152602001600020600201541461115457600080fd5b3373ffffffffffffffffffffffffffffffffffffffff168360020160008a815260200190815260200160002060009054906101000a900473ffffffffffffffffffffffffffffffffffffffff1673ffffffffffffffffffffffffffffffffffffffff16146111c157600080fd5b600081600401600089815260200190815260200160002090508060040160009054906101000a900460ff161561122c576040517f08c379a0000000000000000000000000000000000000000000000000000000008152600401611223906131f9565b60405180910390fd5b60006002826002015461123f9190613277565b8560030160008c81526020019081526020016000206009015410156112a657600a8560030160008c8152602001908152602001600020600901546002846002015461128a9190613277565b61129491906132a8565b61129e91906132dc565b9050806112bb565b600282600201546112b79190613277565b9050805b50808360060160008b815260200190815260200160002060008c8152602001908152602001600020546112ee91906132dc565b4210156112fa57600080fd5b81600101548460010160003373ffffffffffffffffffffffffffffffffffffffff1673ffffffffffffffffffffffffffffffffffffffff168152602001908152602001600020541015611382576040517f08c379a00000000000000000000000000000000000000000000000000000000081526004016113799061335c565b60405180910390fd5b600061139283600301548c61286c565b90506000808c8303611589578c91508460030154905085600a0160008e815260200190815260200160002060008154809291906113ce906134b4565b919050555085600b0160008660030154815260200190815260200160002060008154809291906113fd906134b4565b919050555084600101548760010160003373ffffffffffffffffffffffffffffffffffffffff1673ffffffffffffffffffffffffffffffffffffffff168152602001908152602001600020600082825461145791906132dc565b92505081905550428660070160008e815260200190815260200160002060008f8152602001908152602001600020819055508560070160008d815260200190815260200160002060008660030154815260200190815260200160002054426114bf91906132a8565b8660050160008760030154815260200190815260200160002060008282546114e791906132dc565b92505081905550600088600301600087600301548152602001908152602001600020600201819055508c8660040160008e815260200190815260200160002060030181905550338660040160008e815260200190815260200160002060040160016101000a81548173ffffffffffffffffffffffffffffffffffffffff021916908373ffffffffffffffffffffffffffffffffffffffff1602179055506116d6565b846003015491508c905085600a0160008660030154815260200190815260200160002060008154809291906115bd906134b4565b919050555085600b0160008e815260200190815260200160002060008154809291906115e8906134b4565b9190505550600285600101546115fe91906134fc565b8760010160008760040160019054906101000a900473ffffffffffffffffffffffffffffffffffffffff1673ffffffffffffffffffffffffffffffffffffffff1673ffffffffffffffffffffffffffffffffffffffff168152602001908152602001600020600082825461167291906132dc565b9250508190555084600101548760010160003373ffffffffffffffffffffffffffffffffffffffff1673ffffffffffffffffffffffffffffffffffffffff16815260200190815260200160002060008282546116ce91906132a8565b925050819055505b428660060160008e815260200190815260200160002060008f815260200190815260200160002081905550428660060160008e81526020019081526020016000206000876003015481526020019081526020016000208190555081818760070160008f81526020019081526020016000206000858152602001908152602001600020549a509a509a5050505050505050509250925092565b600061177861283f565b905080600001600081548092919061178f906134b4565b919050555060405180610100016040528082600001548152602001868152602001858152602001600081526020016001151581526020013373ffffffffffffffffffffffffffffffffffffffff16815260200184815260200183815250816001016000836000015481526020019081526020016000206000820151816000015560208201518160010155604082015181600201556060820151816003015560808201518160040160006101000a81548160ff02191690831515021790555060a08201518160040160016101000a81548173ffffffffffffffffffffffffffffffffffffffff021916908373ffffffffffffffffffffffffffffffffffffffff16021790555060c08201518160050190816118a991906136ea565b5060e08201518160060190816118bf91906136ea565b509050505050505050565b6118d2612b12565b60006118dc61283f565b905080600401600084815260200190815260200160002060405180610100016040529081600082015481526020016001820154815260200160028201548152602001600382015481526020016004820160009054906101000a900460ff161515151581526020016004820160019054906101000a900473ffffffffffffffffffffffffffffffffffffffff1673ffffffffffffffffffffffffffffffffffffffff1673ffffffffffffffffffffffffffffffffffffffff1681526020016005820180546119a890613483565b80601f01602080910402602001604051908101604052809291908181526020018280546119d490613483565b8015611a215780601f106119f657610100808354040283529160200191611a21565b820191906000526020600020905b815481529060010190602001808311611a0457829003601f168201915b50505050508152602001600682018054611a3a90613483565b80601f0160208091040260200160405190810160405280929190818152602001828054611a6690613483565b8015611ab35780601f10611a8857610100808354040283529160200191611ab3565b820191906000526020600020905b815481529060010190602001808311611a9657829003601f168201915b505050505081525050915050919050565b6000611ace6127e5565b90506000611ada61283f565b90506000611ae6612812565b905060008360030160008781526020019081526020016000206002015414611b0d57600080fd5b3373ffffffffffffffffffffffffffffffffffffffff1683600201600087815260200190815260200160002060009054906101000a900473ffffffffffffffffffffffffffffffffffffffff1673ffffffffffffffffffffffffffffffffffffffff1614611b7a57600080fd5b600082600401600086815260200190815260200160002090508060040160009054906101000a900460ff16611be4576040517f08c379a0000000000000000000000000000000000000000000000000000000008152600401611bdb906131f9565b60405180910390fd5b80600101548260010160003373ffffffffffffffffffffffffffffffffffffffff1673ffffffffffffffffffffffffffffffffffffffff168152602001908152602001600020541015611c6c576040517f08c379a0000000000000000000000000000000000000000000000000000000008152600401611c639061335c565b60405180910390fd5b80600101548260010160003373ffffffffffffffffffffffffffffffffffffffff1673ffffffffffffffffffffffffffffffffffffffff1681526020019081526020016000206000828254611cc191906132a8565b92505081905550600060028260020154611cdb9190613277565b856003016000898152602001908152602001600020600901541015611d4257600a8560030160008981526020019081526020016000206009015460028460020154611d269190613277565b611d3091906132a8565b611d3a91906132dc565b905080611d57565b60028260020154611d539190613277565b9050805b5080846006016000888152602001908152602001600020600089815260200190815260200160002054611d8a91906132dc565b421015611d9657600080fd5b600485600301600089815260200190815260200160002060020181905550600084600401600088815260200190815260200160002060040160006101000a81548160ff02191690831515021790555086846004016000888152602001908152602001600020600301819055503384600401600088815260200190815260200160002060040160016101000a81548173ffffffffffffffffffffffffffffffffffffffff021916908373ffffffffffffffffffffffffffffffffffffffff1602179055504284600701600088815260200190815260200160002060008981526020019081526020016000208190555050505050505050565b6000806000611e9a6127e5565b90506000611ea6612812565b90506000611eb261283f565b905060008360030160008981526020019081526020016000206002015414611ed957600080fd5b3373ffffffffffffffffffffffffffffffffffffffff1683600201600089815260200190815260200160002060009054906101000a900473ffffffffffffffffffffffffffffffffffffffff1673ffffffffffffffffffffffffffffffffffffffff1614611f4657600080fd5b600081600101600088815260200190815260200160002090508060040160009054906101000a900460ff1615611fb1576040517f08c379a0000000000000000000000000000000000000000000000000000000008152600401611fa8906131f9565b60405180910390fd5b600060028260020154611fc49190613277565b8560030160008b815260200190815260200160002060090154101561202b57600a8560030160008b8152602001908152602001600020600901546002846002015461200f9190613277565b61201991906132a8565b61202391906132dc565b905080612040565b6002826002015461203c9190613277565b9050805b50808360020160008a815260200190815260200160002060008b81526020019081526020016000205461207391906132dc565b42101561207f57600080fd5b81600101548460010160003373ffffffffffffffffffffffffffffffffffffffff1673ffffffffffffffffffffffffffffffffffffffff168152602001908152602001600020541015612107576040517f08c379a00000000000000000000000000000000000000000000000000000000081526004016120fe9061335c565b60405180910390fd5b600061211783600301548b61286c565b90506000808b83036121e8578b91508460030154905085600a0160008d81526020019081526020016000206000815480929190612153906134b4565b919050555085600b016000866003015481526020019081526020016000206000815480929190612182906134b4565b919050555084600101548760010160003373ffffffffffffffffffffffffffffffffffffffff1673ffffffffffffffffffffffffffffffffffffffff16815260200190815260200160002060008282546121dc91906132dc565b92505081905550612335565b846003015491508b905085600a01600086600301548152602001908152602001600020600081548092919061221c906134b4565b919050555085600b0160008d81526020019081526020016000206000815480929190612247906134b4565b91905055506002856001015461225d91906134fc565b8760010160008760040160019054906101000a900473ffffffffffffffffffffffffffffffffffffffff1673ffffffffffffffffffffffffffffffffffffffff1673ffffffffffffffffffffffffffffffffffffffff16815260200190815260200160002060008282546122d191906132dc565b9250508190555084600101548760010160003373ffffffffffffffffffffffffffffffffffffffff1673ffffffffffffffffffffffffffffffffffffffff168152602001908152602001600020600082825461232d91906132a8565b925050819055505b428660020160008d815260200190815260200160002060008e815260200190815260200160002081905550428660020160008d81526020019081526020016000206000876003015481526020019081526020016000208190555060018660010160008d815260200190815260200160002060040160006101000a81548160ff0219169083151502179055506000886003016000876003015481526020019081526020016000206002018190555081819950995050505050505050509250929050565b600061240161283f565b9050600061240d6127e5565b90506000612419612812565b9050848360010160008681526020019081526020016000206003015414612475576040517f08c379a000000000000000000000000000000000000000000000000000000000815260040161246c906133c8565b60405180910390fd5b600482600301600087815260200190815260200160002060020154146124d0576040517f08c379a00000000000000000000000000000000000000000000000000000000081526004016124c790613434565b60405180910390fd5b3373ffffffffffffffffffffffffffffffffffffffff1682600201600087815260200190815260200160002060009054906101000a900473ffffffffffffffffffffffffffffffffffffffff1673ffffffffffffffffffffffffffffffffffffffff161461253d57600080fd5b600083600101600086815260200190815260200160002060030181905550600183600101600086815260200190815260200160002060040160006101000a81548160ff021916908315150217905550600082600301600087815260200190815260200160002060020181905550826001016000858152602001908152602001600020600101548160010160003373ffffffffffffffffffffffffffffffffffffffff1673ffffffffffffffffffffffffffffffffffffffff168152602001908152602001600020600082825461261391906132dc565b925050819055505050505050565b60008061262c61283f565b905080600201600084815260200190815260200160002060008581526020019081526020016000205491505092915050565b600061266861283f565b905080600301600081548092919061267f906134b4565b919050555060405180610100016040528082600301548152602001868152602001858152602001600081526020016001151581526020013373ffffffffffffffffffffffffffffffffffffffff16815260200184815260200183815250816004016000836003015481526020019081526020016000206000820151816000015560208201518160010155604082015181600201556060820151816003015560808201518160040160006101000a81548160ff02191690831515021790555060a08201518160040160016101000a81548173ffffffffffffffffffffffffffffffffffffffff021916908373ffffffffffffffffffffffffffffffffffffffff16021790555060c082015181600501908161279991906136ea565b5060e08201518160060190816127af91906136ea565b509050505050505050565b6000806127c561283f565b905080600b01600084815260200190815260200160002054915050919050565b6000807f3cab9a070a0c61cd0ae9d9e9e2c0781e5ca8691bec4087e5a4701d5ac018dd4e90508091505090565b6000807f2c89d74504b6ad8d4fbde22bc3474166bac5452a11195897f239d8bebe02d70790508091505090565b6000807f1b1c2350f60dba32e7a2436167ce3f8399cd1c51a95c8577f1448f53846d4cda90508091505090565b6000806128776127e5565b9050600081600301600086815260200190815260200160002090506000826003016000868152602001908152602001600020905060006128bb868360030154612a33565b905060006128cd888560030154612a33565b905083600e015484600501546128e391906132dc565b821061290c5760008560030160008a815260200190815260200160002060050181905550612957565b83600e015482106129565783600e01548261292791906132a8565b8560030160008a8152602001908152602001600020600501600082825461294e91906132a8565b925050819055505b5b82600e0154836005015461296b91906132dc565b8110612994576000856003016000898152602001908152602001600020600501819055506129df565b82600e015481106129de5782600e0154816129af91906132a8565b85600301600089815260200190815260200160002060050160008282546129d691906132a8565b925050819055505b5b84600301600089815260200190815260200160002060050154856003016000898152602001908152602001600020600501541115612a24578695505050505050612a2d565b87955050505050505b92915050565b60008060646063612a448686612a7b565b612a4e91906137bc565b612a5891906132dc565b905060648184612a6891906134fc565b612a729190613277565b91505092915050565b600042448484604051602001612a94949392919061380e565b6040516020818303038152906040528051906020012060001c905092915050565b60405180610100016040528060008152602001600081526020016000815260200160008152602001600015158152602001600073ffffffffffffffffffffffffffffffffffffffff16815260200160608152602001606081525090565b60405180610100016040528060008152602001600081526020016000815260200160008152602001600015158152602001600073ffffffffffffffffffffffffffffffffffffffff16815260200160608152602001606081525090565b6000604051905090565b600080fd5b600080fd5b6000819050919050565b612b9681612b83565b8114612ba157600080fd5b50565b600081359050612bb381612b8d565b92915050565b60008060408385031215612bd057612bcf612b79565b5b6000612bde85828601612ba4565b9250506020612bef85828601612ba4565b9150509250929050565b612c0281612b83565b82525050565b6000602082019050612c1d6000830184612bf9565b92915050565b600073ffffffffffffffffffffffffffffffffffffffff82169050919050565b6000612c4e82612c23565b9050919050565b612c5e81612c43565b8114612c6957600080fd5b50565b600081359050612c7b81612c55565b92915050565b600060208284031215612c9757612c96612b79565b5b6000612ca584828501612c6c565b91505092915050565b600060208284031215612cc457612cc3612b79565b5b6000612cd284828501612ba4565b91505092915050565b612ce481612b83565b82525050565b60008115159050919050565b612cff81612cea565b82525050565b6000612d1082612c23565b9050919050565b612d2081612d05565b82525050565b600081519050919050565b600082825260208201905092915050565b60005b83811015612d60578082015181840152602081019050612d45565b60008484015250505050565b6000601f19601f8301169050919050565b6000612d8882612d26565b612d928185612d31565b9350612da2818560208601612d42565b612dab81612d6c565b840191505092915050565b600061010083016000830151612dcf6000860182612cdb565b506020830151612de26020860182612cdb565b506040830151612df56040860182612cdb565b506060830151612e086060860182612cdb565b506080830151612e1b6080860182612cf6565b5060a0830151612e2e60a0860182612d17565b5060c083015184820360c0860152612e468282612d7d565b91505060e083015184820360e0860152612e608282612d7d565b9150508091505092915050565b60006020820190508181036000830152612e878184612db6565b905092915050565b600080fd5b600080fd5b7f4e487b7100000000000000000000000000000000000000000000000000000000600052604160045260246000fd5b612ed182612d6c565b810181811067ffffffffffffffff82111715612ef057612eef612e99565b5b80604052505050565b6000612f03612b6f565b9050612f0f8282612ec8565b919050565b600067ffffffffffffffff821115612f2f57612f2e612e99565b5b612f3882612d6c565b9050602081019050919050565b82818337600083830152505050565b6000612f67612f6284612f14565b612ef9565b905082815260208101848484011115612f8357612f82612e94565b5b612f8e848285612f45565b509392505050565b600082601f830112612fab57612faa612e8f565b5b8135612fbb848260208601612f54565b91505092915050565b60008060008060808587031215612fde57612fdd612b79565b5b6000612fec87828801612ba4565b9450506020612ffd87828801612ba4565b935050604085013567ffffffffffffffff81111561301e5761301d612b7e565b5b61302a87828801612f96565b925050606085013567ffffffffffffffff81111561304b5761304a612b7e565b5b61305787828801612f96565b91505092959194509250565b60006101008301600083015161307c6000860182612cdb565b50602083015161308f6020860182612cdb565b5060408301516130a26040860182612cdb565b5060608301516130b56060860182612cdb565b5060808301516130c86080860182612cf6565b5060a08301516130db60a0860182612d17565b5060c083015184820360c08601526130f38282612d7d565b91505060e083015184820360e086015261310d8282612d7d565b9150508091505092915050565b600060208201905081810360008301526131348184613063565b905092915050565b60006040820190506131516000830185612bf9565b81810360208301526131638184612db6565b90509392505050565b60006040820190506131816000830185612bf9565b81810360208301526131938184613063565b90509392505050565b600082825260208201905092915050565b7f6172656e61206973206e6f74206f70656e000000000000000000000000000000600082015250565b60006131e360118361319c565b91506131ee826131ad565b602082019050919050565b60006020820190508181036000830152613212816131d6565b9050919050565b7f4e487b7100000000000000000000000000000000000000000000000000000000600052601260045260246000fd5b7f4e487b7100000000000000000000000000000000000000000000000000000000600052601160045260246000fd5b600061328282612b83565b915061328d83612b83565b92508261329d5761329c613219565b5b828204905092915050565b60006132b382612b83565b91506132be83612b83565b92508282039050818111156132d6576132d5613248565b5b92915050565b60006132e782612b83565b91506132f283612b83565b925082820190508082111561330a57613309613248565b5b92915050565b7f62726f6b652061737320676f74206e6f206d6f6e657900000000000000000000600082015250565b600061334660168361319c565b915061335182613310565b602082019050919050565b6000602082019050818103600083015261337581613339565b9050919050565b7f796f7520617265206e6f742074686520686f7374000000000000000000000000600082015250565b60006133b260148361319c565b91506133bd8261337c565b602082019050919050565b600060208201905081810360008301526133e1816133a5565b9050919050565b7f796f7520617265206e6f7420696e20746865206172656e610000000000000000600082015250565b600061341e60188361319c565b9150613429826133e8565b602082019050919050565b6000602082019050818103600083015261344d81613411565b9050919050565b7f4e487b7100000000000000000000000000000000000000000000000000000000600052602260045260246000fd5b6000600282049050600182168061349b57607f821691505b6020821081036134ae576134ad613454565b5b50919050565b60006134bf82612b83565b91507fffffffffffffffffffffffffffffffffffffffffffffffffffffffffffffffff82036134f1576134f0613248565b5b600182019050919050565b600061350782612b83565b915061351283612b83565b925082820261352081612b83565b9150828204841483151761353757613536613248565b5b5092915050565b60008190508160005260206000209050919050565b60006020601f8301049050919050565b600082821b905092915050565b6000600883026135a07fffffffffffffffffffffffffffffffffffffffffffffffffffffffffffffffff82613563565b6135aa8683613563565b95508019841693508086168417925050509392505050565b6000819050919050565b60006135e76135e26135dd84612b83565b6135c2565b612b83565b9050919050565b6000819050919050565b613601836135cc565b61361561360d826135ee565b848454613570565b825550505050565b600090565b61362a61361d565b6136358184846135f8565b505050565b5b818110156136595761364e600082613622565b60018101905061363b565b5050565b601f82111561369e5761366f8161353e565b61367884613553565b81016020851015613687578190505b61369b61369385613553565b83018261363a565b50505b505050565b600082821c905092915050565b60006136c1600019846008026136a3565b1980831691505092915050565b60006136da83836136b0565b9150826002028217905092915050565b6136f382612d26565b67ffffffffffffffff81111561370c5761370b612e99565b5b6137168254613483565b61372182828561365d565b600060209050601f8311600181146137545760008415613742578287015190505b61374c85826136ce565b8655506137b4565b601f1984166137628661353e565b60005b8281101561378a57848901518255600182019150602085019450602081019050613765565b868310156137a757848901516137a3601f8916826136b0565b8355505b6001600288020188555050505b505050505050565b60006137c782612b83565b91506137d283612b83565b9250826137e2576137e1613219565b5b828206905092915050565b6000819050919050565b61380861380382612b83565b6137ed565b82525050565b600061381a82876137f7565b60208201915061382a82866137f7565b60208201915061383a82856137f7565b60208201915061384a82846137f7565b6020820191508190509594505050505056fea2646970667358221220c2fab60cdf6a7b37cf08b7a786a8eb32d1262c1228e3f24e6e82dd931072fe0664736f6c63430008120033",
  "linkReferences": {},
  "deployedLinkReferences": {}
}