{
  "_format": "hh-sol-artifact-1",
  "contractName": "ArenaFacet",
  "sourceName": "contracts/facets/ArenaFacet.sol",
  "abi": [
    {
      "anonymous": false,
      "inputs": [
        {
          "indexed": true,
          "internalType": "uint256",
          "name": "_playerId",
          "type": "uint256"
        },
        {
          "indexed": true,
          "internalType": "uint256",
          "name": "_basicArenaId",
          "type": "uint256"
        }
      ],
      "name": "BasicArenaLoss",
      "type": "event"
    },
    {
      "anonymous": false,
      "inputs": [
        {
          "indexed": true,
          "internalType": "uint256",
          "name": "_playerId",
          "type": "uint256"
        },
        {
          "indexed": true,
          "internalType": "uint256",
          "name": "_basicArenaId",
          "type": "uint256"
        }
      ],
      "name": "BasicArenaWin",
      "type": "event"
    },
    {
      "anonymous": false,
      "inputs": [
        {
          "indexed": false,
          "internalType": "uint256",
          "name": "_basicArenaId",
          "type": "uint256"
        },
        {
          "components": [
            {
              "internalType": "uint256",
              "name": "basicArenaId",
              "type": "uint256"
            },
            {
              "internalType": "uint256",
              "name": "cost",
              "type": "uint256"
            },
            {
              "internalType": "uint256",
              "name": "cooldown",
              "type": "uint256"
            },
            {
              "internalType": "uint256",
              "name": "hostId",
              "type": "uint256"
            },
            {
              "internalType": "bool",
              "name": "open",
              "type": "bool"
            },
            {
              "internalType": "address payable",
              "name": "hostAddress",
              "type": "address"
            },
            {
              "internalType": "string",
              "name": "name",
              "type": "string"
            },
            {
              "internalType": "string",
              "name": "url",
              "type": "string"
            }
          ],
          "indexed": false,
          "internalType": "struct BasicArena",
          "name": "_basicArena",
          "type": "tuple"
        }
      ],
      "name": "CreateBasicArena",
      "type": "event"
    },
    {
      "anonymous": false,
      "inputs": [
        {
          "indexed": true,
          "internalType": "uint256",
          "name": "_playerId",
          "type": "uint256"
        },
        {
          "indexed": true,
          "internalType": "uint256",
          "name": "_basicArenaId",
          "type": "uint256"
        }
      ],
      "name": "EnterBasicArena",
      "type": "event"
    },
    {
      "anonymous": false,
      "inputs": [
        {
          "indexed": true,
          "internalType": "uint256",
          "name": "_playerId",
          "type": "uint256"
        },
        {
          "indexed": true,
          "internalType": "uint256",
          "name": "_basicArenaId",
          "type": "uint256"
        }
      ],
      "name": "LeaveBasicArena",
      "type": "event"
    },
    {
      "inputs": [
        {
          "internalType": "uint256",
          "name": "_cost",
          "type": "uint256"
        },
        {
          "internalType": "uint256",
          "name": "_cooldown",
          "type": "uint256"
        },
        {
          "internalType": "string",
          "name": "_name",
          "type": "string"
        },
        {
          "internalType": "string",
          "name": "_uri",
          "type": "string"
        }
      ],
      "name": "creatBasicArena",
      "outputs": [],
      "stateMutability": "nonpayable",
      "type": "function"
    },
    {
      "inputs": [
        {
          "internalType": "uint256",
          "name": "_playerId",
          "type": "uint256"
        },
        {
          "internalType": "uint256",
          "name": "_basicArenaId",
          "type": "uint256"
        }
      ],
      "name": "enterBasicArena",
      "outputs": [],
      "stateMutability": "nonpayable",
      "type": "function"
    },
    {
      "inputs": [
        {
          "internalType": "uint256",
          "name": "_playerId",
          "type": "uint256"
        },
        {
          "internalType": "uint256",
          "name": "_basicArenaId",
          "type": "uint256"
        }
      ],
      "name": "fightBaiscArena",
      "outputs": [],
      "stateMutability": "nonpayable",
      "type": "function"
    },
    {
      "inputs": [
        {
          "internalType": "uint256",
          "name": "_basicArenaId",
          "type": "uint256"
        }
      ],
      "name": "getBasicArena",
      "outputs": [
        {
          "components": [
            {
              "internalType": "uint256",
              "name": "basicArenaId",
              "type": "uint256"
            },
            {
              "internalType": "uint256",
              "name": "cost",
              "type": "uint256"
            },
            {
              "internalType": "uint256",
              "name": "cooldown",
              "type": "uint256"
            },
            {
              "internalType": "uint256",
              "name": "hostId",
              "type": "uint256"
            },
            {
              "internalType": "bool",
              "name": "open",
              "type": "bool"
            },
            {
              "internalType": "address payable",
              "name": "hostAddress",
              "type": "address"
            },
            {
              "internalType": "string",
              "name": "name",
              "type": "string"
            },
            {
              "internalType": "string",
              "name": "url",
              "type": "string"
            }
          ],
          "internalType": "struct BasicArena",
          "name": "",
          "type": "tuple"
        }
      ],
      "stateMutability": "view",
      "type": "function"
    },
    {
      "inputs": [
        {
          "internalType": "uint256",
          "name": "_playerId",
          "type": "uint256"
        },
        {
          "internalType": "uint256",
          "name": "_basicArenaId",
          "type": "uint256"
        }
      ],
      "name": "getBasicArenaCooldowns",
      "outputs": [
        {
          "internalType": "uint256",
          "name": "",
          "type": "uint256"
        }
      ],
      "stateMutability": "view",
      "type": "function"
    },
    {
      "inputs": [],
      "name": "getBasicArenaCount",
      "outputs": [
        {
          "internalType": "uint256",
          "name": "",
          "type": "uint256"
        }
      ],
      "stateMutability": "view",
      "type": "function"
    },
    {
      "inputs": [
        {
          "internalType": "address",
          "name": "_address",
          "type": "address"
        }
      ],
      "name": "getGoldBalance",
      "outputs": [
        {
          "internalType": "uint256",
          "name": "",
          "type": "uint256"
        }
      ],
      "stateMutability": "view",
      "type": "function"
    },
    {
      "inputs": [
        {
          "internalType": "uint256",
          "name": "_playerId",
          "type": "uint256"
        }
      ],
      "name": "getTotalLosses",
      "outputs": [
        {
          "internalType": "uint256",
          "name": "",
          "type": "uint256"
        }
      ],
      "stateMutability": "view",
      "type": "function"
    },
    {
      "inputs": [
        {
          "internalType": "uint256",
          "name": "_playerId",
          "type": "uint256"
        }
      ],
      "name": "getTotalWins",
      "outputs": [
        {
          "internalType": "uint256",
          "name": "",
          "type": "uint256"
        }
      ],
      "stateMutability": "view",
      "type": "function"
    },
    {
      "inputs": [
        {
          "internalType": "uint256",
          "name": "_playerId",
          "type": "uint256"
        },
        {
          "internalType": "uint256",
          "name": "_basicArenaId",
          "type": "uint256"
        }
      ],
      "name": "leaveBasicArena",
      "outputs": [],
      "stateMutability": "nonpayable",
      "type": "function"
    }
  ],
  "bytecode": "0x608060405234801561001057600080fd5b506122b2806100206000396000f3fe608060405234801561001057600080fd5b506004361061009e5760003560e01c806359735adc1161006657806359735adc1461016d578063c7f3ade514610189578063c8fe5c47146101a5578063cc8d469d146101c1578063fb944ffc146101f15761009e565b80630b93942a146100a35780632d2c17be146100bf5780633707caf2146100dd5780634f7d08e51461010d57806354e8a31a1461013d575b600080fd5b6100bd60048036038101906100b891906116e2565b610221565b005b6100c761025d565b6040516100d49190611731565b60405180910390f35b6100f760048036038101906100f291906117aa565b61026c565b6040516101049190611731565b60405180910390f35b610127600480360381019061012291906117d7565b61027e565b6040516101349190611731565b60405180910390f35b610157600480360381019061015291906117d7565b610290565b6040516101649190611996565b60405180910390f35b61018760048036038101906101829190611aed565b6102a8565b005b6101a3600480360381019061019e91906116e2565b610308565b005b6101bf60048036038101906101ba91906116e2565b61037f565b005b6101db60048036038101906101d691906116e2565b6103bb565b6040516101e89190611731565b60405180910390f35b61020b600480360381019061020691906117d7565b6103cf565b6040516102189190611731565b60405180910390f35b61022b82826103e1565b80827f429a014671400a39eaa0b16744a56044df14e9b9124a3919f8425a0b471e25e960405160405180910390a35050565b600061026761077f565b905090565b600061027782610797565b9050919050565b6000610289826107ee565b9050919050565b61029861163b565b6102a182610819565b9050919050565b6102b484848484610a13565b60006102be61077f565b90507fa8944f13c384569cd759dea69a02c83263e937c72f585de37fa46b4bb55b6b08816102eb83610290565b6040516102f9929190611b8c565b60405180910390a15050505050565b6000806103158484610b6f565b809250819350505082827fe5783c40c14d69971fbf9d435486b3a0469a026e4cacbd5e543c18ddd293eca560405160405180910390a382817ff07fe1bc469a482805ec42d00e7477d9bacbd901aedac046ea74d6a10ce2b04a60405160405180910390a350505050565b61038982826110d9565b80827ff4debd39acd9b010e1276185a3f67b145758748b94e0145ce176c42ae6d27a4f60405160405180910390a35050565b60006103c78383611303565b905092915050565b60006103da82611340565b9050919050565b60006103eb61136b565b905060006103f7611398565b905060006104036113c5565b90506000836003016000878152602001908152602001600020600201541461042a57600080fd5b3373ffffffffffffffffffffffffffffffffffffffff1683600201600087815260200190815260200160002060009054906101000a900473ffffffffffffffffffffffffffffffffffffffff1673ffffffffffffffffffffffffffffffffffffffff161461049757600080fd5b600081600101600086815260200190815260200160002090508060040160009054906101000a900460ff16610501576040517f08c379a00000000000000000000000000000000000000000000000000000000081526004016104f890611c19565b60405180910390fd5b6000600282600201546105149190611c97565b85600301600089815260200190815260200160002060090154101561057b57600a856003016000898152602001908152602001600020600901546002846002015461055f9190611c97565b6105699190611cc8565b6105739190611cfc565b905080610590565b6002826002015461058c9190611c97565b9050805b50808360020160008881526020019081526020016000206000898152602001908152602001600020546105c39190611cfc565b4210156105cf57600080fd5b81600101548460010160003373ffffffffffffffffffffffffffffffffffffffff1673ffffffffffffffffffffffffffffffffffffffff168152602001908152602001600020541015610657576040517f08c379a000000000000000000000000000000000000000000000000000000000815260040161064e90611d7c565b60405180910390fd5b81600101548460010160003373ffffffffffffffffffffffffffffffffffffffff1673ffffffffffffffffffffffffffffffffffffffff16815260200190815260200160002060008282546106ac9190611cc8565b92505081905550600485600301600089815260200190815260200160002060020181905550600083600101600088815260200190815260200160002060040160006101000a81548160ff02191690831515021790555086836001016000888152602001908152602001600020600301819055503383600101600088815260200190815260200160002060040160016101000a81548173ffffffffffffffffffffffffffffffffffffffff021916908373ffffffffffffffffffffffffffffffffffffffff16021790555050505050505050565b60008061078a6113c5565b9050806000015491505090565b6000806107a2611398565b90508060010160008473ffffffffffffffffffffffffffffffffffffffff1673ffffffffffffffffffffffffffffffffffffffff16815260200190815260200160002054915050919050565b6000806107f96113c5565b905080600801600084815260200190815260200160002054915050919050565b61082161163b565b600061082b6113c5565b905080600101600084815260200190815260200160002060405180610100016040529081600082015481526020016001820154815260200160028201548152602001600382015481526020016004820160009054906101000a900460ff161515151581526020016004820160019054906101000a900473ffffffffffffffffffffffffffffffffffffffff1673ffffffffffffffffffffffffffffffffffffffff1673ffffffffffffffffffffffffffffffffffffffff1681526020016005820180546108f790611dcb565b80601f016020809104026020016040519081016040528092919081815260200182805461092390611dcb565b80156109705780601f1061094557610100808354040283529160200191610970565b820191906000526020600020905b81548152906001019060200180831161095357829003601f168201915b5050505050815260200160068201805461098990611dcb565b80601f01602080910402602001604051908101604052809291908181526020018280546109b590611dcb565b8015610a025780601f106109d757610100808354040283529160200191610a02565b820191906000526020600020905b8154815290600101906020018083116109e557829003601f168201915b505050505081525050915050919050565b6000610a1d6113c5565b9050806000016000815480929190610a3490611dfc565b919050555060405180610100016040528082600001548152602001868152602001858152602001600081526020016001151581526020013373ffffffffffffffffffffffffffffffffffffffff16815260200184815260200183815250816001016000836000015481526020019081526020016000206000820151816000015560208201518160010155604082015181600201556060820151816003015560808201518160040160006101000a81548160ff02191690831515021790555060a08201518160040160016101000a81548173ffffffffffffffffffffffffffffffffffffffff021916908373ffffffffffffffffffffffffffffffffffffffff16021790555060c0820151816005019081610b4e9190611ff0565b5060e0820151816006019081610b649190611ff0565b509050505050505050565b6000806000610b7c61136b565b90506000610b88611398565b90506000610b946113c5565b905060008360030160008981526020019081526020016000206002015414610bbb57600080fd5b3373ffffffffffffffffffffffffffffffffffffffff1683600201600089815260200190815260200160002060009054906101000a900473ffffffffffffffffffffffffffffffffffffffff1673ffffffffffffffffffffffffffffffffffffffff1614610c2857600080fd5b600081600101600088815260200190815260200160002090508060040160009054906101000a900460ff1615610c93576040517f08c379a0000000000000000000000000000000000000000000000000000000008152600401610c8a90611c19565b60405180910390fd5b600060028260020154610ca69190611c97565b8560030160008b8152602001908152602001600020600901541015610d0d57600a8560030160008b81526020019081526020016000206009015460028460020154610cf19190611c97565b610cfb9190611cc8565b610d059190611cfc565b905080610d22565b60028260020154610d1e9190611c97565b9050805b50808360020160008a815260200190815260200160002060008b815260200190815260200160002054610d559190611cfc565b421015610d6157600080fd5b81600101548460010160003373ffffffffffffffffffffffffffffffffffffffff1673ffffffffffffffffffffffffffffffffffffffff168152602001908152602001600020541015610de9576040517f08c379a0000000000000000000000000000000000000000000000000000000008152600401610de090611d7c565b60405180910390fd5b6000610df983600301548b6113f2565b90506000808b8303610eca578b9150846003015490508560080160008d81526020019081526020016000206000815480929190610e3590611dfc565b9190505550856009016000866003015481526020019081526020016000206000815480929190610e6490611dfc565b919050555084600101548760010160003373ffffffffffffffffffffffffffffffffffffffff1673ffffffffffffffffffffffffffffffffffffffff1681526020019081526020016000206000828254610ebe9190611cfc565b92505081905550611017565b846003015491508b9050856008016000866003015481526020019081526020016000206000815480929190610efe90611dfc565b91905055508560090160008d81526020019081526020016000206000815480929190610f2990611dfc565b919050555060028560010154610f3f91906120c2565b8760010160008760040160019054906101000a900473ffffffffffffffffffffffffffffffffffffffff1673ffffffffffffffffffffffffffffffffffffffff1673ffffffffffffffffffffffffffffffffffffffff1681526020019081526020016000206000828254610fb39190611cfc565b9250508190555084600101548760010160003373ffffffffffffffffffffffffffffffffffffffff1673ffffffffffffffffffffffffffffffffffffffff168152602001908152602001600020600082825461100f9190611cc8565b925050819055505b428660020160008d815260200190815260200160002060008e815260200190815260200160002081905550428660020160008d81526020019081526020016000206000876003015481526020019081526020016000208190555060018660010160008d815260200190815260200160002060040160006101000a81548160ff0219169083151502179055506000886003016000876003015481526020019081526020016000206002018190555081819950995050505050505050509250929050565b60006110e36113c5565b905060006110ef61136b565b905060006110fb611398565b9050848360010160008681526020019081526020016000206003015414611157576040517f08c379a000000000000000000000000000000000000000000000000000000000815260040161114e90612150565b60405180910390fd5b600482600301600087815260200190815260200160002060020154146111b2576040517f08c379a00000000000000000000000000000000000000000000000000000000081526004016111a9906121bc565b60405180910390fd5b3373ffffffffffffffffffffffffffffffffffffffff1682600201600087815260200190815260200160002060009054906101000a900473ffffffffffffffffffffffffffffffffffffffff1673ffffffffffffffffffffffffffffffffffffffff161461121f57600080fd5b600083600101600086815260200190815260200160002060030181905550600183600101600086815260200190815260200160002060040160006101000a81548160ff021916908315150217905550600082600301600087815260200190815260200160002060020181905550826001016000858152602001908152602001600020600101548160010160003373ffffffffffffffffffffffffffffffffffffffff1673ffffffffffffffffffffffffffffffffffffffff16815260200190815260200160002060008282546112f59190611cfc565b925050819055505050505050565b60008061130e6113c5565b905080600201600084815260200190815260200160002060008581526020019081526020016000205491505092915050565b60008061134b6113c5565b905080600901600084815260200190815260200160002054915050919050565b6000807f3cab9a070a0c61cd0ae9d9e9e2c0781e5ca8691bec4087e5a4701d5ac018dd4e90508091505090565b6000807f2c89d74504b6ad8d4fbde22bc3474166bac5452a11195897f239d8bebe02d70790508091505090565b6000807f1b1c2350f60dba32e7a2436167ce3f8399cd1c51a95c8577f1448f53846d4cda90508091505090565b6000806113fd61136b565b9050600081600301600086815260200190815260200160002090506000826003016000868152602001908152602001600020905060006114418683600301546115b9565b905060006114538885600301546115b9565b905083600e015484600501546114699190611cfc565b82106114925760008560030160008a8152602001908152602001600020600501819055506114dd565b83600e015482106114dc5783600e0154826114ad9190611cc8565b8560030160008a815260200190815260200160002060050160008282546114d49190611cc8565b925050819055505b5b82600e015483600501546114f19190611cfc565b811061151a57600085600301600089815260200190815260200160002060050181905550611565565b82600e015481106115645782600e0154816115359190611cc8565b856003016000898152602001908152602001600020600501600082825461155c9190611cc8565b925050819055505b5b846003016000898152602001908152602001600020600501548560030160008981526020019081526020016000206005015411156115aa5786955050505050506115b3565b87955050505050505b92915050565b600080606460096115ca8686611601565b6115d491906121dc565b6115de9190611cfc565b9050606481846115ee91906120c2565b6115f89190611c97565b91505092915050565b60004244848460405160200161161a949392919061222e565b6040516020818303038152906040528051906020012060001c905092915050565b60405180610100016040528060008152602001600081526020016000815260200160008152602001600015158152602001600073ffffffffffffffffffffffffffffffffffffffff16815260200160608152602001606081525090565b6000604051905090565b600080fd5b600080fd5b6000819050919050565b6116bf816116ac565b81146116ca57600080fd5b50565b6000813590506116dc816116b6565b92915050565b600080604083850312156116f9576116f86116a2565b5b6000611707858286016116cd565b9250506020611718858286016116cd565b9150509250929050565b61172b816116ac565b82525050565b60006020820190506117466000830184611722565b92915050565b600073ffffffffffffffffffffffffffffffffffffffff82169050919050565b60006117778261174c565b9050919050565b6117878161176c565b811461179257600080fd5b50565b6000813590506117a48161177e565b92915050565b6000602082840312156117c0576117bf6116a2565b5b60006117ce84828501611795565b91505092915050565b6000602082840312156117ed576117ec6116a2565b5b60006117fb848285016116cd565b91505092915050565b61180d816116ac565b82525050565b60008115159050919050565b61182881611813565b82525050565b60006118398261174c565b9050919050565b6118498161182e565b82525050565b600081519050919050565b600082825260208201905092915050565b60005b8381101561188957808201518184015260208101905061186e565b60008484015250505050565b6000601f19601f8301169050919050565b60006118b18261184f565b6118bb818561185a565b93506118cb81856020860161186b565b6118d481611895565b840191505092915050565b6000610100830160008301516118f86000860182611804565b50602083015161190b6020860182611804565b50604083015161191e6040860182611804565b5060608301516119316060860182611804565b506080830151611944608086018261181f565b5060a083015161195760a0860182611840565b5060c083015184820360c086015261196f82826118a6565b91505060e083015184820360e086015261198982826118a6565b9150508091505092915050565b600060208201905081810360008301526119b081846118df565b905092915050565b600080fd5b600080fd5b7f4e487b7100000000000000000000000000000000000000000000000000000000600052604160045260246000fd5b6119fa82611895565b810181811067ffffffffffffffff82111715611a1957611a186119c2565b5b80604052505050565b6000611a2c611698565b9050611a3882826119f1565b919050565b600067ffffffffffffffff821115611a5857611a576119c2565b5b611a6182611895565b9050602081019050919050565b82818337600083830152505050565b6000611a90611a8b84611a3d565b611a22565b905082815260208101848484011115611aac57611aab6119bd565b5b611ab7848285611a6e565b509392505050565b600082601f830112611ad457611ad36119b8565b5b8135611ae4848260208601611a7d565b91505092915050565b60008060008060808587031215611b0757611b066116a2565b5b6000611b15878288016116cd565b9450506020611b26878288016116cd565b935050604085013567ffffffffffffffff811115611b4757611b466116a7565b5b611b5387828801611abf565b925050606085013567ffffffffffffffff811115611b7457611b736116a7565b5b611b8087828801611abf565b91505092959194509250565b6000604082019050611ba16000830185611722565b8181036020830152611bb381846118df565b90509392505050565b600082825260208201905092915050565b7f6172656e61206973206e6f74206f70656e000000000000000000000000000000600082015250565b6000611c03601183611bbc565b9150611c0e82611bcd565b602082019050919050565b60006020820190508181036000830152611c3281611bf6565b9050919050565b7f4e487b7100000000000000000000000000000000000000000000000000000000600052601260045260246000fd5b7f4e487b7100000000000000000000000000000000000000000000000000000000600052601160045260246000fd5b6000611ca2826116ac565b9150611cad836116ac565b925082611cbd57611cbc611c39565b5b828204905092915050565b6000611cd3826116ac565b9150611cde836116ac565b9250828203905081811115611cf657611cf5611c68565b5b92915050565b6000611d07826116ac565b9150611d12836116ac565b9250828201905080821115611d2a57611d29611c68565b5b92915050565b7f62726f6b652061737320676f74206e6f206d6f6e657900000000000000000000600082015250565b6000611d66601683611bbc565b9150611d7182611d30565b602082019050919050565b60006020820190508181036000830152611d9581611d59565b9050919050565b7f4e487b7100000000000000000000000000000000000000000000000000000000600052602260045260246000fd5b60006002820490506001821680611de357607f821691505b602082108103611df657611df5611d9c565b5b50919050565b6000611e07826116ac565b91507fffffffffffffffffffffffffffffffffffffffffffffffffffffffffffffffff8203611e3957611e38611c68565b5b600182019050919050565b60008190508160005260206000209050919050565b60006020601f8301049050919050565b600082821b905092915050565b600060088302611ea67fffffffffffffffffffffffffffffffffffffffffffffffffffffffffffffffff82611e69565b611eb08683611e69565b95508019841693508086168417925050509392505050565b6000819050919050565b6000611eed611ee8611ee3846116ac565b611ec8565b6116ac565b9050919050565b6000819050919050565b611f0783611ed2565b611f1b611f1382611ef4565b848454611e76565b825550505050565b600090565b611f30611f23565b611f3b818484611efe565b505050565b5b81811015611f5f57611f54600082611f28565b600181019050611f41565b5050565b601f821115611fa457611f7581611e44565b611f7e84611e59565b81016020851015611f8d578190505b611fa1611f9985611e59565b830182611f40565b50505b505050565b600082821c905092915050565b6000611fc760001984600802611fa9565b1980831691505092915050565b6000611fe08383611fb6565b9150826002028217905092915050565b611ff98261184f565b67ffffffffffffffff811115612012576120116119c2565b5b61201c8254611dcb565b612027828285611f63565b600060209050601f83116001811461205a5760008415612048578287015190505b6120528582611fd4565b8655506120ba565b601f19841661206886611e44565b60005b828110156120905784890151825560018201915060208501945060208101905061206b565b868310156120ad57848901516120a9601f891682611fb6565b8355505b6001600288020188555050505b505050505050565b60006120cd826116ac565b91506120d8836116ac565b92508282026120e6816116ac565b915082820484148315176120fd576120fc611c68565b5b5092915050565b7f796f7520617265206e6f742074686520686f7374000000000000000000000000600082015250565b600061213a601483611bbc565b915061214582612104565b602082019050919050565b600060208201905081810360008301526121698161212d565b9050919050565b7f796f7520617265206e6f7420696e20746865206172656e610000000000000000600082015250565b60006121a6601883611bbc565b91506121b182612170565b602082019050919050565b600060208201905081810360008301526121d581612199565b9050919050565b60006121e7826116ac565b91506121f2836116ac565b92508261220257612201611c39565b5b828206905092915050565b6000819050919050565b612228612223826116ac565b61220d565b82525050565b600061223a8287612217565b60208201915061224a8286612217565b60208201915061225a8285612217565b60208201915061226a8284612217565b6020820191508190509594505050505056fea264697066735822122092a259221e9e576ceab71f42824841f154439cacf6cadf28dfb7e926b3bcd39964736f6c63430008120033",
  "linkReferences": {},
  "deployedLinkReferences": {}
}