{
  "_format": "hh-sol-artifact-1",
  "contractName": "TreasureFacet",
  "sourceName": "contracts/facets/TreasureFacet.sol",
  "abi": [
    {
      "anonymous": false,
      "inputs": [
        {
          "components": [
            {
              "internalType": "uint256",
              "name": "id",
              "type": "uint256"
            },
            {
              "internalType": "uint256",
              "name": "treasureSchemaId",
              "type": "uint256"
            },
            {
              "internalType": "uint256",
              "name": "owner",
              "type": "uint256"
            },
            {
              "internalType": "uint256",
              "name": "rank",
              "type": "uint256"
            },
            {
              "internalType": "uint256",
              "name": "pointer",
              "type": "uint256"
            },
            {
              "internalType": "string",
              "name": "name",
              "type": "string"
            },
            {
              "internalType": "string",
              "name": "uri",
              "type": "string"
            }
          ],
          "indexed": false,
          "internalType": "struct Treasure",
          "name": "_treasureSchemaId",
          "type": "tuple"
        }
      ],
      "name": "MintTreasure",
      "type": "event"
    },
    {
      "anonymous": false,
      "inputs": [
        {
          "components": [
            {
              "internalType": "uint256",
              "name": "basicTreasureId",
              "type": "uint256"
            },
            {
              "internalType": "uint256",
              "name": "rank",
              "type": "uint256"
            },
            {
              "internalType": "string",
              "name": "name",
              "type": "string"
            },
            {
              "internalType": "string",
              "name": "uri",
              "type": "string"
            }
          ],
          "indexed": false,
          "internalType": "struct TreasureSchema",
          "name": "_treasureSchemaId",
          "type": "tuple"
        }
      ],
      "name": "TreasureSchemaCreation",
      "type": "event"
    },
    {
      "inputs": [
        {
          "internalType": "uint256",
          "name": "_rank",
          "type": "uint256"
        },
        {
          "internalType": "string",
          "name": "_name",
          "type": "string"
        },
        {
          "internalType": "string",
          "name": "_uri",
          "type": "string"
        }
      ],
      "name": "createTreasureSchema",
      "outputs": [],
      "stateMutability": "nonpayable",
      "type": "function"
    },
    {
      "inputs": [
        {
          "internalType": "uint256",
          "name": "_treasureId",
          "type": "uint256"
        }
      ],
      "name": "getTreasure",
      "outputs": [
        {
          "components": [
            {
              "internalType": "uint256",
              "name": "id",
              "type": "uint256"
            },
            {
              "internalType": "uint256",
              "name": "treasureSchemaId",
              "type": "uint256"
            },
            {
              "internalType": "uint256",
              "name": "owner",
              "type": "uint256"
            },
            {
              "internalType": "uint256",
              "name": "rank",
              "type": "uint256"
            },
            {
              "internalType": "uint256",
              "name": "pointer",
              "type": "uint256"
            },
            {
              "internalType": "string",
              "name": "name",
              "type": "string"
            },
            {
              "internalType": "string",
              "name": "uri",
              "type": "string"
            }
          ],
          "internalType": "struct Treasure",
          "name": "",
          "type": "tuple"
        }
      ],
      "stateMutability": "view",
      "type": "function"
    },
    {
      "inputs": [],
      "name": "getTreasureCount",
      "outputs": [
        {
          "internalType": "uint256",
          "name": "",
          "type": "uint256"
        }
      ],
      "stateMutability": "view",
      "type": "function"
    },
    {
      "inputs": [
        {
          "internalType": "uint256",
          "name": "_treasureSchemaId",
          "type": "uint256"
        }
      ],
      "name": "getTreasureSchema",
      "outputs": [
        {
          "components": [
            {
              "internalType": "uint256",
              "name": "basicTreasureId",
              "type": "uint256"
            },
            {
              "internalType": "uint256",
              "name": "rank",
              "type": "uint256"
            },
            {
              "internalType": "string",
              "name": "name",
              "type": "string"
            },
            {
              "internalType": "string",
              "name": "uri",
              "type": "string"
            }
          ],
          "internalType": "struct TreasureSchema",
          "name": "",
          "type": "tuple"
        }
      ],
      "stateMutability": "view",
      "type": "function"
    },
    {
      "inputs": [],
      "name": "getTreasureSchemaCounter",
      "outputs": [
        {
          "internalType": "uint256",
          "name": "",
          "type": "uint256"
        }
      ],
      "stateMutability": "view",
      "type": "function"
    },
    {
      "inputs": [
        {
          "internalType": "uint256",
          "name": "_playerId",
          "type": "uint256"
        }
      ],
      "name": "getTreasures",
      "outputs": [
        {
          "internalType": "uint256[]",
          "name": "",
          "type": "uint256[]"
        }
      ],
      "stateMutability": "view",
      "type": "function"
    },
    {
      "inputs": [
        {
          "internalType": "uint256",
          "name": "_playerId",
          "type": "uint256"
        },
        {
          "internalType": "uint256",
          "name": "_treasureSchemaId",
          "type": "uint256"
        }
      ],
      "name": "mintTreasure",
      "outputs": [],
      "stateMutability": "nonpayable",
      "type": "function"
    }
  ],
  "bytecode": "0x608060405234801561001057600080fd5b50611309806100206000396000f3fe608060405234801561001057600080fd5b506004361061007d5760003560e01c80636f1d3f151161005b5780636f1d3f15146100da57806377750494146100f6578063c97ee77e14610126578063cdf06415146101565761007d565b80632aa3b24d146100825780635b156934146100a05780635c45fd8e146100bc575b600080fd5b61008a610186565b6040516100979190610a35565b60405180910390f35b6100ba60048036038101906100b59190610a90565b610195565b005b6100c46101e9565b6040516100d19190610a35565b60405180910390f35b6100f460048036038101906100ef9190610c16565b6101f8565b005b610110600480360381019061010b9190610ca1565b61024e565b60405161011d9190610d8c565b60405180910390f35b610140600480360381019061013b9190610ca1565b610260565b60405161014d9190610e97565b60405180910390f35b610170600480360381019061016b9190610ca1565b610278565b60405161017d9190610f5c565b60405180910390f35b6000610190610290565b905090565b61019f82826102a8565b7fb05c164f6388fc934fe5b93cd873172104481baff24a033bf3230e55862153cd6101d06101cb610186565b610278565b6040516101dd9190610f5c565b60405180910390a15050565b60006101f3610545565b905090565b61020383838361055d565b7f91820c2567bbb41eb7c7a61f839b8d62d2e7c02b1197a6a41a2907e2d510f93761023461022f6101e9565b610260565b6040516102419190610e97565b60405180910390a1505050565b60606102598261060a565b9050919050565b6102686109b7565b61027182610684565b9050919050565b6102806109df565b610289826107f8565b9050919050565b60008061029b61098a565b9050806000015491505090565b60006102b261098a565b90508060000160008154809291906102c990610fad565b91905055506000816002016000848152602001908152602001600020604051806080016040529081600082015481526020016001820154815260200160028201805461031490611024565b80601f016020809104026020016040519081016040528092919081815260200182805461034090611024565b801561038d5780601f106103625761010080835404028352916020019161038d565b820191906000526020600020905b81548152906001019060200180831161037057829003601f168201915b505050505081526020016003820180546103a690611024565b80601f01602080910402602001604051908101604052809291908181526020018280546103d290611024565b801561041f5780601f106103f45761010080835404028352916020019161041f565b820191906000526020600020905b81548152906001019060200180831161040257829003601f168201915b50505050508152505090506040518060e00160405280836000015481526020018481526020018581526020018260200151815260200183600401600087815260200190815260200160002080549050815260200182604001518152602001826060015181525082600301600084600001548152602001908152602001600020600082015181600001556020820151816001015560408201518160020155606082015181600301556080820151816004015560a08201518160050190816104e59190611201565b5060c08201518160060190816104fb9190611201565b509050508160040160008581526020019081526020016000208260000154908060018154018082558091505060019003906000526020600020016000909190919091505550505050565b60008061055061098a565b9050806001015491505090565b600061056761098a565b905080600101600081548092919061057e90610fad565b91905055506040518060800160405280826001015481526020018581526020018481526020018381525081600201600083600101548152602001908152602001600020600082015181600001556020820151816001015560408201518160020190816105ea9190611201565b5060608201518160030190816106009190611201565b5090505050505050565b6060600061061661098a565b905080600401600084815260200190815260200160002080548060200260200160405190810160405280929190818152602001828054801561067757602002820191906000526020600020905b815481526020019060010190808311610663575b5050505050915050919050565b61068c6109b7565b600061069661098a565b905080600201600084815260200190815260200160002060405180608001604052908160008201548152602001600182015481526020016002820180546106dc90611024565b80601f016020809104026020016040519081016040528092919081815260200182805461070890611024565b80156107555780601f1061072a57610100808354040283529160200191610755565b820191906000526020600020905b81548152906001019060200180831161073857829003601f168201915b5050505050815260200160038201805461076e90611024565b80601f016020809104026020016040519081016040528092919081815260200182805461079a90611024565b80156107e75780601f106107bc576101008083540402835291602001916107e7565b820191906000526020600020905b8154815290600101906020018083116107ca57829003601f168201915b505050505081525050915050919050565b6108006109df565b600061080a61098a565b90508060030160008481526020019081526020016000206040518060e0016040529081600082015481526020016001820154815260200160028201548152602001600382015481526020016004820154815260200160058201805461086e90611024565b80601f016020809104026020016040519081016040528092919081815260200182805461089a90611024565b80156108e75780601f106108bc576101008083540402835291602001916108e7565b820191906000526020600020905b8154815290600101906020018083116108ca57829003601f168201915b5050505050815260200160068201805461090090611024565b80601f016020809104026020016040519081016040528092919081815260200182805461092c90611024565b80156109795780601f1061094e57610100808354040283529160200191610979565b820191906000526020600020905b81548152906001019060200180831161095c57829003601f168201915b505050505081525050915050919050565b6000807fb5dbbc334907f600e1151190a68c4043043163a23a907389a2c6f6231ed4318b90508091505090565b6040518060800160405280600081526020016000815260200160608152602001606081525090565b6040518060e00160405280600081526020016000815260200160008152602001600081526020016000815260200160608152602001606081525090565b6000819050919050565b610a2f81610a1c565b82525050565b6000602082019050610a4a6000830184610a26565b92915050565b6000604051905090565b600080fd5b600080fd5b610a6d81610a1c565b8114610a7857600080fd5b50565b600081359050610a8a81610a64565b92915050565b60008060408385031215610aa757610aa6610a5a565b5b6000610ab585828601610a7b565b9250506020610ac685828601610a7b565b9150509250929050565b600080fd5b600080fd5b6000601f19601f8301169050919050565b7f4e487b7100000000000000000000000000000000000000000000000000000000600052604160045260246000fd5b610b2382610ada565b810181811067ffffffffffffffff82111715610b4257610b41610aeb565b5b80604052505050565b6000610b55610a50565b9050610b618282610b1a565b919050565b600067ffffffffffffffff821115610b8157610b80610aeb565b5b610b8a82610ada565b9050602081019050919050565b82818337600083830152505050565b6000610bb9610bb484610b66565b610b4b565b905082815260208101848484011115610bd557610bd4610ad5565b5b610be0848285610b97565b509392505050565b600082601f830112610bfd57610bfc610ad0565b5b8135610c0d848260208601610ba6565b91505092915050565b600080600060608486031215610c2f57610c2e610a5a565b5b6000610c3d86828701610a7b565b935050602084013567ffffffffffffffff811115610c5e57610c5d610a5f565b5b610c6a86828701610be8565b925050604084013567ffffffffffffffff811115610c8b57610c8a610a5f565b5b610c9786828701610be8565b9150509250925092565b600060208284031215610cb757610cb6610a5a565b5b6000610cc584828501610a7b565b91505092915050565b600081519050919050565b600082825260208201905092915050565b6000819050602082019050919050565b610d0381610a1c565b82525050565b6000610d158383610cfa565b60208301905092915050565b6000602082019050919050565b6000610d3982610cce565b610d438185610cd9565b9350610d4e83610cea565b8060005b83811015610d7f578151610d668882610d09565b9750610d7183610d21565b925050600181019050610d52565b5085935050505092915050565b60006020820190508181036000830152610da68184610d2e565b905092915050565b600081519050919050565b600082825260208201905092915050565b60005b83811015610de8578082015181840152602081019050610dcd565b60008484015250505050565b6000610dff82610dae565b610e098185610db9565b9350610e19818560208601610dca565b610e2281610ada565b840191505092915050565b6000608083016000830151610e456000860182610cfa565b506020830151610e586020860182610cfa565b5060408301518482036040860152610e708282610df4565b91505060608301518482036060860152610e8a8282610df4565b9150508091505092915050565b60006020820190508181036000830152610eb18184610e2d565b905092915050565b600060e083016000830151610ed16000860182610cfa565b506020830151610ee46020860182610cfa565b506040830151610ef76040860182610cfa565b506060830151610f0a6060860182610cfa565b506080830151610f1d6080860182610cfa565b5060a083015184820360a0860152610f358282610df4565b91505060c083015184820360c0860152610f4f8282610df4565b9150508091505092915050565b60006020820190508181036000830152610f768184610eb9565b905092915050565b7f4e487b7100000000000000000000000000000000000000000000000000000000600052601160045260246000fd5b6000610fb882610a1c565b91507fffffffffffffffffffffffffffffffffffffffffffffffffffffffffffffffff8203610fea57610fe9610f7e565b5b600182019050919050565b7f4e487b7100000000000000000000000000000000000000000000000000000000600052602260045260246000fd5b6000600282049050600182168061103c57607f821691505b60208210810361104f5761104e610ff5565b5b50919050565b60008190508160005260206000209050919050565b60006020601f8301049050919050565b600082821b905092915050565b6000600883026110b77fffffffffffffffffffffffffffffffffffffffffffffffffffffffffffffffff8261107a565b6110c1868361107a565b95508019841693508086168417925050509392505050565b6000819050919050565b60006110fe6110f96110f484610a1c565b6110d9565b610a1c565b9050919050565b6000819050919050565b611118836110e3565b61112c61112482611105565b848454611087565b825550505050565b600090565b611141611134565b61114c81848461110f565b505050565b5b8181101561117057611165600082611139565b600181019050611152565b5050565b601f8211156111b55761118681611055565b61118f8461106a565b8101602085101561119e578190505b6111b26111aa8561106a565b830182611151565b50505b505050565b600082821c905092915050565b60006111d8600019846008026111ba565b1980831691505092915050565b60006111f183836111c7565b9150826002028217905092915050565b61120a82610dae565b67ffffffffffffffff81111561122357611222610aeb565b5b61122d8254611024565b611238828285611174565b600060209050601f83116001811461126b5760008415611259578287015190505b61126385826111e5565b8655506112cb565b601f19841661127986611055565b60005b828110156112a15784890151825560018201915060208501945060208101905061127c565b868310156112be57848901516112ba601f8916826111c7565b8355505b6001600288020188555050505b50505050505056fea2646970667358221220ba7646189c4a62194b4abaa096ff178730148262d6057d77c862ef7ff5c7d8c964736f6c63430008120033",
  "linkReferences": {},
  "deployedLinkReferences": {}
}