{
  "_format": "hh-sol-artifact-1",
  "contractName": "TreasureFacet",
  "sourceName": "contracts/facets/TreasureFacet.sol",
  "abi": [
    {
      "anonymous": false,
      "inputs": [
        {
          "indexed": false,
          "internalType": "uint256",
          "name": "_playerId",
          "type": "uint256"
        },
        {
          "components": [
            {
              "internalType": "uint256",
              "name": "basicTreasureId",
              "type": "uint256"
            },
            {
              "internalType": "uint256",
              "name": "rank",
              "type": "uint256"
            },
            {
              "internalType": "string",
              "name": "name",
              "type": "string"
            },
            {
              "internalType": "string",
              "name": "uri",
              "type": "string"
            }
          ],
          "indexed": false,
          "internalType": "struct TreasureSchema",
          "name": "_treasureSchemaId",
          "type": "tuple"
        }
      ],
      "name": "MintTreasure",
      "type": "event"
    },
    {
      "anonymous": false,
      "inputs": [
        {
          "components": [
            {
              "internalType": "uint256",
              "name": "basicTreasureId",
              "type": "uint256"
            },
            {
              "internalType": "uint256",
              "name": "rank",
              "type": "uint256"
            },
            {
              "internalType": "string",
              "name": "name",
              "type": "string"
            },
            {
              "internalType": "string",
              "name": "uri",
              "type": "string"
            }
          ],
          "indexed": false,
          "internalType": "struct TreasureSchema",
          "name": "_treasureSchemaId",
          "type": "tuple"
        }
      ],
      "name": "TreasureSchemaCreation",
      "type": "event"
    },
    {
      "inputs": [
        {
          "internalType": "uint256",
          "name": "_rank",
          "type": "uint256"
        },
        {
          "internalType": "string",
          "name": "_name",
          "type": "string"
        },
        {
          "internalType": "string",
          "name": "_uri",
          "type": "string"
        }
      ],
      "name": "createTreasureSchema",
      "outputs": [],
      "stateMutability": "nonpayable",
      "type": "function"
    },
    {
      "inputs": [],
      "name": "getTreasureCount",
      "outputs": [
        {
          "internalType": "uint256",
          "name": "",
          "type": "uint256"
        }
      ],
      "stateMutability": "view",
      "type": "function"
    },
    {
      "inputs": [
        {
          "internalType": "uint256",
          "name": "_playerId",
          "type": "uint256"
        },
        {
          "internalType": "uint256",
          "name": "_treasureId",
          "type": "uint256"
        }
      ],
      "name": "getTreasurePlayer",
      "outputs": [
        {
          "internalType": "uint256",
          "name": "",
          "type": "uint256"
        }
      ],
      "stateMutability": "view",
      "type": "function"
    },
    {
      "inputs": [
        {
          "internalType": "uint256",
          "name": "_treasureSchemaId",
          "type": "uint256"
        }
      ],
      "name": "getTreasureSchema",
      "outputs": [
        {
          "components": [
            {
              "internalType": "uint256",
              "name": "basicTreasureId",
              "type": "uint256"
            },
            {
              "internalType": "uint256",
              "name": "rank",
              "type": "uint256"
            },
            {
              "internalType": "string",
              "name": "name",
              "type": "string"
            },
            {
              "internalType": "string",
              "name": "uri",
              "type": "string"
            }
          ],
          "internalType": "struct TreasureSchema",
          "name": "",
          "type": "tuple"
        }
      ],
      "stateMutability": "view",
      "type": "function"
    },
    {
      "inputs": [],
      "name": "getTreasureSchemaCounter",
      "outputs": [
        {
          "internalType": "uint256",
          "name": "",
          "type": "uint256"
        }
      ],
      "stateMutability": "view",
      "type": "function"
    },
    {
      "inputs": [
        {
          "internalType": "uint256",
          "name": "_playerId",
          "type": "uint256"
        }
      ],
      "name": "getTreasures",
      "outputs": [
        {
          "internalType": "uint256[]",
          "name": "",
          "type": "uint256[]"
        }
      ],
      "stateMutability": "view",
      "type": "function"
    },
    {
      "inputs": [
        {
          "internalType": "uint256",
          "name": "_playerId",
          "type": "uint256"
        },
        {
          "internalType": "uint256",
          "name": "_treasureSchemaId",
          "type": "uint256"
        }
      ],
      "name": "mintTreasure",
      "outputs": [],
      "stateMutability": "nonpayable",
      "type": "function"
    }
  ],
  "bytecode": "0x608060405234801561001057600080fd5b50610ea3806100206000396000f3fe608060405234801561001057600080fd5b506004361061007d5760003560e01c80636f1d3f151161005b5780636f1d3f15146100da57806377750494146100f65780637dc3942214610126578063c97ee77e146101565761007d565b80632aa3b24d146100825780635b156934146100a05780635c45fd8e146100bc575b600080fd5b61008a610186565b6040516100979190610664565b60405180910390f35b6100ba60048036038101906100b591906106bf565b610195565b005b6100c46101e4565b6040516100d19190610664565b60405180910390f35b6100f460048036038101906100ef9190610845565b6101f3565b005b610110600480360381019061010b91906108d0565b610249565b60405161011d91906109bb565b60405180910390f35b610140600480360381019061013b91906106bf565b61025b565b60405161014d9190610664565b60405180910390f35b610170600480360381019061016b91906108d0565b61026f565b60405161017d9190610ac6565b60405180910390f35b6000610190610287565b905090565b61019f828261029f565b7f0639389f15accac3c356258405bd1f879ed4fd51c25a26f5aaf46c9d2a448b38826101ca8361026f565b6040516101d8929190610ae8565b60405180910390a15050565b60006101ee610306565b905090565b6101fe83838361031e565b7f91820c2567bbb41eb7c7a61f839b8d62d2e7c02b1197a6a41a2907e2d510f93761022f61022a6101e4565b61026f565b60405161023c9190610ac6565b60405180910390a1505050565b6060610254826103cb565b9050919050565b60006102678383610445565b905092915050565b610277610623565b61028082610482565b9050919050565b6000806102926105f6565b9050806000015491505090565b60006102a96105f6565b90508060000160008154809291906102c090610b47565b9190505550806003016000838152602001908152602001600020600084815260200190815260200160002060008154809291906102fc90610b47565b9190505550505050565b6000806103116105f6565b9050806001015491505090565b60006103286105f6565b905080600101600081548092919061033f90610b47565b91905055506040518060800160405280826001015481526020018581526020018481526020018381525081600201600083600101548152602001908152602001600020600082015181600001556020820151816001015560408201518160020190816103ab9190610d9b565b5060608201518160030190816103c19190610d9b565b5090505050505050565b606060006103d76105f6565b905080600401600084815260200190815260200160002080548060200260200160405190810160405280929190818152602001828054801561043857602002820191906000526020600020905b815481526020019060010190808311610424575b5050505050915050919050565b6000806104506105f6565b905080600301600084815260200190815260200160002060008581526020019081526020016000205491505092915050565b61048a610623565b60006104946105f6565b905080600201600084815260200190815260200160002060405180608001604052908160008201548152602001600182015481526020016002820180546104da90610bbe565b80601f016020809104026020016040519081016040528092919081815260200182805461050690610bbe565b80156105535780601f1061052857610100808354040283529160200191610553565b820191906000526020600020905b81548152906001019060200180831161053657829003601f168201915b5050505050815260200160038201805461056c90610bbe565b80601f016020809104026020016040519081016040528092919081815260200182805461059890610bbe565b80156105e55780601f106105ba576101008083540402835291602001916105e5565b820191906000526020600020905b8154815290600101906020018083116105c857829003601f168201915b505050505081525050915050919050565b6000807fb5dbbc334907f600e1151190a68c4043043163a23a907389a2c6f6231ed4318b90508091505090565b6040518060800160405280600081526020016000815260200160608152602001606081525090565b6000819050919050565b61065e8161064b565b82525050565b60006020820190506106796000830184610655565b92915050565b6000604051905090565b600080fd5b600080fd5b61069c8161064b565b81146106a757600080fd5b50565b6000813590506106b981610693565b92915050565b600080604083850312156106d6576106d5610689565b5b60006106e4858286016106aa565b92505060206106f5858286016106aa565b9150509250929050565b600080fd5b600080fd5b6000601f19601f8301169050919050565b7f4e487b7100000000000000000000000000000000000000000000000000000000600052604160045260246000fd5b61075282610709565b810181811067ffffffffffffffff821117156107715761077061071a565b5b80604052505050565b600061078461067f565b90506107908282610749565b919050565b600067ffffffffffffffff8211156107b0576107af61071a565b5b6107b982610709565b9050602081019050919050565b82818337600083830152505050565b60006107e86107e384610795565b61077a565b90508281526020810184848401111561080457610803610704565b5b61080f8482856107c6565b509392505050565b600082601f83011261082c5761082b6106ff565b5b813561083c8482602086016107d5565b91505092915050565b60008060006060848603121561085e5761085d610689565b5b600061086c868287016106aa565b935050602084013567ffffffffffffffff81111561088d5761088c61068e565b5b61089986828701610817565b925050604084013567ffffffffffffffff8111156108ba576108b961068e565b5b6108c686828701610817565b9150509250925092565b6000602082840312156108e6576108e5610689565b5b60006108f4848285016106aa565b91505092915050565b600081519050919050565b600082825260208201905092915050565b6000819050602082019050919050565b6109328161064b565b82525050565b60006109448383610929565b60208301905092915050565b6000602082019050919050565b6000610968826108fd565b6109728185610908565b935061097d83610919565b8060005b838110156109ae5781516109958882610938565b97506109a083610950565b925050600181019050610981565b5085935050505092915050565b600060208201905081810360008301526109d5818461095d565b905092915050565b600081519050919050565b600082825260208201905092915050565b60005b83811015610a175780820151818401526020810190506109fc565b60008484015250505050565b6000610a2e826109dd565b610a3881856109e8565b9350610a488185602086016109f9565b610a5181610709565b840191505092915050565b6000608083016000830151610a746000860182610929565b506020830151610a876020860182610929565b5060408301518482036040860152610a9f8282610a23565b91505060608301518482036060860152610ab98282610a23565b9150508091505092915050565b60006020820190508181036000830152610ae08184610a5c565b905092915050565b6000604082019050610afd6000830185610655565b8181036020830152610b0f8184610a5c565b90509392505050565b7f4e487b7100000000000000000000000000000000000000000000000000000000600052601160045260246000fd5b6000610b528261064b565b91507fffffffffffffffffffffffffffffffffffffffffffffffffffffffffffffffff8203610b8457610b83610b18565b5b600182019050919050565b7f4e487b7100000000000000000000000000000000000000000000000000000000600052602260045260246000fd5b60006002820490506001821680610bd657607f821691505b602082108103610be957610be8610b8f565b5b50919050565b60008190508160005260206000209050919050565b60006020601f8301049050919050565b600082821b905092915050565b600060088302610c517fffffffffffffffffffffffffffffffffffffffffffffffffffffffffffffffff82610c14565b610c5b8683610c14565b95508019841693508086168417925050509392505050565b6000819050919050565b6000610c98610c93610c8e8461064b565b610c73565b61064b565b9050919050565b6000819050919050565b610cb283610c7d565b610cc6610cbe82610c9f565b848454610c21565b825550505050565b600090565b610cdb610cce565b610ce6818484610ca9565b505050565b5b81811015610d0a57610cff600082610cd3565b600181019050610cec565b5050565b601f821115610d4f57610d2081610bef565b610d2984610c04565b81016020851015610d38578190505b610d4c610d4485610c04565b830182610ceb565b50505b505050565b600082821c905092915050565b6000610d7260001984600802610d54565b1980831691505092915050565b6000610d8b8383610d61565b9150826002028217905092915050565b610da4826109dd565b67ffffffffffffffff811115610dbd57610dbc61071a565b5b610dc78254610bbe565b610dd2828285610d0e565b600060209050601f831160018114610e055760008415610df3578287015190505b610dfd8582610d7f565b865550610e65565b601f198416610e1386610bef565b60005b82811015610e3b57848901518255600182019150602085019450602081019050610e16565b86831015610e585784890151610e54601f891682610d61565b8355505b6001600288020188555050505b50505050505056fea2646970667358221220b39b5dfeb2fefb5ce74917a224d4d10f5cc2af55fcec15710aa52b623b05a0e064736f6c63430008120033",
  "linkReferences": {},
  "deployedLinkReferences": {}
}