{
  "_format": "hh-sol-artifact-1",
  "contractName": "TreasureFacet",
  "sourceName": "contracts/facets/TreasureFacet.sol",
  "abi": [
    {
      "anonymous": false,
      "inputs": [
        {
          "indexed": true,
          "internalType": "uint256",
          "name": "_treasureSchemaId",
          "type": "uint256"
        }
      ],
      "name": "TreasureSchemaCreation",
      "type": "event"
    },
    {
      "inputs": [
        {
          "internalType": "uint256",
          "name": "_rank",
          "type": "uint256"
        },
        {
          "internalType": "string",
          "name": "_name",
          "type": "string"
        },
        {
          "internalType": "string",
          "name": "_uri",
          "type": "string"
        }
      ],
      "name": "createTreasureSchema",
      "outputs": [],
      "stateMutability": "nonpayable",
      "type": "function"
    },
    {
      "inputs": [
        {
          "internalType": "uint256",
          "name": "_treasureId",
          "type": "uint256"
        }
      ],
      "name": "getTreasure",
      "outputs": [
        {
          "components": [
            {
              "internalType": "uint256",
              "name": "id",
              "type": "uint256"
            },
            {
              "internalType": "uint256",
              "name": "treasureId",
              "type": "uint256"
            },
            {
              "internalType": "uint256",
              "name": "owner",
              "type": "uint256"
            },
            {
              "internalType": "uint256",
              "name": "rank",
              "type": "uint256"
            },
            {
              "internalType": "uint256",
              "name": "pointer",
              "type": "uint256"
            },
            {
              "internalType": "string",
              "name": "name",
              "type": "string"
            },
            {
              "internalType": "string",
              "name": "uri",
              "type": "string"
            }
          ],
          "internalType": "struct Treasure",
          "name": "",
          "type": "tuple"
        }
      ],
      "stateMutability": "view",
      "type": "function"
    },
    {
      "inputs": [
        {
          "internalType": "uint256",
          "name": "_treasureSchemaId",
          "type": "uint256"
        }
      ],
      "name": "getTreasureSchema",
      "outputs": [
        {
          "components": [
            {
              "internalType": "uint256",
              "name": "basicTreasureId",
              "type": "uint256"
            },
            {
              "internalType": "uint256",
              "name": "rank",
              "type": "uint256"
            },
            {
              "internalType": "string",
              "name": "name",
              "type": "string"
            },
            {
              "internalType": "string",
              "name": "uri",
              "type": "string"
            }
          ],
          "internalType": "struct TreasureSchema",
          "name": "",
          "type": "tuple"
        }
      ],
      "stateMutability": "view",
      "type": "function"
    },
    {
      "inputs": [],
      "name": "getTreasureSchemaCounter",
      "outputs": [
        {
          "internalType": "uint256",
          "name": "",
          "type": "uint256"
        }
      ],
      "stateMutability": "view",
      "type": "function"
    }
  ],
  "bytecode": "0x608060405234801561001057600080fd5b50610da7806100206000396000f3fe608060405234801561001057600080fd5b506004361061004c5760003560e01c80635c45fd8e146100515780636f1d3f151461006f578063c97ee77e1461008b578063cdf06415146100bb575b600080fd5b6100596100eb565b60405161006691906105e4565b60405180910390f35b61008960048036038101906100849190610785565b6100fa565b005b6100a560048036038101906100a09190610810565b61013e565b6040516100b29190610935565b60405180910390f35b6100d560048036038101906100d09190610810565b610156565b6040516100e291906109fa565b60405180910390f35b60006100f561016e565b905090565b610105838383610186565b61010d61016e565b7f94c85e18e5a083c837f0346d1f34dd170645409fd4735d435b03372029cc2c5760405160405180910390a2505050565b610146610566565b61014f82610233565b9050919050565b61015e61058e565b610167826103a7565b9050919050565b600080610179610539565b9050806001015491505090565b6000610190610539565b90508060010160008154809291906101a790610a4b565b91905055506040518060800160405280826001015481526020018581526020018481526020018381525081600201600083600101548152602001908152602001600020600082015181600001556020820151816001015560408201518160020190816102139190610c9f565b5060608201518160030190816102299190610c9f565b5090505050505050565b61023b610566565b6000610245610539565b9050806002016000848152602001908152602001600020604051806080016040529081600082015481526020016001820154815260200160028201805461028b90610ac2565b80601f01602080910402602001604051908101604052809291908181526020018280546102b790610ac2565b80156103045780601f106102d957610100808354040283529160200191610304565b820191906000526020600020905b8154815290600101906020018083116102e757829003601f168201915b5050505050815260200160038201805461031d90610ac2565b80601f016020809104026020016040519081016040528092919081815260200182805461034990610ac2565b80156103965780601f1061036b57610100808354040283529160200191610396565b820191906000526020600020905b81548152906001019060200180831161037957829003601f168201915b505050505081525050915050919050565b6103af61058e565b60006103b9610539565b90508060040160008481526020019081526020016000206040518060e0016040529081600082015481526020016001820154815260200160028201548152602001600382015481526020016004820154815260200160058201805461041d90610ac2565b80601f016020809104026020016040519081016040528092919081815260200182805461044990610ac2565b80156104965780601f1061046b57610100808354040283529160200191610496565b820191906000526020600020905b81548152906001019060200180831161047957829003601f168201915b505050505081526020016006820180546104af90610ac2565b80601f01602080910402602001604051908101604052809291908181526020018280546104db90610ac2565b80156105285780601f106104fd57610100808354040283529160200191610528565b820191906000526020600020905b81548152906001019060200180831161050b57829003601f168201915b505050505081525050915050919050565b6000807fb5dbbc334907f600e1151190a68c4043043163a23a907389a2c6f6231ed4318b90508091505090565b6040518060800160405280600081526020016000815260200160608152602001606081525090565b6040518060e00160405280600081526020016000815260200160008152602001600081526020016000815260200160608152602001606081525090565b6000819050919050565b6105de816105cb565b82525050565b60006020820190506105f960008301846105d5565b92915050565b6000604051905090565b600080fd5b600080fd5b61061c816105cb565b811461062757600080fd5b50565b60008135905061063981610613565b92915050565b600080fd5b600080fd5b6000601f19601f8301169050919050565b7f4e487b7100000000000000000000000000000000000000000000000000000000600052604160045260246000fd5b61069282610649565b810181811067ffffffffffffffff821117156106b1576106b061065a565b5b80604052505050565b60006106c46105ff565b90506106d08282610689565b919050565b600067ffffffffffffffff8211156106f0576106ef61065a565b5b6106f982610649565b9050602081019050919050565b82818337600083830152505050565b6000610728610723846106d5565b6106ba565b90508281526020810184848401111561074457610743610644565b5b61074f848285610706565b509392505050565b600082601f83011261076c5761076b61063f565b5b813561077c848260208601610715565b91505092915050565b60008060006060848603121561079e5761079d610609565b5b60006107ac8682870161062a565b935050602084013567ffffffffffffffff8111156107cd576107cc61060e565b5b6107d986828701610757565b925050604084013567ffffffffffffffff8111156107fa576107f961060e565b5b61080686828701610757565b9150509250925092565b60006020828403121561082657610825610609565b5b60006108348482850161062a565b91505092915050565b610846816105cb565b82525050565b600081519050919050565b600082825260208201905092915050565b60005b8381101561088657808201518184015260208101905061086b565b60008484015250505050565b600061089d8261084c565b6108a78185610857565b93506108b7818560208601610868565b6108c081610649565b840191505092915050565b60006080830160008301516108e3600086018261083d565b5060208301516108f6602086018261083d565b506040830151848203604086015261090e8282610892565b915050606083015184820360608601526109288282610892565b9150508091505092915050565b6000602082019050818103600083015261094f81846108cb565b905092915050565b600060e08301600083015161096f600086018261083d565b506020830151610982602086018261083d565b506040830151610995604086018261083d565b5060608301516109a8606086018261083d565b5060808301516109bb608086018261083d565b5060a083015184820360a08601526109d38282610892565b91505060c083015184820360c08601526109ed8282610892565b9150508091505092915050565b60006020820190508181036000830152610a148184610957565b905092915050565b7f4e487b7100000000000000000000000000000000000000000000000000000000600052601160045260246000fd5b6000610a56826105cb565b91507fffffffffffffffffffffffffffffffffffffffffffffffffffffffffffffffff8203610a8857610a87610a1c565b5b600182019050919050565b7f4e487b7100000000000000000000000000000000000000000000000000000000600052602260045260246000fd5b60006002820490506001821680610ada57607f821691505b602082108103610aed57610aec610a93565b5b50919050565b60008190508160005260206000209050919050565b60006020601f8301049050919050565b600082821b905092915050565b600060088302610b557fffffffffffffffffffffffffffffffffffffffffffffffffffffffffffffffff82610b18565b610b5f8683610b18565b95508019841693508086168417925050509392505050565b6000819050919050565b6000610b9c610b97610b92846105cb565b610b77565b6105cb565b9050919050565b6000819050919050565b610bb683610b81565b610bca610bc282610ba3565b848454610b25565b825550505050565b600090565b610bdf610bd2565b610bea818484610bad565b505050565b5b81811015610c0e57610c03600082610bd7565b600181019050610bf0565b5050565b601f821115610c5357610c2481610af3565b610c2d84610b08565b81016020851015610c3c578190505b610c50610c4885610b08565b830182610bef565b50505b505050565b600082821c905092915050565b6000610c7660001984600802610c58565b1980831691505092915050565b6000610c8f8383610c65565b9150826002028217905092915050565b610ca88261084c565b67ffffffffffffffff811115610cc157610cc061065a565b5b610ccb8254610ac2565b610cd6828285610c12565b600060209050601f831160018114610d095760008415610cf7578287015190505b610d018582610c83565b865550610d69565b601f198416610d1786610af3565b60005b82811015610d3f57848901518255600182019150602085019450602081019050610d1a565b86831015610d5c5784890151610d58601f891682610c65565b8355505b6001600288020188555050505b50505050505056fea2646970667358221220d3a0281267d51dc87968cda01995151c6fc97764e69bce2590797a5a7b16529f64736f6c63430008120033",
  "linkReferences": {},
  "deployedLinkReferences": {}
}