{
  "_format": "hh-sol-artifact-1",
  "contractName": "TreasureFacet",
  "sourceName": "contracts/facets/TreasureFacet.sol",
  "abi": [
    {
      "anonymous": false,
      "inputs": [
        {
          "indexed": false,
          "internalType": "uint256",
          "name": "_playerId",
          "type": "uint256"
        },
        {
          "components": [
            {
              "internalType": "uint256",
              "name": "basicTreasureId",
              "type": "uint256"
            },
            {
              "internalType": "uint256",
              "name": "rank",
              "type": "uint256"
            },
            {
              "internalType": "string",
              "name": "name",
              "type": "string"
            },
            {
              "internalType": "string",
              "name": "uri",
              "type": "string"
            }
          ],
          "indexed": false,
          "internalType": "struct TreasureSchema",
          "name": "_treasureSchemaId",
          "type": "tuple"
        }
      ],
      "name": "MintTreasure",
      "type": "event"
    },
    {
      "anonymous": false,
      "inputs": [
        {
          "components": [
            {
              "internalType": "uint256",
              "name": "basicTreasureId",
              "type": "uint256"
            },
            {
              "internalType": "uint256",
              "name": "rank",
              "type": "uint256"
            },
            {
              "internalType": "string",
              "name": "name",
              "type": "string"
            },
            {
              "internalType": "string",
              "name": "uri",
              "type": "string"
            }
          ],
          "indexed": false,
          "internalType": "struct TreasureSchema",
          "name": "_treasureSchemaId",
          "type": "tuple"
        }
      ],
      "name": "TreasureSchemaCreation",
      "type": "event"
    },
    {
      "inputs": [
        {
          "internalType": "uint256",
          "name": "_rank",
          "type": "uint256"
        },
        {
          "internalType": "string",
          "name": "_name",
          "type": "string"
        },
        {
          "internalType": "string",
          "name": "_uri",
          "type": "string"
        }
      ],
      "name": "createTreasureSchema",
      "outputs": [],
      "stateMutability": "nonpayable",
      "type": "function"
    },
    {
      "inputs": [
        {
          "internalType": "uint256",
          "name": "_playerId",
          "type": "uint256"
        },
        {
          "internalType": "uint256",
          "name": "_treasureId",
          "type": "uint256"
        }
      ],
      "name": "getTreasurePlayer",
      "outputs": [
        {
          "internalType": "uint256",
          "name": "",
          "type": "uint256"
        }
      ],
      "stateMutability": "view",
      "type": "function"
    },
    {
      "inputs": [
        {
          "internalType": "uint256",
          "name": "_treasureSchemaId",
          "type": "uint256"
        }
      ],
      "name": "getTreasureSchema",
      "outputs": [
        {
          "components": [
            {
              "internalType": "uint256",
              "name": "basicTreasureId",
              "type": "uint256"
            },
            {
              "internalType": "uint256",
              "name": "rank",
              "type": "uint256"
            },
            {
              "internalType": "string",
              "name": "name",
              "type": "string"
            },
            {
              "internalType": "string",
              "name": "uri",
              "type": "string"
            }
          ],
          "internalType": "struct TreasureSchema",
          "name": "",
          "type": "tuple"
        }
      ],
      "stateMutability": "view",
      "type": "function"
    },
    {
      "inputs": [],
      "name": "getTreasureSchemaCounter",
      "outputs": [
        {
          "internalType": "uint256",
          "name": "",
          "type": "uint256"
        }
      ],
      "stateMutability": "view",
      "type": "function"
    },
    {
      "inputs": [
        {
          "internalType": "uint256",
          "name": "_playerId",
          "type": "uint256"
        },
        {
          "internalType": "uint256",
          "name": "_treasureSchemaId",
          "type": "uint256"
        }
      ],
      "name": "mintTreasure",
      "outputs": [],
      "stateMutability": "nonpayable",
      "type": "function"
    }
  ],
  "bytecode": "0x608060405234801561001057600080fd5b50610d6c806100206000396000f3fe608060405234801561001057600080fd5b50600436106100575760003560e01c80635b1569341461005c5780635c45fd8e146100785780636f1d3f15146100965780637dc39422146100b2578063c97ee77e146100e2575b600080fd5b610076600480360381019061007191906105dc565b610112565b005b610080610161565b60405161008d919061062b565b60405180910390f35b6100b060048036038101906100ab919061078c565b610170565b005b6100cc60048036038101906100c791906105dc565b6101c6565b6040516100d9919061062b565b60405180910390f35b6100fc60048036038101906100f79190610817565b6101da565b604051610109919061093c565b60405180910390f35b61011c82826101f2565b7f0639389f15accac3c356258405bd1f879ed4fd51c25a26f5aaf46c9d2a448b3882610147836101da565b60405161015592919061095e565b60405180910390a15050565b600061016b61023f565b905090565b61017b838383610257565b7f91820c2567bbb41eb7c7a61f839b8d62d2e7c02b1197a6a41a2907e2d510f9376101ac6101a7610161565b6101da565b6040516101b9919061093c565b60405180910390a1505050565b60006101d2838361038c565b905092915050565b6101e261056a565b6101eb826103c9565b9050919050565b60006101fc61053d565b905080600301600083815260200190815260200160002060008481526020019081526020016000206000815480929190610235906109bd565b9190505550505050565b60008061024a61053d565b9050806000015491505090565b600061026161053d565b9050806000016000815480929190610278906109bd565b91905055506040518060800160405280826000015481526020018581526020018481526020018381525081600201600083600001548152602001908152602001600020600082015181600001556020820151816001015560408201518160020190816102e49190610c11565b5060608201518160030190816102fa9190610c11565b509050506040518060800160405280826000015481526020018581526020018481526020018381525081600401846040516103359190610d1f565b90815260200160405180910390206000820151816000015560208201518160010155604082015181600201908161036c9190610c11565b5060608201518160030190816103829190610c11565b5090505050505050565b60008061039761053d565b905080600301600084815260200190815260200160002060008581526020019081526020016000205491505092915050565b6103d161056a565b60006103db61053d565b9050806002016000848152602001908152602001600020604051806080016040529081600082015481526020016001820154815260200160028201805461042190610a34565b80601f016020809104026020016040519081016040528092919081815260200182805461044d90610a34565b801561049a5780601f1061046f5761010080835404028352916020019161049a565b820191906000526020600020905b81548152906001019060200180831161047d57829003601f168201915b505050505081526020016003820180546104b390610a34565b80601f01602080910402602001604051908101604052809291908181526020018280546104df90610a34565b801561052c5780601f106105015761010080835404028352916020019161052c565b820191906000526020600020905b81548152906001019060200180831161050f57829003601f168201915b505050505081525050915050919050565b6000807fb5dbbc334907f600e1151190a68c4043043163a23a907389a2c6f6231ed4318b90508091505090565b6040518060800160405280600081526020016000815260200160608152602001606081525090565b6000604051905090565b600080fd5b600080fd5b6000819050919050565b6105b9816105a6565b81146105c457600080fd5b50565b6000813590506105d6816105b0565b92915050565b600080604083850312156105f3576105f261059c565b5b6000610601858286016105c7565b9250506020610612858286016105c7565b9150509250929050565b610625816105a6565b82525050565b6000602082019050610640600083018461061c565b92915050565b600080fd5b600080fd5b6000601f19601f8301169050919050565b7f4e487b7100000000000000000000000000000000000000000000000000000000600052604160045260246000fd5b61069982610650565b810181811067ffffffffffffffff821117156106b8576106b7610661565b5b80604052505050565b60006106cb610592565b90506106d78282610690565b919050565b600067ffffffffffffffff8211156106f7576106f6610661565b5b61070082610650565b9050602081019050919050565b82818337600083830152505050565b600061072f61072a846106dc565b6106c1565b90508281526020810184848401111561074b5761074a61064b565b5b61075684828561070d565b509392505050565b600082601f83011261077357610772610646565b5b813561078384826020860161071c565b91505092915050565b6000806000606084860312156107a5576107a461059c565b5b60006107b3868287016105c7565b935050602084013567ffffffffffffffff8111156107d4576107d36105a1565b5b6107e08682870161075e565b925050604084013567ffffffffffffffff811115610801576108006105a1565b5b61080d8682870161075e565b9150509250925092565b60006020828403121561082d5761082c61059c565b5b600061083b848285016105c7565b91505092915050565b61084d816105a6565b82525050565b600081519050919050565b600082825260208201905092915050565b60005b8381101561088d578082015181840152602081019050610872565b60008484015250505050565b60006108a482610853565b6108ae818561085e565b93506108be81856020860161086f565b6108c781610650565b840191505092915050565b60006080830160008301516108ea6000860182610844565b5060208301516108fd6020860182610844565b50604083015184820360408601526109158282610899565b9150506060830151848203606086015261092f8282610899565b9150508091505092915050565b6000602082019050818103600083015261095681846108d2565b905092915050565b6000604082019050610973600083018561061c565b818103602083015261098581846108d2565b90509392505050565b7f4e487b7100000000000000000000000000000000000000000000000000000000600052601160045260246000fd5b60006109c8826105a6565b91507fffffffffffffffffffffffffffffffffffffffffffffffffffffffffffffffff82036109fa576109f961098e565b5b600182019050919050565b7f4e487b7100000000000000000000000000000000000000000000000000000000600052602260045260246000fd5b60006002820490506001821680610a4c57607f821691505b602082108103610a5f57610a5e610a05565b5b50919050565b60008190508160005260206000209050919050565b60006020601f8301049050919050565b600082821b905092915050565b600060088302610ac77fffffffffffffffffffffffffffffffffffffffffffffffffffffffffffffffff82610a8a565b610ad18683610a8a565b95508019841693508086168417925050509392505050565b6000819050919050565b6000610b0e610b09610b04846105a6565b610ae9565b6105a6565b9050919050565b6000819050919050565b610b2883610af3565b610b3c610b3482610b15565b848454610a97565b825550505050565b600090565b610b51610b44565b610b5c818484610b1f565b505050565b5b81811015610b8057610b75600082610b49565b600181019050610b62565b5050565b601f821115610bc557610b9681610a65565b610b9f84610a7a565b81016020851015610bae578190505b610bc2610bba85610a7a565b830182610b61565b50505b505050565b600082821c905092915050565b6000610be860001984600802610bca565b1980831691505092915050565b6000610c018383610bd7565b9150826002028217905092915050565b610c1a82610853565b67ffffffffffffffff811115610c3357610c32610661565b5b610c3d8254610a34565b610c48828285610b84565b600060209050601f831160018114610c7b5760008415610c69578287015190505b610c738582610bf5565b865550610cdb565b601f198416610c8986610a65565b60005b82811015610cb157848901518255600182019150602085019450602081019050610c8c565b86831015610cce5784890151610cca601f891682610bd7565b8355505b6001600288020188555050505b505050505050565b600081905092915050565b6000610cf982610853565b610d038185610ce3565b9350610d1381856020860161086f565b80840191505092915050565b6000610d2b8284610cee565b91508190509291505056fea2646970667358221220df8b64b22a276ce2015cea956b6d4f17a9454fc852c9d404c33c45442d860d2064736f6c63430008120033",
  "linkReferences": {},
  "deployedLinkReferences": {}
}