{
  "_format": "hh-sol-artifact-1",
  "contractName": "TreasureFacet",
  "sourceName": "contracts/facets/TreasureFacet.sol",
  "abi": [
    {
      "anonymous": false,
      "inputs": [
        {
          "indexed": false,
          "internalType": "uint256",
          "name": "_playerId",
          "type": "uint256"
        },
        {
          "components": [
            {
              "internalType": "uint256",
              "name": "basicTreasureId",
              "type": "uint256"
            },
            {
              "internalType": "uint256",
              "name": "rank",
              "type": "uint256"
            },
            {
              "internalType": "string",
              "name": "name",
              "type": "string"
            },
            {
              "internalType": "string",
              "name": "uri",
              "type": "string"
            }
          ],
          "indexed": false,
          "internalType": "struct TreasureSchema",
          "name": "_treasureSchemaId",
          "type": "tuple"
        }
      ],
      "name": "MintTreasure",
      "type": "event"
    },
    {
      "anonymous": false,
      "inputs": [
        {
          "components": [
            {
              "internalType": "uint256",
              "name": "basicTreasureId",
              "type": "uint256"
            },
            {
              "internalType": "uint256",
              "name": "rank",
              "type": "uint256"
            },
            {
              "internalType": "string",
              "name": "name",
              "type": "string"
            },
            {
              "internalType": "string",
              "name": "uri",
              "type": "string"
            }
          ],
          "indexed": false,
          "internalType": "struct TreasureSchema",
          "name": "_treasureSchemaId",
          "type": "tuple"
        }
      ],
      "name": "TreasureSchemaCreation",
      "type": "event"
    },
    {
      "inputs": [
        {
          "internalType": "uint256",
          "name": "_rank",
          "type": "uint256"
        },
        {
          "internalType": "string",
          "name": "_name",
          "type": "string"
        },
        {
          "internalType": "string",
          "name": "_uri",
          "type": "string"
        }
      ],
      "name": "createTreasureSchema",
      "outputs": [],
      "stateMutability": "nonpayable",
      "type": "function"
    },
    {
      "inputs": [
        {
          "internalType": "uint256",
          "name": "_playerId",
          "type": "uint256"
        },
        {
          "internalType": "uint256",
          "name": "_treasureId",
          "type": "uint256"
        }
      ],
      "name": "getTreasurePlayer",
      "outputs": [
        {
          "internalType": "uint256",
          "name": "",
          "type": "uint256"
        }
      ],
      "stateMutability": "view",
      "type": "function"
    },
    {
      "inputs": [
        {
          "internalType": "uint256",
          "name": "_treasureSchemaId",
          "type": "uint256"
        }
      ],
      "name": "getTreasureSchema",
      "outputs": [
        {
          "components": [
            {
              "internalType": "uint256",
              "name": "basicTreasureId",
              "type": "uint256"
            },
            {
              "internalType": "uint256",
              "name": "rank",
              "type": "uint256"
            },
            {
              "internalType": "string",
              "name": "name",
              "type": "string"
            },
            {
              "internalType": "string",
              "name": "uri",
              "type": "string"
            }
          ],
          "internalType": "struct TreasureSchema",
          "name": "",
          "type": "tuple"
        }
      ],
      "stateMutability": "view",
      "type": "function"
    },
    {
      "inputs": [],
      "name": "getTreasureSchemaCounter",
      "outputs": [
        {
          "internalType": "uint256",
          "name": "",
          "type": "uint256"
        }
      ],
      "stateMutability": "view",
      "type": "function"
    },
    {
      "inputs": [
        {
          "internalType": "uint256",
          "name": "_playerId",
          "type": "uint256"
        },
        {
          "internalType": "uint256",
          "name": "_treasureSchemaId",
          "type": "uint256"
        }
      ],
      "name": "mintTreasure",
      "outputs": [],
      "stateMutability": "nonpayable",
      "type": "function"
    }
  ],
  "bytecode": "0x608060405234801561001057600080fd5b50610c91806100206000396000f3fe608060405234801561001057600080fd5b50600436106100575760003560e01c80635b1569341461005c5780635c45fd8e146100785780636f1d3f15146100965780637dc39422146100b2578063c97ee77e146100e2575b600080fd5b61007660048036038101906100719190610554565b610112565b005b610080610161565b60405161008d91906105a3565b60405180910390f35b6100b060048036038101906100ab9190610704565b610170565b005b6100cc60048036038101906100c79190610554565b6101c6565b6040516100d991906105a3565b60405180910390f35b6100fc60048036038101906100f7919061078f565b6101da565b60405161010991906108b4565b60405180910390f35b61011c82826101f2565b7f0639389f15accac3c356258405bd1f879ed4fd51c25a26f5aaf46c9d2a448b3882610147836101da565b6040516101559291906108d6565b60405180910390a15050565b600061016b61023f565b905090565b61017b838383610257565b7f91820c2567bbb41eb7c7a61f839b8d62d2e7c02b1197a6a41a2907e2d510f9376101ac6101a7610161565b6101da565b6040516101b991906108b4565b60405180910390a1505050565b60006101d28383610304565b905092915050565b6101e26104e2565b6101eb82610341565b9050919050565b60006101fc6104b5565b90508060020160008381526020019081526020016000206000848152602001908152602001600020600081548092919061023590610935565b9190505550505050565b60008061024a6104b5565b9050806000015491505090565b60006102616104b5565b905080600001600081548092919061027890610935565b91905055506040518060800160405280826000015481526020018581526020018481526020018381525081600101600083600001548152602001908152602001600020600082015181600001556020820151816001015560408201518160020190816102e49190610b89565b5060608201518160030190816102fa9190610b89565b5090505050505050565b60008061030f6104b5565b905080600201600084815260200190815260200160002060008581526020019081526020016000205491505092915050565b6103496104e2565b60006103536104b5565b90508060010160008481526020019081526020016000206040518060800160405290816000820154815260200160018201548152602001600282018054610399906109ac565b80601f01602080910402602001604051908101604052809291908181526020018280546103c5906109ac565b80156104125780601f106103e757610100808354040283529160200191610412565b820191906000526020600020905b8154815290600101906020018083116103f557829003601f168201915b5050505050815260200160038201805461042b906109ac565b80601f0160208091040260200160405190810160405280929190818152602001828054610457906109ac565b80156104a45780601f10610479576101008083540402835291602001916104a4565b820191906000526020600020905b81548152906001019060200180831161048757829003601f168201915b505050505081525050915050919050565b6000807fb5dbbc334907f600e1151190a68c4043043163a23a907389a2c6f6231ed4318b90508091505090565b6040518060800160405280600081526020016000815260200160608152602001606081525090565b6000604051905090565b600080fd5b600080fd5b6000819050919050565b6105318161051e565b811461053c57600080fd5b50565b60008135905061054e81610528565b92915050565b6000806040838503121561056b5761056a610514565b5b60006105798582860161053f565b925050602061058a8582860161053f565b9150509250929050565b61059d8161051e565b82525050565b60006020820190506105b86000830184610594565b92915050565b600080fd5b600080fd5b6000601f19601f8301169050919050565b7f4e487b7100000000000000000000000000000000000000000000000000000000600052604160045260246000fd5b610611826105c8565b810181811067ffffffffffffffff821117156106305761062f6105d9565b5b80604052505050565b600061064361050a565b905061064f8282610608565b919050565b600067ffffffffffffffff82111561066f5761066e6105d9565b5b610678826105c8565b9050602081019050919050565b82818337600083830152505050565b60006106a76106a284610654565b610639565b9050828152602081018484840111156106c3576106c26105c3565b5b6106ce848285610685565b509392505050565b600082601f8301126106eb576106ea6105be565b5b81356106fb848260208601610694565b91505092915050565b60008060006060848603121561071d5761071c610514565b5b600061072b8682870161053f565b935050602084013567ffffffffffffffff81111561074c5761074b610519565b5b610758868287016106d6565b925050604084013567ffffffffffffffff81111561077957610778610519565b5b610785868287016106d6565b9150509250925092565b6000602082840312156107a5576107a4610514565b5b60006107b38482850161053f565b91505092915050565b6107c58161051e565b82525050565b600081519050919050565b600082825260208201905092915050565b60005b838110156108055780820151818401526020810190506107ea565b60008484015250505050565b600061081c826107cb565b61082681856107d6565b93506108368185602086016107e7565b61083f816105c8565b840191505092915050565b600060808301600083015161086260008601826107bc565b50602083015161087560208601826107bc565b506040830151848203604086015261088d8282610811565b915050606083015184820360608601526108a78282610811565b9150508091505092915050565b600060208201905081810360008301526108ce818461084a565b905092915050565b60006040820190506108eb6000830185610594565b81810360208301526108fd818461084a565b90509392505050565b7f4e487b7100000000000000000000000000000000000000000000000000000000600052601160045260246000fd5b60006109408261051e565b91507fffffffffffffffffffffffffffffffffffffffffffffffffffffffffffffffff820361097257610971610906565b5b600182019050919050565b7f4e487b7100000000000000000000000000000000000000000000000000000000600052602260045260246000fd5b600060028204905060018216806109c457607f821691505b6020821081036109d7576109d661097d565b5b50919050565b60008190508160005260206000209050919050565b60006020601f8301049050919050565b600082821b905092915050565b600060088302610a3f7fffffffffffffffffffffffffffffffffffffffffffffffffffffffffffffffff82610a02565b610a498683610a02565b95508019841693508086168417925050509392505050565b6000819050919050565b6000610a86610a81610a7c8461051e565b610a61565b61051e565b9050919050565b6000819050919050565b610aa083610a6b565b610ab4610aac82610a8d565b848454610a0f565b825550505050565b600090565b610ac9610abc565b610ad4818484610a97565b505050565b5b81811015610af857610aed600082610ac1565b600181019050610ada565b5050565b601f821115610b3d57610b0e816109dd565b610b17846109f2565b81016020851015610b26578190505b610b3a610b32856109f2565b830182610ad9565b50505b505050565b600082821c905092915050565b6000610b6060001984600802610b42565b1980831691505092915050565b6000610b798383610b4f565b9150826002028217905092915050565b610b92826107cb565b67ffffffffffffffff811115610bab57610baa6105d9565b5b610bb582546109ac565b610bc0828285610afc565b600060209050601f831160018114610bf35760008415610be1578287015190505b610beb8582610b6d565b865550610c53565b601f198416610c01866109dd565b60005b82811015610c2957848901518255600182019150602085019450602081019050610c04565b86831015610c465784890151610c42601f891682610b4f565b8355505b6001600288020188555050505b50505050505056fea2646970667358221220673bb87310a126e23c6f01d50fe637153f38083dc9eb4bce3cb4c1566dbd4eb264736f6c63430008120033",
  "linkReferences": {},
  "deployedLinkReferences": {}
}