{
  "_format": "hh-sol-artifact-1",
  "contractName": "PlayerFacet",
  "sourceName": "contracts/facets/PlayerFacet.sol",
  "abi": [
    {
      "anonymous": false,
      "inputs": [
        {
          "indexed": true,
          "internalType": "address",
          "name": "owner",
          "type": "address"
        },
        {
          "indexed": true,
          "internalType": "address",
          "name": "approved",
          "type": "address"
        },
        {
          "indexed": true,
          "internalType": "uint256",
          "name": "tokenId",
          "type": "uint256"
        }
      ],
      "name": "Approval",
      "type": "event"
    },
    {
      "anonymous": false,
      "inputs": [
        {
          "indexed": true,
          "internalType": "address",
          "name": "owner",
          "type": "address"
        },
        {
          "indexed": true,
          "internalType": "address",
          "name": "operator",
          "type": "address"
        },
        {
          "indexed": false,
          "internalType": "bool",
          "name": "approved",
          "type": "bool"
        }
      ],
      "name": "ApprovalForAll",
      "type": "event"
    },
    {
      "anonymous": false,
      "inputs": [
        {
          "indexed": true,
          "internalType": "uint256",
          "name": "id",
          "type": "uint256"
        },
        {
          "indexed": true,
          "internalType": "address",
          "name": "owner",
          "type": "address"
        },
        {
          "indexed": false,
          "internalType": "string",
          "name": "name",
          "type": "string"
        },
        {
          "indexed": false,
          "internalType": "uint256",
          "name": "_class",
          "type": "uint256"
        }
      ],
      "name": "Mint",
      "type": "event"
    },
    {
      "anonymous": false,
      "inputs": [
        {
          "indexed": true,
          "internalType": "address",
          "name": "owner",
          "type": "address"
        },
        {
          "indexed": true,
          "internalType": "uint256",
          "name": "id",
          "type": "uint256"
        },
        {
          "indexed": true,
          "internalType": "string",
          "name": "newName",
          "type": "string"
        }
      ],
      "name": "NameChange",
      "type": "event"
    },
    {
      "anonymous": false,
      "inputs": [
        {
          "indexed": false,
          "internalType": "string",
          "name": "destination",
          "type": "string"
        },
        {
          "indexed": true,
          "internalType": "address",
          "name": "recipient",
          "type": "address"
        },
        {
          "indexed": false,
          "internalType": "uint256",
          "name": "playerId",
          "type": "uint256"
        }
      ],
      "name": "SentTransferRemote",
      "type": "event"
    },
    {
      "anonymous": false,
      "inputs": [
        {
          "indexed": true,
          "internalType": "address",
          "name": "from",
          "type": "address"
        },
        {
          "indexed": true,
          "internalType": "address",
          "name": "to",
          "type": "address"
        },
        {
          "indexed": true,
          "internalType": "uint256",
          "name": "tokenId",
          "type": "uint256"
        }
      ],
      "name": "Transfer",
      "type": "event"
    },
    {
      "inputs": [
        {
          "internalType": "uint256",
          "name": "_id",
          "type": "uint256"
        },
        {
          "internalType": "string",
          "name": "_newName",
          "type": "string"
        }
      ],
      "name": "changeName",
      "outputs": [],
      "stateMutability": "nonpayable",
      "type": "function"
    },
    {
      "inputs": [],
      "name": "getBlocktime",
      "outputs": [
        {
          "internalType": "uint256",
          "name": "",
          "type": "uint256"
        }
      ],
      "stateMutability": "view",
      "type": "function"
    },
    {
      "inputs": [
        {
          "internalType": "uint256",
          "name": "_playerId",
          "type": "uint256"
        }
      ],
      "name": "getPlayer",
      "outputs": [
        {
          "components": [
            {
              "internalType": "uint256",
              "name": "level",
              "type": "uint256"
            },
            {
              "internalType": "uint256",
              "name": "xp",
              "type": "uint256"
            },
            {
              "internalType": "uint256",
              "name": "status",
              "type": "uint256"
            },
            {
              "internalType": "uint256",
              "name": "strength",
              "type": "uint256"
            },
            {
              "internalType": "uint256",
              "name": "health",
              "type": "uint256"
            },
            {
              "internalType": "uint256",
              "name": "currentHealth",
              "type": "uint256"
            },
            {
              "internalType": "uint256",
              "name": "magic",
              "type": "uint256"
            },
            {
              "internalType": "uint256",
              "name": "mana",
              "type": "uint256"
            },
            {
              "internalType": "uint256",
              "name": "maxMana",
              "type": "uint256"
            },
            {
              "internalType": "uint256",
              "name": "agility",
              "type": "uint256"
            },
            {
              "internalType": "uint256",
              "name": "luck",
              "type": "uint256"
            },
            {
              "internalType": "uint256",
              "name": "wisdom",
              "type": "uint256"
            },
            {
              "internalType": "uint256",
              "name": "haki",
              "type": "uint256"
            },
            {
              "internalType": "uint256",
              "name": "perception",
              "type": "uint256"
            },
            {
              "internalType": "uint256",
              "name": "defense",
              "type": "uint256"
            },
            {
              "internalType": "string",
              "name": "name",
              "type": "string"
            },
            {
              "internalType": "string",
              "name": "uri",
              "type": "string"
            },
            {
              "internalType": "bool",
              "name": "male",
              "type": "bool"
            },
            {
              "components": [
                {
                  "internalType": "uint256",
                  "name": "head",
                  "type": "uint256"
                },
                {
                  "internalType": "uint256",
                  "name": "body",
                  "type": "uint256"
                },
                {
                  "internalType": "uint256",
                  "name": "leftHand",
                  "type": "uint256"
                },
                {
                  "internalType": "uint256",
                  "name": "rightHand",
                  "type": "uint256"
                },
                {
                  "internalType": "uint256",
                  "name": "pants",
                  "type": "uint256"
                },
                {
                  "internalType": "uint256",
                  "name": "feet",
                  "type": "uint256"
                },
                {
                  "internalType": "uint256",
                  "name": "neck",
                  "type": "uint256"
                }
              ],
              "internalType": "struct PlayerSlotLib.Slot",
              "name": "slot",
              "type": "tuple"
            },
            {
              "internalType": "uint256",
              "name": "playerClass",
              "type": "uint256"
            }
          ],
          "internalType": "struct PlayerSlotLib.Player",
          "name": "player",
          "type": "tuple"
        }
      ],
      "stateMutability": "view",
      "type": "function"
    },
    {
      "inputs": [
        {
          "internalType": "address",
          "name": "_address",
          "type": "address"
        }
      ],
      "name": "getPlayers",
      "outputs": [
        {
          "internalType": "uint256[]",
          "name": "",
          "type": "uint256[]"
        }
      ],
      "stateMutability": "view",
      "type": "function"
    },
    {
      "inputs": [
        {
          "internalType": "uint64",
          "name": "_destGasLimit",
          "type": "uint64"
        },
        {
          "internalType": "uint64",
          "name": "_destGasPrice",
          "type": "uint64"
        },
        {
          "internalType": "uint64",
          "name": "_ackGasLimit",
          "type": "uint64"
        },
        {
          "internalType": "uint64",
          "name": "_ackGasPrice",
          "type": "uint64"
        },
        {
          "internalType": "uint128",
          "name": "_relayerFees",
          "type": "uint128"
        },
        {
          "internalType": "uint8",
          "name": "_ackType",
          "type": "uint8"
        },
        {
          "internalType": "bool",
          "name": "_isReadCall",
          "type": "bool"
        },
        {
          "internalType": "bytes",
          "name": "_asmAddress",
          "type": "bytes"
        }
      ],
      "name": "getRequestMetadata",
      "outputs": [
        {
          "internalType": "bytes",
          "name": "",
          "type": "bytes"
        }
      ],
      "stateMutability": "pure",
      "type": "function"
    },
    {
      "inputs": [
        {
          "internalType": "string",
          "name": "_chainId",
          "type": "string"
        }
      ],
      "name": "getTransferParams",
      "outputs": [
        {
          "internalType": "address",
          "name": "gateway",
          "type": "address"
        },
        {
          "internalType": "string",
          "name": "contractOnChain",
          "type": "string"
        },
        {
          "internalType": "uint256",
          "name": "test",
          "type": "uint256"
        }
      ],
      "stateMutability": "view",
      "type": "function"
    },
    {
      "inputs": [
        {
          "internalType": "uint256",
          "name": "_playerId",
          "type": "uint256"
        },
        {
          "internalType": "uint256",
          "name": "_stat",
          "type": "uint256"
        }
      ],
      "name": "levelUp",
      "outputs": [],
      "stateMutability": "nonpayable",
      "type": "function"
    },
    {
      "inputs": [
        {
          "internalType": "string",
          "name": "_name",
          "type": "string"
        },
        {
          "internalType": "bool",
          "name": "_isMale",
          "type": "bool"
        },
        {
          "internalType": "uint256",
          "name": "_class",
          "type": "uint256"
        }
      ],
      "name": "mint",
      "outputs": [],
      "stateMutability": "nonpayable",
      "type": "function"
    },
    {
      "inputs": [
        {
          "internalType": "string",
          "name": "_name",
          "type": "string"
        }
      ],
      "name": "nameAvailable",
      "outputs": [
        {
          "internalType": "bool",
          "name": "available",
          "type": "bool"
        }
      ],
      "stateMutability": "view",
      "type": "function"
    },
    {
      "inputs": [
        {
          "internalType": "uint256",
          "name": "_playerId",
          "type": "uint256"
        }
      ],
      "name": "ownerOfPlayer",
      "outputs": [
        {
          "internalType": "address",
          "name": "owner",
          "type": "address"
        }
      ],
      "stateMutability": "view",
      "type": "function"
    },
    {
      "inputs": [],
      "name": "playerCount",
      "outputs": [
        {
          "internalType": "uint256",
          "name": "",
          "type": "uint256"
        }
      ],
      "stateMutability": "view",
      "type": "function"
    },
    {
      "inputs": [
        {
          "internalType": "string",
          "name": "_chainId",
          "type": "string"
        },
        {
          "internalType": "string",
          "name": "_contractAddress",
          "type": "string"
        }
      ],
      "name": "setContractOnChain",
      "outputs": [],
      "stateMutability": "nonpayable",
      "type": "function"
    },
    {
      "inputs": [
        {
          "internalType": "address",
          "name": "gateway",
          "type": "address"
        },
        {
          "internalType": "string",
          "name": "feePayer",
          "type": "string"
        }
      ],
      "name": "setGateway",
      "outputs": [],
      "stateMutability": "nonpayable",
      "type": "function"
    },
    {
      "inputs": [
        {
          "internalType": "string",
          "name": "_destination",
          "type": "string"
        },
        {
          "internalType": "address",
          "name": "_recipientAsAddress",
          "type": "address"
        },
        {
          "internalType": "string",
          "name": "_recipientAsString",
          "type": "string"
        },
        {
          "internalType": "uint256",
          "name": "_playerId",
          "type": "uint256"
        },
        {
          "internalType": "bytes",
          "name": "_requestMetadata",
          "type": "bytes"
        }
      ],
      "name": "transferRemote",
      "outputs": [],
      "stateMutability": "payable",
      "type": "function"
    }
  ],
  "bytecode": "0x608060405234801561001057600080fd5b50614ff7806100206000396000f3fe6080604052600436106100dd5760003560e01c80637a80b6b41161007f578063b09328ab11610059578063b09328ab146102d2578063bfcc8b6d146102ee578063c39cbef11461032b578063e55ae4e814610354576100dd565b80637a80b6b41461022f57806382bbdbec1461026c5780639c5538c2146102a9576100dd565b8063302bcc57116100bb578063302bcc571461017557806337bf9c41146101a05780635226dc93146101dd5780636b74bdb014610206576100dd565b80630501b79f146100e25780630d1ff3a51461010d5780632dc2b4da14610136575b600080fd5b3480156100ee57600080fd5b506100f7610391565b6040516101049190612eed565b60405180910390f35b34801561011957600080fd5b50610134600480360381019061012f9190612f81565b610399565b005b34801561014257600080fd5b5061015d60048036038101906101589190613002565b6103ab565b60405161016c93929190613120565b60405180910390f35b34801561018157600080fd5b5061018a61045a565b6040516101979190612eed565b60405180910390f35b3480156101ac57600080fd5b506101c760048036038101906101c29190613387565b610469565b6040516101d491906134ae565b60405180910390f35b3480156101e957600080fd5b5061020460048036038101906101ff91906134fc565b6104ad565b005b34801561021257600080fd5b5061022d60048036038101906102289190613568565b6104bb565b005b34801561023b57600080fd5b50610256600480360381019061025191906135c8565b6104cb565b60405161026391906136b3565b60405180910390f35b34801561027857600080fd5b50610293600480360381019061028e9190613776565b6104dd565b6040516102a091906137ce565b60405180910390f35b3480156102b557600080fd5b506102d060048036038101906102cb91906137e9565b6104ef565b005b6102ec60048036038101906102e79190613858565b610567565b005b3480156102fa57600080fd5b5061031560048036038101906103109190613930565b61073c565b604051610322919061395d565b60405180910390f35b34801561033757600080fd5b50610352600480360381019061034d9190613978565b61074e565b005b34801561036057600080fd5b5061037b60048036038101906103769190613930565b6107b6565b6040516103889190613c6e565b60405180910390f35b600042905090565b6103a5848484846107ce565b50505050565b6000606060006103bb858561082d565b8180546103c790613cbf565b80601f01602080910402602001604051908101604052809291908181526020018280546103f390613cbf565b80156104405780601f1061041557610100808354040283529160200191610440565b820191906000526020600020905b81548152906001019060200180831161042357829003601f168201915b505050505091508093508194508295505050509250925092565b6000610464610897565b905090565b60606000898989898989898960405160200161048c989796959493929190613df7565b60405160208183030381529060405290508091505098975050505050505050565b6104b782826108af565b5050565b6104c6838383610d45565b505050565b60606104d682610e3d565b9050919050565b60006104e882610ee3565b9050919050565b6104fa838383610f26565b600061050461045a565b90503373ffffffffffffffffffffffffffffffffffffffff16817fcb5aab6c0bec1e5513425dfaad4acfbca112f8b0ffe1027bd614e3d98a3ee5d2868560405161054f929190613e85565b60405180910390a36105613382611976565b50505050565b60008061063160405180608001604052808b8b8080601f016020809104026020016040519081016040528093929190818152602001838380828437600081840152601f19601f8201169050808301925050505050505081526020018973ffffffffffffffffffffffffffffffffffffffff16815260200188888080601f016020809104026020016040519081016040528093929190818152602001838380828437600081840152601f19601f82011690508083019250505050505050815260200186815250611994565b9150915060008290508073ffffffffffffffffffffffffffffffffffffffff16637bed470a3460016000604051806020016040528060008152508f8f8b8a6040518963ffffffff1660e01b81526004016106919796959493929190613f62565b60206040518083038185885af11580156106af573d6000803e3d6000fd5b50505050506040513d601f19601f820116820180604052508101906106d49190613ff6565b506106de85611dcc565b8773ffffffffffffffffffffffffffffffffffffffff167f2d6e545609b925b0aa7a96d08fd620b5f8a77ff355c79f2f8cfcc8b4f0f7886a8b8b8860405161072893929190614023565b60405180910390a250505050505050505050565b600061074782611f35565b9050919050565b6107588282611f80565b806040516107669190614091565b6040518091039020823373ffffffffffffffffffffffffffffffffffffffff167fe4ce50a62b6cbb7d19acd75fd57f7e2588dd09705647d97993e2ece872c305b260405160405180910390a45050565b6107be612df6565b6107c782612234565b9050919050565b60006107d86124aa565b905082828260000187876040516107f09291906140cd565b9081526020016040518091039020918261080b929190614293565b5080600201600081548092919061082190614392565b91905055505050505050565b60008060008061083b6124aa565b90508060010160009054906101000a900473ffffffffffffffffffffffffffffffffffffffff1693508060000186866040516108789291906140cd565b9081526020016040518091039020925080600201549150509250925092565b6000806108a26124d7565b9050806001015491505090565b60006108b96124d7565b905060008160030160008581526020019081526020016000206040518061028001604052908160008201548152602001600182015481526020016002820154815260200160038201548152602001600482015481526020016005820154815260200160068201548152602001600782015481526020016008820154815260200160098201548152602001600a8201548152602001600b8201548152602001600c8201548152602001600d8201548152602001600e8201548152602001600f8201805461098490613cbf565b80601f01602080910402602001604051908101604052809291908181526020018280546109b090613cbf565b80156109fd5780601f106109d2576101008083540402835291602001916109fd565b820191906000526020600020905b8154815290600101906020018083116109e057829003601f168201915b50505050508152602001601082018054610a1690613cbf565b80601f0160208091040260200160405190810160405280929190818152602001828054610a4290613cbf565b8015610a8f5780601f10610a6457610100808354040283529160200191610a8f565b820191906000526020600020905b815481529060010190602001808311610a7257829003601f168201915b505050505081526020016011820160009054906101000a900460ff16151515158152602001601282016040518060e001604052908160008201548152602001600182015481526020016002820154815260200160038201548152602001600482015481526020016005820154815260200160068201548152505081526020016019820154815250509050600a8160000151610b2a91906143da565b81602001511015610b3a57600080fd5b60008303610b75578160030160008581526020019081526020016000206003016000815480929190610b6b90614392565b9190505550610cd5565b60018303610be5578160030160008581526020019081526020016000206004016000815480929190610ba690614392565b91905055508160030160008581526020019081526020016000206004015482600301600086815260200190815260200160002060050181905550610cd4565b60028303610c20578160030160008581526020019081526020016000206009016000815480929190610c1690614392565b9190505550610cd3565b60038303610c5b578160030160008581526020019081526020016000206006016000815480929190610c5190614392565b9190505550610cd2565b60048303610c86578060000151816101c001818151610c7a919061441c565b91508181525050610cd1565b60058303610cb15780600001518161014001818151610ca5919061441c565b91508181525050610cd0565b80600001518161018001818151610cc8919061441c565b915081815250505b5b5b5b5b5b600a8160000151610ce691906143da565b8160200151610cf59190614450565b826003016000868152602001908152602001600020600101819055508160030160008581526020019081526020016000206000016000815480929190610d3a90614392565b919050555050505050565b6000610d4f6124aa565b9050838160010160006101000a81548173ffffffffffffffffffffffffffffffffffffffff021916908373ffffffffffffffffffffffffffffffffffffffff1602179055508060010160009054906101000a900473ffffffffffffffffffffffffffffffffffffffff1673ffffffffffffffffffffffffffffffffffffffff1663ef15cbda84846040518363ffffffff1660e01b8152600401610df3929190614484565b6020604051808303816000875af1158015610e12573d6000803e3d6000fd5b505050506040513d601f19601f82011682018060405250810190610e369190613ff6565b5050505050565b60606000610e496124d7565b90508060070160008473ffffffffffffffffffffffffffffffffffffffff1673ffffffffffffffffffffffffffffffffffffffff168152602001908152602001600020805480602002602001604051908101604052809291908181526020018280548015610ed657602002820191906000526020600020905b815481526020019060010190808311610ec2575b5050505050915050919050565b600080610eee6124d7565b90508060060183604051610f029190614091565b908152602001604051809103902060009054906101000a900460ff16915050919050565b6000610f306124d7565b90506101f481600101541115610f4557600080fd5b8060060184604051610f579190614091565b908152602001604051809103902060009054906101000a900460ff1615610fb3576040517f08c379a0000000000000000000000000000000000000000000000000000000008152600401610faa906144f4565b60405180910390fd5b6002821115610fc157600080fd5b600a84511115610fd057600080fd5b600384511015610fdf57600080fd5b806001016000815480929190610ff490614392565b919050555060606000830361127d578361102957604051806080016040528060438152602001614eb660439139905080611046565b604051806080016040528060438152602001614f7f604391399050805b50604051806102800160405280600181526020016000815260200160008152602001600b8152602001600c8152602001600c8152602001600a8152602001600a8152602001600a8152602001600a815260200160018152602001600181526020016001815260200160018152602001600a815260200186815260200182815260200185151581526020016040518060e00160405280600081526020016000815260200160008152602001600081526020016000815260200160008152602001600081525081526020018481525082600301600084600101548152602001908152602001600020600082015181600001556020820151816001015560408201518160020155606082015181600301556080820151816004015560a0820151816005015560c0820151816006015560e082015181600701556101008201518160080155610120820151816009015561014082015181600a015561016082015181600b015561018082015181600c01556101a082015181600d01556101c082015181600e01556101e082015181600f0190816111df9190614514565b506102008201518160100190816111f69190614514565b506102208201518160110160006101000a81548160ff02191690831515021790555061024082015181601201600082015181600001556020820151816001015560408201518160020155606082015181600301556080820151816004015560a0820151816005015560c082015181600601555050610260820151816019015590505061177f565b600183036114ff57836112ab57604051806080016040528060438152602001614f3c604391399050806112c8565b604051806080016040528060438152602001614ef9604391399050805b50604051806102800160405280600181526020016000815260200160008152602001600b8152602001600b8152602001600b8152602001600a8152602001600a8152602001600a8152602001600c815260200160018152602001600181526020016001815260200160018152602001600a815260200186815260200182815260200185151581526020016040518060e00160405280600081526020016000815260200160008152602001600081526020016000815260200160008152602001600081525081526020018481525082600301600084600101548152602001908152602001600020600082015181600001556020820151816001015560408201518160020155606082015181600301556080820151816004015560a0820151816005015560c0820151816006015560e082015181600701556101008201518160080155610120820151816009015561014082015181600a015561016082015181600b015561018082015181600c01556101a082015181600d01556101c082015181600e01556101e082015181600f0190816114619190614514565b506102008201518160100190816114789190614514565b506102208201518160110160006101000a81548160ff02191690831515021790555061024082015181601201600082015181600001556020820151816001015560408201518160020155606082015181600301556080820151816004015560a0820151816005015560c082015181600601555050610260820151816019015590505061177e565b6002830361177d578361152d57604051806080016040528060438152602001614e736043913990508061154a565b604051806080016040528060438152602001614e30604391399050805b50604051806102800160405280600181526020016000815260200160008152602001600a8152602001600a8152602001600a8152602001600c8152602001600c8152602001600c8152602001600a815260200160018152602001600181526020016001815260200160018152602001600a815260200186815260200182815260200185151581526020016040518060e00160405280600081526020016000815260200160008152602001600081526020016000815260200160008152602001600081525081526020018481525082600301600084600101548152602001908152602001600020600082015181600001556020820151816001015560408201518160020155606082015181600301556080820151816004015560a0820151816005015560c0820151816006015560e082015181600701556101008201518160080155610120820151816009015561014082015181600a015561016082015181600b015561018082015181600c01556101a082015181600d01556101c082015181600e01556101e082015181600f0190816116e39190614514565b506102008201518160100190816116fa9190614514565b506102208201518160110160006101000a81548160ff02191690831515021790555061024082015181601201600082015181600001556020820151816001015560408201518160020155606082015181600301556080820151816004015560a0820151816005015560c08201518160060155505061026082015181601901559050505b5b5b6040518060e00160405280600081526020016000815260200160008152602001600081526020016000815260200160008152602001600081525082600801600084600101548152602001908152602001600020600082015181600001556020820151816001015560408201518160020155606082015181600301556080820151816004015560a0820151816005015560c082015181600601559050506001826006018660405161182f9190614091565b908152602001604051809103902060006101000a81548160ff021916908315150217905550338260020160008460010154815260200190815260200160002060006101000a81548173ffffffffffffffffffffffffffffffffffffffff021916908373ffffffffffffffffffffffffffffffffffffffff1602179055508160070160003373ffffffffffffffffffffffffffffffffffffffff1673ffffffffffffffffffffffffffffffffffffffff168152602001908152602001600020826001015490806001815401808255809150506001900390600052602060002001600090919091909150558160040160003373ffffffffffffffffffffffffffffffffffffffff1673ffffffffffffffffffffffffffffffffffffffff168152602001908152602001600020600081548092919061196a90614392565b91905055505050505050565b611990828260405180602001604052806000815250612504565b5050565b6000606060006119a26124aa565b90506040516020016119b39061460c565b604051602081830303815290604052805190602001208160000185600001516040516119df9190614091565b90815260200160405180910390206040516020016119fd91906146a4565b6040516020818303038152906040528051906020012003611a53576040517f08c379a0000000000000000000000000000000000000000000000000000000008152600401611a4a90614707565b60405180910390fd5b6000611a5d6124d7565b90506000816003016000876060015181526020019081526020016000206040518061028001604052908160008201548152602001600182015481526020016002820154815260200160038201548152602001600482015481526020016005820154815260200160068201548152602001600782015481526020016008820154815260200160098201548152602001600a8201548152602001600b8201548152602001600c8201548152602001600d8201548152602001600e8201548152602001600f82018054611b2c90613cbf565b80601f0160208091040260200160405190810160405280929190818152602001828054611b5890613cbf565b8015611ba55780601f10611b7a57610100808354040283529160200191611ba5565b820191906000526020600020905b815481529060010190602001808311611b8857829003601f168201915b50505050508152602001601082018054611bbe90613cbf565b80601f0160208091040260200160405190810160405280929190818152602001828054611bea90613cbf565b8015611c375780601f10611c0c57610100808354040283529160200191611c37565b820191906000526020600020905b815481529060010190602001808311611c1a57829003601f168201915b505050505081526020016011820160009054906101000a900460ff16151515158152602001601282016040518060e001604052908160008201548152602001600182015481526020016002820154815260200160038201548152602001600482015481526020016005820154815260200160068201548152505081526020016019820154815250509050600060405180608001604052808860600151815260200188606001518152602001838152602001886020015173ffffffffffffffffffffffffffffffffffffffff168152509050600081604051602001611d1b919061494c565b6040516020818303038152906040529050846000018860000151604051611d429190614091565b908152602001604051809103902081604051602001611d629291906149f2565b60405160208183030381529060405295508460010160009054906101000a900473ffffffffffffffffffffffffffffffffffffffff169650611da833896060015161255f565b846002016000815480929190611dbd90614392565b91905055505050505050915091565b6000611dd782612955565b9050611de781600084600161299b565b611df082612955565b9050611dfa6129a1565b600b01600083815260200190815260200160002060006101000a81549073ffffffffffffffffffffffffffffffffffffffff02191690556001611e3b6129a1565b600a0160008373ffffffffffffffffffffffffffffffffffffffff1673ffffffffffffffffffffffffffffffffffffffff16815260200190815260200160002060008282540392505081905550611e906129a1565b600901600083815260200190815260200160002060006101000a81549073ffffffffffffffffffffffffffffffffffffffff021916905581600073ffffffffffffffffffffffffffffffffffffffff168273ffffffffffffffffffffffffffffffffffffffff167fddf252ad1be2c89b69c2b068fc378daa952ba7f163c4a11628f55a4df523b3ef60405160405180910390a4611f318160008460016129ce565b5050565b600080611f406124d7565b905080600201600084815260200190815260200160002060009054906101000a900473ffffffffffffffffffffffffffffffffffffffff16915050919050565b6000611f8a6124d7565b90503373ffffffffffffffffffffffffffffffffffffffff1681600201600085815260200190815260200160002060009054906101000a900473ffffffffffffffffffffffffffffffffffffffff1673ffffffffffffffffffffffffffffffffffffffff1614611ff957600080fd5b806006018260405161200b9190614091565b908152602001604051809103902060009054906101000a900460ff1615612067576040517f08c379a000000000000000000000000000000000000000000000000000000000815260040161205e906144f4565b60405180910390fd5b60038251116120ab576040517f08c379a00000000000000000000000000000000000000000000000000000000081526004016120a290614a75565b60405180910390fd5b600a8251106120ef576040517f08c379a00000000000000000000000000000000000000000000000000000000081526004016120e690614ae1565b60405180910390fd5b6000816003016000858152602001908152602001600020600f01805461211490613cbf565b80601f016020809104026020016040519081016040528092919081815260200182805461214090613cbf565b801561218d5780601f106121625761010080835404028352916020019161218d565b820191906000526020600020905b81548152906001019060200180831161217057829003601f168201915b505050505090506000815111156121cf5781600601816040516121b09190614091565b908152602001604051809103902060006101000a81549060ff02191690555b82826003016000868152602001908152602001600020600f0190816121f49190614514565b50600182600601846040516122099190614091565b908152602001604051809103902060006101000a81548160ff02191690831515021790555050505050565b61223c612df6565b60006122466124d7565b90508060030160008481526020019081526020016000206040518061028001604052908160008201548152602001600182015481526020016002820154815260200160038201548152602001600482015481526020016005820154815260200160068201548152602001600782015481526020016008820154815260200160098201548152602001600a8201548152602001600b8201548152602001600c8201548152602001600d8201548152602001600e8201548152602001600f8201805461230f90613cbf565b80601f016020809104026020016040519081016040528092919081815260200182805461233b90613cbf565b80156123885780601f1061235d57610100808354040283529160200191612388565b820191906000526020600020905b81548152906001019060200180831161236b57829003601f168201915b505050505081526020016010820180546123a190613cbf565b80601f01602080910402602001604051908101604052809291908181526020018280546123cd90613cbf565b801561241a5780601f106123ef5761010080835404028352916020019161241a565b820191906000526020600020905b8154815290600101906020018083116123fd57829003601f168201915b505050505081526020016011820160009054906101000a900460ff16151515158152602001601282016040518060e00160405290816000820154815260200160018201548152602001600282015481526020016003820154815260200160048201548152602001600582015481526020016006820154815250508152602001601982015481525050915050919050565b6000807fde7d391137404fe68b2d026634c196acca759657f6772ed659866a46d08c6ce390508091505090565b6000807f3cab9a070a0c61cd0ae9d9e9e2c0781e5ca8691bec4087e5a4701d5ac018dd4e90508091505090565b61250e83836129d4565b61251b6000848484612c03565b61255a576040517f08c379a000000000000000000000000000000000000000000000000000000000815260040161255190614b73565b60405180910390fd5b505050565b60006125696124d7565b90508273ffffffffffffffffffffffffffffffffffffffff1681600201600084815260200190815260200160002060009054906101000a900473ffffffffffffffffffffffffffffffffffffffff1673ffffffffffffffffffffffffffffffffffffffff16146125d857600080fd5b806001015482111561261f576040517f08c379a000000000000000000000000000000000000000000000000000000000815260040161261690614bdf565b60405180910390fd5b600081600201600084815260200190815260200160002060006101000a81548173ffffffffffffffffffffffffffffffffffffffff021916908373ffffffffffffffffffffffffffffffffffffffff160217905550600081600401600083600201600086815260200190815260200160002060009054906101000a900473ffffffffffffffffffffffffffffffffffffffff1673ffffffffffffffffffffffffffffffffffffffff1673ffffffffffffffffffffffffffffffffffffffff16815260200190815260200160002081905550600081600501600083600201600086815260200190815260200160002060009054906101000a900473ffffffffffffffffffffffffffffffffffffffff1673ffffffffffffffffffffffffffffffffffffffff1673ffffffffffffffffffffffffffffffffffffffff16815260200190815260200160002060003073ffffffffffffffffffffffffffffffffffffffff1673ffffffffffffffffffffffffffffffffffffffff168152602001908152602001600020819055508060010160008154809291906127be90614bff565b9190505550600081600701600083600201600086815260200190815260200160002060009054906101000a900473ffffffffffffffffffffffffffffffffffffffff1673ffffffffffffffffffffffffffffffffffffffff1673ffffffffffffffffffffffffffffffffffffffff168152602001908152602001600020905060005b81805490508110156128fe57838282815481106128605761285f614c28565b5b9060005260206000200154036128eb5781600183805490506128829190614450565b8154811061289357612892614c28565b5b90600052602060002001548282815481106128b1576128b0614c28565b5b9060005260206000200181905550818054806128d0576128cf614c57565b5b600190038181906000526020600020016000905590556128fe565b80806128f690614392565b915050612840565b50816008016000848152602001908152602001600020600080820160009055600182016000905560028201600090556003820160009055600482016000905560058201600090556006820160009055505050505050565b600061295f6129a1565b600901600083815260200190815260200160002060009054906101000a900473ffffffffffffffffffffffffffffffffffffffff169050919050565b50505050565b6000807f2569078dfb4b0305704d3008e7403993ae9601b85f7ae5e742de3de8f8011c4090508091505090565b50505050565b600073ffffffffffffffffffffffffffffffffffffffff168273ffffffffffffffffffffffffffffffffffffffff1603612a43576040517f08c379a0000000000000000000000000000000000000000000000000000000008152600401612a3a90614cd2565b60405180910390fd5b612a4c81612d8a565b15612a8c576040517f08c379a0000000000000000000000000000000000000000000000000000000008152600401612a8390614d3e565b60405180910390fd5b612a9a60008383600161299b565b612aa381612d8a565b15612ae3576040517f08c379a0000000000000000000000000000000000000000000000000000000008152600401612ada90614d3e565b60405180910390fd5b6001612aed6129a1565b600a0160008473ffffffffffffffffffffffffffffffffffffffff1673ffffffffffffffffffffffffffffffffffffffff1681526020019081526020016000206000828254019250508190555081612b436129a1565b600901600083815260200190815260200160002060006101000a81548173ffffffffffffffffffffffffffffffffffffffff021916908373ffffffffffffffffffffffffffffffffffffffff160217905550808273ffffffffffffffffffffffffffffffffffffffff16600073ffffffffffffffffffffffffffffffffffffffff167fddf252ad1be2c89b69c2b068fc378daa952ba7f163c4a11628f55a4df523b3ef60405160405180910390a4612bff6000838360016129ce565b5050565b6000612c248473ffffffffffffffffffffffffffffffffffffffff16612dcb565b15612d7d578373ffffffffffffffffffffffffffffffffffffffff1663150b7a02612c4d612dee565b8786866040518563ffffffff1660e01b8152600401612c6f9493929190614d5e565b6020604051808303816000875af1925050508015612cab57506040513d601f19601f82011682018060405250810190612ca89190614e02565b60015b612d2d573d8060008114612cdb576040519150601f19603f3d011682016040523d82523d6000602084013e612ce0565b606091505b506000815103612d25576040517f08c379a0000000000000000000000000000000000000000000000000000000008152600401612d1c90614b73565b60405180910390fd5b805181602001fd5b63150b7a0260e01b7bffffffffffffffffffffffffffffffffffffffffffffffffffffffff1916817bffffffffffffffffffffffffffffffffffffffffffffffffffffffff191614915050612d82565b600190505b949350505050565b60008073ffffffffffffffffffffffffffffffffffffffff16612dac83612955565b73ffffffffffffffffffffffffffffffffffffffff1614159050919050565b6000808273ffffffffffffffffffffffffffffffffffffffff163b119050919050565b600033905090565b6040518061028001604052806000815260200160008152602001600081526020016000815260200160008152602001600081526020016000815260200160008152602001600081526020016000815260200160008152602001600081526020016000815260200160008152602001600081526020016060815260200160608152602001600015158152602001612e8a612e97565b8152602001600081525090565b6040518060e00160405280600081526020016000815260200160008152602001600081526020016000815260200160008152602001600081525090565b6000819050919050565b612ee781612ed4565b82525050565b6000602082019050612f026000830184612ede565b92915050565b6000604051905090565b600080fd5b600080fd5b600080fd5b600080fd5b600080fd5b60008083601f840112612f4157612f40612f1c565b5b8235905067ffffffffffffffff811115612f5e57612f5d612f21565b5b602083019150836001820283011115612f7a57612f79612f26565b5b9250929050565b60008060008060408587031215612f9b57612f9a612f12565b5b600085013567ffffffffffffffff811115612fb957612fb8612f17565b5b612fc587828801612f2b565b9450945050602085013567ffffffffffffffff811115612fe857612fe7612f17565b5b612ff487828801612f2b565b925092505092959194509250565b6000806020838503121561301957613018612f12565b5b600083013567ffffffffffffffff81111561303757613036612f17565b5b61304385828601612f2b565b92509250509250929050565b600073ffffffffffffffffffffffffffffffffffffffff82169050919050565b600061307a8261304f565b9050919050565b61308a8161306f565b82525050565b600081519050919050565b600082825260208201905092915050565b60005b838110156130ca5780820151818401526020810190506130af565b60008484015250505050565b6000601f19601f8301169050919050565b60006130f282613090565b6130fc818561309b565b935061310c8185602086016130ac565b613115816130d6565b840191505092915050565b60006060820190506131356000830186613081565b818103602083015261314781856130e7565b90506131566040830184612ede565b949350505050565b600067ffffffffffffffff82169050919050565b61317b8161315e565b811461318657600080fd5b50565b60008135905061319881613172565b92915050565b60006fffffffffffffffffffffffffffffffff82169050919050565b6131c38161319e565b81146131ce57600080fd5b50565b6000813590506131e0816131ba565b92915050565b600060ff82169050919050565b6131fc816131e6565b811461320757600080fd5b50565b600081359050613219816131f3565b92915050565b60008115159050919050565b6132348161321f565b811461323f57600080fd5b50565b6000813590506132518161322b565b92915050565b600080fd5b7f4e487b7100000000000000000000000000000000000000000000000000000000600052604160045260246000fd5b613294826130d6565b810181811067ffffffffffffffff821117156132b3576132b261325c565b5b80604052505050565b60006132c6612f08565b90506132d2828261328b565b919050565b600067ffffffffffffffff8211156132f2576132f161325c565b5b6132fb826130d6565b9050602081019050919050565b82818337600083830152505050565b600061332a613325846132d7565b6132bc565b90508281526020810184848401111561334657613345613257565b5b613351848285613308565b509392505050565b600082601f83011261336e5761336d612f1c565b5b813561337e848260208601613317565b91505092915050565b600080600080600080600080610100898b0312156133a8576133a7612f12565b5b60006133b68b828c01613189565b98505060206133c78b828c01613189565b97505060406133d88b828c01613189565b96505060606133e98b828c01613189565b95505060806133fa8b828c016131d1565b94505060a061340b8b828c0161320a565b93505060c061341c8b828c01613242565b92505060e089013567ffffffffffffffff81111561343d5761343c612f17565b5b6134498b828c01613359565b9150509295985092959890939650565b600081519050919050565b600082825260208201905092915050565b600061348082613459565b61348a8185613464565b935061349a8185602086016130ac565b6134a3816130d6565b840191505092915050565b600060208201905081810360008301526134c88184613475565b905092915050565b6134d981612ed4565b81146134e457600080fd5b50565b6000813590506134f6816134d0565b92915050565b6000806040838503121561351357613512612f12565b5b6000613521858286016134e7565b9250506020613532858286016134e7565b9150509250929050565b6135458161306f565b811461355057600080fd5b50565b6000813590506135628161353c565b92915050565b60008060006040848603121561358157613580612f12565b5b600061358f86828701613553565b935050602084013567ffffffffffffffff8111156135b0576135af612f17565b5b6135bc86828701612f2b565b92509250509250925092565b6000602082840312156135de576135dd612f12565b5b60006135ec84828501613553565b91505092915050565b600081519050919050565b600082825260208201905092915050565b6000819050602082019050919050565b61362a81612ed4565b82525050565b600061363c8383613621565b60208301905092915050565b6000602082019050919050565b6000613660826135f5565b61366a8185613600565b935061367583613611565b8060005b838110156136a657815161368d8882613630565b975061369883613648565b925050600181019050613679565b5085935050505092915050565b600060208201905081810360008301526136cd8184613655565b905092915050565b600067ffffffffffffffff8211156136f0576136ef61325c565b5b6136f9826130d6565b9050602081019050919050565b6000613719613714846136d5565b6132bc565b90508281526020810184848401111561373557613734613257565b5b613740848285613308565b509392505050565b600082601f83011261375d5761375c612f1c565b5b813561376d848260208601613706565b91505092915050565b60006020828403121561378c5761378b612f12565b5b600082013567ffffffffffffffff8111156137aa576137a9612f17565b5b6137b684828501613748565b91505092915050565b6137c88161321f565b82525050565b60006020820190506137e360008301846137bf565b92915050565b60008060006060848603121561380257613801612f12565b5b600084013567ffffffffffffffff8111156138205761381f612f17565b5b61382c86828701613748565b935050602061383d86828701613242565b925050604061384e868287016134e7565b9150509250925092565b600080600080600080600060a0888a03121561387757613876612f12565b5b600088013567ffffffffffffffff81111561389557613894612f17565b5b6138a18a828b01612f2b565b975097505060206138b48a828b01613553565b955050604088013567ffffffffffffffff8111156138d5576138d4612f17565b5b6138e18a828b01612f2b565b945094505060606138f48a828b016134e7565b925050608088013567ffffffffffffffff81111561391557613914612f17565b5b6139218a828b01613359565b91505092959891949750929550565b60006020828403121561394657613945612f12565b5b6000613954848285016134e7565b91505092915050565b60006020820190506139726000830184613081565b92915050565b6000806040838503121561398f5761398e612f12565b5b600061399d858286016134e7565b925050602083013567ffffffffffffffff8111156139be576139bd612f17565b5b6139ca85828601613748565b9150509250929050565b600082825260208201905092915050565b60006139f082613090565b6139fa81856139d4565b9350613a0a8185602086016130ac565b613a13816130d6565b840191505092915050565b613a278161321f565b82525050565b60e082016000820151613a436000850182613621565b506020820151613a566020850182613621565b506040820151613a696040850182613621565b506060820151613a7c6060850182613621565b506080820151613a8f6080850182613621565b5060a0820151613aa260a0850182613621565b5060c0820151613ab560c0850182613621565b50505050565b600061034083016000830151613ad46000860182613621565b506020830151613ae76020860182613621565b506040830151613afa6040860182613621565b506060830151613b0d6060860182613621565b506080830151613b206080860182613621565b5060a0830151613b3360a0860182613621565b5060c0830151613b4660c0860182613621565b5060e0830151613b5960e0860182613621565b50610100830151613b6e610100860182613621565b50610120830151613b83610120860182613621565b50610140830151613b98610140860182613621565b50610160830151613bad610160860182613621565b50610180830151613bc2610180860182613621565b506101a0830151613bd76101a0860182613621565b506101c0830151613bec6101c0860182613621565b506101e08301518482036101e0860152613c0682826139e5565b915050610200830151848203610200860152613c2282826139e5565b915050610220830151613c39610220860182613a1e565b50610240830151613c4e610240860182613a2d565b50610260830151613c63610320860182613621565b508091505092915050565b60006020820190508181036000830152613c888184613abb565b905092915050565b7f4e487b7100000000000000000000000000000000000000000000000000000000600052602260045260246000fd5b60006002820490506001821680613cd757607f821691505b602082108103613cea57613ce9613c90565b5b50919050565b60008160c01b9050919050565b6000613d0882613cf0565b9050919050565b613d20613d1b8261315e565b613cfd565b82525050565b60008160801b9050919050565b6000613d3e82613d26565b9050919050565b613d56613d518261319e565b613d33565b82525050565b60008160f81b9050919050565b6000613d7482613d5c565b9050919050565b613d8c613d87826131e6565b613d69565b82525050565b6000613d9d82613d69565b9050919050565b613db5613db08261321f565b613d92565b82525050565b600081905092915050565b6000613dd182613459565b613ddb8185613dbb565b9350613deb8185602086016130ac565b80840191505092915050565b6000613e03828b613d0f565b600882019150613e13828a613d0f565b600882019150613e238289613d0f565b600882019150613e338288613d0f565b600882019150613e438287613d45565b601082019150613e538286613d7b565b600182019150613e638285613da4565b600182019150613e738284613dc6565b91508190509998505050505050505050565b60006040820190508181036000830152613e9f81856130e7565b9050613eae6020830184612ede565b9392505050565b6000819050919050565b6000819050919050565b6000613ee4613edf613eda84613eb5565b613ebf565b612ed4565b9050919050565b613ef481613ec9565b82525050565b6000819050919050565b6000613f1f613f1a613f1584613efa565b613ebf565b612ed4565b9050919050565b613f2f81613f04565b82525050565b6000613f41838561309b565b9350613f4e838584613308565b613f57836130d6565b840190509392505050565b600060c082019050613f77600083018a613eeb565b613f846020830189613f26565b8181036040830152613f9681886130e7565b90508181036060830152613fab818688613f35565b90508181036080830152613fbf8185613475565b905081810360a0830152613fd38184613475565b905098975050505050505050565b600081519050613ff0816134d0565b92915050565b60006020828403121561400c5761400b612f12565b5b600061401a84828501613fe1565b91505092915050565b6000604082019050818103600083015261403e818587613f35565b905061404d6020830184612ede565b949350505050565b600081905092915050565b600061406b82613090565b6140758185614055565b93506140858185602086016130ac565b80840191505092915050565b600061409d8284614060565b915081905092915050565b60006140b48385614055565b93506140c1838584613308565b82840190509392505050565b60006140da8284866140a8565b91508190509392505050565b600082905092915050565b60008190508160005260206000209050919050565b60006020601f8301049050919050565b600082821b905092915050565b6000600883026141537fffffffffffffffffffffffffffffffffffffffffffffffffffffffffffffffff82614116565b61415d8683614116565b95508019841693508086168417925050509392505050565b600061419061418b61418684612ed4565b613ebf565b612ed4565b9050919050565b6000819050919050565b6141aa83614175565b6141be6141b682614197565b848454614123565b825550505050565b600090565b6141d36141c6565b6141de8184846141a1565b505050565b5b81811015614202576141f76000826141cb565b6001810190506141e4565b5050565b601f82111561424757614218816140f1565b61422184614106565b81016020851015614230578190505b61424461423c85614106565b8301826141e3565b50505b505050565b600082821c905092915050565b600061426a6000198460080261424c565b1980831691505092915050565b60006142838383614259565b9150826002028217905092915050565b61429d83836140e6565b67ffffffffffffffff8111156142b6576142b561325c565b5b6142c08254613cbf565b6142cb828285614206565b6000601f8311600181146142fa57600084156142e8578287013590505b6142f28582614277565b86555061435a565b601f198416614308866140f1565b60005b828110156143305784890135825560018201915060208501945060208101905061430b565b8683101561434d5784890135614349601f891682614259565b8355505b6001600288020188555050505b50505050505050565b7f4e487b7100000000000000000000000000000000000000000000000000000000600052601160045260246000fd5b600061439d82612ed4565b91507fffffffffffffffffffffffffffffffffffffffffffffffffffffffffffffffff82036143cf576143ce614363565b5b600182019050919050565b60006143e582612ed4565b91506143f083612ed4565b92508282026143fe81612ed4565b9150828204841483151761441557614414614363565b5b5092915050565b600061442782612ed4565b915061443283612ed4565b925082820190508082111561444a57614449614363565b5b92915050565b600061445b82612ed4565b915061446683612ed4565b925082820390508181111561447e5761447d614363565b5b92915050565b6000602082019050818103600083015261449f818486613f35565b90509392505050565b7f6e616d652069732074616b656e00000000000000000000000000000000000000600082015250565b60006144de600d8361309b565b91506144e9826144a8565b602082019050919050565b6000602082019050818103600083015261450d816144d1565b9050919050565b61451d82613090565b67ffffffffffffffff8111156145365761453561325c565b5b6145408254613cbf565b61454b828285614206565b600060209050601f83116001811461457e576000841561456c578287015190505b6145768582614277565b8655506145de565b601f19841661458c866140f1565b60005b828110156145b45784890151825560018201915060208501945060208101905061458f565b868310156145d157848901516145cd601f891682614259565b8355505b6001600288020188555050505b505050505050565b50565b60006145f6600083614055565b9150614601826145e6565b600082019050919050565b6000614617826145e9565b9150819050919050565b6000815461462e81613cbf565b6146388186614055565b9450600182166000811461465357600181146146685761469b565b60ff198316865281151582028601935061469b565b614671856140f1565b60005b8381101561469357815481890152600182019150602081019050614674565b838801955050505b50505092915050565b60006146b08284614621565b915081905092915050565b7f636f6e7472616374206f6e2064657374206e6f74207365740000000000000000600082015250565b60006146f160188361309b565b91506146fc826146bb565b602082019050919050565b60006020820190508181036000830152614720816146e4565b9050919050565b6000610340830160008301516147406000860182613621565b5060208301516147536020860182613621565b5060408301516147666040860182613621565b5060608301516147796060860182613621565b50608083015161478c6080860182613621565b5060a083015161479f60a0860182613621565b5060c08301516147b260c0860182613621565b5060e08301516147c560e0860182613621565b506101008301516147da610100860182613621565b506101208301516147ef610120860182613621565b50610140830151614804610140860182613621565b50610160830151614819610160860182613621565b5061018083015161482e610180860182613621565b506101a08301516148436101a0860182613621565b506101c08301516148586101c0860182613621565b506101e08301518482036101e086015261487282826139e5565b91505061020083015184820361020086015261488e82826139e5565b9150506102208301516148a5610220860182613a1e565b506102408301516148ba610240860182613a2d565b506102608301516148cf610320860182613621565b508091505092915050565b6148e38161306f565b82525050565b60006080830160008301516149016000860182613621565b5060208301516149146020860182613621565b506040830151848203604086015261492c8282614727565b915050606083015161494160608601826148da565b508091505092915050565b6000602082019050818103600083015261496681846148e9565b905092915050565b6000815461497b81613cbf565b614985818661309b565b945060018216600081146149a057600181146149b6576149e9565b60ff1983168652811515602002860193506149e9565b6149bf856140f1565b60005b838110156149e1578154818901526001820191506020810190506149c2565b808801955050505b50505092915050565b60006040820190508181036000830152614a0c818561496e565b90508181036020830152614a208184613475565b90509392505050565b7f43616e6e6f74207061737320616e20656d707479206861736800000000000000600082015250565b6000614a5f60198361309b565b9150614a6a82614a29565b602082019050919050565b60006020820190508181036000830152614a8e81614a52565b9050919050565b7f43616e6e6f74206265206c6f6e676572207468616e2031302063686172730000600082015250565b6000614acb601e8361309b565b9150614ad682614a95565b602082019050919050565b60006020820190508181036000830152614afa81614abe565b9050919050565b7f4552433732313a207472616e7366657220746f206e6f6e20455243373231526560008201527f63656976657220696d706c656d656e7465720000000000000000000000000000602082015250565b6000614b5d60328361309b565b9150614b6882614b01565b604082019050919050565b60006020820190508181036000830152614b8c81614b50565b9050919050565b7f506c6179657220646f6573206e6f742065786973740000000000000000000000600082015250565b6000614bc960158361309b565b9150614bd482614b93565b602082019050919050565b60006020820190508181036000830152614bf881614bbc565b9050919050565b6000614c0a82612ed4565b915060008203614c1d57614c1c614363565b5b600182039050919050565b7f4e487b7100000000000000000000000000000000000000000000000000000000600052603260045260246000fd5b7f4e487b7100000000000000000000000000000000000000000000000000000000600052603160045260246000fd5b7f4552433732313a206d696e7420746f20746865207a65726f2061646472657373600082015250565b6000614cbc60208361309b565b9150614cc782614c86565b602082019050919050565b60006020820190508181036000830152614ceb81614caf565b9050919050565b7f4552433732313a20746f6b656e20616c7265616479206d696e74656400000000600082015250565b6000614d28601c8361309b565b9150614d3382614cf2565b602082019050919050565b60006020820190508181036000830152614d5781614d1b565b9050919050565b6000608082019050614d736000830187613081565b614d806020830186613081565b614d8d6040830185612ede565b8181036060830152614d9f8184613475565b905095945050505050565b60007fffffffff0000000000000000000000000000000000000000000000000000000082169050919050565b614ddf81614daa565b8114614dea57600080fd5b50565b600081519050614dfc81614dd6565b92915050565b600060208284031215614e1857614e17612f12565b5b6000614e2684828501614ded565b9150509291505056fe68747470733a2f2f697066732e696f2f697066732f516d556257785564387358344d5a6f6a4b455255506d507539597441596659726f425334546531484a454b75637968747470733a2f2f697066732e696f2f697066732f516d625641427439734b704e55613844674d4a64653344424351796f72534354395631447a6436634a385a556d5068747470733a2f2f697066732e696f2f697066732f516d66424e4870787077554e67747736695842784b584c6256786f6d386d7064427367715a5a79353970524d354368747470733a2f2f697066732e696f2f697066732f516d5158655965397278526b6b716645423744725a52534732533179724e676a363456386d3676374b65747a516468747470733a2f2f697066732e696f2f697066732f516d55715a4b5275646e616e673147586244326e4848776d4a664e4e42465156646d6f483857416e65616969356868747470733a2f2f697066732e696f2f697066732f516d56357053734d47474d4c5733593979513871534c534d4451616b646e6a686a53346b356865366d4a79506548a26469706673582212201bcf0041bf0871309f7dbc0f1c051725d162828b2d83a4e4a8ea6f69406037f264736f6c63430008110033",
  "linkReferences": {},
  "deployedLinkReferences": {}
}