{
  "_format": "hh-sol-artifact-1",
  "contractName": "PlayerFacet",
  "sourceName": "contracts/facets/PlayerFacet.sol",
  "abi": [
    {
      "anonymous": false,
      "inputs": [
        {
          "indexed": true,
          "internalType": "address",
          "name": "owner",
          "type": "address"
        },
        {
          "indexed": true,
          "internalType": "address",
          "name": "approved",
          "type": "address"
        },
        {
          "indexed": true,
          "internalType": "uint256",
          "name": "tokenId",
          "type": "uint256"
        }
      ],
      "name": "Approval",
      "type": "event"
    },
    {
      "anonymous": false,
      "inputs": [
        {
          "indexed": true,
          "internalType": "address",
          "name": "owner",
          "type": "address"
        },
        {
          "indexed": true,
          "internalType": "address",
          "name": "operator",
          "type": "address"
        },
        {
          "indexed": false,
          "internalType": "bool",
          "name": "approved",
          "type": "bool"
        }
      ],
      "name": "ApprovalForAll",
      "type": "event"
    },
    {
      "anonymous": false,
      "inputs": [
        {
          "indexed": true,
          "internalType": "uint256",
          "name": "id",
          "type": "uint256"
        },
        {
          "indexed": true,
          "internalType": "address",
          "name": "owner",
          "type": "address"
        },
        {
          "indexed": false,
          "internalType": "string",
          "name": "name",
          "type": "string"
        },
        {
          "indexed": false,
          "internalType": "uint256",
          "name": "_class",
          "type": "uint256"
        }
      ],
      "name": "Mint",
      "type": "event"
    },
    {
      "anonymous": false,
      "inputs": [
        {
          "indexed": true,
          "internalType": "address",
          "name": "owner",
          "type": "address"
        },
        {
          "indexed": true,
          "internalType": "uint256",
          "name": "id",
          "type": "uint256"
        },
        {
          "indexed": true,
          "internalType": "string",
          "name": "newName",
          "type": "string"
        }
      ],
      "name": "NameChange",
      "type": "event"
    },
    {
      "anonymous": false,
      "inputs": [
        {
          "indexed": false,
          "internalType": "string",
          "name": "destination",
          "type": "string"
        },
        {
          "indexed": true,
          "internalType": "address",
          "name": "recipient",
          "type": "address"
        },
        {
          "indexed": false,
          "internalType": "uint256",
          "name": "playerId",
          "type": "uint256"
        }
      ],
      "name": "SentTransferRemote",
      "type": "event"
    },
    {
      "anonymous": false,
      "inputs": [
        {
          "indexed": true,
          "internalType": "address",
          "name": "from",
          "type": "address"
        },
        {
          "indexed": true,
          "internalType": "address",
          "name": "to",
          "type": "address"
        },
        {
          "indexed": true,
          "internalType": "uint256",
          "name": "tokenId",
          "type": "uint256"
        }
      ],
      "name": "Transfer",
      "type": "event"
    },
    {
      "inputs": [
        {
          "internalType": "uint256",
          "name": "_id",
          "type": "uint256"
        },
        {
          "internalType": "string",
          "name": "_newName",
          "type": "string"
        }
      ],
      "name": "changeName",
      "outputs": [],
      "stateMutability": "nonpayable",
      "type": "function"
    },
    {
      "inputs": [],
      "name": "getBlocktime",
      "outputs": [
        {
          "internalType": "uint256",
          "name": "",
          "type": "uint256"
        }
      ],
      "stateMutability": "view",
      "type": "function"
    },
    {
      "inputs": [
        {
          "internalType": "uint256",
          "name": "_playerId",
          "type": "uint256"
        }
      ],
      "name": "getPlayer",
      "outputs": [
        {
          "components": [
            {
              "internalType": "uint256",
              "name": "level",
              "type": "uint256"
            },
            {
              "internalType": "uint256",
              "name": "xp",
              "type": "uint256"
            },
            {
              "internalType": "uint256",
              "name": "status",
              "type": "uint256"
            },
            {
              "internalType": "uint256",
              "name": "strength",
              "type": "uint256"
            },
            {
              "internalType": "uint256",
              "name": "health",
              "type": "uint256"
            },
            {
              "internalType": "uint256",
              "name": "currentHealth",
              "type": "uint256"
            },
            {
              "internalType": "uint256",
              "name": "magic",
              "type": "uint256"
            },
            {
              "internalType": "uint256",
              "name": "mana",
              "type": "uint256"
            },
            {
              "internalType": "uint256",
              "name": "maxMana",
              "type": "uint256"
            },
            {
              "internalType": "uint256",
              "name": "agility",
              "type": "uint256"
            },
            {
              "internalType": "uint256",
              "name": "luck",
              "type": "uint256"
            },
            {
              "internalType": "uint256",
              "name": "wisdom",
              "type": "uint256"
            },
            {
              "internalType": "uint256",
              "name": "haki",
              "type": "uint256"
            },
            {
              "internalType": "uint256",
              "name": "perception",
              "type": "uint256"
            },
            {
              "internalType": "uint256",
              "name": "defense",
              "type": "uint256"
            },
            {
              "internalType": "string",
              "name": "name",
              "type": "string"
            },
            {
              "internalType": "string",
              "name": "uri",
              "type": "string"
            },
            {
              "internalType": "bool",
              "name": "male",
              "type": "bool"
            },
            {
              "components": [
                {
                  "internalType": "uint256",
                  "name": "head",
                  "type": "uint256"
                },
                {
                  "internalType": "uint256",
                  "name": "body",
                  "type": "uint256"
                },
                {
                  "internalType": "uint256",
                  "name": "leftHand",
                  "type": "uint256"
                },
                {
                  "internalType": "uint256",
                  "name": "rightHand",
                  "type": "uint256"
                },
                {
                  "internalType": "uint256",
                  "name": "pants",
                  "type": "uint256"
                },
                {
                  "internalType": "uint256",
                  "name": "feet",
                  "type": "uint256"
                },
                {
                  "internalType": "uint256",
                  "name": "neck",
                  "type": "uint256"
                }
              ],
              "internalType": "struct PlayerSlotLib.Slot",
              "name": "slot",
              "type": "tuple"
            }
          ],
          "internalType": "struct PlayerSlotLib.Player",
          "name": "player",
          "type": "tuple"
        }
      ],
      "stateMutability": "view",
      "type": "function"
    },
    {
      "inputs": [
        {
          "internalType": "address",
          "name": "_address",
          "type": "address"
        }
      ],
      "name": "getPlayers",
      "outputs": [
        {
          "internalType": "uint256[]",
          "name": "",
          "type": "uint256[]"
        }
      ],
      "stateMutability": "view",
      "type": "function"
    },
    {
      "inputs": [
        {
          "internalType": "uint64",
          "name": "_destGasLimit",
          "type": "uint64"
        },
        {
          "internalType": "uint64",
          "name": "_destGasPrice",
          "type": "uint64"
        },
        {
          "internalType": "uint64",
          "name": "_ackGasLimit",
          "type": "uint64"
        },
        {
          "internalType": "uint64",
          "name": "_ackGasPrice",
          "type": "uint64"
        },
        {
          "internalType": "uint128",
          "name": "_relayerFees",
          "type": "uint128"
        },
        {
          "internalType": "uint8",
          "name": "_ackType",
          "type": "uint8"
        },
        {
          "internalType": "bool",
          "name": "_isReadCall",
          "type": "bool"
        },
        {
          "internalType": "bytes",
          "name": "_asmAddress",
          "type": "bytes"
        }
      ],
      "name": "getRequestMetadata",
      "outputs": [
        {
          "internalType": "bytes",
          "name": "",
          "type": "bytes"
        }
      ],
      "stateMutability": "pure",
      "type": "function"
    },
    {
      "inputs": [
        {
          "internalType": "string",
          "name": "_chainId",
          "type": "string"
        }
      ],
      "name": "getTransferParams",
      "outputs": [
        {
          "internalType": "address",
          "name": "gateway",
          "type": "address"
        },
        {
          "internalType": "string",
          "name": "contractOnChain",
          "type": "string"
        },
        {
          "internalType": "uint256",
          "name": "test",
          "type": "uint256"
        }
      ],
      "stateMutability": "view",
      "type": "function"
    },
    {
      "inputs": [
        {
          "internalType": "uint256",
          "name": "_playerId",
          "type": "uint256"
        },
        {
          "internalType": "uint256",
          "name": "_stat",
          "type": "uint256"
        }
      ],
      "name": "levelUp",
      "outputs": [],
      "stateMutability": "nonpayable",
      "type": "function"
    },
    {
      "inputs": [
        {
          "internalType": "string",
          "name": "_name",
          "type": "string"
        },
        {
          "internalType": "bool",
          "name": "_isMale",
          "type": "bool"
        },
        {
          "internalType": "uint256",
          "name": "_class",
          "type": "uint256"
        }
      ],
      "name": "mint",
      "outputs": [],
      "stateMutability": "nonpayable",
      "type": "function"
    },
    {
      "inputs": [
        {
          "internalType": "string",
          "name": "_name",
          "type": "string"
        }
      ],
      "name": "nameAvailable",
      "outputs": [
        {
          "internalType": "bool",
          "name": "available",
          "type": "bool"
        }
      ],
      "stateMutability": "view",
      "type": "function"
    },
    {
      "inputs": [
        {
          "internalType": "uint256",
          "name": "_playerId",
          "type": "uint256"
        }
      ],
      "name": "ownerOfPlayer",
      "outputs": [
        {
          "internalType": "address",
          "name": "owner",
          "type": "address"
        }
      ],
      "stateMutability": "view",
      "type": "function"
    },
    {
      "inputs": [],
      "name": "playerCount",
      "outputs": [
        {
          "internalType": "uint256",
          "name": "",
          "type": "uint256"
        }
      ],
      "stateMutability": "view",
      "type": "function"
    },
    {
      "inputs": [
        {
          "internalType": "string",
          "name": "_chainId",
          "type": "string"
        },
        {
          "internalType": "string",
          "name": "_contractAddress",
          "type": "string"
        }
      ],
      "name": "setContractOnChain",
      "outputs": [],
      "stateMutability": "nonpayable",
      "type": "function"
    },
    {
      "inputs": [
        {
          "internalType": "address",
          "name": "gateway",
          "type": "address"
        },
        {
          "internalType": "string",
          "name": "feePayer",
          "type": "string"
        }
      ],
      "name": "setGateway",
      "outputs": [],
      "stateMutability": "nonpayable",
      "type": "function"
    },
    {
      "inputs": [
        {
          "internalType": "string",
          "name": "_destination",
          "type": "string"
        },
        {
          "internalType": "address",
          "name": "_recipientAsAddress",
          "type": "address"
        },
        {
          "internalType": "string",
          "name": "_recipientAsString",
          "type": "string"
        },
        {
          "internalType": "uint256",
          "name": "_playerId",
          "type": "uint256"
        },
        {
          "internalType": "bytes",
          "name": "_requestMetadata",
          "type": "bytes"
        }
      ],
      "name": "transferRemote",
      "outputs": [],
      "stateMutability": "payable",
      "type": "function"
    }
  ],
  "bytecode": "0x608060405234801561001057600080fd5b50614f59806100206000396000f3fe6080604052600436106100dd5760003560e01c80637a80b6b41161007f578063b09328ab11610059578063b09328ab146102d2578063bfcc8b6d146102ee578063c39cbef11461032b578063e55ae4e814610354576100dd565b80637a80b6b41461022f57806382bbdbec1461026c5780639c5538c2146102a9576100dd565b8063302bcc57116100bb578063302bcc571461017557806337bf9c41146101a05780635226dc93146101dd5780636b74bdb014610206576100dd565b80630501b79f146100e25780630d1ff3a51461010d5780632dc2b4da14610136575b600080fd5b3480156100ee57600080fd5b506100f7610391565b6040516101049190612e79565b60405180910390f35b34801561011957600080fd5b50610134600480360381019061012f9190612f0d565b610399565b005b34801561014257600080fd5b5061015d60048036038101906101589190612f8e565b6103ab565b60405161016c939291906130ac565b60405180910390f35b34801561018157600080fd5b5061018a61045a565b6040516101979190612e79565b60405180910390f35b3480156101ac57600080fd5b506101c760048036038101906101c29190613313565b610469565b6040516101d4919061343a565b60405180910390f35b3480156101e957600080fd5b5061020460048036038101906101ff9190613488565b6104ad565b005b34801561021257600080fd5b5061022d600480360381019061022891906134f4565b6104bb565b005b34801561023b57600080fd5b5061025660048036038101906102519190613554565b6104cb565b604051610263919061363f565b60405180910390f35b34801561027857600080fd5b50610293600480360381019061028e9190613702565b6104dd565b6040516102a0919061375a565b60405180910390f35b3480156102b557600080fd5b506102d060048036038101906102cb9190613775565b6104ef565b005b6102ec60048036038101906102e791906137e4565b610567565b005b3480156102fa57600080fd5b50610315600480360381019061031091906138bc565b61073c565b60405161032291906138e9565b60405180910390f35b34801561033757600080fd5b50610352600480360381019061034d9190613904565b61074e565b005b34801561036057600080fd5b5061037b600480360381019061037691906138bc565b6107b6565b6040516103889190613be5565b60405180910390f35b600042905090565b6103a5848484846107ce565b50505050565b6000606060006103bb858561082d565b8180546103c790613c36565b80601f01602080910402602001604051908101604052809291908181526020018280546103f390613c36565b80156104405780601f1061041557610100808354040283529160200191610440565b820191906000526020600020905b81548152906001019060200180831161042357829003601f168201915b505050505091508093508194508295505050509250925092565b6000610464610897565b905090565b60606000898989898989898960405160200161048c989796959493929190613d6e565b60405160208183030381529060405290508091505098975050505050505050565b6104b782826108af565b5050565b6104c6838383610d3b565b505050565b60606104d682610e33565b9050919050565b60006104e882610ed9565b9050919050565b6104fa838383610f1c565b600061050461045a565b90503373ffffffffffffffffffffffffffffffffffffffff16817fcb5aab6c0bec1e5513425dfaad4acfbca112f8b0ffe1027bd614e3d98a3ee5d2868560405161054f929190613dfc565b60405180910390a3610561338261191d565b50505050565b60008061063160405180608001604052808b8b8080601f016020809104026020016040519081016040528093929190818152602001838380828437600081840152601f19601f8201169050808301925050505050505081526020018973ffffffffffffffffffffffffffffffffffffffff16815260200188888080601f016020809104026020016040519081016040528093929190818152602001838380828437600081840152601f19601f8201169050808301925050505050505081526020018681525061193b565b9150915060008290508073ffffffffffffffffffffffffffffffffffffffff16637bed470a3460016000604051806020016040528060008152508f8f8b8a6040518963ffffffff1660e01b81526004016106919796959493929190613ed9565b60206040518083038185885af11580156106af573d6000803e3d6000fd5b50505050506040513d601f19601f820116820180604052508101906106d49190613f6d565b506106de85611d69565b8773ffffffffffffffffffffffffffffffffffffffff167f2d6e545609b925b0aa7a96d08fd620b5f8a77ff355c79f2f8cfcc8b4f0f7886a8b8b8860405161072893929190613f9a565b60405180910390a250505050505050505050565b600061074782611ed2565b9050919050565b6107588282611f1d565b806040516107669190614008565b6040518091039020823373ffffffffffffffffffffffffffffffffffffffff167fe4ce50a62b6cbb7d19acd75fd57f7e2588dd09705647d97993e2ece872c305b260405160405180910390a45050565b6107be612d89565b6107c7826121d1565b9050919050565b60006107d861243d565b905082828260000187876040516107f0929190614044565b9081526020016040518091039020918261080b92919061420a565b5080600201600081548092919061082190614309565b91905055505050505050565b60008060008061083b61243d565b90508060010160009054906101000a900473ffffffffffffffffffffffffffffffffffffffff169350806000018686604051610878929190614044565b9081526020016040518091039020925080600201549150509250925092565b6000806108a261246a565b9050806001015491505090565b60006108b961246a565b905060008160030160008581526020019081526020016000206040518061026001604052908160008201548152602001600182015481526020016002820154815260200160038201548152602001600482015481526020016005820154815260200160068201548152602001600782015481526020016008820154815260200160098201548152602001600a8201548152602001600b8201548152602001600c8201548152602001600d8201548152602001600e8201548152602001600f8201805461098490613c36565b80601f01602080910402602001604051908101604052809291908181526020018280546109b090613c36565b80156109fd5780601f106109d2576101008083540402835291602001916109fd565b820191906000526020600020905b8154815290600101906020018083116109e057829003601f168201915b50505050508152602001601082018054610a1690613c36565b80601f0160208091040260200160405190810160405280929190818152602001828054610a4290613c36565b8015610a8f5780601f10610a6457610100808354040283529160200191610a8f565b820191906000526020600020905b815481529060010190602001808311610a7257829003601f168201915b505050505081526020016011820160009054906101000a900460ff16151515158152602001601282016040518060e0016040529081600082015481526020016001820154815260200160028201548152602001600382015481526020016004820154815260200160058201548152602001600682015481525050815250509050600a8160000151610b209190614351565b81602001511015610b3057600080fd5b60008303610b6b578160030160008581526020019081526020016000206003016000815480929190610b6190614309565b9190505550610ccb565b60018303610bdb578160030160008581526020019081526020016000206004016000815480929190610b9c90614309565b91905055508160030160008581526020019081526020016000206004015482600301600086815260200190815260200160002060050181905550610cca565b60028303610c16578160030160008581526020019081526020016000206009016000815480929190610c0c90614309565b9190505550610cc9565b60038303610c51578160030160008581526020019081526020016000206006016000815480929190610c4790614309565b9190505550610cc8565b60048303610c7c578060000151816101c001818151610c709190614393565b91508181525050610cc7565b60058303610ca75780600001518161014001818151610c9b9190614393565b91508181525050610cc6565b80600001518161018001818151610cbe9190614393565b915081815250505b5b5b5b5b5b600a8160000151610cdc9190614351565b8160200151610ceb91906143c7565b826003016000868152602001908152602001600020600101819055508160030160008581526020019081526020016000206000016000815480929190610d3090614309565b919050555050505050565b6000610d4561243d565b9050838160010160006101000a81548173ffffffffffffffffffffffffffffffffffffffff021916908373ffffffffffffffffffffffffffffffffffffffff1602179055508060010160009054906101000a900473ffffffffffffffffffffffffffffffffffffffff1673ffffffffffffffffffffffffffffffffffffffff1663ef15cbda84846040518363ffffffff1660e01b8152600401610de99291906143fb565b6020604051808303816000875af1158015610e08573d6000803e3d6000fd5b505050506040513d601f19601f82011682018060405250810190610e2c9190613f6d565b5050505050565b60606000610e3f61246a565b90508060070160008473ffffffffffffffffffffffffffffffffffffffff1673ffffffffffffffffffffffffffffffffffffffff168152602001908152602001600020805480602002602001604051908101604052809291908181526020018280548015610ecc57602002820191906000526020600020905b815481526020019060010190808311610eb8575b5050505050915050919050565b600080610ee461246a565b90508060060183604051610ef89190614008565b908152602001604051809103902060009054906101000a900460ff16915050919050565b6000610f2661246a565b90508060060184604051610f3a9190614008565b908152602001604051809103902060009054906101000a900460ff1615610f96576040517f08c379a0000000000000000000000000000000000000000000000000000000008152600401610f8d9061446b565b60405180910390fd5b6002821115610fa457600080fd5b600a84511115610fb357600080fd5b600384511015610fc257600080fd5b806001016000815480929190610fd790614309565b919050555060606000830361124f578361100c57604051806080016040528060438152602001614e1860439139905080611029565b604051806080016040528060438152602001614ee1604391399050805b5060405180610260016040528060018152602001600081526020016000815260200160018152602001600a8152602001600a815260200160018152602001600181526020016001815260200160018152602001600181526020016001815260200160018152602001600181526020016001815260200186815260200182815260200185151581526020016040518060e00160405280600081526020016000815260200160008152602001600081526020016000815260200160008152602001600081525081525082600301600084600101548152602001908152602001600020600082015181600001556020820151816001015560408201518160020155606082015181600301556080820151816004015560a0820151816005015560c0820151816006015560e082015181600701556101008201518160080155610120820151816009015561014082015181600a015561016082015181600b015561018082015181600c01556101a082015181600d01556101c082015181600e01556101e082015181600f0190816111bc919061448b565b506102008201518160100190816111d3919061448b565b506102208201518160110160006101000a81548160ff02191690831515021790555061024082015181601201600082015181600001556020820151816001015560408201518160020155606082015181600301556080820151816004015560a0820151816005015560c082015181600601555050905050611726565b600183036114c0578361127d57604051806080016040528060438152602001614e9e6043913990508061129a565b604051806080016040528060438152602001614e5b604391399050805b5060405180610260016040528060018152602001600081526020016000815260200160018152602001600a8152602001600a815260200160018152602001600181526020016001815260200160018152602001600181526020016001815260200160018152602001600181526020016001815260200186815260200182815260200185151581526020016040518060e00160405280600081526020016000815260200160008152602001600081526020016000815260200160008152602001600081525081525082600301600084600101548152602001908152602001600020600082015181600001556020820151816001015560408201518160020155606082015181600301556080820151816004015560a0820151816005015560c0820151816006015560e082015181600701556101008201518160080155610120820151816009015561014082015181600a015561016082015181600b015561018082015181600c01556101a082015181600d01556101c082015181600e01556101e082015181600f01908161142d919061448b565b50610200820151816010019081611444919061448b565b506102208201518160110160006101000a81548160ff02191690831515021790555061024082015181601201600082015181600001556020820151816001015560408201518160020155606082015181600301556080820151816004015560a0820151816005015560c082015181600601555050905050611725565b836114e657604051806080016040528060438152602001614dd560439139905080611503565b604051806080016040528060438152602001614d92604391399050805b5060405180610260016040528060018152602001600081526020016000815260200160018152602001600a8152602001600a815260200160018152602001600181526020016001815260200160018152602001600181526020016001815260200160018152602001600181526020016001815260200186815260200182815260200185151581526020016040518060e00160405280600081526020016000815260200160008152602001600081526020016000815260200160008152602001600081525081525082600301600084600101548152602001908152602001600020600082015181600001556020820151816001015560408201518160020155606082015181600301556080820151816004015560a0820151816005015560c0820151816006015560e082015181600701556101008201518160080155610120820151816009015561014082015181600a015561016082015181600b015561018082015181600c01556101a082015181600d01556101c082015181600e01556101e082015181600f019081611696919061448b565b506102008201518160100190816116ad919061448b565b506102208201518160110160006101000a81548160ff02191690831515021790555061024082015181601201600082015181600001556020820151816001015560408201518160020155606082015181600301556080820151816004015560a0820151816005015560c0820151816006015550509050505b5b6040518060e00160405280600081526020016000815260200160008152602001600081526020016000815260200160008152602001600081525082600801600084600101548152602001908152602001600020600082015181600001556020820151816001015560408201518160020155606082015181600301556080820151816004015560a0820151816005015560c08201518160060155905050600182600601866040516117d69190614008565b908152602001604051809103902060006101000a81548160ff021916908315150217905550338260020160008460010154815260200190815260200160002060006101000a81548173ffffffffffffffffffffffffffffffffffffffff021916908373ffffffffffffffffffffffffffffffffffffffff1602179055508160070160003373ffffffffffffffffffffffffffffffffffffffff1673ffffffffffffffffffffffffffffffffffffffff168152602001908152602001600020826001015490806001815401808255809150506001900390600052602060002001600090919091909150558160040160003373ffffffffffffffffffffffffffffffffffffffff1673ffffffffffffffffffffffffffffffffffffffff168152602001908152602001600020600081548092919061191190614309565b91905055505050505050565b611937828260405180602001604052806000815250612497565b5050565b60006060600061194961243d565b905060405160200161195a90614583565b604051602081830303815290604052805190602001208160000185600001516040516119869190614008565b90815260200160405180910390206040516020016119a4919061461b565b60405160208183030381529060405280519060200120036119fa576040517f08c379a00000000000000000000000000000000000000000000000000000000081526004016119f19061467e565b60405180910390fd5b6000611a0461246a565b90506000816003016000876060015181526020019081526020016000206040518061026001604052908160008201548152602001600182015481526020016002820154815260200160038201548152602001600482015481526020016005820154815260200160068201548152602001600782015481526020016008820154815260200160098201548152602001600a8201548152602001600b8201548152602001600c8201548152602001600d8201548152602001600e8201548152602001600f82018054611ad390613c36565b80601f0160208091040260200160405190810160405280929190818152602001828054611aff90613c36565b8015611b4c5780601f10611b2157610100808354040283529160200191611b4c565b820191906000526020600020905b815481529060010190602001808311611b2f57829003601f168201915b50505050508152602001601082018054611b6590613c36565b80601f0160208091040260200160405190810160405280929190818152602001828054611b9190613c36565b8015611bde5780601f10611bb357610100808354040283529160200191611bde565b820191906000526020600020905b815481529060010190602001808311611bc157829003601f168201915b505050505081526020016011820160009054906101000a900460ff16151515158152602001601282016040518060e0016040529081600082015481526020016001820154815260200160028201548152602001600382015481526020016004820154815260200160058201548152602001600682015481525050815250509050600060405180608001604052808860600151815260200188606001518152602001838152602001886020015173ffffffffffffffffffffffffffffffffffffffff168152509050600081604051602001611cb891906148ae565b6040516020818303038152906040529050846000018860000151604051611cdf9190614008565b908152602001604051809103902081604051602001611cff929190614954565b60405160208183030381529060405295508460010160009054906101000a900473ffffffffffffffffffffffffffffffffffffffff169650611d453389606001516124f2565b846002016000815480929190611d5a90614309565b91905055505050505050915091565b6000611d74826128e8565b9050611d8481600084600161292e565b611d8d826128e8565b9050611d97612934565b600b01600083815260200190815260200160002060006101000a81549073ffffffffffffffffffffffffffffffffffffffff02191690556001611dd8612934565b600a0160008373ffffffffffffffffffffffffffffffffffffffff1673ffffffffffffffffffffffffffffffffffffffff16815260200190815260200160002060008282540392505081905550611e2d612934565b600901600083815260200190815260200160002060006101000a81549073ffffffffffffffffffffffffffffffffffffffff021916905581600073ffffffffffffffffffffffffffffffffffffffff168273ffffffffffffffffffffffffffffffffffffffff167fddf252ad1be2c89b69c2b068fc378daa952ba7f163c4a11628f55a4df523b3ef60405160405180910390a4611ece816000846001612961565b5050565b600080611edd61246a565b905080600201600084815260200190815260200160002060009054906101000a900473ffffffffffffffffffffffffffffffffffffffff16915050919050565b6000611f2761246a565b90503373ffffffffffffffffffffffffffffffffffffffff1681600201600085815260200190815260200160002060009054906101000a900473ffffffffffffffffffffffffffffffffffffffff1673ffffffffffffffffffffffffffffffffffffffff1614611f9657600080fd5b8060060182604051611fa89190614008565b908152602001604051809103902060009054906101000a900460ff1615612004576040517f08c379a0000000000000000000000000000000000000000000000000000000008152600401611ffb9061446b565b60405180910390fd5b6003825111612048576040517f08c379a000000000000000000000000000000000000000000000000000000000815260040161203f906149d7565b60405180910390fd5b600a82511061208c576040517f08c379a000000000000000000000000000000000000000000000000000000000815260040161208390614a43565b60405180910390fd5b6000816003016000858152602001908152602001600020600f0180546120b190613c36565b80601f01602080910402602001604051908101604052809291908181526020018280546120dd90613c36565b801561212a5780601f106120ff5761010080835404028352916020019161212a565b820191906000526020600020905b81548152906001019060200180831161210d57829003601f168201915b5050505050905060008151111561216c57816006018160405161214d9190614008565b908152602001604051809103902060006101000a81549060ff02191690555b82826003016000868152602001908152602001600020600f019081612191919061448b565b50600182600601846040516121a69190614008565b908152602001604051809103902060006101000a81548160ff02191690831515021790555050505050565b6121d9612d89565b60006121e361246a565b90508060030160008481526020019081526020016000206040518061026001604052908160008201548152602001600182015481526020016002820154815260200160038201548152602001600482015481526020016005820154815260200160068201548152602001600782015481526020016008820154815260200160098201548152602001600a8201548152602001600b8201548152602001600c8201548152602001600d8201548152602001600e8201548152602001600f820180546122ac90613c36565b80601f01602080910402602001604051908101604052809291908181526020018280546122d890613c36565b80156123255780601f106122fa57610100808354040283529160200191612325565b820191906000526020600020905b81548152906001019060200180831161230857829003601f168201915b5050505050815260200160108201805461233e90613c36565b80601f016020809104026020016040519081016040528092919081815260200182805461236a90613c36565b80156123b75780601f1061238c576101008083540402835291602001916123b7565b820191906000526020600020905b81548152906001019060200180831161239a57829003601f168201915b505050505081526020016011820160009054906101000a900460ff16151515158152602001601282016040518060e001604052908160008201548152602001600182015481526020016002820154815260200160038201548152602001600482015481526020016005820154815260200160068201548152505081525050915050919050565b6000807fde7d391137404fe68b2d026634c196acca759657f6772ed659866a46d08c6ce390508091505090565b6000807f3cab9a070a0c61cd0ae9d9e9e2c0781e5ca8691bec4087e5a4701d5ac018dd4e90508091505090565b6124a18383612967565b6124ae6000848484612b96565b6124ed576040517f08c379a00000000000000000000000000000000000000000000000000000000081526004016124e490614ad5565b60405180910390fd5b505050565b60006124fc61246a565b90508273ffffffffffffffffffffffffffffffffffffffff1681600201600084815260200190815260200160002060009054906101000a900473ffffffffffffffffffffffffffffffffffffffff1673ffffffffffffffffffffffffffffffffffffffff161461256b57600080fd5b80600101548211156125b2576040517f08c379a00000000000000000000000000000000000000000000000000000000081526004016125a990614b41565b60405180910390fd5b600081600201600084815260200190815260200160002060006101000a81548173ffffffffffffffffffffffffffffffffffffffff021916908373ffffffffffffffffffffffffffffffffffffffff160217905550600081600401600083600201600086815260200190815260200160002060009054906101000a900473ffffffffffffffffffffffffffffffffffffffff1673ffffffffffffffffffffffffffffffffffffffff1673ffffffffffffffffffffffffffffffffffffffff16815260200190815260200160002081905550600081600501600083600201600086815260200190815260200160002060009054906101000a900473ffffffffffffffffffffffffffffffffffffffff1673ffffffffffffffffffffffffffffffffffffffff1673ffffffffffffffffffffffffffffffffffffffff16815260200190815260200160002060003073ffffffffffffffffffffffffffffffffffffffff1673ffffffffffffffffffffffffffffffffffffffff1681526020019081526020016000208190555080600101600081548092919061275190614b61565b9190505550600081600701600083600201600086815260200190815260200160002060009054906101000a900473ffffffffffffffffffffffffffffffffffffffff1673ffffffffffffffffffffffffffffffffffffffff1673ffffffffffffffffffffffffffffffffffffffff168152602001908152602001600020905060005b818054905081101561289157838282815481106127f3576127f2614b8a565b5b90600052602060002001540361287e57816001838054905061281591906143c7565b8154811061282657612825614b8a565b5b906000526020600020015482828154811061284457612843614b8a565b5b90600052602060002001819055508180548061286357612862614bb9565b5b60019003818190600052602060002001600090559055612891565b808061288990614309565b9150506127d3565b50816008016000848152602001908152602001600020600080820160009055600182016000905560028201600090556003820160009055600482016000905560058201600090556006820160009055505050505050565b60006128f2612934565b600901600083815260200190815260200160002060009054906101000a900473ffffffffffffffffffffffffffffffffffffffff169050919050565b50505050565b6000807f2569078dfb4b0305704d3008e7403993ae9601b85f7ae5e742de3de8f8011c4090508091505090565b50505050565b600073ffffffffffffffffffffffffffffffffffffffff168273ffffffffffffffffffffffffffffffffffffffff16036129d6576040517f08c379a00000000000000000000000000000000000000000000000000000000081526004016129cd90614c34565b60405180910390fd5b6129df81612d1d565b15612a1f576040517f08c379a0000000000000000000000000000000000000000000000000000000008152600401612a1690614ca0565b60405180910390fd5b612a2d60008383600161292e565b612a3681612d1d565b15612a76576040517f08c379a0000000000000000000000000000000000000000000000000000000008152600401612a6d90614ca0565b60405180910390fd5b6001612a80612934565b600a0160008473ffffffffffffffffffffffffffffffffffffffff1673ffffffffffffffffffffffffffffffffffffffff1681526020019081526020016000206000828254019250508190555081612ad6612934565b600901600083815260200190815260200160002060006101000a81548173ffffffffffffffffffffffffffffffffffffffff021916908373ffffffffffffffffffffffffffffffffffffffff160217905550808273ffffffffffffffffffffffffffffffffffffffff16600073ffffffffffffffffffffffffffffffffffffffff167fddf252ad1be2c89b69c2b068fc378daa952ba7f163c4a11628f55a4df523b3ef60405160405180910390a4612b92600083836001612961565b5050565b6000612bb78473ffffffffffffffffffffffffffffffffffffffff16612d5e565b15612d10578373ffffffffffffffffffffffffffffffffffffffff1663150b7a02612be0612d81565b8786866040518563ffffffff1660e01b8152600401612c029493929190614cc0565b6020604051808303816000875af1925050508015612c3e57506040513d601f19601f82011682018060405250810190612c3b9190614d64565b60015b612cc0573d8060008114612c6e576040519150601f19603f3d011682016040523d82523d6000602084013e612c73565b606091505b506000815103612cb8576040517f08c379a0000000000000000000000000000000000000000000000000000000008152600401612caf90614ad5565b60405180910390fd5b805181602001fd5b63150b7a0260e01b7bffffffffffffffffffffffffffffffffffffffffffffffffffffffff1916817bffffffffffffffffffffffffffffffffffffffffffffffffffffffff191614915050612d15565b600190505b949350505050565b60008073ffffffffffffffffffffffffffffffffffffffff16612d3f836128e8565b73ffffffffffffffffffffffffffffffffffffffff1614159050919050565b6000808273ffffffffffffffffffffffffffffffffffffffff163b119050919050565b600033905090565b6040518061026001604052806000815260200160008152602001600081526020016000815260200160008152602001600081526020016000815260200160008152602001600081526020016000815260200160008152602001600081526020016000815260200160008152602001600081526020016060815260200160608152602001600015158152602001612e1d612e23565b81525090565b6040518060e00160405280600081526020016000815260200160008152602001600081526020016000815260200160008152602001600081525090565b6000819050919050565b612e7381612e60565b82525050565b6000602082019050612e8e6000830184612e6a565b92915050565b6000604051905090565b600080fd5b600080fd5b600080fd5b600080fd5b600080fd5b60008083601f840112612ecd57612ecc612ea8565b5b8235905067ffffffffffffffff811115612eea57612ee9612ead565b5b602083019150836001820283011115612f0657612f05612eb2565b5b9250929050565b60008060008060408587031215612f2757612f26612e9e565b5b600085013567ffffffffffffffff811115612f4557612f44612ea3565b5b612f5187828801612eb7565b9450945050602085013567ffffffffffffffff811115612f7457612f73612ea3565b5b612f8087828801612eb7565b925092505092959194509250565b60008060208385031215612fa557612fa4612e9e565b5b600083013567ffffffffffffffff811115612fc357612fc2612ea3565b5b612fcf85828601612eb7565b92509250509250929050565b600073ffffffffffffffffffffffffffffffffffffffff82169050919050565b600061300682612fdb565b9050919050565b61301681612ffb565b82525050565b600081519050919050565b600082825260208201905092915050565b60005b8381101561305657808201518184015260208101905061303b565b60008484015250505050565b6000601f19601f8301169050919050565b600061307e8261301c565b6130888185613027565b9350613098818560208601613038565b6130a181613062565b840191505092915050565b60006060820190506130c1600083018661300d565b81810360208301526130d38185613073565b90506130e26040830184612e6a565b949350505050565b600067ffffffffffffffff82169050919050565b613107816130ea565b811461311257600080fd5b50565b600081359050613124816130fe565b92915050565b60006fffffffffffffffffffffffffffffffff82169050919050565b61314f8161312a565b811461315a57600080fd5b50565b60008135905061316c81613146565b92915050565b600060ff82169050919050565b61318881613172565b811461319357600080fd5b50565b6000813590506131a58161317f565b92915050565b60008115159050919050565b6131c0816131ab565b81146131cb57600080fd5b50565b6000813590506131dd816131b7565b92915050565b600080fd5b7f4e487b7100000000000000000000000000000000000000000000000000000000600052604160045260246000fd5b61322082613062565b810181811067ffffffffffffffff8211171561323f5761323e6131e8565b5b80604052505050565b6000613252612e94565b905061325e8282613217565b919050565b600067ffffffffffffffff82111561327e5761327d6131e8565b5b61328782613062565b9050602081019050919050565b82818337600083830152505050565b60006132b66132b184613263565b613248565b9050828152602081018484840111156132d2576132d16131e3565b5b6132dd848285613294565b509392505050565b600082601f8301126132fa576132f9612ea8565b5b813561330a8482602086016132a3565b91505092915050565b600080600080600080600080610100898b03121561333457613333612e9e565b5b60006133428b828c01613115565b98505060206133538b828c01613115565b97505060406133648b828c01613115565b96505060606133758b828c01613115565b95505060806133868b828c0161315d565b94505060a06133978b828c01613196565b93505060c06133a88b828c016131ce565b92505060e089013567ffffffffffffffff8111156133c9576133c8612ea3565b5b6133d58b828c016132e5565b9150509295985092959890939650565b600081519050919050565b600082825260208201905092915050565b600061340c826133e5565b61341681856133f0565b9350613426818560208601613038565b61342f81613062565b840191505092915050565b600060208201905081810360008301526134548184613401565b905092915050565b61346581612e60565b811461347057600080fd5b50565b6000813590506134828161345c565b92915050565b6000806040838503121561349f5761349e612e9e565b5b60006134ad85828601613473565b92505060206134be85828601613473565b9150509250929050565b6134d181612ffb565b81146134dc57600080fd5b50565b6000813590506134ee816134c8565b92915050565b60008060006040848603121561350d5761350c612e9e565b5b600061351b868287016134df565b935050602084013567ffffffffffffffff81111561353c5761353b612ea3565b5b61354886828701612eb7565b92509250509250925092565b60006020828403121561356a57613569612e9e565b5b6000613578848285016134df565b91505092915050565b600081519050919050565b600082825260208201905092915050565b6000819050602082019050919050565b6135b681612e60565b82525050565b60006135c883836135ad565b60208301905092915050565b6000602082019050919050565b60006135ec82613581565b6135f6818561358c565b93506136018361359d565b8060005b8381101561363257815161361988826135bc565b9750613624836135d4565b925050600181019050613605565b5085935050505092915050565b6000602082019050818103600083015261365981846135e1565b905092915050565b600067ffffffffffffffff82111561367c5761367b6131e8565b5b61368582613062565b9050602081019050919050565b60006136a56136a084613661565b613248565b9050828152602081018484840111156136c1576136c06131e3565b5b6136cc848285613294565b509392505050565b600082601f8301126136e9576136e8612ea8565b5b81356136f9848260208601613692565b91505092915050565b60006020828403121561371857613717612e9e565b5b600082013567ffffffffffffffff81111561373657613735612ea3565b5b613742848285016136d4565b91505092915050565b613754816131ab565b82525050565b600060208201905061376f600083018461374b565b92915050565b60008060006060848603121561378e5761378d612e9e565b5b600084013567ffffffffffffffff8111156137ac576137ab612ea3565b5b6137b8868287016136d4565b93505060206137c9868287016131ce565b92505060406137da86828701613473565b9150509250925092565b600080600080600080600060a0888a03121561380357613802612e9e565b5b600088013567ffffffffffffffff81111561382157613820612ea3565b5b61382d8a828b01612eb7565b975097505060206138408a828b016134df565b955050604088013567ffffffffffffffff81111561386157613860612ea3565b5b61386d8a828b01612eb7565b945094505060606138808a828b01613473565b925050608088013567ffffffffffffffff8111156138a1576138a0612ea3565b5b6138ad8a828b016132e5565b91505092959891949750929550565b6000602082840312156138d2576138d1612e9e565b5b60006138e084828501613473565b91505092915050565b60006020820190506138fe600083018461300d565b92915050565b6000806040838503121561391b5761391a612e9e565b5b600061392985828601613473565b925050602083013567ffffffffffffffff81111561394a57613949612ea3565b5b613956858286016136d4565b9150509250929050565b600082825260208201905092915050565b600061397c8261301c565b6139868185613960565b9350613996818560208601613038565b61399f81613062565b840191505092915050565b6139b3816131ab565b82525050565b60e0820160008201516139cf60008501826135ad565b5060208201516139e260208501826135ad565b5060408201516139f560408501826135ad565b506060820151613a0860608501826135ad565b506080820151613a1b60808501826135ad565b5060a0820151613a2e60a08501826135ad565b5060c0820151613a4160c08501826135ad565b50505050565b600061032083016000830151613a6060008601826135ad565b506020830151613a7360208601826135ad565b506040830151613a8660408601826135ad565b506060830151613a9960608601826135ad565b506080830151613aac60808601826135ad565b5060a0830151613abf60a08601826135ad565b5060c0830151613ad260c08601826135ad565b5060e0830151613ae560e08601826135ad565b50610100830151613afa6101008601826135ad565b50610120830151613b0f6101208601826135ad565b50610140830151613b246101408601826135ad565b50610160830151613b396101608601826135ad565b50610180830151613b4e6101808601826135ad565b506101a0830151613b636101a08601826135ad565b506101c0830151613b786101c08601826135ad565b506101e08301518482036101e0860152613b928282613971565b915050610200830151848203610200860152613bae8282613971565b915050610220830151613bc56102208601826139aa565b50610240830151613bda6102408601826139b9565b508091505092915050565b60006020820190508181036000830152613bff8184613a47565b905092915050565b7f4e487b7100000000000000000000000000000000000000000000000000000000600052602260045260246000fd5b60006002820490506001821680613c4e57607f821691505b602082108103613c6157613c60613c07565b5b50919050565b60008160c01b9050919050565b6000613c7f82613c67565b9050919050565b613c97613c92826130ea565b613c74565b82525050565b60008160801b9050919050565b6000613cb582613c9d565b9050919050565b613ccd613cc88261312a565b613caa565b82525050565b60008160f81b9050919050565b6000613ceb82613cd3565b9050919050565b613d03613cfe82613172565b613ce0565b82525050565b6000613d1482613ce0565b9050919050565b613d2c613d27826131ab565b613d09565b82525050565b600081905092915050565b6000613d48826133e5565b613d528185613d32565b9350613d62818560208601613038565b80840191505092915050565b6000613d7a828b613c86565b600882019150613d8a828a613c86565b600882019150613d9a8289613c86565b600882019150613daa8288613c86565b600882019150613dba8287613cbc565b601082019150613dca8286613cf2565b600182019150613dda8285613d1b565b600182019150613dea8284613d3d565b91508190509998505050505050505050565b60006040820190508181036000830152613e168185613073565b9050613e256020830184612e6a565b9392505050565b6000819050919050565b6000819050919050565b6000613e5b613e56613e5184613e2c565b613e36565b612e60565b9050919050565b613e6b81613e40565b82525050565b6000819050919050565b6000613e96613e91613e8c84613e71565b613e36565b612e60565b9050919050565b613ea681613e7b565b82525050565b6000613eb88385613027565b9350613ec5838584613294565b613ece83613062565b840190509392505050565b600060c082019050613eee600083018a613e62565b613efb6020830189613e9d565b8181036040830152613f0d8188613073565b90508181036060830152613f22818688613eac565b90508181036080830152613f368185613401565b905081810360a0830152613f4a8184613401565b905098975050505050505050565b600081519050613f678161345c565b92915050565b600060208284031215613f8357613f82612e9e565b5b6000613f9184828501613f58565b91505092915050565b60006040820190508181036000830152613fb5818587613eac565b9050613fc46020830184612e6a565b949350505050565b600081905092915050565b6000613fe28261301c565b613fec8185613fcc565b9350613ffc818560208601613038565b80840191505092915050565b60006140148284613fd7565b915081905092915050565b600061402b8385613fcc565b9350614038838584613294565b82840190509392505050565b600061405182848661401f565b91508190509392505050565b600082905092915050565b60008190508160005260206000209050919050565b60006020601f8301049050919050565b600082821b905092915050565b6000600883026140ca7fffffffffffffffffffffffffffffffffffffffffffffffffffffffffffffffff8261408d565b6140d4868361408d565b95508019841693508086168417925050509392505050565b60006141076141026140fd84612e60565b613e36565b612e60565b9050919050565b6000819050919050565b614121836140ec565b61413561412d8261410e565b84845461409a565b825550505050565b600090565b61414a61413d565b614155818484614118565b505050565b5b818110156141795761416e600082614142565b60018101905061415b565b5050565b601f8211156141be5761418f81614068565b6141988461407d565b810160208510156141a7578190505b6141bb6141b38561407d565b83018261415a565b50505b505050565b600082821c905092915050565b60006141e1600019846008026141c3565b1980831691505092915050565b60006141fa83836141d0565b9150826002028217905092915050565b614214838361405d565b67ffffffffffffffff81111561422d5761422c6131e8565b5b6142378254613c36565b61424282828561417d565b6000601f831160018114614271576000841561425f578287013590505b61426985826141ee565b8655506142d1565b601f19841661427f86614068565b60005b828110156142a757848901358255600182019150602085019450602081019050614282565b868310156142c457848901356142c0601f8916826141d0565b8355505b6001600288020188555050505b50505050505050565b7f4e487b7100000000000000000000000000000000000000000000000000000000600052601160045260246000fd5b600061431482612e60565b91507fffffffffffffffffffffffffffffffffffffffffffffffffffffffffffffffff8203614346576143456142da565b5b600182019050919050565b600061435c82612e60565b915061436783612e60565b925082820261437581612e60565b9150828204841483151761438c5761438b6142da565b5b5092915050565b600061439e82612e60565b91506143a983612e60565b92508282019050808211156143c1576143c06142da565b5b92915050565b60006143d282612e60565b91506143dd83612e60565b92508282039050818111156143f5576143f46142da565b5b92915050565b60006020820190508181036000830152614416818486613eac565b90509392505050565b7f6e616d652069732074616b656e00000000000000000000000000000000000000600082015250565b6000614455600d83613027565b91506144608261441f565b602082019050919050565b6000602082019050818103600083015261448481614448565b9050919050565b6144948261301c565b67ffffffffffffffff8111156144ad576144ac6131e8565b5b6144b78254613c36565b6144c282828561417d565b600060209050601f8311600181146144f557600084156144e3578287015190505b6144ed85826141ee565b865550614555565b601f19841661450386614068565b60005b8281101561452b57848901518255600182019150602085019450602081019050614506565b868310156145485784890151614544601f8916826141d0565b8355505b6001600288020188555050505b505050505050565b50565b600061456d600083613fcc565b91506145788261455d565b600082019050919050565b600061458e82614560565b9150819050919050565b600081546145a581613c36565b6145af8186613fcc565b945060018216600081146145ca57600181146145df57614612565b60ff1983168652811515820286019350614612565b6145e885614068565b60005b8381101561460a578154818901526001820191506020810190506145eb565b838801955050505b50505092915050565b60006146278284614598565b915081905092915050565b7f636f6e7472616374206f6e2064657374206e6f74207365740000000000000000600082015250565b6000614668601883613027565b915061467382614632565b602082019050919050565b600060208201905081810360008301526146978161465b565b9050919050565b6000610320830160008301516146b760008601826135ad565b5060208301516146ca60208601826135ad565b5060408301516146dd60408601826135ad565b5060608301516146f060608601826135ad565b50608083015161470360808601826135ad565b5060a083015161471660a08601826135ad565b5060c083015161472960c08601826135ad565b5060e083015161473c60e08601826135ad565b506101008301516147516101008601826135ad565b506101208301516147666101208601826135ad565b5061014083015161477b6101408601826135ad565b506101608301516147906101608601826135ad565b506101808301516147a56101808601826135ad565b506101a08301516147ba6101a08601826135ad565b506101c08301516147cf6101c08601826135ad565b506101e08301518482036101e08601526147e98282613971565b9150506102008301518482036102008601526148058282613971565b91505061022083015161481c6102208601826139aa565b506102408301516148316102408601826139b9565b508091505092915050565b61484581612ffb565b82525050565b600060808301600083015161486360008601826135ad565b50602083015161487660208601826135ad565b506040830151848203604086015261488e828261469e565b91505060608301516148a3606086018261483c565b508091505092915050565b600060208201905081810360008301526148c8818461484b565b905092915050565b600081546148dd81613c36565b6148e78186613027565b9450600182166000811461490257600181146149185761494b565b60ff19831686528115156020028601935061494b565b61492185614068565b60005b8381101561494357815481890152600182019150602081019050614924565b808801955050505b50505092915050565b6000604082019050818103600083015261496e81856148d0565b905081810360208301526149828184613401565b90509392505050565b7f43616e6e6f74207061737320616e20656d707479206861736800000000000000600082015250565b60006149c1601983613027565b91506149cc8261498b565b602082019050919050565b600060208201905081810360008301526149f0816149b4565b9050919050565b7f43616e6e6f74206265206c6f6e676572207468616e2031302063686172730000600082015250565b6000614a2d601e83613027565b9150614a38826149f7565b602082019050919050565b60006020820190508181036000830152614a5c81614a20565b9050919050565b7f4552433732313a207472616e7366657220746f206e6f6e20455243373231526560008201527f63656976657220696d706c656d656e7465720000000000000000000000000000602082015250565b6000614abf603283613027565b9150614aca82614a63565b604082019050919050565b60006020820190508181036000830152614aee81614ab2565b9050919050565b7f506c6179657220646f6573206e6f742065786973740000000000000000000000600082015250565b6000614b2b601583613027565b9150614b3682614af5565b602082019050919050565b60006020820190508181036000830152614b5a81614b1e565b9050919050565b6000614b6c82612e60565b915060008203614b7f57614b7e6142da565b5b600182039050919050565b7f4e487b7100000000000000000000000000000000000000000000000000000000600052603260045260246000fd5b7f4e487b7100000000000000000000000000000000000000000000000000000000600052603160045260246000fd5b7f4552433732313a206d696e7420746f20746865207a65726f2061646472657373600082015250565b6000614c1e602083613027565b9150614c2982614be8565b602082019050919050565b60006020820190508181036000830152614c4d81614c11565b9050919050565b7f4552433732313a20746f6b656e20616c7265616479206d696e74656400000000600082015250565b6000614c8a601c83613027565b9150614c9582614c54565b602082019050919050565b60006020820190508181036000830152614cb981614c7d565b9050919050565b6000608082019050614cd5600083018761300d565b614ce2602083018661300d565b614cef6040830185612e6a565b8181036060830152614d018184613401565b905095945050505050565b60007fffffffff0000000000000000000000000000000000000000000000000000000082169050919050565b614d4181614d0c565b8114614d4c57600080fd5b50565b600081519050614d5e81614d38565b92915050565b600060208284031215614d7a57614d79612e9e565b5b6000614d8884828501614d4f565b9150509291505056fe68747470733a2f2f697066732e696f2f697066732f516d556257785564387358344d5a6f6a4b455255506d507539597441596659726f425334546531484a454b75637968747470733a2f2f697066732e696f2f697066732f516d625641427439734b704e55613844674d4a64653344424351796f72534354395631447a6436634a385a556d5068747470733a2f2f697066732e696f2f697066732f516d66424e4870787077554e67747736695842784b584c6256786f6d386d7064427367715a5a79353970524d354368747470733a2f2f697066732e696f2f697066732f516d5158655965397278526b6b716645423744725a52534732533179724e676a363456386d3676374b65747a516468747470733a2f2f697066732e696f2f697066732f516d55715a4b5275646e616e673147586244326e4848776d4a664e4e42465156646d6f483857416e65616969356868747470733a2f2f697066732e696f2f697066732f516d56357053734d47474d4c5733593979513871534c534d4451616b646e6a686a53346b356865366d4a79506548a26469706673582212200d8e343b81fe80b1f27b8b1eba41a24f1ee6b5ef348f180bca1f54d333875dac64736f6c63430008110033",
  "linkReferences": {},
  "deployedLinkReferences": {}
}