{
  "_format": "hh-sol-artifact-1",
  "contractName": "PlayerFacet",
  "sourceName": "contracts/facets/PlayerFacet.sol",
  "abi": [
    {
      "anonymous": false,
      "inputs": [
        {
          "indexed": true,
          "internalType": "address",
          "name": "owner",
          "type": "address"
        },
        {
          "indexed": true,
          "internalType": "address",
          "name": "approved",
          "type": "address"
        },
        {
          "indexed": true,
          "internalType": "uint256",
          "name": "tokenId",
          "type": "uint256"
        }
      ],
      "name": "Approval",
      "type": "event"
    },
    {
      "anonymous": false,
      "inputs": [
        {
          "indexed": true,
          "internalType": "address",
          "name": "owner",
          "type": "address"
        },
        {
          "indexed": true,
          "internalType": "address",
          "name": "operator",
          "type": "address"
        },
        {
          "indexed": false,
          "internalType": "bool",
          "name": "approved",
          "type": "bool"
        }
      ],
      "name": "ApprovalForAll",
      "type": "event"
    },
    {
      "anonymous": false,
      "inputs": [
        {
          "indexed": true,
          "internalType": "uint256",
          "name": "id",
          "type": "uint256"
        },
        {
          "indexed": true,
          "internalType": "address",
          "name": "owner",
          "type": "address"
        },
        {
          "indexed": false,
          "internalType": "string",
          "name": "name",
          "type": "string"
        },
        {
          "indexed": false,
          "internalType": "string",
          "name": "uri",
          "type": "string"
        }
      ],
      "name": "Mint",
      "type": "event"
    },
    {
      "anonymous": false,
      "inputs": [
        {
          "indexed": true,
          "internalType": "address",
          "name": "owner",
          "type": "address"
        },
        {
          "indexed": true,
          "internalType": "uint256",
          "name": "id",
          "type": "uint256"
        },
        {
          "indexed": true,
          "internalType": "string",
          "name": "newName",
          "type": "string"
        }
      ],
      "name": "NameChange",
      "type": "event"
    },
    {
      "anonymous": false,
      "inputs": [
        {
          "indexed": true,
          "internalType": "address",
          "name": "from",
          "type": "address"
        },
        {
          "indexed": true,
          "internalType": "address",
          "name": "to",
          "type": "address"
        },
        {
          "indexed": true,
          "internalType": "uint256",
          "name": "tokenId",
          "type": "uint256"
        }
      ],
      "name": "Transfer",
      "type": "event"
    },
    {
      "inputs": [
        {
          "internalType": "address",
          "name": "to",
          "type": "address"
        },
        {
          "internalType": "uint256",
          "name": "tokenId",
          "type": "uint256"
        }
      ],
      "name": "approve",
      "outputs": [],
      "stateMutability": "nonpayable",
      "type": "function"
    },
    {
      "inputs": [
        {
          "internalType": "address",
          "name": "owner",
          "type": "address"
        }
      ],
      "name": "balanceOf",
      "outputs": [
        {
          "internalType": "uint256",
          "name": "",
          "type": "uint256"
        }
      ],
      "stateMutability": "view",
      "type": "function"
    },
    {
      "inputs": [
        {
          "internalType": "uint256",
          "name": "_id",
          "type": "uint256"
        },
        {
          "internalType": "string",
          "name": "_newName",
          "type": "string"
        }
      ],
      "name": "changeName",
      "outputs": [],
      "stateMutability": "nonpayable",
      "type": "function"
    },
    {
      "inputs": [
        {
          "internalType": "uint256",
          "name": "tokenId",
          "type": "uint256"
        }
      ],
      "name": "getApproved",
      "outputs": [
        {
          "internalType": "address",
          "name": "",
          "type": "address"
        }
      ],
      "stateMutability": "view",
      "type": "function"
    },
    {
      "inputs": [],
      "name": "getBlocktime",
      "outputs": [
        {
          "internalType": "uint256",
          "name": "",
          "type": "uint256"
        }
      ],
      "stateMutability": "view",
      "type": "function"
    },
    {
      "inputs": [
        {
          "internalType": "uint256",
          "name": "_playerId",
          "type": "uint256"
        }
      ],
      "name": "getPlayer",
      "outputs": [
        {
          "components": [
            {
              "internalType": "uint256",
              "name": "level",
              "type": "uint256"
            },
            {
              "internalType": "uint256",
              "name": "xp",
              "type": "uint256"
            },
            {
              "internalType": "uint256",
              "name": "status",
              "type": "uint256"
            },
            {
              "internalType": "uint256",
              "name": "strength",
              "type": "uint256"
            },
            {
              "internalType": "uint256",
              "name": "health",
              "type": "uint256"
            },
            {
              "internalType": "uint256",
              "name": "magic",
              "type": "uint256"
            },
            {
              "internalType": "uint256",
              "name": "mana",
              "type": "uint256"
            },
            {
              "internalType": "uint256",
              "name": "agility",
              "type": "uint256"
            },
            {
              "internalType": "uint256",
              "name": "luck",
              "type": "uint256"
            },
            {
              "internalType": "uint256",
              "name": "wisdom",
              "type": "uint256"
            },
            {
              "internalType": "uint256",
              "name": "haki",
              "type": "uint256"
            },
            {
              "internalType": "uint256",
              "name": "perception",
              "type": "uint256"
            },
            {
              "internalType": "uint256",
              "name": "defense",
              "type": "uint256"
            },
            {
              "internalType": "string",
              "name": "name",
              "type": "string"
            },
            {
              "internalType": "string",
              "name": "uri",
              "type": "string"
            },
            {
              "internalType": "bool",
              "name": "male",
              "type": "bool"
            },
            {
              "components": [
                {
                  "internalType": "uint256",
                  "name": "head",
                  "type": "uint256"
                },
                {
                  "internalType": "uint256",
                  "name": "body",
                  "type": "uint256"
                },
                {
                  "internalType": "uint256",
                  "name": "leftHand",
                  "type": "uint256"
                },
                {
                  "internalType": "uint256",
                  "name": "rightHand",
                  "type": "uint256"
                },
                {
                  "internalType": "uint256",
                  "name": "pants",
                  "type": "uint256"
                },
                {
                  "internalType": "uint256",
                  "name": "feet",
                  "type": "uint256"
                }
              ],
              "internalType": "struct PlayerSlotLib.Slot",
              "name": "slot",
              "type": "tuple"
            }
          ],
          "internalType": "struct PlayerSlotLib.Player",
          "name": "player",
          "type": "tuple"
        }
      ],
      "stateMutability": "view",
      "type": "function"
    },
    {
      "inputs": [
        {
          "internalType": "address",
          "name": "_address",
          "type": "address"
        }
      ],
      "name": "getPlayers",
      "outputs": [
        {
          "internalType": "uint256[]",
          "name": "",
          "type": "uint256[]"
        }
      ],
      "stateMutability": "view",
      "type": "function"
    },
    {
      "inputs": [],
      "name": "historicalERC721Mint",
      "outputs": [],
      "stateMutability": "nonpayable",
      "type": "function"
    },
    {
      "inputs": [
        {
          "internalType": "address",
          "name": "owner",
          "type": "address"
        },
        {
          "internalType": "address",
          "name": "operator",
          "type": "address"
        }
      ],
      "name": "isApprovedForAll",
      "outputs": [
        {
          "internalType": "bool",
          "name": "",
          "type": "bool"
        }
      ],
      "stateMutability": "view",
      "type": "function"
    },
    {
      "inputs": [
        {
          "internalType": "string",
          "name": "_name",
          "type": "string"
        },
        {
          "internalType": "string",
          "name": "_uri",
          "type": "string"
        },
        {
          "internalType": "bool",
          "name": "_isMale",
          "type": "bool"
        }
      ],
      "name": "mint",
      "outputs": [],
      "stateMutability": "nonpayable",
      "type": "function"
    },
    {
      "inputs": [],
      "name": "name",
      "outputs": [
        {
          "internalType": "string",
          "name": "",
          "type": "string"
        }
      ],
      "stateMutability": "view",
      "type": "function"
    },
    {
      "inputs": [
        {
          "internalType": "string",
          "name": "_name",
          "type": "string"
        }
      ],
      "name": "nameAvailable",
      "outputs": [
        {
          "internalType": "bool",
          "name": "available",
          "type": "bool"
        }
      ],
      "stateMutability": "view",
      "type": "function"
    },
    {
      "inputs": [
        {
          "internalType": "uint256",
          "name": "tokenId",
          "type": "uint256"
        }
      ],
      "name": "ownerOf",
      "outputs": [
        {
          "internalType": "address",
          "name": "",
          "type": "address"
        }
      ],
      "stateMutability": "view",
      "type": "function"
    },
    {
      "inputs": [
        {
          "internalType": "uint256",
          "name": "_playerId",
          "type": "uint256"
        }
      ],
      "name": "ownerOfPlayer",
      "outputs": [
        {
          "internalType": "address",
          "name": "owner",
          "type": "address"
        }
      ],
      "stateMutability": "view",
      "type": "function"
    },
    {
      "inputs": [],
      "name": "playerCount",
      "outputs": [
        {
          "internalType": "uint256",
          "name": "",
          "type": "uint256"
        }
      ],
      "stateMutability": "view",
      "type": "function"
    },
    {
      "inputs": [
        {
          "internalType": "address",
          "name": "from",
          "type": "address"
        },
        {
          "internalType": "address",
          "name": "to",
          "type": "address"
        },
        {
          "internalType": "uint256",
          "name": "tokenId",
          "type": "uint256"
        }
      ],
      "name": "safeTransferFrom",
      "outputs": [],
      "stateMutability": "nonpayable",
      "type": "function"
    },
    {
      "inputs": [
        {
          "internalType": "address",
          "name": "from",
          "type": "address"
        },
        {
          "internalType": "address",
          "name": "to",
          "type": "address"
        },
        {
          "internalType": "uint256",
          "name": "tokenId",
          "type": "uint256"
        },
        {
          "internalType": "bytes",
          "name": "data",
          "type": "bytes"
        }
      ],
      "name": "safeTransferFrom",
      "outputs": [],
      "stateMutability": "nonpayable",
      "type": "function"
    },
    {
      "inputs": [
        {
          "internalType": "address",
          "name": "operator",
          "type": "address"
        },
        {
          "internalType": "bool",
          "name": "approved",
          "type": "bool"
        }
      ],
      "name": "setApprovalForAll",
      "outputs": [],
      "stateMutability": "nonpayable",
      "type": "function"
    },
    {
      "inputs": [
        {
          "internalType": "bytes4",
          "name": "interfaceId",
          "type": "bytes4"
        }
      ],
      "name": "supportsInterface",
      "outputs": [
        {
          "internalType": "bool",
          "name": "",
          "type": "bool"
        }
      ],
      "stateMutability": "view",
      "type": "function"
    },
    {
      "inputs": [],
      "name": "symbol",
      "outputs": [
        {
          "internalType": "string",
          "name": "",
          "type": "string"
        }
      ],
      "stateMutability": "view",
      "type": "function"
    },
    {
      "inputs": [
        {
          "internalType": "uint256",
          "name": "tokenId",
          "type": "uint256"
        }
      ],
      "name": "tokenURI",
      "outputs": [
        {
          "internalType": "string",
          "name": "",
          "type": "string"
        }
      ],
      "stateMutability": "view",
      "type": "function"
    },
    {
      "inputs": [
        {
          "internalType": "address",
          "name": "from",
          "type": "address"
        },
        {
          "internalType": "address",
          "name": "to",
          "type": "address"
        },
        {
          "internalType": "uint256",
          "name": "tokenId",
          "type": "uint256"
        }
      ],
      "name": "transferFrom",
      "outputs": [],
      "stateMutability": "nonpayable",
      "type": "function"
    }
  ],
  "bytecode": "0x608060405234801561001057600080fd5b50614708806100206000396000f3fe608060405234801561001057600080fd5b50600436106101425760003560e01c80637a80b6b4116100b8578063bfcc8b6d1161007c578063bfcc8b6d14610375578063c1d885b1146103a5578063c39cbef1146103c1578063c87b56dd146103dd578063e55ae4e81461040d578063e985e9c51461043d57610142565b80637a80b6b4146102bf57806382bbdbec146102ef57806395d89b411461031f578063a22cb4651461033d578063b88d4fde1461035957610142565b80631ca9c1b71161010a5780631ca9c1b7146101ff57806323b872dd14610209578063302bcc571461022557806342842e0e146102435780636352211e1461025f57806370a082311461028f57610142565b806301ffc9a7146101475780630501b79f1461017757806306fdde0314610195578063081812fc146101b3578063095ea7b3146101e3575b600080fd5b610161600480360381019061015c9190612902565b61046d565b60405161016e919061294a565b60405180910390f35b61017f6104d7565b60405161018c919061297e565b60405180910390f35b61019d6104df565b6040516101aa9190612a29565b60405180910390f35b6101cd60048036038101906101c89190612a77565b61057a565b6040516101da9190612ae5565b60405180910390f35b6101fd60048036038101906101f89190612b2c565b6105c9565b005b6102076106e0565b005b610223600480360381019061021e9190612b6c565b61075c565b005b61022d6107bc565b60405161023a919061297e565b60405180910390f35b61025d60048036038101906102589190612b6c565b6107cb565b005b61027960048036038101906102749190612a77565b6107eb565b6040516102869190612ae5565b60405180910390f35b6102a960048036038101906102a49190612bbf565b610871565b6040516102b6919061297e565b60405180910390f35b6102d960048036038101906102d49190612bbf565b610931565b6040516102e69190612caa565b60405180910390f35b61030960048036038101906103049190612e01565b610943565b604051610316919061294a565b60405180910390f35b610327610955565b6040516103349190612a29565b60405180910390f35b61035760048036038101906103529190612e76565b6109f0565b005b610373600480360381019061036e9190612f57565b610a06565b005b61038f600480360381019061038a9190612a77565b610a68565b60405161039c9190612ae5565b60405180910390f35b6103bf60048036038101906103ba9190612fda565b610a7a565b005b6103db60048036038101906103d69190613065565b610af2565b005b6103f760048036038101906103f29190612a77565b610b5a565b6040516104049190612a29565b60405180910390f35b61042760048036038101906104229190612a77565b610c03565b6040516104349190613309565b60405180910390f35b6104576004803603810190610452919061332b565b610c1b565b604051610464919061294a565b60405180910390f35b60007f01ffc9a7000000000000000000000000000000000000000000000000000000007bffffffffffffffffffffffffffffffffffffffffffffffffffffffff1916827bffffffffffffffffffffffffffffffffffffffffffffffffffffffff1916149050919050565b600042905090565b60606104e9610cb8565b60060180546104f79061339a565b80601f01602080910402602001604051908101604052809291908181526020018280546105239061339a565b80156105705780601f1061054557610100808354040283529160200191610570565b820191906000526020600020905b81548152906001019060200180831161055357829003601f168201915b5050505050905090565b600061058582610ce5565b61058d610cb8565b600b01600083815260200190815260200160002060009054906101000a900473ffffffffffffffffffffffffffffffffffffffff169050919050565b60006105d482610d30565b90508073ffffffffffffffffffffffffffffffffffffffff168373ffffffffffffffffffffffffffffffffffffffff1603610644576040517f08c379a000000000000000000000000000000000000000000000000000000000815260040161063b9061343d565b60405180910390fd5b8073ffffffffffffffffffffffffffffffffffffffff16610663610d76565b73ffffffffffffffffffffffffffffffffffffffff16148061069257506106918161068c610d76565b610c1b565b5b6106d1576040517f08c379a00000000000000000000000000000000000000000000000000000000081526004016106c8906134cf565b60405180910390fd5b6106db8383610d7e565b505050565b60006106eb33610e40565b905060005b81518110156107585761071c82828151811061070f5761070e6134ef565b5b6020026020010151610ee6565b6107455761074433838381518110610737576107366134ef565b5b6020026020010151610f27565b5b80806107509061354d565b9150506106f0565b5050565b61076d610767610d76565b82610f45565b6107ac576040517f08c379a00000000000000000000000000000000000000000000000000000000081526004016107a390613607565b60405180910390fd5b6107b7838383610fda565b505050565b60006107c66112f7565b905090565b6107e683838360405180602001604052806000815250610a06565b505050565b6000806107f783610d30565b9050600073ffffffffffffffffffffffffffffffffffffffff168173ffffffffffffffffffffffffffffffffffffffff1603610868576040517f08c379a000000000000000000000000000000000000000000000000000000000815260040161085f90613673565b60405180910390fd5b80915050919050565b60008073ffffffffffffffffffffffffffffffffffffffff168273ffffffffffffffffffffffffffffffffffffffff16036108e1576040517f08c379a00000000000000000000000000000000000000000000000000000000081526004016108d890613705565b60405180910390fd5b6108e9610cb8565b600a0160008373ffffffffffffffffffffffffffffffffffffffff1673ffffffffffffffffffffffffffffffffffffffff168152602001908152602001600020549050919050565b606061093c82610e40565b9050919050565b600061094e8261130f565b9050919050565b606061095f610cb8565b600701805461096d9061339a565b80601f01602080910402602001604051908101604052809291908181526020018280546109999061339a565b80156109e65780601f106109bb576101008083540402835291602001916109e6565b820191906000526020600020905b8154815290600101906020018083116109c957829003601f168201915b5050505050905090565b610a026109fb610d76565b8383611352565b5050565b610a17610a11610d76565b83610f45565b610a56576040517f08c379a0000000000000000000000000000000000000000000000000000000008152600401610a4d90613607565b60405180910390fd5b610a62848484846114c7565b50505050565b6000610a7382611523565b9050919050565b610a8583838361156e565b6000610a8f6107bc565b90503373ffffffffffffffffffffffffffffffffffffffff16817fd113c872a0d148e963f842767b1f364bf6d826e6cbbc9917c498a9b94f9c72808686604051610ada929190613725565b60405180910390a3610aec3382610f27565b50505050565b610afc82826119f0565b80604051610b0a9190613798565b6040518091039020823373ffffffffffffffffffffffffffffffffffffffff167fe4ce50a62b6cbb7d19acd75fd57f7e2588dd09705647d97993e2ece872c305b260405160405180910390a45050565b6060610b6582610ce5565b6000610b7083611ca4565b90506000610b7d82611ef2565b90506000610bd7836101a00151846101e00151610ba457610b9c610cb8565b600d01610bb0565b610bac610cb8565b600c015b84604051602001610bc39392919061399d565b604051602081830303815290604052611fe3565b905080604051602001610bea9190613a46565b6040516020818303038152906040529350505050919050565b610c0b6127d4565b610c1482611ca4565b9050919050565b6000610c25610cb8565b60080160008473ffffffffffffffffffffffffffffffffffffffff1673ffffffffffffffffffffffffffffffffffffffff16815260200190815260200160002060008373ffffffffffffffffffffffffffffffffffffffff1673ffffffffffffffffffffffffffffffffffffffff16815260200190815260200160002060009054906101000a900460ff16905092915050565b6000807f2569078dfb4b0305704d3008e7403993ae9601b85f7ae5e742de3de8f8011c4090508091505090565b610cee81610ee6565b610d2d576040517f08c379a0000000000000000000000000000000000000000000000000000000008152600401610d2490613673565b60405180910390fd5b50565b6000610d3a610cb8565b600901600083815260200190815260200160002060009054906101000a900473ffffffffffffffffffffffffffffffffffffffff169050919050565b600033905090565b81610d87610cb8565b600b01600083815260200190815260200160002060006101000a81548173ffffffffffffffffffffffffffffffffffffffff021916908373ffffffffffffffffffffffffffffffffffffffff160217905550808273ffffffffffffffffffffffffffffffffffffffff16610dfa83610d30565b73ffffffffffffffffffffffffffffffffffffffff167f8c5be1e5ebec7d5bd14f71427d1e84f3dd0314c0f7b2291e5b200ac8c7c3b92560405160405180910390a45050565b60606000610e4c612146565b90508060070160008473ffffffffffffffffffffffffffffffffffffffff1673ffffffffffffffffffffffffffffffffffffffff168152602001908152602001600020805480602002602001604051908101604052809291908181526020018280548015610ed957602002820191906000526020600020905b815481526020019060010190808311610ec5575b5050505050915050919050565b60008073ffffffffffffffffffffffffffffffffffffffff16610f0883610d30565b73ffffffffffffffffffffffffffffffffffffffff1614159050919050565b610f41828260405180602001604052806000815250612173565b5050565b600080610f5183610d30565b90508073ffffffffffffffffffffffffffffffffffffffff168473ffffffffffffffffffffffffffffffffffffffff161480610f935750610f928185610c1b565b5b80610fd157508373ffffffffffffffffffffffffffffffffffffffff16610fb98461057a565b73ffffffffffffffffffffffffffffffffffffffff16145b91505092915050565b8273ffffffffffffffffffffffffffffffffffffffff16610ffa82610d30565b73ffffffffffffffffffffffffffffffffffffffff1614611050576040517f08c379a000000000000000000000000000000000000000000000000000000000815260040161104790613ada565b60405180910390fd5b600073ffffffffffffffffffffffffffffffffffffffff168273ffffffffffffffffffffffffffffffffffffffff16036110bf576040517f08c379a00000000000000000000000000000000000000000000000000000000081526004016110b690613b6c565b60405180910390fd5b6110cc83838360016121ce565b8273ffffffffffffffffffffffffffffffffffffffff166110ec82610d30565b73ffffffffffffffffffffffffffffffffffffffff1614611142576040517f08c379a000000000000000000000000000000000000000000000000000000000815260040161113990613ada565b60405180910390fd5b61114a610cb8565b600b01600082815260200190815260200160002060006101000a81549073ffffffffffffffffffffffffffffffffffffffff0219169055600161118b610cb8565b600a0160008573ffffffffffffffffffffffffffffffffffffffff1673ffffffffffffffffffffffffffffffffffffffff1681526020019081526020016000206000828254039250508190555060016111e2610cb8565b600a0160008473ffffffffffffffffffffffffffffffffffffffff1673ffffffffffffffffffffffffffffffffffffffff1681526020019081526020016000206000828254019250508190555081611238610cb8565b600901600083815260200190815260200160002060006101000a81548173ffffffffffffffffffffffffffffffffffffffff021916908373ffffffffffffffffffffffffffffffffffffffff160217905550808273ffffffffffffffffffffffffffffffffffffffff168473ffffffffffffffffffffffffffffffffffffffff167fddf252ad1be2c89b69c2b068fc378daa952ba7f163c4a11628f55a4df523b3ef60405160405180910390a46112f283838360016121d4565b505050565b600080611302612146565b9050806001015491505090565b60008061131a612146565b9050806006018360405161132e9190613798565b908152602001604051809103902060009054906101000a900460ff16915050919050565b8173ffffffffffffffffffffffffffffffffffffffff168373ffffffffffffffffffffffffffffffffffffffff16036113c0576040517f08c379a00000000000000000000000000000000000000000000000000000000081526004016113b790613bd8565b60405180910390fd5b806113c9610cb8565b60080160008573ffffffffffffffffffffffffffffffffffffffff1673ffffffffffffffffffffffffffffffffffffffff16815260200190815260200160002060008473ffffffffffffffffffffffffffffffffffffffff1673ffffffffffffffffffffffffffffffffffffffff16815260200190815260200160002060006101000a81548160ff0219169083151502179055508173ffffffffffffffffffffffffffffffffffffffff168373ffffffffffffffffffffffffffffffffffffffff167f17307eab39ab6107e8899845ad3d59bd9653f200f220920489ca2b5937696c31836040516114ba919061294a565b60405180910390a3505050565b6114d2848484610fda565b6114de848484846121da565b61151d576040517f08c379a000000000000000000000000000000000000000000000000000000000815260040161151490613c6a565b60405180910390fd5b50505050565b60008061152e612146565b905080600201600084815260200190815260200160002060009054906101000a900473ffffffffffffffffffffffffffffffffffffffff16915050919050565b6000611578612146565b9050806006018460405161158c9190613798565b908152602001604051809103902060009054906101000a900460ff16156115e8576040517f08c379a00000000000000000000000000000000000000000000000000000000081526004016115df90613cd6565b60405180910390fd5b600a845111156115f757600080fd5b60038451101561160657600080fd5b80600101600081548092919061161b9061354d565b919050555060405180610220016040528060018152602001600081526020016000815260200160018152602001600a8152602001600181526020016001815260200160018152602001600181526020016001815260200160018152602001600181526020016001815260200185815260200184815260200183151581526020016040518060c001604052806000815260200160008152602001600081526020016000815260200160008152602001600081525081525081600301600083600101548152602001908152602001600020600082015181600001556020820151816001015560408201518160020155606082015181600301556080820151816004015560a0820151816005015560c0820151816006015560e082015181600701556101008201518160080155610120820151816009015561014082015181600a015561016082015181600b015561018082015181600c01556101a082015181600d0190816117879190613ea2565b506101c082015181600e01908161179e9190613ea2565b506101e082015181600f0160006101000a81548160ff02191690831515021790555061020082015181601001600082015181600001556020820151816001015560408201518160020155606082015181600301556080820151816004015560a0820151816005015550509050506040518060c001604052806000815260200160008152602001600081526020016000815260200160008152602001600081525081600801600083600101548152602001908152602001600020600082015181600001556020820151816001015560408201518160020155606082015181600301556080820151816004015560a08201518160050155905050600181600601856040516118aa9190613798565b908152602001604051809103902060006101000a81548160ff021916908315150217905550338160020160008360010154815260200190815260200160002060006101000a81548173ffffffffffffffffffffffffffffffffffffffff021916908373ffffffffffffffffffffffffffffffffffffffff1602179055508060070160003373ffffffffffffffffffffffffffffffffffffffff1673ffffffffffffffffffffffffffffffffffffffff168152602001908152602001600020816001015490806001815401808255809150506001900390600052602060002001600090919091909150558060040160003373ffffffffffffffffffffffffffffffffffffffff1673ffffffffffffffffffffffffffffffffffffffff16815260200190815260200160002060008154809291906119e59061354d565b919050555050505050565b60006119fa612146565b90503373ffffffffffffffffffffffffffffffffffffffff1681600201600085815260200190815260200160002060009054906101000a900473ffffffffffffffffffffffffffffffffffffffff1673ffffffffffffffffffffffffffffffffffffffff1614611a6957600080fd5b8060060182604051611a7b9190613798565b908152602001604051809103902060009054906101000a900460ff1615611ad7576040517f08c379a0000000000000000000000000000000000000000000000000000000008152600401611ace90613cd6565b60405180910390fd5b6003825111611b1b576040517f08c379a0000000000000000000000000000000000000000000000000000000008152600401611b1290613fc0565b60405180910390fd5b600a825110611b5f576040517f08c379a0000000000000000000000000000000000000000000000000000000008152600401611b569061402c565b60405180910390fd5b6000816003016000858152602001908152602001600020600d018054611b849061339a565b80601f0160208091040260200160405190810160405280929190818152602001828054611bb09061339a565b8015611bfd5780601f10611bd257610100808354040283529160200191611bfd565b820191906000526020600020905b815481529060010190602001808311611be057829003601f168201915b50505050509050600081511115611c3f578160060181604051611c209190613798565b908152602001604051809103902060006101000a81549060ff02191690555b82826003016000868152602001908152602001600020600d019081611c649190613ea2565b5060018260060184604051611c799190613798565b908152602001604051809103902060006101000a81548160ff02191690831515021790555050505050565b611cac6127d4565b6000611cb6612146565b90508060030160008481526020019081526020016000206040518061022001604052908160008201548152602001600182015481526020016002820154815260200160038201548152602001600482015481526020016005820154815260200160068201548152602001600782015481526020016008820154815260200160098201548152602001600a8201548152602001600b8201548152602001600c8201548152602001600d82018054611d6b9061339a565b80601f0160208091040260200160405190810160405280929190818152602001828054611d979061339a565b8015611de45780601f10611db957610100808354040283529160200191611de4565b820191906000526020600020905b815481529060010190602001808311611dc757829003601f168201915b50505050508152602001600e82018054611dfd9061339a565b80601f0160208091040260200160405190810160405280929190818152602001828054611e299061339a565b8015611e765780601f10611e4b57610100808354040283529160200191611e76565b820191906000526020600020905b815481529060010190602001808311611e5957829003601f168201915b50505050508152602001600f820160009054906101000a900460ff16151515158152602001601082016040518060c0016040529081600082015481526020016001820154815260200160028201548152602001600382015481526020016004820154815260200160058201548152505081525050915050919050565b6060816101a00151611f078360000151612361565b611f148460200151612361565b611f218560400151612361565b856101e00151611f66576040518060400160405280600681526020017f46656d616c650000000000000000000000000000000000000000000000000000815250611f9d565b6040518060400160405280600481526020017f4d616c65000000000000000000000000000000000000000000000000000000008152505b611faa8760600151612361565b611fb78860800151612361565b604051602001611fcd9796959493929190614344565b6040516020818303038152906040529050919050565b6060600082510361200557604051806020016040528060008152509050612141565b600060405180606001604052806040815260200161469360409139905060006003600285516120349190614401565b61203e9190614464565b600461204a9190614495565b67ffffffffffffffff81111561206357612062612cd6565b5b6040519080825280601f01601f1916602001820160405280156120955781602001600182028036833780820191505090505b509050600182016020820185865187015b80821015612101576003820191508151603f8160121c168501518453600184019350603f81600c1c168501518453600184019350603f8160061c168501518453600184019350603f81168501518453600184019350506120a6565b505060038651066001811461211d576002811461213057612138565b603d6001830353603d6002830353612138565b603d60018303535b50505080925050505b919050565b6000807f3cab9a070a0c61cd0ae9d9e9e2c0781e5ca8691bec4087e5a4701d5ac018dd4e90508091505090565b61217d838361242f565b61218a60008484846121da565b6121c9576040517f08c379a00000000000000000000000000000000000000000000000000000000081526004016121c090613c6a565b60405180910390fd5b505050565b50505050565b50505050565b60006121fb8473ffffffffffffffffffffffffffffffffffffffff1661265e565b15612354578373ffffffffffffffffffffffffffffffffffffffff1663150b7a02612224610d76565b8786866040518563ffffffff1660e01b8152600401612246949392919061452c565b6020604051808303816000875af192505050801561228257506040513d601f19601f8201168201806040525081019061227f919061458d565b60015b612304573d80600081146122b2576040519150601f19603f3d011682016040523d82523d6000602084013e6122b7565b606091505b5060008151036122fc576040517f08c379a00000000000000000000000000000000000000000000000000000000081526004016122f390613c6a565b60405180910390fd5b805181602001fd5b63150b7a0260e01b7bffffffffffffffffffffffffffffffffffffffffffffffffffffffff1916817bffffffffffffffffffffffffffffffffffffffffffffffffffffffff191614915050612359565b600190505b949350505050565b60606000600161237084612681565b01905060008167ffffffffffffffff81111561238f5761238e612cd6565b5b6040519080825280601f01601f1916602001820160405280156123c15781602001600182028036833780820191505090505b509050600082602001820190505b600115612424578080600190039150507f3031323334353637383961626364656600000000000000000000000000000000600a86061a8153600a858161241857612417614435565b5b049450600085036123cf575b819350505050919050565b600073ffffffffffffffffffffffffffffffffffffffff168273ffffffffffffffffffffffffffffffffffffffff160361249e576040517f08c379a000000000000000000000000000000000000000000000000000000000815260040161249590614606565b60405180910390fd5b6124a781610ee6565b156124e7576040517f08c379a00000000000000000000000000000000000000000000000000000000081526004016124de90614672565b60405180910390fd5b6124f56000838360016121ce565b6124fe81610ee6565b1561253e576040517f08c379a000000000000000000000000000000000000000000000000000000000815260040161253590614672565b60405180910390fd5b6001612548610cb8565b600a0160008473ffffffffffffffffffffffffffffffffffffffff1673ffffffffffffffffffffffffffffffffffffffff168152602001908152602001600020600082825401925050819055508161259e610cb8565b600901600083815260200190815260200160002060006101000a81548173ffffffffffffffffffffffffffffffffffffffff021916908373ffffffffffffffffffffffffffffffffffffffff160217905550808273ffffffffffffffffffffffffffffffffffffffff16600073ffffffffffffffffffffffffffffffffffffffff167fddf252ad1be2c89b69c2b068fc378daa952ba7f163c4a11628f55a4df523b3ef60405160405180910390a461265a6000838360016121d4565b5050565b6000808273ffffffffffffffffffffffffffffffffffffffff163b119050919050565b600080600090507a184f03e93ff9f4daa797ed6e38ed64bf6a1f01000000000000000083106126df577a184f03e93ff9f4daa797ed6e38ed64bf6a1f01000000000000000083816126d5576126d4614435565b5b0492506040810190505b6d04ee2d6d415b85acef8100000000831061271c576d04ee2d6d415b85acef8100000000838161271257612711614435565b5b0492506020810190505b662386f26fc10000831061274b57662386f26fc10000838161274157612740614435565b5b0492506010810190505b6305f5e1008310612774576305f5e100838161276a57612769614435565b5b0492506008810190505b612710831061279957612710838161278f5761278e614435565b5b0492506004810190505b606483106127bc57606483816127b2576127b1614435565b5b0492506002810190505b600a83106127cb576001810190505b80915050919050565b60405180610220016040528060008152602001600081526020016000815260200160008152602001600081526020016000815260200160008152602001600081526020016000815260200160008152602001600081526020016000815260200160008152602001606081526020016060815260200160001515815260200161285a612860565b81525090565b6040518060c001604052806000815260200160008152602001600081526020016000815260200160008152602001600081525090565b6000604051905090565b600080fd5b600080fd5b60007fffffffff0000000000000000000000000000000000000000000000000000000082169050919050565b6128df816128aa565b81146128ea57600080fd5b50565b6000813590506128fc816128d6565b92915050565b600060208284031215612918576129176128a0565b5b6000612926848285016128ed565b91505092915050565b60008115159050919050565b6129448161292f565b82525050565b600060208201905061295f600083018461293b565b92915050565b6000819050919050565b61297881612965565b82525050565b6000602082019050612993600083018461296f565b92915050565b600081519050919050565b600082825260208201905092915050565b60005b838110156129d35780820151818401526020810190506129b8565b60008484015250505050565b6000601f19601f8301169050919050565b60006129fb82612999565b612a0581856129a4565b9350612a158185602086016129b5565b612a1e816129df565b840191505092915050565b60006020820190508181036000830152612a4381846129f0565b905092915050565b612a5481612965565b8114612a5f57600080fd5b50565b600081359050612a7181612a4b565b92915050565b600060208284031215612a8d57612a8c6128a0565b5b6000612a9b84828501612a62565b91505092915050565b600073ffffffffffffffffffffffffffffffffffffffff82169050919050565b6000612acf82612aa4565b9050919050565b612adf81612ac4565b82525050565b6000602082019050612afa6000830184612ad6565b92915050565b612b0981612ac4565b8114612b1457600080fd5b50565b600081359050612b2681612b00565b92915050565b60008060408385031215612b4357612b426128a0565b5b6000612b5185828601612b17565b9250506020612b6285828601612a62565b9150509250929050565b600080600060608486031215612b8557612b846128a0565b5b6000612b9386828701612b17565b9350506020612ba486828701612b17565b9250506040612bb586828701612a62565b9150509250925092565b600060208284031215612bd557612bd46128a0565b5b6000612be384828501612b17565b91505092915050565b600081519050919050565b600082825260208201905092915050565b6000819050602082019050919050565b612c2181612965565b82525050565b6000612c338383612c18565b60208301905092915050565b6000602082019050919050565b6000612c5782612bec565b612c618185612bf7565b9350612c6c83612c08565b8060005b83811015612c9d578151612c848882612c27565b9750612c8f83612c3f565b925050600181019050612c70565b5085935050505092915050565b60006020820190508181036000830152612cc48184612c4c565b905092915050565b600080fd5b600080fd5b7f4e487b7100000000000000000000000000000000000000000000000000000000600052604160045260246000fd5b612d0e826129df565b810181811067ffffffffffffffff82111715612d2d57612d2c612cd6565b5b80604052505050565b6000612d40612896565b9050612d4c8282612d05565b919050565b600067ffffffffffffffff821115612d6c57612d6b612cd6565b5b612d75826129df565b9050602081019050919050565b82818337600083830152505050565b6000612da4612d9f84612d51565b612d36565b905082815260208101848484011115612dc057612dbf612cd1565b5b612dcb848285612d82565b509392505050565b600082601f830112612de857612de7612ccc565b5b8135612df8848260208601612d91565b91505092915050565b600060208284031215612e1757612e166128a0565b5b600082013567ffffffffffffffff811115612e3557612e346128a5565b5b612e4184828501612dd3565b91505092915050565b612e538161292f565b8114612e5e57600080fd5b50565b600081359050612e7081612e4a565b92915050565b60008060408385031215612e8d57612e8c6128a0565b5b6000612e9b85828601612b17565b9250506020612eac85828601612e61565b9150509250929050565b600067ffffffffffffffff821115612ed157612ed0612cd6565b5b612eda826129df565b9050602081019050919050565b6000612efa612ef584612eb6565b612d36565b905082815260208101848484011115612f1657612f15612cd1565b5b612f21848285612d82565b509392505050565b600082601f830112612f3e57612f3d612ccc565b5b8135612f4e848260208601612ee7565b91505092915050565b60008060008060808587031215612f7157612f706128a0565b5b6000612f7f87828801612b17565b9450506020612f9087828801612b17565b9350506040612fa187828801612a62565b925050606085013567ffffffffffffffff811115612fc257612fc16128a5565b5b612fce87828801612f29565b91505092959194509250565b600080600060608486031215612ff357612ff26128a0565b5b600084013567ffffffffffffffff811115613011576130106128a5565b5b61301d86828701612dd3565b935050602084013567ffffffffffffffff81111561303e5761303d6128a5565b5b61304a86828701612dd3565b925050604061305b86828701612e61565b9150509250925092565b6000806040838503121561307c5761307b6128a0565b5b600061308a85828601612a62565b925050602083013567ffffffffffffffff8111156130ab576130aa6128a5565b5b6130b785828601612dd3565b9150509250929050565b600082825260208201905092915050565b60006130dd82612999565b6130e781856130c1565b93506130f78185602086016129b5565b613100816129df565b840191505092915050565b6131148161292f565b82525050565b60c0820160008201516131306000850182612c18565b5060208201516131436020850182612c18565b5060408201516131566040850182612c18565b5060608201516131696060850182612c18565b50608082015161317c6080850182612c18565b5060a082015161318f60a0850182612c18565b50505050565b60006102c0830160008301516131ae6000860182612c18565b5060208301516131c16020860182612c18565b5060408301516131d46040860182612c18565b5060608301516131e76060860182612c18565b5060808301516131fa6080860182612c18565b5060a083015161320d60a0860182612c18565b5060c083015161322060c0860182612c18565b5060e083015161323360e0860182612c18565b50610100830151613248610100860182612c18565b5061012083015161325d610120860182612c18565b50610140830151613272610140860182612c18565b50610160830151613287610160860182612c18565b5061018083015161329c610180860182612c18565b506101a08301518482036101a08601526132b682826130d2565b9150506101c08301518482036101c08601526132d282826130d2565b9150506101e08301516132e96101e086018261310b565b506102008301516132fe61020086018261311a565b508091505092915050565b600060208201905081810360008301526133238184613195565b905092915050565b60008060408385031215613342576133416128a0565b5b600061335085828601612b17565b925050602061336185828601612b17565b9150509250929050565b7f4e487b7100000000000000000000000000000000000000000000000000000000600052602260045260246000fd5b600060028204905060018216806133b257607f821691505b6020821081036133c5576133c461336b565b5b50919050565b7f4552433732313a20617070726f76616c20746f2063757272656e74206f776e6560008201527f7200000000000000000000000000000000000000000000000000000000000000602082015250565b60006134276021836129a4565b9150613432826133cb565b604082019050919050565b600060208201905081810360008301526134568161341a565b9050919050565b7f4552433732313a20617070726f76652063616c6c6572206973206e6f7420746f60008201527f6b656e206f776e6572206f7220617070726f76656420666f7220616c6c000000602082015250565b60006134b9603d836129a4565b91506134c48261345d565b604082019050919050565b600060208201905081810360008301526134e8816134ac565b9050919050565b7f4e487b7100000000000000000000000000000000000000000000000000000000600052603260045260246000fd5b7f4e487b7100000000000000000000000000000000000000000000000000000000600052601160045260246000fd5b600061355882612965565b91507fffffffffffffffffffffffffffffffffffffffffffffffffffffffffffffffff820361358a5761358961351e565b5b600182019050919050565b7f4552433732313a2063616c6c6572206973206e6f7420746f6b656e206f776e6560008201527f72206f7220617070726f76656400000000000000000000000000000000000000602082015250565b60006135f1602d836129a4565b91506135fc82613595565b604082019050919050565b60006020820190508181036000830152613620816135e4565b9050919050565b7f4552433732313a20696e76616c696420746f6b656e2049440000000000000000600082015250565b600061365d6018836129a4565b915061366882613627565b602082019050919050565b6000602082019050818103600083015261368c81613650565b9050919050565b7f4552433732313a2061646472657373207a65726f206973206e6f74206120766160008201527f6c6964206f776e65720000000000000000000000000000000000000000000000602082015250565b60006136ef6029836129a4565b91506136fa82613693565b604082019050919050565b6000602082019050818103600083015261371e816136e2565b9050919050565b6000604082019050818103600083015261373f81856129f0565b9050818103602083015261375381846129f0565b90509392505050565b600081905092915050565b600061377282612999565b61377c818561375c565b935061378c8185602086016129b5565b80840191505092915050565b60006137a48284613767565b915081905092915050565b7f7b226e616d65223a220000000000000000000000000000000000000000000000600082015250565b60006137e560098361375c565b91506137f0826137af565b600982019050919050565b7f222c226465736372697074696f6e223a22506c61796572204e46542066726f6d60008201527f204f6d6e694b696e67646f6d73222c22696d616765223a220000000000000000602082015250565b600061385760388361375c565b9150613862826137fb565b603882019050919050565b60008190508160005260206000209050919050565b6000815461388f8161339a565b613899818661375c565b945060018216600081146138b457600181146138c9576138fc565b60ff19831686528115158202860193506138fc565b6138d28561386d565b60005b838110156138f4578154818901526001820191506020810190506138d5565b838801955050505b50505092915050565b7f222c2261747472696275746573223a0000000000000000000000000000000000600082015250565b600061393b600f8361375c565b915061394682613905565b600f82019050919050565b7f7d00000000000000000000000000000000000000000000000000000000000000600082015250565b600061398760018361375c565b915061399282613951565b600182019050919050565b60006139a8826137d8565b91506139b48286613767565b91506139bf8261384a565b91506139cb8285613882565b91506139d68261392e565b91506139e28284613767565b91506139ed8261397a565b9150819050949350505050565b7f646174613a6170706c69636174696f6e2f6a736f6e3b6261736536342c000000600082015250565b6000613a30601d8361375c565b9150613a3b826139fa565b601d82019050919050565b6000613a5182613a23565b9150613a5d8284613767565b915081905092915050565b7f4552433732313a207472616e736665722066726f6d20696e636f72726563742060008201527f6f776e6572000000000000000000000000000000000000000000000000000000602082015250565b6000613ac46025836129a4565b9150613acf82613a68565b604082019050919050565b60006020820190508181036000830152613af381613ab7565b9050919050565b7f4552433732313a207472616e7366657220746f20746865207a65726f2061646460008201527f7265737300000000000000000000000000000000000000000000000000000000602082015250565b6000613b566024836129a4565b9150613b6182613afa565b604082019050919050565b60006020820190508181036000830152613b8581613b49565b9050919050565b7f4552433732313a20617070726f766520746f2063616c6c657200000000000000600082015250565b6000613bc26019836129a4565b9150613bcd82613b8c565b602082019050919050565b60006020820190508181036000830152613bf181613bb5565b9050919050565b7f4552433732313a207472616e7366657220746f206e6f6e20455243373231526560008201527f63656976657220696d706c656d656e7465720000000000000000000000000000602082015250565b6000613c546032836129a4565b9150613c5f82613bf8565b604082019050919050565b60006020820190508181036000830152613c8381613c47565b9050919050565b7f6e616d652069732074616b656e00000000000000000000000000000000000000600082015250565b6000613cc0600d836129a4565b9150613ccb82613c8a565b602082019050919050565b60006020820190508181036000830152613cef81613cb3565b9050919050565b60008190508160005260206000209050919050565b60006020601f8301049050919050565b600082821b905092915050565b600060088302613d587fffffffffffffffffffffffffffffffffffffffffffffffffffffffffffffffff82613d1b565b613d628683613d1b565b95508019841693508086168417925050509392505050565b6000819050919050565b6000613d9f613d9a613d9584612965565b613d7a565b612965565b9050919050565b6000819050919050565b613db983613d84565b613dcd613dc582613da6565b848454613d28565b825550505050565b600090565b613de2613dd5565b613ded818484613db0565b505050565b5b81811015613e1157613e06600082613dda565b600181019050613df3565b5050565b601f821115613e5657613e2781613cf6565b613e3084613d0b565b81016020851015613e3f578190505b613e53613e4b85613d0b565b830182613df2565b50505b505050565b600082821c905092915050565b6000613e7960001984600802613e5b565b1980831691505092915050565b6000613e928383613e68565b9150826002028217905092915050565b613eab82612999565b67ffffffffffffffff811115613ec457613ec3612cd6565b5b613ece825461339a565b613ed9828285613e15565b600060209050601f831160018114613f0c5760008415613efa578287015190505b613f048582613e86565b865550613f6c565b601f198416613f1a86613cf6565b60005b82811015613f4257848901518255600182019150602085019450602081019050613f1d565b86831015613f5f5784890151613f5b601f891682613e68565b8355505b6001600288020188555050505b505050505050565b7f43616e6e6f74207061737320616e20656d707479206861736800000000000000600082015250565b6000613faa6019836129a4565b9150613fb582613f74565b602082019050919050565b60006020820190508181036000830152613fd981613f9d565b9050919050565b7f43616e6e6f74206265206c6f6e676572207468616e2031302063686172730000600082015250565b6000614016601e836129a4565b915061402182613fe0565b602082019050919050565b6000602082019050818103600083015261404581614009565b9050919050565b7f5b7b2274726169745f74797065223a224e616d65222c2276616c7565223a0000600082015250565b6000614082601e8361375c565b915061408d8261404c565b601e82019050919050565b7f7d2c7b2274726169745f74797065223a224c6576656c222c2276616c7565223a600082015250565b60006140ce60208361375c565b91506140d982614098565b602082019050919050565b7f7d2c7b2274726169745f74797065223a225850222c2276616c7565223a000000600082015250565b600061411a601d8361375c565b9150614125826140e4565b601d82019050919050565b7f7d2c7b2274726169745f74797065223a22537461747573222c2276616c75652260008201527f3a00000000000000000000000000000000000000000000000000000000000000602082015250565b600061418c60218361375c565b915061419782614130565b602182019050919050565b7f7d2c7b2274726169745f74797065223a2247656e646572222c2276616c75652260008201527f3a00000000000000000000000000000000000000000000000000000000000000602082015250565b60006141fe60218361375c565b9150614209826141a2565b602182019050919050565b7f7d2c7b2274726169745f74797065223a22537472656e677468222c2276616c7560008201527f65223a0000000000000000000000000000000000000000000000000000000000602082015250565b600061427060238361375c565b915061427b82614214565b602382019050919050565b7f7d2c7b2274726169745f74797065223a224865616c7468222c2276616c75652260008201527f3a00000000000000000000000000000000000000000000000000000000000000602082015250565b60006142e260218361375c565b91506142ed82614286565b602182019050919050565b7f7d5d000000000000000000000000000000000000000000000000000000000000600082015250565b600061432e60028361375c565b9150614339826142f8565b600282019050919050565b600061434f82614075565b915061435b828a613767565b9150614366826140c1565b91506143728289613767565b915061437d8261410d565b91506143898288613767565b91506143948261417f565b91506143a08287613767565b91506143ab826141f1565b91506143b78286613767565b91506143c282614263565b91506143ce8285613767565b91506143d9826142d5565b91506143e58284613767565b91506143f082614321565b915081905098975050505050505050565b600061440c82612965565b915061441783612965565b925082820190508082111561442f5761442e61351e565b5b92915050565b7f4e487b7100000000000000000000000000000000000000000000000000000000600052601260045260246000fd5b600061446f82612965565b915061447a83612965565b92508261448a57614489614435565b5b828204905092915050565b60006144a082612965565b91506144ab83612965565b92508282026144b981612965565b915082820484148315176144d0576144cf61351e565b5b5092915050565b600081519050919050565b600082825260208201905092915050565b60006144fe826144d7565b61450881856144e2565b93506145188185602086016129b5565b614521816129df565b840191505092915050565b60006080820190506145416000830187612ad6565b61454e6020830186612ad6565b61455b604083018561296f565b818103606083015261456d81846144f3565b905095945050505050565b600081519050614587816128d6565b92915050565b6000602082840312156145a3576145a26128a0565b5b60006145b184828501614578565b91505092915050565b7f4552433732313a206d696e7420746f20746865207a65726f2061646472657373600082015250565b60006145f06020836129a4565b91506145fb826145ba565b602082019050919050565b6000602082019050818103600083015261461f816145e3565b9050919050565b7f4552433732313a20746f6b656e20616c7265616479206d696e74656400000000600082015250565b600061465c601c836129a4565b915061466782614626565b602082019050919050565b6000602082019050818103600083015261468b8161464f565b905091905056fe4142434445464748494a4b4c4d4e4f505152535455565758595a6162636465666768696a6b6c6d6e6f707172737475767778797a303132333435363738392b2fa264697066735822122093ca4cb17c5f72555e60c5b647b915b693175769f1eb684cbb0a2412f8d8d42264736f6c63430008110033",
  "linkReferences": {},
  "deployedLinkReferences": {}
}