{
  "_format": "hh-sol-artifact-1",
  "contractName": "PlayerFacet",
  "sourceName": "contracts/facets/PlayerFacet.sol",
  "abi": [
    {
      "anonymous": false,
      "inputs": [
        {
          "indexed": true,
          "internalType": "address",
          "name": "owner",
          "type": "address"
        },
        {
          "indexed": true,
          "internalType": "address",
          "name": "approved",
          "type": "address"
        },
        {
          "indexed": true,
          "internalType": "uint256",
          "name": "tokenId",
          "type": "uint256"
        }
      ],
      "name": "Approval",
      "type": "event"
    },
    {
      "anonymous": false,
      "inputs": [
        {
          "indexed": true,
          "internalType": "address",
          "name": "owner",
          "type": "address"
        },
        {
          "indexed": true,
          "internalType": "address",
          "name": "operator",
          "type": "address"
        },
        {
          "indexed": false,
          "internalType": "bool",
          "name": "approved",
          "type": "bool"
        }
      ],
      "name": "ApprovalForAll",
      "type": "event"
    },
    {
      "anonymous": false,
      "inputs": [
        {
          "indexed": true,
          "internalType": "uint256",
          "name": "id",
          "type": "uint256"
        },
        {
          "indexed": true,
          "internalType": "address",
          "name": "owner",
          "type": "address"
        },
        {
          "indexed": false,
          "internalType": "string",
          "name": "name",
          "type": "string"
        },
        {
          "indexed": false,
          "internalType": "string",
          "name": "uri",
          "type": "string"
        },
        {
          "indexed": false,
          "internalType": "uint256",
          "name": "_class",
          "type": "uint256"
        }
      ],
      "name": "Mint",
      "type": "event"
    },
    {
      "anonymous": false,
      "inputs": [
        {
          "indexed": true,
          "internalType": "address",
          "name": "owner",
          "type": "address"
        },
        {
          "indexed": true,
          "internalType": "uint256",
          "name": "id",
          "type": "uint256"
        },
        {
          "indexed": true,
          "internalType": "string",
          "name": "newName",
          "type": "string"
        }
      ],
      "name": "NameChange",
      "type": "event"
    },
    {
      "anonymous": false,
      "inputs": [
        {
          "indexed": false,
          "internalType": "string",
          "name": "destination",
          "type": "string"
        },
        {
          "indexed": true,
          "internalType": "address",
          "name": "recipient",
          "type": "address"
        },
        {
          "indexed": false,
          "internalType": "uint256",
          "name": "playerId",
          "type": "uint256"
        }
      ],
      "name": "SentTransferRemote",
      "type": "event"
    },
    {
      "anonymous": false,
      "inputs": [
        {
          "indexed": true,
          "internalType": "address",
          "name": "from",
          "type": "address"
        },
        {
          "indexed": true,
          "internalType": "address",
          "name": "to",
          "type": "address"
        },
        {
          "indexed": true,
          "internalType": "uint256",
          "name": "tokenId",
          "type": "uint256"
        }
      ],
      "name": "Transfer",
      "type": "event"
    },
    {
      "inputs": [
        {
          "internalType": "uint256",
          "name": "_id",
          "type": "uint256"
        },
        {
          "internalType": "string",
          "name": "_newName",
          "type": "string"
        }
      ],
      "name": "changeName",
      "outputs": [],
      "stateMutability": "nonpayable",
      "type": "function"
    },
    {
      "inputs": [],
      "name": "getBlocktime",
      "outputs": [
        {
          "internalType": "uint256",
          "name": "",
          "type": "uint256"
        }
      ],
      "stateMutability": "view",
      "type": "function"
    },
    {
      "inputs": [
        {
          "internalType": "uint256",
          "name": "_playerId",
          "type": "uint256"
        }
      ],
      "name": "getPlayer",
      "outputs": [
        {
          "components": [
            {
              "internalType": "uint256",
              "name": "level",
              "type": "uint256"
            },
            {
              "internalType": "uint256",
              "name": "xp",
              "type": "uint256"
            },
            {
              "internalType": "uint256",
              "name": "status",
              "type": "uint256"
            },
            {
              "internalType": "uint256",
              "name": "strength",
              "type": "uint256"
            },
            {
              "internalType": "uint256",
              "name": "health",
              "type": "uint256"
            },
            {
              "internalType": "uint256",
              "name": "currentHealth",
              "type": "uint256"
            },
            {
              "internalType": "uint256",
              "name": "magic",
              "type": "uint256"
            },
            {
              "internalType": "uint256",
              "name": "mana",
              "type": "uint256"
            },
            {
              "internalType": "uint256",
              "name": "maxMana",
              "type": "uint256"
            },
            {
              "internalType": "uint256",
              "name": "agility",
              "type": "uint256"
            },
            {
              "internalType": "uint256",
              "name": "luck",
              "type": "uint256"
            },
            {
              "internalType": "uint256",
              "name": "wisdom",
              "type": "uint256"
            },
            {
              "internalType": "uint256",
              "name": "haki",
              "type": "uint256"
            },
            {
              "internalType": "uint256",
              "name": "perception",
              "type": "uint256"
            },
            {
              "internalType": "uint256",
              "name": "defense",
              "type": "uint256"
            },
            {
              "internalType": "string",
              "name": "name",
              "type": "string"
            },
            {
              "internalType": "string",
              "name": "uri",
              "type": "string"
            },
            {
              "internalType": "bool",
              "name": "male",
              "type": "bool"
            },
            {
              "components": [
                {
                  "internalType": "uint256",
                  "name": "head",
                  "type": "uint256"
                },
                {
                  "internalType": "uint256",
                  "name": "body",
                  "type": "uint256"
                },
                {
                  "internalType": "uint256",
                  "name": "leftHand",
                  "type": "uint256"
                },
                {
                  "internalType": "uint256",
                  "name": "rightHand",
                  "type": "uint256"
                },
                {
                  "internalType": "uint256",
                  "name": "pants",
                  "type": "uint256"
                },
                {
                  "internalType": "uint256",
                  "name": "feet",
                  "type": "uint256"
                },
                {
                  "internalType": "uint256",
                  "name": "neck",
                  "type": "uint256"
                }
              ],
              "internalType": "struct PlayerSlotLib.Slot",
              "name": "slot",
              "type": "tuple"
            }
          ],
          "internalType": "struct PlayerSlotLib.Player",
          "name": "player",
          "type": "tuple"
        }
      ],
      "stateMutability": "view",
      "type": "function"
    },
    {
      "inputs": [
        {
          "internalType": "address",
          "name": "_address",
          "type": "address"
        }
      ],
      "name": "getPlayers",
      "outputs": [
        {
          "internalType": "uint256[]",
          "name": "",
          "type": "uint256[]"
        }
      ],
      "stateMutability": "view",
      "type": "function"
    },
    {
      "inputs": [
        {
          "internalType": "uint64",
          "name": "_destGasLimit",
          "type": "uint64"
        },
        {
          "internalType": "uint64",
          "name": "_destGasPrice",
          "type": "uint64"
        },
        {
          "internalType": "uint64",
          "name": "_ackGasLimit",
          "type": "uint64"
        },
        {
          "internalType": "uint64",
          "name": "_ackGasPrice",
          "type": "uint64"
        },
        {
          "internalType": "uint128",
          "name": "_relayerFees",
          "type": "uint128"
        },
        {
          "internalType": "uint8",
          "name": "_ackType",
          "type": "uint8"
        },
        {
          "internalType": "bool",
          "name": "_isReadCall",
          "type": "bool"
        },
        {
          "internalType": "bytes",
          "name": "_asmAddress",
          "type": "bytes"
        }
      ],
      "name": "getRequestMetadata",
      "outputs": [
        {
          "internalType": "bytes",
          "name": "",
          "type": "bytes"
        }
      ],
      "stateMutability": "pure",
      "type": "function"
    },
    {
      "inputs": [
        {
          "internalType": "string",
          "name": "_chainId",
          "type": "string"
        }
      ],
      "name": "getTransferParams",
      "outputs": [
        {
          "internalType": "address",
          "name": "gateway",
          "type": "address"
        },
        {
          "internalType": "string",
          "name": "contractOnChain",
          "type": "string"
        },
        {
          "internalType": "uint256",
          "name": "test",
          "type": "uint256"
        }
      ],
      "stateMutability": "view",
      "type": "function"
    },
    {
      "inputs": [
        {
          "internalType": "uint256",
          "name": "_playerId",
          "type": "uint256"
        },
        {
          "internalType": "uint256",
          "name": "_stat",
          "type": "uint256"
        }
      ],
      "name": "levelUp",
      "outputs": [],
      "stateMutability": "nonpayable",
      "type": "function"
    },
    {
      "inputs": [
        {
          "internalType": "string",
          "name": "_name",
          "type": "string"
        },
        {
          "internalType": "string",
          "name": "_uri",
          "type": "string"
        },
        {
          "internalType": "bool",
          "name": "_isMale",
          "type": "bool"
        },
        {
          "internalType": "uint256",
          "name": "_class",
          "type": "uint256"
        }
      ],
      "name": "mint",
      "outputs": [],
      "stateMutability": "nonpayable",
      "type": "function"
    },
    {
      "inputs": [
        {
          "internalType": "string",
          "name": "_name",
          "type": "string"
        }
      ],
      "name": "nameAvailable",
      "outputs": [
        {
          "internalType": "bool",
          "name": "available",
          "type": "bool"
        }
      ],
      "stateMutability": "view",
      "type": "function"
    },
    {
      "inputs": [
        {
          "internalType": "uint256",
          "name": "_playerId",
          "type": "uint256"
        }
      ],
      "name": "ownerOfPlayer",
      "outputs": [
        {
          "internalType": "address",
          "name": "owner",
          "type": "address"
        }
      ],
      "stateMutability": "view",
      "type": "function"
    },
    {
      "inputs": [],
      "name": "playerCount",
      "outputs": [
        {
          "internalType": "uint256",
          "name": "",
          "type": "uint256"
        }
      ],
      "stateMutability": "view",
      "type": "function"
    },
    {
      "inputs": [
        {
          "internalType": "string",
          "name": "_chainId",
          "type": "string"
        },
        {
          "internalType": "string",
          "name": "_contractAddress",
          "type": "string"
        }
      ],
      "name": "setContractOnChain",
      "outputs": [],
      "stateMutability": "nonpayable",
      "type": "function"
    },
    {
      "inputs": [
        {
          "internalType": "address",
          "name": "gateway",
          "type": "address"
        },
        {
          "internalType": "string",
          "name": "feePayer",
          "type": "string"
        }
      ],
      "name": "setGateway",
      "outputs": [],
      "stateMutability": "nonpayable",
      "type": "function"
    },
    {
      "inputs": [
        {
          "internalType": "string",
          "name": "_destination",
          "type": "string"
        },
        {
          "internalType": "address",
          "name": "_recipientAsAddress",
          "type": "address"
        },
        {
          "internalType": "string",
          "name": "_recipientAsString",
          "type": "string"
        },
        {
          "internalType": "uint256",
          "name": "_playerId",
          "type": "uint256"
        },
        {
          "internalType": "bytes",
          "name": "_requestMetadata",
          "type": "bytes"
        }
      ],
      "name": "transferRemote",
      "outputs": [],
      "stateMutability": "payable",
      "type": "function"
    }
  ],
  "bytecode": "0x608060405234801561001057600080fd5b50614d34806100206000396000f3fe6080604052600436106100dd5760003560e01c80636f09a47f1161007f578063b09328ab11610059578063b09328ab146102d2578063bfcc8b6d146102ee578063c39cbef11461032b578063e55ae4e814610354576100dd565b80636f09a47f1461022f5780637a80b6b41461025857806382bbdbec14610295576100dd565b8063302bcc57116100bb578063302bcc571461017557806337bf9c41146101a05780635226dc93146101dd5780636b74bdb014610206576100dd565b80630501b79f146100e25780630d1ff3a51461010d5780632dc2b4da14610136575b600080fd5b3480156100ee57600080fd5b506100f7610391565b6040516101049190612da1565b60405180910390f35b34801561011957600080fd5b50610134600480360381019061012f9190612e35565b610399565b005b34801561014257600080fd5b5061015d60048036038101906101589190612eb6565b6103ab565b60405161016c93929190612fd4565b60405180910390f35b34801561018157600080fd5b5061018a61045a565b6040516101979190612da1565b60405180910390f35b3480156101ac57600080fd5b506101c760048036038101906101c2919061323b565b610469565b6040516101d49190613362565b60405180910390f35b3480156101e957600080fd5b5061020460048036038101906101ff91906133b0565b6104ad565b005b34801561021257600080fd5b5061022d6004803603810190610228919061341c565b6104bb565b005b34801561023b57600080fd5b506102566004803603810190610251919061351d565b6104cb565b005b34801561026457600080fd5b5061027f600480360381019061027a91906135bc565b610547565b60405161028c91906136a7565b60405180910390f35b3480156102a157600080fd5b506102bc60048036038101906102b791906136c9565b610559565b6040516102c99190613721565b60405180910390f35b6102ec60048036038101906102e7919061373c565b61056b565b005b3480156102fa57600080fd5b5061031560048036038101906103109190613814565b610740565b6040516103229190613841565b60405180910390f35b34801561033757600080fd5b50610352600480360381019061034d919061385c565b610752565b005b34801561036057600080fd5b5061037b60048036038101906103769190613814565b6107ba565b6040516103889190613b3d565b60405180910390f35b600042905090565b6103a5848484846107d2565b50505050565b6000606060006103bb8585610831565b8180546103c790613b8e565b80601f01602080910402602001604051908101604052809291908181526020018280546103f390613b8e565b80156104405780601f1061041557610100808354040283529160200191610440565b820191906000526020600020905b81548152906001019060200180831161042357829003601f168201915b505050505091508093508194508295505050509250925092565b600061046461089b565b905090565b60606000898989898989898960405160200161048c989796959493929190613cc6565b60405160208183030381529060405290508091505098975050505050505050565b6104b782826108b3565b5050565b6104c6838383610d3f565b505050565b6104d784848484610e37565b60006104e161045a565b90503373ffffffffffffffffffffffffffffffffffffffff16817f33378c60f4110e58d8064c704c7b7388851b0389bd002fc7e4986e9c68e307c187878660405161052e93929190613d54565b60405180910390a3610540338261175c565b5050505050565b60606105528261177a565b9050919050565b600061056482611820565b9050919050565b60008061063560405180608001604052808b8b8080601f016020809104026020016040519081016040528093929190818152602001838380828437600081840152601f19601f8201169050808301925050505050505081526020018973ffffffffffffffffffffffffffffffffffffffff16815260200188888080601f016020809104026020016040519081016040528093929190818152602001838380828437600081840152601f19601f82011690508083019250505050505050815260200186815250611863565b9150915060008290508073ffffffffffffffffffffffffffffffffffffffff16637bed470a3460016000604051806020016040528060008152508f8f8b8a6040518963ffffffff1660e01b81526004016106959796959493929190613e46565b60206040518083038185885af11580156106b3573d6000803e3d6000fd5b50505050506040513d601f19601f820116820180604052508101906106d89190613eda565b506106e285611c91565b8773ffffffffffffffffffffffffffffffffffffffff167f2d6e545609b925b0aa7a96d08fd620b5f8a77ff355c79f2f8cfcc8b4f0f7886a8b8b8860405161072c93929190613f07565b60405180910390a250505050505050505050565b600061074b82611dfa565b9050919050565b61075c8282611e45565b8060405161076a9190613f75565b6040518091039020823373ffffffffffffffffffffffffffffffffffffffff167fe4ce50a62b6cbb7d19acd75fd57f7e2588dd09705647d97993e2ece872c305b260405160405180910390a45050565b6107c2612cb1565b6107cb826120f9565b9050919050565b60006107dc612365565b905082828260000187876040516107f4929190613fb1565b9081526020016040518091039020918261080f929190614177565b5080600201600081548092919061082590614276565b91905055505050505050565b60008060008061083f612365565b90508060010160009054906101000a900473ffffffffffffffffffffffffffffffffffffffff16935080600001868660405161087c929190613fb1565b9081526020016040518091039020925080600201549150509250925092565b6000806108a6612392565b9050806001015491505090565b60006108bd612392565b905060008160030160008581526020019081526020016000206040518061026001604052908160008201548152602001600182015481526020016002820154815260200160038201548152602001600482015481526020016005820154815260200160068201548152602001600782015481526020016008820154815260200160098201548152602001600a8201548152602001600b8201548152602001600c8201548152602001600d8201548152602001600e8201548152602001600f8201805461098890613b8e565b80601f01602080910402602001604051908101604052809291908181526020018280546109b490613b8e565b8015610a015780601f106109d657610100808354040283529160200191610a01565b820191906000526020600020905b8154815290600101906020018083116109e457829003601f168201915b50505050508152602001601082018054610a1a90613b8e565b80601f0160208091040260200160405190810160405280929190818152602001828054610a4690613b8e565b8015610a935780601f10610a6857610100808354040283529160200191610a93565b820191906000526020600020905b815481529060010190602001808311610a7657829003601f168201915b505050505081526020016011820160009054906101000a900460ff16151515158152602001601282016040518060e0016040529081600082015481526020016001820154815260200160028201548152602001600382015481526020016004820154815260200160058201548152602001600682015481525050815250509050600a8160000151610b2491906142be565b81602001511015610b3457600080fd5b60008303610b6f578160030160008581526020019081526020016000206003016000815480929190610b6590614276565b9190505550610ccf565b60018303610bdf578160030160008581526020019081526020016000206004016000815480929190610ba090614276565b91905055508160030160008581526020019081526020016000206004015482600301600086815260200190815260200160002060050181905550610cce565b60028303610c1a578160030160008581526020019081526020016000206009016000815480929190610c1090614276565b9190505550610ccd565b60038303610c55578160030160008581526020019081526020016000206006016000815480929190610c4b90614276565b9190505550610ccc565b60048303610c80578060000151816101c001818151610c749190614300565b91508181525050610ccb565b60058303610cab5780600001518161014001818151610c9f9190614300565b91508181525050610cca565b80600001518161018001818151610cc29190614300565b915081815250505b5b5b5b5b5b600a8160000151610ce091906142be565b8160200151610cef9190614334565b826003016000868152602001908152602001600020600101819055508160030160008581526020019081526020016000206000016000815480929190610d3490614276565b919050555050505050565b6000610d49612365565b9050838160010160006101000a81548173ffffffffffffffffffffffffffffffffffffffff021916908373ffffffffffffffffffffffffffffffffffffffff1602179055508060010160009054906101000a900473ffffffffffffffffffffffffffffffffffffffff1673ffffffffffffffffffffffffffffffffffffffff1663ef15cbda84846040518363ffffffff1660e01b8152600401610ded929190614368565b6020604051808303816000875af1158015610e0c573d6000803e3d6000fd5b505050506040513d601f19601f82011682018060405250810190610e309190613eda565b5050505050565b6000610e41612392565b90508060060185604051610e559190613f75565b908152602001604051809103902060009054906101000a900460ff1615610eb1576040517f08c379a0000000000000000000000000000000000000000000000000000000008152600401610ea8906143d8565b60405180910390fd5b600a85511115610ec057600080fd5b600385511015610ecf57600080fd5b806001016000815480929190610ee490614276565b9190505550600082036111165760405180610260016040528060018152602001600081526020016000815260200160018152602001600a8152602001600a815260200160018152602001600181526020016001815260200160018152602001600181526020016001815260200160018152602001600181526020016001815260200186815260200185815260200184151581526020016040518060e00160405280600081526020016000815260200160008152602001600081526020016000815260200160008152602001600081525081525081600301600083600101548152602001908152602001600020600082015181600001556020820151816001015560408201518160020155606082015181600301556080820151816004015560a0820151816005015560c0820151816006015560e082015181600701556101008201518160080155610120820151816009015561014082015181600a015561016082015181600b015561018082015181600c01556101a082015181600d01556101c082015181600e01556101e082015181600f01908161108391906143f8565b5061020082015181601001908161109a91906143f8565b506102208201518160110160006101000a81548160ff02191690831515021790555061024082015181601201600082015181600001556020820151816001015560408201518160020155606082015181600301556080820151816004015560a0820151816005015560c082015181600601555050905050611565565b600182036113435760405180610260016040528060018152602001600081526020016000815260200160018152602001600a8152602001600a815260200160018152602001600181526020016001815260200160018152602001600181526020016001815260200160018152602001600181526020016001815260200186815260200185815260200184151581526020016040518060e00160405280600081526020016000815260200160008152602001600081526020016000815260200160008152602001600081525081525081600301600083600101548152602001908152602001600020600082015181600001556020820151816001015560408201518160020155606082015181600301556080820151816004015560a0820151816005015560c0820151816006015560e082015181600701556101008201518160080155610120820151816009015561014082015181600a015561016082015181600b015561018082015181600c01556101a082015181600d01556101c082015181600e01556101e082015181600f0190816112b091906143f8565b506102008201518160100190816112c791906143f8565b506102208201518160110160006101000a81548160ff02191690831515021790555061024082015181601201600082015181600001556020820151816001015560408201518160020155606082015181600301556080820151816004015560a0820151816005015560c082015181600601555050905050611564565b60405180610260016040528060018152602001600081526020016000815260200160018152602001600a8152602001600a815260200160018152602001600181526020016001815260200160018152602001600181526020016001815260200160018152602001600181526020016001815260200186815260200185815260200184151581526020016040518060e00160405280600081526020016000815260200160008152602001600081526020016000815260200160008152602001600081525081525081600301600083600101548152602001908152602001600020600082015181600001556020820151816001015560408201518160020155606082015181600301556080820151816004015560a0820151816005015560c0820151816006015560e082015181600701556101008201518160080155610120820151816009015561014082015181600a015561016082015181600b015561018082015181600c01556101a082015181600d01556101c082015181600e01556101e082015181600f0190816114d591906143f8565b506102008201518160100190816114ec91906143f8565b506102208201518160110160006101000a81548160ff02191690831515021790555061024082015181601201600082015181600001556020820151816001015560408201518160020155606082015181600301556080820151816004015560a0820151816005015560c0820151816006015550509050505b5b6040518060e00160405280600081526020016000815260200160008152602001600081526020016000815260200160008152602001600081525081600801600083600101548152602001908152602001600020600082015181600001556020820151816001015560408201518160020155606082015181600301556080820151816004015560a0820151816005015560c08201518160060155905050600181600601866040516116159190613f75565b908152602001604051809103902060006101000a81548160ff021916908315150217905550338160020160008360010154815260200190815260200160002060006101000a81548173ffffffffffffffffffffffffffffffffffffffff021916908373ffffffffffffffffffffffffffffffffffffffff1602179055508060070160003373ffffffffffffffffffffffffffffffffffffffff1673ffffffffffffffffffffffffffffffffffffffff168152602001908152602001600020816001015490806001815401808255809150506001900390600052602060002001600090919091909150558060040160003373ffffffffffffffffffffffffffffffffffffffff1673ffffffffffffffffffffffffffffffffffffffff168152602001908152602001600020600081548092919061175090614276565b91905055505050505050565b6117768282604051806020016040528060008152506123bf565b5050565b60606000611786612392565b90508060070160008473ffffffffffffffffffffffffffffffffffffffff1673ffffffffffffffffffffffffffffffffffffffff16815260200190815260200160002080548060200260200160405190810160405280929190818152602001828054801561181357602002820191906000526020600020905b8154815260200190600101908083116117ff575b5050505050915050919050565b60008061182b612392565b9050806006018360405161183f9190613f75565b908152602001604051809103902060009054906101000a900460ff16915050919050565b600060606000611871612365565b9050604051602001611882906144f0565b604051602081830303815290604052805190602001208160000185600001516040516118ae9190613f75565b90815260200160405180910390206040516020016118cc9190614588565b6040516020818303038152906040528051906020012003611922576040517f08c379a0000000000000000000000000000000000000000000000000000000008152600401611919906145eb565b60405180910390fd5b600061192c612392565b90506000816003016000876060015181526020019081526020016000206040518061026001604052908160008201548152602001600182015481526020016002820154815260200160038201548152602001600482015481526020016005820154815260200160068201548152602001600782015481526020016008820154815260200160098201548152602001600a8201548152602001600b8201548152602001600c8201548152602001600d8201548152602001600e8201548152602001600f820180546119fb90613b8e565b80601f0160208091040260200160405190810160405280929190818152602001828054611a2790613b8e565b8015611a745780601f10611a4957610100808354040283529160200191611a74565b820191906000526020600020905b815481529060010190602001808311611a5757829003601f168201915b50505050508152602001601082018054611a8d90613b8e565b80601f0160208091040260200160405190810160405280929190818152602001828054611ab990613b8e565b8015611b065780601f10611adb57610100808354040283529160200191611b06565b820191906000526020600020905b815481529060010190602001808311611ae957829003601f168201915b505050505081526020016011820160009054906101000a900460ff16151515158152602001601282016040518060e0016040529081600082015481526020016001820154815260200160028201548152602001600382015481526020016004820154815260200160058201548152602001600682015481525050815250509050600060405180608001604052808860600151815260200188606001518152602001838152602001886020015173ffffffffffffffffffffffffffffffffffffffff168152509050600081604051602001611be0919061481b565b6040516020818303038152906040529050846000018860000151604051611c079190613f75565b908152602001604051809103902081604051602001611c279291906148c1565b60405160208183030381529060405295508460010160009054906101000a900473ffffffffffffffffffffffffffffffffffffffff169650611c6d33896060015161241a565b846002016000815480929190611c8290614276565b91905055505050505050915091565b6000611c9c82612810565b9050611cac816000846001612856565b611cb582612810565b9050611cbf61285c565b600b01600083815260200190815260200160002060006101000a81549073ffffffffffffffffffffffffffffffffffffffff02191690556001611d0061285c565b600a0160008373ffffffffffffffffffffffffffffffffffffffff1673ffffffffffffffffffffffffffffffffffffffff16815260200190815260200160002060008282540392505081905550611d5561285c565b600901600083815260200190815260200160002060006101000a81549073ffffffffffffffffffffffffffffffffffffffff021916905581600073ffffffffffffffffffffffffffffffffffffffff168273ffffffffffffffffffffffffffffffffffffffff167fddf252ad1be2c89b69c2b068fc378daa952ba7f163c4a11628f55a4df523b3ef60405160405180910390a4611df6816000846001612889565b5050565b600080611e05612392565b905080600201600084815260200190815260200160002060009054906101000a900473ffffffffffffffffffffffffffffffffffffffff16915050919050565b6000611e4f612392565b90503373ffffffffffffffffffffffffffffffffffffffff1681600201600085815260200190815260200160002060009054906101000a900473ffffffffffffffffffffffffffffffffffffffff1673ffffffffffffffffffffffffffffffffffffffff1614611ebe57600080fd5b8060060182604051611ed09190613f75565b908152602001604051809103902060009054906101000a900460ff1615611f2c576040517f08c379a0000000000000000000000000000000000000000000000000000000008152600401611f23906143d8565b60405180910390fd5b6003825111611f70576040517f08c379a0000000000000000000000000000000000000000000000000000000008152600401611f6790614944565b60405180910390fd5b600a825110611fb4576040517f08c379a0000000000000000000000000000000000000000000000000000000008152600401611fab906149b0565b60405180910390fd5b6000816003016000858152602001908152602001600020600f018054611fd990613b8e565b80601f016020809104026020016040519081016040528092919081815260200182805461200590613b8e565b80156120525780601f1061202757610100808354040283529160200191612052565b820191906000526020600020905b81548152906001019060200180831161203557829003601f168201915b505050505090506000815111156120945781600601816040516120759190613f75565b908152602001604051809103902060006101000a81549060ff02191690555b82826003016000868152602001908152602001600020600f0190816120b991906143f8565b50600182600601846040516120ce9190613f75565b908152602001604051809103902060006101000a81548160ff02191690831515021790555050505050565b612101612cb1565b600061210b612392565b90508060030160008481526020019081526020016000206040518061026001604052908160008201548152602001600182015481526020016002820154815260200160038201548152602001600482015481526020016005820154815260200160068201548152602001600782015481526020016008820154815260200160098201548152602001600a8201548152602001600b8201548152602001600c8201548152602001600d8201548152602001600e8201548152602001600f820180546121d490613b8e565b80601f016020809104026020016040519081016040528092919081815260200182805461220090613b8e565b801561224d5780601f106122225761010080835404028352916020019161224d565b820191906000526020600020905b81548152906001019060200180831161223057829003601f168201915b5050505050815260200160108201805461226690613b8e565b80601f016020809104026020016040519081016040528092919081815260200182805461229290613b8e565b80156122df5780601f106122b4576101008083540402835291602001916122df565b820191906000526020600020905b8154815290600101906020018083116122c257829003601f168201915b505050505081526020016011820160009054906101000a900460ff16151515158152602001601282016040518060e001604052908160008201548152602001600182015481526020016002820154815260200160038201548152602001600482015481526020016005820154815260200160068201548152505081525050915050919050565b6000807fde7d391137404fe68b2d026634c196acca759657f6772ed659866a46d08c6ce390508091505090565b6000807f3cab9a070a0c61cd0ae9d9e9e2c0781e5ca8691bec4087e5a4701d5ac018dd4e90508091505090565b6123c9838361288f565b6123d66000848484612abe565b612415576040517f08c379a000000000000000000000000000000000000000000000000000000000815260040161240c90614a42565b60405180910390fd5b505050565b6000612424612392565b90508273ffffffffffffffffffffffffffffffffffffffff1681600201600084815260200190815260200160002060009054906101000a900473ffffffffffffffffffffffffffffffffffffffff1673ffffffffffffffffffffffffffffffffffffffff161461249357600080fd5b80600101548211156124da576040517f08c379a00000000000000000000000000000000000000000000000000000000081526004016124d190614aae565b60405180910390fd5b600081600201600084815260200190815260200160002060006101000a81548173ffffffffffffffffffffffffffffffffffffffff021916908373ffffffffffffffffffffffffffffffffffffffff160217905550600081600401600083600201600086815260200190815260200160002060009054906101000a900473ffffffffffffffffffffffffffffffffffffffff1673ffffffffffffffffffffffffffffffffffffffff1673ffffffffffffffffffffffffffffffffffffffff16815260200190815260200160002081905550600081600501600083600201600086815260200190815260200160002060009054906101000a900473ffffffffffffffffffffffffffffffffffffffff1673ffffffffffffffffffffffffffffffffffffffff1673ffffffffffffffffffffffffffffffffffffffff16815260200190815260200160002060003073ffffffffffffffffffffffffffffffffffffffff1673ffffffffffffffffffffffffffffffffffffffff1681526020019081526020016000208190555080600101600081548092919061267990614ace565b9190505550600081600701600083600201600086815260200190815260200160002060009054906101000a900473ffffffffffffffffffffffffffffffffffffffff1673ffffffffffffffffffffffffffffffffffffffff1673ffffffffffffffffffffffffffffffffffffffff168152602001908152602001600020905060005b81805490508110156127b9578382828154811061271b5761271a614af7565b5b9060005260206000200154036127a657816001838054905061273d9190614334565b8154811061274e5761274d614af7565b5b906000526020600020015482828154811061276c5761276b614af7565b5b90600052602060002001819055508180548061278b5761278a614b26565b5b600190038181906000526020600020016000905590556127b9565b80806127b190614276565b9150506126fb565b50816008016000848152602001908152602001600020600080820160009055600182016000905560028201600090556003820160009055600482016000905560058201600090556006820160009055505050505050565b600061281a61285c565b600901600083815260200190815260200160002060009054906101000a900473ffffffffffffffffffffffffffffffffffffffff169050919050565b50505050565b6000807f2569078dfb4b0305704d3008e7403993ae9601b85f7ae5e742de3de8f8011c4090508091505090565b50505050565b600073ffffffffffffffffffffffffffffffffffffffff168273ffffffffffffffffffffffffffffffffffffffff16036128fe576040517f08c379a00000000000000000000000000000000000000000000000000000000081526004016128f590614ba1565b60405180910390fd5b61290781612c45565b15612947576040517f08c379a000000000000000000000000000000000000000000000000000000000815260040161293e90614c0d565b60405180910390fd5b612955600083836001612856565b61295e81612c45565b1561299e576040517f08c379a000000000000000000000000000000000000000000000000000000000815260040161299590614c0d565b60405180910390fd5b60016129a861285c565b600a0160008473ffffffffffffffffffffffffffffffffffffffff1673ffffffffffffffffffffffffffffffffffffffff16815260200190815260200160002060008282540192505081905550816129fe61285c565b600901600083815260200190815260200160002060006101000a81548173ffffffffffffffffffffffffffffffffffffffff021916908373ffffffffffffffffffffffffffffffffffffffff160217905550808273ffffffffffffffffffffffffffffffffffffffff16600073ffffffffffffffffffffffffffffffffffffffff167fddf252ad1be2c89b69c2b068fc378daa952ba7f163c4a11628f55a4df523b3ef60405160405180910390a4612aba600083836001612889565b5050565b6000612adf8473ffffffffffffffffffffffffffffffffffffffff16612c86565b15612c38578373ffffffffffffffffffffffffffffffffffffffff1663150b7a02612b08612ca9565b8786866040518563ffffffff1660e01b8152600401612b2a9493929190614c2d565b6020604051808303816000875af1925050508015612b6657506040513d601f19601f82011682018060405250810190612b639190614cd1565b60015b612be8573d8060008114612b96576040519150601f19603f3d011682016040523d82523d6000602084013e612b9b565b606091505b506000815103612be0576040517f08c379a0000000000000000000000000000000000000000000000000000000008152600401612bd790614a42565b60405180910390fd5b805181602001fd5b63150b7a0260e01b7bffffffffffffffffffffffffffffffffffffffffffffffffffffffff1916817bffffffffffffffffffffffffffffffffffffffffffffffffffffffff191614915050612c3d565b600190505b949350505050565b60008073ffffffffffffffffffffffffffffffffffffffff16612c6783612810565b73ffffffffffffffffffffffffffffffffffffffff1614159050919050565b6000808273ffffffffffffffffffffffffffffffffffffffff163b119050919050565b600033905090565b6040518061026001604052806000815260200160008152602001600081526020016000815260200160008152602001600081526020016000815260200160008152602001600081526020016000815260200160008152602001600081526020016000815260200160008152602001600081526020016060815260200160608152602001600015158152602001612d45612d4b565b81525090565b6040518060e00160405280600081526020016000815260200160008152602001600081526020016000815260200160008152602001600081525090565b6000819050919050565b612d9b81612d88565b82525050565b6000602082019050612db66000830184612d92565b92915050565b6000604051905090565b600080fd5b600080fd5b600080fd5b600080fd5b600080fd5b60008083601f840112612df557612df4612dd0565b5b8235905067ffffffffffffffff811115612e1257612e11612dd5565b5b602083019150836001820283011115612e2e57612e2d612dda565b5b9250929050565b60008060008060408587031215612e4f57612e4e612dc6565b5b600085013567ffffffffffffffff811115612e6d57612e6c612dcb565b5b612e7987828801612ddf565b9450945050602085013567ffffffffffffffff811115612e9c57612e9b612dcb565b5b612ea887828801612ddf565b925092505092959194509250565b60008060208385031215612ecd57612ecc612dc6565b5b600083013567ffffffffffffffff811115612eeb57612eea612dcb565b5b612ef785828601612ddf565b92509250509250929050565b600073ffffffffffffffffffffffffffffffffffffffff82169050919050565b6000612f2e82612f03565b9050919050565b612f3e81612f23565b82525050565b600081519050919050565b600082825260208201905092915050565b60005b83811015612f7e578082015181840152602081019050612f63565b60008484015250505050565b6000601f19601f8301169050919050565b6000612fa682612f44565b612fb08185612f4f565b9350612fc0818560208601612f60565b612fc981612f8a565b840191505092915050565b6000606082019050612fe96000830186612f35565b8181036020830152612ffb8185612f9b565b905061300a6040830184612d92565b949350505050565b600067ffffffffffffffff82169050919050565b61302f81613012565b811461303a57600080fd5b50565b60008135905061304c81613026565b92915050565b60006fffffffffffffffffffffffffffffffff82169050919050565b61307781613052565b811461308257600080fd5b50565b6000813590506130948161306e565b92915050565b600060ff82169050919050565b6130b08161309a565b81146130bb57600080fd5b50565b6000813590506130cd816130a7565b92915050565b60008115159050919050565b6130e8816130d3565b81146130f357600080fd5b50565b600081359050613105816130df565b92915050565b600080fd5b7f4e487b7100000000000000000000000000000000000000000000000000000000600052604160045260246000fd5b61314882612f8a565b810181811067ffffffffffffffff8211171561316757613166613110565b5b80604052505050565b600061317a612dbc565b9050613186828261313f565b919050565b600067ffffffffffffffff8211156131a6576131a5613110565b5b6131af82612f8a565b9050602081019050919050565b82818337600083830152505050565b60006131de6131d98461318b565b613170565b9050828152602081018484840111156131fa576131f961310b565b5b6132058482856131bc565b509392505050565b600082601f83011261322257613221612dd0565b5b81356132328482602086016131cb565b91505092915050565b600080600080600080600080610100898b03121561325c5761325b612dc6565b5b600061326a8b828c0161303d565b985050602061327b8b828c0161303d565b975050604061328c8b828c0161303d565b965050606061329d8b828c0161303d565b95505060806132ae8b828c01613085565b94505060a06132bf8b828c016130be565b93505060c06132d08b828c016130f6565b92505060e089013567ffffffffffffffff8111156132f1576132f0612dcb565b5b6132fd8b828c0161320d565b9150509295985092959890939650565b600081519050919050565b600082825260208201905092915050565b60006133348261330d565b61333e8185613318565b935061334e818560208601612f60565b61335781612f8a565b840191505092915050565b6000602082019050818103600083015261337c8184613329565b905092915050565b61338d81612d88565b811461339857600080fd5b50565b6000813590506133aa81613384565b92915050565b600080604083850312156133c7576133c6612dc6565b5b60006133d58582860161339b565b92505060206133e68582860161339b565b9150509250929050565b6133f981612f23565b811461340457600080fd5b50565b600081359050613416816133f0565b92915050565b60008060006040848603121561343557613434612dc6565b5b600061344386828701613407565b935050602084013567ffffffffffffffff81111561346457613463612dcb565b5b61347086828701612ddf565b92509250509250925092565b600067ffffffffffffffff82111561349757613496613110565b5b6134a082612f8a565b9050602081019050919050565b60006134c06134bb8461347c565b613170565b9050828152602081018484840111156134dc576134db61310b565b5b6134e78482856131bc565b509392505050565b600082601f83011261350457613503612dd0565b5b81356135148482602086016134ad565b91505092915050565b6000806000806080858703121561353757613536612dc6565b5b600085013567ffffffffffffffff81111561355557613554612dcb565b5b613561878288016134ef565b945050602085013567ffffffffffffffff81111561358257613581612dcb565b5b61358e878288016134ef565b935050604061359f878288016130f6565b92505060606135b08782880161339b565b91505092959194509250565b6000602082840312156135d2576135d1612dc6565b5b60006135e084828501613407565b91505092915050565b600081519050919050565b600082825260208201905092915050565b6000819050602082019050919050565b61361e81612d88565b82525050565b60006136308383613615565b60208301905092915050565b6000602082019050919050565b6000613654826135e9565b61365e81856135f4565b935061366983613605565b8060005b8381101561369a5781516136818882613624565b975061368c8361363c565b92505060018101905061366d565b5085935050505092915050565b600060208201905081810360008301526136c18184613649565b905092915050565b6000602082840312156136df576136de612dc6565b5b600082013567ffffffffffffffff8111156136fd576136fc612dcb565b5b613709848285016134ef565b91505092915050565b61371b816130d3565b82525050565b60006020820190506137366000830184613712565b92915050565b600080600080600080600060a0888a03121561375b5761375a612dc6565b5b600088013567ffffffffffffffff81111561377957613778612dcb565b5b6137858a828b01612ddf565b975097505060206137988a828b01613407565b955050604088013567ffffffffffffffff8111156137b9576137b8612dcb565b5b6137c58a828b01612ddf565b945094505060606137d88a828b0161339b565b925050608088013567ffffffffffffffff8111156137f9576137f8612dcb565b5b6138058a828b0161320d565b91505092959891949750929550565b60006020828403121561382a57613829612dc6565b5b60006138388482850161339b565b91505092915050565b60006020820190506138566000830184612f35565b92915050565b6000806040838503121561387357613872612dc6565b5b60006138818582860161339b565b925050602083013567ffffffffffffffff8111156138a2576138a1612dcb565b5b6138ae858286016134ef565b9150509250929050565b600082825260208201905092915050565b60006138d482612f44565b6138de81856138b8565b93506138ee818560208601612f60565b6138f781612f8a565b840191505092915050565b61390b816130d3565b82525050565b60e0820160008201516139276000850182613615565b50602082015161393a6020850182613615565b50604082015161394d6040850182613615565b5060608201516139606060850182613615565b5060808201516139736080850182613615565b5060a082015161398660a0850182613615565b5060c082015161399960c0850182613615565b50505050565b6000610320830160008301516139b86000860182613615565b5060208301516139cb6020860182613615565b5060408301516139de6040860182613615565b5060608301516139f16060860182613615565b506080830151613a046080860182613615565b5060a0830151613a1760a0860182613615565b5060c0830151613a2a60c0860182613615565b5060e0830151613a3d60e0860182613615565b50610100830151613a52610100860182613615565b50610120830151613a67610120860182613615565b50610140830151613a7c610140860182613615565b50610160830151613a91610160860182613615565b50610180830151613aa6610180860182613615565b506101a0830151613abb6101a0860182613615565b506101c0830151613ad06101c0860182613615565b506101e08301518482036101e0860152613aea82826138c9565b915050610200830151848203610200860152613b0682826138c9565b915050610220830151613b1d610220860182613902565b50610240830151613b32610240860182613911565b508091505092915050565b60006020820190508181036000830152613b57818461399f565b905092915050565b7f4e487b7100000000000000000000000000000000000000000000000000000000600052602260045260246000fd5b60006002820490506001821680613ba657607f821691505b602082108103613bb957613bb8613b5f565b5b50919050565b60008160c01b9050919050565b6000613bd782613bbf565b9050919050565b613bef613bea82613012565b613bcc565b82525050565b60008160801b9050919050565b6000613c0d82613bf5565b9050919050565b613c25613c2082613052565b613c02565b82525050565b60008160f81b9050919050565b6000613c4382613c2b565b9050919050565b613c5b613c568261309a565b613c38565b82525050565b6000613c6c82613c38565b9050919050565b613c84613c7f826130d3565b613c61565b82525050565b600081905092915050565b6000613ca08261330d565b613caa8185613c8a565b9350613cba818560208601612f60565b80840191505092915050565b6000613cd2828b613bde565b600882019150613ce2828a613bde565b600882019150613cf28289613bde565b600882019150613d028288613bde565b600882019150613d128287613c14565b601082019150613d228286613c4a565b600182019150613d328285613c73565b600182019150613d428284613c95565b91508190509998505050505050505050565b60006060820190508181036000830152613d6e8186612f9b565b90508181036020830152613d828185612f9b565b9050613d916040830184612d92565b949350505050565b6000819050919050565b6000819050919050565b6000613dc8613dc3613dbe84613d99565b613da3565b612d88565b9050919050565b613dd881613dad565b82525050565b6000819050919050565b6000613e03613dfe613df984613dde565b613da3565b612d88565b9050919050565b613e1381613de8565b82525050565b6000613e258385612f4f565b9350613e328385846131bc565b613e3b83612f8a565b840190509392505050565b600060c082019050613e5b600083018a613dcf565b613e686020830189613e0a565b8181036040830152613e7a8188612f9b565b90508181036060830152613e8f818688613e19565b90508181036080830152613ea38185613329565b905081810360a0830152613eb78184613329565b905098975050505050505050565b600081519050613ed481613384565b92915050565b600060208284031215613ef057613eef612dc6565b5b6000613efe84828501613ec5565b91505092915050565b60006040820190508181036000830152613f22818587613e19565b9050613f316020830184612d92565b949350505050565b600081905092915050565b6000613f4f82612f44565b613f598185613f39565b9350613f69818560208601612f60565b80840191505092915050565b6000613f818284613f44565b915081905092915050565b6000613f988385613f39565b9350613fa58385846131bc565b82840190509392505050565b6000613fbe828486613f8c565b91508190509392505050565b600082905092915050565b60008190508160005260206000209050919050565b60006020601f8301049050919050565b600082821b905092915050565b6000600883026140377fffffffffffffffffffffffffffffffffffffffffffffffffffffffffffffffff82613ffa565b6140418683613ffa565b95508019841693508086168417925050509392505050565b600061407461406f61406a84612d88565b613da3565b612d88565b9050919050565b6000819050919050565b61408e83614059565b6140a261409a8261407b565b848454614007565b825550505050565b600090565b6140b76140aa565b6140c2818484614085565b505050565b5b818110156140e6576140db6000826140af565b6001810190506140c8565b5050565b601f82111561412b576140fc81613fd5565b61410584613fea565b81016020851015614114578190505b61412861412085613fea565b8301826140c7565b50505b505050565b600082821c905092915050565b600061414e60001984600802614130565b1980831691505092915050565b6000614167838361413d565b9150826002028217905092915050565b6141818383613fca565b67ffffffffffffffff81111561419a57614199613110565b5b6141a48254613b8e565b6141af8282856140ea565b6000601f8311600181146141de57600084156141cc578287013590505b6141d6858261415b565b86555061423e565b601f1984166141ec86613fd5565b60005b82811015614214578489013582556001820191506020850194506020810190506141ef565b86831015614231578489013561422d601f89168261413d565b8355505b6001600288020188555050505b50505050505050565b7f4e487b7100000000000000000000000000000000000000000000000000000000600052601160045260246000fd5b600061428182612d88565b91507fffffffffffffffffffffffffffffffffffffffffffffffffffffffffffffffff82036142b3576142b2614247565b5b600182019050919050565b60006142c982612d88565b91506142d483612d88565b92508282026142e281612d88565b915082820484148315176142f9576142f8614247565b5b5092915050565b600061430b82612d88565b915061431683612d88565b925082820190508082111561432e5761432d614247565b5b92915050565b600061433f82612d88565b915061434a83612d88565b925082820390508181111561436257614361614247565b5b92915050565b60006020820190508181036000830152614383818486613e19565b90509392505050565b7f6e616d652069732074616b656e00000000000000000000000000000000000000600082015250565b60006143c2600d83612f4f565b91506143cd8261438c565b602082019050919050565b600060208201905081810360008301526143f1816143b5565b9050919050565b61440182612f44565b67ffffffffffffffff81111561441a57614419613110565b5b6144248254613b8e565b61442f8282856140ea565b600060209050601f8311600181146144625760008415614450578287015190505b61445a858261415b565b8655506144c2565b601f19841661447086613fd5565b60005b8281101561449857848901518255600182019150602085019450602081019050614473565b868310156144b557848901516144b1601f89168261413d565b8355505b6001600288020188555050505b505050505050565b50565b60006144da600083613f39565b91506144e5826144ca565b600082019050919050565b60006144fb826144cd565b9150819050919050565b6000815461451281613b8e565b61451c8186613f39565b94506001821660008114614537576001811461454c5761457f565b60ff198316865281151582028601935061457f565b61455585613fd5565b60005b8381101561457757815481890152600182019150602081019050614558565b838801955050505b50505092915050565b60006145948284614505565b915081905092915050565b7f636f6e7472616374206f6e2064657374206e6f74207365740000000000000000600082015250565b60006145d5601883612f4f565b91506145e08261459f565b602082019050919050565b60006020820190508181036000830152614604816145c8565b9050919050565b6000610320830160008301516146246000860182613615565b5060208301516146376020860182613615565b50604083015161464a6040860182613615565b50606083015161465d6060860182613615565b5060808301516146706080860182613615565b5060a083015161468360a0860182613615565b5060c083015161469660c0860182613615565b5060e08301516146a960e0860182613615565b506101008301516146be610100860182613615565b506101208301516146d3610120860182613615565b506101408301516146e8610140860182613615565b506101608301516146fd610160860182613615565b50610180830151614712610180860182613615565b506101a08301516147276101a0860182613615565b506101c083015161473c6101c0860182613615565b506101e08301518482036101e086015261475682826138c9565b91505061020083015184820361020086015261477282826138c9565b915050610220830151614789610220860182613902565b5061024083015161479e610240860182613911565b508091505092915050565b6147b281612f23565b82525050565b60006080830160008301516147d06000860182613615565b5060208301516147e36020860182613615565b50604083015184820360408601526147fb828261460b565b915050606083015161481060608601826147a9565b508091505092915050565b6000602082019050818103600083015261483581846147b8565b905092915050565b6000815461484a81613b8e565b6148548186612f4f565b9450600182166000811461486f5760018114614885576148b8565b60ff1983168652811515602002860193506148b8565b61488e85613fd5565b60005b838110156148b057815481890152600182019150602081019050614891565b808801955050505b50505092915050565b600060408201905081810360008301526148db818561483d565b905081810360208301526148ef8184613329565b90509392505050565b7f43616e6e6f74207061737320616e20656d707479206861736800000000000000600082015250565b600061492e601983612f4f565b9150614939826148f8565b602082019050919050565b6000602082019050818103600083015261495d81614921565b9050919050565b7f43616e6e6f74206265206c6f6e676572207468616e2031302063686172730000600082015250565b600061499a601e83612f4f565b91506149a582614964565b602082019050919050565b600060208201905081810360008301526149c98161498d565b9050919050565b7f4552433732313a207472616e7366657220746f206e6f6e20455243373231526560008201527f63656976657220696d706c656d656e7465720000000000000000000000000000602082015250565b6000614a2c603283612f4f565b9150614a37826149d0565b604082019050919050565b60006020820190508181036000830152614a5b81614a1f565b9050919050565b7f506c6179657220646f6573206e6f742065786973740000000000000000000000600082015250565b6000614a98601583612f4f565b9150614aa382614a62565b602082019050919050565b60006020820190508181036000830152614ac781614a8b565b9050919050565b6000614ad982612d88565b915060008203614aec57614aeb614247565b5b600182039050919050565b7f4e487b7100000000000000000000000000000000000000000000000000000000600052603260045260246000fd5b7f4e487b7100000000000000000000000000000000000000000000000000000000600052603160045260246000fd5b7f4552433732313a206d696e7420746f20746865207a65726f2061646472657373600082015250565b6000614b8b602083612f4f565b9150614b9682614b55565b602082019050919050565b60006020820190508181036000830152614bba81614b7e565b9050919050565b7f4552433732313a20746f6b656e20616c7265616479206d696e74656400000000600082015250565b6000614bf7601c83612f4f565b9150614c0282614bc1565b602082019050919050565b60006020820190508181036000830152614c2681614bea565b9050919050565b6000608082019050614c426000830187612f35565b614c4f6020830186612f35565b614c5c6040830185612d92565b8181036060830152614c6e8184613329565b905095945050505050565b60007fffffffff0000000000000000000000000000000000000000000000000000000082169050919050565b614cae81614c79565b8114614cb957600080fd5b50565b600081519050614ccb81614ca5565b92915050565b600060208284031215614ce757614ce6612dc6565b5b6000614cf584828501614cbc565b9150509291505056fea2646970667358221220c57fc9d1a83b0f2afb121602118d61c036b79c25c88dfc5488c0d5d44dc02b4964736f6c63430008110033",
  "linkReferences": {},
  "deployedLinkReferences": {}
}