{
  "_format": "hh-sol-artifact-1",
  "contractName": "PlayerFacet",
  "sourceName": "contracts/facets/PlayerFacet.sol",
  "abi": [
    {
      "anonymous": false,
      "inputs": [
        {
          "indexed": true,
          "internalType": "address",
          "name": "owner",
          "type": "address"
        },
        {
          "indexed": true,
          "internalType": "address",
          "name": "approved",
          "type": "address"
        },
        {
          "indexed": true,
          "internalType": "uint256",
          "name": "tokenId",
          "type": "uint256"
        }
      ],
      "name": "Approval",
      "type": "event"
    },
    {
      "anonymous": false,
      "inputs": [
        {
          "indexed": true,
          "internalType": "address",
          "name": "owner",
          "type": "address"
        },
        {
          "indexed": true,
          "internalType": "address",
          "name": "operator",
          "type": "address"
        },
        {
          "indexed": false,
          "internalType": "bool",
          "name": "approved",
          "type": "bool"
        }
      ],
      "name": "ApprovalForAll",
      "type": "event"
    },
    {
      "anonymous": false,
      "inputs": [
        {
          "indexed": true,
          "internalType": "uint256",
          "name": "id",
          "type": "uint256"
        },
        {
          "indexed": true,
          "internalType": "address",
          "name": "owner",
          "type": "address"
        },
        {
          "indexed": false,
          "internalType": "string",
          "name": "name",
          "type": "string"
        },
        {
          "indexed": false,
          "internalType": "string",
          "name": "uri",
          "type": "string"
        }
      ],
      "name": "Mint",
      "type": "event"
    },
    {
      "anonymous": false,
      "inputs": [
        {
          "indexed": true,
          "internalType": "address",
          "name": "owner",
          "type": "address"
        },
        {
          "indexed": true,
          "internalType": "uint256",
          "name": "id",
          "type": "uint256"
        },
        {
          "indexed": true,
          "internalType": "string",
          "name": "newName",
          "type": "string"
        }
      ],
      "name": "NameChange",
      "type": "event"
    },
    {
      "anonymous": false,
      "inputs": [
        {
          "indexed": false,
          "internalType": "string",
          "name": "destination",
          "type": "string"
        },
        {
          "indexed": true,
          "internalType": "address",
          "name": "recipient",
          "type": "address"
        },
        {
          "indexed": false,
          "internalType": "uint256",
          "name": "playerId",
          "type": "uint256"
        }
      ],
      "name": "SentTransferRemote",
      "type": "event"
    },
    {
      "anonymous": false,
      "inputs": [
        {
          "indexed": true,
          "internalType": "address",
          "name": "from",
          "type": "address"
        },
        {
          "indexed": true,
          "internalType": "address",
          "name": "to",
          "type": "address"
        },
        {
          "indexed": true,
          "internalType": "uint256",
          "name": "tokenId",
          "type": "uint256"
        }
      ],
      "name": "Transfer",
      "type": "event"
    },
    {
      "inputs": [
        {
          "internalType": "uint256",
          "name": "_id",
          "type": "uint256"
        },
        {
          "internalType": "string",
          "name": "_newName",
          "type": "string"
        }
      ],
      "name": "changeName",
      "outputs": [],
      "stateMutability": "nonpayable",
      "type": "function"
    },
    {
      "inputs": [],
      "name": "getBlocktime",
      "outputs": [
        {
          "internalType": "uint256",
          "name": "",
          "type": "uint256"
        }
      ],
      "stateMutability": "view",
      "type": "function"
    },
    {
      "inputs": [
        {
          "internalType": "uint256",
          "name": "_playerId",
          "type": "uint256"
        }
      ],
      "name": "getPlayer",
      "outputs": [
        {
          "components": [
            {
              "internalType": "uint256",
              "name": "level",
              "type": "uint256"
            },
            {
              "internalType": "uint256",
              "name": "xp",
              "type": "uint256"
            },
            {
              "internalType": "uint256",
              "name": "status",
              "type": "uint256"
            },
            {
              "internalType": "uint256",
              "name": "strength",
              "type": "uint256"
            },
            {
              "internalType": "uint256",
              "name": "health",
              "type": "uint256"
            },
            {
              "internalType": "uint256",
              "name": "currentHealth",
              "type": "uint256"
            },
            {
              "internalType": "uint256",
              "name": "magic",
              "type": "uint256"
            },
            {
              "internalType": "uint256",
              "name": "mana",
              "type": "uint256"
            },
            {
              "internalType": "uint256",
              "name": "maxMana",
              "type": "uint256"
            },
            {
              "internalType": "uint256",
              "name": "agility",
              "type": "uint256"
            },
            {
              "internalType": "uint256",
              "name": "luck",
              "type": "uint256"
            },
            {
              "internalType": "uint256",
              "name": "wisdom",
              "type": "uint256"
            },
            {
              "internalType": "uint256",
              "name": "haki",
              "type": "uint256"
            },
            {
              "internalType": "uint256",
              "name": "perception",
              "type": "uint256"
            },
            {
              "internalType": "uint256",
              "name": "defense",
              "type": "uint256"
            },
            {
              "internalType": "string",
              "name": "name",
              "type": "string"
            },
            {
              "internalType": "string",
              "name": "uri",
              "type": "string"
            },
            {
              "internalType": "bool",
              "name": "male",
              "type": "bool"
            },
            {
              "components": [
                {
                  "internalType": "uint256",
                  "name": "head",
                  "type": "uint256"
                },
                {
                  "internalType": "uint256",
                  "name": "body",
                  "type": "uint256"
                },
                {
                  "internalType": "uint256",
                  "name": "leftHand",
                  "type": "uint256"
                },
                {
                  "internalType": "uint256",
                  "name": "rightHand",
                  "type": "uint256"
                },
                {
                  "internalType": "uint256",
                  "name": "pants",
                  "type": "uint256"
                },
                {
                  "internalType": "uint256",
                  "name": "feet",
                  "type": "uint256"
                },
                {
                  "internalType": "uint256",
                  "name": "neck",
                  "type": "uint256"
                }
              ],
              "internalType": "struct PlayerSlotLib.Slot",
              "name": "slot",
              "type": "tuple"
            }
          ],
          "internalType": "struct PlayerSlotLib.Player",
          "name": "player",
          "type": "tuple"
        }
      ],
      "stateMutability": "view",
      "type": "function"
    },
    {
      "inputs": [
        {
          "internalType": "address",
          "name": "_address",
          "type": "address"
        }
      ],
      "name": "getPlayers",
      "outputs": [
        {
          "internalType": "uint256[]",
          "name": "",
          "type": "uint256[]"
        }
      ],
      "stateMutability": "view",
      "type": "function"
    },
    {
      "inputs": [
        {
          "internalType": "uint64",
          "name": "_destGasLimit",
          "type": "uint64"
        },
        {
          "internalType": "uint64",
          "name": "_destGasPrice",
          "type": "uint64"
        },
        {
          "internalType": "uint64",
          "name": "_ackGasLimit",
          "type": "uint64"
        },
        {
          "internalType": "uint64",
          "name": "_ackGasPrice",
          "type": "uint64"
        },
        {
          "internalType": "uint128",
          "name": "_relayerFees",
          "type": "uint128"
        },
        {
          "internalType": "uint8",
          "name": "_ackType",
          "type": "uint8"
        },
        {
          "internalType": "bool",
          "name": "_isReadCall",
          "type": "bool"
        },
        {
          "internalType": "bytes",
          "name": "_asmAddress",
          "type": "bytes"
        }
      ],
      "name": "getRequestMetadata",
      "outputs": [
        {
          "internalType": "bytes",
          "name": "",
          "type": "bytes"
        }
      ],
      "stateMutability": "pure",
      "type": "function"
    },
    {
      "inputs": [
        {
          "internalType": "string",
          "name": "_chainId",
          "type": "string"
        }
      ],
      "name": "getTransferParams",
      "outputs": [
        {
          "internalType": "address",
          "name": "gateway",
          "type": "address"
        },
        {
          "internalType": "string",
          "name": "contractOnChain",
          "type": "string"
        },
        {
          "internalType": "uint256",
          "name": "test",
          "type": "uint256"
        }
      ],
      "stateMutability": "view",
      "type": "function"
    },
    {
      "inputs": [
        {
          "internalType": "uint256",
          "name": "_playerId",
          "type": "uint256"
        },
        {
          "internalType": "uint256",
          "name": "_stat",
          "type": "uint256"
        }
      ],
      "name": "levelUp",
      "outputs": [],
      "stateMutability": "nonpayable",
      "type": "function"
    },
    {
      "inputs": [
        {
          "internalType": "string",
          "name": "_name",
          "type": "string"
        },
        {
          "internalType": "string",
          "name": "_uri",
          "type": "string"
        },
        {
          "internalType": "bool",
          "name": "_isMale",
          "type": "bool"
        }
      ],
      "name": "mint",
      "outputs": [],
      "stateMutability": "nonpayable",
      "type": "function"
    },
    {
      "inputs": [
        {
          "internalType": "string",
          "name": "_name",
          "type": "string"
        }
      ],
      "name": "nameAvailable",
      "outputs": [
        {
          "internalType": "bool",
          "name": "available",
          "type": "bool"
        }
      ],
      "stateMutability": "view",
      "type": "function"
    },
    {
      "inputs": [
        {
          "internalType": "uint256",
          "name": "_playerId",
          "type": "uint256"
        }
      ],
      "name": "ownerOfPlayer",
      "outputs": [
        {
          "internalType": "address",
          "name": "owner",
          "type": "address"
        }
      ],
      "stateMutability": "view",
      "type": "function"
    },
    {
      "inputs": [],
      "name": "playerCount",
      "outputs": [
        {
          "internalType": "uint256",
          "name": "",
          "type": "uint256"
        }
      ],
      "stateMutability": "view",
      "type": "function"
    },
    {
      "inputs": [
        {
          "internalType": "string",
          "name": "_chainId",
          "type": "string"
        },
        {
          "internalType": "string",
          "name": "_contractAddress",
          "type": "string"
        }
      ],
      "name": "setContractOnChain",
      "outputs": [],
      "stateMutability": "nonpayable",
      "type": "function"
    },
    {
      "inputs": [
        {
          "internalType": "address",
          "name": "gateway",
          "type": "address"
        },
        {
          "internalType": "string",
          "name": "feePayer",
          "type": "string"
        }
      ],
      "name": "setGateway",
      "outputs": [],
      "stateMutability": "nonpayable",
      "type": "function"
    },
    {
      "inputs": [
        {
          "internalType": "string",
          "name": "_destination",
          "type": "string"
        },
        {
          "internalType": "address",
          "name": "_recipientAsAddress",
          "type": "address"
        },
        {
          "internalType": "string",
          "name": "_recipientAsString",
          "type": "string"
        },
        {
          "internalType": "uint256",
          "name": "_playerId",
          "type": "uint256"
        },
        {
          "internalType": "bytes",
          "name": "_requestMetadata",
          "type": "bytes"
        }
      ],
      "name": "transferRemote",
      "outputs": [],
      "stateMutability": "payable",
      "type": "function"
    }
  ],
  "bytecode": "0x608060405234801561001057600080fd5b506148b1806100206000396000f3fe6080604052600436106100dd5760003560e01c80637a80b6b41161007f578063bfcc8b6d11610059578063bfcc8b6d146102c5578063c1d885b114610302578063c39cbef11461032b578063e55ae4e814610354576100dd565b80637a80b6b41461022f57806382bbdbec1461026c578063b09328ab146102a9576100dd565b8063302bcc57116100bb578063302bcc571461017557806337bf9c41146101a05780635226dc93146101dd5780636b74bdb014610206576100dd565b80630501b79f146100e25780630d1ff3a51461010d5780632dc2b4da14610136575b600080fd5b3480156100ee57600080fd5b506100f7610391565b6040516101049190612940565b60405180910390f35b34801561011957600080fd5b50610134600480360381019061012f91906129d4565b610399565b005b34801561014257600080fd5b5061015d60048036038101906101589190612a55565b6103ab565b60405161016c93929190612b73565b60405180910390f35b34801561018157600080fd5b5061018a61045a565b6040516101979190612940565b60405180910390f35b3480156101ac57600080fd5b506101c760048036038101906101c29190612dda565b610469565b6040516101d49190612f01565b60405180910390f35b3480156101e957600080fd5b5061020460048036038101906101ff9190612f4f565b6104ad565b005b34801561021257600080fd5b5061022d60048036038101906102289190612fbb565b6104bb565b005b34801561023b57600080fd5b506102566004803603810190610251919061301b565b6104cb565b6040516102639190613106565b60405180910390f35b34801561027857600080fd5b50610293600480360381019061028e91906131c9565b6104dd565b6040516102a09190613221565b60405180910390f35b6102c360048036038101906102be919061323c565b6104ef565b005b3480156102d157600080fd5b506102ec60048036038101906102e79190613314565b6106c4565b6040516102f99190613341565b60405180910390f35b34801561030e57600080fd5b506103296004803603810190610324919061335c565b6106d6565b005b34801561033757600080fd5b50610352600480360381019061034d91906133e7565b61074e565b005b34801561036057600080fd5b5061037b60048036038101906103769190613314565b6107b6565b60405161038891906136c8565b60405180910390f35b600042905090565b6103a5848484846107ce565b50505050565b6000606060006103bb858561082d565b8180546103c790613719565b80601f01602080910402602001604051908101604052809291908181526020018280546103f390613719565b80156104405780601f1061041557610100808354040283529160200191610440565b820191906000526020600020905b81548152906001019060200180831161042357829003601f168201915b505050505091508093508194508295505050509250925092565b6000610464610897565b905090565b60606000898989898989898960405160200161048c989796959493929190613851565b60405160208183030381529060405290508091505098975050505050505050565b6104b782826108af565b5050565b6104c6838383610d3b565b505050565b60606104d682610e33565b9050919050565b60006104e882610ed9565b9050919050565b6000806105b960405180608001604052808b8b8080601f016020809104026020016040519081016040528093929190818152602001838380828437600081840152601f19601f8201169050808301925050505050505081526020018973ffffffffffffffffffffffffffffffffffffffff16815260200188888080601f016020809104026020016040519081016040528093929190818152602001838380828437600081840152601f19601f82011690508083019250505050505050815260200186815250610f1c565b9150915060008290508073ffffffffffffffffffffffffffffffffffffffff16637bed470a3460016000604051806020016040528060008152508f8f8b8a6040518963ffffffff1660e01b8152600401610619979695949392919061398c565b60206040518083038185885af1158015610637573d6000803e3d6000fd5b50505050506040513d601f19601f8201168201806040525081019061065c9190613a20565b506106668561134a565b8773ffffffffffffffffffffffffffffffffffffffff167f2d6e545609b925b0aa7a96d08fd620b5f8a77ff355c79f2f8cfcc8b4f0f7886a8b8b886040516106b093929190613a4d565b60405180910390a250505050505050505050565b60006106cf826114b3565b9050919050565b6106e18383836114fe565b60006106eb61045a565b90503373ffffffffffffffffffffffffffffffffffffffff16817fd113c872a0d148e963f842767b1f364bf6d826e6cbbc9917c498a9b94f9c72808686604051610736929190613a7f565b60405180910390a361074833826119c6565b50505050565b61075882826119e4565b806040516107669190613af2565b6040518091039020823373ffffffffffffffffffffffffffffffffffffffff167fe4ce50a62b6cbb7d19acd75fd57f7e2588dd09705647d97993e2ece872c305b260405160405180910390a45050565b6107be612850565b6107c782611c98565b9050919050565b60006107d8611f04565b905082828260000187876040516107f0929190613b2e565b9081526020016040518091039020918261080b929190613cf4565b5080600201600081548092919061082190613df3565b91905055505050505050565b60008060008061083b611f04565b90508060010160009054906101000a900473ffffffffffffffffffffffffffffffffffffffff169350806000018686604051610878929190613b2e565b9081526020016040518091039020925080600201549150509250925092565b6000806108a2611f31565b9050806001015491505090565b60006108b9611f31565b905060008160030160008581526020019081526020016000206040518061026001604052908160008201548152602001600182015481526020016002820154815260200160038201548152602001600482015481526020016005820154815260200160068201548152602001600782015481526020016008820154815260200160098201548152602001600a8201548152602001600b8201548152602001600c8201548152602001600d8201548152602001600e8201548152602001600f8201805461098490613719565b80601f01602080910402602001604051908101604052809291908181526020018280546109b090613719565b80156109fd5780601f106109d2576101008083540402835291602001916109fd565b820191906000526020600020905b8154815290600101906020018083116109e057829003601f168201915b50505050508152602001601082018054610a1690613719565b80601f0160208091040260200160405190810160405280929190818152602001828054610a4290613719565b8015610a8f5780601f10610a6457610100808354040283529160200191610a8f565b820191906000526020600020905b815481529060010190602001808311610a7257829003601f168201915b505050505081526020016011820160009054906101000a900460ff16151515158152602001601282016040518060e0016040529081600082015481526020016001820154815260200160028201548152602001600382015481526020016004820154815260200160058201548152602001600682015481525050815250509050600a8160000151610b209190613e3b565b81602001511015610b3057600080fd5b60008303610b6b578160030160008581526020019081526020016000206003016000815480929190610b6190613df3565b9190505550610ccb565b60018303610bdb578160030160008581526020019081526020016000206004016000815480929190610b9c90613df3565b91905055508160030160008581526020019081526020016000206004015482600301600086815260200190815260200160002060050181905550610cca565b60028303610c16578160030160008581526020019081526020016000206009016000815480929190610c0c90613df3565b9190505550610cc9565b60038303610c51578160030160008581526020019081526020016000206006016000815480929190610c4790613df3565b9190505550610cc8565b60048303610c7c578060000151816101c001818151610c709190613e7d565b91508181525050610cc7565b60058303610ca75780600001518161014001818151610c9b9190613e7d565b91508181525050610cc6565b80600001518161018001818151610cbe9190613e7d565b915081815250505b5b5b5b5b5b600a8160000151610cdc9190613e3b565b8160200151610ceb9190613eb1565b826003016000868152602001908152602001600020600101819055508160030160008581526020019081526020016000206000016000815480929190610d3090613df3565b919050555050505050565b6000610d45611f04565b9050838160010160006101000a81548173ffffffffffffffffffffffffffffffffffffffff021916908373ffffffffffffffffffffffffffffffffffffffff1602179055508060010160009054906101000a900473ffffffffffffffffffffffffffffffffffffffff1673ffffffffffffffffffffffffffffffffffffffff1663ef15cbda84846040518363ffffffff1660e01b8152600401610de9929190613ee5565b6020604051808303816000875af1158015610e08573d6000803e3d6000fd5b505050506040513d601f19601f82011682018060405250810190610e2c9190613a20565b5050505050565b60606000610e3f611f31565b90508060070160008473ffffffffffffffffffffffffffffffffffffffff1673ffffffffffffffffffffffffffffffffffffffff168152602001908152602001600020805480602002602001604051908101604052809291908181526020018280548015610ecc57602002820191906000526020600020905b815481526020019060010190808311610eb8575b5050505050915050919050565b600080610ee4611f31565b90508060060183604051610ef89190613af2565b908152602001604051809103902060009054906101000a900460ff16915050919050565b600060606000610f2a611f04565b9050604051602001610f3b90613f2f565b60405160208183030381529060405280519060200120816000018560000151604051610f679190613af2565b9081526020016040518091039020604051602001610f859190613fc7565b6040516020818303038152906040528051906020012003610fdb576040517f08c379a0000000000000000000000000000000000000000000000000000000008152600401610fd29061402a565b60405180910390fd5b6000610fe5611f31565b90506000816003016000876060015181526020019081526020016000206040518061026001604052908160008201548152602001600182015481526020016002820154815260200160038201548152602001600482015481526020016005820154815260200160068201548152602001600782015481526020016008820154815260200160098201548152602001600a8201548152602001600b8201548152602001600c8201548152602001600d8201548152602001600e8201548152602001600f820180546110b490613719565b80601f01602080910402602001604051908101604052809291908181526020018280546110e090613719565b801561112d5780601f106111025761010080835404028352916020019161112d565b820191906000526020600020905b81548152906001019060200180831161111057829003601f168201915b5050505050815260200160108201805461114690613719565b80601f016020809104026020016040519081016040528092919081815260200182805461117290613719565b80156111bf5780601f10611194576101008083540402835291602001916111bf565b820191906000526020600020905b8154815290600101906020018083116111a257829003601f168201915b505050505081526020016011820160009054906101000a900460ff16151515158152602001601282016040518060e0016040529081600082015481526020016001820154815260200160028201548152602001600382015481526020016004820154815260200160058201548152602001600682015481525050815250509050600060405180608001604052808860600151815260200188606001518152602001838152602001886020015173ffffffffffffffffffffffffffffffffffffffff168152509050600081604051602001611299919061425a565b60405160208183030381529060405290508460000188600001516040516112c09190613af2565b9081526020016040518091039020816040516020016112e0929190614300565b60405160208183030381529060405295508460010160009054906101000a900473ffffffffffffffffffffffffffffffffffffffff169650611326338960600151611f5e565b84600201600081548092919061133b90613df3565b91905055505050505050915091565b600061135582612354565b905061136581600084600161239a565b61136e82612354565b90506113786123a0565b600b01600083815260200190815260200160002060006101000a81549073ffffffffffffffffffffffffffffffffffffffff021916905560016113b96123a0565b600a0160008373ffffffffffffffffffffffffffffffffffffffff1673ffffffffffffffffffffffffffffffffffffffff1681526020019081526020016000206000828254039250508190555061140e6123a0565b600901600083815260200190815260200160002060006101000a81549073ffffffffffffffffffffffffffffffffffffffff021916905581600073ffffffffffffffffffffffffffffffffffffffff168273ffffffffffffffffffffffffffffffffffffffff167fddf252ad1be2c89b69c2b068fc378daa952ba7f163c4a11628f55a4df523b3ef60405160405180910390a46114af8160008460016123cd565b5050565b6000806114be611f31565b905080600201600084815260200190815260200160002060009054906101000a900473ffffffffffffffffffffffffffffffffffffffff16915050919050565b6000611508611f31565b9050806006018460405161151c9190613af2565b908152602001604051809103902060009054906101000a900460ff1615611578576040517f08c379a000000000000000000000000000000000000000000000000000000000815260040161156f90614383565b60405180910390fd5b600a8451111561158757600080fd5b60038451101561159657600080fd5b8060010160008154809291906115ab90613df3565b919050555060405180610260016040528060018152602001600081526020016000815260200160018152602001600a8152602001600a815260200160018152602001600181526020016001815260200160018152602001600181526020016001815260200160018152602001600181526020016001815260200185815260200184815260200183151581526020016040518060e00160405280600081526020016000815260200160008152602001600081526020016000815260200160008152602001600081525081525081600301600083600101548152602001908152602001600020600082015181600001556020820151816001015560408201518160020155606082015181600301556080820151816004015560a0820151816005015560c0820151816006015560e082015181600701556101008201518160080155610120820151816009015561014082015181600a015561016082015181600b015561018082015181600c01556101a082015181600d01556101c082015181600e01556101e082015181600f01908161174291906143a3565b5061020082015181601001908161175991906143a3565b506102208201518160110160006101000a81548160ff02191690831515021790555061024082015181601201600082015181600001556020820151816001015560408201518160020155606082015181600301556080820151816004015560a0820151816005015560c0820151816006015550509050506040518060e00160405280600081526020016000815260200160008152602001600081526020016000815260200160008152602001600081525081600801600083600101548152602001908152602001600020600082015181600001556020820151816001015560408201518160020155606082015181600301556080820151816004015560a0820151816005015560c08201518160060155905050600181600601856040516118809190613af2565b908152602001604051809103902060006101000a81548160ff021916908315150217905550338160020160008360010154815260200190815260200160002060006101000a81548173ffffffffffffffffffffffffffffffffffffffff021916908373ffffffffffffffffffffffffffffffffffffffff1602179055508060070160003373ffffffffffffffffffffffffffffffffffffffff1673ffffffffffffffffffffffffffffffffffffffff168152602001908152602001600020816001015490806001815401808255809150506001900390600052602060002001600090919091909150558060040160003373ffffffffffffffffffffffffffffffffffffffff1673ffffffffffffffffffffffffffffffffffffffff16815260200190815260200160002060008154809291906119bb90613df3565b919050555050505050565b6119e08282604051806020016040528060008152506123d3565b5050565b60006119ee611f31565b90503373ffffffffffffffffffffffffffffffffffffffff1681600201600085815260200190815260200160002060009054906101000a900473ffffffffffffffffffffffffffffffffffffffff1673ffffffffffffffffffffffffffffffffffffffff1614611a5d57600080fd5b8060060182604051611a6f9190613af2565b908152602001604051809103902060009054906101000a900460ff1615611acb576040517f08c379a0000000000000000000000000000000000000000000000000000000008152600401611ac290614383565b60405180910390fd5b6003825111611b0f576040517f08c379a0000000000000000000000000000000000000000000000000000000008152600401611b06906144c1565b60405180910390fd5b600a825110611b53576040517f08c379a0000000000000000000000000000000000000000000000000000000008152600401611b4a9061452d565b60405180910390fd5b6000816003016000858152602001908152602001600020600f018054611b7890613719565b80601f0160208091040260200160405190810160405280929190818152602001828054611ba490613719565b8015611bf15780601f10611bc657610100808354040283529160200191611bf1565b820191906000526020600020905b815481529060010190602001808311611bd457829003601f168201915b50505050509050600081511115611c33578160060181604051611c149190613af2565b908152602001604051809103902060006101000a81549060ff02191690555b82826003016000868152602001908152602001600020600f019081611c5891906143a3565b5060018260060184604051611c6d9190613af2565b908152602001604051809103902060006101000a81548160ff02191690831515021790555050505050565b611ca0612850565b6000611caa611f31565b90508060030160008481526020019081526020016000206040518061026001604052908160008201548152602001600182015481526020016002820154815260200160038201548152602001600482015481526020016005820154815260200160068201548152602001600782015481526020016008820154815260200160098201548152602001600a8201548152602001600b8201548152602001600c8201548152602001600d8201548152602001600e8201548152602001600f82018054611d7390613719565b80601f0160208091040260200160405190810160405280929190818152602001828054611d9f90613719565b8015611dec5780601f10611dc157610100808354040283529160200191611dec565b820191906000526020600020905b815481529060010190602001808311611dcf57829003601f168201915b50505050508152602001601082018054611e0590613719565b80601f0160208091040260200160405190810160405280929190818152602001828054611e3190613719565b8015611e7e5780601f10611e5357610100808354040283529160200191611e7e565b820191906000526020600020905b815481529060010190602001808311611e6157829003601f168201915b505050505081526020016011820160009054906101000a900460ff16151515158152602001601282016040518060e001604052908160008201548152602001600182015481526020016002820154815260200160038201548152602001600482015481526020016005820154815260200160068201548152505081525050915050919050565b6000807fde7d391137404fe68b2d026634c196acca759657f6772ed659866a46d08c6ce390508091505090565b6000807f3cab9a070a0c61cd0ae9d9e9e2c0781e5ca8691bec4087e5a4701d5ac018dd4e90508091505090565b6000611f68611f31565b90508273ffffffffffffffffffffffffffffffffffffffff1681600201600084815260200190815260200160002060009054906101000a900473ffffffffffffffffffffffffffffffffffffffff1673ffffffffffffffffffffffffffffffffffffffff1614611fd757600080fd5b806001015482111561201e576040517f08c379a000000000000000000000000000000000000000000000000000000000815260040161201590614599565b60405180910390fd5b600081600201600084815260200190815260200160002060006101000a81548173ffffffffffffffffffffffffffffffffffffffff021916908373ffffffffffffffffffffffffffffffffffffffff160217905550600081600401600083600201600086815260200190815260200160002060009054906101000a900473ffffffffffffffffffffffffffffffffffffffff1673ffffffffffffffffffffffffffffffffffffffff1673ffffffffffffffffffffffffffffffffffffffff16815260200190815260200160002081905550600081600501600083600201600086815260200190815260200160002060009054906101000a900473ffffffffffffffffffffffffffffffffffffffff1673ffffffffffffffffffffffffffffffffffffffff1673ffffffffffffffffffffffffffffffffffffffff16815260200190815260200160002060003073ffffffffffffffffffffffffffffffffffffffff1673ffffffffffffffffffffffffffffffffffffffff168152602001908152602001600020819055508060010160008154809291906121bd906145b9565b9190505550600081600701600083600201600086815260200190815260200160002060009054906101000a900473ffffffffffffffffffffffffffffffffffffffff1673ffffffffffffffffffffffffffffffffffffffff1673ffffffffffffffffffffffffffffffffffffffff168152602001908152602001600020905060005b81805490508110156122fd578382828154811061225f5761225e6145e2565b5b9060005260206000200154036122ea5781600183805490506122819190613eb1565b81548110612292576122916145e2565b5b90600052602060002001548282815481106122b0576122af6145e2565b5b9060005260206000200181905550818054806122cf576122ce614611565b5b600190038181906000526020600020016000905590556122fd565b80806122f590613df3565b91505061223f565b50816008016000848152602001908152602001600020600080820160009055600182016000905560028201600090556003820160009055600482016000905560058201600090556006820160009055505050505050565b600061235e6123a0565b600901600083815260200190815260200160002060009054906101000a900473ffffffffffffffffffffffffffffffffffffffff169050919050565b50505050565b6000807f2569078dfb4b0305704d3008e7403993ae9601b85f7ae5e742de3de8f8011c4090508091505090565b50505050565b6123dd838361242e565b6123ea600084848461265d565b612429576040517f08c379a0000000000000000000000000000000000000000000000000000000008152600401612420906146b2565b60405180910390fd5b505050565b600073ffffffffffffffffffffffffffffffffffffffff168273ffffffffffffffffffffffffffffffffffffffff160361249d576040517f08c379a00000000000000000000000000000000000000000000000000000000081526004016124949061471e565b60405180910390fd5b6124a6816127e4565b156124e6576040517f08c379a00000000000000000000000000000000000000000000000000000000081526004016124dd9061478a565b60405180910390fd5b6124f460008383600161239a565b6124fd816127e4565b1561253d576040517f08c379a00000000000000000000000000000000000000000000000000000000081526004016125349061478a565b60405180910390fd5b60016125476123a0565b600a0160008473ffffffffffffffffffffffffffffffffffffffff1673ffffffffffffffffffffffffffffffffffffffff168152602001908152602001600020600082825401925050819055508161259d6123a0565b600901600083815260200190815260200160002060006101000a81548173ffffffffffffffffffffffffffffffffffffffff021916908373ffffffffffffffffffffffffffffffffffffffff160217905550808273ffffffffffffffffffffffffffffffffffffffff16600073ffffffffffffffffffffffffffffffffffffffff167fddf252ad1be2c89b69c2b068fc378daa952ba7f163c4a11628f55a4df523b3ef60405160405180910390a46126596000838360016123cd565b5050565b600061267e8473ffffffffffffffffffffffffffffffffffffffff16612825565b156127d7578373ffffffffffffffffffffffffffffffffffffffff1663150b7a026126a7612848565b8786866040518563ffffffff1660e01b81526004016126c994939291906147aa565b6020604051808303816000875af192505050801561270557506040513d601f19601f82011682018060405250810190612702919061484e565b60015b612787573d8060008114612735576040519150601f19603f3d011682016040523d82523d6000602084013e61273a565b606091505b50600081510361277f576040517f08c379a0000000000000000000000000000000000000000000000000000000008152600401612776906146b2565b60405180910390fd5b805181602001fd5b63150b7a0260e01b7bffffffffffffffffffffffffffffffffffffffffffffffffffffffff1916817bffffffffffffffffffffffffffffffffffffffffffffffffffffffff1916149150506127dc565b600190505b949350505050565b60008073ffffffffffffffffffffffffffffffffffffffff1661280683612354565b73ffffffffffffffffffffffffffffffffffffffff1614159050919050565b6000808273ffffffffffffffffffffffffffffffffffffffff163b119050919050565b600033905090565b60405180610260016040528060008152602001600081526020016000815260200160008152602001600081526020016000815260200160008152602001600081526020016000815260200160008152602001600081526020016000815260200160008152602001600081526020016000815260200160608152602001606081526020016000151581526020016128e46128ea565b81525090565b6040518060e00160405280600081526020016000815260200160008152602001600081526020016000815260200160008152602001600081525090565b6000819050919050565b61293a81612927565b82525050565b60006020820190506129556000830184612931565b92915050565b6000604051905090565b600080fd5b600080fd5b600080fd5b600080fd5b600080fd5b60008083601f8401126129945761299361296f565b5b8235905067ffffffffffffffff8111156129b1576129b0612974565b5b6020830191508360018202830111156129cd576129cc612979565b5b9250929050565b600080600080604085870312156129ee576129ed612965565b5b600085013567ffffffffffffffff811115612a0c57612a0b61296a565b5b612a188782880161297e565b9450945050602085013567ffffffffffffffff811115612a3b57612a3a61296a565b5b612a478782880161297e565b925092505092959194509250565b60008060208385031215612a6c57612a6b612965565b5b600083013567ffffffffffffffff811115612a8a57612a8961296a565b5b612a968582860161297e565b92509250509250929050565b600073ffffffffffffffffffffffffffffffffffffffff82169050919050565b6000612acd82612aa2565b9050919050565b612add81612ac2565b82525050565b600081519050919050565b600082825260208201905092915050565b60005b83811015612b1d578082015181840152602081019050612b02565b60008484015250505050565b6000601f19601f8301169050919050565b6000612b4582612ae3565b612b4f8185612aee565b9350612b5f818560208601612aff565b612b6881612b29565b840191505092915050565b6000606082019050612b886000830186612ad4565b8181036020830152612b9a8185612b3a565b9050612ba96040830184612931565b949350505050565b600067ffffffffffffffff82169050919050565b612bce81612bb1565b8114612bd957600080fd5b50565b600081359050612beb81612bc5565b92915050565b60006fffffffffffffffffffffffffffffffff82169050919050565b612c1681612bf1565b8114612c2157600080fd5b50565b600081359050612c3381612c0d565b92915050565b600060ff82169050919050565b612c4f81612c39565b8114612c5a57600080fd5b50565b600081359050612c6c81612c46565b92915050565b60008115159050919050565b612c8781612c72565b8114612c9257600080fd5b50565b600081359050612ca481612c7e565b92915050565b600080fd5b7f4e487b7100000000000000000000000000000000000000000000000000000000600052604160045260246000fd5b612ce782612b29565b810181811067ffffffffffffffff82111715612d0657612d05612caf565b5b80604052505050565b6000612d1961295b565b9050612d258282612cde565b919050565b600067ffffffffffffffff821115612d4557612d44612caf565b5b612d4e82612b29565b9050602081019050919050565b82818337600083830152505050565b6000612d7d612d7884612d2a565b612d0f565b905082815260208101848484011115612d9957612d98612caa565b5b612da4848285612d5b565b509392505050565b600082601f830112612dc157612dc061296f565b5b8135612dd1848260208601612d6a565b91505092915050565b600080600080600080600080610100898b031215612dfb57612dfa612965565b5b6000612e098b828c01612bdc565b9850506020612e1a8b828c01612bdc565b9750506040612e2b8b828c01612bdc565b9650506060612e3c8b828c01612bdc565b9550506080612e4d8b828c01612c24565b94505060a0612e5e8b828c01612c5d565b93505060c0612e6f8b828c01612c95565b92505060e089013567ffffffffffffffff811115612e9057612e8f61296a565b5b612e9c8b828c01612dac565b9150509295985092959890939650565b600081519050919050565b600082825260208201905092915050565b6000612ed382612eac565b612edd8185612eb7565b9350612eed818560208601612aff565b612ef681612b29565b840191505092915050565b60006020820190508181036000830152612f1b8184612ec8565b905092915050565b612f2c81612927565b8114612f3757600080fd5b50565b600081359050612f4981612f23565b92915050565b60008060408385031215612f6657612f65612965565b5b6000612f7485828601612f3a565b9250506020612f8585828601612f3a565b9150509250929050565b612f9881612ac2565b8114612fa357600080fd5b50565b600081359050612fb581612f8f565b92915050565b600080600060408486031215612fd457612fd3612965565b5b6000612fe286828701612fa6565b935050602084013567ffffffffffffffff8111156130035761300261296a565b5b61300f8682870161297e565b92509250509250925092565b60006020828403121561303157613030612965565b5b600061303f84828501612fa6565b91505092915050565b600081519050919050565b600082825260208201905092915050565b6000819050602082019050919050565b61307d81612927565b82525050565b600061308f8383613074565b60208301905092915050565b6000602082019050919050565b60006130b382613048565b6130bd8185613053565b93506130c883613064565b8060005b838110156130f95781516130e08882613083565b97506130eb8361309b565b9250506001810190506130cc565b5085935050505092915050565b6000602082019050818103600083015261312081846130a8565b905092915050565b600067ffffffffffffffff82111561314357613142612caf565b5b61314c82612b29565b9050602081019050919050565b600061316c61316784613128565b612d0f565b90508281526020810184848401111561318857613187612caa565b5b613193848285612d5b565b509392505050565b600082601f8301126131b0576131af61296f565b5b81356131c0848260208601613159565b91505092915050565b6000602082840312156131df576131de612965565b5b600082013567ffffffffffffffff8111156131fd576131fc61296a565b5b6132098482850161319b565b91505092915050565b61321b81612c72565b82525050565b60006020820190506132366000830184613212565b92915050565b600080600080600080600060a0888a03121561325b5761325a612965565b5b600088013567ffffffffffffffff8111156132795761327861296a565b5b6132858a828b0161297e565b975097505060206132988a828b01612fa6565b955050604088013567ffffffffffffffff8111156132b9576132b861296a565b5b6132c58a828b0161297e565b945094505060606132d88a828b01612f3a565b925050608088013567ffffffffffffffff8111156132f9576132f861296a565b5b6133058a828b01612dac565b91505092959891949750929550565b60006020828403121561332a57613329612965565b5b600061333884828501612f3a565b91505092915050565b60006020820190506133566000830184612ad4565b92915050565b60008060006060848603121561337557613374612965565b5b600084013567ffffffffffffffff8111156133935761339261296a565b5b61339f8682870161319b565b935050602084013567ffffffffffffffff8111156133c0576133bf61296a565b5b6133cc8682870161319b565b92505060406133dd86828701612c95565b9150509250925092565b600080604083850312156133fe576133fd612965565b5b600061340c85828601612f3a565b925050602083013567ffffffffffffffff81111561342d5761342c61296a565b5b6134398582860161319b565b9150509250929050565b600082825260208201905092915050565b600061345f82612ae3565b6134698185613443565b9350613479818560208601612aff565b61348281612b29565b840191505092915050565b61349681612c72565b82525050565b60e0820160008201516134b26000850182613074565b5060208201516134c56020850182613074565b5060408201516134d86040850182613074565b5060608201516134eb6060850182613074565b5060808201516134fe6080850182613074565b5060a082015161351160a0850182613074565b5060c082015161352460c0850182613074565b50505050565b6000610320830160008301516135436000860182613074565b5060208301516135566020860182613074565b5060408301516135696040860182613074565b50606083015161357c6060860182613074565b50608083015161358f6080860182613074565b5060a08301516135a260a0860182613074565b5060c08301516135b560c0860182613074565b5060e08301516135c860e0860182613074565b506101008301516135dd610100860182613074565b506101208301516135f2610120860182613074565b50610140830151613607610140860182613074565b5061016083015161361c610160860182613074565b50610180830151613631610180860182613074565b506101a08301516136466101a0860182613074565b506101c083015161365b6101c0860182613074565b506101e08301518482036101e08601526136758282613454565b9150506102008301518482036102008601526136918282613454565b9150506102208301516136a861022086018261348d565b506102408301516136bd61024086018261349c565b508091505092915050565b600060208201905081810360008301526136e2818461352a565b905092915050565b7f4e487b7100000000000000000000000000000000000000000000000000000000600052602260045260246000fd5b6000600282049050600182168061373157607f821691505b602082108103613744576137436136ea565b5b50919050565b60008160c01b9050919050565b60006137628261374a565b9050919050565b61377a61377582612bb1565b613757565b82525050565b60008160801b9050919050565b600061379882613780565b9050919050565b6137b06137ab82612bf1565b61378d565b82525050565b60008160f81b9050919050565b60006137ce826137b6565b9050919050565b6137e66137e182612c39565b6137c3565b82525050565b60006137f7826137c3565b9050919050565b61380f61380a82612c72565b6137ec565b82525050565b600081905092915050565b600061382b82612eac565b6138358185613815565b9350613845818560208601612aff565b80840191505092915050565b600061385d828b613769565b60088201915061386d828a613769565b60088201915061387d8289613769565b60088201915061388d8288613769565b60088201915061389d828761379f565b6010820191506138ad82866137d5565b6001820191506138bd82856137fe565b6001820191506138cd8284613820565b91508190509998505050505050505050565b6000819050919050565b6000819050919050565b600061390e613909613904846138df565b6138e9565b612927565b9050919050565b61391e816138f3565b82525050565b6000819050919050565b600061394961394461393f84613924565b6138e9565b612927565b9050919050565b6139598161392e565b82525050565b600061396b8385612aee565b9350613978838584612d5b565b61398183612b29565b840190509392505050565b600060c0820190506139a1600083018a613915565b6139ae6020830189613950565b81810360408301526139c08188612b3a565b905081810360608301526139d581868861395f565b905081810360808301526139e98185612ec8565b905081810360a08301526139fd8184612ec8565b905098975050505050505050565b600081519050613a1a81612f23565b92915050565b600060208284031215613a3657613a35612965565b5b6000613a4484828501613a0b565b91505092915050565b60006040820190508181036000830152613a6881858761395f565b9050613a776020830184612931565b949350505050565b60006040820190508181036000830152613a998185612b3a565b90508181036020830152613aad8184612b3a565b90509392505050565b600081905092915050565b6000613acc82612ae3565b613ad68185613ab6565b9350613ae6818560208601612aff565b80840191505092915050565b6000613afe8284613ac1565b915081905092915050565b6000613b158385613ab6565b9350613b22838584612d5b565b82840190509392505050565b6000613b3b828486613b09565b91508190509392505050565b600082905092915050565b60008190508160005260206000209050919050565b60006020601f8301049050919050565b600082821b905092915050565b600060088302613bb47fffffffffffffffffffffffffffffffffffffffffffffffffffffffffffffffff82613b77565b613bbe8683613b77565b95508019841693508086168417925050509392505050565b6000613bf1613bec613be784612927565b6138e9565b612927565b9050919050565b6000819050919050565b613c0b83613bd6565b613c1f613c1782613bf8565b848454613b84565b825550505050565b600090565b613c34613c27565b613c3f818484613c02565b505050565b5b81811015613c6357613c58600082613c2c565b600181019050613c45565b5050565b601f821115613ca857613c7981613b52565b613c8284613b67565b81016020851015613c91578190505b613ca5613c9d85613b67565b830182613c44565b50505b505050565b600082821c905092915050565b6000613ccb60001984600802613cad565b1980831691505092915050565b6000613ce48383613cba565b9150826002028217905092915050565b613cfe8383613b47565b67ffffffffffffffff811115613d1757613d16612caf565b5b613d218254613719565b613d2c828285613c67565b6000601f831160018114613d5b5760008415613d49578287013590505b613d538582613cd8565b865550613dbb565b601f198416613d6986613b52565b60005b82811015613d9157848901358255600182019150602085019450602081019050613d6c565b86831015613dae5784890135613daa601f891682613cba565b8355505b6001600288020188555050505b50505050505050565b7f4e487b7100000000000000000000000000000000000000000000000000000000600052601160045260246000fd5b6000613dfe82612927565b91507fffffffffffffffffffffffffffffffffffffffffffffffffffffffffffffffff8203613e3057613e2f613dc4565b5b600182019050919050565b6000613e4682612927565b9150613e5183612927565b9250828202613e5f81612927565b91508282048414831517613e7657613e75613dc4565b5b5092915050565b6000613e8882612927565b9150613e9383612927565b9250828201905080821115613eab57613eaa613dc4565b5b92915050565b6000613ebc82612927565b9150613ec783612927565b9250828203905081811115613edf57613ede613dc4565b5b92915050565b60006020820190508181036000830152613f0081848661395f565b90509392505050565b50565b6000613f19600083613ab6565b9150613f2482613f09565b600082019050919050565b6000613f3a82613f0c565b9150819050919050565b60008154613f5181613719565b613f5b8186613ab6565b94506001821660008114613f765760018114613f8b57613fbe565b60ff1983168652811515820286019350613fbe565b613f9485613b52565b60005b83811015613fb657815481890152600182019150602081019050613f97565b838801955050505b50505092915050565b6000613fd38284613f44565b915081905092915050565b7f636f6e7472616374206f6e2064657374206e6f74207365740000000000000000600082015250565b6000614014601883612aee565b915061401f82613fde565b602082019050919050565b6000602082019050818103600083015261404381614007565b9050919050565b6000610320830160008301516140636000860182613074565b5060208301516140766020860182613074565b5060408301516140896040860182613074565b50606083015161409c6060860182613074565b5060808301516140af6080860182613074565b5060a08301516140c260a0860182613074565b5060c08301516140d560c0860182613074565b5060e08301516140e860e0860182613074565b506101008301516140fd610100860182613074565b50610120830151614112610120860182613074565b50610140830151614127610140860182613074565b5061016083015161413c610160860182613074565b50610180830151614151610180860182613074565b506101a08301516141666101a0860182613074565b506101c083015161417b6101c0860182613074565b506101e08301518482036101e08601526141958282613454565b9150506102008301518482036102008601526141b18282613454565b9150506102208301516141c861022086018261348d565b506102408301516141dd61024086018261349c565b508091505092915050565b6141f181612ac2565b82525050565b600060808301600083015161420f6000860182613074565b5060208301516142226020860182613074565b506040830151848203604086015261423a828261404a565b915050606083015161424f60608601826141e8565b508091505092915050565b6000602082019050818103600083015261427481846141f7565b905092915050565b6000815461428981613719565b6142938186612aee565b945060018216600081146142ae57600181146142c4576142f7565b60ff1983168652811515602002860193506142f7565b6142cd85613b52565b60005b838110156142ef578154818901526001820191506020810190506142d0565b808801955050505b50505092915050565b6000604082019050818103600083015261431a818561427c565b9050818103602083015261432e8184612ec8565b90509392505050565b7f6e616d652069732074616b656e00000000000000000000000000000000000000600082015250565b600061436d600d83612aee565b915061437882614337565b602082019050919050565b6000602082019050818103600083015261439c81614360565b9050919050565b6143ac82612ae3565b67ffffffffffffffff8111156143c5576143c4612caf565b5b6143cf8254613719565b6143da828285613c67565b600060209050601f83116001811461440d57600084156143fb578287015190505b6144058582613cd8565b86555061446d565b601f19841661441b86613b52565b60005b828110156144435784890151825560018201915060208501945060208101905061441e565b86831015614460578489015161445c601f891682613cba565b8355505b6001600288020188555050505b505050505050565b7f43616e6e6f74207061737320616e20656d707479206861736800000000000000600082015250565b60006144ab601983612aee565b91506144b682614475565b602082019050919050565b600060208201905081810360008301526144da8161449e565b9050919050565b7f43616e6e6f74206265206c6f6e676572207468616e2031302063686172730000600082015250565b6000614517601e83612aee565b9150614522826144e1565b602082019050919050565b600060208201905081810360008301526145468161450a565b9050919050565b7f506c6179657220646f6573206e6f742065786973740000000000000000000000600082015250565b6000614583601583612aee565b915061458e8261454d565b602082019050919050565b600060208201905081810360008301526145b281614576565b9050919050565b60006145c482612927565b9150600082036145d7576145d6613dc4565b5b600182039050919050565b7f4e487b7100000000000000000000000000000000000000000000000000000000600052603260045260246000fd5b7f4e487b7100000000000000000000000000000000000000000000000000000000600052603160045260246000fd5b7f4552433732313a207472616e7366657220746f206e6f6e20455243373231526560008201527f63656976657220696d706c656d656e7465720000000000000000000000000000602082015250565b600061469c603283612aee565b91506146a782614640565b604082019050919050565b600060208201905081810360008301526146cb8161468f565b9050919050565b7f4552433732313a206d696e7420746f20746865207a65726f2061646472657373600082015250565b6000614708602083612aee565b9150614713826146d2565b602082019050919050565b60006020820190508181036000830152614737816146fb565b9050919050565b7f4552433732313a20746f6b656e20616c7265616479206d696e74656400000000600082015250565b6000614774601c83612aee565b915061477f8261473e565b602082019050919050565b600060208201905081810360008301526147a381614767565b9050919050565b60006080820190506147bf6000830187612ad4565b6147cc6020830186612ad4565b6147d96040830185612931565b81810360608301526147eb8184612ec8565b905095945050505050565b60007fffffffff0000000000000000000000000000000000000000000000000000000082169050919050565b61482b816147f6565b811461483657600080fd5b50565b60008151905061484881614822565b92915050565b60006020828403121561486457614863612965565b5b600061487284828501614839565b9150509291505056fea2646970667358221220e579737f60b8a55515ff5f35acccebbddb463dea0c09582787801ae329150fa664736f6c63430008110033",
  "linkReferences": {},
  "deployedLinkReferences": {}
}