{
  "_format": "hh-sol-artifact-1",
  "contractName": "PlayerFacet",
  "sourceName": "contracts/facets/PlayerFacet.sol",
  "abi": [
    {
      "anonymous": false,
      "inputs": [
        {
          "indexed": true,
          "internalType": "uint256",
          "name": "id",
          "type": "uint256"
        },
        {
          "indexed": true,
          "internalType": "address",
          "name": "owner",
          "type": "address"
        },
        {
          "indexed": false,
          "internalType": "string",
          "name": "name",
          "type": "string"
        },
        {
          "indexed": false,
          "internalType": "string",
          "name": "uri",
          "type": "string"
        }
      ],
      "name": "Mint",
      "type": "event"
    },
    {
      "anonymous": false,
      "inputs": [
        {
          "indexed": true,
          "internalType": "address",
          "name": "owner",
          "type": "address"
        },
        {
          "indexed": true,
          "internalType": "uint256",
          "name": "id",
          "type": "uint256"
        },
        {
          "indexed": true,
          "internalType": "string",
          "name": "newName",
          "type": "string"
        }
      ],
      "name": "NameChange",
      "type": "event"
    },
    {
      "anonymous": false,
      "inputs": [
        {
          "indexed": true,
          "internalType": "uint32",
          "name": "destination",
          "type": "uint32"
        },
        {
          "indexed": true,
          "internalType": "bytes32",
          "name": "recipient",
          "type": "bytes32"
        },
        {
          "indexed": false,
          "internalType": "uint256",
          "name": "amount",
          "type": "uint256"
        }
      ],
      "name": "SentTransferRemote",
      "type": "event"
    },
    {
      "inputs": [
        {
          "internalType": "uint256",
          "name": "_id",
          "type": "uint256"
        },
        {
          "internalType": "string",
          "name": "_newName",
          "type": "string"
        }
      ],
      "name": "changeName",
      "outputs": [],
      "stateMutability": "nonpayable",
      "type": "function"
    },
    {
      "inputs": [],
      "name": "getBlocktime",
      "outputs": [
        {
          "internalType": "uint256",
          "name": "",
          "type": "uint256"
        }
      ],
      "stateMutability": "view",
      "type": "function"
    },
    {
      "inputs": [
        {
          "internalType": "uint256",
          "name": "_playerId",
          "type": "uint256"
        }
      ],
      "name": "getPlayer",
      "outputs": [
        {
          "components": [
            {
              "internalType": "uint256",
              "name": "level",
              "type": "uint256"
            },
            {
              "internalType": "uint256",
              "name": "xp",
              "type": "uint256"
            },
            {
              "internalType": "uint256",
              "name": "status",
              "type": "uint256"
            },
            {
              "internalType": "uint256",
              "name": "strength",
              "type": "uint256"
            },
            {
              "internalType": "uint256",
              "name": "health",
              "type": "uint256"
            },
            {
              "internalType": "uint256",
              "name": "magic",
              "type": "uint256"
            },
            {
              "internalType": "uint256",
              "name": "mana",
              "type": "uint256"
            },
            {
              "internalType": "uint256",
              "name": "agility",
              "type": "uint256"
            },
            {
              "internalType": "uint256",
              "name": "luck",
              "type": "uint256"
            },
            {
              "internalType": "uint256",
              "name": "wisdom",
              "type": "uint256"
            },
            {
              "internalType": "uint256",
              "name": "haki",
              "type": "uint256"
            },
            {
              "internalType": "uint256",
              "name": "perception",
              "type": "uint256"
            },
            {
              "internalType": "uint256",
              "name": "defense",
              "type": "uint256"
            },
            {
              "internalType": "string",
              "name": "name",
              "type": "string"
            },
            {
              "internalType": "string",
              "name": "uri",
              "type": "string"
            },
            {
              "internalType": "bool",
              "name": "male",
              "type": "bool"
            },
            {
              "components": [
                {
                  "internalType": "uint256",
                  "name": "head",
                  "type": "uint256"
                },
                {
                  "internalType": "uint256",
                  "name": "body",
                  "type": "uint256"
                },
                {
                  "internalType": "uint256",
                  "name": "leftHand",
                  "type": "uint256"
                },
                {
                  "internalType": "uint256",
                  "name": "rightHand",
                  "type": "uint256"
                },
                {
                  "internalType": "uint256",
                  "name": "pants",
                  "type": "uint256"
                },
                {
                  "internalType": "uint256",
                  "name": "feet",
                  "type": "uint256"
                }
              ],
              "internalType": "struct PlayerSlotLib.Slot",
              "name": "slot",
              "type": "tuple"
            }
          ],
          "internalType": "struct PlayerSlotLib.Player",
          "name": "player",
          "type": "tuple"
        }
      ],
      "stateMutability": "view",
      "type": "function"
    },
    {
      "inputs": [
        {
          "internalType": "address",
          "name": "_address",
          "type": "address"
        }
      ],
      "name": "getPlayers",
      "outputs": [
        {
          "internalType": "uint256[]",
          "name": "",
          "type": "uint256[]"
        }
      ],
      "stateMutability": "view",
      "type": "function"
    },
    {
      "inputs": [
        {
          "internalType": "string",
          "name": "_name",
          "type": "string"
        },
        {
          "internalType": "string",
          "name": "_uri",
          "type": "string"
        },
        {
          "internalType": "bool",
          "name": "_isMale",
          "type": "bool"
        }
      ],
      "name": "mint",
      "outputs": [],
      "stateMutability": "nonpayable",
      "type": "function"
    },
    {
      "inputs": [
        {
          "internalType": "string",
          "name": "_name",
          "type": "string"
        }
      ],
      "name": "nameAvailable",
      "outputs": [
        {
          "internalType": "bool",
          "name": "available",
          "type": "bool"
        }
      ],
      "stateMutability": "view",
      "type": "function"
    },
    {
      "inputs": [
        {
          "internalType": "uint256",
          "name": "_playerId",
          "type": "uint256"
        }
      ],
      "name": "ownerOfPlayer",
      "outputs": [
        {
          "internalType": "address",
          "name": "owner",
          "type": "address"
        }
      ],
      "stateMutability": "view",
      "type": "function"
    },
    {
      "inputs": [],
      "name": "playerCount",
      "outputs": [
        {
          "internalType": "uint256",
          "name": "",
          "type": "uint256"
        }
      ],
      "stateMutability": "view",
      "type": "function"
    },
    {
      "inputs": [
        {
          "internalType": "uint256",
          "name": "tokenId",
          "type": "uint256"
        }
      ],
      "name": "tokenURI",
      "outputs": [
        {
          "internalType": "string",
          "name": "",
          "type": "string"
        }
      ],
      "stateMutability": "view",
      "type": "function"
    }
  ],
  "bytecode": "0x608060405234801561001057600080fd5b50613059806100206000396000f3fe608060405234801561001057600080fd5b50600436106100935760003560e01c8063bfcc8b6d11610066578063bfcc8b6d14610134578063c1d885b114610164578063c39cbef114610180578063c87b56dd1461019c578063e55ae4e8146101cc57610093565b80630501b79f14610098578063302bcc57146100b65780637a80b6b4146100d457806382bbdbec14610104575b600080fd5b6100a06101fc565b6040516100ad91906118ec565b60405180910390f35b6100be610204565b6040516100cb91906118ec565b60405180910390f35b6100ee60048036038101906100e99190611979565b610213565b6040516100fb9190611a64565b60405180910390f35b61011e60048036038101906101199190611bcc565b610225565b60405161012b9190611c30565b60405180910390f35b61014e60048036038101906101499190611c77565b610237565b60405161015b9190611cb3565b60405180910390f35b61017e60048036038101906101799190611cfa565b610249565b005b61019a60048036038101906101959190611d85565b6102c1565b005b6101b660048036038101906101b19190611c77565b610329565b6040516101c39190611e60565b60405180910390f35b6101e660048036038101906101e19190611c77565b6103c9565b6040516101f391906120ca565b60405180910390f35b600042905090565b600061020e6103e1565b905090565b606061021e826103f9565b9050919050565b60006102308261049f565b9050919050565b6000610242826104e2565b9050919050565b61025483838361052d565b600061025e610204565b90503373ffffffffffffffffffffffffffffffffffffffff16817fd113c872a0d148e963f842767b1f364bf6d826e6cbbc9917c498a9b94f9c728086866040516102a99291906120ec565b60405180910390a36102bb33826109af565b50505050565b6102cb82826109cd565b806040516102d9919061215f565b6040518091039020823373ffffffffffffffffffffffffffffffffffffffff167fe4ce50a62b6cbb7d19acd75fd57f7e2588dd09705647d97993e2ece872c305b260405160405180910390a45050565b6060600061033683610c81565b9050600061034382610ecf565b9050600061039d836101a00151846101e0015161036a57610362610fc0565b600d01610376565b610372610fc0565b600c015b84604051602001610389939291906123c4565b604051602081830303815290604052610fed565b9050806040516020016103b0919061246d565b6040516020818303038152906040529350505050919050565b6103d1611811565b6103da82610c81565b9050919050565b6000806103ec611150565b9050806001015491505090565b60606000610405611150565b90508060070160008473ffffffffffffffffffffffffffffffffffffffff1673ffffffffffffffffffffffffffffffffffffffff16815260200190815260200160002080548060200260200160405190810160405280929190818152602001828054801561049257602002820191906000526020600020905b81548152602001906001019080831161047e575b5050505050915050919050565b6000806104aa611150565b905080600601836040516104be919061215f565b908152602001604051809103902060009054906101000a900460ff16915050919050565b6000806104ed611150565b905080600201600084815260200190815260200160002060009054906101000a900473ffffffffffffffffffffffffffffffffffffffff16915050919050565b6000610537611150565b9050806006018460405161054b919061215f565b908152602001604051809103902060009054906101000a900460ff16156105a7576040517f08c379a000000000000000000000000000000000000000000000000000000000815260040161059e906124db565b60405180910390fd5b600a845111156105b657600080fd5b6003845110156105c557600080fd5b8060010160008154809291906105da9061252a565b919050555060405180610220016040528060018152602001600081526020016000815260200160018152602001600a8152602001600181526020016001815260200160018152602001600181526020016001815260200160018152602001600181526020016001815260200185815260200184815260200183151581526020016040518060c001604052806000815260200160008152602001600081526020016000815260200160008152602001600081525081525081600301600083600101548152602001908152602001600020600082015181600001556020820151816001015560408201518160020155606082015181600301556080820151816004015560a0820151816005015560c0820151816006015560e082015181600701556101008201518160080155610120820151816009015561014082015181600a015561016082015181600b015561018082015181600c01556101a082015181600d019081610746919061271e565b506101c082015181600e01908161075d919061271e565b506101e082015181600f0160006101000a81548160ff02191690831515021790555061020082015181601001600082015181600001556020820151816001015560408201518160020155606082015181600301556080820151816004015560a0820151816005015550509050506040518060c001604052806000815260200160008152602001600081526020016000815260200160008152602001600081525081600801600083600101548152602001908152602001600020600082015181600001556020820151816001015560408201518160020155606082015181600301556080820151816004015560a0820151816005015590505060018160060185604051610869919061215f565b908152602001604051809103902060006101000a81548160ff021916908315150217905550338160020160008360010154815260200190815260200160002060006101000a81548173ffffffffffffffffffffffffffffffffffffffff021916908373ffffffffffffffffffffffffffffffffffffffff1602179055508060070160003373ffffffffffffffffffffffffffffffffffffffff1673ffffffffffffffffffffffffffffffffffffffff168152602001908152602001600020816001015490806001815401808255809150506001900390600052602060002001600090919091909150558060040160003373ffffffffffffffffffffffffffffffffffffffff1673ffffffffffffffffffffffffffffffffffffffff16815260200190815260200160002060008154809291906109a49061252a565b919050555050505050565b6109c982826040518060200160405280600081525061117d565b5050565b60006109d7611150565b90503373ffffffffffffffffffffffffffffffffffffffff1681600201600085815260200190815260200160002060009054906101000a900473ffffffffffffffffffffffffffffffffffffffff1673ffffffffffffffffffffffffffffffffffffffff1614610a4657600080fd5b8060060182604051610a58919061215f565b908152602001604051809103902060009054906101000a900460ff1615610ab4576040517f08c379a0000000000000000000000000000000000000000000000000000000008152600401610aab906124db565b60405180910390fd5b6003825111610af8576040517f08c379a0000000000000000000000000000000000000000000000000000000008152600401610aef9061283c565b60405180910390fd5b600a825110610b3c576040517f08c379a0000000000000000000000000000000000000000000000000000000008152600401610b33906128a8565b60405180910390fd5b6000816003016000858152602001908152602001600020600d018054610b6190612263565b80601f0160208091040260200160405190810160405280929190818152602001828054610b8d90612263565b8015610bda5780601f10610baf57610100808354040283529160200191610bda565b820191906000526020600020905b815481529060010190602001808311610bbd57829003601f168201915b50505050509050600081511115610c1c578160060181604051610bfd919061215f565b908152602001604051809103902060006101000a81549060ff02191690555b82826003016000868152602001908152602001600020600d019081610c41919061271e565b5060018260060184604051610c56919061215f565b908152602001604051809103902060006101000a81548160ff02191690831515021790555050505050565b610c89611811565b6000610c93611150565b90508060030160008481526020019081526020016000206040518061022001604052908160008201548152602001600182015481526020016002820154815260200160038201548152602001600482015481526020016005820154815260200160068201548152602001600782015481526020016008820154815260200160098201548152602001600a8201548152602001600b8201548152602001600c8201548152602001600d82018054610d4890612263565b80601f0160208091040260200160405190810160405280929190818152602001828054610d7490612263565b8015610dc15780601f10610d9657610100808354040283529160200191610dc1565b820191906000526020600020905b815481529060010190602001808311610da457829003601f168201915b50505050508152602001600e82018054610dda90612263565b80601f0160208091040260200160405190810160405280929190818152602001828054610e0690612263565b8015610e535780601f10610e2857610100808354040283529160200191610e53565b820191906000526020600020905b815481529060010190602001808311610e3657829003601f168201915b50505050508152602001600f820160009054906101000a900460ff16151515158152602001601082016040518060c0016040529081600082015481526020016001820154815260200160028201548152602001600382015481526020016004820154815260200160058201548152505081525050915050919050565b6060816101a00151610ee483600001516111d8565b610ef184602001516111d8565b610efe85604001516111d8565b856101e00151610f43576040518060400160405280600681526020017f46656d616c650000000000000000000000000000000000000000000000000000815250610f7a565b6040518060400160405280600481526020017f4d616c65000000000000000000000000000000000000000000000000000000008152505b610f8787606001516111d8565b610f9488608001516111d8565b604051602001610faa9796959493929190612bc0565b6040516020818303038152906040529050919050565b6000807f2569078dfb4b0305704d3008e7403993ae9601b85f7ae5e742de3de8f8011c4090508091505090565b6060600082510361100f5760405180602001604052806000815250905061114b565b6000604051806060016040528060408152602001612fe4604091399050600060036002855161103e9190612c7d565b6110489190612ce0565b60046110549190612d11565b67ffffffffffffffff81111561106d5761106c611aa1565b5b6040519080825280601f01601f19166020018201604052801561109f5781602001600182028036833780820191505090505b509050600182016020820185865187015b8082101561110b576003820191508151603f8160121c168501518453600184019350603f81600c1c168501518453600184019350603f8160061c168501518453600184019350603f81168501518453600184019350506110b0565b5050600386510660018114611127576002811461113a57611142565b603d6001830353603d6002830353611142565b603d60018303535b50505080925050505b919050565b6000807f3cab9a070a0c61cd0ae9d9e9e2c0781e5ca8691bec4087e5a4701d5ac018dd4e90508091505090565b61118783836112a6565b6111946000848484611479565b6111d3576040517f08c379a00000000000000000000000000000000000000000000000000000000081526004016111ca90612dc5565b60405180910390fd5b505050565b6060600060016111e784611600565b01905060008167ffffffffffffffff81111561120657611205611aa1565b5b6040519080825280601f01601f1916602001820160405280156112385781602001600182028036833780820191505090505b509050600082602001820190505b60011561129b578080600190039150507f3031323334353637383961626364656600000000000000000000000000000000600a86061a8153600a858161128f5761128e612cb1565b5b04945060008503611246575b819350505050919050565b600073ffffffffffffffffffffffffffffffffffffffff168273ffffffffffffffffffffffffffffffffffffffff1603611315576040517f08c379a000000000000000000000000000000000000000000000000000000000815260040161130c90612e31565b60405180910390fd5b61131e81611753565b1561135e576040517f08c379a000000000000000000000000000000000000000000000000000000000815260040161135590612e9d565b60405180910390fd5b61136c600083836001611794565b61137581611753565b156113b5576040517f08c379a00000000000000000000000000000000000000000000000000000000081526004016113ac90612e9d565b60405180910390fd5b60016113bf610fc0565b600a0160008473ffffffffffffffffffffffffffffffffffffffff1673ffffffffffffffffffffffffffffffffffffffff1681526020019081526020016000206000828254019250508190555081611415610fc0565b600901600083815260200190815260200160002060006101000a81548173ffffffffffffffffffffffffffffffffffffffff021916908373ffffffffffffffffffffffffffffffffffffffff16021790555061147560008383600161179a565b5050565b600061149a8473ffffffffffffffffffffffffffffffffffffffff166117a0565b156115f3578373ffffffffffffffffffffffffffffffffffffffff1663150b7a026114c36117c3565b8786866040518563ffffffff1660e01b81526004016114e59493929190612f12565b6020604051808303816000875af192505050801561152157506040513d601f19601f8201168201806040525081019061151e9190612fb6565b60015b6115a3573d8060008114611551576040519150601f19603f3d011682016040523d82523d6000602084013e611556565b606091505b50600081510361159b576040517f08c379a000000000000000000000000000000000000000000000000000000000815260040161159290612dc5565b60405180910390fd5b805181602001fd5b63150b7a0260e01b7bffffffffffffffffffffffffffffffffffffffffffffffffffffffff1916817bffffffffffffffffffffffffffffffffffffffffffffffffffffffff1916149150506115f8565b600190505b949350505050565b600080600090507a184f03e93ff9f4daa797ed6e38ed64bf6a1f010000000000000000831061165e577a184f03e93ff9f4daa797ed6e38ed64bf6a1f010000000000000000838161165457611653612cb1565b5b0492506040810190505b6d04ee2d6d415b85acef8100000000831061169b576d04ee2d6d415b85acef8100000000838161169157611690612cb1565b5b0492506020810190505b662386f26fc1000083106116ca57662386f26fc1000083816116c0576116bf612cb1565b5b0492506010810190505b6305f5e10083106116f3576305f5e10083816116e9576116e8612cb1565b5b0492506008810190505b612710831061171857612710838161170e5761170d612cb1565b5b0492506004810190505b6064831061173b576064838161173157611730612cb1565b5b0492506002810190505b600a831061174a576001810190505b80915050919050565b60008073ffffffffffffffffffffffffffffffffffffffff16611775836117cb565b73ffffffffffffffffffffffffffffffffffffffff1614159050919050565b50505050565b50505050565b6000808273ffffffffffffffffffffffffffffffffffffffff163b119050919050565b600033905090565b60006117d5610fc0565b600901600083815260200190815260200160002060009054906101000a900473ffffffffffffffffffffffffffffffffffffffff169050919050565b60405180610220016040528060008152602001600081526020016000815260200160008152602001600081526020016000815260200160008152602001600081526020016000815260200160008152602001600081526020016000815260200160008152602001606081526020016060815260200160001515815260200161189761189d565b81525090565b6040518060c001604052806000815260200160008152602001600081526020016000815260200160008152602001600081525090565b6000819050919050565b6118e6816118d3565b82525050565b600060208201905061190160008301846118dd565b92915050565b6000604051905090565b600080fd5b600080fd5b600073ffffffffffffffffffffffffffffffffffffffff82169050919050565b60006119468261191b565b9050919050565b6119568161193b565b811461196157600080fd5b50565b6000813590506119738161194d565b92915050565b60006020828403121561198f5761198e611911565b5b600061199d84828501611964565b91505092915050565b600081519050919050565b600082825260208201905092915050565b6000819050602082019050919050565b6119db816118d3565b82525050565b60006119ed83836119d2565b60208301905092915050565b6000602082019050919050565b6000611a11826119a6565b611a1b81856119b1565b9350611a26836119c2565b8060005b83811015611a57578151611a3e88826119e1565b9750611a49836119f9565b925050600181019050611a2a565b5085935050505092915050565b60006020820190508181036000830152611a7e8184611a06565b905092915050565b600080fd5b600080fd5b6000601f19601f8301169050919050565b7f4e487b7100000000000000000000000000000000000000000000000000000000600052604160045260246000fd5b611ad982611a90565b810181811067ffffffffffffffff82111715611af857611af7611aa1565b5b80604052505050565b6000611b0b611907565b9050611b178282611ad0565b919050565b600067ffffffffffffffff821115611b3757611b36611aa1565b5b611b4082611a90565b9050602081019050919050565b82818337600083830152505050565b6000611b6f611b6a84611b1c565b611b01565b905082815260208101848484011115611b8b57611b8a611a8b565b5b611b96848285611b4d565b509392505050565b600082601f830112611bb357611bb2611a86565b5b8135611bc3848260208601611b5c565b91505092915050565b600060208284031215611be257611be1611911565b5b600082013567ffffffffffffffff811115611c0057611bff611916565b5b611c0c84828501611b9e565b91505092915050565b60008115159050919050565b611c2a81611c15565b82525050565b6000602082019050611c456000830184611c21565b92915050565b611c54816118d3565b8114611c5f57600080fd5b50565b600081359050611c7181611c4b565b92915050565b600060208284031215611c8d57611c8c611911565b5b6000611c9b84828501611c62565b91505092915050565b611cad8161193b565b82525050565b6000602082019050611cc86000830184611ca4565b92915050565b611cd781611c15565b8114611ce257600080fd5b50565b600081359050611cf481611cce565b92915050565b600080600060608486031215611d1357611d12611911565b5b600084013567ffffffffffffffff811115611d3157611d30611916565b5b611d3d86828701611b9e565b935050602084013567ffffffffffffffff811115611d5e57611d5d611916565b5b611d6a86828701611b9e565b9250506040611d7b86828701611ce5565b9150509250925092565b60008060408385031215611d9c57611d9b611911565b5b6000611daa85828601611c62565b925050602083013567ffffffffffffffff811115611dcb57611dca611916565b5b611dd785828601611b9e565b9150509250929050565b600081519050919050565b600082825260208201905092915050565b60005b83811015611e1b578082015181840152602081019050611e00565b60008484015250505050565b6000611e3282611de1565b611e3c8185611dec565b9350611e4c818560208601611dfd565b611e5581611a90565b840191505092915050565b60006020820190508181036000830152611e7a8184611e27565b905092915050565b600082825260208201905092915050565b6000611e9e82611de1565b611ea88185611e82565b9350611eb8818560208601611dfd565b611ec181611a90565b840191505092915050565b611ed581611c15565b82525050565b60c082016000820151611ef160008501826119d2565b506020820151611f0460208501826119d2565b506040820151611f1760408501826119d2565b506060820151611f2a60608501826119d2565b506080820151611f3d60808501826119d2565b5060a0820151611f5060a08501826119d2565b50505050565b60006102c083016000830151611f6f60008601826119d2565b506020830151611f8260208601826119d2565b506040830151611f9560408601826119d2565b506060830151611fa860608601826119d2565b506080830151611fbb60808601826119d2565b5060a0830151611fce60a08601826119d2565b5060c0830151611fe160c08601826119d2565b5060e0830151611ff460e08601826119d2565b506101008301516120096101008601826119d2565b5061012083015161201e6101208601826119d2565b506101408301516120336101408601826119d2565b506101608301516120486101608601826119d2565b5061018083015161205d6101808601826119d2565b506101a08301518482036101a08601526120778282611e93565b9150506101c08301518482036101c08601526120938282611e93565b9150506101e08301516120aa6101e0860182611ecc565b506102008301516120bf610200860182611edb565b508091505092915050565b600060208201905081810360008301526120e48184611f56565b905092915050565b600060408201905081810360008301526121068185611e27565b9050818103602083015261211a8184611e27565b90509392505050565b600081905092915050565b600061213982611de1565b6121438185612123565b9350612153818560208601611dfd565b80840191505092915050565b600061216b828461212e565b915081905092915050565b7f7b226e616d65223a220000000000000000000000000000000000000000000000600082015250565b60006121ac600983612123565b91506121b782612176565b600982019050919050565b7f222c226465736372697074696f6e223a22506c61796572204e46542066726f6d60008201527f204f6d6e694b696e67646f6d73222c22696d616765223a220000000000000000602082015250565b600061221e603883612123565b9150612229826121c2565b603882019050919050565b7f4e487b7100000000000000000000000000000000000000000000000000000000600052602260045260246000fd5b6000600282049050600182168061227b57607f821691505b60208210810361228e5761228d612234565b5b50919050565b60008190508160005260206000209050919050565b600081546122b681612263565b6122c08186612123565b945060018216600081146122db57600181146122f057612323565b60ff1983168652811515820286019350612323565b6122f985612294565b60005b8381101561231b578154818901526001820191506020810190506122fc565b838801955050505b50505092915050565b7f222c2261747472696275746573223a0000000000000000000000000000000000600082015250565b6000612362600f83612123565b915061236d8261232c565b600f82019050919050565b7f7d00000000000000000000000000000000000000000000000000000000000000600082015250565b60006123ae600183612123565b91506123b982612378565b600182019050919050565b60006123cf8261219f565b91506123db828661212e565b91506123e682612211565b91506123f282856122a9565b91506123fd82612355565b9150612409828461212e565b9150612414826123a1565b9150819050949350505050565b7f646174613a6170706c69636174696f6e2f6a736f6e3b6261736536342c000000600082015250565b6000612457601d83612123565b915061246282612421565b601d82019050919050565b60006124788261244a565b9150612484828461212e565b915081905092915050565b7f6e616d652069732074616b656e00000000000000000000000000000000000000600082015250565b60006124c5600d83611dec565b91506124d08261248f565b602082019050919050565b600060208201905081810360008301526124f4816124b8565b9050919050565b7f4e487b7100000000000000000000000000000000000000000000000000000000600052601160045260246000fd5b6000612535826118d3565b91507fffffffffffffffffffffffffffffffffffffffffffffffffffffffffffffffff8203612567576125666124fb565b5b600182019050919050565b60008190508160005260206000209050919050565b60006020601f8301049050919050565b600082821b905092915050565b6000600883026125d47fffffffffffffffffffffffffffffffffffffffffffffffffffffffffffffffff82612597565b6125de8683612597565b95508019841693508086168417925050509392505050565b6000819050919050565b600061261b612616612611846118d3565b6125f6565b6118d3565b9050919050565b6000819050919050565b61263583612600565b61264961264182612622565b8484546125a4565b825550505050565b600090565b61265e612651565b61266981848461262c565b505050565b5b8181101561268d57612682600082612656565b60018101905061266f565b5050565b601f8211156126d2576126a381612572565b6126ac84612587565b810160208510156126bb578190505b6126cf6126c785612587565b83018261266e565b50505b505050565b600082821c905092915050565b60006126f5600019846008026126d7565b1980831691505092915050565b600061270e83836126e4565b9150826002028217905092915050565b61272782611de1565b67ffffffffffffffff8111156127405761273f611aa1565b5b61274a8254612263565b612755828285612691565b600060209050601f8311600181146127885760008415612776578287015190505b6127808582612702565b8655506127e8565b601f19841661279686612572565b60005b828110156127be57848901518255600182019150602085019450602081019050612799565b868310156127db57848901516127d7601f8916826126e4565b8355505b6001600288020188555050505b505050505050565b7f43616e6e6f74207061737320616e20656d707479206861736800000000000000600082015250565b6000612826601983611dec565b9150612831826127f0565b602082019050919050565b6000602082019050818103600083015261285581612819565b9050919050565b7f43616e6e6f74206265206c6f6e676572207468616e2031302063686172730000600082015250565b6000612892601e83611dec565b915061289d8261285c565b602082019050919050565b600060208201905081810360008301526128c181612885565b9050919050565b7f5b7b2274726169745f74797065223a224e616d65222c2276616c7565223a0000600082015250565b60006128fe601e83612123565b9150612909826128c8565b601e82019050919050565b7f7d2c7b2274726169745f74797065223a224c6576656c222c2276616c7565223a600082015250565b600061294a602083612123565b915061295582612914565b602082019050919050565b7f7d2c7b2274726169745f74797065223a225850222c2276616c7565223a000000600082015250565b6000612996601d83612123565b91506129a182612960565b601d82019050919050565b7f7d2c7b2274726169745f74797065223a22537461747573222c2276616c75652260008201527f3a00000000000000000000000000000000000000000000000000000000000000602082015250565b6000612a08602183612123565b9150612a13826129ac565b602182019050919050565b7f7d2c7b2274726169745f74797065223a2247656e646572222c2276616c75652260008201527f3a00000000000000000000000000000000000000000000000000000000000000602082015250565b6000612a7a602183612123565b9150612a8582612a1e565b602182019050919050565b7f7d2c7b2274726169745f74797065223a22537472656e677468222c2276616c7560008201527f65223a0000000000000000000000000000000000000000000000000000000000602082015250565b6000612aec602383612123565b9150612af782612a90565b602382019050919050565b7f7d2c7b2274726169745f74797065223a224865616c7468222c2276616c75652260008201527f3a00000000000000000000000000000000000000000000000000000000000000602082015250565b6000612b5e602183612123565b9150612b6982612b02565b602182019050919050565b7f7d5d000000000000000000000000000000000000000000000000000000000000600082015250565b6000612baa600283612123565b9150612bb582612b74565b600282019050919050565b6000612bcb826128f1565b9150612bd7828a61212e565b9150612be28261293d565b9150612bee828961212e565b9150612bf982612989565b9150612c05828861212e565b9150612c10826129fb565b9150612c1c828761212e565b9150612c2782612a6d565b9150612c33828661212e565b9150612c3e82612adf565b9150612c4a828561212e565b9150612c5582612b51565b9150612c61828461212e565b9150612c6c82612b9d565b915081905098975050505050505050565b6000612c88826118d3565b9150612c93836118d3565b9250828201905080821115612cab57612caa6124fb565b5b92915050565b7f4e487b7100000000000000000000000000000000000000000000000000000000600052601260045260246000fd5b6000612ceb826118d3565b9150612cf6836118d3565b925082612d0657612d05612cb1565b5b828204905092915050565b6000612d1c826118d3565b9150612d27836118d3565b9250828202612d35816118d3565b91508282048414831517612d4c57612d4b6124fb565b5b5092915050565b7f4552433732313a207472616e7366657220746f206e6f6e20455243373231526560008201527f63656976657220696d706c656d656e7465720000000000000000000000000000602082015250565b6000612daf603283611dec565b9150612dba82612d53565b604082019050919050565b60006020820190508181036000830152612dde81612da2565b9050919050565b7f4552433732313a206d696e7420746f20746865207a65726f2061646472657373600082015250565b6000612e1b602083611dec565b9150612e2682612de5565b602082019050919050565b60006020820190508181036000830152612e4a81612e0e565b9050919050565b7f4552433732313a20746f6b656e20616c7265616479206d696e74656400000000600082015250565b6000612e87601c83611dec565b9150612e9282612e51565b602082019050919050565b60006020820190508181036000830152612eb681612e7a565b9050919050565b600081519050919050565b600082825260208201905092915050565b6000612ee482612ebd565b612eee8185612ec8565b9350612efe818560208601611dfd565b612f0781611a90565b840191505092915050565b6000608082019050612f276000830187611ca4565b612f346020830186611ca4565b612f4160408301856118dd565b8181036060830152612f538184612ed9565b905095945050505050565b60007fffffffff0000000000000000000000000000000000000000000000000000000082169050919050565b612f9381612f5e565b8114612f9e57600080fd5b50565b600081519050612fb081612f8a565b92915050565b600060208284031215612fcc57612fcb611911565b5b6000612fda84828501612fa1565b9150509291505056fe4142434445464748494a4b4c4d4e4f505152535455565758595a6162636465666768696a6b6c6d6e6f707172737475767778797a303132333435363738392b2fa26469706673582212200d740664b38333715b603d16a9a0af70e80d365dfc6a1c01e0483c9adf04495d64736f6c63430008110033",
  "linkReferences": {},
  "deployedLinkReferences": {}
}