{
  "_format": "hh-sol-artifact-1",
  "contractName": "PlayerFacet",
  "sourceName": "contracts/facets/PlayerFacet.sol",
  "abi": [
    {
      "anonymous": false,
      "inputs": [
        {
          "indexed": true,
          "internalType": "address",
          "name": "owner",
          "type": "address"
        },
        {
          "indexed": true,
          "internalType": "address",
          "name": "approved",
          "type": "address"
        },
        {
          "indexed": true,
          "internalType": "uint256",
          "name": "tokenId",
          "type": "uint256"
        }
      ],
      "name": "Approval",
      "type": "event"
    },
    {
      "anonymous": false,
      "inputs": [
        {
          "indexed": true,
          "internalType": "address",
          "name": "owner",
          "type": "address"
        },
        {
          "indexed": true,
          "internalType": "address",
          "name": "operator",
          "type": "address"
        },
        {
          "indexed": false,
          "internalType": "bool",
          "name": "approved",
          "type": "bool"
        }
      ],
      "name": "ApprovalForAll",
      "type": "event"
    },
    {
      "anonymous": false,
      "inputs": [
        {
          "indexed": true,
          "internalType": "uint256",
          "name": "id",
          "type": "uint256"
        },
        {
          "indexed": true,
          "internalType": "address",
          "name": "owner",
          "type": "address"
        },
        {
          "indexed": false,
          "internalType": "string",
          "name": "name",
          "type": "string"
        },
        {
          "indexed": false,
          "internalType": "string",
          "name": "uri",
          "type": "string"
        }
      ],
      "name": "Mint",
      "type": "event"
    },
    {
      "anonymous": false,
      "inputs": [
        {
          "indexed": true,
          "internalType": "address",
          "name": "owner",
          "type": "address"
        },
        {
          "indexed": true,
          "internalType": "uint256",
          "name": "id",
          "type": "uint256"
        },
        {
          "indexed": true,
          "internalType": "string",
          "name": "newName",
          "type": "string"
        }
      ],
      "name": "NameChange",
      "type": "event"
    },
    {
      "anonymous": false,
      "inputs": [
        {
          "indexed": true,
          "internalType": "uint32",
          "name": "destination",
          "type": "uint32"
        },
        {
          "indexed": true,
          "internalType": "bytes32",
          "name": "recipient",
          "type": "bytes32"
        },
        {
          "indexed": false,
          "internalType": "uint256",
          "name": "amount",
          "type": "uint256"
        }
      ],
      "name": "SentTransferRemote",
      "type": "event"
    },
    {
      "anonymous": false,
      "inputs": [
        {
          "indexed": true,
          "internalType": "address",
          "name": "from",
          "type": "address"
        },
        {
          "indexed": true,
          "internalType": "address",
          "name": "to",
          "type": "address"
        },
        {
          "indexed": true,
          "internalType": "uint256",
          "name": "tokenId",
          "type": "uint256"
        }
      ],
      "name": "Transfer",
      "type": "event"
    },
    {
      "inputs": [
        {
          "internalType": "uint256",
          "name": "_id",
          "type": "uint256"
        },
        {
          "internalType": "string",
          "name": "_newName",
          "type": "string"
        }
      ],
      "name": "changeName",
      "outputs": [],
      "stateMutability": "nonpayable",
      "type": "function"
    },
    {
      "inputs": [],
      "name": "getBlocktime",
      "outputs": [
        {
          "internalType": "uint256",
          "name": "",
          "type": "uint256"
        }
      ],
      "stateMutability": "view",
      "type": "function"
    },
    {
      "inputs": [
        {
          "internalType": "uint256",
          "name": "_playerId",
          "type": "uint256"
        }
      ],
      "name": "getPlayer",
      "outputs": [
        {
          "components": [
            {
              "internalType": "uint256",
              "name": "level",
              "type": "uint256"
            },
            {
              "internalType": "uint256",
              "name": "xp",
              "type": "uint256"
            },
            {
              "internalType": "uint256",
              "name": "status",
              "type": "uint256"
            },
            {
              "internalType": "uint256",
              "name": "strength",
              "type": "uint256"
            },
            {
              "internalType": "uint256",
              "name": "health",
              "type": "uint256"
            },
            {
              "internalType": "uint256",
              "name": "magic",
              "type": "uint256"
            },
            {
              "internalType": "uint256",
              "name": "mana",
              "type": "uint256"
            },
            {
              "internalType": "uint256",
              "name": "agility",
              "type": "uint256"
            },
            {
              "internalType": "uint256",
              "name": "luck",
              "type": "uint256"
            },
            {
              "internalType": "uint256",
              "name": "wisdom",
              "type": "uint256"
            },
            {
              "internalType": "uint256",
              "name": "haki",
              "type": "uint256"
            },
            {
              "internalType": "uint256",
              "name": "perception",
              "type": "uint256"
            },
            {
              "internalType": "uint256",
              "name": "defense",
              "type": "uint256"
            },
            {
              "internalType": "string",
              "name": "name",
              "type": "string"
            },
            {
              "internalType": "string",
              "name": "uri",
              "type": "string"
            },
            {
              "internalType": "bool",
              "name": "male",
              "type": "bool"
            },
            {
              "components": [
                {
                  "internalType": "uint256",
                  "name": "head",
                  "type": "uint256"
                },
                {
                  "internalType": "uint256",
                  "name": "body",
                  "type": "uint256"
                },
                {
                  "internalType": "uint256",
                  "name": "leftHand",
                  "type": "uint256"
                },
                {
                  "internalType": "uint256",
                  "name": "rightHand",
                  "type": "uint256"
                },
                {
                  "internalType": "uint256",
                  "name": "pants",
                  "type": "uint256"
                },
                {
                  "internalType": "uint256",
                  "name": "feet",
                  "type": "uint256"
                }
              ],
              "internalType": "struct PlayerSlotLib.Slot",
              "name": "slot",
              "type": "tuple"
            }
          ],
          "internalType": "struct PlayerSlotLib.Player",
          "name": "player",
          "type": "tuple"
        }
      ],
      "stateMutability": "view",
      "type": "function"
    },
    {
      "inputs": [
        {
          "internalType": "address",
          "name": "_address",
          "type": "address"
        }
      ],
      "name": "getPlayers",
      "outputs": [
        {
          "internalType": "uint256[]",
          "name": "",
          "type": "uint256[]"
        }
      ],
      "stateMutability": "view",
      "type": "function"
    },
    {
      "inputs": [
        {
          "internalType": "string",
          "name": "_name",
          "type": "string"
        },
        {
          "internalType": "string",
          "name": "_uri",
          "type": "string"
        },
        {
          "internalType": "bool",
          "name": "_isMale",
          "type": "bool"
        }
      ],
      "name": "mint",
      "outputs": [],
      "stateMutability": "nonpayable",
      "type": "function"
    },
    {
      "inputs": [
        {
          "internalType": "string",
          "name": "_name",
          "type": "string"
        }
      ],
      "name": "nameAvailable",
      "outputs": [
        {
          "internalType": "bool",
          "name": "available",
          "type": "bool"
        }
      ],
      "stateMutability": "view",
      "type": "function"
    },
    {
      "inputs": [
        {
          "internalType": "uint256",
          "name": "_playerId",
          "type": "uint256"
        }
      ],
      "name": "ownerOfPlayer",
      "outputs": [
        {
          "internalType": "address",
          "name": "owner",
          "type": "address"
        }
      ],
      "stateMutability": "view",
      "type": "function"
    },
    {
      "inputs": [],
      "name": "playerCount",
      "outputs": [
        {
          "internalType": "uint256",
          "name": "",
          "type": "uint256"
        }
      ],
      "stateMutability": "view",
      "type": "function"
    }
  ],
  "bytecode": "0x608060405234801561001057600080fd5b506123bf806100206000396000f3fe608060405234801561001057600080fd5b50600436106100885760003560e01c8063bfcc8b6d1161005b578063bfcc8b6d14610129578063c1d885b114610159578063c39cbef114610175578063e55ae4e81461019157610088565b80630501b79f1461008d578063302bcc57146100ab5780637a80b6b4146100c957806382bbdbec146100f9575b600080fd5b6100956101c1565b6040516100a291906113f8565b60405180910390f35b6100b36101c9565b6040516100c091906113f8565b60405180910390f35b6100e360048036038101906100de9190611485565b6101d8565b6040516100f09190611570565b60405180910390f35b610113600480360381019061010e91906116d8565b6101ea565b604051610120919061173c565b60405180910390f35b610143600480360381019061013e9190611783565b6101fc565b60405161015091906117bf565b60405180910390f35b610173600480360381019061016e9190611806565b61020e565b005b61018f600480360381019061018a9190611891565b610286565b005b6101ab60048036038101906101a69190611783565b6102ee565b6040516101b89190611b6a565b60405180910390f35b600042905090565b60006101d3610306565b905090565b60606101e38261031e565b9050919050565b60006101f5826103c4565b9050919050565b600061020782610407565b9050919050565b610219838383610452565b60006102236101c9565b90503373ffffffffffffffffffffffffffffffffffffffff16817fd113c872a0d148e963f842767b1f364bf6d826e6cbbc9917c498a9b94f9c7280868660405161026e929190611bd6565b60405180910390a361028033826108d4565b50505050565b61029082826108f2565b8060405161029e9190611c49565b6040518091039020823373ffffffffffffffffffffffffffffffffffffffff167fe4ce50a62b6cbb7d19acd75fd57f7e2588dd09705647d97993e2ece872c305b260405160405180910390a45050565b6102f661131d565b6102ff82610ba6565b9050919050565b600080610311610df4565b9050806001015491505090565b6060600061032a610df4565b90508060070160008473ffffffffffffffffffffffffffffffffffffffff1673ffffffffffffffffffffffffffffffffffffffff1681526020019081526020016000208054806020026020016040519081016040528092919081815260200182805480156103b757602002820191906000526020600020905b8154815260200190600101908083116103a3575b5050505050915050919050565b6000806103cf610df4565b905080600601836040516103e39190611c49565b908152602001604051809103902060009054906101000a900460ff16915050919050565b600080610412610df4565b905080600201600084815260200190815260200160002060009054906101000a900473ffffffffffffffffffffffffffffffffffffffff16915050919050565b600061045c610df4565b905080600601846040516104709190611c49565b908152602001604051809103902060009054906101000a900460ff16156104cc576040517f08c379a00000000000000000000000000000000000000000000000000000000081526004016104c390611cac565b60405180910390fd5b600a845111156104db57600080fd5b6003845110156104ea57600080fd5b8060010160008154809291906104ff90611cfb565b919050555060405180610220016040528060018152602001600081526020016000815260200160018152602001600a8152602001600181526020016001815260200160018152602001600181526020016001815260200160018152602001600181526020016001815260200185815260200184815260200183151581526020016040518060c001604052806000815260200160008152602001600081526020016000815260200160008152602001600081525081525081600301600083600101548152602001908152602001600020600082015181600001556020820151816001015560408201518160020155606082015181600301556080820151816004015560a0820151816005015560c0820151816006015560e082015181600701556101008201518160080155610120820151816009015561014082015181600a015561016082015181600b015561018082015181600c01556101a082015181600d01908161066b9190611f4f565b506101c082015181600e0190816106829190611f4f565b506101e082015181600f0160006101000a81548160ff02191690831515021790555061020082015181601001600082015181600001556020820151816001015560408201518160020155606082015181600301556080820151816004015560a0820151816005015550509050506040518060c001604052806000815260200160008152602001600081526020016000815260200160008152602001600081525081600801600083600101548152602001908152602001600020600082015181600001556020820151816001015560408201518160020155606082015181600301556080820151816004015560a082015181600501559050506001816006018560405161078e9190611c49565b908152602001604051809103902060006101000a81548160ff021916908315150217905550338160020160008360010154815260200190815260200160002060006101000a81548173ffffffffffffffffffffffffffffffffffffffff021916908373ffffffffffffffffffffffffffffffffffffffff1602179055508060070160003373ffffffffffffffffffffffffffffffffffffffff1673ffffffffffffffffffffffffffffffffffffffff168152602001908152602001600020816001015490806001815401808255809150506001900390600052602060002001600090919091909150558060040160003373ffffffffffffffffffffffffffffffffffffffff1673ffffffffffffffffffffffffffffffffffffffff16815260200190815260200160002060008154809291906108c990611cfb565b919050555050505050565b6108ee828260405180602001604052806000815250610e21565b5050565b60006108fc610df4565b90503373ffffffffffffffffffffffffffffffffffffffff1681600201600085815260200190815260200160002060009054906101000a900473ffffffffffffffffffffffffffffffffffffffff1673ffffffffffffffffffffffffffffffffffffffff161461096b57600080fd5b806006018260405161097d9190611c49565b908152602001604051809103902060009054906101000a900460ff16156109d9576040517f08c379a00000000000000000000000000000000000000000000000000000000081526004016109d090611cac565b60405180910390fd5b6003825111610a1d576040517f08c379a0000000000000000000000000000000000000000000000000000000008152600401610a149061206d565b60405180910390fd5b600a825110610a61576040517f08c379a0000000000000000000000000000000000000000000000000000000008152600401610a58906120d9565b60405180910390fd5b6000816003016000858152602001908152602001600020600d018054610a8690611d72565b80601f0160208091040260200160405190810160405280929190818152602001828054610ab290611d72565b8015610aff5780601f10610ad457610100808354040283529160200191610aff565b820191906000526020600020905b815481529060010190602001808311610ae257829003601f168201915b50505050509050600081511115610b41578160060181604051610b229190611c49565b908152602001604051809103902060006101000a81549060ff02191690555b82826003016000868152602001908152602001600020600d019081610b669190611f4f565b5060018260060184604051610b7b9190611c49565b908152602001604051809103902060006101000a81548160ff02191690831515021790555050505050565b610bae61131d565b6000610bb8610df4565b90508060030160008481526020019081526020016000206040518061022001604052908160008201548152602001600182015481526020016002820154815260200160038201548152602001600482015481526020016005820154815260200160068201548152602001600782015481526020016008820154815260200160098201548152602001600a8201548152602001600b8201548152602001600c8201548152602001600d82018054610c6d90611d72565b80601f0160208091040260200160405190810160405280929190818152602001828054610c9990611d72565b8015610ce65780601f10610cbb57610100808354040283529160200191610ce6565b820191906000526020600020905b815481529060010190602001808311610cc957829003601f168201915b50505050508152602001600e82018054610cff90611d72565b80601f0160208091040260200160405190810160405280929190818152602001828054610d2b90611d72565b8015610d785780601f10610d4d57610100808354040283529160200191610d78565b820191906000526020600020905b815481529060010190602001808311610d5b57829003601f168201915b50505050508152602001600f820160009054906101000a900460ff16151515158152602001601082016040518060c0016040529081600082015481526020016001820154815260200160028201548152602001600382015481526020016004820154815260200160058201548152505081525050915050919050565b6000807f3cab9a070a0c61cd0ae9d9e9e2c0781e5ca8691bec4087e5a4701d5ac018dd4e90508091505090565b610e2b8383610e7c565b610e3860008484846110ab565b610e77576040517f08c379a0000000000000000000000000000000000000000000000000000000008152600401610e6e9061216b565b60405180910390fd5b505050565b600073ffffffffffffffffffffffffffffffffffffffff168273ffffffffffffffffffffffffffffffffffffffff1603610eeb576040517f08c379a0000000000000000000000000000000000000000000000000000000008152600401610ee2906121d7565b60405180910390fd5b610ef481611232565b15610f34576040517f08c379a0000000000000000000000000000000000000000000000000000000008152600401610f2b90612243565b60405180910390fd5b610f42600083836001611273565b610f4b81611232565b15610f8b576040517f08c379a0000000000000000000000000000000000000000000000000000000008152600401610f8290612243565b60405180910390fd5b6001610f95611279565b600a0160008473ffffffffffffffffffffffffffffffffffffffff1673ffffffffffffffffffffffffffffffffffffffff1681526020019081526020016000206000828254019250508190555081610feb611279565b600901600083815260200190815260200160002060006101000a81548173ffffffffffffffffffffffffffffffffffffffff021916908373ffffffffffffffffffffffffffffffffffffffff160217905550808273ffffffffffffffffffffffffffffffffffffffff16600073ffffffffffffffffffffffffffffffffffffffff167fddf252ad1be2c89b69c2b068fc378daa952ba7f163c4a11628f55a4df523b3ef60405160405180910390a46110a76000838360016112a6565b5050565b60006110cc8473ffffffffffffffffffffffffffffffffffffffff166112ac565b15611225578373ffffffffffffffffffffffffffffffffffffffff1663150b7a026110f56112cf565b8786866040518563ffffffff1660e01b815260040161111794939291906122b8565b6020604051808303816000875af192505050801561115357506040513d601f19601f82011682018060405250810190611150919061235c565b60015b6111d5573d8060008114611183576040519150601f19603f3d011682016040523d82523d6000602084013e611188565b606091505b5060008151036111cd576040517f08c379a00000000000000000000000000000000000000000000000000000000081526004016111c49061216b565b60405180910390fd5b805181602001fd5b63150b7a0260e01b7bffffffffffffffffffffffffffffffffffffffffffffffffffffffff1916817bffffffffffffffffffffffffffffffffffffffffffffffffffffffff19161491505061122a565b600190505b949350505050565b60008073ffffffffffffffffffffffffffffffffffffffff16611254836112d7565b73ffffffffffffffffffffffffffffffffffffffff1614159050919050565b50505050565b6000807f2569078dfb4b0305704d3008e7403993ae9601b85f7ae5e742de3de8f8011c4090508091505090565b50505050565b6000808273ffffffffffffffffffffffffffffffffffffffff163b119050919050565b600033905090565b60006112e1611279565b600901600083815260200190815260200160002060009054906101000a900473ffffffffffffffffffffffffffffffffffffffff169050919050565b6040518061022001604052806000815260200160008152602001600081526020016000815260200160008152602001600081526020016000815260200160008152602001600081526020016000815260200160008152602001600081526020016000815260200160608152602001606081526020016000151581526020016113a36113a9565b81525090565b6040518060c001604052806000815260200160008152602001600081526020016000815260200160008152602001600081525090565b6000819050919050565b6113f2816113df565b82525050565b600060208201905061140d60008301846113e9565b92915050565b6000604051905090565b600080fd5b600080fd5b600073ffffffffffffffffffffffffffffffffffffffff82169050919050565b600061145282611427565b9050919050565b61146281611447565b811461146d57600080fd5b50565b60008135905061147f81611459565b92915050565b60006020828403121561149b5761149a61141d565b5b60006114a984828501611470565b91505092915050565b600081519050919050565b600082825260208201905092915050565b6000819050602082019050919050565b6114e7816113df565b82525050565b60006114f983836114de565b60208301905092915050565b6000602082019050919050565b600061151d826114b2565b61152781856114bd565b9350611532836114ce565b8060005b8381101561156357815161154a88826114ed565b975061155583611505565b925050600181019050611536565b5085935050505092915050565b6000602082019050818103600083015261158a8184611512565b905092915050565b600080fd5b600080fd5b6000601f19601f8301169050919050565b7f4e487b7100000000000000000000000000000000000000000000000000000000600052604160045260246000fd5b6115e58261159c565b810181811067ffffffffffffffff82111715611604576116036115ad565b5b80604052505050565b6000611617611413565b905061162382826115dc565b919050565b600067ffffffffffffffff821115611643576116426115ad565b5b61164c8261159c565b9050602081019050919050565b82818337600083830152505050565b600061167b61167684611628565b61160d565b90508281526020810184848401111561169757611696611597565b5b6116a2848285611659565b509392505050565b600082601f8301126116bf576116be611592565b5b81356116cf848260208601611668565b91505092915050565b6000602082840312156116ee576116ed61141d565b5b600082013567ffffffffffffffff81111561170c5761170b611422565b5b611718848285016116aa565b91505092915050565b60008115159050919050565b61173681611721565b82525050565b6000602082019050611751600083018461172d565b92915050565b611760816113df565b811461176b57600080fd5b50565b60008135905061177d81611757565b92915050565b6000602082840312156117995761179861141d565b5b60006117a78482850161176e565b91505092915050565b6117b981611447565b82525050565b60006020820190506117d460008301846117b0565b92915050565b6117e381611721565b81146117ee57600080fd5b50565b600081359050611800816117da565b92915050565b60008060006060848603121561181f5761181e61141d565b5b600084013567ffffffffffffffff81111561183d5761183c611422565b5b611849868287016116aa565b935050602084013567ffffffffffffffff81111561186a57611869611422565b5b611876868287016116aa565b9250506040611887868287016117f1565b9150509250925092565b600080604083850312156118a8576118a761141d565b5b60006118b68582860161176e565b925050602083013567ffffffffffffffff8111156118d7576118d6611422565b5b6118e3858286016116aa565b9150509250929050565b600081519050919050565b600082825260208201905092915050565b60005b8381101561192757808201518184015260208101905061190c565b60008484015250505050565b600061193e826118ed565b61194881856118f8565b9350611958818560208601611909565b6119618161159c565b840191505092915050565b61197581611721565b82525050565b60c08201600082015161199160008501826114de565b5060208201516119a460208501826114de565b5060408201516119b760408501826114de565b5060608201516119ca60608501826114de565b5060808201516119dd60808501826114de565b5060a08201516119f060a08501826114de565b50505050565b60006102c083016000830151611a0f60008601826114de565b506020830151611a2260208601826114de565b506040830151611a3560408601826114de565b506060830151611a4860608601826114de565b506080830151611a5b60808601826114de565b5060a0830151611a6e60a08601826114de565b5060c0830151611a8160c08601826114de565b5060e0830151611a9460e08601826114de565b50610100830151611aa96101008601826114de565b50610120830151611abe6101208601826114de565b50610140830151611ad36101408601826114de565b50610160830151611ae86101608601826114de565b50610180830151611afd6101808601826114de565b506101a08301518482036101a0860152611b178282611933565b9150506101c08301518482036101c0860152611b338282611933565b9150506101e0830151611b4a6101e086018261196c565b50610200830151611b5f61020086018261197b565b508091505092915050565b60006020820190508181036000830152611b8481846119f6565b905092915050565b600082825260208201905092915050565b6000611ba8826118ed565b611bb28185611b8c565b9350611bc2818560208601611909565b611bcb8161159c565b840191505092915050565b60006040820190508181036000830152611bf08185611b9d565b90508181036020830152611c048184611b9d565b90509392505050565b600081905092915050565b6000611c23826118ed565b611c2d8185611c0d565b9350611c3d818560208601611909565b80840191505092915050565b6000611c558284611c18565b915081905092915050565b7f6e616d652069732074616b656e00000000000000000000000000000000000000600082015250565b6000611c96600d83611b8c565b9150611ca182611c60565b602082019050919050565b60006020820190508181036000830152611cc581611c89565b9050919050565b7f4e487b7100000000000000000000000000000000000000000000000000000000600052601160045260246000fd5b6000611d06826113df565b91507fffffffffffffffffffffffffffffffffffffffffffffffffffffffffffffffff8203611d3857611d37611ccc565b5b600182019050919050565b7f4e487b7100000000000000000000000000000000000000000000000000000000600052602260045260246000fd5b60006002820490506001821680611d8a57607f821691505b602082108103611d9d57611d9c611d43565b5b50919050565b60008190508160005260206000209050919050565b60006020601f8301049050919050565b600082821b905092915050565b600060088302611e057fffffffffffffffffffffffffffffffffffffffffffffffffffffffffffffffff82611dc8565b611e0f8683611dc8565b95508019841693508086168417925050509392505050565b6000819050919050565b6000611e4c611e47611e42846113df565b611e27565b6113df565b9050919050565b6000819050919050565b611e6683611e31565b611e7a611e7282611e53565b848454611dd5565b825550505050565b600090565b611e8f611e82565b611e9a818484611e5d565b505050565b5b81811015611ebe57611eb3600082611e87565b600181019050611ea0565b5050565b601f821115611f0357611ed481611da3565b611edd84611db8565b81016020851015611eec578190505b611f00611ef885611db8565b830182611e9f565b50505b505050565b600082821c905092915050565b6000611f2660001984600802611f08565b1980831691505092915050565b6000611f3f8383611f15565b9150826002028217905092915050565b611f58826118ed565b67ffffffffffffffff811115611f7157611f706115ad565b5b611f7b8254611d72565b611f86828285611ec2565b600060209050601f831160018114611fb95760008415611fa7578287015190505b611fb18582611f33565b865550612019565b601f198416611fc786611da3565b60005b82811015611fef57848901518255600182019150602085019450602081019050611fca565b8683101561200c5784890151612008601f891682611f15565b8355505b6001600288020188555050505b505050505050565b7f43616e6e6f74207061737320616e20656d707479206861736800000000000000600082015250565b6000612057601983611b8c565b915061206282612021565b602082019050919050565b600060208201905081810360008301526120868161204a565b9050919050565b7f43616e6e6f74206265206c6f6e676572207468616e2031302063686172730000600082015250565b60006120c3601e83611b8c565b91506120ce8261208d565b602082019050919050565b600060208201905081810360008301526120f2816120b6565b9050919050565b7f4552433732313a207472616e7366657220746f206e6f6e20455243373231526560008201527f63656976657220696d706c656d656e7465720000000000000000000000000000602082015250565b6000612155603283611b8c565b9150612160826120f9565b604082019050919050565b6000602082019050818103600083015261218481612148565b9050919050565b7f4552433732313a206d696e7420746f20746865207a65726f2061646472657373600082015250565b60006121c1602083611b8c565b91506121cc8261218b565b602082019050919050565b600060208201905081810360008301526121f0816121b4565b9050919050565b7f4552433732313a20746f6b656e20616c7265616479206d696e74656400000000600082015250565b600061222d601c83611b8c565b9150612238826121f7565b602082019050919050565b6000602082019050818103600083015261225c81612220565b9050919050565b600081519050919050565b600082825260208201905092915050565b600061228a82612263565b612294818561226e565b93506122a4818560208601611909565b6122ad8161159c565b840191505092915050565b60006080820190506122cd60008301876117b0565b6122da60208301866117b0565b6122e760408301856113e9565b81810360608301526122f9818461227f565b905095945050505050565b60007fffffffff0000000000000000000000000000000000000000000000000000000082169050919050565b61233981612304565b811461234457600080fd5b50565b60008151905061235681612330565b92915050565b6000602082840312156123725761237161141d565b5b600061238084828501612347565b9150509291505056fea2646970667358221220308afc065bb1bf04abf5eaf0ef0d7e9f5f9cab58cbd325add2febedda6f51cc964736f6c63430008110033",
  "linkReferences": {},
  "deployedLinkReferences": {}
}