{
  "_format": "hh-sol-artifact-1",
  "contractName": "PlayerFacet",
  "sourceName": "contracts/facets/PlayerFacet.sol",
  "abi": [
    {
      "anonymous": false,
      "inputs": [
        {
          "indexed": true,
          "internalType": "address",
          "name": "owner",
          "type": "address"
        },
        {
          "indexed": true,
          "internalType": "address",
          "name": "approved",
          "type": "address"
        },
        {
          "indexed": true,
          "internalType": "uint256",
          "name": "tokenId",
          "type": "uint256"
        }
      ],
      "name": "Approval",
      "type": "event"
    },
    {
      "anonymous": false,
      "inputs": [
        {
          "indexed": true,
          "internalType": "address",
          "name": "owner",
          "type": "address"
        },
        {
          "indexed": true,
          "internalType": "address",
          "name": "operator",
          "type": "address"
        },
        {
          "indexed": false,
          "internalType": "bool",
          "name": "approved",
          "type": "bool"
        }
      ],
      "name": "ApprovalForAll",
      "type": "event"
    },
    {
      "anonymous": false,
      "inputs": [
        {
          "indexed": true,
          "internalType": "uint256",
          "name": "_playerId",
          "type": "uint256"
        },
        {
          "indexed": true,
          "internalType": "uint256",
          "name": "_stat",
          "type": "uint256"
        }
      ],
      "name": "LevelUp",
      "type": "event"
    },
    {
      "anonymous": false,
      "inputs": [
        {
          "indexed": true,
          "internalType": "uint256",
          "name": "id",
          "type": "uint256"
        },
        {
          "indexed": true,
          "internalType": "address",
          "name": "owner",
          "type": "address"
        },
        {
          "indexed": false,
          "internalType": "string",
          "name": "name",
          "type": "string"
        },
        {
          "indexed": false,
          "internalType": "uint256",
          "name": "_class",
          "type": "uint256"
        }
      ],
      "name": "Mint",
      "type": "event"
    },
    {
      "anonymous": false,
      "inputs": [
        {
          "indexed": true,
          "internalType": "address",
          "name": "owner",
          "type": "address"
        },
        {
          "indexed": true,
          "internalType": "uint256",
          "name": "id",
          "type": "uint256"
        },
        {
          "indexed": true,
          "internalType": "string",
          "name": "newName",
          "type": "string"
        }
      ],
      "name": "NameChange",
      "type": "event"
    },
    {
      "anonymous": false,
      "inputs": [
        {
          "indexed": true,
          "internalType": "address",
          "name": "from",
          "type": "address"
        },
        {
          "indexed": true,
          "internalType": "address",
          "name": "to",
          "type": "address"
        },
        {
          "indexed": true,
          "internalType": "uint256",
          "name": "tokenId",
          "type": "uint256"
        }
      ],
      "name": "Transfer",
      "type": "event"
    },
    {
      "inputs": [
        {
          "internalType": "uint256",
          "name": "_id",
          "type": "uint256"
        },
        {
          "internalType": "string",
          "name": "_newName",
          "type": "string"
        }
      ],
      "name": "changeName",
      "outputs": [],
      "stateMutability": "nonpayable",
      "type": "function"
    },
    {
      "inputs": [],
      "name": "getBlocktime",
      "outputs": [
        {
          "internalType": "uint256",
          "name": "",
          "type": "uint256"
        }
      ],
      "stateMutability": "view",
      "type": "function"
    },
    {
      "inputs": [
        {
          "internalType": "uint256",
          "name": "_playerId",
          "type": "uint256"
        }
      ],
      "name": "getPlayer",
      "outputs": [
        {
          "components": [
            {
              "internalType": "uint256",
              "name": "level",
              "type": "uint256"
            },
            {
              "internalType": "uint256",
              "name": "xp",
              "type": "uint256"
            },
            {
              "internalType": "uint256",
              "name": "status",
              "type": "uint256"
            },
            {
              "internalType": "uint256",
              "name": "strength",
              "type": "uint256"
            },
            {
              "internalType": "uint256",
              "name": "health",
              "type": "uint256"
            },
            {
              "internalType": "uint256",
              "name": "currentHealth",
              "type": "uint256"
            },
            {
              "internalType": "uint256",
              "name": "magic",
              "type": "uint256"
            },
            {
              "internalType": "uint256",
              "name": "mana",
              "type": "uint256"
            },
            {
              "internalType": "uint256",
              "name": "maxMana",
              "type": "uint256"
            },
            {
              "internalType": "uint256",
              "name": "agility",
              "type": "uint256"
            },
            {
              "internalType": "uint256",
              "name": "luck",
              "type": "uint256"
            },
            {
              "internalType": "uint256",
              "name": "wisdom",
              "type": "uint256"
            },
            {
              "internalType": "uint256",
              "name": "haki",
              "type": "uint256"
            },
            {
              "internalType": "uint256",
              "name": "perception",
              "type": "uint256"
            },
            {
              "internalType": "uint256",
              "name": "defense",
              "type": "uint256"
            },
            {
              "internalType": "string",
              "name": "name",
              "type": "string"
            },
            {
              "internalType": "string",
              "name": "uri",
              "type": "string"
            },
            {
              "internalType": "bool",
              "name": "male",
              "type": "bool"
            },
            {
              "components": [
                {
                  "internalType": "uint256",
                  "name": "head",
                  "type": "uint256"
                },
                {
                  "internalType": "uint256",
                  "name": "body",
                  "type": "uint256"
                },
                {
                  "internalType": "uint256",
                  "name": "leftHand",
                  "type": "uint256"
                },
                {
                  "internalType": "uint256",
                  "name": "rightHand",
                  "type": "uint256"
                },
                {
                  "internalType": "uint256",
                  "name": "pants",
                  "type": "uint256"
                },
                {
                  "internalType": "uint256",
                  "name": "feet",
                  "type": "uint256"
                },
                {
                  "internalType": "uint256",
                  "name": "neck",
                  "type": "uint256"
                }
              ],
              "internalType": "struct PlayerSlotLib.Slot",
              "name": "slot",
              "type": "tuple"
            },
            {
              "internalType": "uint256",
              "name": "playerClass",
              "type": "uint256"
            }
          ],
          "internalType": "struct PlayerSlotLib.Player",
          "name": "player",
          "type": "tuple"
        }
      ],
      "stateMutability": "view",
      "type": "function"
    },
    {
      "inputs": [
        {
          "internalType": "address",
          "name": "_address",
          "type": "address"
        }
      ],
      "name": "getPlayers",
      "outputs": [
        {
          "internalType": "uint256[]",
          "name": "",
          "type": "uint256[]"
        }
      ],
      "stateMutability": "view",
      "type": "function"
    },
    {
      "inputs": [
        {
          "internalType": "uint256",
          "name": "_playerId",
          "type": "uint256"
        },
        {
          "internalType": "uint256",
          "name": "_stat",
          "type": "uint256"
        }
      ],
      "name": "levelUp",
      "outputs": [],
      "stateMutability": "nonpayable",
      "type": "function"
    },
    {
      "inputs": [
        {
          "internalType": "string",
          "name": "_name",
          "type": "string"
        },
        {
          "internalType": "bool",
          "name": "_isMale",
          "type": "bool"
        },
        {
          "internalType": "uint256",
          "name": "_class",
          "type": "uint256"
        }
      ],
      "name": "mint",
      "outputs": [],
      "stateMutability": "payable",
      "type": "function"
    },
    {
      "inputs": [
        {
          "internalType": "string",
          "name": "_name",
          "type": "string"
        }
      ],
      "name": "nameAvailable",
      "outputs": [
        {
          "internalType": "bool",
          "name": "available",
          "type": "bool"
        }
      ],
      "stateMutability": "view",
      "type": "function"
    },
    {
      "inputs": [
        {
          "internalType": "uint256",
          "name": "_playerId",
          "type": "uint256"
        }
      ],
      "name": "ownerOfPlayer",
      "outputs": [
        {
          "internalType": "address",
          "name": "owner",
          "type": "address"
        }
      ],
      "stateMutability": "view",
      "type": "function"
    },
    {
      "inputs": [],
      "name": "playerCount",
      "outputs": [
        {
          "internalType": "uint256",
          "name": "",
          "type": "uint256"
        }
      ],
      "stateMutability": "view",
      "type": "function"
    }
  ],
  "bytecode": "0x608060405234801561001057600080fd5b50613397806100206000396000f3fe6080604052600436106100865760003560e01c806382bbdbec1161005957806382bbdbec146101475780639c5538c214610184578063bfcc8b6d146101a0578063c39cbef1146101dd578063e55ae4e81461020657610086565b80630501b79f1461008b578063302bcc57146100b65780635226dc93146100e15780637a80b6b41461010a575b600080fd5b34801561009757600080fd5b506100a0610243565b6040516100ad91906120a7565b60405180910390f35b3480156100c257600080fd5b506100cb61024b565b6040516100d891906120a7565b60405180910390f35b3480156100ed57600080fd5b5061010860048036038101906101039190612102565b61025a565b005b34801561011657600080fd5b50610131600480360381019061012c91906121a0565b610296565b60405161013e919061228b565b60405180910390f35b34801561015357600080fd5b5061016e600480360381019061016991906123f3565b6102a8565b60405161017b9190612457565b60405180910390f35b61019e6004803603810190610199919061249e565b6102ba565b005b3480156101ac57600080fd5b506101c760048036038101906101c2919061250d565b610416565b6040516101d49190612549565b60405180910390f35b3480156101e957600080fd5b5061020460048036038101906101ff9190612564565b610428565b005b34801561021257600080fd5b5061022d6004803603810190610228919061250d565b610490565b60405161023a919061288f565b60405180910390f35b600042905090565b60006102556104a8565b905090565b61026482826104c0565b80827f3b7ca85b5e3d1ebb3a81e8d9e27bfeb9ef2f447026c115421132a20b0733b73f60405160405180910390a35050565b60606102a1826109bb565b9050919050565b60006102b382610a61565b9050919050565b60006638d7ea4c6800009050803410156102d357600080fd5b60007308d8e680a2d295af8cbcd8b8e07f900275bc6b8d90506000808273ffffffffffffffffffffffffffffffffffffffff1634604051610313906128e2565b60006040518083038185875af1925050503d8060008114610350576040519150601f19603f3d011682016040523d82523d6000602084013e610355565b606091505b50915091508161039a576040517f08c379a000000000000000000000000000000000000000000000000000000000815260040161039190612954565b60405180910390fd5b6103a5878787610aa4565b60006103af61024b565b90503373ffffffffffffffffffffffffffffffffffffffff16817fcb5aab6c0bec1e5513425dfaad4acfbca112f8b0ffe1027bd614e3d98a3ee5d28a896040516103fa9291906129ad565b60405180910390a361040c33826114f4565b5050505050505050565b600061042182611512565b9050919050565b610432828261155d565b806040516104409190612a19565b6040518091039020823373ffffffffffffffffffffffffffffffffffffffff167fe4ce50a62b6cbb7d19acd75fd57f7e2588dd09705647d97993e2ece872c305b260405160405180910390a45050565b610498611fb0565b6104a182611811565b9050919050565b6000806104b3611a87565b9050806001015491505090565b60006104ca611a87565b905060008160030160008581526020019081526020016000206040518061028001604052908160008201548152602001600182015481526020016002820154815260200160038201548152602001600482015481526020016005820154815260200160068201548152602001600782015481526020016008820154815260200160098201548152602001600a8201548152602001600b8201548152602001600c8201548152602001600d8201548152602001600e8201548152602001600f8201805461059590612a5f565b80601f01602080910402602001604051908101604052809291908181526020018280546105c190612a5f565b801561060e5780601f106105e35761010080835404028352916020019161060e565b820191906000526020600020905b8154815290600101906020018083116105f157829003601f168201915b5050505050815260200160108201805461062790612a5f565b80601f016020809104026020016040519081016040528092919081815260200182805461065390612a5f565b80156106a05780601f10610675576101008083540402835291602001916106a0565b820191906000526020600020905b81548152906001019060200180831161068357829003601f168201915b505050505081526020016011820160009054906101000a900460ff16151515158152602001601282016040518060e001604052908160008201548152602001600182015481526020016002820154815260200160038201548152602001600482015481526020016005820154815260200160068201548152505081526020016019820154815250509050600a816000015161073b9190612abf565b8160200151101561074b57600080fd5b6000830361078657816003016000858152602001908152602001600020600301600081548092919061077c90612b01565b9190505550610916565b600183036107c15781600301600085815260200190815260200160002060040160008154809291906107b790612b01565b9190505550610915565b600283036107fc5781600301600085815260200190815260200160002060090160008154809291906107f290612b01565b9190505550610914565b6003830361083757816003016000858152602001908152602001600020600601600081548092919061082d90612b01565b9190505550610913565b6004830361087257816003016000858152602001908152602001600020600e01600081548092919061086890612b01565b9190505550610912565b600583036108ad57816003016000858152602001908152602001600020600a0160008154809291906108a390612b01565b9190505550610911565b81600301600085815260200190815260200160002060080160008154809291906108d690612b01565b919050555081600301600085815260200190815260200160002060080154826003016000868152602001908152602001600020600701819055505b5b5b5b5b5b8160030160008581526020019081526020016000206004015482600301600086815260200190815260200160002060050181905550600a816000015161095c9190612abf565b816020015161096b9190612b49565b8260030160008681526020019081526020016000206001018190555081600301600085815260200190815260200160002060000160008154809291906109b090612b01565b919050555050505050565b606060006109c7611a87565b90508060070160008473ffffffffffffffffffffffffffffffffffffffff1673ffffffffffffffffffffffffffffffffffffffff168152602001908152602001600020805480602002602001604051908101604052809291908181526020018280548015610a5457602002820191906000526020600020905b815481526020019060010190808311610a40575b5050505050915050919050565b600080610a6c611a87565b90508060060183604051610a809190612a19565b908152602001604051809103902060009054906101000a900460ff16915050919050565b6000610aae611a87565b9050611f4081600101541115610ac357600080fd5b8060060184604051610ad59190612a19565b908152602001604051809103902060009054906101000a900460ff1615610b31576040517f08c379a0000000000000000000000000000000000000000000000000000000008152600401610b2890612bc9565b60405180910390fd5b6002821115610b3f57600080fd5b600a84511115610b4e57600080fd5b600384511015610b5d57600080fd5b806001016000815480929190610b7290612b01565b9190505550606060008303610dfb5783610ba75760405180608001604052806043815260200161325660439139905080610bc4565b60405180608001604052806043815260200161331f604391399050805b50604051806102800160405280600181526020016000815260200160008152602001600b8152602001600c8152602001600c8152602001600a8152602001600a8152602001600a8152602001600a815260200160018152602001600181526020016001815260200160018152602001600b815260200186815260200182815260200185151581526020016040518060e00160405280600081526020016000815260200160008152602001600081526020016000815260200160008152602001600081525081526020018481525082600301600084600101548152602001908152602001600020600082015181600001556020820151816001015560408201518160020155606082015181600301556080820151816004015560a0820151816005015560c0820151816006015560e082015181600701556101008201518160080155610120820151816009015561014082015181600a015561016082015181600b015561018082015181600c01556101a082015181600d01556101c082015181600e01556101e082015181600f019081610d5d9190612d95565b50610200820151816010019081610d749190612d95565b506102208201518160110160006101000a81548160ff02191690831515021790555061024082015181601201600082015181600001556020820151816001015560408201518160020155606082015181600301556080820151816004015560a0820151816005015560c08201518160060155505061026082015181601901559050506112fd565b6001830361107d5783610e29576040518060800160405280604381526020016132dc60439139905080610e46565b604051806080016040528060438152602001613299604391399050805b50604051806102800160405280600181526020016000815260200160008152602001600b8152602001600b8152602001600b8152602001600a8152602001600a8152602001600a8152602001600c815260200160018152602001600181526020016001815260200160018152602001600a815260200186815260200182815260200185151581526020016040518060e00160405280600081526020016000815260200160008152602001600081526020016000815260200160008152602001600081525081526020018481525082600301600084600101548152602001908152602001600020600082015181600001556020820151816001015560408201518160020155606082015181600301556080820151816004015560a0820151816005015560c0820151816006015560e082015181600701556101008201518160080155610120820151816009015561014082015181600a015561016082015181600b015561018082015181600c01556101a082015181600d01556101c082015181600e01556101e082015181600f019081610fdf9190612d95565b50610200820151816010019081610ff69190612d95565b506102208201518160110160006101000a81548160ff02191690831515021790555061024082015181601201600082015181600001556020820151816001015560408201518160020155606082015181600301556080820151816004015560a0820151816005015560c08201518160060155505061026082015181601901559050506112fc565b600283036112fb57836110ab57604051806080016040528060438152602001613213604391399050806110c8565b6040518060800160405280604381526020016131d0604391399050805b50604051806102800160405280600181526020016000815260200160008152602001600a8152602001600a8152602001600a8152602001600c8152602001600c8152602001600c8152602001600a815260200160018152602001600181526020016001815260200160018152602001600a815260200186815260200182815260200185151581526020016040518060e00160405280600081526020016000815260200160008152602001600081526020016000815260200160008152602001600081525081526020018481525082600301600084600101548152602001908152602001600020600082015181600001556020820151816001015560408201518160020155606082015181600301556080820151816004015560a0820151816005015560c0820151816006015560e082015181600701556101008201518160080155610120820151816009015561014082015181600a015561016082015181600b015561018082015181600c01556101a082015181600d01556101c082015181600e01556101e082015181600f0190816112619190612d95565b506102008201518160100190816112789190612d95565b506102208201518160110160006101000a81548160ff02191690831515021790555061024082015181601201600082015181600001556020820151816001015560408201518160020155606082015181600301556080820151816004015560a0820151816005015560c08201518160060155505061026082015181601901559050505b5b5b6040518060e00160405280600081526020016000815260200160008152602001600081526020016000815260200160008152602001600081525082600801600084600101548152602001908152602001600020600082015181600001556020820151816001015560408201518160020155606082015181600301556080820151816004015560a0820151816005015560c08201518160060155905050600182600601866040516113ad9190612a19565b908152602001604051809103902060006101000a81548160ff021916908315150217905550338260020160008460010154815260200190815260200160002060006101000a81548173ffffffffffffffffffffffffffffffffffffffff021916908373ffffffffffffffffffffffffffffffffffffffff1602179055508160070160003373ffffffffffffffffffffffffffffffffffffffff1673ffffffffffffffffffffffffffffffffffffffff168152602001908152602001600020826001015490806001815401808255809150506001900390600052602060002001600090919091909150558160040160003373ffffffffffffffffffffffffffffffffffffffff1673ffffffffffffffffffffffffffffffffffffffff16815260200190815260200160002060008154809291906114e890612b01565b91905055505050505050565b61150e828260405180602001604052806000815250611ab4565b5050565b60008061151d611a87565b905080600201600084815260200190815260200160002060009054906101000a900473ffffffffffffffffffffffffffffffffffffffff16915050919050565b6000611567611a87565b90503373ffffffffffffffffffffffffffffffffffffffff1681600201600085815260200190815260200160002060009054906101000a900473ffffffffffffffffffffffffffffffffffffffff1673ffffffffffffffffffffffffffffffffffffffff16146115d657600080fd5b80600601826040516115e89190612a19565b908152602001604051809103902060009054906101000a900460ff1615611644576040517f08c379a000000000000000000000000000000000000000000000000000000000815260040161163b90612bc9565b60405180910390fd5b6003825111611688576040517f08c379a000000000000000000000000000000000000000000000000000000000815260040161167f90612eb3565b60405180910390fd5b600a8251106116cc576040517f08c379a00000000000000000000000000000000000000000000000000000000081526004016116c390612f1f565b60405180910390fd5b6000816003016000858152602001908152602001600020600f0180546116f190612a5f565b80601f016020809104026020016040519081016040528092919081815260200182805461171d90612a5f565b801561176a5780601f1061173f5761010080835404028352916020019161176a565b820191906000526020600020905b81548152906001019060200180831161174d57829003601f168201915b505050505090506000815111156117ac57816006018160405161178d9190612a19565b908152602001604051809103902060006101000a81549060ff02191690555b82826003016000868152602001908152602001600020600f0190816117d19190612d95565b50600182600601846040516117e69190612a19565b908152602001604051809103902060006101000a81548160ff02191690831515021790555050505050565b611819611fb0565b6000611823611a87565b90508060030160008481526020019081526020016000206040518061028001604052908160008201548152602001600182015481526020016002820154815260200160038201548152602001600482015481526020016005820154815260200160068201548152602001600782015481526020016008820154815260200160098201548152602001600a8201548152602001600b8201548152602001600c8201548152602001600d8201548152602001600e8201548152602001600f820180546118ec90612a5f565b80601f016020809104026020016040519081016040528092919081815260200182805461191890612a5f565b80156119655780601f1061193a57610100808354040283529160200191611965565b820191906000526020600020905b81548152906001019060200180831161194857829003601f168201915b5050505050815260200160108201805461197e90612a5f565b80601f01602080910402602001604051908101604052809291908181526020018280546119aa90612a5f565b80156119f75780601f106119cc576101008083540402835291602001916119f7565b820191906000526020600020905b8154815290600101906020018083116119da57829003601f168201915b505050505081526020016011820160009054906101000a900460ff16151515158152602001601282016040518060e00160405290816000820154815260200160018201548152602001600282015481526020016003820154815260200160048201548152602001600582015481526020016006820154815250508152602001601982015481525050915050919050565b6000807f3cab9a070a0c61cd0ae9d9e9e2c0781e5ca8691bec4087e5a4701d5ac018dd4e90508091505090565b611abe8383611b0f565b611acb6000848484611d3e565b611b0a576040517f08c379a0000000000000000000000000000000000000000000000000000000008152600401611b0190612fb1565b60405180910390fd5b505050565b600073ffffffffffffffffffffffffffffffffffffffff168273ffffffffffffffffffffffffffffffffffffffff1603611b7e576040517f08c379a0000000000000000000000000000000000000000000000000000000008152600401611b759061301d565b60405180910390fd5b611b8781611ec5565b15611bc7576040517f08c379a0000000000000000000000000000000000000000000000000000000008152600401611bbe90613089565b60405180910390fd5b611bd5600083836001611f06565b611bde81611ec5565b15611c1e576040517f08c379a0000000000000000000000000000000000000000000000000000000008152600401611c1590613089565b60405180910390fd5b6001611c28611f0c565b600a0160008473ffffffffffffffffffffffffffffffffffffffff1673ffffffffffffffffffffffffffffffffffffffff1681526020019081526020016000206000828254019250508190555081611c7e611f0c565b600901600083815260200190815260200160002060006101000a81548173ffffffffffffffffffffffffffffffffffffffff021916908373ffffffffffffffffffffffffffffffffffffffff160217905550808273ffffffffffffffffffffffffffffffffffffffff16600073ffffffffffffffffffffffffffffffffffffffff167fddf252ad1be2c89b69c2b068fc378daa952ba7f163c4a11628f55a4df523b3ef60405160405180910390a4611d3a600083836001611f39565b5050565b6000611d5f8473ffffffffffffffffffffffffffffffffffffffff16611f3f565b15611eb8578373ffffffffffffffffffffffffffffffffffffffff1663150b7a02611d88611f62565b8786866040518563ffffffff1660e01b8152600401611daa94939291906130fe565b6020604051808303816000875af1925050508015611de657506040513d601f19601f82011682018060405250810190611de391906131a2565b60015b611e68573d8060008114611e16576040519150601f19603f3d011682016040523d82523d6000602084013e611e1b565b606091505b506000815103611e60576040517f08c379a0000000000000000000000000000000000000000000000000000000008152600401611e5790612fb1565b60405180910390fd5b805181602001fd5b63150b7a0260e01b7bffffffffffffffffffffffffffffffffffffffffffffffffffffffff1916817bffffffffffffffffffffffffffffffffffffffffffffffffffffffff191614915050611ebd565b600190505b949350505050565b60008073ffffffffffffffffffffffffffffffffffffffff16611ee783611f6a565b73ffffffffffffffffffffffffffffffffffffffff1614159050919050565b50505050565b6000807f2569078dfb4b0305704d3008e7403993ae9601b85f7ae5e742de3de8f8011c4090508091505090565b50505050565b6000808273ffffffffffffffffffffffffffffffffffffffff163b119050919050565b600033905090565b6000611f74611f0c565b600901600083815260200190815260200160002060009054906101000a900473ffffffffffffffffffffffffffffffffffffffff169050919050565b6040518061028001604052806000815260200160008152602001600081526020016000815260200160008152602001600081526020016000815260200160008152602001600081526020016000815260200160008152602001600081526020016000815260200160008152602001600081526020016060815260200160608152602001600015158152602001612044612051565b8152602001600081525090565b6040518060e00160405280600081526020016000815260200160008152602001600081526020016000815260200160008152602001600081525090565b6000819050919050565b6120a18161208e565b82525050565b60006020820190506120bc6000830184612098565b92915050565b6000604051905090565b600080fd5b600080fd5b6120df8161208e565b81146120ea57600080fd5b50565b6000813590506120fc816120d6565b92915050565b60008060408385031215612119576121186120cc565b5b6000612127858286016120ed565b9250506020612138858286016120ed565b9150509250929050565b600073ffffffffffffffffffffffffffffffffffffffff82169050919050565b600061216d82612142565b9050919050565b61217d81612162565b811461218857600080fd5b50565b60008135905061219a81612174565b92915050565b6000602082840312156121b6576121b56120cc565b5b60006121c48482850161218b565b91505092915050565b600081519050919050565b600082825260208201905092915050565b6000819050602082019050919050565b6122028161208e565b82525050565b600061221483836121f9565b60208301905092915050565b6000602082019050919050565b6000612238826121cd565b61224281856121d8565b935061224d836121e9565b8060005b8381101561227e5781516122658882612208565b975061227083612220565b925050600181019050612251565b5085935050505092915050565b600060208201905081810360008301526122a5818461222d565b905092915050565b600080fd5b600080fd5b6000601f19601f8301169050919050565b7f4e487b7100000000000000000000000000000000000000000000000000000000600052604160045260246000fd5b612300826122b7565b810181811067ffffffffffffffff8211171561231f5761231e6122c8565b5b80604052505050565b60006123326120c2565b905061233e82826122f7565b919050565b600067ffffffffffffffff82111561235e5761235d6122c8565b5b612367826122b7565b9050602081019050919050565b82818337600083830152505050565b600061239661239184612343565b612328565b9050828152602081018484840111156123b2576123b16122b2565b5b6123bd848285612374565b509392505050565b600082601f8301126123da576123d96122ad565b5b81356123ea848260208601612383565b91505092915050565b600060208284031215612409576124086120cc565b5b600082013567ffffffffffffffff811115612427576124266120d1565b5b612433848285016123c5565b91505092915050565b60008115159050919050565b6124518161243c565b82525050565b600060208201905061246c6000830184612448565b92915050565b61247b8161243c565b811461248657600080fd5b50565b60008135905061249881612472565b92915050565b6000806000606084860312156124b7576124b66120cc565b5b600084013567ffffffffffffffff8111156124d5576124d46120d1565b5b6124e1868287016123c5565b93505060206124f286828701612489565b9250506040612503868287016120ed565b9150509250925092565b600060208284031215612523576125226120cc565b5b6000612531848285016120ed565b91505092915050565b61254381612162565b82525050565b600060208201905061255e600083018461253a565b92915050565b6000806040838503121561257b5761257a6120cc565b5b6000612589858286016120ed565b925050602083013567ffffffffffffffff8111156125aa576125a96120d1565b5b6125b6858286016123c5565b9150509250929050565b600081519050919050565b600082825260208201905092915050565b60005b838110156125fa5780820151818401526020810190506125df565b60008484015250505050565b6000612611826125c0565b61261b81856125cb565b935061262b8185602086016125dc565b612634816122b7565b840191505092915050565b6126488161243c565b82525050565b60e08201600082015161266460008501826121f9565b50602082015161267760208501826121f9565b50604082015161268a60408501826121f9565b50606082015161269d60608501826121f9565b5060808201516126b060808501826121f9565b5060a08201516126c360a08501826121f9565b5060c08201516126d660c08501826121f9565b50505050565b6000610340830160008301516126f560008601826121f9565b50602083015161270860208601826121f9565b50604083015161271b60408601826121f9565b50606083015161272e60608601826121f9565b50608083015161274160808601826121f9565b5060a083015161275460a08601826121f9565b5060c083015161276760c08601826121f9565b5060e083015161277a60e08601826121f9565b5061010083015161278f6101008601826121f9565b506101208301516127a46101208601826121f9565b506101408301516127b96101408601826121f9565b506101608301516127ce6101608601826121f9565b506101808301516127e36101808601826121f9565b506101a08301516127f86101a08601826121f9565b506101c083015161280d6101c08601826121f9565b506101e08301518482036101e08601526128278282612606565b9150506102008301518482036102008601526128438282612606565b91505061022083015161285a61022086018261263f565b5061024083015161286f61024086018261264e565b506102608301516128846103208601826121f9565b508091505092915050565b600060208201905081810360008301526128a981846126dc565b905092915050565b600081905092915050565b50565b60006128cc6000836128b1565b91506128d7826128bc565b600082019050919050565b60006128ed826128bf565b9150819050919050565b600082825260208201905092915050565b7f4661696c656420746f2073656e64204574686572000000000000000000000000600082015250565b600061293e6014836128f7565b915061294982612908565b602082019050919050565b6000602082019050818103600083015261296d81612931565b9050919050565b600061297f826125c0565b61298981856128f7565b93506129998185602086016125dc565b6129a2816122b7565b840191505092915050565b600060408201905081810360008301526129c78185612974565b90506129d66020830184612098565b9392505050565b600081905092915050565b60006129f3826125c0565b6129fd81856129dd565b9350612a0d8185602086016125dc565b80840191505092915050565b6000612a2582846129e8565b915081905092915050565b7f4e487b7100000000000000000000000000000000000000000000000000000000600052602260045260246000fd5b60006002820490506001821680612a7757607f821691505b602082108103612a8a57612a89612a30565b5b50919050565b7f4e487b7100000000000000000000000000000000000000000000000000000000600052601160045260246000fd5b6000612aca8261208e565b9150612ad58361208e565b9250828202612ae38161208e565b91508282048414831517612afa57612af9612a90565b5b5092915050565b6000612b0c8261208e565b91507fffffffffffffffffffffffffffffffffffffffffffffffffffffffffffffffff8203612b3e57612b3d612a90565b5b600182019050919050565b6000612b548261208e565b9150612b5f8361208e565b9250828203905081811115612b7757612b76612a90565b5b92915050565b7f6e616d652069732074616b656e00000000000000000000000000000000000000600082015250565b6000612bb3600d836128f7565b9150612bbe82612b7d565b602082019050919050565b60006020820190508181036000830152612be281612ba6565b9050919050565b60008190508160005260206000209050919050565b60006020601f8301049050919050565b600082821b905092915050565b600060088302612c4b7fffffffffffffffffffffffffffffffffffffffffffffffffffffffffffffffff82612c0e565b612c558683612c0e565b95508019841693508086168417925050509392505050565b6000819050919050565b6000612c92612c8d612c888461208e565b612c6d565b61208e565b9050919050565b6000819050919050565b612cac83612c77565b612cc0612cb882612c99565b848454612c1b565b825550505050565b600090565b612cd5612cc8565b612ce0818484612ca3565b505050565b5b81811015612d0457612cf9600082612ccd565b600181019050612ce6565b5050565b601f821115612d4957612d1a81612be9565b612d2384612bfe565b81016020851015612d32578190505b612d46612d3e85612bfe565b830182612ce5565b50505b505050565b600082821c905092915050565b6000612d6c60001984600802612d4e565b1980831691505092915050565b6000612d858383612d5b565b9150826002028217905092915050565b612d9e826125c0565b67ffffffffffffffff811115612db757612db66122c8565b5b612dc18254612a5f565b612dcc828285612d08565b600060209050601f831160018114612dff5760008415612ded578287015190505b612df78582612d79565b865550612e5f565b601f198416612e0d86612be9565b60005b82811015612e3557848901518255600182019150602085019450602081019050612e10565b86831015612e525784890151612e4e601f891682612d5b565b8355505b6001600288020188555050505b505050505050565b7f43616e6e6f74207061737320616e20656d707479206861736800000000000000600082015250565b6000612e9d6019836128f7565b9150612ea882612e67565b602082019050919050565b60006020820190508181036000830152612ecc81612e90565b9050919050565b7f43616e6e6f74206265206c6f6e676572207468616e2031302063686172730000600082015250565b6000612f09601e836128f7565b9150612f1482612ed3565b602082019050919050565b60006020820190508181036000830152612f3881612efc565b9050919050565b7f4552433732313a207472616e7366657220746f206e6f6e20455243373231526560008201527f63656976657220696d706c656d656e7465720000000000000000000000000000602082015250565b6000612f9b6032836128f7565b9150612fa682612f3f565b604082019050919050565b60006020820190508181036000830152612fca81612f8e565b9050919050565b7f4552433732313a206d696e7420746f20746865207a65726f2061646472657373600082015250565b60006130076020836128f7565b915061301282612fd1565b602082019050919050565b6000602082019050818103600083015261303681612ffa565b9050919050565b7f4552433732313a20746f6b656e20616c7265616479206d696e74656400000000600082015250565b6000613073601c836128f7565b915061307e8261303d565b602082019050919050565b600060208201905081810360008301526130a281613066565b9050919050565b600081519050919050565b600082825260208201905092915050565b60006130d0826130a9565b6130da81856130b4565b93506130ea8185602086016125dc565b6130f3816122b7565b840191505092915050565b6000608082019050613113600083018761253a565b613120602083018661253a565b61312d6040830185612098565b818103606083015261313f81846130c5565b905095945050505050565b60007fffffffff0000000000000000000000000000000000000000000000000000000082169050919050565b61317f8161314a565b811461318a57600080fd5b50565b60008151905061319c81613176565b92915050565b6000602082840312156131b8576131b76120cc565b5b60006131c68482850161318d565b9150509291505056fe68747470733a2f2f697066732e696f2f697066732f516d556257785564387358344d5a6f6a4b455255506d507539597441596659726f425334546531484a454b75637968747470733a2f2f697066732e696f2f697066732f516d625641427439734b704e55613844674d4a64653344424351796f72534354395631447a6436634a385a556d5068747470733a2f2f697066732e696f2f697066732f516d66424e4870787077554e67747736695842784b584c6256786f6d386d7064427367715a5a79353970524d354368747470733a2f2f697066732e696f2f697066732f516d5158655965397278526b6b716645423744725a52534732533179724e676a363456386d3676374b65747a516468747470733a2f2f697066732e696f2f697066732f516d55715a4b5275646e616e673147586244326e4848776d4a664e4e42465156646d6f483857416e65616969356868747470733a2f2f697066732e696f2f697066732f516d56357053734d47474d4c5733593979513871534c534d4451616b646e6a686a53346b356865366d4a79506548a2646970667358221220c54b1c36f161ccffef7d9cb6cb497866e058c29bbc6e1eef2c062364092d99f764736f6c63430008120033",
  "linkReferences": {},
  "deployedLinkReferences": {}
}