{
  "_format": "hh-sol-artifact-1",
  "contractName": "PlayerFacet",
  "sourceName": "contracts/facets/PlayerFacet.sol",
  "abi": [
    {
      "anonymous": false,
      "inputs": [
        {
          "indexed": true,
          "internalType": "address",
          "name": "owner",
          "type": "address"
        },
        {
          "indexed": true,
          "internalType": "address",
          "name": "approved",
          "type": "address"
        },
        {
          "indexed": true,
          "internalType": "uint256",
          "name": "tokenId",
          "type": "uint256"
        }
      ],
      "name": "Approval",
      "type": "event"
    },
    {
      "anonymous": false,
      "inputs": [
        {
          "indexed": true,
          "internalType": "address",
          "name": "owner",
          "type": "address"
        },
        {
          "indexed": true,
          "internalType": "address",
          "name": "operator",
          "type": "address"
        },
        {
          "indexed": false,
          "internalType": "bool",
          "name": "approved",
          "type": "bool"
        }
      ],
      "name": "ApprovalForAll",
      "type": "event"
    },
    {
      "anonymous": false,
      "inputs": [
        {
          "indexed": true,
          "internalType": "uint256",
          "name": "_playerId",
          "type": "uint256"
        },
        {
          "indexed": true,
          "internalType": "uint256",
          "name": "_stat",
          "type": "uint256"
        }
      ],
      "name": "LevelUp",
      "type": "event"
    },
    {
      "anonymous": false,
      "inputs": [
        {
          "indexed": true,
          "internalType": "uint256",
          "name": "id",
          "type": "uint256"
        },
        {
          "indexed": true,
          "internalType": "address",
          "name": "owner",
          "type": "address"
        },
        {
          "indexed": false,
          "internalType": "string",
          "name": "name",
          "type": "string"
        },
        {
          "indexed": false,
          "internalType": "uint256",
          "name": "_class",
          "type": "uint256"
        }
      ],
      "name": "Mint",
      "type": "event"
    },
    {
      "anonymous": false,
      "inputs": [
        {
          "indexed": true,
          "internalType": "address",
          "name": "owner",
          "type": "address"
        },
        {
          "indexed": true,
          "internalType": "uint256",
          "name": "id",
          "type": "uint256"
        },
        {
          "indexed": true,
          "internalType": "string",
          "name": "newName",
          "type": "string"
        }
      ],
      "name": "NameChange",
      "type": "event"
    },
    {
      "anonymous": false,
      "inputs": [
        {
          "indexed": true,
          "internalType": "address",
          "name": "from",
          "type": "address"
        },
        {
          "indexed": true,
          "internalType": "address",
          "name": "to",
          "type": "address"
        },
        {
          "indexed": true,
          "internalType": "uint256",
          "name": "tokenId",
          "type": "uint256"
        }
      ],
      "name": "Transfer",
      "type": "event"
    },
    {
      "inputs": [
        {
          "internalType": "uint256",
          "name": "_id",
          "type": "uint256"
        },
        {
          "internalType": "string",
          "name": "_newName",
          "type": "string"
        }
      ],
      "name": "changeName",
      "outputs": [],
      "stateMutability": "nonpayable",
      "type": "function"
    },
    {
      "inputs": [],
      "name": "getBlocktime",
      "outputs": [
        {
          "internalType": "uint256",
          "name": "",
          "type": "uint256"
        }
      ],
      "stateMutability": "view",
      "type": "function"
    },
    {
      "inputs": [
        {
          "internalType": "uint256",
          "name": "_playerId",
          "type": "uint256"
        }
      ],
      "name": "getPlayer",
      "outputs": [
        {
          "components": [
            {
              "internalType": "uint256",
              "name": "level",
              "type": "uint256"
            },
            {
              "internalType": "uint256",
              "name": "xp",
              "type": "uint256"
            },
            {
              "internalType": "uint256",
              "name": "status",
              "type": "uint256"
            },
            {
              "internalType": "uint256",
              "name": "strength",
              "type": "uint256"
            },
            {
              "internalType": "uint256",
              "name": "health",
              "type": "uint256"
            },
            {
              "internalType": "uint256",
              "name": "currentHealth",
              "type": "uint256"
            },
            {
              "internalType": "uint256",
              "name": "magic",
              "type": "uint256"
            },
            {
              "internalType": "uint256",
              "name": "mana",
              "type": "uint256"
            },
            {
              "internalType": "uint256",
              "name": "maxMana",
              "type": "uint256"
            },
            {
              "internalType": "uint256",
              "name": "agility",
              "type": "uint256"
            },
            {
              "internalType": "uint256",
              "name": "luck",
              "type": "uint256"
            },
            {
              "internalType": "uint256",
              "name": "wisdom",
              "type": "uint256"
            },
            {
              "internalType": "uint256",
              "name": "haki",
              "type": "uint256"
            },
            {
              "internalType": "uint256",
              "name": "perception",
              "type": "uint256"
            },
            {
              "internalType": "uint256",
              "name": "defense",
              "type": "uint256"
            },
            {
              "internalType": "string",
              "name": "name",
              "type": "string"
            },
            {
              "internalType": "string",
              "name": "uri",
              "type": "string"
            },
            {
              "internalType": "bool",
              "name": "male",
              "type": "bool"
            },
            {
              "components": [
                {
                  "internalType": "uint256",
                  "name": "head",
                  "type": "uint256"
                },
                {
                  "internalType": "uint256",
                  "name": "body",
                  "type": "uint256"
                },
                {
                  "internalType": "uint256",
                  "name": "leftHand",
                  "type": "uint256"
                },
                {
                  "internalType": "uint256",
                  "name": "rightHand",
                  "type": "uint256"
                },
                {
                  "internalType": "uint256",
                  "name": "pants",
                  "type": "uint256"
                },
                {
                  "internalType": "uint256",
                  "name": "feet",
                  "type": "uint256"
                },
                {
                  "internalType": "uint256",
                  "name": "neck",
                  "type": "uint256"
                }
              ],
              "internalType": "struct PlayerSlotLib.Slot",
              "name": "slot",
              "type": "tuple"
            },
            {
              "internalType": "uint256",
              "name": "playerClass",
              "type": "uint256"
            }
          ],
          "internalType": "struct PlayerSlotLib.Player",
          "name": "player",
          "type": "tuple"
        }
      ],
      "stateMutability": "view",
      "type": "function"
    },
    {
      "inputs": [
        {
          "internalType": "address",
          "name": "_address",
          "type": "address"
        }
      ],
      "name": "getPlayers",
      "outputs": [
        {
          "internalType": "uint256[]",
          "name": "",
          "type": "uint256[]"
        }
      ],
      "stateMutability": "view",
      "type": "function"
    },
    {
      "inputs": [
        {
          "internalType": "uint256",
          "name": "_playerId",
          "type": "uint256"
        },
        {
          "internalType": "uint256",
          "name": "_stat",
          "type": "uint256"
        }
      ],
      "name": "levelUp",
      "outputs": [],
      "stateMutability": "nonpayable",
      "type": "function"
    },
    {
      "inputs": [
        {
          "internalType": "string",
          "name": "_name",
          "type": "string"
        },
        {
          "internalType": "bool",
          "name": "_isMale",
          "type": "bool"
        },
        {
          "internalType": "uint256",
          "name": "_class",
          "type": "uint256"
        }
      ],
      "name": "mint",
      "outputs": [],
      "stateMutability": "payable",
      "type": "function"
    },
    {
      "inputs": [
        {
          "internalType": "string",
          "name": "_name",
          "type": "string"
        }
      ],
      "name": "nameAvailable",
      "outputs": [
        {
          "internalType": "bool",
          "name": "available",
          "type": "bool"
        }
      ],
      "stateMutability": "view",
      "type": "function"
    },
    {
      "inputs": [
        {
          "internalType": "uint256",
          "name": "_playerId",
          "type": "uint256"
        }
      ],
      "name": "ownerOfPlayer",
      "outputs": [
        {
          "internalType": "address",
          "name": "owner",
          "type": "address"
        }
      ],
      "stateMutability": "view",
      "type": "function"
    },
    {
      "inputs": [],
      "name": "playerCount",
      "outputs": [
        {
          "internalType": "uint256",
          "name": "",
          "type": "uint256"
        }
      ],
      "stateMutability": "view",
      "type": "function"
    }
  ],
  "bytecode": "0x608060405234801561001057600080fd5b50613235806100206000396000f3fe6080604052600436106100865760003560e01c806382bbdbec1161005957806382bbdbec146101475780639c5538c214610184578063bfcc8b6d146101a0578063c39cbef1146101dd578063e55ae4e81461020657610086565b80630501b79f1461008b578063302bcc57146100b65780635226dc93146100e15780637a80b6b41461010a575b600080fd5b34801561009757600080fd5b506100a0610243565b6040516100ad9190611ff7565b60405180910390f35b3480156100c257600080fd5b506100cb61024b565b6040516100d89190611ff7565b60405180910390f35b3480156100ed57600080fd5b5061010860048036038101906101039190612052565b61025a565b005b34801561011657600080fd5b50610131600480360381019061012c91906120f0565b610296565b60405161013e91906121db565b60405180910390f35b34801561015357600080fd5b5061016e60048036038101906101699190612343565b6102a8565b60405161017b91906123a7565b60405180910390f35b61019e600480360381019061019991906123ee565b6102ba565b005b3480156101ac57600080fd5b506101c760048036038101906101c2919061245d565b610366565b6040516101d49190612499565b60405180910390f35b3480156101e957600080fd5b5061020460048036038101906101ff91906124b4565b610378565b005b34801561021257600080fd5b5061022d6004803603810190610228919061245d565b6103e0565b60405161023a91906127df565b60405180910390f35b600042905090565b60006102556103f8565b905090565b6102648282610410565b80827f3b7ca85b5e3d1ebb3a81e8d9e27bfeb9ef2f447026c115421132a20b0733b73f60405160405180910390a35050565b60606102a18261090b565b9050919050565b60006102b3826109b1565b9050919050565b60006638d7ea4c6800009050803410156102d357600080fd5b60007308d8e680a2d295af8cbcd8b8e07f900275bc6b8d90506102f78585856109f4565b600061030161024b565b90503373ffffffffffffffffffffffffffffffffffffffff16817fcb5aab6c0bec1e5513425dfaad4acfbca112f8b0ffe1027bd614e3d98a3ee5d2888760405161034c92919061284b565b60405180910390a361035e3382611444565b505050505050565b600061037182611462565b9050919050565b61038282826114ad565b8060405161039091906128b7565b6040518091039020823373ffffffffffffffffffffffffffffffffffffffff167fe4ce50a62b6cbb7d19acd75fd57f7e2588dd09705647d97993e2ece872c305b260405160405180910390a45050565b6103e8611f00565b6103f182611761565b9050919050565b6000806104036119d7565b9050806001015491505090565b600061041a6119d7565b905060008160030160008581526020019081526020016000206040518061028001604052908160008201548152602001600182015481526020016002820154815260200160038201548152602001600482015481526020016005820154815260200160068201548152602001600782015481526020016008820154815260200160098201548152602001600a8201548152602001600b8201548152602001600c8201548152602001600d8201548152602001600e8201548152602001600f820180546104e5906128fd565b80601f0160208091040260200160405190810160405280929190818152602001828054610511906128fd565b801561055e5780601f106105335761010080835404028352916020019161055e565b820191906000526020600020905b81548152906001019060200180831161054157829003601f168201915b50505050508152602001601082018054610577906128fd565b80601f01602080910402602001604051908101604052809291908181526020018280546105a3906128fd565b80156105f05780601f106105c5576101008083540402835291602001916105f0565b820191906000526020600020905b8154815290600101906020018083116105d357829003601f168201915b505050505081526020016011820160009054906101000a900460ff16151515158152602001601282016040518060e001604052908160008201548152602001600182015481526020016002820154815260200160038201548152602001600482015481526020016005820154815260200160068201548152505081526020016019820154815250509050600a816000015161068b919061295d565b8160200151101561069b57600080fd5b600083036106d65781600301600085815260200190815260200160002060030160008154809291906106cc9061299f565b9190505550610866565b600183036107115781600301600085815260200190815260200160002060040160008154809291906107079061299f565b9190505550610865565b6002830361074c5781600301600085815260200190815260200160002060090160008154809291906107429061299f565b9190505550610864565b6003830361078757816003016000858152602001908152602001600020600601600081548092919061077d9061299f565b9190505550610863565b600483036107c257816003016000858152602001908152602001600020600e0160008154809291906107b89061299f565b9190505550610862565b600583036107fd57816003016000858152602001908152602001600020600a0160008154809291906107f39061299f565b9190505550610861565b81600301600085815260200190815260200160002060080160008154809291906108269061299f565b919050555081600301600085815260200190815260200160002060080154826003016000868152602001908152602001600020600701819055505b5b5b5b5b5b8160030160008581526020019081526020016000206004015482600301600086815260200190815260200160002060050181905550600a81600001516108ac919061295d565b81602001516108bb91906129e7565b8260030160008681526020019081526020016000206001018190555081600301600085815260200190815260200160002060000160008154809291906109009061299f565b919050555050505050565b606060006109176119d7565b90508060070160008473ffffffffffffffffffffffffffffffffffffffff1673ffffffffffffffffffffffffffffffffffffffff1681526020019081526020016000208054806020026020016040519081016040528092919081815260200182805480156109a457602002820191906000526020600020905b815481526020019060010190808311610990575b5050505050915050919050565b6000806109bc6119d7565b905080600601836040516109d091906128b7565b908152602001604051809103902060009054906101000a900460ff16915050919050565b60006109fe6119d7565b9050611f4081600101541115610a1357600080fd5b8060060184604051610a2591906128b7565b908152602001604051809103902060009054906101000a900460ff1615610a81576040517f08c379a0000000000000000000000000000000000000000000000000000000008152600401610a7890612a67565b60405180910390fd5b6002821115610a8f57600080fd5b600a84511115610a9e57600080fd5b600384511015610aad57600080fd5b806001016000815480929190610ac29061299f565b9190505550606060008303610d4b5783610af7576040518060800160405280604381526020016130f460439139905080610b14565b6040518060800160405280604381526020016131bd604391399050805b50604051806102800160405280600181526020016000815260200160008152602001600b8152602001600c8152602001600c8152602001600a8152602001600a8152602001600a8152602001600a815260200160018152602001600181526020016001815260200160018152602001600b815260200186815260200182815260200185151581526020016040518060e00160405280600081526020016000815260200160008152602001600081526020016000815260200160008152602001600081525081526020018481525082600301600084600101548152602001908152602001600020600082015181600001556020820151816001015560408201518160020155606082015181600301556080820151816004015560a0820151816005015560c0820151816006015560e082015181600701556101008201518160080155610120820151816009015561014082015181600a015561016082015181600b015561018082015181600c01556101a082015181600d01556101c082015181600e01556101e082015181600f019081610cad9190612c33565b50610200820151816010019081610cc49190612c33565b506102208201518160110160006101000a81548160ff02191690831515021790555061024082015181601201600082015181600001556020820151816001015560408201518160020155606082015181600301556080820151816004015560a0820151816005015560c082015181600601555050610260820151816019015590505061124d565b60018303610fcd5783610d795760405180608001604052806043815260200161317a60439139905080610d96565b604051806080016040528060438152602001613137604391399050805b50604051806102800160405280600181526020016000815260200160008152602001600b8152602001600b8152602001600b8152602001600a8152602001600a8152602001600a8152602001600c815260200160018152602001600181526020016001815260200160018152602001600a815260200186815260200182815260200185151581526020016040518060e00160405280600081526020016000815260200160008152602001600081526020016000815260200160008152602001600081525081526020018481525082600301600084600101548152602001908152602001600020600082015181600001556020820151816001015560408201518160020155606082015181600301556080820151816004015560a0820151816005015560c0820151816006015560e082015181600701556101008201518160080155610120820151816009015561014082015181600a015561016082015181600b015561018082015181600c01556101a082015181600d01556101c082015181600e01556101e082015181600f019081610f2f9190612c33565b50610200820151816010019081610f469190612c33565b506102208201518160110160006101000a81548160ff02191690831515021790555061024082015181601201600082015181600001556020820151816001015560408201518160020155606082015181600301556080820151816004015560a0820151816005015560c082015181600601555050610260820151816019015590505061124c565b6002830361124b5783610ffb576040518060800160405280604381526020016130b160439139905080611018565b60405180608001604052806043815260200161306e604391399050805b50604051806102800160405280600181526020016000815260200160008152602001600a8152602001600a8152602001600a8152602001600c8152602001600c8152602001600c8152602001600a815260200160018152602001600181526020016001815260200160018152602001600a815260200186815260200182815260200185151581526020016040518060e00160405280600081526020016000815260200160008152602001600081526020016000815260200160008152602001600081525081526020018481525082600301600084600101548152602001908152602001600020600082015181600001556020820151816001015560408201518160020155606082015181600301556080820151816004015560a0820151816005015560c0820151816006015560e082015181600701556101008201518160080155610120820151816009015561014082015181600a015561016082015181600b015561018082015181600c01556101a082015181600d01556101c082015181600e01556101e082015181600f0190816111b19190612c33565b506102008201518160100190816111c89190612c33565b506102208201518160110160006101000a81548160ff02191690831515021790555061024082015181601201600082015181600001556020820151816001015560408201518160020155606082015181600301556080820151816004015560a0820151816005015560c08201518160060155505061026082015181601901559050505b5b5b6040518060e00160405280600081526020016000815260200160008152602001600081526020016000815260200160008152602001600081525082600801600084600101548152602001908152602001600020600082015181600001556020820151816001015560408201518160020155606082015181600301556080820151816004015560a0820151816005015560c08201518160060155905050600182600601866040516112fd91906128b7565b908152602001604051809103902060006101000a81548160ff021916908315150217905550338260020160008460010154815260200190815260200160002060006101000a81548173ffffffffffffffffffffffffffffffffffffffff021916908373ffffffffffffffffffffffffffffffffffffffff1602179055508160070160003373ffffffffffffffffffffffffffffffffffffffff1673ffffffffffffffffffffffffffffffffffffffff168152602001908152602001600020826001015490806001815401808255809150506001900390600052602060002001600090919091909150558160040160003373ffffffffffffffffffffffffffffffffffffffff1673ffffffffffffffffffffffffffffffffffffffff16815260200190815260200160002060008154809291906114389061299f565b91905055505050505050565b61145e828260405180602001604052806000815250611a04565b5050565b60008061146d6119d7565b905080600201600084815260200190815260200160002060009054906101000a900473ffffffffffffffffffffffffffffffffffffffff16915050919050565b60006114b76119d7565b90503373ffffffffffffffffffffffffffffffffffffffff1681600201600085815260200190815260200160002060009054906101000a900473ffffffffffffffffffffffffffffffffffffffff1673ffffffffffffffffffffffffffffffffffffffff161461152657600080fd5b806006018260405161153891906128b7565b908152602001604051809103902060009054906101000a900460ff1615611594576040517f08c379a000000000000000000000000000000000000000000000000000000000815260040161158b90612a67565b60405180910390fd5b60038251116115d8576040517f08c379a00000000000000000000000000000000000000000000000000000000081526004016115cf90612d51565b60405180910390fd5b600a82511061161c576040517f08c379a000000000000000000000000000000000000000000000000000000000815260040161161390612dbd565b60405180910390fd5b6000816003016000858152602001908152602001600020600f018054611641906128fd565b80601f016020809104026020016040519081016040528092919081815260200182805461166d906128fd565b80156116ba5780601f1061168f576101008083540402835291602001916116ba565b820191906000526020600020905b81548152906001019060200180831161169d57829003601f168201915b505050505090506000815111156116fc5781600601816040516116dd91906128b7565b908152602001604051809103902060006101000a81549060ff02191690555b82826003016000868152602001908152602001600020600f0190816117219190612c33565b506001826006018460405161173691906128b7565b908152602001604051809103902060006101000a81548160ff02191690831515021790555050505050565b611769611f00565b60006117736119d7565b90508060030160008481526020019081526020016000206040518061028001604052908160008201548152602001600182015481526020016002820154815260200160038201548152602001600482015481526020016005820154815260200160068201548152602001600782015481526020016008820154815260200160098201548152602001600a8201548152602001600b8201548152602001600c8201548152602001600d8201548152602001600e8201548152602001600f8201805461183c906128fd565b80601f0160208091040260200160405190810160405280929190818152602001828054611868906128fd565b80156118b55780601f1061188a576101008083540402835291602001916118b5565b820191906000526020600020905b81548152906001019060200180831161189857829003601f168201915b505050505081526020016010820180546118ce906128fd565b80601f01602080910402602001604051908101604052809291908181526020018280546118fa906128fd565b80156119475780601f1061191c57610100808354040283529160200191611947565b820191906000526020600020905b81548152906001019060200180831161192a57829003601f168201915b505050505081526020016011820160009054906101000a900460ff16151515158152602001601282016040518060e00160405290816000820154815260200160018201548152602001600282015481526020016003820154815260200160048201548152602001600582015481526020016006820154815250508152602001601982015481525050915050919050565b6000807f3cab9a070a0c61cd0ae9d9e9e2c0781e5ca8691bec4087e5a4701d5ac018dd4e90508091505090565b611a0e8383611a5f565b611a1b6000848484611c8e565b611a5a576040517f08c379a0000000000000000000000000000000000000000000000000000000008152600401611a5190612e4f565b60405180910390fd5b505050565b600073ffffffffffffffffffffffffffffffffffffffff168273ffffffffffffffffffffffffffffffffffffffff1603611ace576040517f08c379a0000000000000000000000000000000000000000000000000000000008152600401611ac590612ebb565b60405180910390fd5b611ad781611e15565b15611b17576040517f08c379a0000000000000000000000000000000000000000000000000000000008152600401611b0e90612f27565b60405180910390fd5b611b25600083836001611e56565b611b2e81611e15565b15611b6e576040517f08c379a0000000000000000000000000000000000000000000000000000000008152600401611b6590612f27565b60405180910390fd5b6001611b78611e5c565b600a0160008473ffffffffffffffffffffffffffffffffffffffff1673ffffffffffffffffffffffffffffffffffffffff1681526020019081526020016000206000828254019250508190555081611bce611e5c565b600901600083815260200190815260200160002060006101000a81548173ffffffffffffffffffffffffffffffffffffffff021916908373ffffffffffffffffffffffffffffffffffffffff160217905550808273ffffffffffffffffffffffffffffffffffffffff16600073ffffffffffffffffffffffffffffffffffffffff167fddf252ad1be2c89b69c2b068fc378daa952ba7f163c4a11628f55a4df523b3ef60405160405180910390a4611c8a600083836001611e89565b5050565b6000611caf8473ffffffffffffffffffffffffffffffffffffffff16611e8f565b15611e08578373ffffffffffffffffffffffffffffffffffffffff1663150b7a02611cd8611eb2565b8786866040518563ffffffff1660e01b8152600401611cfa9493929190612f9c565b6020604051808303816000875af1925050508015611d3657506040513d601f19601f82011682018060405250810190611d339190613040565b60015b611db8573d8060008114611d66576040519150601f19603f3d011682016040523d82523d6000602084013e611d6b565b606091505b506000815103611db0576040517f08c379a0000000000000000000000000000000000000000000000000000000008152600401611da790612e4f565b60405180910390fd5b805181602001fd5b63150b7a0260e01b7bffffffffffffffffffffffffffffffffffffffffffffffffffffffff1916817bffffffffffffffffffffffffffffffffffffffffffffffffffffffff191614915050611e0d565b600190505b949350505050565b60008073ffffffffffffffffffffffffffffffffffffffff16611e3783611eba565b73ffffffffffffffffffffffffffffffffffffffff1614159050919050565b50505050565b6000807f2569078dfb4b0305704d3008e7403993ae9601b85f7ae5e742de3de8f8011c4090508091505090565b50505050565b6000808273ffffffffffffffffffffffffffffffffffffffff163b119050919050565b600033905090565b6000611ec4611e5c565b600901600083815260200190815260200160002060009054906101000a900473ffffffffffffffffffffffffffffffffffffffff169050919050565b6040518061028001604052806000815260200160008152602001600081526020016000815260200160008152602001600081526020016000815260200160008152602001600081526020016000815260200160008152602001600081526020016000815260200160008152602001600081526020016060815260200160608152602001600015158152602001611f94611fa1565b8152602001600081525090565b6040518060e00160405280600081526020016000815260200160008152602001600081526020016000815260200160008152602001600081525090565b6000819050919050565b611ff181611fde565b82525050565b600060208201905061200c6000830184611fe8565b92915050565b6000604051905090565b600080fd5b600080fd5b61202f81611fde565b811461203a57600080fd5b50565b60008135905061204c81612026565b92915050565b600080604083850312156120695761206861201c565b5b60006120778582860161203d565b92505060206120888582860161203d565b9150509250929050565b600073ffffffffffffffffffffffffffffffffffffffff82169050919050565b60006120bd82612092565b9050919050565b6120cd816120b2565b81146120d857600080fd5b50565b6000813590506120ea816120c4565b92915050565b6000602082840312156121065761210561201c565b5b6000612114848285016120db565b91505092915050565b600081519050919050565b600082825260208201905092915050565b6000819050602082019050919050565b61215281611fde565b82525050565b60006121648383612149565b60208301905092915050565b6000602082019050919050565b60006121888261211d565b6121928185612128565b935061219d83612139565b8060005b838110156121ce5781516121b58882612158565b97506121c083612170565b9250506001810190506121a1565b5085935050505092915050565b600060208201905081810360008301526121f5818461217d565b905092915050565b600080fd5b600080fd5b6000601f19601f8301169050919050565b7f4e487b7100000000000000000000000000000000000000000000000000000000600052604160045260246000fd5b61225082612207565b810181811067ffffffffffffffff8211171561226f5761226e612218565b5b80604052505050565b6000612282612012565b905061228e8282612247565b919050565b600067ffffffffffffffff8211156122ae576122ad612218565b5b6122b782612207565b9050602081019050919050565b82818337600083830152505050565b60006122e66122e184612293565b612278565b90508281526020810184848401111561230257612301612202565b5b61230d8482856122c4565b509392505050565b600082601f83011261232a576123296121fd565b5b813561233a8482602086016122d3565b91505092915050565b6000602082840312156123595761235861201c565b5b600082013567ffffffffffffffff81111561237757612376612021565b5b61238384828501612315565b91505092915050565b60008115159050919050565b6123a18161238c565b82525050565b60006020820190506123bc6000830184612398565b92915050565b6123cb8161238c565b81146123d657600080fd5b50565b6000813590506123e8816123c2565b92915050565b6000806000606084860312156124075761240661201c565b5b600084013567ffffffffffffffff81111561242557612424612021565b5b61243186828701612315565b9350506020612442868287016123d9565b92505060406124538682870161203d565b9150509250925092565b6000602082840312156124735761247261201c565b5b60006124818482850161203d565b91505092915050565b612493816120b2565b82525050565b60006020820190506124ae600083018461248a565b92915050565b600080604083850312156124cb576124ca61201c565b5b60006124d98582860161203d565b925050602083013567ffffffffffffffff8111156124fa576124f9612021565b5b61250685828601612315565b9150509250929050565b600081519050919050565b600082825260208201905092915050565b60005b8381101561254a57808201518184015260208101905061252f565b60008484015250505050565b600061256182612510565b61256b818561251b565b935061257b81856020860161252c565b61258481612207565b840191505092915050565b6125988161238c565b82525050565b60e0820160008201516125b46000850182612149565b5060208201516125c76020850182612149565b5060408201516125da6040850182612149565b5060608201516125ed6060850182612149565b5060808201516126006080850182612149565b5060a082015161261360a0850182612149565b5060c082015161262660c0850182612149565b50505050565b6000610340830160008301516126456000860182612149565b5060208301516126586020860182612149565b50604083015161266b6040860182612149565b50606083015161267e6060860182612149565b5060808301516126916080860182612149565b5060a08301516126a460a0860182612149565b5060c08301516126b760c0860182612149565b5060e08301516126ca60e0860182612149565b506101008301516126df610100860182612149565b506101208301516126f4610120860182612149565b50610140830151612709610140860182612149565b5061016083015161271e610160860182612149565b50610180830151612733610180860182612149565b506101a08301516127486101a0860182612149565b506101c083015161275d6101c0860182612149565b506101e08301518482036101e08601526127778282612556565b9150506102008301518482036102008601526127938282612556565b9150506102208301516127aa61022086018261258f565b506102408301516127bf61024086018261259e565b506102608301516127d4610320860182612149565b508091505092915050565b600060208201905081810360008301526127f9818461262c565b905092915050565b600082825260208201905092915050565b600061281d82612510565b6128278185612801565b935061283781856020860161252c565b61284081612207565b840191505092915050565b600060408201905081810360008301526128658185612812565b90506128746020830184611fe8565b9392505050565b600081905092915050565b600061289182612510565b61289b818561287b565b93506128ab81856020860161252c565b80840191505092915050565b60006128c38284612886565b915081905092915050565b7f4e487b7100000000000000000000000000000000000000000000000000000000600052602260045260246000fd5b6000600282049050600182168061291557607f821691505b602082108103612928576129276128ce565b5b50919050565b7f4e487b7100000000000000000000000000000000000000000000000000000000600052601160045260246000fd5b600061296882611fde565b915061297383611fde565b925082820261298181611fde565b915082820484148315176129985761299761292e565b5b5092915050565b60006129aa82611fde565b91507fffffffffffffffffffffffffffffffffffffffffffffffffffffffffffffffff82036129dc576129db61292e565b5b600182019050919050565b60006129f282611fde565b91506129fd83611fde565b9250828203905081811115612a1557612a1461292e565b5b92915050565b7f6e616d652069732074616b656e00000000000000000000000000000000000000600082015250565b6000612a51600d83612801565b9150612a5c82612a1b565b602082019050919050565b60006020820190508181036000830152612a8081612a44565b9050919050565b60008190508160005260206000209050919050565b60006020601f8301049050919050565b600082821b905092915050565b600060088302612ae97fffffffffffffffffffffffffffffffffffffffffffffffffffffffffffffffff82612aac565b612af38683612aac565b95508019841693508086168417925050509392505050565b6000819050919050565b6000612b30612b2b612b2684611fde565b612b0b565b611fde565b9050919050565b6000819050919050565b612b4a83612b15565b612b5e612b5682612b37565b848454612ab9565b825550505050565b600090565b612b73612b66565b612b7e818484612b41565b505050565b5b81811015612ba257612b97600082612b6b565b600181019050612b84565b5050565b601f821115612be757612bb881612a87565b612bc184612a9c565b81016020851015612bd0578190505b612be4612bdc85612a9c565b830182612b83565b50505b505050565b600082821c905092915050565b6000612c0a60001984600802612bec565b1980831691505092915050565b6000612c238383612bf9565b9150826002028217905092915050565b612c3c82612510565b67ffffffffffffffff811115612c5557612c54612218565b5b612c5f82546128fd565b612c6a828285612ba6565b600060209050601f831160018114612c9d5760008415612c8b578287015190505b612c958582612c17565b865550612cfd565b601f198416612cab86612a87565b60005b82811015612cd357848901518255600182019150602085019450602081019050612cae565b86831015612cf05784890151612cec601f891682612bf9565b8355505b6001600288020188555050505b505050505050565b7f43616e6e6f74207061737320616e20656d707479206861736800000000000000600082015250565b6000612d3b601983612801565b9150612d4682612d05565b602082019050919050565b60006020820190508181036000830152612d6a81612d2e565b9050919050565b7f43616e6e6f74206265206c6f6e676572207468616e2031302063686172730000600082015250565b6000612da7601e83612801565b9150612db282612d71565b602082019050919050565b60006020820190508181036000830152612dd681612d9a565b9050919050565b7f4552433732313a207472616e7366657220746f206e6f6e20455243373231526560008201527f63656976657220696d706c656d656e7465720000000000000000000000000000602082015250565b6000612e39603283612801565b9150612e4482612ddd565b604082019050919050565b60006020820190508181036000830152612e6881612e2c565b9050919050565b7f4552433732313a206d696e7420746f20746865207a65726f2061646472657373600082015250565b6000612ea5602083612801565b9150612eb082612e6f565b602082019050919050565b60006020820190508181036000830152612ed481612e98565b9050919050565b7f4552433732313a20746f6b656e20616c7265616479206d696e74656400000000600082015250565b6000612f11601c83612801565b9150612f1c82612edb565b602082019050919050565b60006020820190508181036000830152612f4081612f04565b9050919050565b600081519050919050565b600082825260208201905092915050565b6000612f6e82612f47565b612f788185612f52565b9350612f8881856020860161252c565b612f9181612207565b840191505092915050565b6000608082019050612fb1600083018761248a565b612fbe602083018661248a565b612fcb6040830185611fe8565b8181036060830152612fdd8184612f63565b905095945050505050565b60007fffffffff0000000000000000000000000000000000000000000000000000000082169050919050565b61301d81612fe8565b811461302857600080fd5b50565b60008151905061303a81613014565b92915050565b6000602082840312156130565761305561201c565b5b60006130648482850161302b565b9150509291505056fe68747470733a2f2f697066732e696f2f697066732f516d556257785564387358344d5a6f6a4b455255506d507539597441596659726f425334546531484a454b75637968747470733a2f2f697066732e696f2f697066732f516d625641427439734b704e55613844674d4a64653344424351796f72534354395631447a6436634a385a556d5068747470733a2f2f697066732e696f2f697066732f516d66424e4870787077554e67747736695842784b584c6256786f6d386d7064427367715a5a79353970524d354368747470733a2f2f697066732e696f2f697066732f516d5158655965397278526b6b716645423744725a52534732533179724e676a363456386d3676374b65747a516468747470733a2f2f697066732e696f2f697066732f516d55715a4b5275646e616e673147586244326e4848776d4a664e4e42465156646d6f483857416e65616969356868747470733a2f2f697066732e696f2f697066732f516d56357053734d47474d4c5733593979513871534c534d4451616b646e6a686a53346b356865366d4a79506548a2646970667358221220348ccc2c9187224418fa9849715759eece67084923180acc9c4f9139ae22f41c64736f6c63430008120033",
  "linkReferences": {},
  "deployedLinkReferences": {}
}