{
  "_format": "hh-sol-artifact-1",
  "contractName": "PlayerFacet",
  "sourceName": "contracts/facets/PlayerFacet.sol",
  "abi": [
    {
      "anonymous": false,
      "inputs": [
        {
          "indexed": true,
          "internalType": "address",
          "name": "owner",
          "type": "address"
        },
        {
          "indexed": true,
          "internalType": "address",
          "name": "approved",
          "type": "address"
        },
        {
          "indexed": true,
          "internalType": "uint256",
          "name": "tokenId",
          "type": "uint256"
        }
      ],
      "name": "Approval",
      "type": "event"
    },
    {
      "anonymous": false,
      "inputs": [
        {
          "indexed": true,
          "internalType": "address",
          "name": "owner",
          "type": "address"
        },
        {
          "indexed": true,
          "internalType": "address",
          "name": "operator",
          "type": "address"
        },
        {
          "indexed": false,
          "internalType": "bool",
          "name": "approved",
          "type": "bool"
        }
      ],
      "name": "ApprovalForAll",
      "type": "event"
    },
    {
      "anonymous": false,
      "inputs": [
        {
          "indexed": true,
          "internalType": "uint256",
          "name": "id",
          "type": "uint256"
        },
        {
          "indexed": true,
          "internalType": "address",
          "name": "owner",
          "type": "address"
        },
        {
          "indexed": false,
          "internalType": "string",
          "name": "name",
          "type": "string"
        },
        {
          "indexed": false,
          "internalType": "string",
          "name": "uri",
          "type": "string"
        }
      ],
      "name": "Mint",
      "type": "event"
    },
    {
      "anonymous": false,
      "inputs": [
        {
          "indexed": true,
          "internalType": "address",
          "name": "owner",
          "type": "address"
        },
        {
          "indexed": true,
          "internalType": "uint256",
          "name": "id",
          "type": "uint256"
        },
        {
          "indexed": true,
          "internalType": "string",
          "name": "newName",
          "type": "string"
        }
      ],
      "name": "NameChange",
      "type": "event"
    },
    {
      "anonymous": false,
      "inputs": [
        {
          "indexed": true,
          "internalType": "uint32",
          "name": "destination",
          "type": "uint32"
        },
        {
          "indexed": true,
          "internalType": "bytes32",
          "name": "recipient",
          "type": "bytes32"
        },
        {
          "indexed": false,
          "internalType": "uint256",
          "name": "amount",
          "type": "uint256"
        }
      ],
      "name": "SentTransferRemote",
      "type": "event"
    },
    {
      "anonymous": false,
      "inputs": [
        {
          "indexed": true,
          "internalType": "address",
          "name": "from",
          "type": "address"
        },
        {
          "indexed": true,
          "internalType": "address",
          "name": "to",
          "type": "address"
        },
        {
          "indexed": true,
          "internalType": "uint256",
          "name": "tokenId",
          "type": "uint256"
        }
      ],
      "name": "Transfer",
      "type": "event"
    },
    {
      "inputs": [
        {
          "internalType": "uint256",
          "name": "_id",
          "type": "uint256"
        },
        {
          "internalType": "string",
          "name": "_newName",
          "type": "string"
        }
      ],
      "name": "changeName",
      "outputs": [],
      "stateMutability": "nonpayable",
      "type": "function"
    },
    {
      "inputs": [],
      "name": "getBlocktime",
      "outputs": [
        {
          "internalType": "uint256",
          "name": "",
          "type": "uint256"
        }
      ],
      "stateMutability": "view",
      "type": "function"
    },
    {
      "inputs": [
        {
          "internalType": "uint256",
          "name": "_playerId",
          "type": "uint256"
        }
      ],
      "name": "getPlayer",
      "outputs": [
        {
          "components": [
            {
              "internalType": "uint256",
              "name": "level",
              "type": "uint256"
            },
            {
              "internalType": "uint256",
              "name": "xp",
              "type": "uint256"
            },
            {
              "internalType": "uint256",
              "name": "status",
              "type": "uint256"
            },
            {
              "internalType": "uint256",
              "name": "strength",
              "type": "uint256"
            },
            {
              "internalType": "uint256",
              "name": "health",
              "type": "uint256"
            },
            {
              "internalType": "uint256",
              "name": "currentHealth",
              "type": "uint256"
            },
            {
              "internalType": "uint256",
              "name": "magic",
              "type": "uint256"
            },
            {
              "internalType": "uint256",
              "name": "mana",
              "type": "uint256"
            },
            {
              "internalType": "uint256",
              "name": "agility",
              "type": "uint256"
            },
            {
              "internalType": "uint256",
              "name": "luck",
              "type": "uint256"
            },
            {
              "internalType": "uint256",
              "name": "wisdom",
              "type": "uint256"
            },
            {
              "internalType": "uint256",
              "name": "haki",
              "type": "uint256"
            },
            {
              "internalType": "uint256",
              "name": "perception",
              "type": "uint256"
            },
            {
              "internalType": "uint256",
              "name": "defense",
              "type": "uint256"
            },
            {
              "internalType": "string",
              "name": "name",
              "type": "string"
            },
            {
              "internalType": "string",
              "name": "uri",
              "type": "string"
            },
            {
              "internalType": "bool",
              "name": "male",
              "type": "bool"
            },
            {
              "components": [
                {
                  "internalType": "uint256",
                  "name": "head",
                  "type": "uint256"
                },
                {
                  "internalType": "uint256",
                  "name": "body",
                  "type": "uint256"
                },
                {
                  "internalType": "uint256",
                  "name": "leftHand",
                  "type": "uint256"
                },
                {
                  "internalType": "uint256",
                  "name": "rightHand",
                  "type": "uint256"
                },
                {
                  "internalType": "uint256",
                  "name": "pants",
                  "type": "uint256"
                },
                {
                  "internalType": "uint256",
                  "name": "feet",
                  "type": "uint256"
                },
                {
                  "internalType": "uint256",
                  "name": "neck",
                  "type": "uint256"
                }
              ],
              "internalType": "struct PlayerSlotLib.Slot",
              "name": "slot",
              "type": "tuple"
            }
          ],
          "internalType": "struct PlayerSlotLib.Player",
          "name": "player",
          "type": "tuple"
        }
      ],
      "stateMutability": "view",
      "type": "function"
    },
    {
      "inputs": [
        {
          "internalType": "address",
          "name": "_address",
          "type": "address"
        }
      ],
      "name": "getPlayers",
      "outputs": [
        {
          "internalType": "uint256[]",
          "name": "",
          "type": "uint256[]"
        }
      ],
      "stateMutability": "view",
      "type": "function"
    },
    {
      "inputs": [
        {
          "internalType": "string",
          "name": "_name",
          "type": "string"
        },
        {
          "internalType": "string",
          "name": "_uri",
          "type": "string"
        },
        {
          "internalType": "bool",
          "name": "_isMale",
          "type": "bool"
        }
      ],
      "name": "mint",
      "outputs": [],
      "stateMutability": "nonpayable",
      "type": "function"
    },
    {
      "inputs": [
        {
          "internalType": "string",
          "name": "_name",
          "type": "string"
        }
      ],
      "name": "nameAvailable",
      "outputs": [
        {
          "internalType": "bool",
          "name": "available",
          "type": "bool"
        }
      ],
      "stateMutability": "view",
      "type": "function"
    },
    {
      "inputs": [
        {
          "internalType": "uint256",
          "name": "_playerId",
          "type": "uint256"
        }
      ],
      "name": "ownerOfPlayer",
      "outputs": [
        {
          "internalType": "address",
          "name": "owner",
          "type": "address"
        }
      ],
      "stateMutability": "view",
      "type": "function"
    },
    {
      "inputs": [],
      "name": "playerCount",
      "outputs": [
        {
          "internalType": "uint256",
          "name": "",
          "type": "uint256"
        }
      ],
      "stateMutability": "view",
      "type": "function"
    }
  ],
  "bytecode": "0x608060405234801561001057600080fd5b5061243d806100206000396000f3fe608060405234801561001057600080fd5b50600436106100885760003560e01c8063bfcc8b6d1161005b578063bfcc8b6d14610129578063c1d885b114610159578063c39cbef114610175578063e55ae4e81461019157610088565b80630501b79f1461008d578063302bcc57146100ab5780637a80b6b4146100c957806382bbdbec146100f9575b600080fd5b6100956101c1565b6040516100a2919061144e565b60405180910390f35b6100b36101c9565b6040516100c0919061144e565b60405180910390f35b6100e360048036038101906100de91906114db565b6101d8565b6040516100f091906115c6565b60405180910390f35b610113600480360381019061010e919061172e565b6101ea565b6040516101209190611792565b60405180910390f35b610143600480360381019061013e91906117d9565b6101fc565b6040516101509190611815565b60405180910390f35b610173600480360381019061016e919061185c565b61020e565b005b61018f600480360381019061018a91906118e7565b610286565b005b6101ab60048036038101906101a691906117d9565b6102ee565b6040516101b89190611be8565b60405180910390f35b600042905090565b60006101d3610306565b905090565b60606101e38261031e565b9050919050565b60006101f5826103c4565b9050919050565b600061020782610407565b9050919050565b610219838383610452565b60006102236101c9565b90503373ffffffffffffffffffffffffffffffffffffffff16817fd113c872a0d148e963f842767b1f364bf6d826e6cbbc9917c498a9b94f9c7280868660405161026e929190611c54565b60405180910390a36102803382610908565b50505050565b6102908282610926565b8060405161029e9190611cc7565b6040518091039020823373ffffffffffffffffffffffffffffffffffffffff167fe4ce50a62b6cbb7d19acd75fd57f7e2588dd09705647d97993e2ece872c305b260405160405180910390a45050565b6102f6611365565b6102ff82610bda565b9050919050565b600080610311610e3c565b9050806001015491505090565b6060600061032a610e3c565b90508060070160008473ffffffffffffffffffffffffffffffffffffffff1673ffffffffffffffffffffffffffffffffffffffff1681526020019081526020016000208054806020026020016040519081016040528092919081815260200182805480156103b757602002820191906000526020600020905b8154815260200190600101908083116103a3575b5050505050915050919050565b6000806103cf610e3c565b905080600601836040516103e39190611cc7565b908152602001604051809103902060009054906101000a900460ff16915050919050565b600080610412610e3c565b905080600201600084815260200190815260200160002060009054906101000a900473ffffffffffffffffffffffffffffffffffffffff16915050919050565b600061045c610e3c565b905080600601846040516104709190611cc7565b908152602001604051809103902060009054906101000a900460ff16156104cc576040517f08c379a00000000000000000000000000000000000000000000000000000000081526004016104c390611d2a565b60405180910390fd5b600a845111156104db57600080fd5b6003845110156104ea57600080fd5b8060010160008154809291906104ff90611d79565b919050555060405180610240016040528060018152602001600081526020016000815260200160018152602001600a8152602001600a8152602001600181526020016001815260200160018152602001600181526020016001815260200160018152602001600181526020016001815260200185815260200184815260200183151581526020016040518060e00160405280600081526020016000815260200160008152602001600081526020016000815260200160008152602001600081525081525081600301600083600101548152602001908152602001600020600082015181600001556020820151816001015560408201518160020155606082015181600301556080820151816004015560a0820151816005015560c0820151816006015560e082015181600701556101008201518160080155610120820151816009015561014082015181600a015561016082015181600b015561018082015181600c01556101a082015181600d01556101c082015181600e0190816106849190611fcd565b506101e082015181600f01908161069b9190611fcd565b506102008201518160100160006101000a81548160ff02191690831515021790555061022082015181601101600082015181600001556020820151816001015560408201518160020155606082015181600301556080820151816004015560a0820151816005015560c0820151816006015550509050506040518060e00160405280600081526020016000815260200160008152602001600081526020016000815260200160008152602001600081525081600801600083600101548152602001908152602001600020600082015181600001556020820151816001015560408201518160020155606082015181600301556080820151816004015560a0820151816005015560c08201518160060155905050600181600601856040516107c29190611cc7565b908152602001604051809103902060006101000a81548160ff021916908315150217905550338160020160008360010154815260200190815260200160002060006101000a81548173ffffffffffffffffffffffffffffffffffffffff021916908373ffffffffffffffffffffffffffffffffffffffff1602179055508060070160003373ffffffffffffffffffffffffffffffffffffffff1673ffffffffffffffffffffffffffffffffffffffff168152602001908152602001600020816001015490806001815401808255809150506001900390600052602060002001600090919091909150558060040160003373ffffffffffffffffffffffffffffffffffffffff1673ffffffffffffffffffffffffffffffffffffffff16815260200190815260200160002060008154809291906108fd90611d79565b919050555050505050565b610922828260405180602001604052806000815250610e69565b5050565b6000610930610e3c565b90503373ffffffffffffffffffffffffffffffffffffffff1681600201600085815260200190815260200160002060009054906101000a900473ffffffffffffffffffffffffffffffffffffffff1673ffffffffffffffffffffffffffffffffffffffff161461099f57600080fd5b80600601826040516109b19190611cc7565b908152602001604051809103902060009054906101000a900460ff1615610a0d576040517f08c379a0000000000000000000000000000000000000000000000000000000008152600401610a0490611d2a565b60405180910390fd5b6003825111610a51576040517f08c379a0000000000000000000000000000000000000000000000000000000008152600401610a48906120eb565b60405180910390fd5b600a825110610a95576040517f08c379a0000000000000000000000000000000000000000000000000000000008152600401610a8c90612157565b60405180910390fd5b6000816003016000858152602001908152602001600020600e018054610aba90611df0565b80601f0160208091040260200160405190810160405280929190818152602001828054610ae690611df0565b8015610b335780601f10610b0857610100808354040283529160200191610b33565b820191906000526020600020905b815481529060010190602001808311610b1657829003601f168201915b50505050509050600081511115610b75578160060181604051610b569190611cc7565b908152602001604051809103902060006101000a81549060ff02191690555b82826003016000868152602001908152602001600020600e019081610b9a9190611fcd565b5060018260060184604051610baf9190611cc7565b908152602001604051809103902060006101000a81548160ff02191690831515021790555050505050565b610be2611365565b6000610bec610e3c565b90508060030160008481526020019081526020016000206040518061024001604052908160008201548152602001600182015481526020016002820154815260200160038201548152602001600482015481526020016005820154815260200160068201548152602001600782015481526020016008820154815260200160098201548152602001600a8201548152602001600b8201548152602001600c8201548152602001600d8201548152602001600e82018054610cab90611df0565b80601f0160208091040260200160405190810160405280929190818152602001828054610cd790611df0565b8015610d245780601f10610cf957610100808354040283529160200191610d24565b820191906000526020600020905b815481529060010190602001808311610d0757829003601f168201915b50505050508152602001600f82018054610d3d90611df0565b80601f0160208091040260200160405190810160405280929190818152602001828054610d6990611df0565b8015610db65780601f10610d8b57610100808354040283529160200191610db6565b820191906000526020600020905b815481529060010190602001808311610d9957829003601f168201915b505050505081526020016010820160009054906101000a900460ff16151515158152602001601182016040518060e001604052908160008201548152602001600182015481526020016002820154815260200160038201548152602001600482015481526020016005820154815260200160068201548152505081525050915050919050565b6000807f3cab9a070a0c61cd0ae9d9e9e2c0781e5ca8691bec4087e5a4701d5ac018dd4e90508091505090565b610e738383610ec4565b610e8060008484846110f3565b610ebf576040517f08c379a0000000000000000000000000000000000000000000000000000000008152600401610eb6906121e9565b60405180910390fd5b505050565b600073ffffffffffffffffffffffffffffffffffffffff168273ffffffffffffffffffffffffffffffffffffffff1603610f33576040517f08c379a0000000000000000000000000000000000000000000000000000000008152600401610f2a90612255565b60405180910390fd5b610f3c8161127a565b15610f7c576040517f08c379a0000000000000000000000000000000000000000000000000000000008152600401610f73906122c1565b60405180910390fd5b610f8a6000838360016112bb565b610f938161127a565b15610fd3576040517f08c379a0000000000000000000000000000000000000000000000000000000008152600401610fca906122c1565b60405180910390fd5b6001610fdd6112c1565b600a0160008473ffffffffffffffffffffffffffffffffffffffff1673ffffffffffffffffffffffffffffffffffffffff16815260200190815260200160002060008282540192505081905550816110336112c1565b600901600083815260200190815260200160002060006101000a81548173ffffffffffffffffffffffffffffffffffffffff021916908373ffffffffffffffffffffffffffffffffffffffff160217905550808273ffffffffffffffffffffffffffffffffffffffff16600073ffffffffffffffffffffffffffffffffffffffff167fddf252ad1be2c89b69c2b068fc378daa952ba7f163c4a11628f55a4df523b3ef60405160405180910390a46110ef6000838360016112ee565b5050565b60006111148473ffffffffffffffffffffffffffffffffffffffff166112f4565b1561126d578373ffffffffffffffffffffffffffffffffffffffff1663150b7a0261113d611317565b8786866040518563ffffffff1660e01b815260040161115f9493929190612336565b6020604051808303816000875af192505050801561119b57506040513d601f19601f8201168201806040525081019061119891906123da565b60015b61121d573d80600081146111cb576040519150601f19603f3d011682016040523d82523d6000602084013e6111d0565b606091505b506000815103611215576040517f08c379a000000000000000000000000000000000000000000000000000000000815260040161120c906121e9565b60405180910390fd5b805181602001fd5b63150b7a0260e01b7bffffffffffffffffffffffffffffffffffffffffffffffffffffffff1916817bffffffffffffffffffffffffffffffffffffffffffffffffffffffff191614915050611272565b600190505b949350505050565b60008073ffffffffffffffffffffffffffffffffffffffff1661129c8361131f565b73ffffffffffffffffffffffffffffffffffffffff1614159050919050565b50505050565b6000807f2569078dfb4b0305704d3008e7403993ae9601b85f7ae5e742de3de8f8011c4090508091505090565b50505050565b6000808273ffffffffffffffffffffffffffffffffffffffff163b119050919050565b600033905090565b60006113296112c1565b600901600083815260200190815260200160002060009054906101000a900473ffffffffffffffffffffffffffffffffffffffff169050919050565b604051806102400160405280600081526020016000815260200160008152602001600081526020016000815260200160008152602001600081526020016000815260200160008152602001600081526020016000815260200160008152602001600081526020016000815260200160608152602001606081526020016000151581526020016113f26113f8565b81525090565b6040518060e00160405280600081526020016000815260200160008152602001600081526020016000815260200160008152602001600081525090565b6000819050919050565b61144881611435565b82525050565b6000602082019050611463600083018461143f565b92915050565b6000604051905090565b600080fd5b600080fd5b600073ffffffffffffffffffffffffffffffffffffffff82169050919050565b60006114a88261147d565b9050919050565b6114b88161149d565b81146114c357600080fd5b50565b6000813590506114d5816114af565b92915050565b6000602082840312156114f1576114f0611473565b5b60006114ff848285016114c6565b91505092915050565b600081519050919050565b600082825260208201905092915050565b6000819050602082019050919050565b61153d81611435565b82525050565b600061154f8383611534565b60208301905092915050565b6000602082019050919050565b600061157382611508565b61157d8185611513565b935061158883611524565b8060005b838110156115b95781516115a08882611543565b97506115ab8361155b565b92505060018101905061158c565b5085935050505092915050565b600060208201905081810360008301526115e08184611568565b905092915050565b600080fd5b600080fd5b6000601f19601f8301169050919050565b7f4e487b7100000000000000000000000000000000000000000000000000000000600052604160045260246000fd5b61163b826115f2565b810181811067ffffffffffffffff8211171561165a57611659611603565b5b80604052505050565b600061166d611469565b90506116798282611632565b919050565b600067ffffffffffffffff82111561169957611698611603565b5b6116a2826115f2565b9050602081019050919050565b82818337600083830152505050565b60006116d16116cc8461167e565b611663565b9050828152602081018484840111156116ed576116ec6115ed565b5b6116f88482856116af565b509392505050565b600082601f830112611715576117146115e8565b5b81356117258482602086016116be565b91505092915050565b60006020828403121561174457611743611473565b5b600082013567ffffffffffffffff81111561176257611761611478565b5b61176e84828501611700565b91505092915050565b60008115159050919050565b61178c81611777565b82525050565b60006020820190506117a76000830184611783565b92915050565b6117b681611435565b81146117c157600080fd5b50565b6000813590506117d3816117ad565b92915050565b6000602082840312156117ef576117ee611473565b5b60006117fd848285016117c4565b91505092915050565b61180f8161149d565b82525050565b600060208201905061182a6000830184611806565b92915050565b61183981611777565b811461184457600080fd5b50565b60008135905061185681611830565b92915050565b60008060006060848603121561187557611874611473565b5b600084013567ffffffffffffffff81111561189357611892611478565b5b61189f86828701611700565b935050602084013567ffffffffffffffff8111156118c0576118bf611478565b5b6118cc86828701611700565b92505060406118dd86828701611847565b9150509250925092565b600080604083850312156118fe576118fd611473565b5b600061190c858286016117c4565b925050602083013567ffffffffffffffff81111561192d5761192c611478565b5b61193985828601611700565b9150509250929050565b600081519050919050565b600082825260208201905092915050565b60005b8381101561197d578082015181840152602081019050611962565b60008484015250505050565b600061199482611943565b61199e818561194e565b93506119ae81856020860161195f565b6119b7816115f2565b840191505092915050565b6119cb81611777565b82525050565b60e0820160008201516119e76000850182611534565b5060208201516119fa6020850182611534565b506040820151611a0d6040850182611534565b506060820151611a206060850182611534565b506080820151611a336080850182611534565b5060a0820151611a4660a0850182611534565b5060c0820151611a5960c0850182611534565b50505050565b600061030083016000830151611a786000860182611534565b506020830151611a8b6020860182611534565b506040830151611a9e6040860182611534565b506060830151611ab16060860182611534565b506080830151611ac46080860182611534565b5060a0830151611ad760a0860182611534565b5060c0830151611aea60c0860182611534565b5060e0830151611afd60e0860182611534565b50610100830151611b12610100860182611534565b50610120830151611b27610120860182611534565b50610140830151611b3c610140860182611534565b50610160830151611b51610160860182611534565b50610180830151611b66610180860182611534565b506101a0830151611b7b6101a0860182611534565b506101c08301518482036101c0860152611b958282611989565b9150506101e08301518482036101e0860152611bb18282611989565b915050610200830151611bc86102008601826119c2565b50610220830151611bdd6102208601826119d1565b508091505092915050565b60006020820190508181036000830152611c028184611a5f565b905092915050565b600082825260208201905092915050565b6000611c2682611943565b611c308185611c0a565b9350611c4081856020860161195f565b611c49816115f2565b840191505092915050565b60006040820190508181036000830152611c6e8185611c1b565b90508181036020830152611c828184611c1b565b90509392505050565b600081905092915050565b6000611ca182611943565b611cab8185611c8b565b9350611cbb81856020860161195f565b80840191505092915050565b6000611cd38284611c96565b915081905092915050565b7f6e616d652069732074616b656e00000000000000000000000000000000000000600082015250565b6000611d14600d83611c0a565b9150611d1f82611cde565b602082019050919050565b60006020820190508181036000830152611d4381611d07565b9050919050565b7f4e487b7100000000000000000000000000000000000000000000000000000000600052601160045260246000fd5b6000611d8482611435565b91507fffffffffffffffffffffffffffffffffffffffffffffffffffffffffffffffff8203611db657611db5611d4a565b5b600182019050919050565b7f4e487b7100000000000000000000000000000000000000000000000000000000600052602260045260246000fd5b60006002820490506001821680611e0857607f821691505b602082108103611e1b57611e1a611dc1565b5b50919050565b60008190508160005260206000209050919050565b60006020601f8301049050919050565b600082821b905092915050565b600060088302611e837fffffffffffffffffffffffffffffffffffffffffffffffffffffffffffffffff82611e46565b611e8d8683611e46565b95508019841693508086168417925050509392505050565b6000819050919050565b6000611eca611ec5611ec084611435565b611ea5565b611435565b9050919050565b6000819050919050565b611ee483611eaf565b611ef8611ef082611ed1565b848454611e53565b825550505050565b600090565b611f0d611f00565b611f18818484611edb565b505050565b5b81811015611f3c57611f31600082611f05565b600181019050611f1e565b5050565b601f821115611f8157611f5281611e21565b611f5b84611e36565b81016020851015611f6a578190505b611f7e611f7685611e36565b830182611f1d565b50505b505050565b600082821c905092915050565b6000611fa460001984600802611f86565b1980831691505092915050565b6000611fbd8383611f93565b9150826002028217905092915050565b611fd682611943565b67ffffffffffffffff811115611fef57611fee611603565b5b611ff98254611df0565b612004828285611f40565b600060209050601f8311600181146120375760008415612025578287015190505b61202f8582611fb1565b865550612097565b601f19841661204586611e21565b60005b8281101561206d57848901518255600182019150602085019450602081019050612048565b8683101561208a5784890151612086601f891682611f93565b8355505b6001600288020188555050505b505050505050565b7f43616e6e6f74207061737320616e20656d707479206861736800000000000000600082015250565b60006120d5601983611c0a565b91506120e08261209f565b602082019050919050565b60006020820190508181036000830152612104816120c8565b9050919050565b7f43616e6e6f74206265206c6f6e676572207468616e2031302063686172730000600082015250565b6000612141601e83611c0a565b915061214c8261210b565b602082019050919050565b6000602082019050818103600083015261217081612134565b9050919050565b7f4552433732313a207472616e7366657220746f206e6f6e20455243373231526560008201527f63656976657220696d706c656d656e7465720000000000000000000000000000602082015250565b60006121d3603283611c0a565b91506121de82612177565b604082019050919050565b60006020820190508181036000830152612202816121c6565b9050919050565b7f4552433732313a206d696e7420746f20746865207a65726f2061646472657373600082015250565b600061223f602083611c0a565b915061224a82612209565b602082019050919050565b6000602082019050818103600083015261226e81612232565b9050919050565b7f4552433732313a20746f6b656e20616c7265616479206d696e74656400000000600082015250565b60006122ab601c83611c0a565b91506122b682612275565b602082019050919050565b600060208201905081810360008301526122da8161229e565b9050919050565b600081519050919050565b600082825260208201905092915050565b6000612308826122e1565b61231281856122ec565b935061232281856020860161195f565b61232b816115f2565b840191505092915050565b600060808201905061234b6000830187611806565b6123586020830186611806565b612365604083018561143f565b818103606083015261237781846122fd565b905095945050505050565b60007fffffffff0000000000000000000000000000000000000000000000000000000082169050919050565b6123b781612382565b81146123c257600080fd5b50565b6000815190506123d4816123ae565b92915050565b6000602082840312156123f0576123ef611473565b5b60006123fe848285016123c5565b9150509291505056fea26469706673582212201c2c299ce50412ba356e9ae0daf68d5093a24dc494352bc59511611fe7ea538764736f6c63430008110033",
  "linkReferences": {},
  "deployedLinkReferences": {}
}