{
  "_format": "hh-sol-artifact-1",
  "contractName": "CalldataExtractor",
  "sourceName": "@redstone-finance/evm-connector/contracts/core/CalldataExtractor.sol",
  "abi": [
    {
      "inputs": [],
      "name": "CalldataMustHaveValidPayload",
      "type": "error"
    },
    {
      "inputs": [],
      "name": "CalldataOverOrUnderFlow",
      "type": "error"
    },
    {
      "inputs": [],
      "name": "DataPackageTimestampMustNotBeZero",
      "type": "error"
    },
    {
      "inputs": [],
      "name": "DataPackageTimestampsMustBeEqual",
      "type": "error"
    },
    {
      "inputs": [],
      "name": "EachSignerMustProvideTheSameValue",
      "type": "error"
    },
    {
      "inputs": [],
      "name": "EmptyCalldataPointersArr",
      "type": "error"
    },
    {
      "inputs": [],
      "name": "IncorrectUnsignedMetadataSize",
      "type": "error"
    },
    {
      "inputs": [
        {
          "internalType": "uint256",
          "name": "receivedSignersCount",
          "type": "uint256"
        },
        {
          "internalType": "uint256",
          "name": "requiredSignersCount",
          "type": "uint256"
        }
      ],
      "name": "InsufficientNumberOfUniqueSigners",
      "type": "error"
    },
    {
      "inputs": [],
      "name": "InvalidCalldataPointer",
      "type": "error"
    },
    {
      "inputs": [],
      "name": "RedstonePayloadMustHaveAtLeastOneDataPackage",
      "type": "error"
    },
    {
      "inputs": [
        {
          "internalType": "address",
          "name": "receivedSigner",
          "type": "address"
        }
      ],
      "name": "SignerNotAuthorised",
      "type": "error"
    },
    {
      "inputs": [],
      "name": "extractTimestampsAndAssertAllAreEqual",
      "outputs": [
        {
          "internalType": "uint256",
          "name": "extractedTimestamp",
          "type": "uint256"
        }
      ],
      "stateMutability": "pure",
      "type": "function"
    }
  ],
  "bytecode": "0x608060405234801561001057600080fd5b50610581806100206000396000f3fe608060405234801561001057600080fd5b506004361061002b5760003560e01c806355a547d514610030575b600080fd5b61003861004e565b604051610045919061040f565b60405180910390f35b6000806100596101be565b90506000610066826102cf565b61ffff169050600081036100a6576040517f8552ff3c00000000000000000000000000000000000000000000000000000000815260040160405180910390fd5b6002826100b39190610459565b915060005b818110156101b85760006100cb8461032b565b90506000806068866100dd9190610459565b905060008160003690506100f1919061048d565b90508035925060008365ffffffffffff1603610139576040517f336dc9d000000000000000000000000000000000000000000000000000000000815260040160405180910390fd5b60008803610151578265ffffffffffff169750610193565b878365ffffffffffff1614610192576040517fd9d1f46500000000000000000000000000000000000000000000000000000000815260040160405180910390fd5b5b838761019f9190610459565b96505050505080806101b0906104c1565b9150506100b8565b50505090565b60008060203603356602ed57011e000081166602ed57011e00001491505080610213576040517fe7764c9e00000000000000000000000000000000000000000000000000000000815260040160405180910390fd5b60008036905060291115610253576040517f5796f78a00000000000000000000000000000000000000000000000000000000815260040160405180910390fd5b602936033590506000600960038362ffffff166102709190610459565b61027a9190610459565b9050600036905060028261028e9190610459565b11156102c6576040517fc30a7bd700000000000000000000000000000000000000000000000000000000815260040160405180910390fd5b80935050505090565b6000806020836102df9190610459565b9050600036905081111561031f576040517f5796f78a00000000000000000000000000000000000000000000000000000000815260040160405180910390fd5b80360335915050919050565b60008060006103398461036a565b91509150604e81602061034c9190610459565b836103579190610509565b6103619190610459565b92505050919050565b600080600080600060418661037f9190610459565b905060006103a66020836103939190610459565b60003690506103e090919063ffffffff16565b9050803593506103c06003826103e090919063ffffffff16565b9050803592508362ffffff1695508263ffffffff16945050505050915091565b600081836103ee919061048d565b905092915050565b6000819050919050565b610409816103f6565b82525050565b60006020820190506104246000830184610400565b92915050565b7f4e487b7100000000000000000000000000000000000000000000000000000000600052601160045260246000fd5b6000610464826103f6565b915061046f836103f6565b92508282019050808211156104875761048661042a565b5b92915050565b6000610498826103f6565b91506104a3836103f6565b92508282039050818111156104bb576104ba61042a565b5b92915050565b60006104cc826103f6565b91507fffffffffffffffffffffffffffffffffffffffffffffffffffffffffffffffff82036104fe576104fd61042a565b5b600182019050919050565b6000610514826103f6565b915061051f836103f6565b925082820261052d816103f6565b915082820484148315176105445761054361042a565b5b509291505056fea2646970667358221220ffe0312160cdd470feb6e79ddeaeee8749c5fba0d74011198af3b431245310e964736f6c63430008120033",
  "linkReferences": {},
  "deployedLinkReferences": {}
}